{
  "contractName": "Bonding",
  "abi": [
    {
      "anonymous": false,
      "inputs": [
        {
          "indexed": true,
          "internalType": "address",
          "name": "account",
          "type": "address"
        },
        {
          "indexed": false,
          "internalType": "uint256",
          "name": "start",
          "type": "uint256"
        },
        {
          "indexed": false,
          "internalType": "uint256",
          "name": "value",
          "type": "uint256"
        },
        {
          "indexed": false,
          "internalType": "uint256",
          "name": "valueUnderlying",
          "type": "uint256"
        }
      ],
      "name": "Bond",
      "type": "event"
    },
    {
      "anonymous": false,
      "inputs": [
        {
          "indexed": true,
          "internalType": "address",
          "name": "account",
          "type": "address"
        },
        {
          "indexed": false,
          "internalType": "uint256",
          "name": "value",
          "type": "uint256"
        }
      ],
      "name": "Deposit",
      "type": "event"
    },
    {
      "anonymous": false,
      "inputs": [
        {
          "indexed": true,
          "internalType": "address",
          "name": "from",
          "type": "address"
        },
        {
          "indexed": true,
          "internalType": "address",
          "name": "to",
          "type": "address"
        },
        {
          "indexed": false,
          "internalType": "uint256",
          "name": "value",
          "type": "uint256"
        }
      ],
      "name": "Transfer",
      "type": "event"
    },
    {
      "anonymous": false,
      "inputs": [
        {
          "indexed": true,
          "internalType": "address",
          "name": "account",
          "type": "address"
        },
        {
          "indexed": false,
          "internalType": "uint256",
          "name": "start",
          "type": "uint256"
        },
        {
          "indexed": false,
          "internalType": "uint256",
          "name": "value",
          "type": "uint256"
        },
        {
          "indexed": false,
          "internalType": "uint256",
          "name": "valueUnderlying",
          "type": "uint256"
        }
      ],
      "name": "Unbond",
      "type": "event"
    },
    {
      "anonymous": false,
      "inputs": [
        {
          "indexed": true,
          "internalType": "address",
          "name": "account",
          "type": "address"
        },
        {
          "indexed": false,
          "internalType": "uint256",
          "name": "value",
          "type": "uint256"
        }
      ],
      "name": "Withdraw",
      "type": "event"
    },
    {
      "constant": true,
      "inputs": [
        {
          "internalType": "address",
          "name": "owner",
          "type": "address"
        },
        {
          "internalType": "address",
          "name": "spender",
          "type": "address"
        }
      ],
      "name": "allowance",
      "outputs": [
        {
          "internalType": "uint256",
          "name": "",
          "type": "uint256"
        }
      ],
      "payable": false,
      "stateMutability": "view",
      "type": "function"
    },
    {
      "constant": true,
      "inputs": [
        {
          "internalType": "address",
          "name": "owner",
          "type": "address"
        },
        {
          "internalType": "address",
          "name": "spender",
          "type": "address"
        }
      ],
      "name": "allowanceCoupons",
      "outputs": [
        {
          "internalType": "uint256",
          "name": "",
          "type": "uint256"
        }
      ],
      "payable": false,
      "stateMutability": "view",
      "type": "function"
    },
    {
      "constant": false,
      "inputs": [
        {
          "internalType": "address",
          "name": "spender",
          "type": "address"
        },
        {
          "internalType": "uint256",
          "name": "amount",
          "type": "uint256"
        }
      ],
      "name": "approve",
      "outputs": [
        {
          "internalType": "bool",
          "name": "",
          "type": "bool"
        }
      ],
      "payable": false,
      "stateMutability": "nonpayable",
      "type": "function"
    },
    {
      "constant": true,
      "inputs": [
        {
          "internalType": "address",
          "name": "candidate",
          "type": "address"
        }
      ],
      "name": "approveFor",
      "outputs": [
        {
          "internalType": "uint256",
          "name": "",
          "type": "uint256"
        }
      ],
      "payable": false,
      "stateMutability": "view",
      "type": "function"
    },
    {
      "constant": true,
      "inputs": [
        {
          "internalType": "address",
          "name": "account",
          "type": "address"
        }
      ],
      "name": "balanceOf",
      "outputs": [
        {
          "internalType": "uint256",
          "name": "",
          "type": "uint256"
        }
      ],
      "payable": false,
      "stateMutability": "view",
      "type": "function"
    },
    {
      "constant": true,
      "inputs": [
        {
          "internalType": "address",
          "name": "account",
          "type": "address"
        }
      ],
      "name": "balanceOfBonded",
      "outputs": [
        {
          "internalType": "uint256",
          "name": "",
          "type": "uint256"
        }
      ],
      "payable": false,
      "stateMutability": "view",
      "type": "function"
    },
    {
      "constant": true,
      "inputs": [
        {
          "internalType": "address",
          "name": "account",
          "type": "address"
        },
        {
          "internalType": "uint256",
          "name": "epoch",
          "type": "uint256"
        }
      ],
      "name": "balanceOfCoupons",
      "outputs": [
        {
          "internalType": "uint256",
          "name": "",
          "type": "uint256"
        }
      ],
      "payable": false,
      "stateMutability": "view",
      "type": "function"
    },
    {
      "constant": true,
      "inputs": [
        {
          "internalType": "address",
          "name": "account",
          "type": "address"
        }
      ],
      "name": "balanceOfStaged",
      "outputs": [
        {
          "internalType": "uint256",
          "name": "",
          "type": "uint256"
        }
      ],
      "payable": false,
      "stateMutability": "view",
      "type": "function"
    },
    {
      "constant": true,
      "inputs": [
        {
          "internalType": "uint256",
          "name": "epoch",
          "type": "uint256"
        }
      ],
      "name": "bootstrappingAt",
      "outputs": [
        {
          "internalType": "bool",
          "name": "",
          "type": "bool"
        }
      ],
      "payable": false,
      "stateMutability": "view",
      "type": "function"
    },
    {
      "constant": true,
      "inputs": [
        {
          "internalType": "uint256",
          "name": "epoch",
          "type": "uint256"
        }
      ],
      "name": "couponsExpiration",
      "outputs": [
        {
          "internalType": "uint256",
          "name": "",
          "type": "uint256"
        }
      ],
      "payable": false,
      "stateMutability": "view",
      "type": "function"
    },
    {
      "constant": true,
      "inputs": [],
      "name": "decimals",
      "outputs": [
        {
          "internalType": "uint8",
          "name": "",
          "type": "uint8"
        }
      ],
      "payable": false,
      "stateMutability": "view",
      "type": "function"
    },
    {
      "constant": true,
      "inputs": [],
      "name": "dollar",
      "outputs": [
        {
          "internalType": "contract IDollar",
          "name": "",
          "type": "address"
        }
      ],
      "payable": false,
      "stateMutability": "view",
      "type": "function"
    },
    {
      "constant": true,
      "inputs": [],
      "name": "epoch",
      "outputs": [
        {
          "internalType": "uint256",
          "name": "",
          "type": "uint256"
        }
      ],
      "payable": false,
      "stateMutability": "view",
      "type": "function"
    },
    {
      "constant": true,
      "inputs": [],
      "name": "epochTime",
      "outputs": [
        {
          "internalType": "uint256",
          "name": "",
          "type": "uint256"
        }
      ],
      "payable": false,
      "stateMutability": "view",
      "type": "function"
    },
    {
      "constant": true,
      "inputs": [
        {
          "internalType": "uint256",
          "name": "epoch",
          "type": "uint256"
        }
      ],
      "name": "expiringCoupons",
      "outputs": [
        {
          "internalType": "uint256",
          "name": "",
          "type": "uint256"
        }
      ],
      "payable": false,
      "stateMutability": "view",
      "type": "function"
    },
    {
      "constant": true,
      "inputs": [
        {
          "internalType": "uint256",
          "name": "epoch",
          "type": "uint256"
        },
        {
          "internalType": "uint256",
          "name": "i",
          "type": "uint256"
        }
      ],
      "name": "expiringCouponsAtIndex",
      "outputs": [
        {
          "internalType": "uint256",
          "name": "",
          "type": "uint256"
        }
      ],
      "payable": false,
      "stateMutability": "view",
      "type": "function"
    },
    {
      "constant": true,
      "inputs": [
        {
          "internalType": "address",
          "name": "account",
          "type": "address"
        }
      ],
      "name": "fluidUntil",
      "outputs": [
        {
          "internalType": "uint256",
          "name": "",
          "type": "uint256"
        }
      ],
      "payable": false,
      "stateMutability": "view",
      "type": "function"
    },
    {
      "constant": true,
      "inputs": [
        {
          "internalType": "uint256",
          "name": "epoch",
          "type": "uint256"
        }
      ],
      "name": "getAvgExpiryFilled",
      "outputs": [
        {
          "internalType": "uint256",
          "name": "",
          "type": "uint256"
        }
      ],
      "payable": false,
      "stateMutability": "view",
      "type": "function"
    },
    {
      "constant": true,
      "inputs": [
        {
          "internalType": "uint256",
          "name": "epoch",
          "type": "uint256"
        }
      ],
      "name": "getAvgYieldFilled",
      "outputs": [
        {
          "internalType": "uint256",
          "name": "",
          "type": "uint256"
        }
      ],
      "payable": false,
      "stateMutability": "view",
      "type": "function"
    },
    {
      "constant": true,
      "inputs": [
        {
          "internalType": "uint256",
          "name": "epoch",
          "type": "uint256"
        }
      ],
      "name": "getBidToCover",
      "outputs": [
        {
          "internalType": "uint256",
          "name": "",
          "type": "uint256"
        }
      ],
      "payable": false,
      "stateMutability": "view",
      "type": "function"
    },
    {
      "constant": true,
      "inputs": [
        {
          "internalType": "uint256",
          "name": "epoch",
          "type": "uint256"
        }
      ],
      "name": "getMaxExpiryFilled",
      "outputs": [
        {
          "internalType": "uint256",
          "name": "",
          "type": "uint256"
        }
      ],
      "payable": false,
      "stateMutability": "view",
      "type": "function"
    },
    {
      "constant": true,
      "inputs": [
        {
          "internalType": "uint256",
          "name": "epoch",
          "type": "uint256"
        }
      ],
      "name": "getMaxYieldFilled",
      "outputs": [
        {
          "internalType": "uint256",
          "name": "",
          "type": "uint256"
        }
      ],
      "payable": false,
      "stateMutability": "view",
      "type": "function"
    },
    {
      "constant": true,
      "inputs": [
        {
          "internalType": "uint256",
          "name": "epoch",
          "type": "uint256"
        }
      ],
      "name": "getMinExpiryFilled",
      "outputs": [
        {
          "internalType": "uint256",
          "name": "",
          "type": "uint256"
        }
      ],
      "payable": false,
      "stateMutability": "view",
      "type": "function"
    },
    {
      "constant": true,
      "inputs": [
        {
          "internalType": "uint256",
          "name": "epoch",
          "type": "uint256"
        }
      ],
      "name": "getMinYieldFilled",
      "outputs": [
        {
          "internalType": "uint256",
          "name": "",
          "type": "uint256"
        }
      ],
      "payable": false,
      "stateMutability": "view",
      "type": "function"
    },
    {
      "constant": true,
      "inputs": [
        {
          "internalType": "uint256",
          "name": "epoch",
          "type": "uint256"
        }
      ],
      "name": "getTotalFilled",
      "outputs": [
        {
          "internalType": "uint256",
          "name": "",
          "type": "uint256"
        }
      ],
      "payable": false,
      "stateMutability": "view",
      "type": "function"
    },
    {
      "constant": true,
      "inputs": [],
      "name": "implementation",
      "outputs": [
        {
          "internalType": "address",
          "name": "impl",
          "type": "address"
        }
      ],
      "payable": false,
      "stateMutability": "view",
      "type": "function"
    },
    {
      "constant": true,
      "inputs": [
        {
          "internalType": "address",
          "name": "candidate",
          "type": "address"
        }
      ],
      "name": "isInitialized",
      "outputs": [
        {
          "internalType": "bool",
          "name": "",
          "type": "bool"
        }
      ],
      "payable": false,
      "stateMutability": "view",
      "type": "function"
    },
    {
      "constant": true,
      "inputs": [
        {
          "internalType": "address",
          "name": "candidate",
          "type": "address"
        }
      ],
      "name": "isNominated",
      "outputs": [
        {
          "internalType": "bool",
          "name": "",
          "type": "bool"
        }
      ],
      "payable": false,
      "stateMutability": "view",
      "type": "function"
    },
    {
      "constant": true,
      "inputs": [
        {
          "internalType": "address",
          "name": "account",
          "type": "address"
        }
      ],
      "name": "lockedUntil",
      "outputs": [
        {
          "internalType": "uint256",
          "name": "",
          "type": "uint256"
        }
      ],
      "payable": false,
      "stateMutability": "view",
      "type": "function"
    },
    {
      "constant": true,
      "inputs": [],
      "name": "name",
      "outputs": [
        {
          "internalType": "string",
          "name": "",
          "type": "string"
        }
      ],
      "payable": false,
      "stateMutability": "view",
      "type": "function"
    },
    {
      "constant": true,
      "inputs": [],
      "name": "oracle",
      "outputs": [
        {
          "internalType": "contract IOracle",
          "name": "",
          "type": "address"
        }
      ],
      "payable": false,
      "stateMutability": "view",
      "type": "function"
    },
    {
      "constant": true,
      "inputs": [
        {
          "internalType": "uint256",
          "name": "epoch",
          "type": "uint256"
        }
      ],
      "name": "outstandingCoupons",
      "outputs": [
        {
          "internalType": "uint256",
          "name": "",
          "type": "uint256"
        }
      ],
      "payable": false,
      "stateMutability": "view",
      "type": "function"
    },
    {
      "constant": true,
      "inputs": [
        {
          "internalType": "address",
          "name": "candidate",
          "type": "address"
        }
      ],
      "name": "periodFor",
      "outputs": [
        {
          "internalType": "uint256",
          "name": "",
          "type": "uint256"
        }
      ],
      "payable": false,
      "stateMutability": "view",
      "type": "function"
    },
    {
      "constant": true,
      "inputs": [],
      "name": "pool",
      "outputs": [
        {
          "internalType": "address",
          "name": "",
          "type": "address"
        }
      ],
      "payable": false,
      "stateMutability": "view",
      "type": "function"
    },
    {
      "constant": true,
      "inputs": [
        {
          "internalType": "address",
          "name": "account",
          "type": "address"
        },
        {
          "internalType": "address",
          "name": "candidate",
          "type": "address"
        }
      ],
      "name": "recordedVote",
      "outputs": [
        {
          "internalType": "enum Candidate.Vote",
          "name": "",
          "type": "uint8"
        }
      ],
      "payable": false,
      "stateMutability": "view",
      "type": "function"
    },
    {
      "constant": true,
      "inputs": [
        {
          "internalType": "address",
          "name": "candidate",
          "type": "address"
        }
      ],
      "name": "rejectFor",
      "outputs": [
        {
          "internalType": "uint256",
          "name": "",
          "type": "uint256"
        }
      ],
      "payable": false,
      "stateMutability": "view",
      "type": "function"
    },
    {
      "constant": true,
      "inputs": [
        {
          "internalType": "address",
          "name": "candidate",
          "type": "address"
        }
      ],
      "name": "startFor",
      "outputs": [
        {
          "internalType": "uint256",
          "name": "",
          "type": "uint256"
        }
      ],
      "payable": false,
      "stateMutability": "view",
      "type": "function"
    },
    {
      "constant": true,
      "inputs": [
        {
          "internalType": "address",
          "name": "account",
          "type": "address"
        }
      ],
      "name": "statusOf",
      "outputs": [
        {
          "internalType": "enum Account.Status",
          "name": "",
          "type": "uint8"
        }
      ],
      "payable": false,
      "stateMutability": "view",
      "type": "function"
    },
    {
      "constant": true,
      "inputs": [],
      "name": "symbol",
      "outputs": [
        {
          "internalType": "string",
          "name": "",
          "type": "string"
        }
      ],
      "payable": false,
      "stateMutability": "view",
      "type": "function"
    },
    {
      "constant": true,
      "inputs": [],
      "name": "totalBonded",
      "outputs": [
        {
          "internalType": "uint256",
          "name": "",
          "type": "uint256"
        }
      ],
      "payable": false,
      "stateMutability": "view",
      "type": "function"
    },
    {
      "constant": true,
      "inputs": [
        {
          "internalType": "uint256",
          "name": "epoch",
          "type": "uint256"
        }
      ],
      "name": "totalBondedAt",
      "outputs": [
        {
          "internalType": "uint256",
          "name": "",
          "type": "uint256"
        }
      ],
      "payable": false,
      "stateMutability": "view",
      "type": "function"
    },
    {
      "constant": true,
      "inputs": [],
      "name": "totalCoupons",
      "outputs": [
        {
          "internalType": "uint256",
          "name": "",
          "type": "uint256"
        }
      ],
      "payable": false,
      "stateMutability": "view",
      "type": "function"
    },
    {
      "constant": true,
      "inputs": [],
      "name": "totalDebt",
      "outputs": [
        {
          "internalType": "uint256",
          "name": "",
          "type": "uint256"
        }
      ],
      "payable": false,
      "stateMutability": "view",
      "type": "function"
    },
    {
      "constant": true,
      "inputs": [],
      "name": "totalNet",
      "outputs": [
        {
          "internalType": "uint256",
          "name": "",
          "type": "uint256"
        }
      ],
      "payable": false,
      "stateMutability": "view",
      "type": "function"
    },
    {
      "constant": true,
      "inputs": [],
      "name": "totalRedeemable",
      "outputs": [
        {
          "internalType": "uint256",
          "name": "",
          "type": "uint256"
        }
      ],
      "payable": false,
      "stateMutability": "view",
      "type": "function"
    },
    {
      "constant": true,
      "inputs": [],
      "name": "totalStaged",
      "outputs": [
        {
          "internalType": "uint256",
          "name": "",
          "type": "uint256"
        }
      ],
      "payable": false,
      "stateMutability": "view",
      "type": "function"
    },
    {
      "constant": true,
      "inputs": [],
      "name": "totalSupply",
      "outputs": [
        {
          "internalType": "uint256",
          "name": "",
          "type": "uint256"
        }
      ],
      "payable": false,
      "stateMutability": "view",
      "type": "function"
    },
    {
      "constant": false,
      "inputs": [
        {
          "internalType": "address",
          "name": "recipient",
          "type": "address"
        },
        {
          "internalType": "uint256",
          "name": "amount",
          "type": "uint256"
        }
      ],
      "name": "transfer",
      "outputs": [
        {
          "internalType": "bool",
          "name": "",
          "type": "bool"
        }
      ],
      "payable": false,
      "stateMutability": "nonpayable",
      "type": "function"
    },
    {
      "constant": false,
      "inputs": [
        {
          "internalType": "address",
          "name": "sender",
          "type": "address"
        },
        {
          "internalType": "address",
          "name": "recipient",
          "type": "address"
        },
        {
          "internalType": "uint256",
          "name": "amount",
          "type": "uint256"
        }
      ],
      "name": "transferFrom",
      "outputs": [
        {
          "internalType": "bool",
          "name": "",
          "type": "bool"
        }
      ],
      "payable": false,
      "stateMutability": "nonpayable",
      "type": "function"
    },
    {
      "constant": true,
      "inputs": [
        {
          "internalType": "address",
          "name": "candidate",
          "type": "address"
        }
      ],
      "name": "votesFor",
      "outputs": [
        {
          "internalType": "uint256",
          "name": "",
          "type": "uint256"
        }
      ],
      "payable": false,
      "stateMutability": "view",
      "type": "function"
    },
    {
      "constant": false,
      "inputs": [
        {
          "internalType": "uint256",
          "name": "value",
          "type": "uint256"
        }
      ],
      "name": "deposit",
      "outputs": [],
      "payable": false,
      "stateMutability": "nonpayable",
      "type": "function"
    },
    {
      "constant": false,
      "inputs": [
        {
          "internalType": "uint256",
          "name": "value",
          "type": "uint256"
        }
      ],
      "name": "withdraw",
      "outputs": [],
      "payable": false,
      "stateMutability": "nonpayable",
      "type": "function"
    },
    {
      "constant": false,
      "inputs": [
        {
          "internalType": "uint256",
          "name": "value",
          "type": "uint256"
        }
      ],
      "name": "bond",
      "outputs": [],
      "payable": false,
      "stateMutability": "nonpayable",
      "type": "function"
    },
    {
      "constant": false,
      "inputs": [
        {
          "internalType": "uint256",
          "name": "value",
          "type": "uint256"
        }
      ],
      "name": "unbond",
      "outputs": [],
      "payable": false,
      "stateMutability": "nonpayable",
      "type": "function"
    },
    {
      "constant": false,
      "inputs": [
        {
          "internalType": "uint256",
          "name": "value",
          "type": "uint256"
        }
      ],
      "name": "unbondUnderlying",
      "outputs": [],
      "payable": false,
      "stateMutability": "nonpayable",
      "type": "function"
    }
  ],
  "bytecode": "0x608060405234801561001057600080fd5b50611bd6806100206000396000f3fe608060405234801561001057600080fd5b506004361061035d5760003560e01c80637d8bb869116101d3578063b6b55f2511610104578063d60b347f116100a2578063eeaca09b1161007c578063eeaca09b146106d4578063f1b7cf49146106e7578063fc7b9c18146106fa578063ffbe3b73146107025761035d565b8063d60b347f146106a0578063dd62ed3e146106b3578063df9a2b1c146106c15761035d565b8063c9aff70c116100de578063c9aff70c1461065f578063cb0fbc7114610672578063cf02377914610685578063d53c6f5f1461068d5761035d565b8063b6b55f2514610626578063bc7513e214610639578063c34eee651461064c5761035d565b80639940686e116101715780639f6e1b261161014b5780639f6e1b26146105f8578063a50cd8e71461060b578063a6c409f11461061e578063a9059cbb146103805761035d565b80639940686e146105ca5780639a649edc146105dd5780639bc289f1146105e55761035d565b806386cf9f14116101ad57806386cf9f1414610594578063900cf0cf146105a757806395d89b41146105af57806397a5d5b5146105b75761035d565b80637d8bb869146105665780637dc0d1d014610579578063825ad607146105815761035d565b80633a3e6c81116102ad57806351bf21d81161024b5780636466802211610225578063646680221461051a5780636a39e3281461052d57806370a082311461054057806375d5024b146105535761035d565b806351bf21d8146104ec578063520acb76146104ff5780635c60da1b146105125761035d565b806344d96e951161028757806344d96e95146104b45780634c736099146104bc5780635053e461146104cf57806351adeb57146104d75761035d565b80633a3e6c811461046e5780633dc905c7146104815780633fbba9a6146104945761035d565b80631edbcf6c1161031a5780632d7f23b3116102f45780632d7f23b3146104205780632e1a7d4d14610433578063313ce56714610446578063353a420c1461045b5761035d565b80631edbcf6c146103f057806323b872dd146103f857806327de9e321461040b5761035d565b806306fdde0314610362578063095ea7b31461038057806310e95b6c146103a057806315e14bf6146103c057806316f0115b146103d357806318160ddd146103e8575b600080fd5b61036a610715565b6040516103779190611a12565b60405180910390f35b61039361038e366004611763565b61074c565b60405161037791906119e8565b6103b36103ae3660046117b1565b610755565b6040516103779190611a43565b6103b36103ce3660046116b6565b61076d565b6103db61078b565b6040516103779190611997565b6103b361079a565b6103b36107a0565b610393610406366004611716565b6107a6565b61041e6104193660046117b1565b6107b0565b005b6103b361042e3660046117b1565b6108fa565b61041e6104413660046117b1565b61090f565b61044e610a46565b6040516103779190611a6c565b6103b36104693660046116b6565b610a4b565b61039361047c3660046116b6565b610a69565b6103b361048f3660046117b1565b610a86565b6104a76104a23660046116dc565b610a9b565b6040516103779190611a04565b6103b3610ace565b6103b36104ca3660046117ed565b610ad4565b6103b3610b04565b6104df610b27565b60405161037791906119f6565b6103b36104fa3660046116b6565b610b36565b6103b361050d3660046117b1565b610b54565b6103db610b69565b6103b36105283660046116b6565b610b8e565b6103b361053b3660046117b1565b610bac565b6103b361054e3660046116b6565b610bc1565b6103936105613660046117b1565b610bdf565b6103b36105743660046117b1565b610bf2565b6104df610c07565b6103b361058f3660046116b6565b610c16565b6103b36105a23660046116b6565b610c56565b6103b3610c71565b61036a610c77565b6104a76105c53660046116b6565b610c95565b61041e6105d83660046117b1565b610cfa565b6103b3610dc8565b6103b36105f33660046116b6565b610dce565b6103b36106063660046116dc565b610dec565b6103b36106193660046116b6565b610e1b565b6103b3610e32565b61041e6106343660046117b1565b610ec8565b6103b3610647366004611763565b610fa0565b6103b361065a3660046117b1565b610fe4565b6103b361066d3660046117b1565b610ff9565b6103b36106803660046117b1565b61100e565b6103b3611023565b6103b361069b3660046117b1565b611029565b6103936106ae3660046116b6565b61103f565b6103b361038e3660046116dc565b61041e6106cf3660046117b1565b611060565b6103b36106e23660046117b1565b61111e565b6103b36106f53660046116b6565b611133565b6103b361114e565b6103b36107103660046117b1565b611154565b60408051808201909152601881527f44796e616d69632053657420446f6c6c6172205374616b650000000000000000602082015290565b60005b92915050565b6000818152600d60205260409020600201545b919050565b6001600160a01b03166000908152600e602052604090206001015490565b600b546001600160a01b031690565b60035490565b60065490565b60005b9392505050565b336107f760025b6107c083610c95565b60028111156107cb57fe5b1415692832b936b4b9b9b4b7b760b11b72139bdd08199c9bde995b881bdc88199b1d5a59606a1b611166565b610800336111c9565b600061083361080e33610bc1565b61082761081a33610c16565b869063ffffffff6111fb16565b9063ffffffff61123516565b905061083f3382611277565b61086181604051806060016040528060228152602001611b72602291396112d3565b6108a133846040518060400160405280601d81526020017f426f6e64696e673a20696e73756666696369656e742062616c616e63650000008152506112ee565b337f93530ac0ee8c50e696e13c5ac62355d0c0ba4bd943620d5bda1eb08b64ae75126108dc60016108d0610c71565b9063ffffffff61139916565b85846040516108ed93929190611a51565b60405180910390a2505050565b6000908152600d60205260409020600a015490565b33610956600161091e83610c95565b600281111561092957fe5b1415692832b936b4b9b9b4b7b760b11b73139bdd08199c9bde995b881bdc881b1bd8dad95960621b611166565b61095e610b27565b6001600160a01b031663a9059cbb33846040518363ffffffff1660e01b815260040161098b9291906119cd565b602060405180830381600087803b1580156109a557600080fd5b505af11580156109b9573d6000803e3d6000fd5b505050506040513d601f19601f820116820180604052506109dd9190810190611793565b50610a013383604051806060016040528060248152602001611b4e602491396113be565b336001600160a01b03167f884edad9ce6fa2440d8a54cc123490eb96d2768479d49ff9c7366125a942436483604051610a3a9190611a43565b60405180910390a25050565b601290565b6001600160a01b03166000908152600e602052604090206003015490565b6001600160a01b03166000908152600e6020526040902054151590565b6000908152600d60205260409020600c015490565b6001600160a01b038082166000908152600e60209081526040808320938616835260049093019052205460ff1692915050565b60045490565b6000828152600d60205260408120600301805483908110610af157fe5b9060005260206000200154905092915050565b6000610b0e611669565b610b1661141d565b9050610b218161144c565b91505090565b6009546001600160a01b031690565b6001600160a01b03166000908152600c602052604090206004015490565b6000908152600d60205260409020600e015490565b7f360894a13ba1a3210667c828492db98dca3e2076cc3735a920a3ca505d382bbc5490565b6001600160a01b03166000908152600e602052604090206002015490565b6000908152600d602052604090206003015490565b6001600160a01b03166000908152600c602052604090206001015490565b6000610be961146e565b90911115919050565b6000908152600d602052604090206010015490565b600a546001600160a01b031690565b600080610c2161079a565b905080610c32576000915050610768565b6107a981610827610c4286610bc1565b610c4a610ace565b9063ffffffff6111fb16565b6001600160a01b03166000908152600c602052604090205490565b60025490565b6040805180820190915260048152634453445360e01b602082015290565b6000610c9f610c71565b6001600160a01b0383166000908152600c60205260409020600501541115610cc957506002610768565b6001600160a01b0382166000908152600c6020526040902060040154610ced610c71565b101561074c57600161074f565b33610d0560026107b7565b610d0e336111c9565b6000610d18610ace565b15610d3857610d33610d28610ace565b61082761081a61079a565b610d50565b610d50610d43611473565b849063ffffffff6111fb16565b9050610d5c338261147a565b610d6583611522565b610d883384604051806060016040528060248152602001611b4e602491396113be565b337f44002fdef5a0c2d2e4e05572e9780b95aef97e0e93ffd7cc076b09fa78ff2b46610db760016108d0610c71565b83866040516108ed93929190611a51565b60085490565b6001600160a01b03166000908152600c602052604090206005015490565b6001600160a01b039182166000908152600c602090815260408083209390941682526003909201909152205490565b600061074f610e2983610a4b565b6108d084610b8e565b6000610ec3610e3f61114e565b610e47610b27565b6001600160a01b03166318160ddd6040518163ffffffff1660e01b815260040160206040518083038186803b158015610e7f57600080fd5b505afa158015610e93573d6000803e3d6000fd5b505050506040513d601f19601f82011682018060405250610eb791908101906117cf565b9063ffffffff61153b16565b905090565b610ed0610b27565b6001600160a01b03166323b872dd3330846040518463ffffffff1660e01b8152600401610eff939291906119a5565b602060405180830381600087803b158015610f1957600080fd5b505af1158015610f2d573d6000803e3d6000fd5b505050506040513d601f19601f82011682018060405250610f519190810190611793565b50610f5c3382611277565b336001600160a01b03167fe1fffcc4923d04b559f4d29a8bfc6cda04eb5b0d3c460751c2402c5c5cc9109c82604051610f959190611a43565b60405180910390a250565b6000610fab82610ff9565b610fb75750600061074f565b506001600160a01b03919091166000908152600c6020908152604080832093835260029093019052205490565b6000908152600d60205260409020600f015490565b6000908152600d602052604090206001015490565b6000908152600d602052604090206011015490565b60055490565b6000908152600d60208190526040909120015490565b6001600160a01b03166000908152600e602052604090206005015460ff1690565b3361106b60026107b7565b611074336111c9565b6000611081610d28610ace565b905061108d3384611277565b6110af83604051806060016040528060228152602001611b72602291396112d3565b6110ef33826040518060400160405280601d81526020017f426f6e64696e673a20696e73756666696369656e742062616c616e63650000008152506112ee565b337f93530ac0ee8c50e696e13c5ac62355d0c0ba4bd943620d5bda1eb08b64ae7512610db760016108d0610c71565b6000908152600d60205260409020600b015490565b6001600160a01b03166000908152600e602052604090205490565b60075490565b6000908152600d602052604090205490565b826111c4576111748261157d565b6101d160f51b6111838361157d565b60405160200161119593929190611966565b60408051601f198184030181529082905262461bcd60e51b82526111bb91600401611a12565b60405180910390fd5b505050565b6111dc6111d46115fd565b6108d0610c71565b6001600160a01b039091166000908152600c6020526040902060040155565b60008261120a5750600061074f565b8282028284828161121757fe5b04146107a95760405162461bcd60e51b81526004016111bb90611a33565b60006107a983836040518060400160405280601a81526020017f536166654d6174683a206469766973696f6e206279207a65726f000000000000815250611602565b6001600160a01b0382166000908152600c60205260409020546112a0908263ffffffff61139916565b6001600160a01b0383166000908152600c60205260409020556005546112cc908263ffffffff61139916565b6005555050565b6004546112e790838363ffffffff61163916565b6004555050565b6001600160a01b0383166000908152600c602052604090206001015461131b90838363ffffffff61163916565b6001600160a01b0384166000908152600c602052604090206001015560035461134b90838363ffffffff61163916565b6003556040516000906001600160a01b038516907fddf252ad1be2c89b69c2b068fc378daa952ba7f163c4a11628f55a4df523b3ef9061138c908690611a43565b60405180910390a3505050565b6000828201838110156107a95760405162461bcd60e51b81526004016111bb90611a23565b6001600160a01b0383166000908152600c60205260409020546113e890838363ffffffff61163916565b6001600160a01b0384166000908152600c602052604090205560055461141590838363ffffffff61163916565b600555505050565b611425611669565b604051806060016040528060008152602001635fbef0008152602001611c20815250905090565b600061074f82600001516108d084604001516108278660200151610eb7611665565b609690565b620f424090565b6001600160a01b0382166000908152600c60205260409020600101546114a6908263ffffffff61139916565b6001600160a01b0383166000908152600c60205260409020600101556003546114d5908263ffffffff61139916565b6003556040516001600160a01b038316906000907fddf252ad1be2c89b69c2b068fc378daa952ba7f163c4a11628f55a4df523b3ef90611516908590611a43565b60405180910390a35050565b600454611535908263ffffffff61139916565b60045550565b60006107a983836040518060400160405280601e81526020017f536166654d6174683a207375627472616374696f6e206f766572666c6f770000815250611639565b606080826040516020016115919190611951565b60408051601f19818403018152919052905060205b80156115e6578151600019909101908290829081106115c157fe5b01602001516001600160f81b031916156115e15760010181529050610768565b6115a6565b505060408051600081526020810190915292915050565b602490565b600081836116235760405162461bcd60e51b81526004016111bb9190611a12565b50600083858161162f57fe5b0495945050505050565b6000818484111561165d5760405162461bcd60e51b81526004016111bb9190611a12565b505050900390565b4290565b60405180606001604052806000815260200160008152602001600081525090565b803561074f81611b27565b805161074f81611b3b565b803561074f81611b44565b805161074f81611b44565b6000602082840312156116c857600080fd5b60006116d4848461168a565b949350505050565b600080604083850312156116ef57600080fd5b60006116fb858561168a565b925050602061170c8582860161168a565b9150509250929050565b60008060006060848603121561172b57600080fd5b6000611737868661168a565b93505060206117488682870161168a565b9250506040611759868287016116a0565b9150509250925092565b6000806040838503121561177657600080fd5b6000611782858561168a565b925050602061170c858286016116a0565b6000602082840312156117a557600080fd5b60006116d48484611695565b6000602082840312156117c357600080fd5b60006116d484846116a0565b6000602082840312156117e157600080fd5b60006116d484846116ab565b6000806040838503121561180057600080fd5b600061178285856116a0565b61181581611ac3565b82525050565b61181581611a87565b61181581611a92565b61181561183982611a97565b611aa4565b61181561183982611aa4565b600061185582611a7a565b61185f8185610768565b935061186f818560208601611ae0565b9290920192915050565b61181581611aca565b61181581611ad5565b600061189682611a7a565b6118a08185611a7e565b93506118b0818560208601611ae0565b6118b981611b10565b9093019392505050565b60006118d0601b83611a7e565b7f536166654d6174683a206164646974696f6e206f766572666c6f770000000000815260200192915050565b6000611909602183611a7e565b7f536166654d6174683a206d756c7469706c69636174696f6e206f766572666c6f8152607760f81b602082015260400192915050565b61181581611aa4565b61181581611abd565b600061195d828461183e565b50602001919050565b6000611972828661184a565b915061197e828561182d565b60028201915061198e828461184a565b95945050505050565b6020810161074f828461181b565b606081016119b3828661180c565b6119c0602083018561181b565b6116d4604083018461193f565b604081016119db828561180c565b6107a9602083018461193f565b6020810161074f8284611824565b6020810161074f8284611879565b6020810161074f8284611882565b602080825281016107a9818461188b565b6020808252810161074f816118c3565b6020808252810161074f816118fc565b6020810161074f828461193f565b60608101611a5f828661193f565b6119c0602083018561193f565b6020810161074f8284611948565b5190565b90815260200190565b600061074f82611ab1565b151590565b6001600160f01b03191690565b90565b8061076881611b1a565b6001600160a01b031690565b60ff1690565b600061074f825b600061074f82611a87565b600061074f82611aa7565b60005b83811015611afb578181015183820152602001611ae3565b83811115611b0a576000848401525b50505050565b601f01601f191690565b60038110611b2457fe5b50565b611b3081611a87565b8114611b2457600080fd5b611b3081611a92565b611b3081611aa456fe426f6e64696e673a20696e73756666696369656e74207374616765642062616c616e6365426f6e64696e673a20696e73756666696369656e7420746f74616c20626f6e646564a365627a7a72315820b722f92fc4789a29f6ccecebbcb73c61bac3cb2771074ceba7cdc1345f8bebe26c6578706572696d656e74616cf564736f6c63430005110040",
  "source": "/*\n    Copyright 2020 Dynamic Dollar Devs, based on the works of the Empty Set Squad\n\n    Licensed under the Apache License, Version 2.0 (the \"License\");\n    you may not use this file except in compliance with the License.\n    You may obtain a copy of the License at\n\n    http://www.apache.org/licenses/LICENSE-2.0\n\n    Unless required by applicable law or agreed to in writing, software\n    distributed under the License is distributed on an \"AS IS\" BASIS,\n    WITHOUT WARRANTIES OR CONDITIONS OF ANY KIND, either express or implied.\n    See the License for the specific language governing permissions and\n    limitations under the License.\n*/\n\npragma solidity ^0.5.17;\npragma experimental ABIEncoderV2;\n\nimport \"@openzeppelin/contracts/math/SafeMath.sol\";\nimport \"./Setters.sol\";\nimport \"./Permission.sol\";\nimport \"../external/Require.sol\";\nimport \"../Constants.sol\";\n\ncontract Bonding is Setters, Permission {\n    using SafeMath for uint256;\n\n    bytes32 private constant FILE = \"Bonding\";\n\n    event Deposit(address indexed account, uint256 value);\n    event Withdraw(address indexed account, uint256 value);\n    event Bond(address indexed account, uint256 start, uint256 value, uint256 valueUnderlying);\n    event Unbond(address indexed account, uint256 start, uint256 value, uint256 valueUnderlying);\n\n    function step() internal {\n        Require.that(\n            epochTime() > epoch(),\n            FILE,\n            \"Still current epoch\"\n        );\n\n        snapshotTotalBonded();\n        incrementEpoch();\n    }\n\n    function deposit(uint256 value) external {\n        dollar().transferFrom(msg.sender, address(this), value);\n        incrementBalanceOfStaged(msg.sender, value);\n\n        emit Deposit(msg.sender, value);\n    }\n\n    function withdraw(uint256 value) external onlyFrozenOrLocked(msg.sender) {\n        dollar().transfer(msg.sender, value);\n        decrementBalanceOfStaged(msg.sender, value, \"Bonding: insufficient staged balance\");\n\n        emit Withdraw(msg.sender, value);\n    }\n\n    function bond(uint256 value) external onlyFrozenOrFluid(msg.sender) {\n        unfreeze(msg.sender);\n\n        uint256 balance = totalBonded() == 0 ?\n            value.mul(Constants.getInitialStakeMultiple()) :\n            value.mul(totalSupply()).div(totalBonded());\n        incrementBalanceOf(msg.sender, balance);\n        incrementTotalBonded(value);\n        decrementBalanceOfStaged(msg.sender, value, \"Bonding: insufficient staged balance\");\n\n        emit Bond(msg.sender, epoch().add(1), balance, value);\n    }\n\n    function unbond(uint256 value) external onlyFrozenOrFluid(msg.sender) {\n        unfreeze(msg.sender);\n\n        uint256 staged = value.mul(balanceOfBonded(msg.sender)).div(balanceOf(msg.sender));\n        incrementBalanceOfStaged(msg.sender, staged);\n        decrementTotalBonded(staged, \"Bonding: insufficient total bonded\");\n        decrementBalanceOf(msg.sender, value, \"Bonding: insufficient balance\");\n\n        emit Unbond(msg.sender, epoch().add(1), value, staged);\n    }\n\n    function unbondUnderlying(uint256 value) external onlyFrozenOrFluid(msg.sender) {\n        unfreeze(msg.sender);\n\n        uint256 balance = value.mul(totalSupply()).div(totalBonded());\n        incrementBalanceOfStaged(msg.sender, value);\n        decrementTotalBonded(value, \"Bonding: insufficient total bonded\");\n        decrementBalanceOf(msg.sender, balance, \"Bonding: insufficient balance\");\n\n        emit Unbond(msg.sender, epoch().add(1), balance, value);\n    }\n}\n",
  "sourcePath": "/Users/cinquemb/Documents/Startups/crypto/dollar/protocol/contracts/dao/Bonding.sol",
  "compiler": {
    "name": "solc",
    "version": "0.5.17+commit.d19bba13.Emscripten.clang"
  },
  "schemaVersion": "3.3.3",
  "updatedAt": "2021-01-12T08:04:47.352Z",
  "devdoc": {
    "methods": {}
  },
  "userdoc": {
    "methods": {
      "balanceOfStaged(address)": {
        "notice": "Account"
      },
      "dollar()": {
        "notice": "Global"
      },
      "epoch()": {
        "notice": "Epoch"
      },
      "name()": {
        "notice": "ERC20 Interface"
      },
      "recordedVote(address,address)": {
        "notice": "Governance"
      },
      "transfer(address,uint256)": {
        "notice": "ERC20 Interface"
      }
    }
  }
}