{
  "contractName": "Bonding",
  "abi": [
    {
      "anonymous": false,
      "inputs": [
        {
          "indexed": true,
          "internalType": "address",
          "name": "account",
          "type": "address"
        },
        {
          "indexed": false,
          "internalType": "uint256",
          "name": "start",
          "type": "uint256"
        },
        {
          "indexed": false,
          "internalType": "uint256",
          "name": "value",
          "type": "uint256"
        },
        {
          "indexed": false,
          "internalType": "uint256",
          "name": "valueUnderlying",
          "type": "uint256"
        }
      ],
      "name": "Bond",
      "type": "event"
    },
    {
      "anonymous": false,
      "inputs": [
        {
          "indexed": true,
          "internalType": "address",
          "name": "account",
          "type": "address"
        },
        {
          "indexed": false,
          "internalType": "uint256",
          "name": "value",
          "type": "uint256"
        }
      ],
      "name": "Deposit",
      "type": "event"
    },
    {
      "anonymous": false,
      "inputs": [
        {
          "indexed": true,
          "internalType": "address",
          "name": "from",
          "type": "address"
        },
        {
          "indexed": true,
          "internalType": "address",
          "name": "to",
          "type": "address"
        },
        {
          "indexed": false,
          "internalType": "uint256",
          "name": "value",
          "type": "uint256"
        }
      ],
      "name": "Transfer",
      "type": "event"
    },
    {
      "anonymous": false,
      "inputs": [
        {
          "indexed": true,
          "internalType": "address",
          "name": "account",
          "type": "address"
        },
        {
          "indexed": false,
          "internalType": "uint256",
          "name": "start",
          "type": "uint256"
        },
        {
          "indexed": false,
          "internalType": "uint256",
          "name": "value",
          "type": "uint256"
        },
        {
          "indexed": false,
          "internalType": "uint256",
          "name": "valueUnderlying",
          "type": "uint256"
        }
      ],
      "name": "Unbond",
      "type": "event"
    },
    {
      "anonymous": false,
      "inputs": [
        {
          "indexed": true,
          "internalType": "address",
          "name": "account",
          "type": "address"
        },
        {
          "indexed": false,
          "internalType": "uint256",
          "name": "value",
          "type": "uint256"
        }
      ],
      "name": "Withdraw",
      "type": "event"
    },
    {
      "constant": true,
      "inputs": [
        {
          "internalType": "address",
          "name": "owner",
          "type": "address"
        },
        {
          "internalType": "address",
          "name": "spender",
          "type": "address"
        }
      ],
      "name": "allowance",
      "outputs": [
        {
          "internalType": "uint256",
          "name": "",
          "type": "uint256"
        }
      ],
      "payable": false,
      "stateMutability": "view",
      "type": "function"
    },
    {
      "constant": true,
      "inputs": [
        {
          "internalType": "address",
          "name": "owner",
          "type": "address"
        },
        {
          "internalType": "address",
          "name": "spender",
          "type": "address"
        }
      ],
      "name": "allowanceCoupons",
      "outputs": [
        {
          "internalType": "uint256",
          "name": "",
          "type": "uint256"
        }
      ],
      "payable": false,
      "stateMutability": "view",
      "type": "function"
    },
    {
      "constant": false,
      "inputs": [
        {
          "internalType": "address",
          "name": "spender",
          "type": "address"
        },
        {
          "internalType": "uint256",
          "name": "amount",
          "type": "uint256"
        }
      ],
      "name": "approve",
      "outputs": [
        {
          "internalType": "bool",
          "name": "",
          "type": "bool"
        }
      ],
      "payable": false,
      "stateMutability": "nonpayable",
      "type": "function"
    },
    {
      "constant": true,
      "inputs": [
        {
          "internalType": "address",
          "name": "candidate",
          "type": "address"
        }
      ],
      "name": "approveFor",
      "outputs": [
        {
          "internalType": "uint256",
          "name": "",
          "type": "uint256"
        }
      ],
      "payable": false,
      "stateMutability": "view",
      "type": "function"
    },
    {
      "constant": true,
      "inputs": [
        {
          "internalType": "address",
          "name": "account",
          "type": "address"
        }
      ],
      "name": "balanceOf",
      "outputs": [
        {
          "internalType": "uint256",
          "name": "",
          "type": "uint256"
        }
      ],
      "payable": false,
      "stateMutability": "view",
      "type": "function"
    },
    {
      "constant": true,
      "inputs": [
        {
          "internalType": "address",
          "name": "account",
          "type": "address"
        }
      ],
      "name": "balanceOfBonded",
      "outputs": [
        {
          "internalType": "uint256",
          "name": "",
          "type": "uint256"
        }
      ],
      "payable": false,
      "stateMutability": "view",
      "type": "function"
    },
    {
      "constant": true,
      "inputs": [
        {
          "internalType": "address",
          "name": "account",
          "type": "address"
        },
        {
          "internalType": "uint256",
          "name": "epoch",
          "type": "uint256"
        }
      ],
      "name": "balanceOfCoupons",
      "outputs": [
        {
          "internalType": "uint256",
          "name": "",
          "type": "uint256"
        }
      ],
      "payable": false,
      "stateMutability": "view",
      "type": "function"
    },
    {
      "constant": true,
      "inputs": [
        {
          "internalType": "address",
          "name": "account",
          "type": "address"
        }
      ],
      "name": "balanceOfStaged",
      "outputs": [
        {
          "internalType": "uint256",
          "name": "",
          "type": "uint256"
        }
      ],
      "payable": false,
      "stateMutability": "view",
      "type": "function"
    },
    {
      "constant": true,
      "inputs": [
        {
          "internalType": "uint256",
          "name": "epoch",
          "type": "uint256"
        }
      ],
      "name": "bootstrappingAt",
      "outputs": [
        {
          "internalType": "bool",
          "name": "",
          "type": "bool"
        }
      ],
      "payable": false,
      "stateMutability": "view",
      "type": "function"
    },
    {
      "constant": true,
      "inputs": [
        {
          "internalType": "uint256",
          "name": "epoch",
          "type": "uint256"
        }
      ],
      "name": "couponsExpiration",
      "outputs": [
        {
          "internalType": "uint256",
          "name": "",
          "type": "uint256"
        }
      ],
      "payable": false,
      "stateMutability": "view",
      "type": "function"
    },
    {
      "constant": true,
      "inputs": [],
      "name": "decimals",
      "outputs": [
        {
          "internalType": "uint8",
          "name": "",
          "type": "uint8"
        }
      ],
      "payable": false,
      "stateMutability": "view",
      "type": "function"
    },
    {
      "constant": true,
      "inputs": [],
      "name": "dollar",
      "outputs": [
        {
          "internalType": "contract IDollar",
          "name": "",
          "type": "address"
        }
      ],
      "payable": false,
      "stateMutability": "view",
      "type": "function"
    },
    {
      "constant": true,
      "inputs": [],
      "name": "epoch",
      "outputs": [
        {
          "internalType": "uint256",
          "name": "",
          "type": "uint256"
        }
      ],
      "payable": false,
      "stateMutability": "view",
      "type": "function"
    },
    {
      "constant": true,
      "inputs": [],
      "name": "epochTime",
      "outputs": [
        {
          "internalType": "uint256",
          "name": "",
          "type": "uint256"
        }
      ],
      "payable": false,
      "stateMutability": "view",
      "type": "function"
    },
    {
      "constant": true,
      "inputs": [
        {
          "internalType": "uint256",
          "name": "epoch",
          "type": "uint256"
        }
      ],
      "name": "expiringCoupons",
      "outputs": [
        {
          "internalType": "uint256",
          "name": "",
          "type": "uint256"
        }
      ],
      "payable": false,
      "stateMutability": "view",
      "type": "function"
    },
    {
      "constant": true,
      "inputs": [
        {
          "internalType": "uint256",
          "name": "epoch",
          "type": "uint256"
        },
        {
          "internalType": "uint256",
          "name": "i",
          "type": "uint256"
        }
      ],
      "name": "expiringCouponsAtIndex",
      "outputs": [
        {
          "internalType": "uint256",
          "name": "",
          "type": "uint256"
        }
      ],
      "payable": false,
      "stateMutability": "view",
      "type": "function"
    },
    {
      "constant": true,
      "inputs": [
        {
          "internalType": "address",
          "name": "account",
          "type": "address"
        }
      ],
      "name": "fluidUntil",
      "outputs": [
        {
          "internalType": "uint256",
          "name": "",
          "type": "uint256"
        }
      ],
      "payable": false,
      "stateMutability": "view",
      "type": "function"
    },
    {
      "constant": true,
      "inputs": [
        {
          "internalType": "uint256",
          "name": "epoch",
          "type": "uint256"
        }
      ],
      "name": "getAvgExpiryFilled",
      "outputs": [
        {
          "internalType": "uint256",
          "name": "",
          "type": "uint256"
        }
      ],
      "payable": false,
      "stateMutability": "view",
      "type": "function"
    },
    {
      "constant": true,
      "inputs": [
        {
          "internalType": "uint256",
          "name": "epoch",
          "type": "uint256"
        }
      ],
      "name": "getAvgYieldFilled",
      "outputs": [
        {
          "internalType": "uint256",
          "name": "",
          "type": "uint256"
        }
      ],
      "payable": false,
      "stateMutability": "view",
      "type": "function"
    },
    {
      "constant": true,
      "inputs": [
        {
          "internalType": "uint256",
          "name": "epoch",
          "type": "uint256"
        }
      ],
      "name": "getBidToCover",
      "outputs": [
        {
          "internalType": "uint256",
          "name": "",
          "type": "uint256"
        }
      ],
      "payable": false,
      "stateMutability": "view",
      "type": "function"
    },
    {
      "constant": true,
      "inputs": [],
      "name": "getLatestDeadAuctionEpoch",
      "outputs": [
        {
          "internalType": "uint256",
          "name": "",
          "type": "uint256"
        }
      ],
      "payable": false,
      "stateMutability": "view",
      "type": "function"
    },
    {
      "constant": true,
      "inputs": [
        {
          "internalType": "uint256",
          "name": "epoch",
          "type": "uint256"
        }
      ],
      "name": "getMaxExpiryFilled",
      "outputs": [
        {
          "internalType": "uint256",
          "name": "",
          "type": "uint256"
        }
      ],
      "payable": false,
      "stateMutability": "view",
      "type": "function"
    },
    {
      "constant": true,
      "inputs": [
        {
          "internalType": "uint256",
          "name": "epoch",
          "type": "uint256"
        }
      ],
      "name": "getMaxYieldFilled",
      "outputs": [
        {
          "internalType": "uint256",
          "name": "",
          "type": "uint256"
        }
      ],
      "payable": false,
      "stateMutability": "view",
      "type": "function"
    },
    {
      "constant": true,
      "inputs": [
        {
          "internalType": "uint256",
          "name": "epoch",
          "type": "uint256"
        }
      ],
      "name": "getMinExpiryFilled",
      "outputs": [
        {
          "internalType": "uint256",
          "name": "",
          "type": "uint256"
        }
      ],
      "payable": false,
      "stateMutability": "view",
      "type": "function"
    },
    {
      "constant": true,
      "inputs": [
        {
          "internalType": "uint256",
          "name": "epoch",
          "type": "uint256"
        }
      ],
      "name": "getMinYieldFilled",
      "outputs": [
        {
          "internalType": "uint256",
          "name": "",
          "type": "uint256"
        }
      ],
      "payable": false,
      "stateMutability": "view",
      "type": "function"
    },
    {
      "constant": true,
      "inputs": [
        {
          "internalType": "uint256",
          "name": "epoch",
          "type": "uint256"
        }
      ],
      "name": "getTotalAuctioned",
      "outputs": [
        {
          "internalType": "uint256",
          "name": "",
          "type": "uint256"
        }
      ],
      "payable": false,
      "stateMutability": "view",
      "type": "function"
    },
    {
      "constant": true,
      "inputs": [
        {
          "internalType": "uint256",
          "name": "epoch",
          "type": "uint256"
        }
      ],
      "name": "getTotalBurned",
      "outputs": [
        {
          "internalType": "uint256",
          "name": "",
          "type": "uint256"
        }
      ],
      "payable": false,
      "stateMutability": "view",
      "type": "function"
    },
    {
      "constant": true,
      "inputs": [
        {
          "internalType": "uint256",
          "name": "epoch",
          "type": "uint256"
        }
      ],
      "name": "getTotalFilled",
      "outputs": [
        {
          "internalType": "uint256",
          "name": "",
          "type": "uint256"
        }
      ],
      "payable": false,
      "stateMutability": "view",
      "type": "function"
    },
    {
      "constant": true,
      "inputs": [],
      "name": "implementation",
      "outputs": [
        {
          "internalType": "address",
          "name": "impl",
          "type": "address"
        }
      ],
      "payable": false,
      "stateMutability": "view",
      "type": "function"
    },
    {
      "constant": true,
      "inputs": [
        {
          "internalType": "address",
          "name": "candidate",
          "type": "address"
        }
      ],
      "name": "isInitialized",
      "outputs": [
        {
          "internalType": "bool",
          "name": "",
          "type": "bool"
        }
      ],
      "payable": false,
      "stateMutability": "view",
      "type": "function"
    },
    {
      "constant": true,
      "inputs": [
        {
          "internalType": "address",
          "name": "candidate",
          "type": "address"
        }
      ],
      "name": "isNominated",
      "outputs": [
        {
          "internalType": "bool",
          "name": "",
          "type": "bool"
        }
      ],
      "payable": false,
      "stateMutability": "view",
      "type": "function"
    },
    {
      "constant": true,
      "inputs": [
        {
          "internalType": "address",
          "name": "account",
          "type": "address"
        }
      ],
      "name": "lockedUntil",
      "outputs": [
        {
          "internalType": "uint256",
          "name": "",
          "type": "uint256"
        }
      ],
      "payable": false,
      "stateMutability": "view",
      "type": "function"
    },
    {
      "constant": true,
      "inputs": [],
      "name": "name",
      "outputs": [
        {
          "internalType": "string",
          "name": "",
          "type": "string"
        }
      ],
      "payable": false,
      "stateMutability": "view",
      "type": "function"
    },
    {
      "constant": true,
      "inputs": [],
      "name": "oracle",
      "outputs": [
        {
          "internalType": "contract IOracle",
          "name": "",
          "type": "address"
        }
      ],
      "payable": false,
      "stateMutability": "view",
      "type": "function"
    },
    {
      "constant": true,
      "inputs": [
        {
          "internalType": "uint256",
          "name": "epoch",
          "type": "uint256"
        }
      ],
      "name": "outstandingCoupons",
      "outputs": [
        {
          "internalType": "uint256",
          "name": "",
          "type": "uint256"
        }
      ],
      "payable": false,
      "stateMutability": "view",
      "type": "function"
    },
    {
      "constant": true,
      "inputs": [
        {
          "internalType": "address",
          "name": "candidate",
          "type": "address"
        }
      ],
      "name": "periodFor",
      "outputs": [
        {
          "internalType": "uint256",
          "name": "",
          "type": "uint256"
        }
      ],
      "payable": false,
      "stateMutability": "view",
      "type": "function"
    },
    {
      "constant": true,
      "inputs": [],
      "name": "pool",
      "outputs": [
        {
          "internalType": "address",
          "name": "",
          "type": "address"
        }
      ],
      "payable": false,
      "stateMutability": "view",
      "type": "function"
    },
    {
      "constant": true,
      "inputs": [
        {
          "internalType": "address",
          "name": "account",
          "type": "address"
        },
        {
          "internalType": "address",
          "name": "candidate",
          "type": "address"
        }
      ],
      "name": "recordedVote",
      "outputs": [
        {
          "internalType": "enum Candidate.Vote",
          "name": "",
          "type": "uint8"
        }
      ],
      "payable": false,
      "stateMutability": "view",
      "type": "function"
    },
    {
      "constant": true,
      "inputs": [
        {
          "internalType": "address",
          "name": "candidate",
          "type": "address"
        }
      ],
      "name": "rejectFor",
      "outputs": [
        {
          "internalType": "uint256",
          "name": "",
          "type": "uint256"
        }
      ],
      "payable": false,
      "stateMutability": "view",
      "type": "function"
    },
    {
      "constant": true,
      "inputs": [
        {
          "internalType": "address",
          "name": "candidate",
          "type": "address"
        }
      ],
      "name": "startFor",
      "outputs": [
        {
          "internalType": "uint256",
          "name": "",
          "type": "uint256"
        }
      ],
      "payable": false,
      "stateMutability": "view",
      "type": "function"
    },
    {
      "constant": true,
      "inputs": [
        {
          "internalType": "address",
          "name": "account",
          "type": "address"
        }
      ],
      "name": "statusOf",
      "outputs": [
        {
          "internalType": "enum Account.Status",
          "name": "",
          "type": "uint8"
        }
      ],
      "payable": false,
      "stateMutability": "view",
      "type": "function"
    },
    {
      "constant": true,
      "inputs": [],
      "name": "symbol",
      "outputs": [
        {
          "internalType": "string",
          "name": "",
          "type": "string"
        }
      ],
      "payable": false,
      "stateMutability": "view",
      "type": "function"
    },
    {
      "constant": true,
      "inputs": [],
      "name": "totalBonded",
      "outputs": [
        {
          "internalType": "uint256",
          "name": "",
          "type": "uint256"
        }
      ],
      "payable": false,
      "stateMutability": "view",
      "type": "function"
    },
    {
      "constant": true,
      "inputs": [
        {
          "internalType": "uint256",
          "name": "epoch",
          "type": "uint256"
        }
      ],
      "name": "totalBondedAt",
      "outputs": [
        {
          "internalType": "uint256",
          "name": "",
          "type": "uint256"
        }
      ],
      "payable": false,
      "stateMutability": "view",
      "type": "function"
    },
    {
      "constant": true,
      "inputs": [],
      "name": "totalCoupons",
      "outputs": [
        {
          "internalType": "uint256",
          "name": "",
          "type": "uint256"
        }
      ],
      "payable": false,
      "stateMutability": "view",
      "type": "function"
    },
    {
      "constant": true,
      "inputs": [],
      "name": "totalDebt",
      "outputs": [
        {
          "internalType": "uint256",
          "name": "",
          "type": "uint256"
        }
      ],
      "payable": false,
      "stateMutability": "view",
      "type": "function"
    },
    {
      "constant": true,
      "inputs": [],
      "name": "totalNet",
      "outputs": [
        {
          "internalType": "uint256",
          "name": "",
          "type": "uint256"
        }
      ],
      "payable": false,
      "stateMutability": "view",
      "type": "function"
    },
    {
      "constant": true,
      "inputs": [],
      "name": "totalRedeemable",
      "outputs": [
        {
          "internalType": "uint256",
          "name": "",
          "type": "uint256"
        }
      ],
      "payable": false,
      "stateMutability": "view",
      "type": "function"
    },
    {
      "constant": true,
      "inputs": [],
      "name": "totalStaged",
      "outputs": [
        {
          "internalType": "uint256",
          "name": "",
          "type": "uint256"
        }
      ],
      "payable": false,
      "stateMutability": "view",
      "type": "function"
    },
    {
      "constant": true,
      "inputs": [],
      "name": "totalSupply",
      "outputs": [
        {
          "internalType": "uint256",
          "name": "",
          "type": "uint256"
        }
      ],
      "payable": false,
      "stateMutability": "view",
      "type": "function"
    },
    {
      "constant": false,
      "inputs": [
        {
          "internalType": "address",
          "name": "recipient",
          "type": "address"
        },
        {
          "internalType": "uint256",
          "name": "amount",
          "type": "uint256"
        }
      ],
      "name": "transfer",
      "outputs": [
        {
          "internalType": "bool",
          "name": "",
          "type": "bool"
        }
      ],
      "payable": false,
      "stateMutability": "nonpayable",
      "type": "function"
    },
    {
      "constant": false,
      "inputs": [
        {
          "internalType": "address",
          "name": "sender",
          "type": "address"
        },
        {
          "internalType": "address",
          "name": "recipient",
          "type": "address"
        },
        {
          "internalType": "uint256",
          "name": "amount",
          "type": "uint256"
        }
      ],
      "name": "transferFrom",
      "outputs": [
        {
          "internalType": "bool",
          "name": "",
          "type": "bool"
        }
      ],
      "payable": false,
      "stateMutability": "nonpayable",
      "type": "function"
    },
    {
      "constant": true,
      "inputs": [
        {
          "internalType": "address",
          "name": "candidate",
          "type": "address"
        }
      ],
      "name": "votesFor",
      "outputs": [
        {
          "internalType": "uint256",
          "name": "",
          "type": "uint256"
        }
      ],
      "payable": false,
      "stateMutability": "view",
      "type": "function"
    },
    {
      "constant": false,
      "inputs": [
        {
          "internalType": "uint256",
          "name": "value",
          "type": "uint256"
        }
      ],
      "name": "deposit",
      "outputs": [],
      "payable": false,
      "stateMutability": "nonpayable",
      "type": "function"
    },
    {
      "constant": false,
      "inputs": [
        {
          "internalType": "uint256",
          "name": "value",
          "type": "uint256"
        }
      ],
      "name": "withdraw",
      "outputs": [],
      "payable": false,
      "stateMutability": "nonpayable",
      "type": "function"
    },
    {
      "constant": false,
      "inputs": [
        {
          "internalType": "uint256",
          "name": "value",
          "type": "uint256"
        }
      ],
      "name": "bond",
      "outputs": [],
      "payable": false,
      "stateMutability": "nonpayable",
      "type": "function"
    },
    {
      "constant": false,
      "inputs": [
        {
          "internalType": "uint256",
          "name": "value",
          "type": "uint256"
        }
      ],
      "name": "unbond",
      "outputs": [],
      "payable": false,
      "stateMutability": "nonpayable",
      "type": "function"
    },
    {
      "constant": false,
      "inputs": [
        {
          "internalType": "uint256",
          "name": "value",
          "type": "uint256"
        }
      ],
      "name": "unbondUnderlying",
      "outputs": [],
      "payable": false,
      "stateMutability": "nonpayable",
      "type": "function"
    }
  ],
  "bytecode": "0x608060405234801561001057600080fd5b50611c65806100206000396000f3fe608060405234801561001057600080fd5b506004361061038e5760003560e01c8063825ad607116101de578063b6b55f251161010f578063d60b347f116100ad578063eeaca09b1161007c578063eeaca09b14610733578063f1b7cf4914610746578063fc7b9c1814610759578063ffbe3b73146107615761038e565b8063d60b347f146106ec578063dd62ed3e146106ff578063dde74dc31461070d578063df9a2b1c146107205761038e565b8063c9aff70c116100e9578063c9aff70c146106ab578063cb0fbc71146106be578063cf023779146106d1578063d53c6f5f146106d95761038e565b8063b6b55f2514610672578063bc7513e214610685578063c34eee65146106985761038e565b80639a649edc1161017c5780639f6e1b26116101565780639f6e1b2614610644578063a50cd8e714610657578063a6c409f11461066a578063a9059cbb146103b15761038e565b80639a649edc146106165780639bc289f11461061e5780639f1a0929146106315761038e565b8063900cf0cf116101b8578063900cf0cf146105e057806395d89b41146105e857806397a5d5b5146105f05780639940686e146106035761038e565b8063825ad607146105b257806386cf9f14146105c55780638e825388146105d85761038e565b80633dc905c7116102c3578063520acb761161026157806370a082311161023057806370a082311461057157806375d5024b146105845780637d8bb869146105975780637dc0d1d0146105aa5761038e565b8063520acb76146105305780635c60da1b14610543578063646680221461054b5780636a39e3281461055e5761038e565b80634c7360991161029d5780634c736099146104ed5780635053e4611461050057806351adeb571461050857806351bf21d81461051d5761038e565b80633dc905c7146104b25780633fbba9a6146104c557806344d96e95146104e55761038e565b806323b872dd116103305780632e1a7d4d1161030a5780632e1a7d4d14610464578063313ce56714610477578063353a420c1461048c5780633a3e6c811461049f5761038e565b806323b872dd1461042957806327de9e321461043c5780632d7f23b3146104515761038e565b806315e14bf61161036c57806315e14bf6146103f157806316f0115b1461040457806318160ddd146104195780631edbcf6c146104215761038e565b806306fdde0314610393578063095ea7b3146103b157806310e95b6c146103d1575b600080fd5b61039b610774565b6040516103a89190611aa1565b60405180910390f35b6103c46103bf3660046117f2565b6107ab565b6040516103a89190611a77565b6103e46103df366004611840565b6107b4565b6040516103a89190611ad2565b6103e46103ff366004611745565b6107cc565b61040c6107ea565b6040516103a89190611a26565b6103e46107f9565b6103e46107ff565b6103c46104373660046117a5565b610805565b61044f61044a366004611840565b61080f565b005b6103e461045f366004611840565b610959565b61044f610472366004611840565b61096e565b61047f610aa5565b6040516103a89190611afb565b6103e461049a366004611745565b610aaa565b6103c46104ad366004611745565b610ac8565b6103e46104c0366004611840565b610ae5565b6104d86104d336600461176b565b610afb565b6040516103a89190611a93565b6103e4610b2e565b6103e46104fb36600461187c565b610b34565b6103e4610b64565b610510610b87565b6040516103a89190611a85565b6103e461052b366004611745565b610b96565b6103e461053e366004611840565b610bb4565b61040c610bc9565b6103e4610559366004611745565b610bee565b6103e461056c366004611840565b610c0c565b6103e461057f366004611745565b610c21565b6103c4610592366004611840565b610c3f565b6103e46105a5366004611840565b610c52565b610510610c67565b6103e46105c0366004611745565b610c76565b6103e46105d3366004611745565b610cb6565b6103e4610cd1565b6103e4610cd7565b61039b610cdd565b6104d86105fe366004611745565b610cfb565b61044f610611366004611840565b610d60565b6103e4610e2e565b6103e461062c366004611745565b610e34565b6103e461063f366004611840565b610e52565b6103e461065236600461176b565b610e67565b6103e4610665366004611745565b610e96565b6103e4610ead565b61044f610680366004611840565b610f43565b6103e46106933660046117f2565b61101b565b6103e46106a6366004611840565b61105f565b6103e46106b9366004611840565b611074565b6103e46106cc366004611840565b611089565b6103e461109e565b6103e46106e7366004611840565b6110a4565b6103c46106fa366004611745565b6110b9565b6103e46103bf36600461176b565b6103e461071b366004611840565b6110da565b61044f61072e366004611840565b6110ef565b6103e4610741366004611840565b6111ad565b6103e4610754366004611745565b6111c2565b6103e46111dd565b6103e461076f366004611840565b6111e3565b60408051808201909152601881527f44796e616d69632053657420446f6c6c6172205374616b650000000000000000602082015290565b60005b92915050565b6000818152600e60205260409020600201545b919050565b6001600160a01b03166000908152600f602052604090206001015490565b600c546001600160a01b031690565b60045490565b60075490565b60005b9392505050565b3361085660025b61081f83610cfb565b600281111561082a57fe5b1415692832b936b4b9b9b4b7b760b11b72139bdd08199c9bde995b881bdc88199b1d5a59606a1b6111f5565b61085f33611258565b600061089261086d33610c21565b61088661087933610c76565b869063ffffffff61128a16565b9063ffffffff6112c416565b905061089e3382611306565b6108c081604051806060016040528060228152602001611c0160229139611362565b61090033846040518060400160405280601d81526020017f426f6e64696e673a20696e73756666696369656e742062616c616e636500000081525061137d565b337f93530ac0ee8c50e696e13c5ac62355d0c0ba4bd943620d5bda1eb08b64ae751261093b600161092f610cd7565b9063ffffffff61142816565b858460405161094c93929190611ae0565b60405180910390a2505050565b6000908152600e60205260409020600a015490565b336109b5600161097d83610cfb565b600281111561098857fe5b1415692832b936b4b9b9b4b7b760b11b73139bdd08199c9bde995b881bdc881b1bd8dad95960621b6111f5565b6109bd610b87565b6001600160a01b031663a9059cbb33846040518363ffffffff1660e01b81526004016109ea929190611a5c565b602060405180830381600087803b158015610a0457600080fd5b505af1158015610a18573d6000803e3d6000fd5b505050506040513d601f19601f82011682018060405250610a3c9190810190611822565b50610a603383604051806060016040528060248152602001611bdd6024913961144d565b336001600160a01b03167f884edad9ce6fa2440d8a54cc123490eb96d2768479d49ff9c7366125a942436483604051610a999190611ad2565b60405180910390a25050565b601290565b6001600160a01b03166000908152600f602052604090206003015490565b6001600160a01b03166000908152600f6020526040902054151590565b6000908152600e60208190526040909120015490565b6001600160a01b038082166000908152600f60209081526040808320938616835260049093019052205460ff1692915050565b60055490565b6000828152600e60205260408120600301805483908110610b5157fe5b9060005260206000200154905092915050565b6000610b6e6116f8565b610b766114ac565b9050610b81816114db565b91505090565b600a546001600160a01b031690565b6001600160a01b03166000908152600d602052604090206004015490565b6000908152600e602052604090206010015490565b7f360894a13ba1a3210667c828492db98dca3e2076cc3735a920a3ca505d382bbc5490565b6001600160a01b03166000908152600f602052604090206002015490565b6000908152600e602052604090206003015490565b6001600160a01b03166000908152600d602052604090206001015490565b6000610c496114fd565b90911115919050565b6000908152600e602052604090206012015490565b600b546001600160a01b031690565b600080610c816107f9565b905080610c925760009150506107c7565b61080881610886610ca286610c21565b610caa610b2e565b9063ffffffff61128a16565b6001600160a01b03166000908152600d602052604090205490565b60035490565b60025490565b6040805180820190915260048152634453445360e01b602082015290565b6000610d05610cd7565b6001600160a01b0383166000908152600d60205260409020600501541115610d2f575060026107c7565b6001600160a01b0382166000908152600d6020526040902060040154610d53610cd7565b10156107ab5760016107ae565b33610d6b6002610816565b610d7433611258565b6000610d7e610b2e565b15610d9e57610d99610d8e610b2e565b6108866108796107f9565b610db6565b610db6610da9611502565b849063ffffffff61128a16565b9050610dc23382611509565b610dcb836115b1565b610dee3384604051806060016040528060248152602001611bdd6024913961144d565b337f44002fdef5a0c2d2e4e05572e9780b95aef97e0e93ffd7cc076b09fa78ff2b46610e1d600161092f610cd7565b838660405161094c93929190611ae0565b60095490565b6001600160a01b03166000908152600d602052604090206005015490565b6000908152600e60205260409020600d015490565b6001600160a01b039182166000908152600d602090815260408083209390941682526003909201909152205490565b60006107ae610ea483610aaa565b61092f84610bee565b6000610f3e610eba6111dd565b610ec2610b87565b6001600160a01b03166318160ddd6040518163ffffffff1660e01b815260040160206040518083038186803b158015610efa57600080fd5b505afa158015610f0e573d6000803e3d6000fd5b505050506040513d601f19601f82011682018060405250610f32919081019061185e565b9063ffffffff6115ca16565b905090565b610f4b610b87565b6001600160a01b03166323b872dd3330846040518463ffffffff1660e01b8152600401610f7a93929190611a34565b602060405180830381600087803b158015610f9457600080fd5b505af1158015610fa8573d6000803e3d6000fd5b505050506040513d601f19601f82011682018060405250610fcc9190810190611822565b50610fd73382611306565b336001600160a01b03167fe1fffcc4923d04b559f4d29a8bfc6cda04eb5b0d3c460751c2402c5c5cc9109c826040516110109190611ad2565b60405180910390a250565b600061102682611074565b611032575060006107ae565b506001600160a01b03919091166000908152600d6020908152604080832093835260029093019052205490565b6000908152600e602052604090206011015490565b6000908152600e602052604090206001015490565b6000908152600e602052604090206013015490565b60065490565b6000908152600e60205260409020600f015490565b6001600160a01b03166000908152600f602052604090206005015460ff1690565b6000908152600e60205260409020600c015490565b336110fa6002610816565b61110333611258565b6000611110610d8e610b2e565b905061111c3384611306565b61113e83604051806060016040528060228152602001611c0160229139611362565b61117e33826040518060400160405280601d81526020017f426f6e64696e673a20696e73756666696369656e742062616c616e636500000081525061137d565b337f93530ac0ee8c50e696e13c5ac62355d0c0ba4bd943620d5bda1eb08b64ae7512610e1d600161092f610cd7565b6000908152600e60205260409020600b015490565b6001600160a01b03166000908152600f602052604090205490565b60085490565b6000908152600e602052604090205490565b82611253576112038261160c565b6101d160f51b6112128361160c565b604051602001611224939291906119f5565b60408051601f198184030181529082905262461bcd60e51b825261124a91600401611aa1565b60405180910390fd5b505050565b61126b61126361168c565b61092f610cd7565b6001600160a01b039091166000908152600d6020526040902060040155565b600082611299575060006107ae565b828202828482816112a657fe5b04146108085760405162461bcd60e51b815260040161124a90611ac2565b600061080883836040518060400160405280601a81526020017f536166654d6174683a206469766973696f6e206279207a65726f000000000000815250611691565b6001600160a01b0382166000908152600d602052604090205461132f908263ffffffff61142816565b6001600160a01b0383166000908152600d602052604090205560065461135b908263ffffffff61142816565b6006555050565b60055461137690838363ffffffff6116c816565b6005555050565b6001600160a01b0383166000908152600d60205260409020600101546113aa90838363ffffffff6116c816565b6001600160a01b0384166000908152600d60205260409020600101556004546113da90838363ffffffff6116c816565b6004556040516000906001600160a01b038516907fddf252ad1be2c89b69c2b068fc378daa952ba7f163c4a11628f55a4df523b3ef9061141b908690611ad2565b60405180910390a3505050565b6000828201838110156108085760405162461bcd60e51b815260040161124a90611ab2565b6001600160a01b0383166000908152600d602052604090205461147790838363ffffffff6116c816565b6001600160a01b0384166000908152600d60205260409020556006546114a490838363ffffffff6116c816565b600655505050565b6114b46116f8565b604051806060016040528060008152602001635fbef0008152602001611c20815250905090565b60006107ae826000015161092f84604001516108868660200151610f326116f4565b609690565b620f424090565b6001600160a01b0382166000908152600d6020526040902060010154611535908263ffffffff61142816565b6001600160a01b0383166000908152600d6020526040902060010155600454611564908263ffffffff61142816565b6004556040516001600160a01b038316906000907fddf252ad1be2c89b69c2b068fc378daa952ba7f163c4a11628f55a4df523b3ef906115a5908590611ad2565b60405180910390a35050565b6005546115c4908263ffffffff61142816565b60055550565b600061080883836040518060400160405280601e81526020017f536166654d6174683a207375627472616374696f6e206f766572666c6f7700008152506116c8565b6060808260405160200161162091906119e0565b60408051601f19818403018152919052905060205b80156116755781516000199091019082908290811061165057fe5b01602001516001600160f81b0319161561167057600101815290506107c7565b611635565b505060408051600081526020810190915292915050565b602490565b600081836116b25760405162461bcd60e51b815260040161124a9190611aa1565b5060008385816116be57fe5b0495945050505050565b600081848411156116ec5760405162461bcd60e51b815260040161124a9190611aa1565b505050900390565b4290565b60405180606001604052806000815260200160008152602001600081525090565b80356107ae81611bb6565b80516107ae81611bca565b80356107ae81611bd3565b80516107ae81611bd3565b60006020828403121561175757600080fd5b60006117638484611719565b949350505050565b6000806040838503121561177e57600080fd5b600061178a8585611719565b925050602061179b85828601611719565b9150509250929050565b6000806000606084860312156117ba57600080fd5b60006117c68686611719565b93505060206117d786828701611719565b92505060406117e88682870161172f565b9150509250925092565b6000806040838503121561180557600080fd5b60006118118585611719565b925050602061179b8582860161172f565b60006020828403121561183457600080fd5b60006117638484611724565b60006020828403121561185257600080fd5b6000611763848461172f565b60006020828403121561187057600080fd5b6000611763848461173a565b6000806040838503121561188f57600080fd5b6000611811858561172f565b6118a481611b52565b82525050565b6118a481611b16565b6118a481611b21565b6118a46118c882611b26565b611b33565b6118a46118c882611b33565b60006118e482611b09565b6118ee81856107c7565b93506118fe818560208601611b6f565b9290920192915050565b6118a481611b59565b6118a481611b64565b600061192582611b09565b61192f8185611b0d565b935061193f818560208601611b6f565b61194881611b9f565b9093019392505050565b600061195f601b83611b0d565b7f536166654d6174683a206164646974696f6e206f766572666c6f770000000000815260200192915050565b6000611998602183611b0d565b7f536166654d6174683a206d756c7469706c69636174696f6e206f766572666c6f8152607760f81b602082015260400192915050565b6118a481611b33565b6118a481611b4c565b60006119ec82846118cd565b50602001919050565b6000611a0182866118d9565b9150611a0d82856118bc565b600282019150611a1d82846118d9565b95945050505050565b602081016107ae82846118aa565b60608101611a42828661189b565b611a4f60208301856118aa565b61176360408301846119ce565b60408101611a6a828561189b565b61080860208301846119ce565b602081016107ae82846118b3565b602081016107ae8284611908565b602081016107ae8284611911565b60208082528101610808818461191a565b602080825281016107ae81611952565b602080825281016107ae8161198b565b602081016107ae82846119ce565b60608101611aee82866119ce565b611a4f60208301856119ce565b602081016107ae82846119d7565b5190565b90815260200190565b60006107ae82611b40565b151590565b6001600160f01b03191690565b90565b806107c781611ba9565b6001600160a01b031690565b60ff1690565b60006107ae825b60006107ae82611b16565b60006107ae82611b36565b60005b83811015611b8a578181015183820152602001611b72565b83811115611b99576000848401525b50505050565b601f01601f191690565b60038110611bb357fe5b50565b611bbf81611b16565b8114611bb357600080fd5b611bbf81611b21565b611bbf81611b3356fe426f6e64696e673a20696e73756666696369656e74207374616765642062616c616e6365426f6e64696e673a20696e73756666696369656e7420746f74616c20626f6e646564a365627a7a72315820e21fc415c076e977075cfa6cab4e2bb189fbc05c940e8f79725e97b0977aab0d6c6578706572696d656e74616cf564736f6c63430005110040",
  "source": "/*\n    Copyright 2020 Dynamic Dollar Devs, based on the works of the Empty Set Squad\n\n    Licensed under the Apache License, Version 2.0 (the \"License\");\n    you may not use this file except in compliance with the License.\n    You may obtain a copy of the License at\n\n    http://www.apache.org/licenses/LICENSE-2.0\n\n    Unless required by applicable law or agreed to in writing, software\n    distributed under the License is distributed on an \"AS IS\" BASIS,\n    WITHOUT WARRANTIES OR CONDITIONS OF ANY KIND, either express or implied.\n    See the License for the specific language governing permissions and\n    limitations under the License.\n*/\n\npragma solidity ^0.5.17;\npragma experimental ABIEncoderV2;\n\nimport \"@openzeppelin/contracts/math/SafeMath.sol\";\nimport \"./Setters.sol\";\nimport \"./Permission.sol\";\nimport \"../external/Require.sol\";\nimport \"../Constants.sol\";\n\ncontract Bonding is Setters, Permission {\n    using SafeMath for uint256;\n\n    bytes32 private constant FILE = \"Bonding\";\n\n    event Deposit(address indexed account, uint256 value);\n    event Withdraw(address indexed account, uint256 value);\n    event Bond(address indexed account, uint256 start, uint256 value, uint256 valueUnderlying);\n    event Unbond(address indexed account, uint256 start, uint256 value, uint256 valueUnderlying);\n\n    function step() internal {\n        Require.that(\n            epochTime() > epoch(),\n            FILE,\n            \"Still current epoch\"\n        );\n\n        snapshotTotalBonded();\n        incrementEpoch();\n    }\n\n    function deposit(uint256 value) external {\n        dollar().transferFrom(msg.sender, address(this), value);\n        incrementBalanceOfStaged(msg.sender, value);\n\n        emit Deposit(msg.sender, value);\n    }\n\n    function withdraw(uint256 value) external onlyFrozenOrLocked(msg.sender) {\n        dollar().transfer(msg.sender, value);\n        decrementBalanceOfStaged(msg.sender, value, \"Bonding: insufficient staged balance\");\n\n        emit Withdraw(msg.sender, value);\n    }\n\n    function bond(uint256 value) external onlyFrozenOrFluid(msg.sender) {\n        unfreeze(msg.sender);\n\n        uint256 balance = totalBonded() == 0 ?\n            value.mul(Constants.getInitialStakeMultiple()) :\n            value.mul(totalSupply()).div(totalBonded());\n        incrementBalanceOf(msg.sender, balance);\n        incrementTotalBonded(value);\n        decrementBalanceOfStaged(msg.sender, value, \"Bonding: insufficient staged balance\");\n\n        emit Bond(msg.sender, epoch().add(1), balance, value);\n    }\n\n    function unbond(uint256 value) external onlyFrozenOrFluid(msg.sender) {\n        unfreeze(msg.sender);\n\n        uint256 staged = value.mul(balanceOfBonded(msg.sender)).div(balanceOf(msg.sender));\n        incrementBalanceOfStaged(msg.sender, staged);\n        decrementTotalBonded(staged, \"Bonding: insufficient total bonded\");\n        decrementBalanceOf(msg.sender, value, \"Bonding: insufficient balance\");\n\n        emit Unbond(msg.sender, epoch().add(1), value, staged);\n    }\n\n    function unbondUnderlying(uint256 value) external onlyFrozenOrFluid(msg.sender) {\n        unfreeze(msg.sender);\n\n        uint256 balance = value.mul(totalSupply()).div(totalBonded());\n        incrementBalanceOfStaged(msg.sender, value);\n        decrementTotalBonded(value, \"Bonding: insufficient total bonded\");\n        decrementBalanceOf(msg.sender, balance, \"Bonding: insufficient balance\");\n\n        emit Unbond(msg.sender, epoch().add(1), balance, value);\n    }\n}\n",
  "sourcePath": "/Users/cinquemb/Documents/Startups/crypto/dollar/protocol/contracts/dao/Bonding.sol",
  "compiler": {
    "name": "solc",
    "version": "0.5.17+commit.d19bba13.Emscripten.clang"
  },
  "schemaVersion": "3.3.3",
  "updatedAt": "2021-01-15T13:15:53.144Z",
  "devdoc": {
    "methods": {}
  },
  "userdoc": {
    "methods": {
      "balanceOfStaged(address)": {
        "notice": "Account"
      },
      "dollar()": {
        "notice": "Global"
      },
      "epoch()": {
        "notice": "Epoch"
      },
      "name()": {
        "notice": "ERC20 Interface"
      },
      "recordedVote(address,address)": {
        "notice": "Governance"
      },
      "transfer(address,uint256)": {
        "notice": "ERC20 Interface"
      }
    }
  }
}