{
  "contractName": "Bonding",
  "abi": [
    {
      "anonymous": false,
      "inputs": [
        {
          "indexed": true,
          "internalType": "address",
          "name": "account",
          "type": "address"
        },
        {
          "indexed": false,
          "internalType": "uint256",
          "name": "start",
          "type": "uint256"
        },
        {
          "indexed": false,
          "internalType": "uint256",
          "name": "value",
          "type": "uint256"
        },
        {
          "indexed": false,
          "internalType": "uint256",
          "name": "valueUnderlying",
          "type": "uint256"
        }
      ],
      "name": "Bond",
      "type": "event"
    },
    {
      "anonymous": false,
      "inputs": [
        {
          "indexed": true,
          "internalType": "address",
          "name": "account",
          "type": "address"
        },
        {
          "indexed": false,
          "internalType": "uint256",
          "name": "value",
          "type": "uint256"
        }
      ],
      "name": "Deposit",
      "type": "event"
    },
    {
      "anonymous": false,
      "inputs": [
        {
          "indexed": true,
          "internalType": "address",
          "name": "from",
          "type": "address"
        },
        {
          "indexed": true,
          "internalType": "address",
          "name": "to",
          "type": "address"
        },
        {
          "indexed": false,
          "internalType": "uint256",
          "name": "value",
          "type": "uint256"
        }
      ],
      "name": "Transfer",
      "type": "event"
    },
    {
      "anonymous": false,
      "inputs": [
        {
          "indexed": true,
          "internalType": "address",
          "name": "account",
          "type": "address"
        },
        {
          "indexed": false,
          "internalType": "uint256",
          "name": "start",
          "type": "uint256"
        },
        {
          "indexed": false,
          "internalType": "uint256",
          "name": "value",
          "type": "uint256"
        },
        {
          "indexed": false,
          "internalType": "uint256",
          "name": "valueUnderlying",
          "type": "uint256"
        }
      ],
      "name": "Unbond",
      "type": "event"
    },
    {
      "anonymous": false,
      "inputs": [
        {
          "indexed": true,
          "internalType": "address",
          "name": "account",
          "type": "address"
        },
        {
          "indexed": false,
          "internalType": "uint256",
          "name": "value",
          "type": "uint256"
        }
      ],
      "name": "Withdraw",
      "type": "event"
    },
    {
      "constant": true,
      "inputs": [
        {
          "internalType": "address",
          "name": "owner",
          "type": "address"
        },
        {
          "internalType": "address",
          "name": "spender",
          "type": "address"
        }
      ],
      "name": "allowance",
      "outputs": [
        {
          "internalType": "uint256",
          "name": "",
          "type": "uint256"
        }
      ],
      "payable": false,
      "stateMutability": "view",
      "type": "function"
    },
    {
      "constant": true,
      "inputs": [
        {
          "internalType": "address",
          "name": "owner",
          "type": "address"
        },
        {
          "internalType": "address",
          "name": "spender",
          "type": "address"
        }
      ],
      "name": "allowanceCoupons",
      "outputs": [
        {
          "internalType": "uint256",
          "name": "",
          "type": "uint256"
        }
      ],
      "payable": false,
      "stateMutability": "view",
      "type": "function"
    },
    {
      "constant": false,
      "inputs": [
        {
          "internalType": "address",
          "name": "spender",
          "type": "address"
        },
        {
          "internalType": "uint256",
          "name": "amount",
          "type": "uint256"
        }
      ],
      "name": "approve",
      "outputs": [
        {
          "internalType": "bool",
          "name": "",
          "type": "bool"
        }
      ],
      "payable": false,
      "stateMutability": "nonpayable",
      "type": "function"
    },
    {
      "constant": true,
      "inputs": [
        {
          "internalType": "address",
          "name": "candidate",
          "type": "address"
        }
      ],
      "name": "approveFor",
      "outputs": [
        {
          "internalType": "uint256",
          "name": "",
          "type": "uint256"
        }
      ],
      "payable": false,
      "stateMutability": "view",
      "type": "function"
    },
    {
      "constant": true,
      "inputs": [
        {
          "internalType": "address",
          "name": "account",
          "type": "address"
        }
      ],
      "name": "balanceOf",
      "outputs": [
        {
          "internalType": "uint256",
          "name": "",
          "type": "uint256"
        }
      ],
      "payable": false,
      "stateMutability": "view",
      "type": "function"
    },
    {
      "constant": true,
      "inputs": [
        {
          "internalType": "address",
          "name": "account",
          "type": "address"
        }
      ],
      "name": "balanceOfBonded",
      "outputs": [
        {
          "internalType": "uint256",
          "name": "",
          "type": "uint256"
        }
      ],
      "payable": false,
      "stateMutability": "view",
      "type": "function"
    },
    {
      "constant": true,
      "inputs": [
        {
          "internalType": "address",
          "name": "account",
          "type": "address"
        },
        {
          "internalType": "uint256",
          "name": "epoch",
          "type": "uint256"
        }
      ],
      "name": "balanceOfCoupons",
      "outputs": [
        {
          "internalType": "uint256",
          "name": "",
          "type": "uint256"
        }
      ],
      "payable": false,
      "stateMutability": "view",
      "type": "function"
    },
    {
      "constant": true,
      "inputs": [
        {
          "internalType": "address",
          "name": "account",
          "type": "address"
        }
      ],
      "name": "balanceOfStaged",
      "outputs": [
        {
          "internalType": "uint256",
          "name": "",
          "type": "uint256"
        }
      ],
      "payable": false,
      "stateMutability": "view",
      "type": "function"
    },
    {
      "constant": true,
      "inputs": [
        {
          "internalType": "uint256",
          "name": "epoch",
          "type": "uint256"
        }
      ],
      "name": "bootstrappingAt",
      "outputs": [
        {
          "internalType": "bool",
          "name": "",
          "type": "bool"
        }
      ],
      "payable": false,
      "stateMutability": "view",
      "type": "function"
    },
    {
      "constant": true,
      "inputs": [
        {
          "internalType": "uint256",
          "name": "epoch",
          "type": "uint256"
        }
      ],
      "name": "couponsExpiration",
      "outputs": [
        {
          "internalType": "uint256",
          "name": "",
          "type": "uint256"
        }
      ],
      "payable": false,
      "stateMutability": "view",
      "type": "function"
    },
    {
      "constant": true,
      "inputs": [],
      "name": "decimals",
      "outputs": [
        {
          "internalType": "uint8",
          "name": "",
          "type": "uint8"
        }
      ],
      "payable": false,
      "stateMutability": "view",
      "type": "function"
    },
    {
      "constant": true,
      "inputs": [],
      "name": "dollar",
      "outputs": [
        {
          "internalType": "contract IDollar",
          "name": "",
          "type": "address"
        }
      ],
      "payable": false,
      "stateMutability": "view",
      "type": "function"
    },
    {
      "constant": true,
      "inputs": [],
      "name": "epoch",
      "outputs": [
        {
          "internalType": "uint256",
          "name": "",
          "type": "uint256"
        }
      ],
      "payable": false,
      "stateMutability": "view",
      "type": "function"
    },
    {
      "constant": true,
      "inputs": [],
      "name": "epochTime",
      "outputs": [
        {
          "internalType": "uint256",
          "name": "",
          "type": "uint256"
        }
      ],
      "payable": false,
      "stateMutability": "view",
      "type": "function"
    },
    {
      "constant": true,
      "inputs": [
        {
          "internalType": "uint256",
          "name": "epoch",
          "type": "uint256"
        }
      ],
      "name": "expiringCoupons",
      "outputs": [
        {
          "internalType": "uint256",
          "name": "",
          "type": "uint256"
        }
      ],
      "payable": false,
      "stateMutability": "view",
      "type": "function"
    },
    {
      "constant": true,
      "inputs": [
        {
          "internalType": "uint256",
          "name": "epoch",
          "type": "uint256"
        },
        {
          "internalType": "uint256",
          "name": "i",
          "type": "uint256"
        }
      ],
      "name": "expiringCouponsAtIndex",
      "outputs": [
        {
          "internalType": "uint256",
          "name": "",
          "type": "uint256"
        }
      ],
      "payable": false,
      "stateMutability": "view",
      "type": "function"
    },
    {
      "constant": true,
      "inputs": [],
      "name": "implementation",
      "outputs": [
        {
          "internalType": "address",
          "name": "impl",
          "type": "address"
        }
      ],
      "payable": false,
      "stateMutability": "view",
      "type": "function"
    },
    {
      "constant": true,
      "inputs": [
        {
          "internalType": "address",
          "name": "candidate",
          "type": "address"
        }
      ],
      "name": "isInitialized",
      "outputs": [
        {
          "internalType": "bool",
          "name": "",
          "type": "bool"
        }
      ],
      "payable": false,
      "stateMutability": "view",
      "type": "function"
    },
    {
      "constant": true,
      "inputs": [
        {
          "internalType": "address",
          "name": "candidate",
          "type": "address"
        }
      ],
      "name": "isNominated",
      "outputs": [
        {
          "internalType": "bool",
          "name": "",
          "type": "bool"
        }
      ],
      "payable": false,
      "stateMutability": "view",
      "type": "function"
    },
    {
      "constant": true,
      "inputs": [],
      "name": "name",
      "outputs": [
        {
          "internalType": "string",
          "name": "",
          "type": "string"
        }
      ],
      "payable": false,
      "stateMutability": "view",
      "type": "function"
    },
    {
      "constant": true,
      "inputs": [],
      "name": "oracle",
      "outputs": [
        {
          "internalType": "contract IOracle",
          "name": "",
          "type": "address"
        }
      ],
      "payable": false,
      "stateMutability": "view",
      "type": "function"
    },
    {
      "constant": true,
      "inputs": [
        {
          "internalType": "uint256",
          "name": "epoch",
          "type": "uint256"
        }
      ],
      "name": "outstandingCoupons",
      "outputs": [
        {
          "internalType": "uint256",
          "name": "",
          "type": "uint256"
        }
      ],
      "payable": false,
      "stateMutability": "view",
      "type": "function"
    },
    {
      "constant": true,
      "inputs": [
        {
          "internalType": "address",
          "name": "candidate",
          "type": "address"
        }
      ],
      "name": "periodFor",
      "outputs": [
        {
          "internalType": "uint256",
          "name": "",
          "type": "uint256"
        }
      ],
      "payable": false,
      "stateMutability": "view",
      "type": "function"
    },
    {
      "constant": true,
      "inputs": [],
      "name": "pool",
      "outputs": [
        {
          "internalType": "address",
          "name": "",
          "type": "address"
        }
      ],
      "payable": false,
      "stateMutability": "view",
      "type": "function"
    },
    {
      "constant": true,
      "inputs": [
        {
          "internalType": "address",
          "name": "account",
          "type": "address"
        },
        {
          "internalType": "address",
          "name": "candidate",
          "type": "address"
        }
      ],
      "name": "recordedVote",
      "outputs": [
        {
          "internalType": "enum Candidate.Vote",
          "name": "",
          "type": "uint8"
        }
      ],
      "payable": false,
      "stateMutability": "view",
      "type": "function"
    },
    {
      "constant": true,
      "inputs": [
        {
          "internalType": "address",
          "name": "candidate",
          "type": "address"
        }
      ],
      "name": "rejectFor",
      "outputs": [
        {
          "internalType": "uint256",
          "name": "",
          "type": "uint256"
        }
      ],
      "payable": false,
      "stateMutability": "view",
      "type": "function"
    },
    {
      "constant": true,
      "inputs": [
        {
          "internalType": "address",
          "name": "candidate",
          "type": "address"
        }
      ],
      "name": "startFor",
      "outputs": [
        {
          "internalType": "uint256",
          "name": "",
          "type": "uint256"
        }
      ],
      "payable": false,
      "stateMutability": "view",
      "type": "function"
    },
    {
      "constant": true,
      "inputs": [
        {
          "internalType": "address",
          "name": "account",
          "type": "address"
        }
      ],
      "name": "statusOf",
      "outputs": [
        {
          "internalType": "enum Account.Status",
          "name": "",
          "type": "uint8"
        }
      ],
      "payable": false,
      "stateMutability": "view",
      "type": "function"
    },
    {
      "constant": true,
      "inputs": [],
      "name": "symbol",
      "outputs": [
        {
          "internalType": "string",
          "name": "",
          "type": "string"
        }
      ],
      "payable": false,
      "stateMutability": "view",
      "type": "function"
    },
    {
      "constant": true,
      "inputs": [],
      "name": "totalBonded",
      "outputs": [
        {
          "internalType": "uint256",
          "name": "",
          "type": "uint256"
        }
      ],
      "payable": false,
      "stateMutability": "view",
      "type": "function"
    },
    {
      "constant": true,
      "inputs": [
        {
          "internalType": "uint256",
          "name": "epoch",
          "type": "uint256"
        }
      ],
      "name": "totalBondedAt",
      "outputs": [
        {
          "internalType": "uint256",
          "name": "",
          "type": "uint256"
        }
      ],
      "payable": false,
      "stateMutability": "view",
      "type": "function"
    },
    {
      "constant": true,
      "inputs": [],
      "name": "totalCoupons",
      "outputs": [
        {
          "internalType": "uint256",
          "name": "",
          "type": "uint256"
        }
      ],
      "payable": false,
      "stateMutability": "view",
      "type": "function"
    },
    {
      "constant": true,
      "inputs": [],
      "name": "totalDebt",
      "outputs": [
        {
          "internalType": "uint256",
          "name": "",
          "type": "uint256"
        }
      ],
      "payable": false,
      "stateMutability": "view",
      "type": "function"
    },
    {
      "constant": true,
      "inputs": [],
      "name": "totalNet",
      "outputs": [
        {
          "internalType": "uint256",
          "name": "",
          "type": "uint256"
        }
      ],
      "payable": false,
      "stateMutability": "view",
      "type": "function"
    },
    {
      "constant": true,
      "inputs": [],
      "name": "totalRedeemable",
      "outputs": [
        {
          "internalType": "uint256",
          "name": "",
          "type": "uint256"
        }
      ],
      "payable": false,
      "stateMutability": "view",
      "type": "function"
    },
    {
      "constant": true,
      "inputs": [],
      "name": "totalStaged",
      "outputs": [
        {
          "internalType": "uint256",
          "name": "",
          "type": "uint256"
        }
      ],
      "payable": false,
      "stateMutability": "view",
      "type": "function"
    },
    {
      "constant": true,
      "inputs": [],
      "name": "totalSupply",
      "outputs": [
        {
          "internalType": "uint256",
          "name": "",
          "type": "uint256"
        }
      ],
      "payable": false,
      "stateMutability": "view",
      "type": "function"
    },
    {
      "constant": false,
      "inputs": [
        {
          "internalType": "address",
          "name": "recipient",
          "type": "address"
        },
        {
          "internalType": "uint256",
          "name": "amount",
          "type": "uint256"
        }
      ],
      "name": "transfer",
      "outputs": [
        {
          "internalType": "bool",
          "name": "",
          "type": "bool"
        }
      ],
      "payable": false,
      "stateMutability": "nonpayable",
      "type": "function"
    },
    {
      "constant": false,
      "inputs": [
        {
          "internalType": "address",
          "name": "sender",
          "type": "address"
        },
        {
          "internalType": "address",
          "name": "recipient",
          "type": "address"
        },
        {
          "internalType": "uint256",
          "name": "amount",
          "type": "uint256"
        }
      ],
      "name": "transferFrom",
      "outputs": [
        {
          "internalType": "bool",
          "name": "",
          "type": "bool"
        }
      ],
      "payable": false,
      "stateMutability": "nonpayable",
      "type": "function"
    },
    {
      "constant": true,
      "inputs": [
        {
          "internalType": "address",
          "name": "candidate",
          "type": "address"
        }
      ],
      "name": "votesFor",
      "outputs": [
        {
          "internalType": "uint256",
          "name": "",
          "type": "uint256"
        }
      ],
      "payable": false,
      "stateMutability": "view",
      "type": "function"
    },
    {
      "constant": false,
      "inputs": [
        {
          "internalType": "uint256",
          "name": "value",
          "type": "uint256"
        }
      ],
      "name": "deposit",
      "outputs": [],
      "payable": false,
      "stateMutability": "nonpayable",
      "type": "function"
    },
    {
      "constant": false,
      "inputs": [
        {
          "internalType": "uint256",
          "name": "value",
          "type": "uint256"
        }
      ],
      "name": "withdraw",
      "outputs": [],
      "payable": false,
      "stateMutability": "nonpayable",
      "type": "function"
    },
    {
      "constant": false,
      "inputs": [
        {
          "internalType": "uint256",
          "name": "value",
          "type": "uint256"
        }
      ],
      "name": "bond",
      "outputs": [],
      "payable": false,
      "stateMutability": "nonpayable",
      "type": "function"
    },
    {
      "constant": false,
      "inputs": [
        {
          "internalType": "uint256",
          "name": "value",
          "type": "uint256"
        }
      ],
      "name": "unbond",
      "outputs": [],
      "payable": false,
      "stateMutability": "nonpayable",
      "type": "function"
    },
    {
      "constant": false,
      "inputs": [
        {
          "internalType": "uint256",
          "name": "value",
          "type": "uint256"
        }
      ],
      "name": "unbondUnderlying",
      "outputs": [],
      "payable": false,
      "stateMutability": "nonpayable",
      "type": "function"
    }
  ],
  "bytecode": "0x608060405234801561001057600080fd5b50611956806100206000396000f3fe608060405234801561001057600080fd5b506004361061027f5760003560e01c806375d5024b1161015c578063a6c409f1116100ce578063d60b347f11610087578063d60b347f14610517578063dd62ed3e1461052a578063df9a2b1c14610538578063f1b7cf491461054b578063fc7b9c181461055e578063ffbe3b73146105665761027f565b8063a6c409f1146104ce578063a9059cbb146102a2578063b6b55f25146104d6578063bc7513e2146104e9578063c9aff70c146104fc578063cf0237791461050f5761027f565b806395d89b411161012057806395d89b411461047257806397a5d5b51461047a5780639940686e1461048d5780639a649edc146104a05780639f6e1b26146104a8578063a50cd8e7146104bb5761027f565b806375d5024b146104295780637dc0d1d01461043c578063825ad6071461044457806386cf9f1414610457578063900cf0cf1461046a5761027f565b8063353a420c116101f55780635053e461116101b95780635053e461146103cb57806351adeb57146103d35780635c60da1b146103e857806364668022146103f05780636a39e3281461040357806370a08231146104165761027f565b8063353a420c1461036a5780633a3e6c811461037d5780633fbba9a61461039057806344d96e95146103b05780634c736099146103b85761027f565b806318160ddd1161024757806318160ddd1461030a5780631edbcf6c1461031257806323b872dd1461031a57806327de9e321461032d5780632e1a7d4d14610342578063313ce567146103555761027f565b806306fdde0314610284578063095ea7b3146102a257806310e95b6c146102c257806315e14bf6146102e257806316f0115b146102f5575b600080fd5b61028c610579565b6040516102999190611792565b60405180910390f35b6102b56102b03660046114e3565b6105b0565b6040516102999190611768565b6102d56102d0366004611531565b6105b9565b60405161029991906117c3565b6102d56102f0366004611436565b6105d1565b6102fd6105ef565b6040516102999190611717565b6102d56105fe565b6102d5610604565b6102b5610328366004611496565b61060a565b61034061033b366004611531565b610614565b005b610340610350366004611531565b61075e565b61035d610896565b60405161029991906117ec565b6102d5610378366004611436565b61089b565b6102b561038b366004611436565b6108b9565b6103a361039e36600461145c565b6108d6565b6040516102999190611784565b6102d5610909565b6102d56103c636600461156d565b61090f565b6102d561093f565b6103db610962565b6040516102999190611776565b6102fd610971565b6102d56103fe366004611436565b610996565b6102d5610411366004611531565b6109b4565b6102d5610424366004611436565b6109c9565b6102b5610437366004611531565b6109e7565b6103db6109fa565b6102d5610452366004611436565b610a09565b6102d5610465366004611436565b610a49565b6102d5610a64565b61028c610a6a565b6103a3610488366004611436565b610a88565b61034061049b366004611531565b610aed565b6102d5610bbb565b6102d56104b636600461145c565b610bc1565b6102d56104c9366004611436565b610bf0565b6102d5610c07565b6103406104e4366004611531565b610c9d565b6102d56104f73660046114e3565b610d75565b6102d561050a366004611531565b610db9565b6102d5610dce565b6102b5610525366004611436565b610dd4565b6102d56102b036600461145c565b610340610546366004611531565b610df5565b6102d5610559366004611436565b610eb3565b6102d5610ece565b6102d5610574366004611531565b610ed4565b60408051808201909152601881527f44796e616d69632053657420446f6c6c6172205374616b650000000000000000602082015290565b60005b92915050565b6000818152600d60205260409020600201545b919050565b6001600160a01b03166000908152600e602052604090206001015490565b600b546001600160a01b031690565b60035490565b60065490565b60005b9392505050565b3361065b60025b61062483610a88565b600281111561062f57fe5b1415692832b936b4b9b9b4b7b760b11b72139bdd08199c9bde995b881bdc88199b1d5a59606a1b610ee6565b61066433610f49565b6000610697610672336109c9565b61068b61067e33610a09565b869063ffffffff610f7b16565b9063ffffffff610fb516565b90506106a33382610ff7565b6106c5816040518060600160405280602281526020016118f260229139611053565b61070533846040518060400160405280601d81526020017f426f6e64696e673a20696e73756666696369656e742062616c616e636500000081525061106e565b337f93530ac0ee8c50e696e13c5ac62355d0c0ba4bd943620d5bda1eb08b64ae75126107406001610734610a64565b9063ffffffff61111916565b8584604051610751939291906117d1565b60405180910390a2505050565b336107a660015b61076e83610a88565b600281111561077957fe5b1415692832b936b4b9b9b4b7b760b11b73139bdd08199c9bde995b881bdc881b1bd8dad95960621b610ee6565b6107ae610962565b6001600160a01b031663a9059cbb33846040518363ffffffff1660e01b81526004016107db92919061174d565b602060405180830381600087803b1580156107f557600080fd5b505af1158015610809573d6000803e3d6000fd5b505050506040513d601f19601f8201168201806040525061082d9190810190611513565b5061085133836040518060600160405280602481526020016118ce6024913961113e565b336001600160a01b03167f884edad9ce6fa2440d8a54cc123490eb96d2768479d49ff9c7366125a94243648360405161088a91906117c3565b60405180910390a25050565b601290565b6001600160a01b03166000908152600e602052604090206003015490565b6001600160a01b03166000908152600e6020526040902054151590565b6001600160a01b038082166000908152600e60209081526040808320938616835260049093019052205460ff1692915050565b60045490565b6000828152600d6020526040812060030180548390811061092c57fe5b9060005260206000200154905092915050565b60006109496113e9565b61095161119d565b905061095c816111cc565b91505090565b6009546001600160a01b031690565b7f360894a13ba1a3210667c828492db98dca3e2076cc3735a920a3ca505d382bbc5490565b6001600160a01b03166000908152600e602052604090206002015490565b6000908152600d602052604090206003015490565b6001600160a01b03166000908152600c602052604090206001015490565b60006109f16111ee565b90911115919050565b600a546001600160a01b031690565b600080610a146105fe565b905080610a255760009150506105cc565b61060d8161068b610a35866109c9565b610a3d610909565b9063ffffffff610f7b16565b6001600160a01b03166000908152600c602052604090205490565b60025490565b6040805180820190915260048152634453445360e01b602082015290565b6000610a92610a64565b6001600160a01b0383166000908152600c60205260409020600501541115610abc575060026105cc565b6001600160a01b0382166000908152600c6020526040902060040154610ae0610a64565b10156105b05760016105b3565b33610af8600261061b565b610b0133610f49565b6000610b0b610909565b15610b2b57610b26610b1b610909565b61068b61067e6105fe565b610b43565b610b43610b366111f3565b849063ffffffff610f7b16565b9050610b4f33826111fa565b610b58836112a2565b610b7b33846040518060600160405280602481526020016118ce6024913961113e565b337f44002fdef5a0c2d2e4e05572e9780b95aef97e0e93ffd7cc076b09fa78ff2b46610baa6001610734610a64565b8386604051610751939291906117d1565b60085490565b6001600160a01b039182166000908152600c602090815260408083209390941682526003909201909152205490565b60006105b3610bfe8361089b565b61073484610996565b6000610c98610c14610ece565b610c1c610962565b6001600160a01b03166318160ddd6040518163ffffffff1660e01b815260040160206040518083038186803b158015610c5457600080fd5b505afa158015610c68573d6000803e3d6000fd5b505050506040513d601f19601f82011682018060405250610c8c919081019061154f565b9063ffffffff6112bb16565b905090565b33610ca86001610765565b610cb0610962565b6001600160a01b03166323b872dd3330856040518463ffffffff1660e01b8152600401610cdf93929190611725565b602060405180830381600087803b158015610cf957600080fd5b505af1158015610d0d573d6000803e3d6000fd5b505050506040513d601f19601f82011682018060405250610d319190810190611513565b50610d3c3383610ff7565b336001600160a01b03167fe1fffcc4923d04b559f4d29a8bfc6cda04eb5b0d3c460751c2402c5c5cc9109c8360405161088a91906117c3565b6000610d8082610db9565b610d8c575060006105b3565b506001600160a01b03919091166000908152600c6020908152604080832093835260029093019052205490565b6000908152600d602052604090206001015490565b60055490565b6001600160a01b03166000908152600e602052604090206005015460ff1690565b33610e00600261061b565b610e0933610f49565b6000610e16610b1b610909565b9050610e223384610ff7565b610e44836040518060600160405280602281526020016118f260229139611053565b610e8433826040518060400160405280601d81526020017f426f6e64696e673a20696e73756666696369656e742062616c616e636500000081525061106e565b337f93530ac0ee8c50e696e13c5ac62355d0c0ba4bd943620d5bda1eb08b64ae7512610baa6001610734610a64565b6001600160a01b03166000908152600e602052604090205490565b60075490565b6000908152600d602052604090205490565b82610f4457610ef4826112fd565b6101d160f51b610f03836112fd565b604051602001610f15939291906116e6565b60408051601f198184030181529082905262461bcd60e51b8252610f3b91600401611792565b60405180910390fd5b505050565b610f5c610f5461137d565b610734610a64565b6001600160a01b039091166000908152600c6020526040902060040155565b600082610f8a575060006105b3565b82820282848281610f9757fe5b041461060d5760405162461bcd60e51b8152600401610f3b906117b3565b600061060d83836040518060400160405280601a81526020017f536166654d6174683a206469766973696f6e206279207a65726f000000000000815250611382565b6001600160a01b0382166000908152600c6020526040902054611020908263ffffffff61111916565b6001600160a01b0383166000908152600c602052604090205560055461104c908263ffffffff61111916565b6005555050565b60045461106790838363ffffffff6113b916565b6004555050565b6001600160a01b0383166000908152600c602052604090206001015461109b90838363ffffffff6113b916565b6001600160a01b0384166000908152600c60205260409020600101556003546110cb90838363ffffffff6113b916565b6003556040516000906001600160a01b038516907fddf252ad1be2c89b69c2b068fc378daa952ba7f163c4a11628f55a4df523b3ef9061110c9086906117c3565b60405180910390a3505050565b60008282018381101561060d5760405162461bcd60e51b8152600401610f3b906117a3565b6001600160a01b0383166000908152600c602052604090205461116890838363ffffffff6113b916565b6001600160a01b0384166000908152600c602052604090205560055461119590838363ffffffff6113b916565b600555505050565b6111a56113e9565b604051806060016040528060008152602001635fbef0008152602001611c20815250905090565b60006105b38260000151610734846040015161068b8660200151610c8c6113e5565b609690565b620f424090565b6001600160a01b0382166000908152600c6020526040902060010154611226908263ffffffff61111916565b6001600160a01b0383166000908152600c6020526040902060010155600354611255908263ffffffff61111916565b6003556040516001600160a01b038316906000907fddf252ad1be2c89b69c2b068fc378daa952ba7f163c4a11628f55a4df523b3ef906112969085906117c3565b60405180910390a35050565b6004546112b5908263ffffffff61111916565b60045550565b600061060d83836040518060400160405280601e81526020017f536166654d6174683a207375627472616374696f6e206f766572666c6f7700008152506113b9565b6060808260405160200161131191906116d1565b60408051601f19818403018152919052905060205b80156113665781516000199091019082908290811061134157fe5b01602001516001600160f81b0319161561136157600101815290506105cc565b611326565b505060408051600081526020810190915292915050565b602490565b600081836113a35760405162461bcd60e51b8152600401610f3b9190611792565b5060008385816113af57fe5b0495945050505050565b600081848411156113dd5760405162461bcd60e51b8152600401610f3b9190611792565b505050900390565b4290565b60405180606001604052806000815260200160008152602001600081525090565b80356105b3816118a7565b80516105b3816118bb565b80356105b3816118c4565b80516105b3816118c4565b60006020828403121561144857600080fd5b6000611454848461140a565b949350505050565b6000806040838503121561146f57600080fd5b600061147b858561140a565b925050602061148c8582860161140a565b9150509250929050565b6000806000606084860312156114ab57600080fd5b60006114b7868661140a565b93505060206114c88682870161140a565b92505060406114d986828701611420565b9150509250925092565b600080604083850312156114f657600080fd5b6000611502858561140a565b925050602061148c85828601611420565b60006020828403121561152557600080fd5b60006114548484611415565b60006020828403121561154357600080fd5b60006114548484611420565b60006020828403121561156157600080fd5b6000611454848461142b565b6000806040838503121561158057600080fd5b60006115028585611420565b61159581611843565b82525050565b61159581611807565b61159581611812565b6115956115b982611817565b611824565b6115956115b982611824565b60006115d5826117fa565b6115df81856105cc565b93506115ef818560208601611860565b9290920192915050565b6115958161184a565b61159581611855565b6000611616826117fa565b61162081856117fe565b9350611630818560208601611860565b61163981611890565b9093019392505050565b6000611650601b836117fe565b7f536166654d6174683a206164646974696f6e206f766572666c6f770000000000815260200192915050565b60006116896021836117fe565b7f536166654d6174683a206d756c7469706c69636174696f6e206f766572666c6f8152607760f81b602082015260400192915050565b61159581611824565b6115958161183d565b60006116dd82846115be565b50602001919050565b60006116f282866115ca565b91506116fe82856115ad565b60028201915061170e82846115ca565b95945050505050565b602081016105b3828461159b565b60608101611733828661158c565b611740602083018561159b565b61145460408301846116bf565b6040810161175b828561158c565b61060d60208301846116bf565b602081016105b382846115a4565b602081016105b382846115f9565b602081016105b38284611602565b6020808252810161060d818461160b565b602080825281016105b381611643565b602080825281016105b38161167c565b602081016105b382846116bf565b606081016117df82866116bf565b61174060208301856116bf565b602081016105b382846116c8565b5190565b90815260200190565b60006105b382611831565b151590565b6001600160f01b03191690565b90565b806105cc8161189a565b6001600160a01b031690565b60ff1690565b60006105b3825b60006105b382611807565b60006105b382611827565b60005b8381101561187b578181015183820152602001611863565b8381111561188a576000848401525b50505050565b601f01601f191690565b600381106118a457fe5b50565b6118b081611807565b81146118a457600080fd5b6118b081611812565b6118b08161182456fe426f6e64696e673a20696e73756666696369656e74207374616765642062616c616e6365426f6e64696e673a20696e73756666696369656e7420746f74616c20626f6e646564a365627a7a7231582015286ea908519cc15ec0f7ebea86ca51ee193551aa99367c6692bc1ce1351f156c6578706572696d656e74616cf564736f6c63430005110040",
  "source": "/*\n    Copyright 2020 Dynamic Dollar Devs, based on the works of the Empty Set Squad\n\n    Licensed under the Apache License, Version 2.0 (the \"License\");\n    you may not use this file except in compliance with the License.\n    You may obtain a copy of the License at\n\n    http://www.apache.org/licenses/LICENSE-2.0\n\n    Unless required by applicable law or agreed to in writing, software\n    distributed under the License is distributed on an \"AS IS\" BASIS,\n    WITHOUT WARRANTIES OR CONDITIONS OF ANY KIND, either express or implied.\n    See the License for the specific language governing permissions and\n    limitations under the License.\n*/\n\npragma solidity ^0.5.17;\npragma experimental ABIEncoderV2;\n\nimport \"@openzeppelin/contracts/math/SafeMath.sol\";\nimport \"./Setters.sol\";\nimport \"./Permission.sol\";\nimport \"../external/Require.sol\";\nimport \"../Constants.sol\";\n\ncontract Bonding is Setters, Permission {\n    using SafeMath for uint256;\n\n    bytes32 private constant FILE = \"Bonding\";\n\n    event Deposit(address indexed account, uint256 value);\n    event Withdraw(address indexed account, uint256 value);\n    event Bond(address indexed account, uint256 start, uint256 value, uint256 valueUnderlying);\n    event Unbond(address indexed account, uint256 start, uint256 value, uint256 valueUnderlying);\n\n    function step() internal {\n        Require.that(\n            epochTime() > epoch(),\n            FILE,\n            \"Still current epoch\"\n        );\n\n        snapshotTotalBonded();\n        incrementEpoch();\n    }\n\n    function deposit(uint256 value) external onlyFrozenOrLocked(msg.sender) {\n        dollar().transferFrom(msg.sender, address(this), value);\n        incrementBalanceOfStaged(msg.sender, value);\n\n        emit Deposit(msg.sender, value);\n    }\n\n    function withdraw(uint256 value) external onlyFrozenOrLocked(msg.sender) {\n        dollar().transfer(msg.sender, value);\n        decrementBalanceOfStaged(msg.sender, value, \"Bonding: insufficient staged balance\");\n\n        emit Withdraw(msg.sender, value);\n    }\n\n    function bond(uint256 value) external onlyFrozenOrFluid(msg.sender) {\n        unfreeze(msg.sender);\n\n        uint256 balance = totalBonded() == 0 ?\n            value.mul(Constants.getInitialStakeMultiple()) :\n            value.mul(totalSupply()).div(totalBonded());\n        incrementBalanceOf(msg.sender, balance);\n        incrementTotalBonded(value);\n        decrementBalanceOfStaged(msg.sender, value, \"Bonding: insufficient staged balance\");\n\n        emit Bond(msg.sender, epoch().add(1), balance, value);\n    }\n\n    function unbond(uint256 value) external onlyFrozenOrFluid(msg.sender) {\n        unfreeze(msg.sender);\n\n        uint256 staged = value.mul(balanceOfBonded(msg.sender)).div(balanceOf(msg.sender));\n        incrementBalanceOfStaged(msg.sender, staged);\n        decrementTotalBonded(staged, \"Bonding: insufficient total bonded\");\n        decrementBalanceOf(msg.sender, value, \"Bonding: insufficient balance\");\n\n        emit Unbond(msg.sender, epoch().add(1), value, staged);\n    }\n\n    function unbondUnderlying(uint256 value) external onlyFrozenOrFluid(msg.sender) {\n        unfreeze(msg.sender);\n\n        uint256 balance = value.mul(totalSupply()).div(totalBonded());\n        incrementBalanceOfStaged(msg.sender, value);\n        decrementTotalBonded(value, \"Bonding: insufficient total bonded\");\n        decrementBalanceOf(msg.sender, balance, \"Bonding: insufficient balance\");\n\n        emit Unbond(msg.sender, epoch().add(1), balance, value);\n    }\n}\n",
  "sourcePath": "/home/name/Desktop/Files/projects/dynamic/dollar/protocol/contracts/dao/Bonding.sol",
  "compiler": {
    "name": "solc",
    "version": "0.5.17+commit.d19bba13.Emscripten.clang"
  },
  "schemaVersion": "3.3.1",
  "updatedAt": "2020-11-25T22:34:45.146Z",
  "devdoc": {
    "methods": {}
  },
  "userdoc": {
    "methods": {
      "balanceOfStaged(address)": {
        "notice": "Account"
      },
      "dollar()": {
        "notice": "Global"
      },
      "epoch()": {
        "notice": "Epoch"
      },
      "name()": {
        "notice": "ERC20 Interface"
      },
      "recordedVote(address,address)": {
        "notice": "Governance"
      },
      "transfer(address,uint256)": {
        "notice": "ERC20 Interface"
      }
    }
  }
}