{
  "contractName": "Deployer2",
  "abi": [
    {
      "anonymous": false,
      "inputs": [
        {
          "indexed": true,
          "internalType": "address",
          "name": "from",
          "type": "address"
        },
        {
          "indexed": true,
          "internalType": "address",
          "name": "to",
          "type": "address"
        },
        {
          "indexed": false,
          "internalType": "uint256",
          "name": "value",
          "type": "uint256"
        }
      ],
      "name": "Transfer",
      "type": "event"
    },
    {
      "anonymous": false,
      "inputs": [
        {
          "indexed": true,
          "internalType": "address",
          "name": "implementation",
          "type": "address"
        }
      ],
      "name": "Upgraded",
      "type": "event"
    },
    {
      "constant": true,
      "inputs": [
        {
          "internalType": "address",
          "name": "owner",
          "type": "address"
        },
        {
          "internalType": "address",
          "name": "spender",
          "type": "address"
        }
      ],
      "name": "allowance",
      "outputs": [
        {
          "internalType": "uint256",
          "name": "",
          "type": "uint256"
        }
      ],
      "payable": false,
      "stateMutability": "view",
      "type": "function"
    },
    {
      "constant": true,
      "inputs": [
        {
          "internalType": "address",
          "name": "owner",
          "type": "address"
        },
        {
          "internalType": "address",
          "name": "spender",
          "type": "address"
        }
      ],
      "name": "allowanceCoupons",
      "outputs": [
        {
          "internalType": "uint256",
          "name": "",
          "type": "uint256"
        }
      ],
      "payable": false,
      "stateMutability": "view",
      "type": "function"
    },
    {
      "constant": false,
      "inputs": [
        {
          "internalType": "address",
          "name": "spender",
          "type": "address"
        },
        {
          "internalType": "uint256",
          "name": "amount",
          "type": "uint256"
        }
      ],
      "name": "approve",
      "outputs": [
        {
          "internalType": "bool",
          "name": "",
          "type": "bool"
        }
      ],
      "payable": false,
      "stateMutability": "nonpayable",
      "type": "function"
    },
    {
      "constant": true,
      "inputs": [
        {
          "internalType": "address",
          "name": "candidate",
          "type": "address"
        }
      ],
      "name": "approveFor",
      "outputs": [
        {
          "internalType": "uint256",
          "name": "",
          "type": "uint256"
        }
      ],
      "payable": false,
      "stateMutability": "view",
      "type": "function"
    },
    {
      "constant": true,
      "inputs": [
        {
          "internalType": "address",
          "name": "account",
          "type": "address"
        }
      ],
      "name": "balanceOf",
      "outputs": [
        {
          "internalType": "uint256",
          "name": "",
          "type": "uint256"
        }
      ],
      "payable": false,
      "stateMutability": "view",
      "type": "function"
    },
    {
      "constant": true,
      "inputs": [
        {
          "internalType": "address",
          "name": "account",
          "type": "address"
        }
      ],
      "name": "balanceOfBonded",
      "outputs": [
        {
          "internalType": "uint256",
          "name": "",
          "type": "uint256"
        }
      ],
      "payable": false,
      "stateMutability": "view",
      "type": "function"
    },
    {
      "constant": true,
      "inputs": [
        {
          "internalType": "address",
          "name": "account",
          "type": "address"
        },
        {
          "internalType": "uint256",
          "name": "epoch",
          "type": "uint256"
        }
      ],
      "name": "balanceOfCoupons",
      "outputs": [
        {
          "internalType": "uint256",
          "name": "",
          "type": "uint256"
        }
      ],
      "payable": false,
      "stateMutability": "view",
      "type": "function"
    },
    {
      "constant": true,
      "inputs": [
        {
          "internalType": "address",
          "name": "account",
          "type": "address"
        }
      ],
      "name": "balanceOfStaged",
      "outputs": [
        {
          "internalType": "uint256",
          "name": "",
          "type": "uint256"
        }
      ],
      "payable": false,
      "stateMutability": "view",
      "type": "function"
    },
    {
      "constant": true,
      "inputs": [
        {
          "internalType": "uint256",
          "name": "epoch",
          "type": "uint256"
        }
      ],
      "name": "bootstrappingAt",
      "outputs": [
        {
          "internalType": "bool",
          "name": "",
          "type": "bool"
        }
      ],
      "payable": false,
      "stateMutability": "view",
      "type": "function"
    },
    {
      "constant": true,
      "inputs": [
        {
          "internalType": "uint256",
          "name": "epoch",
          "type": "uint256"
        }
      ],
      "name": "couponsExpiration",
      "outputs": [
        {
          "internalType": "uint256",
          "name": "",
          "type": "uint256"
        }
      ],
      "payable": false,
      "stateMutability": "view",
      "type": "function"
    },
    {
      "constant": true,
      "inputs": [],
      "name": "decimals",
      "outputs": [
        {
          "internalType": "uint8",
          "name": "",
          "type": "uint8"
        }
      ],
      "payable": false,
      "stateMutability": "view",
      "type": "function"
    },
    {
      "constant": true,
      "inputs": [],
      "name": "dollar",
      "outputs": [
        {
          "internalType": "contract IDollar",
          "name": "",
          "type": "address"
        }
      ],
      "payable": false,
      "stateMutability": "view",
      "type": "function"
    },
    {
      "constant": true,
      "inputs": [],
      "name": "epoch",
      "outputs": [
        {
          "internalType": "uint256",
          "name": "",
          "type": "uint256"
        }
      ],
      "payable": false,
      "stateMutability": "view",
      "type": "function"
    },
    {
      "constant": true,
      "inputs": [],
      "name": "epochTime",
      "outputs": [
        {
          "internalType": "uint256",
          "name": "",
          "type": "uint256"
        }
      ],
      "payable": false,
      "stateMutability": "view",
      "type": "function"
    },
    {
      "constant": true,
      "inputs": [
        {
          "internalType": "uint256",
          "name": "epoch",
          "type": "uint256"
        }
      ],
      "name": "expiringCoupons",
      "outputs": [
        {
          "internalType": "uint256",
          "name": "",
          "type": "uint256"
        }
      ],
      "payable": false,
      "stateMutability": "view",
      "type": "function"
    },
    {
      "constant": true,
      "inputs": [
        {
          "internalType": "uint256",
          "name": "epoch",
          "type": "uint256"
        },
        {
          "internalType": "uint256",
          "name": "i",
          "type": "uint256"
        }
      ],
      "name": "expiringCouponsAtIndex",
      "outputs": [
        {
          "internalType": "uint256",
          "name": "",
          "type": "uint256"
        }
      ],
      "payable": false,
      "stateMutability": "view",
      "type": "function"
    },
    {
      "constant": true,
      "inputs": [],
      "name": "implementation",
      "outputs": [
        {
          "internalType": "address",
          "name": "impl",
          "type": "address"
        }
      ],
      "payable": false,
      "stateMutability": "view",
      "type": "function"
    },
    {
      "constant": true,
      "inputs": [
        {
          "internalType": "address",
          "name": "candidate",
          "type": "address"
        }
      ],
      "name": "isInitialized",
      "outputs": [
        {
          "internalType": "bool",
          "name": "",
          "type": "bool"
        }
      ],
      "payable": false,
      "stateMutability": "view",
      "type": "function"
    },
    {
      "constant": true,
      "inputs": [
        {
          "internalType": "address",
          "name": "candidate",
          "type": "address"
        }
      ],
      "name": "isNominated",
      "outputs": [
        {
          "internalType": "bool",
          "name": "",
          "type": "bool"
        }
      ],
      "payable": false,
      "stateMutability": "view",
      "type": "function"
    },
    {
      "constant": true,
      "inputs": [],
      "name": "name",
      "outputs": [
        {
          "internalType": "string",
          "name": "",
          "type": "string"
        }
      ],
      "payable": false,
      "stateMutability": "view",
      "type": "function"
    },
    {
      "constant": true,
      "inputs": [],
      "name": "oracle",
      "outputs": [
        {
          "internalType": "contract IOracle",
          "name": "",
          "type": "address"
        }
      ],
      "payable": false,
      "stateMutability": "view",
      "type": "function"
    },
    {
      "constant": true,
      "inputs": [
        {
          "internalType": "uint256",
          "name": "epoch",
          "type": "uint256"
        }
      ],
      "name": "outstandingCoupons",
      "outputs": [
        {
          "internalType": "uint256",
          "name": "",
          "type": "uint256"
        }
      ],
      "payable": false,
      "stateMutability": "view",
      "type": "function"
    },
    {
      "constant": true,
      "inputs": [
        {
          "internalType": "address",
          "name": "candidate",
          "type": "address"
        }
      ],
      "name": "periodFor",
      "outputs": [
        {
          "internalType": "uint256",
          "name": "",
          "type": "uint256"
        }
      ],
      "payable": false,
      "stateMutability": "view",
      "type": "function"
    },
    {
      "constant": true,
      "inputs": [],
      "name": "pool",
      "outputs": [
        {
          "internalType": "address",
          "name": "",
          "type": "address"
        }
      ],
      "payable": false,
      "stateMutability": "view",
      "type": "function"
    },
    {
      "constant": true,
      "inputs": [
        {
          "internalType": "address",
          "name": "account",
          "type": "address"
        },
        {
          "internalType": "address",
          "name": "candidate",
          "type": "address"
        }
      ],
      "name": "recordedVote",
      "outputs": [
        {
          "internalType": "enum Candidate.Vote",
          "name": "",
          "type": "uint8"
        }
      ],
      "payable": false,
      "stateMutability": "view",
      "type": "function"
    },
    {
      "constant": true,
      "inputs": [
        {
          "internalType": "address",
          "name": "candidate",
          "type": "address"
        }
      ],
      "name": "rejectFor",
      "outputs": [
        {
          "internalType": "uint256",
          "name": "",
          "type": "uint256"
        }
      ],
      "payable": false,
      "stateMutability": "view",
      "type": "function"
    },
    {
      "constant": true,
      "inputs": [
        {
          "internalType": "address",
          "name": "candidate",
          "type": "address"
        }
      ],
      "name": "startFor",
      "outputs": [
        {
          "internalType": "uint256",
          "name": "",
          "type": "uint256"
        }
      ],
      "payable": false,
      "stateMutability": "view",
      "type": "function"
    },
    {
      "constant": true,
      "inputs": [
        {
          "internalType": "address",
          "name": "account",
          "type": "address"
        }
      ],
      "name": "statusOf",
      "outputs": [
        {
          "internalType": "enum Account.Status",
          "name": "",
          "type": "uint8"
        }
      ],
      "payable": false,
      "stateMutability": "view",
      "type": "function"
    },
    {
      "constant": true,
      "inputs": [],
      "name": "symbol",
      "outputs": [
        {
          "internalType": "string",
          "name": "",
          "type": "string"
        }
      ],
      "payable": false,
      "stateMutability": "view",
      "type": "function"
    },
    {
      "constant": true,
      "inputs": [],
      "name": "totalBonded",
      "outputs": [
        {
          "internalType": "uint256",
          "name": "",
          "type": "uint256"
        }
      ],
      "payable": false,
      "stateMutability": "view",
      "type": "function"
    },
    {
      "constant": true,
      "inputs": [
        {
          "internalType": "uint256",
          "name": "epoch",
          "type": "uint256"
        }
      ],
      "name": "totalBondedAt",
      "outputs": [
        {
          "internalType": "uint256",
          "name": "",
          "type": "uint256"
        }
      ],
      "payable": false,
      "stateMutability": "view",
      "type": "function"
    },
    {
      "constant": true,
      "inputs": [],
      "name": "totalCoupons",
      "outputs": [
        {
          "internalType": "uint256",
          "name": "",
          "type": "uint256"
        }
      ],
      "payable": false,
      "stateMutability": "view",
      "type": "function"
    },
    {
      "constant": true,
      "inputs": [],
      "name": "totalDebt",
      "outputs": [
        {
          "internalType": "uint256",
          "name": "",
          "type": "uint256"
        }
      ],
      "payable": false,
      "stateMutability": "view",
      "type": "function"
    },
    {
      "constant": true,
      "inputs": [],
      "name": "totalNet",
      "outputs": [
        {
          "internalType": "uint256",
          "name": "",
          "type": "uint256"
        }
      ],
      "payable": false,
      "stateMutability": "view",
      "type": "function"
    },
    {
      "constant": true,
      "inputs": [],
      "name": "totalRedeemable",
      "outputs": [
        {
          "internalType": "uint256",
          "name": "",
          "type": "uint256"
        }
      ],
      "payable": false,
      "stateMutability": "view",
      "type": "function"
    },
    {
      "constant": true,
      "inputs": [],
      "name": "totalStaged",
      "outputs": [
        {
          "internalType": "uint256",
          "name": "",
          "type": "uint256"
        }
      ],
      "payable": false,
      "stateMutability": "view",
      "type": "function"
    },
    {
      "constant": true,
      "inputs": [],
      "name": "totalSupply",
      "outputs": [
        {
          "internalType": "uint256",
          "name": "",
          "type": "uint256"
        }
      ],
      "payable": false,
      "stateMutability": "view",
      "type": "function"
    },
    {
      "constant": false,
      "inputs": [
        {
          "internalType": "address",
          "name": "recipient",
          "type": "address"
        },
        {
          "internalType": "uint256",
          "name": "amount",
          "type": "uint256"
        }
      ],
      "name": "transfer",
      "outputs": [
        {
          "internalType": "bool",
          "name": "",
          "type": "bool"
        }
      ],
      "payable": false,
      "stateMutability": "nonpayable",
      "type": "function"
    },
    {
      "constant": false,
      "inputs": [
        {
          "internalType": "address",
          "name": "sender",
          "type": "address"
        },
        {
          "internalType": "address",
          "name": "recipient",
          "type": "address"
        },
        {
          "internalType": "uint256",
          "name": "amount",
          "type": "uint256"
        }
      ],
      "name": "transferFrom",
      "outputs": [
        {
          "internalType": "bool",
          "name": "",
          "type": "bool"
        }
      ],
      "payable": false,
      "stateMutability": "nonpayable",
      "type": "function"
    },
    {
      "constant": true,
      "inputs": [
        {
          "internalType": "address",
          "name": "candidate",
          "type": "address"
        }
      ],
      "name": "votesFor",
      "outputs": [
        {
          "internalType": "uint256",
          "name": "",
          "type": "uint256"
        }
      ],
      "payable": false,
      "stateMutability": "view",
      "type": "function"
    },
    {
      "constant": false,
      "inputs": [],
      "name": "initialize",
      "outputs": [],
      "payable": false,
      "stateMutability": "nonpayable",
      "type": "function"
    },
    {
      "constant": false,
      "inputs": [
        {
          "internalType": "address",
          "name": "implementation",
          "type": "address"
        }
      ],
      "name": "implement",
      "outputs": [],
      "payable": false,
      "stateMutability": "nonpayable",
      "type": "function"
    }
  ],
  "bytecode": "0x608060405234801561001057600080fd5b50612707806100206000396000f3fe60806040523480156200001157600080fd5b5060043610620002985760003560e01c806375d5024b1162000165578063a50cd8e711620000d5578063cf0237791162000093578063cf0237791462000573578063d60b347f146200057d578063dd62ed3e1462000594578063f1b7cf4914620005a5578063fc7b9c1814620005bc578063ffbe3b7314620005c65762000298565b8063a50cd8e71462000524578063a6c409f1146200053b578063a9059cbb14620002bf578063bc7513e21462000545578063c9aff70c146200055c5762000298565b8063900cf0cf1162000123578063900cf0cf14620004d857806395d89b4114620004e257806397a5d5b514620004ec5780639a649edc14620005035780639f6e1b26146200050d5762000298565b806375d5024b146200047f5780637dc0d1d014620004965780638129fc1c14620004a0578063825ad60714620004aa57806386cf9f1414620004c15762000298565b80633a3e6c81116200020d5780635053e46111620001cb5780635053e461146200040d57806351adeb5714620004175780635c60da1b146200043057806364668022146200043a5780636a39e328146200045157806370a0823114620004685762000298565b80633a3e6c8114620003965780633fbba9a614620003ad57806344d96e9514620003d35780634a96026114620003dd5780634c73609914620003f65762000298565b806318160ddd116200025b57806318160ddd146200033b5780631edbcf6c146200034557806323b872dd146200034f578063313ce5671462000366578063353a420c146200037f5762000298565b806306fdde03146200029d578063095ea7b314620002bf57806310e95b6c14620002e557806315e14bf6146200030b57806316f0115b1462000322575b600080fd5b620002a7620005dd565b604051620002b69190620013fc565b60405180910390f35b620002d6620002d036600462001105565b62000614565b604051620002b69190620013cc565b620002fc620002f63660046200113a565b6200061d565b604051620002b6919062001445565b620002fc6200031c36600462001049565b62000635565b6200032c62000653565b604051620002b69190620013bc565b620002fc62000662565b620002fc62000668565b620002d662000360366004620010b1565b6200066e565b6200037062000677565b604051620002b6919062001455565b620002fc6200039036600462001049565b6200067c565b620002d6620003a736600462001049565b6200069a565b620003c4620003be36600462001072565b620006b7565b604051620002b69190620013ec565b620002fc620006ea565b620003f4620003ee36600462001049565b620006f0565b005b620002fc620004073660046200117c565b620006fe565b620002fc6200072f565b6200042162000758565b604051620002b69190620013dc565b6200032c62000767565b620002fc6200044b36600462001049565b6200078c565b620002fc620004623660046200113a565b620007aa565b620002fc6200047936600462001049565b620007bf565b620002d6620004903660046200113a565b620007dd565b62000421620007f2565b620003f462000801565b620002fc620004bb36600462001049565b62000915565b620002fc620004d236600462001049565b62000974565b620002fc6200098f565b620002a762000995565b620003c4620004fd36600462001049565b620009b3565b620002fc62000a20565b620002fc6200051e36600462001072565b62000a26565b620002fc6200053536600462001049565b62000a55565b620002fc62000a7e565b620002fc6200055636600462001105565b62000b1e565b620002fc6200056d3660046200113a565b62000b66565b620002fc62000b7b565b620002d66200058e36600462001049565b62000b81565b620002fc620002d036600462001072565b620002fc620005b636600462001049565b62000ba2565b620002fc62000bbd565b620002fc620005d73660046200113a565b62000bc3565b60408051808201909152601881527f44796e616d69632053657420446f6c6c6172205374616b650000000000000000602082015290565b60005b92915050565b6000818152600d60205260409020600201545b919050565b6001600160a01b03166000908152600e602052604090206001015490565b600b546001600160a01b031690565b60035490565b60065490565b60009392505050565b601290565b6001600160a01b03166000908152600e602052604090206003015490565b6001600160a01b03166000908152600e6020526040902054151590565b6001600160a01b038082166000908152600e60209081526040808320938616835260049093019052205460ff1692915050565b60045490565b620006fb8162000bd5565b50565b6000828152600d602052604081206003018054839081106200071c57fe5b9060005260206000200154905092915050565b60006200073b62000ff3565b6200074562000cd3565b9050620007528162000d04565b91505090565b6009546001600160a01b031690565b7f360894a13ba1a3210667c828492db98dca3e2076cc3735a920a3ca505d382bbc5490565b6001600160a01b03166000908152600e602052604090206002015490565b6000908152600d602052604090206003015490565b6001600160a01b03166000908152600c602052604090206001015490565b6000620007e962000d2b565b90911115919050565b600a546001600160a01b031690565b6200083f620008136200058e62000767565b15692832b936b4b9b9b4b7b760b11b72105b1c9958591e481a5b9a5d1a585b1a5e9959606a1b62000d30565b620008536200084d62000767565b62000d93565b6200085d62000758565b6040516200086b9062001014565b620008779190620013bc565b604051809103906000f08015801562000894573d6000803e3d6000fd5b50600a80546001600160a01b0319166001600160a01b0392909216919091179055620008bf620007f2565b6001600160a01b031663ba0bba406040518163ffffffff1660e01b8152600401600060405180830381600087803b158015620008fa57600080fd5b505af11580156200090f573d6000803e3d6000fd5b50505050565b6000806200092262000662565b9050806200093557600091505062000630565b6200096d81620009606200094986620007bf565b62000953620006ea565b9063ffffffff62000dba16565b9063ffffffff62000dfa16565b9392505050565b6001600160a01b03166000908152600c602052604090205490565b60025490565b6040805180820190915260048152634453445360e01b602082015290565b6000620009bf6200098f565b6001600160a01b0383166000908152600c60205260409020600501541115620009eb5750600262000630565b6001600160a01b0382166000908152600c602052604090206004015462000a116200098f565b10156200061457600162000617565b60085490565b6001600160a01b039182166000908152600c602090815260408083209390941682526003909201909152205490565b60006200061762000a66836200067c565b62000a71846200078c565b9063ffffffff62000e3e16565b600062000b1962000a8e62000bbd565b62000a9862000758565b6001600160a01b03166318160ddd6040518163ffffffff1660e01b815260040160206040518083038186803b15801562000ad157600080fd5b505afa15801562000ae6573d6000803e3d6000fd5b505050506040513d601f19601f8201168201806040525062000b0c91908101906200115b565b9063ffffffff62000e6616565b905090565b600062000b2b8262000b66565b62000b395750600062000617565b506001600160a01b03919091166000908152600c6020908152604080832093835260029093019052205490565b6000908152600d602052604090206001015490565b60055490565b6001600160a01b03166000908152600e602052604090206005015460ff1690565b6001600160a01b03166000908152600e602052604090205490565b60075490565b6000908152600d602052604090205490565b62000be08162000eaa565b60408051600481526024810182526020810180516001600160e01b031663204a7f0760e21b17905290516000916060916001600160a01b0385169162000c269162001377565b600060405180830381855af49150503d806000811462000c63576040519150601f19603f3d011682016040523d82523d6000602084013e62000c68565b606091505b509150915081819062000c995760405162461bcd60e51b815260040162000c909190620013fc565b60405180910390fd5b506040516001600160a01b038416907fbc7cd75a20ee27fd9adebab32041f755214dbc6bffa90cc0225b39da2e5c2d3b90600090a2505050565b62000cdd62000ff3565b604051806060016040528060008152602001635fbef0008152602001611c20815250905090565b600062000617826000015162000a71846040015162000960866020015162000b0c62000ef8565b609690565b8262000d8e5762000d418262000efc565b6101d160f51b62000d528362000efc565b60405160200162000d669392919062001385565b60408051601f198184030181529082905262461bcd60e51b825262000c9091600401620013fc565b505050565b6001600160a01b03166000908152600e60205260409020600501805460ff19166001179055565b60008262000dcb5750600062000617565b8282028284828162000dd957fe5b04146200096d5760405162461bcd60e51b815260040162000c909062001421565b60006200096d83836040518060400160405280601a81526020017f536166654d6174683a206469766973696f6e206279207a65726f00000000000081525062000f83565b6000828201838110156200096d5760405162461bcd60e51b815260040162000c90906200140f565b60006200096d83836040518060400160405280601e81526020017f536166654d6174683a207375627472616374696f6e206f766572666c6f77000081525062000fbe565b62000eb58162000fed565b62000ed45760405162461bcd60e51b815260040162000c909062001433565b7f360894a13ba1a3210667c828492db98dca3e2076cc3735a920a3ca505d382bbc55565b4290565b6060808260405160200162000f12919062001360565b60408051601f19818403018152919052905060205b801562000f6c5781516000199091019082908290811062000f4457fe5b01602001516001600160f81b0319161562000f66576001018152905062000630565b62000f27565b505060408051600081526020810190915292915050565b6000818362000fa75760405162461bcd60e51b815260040162000c909190620013fc565b50600083858162000fb457fe5b0495945050505050565b6000818484111562000fe55760405162461bcd60e51b815260040162000c909190620013fc565b505050900390565b3b151590565b60405180606001604052806000815260200160008152602001600081525090565b611192806200153383390190565b8035620006178162001510565b8035620006178162001527565b8051620006178162001527565b6000602082840312156200105c57600080fd5b60006200106a848462001022565b949350505050565b600080604083850312156200108657600080fd5b600062001094858562001022565b9250506020620010a78582860162001022565b9150509250929050565b600080600060608486031215620010c757600080fd5b6000620010d5868662001022565b9350506020620010e88682870162001022565b9250506040620010fb868287016200102f565b9150509250925092565b600080604083850312156200111957600080fd5b600062001127858562001022565b9250506020620010a7858286016200102f565b6000602082840312156200114d57600080fd5b60006200106a84846200102f565b6000602082840312156200116e57600080fd5b60006200106a84846200103c565b600080604083850312156200119057600080fd5b60006200112785856200102f565b620011a98162001472565b82525050565b620011a9816200147f565b620011a9620011c98262001484565b62001491565b620011a9620011c98262001491565b6000620011eb8262001465565b620011f7818562000630565b935062001209818560208601620014cc565b9290920192915050565b620011a981620014b2565b620011a981620014bf565b6000620012368262001465565b62001242818562001469565b935062001254818560208601620014cc565b6200125f81620014fb565b9093019392505050565b600062001278601b8362001469565b7f536166654d6174683a206164646974696f6e206f766572666c6f770000000000815260200192915050565b6000620012b360218362001469565b7f536166654d6174683a206d756c7469706c69636174696f6e206f766572666c6f8152607760f81b602082015260400192915050565b6000620012f8603b8362001469565b7f43616e6e6f742073657420612070726f787920696d706c656d656e746174696f81527f6e20746f2061206e6f6e2d636f6e747261637420616464726573730000000000602082015260400192915050565b620011a98162001491565b620011a981620014ac565b60006200136e8284620011cf565b50602001919050565b60006200096d8284620011de565b6000620013938286620011de565b9150620013a18285620011ba565b600282019150620013b38284620011de565b95945050505050565b602081016200061782846200119e565b60208101620006178284620011af565b6020810162000617828462001213565b602081016200061782846200121e565b602080825281016200096d818462001229565b60208082528101620006178162001269565b602080825281016200061781620012a4565b602080825281016200061781620012e9565b602081016200061782846200134a565b6020810162000617828462001355565b5190565b90815260200190565b60006200061782620014a0565b151590565b6001600160f01b03191690565b90565b80620006308162001505565b6001600160a01b031690565b60ff1690565b6000620006178262001472565b6000620006178262001494565b60005b83811015620014e9578181015183820152602001620014cf565b838111156200090f5750506000910152565b601f01601f191690565b60038110620006fb57fe5b6200151b8162001472565b8114620006fb57600080fd5b6200151b816200149156fe608060405234801561001057600080fd5b5060405161119238038061119283398101604081905261002f91610073565b60008054336001600160a01b031991821617909155600180549091166001600160a01b03929092169190911790556100c1565b805161006d816100aa565b92915050565b60006020828403121561008557600080fd5b60006100918484610062565b949350505050565b60006001600160a01b03821661006d565b6100b381610099565b81146100be57600080fd5b50565b6110c2806100d06000396000f3fe608060405234801561001057600080fd5b506004361061004c5760003560e01c8063a8aa1b3114610051578063ba0bba401461006f578063cd3293de14610079578063d4a3e9d71461008e575b600080fd5b6100596100a4565b6040516100669190610f3d565b60405180910390f35b6100776100b3565b005b610081610307565b6040516100669190610fb2565b61009661030d565b604051610066929190610f97565b6002546001600160a01b031690565b6000546100df906001600160a01b03163314654f7261636c6560d01b664e6f742064616f60c81b610380565b600154735c69bee701ef814a2b6a3edd4b1652cb9cc5aa6f9063c9c65396906001600160a01b031661010f6103e3565b6040518363ffffffff1660e01b815260040161012c929190610f4b565b602060405180830381600087803b15801561014657600080fd5b505af115801561015a573d6000803e3d6000fd5b505050506040513d601f19601f8201168201806040525061017e9190810190610d10565b600280546001600160a01b0319166001600160a01b03928316179081905560408051630dfe168160e01b8152905160009384931691630dfe1681916004808301926020929190829003018186803b1580156101d857600080fd5b505afa1580156101ec573d6000803e3d6000fd5b505050506040513d601f19601f820116820180604052506102109190810190610d10565b600260009054906101000a90046001600160a01b03166001600160a01b031663d21220a76040518163ffffffff1660e01b815260040160206040518083038186803b15801561025e57600080fd5b505afa158015610272573d6000803e3d6000fd5b505050506040513d601f19601f820116820180604052506102969190810190610d10565b60015491935091506001600160a01b038084169116146102b75760016102ba565b60005b60ff1660038190556103039015806102df57506001546001600160a01b038381169116145b654f7261636c6560d01b701130ee1b1b185c881b9bdd08199bdd5b99607a1b610380565b5050565b60065490565b610315610cb4565b60008054610342906001600160a01b03163314654f7261636c6560d01b664e6f742064616f60c81b610380565b600154600160a01b900460ff16156103655761035c6103f2565b9150915061037c565b61036d6104e7565b6103756106f1565b6000915091505b9091565b826103de5761038e82610713565b6101d160f51b61039d83610713565b6040516020016103af93929190610f0c565b60408051601f198184030181529082905262461bcd60e51b82526103d591600401610f66565b60405180910390fd5b505050565b60006103ed610795565b905090565b6103fa610cb4565b6000610404610cb4565b61040c6107ad565b90506000610418610863565b905060006104246103e3565b60025460405163fe575a8760e01b81526001600160a01b039283169263fe575a879261045592911690600401610f3d565b60206040518083038186803b15801561046d57600080fd5b505afa158015610481573d6000803e3d6000fd5b505050506040513d601f19601f820116820180604052506104a59190810190610d36565b905060016104b161091f565b8310156104bc575060005b6104c461091f565b60065410156104d1575060005b81156104db575060005b92945091925050509091565b6002546003546001600160a01b03909116906000901561057757816001600160a01b0316635a3d54936040518163ffffffff1660e01b815260040160206040518083038186803b15801561053a57600080fd5b505afa15801561054e573d6000803e3d6000fd5b505050506040513d601f19601f820116820180604052506105729190810190610da1565b6105e8565b816001600160a01b0316635909c0d56040518163ffffffff1660e01b815260040160206040518083038186803b1580156105b057600080fd5b505afa1580156105c4573d6000803e3d6000fd5b505050506040513d601f19601f820116820180604052506105e89190810190610da1565b90506000806000846001600160a01b0316630902f1ac6040518163ffffffff1660e01b815260040160606040518083038186803b15801561062857600080fd5b505afa15801561063c573d6000803e3d6000fd5b505050506040513d601f19601f820116820180604052506106609190810190610d54565b925092509250826001600160701b031660001415801561068857506001600160701b03821615155b8015610699575063ffffffff811615155b156106ea5760048490556005805463ffffffff831663ffffffff199091161790556001805460ff60a01b1916600160a01b179055600354156106db57826106dd565b815b6001600160701b03166006555b5050505050565b6106f9610cb4565b506040805160208101909152670de0b6b3a7640000815290565b606080826040516020016107279190610ef7565b60408051601f19818403018152919052905060205b801561077c5781516000199091019082908290811061075757fe5b01602001516001600160f81b031916156107775760010181529050610790565b61073c565b505060408051600081526020810190915290505b919050565b73a0b86991c6218b36c1d19d4a2e9eb0ce3606eb4890565b6107b5610cb4565b600254600090819081906107d1906001600160a01b0316610928565b600554600354939650919450925063ffffffff16820390600090156107f657836107f8565b845b9050610802610cb4565b6108238363ffffffff1660045484038161081857fe5b04600160701b610afd565b6005805463ffffffff191663ffffffff87811691909117909155600484905590915061085890829064e8d4a5100090610b2e16565b965050505050505090565b6000806006549050600080600260009054906101000a90046001600160a01b03166001600160a01b0316630902f1ac6040518163ffffffff1660e01b815260040160606040518083038186803b1580156108bc57600080fd5b505afa1580156108d0573d6000803e3d6000fd5b505050506040513d601f19601f820116820180604052506108f49190810190610d54565b5091509150600354600014610909578161090b565b805b6001600160701b0316600655509091505090565b6402540be40090565b6000806000610935610b55565b9050836001600160a01b0316635909c0d56040518163ffffffff1660e01b815260040160206040518083038186803b15801561097057600080fd5b505afa158015610984573d6000803e3d6000fd5b505050506040513d601f19601f820116820180604052506109a89190810190610da1565b9250836001600160a01b0316635a3d54936040518163ffffffff1660e01b815260040160206040518083038186803b1580156109e357600080fd5b505afa1580156109f7573d6000803e3d6000fd5b505050506040513d601f19601f82011682018060405250610a1b9190810190610da1565b91506000806000866001600160a01b0316630902f1ac6040518163ffffffff1660e01b815260040160606040518083038186803b158015610a5b57600080fd5b505afa158015610a6f573d6000803e3d6000fd5b505050506040513d601f19601f82011682018060405250610a939190810190610d54565b9250925092508363ffffffff168163ffffffff1614610af35780840363ffffffff8116610ac08486610b5f565b516001600160e01b031602969096019563ffffffff8116610ae18585610b5f565b516001600160e01b0316029590950194505b5050509193909250565b610b05610cb4565b6040518060200160405280610b2385670de0b6b3a764000086610bda565b905290505b92915050565b610b36610cb4565b604080516020810190915283518190610b23908563ffffffff610c0616565b63ffffffff421690565b610b67610cc7565b6000826001600160701b031611610b905760405162461bcd60e51b81526004016103d590610f87565b6040805160208101909152806001600160701b0384166dffffffffffffffffffffffffffff60701b607087901b1681610bc557fe5b046001600160e01b0316815250905092915050565b6000610bfc82610bf0868663ffffffff610c0616565b9063ffffffff610c4016565b90505b9392505050565b600082610c1557506000610b28565b82820282848281610c2257fe5b0414610bff5760405162461bcd60e51b81526004016103d590610f77565b6000610bff83836040518060400160405280601a81526020017f536166654d6174683a206469766973696f6e206279207a65726f00000000000081525060008183610c9e5760405162461bcd60e51b81526004016103d59190610f66565b506000838581610caa57fe5b0495945050505050565b6040518060200160405280600081525090565b60408051602081019091526000815290565b8051610b2881611044565b8051610b288161105b565b8051610b2881611064565b8051610b288161106d565b8051610b2881611076565b600060208284031215610d2257600080fd5b6000610d2e8484610cd9565b949350505050565b600060208284031215610d4857600080fd5b6000610d2e8484610ce4565b600080600060608486031215610d6957600080fd5b6000610d758686610cef565b9350506020610d8686828701610cef565b9250506040610d9786828701610d05565b9150509250925092565b600060208284031215610db357600080fd5b6000610d2e8484610cfa565b610dc881610fcd565b82525050565b610dc881610fd8565b610dc8610de382610fdd565b610fea565b610dc8610de382610fea565b6000610dff82610fc0565b610e098185610790565b9350610e1981856020860161100e565b9290920192915050565b6000610e2e82610fc0565b610e388185610fc4565b9350610e4881856020860161100e565b610e518161103a565b9093019392505050565b6000610e68602183610fc4565b7f536166654d6174683a206d756c7469706c69636174696f6e206f766572666c6f8152607760f81b602082015260400192915050565b6000610eab601783610fc4565b7f4669786564506f696e743a204449565f42595f5a45524f000000000000000000815260200192915050565b80516020830190610ee88482610eee565b50505050565b610dc881610fea565b6000610f038284610de8565b50602001919050565b6000610f188286610df4565b9150610f248285610dd7565b600282019150610f348284610df4565b95945050505050565b60208101610b288284610dbf565b60408101610f598285610dbf565b610bff6020830184610dbf565b60208082528101610bff8184610e23565b60208082528101610b2881610e5b565b60208082528101610b2881610e9e565b60408101610fa58285610ed7565b610bff6020830184610dce565b60208101610b288284610eee565b5190565b90815260200190565b6000610b2882610ff9565b151590565b6001600160f01b03191690565b90565b6001600160701b031690565b6001600160a01b031690565b63ffffffff1690565b60005b83811015611029578181015183820152602001611011565b83811115610ee85750506000910152565b601f01601f191690565b61104d81610fcd565b811461105857600080fd5b50565b61104d81610fd8565b61104d81610fed565b61104d81610fea565b61104d8161100556fea365627a7a723158209609ba0d85ee16b6382204fbbc689574a9ca8f37a87006a6677fa99b481422316c6578706572696d656e74616cf564736f6c63430005110040a365627a7a72315820a9cf0be7eb127c5ac2763d38040960accc1838a2e802c209d61aa2b5a2bb25546c6578706572696d656e74616cf564736f6c63430005110040",
  "source": "/*\n    Copyright 2020 Dynamic Dollar Devs, based on the works of the Empty Set Squad\n\n    Licensed under the Apache License, Version 2.0 (the \"License\");\n    you may not use this file except in compliance with the License.\n    You may obtain a copy of the License at\n\n    http://www.apache.org/licenses/LICENSE-2.0\n\n    Unless required by applicable law or agreed to in writing, software\n    distributed under the License is distributed on an \"AS IS\" BASIS,\n    WITHOUT WARRANTIES OR CONDITIONS OF ANY KIND, either express or implied.\n    See the License for the specific language governing permissions and\n    limitations under the License.\n*/\n\npragma solidity ^0.5.17;\npragma experimental ABIEncoderV2;\n\nimport \"../external/Decimal.sol\";\nimport \"../token/Dollar.sol\";\nimport \"../oracle/Oracle.sol\";\nimport \"../oracle/Pool.sol\";\nimport \"./Upgradeable.sol\";\nimport \"./Permission.sol\";\n\n\ncontract Deployer1 is State, Permission, Upgradeable {\n    function initialize() initializer public {\n        _state.provider.dollar = new Dollar();\n    }\n\n    function implement(address implementation) external {\n        upgradeTo(implementation);\n    }\n}\n\ncontract Deployer2 is State, Permission, Upgradeable {\n    function initialize() initializer public {\n        _state.provider.oracle = new Oracle(address(dollar()));\n        oracle().setup();\n    }\n\n    function implement(address implementation) external {\n        upgradeTo(implementation);\n    }\n}\n\ncontract Deployer3 is State, Permission, Upgradeable {\n    function initialize() initializer public {\n        _state.provider.pool = address(new Pool(address(dollar()), address(oracle().pair())));\n    }\n\n    function implement(address implementation) external {\n        upgradeTo(implementation);\n    }\n}",
  "sourcePath": "/home/name/Desktop/Files/projects/dynamic/dollar/protocol/contracts/dao/Deployer.sol",
  "compiler": {
    "name": "solc",
    "version": "0.5.17+commit.d19bba13.Emscripten.clang"
  },
  "schemaVersion": "3.3.1",
  "updatedAt": "2020-11-25T22:42:17.249Z",
  "networkType": "ethereum",
  "devdoc": {
    "methods": {}
  },
  "userdoc": {
    "methods": {
      "balanceOfStaged(address)": {
        "notice": "Account"
      },
      "dollar()": {
        "notice": "Global"
      },
      "epoch()": {
        "notice": "Epoch"
      },
      "name()": {
        "notice": "ERC20 Interface"
      },
      "recordedVote(address,address)": {
        "notice": "Governance"
      },
      "transfer(address,uint256)": {
        "notice": "ERC20 Interface"
      }
    }
  }
}