{
  "contractName": "Deployer3",
  "abi": [
    {
      "anonymous": false,
      "inputs": [
        {
          "indexed": true,
          "internalType": "address",
          "name": "from",
          "type": "address"
        },
        {
          "indexed": true,
          "internalType": "address",
          "name": "to",
          "type": "address"
        },
        {
          "indexed": false,
          "internalType": "uint256",
          "name": "value",
          "type": "uint256"
        }
      ],
      "name": "Transfer",
      "type": "event"
    },
    {
      "anonymous": false,
      "inputs": [
        {
          "indexed": true,
          "internalType": "address",
          "name": "implementation",
          "type": "address"
        }
      ],
      "name": "Upgraded",
      "type": "event"
    },
    {
      "constant": true,
      "inputs": [
        {
          "internalType": "address",
          "name": "owner",
          "type": "address"
        },
        {
          "internalType": "address",
          "name": "spender",
          "type": "address"
        }
      ],
      "name": "allowance",
      "outputs": [
        {
          "internalType": "uint256",
          "name": "",
          "type": "uint256"
        }
      ],
      "payable": false,
      "stateMutability": "view",
      "type": "function"
    },
    {
      "constant": true,
      "inputs": [
        {
          "internalType": "address",
          "name": "owner",
          "type": "address"
        },
        {
          "internalType": "address",
          "name": "spender",
          "type": "address"
        }
      ],
      "name": "allowanceCoupons",
      "outputs": [
        {
          "internalType": "uint256",
          "name": "",
          "type": "uint256"
        }
      ],
      "payable": false,
      "stateMutability": "view",
      "type": "function"
    },
    {
      "constant": false,
      "inputs": [
        {
          "internalType": "address",
          "name": "spender",
          "type": "address"
        },
        {
          "internalType": "uint256",
          "name": "amount",
          "type": "uint256"
        }
      ],
      "name": "approve",
      "outputs": [
        {
          "internalType": "bool",
          "name": "",
          "type": "bool"
        }
      ],
      "payable": false,
      "stateMutability": "nonpayable",
      "type": "function"
    },
    {
      "constant": true,
      "inputs": [
        {
          "internalType": "address",
          "name": "candidate",
          "type": "address"
        }
      ],
      "name": "approveFor",
      "outputs": [
        {
          "internalType": "uint256",
          "name": "",
          "type": "uint256"
        }
      ],
      "payable": false,
      "stateMutability": "view",
      "type": "function"
    },
    {
      "constant": true,
      "inputs": [
        {
          "internalType": "address",
          "name": "account",
          "type": "address"
        }
      ],
      "name": "balanceOf",
      "outputs": [
        {
          "internalType": "uint256",
          "name": "",
          "type": "uint256"
        }
      ],
      "payable": false,
      "stateMutability": "view",
      "type": "function"
    },
    {
      "constant": true,
      "inputs": [
        {
          "internalType": "address",
          "name": "account",
          "type": "address"
        }
      ],
      "name": "balanceOfBonded",
      "outputs": [
        {
          "internalType": "uint256",
          "name": "",
          "type": "uint256"
        }
      ],
      "payable": false,
      "stateMutability": "view",
      "type": "function"
    },
    {
      "constant": true,
      "inputs": [
        {
          "internalType": "address",
          "name": "account",
          "type": "address"
        },
        {
          "internalType": "uint256",
          "name": "epoch",
          "type": "uint256"
        }
      ],
      "name": "balanceOfCoupons",
      "outputs": [
        {
          "internalType": "uint256",
          "name": "",
          "type": "uint256"
        }
      ],
      "payable": false,
      "stateMutability": "view",
      "type": "function"
    },
    {
      "constant": true,
      "inputs": [
        {
          "internalType": "address",
          "name": "account",
          "type": "address"
        }
      ],
      "name": "balanceOfStaged",
      "outputs": [
        {
          "internalType": "uint256",
          "name": "",
          "type": "uint256"
        }
      ],
      "payable": false,
      "stateMutability": "view",
      "type": "function"
    },
    {
      "constant": true,
      "inputs": [
        {
          "internalType": "uint256",
          "name": "epoch",
          "type": "uint256"
        }
      ],
      "name": "bootstrappingAt",
      "outputs": [
        {
          "internalType": "bool",
          "name": "",
          "type": "bool"
        }
      ],
      "payable": false,
      "stateMutability": "view",
      "type": "function"
    },
    {
      "constant": true,
      "inputs": [
        {
          "internalType": "uint256",
          "name": "epoch",
          "type": "uint256"
        }
      ],
      "name": "couponsExpiration",
      "outputs": [
        {
          "internalType": "uint256",
          "name": "",
          "type": "uint256"
        }
      ],
      "payable": false,
      "stateMutability": "view",
      "type": "function"
    },
    {
      "constant": true,
      "inputs": [],
      "name": "decimals",
      "outputs": [
        {
          "internalType": "uint8",
          "name": "",
          "type": "uint8"
        }
      ],
      "payable": false,
      "stateMutability": "view",
      "type": "function"
    },
    {
      "constant": true,
      "inputs": [],
      "name": "dollar",
      "outputs": [
        {
          "internalType": "contract IDollar",
          "name": "",
          "type": "address"
        }
      ],
      "payable": false,
      "stateMutability": "view",
      "type": "function"
    },
    {
      "constant": true,
      "inputs": [],
      "name": "epoch",
      "outputs": [
        {
          "internalType": "uint256",
          "name": "",
          "type": "uint256"
        }
      ],
      "payable": false,
      "stateMutability": "view",
      "type": "function"
    },
    {
      "constant": true,
      "inputs": [],
      "name": "epochTime",
      "outputs": [
        {
          "internalType": "uint256",
          "name": "",
          "type": "uint256"
        }
      ],
      "payable": false,
      "stateMutability": "view",
      "type": "function"
    },
    {
      "constant": true,
      "inputs": [
        {
          "internalType": "uint256",
          "name": "epoch",
          "type": "uint256"
        }
      ],
      "name": "expiringCoupons",
      "outputs": [
        {
          "internalType": "uint256",
          "name": "",
          "type": "uint256"
        }
      ],
      "payable": false,
      "stateMutability": "view",
      "type": "function"
    },
    {
      "constant": true,
      "inputs": [
        {
          "internalType": "uint256",
          "name": "epoch",
          "type": "uint256"
        },
        {
          "internalType": "uint256",
          "name": "i",
          "type": "uint256"
        }
      ],
      "name": "expiringCouponsAtIndex",
      "outputs": [
        {
          "internalType": "uint256",
          "name": "",
          "type": "uint256"
        }
      ],
      "payable": false,
      "stateMutability": "view",
      "type": "function"
    },
    {
      "constant": true,
      "inputs": [
        {
          "internalType": "address",
          "name": "account",
          "type": "address"
        }
      ],
      "name": "fluidUntil",
      "outputs": [
        {
          "internalType": "uint256",
          "name": "",
          "type": "uint256"
        }
      ],
      "payable": false,
      "stateMutability": "view",
      "type": "function"
    },
    {
      "constant": true,
      "inputs": [
        {
          "internalType": "uint256",
          "name": "epoch",
          "type": "uint256"
        }
      ],
      "name": "getAvgExpiryFilled",
      "outputs": [
        {
          "internalType": "uint256",
          "name": "",
          "type": "uint256"
        }
      ],
      "payable": false,
      "stateMutability": "view",
      "type": "function"
    },
    {
      "constant": true,
      "inputs": [
        {
          "internalType": "uint256",
          "name": "epoch",
          "type": "uint256"
        }
      ],
      "name": "getAvgYieldFilled",
      "outputs": [
        {
          "internalType": "uint256",
          "name": "",
          "type": "uint256"
        }
      ],
      "payable": false,
      "stateMutability": "view",
      "type": "function"
    },
    {
      "constant": true,
      "inputs": [
        {
          "internalType": "uint256",
          "name": "epoch",
          "type": "uint256"
        }
      ],
      "name": "getBidToCover",
      "outputs": [
        {
          "internalType": "uint256",
          "name": "",
          "type": "uint256"
        }
      ],
      "payable": false,
      "stateMutability": "view",
      "type": "function"
    },
    {
      "constant": true,
      "inputs": [
        {
          "internalType": "uint256",
          "name": "epoch",
          "type": "uint256"
        }
      ],
      "name": "getMaxExpiryFilled",
      "outputs": [
        {
          "internalType": "uint256",
          "name": "",
          "type": "uint256"
        }
      ],
      "payable": false,
      "stateMutability": "view",
      "type": "function"
    },
    {
      "constant": true,
      "inputs": [
        {
          "internalType": "uint256",
          "name": "epoch",
          "type": "uint256"
        }
      ],
      "name": "getMaxYieldFilled",
      "outputs": [
        {
          "internalType": "uint256",
          "name": "",
          "type": "uint256"
        }
      ],
      "payable": false,
      "stateMutability": "view",
      "type": "function"
    },
    {
      "constant": true,
      "inputs": [
        {
          "internalType": "uint256",
          "name": "epoch",
          "type": "uint256"
        }
      ],
      "name": "getMinExpiryFilled",
      "outputs": [
        {
          "internalType": "uint256",
          "name": "",
          "type": "uint256"
        }
      ],
      "payable": false,
      "stateMutability": "view",
      "type": "function"
    },
    {
      "constant": true,
      "inputs": [
        {
          "internalType": "uint256",
          "name": "epoch",
          "type": "uint256"
        }
      ],
      "name": "getMinYieldFilled",
      "outputs": [
        {
          "internalType": "uint256",
          "name": "",
          "type": "uint256"
        }
      ],
      "payable": false,
      "stateMutability": "view",
      "type": "function"
    },
    {
      "constant": true,
      "inputs": [
        {
          "internalType": "uint256",
          "name": "epoch",
          "type": "uint256"
        }
      ],
      "name": "getTotalFilled",
      "outputs": [
        {
          "internalType": "uint256",
          "name": "",
          "type": "uint256"
        }
      ],
      "payable": false,
      "stateMutability": "view",
      "type": "function"
    },
    {
      "constant": true,
      "inputs": [],
      "name": "implementation",
      "outputs": [
        {
          "internalType": "address",
          "name": "impl",
          "type": "address"
        }
      ],
      "payable": false,
      "stateMutability": "view",
      "type": "function"
    },
    {
      "constant": true,
      "inputs": [
        {
          "internalType": "address",
          "name": "candidate",
          "type": "address"
        }
      ],
      "name": "isInitialized",
      "outputs": [
        {
          "internalType": "bool",
          "name": "",
          "type": "bool"
        }
      ],
      "payable": false,
      "stateMutability": "view",
      "type": "function"
    },
    {
      "constant": true,
      "inputs": [
        {
          "internalType": "address",
          "name": "candidate",
          "type": "address"
        }
      ],
      "name": "isNominated",
      "outputs": [
        {
          "internalType": "bool",
          "name": "",
          "type": "bool"
        }
      ],
      "payable": false,
      "stateMutability": "view",
      "type": "function"
    },
    {
      "constant": true,
      "inputs": [
        {
          "internalType": "address",
          "name": "account",
          "type": "address"
        }
      ],
      "name": "lockedUntil",
      "outputs": [
        {
          "internalType": "uint256",
          "name": "",
          "type": "uint256"
        }
      ],
      "payable": false,
      "stateMutability": "view",
      "type": "function"
    },
    {
      "constant": true,
      "inputs": [],
      "name": "name",
      "outputs": [
        {
          "internalType": "string",
          "name": "",
          "type": "string"
        }
      ],
      "payable": false,
      "stateMutability": "view",
      "type": "function"
    },
    {
      "constant": true,
      "inputs": [],
      "name": "oracle",
      "outputs": [
        {
          "internalType": "contract IOracle",
          "name": "",
          "type": "address"
        }
      ],
      "payable": false,
      "stateMutability": "view",
      "type": "function"
    },
    {
      "constant": true,
      "inputs": [
        {
          "internalType": "uint256",
          "name": "epoch",
          "type": "uint256"
        }
      ],
      "name": "outstandingCoupons",
      "outputs": [
        {
          "internalType": "uint256",
          "name": "",
          "type": "uint256"
        }
      ],
      "payable": false,
      "stateMutability": "view",
      "type": "function"
    },
    {
      "constant": true,
      "inputs": [
        {
          "internalType": "address",
          "name": "candidate",
          "type": "address"
        }
      ],
      "name": "periodFor",
      "outputs": [
        {
          "internalType": "uint256",
          "name": "",
          "type": "uint256"
        }
      ],
      "payable": false,
      "stateMutability": "view",
      "type": "function"
    },
    {
      "constant": true,
      "inputs": [],
      "name": "pool",
      "outputs": [
        {
          "internalType": "address",
          "name": "",
          "type": "address"
        }
      ],
      "payable": false,
      "stateMutability": "view",
      "type": "function"
    },
    {
      "constant": true,
      "inputs": [
        {
          "internalType": "address",
          "name": "account",
          "type": "address"
        },
        {
          "internalType": "address",
          "name": "candidate",
          "type": "address"
        }
      ],
      "name": "recordedVote",
      "outputs": [
        {
          "internalType": "enum Candidate.Vote",
          "name": "",
          "type": "uint8"
        }
      ],
      "payable": false,
      "stateMutability": "view",
      "type": "function"
    },
    {
      "constant": true,
      "inputs": [
        {
          "internalType": "address",
          "name": "candidate",
          "type": "address"
        }
      ],
      "name": "rejectFor",
      "outputs": [
        {
          "internalType": "uint256",
          "name": "",
          "type": "uint256"
        }
      ],
      "payable": false,
      "stateMutability": "view",
      "type": "function"
    },
    {
      "constant": true,
      "inputs": [
        {
          "internalType": "address",
          "name": "candidate",
          "type": "address"
        }
      ],
      "name": "startFor",
      "outputs": [
        {
          "internalType": "uint256",
          "name": "",
          "type": "uint256"
        }
      ],
      "payable": false,
      "stateMutability": "view",
      "type": "function"
    },
    {
      "constant": true,
      "inputs": [
        {
          "internalType": "address",
          "name": "account",
          "type": "address"
        }
      ],
      "name": "statusOf",
      "outputs": [
        {
          "internalType": "enum Account.Status",
          "name": "",
          "type": "uint8"
        }
      ],
      "payable": false,
      "stateMutability": "view",
      "type": "function"
    },
    {
      "constant": true,
      "inputs": [],
      "name": "symbol",
      "outputs": [
        {
          "internalType": "string",
          "name": "",
          "type": "string"
        }
      ],
      "payable": false,
      "stateMutability": "view",
      "type": "function"
    },
    {
      "constant": true,
      "inputs": [],
      "name": "totalBonded",
      "outputs": [
        {
          "internalType": "uint256",
          "name": "",
          "type": "uint256"
        }
      ],
      "payable": false,
      "stateMutability": "view",
      "type": "function"
    },
    {
      "constant": true,
      "inputs": [
        {
          "internalType": "uint256",
          "name": "epoch",
          "type": "uint256"
        }
      ],
      "name": "totalBondedAt",
      "outputs": [
        {
          "internalType": "uint256",
          "name": "",
          "type": "uint256"
        }
      ],
      "payable": false,
      "stateMutability": "view",
      "type": "function"
    },
    {
      "constant": true,
      "inputs": [],
      "name": "totalCoupons",
      "outputs": [
        {
          "internalType": "uint256",
          "name": "",
          "type": "uint256"
        }
      ],
      "payable": false,
      "stateMutability": "view",
      "type": "function"
    },
    {
      "constant": true,
      "inputs": [],
      "name": "totalDebt",
      "outputs": [
        {
          "internalType": "uint256",
          "name": "",
          "type": "uint256"
        }
      ],
      "payable": false,
      "stateMutability": "view",
      "type": "function"
    },
    {
      "constant": true,
      "inputs": [],
      "name": "totalNet",
      "outputs": [
        {
          "internalType": "uint256",
          "name": "",
          "type": "uint256"
        }
      ],
      "payable": false,
      "stateMutability": "view",
      "type": "function"
    },
    {
      "constant": true,
      "inputs": [],
      "name": "totalRedeemable",
      "outputs": [
        {
          "internalType": "uint256",
          "name": "",
          "type": "uint256"
        }
      ],
      "payable": false,
      "stateMutability": "view",
      "type": "function"
    },
    {
      "constant": true,
      "inputs": [],
      "name": "totalStaged",
      "outputs": [
        {
          "internalType": "uint256",
          "name": "",
          "type": "uint256"
        }
      ],
      "payable": false,
      "stateMutability": "view",
      "type": "function"
    },
    {
      "constant": true,
      "inputs": [],
      "name": "totalSupply",
      "outputs": [
        {
          "internalType": "uint256",
          "name": "",
          "type": "uint256"
        }
      ],
      "payable": false,
      "stateMutability": "view",
      "type": "function"
    },
    {
      "constant": false,
      "inputs": [
        {
          "internalType": "address",
          "name": "recipient",
          "type": "address"
        },
        {
          "internalType": "uint256",
          "name": "amount",
          "type": "uint256"
        }
      ],
      "name": "transfer",
      "outputs": [
        {
          "internalType": "bool",
          "name": "",
          "type": "bool"
        }
      ],
      "payable": false,
      "stateMutability": "nonpayable",
      "type": "function"
    },
    {
      "constant": false,
      "inputs": [
        {
          "internalType": "address",
          "name": "sender",
          "type": "address"
        },
        {
          "internalType": "address",
          "name": "recipient",
          "type": "address"
        },
        {
          "internalType": "uint256",
          "name": "amount",
          "type": "uint256"
        }
      ],
      "name": "transferFrom",
      "outputs": [
        {
          "internalType": "bool",
          "name": "",
          "type": "bool"
        }
      ],
      "payable": false,
      "stateMutability": "nonpayable",
      "type": "function"
    },
    {
      "constant": true,
      "inputs": [
        {
          "internalType": "address",
          "name": "candidate",
          "type": "address"
        }
      ],
      "name": "votesFor",
      "outputs": [
        {
          "internalType": "uint256",
          "name": "",
          "type": "uint256"
        }
      ],
      "payable": false,
      "stateMutability": "view",
      "type": "function"
    },
    {
      "constant": false,
      "inputs": [],
      "name": "initialize",
      "outputs": [],
      "payable": false,
      "stateMutability": "nonpayable",
      "type": "function"
    },
    {
      "constant": false,
      "inputs": [
        {
          "internalType": "address",
          "name": "implementation",
          "type": "address"
        }
      ],
      "name": "implement",
      "outputs": [],
      "payable": false,
      "stateMutability": "nonpayable",
      "type": "function"
    }
  ],
  "bytecode": "0x608060405234801561001057600080fd5b50613990806100206000396000f3fe60806040523480156200001157600080fd5b5060043610620003585760003560e01c80637d8bb86911620001c5578063a9059cbb11620000ff578063d53c6f5f11620000b1578063eeaca09b1162000087578063eeaca09b1462000734578063f1b7cf49146200074b578063fc7b9c181462000762578063ffbe3b73146200076c5762000358565b8063d53c6f5f14620006f5578063d60b347f146200070c578063dd62ed3e14620007235762000358565b8063a9059cbb146200037f578063bc7513e2146200068f578063c34eee6514620006a6578063c9aff70c14620006bd578063cb0fbc7114620006d4578063cf02377914620006eb5762000358565b806395d89b4111620001775780639bc289f1116200014d5780639bc289f114620006405780639f6e1b261462000657578063a50cd8e7146200066e578063a6c409f114620006855762000358565b806395d89b41146200061557806397a5d5b5146200061f5780639a649edc14620006365762000358565b80637d8bb86914620005b25780637dc0d1d014620005c95780638129fc1c14620005d3578063825ad60714620005dd57806386cf9f1414620005f4578063900cf0cf146200060b5762000358565b80633fbba9a6116200029757806351bf21d8116200024957806364668022116200021f5780636466802214620005565780636a39e328146200056d57806370a08231146200058457806375d5024b146200059b5762000358565b806351bf21d8146200051e578063520acb7614620005355780635c60da1b146200054c5762000358565b80633fbba9a6146200049b57806344d96e9514620004c15780634a96026114620004cb5780634c73609914620004e45780635053e46114620004fb57806351adeb5714620005055762000358565b80631edbcf6c116200030f578063313ce56711620002e5578063313ce567146200043d578063353a420c14620004565780633a3e6c81146200046d5780633dc905c714620004845762000358565b80631edbcf6c146200040557806323b872dd146200040f5780632d7f23b314620004265762000358565b806306fdde03146200035d578063095ea7b3146200037f57806310e95b6c14620003a557806315e14bf614620003cb57806316f0115b14620003e257806318160ddd14620003fb575b600080fd5b6200036762000783565b604051620003769190620016ef565b60405180910390f35b6200039662000390366004620013d9565b620007ba565b604051620003769190620016bf565b620003bc620003b63660046200140e565b620007c3565b60405162000376919062001738565b620003bc620003dc366004620012fc565b620007db565b620003ec620007f9565b60405162000376919062001690565b620003bc62000808565b620003bc6200080e565b620003966200042036600462001385565b62000814565b620003bc620004373660046200140e565b6200081e565b6200044762000833565b60405162000376919062001748565b620003bc62000467366004620012fc565b62000838565b620003966200047e366004620012fc565b62000856565b620003bc620004953660046200140e565b62000873565b620004b2620004ac36600462001346565b62000888565b604051620003769190620016df565b620003bc620008bb565b620004e2620004dc366004620012fc565b620008c1565b005b620003bc620004f536600462001450565b620008cf565b620003bc62000900565b6200050f62000929565b604051620003769190620016cf565b620003bc6200052f366004620012fc565b62000938565b620003bc620005463660046200140e565b62000956565b620003ec6200096b565b620003bc62000567366004620012fc565b62000990565b620003bc6200057e3660046200140e565b620009ae565b620003bc62000595366004620012fc565b620009c3565b62000396620005ac3660046200140e565b620009e1565b620003bc620005c33660046200140e565b620009f6565b6200050f62000a0b565b620004e262000a1a565b620003bc620005ee366004620012fc565b62000b4f565b620003bc62000605366004620012fc565b62000ba7565b620003bc62000bc2565b6200036762000bc8565b620004b262000630366004620012fc565b62000be6565b620003bc62000c53565b620003bc62000651366004620012fc565b62000c59565b620003bc6200066836600462001346565b62000c77565b620003bc6200067f366004620012fc565b62000ca6565b620003bc62000ccf565b620003bc620006a0366004620013d9565b62000d6f565b620003bc620006b73660046200140e565b62000db7565b620003bc620006ce3660046200140e565b62000dcc565b620003bc620006e53660046200140e565b62000de1565b620003bc62000df6565b620003bc620007063660046200140e565b62000dfc565b620003966200071d366004620012fc565b62000e12565b620003bc6200039036600462001346565b620003bc620007453660046200140e565b62000e33565b620003bc6200075c366004620012fc565b62000e48565b620003bc62000e63565b620003bc6200077d3660046200140e565b62000e69565b60408051808201909152601881527f44796e616d69632053657420446f6c6c6172205374616b650000000000000000602082015290565b60005b92915050565b6000818152600d60205260409020600201545b919050565b6001600160a01b03166000908152600e602052604090206001015490565b600b546001600160a01b031690565b60035490565b60065490565b60005b9392505050565b6000908152600d60205260409020600a015490565b601290565b6001600160a01b03166000908152600e602052604090206003015490565b6001600160a01b03166000908152600e6020526040902054151590565b6000908152600d60205260409020600c015490565b6001600160a01b038082166000908152600e60209081526040808320938616835260049093019052205460ff1692915050565b60045490565b620008cc8162000e7b565b50565b6000828152600d60205260408120600301805483908110620008ed57fe5b9060005260206000200154905092915050565b60006200090c62001299565b6200091662000f79565b9050620009238162000faa565b91505090565b6009546001600160a01b031690565b6001600160a01b03166000908152600c602052604090206004015490565b6000908152600d60205260409020600e015490565b7f360894a13ba1a3210667c828492db98dca3e2076cc3735a920a3ca505d382bbc5490565b6001600160a01b03166000908152600e602052604090206002015490565b6000908152600d602052604090206003015490565b6001600160a01b03166000908152600c602052604090206001015490565b6000620009ed62000fd1565b90911115919050565b6000908152600d602052604090206010015490565b600a546001600160a01b031690565b62000a5862000a2c6200071d6200096b565b15692832b936b4b9b9b4b7b760b11b72105b1c9958591e481a5b9a5d1a585b1a5e9959606a1b62000fd6565b62000a6c62000a666200096b565b62001039565b62000a7662000929565b62000a8062000a0b565b6001600160a01b031663a8aa1b316040518163ffffffff1660e01b815260040160206040518083038186803b15801562000ab957600080fd5b505afa15801562000ace573d6000803e3d6000fd5b505050506040513d601f19601f8201168201806040525062000af4919081019062001325565b60405162000b0290620012ba565b62000b0f929190620016a0565b604051809103906000f08015801562000b2c573d6000803e3d6000fd5b50600b80546001600160a01b0319166001600160a01b0392909216919091179055565b60008062000b5c62000808565b90508062000b6f576000915050620007d6565b620008178162000b9a62000b8386620009c3565b62000b8d620008bb565b9063ffffffff6200106016565b9063ffffffff620010a016565b6001600160a01b03166000908152600c602052604090205490565b60025490565b6040805180820190915260048152634453445360e01b602082015290565b600062000bf262000bc2565b6001600160a01b0383166000908152600c6020526040902060050154111562000c1e57506002620007d6565b6001600160a01b0382166000908152600c602052604090206004015462000c4462000bc2565b1015620007ba576001620007bd565b60085490565b6001600160a01b03166000908152600c602052604090206005015490565b6001600160a01b039182166000908152600c602090815260408083209390941682526003909201909152205490565b6000620007bd62000cb78362000838565b62000cc28462000990565b9063ffffffff620010e416565b600062000d6a62000cdf62000e63565b62000ce962000929565b6001600160a01b03166318160ddd6040518163ffffffff1660e01b815260040160206040518083038186803b15801562000d2257600080fd5b505afa15801562000d37573d6000803e3d6000fd5b505050506040513d601f19601f8201168201806040525062000d5d91908101906200142f565b9063ffffffff6200110c16565b905090565b600062000d7c8262000dcc565b62000d8a57506000620007bd565b506001600160a01b03919091166000908152600c6020908152604080832093835260029093019052205490565b6000908152600d60205260409020600f015490565b6000908152600d602052604090206001015490565b6000908152600d602052604090206011015490565b60055490565b6000908152600d60208190526040909120015490565b6001600160a01b03166000908152600e602052604090206005015460ff1690565b6000908152600d60205260409020600b015490565b6001600160a01b03166000908152600e602052604090205490565b60075490565b6000908152600d602052604090205490565b62000e868162001150565b60408051600481526024810182526020810180516001600160e01b031663204a7f0760e21b17905290516000916060916001600160a01b0385169162000ecc916200164b565b600060405180830381855af49150503d806000811462000f09576040519150601f19603f3d011682016040523d82523d6000602084013e62000f0e565b606091505b509150915081819062000f3f5760405162461bcd60e51b815260040162000f369190620016ef565b60405180910390fd5b506040516001600160a01b038416907fbc7cd75a20ee27fd9adebab32041f755214dbc6bffa90cc0225b39da2e5c2d3b90600090a2505050565b62000f8362001299565b604051806060016040528060008152602001635fbef0008152602001611c20815250905090565b6000620007bd826000015162000cc2846040015162000b9a866020015162000d5d6200119e565b609690565b82620010345762000fe782620011a2565b6101d160f51b62000ff883620011a2565b6040516020016200100c9392919062001659565b60408051601f198184030181529082905262461bcd60e51b825262000f3691600401620016ef565b505050565b6001600160a01b03166000908152600e60205260409020600501805460ff19166001179055565b6000826200107157506000620007bd565b828202828482816200107f57fe5b0414620008175760405162461bcd60e51b815260040162000f369062001714565b60006200081783836040518060400160405280601a81526020017f536166654d6174683a206469766973696f6e206279207a65726f00000000000081525062001229565b600082820183811015620008175760405162461bcd60e51b815260040162000f369062001702565b60006200081783836040518060400160405280601e81526020017f536166654d6174683a207375627472616374696f6e206f766572666c6f77000081525062001264565b6200115b8162001293565b6200117a5760405162461bcd60e51b815260040162000f369062001726565b7f360894a13ba1a3210667c828492db98dca3e2076cc3735a920a3ca505d382bbc55565b4290565b60608082604051602001620011b8919062001634565b60408051601f19818403018152919052905060205b80156200121257815160001990910190829082908110620011ea57fe5b01602001516001600160f81b031916156200120c5760010181529050620007d6565b620011cd565b505060408051600081526020810190915292915050565b600081836200124d5760405162461bcd60e51b815260040162000f369190620016ef565b5060008385816200125a57fe5b0495945050505050565b600081848411156200128b5760405162461bcd60e51b815260040162000f369190620016ef565b505050900390565b3b151590565b60405180606001604052806000815260200160008152602001600081525090565b612124806200182a83390190565b8035620007bd8162001807565b8051620007bd8162001807565b8035620007bd816200181e565b8051620007bd816200181e565b6000602082840312156200130f57600080fd5b60006200131d8484620012c8565b949350505050565b6000602082840312156200133857600080fd5b60006200131d8484620012d5565b600080604083850312156200135a57600080fd5b6000620013688585620012c8565b92505060206200137b85828601620012c8565b9150509250929050565b6000806000606084860312156200139b57600080fd5b6000620013a98686620012c8565b9350506020620013bc86828701620012c8565b9250506040620013cf86828701620012e2565b9150509250925092565b60008060408385031215620013ed57600080fd5b6000620013fb8585620012c8565b92505060206200137b85828601620012e2565b6000602082840312156200142157600080fd5b60006200131d8484620012e2565b6000602082840312156200144257600080fd5b60006200131d8484620012ef565b600080604083850312156200146457600080fd5b6000620013fb8585620012e2565b6200147d8162001765565b82525050565b6200147d8162001772565b6200147d6200149d8262001777565b62001784565b6200147d6200149d8262001784565b6000620014bf8262001758565b620014cb8185620007d6565b9350620014dd818560208601620017bf565b9290920192915050565b6200147d81620017a5565b6200147d81620017b2565b60006200150a8262001758565b6200151681856200175c565b935062001528818560208601620017bf565b6200153381620017f2565b9093019392505050565b60006200154c601b836200175c565b7f536166654d6174683a206164646974696f6e206f766572666c6f770000000000815260200192915050565b6000620015876021836200175c565b7f536166654d6174683a206d756c7469706c69636174696f6e206f766572666c6f8152607760f81b602082015260400192915050565b6000620015cc603b836200175c565b7f43616e6e6f742073657420612070726f787920696d706c656d656e746174696f81527f6e20746f2061206e6f6e2d636f6e747261637420616464726573730000000000602082015260400192915050565b6200147d8162001784565b6200147d816200179f565b6000620016428284620014a3565b50602001919050565b6000620008178284620014b2565b6000620016678286620014b2565b91506200167582856200148e565b600282019150620016878284620014b2565b95945050505050565b60208101620007bd828462001472565b60408101620016b0828562001472565b62000817602083018462001472565b60208101620007bd828462001483565b60208101620007bd8284620014e7565b60208101620007bd8284620014f2565b60208082528101620008178184620014fd565b60208082528101620007bd816200153d565b60208082528101620007bd8162001578565b60208082528101620007bd81620015bd565b60208101620007bd82846200161e565b60208101620007bd828462001629565b5190565b90815260200190565b6000620007bd8262001793565b151590565b6001600160f01b03191690565b90565b80620007d681620017fc565b6001600160a01b031690565b60ff1690565b6000620007bd8262001765565b6000620007bd8262001787565b60005b83811015620017dc578181015183820152602001620017c2565b83811115620017ec576000848401525b50505050565b601f01601f191690565b60038110620008cc57fe5b620018128162001765565b8114620008cc57600080fd5b62001812816200178456fe60806040523480156200001157600080fd5b506040516200212438038062002124833981016040819052620000349162000084565b600480546001600160a01b03199081163317909155600580546001600160a01b0394851690831617905560068054929093169116179055620000ef565b80516200007e81620000d5565b92915050565b600080604083850312156200009857600080fd5b6000620000a6858562000071565b9250506020620000b98582860162000071565b9150509250929050565b60006001600160a01b0382166200007e565b620000e081620000c3565b8114620000ec57600080fd5b50565b61202580620000ff6000396000f3fe608060405234801561001057600080fd5b50600436106101735760003560e01c806351bf21d8116100de57806397a5d5b511610097578063b6b55f2511610071578063b6b55f25146102f0578063c0d7a94f14610303578063cf02377914610316578063e0cf72851461031e57610173565b806397a5d5b5146102b55780639940686e146102d5578063aed29d07146102e857610173565b806351bf21d81461024c5780635c975abb1461025f5780637298d36e14610274578063825ad6071461027c57806386cf9f141461028f57806395ccea67146102a257610173565b80633e413bee116101305780633e413bee146102025780634162169f1461021757806344d96e951461022c5780634838ed191461023457806351858e271461023c57806351adeb571461024457610173565b80631667eb171461017857806327de9e32146101a157806329f32ed4146101b65780632e1a7d4d146101c95780632e2ebe06146101dc578063379607f5146101ef575b600080fd5b61018b6101863660046118bd565b610326565b6040516101989190611e18565b60405180910390f35b6101b46101af366004611988565b610348565b005b61018b6101c43660046118bd565b610491565b6101b46101d7366004611988565b6104af565b6101b46101ea366004611988565b6105de565b6101b46101fd366004611988565b610783565b61020a61087a565b6040516101989190611d1e565b61021f610889565b6040516101989190611d8b565b61018b610898565b61018b61089e565b6101b46108a4565b61021f6108e5565b61018b61025a3660046118bd565b6108f4565b610267610912565b6040516101989190611d7d565b61021f61091b565b61018b61028a3660046118bd565b61092a565b61018b61029d3660046118bd565b610948565b6101b46102b03660046118e3565b610963565b6102c86102c33660046118bd565b6109fa565b6040516101989190611d99565b6101b46102e3366004611988565b610a34565b61018b610b22565b6101b46102fe366004611988565b610bbe565b61018b6103113660046118bd565b610ca9565b61018b610d31565b61018b610d37565b6001600160a01b0381166000908152600860205260409020600101545b919050565b61035133610d3d565b600061035c3361092a565b90506103936000821163141bdbdb60e21b7f696e73756666696369656e7420626f6e6465642062616c616e63650000000000610d6f565b60006103be826103b2856103a633610ca9565b9063ffffffff610dcd16565b9063ffffffff610e0e16565b905060006103d3836103b2866103a633610491565b90506103df3385610e50565b6103e93383610ead565b61040c3385604051806060016040528060218152602001611fc260219139610f12565b61042f3382604051806060016040528060228152602001611f7f60229139610f7a565b610437610fe2565b337f93530ac0ee8c50e696e13c5ac62355d0c0ba4bd943620d5bda1eb08b64ae751261047260016104666110ab565b9063ffffffff61112516565b868560405161048393929190611e34565b60405180910390a250505050565b6001600160a01b031660009081526008602052604090206003015490565b336104e660005b6104bf836109fa565b60028111156104ca57fe5b1463141bdbdb60e21b692737ba10333937bd32b760b11b610d6f565b6104ee61091b565b6001600160a01b031663a9059cbb33846040518363ffffffff1660e01b815260040161051b929190611d54565b602060405180830381600087803b15801561053557600080fd5b505af1158015610549573d6000803e3d6000fd5b505050506040513d601f19601f8201168201806040525061056d919081019061191d565b506105913383604051806060016040528060218152602001611fa16021913961114a565b610599610fe2565b336001600160a01b03167f884edad9ce6fa2440d8a54cc123490eb96d2768479d49ff9c7366125a9424364836040516105d29190611e18565b60405180910390a25050565b336105e960006104b6565b61060c6105f4610912565b1563141bdbdb60e21b6514185d5cd95960d21b610d6f565b6106486000610619610898565b1163141bdbdb60e21b7f696e73756666696369656e7420746f74616c20626f6e64656400000000000000610d6f565b6106846000610655610b22565b1163141bdbdb60e21b7f696e73756666696369656e7420746f74616c2072657761726465640000000000610d6f565b6106c18261069133610ca9565b101563141bdbdb60e21b7f696e73756666696369656e742072657761726465642062616c616e6365000000610d6f565b6000806106cd846111aa565b9150915060006106ea856104666106e2610d37565b610466610b22565b905060006107096106f9610898565b6103b2848663ffffffff610dcd16565b9050610715338461139d565b61072e33610729888463ffffffff61112516565b611402565b610736610fe2565b336001600160a01b03167fbe9d8078818a53534ce225882a00e0c6f709b5296c8a08c3a1f23f9ffd44838087868660405161077393929190611e34565b60405180910390a2505050505050565b3361078e60006104b6565b6107966108e5565b6001600160a01b031663a9059cbb33846040518363ffffffff1660e01b81526004016107c3929190611d54565b602060405180830381600087803b1580156107dd57600080fd5b505af11580156107f1573d6000803e3d6000fd5b505050506040513d601f19601f82011682018060405250610815919081019061191d565b506108393383604051806060016040528060248152602001611f5b60249139611467565b610841610fe2565b336001600160a01b03167f47cee97cb7acd717b3c0aa1435d004cd5b3c8c57d70dbceb4e4458bbd60e39d4836040516105d29190611e18565b60006108846114cf565b905090565b6004546001600160a01b031690565b60025490565b60015490565b6108db6108af610889565b6001600160a01b0316336001600160a01b03161463141bdbdb60e21b664e6f742064616f60c81b610d6f565b6108e36114e7565b565b6005546001600160a01b031690565b6001600160a01b031660009081526008602052604090206004015490565b60075460ff1690565b6006546001600160a01b031690565b6001600160a01b031660009081526008602052604090206002015490565b6001600160a01b031660009081526008602052604090205490565b61096e6108af610889565b816001600160a01b031663a9059cbb610985610889565b836040518363ffffffff1660e01b81526004016109a3929190611d6f565b602060405180830381600087803b1580156109bd57600080fd5b505af11580156109d1573d6000803e3d6000fd5b505050506040513d601f19601f820116820180604052506109f5919081019061191d565b505050565b6001600160a01b038116600090815260086020526040812060040154610a1e6110ab565b1015610a2b576001610a2e565b60005b92915050565b610a3f6105f4610912565b610a4833610d3d565b6000610a556106e2610d37565b90506000610a61610898565b15610a7657610a716106f9610898565b610a96565b610a7e610b22565b15610a8a576000610a96565b610a96836103a66114f6565b9050610aa2338461139d565b610aac3382611402565b610acf3384604051806060016040528060218152602001611fa16021913961114a565b610ad7610fe2565b337f3ae9ad26d7d47616d306d7757b947fe7b0f9a7c61a5f0dc784b0ddb6c7c40b5a610b0660016104666110ab565b85604051610b15929190611e26565b60405180910390a2505050565b6000610884610b2f61089e565b610b376108e5565b6001600160a01b03166370a08231306040518263ffffffff1660e01b8152600401610b629190611d1e565b60206040518083038186803b158015610b7a57600080fd5b505afa158015610b8e573d6000803e3d6000fd5b505050506040513d601f19601f82011682018060405250610bb291908101906119a6565b9063ffffffff6114fd16565b33610bc960006104b6565b610bd46105f4610912565b610bdc61091b565b6001600160a01b03166323b872dd3330856040518463ffffffff1660e01b8152600401610c0b93929190611d2c565b602060405180830381600087803b158015610c2557600080fd5b505af1158015610c39573d6000803e3d6000fd5b505050506040513d601f19601f82011682018060405250610c5d919081019061191d565b50610c683383610e50565b610c70610fe2565b336001600160a01b03167fe1fffcc4923d04b559f4d29a8bfc6cda04eb5b0d3c460751c2402c5c5cc9109c836040516105d29190611e18565b600080610cb4610898565b905080610cc5576000915050610343565b6000610cd26106e2610d37565b90506000610cf3836103b2610ce68861092a565b859063ffffffff610dcd16565b90506000610d0086610491565b905080821115610d2557610d1a828263ffffffff6114fd16565b945050505050610343565b50600095945050505050565b60005490565b60035490565b610d50610d4861153f565b6104666110ab565b6001600160a01b03909116600090815260086020526040902060040155565b826109f557610d7d82611544565b6101d160f51b610d8c83611544565b604051602001610d9e93929190611cb7565b60408051601f198184030181529082905262461bcd60e51b8252610dc491600401611da7565b60405180910390fd5b600082610ddc57506000610a2e565b82820282848281610de957fe5b0414610e075760405162461bcd60e51b8152600401610dc490611de8565b9392505050565b6000610e0783836040518060400160405280601a81526020017f536166654d6174683a206469766973696f6e206279207a65726f0000000000008152506115c4565b6001600160a01b038216600090815260086020526040902054610e79908263ffffffff61112516565b6001600160a01b03831660009081526008602052604081209190915554610ea6908263ffffffff61112516565b6000555050565b6001600160a01b038216600090815260086020526040902060010154610ed9908263ffffffff61112516565b6001600160a01b038316600090815260086020526040902060019081019190915554610f0b908263ffffffff61112516565b6001555050565b6001600160a01b038316600090815260086020526040902060020154610f3f90838363ffffffff6115fb16565b6001600160a01b038416600090815260086020526040902060029081019190915554610f7290838363ffffffff6115fb16565b600255505050565b6001600160a01b038316600090815260086020526040902060030154610fa790838363ffffffff6115fb16565b6001600160a01b038416600090815260086020526040902060039081019190915554610fda90838363ffffffff6115fb16565b600355505050565b6108e3610ff8610ff0610898565b610466610d31565b61100061091b565b6001600160a01b03166370a08231306040518263ffffffff1660e01b815260040161102b9190611d1e565b60206040518083038186803b15801561104357600080fd5b505afa158015611057573d6000803e3d6000fd5b505050506040513d601f19601f8201168201806040525061107b91908101906119a6565b101563141bdbdb60e21b7f496e636f6e73697374656e7420554e492d56322062616c616e63657300000000610d6f565b60006110b5610889565b6001600160a01b031663900cf0cf6040518163ffffffff1660e01b815260040160206040518083038186803b1580156110ed57600080fd5b505afa158015611101573d6000803e3d6000fd5b505050506040513d601f19601f8201168201806040525061088491908101906119a6565b600082820183811015610e075760405162461bcd60e51b8152600401610dc490611db8565b6001600160a01b03831660009081526008602052604090205461117490838363ffffffff6115fb16565b6001600160a01b038416600090815260086020526040812091909155546111a290838363ffffffff6115fb16565b600055505050565b6000806000806111b86108e5565b6111c061087a565b915091506000806111d18484611627565b9150915060008260001480156111e5575081155b6111f9576111f4888484611713565b6111fb565b875b9050600061120761091b565b60405163a9059cbb60e01b81529091506001600160a01b0387169063a9059cbb906112389084908d90600401611d6f565b602060405180830381600087803b15801561125257600080fd5b505af1158015611266573d6000803e3d6000fd5b505050506040513d601f19601f8201168201806040525061128a919081019061191d565b506040516323b872dd60e01b81526001600160a01b038616906323b872dd906112bb90339085908790600401611d2c565b602060405180830381600087803b1580156112d557600080fd5b505af11580156112e9573d6000803e3d6000fd5b505050506040513d601f19601f8201168201806040525061130d919081019061191d565b506040516335313c2160e11b815282906001600160a01b03831690636a6278429061133c903090600401611d1e565b602060405180830381600087803b15801561135657600080fd5b505af115801561136a573d6000803e3d6000fd5b505050506040513d601f19601f8201168201806040525061138e91908101906119a6565b97509750505050505050915091565b6001600160a01b0382166000908152600860205260409020600201546113c9908263ffffffff61112516565b6001600160a01b0383166000908152600860205260409020600290810191909155546113fb908263ffffffff61112516565b6002555050565b6001600160a01b03821660009081526008602052604090206003015461142e908263ffffffff61112516565b6001600160a01b038316600090815260086020526040902060039081019190915554611460908263ffffffff61112516565b6003555050565b6001600160a01b03831660009081526008602052604090206001015461149490838363ffffffff6115fb16565b6001600160a01b0384166000908152600860205260409020600190810191909155546114c790838363ffffffff6115fb16565b600155505050565b73a0b86991c6218b36c1d19d4a2e9eb0ce3606eb4890565b6007805460ff19166001179055565b620f424090565b6000610e0783836040518060400160405280601e81526020017f536166654d6174683a207375627472616374696f6e206f766572666c6f7700008152506115fb565b600c90565b606080826040516020016115589190611ca2565b60408051601f19818403018152919052905060205b80156115ad5781516000199091019082908290811061158857fe5b01602001516001600160f81b031916156115a85760010181529050610343565b61156d565b505060408051600081526020810190915292915050565b600081836115e55760405162461bcd60e51b8152600401610dc49190611da7565b5060008385816115f157fe5b0495945050505050565b6000818484111561161f5760405162461bcd60e51b8152600401610dc49190611da7565b505050900390565b60008060006116368585611781565b50905060008061165b735c69bee701ef814a2b6a3edd4b1652cb9cc5aa6f888861180b565b6001600160a01b0316630902f1ac6040518163ffffffff1660e01b815260040160606040518083038186803b15801561169357600080fd5b505afa1580156116a7573d6000803e3d6000fd5b505050506040513d601f19601f820116820180604052506116cb919081019061193b565b506001600160701b031691506001600160701b03169150826001600160a01b0316876001600160a01b031614611702578082611705565b81815b909890975095505050505050565b60008084116117345760405162461bcd60e51b8152600401610dc490611df8565b6000831180156117445750600082115b6117605760405162461bcd60e51b8152600401610dc490611dd8565b82611771858463ffffffff610dcd16565b8161177857fe5b04949350505050565b600080826001600160a01b0316846001600160a01b031614156117b65760405162461bcd60e51b8152600401610dc490611dc8565b826001600160a01b0316846001600160a01b0316106117d65782846117d9565b83835b90925090506001600160a01b0382166118045760405162461bcd60e51b8152600401610dc490611e08565b9250929050565b600080600061181a8585611781565b91509150858282604051602001611832929190611c7c565b60405160208183030381529060405280519060200120604051602001611859929190611ce8565b60408051601f1981840301815291905280516020909101209695505050505050565b8035610a2e81611f22565b8051610a2e81611f36565b8051610a2e81611f3f565b8035610a2e81611f48565b8051610a2e81611f48565b8051610a2e81611f51565b6000602082840312156118cf57600080fd5b60006118db848461187b565b949350505050565b600080604083850312156118f657600080fd5b6000611902858561187b565b92505060206119138582860161189c565b9150509250929050565b60006020828403121561192f57600080fd5b60006118db8484611886565b60008060006060848603121561195057600080fd5b600061195c8686611891565b935050602061196d86828701611891565b925050604061197e868287016118b2565b9150509250925092565b60006020828403121561199a57600080fd5b60006118db848461189c565b6000602082840312156119b857600080fd5b60006118db84846118a7565b6119cd81611ea7565b82525050565b6119cd81611e5c565b6119cd6119e882611e5c565b611ef4565b6119cd81611e67565b6119cd611a0282611e6c565b611e79565b6119cd611a0282611e79565b6000611a1e82611e4f565b611a288185610343565b9350611a38818560208601611ec4565b9290920192915050565b6119cd81611eae565b6119cd81611eb9565b6000611a5f82611e4f565b611a698185611e53565b9350611a79818560208601611ec4565b611a8281611f05565b9093019392505050565b6000611a99601b83611e53565b7f536166654d6174683a206164646974696f6e206f766572666c6f770000000000815260200192915050565b6000611ad2602583611e53565b7f556e697377617056324c6962726172793a204944454e544943414c5f41444452815264455353455360d81b602082015260400192915050565b6000611b19602083610343565b7f96e8ac4277198ff8b6f785478aa9a39f403cb768dd02cbee326c3e7da348845f815260200192915050565b6000611b52602883611e53565b7f556e697377617056324c6962726172793a20494e53554646494349454e545f4c815267495155494449545960c01b602082015260400192915050565b6000611b9c600183610343565b6001600160f81b0319815260010192915050565b6000611bbd602183611e53565b7f536166654d6174683a206d756c7469706c69636174696f6e206f766572666c6f8152607760f81b602082015260400192915050565b6000611c00602583611e53565b7f556e697377617056324c6962726172793a20494e53554646494349454e545f418152641353d5539560da1b602082015260400192915050565b6000611c47601e83611e53565b7f556e697377617056324c6962726172793a205a45524f5f414444524553530000815260200192915050565b6119cd81611e79565b6000611c8882856119dc565b601482019150611c9882846119dc565b5060140192915050565b6000611cae8284611a07565b50602001919050565b6000611cc38286611a13565b9150611ccf82856119f6565b600282019150611cdf8284611a13565b95945050505050565b6000611cf382611b8f565b9150611cff82856119dc565b601482019150611d0f8284611a07565b6020820191506118db82611b0c565b60208101610a2e82846119d3565b60608101611d3a82866119c4565b611d4760208301856119d3565b6118db6040830184611c73565b60408101611d6282856119c4565b610e076020830184611c73565b60408101611d6282856119d3565b60208101610a2e82846119ed565b60208101610a2e8284611a42565b60208101610a2e8284611a4b565b60208082528101610e078184611a54565b60208082528101610a2e81611a8c565b60208082528101610a2e81611ac5565b60208082528101610a2e81611b45565b60208082528101610a2e81611bb0565b60208082528101610a2e81611bf3565b60208082528101610a2e81611c3a565b60208101610a2e8284611c73565b60408101611d628285611c73565b60608101611e428286611c73565b611d476020830185611c73565b5190565b90815260200190565b6000610a2e82611e92565b151590565b6001600160f01b03191690565b90565b8061034381611f15565b6001600160701b031690565b6001600160a01b031690565b63ffffffff1690565b6000610a2e825b6000610a2e82611e5c565b6000610a2e82611e7c565b60005b83811015611edf578181015183820152602001611ec7565b83811115611eee576000848401525b50505050565b6000610a2e826000610a2e82611f0f565b601f01601f191690565b60601b90565b60038110611f1f57fe5b50565b611f2b81611e5c565b8114611f1f57600080fd5b611f2b81611e67565b611f2b81611e86565b611f2b81611e79565b611f2b81611e9e56fe506f6f6c3a20696e73756666696369656e7420636c61696d61626c652062616c616e6365506f6f6c3a20696e73756666696369656e74207068616e746f6d2062616c616e6365506f6f6c3a20696e73756666696369656e74207374616765642062616c616e6365506f6f6c3a20696e73756666696369656e7420626f6e6465642062616c616e6365a365627a7a723158206ab73dca7a1998bb229959ea6e9c2dc228ec5ef457e2042fa0c9e9fa8e9f87836c6578706572696d656e74616cf564736f6c63430005110040a365627a7a7231582028e62d105c4f68b0e5bd23e9a7321785ab0cdc26b90759d4fba754ff84d726576c6578706572696d656e74616cf564736f6c63430005110040",
  "source": "/*\n    Copyright 2020 Dynamic Dollar Devs, based on the works of the Empty Set Squad\n\n    Licensed under the Apache License, Version 2.0 (the \"License\");\n    you may not use this file except in compliance with the License.\n    You may obtain a copy of the License at\n\n    http://www.apache.org/licenses/LICENSE-2.0\n\n    Unless required by applicable law or agreed to in writing, software\n    distributed under the License is distributed on an \"AS IS\" BASIS,\n    WITHOUT WARRANTIES OR CONDITIONS OF ANY KIND, either express or implied.\n    See the License for the specific language governing permissions and\n    limitations under the License.\n*/\n\npragma solidity ^0.5.17;\npragma experimental ABIEncoderV2;\n\nimport \"../external/Decimal.sol\";\nimport \"../token/Dollar.sol\";\nimport \"../oracle/Oracle.sol\";\nimport \"../oracle/Pool.sol\";\nimport \"./Upgradeable.sol\";\nimport \"./Permission.sol\";\n\n\ncontract Deployer1 is State, Permission, Upgradeable {\n    function initialize() initializer public {\n        _state.provider.dollar = new Dollar();\n    }\n\n    function implement(address implementation) external {\n        upgradeTo(implementation);\n    }\n}\n\ncontract Deployer2 is State, Permission, Upgradeable {\n    function initialize() initializer public {\n        _state.provider.oracle = new Oracle(address(dollar()));\n        oracle().setup();\n    }\n\n    function implement(address implementation) external {\n        upgradeTo(implementation);\n    }\n}\n\ncontract Deployer3 is State, Permission, Upgradeable {\n    function initialize() initializer public {\n        _state.provider.pool = address(new Pool(address(dollar()), address(oracle().pair())));\n    }\n\n    function implement(address implementation) external {\n        upgradeTo(implementation);\n    }\n}",
  "sourcePath": "/Users/cinquemb/Documents/Startups/crypto/dollar/protocol/contracts/dao/Deployer.sol",
  "compiler": {
    "name": "solc",
    "version": "0.5.17+commit.d19bba13.Emscripten.clang"
  },
  "schemaVersion": "3.3.3",
  "updatedAt": "2021-01-12T08:04:48.029Z",
  "devdoc": {
    "methods": {}
  },
  "userdoc": {
    "methods": {
      "balanceOfStaged(address)": {
        "notice": "Account"
      },
      "dollar()": {
        "notice": "Global"
      },
      "epoch()": {
        "notice": "Epoch"
      },
      "name()": {
        "notice": "ERC20 Interface"
      },
      "recordedVote(address,address)": {
        "notice": "Governance"
      },
      "transfer(address,uint256)": {
        "notice": "ERC20 Interface"
      }
    }
  }
}