{
  "contractName": "Deployer2",
  "abi": [
    {
      "anonymous": false,
      "inputs": [
        {
          "indexed": true,
          "internalType": "address",
          "name": "from",
          "type": "address"
        },
        {
          "indexed": true,
          "internalType": "address",
          "name": "to",
          "type": "address"
        },
        {
          "indexed": false,
          "internalType": "uint256",
          "name": "value",
          "type": "uint256"
        }
      ],
      "name": "Transfer",
      "type": "event"
    },
    {
      "anonymous": false,
      "inputs": [
        {
          "indexed": true,
          "internalType": "address",
          "name": "implementation",
          "type": "address"
        }
      ],
      "name": "Upgraded",
      "type": "event"
    },
    {
      "constant": true,
      "inputs": [
        {
          "internalType": "address",
          "name": "owner",
          "type": "address"
        },
        {
          "internalType": "address",
          "name": "spender",
          "type": "address"
        }
      ],
      "name": "allowance",
      "outputs": [
        {
          "internalType": "uint256",
          "name": "",
          "type": "uint256"
        }
      ],
      "payable": false,
      "stateMutability": "view",
      "type": "function"
    },
    {
      "constant": true,
      "inputs": [
        {
          "internalType": "address",
          "name": "owner",
          "type": "address"
        },
        {
          "internalType": "address",
          "name": "spender",
          "type": "address"
        }
      ],
      "name": "allowanceCoupons",
      "outputs": [
        {
          "internalType": "uint256",
          "name": "",
          "type": "uint256"
        }
      ],
      "payable": false,
      "stateMutability": "view",
      "type": "function"
    },
    {
      "constant": false,
      "inputs": [
        {
          "internalType": "address",
          "name": "spender",
          "type": "address"
        },
        {
          "internalType": "uint256",
          "name": "amount",
          "type": "uint256"
        }
      ],
      "name": "approve",
      "outputs": [
        {
          "internalType": "bool",
          "name": "",
          "type": "bool"
        }
      ],
      "payable": false,
      "stateMutability": "nonpayable",
      "type": "function"
    },
    {
      "constant": true,
      "inputs": [
        {
          "internalType": "address",
          "name": "candidate",
          "type": "address"
        }
      ],
      "name": "approveFor",
      "outputs": [
        {
          "internalType": "uint256",
          "name": "",
          "type": "uint256"
        }
      ],
      "payable": false,
      "stateMutability": "view",
      "type": "function"
    },
    {
      "constant": true,
      "inputs": [
        {
          "internalType": "address",
          "name": "account",
          "type": "address"
        }
      ],
      "name": "balanceOf",
      "outputs": [
        {
          "internalType": "uint256",
          "name": "",
          "type": "uint256"
        }
      ],
      "payable": false,
      "stateMutability": "view",
      "type": "function"
    },
    {
      "constant": true,
      "inputs": [
        {
          "internalType": "address",
          "name": "account",
          "type": "address"
        }
      ],
      "name": "balanceOfBonded",
      "outputs": [
        {
          "internalType": "uint256",
          "name": "",
          "type": "uint256"
        }
      ],
      "payable": false,
      "stateMutability": "view",
      "type": "function"
    },
    {
      "constant": true,
      "inputs": [
        {
          "internalType": "address",
          "name": "account",
          "type": "address"
        },
        {
          "internalType": "uint256",
          "name": "epoch",
          "type": "uint256"
        }
      ],
      "name": "balanceOfCoupons",
      "outputs": [
        {
          "internalType": "uint256",
          "name": "",
          "type": "uint256"
        }
      ],
      "payable": false,
      "stateMutability": "view",
      "type": "function"
    },
    {
      "constant": true,
      "inputs": [
        {
          "internalType": "address",
          "name": "account",
          "type": "address"
        }
      ],
      "name": "balanceOfStaged",
      "outputs": [
        {
          "internalType": "uint256",
          "name": "",
          "type": "uint256"
        }
      ],
      "payable": false,
      "stateMutability": "view",
      "type": "function"
    },
    {
      "constant": true,
      "inputs": [
        {
          "internalType": "uint256",
          "name": "epoch",
          "type": "uint256"
        }
      ],
      "name": "bootstrappingAt",
      "outputs": [
        {
          "internalType": "bool",
          "name": "",
          "type": "bool"
        }
      ],
      "payable": false,
      "stateMutability": "view",
      "type": "function"
    },
    {
      "constant": true,
      "inputs": [
        {
          "internalType": "uint256",
          "name": "epoch",
          "type": "uint256"
        }
      ],
      "name": "couponsExpiration",
      "outputs": [
        {
          "internalType": "uint256",
          "name": "",
          "type": "uint256"
        }
      ],
      "payable": false,
      "stateMutability": "view",
      "type": "function"
    },
    {
      "constant": true,
      "inputs": [],
      "name": "decimals",
      "outputs": [
        {
          "internalType": "uint8",
          "name": "",
          "type": "uint8"
        }
      ],
      "payable": false,
      "stateMutability": "view",
      "type": "function"
    },
    {
      "constant": true,
      "inputs": [],
      "name": "dollar",
      "outputs": [
        {
          "internalType": "contract IDollar",
          "name": "",
          "type": "address"
        }
      ],
      "payable": false,
      "stateMutability": "view",
      "type": "function"
    },
    {
      "constant": true,
      "inputs": [],
      "name": "epoch",
      "outputs": [
        {
          "internalType": "uint256",
          "name": "",
          "type": "uint256"
        }
      ],
      "payable": false,
      "stateMutability": "view",
      "type": "function"
    },
    {
      "constant": true,
      "inputs": [],
      "name": "epochTime",
      "outputs": [
        {
          "internalType": "uint256",
          "name": "",
          "type": "uint256"
        }
      ],
      "payable": false,
      "stateMutability": "view",
      "type": "function"
    },
    {
      "constant": true,
      "inputs": [
        {
          "internalType": "uint256",
          "name": "epoch",
          "type": "uint256"
        }
      ],
      "name": "expiringCoupons",
      "outputs": [
        {
          "internalType": "uint256",
          "name": "",
          "type": "uint256"
        }
      ],
      "payable": false,
      "stateMutability": "view",
      "type": "function"
    },
    {
      "constant": true,
      "inputs": [
        {
          "internalType": "uint256",
          "name": "epoch",
          "type": "uint256"
        },
        {
          "internalType": "uint256",
          "name": "i",
          "type": "uint256"
        }
      ],
      "name": "expiringCouponsAtIndex",
      "outputs": [
        {
          "internalType": "uint256",
          "name": "",
          "type": "uint256"
        }
      ],
      "payable": false,
      "stateMutability": "view",
      "type": "function"
    },
    {
      "constant": true,
      "inputs": [
        {
          "internalType": "address",
          "name": "account",
          "type": "address"
        }
      ],
      "name": "fluidUntil",
      "outputs": [
        {
          "internalType": "uint256",
          "name": "",
          "type": "uint256"
        }
      ],
      "payable": false,
      "stateMutability": "view",
      "type": "function"
    },
    {
      "constant": true,
      "inputs": [
        {
          "internalType": "uint256",
          "name": "epoch",
          "type": "uint256"
        }
      ],
      "name": "getAvgExpiryFilled",
      "outputs": [
        {
          "internalType": "uint256",
          "name": "",
          "type": "uint256"
        }
      ],
      "payable": false,
      "stateMutability": "view",
      "type": "function"
    },
    {
      "constant": true,
      "inputs": [
        {
          "internalType": "uint256",
          "name": "epoch",
          "type": "uint256"
        }
      ],
      "name": "getAvgYieldFilled",
      "outputs": [
        {
          "internalType": "uint256",
          "name": "",
          "type": "uint256"
        }
      ],
      "payable": false,
      "stateMutability": "view",
      "type": "function"
    },
    {
      "constant": true,
      "inputs": [
        {
          "internalType": "uint256",
          "name": "epoch",
          "type": "uint256"
        }
      ],
      "name": "getBidToCover",
      "outputs": [
        {
          "internalType": "uint256",
          "name": "",
          "type": "uint256"
        }
      ],
      "payable": false,
      "stateMutability": "view",
      "type": "function"
    },
    {
      "constant": true,
      "inputs": [
        {
          "internalType": "uint256",
          "name": "epoch",
          "type": "uint256"
        }
      ],
      "name": "getMaxExpiryFilled",
      "outputs": [
        {
          "internalType": "uint256",
          "name": "",
          "type": "uint256"
        }
      ],
      "payable": false,
      "stateMutability": "view",
      "type": "function"
    },
    {
      "constant": true,
      "inputs": [
        {
          "internalType": "uint256",
          "name": "epoch",
          "type": "uint256"
        }
      ],
      "name": "getMaxYieldFilled",
      "outputs": [
        {
          "internalType": "uint256",
          "name": "",
          "type": "uint256"
        }
      ],
      "payable": false,
      "stateMutability": "view",
      "type": "function"
    },
    {
      "constant": true,
      "inputs": [
        {
          "internalType": "uint256",
          "name": "epoch",
          "type": "uint256"
        }
      ],
      "name": "getMinExpiryFilled",
      "outputs": [
        {
          "internalType": "uint256",
          "name": "",
          "type": "uint256"
        }
      ],
      "payable": false,
      "stateMutability": "view",
      "type": "function"
    },
    {
      "constant": true,
      "inputs": [
        {
          "internalType": "uint256",
          "name": "epoch",
          "type": "uint256"
        }
      ],
      "name": "getMinYieldFilled",
      "outputs": [
        {
          "internalType": "uint256",
          "name": "",
          "type": "uint256"
        }
      ],
      "payable": false,
      "stateMutability": "view",
      "type": "function"
    },
    {
      "constant": true,
      "inputs": [
        {
          "internalType": "uint256",
          "name": "epoch",
          "type": "uint256"
        }
      ],
      "name": "getTotalAuctioned",
      "outputs": [
        {
          "internalType": "uint256",
          "name": "",
          "type": "uint256"
        }
      ],
      "payable": false,
      "stateMutability": "view",
      "type": "function"
    },
    {
      "constant": true,
      "inputs": [
        {
          "internalType": "uint256",
          "name": "epoch",
          "type": "uint256"
        }
      ],
      "name": "getTotalBurned",
      "outputs": [
        {
          "internalType": "uint256",
          "name": "",
          "type": "uint256"
        }
      ],
      "payable": false,
      "stateMutability": "view",
      "type": "function"
    },
    {
      "constant": true,
      "inputs": [
        {
          "internalType": "uint256",
          "name": "epoch",
          "type": "uint256"
        }
      ],
      "name": "getTotalFilled",
      "outputs": [
        {
          "internalType": "uint256",
          "name": "",
          "type": "uint256"
        }
      ],
      "payable": false,
      "stateMutability": "view",
      "type": "function"
    },
    {
      "constant": true,
      "inputs": [],
      "name": "implementation",
      "outputs": [
        {
          "internalType": "address",
          "name": "impl",
          "type": "address"
        }
      ],
      "payable": false,
      "stateMutability": "view",
      "type": "function"
    },
    {
      "constant": true,
      "inputs": [
        {
          "internalType": "address",
          "name": "candidate",
          "type": "address"
        }
      ],
      "name": "isInitialized",
      "outputs": [
        {
          "internalType": "bool",
          "name": "",
          "type": "bool"
        }
      ],
      "payable": false,
      "stateMutability": "view",
      "type": "function"
    },
    {
      "constant": true,
      "inputs": [
        {
          "internalType": "address",
          "name": "candidate",
          "type": "address"
        }
      ],
      "name": "isNominated",
      "outputs": [
        {
          "internalType": "bool",
          "name": "",
          "type": "bool"
        }
      ],
      "payable": false,
      "stateMutability": "view",
      "type": "function"
    },
    {
      "constant": true,
      "inputs": [
        {
          "internalType": "address",
          "name": "account",
          "type": "address"
        }
      ],
      "name": "lockedUntil",
      "outputs": [
        {
          "internalType": "uint256",
          "name": "",
          "type": "uint256"
        }
      ],
      "payable": false,
      "stateMutability": "view",
      "type": "function"
    },
    {
      "constant": true,
      "inputs": [],
      "name": "name",
      "outputs": [
        {
          "internalType": "string",
          "name": "",
          "type": "string"
        }
      ],
      "payable": false,
      "stateMutability": "view",
      "type": "function"
    },
    {
      "constant": true,
      "inputs": [],
      "name": "oracle",
      "outputs": [
        {
          "internalType": "contract IOracle",
          "name": "",
          "type": "address"
        }
      ],
      "payable": false,
      "stateMutability": "view",
      "type": "function"
    },
    {
      "constant": true,
      "inputs": [
        {
          "internalType": "uint256",
          "name": "epoch",
          "type": "uint256"
        }
      ],
      "name": "outstandingCoupons",
      "outputs": [
        {
          "internalType": "uint256",
          "name": "",
          "type": "uint256"
        }
      ],
      "payable": false,
      "stateMutability": "view",
      "type": "function"
    },
    {
      "constant": true,
      "inputs": [
        {
          "internalType": "address",
          "name": "candidate",
          "type": "address"
        }
      ],
      "name": "periodFor",
      "outputs": [
        {
          "internalType": "uint256",
          "name": "",
          "type": "uint256"
        }
      ],
      "payable": false,
      "stateMutability": "view",
      "type": "function"
    },
    {
      "constant": true,
      "inputs": [],
      "name": "pool",
      "outputs": [
        {
          "internalType": "address",
          "name": "",
          "type": "address"
        }
      ],
      "payable": false,
      "stateMutability": "view",
      "type": "function"
    },
    {
      "constant": true,
      "inputs": [
        {
          "internalType": "address",
          "name": "account",
          "type": "address"
        },
        {
          "internalType": "address",
          "name": "candidate",
          "type": "address"
        }
      ],
      "name": "recordedVote",
      "outputs": [
        {
          "internalType": "enum Candidate.Vote",
          "name": "",
          "type": "uint8"
        }
      ],
      "payable": false,
      "stateMutability": "view",
      "type": "function"
    },
    {
      "constant": true,
      "inputs": [
        {
          "internalType": "address",
          "name": "candidate",
          "type": "address"
        }
      ],
      "name": "rejectFor",
      "outputs": [
        {
          "internalType": "uint256",
          "name": "",
          "type": "uint256"
        }
      ],
      "payable": false,
      "stateMutability": "view",
      "type": "function"
    },
    {
      "constant": true,
      "inputs": [
        {
          "internalType": "address",
          "name": "candidate",
          "type": "address"
        }
      ],
      "name": "startFor",
      "outputs": [
        {
          "internalType": "uint256",
          "name": "",
          "type": "uint256"
        }
      ],
      "payable": false,
      "stateMutability": "view",
      "type": "function"
    },
    {
      "constant": true,
      "inputs": [
        {
          "internalType": "address",
          "name": "account",
          "type": "address"
        }
      ],
      "name": "statusOf",
      "outputs": [
        {
          "internalType": "enum Account.Status",
          "name": "",
          "type": "uint8"
        }
      ],
      "payable": false,
      "stateMutability": "view",
      "type": "function"
    },
    {
      "constant": true,
      "inputs": [],
      "name": "symbol",
      "outputs": [
        {
          "internalType": "string",
          "name": "",
          "type": "string"
        }
      ],
      "payable": false,
      "stateMutability": "view",
      "type": "function"
    },
    {
      "constant": true,
      "inputs": [],
      "name": "totalBonded",
      "outputs": [
        {
          "internalType": "uint256",
          "name": "",
          "type": "uint256"
        }
      ],
      "payable": false,
      "stateMutability": "view",
      "type": "function"
    },
    {
      "constant": true,
      "inputs": [
        {
          "internalType": "uint256",
          "name": "epoch",
          "type": "uint256"
        }
      ],
      "name": "totalBondedAt",
      "outputs": [
        {
          "internalType": "uint256",
          "name": "",
          "type": "uint256"
        }
      ],
      "payable": false,
      "stateMutability": "view",
      "type": "function"
    },
    {
      "constant": true,
      "inputs": [],
      "name": "totalCoupons",
      "outputs": [
        {
          "internalType": "uint256",
          "name": "",
          "type": "uint256"
        }
      ],
      "payable": false,
      "stateMutability": "view",
      "type": "function"
    },
    {
      "constant": true,
      "inputs": [],
      "name": "totalDebt",
      "outputs": [
        {
          "internalType": "uint256",
          "name": "",
          "type": "uint256"
        }
      ],
      "payable": false,
      "stateMutability": "view",
      "type": "function"
    },
    {
      "constant": true,
      "inputs": [],
      "name": "totalNet",
      "outputs": [
        {
          "internalType": "uint256",
          "name": "",
          "type": "uint256"
        }
      ],
      "payable": false,
      "stateMutability": "view",
      "type": "function"
    },
    {
      "constant": true,
      "inputs": [],
      "name": "totalRedeemable",
      "outputs": [
        {
          "internalType": "uint256",
          "name": "",
          "type": "uint256"
        }
      ],
      "payable": false,
      "stateMutability": "view",
      "type": "function"
    },
    {
      "constant": true,
      "inputs": [],
      "name": "totalStaged",
      "outputs": [
        {
          "internalType": "uint256",
          "name": "",
          "type": "uint256"
        }
      ],
      "payable": false,
      "stateMutability": "view",
      "type": "function"
    },
    {
      "constant": true,
      "inputs": [],
      "name": "totalSupply",
      "outputs": [
        {
          "internalType": "uint256",
          "name": "",
          "type": "uint256"
        }
      ],
      "payable": false,
      "stateMutability": "view",
      "type": "function"
    },
    {
      "constant": false,
      "inputs": [
        {
          "internalType": "address",
          "name": "recipient",
          "type": "address"
        },
        {
          "internalType": "uint256",
          "name": "amount",
          "type": "uint256"
        }
      ],
      "name": "transfer",
      "outputs": [
        {
          "internalType": "bool",
          "name": "",
          "type": "bool"
        }
      ],
      "payable": false,
      "stateMutability": "nonpayable",
      "type": "function"
    },
    {
      "constant": false,
      "inputs": [
        {
          "internalType": "address",
          "name": "sender",
          "type": "address"
        },
        {
          "internalType": "address",
          "name": "recipient",
          "type": "address"
        },
        {
          "internalType": "uint256",
          "name": "amount",
          "type": "uint256"
        }
      ],
      "name": "transferFrom",
      "outputs": [
        {
          "internalType": "bool",
          "name": "",
          "type": "bool"
        }
      ],
      "payable": false,
      "stateMutability": "nonpayable",
      "type": "function"
    },
    {
      "constant": true,
      "inputs": [
        {
          "internalType": "address",
          "name": "candidate",
          "type": "address"
        }
      ],
      "name": "votesFor",
      "outputs": [
        {
          "internalType": "uint256",
          "name": "",
          "type": "uint256"
        }
      ],
      "payable": false,
      "stateMutability": "view",
      "type": "function"
    },
    {
      "constant": false,
      "inputs": [],
      "name": "initialize",
      "outputs": [],
      "payable": false,
      "stateMutability": "nonpayable",
      "type": "function"
    },
    {
      "constant": false,
      "inputs": [
        {
          "internalType": "address",
          "name": "implementation",
          "type": "address"
        }
      ],
      "name": "implement",
      "outputs": [],
      "payable": false,
      "stateMutability": "nonpayable",
      "type": "function"
    }
  ],
  "bytecode": "0x608060405234801561001057600080fd5b50612a26806100206000396000f3fe60806040523480156200001157600080fd5b5060043610620003945760003560e01c80637dc0d1d011620001e3578063a9059cbb116200011d578063d60b347f11620000b1578063eeaca09b1162000087578063eeaca09b146200079e578063f1b7cf4914620007b5578063fc7b9c1814620007cc578063ffbe3b7314620007d65762000394565b8063d60b347f146200075f578063dd62ed3e1462000776578063dde74dc314620007875762000394565b8063c9aff70c11620000f3578063c9aff70c1462000710578063cb0fbc711462000727578063cf023779146200073e578063d53c6f5f14620007485762000394565b8063a9059cbb14620003bb578063bc7513e214620006e2578063c34eee6514620006f95762000394565b806397a5d5b511620001955780639f1a0929116200016b5780639f1a092914620006935780639f6e1b2614620006aa578063a50cd8e714620006c1578063a6c409f114620006d85762000394565b806397a5d5b5146200065b5780639a649edc14620006725780639bc289f1146200067c5762000394565b80637dc0d1d014620006055780638129fc1c146200060f578063825ad607146200061957806386cf9f141462000630578063900cf0cf146200064757806395d89b4114620006515762000394565b80633fbba9a611620002d3578063520acb7611620002675780636a39e328116200023d5780636a39e32814620005a957806370a0823114620005c057806375d5024b14620005d75780637d8bb86914620005ee5762000394565b8063520acb7614620005715780635c60da1b14620005885780636466802214620005925762000394565b80634c73609911620002a95780634c73609914620005205780635053e461146200053757806351adeb57146200054157806351bf21d8146200055a5762000394565b80633fbba9a614620004d757806344d96e9514620004fd5780634a96026114620005075762000394565b80631edbcf6c116200034b578063313ce5671162000321578063313ce5671462000479578063353a420c14620004925780633a3e6c8114620004a95780633dc905c714620004c05762000394565b80631edbcf6c146200044157806323b872dd146200044b5780632d7f23b314620004625762000394565b806306fdde031462000399578063095ea7b314620003bb57806310e95b6c14620003e157806315e14bf6146200040757806316f0115b146200041e57806318160ddd1462000437575b600080fd5b620003a3620007ed565b604051620003b291906200171b565b60405180910390f35b620003d2620003cc36600462001424565b62000824565b604051620003b29190620016eb565b620003f8620003f236600462001459565b6200082d565b604051620003b2919062001764565b620003f86200041836600462001368565b62000845565b6200042862000863565b604051620003b29190620016db565b620003f862000872565b620003f862000878565b620003d26200045c366004620013d0565b6200087e565b620003f86200047336600462001459565b62000887565b620004836200089c565b604051620003b2919062001774565b620003f8620004a336600462001368565b620008a1565b620003d2620004ba36600462001368565b620008bf565b620003f8620004d136600462001459565b620008dc565b620004ee620004e836600462001391565b620008f1565b604051620003b291906200170b565b620003f862000924565b6200051e6200051836600462001368565b6200092a565b005b620003f8620005313660046200149b565b62000938565b620003f862000969565b6200054b62000992565b604051620003b29190620016fb565b620003f86200056b36600462001368565b620009a1565b620003f86200058236600462001459565b620009bf565b62000428620009d4565b620003f8620005a336600462001368565b620009f9565b620003f8620005ba36600462001459565b62000a17565b620003f8620005d136600462001368565b62000a2c565b620003d2620005e836600462001459565b62000a4a565b620003f8620005ff36600462001459565b62000a5f565b6200054b62000a74565b6200051e62000a83565b620003f86200062a36600462001368565b62000b97565b620003f86200064136600462001368565b62000bf6565b620003f862000c11565b620003a362000c17565b620004ee6200066c36600462001368565b62000c35565b620003f862000ca2565b620003f86200068d36600462001368565b62000ca8565b620003f8620006a436600462001459565b62000cc6565b620003f8620006bb36600462001391565b62000cdc565b620003f8620006d236600462001368565b62000d0b565b620003f862000d34565b620003f8620006f336600462001424565b62000dd4565b620003f86200070a36600462001459565b62000e1c565b620003f86200072136600462001459565b62000e31565b620003f86200073836600462001459565b62000e46565b620003f862000e5b565b620003f86200075936600462001459565b62000e61565b620003d26200077036600462001368565b62000e76565b620003f8620003cc36600462001391565b620003f86200079836600462001459565b62000e97565b620003f8620007af36600462001459565b62000eac565b620003f8620007c636600462001368565b62000ec1565b620003f862000edc565b620003f8620007e736600462001459565b62000ee2565b60408051808201909152601881527f44796e616d69632053657420446f6c6c6172205374616b650000000000000000602082015290565b60005b92915050565b6000818152600d60205260409020600201545b919050565b6001600160a01b03166000908152600e602052604090206001015490565b600b546001600160a01b031690565b60035490565b60065490565b60009392505050565b6000908152600d60205260409020600a015490565b601290565b6001600160a01b03166000908152600e602052604090206003015490565b6001600160a01b03166000908152600e6020526040902054151590565b6000908152600d60205260409020600e015490565b6001600160a01b038082166000908152600e60209081526040808320938616835260049093019052205460ff1692915050565b60045490565b620009358162000ef4565b50565b6000828152600d602052604081206003018054839081106200095657fe5b9060005260206000200154905092915050565b60006200097562001312565b6200097f62000ff2565b90506200098c8162001023565b91505090565b6009546001600160a01b031690565b6001600160a01b03166000908152600c602052604090206004015490565b6000908152600d602052604090206010015490565b7f360894a13ba1a3210667c828492db98dca3e2076cc3735a920a3ca505d382bbc5490565b6001600160a01b03166000908152600e602052604090206002015490565b6000908152600d602052604090206003015490565b6001600160a01b03166000908152600c602052604090206001015490565b600062000a566200104a565b90911115919050565b6000908152600d602052604090206012015490565b600a546001600160a01b031690565b62000ac162000a9562000770620009d4565b15692832b936b4b9b9b4b7b760b11b72105b1c9958591e481a5b9a5d1a585b1a5e9959606a1b6200104f565b62000ad562000acf620009d4565b620010b2565b62000adf62000992565b60405162000aed9062001333565b62000af99190620016db565b604051809103906000f08015801562000b16573d6000803e3d6000fd5b50600a80546001600160a01b0319166001600160a01b039290921691909117905562000b4162000a74565b6001600160a01b031663ba0bba406040518163ffffffff1660e01b8152600401600060405180830381600087803b15801562000b7c57600080fd5b505af115801562000b91573d6000803e3d6000fd5b50505050565b60008062000ba462000872565b90508062000bb757600091505062000840565b62000bef8162000be262000bcb8662000a2c565b62000bd562000924565b9063ffffffff620010d916565b9063ffffffff6200111916565b9392505050565b6001600160a01b03166000908152600c602052604090205490565b60025490565b6040805180820190915260048152634453445360e01b602082015290565b600062000c4162000c11565b6001600160a01b0383166000908152600c6020526040902060050154111562000c6d5750600262000840565b6001600160a01b0382166000908152600c602052604090206004015462000c9362000c11565b10156200082457600162000827565b60085490565b6001600160a01b03166000908152600c602052604090206005015490565b6000908152600d60208190526040909120015490565b6001600160a01b039182166000908152600c602090815260408083209390941682526003909201909152205490565b60006200082762000d1c83620008a1565b62000d2784620009f9565b9063ffffffff6200115d16565b600062000dcf62000d4462000edc565b62000d4e62000992565b6001600160a01b03166318160ddd6040518163ffffffff1660e01b815260040160206040518083038186803b15801562000d8757600080fd5b505afa15801562000d9c573d6000803e3d6000fd5b505050506040513d601f19601f8201168201806040525062000dc291908101906200147a565b9063ffffffff6200118516565b905090565b600062000de18262000e31565b62000def5750600062000827565b506001600160a01b03919091166000908152600c6020908152604080832093835260029093019052205490565b6000908152600d602052604090206011015490565b6000908152600d602052604090206001015490565b6000908152600d602052604090206013015490565b60055490565b6000908152600d60205260409020600f015490565b6001600160a01b03166000908152600e602052604090206005015460ff1690565b6000908152600d60205260409020600c015490565b6000908152600d60205260409020600b015490565b6001600160a01b03166000908152600e602052604090205490565b60075490565b6000908152600d602052604090205490565b62000eff81620011c9565b60408051600481526024810182526020810180516001600160e01b031663204a7f0760e21b17905290516000916060916001600160a01b0385169162000f459162001696565b600060405180830381855af49150503d806000811462000f82576040519150601f19603f3d011682016040523d82523d6000602084013e62000f87565b606091505b509150915081819062000fb85760405162461bcd60e51b815260040162000faf91906200171b565b60405180910390fd5b506040516001600160a01b038416907fbc7cd75a20ee27fd9adebab32041f755214dbc6bffa90cc0225b39da2e5c2d3b90600090a2505050565b62000ffc62001312565b604051806060016040528060008152602001635fbef0008152602001611c20815250905090565b600062000827826000015162000d27846040015162000be2866020015162000dc262001217565b609690565b82620010ad5762001060826200121b565b6101d160f51b62001071836200121b565b6040516020016200108593929190620016a4565b60408051601f198184030181529082905262461bcd60e51b825262000faf916004016200171b565b505050565b6001600160a01b03166000908152600e60205260409020600501805460ff19166001179055565b600082620010ea5750600062000827565b82820282848281620010f857fe5b041462000bef5760405162461bcd60e51b815260040162000faf9062001740565b600062000bef83836040518060400160405280601a81526020017f536166654d6174683a206469766973696f6e206279207a65726f000000000000815250620012a2565b60008282018381101562000bef5760405162461bcd60e51b815260040162000faf906200172e565b600062000bef83836040518060400160405280601e81526020017f536166654d6174683a207375627472616374696f6e206f766572666c6f770000815250620012dd565b620011d4816200130c565b620011f35760405162461bcd60e51b815260040162000faf9062001752565b7f360894a13ba1a3210667c828492db98dca3e2076cc3735a920a3ca505d382bbc55565b4290565b606080826040516020016200123191906200167f565b60408051601f19818403018152919052905060205b80156200128b578151600019909101908290829081106200126357fe5b01602001516001600160f81b0319161562001285576001018152905062000840565b62001246565b505060408051600081526020810190915292915050565b60008183620012c65760405162461bcd60e51b815260040162000faf91906200171b565b506000838581620012d357fe5b0495945050505050565b60008184841115620013045760405162461bcd60e51b815260040162000faf91906200171b565b505050900390565b3b151590565b60405180606001604052806000815260200160008152602001600081525090565b611192806200185283390190565b803562000827816200182f565b8035620008278162001846565b8051620008278162001846565b6000602082840312156200137b57600080fd5b600062001389848462001341565b949350505050565b60008060408385031215620013a557600080fd5b6000620013b3858562001341565b9250506020620013c68582860162001341565b9150509250929050565b600080600060608486031215620013e657600080fd5b6000620013f4868662001341565b9350506020620014078682870162001341565b92505060406200141a868287016200134e565b9150509250925092565b600080604083850312156200143857600080fd5b600062001446858562001341565b9250506020620013c6858286016200134e565b6000602082840312156200146c57600080fd5b60006200138984846200134e565b6000602082840312156200148d57600080fd5b60006200138984846200135b565b60008060408385031215620014af57600080fd5b60006200144685856200134e565b620014c88162001791565b82525050565b620014c8816200179e565b620014c8620014e882620017a3565b620017b0565b620014c8620014e882620017b0565b60006200150a8262001784565b62001516818562000840565b935062001528818560208601620017eb565b9290920192915050565b620014c881620017d1565b620014c881620017de565b6000620015558262001784565b62001561818562001788565b935062001573818560208601620017eb565b6200157e816200181a565b9093019392505050565b600062001597601b8362001788565b7f536166654d6174683a206164646974696f6e206f766572666c6f770000000000815260200192915050565b6000620015d260218362001788565b7f536166654d6174683a206d756c7469706c69636174696f6e206f766572666c6f8152607760f81b602082015260400192915050565b600062001617603b8362001788565b7f43616e6e6f742073657420612070726f787920696d706c656d656e746174696f81527f6e20746f2061206e6f6e2d636f6e747261637420616464726573730000000000602082015260400192915050565b620014c881620017b0565b620014c881620017cb565b60006200168d8284620014ee565b50602001919050565b600062000bef8284620014fd565b6000620016b28286620014fd565b9150620016c08285620014d9565b600282019150620016d28284620014fd565b95945050505050565b60208101620008278284620014bd565b60208101620008278284620014ce565b6020810162000827828462001532565b602081016200082782846200153d565b6020808252810162000bef818462001548565b60208082528101620008278162001588565b602080825281016200082781620015c3565b60208082528101620008278162001608565b6020810162000827828462001669565b6020810162000827828462001674565b5190565b90815260200190565b60006200082782620017bf565b151590565b6001600160f01b03191690565b90565b80620008408162001824565b6001600160a01b031690565b60ff1690565b6000620008278262001791565b60006200082782620017b3565b60005b8381101562001808578181015183820152602001620017ee565b8381111562000b915750506000910152565b601f01601f191690565b600381106200093557fe5b6200183a8162001791565b81146200093557600080fd5b6200183a81620017b056fe608060405234801561001057600080fd5b5060405161119238038061119283398101604081905261002f91610073565b60008054336001600160a01b031991821617909155600180549091166001600160a01b03929092169190911790556100c1565b805161006d816100aa565b92915050565b60006020828403121561008557600080fd5b60006100918484610062565b949350505050565b60006001600160a01b03821661006d565b6100b381610099565b81146100be57600080fd5b50565b6110c2806100d06000396000f3fe608060405234801561001057600080fd5b506004361061004c5760003560e01c8063a8aa1b3114610051578063ba0bba401461006f578063cd3293de14610079578063d4a3e9d71461008e575b600080fd5b6100596100a4565b6040516100669190610f3d565b60405180910390f35b6100776100b3565b005b610081610307565b6040516100669190610fb2565b61009661030d565b604051610066929190610f97565b6002546001600160a01b031690565b6000546100df906001600160a01b03163314654f7261636c6560d01b664e6f742064616f60c81b610380565b600154735c69bee701ef814a2b6a3edd4b1652cb9cc5aa6f9063c9c65396906001600160a01b031661010f6103e3565b6040518363ffffffff1660e01b815260040161012c929190610f4b565b602060405180830381600087803b15801561014657600080fd5b505af115801561015a573d6000803e3d6000fd5b505050506040513d601f19601f8201168201806040525061017e9190810190610d10565b600280546001600160a01b0319166001600160a01b03928316179081905560408051630dfe168160e01b8152905160009384931691630dfe1681916004808301926020929190829003018186803b1580156101d857600080fd5b505afa1580156101ec573d6000803e3d6000fd5b505050506040513d601f19601f820116820180604052506102109190810190610d10565b600260009054906101000a90046001600160a01b03166001600160a01b031663d21220a76040518163ffffffff1660e01b815260040160206040518083038186803b15801561025e57600080fd5b505afa158015610272573d6000803e3d6000fd5b505050506040513d601f19601f820116820180604052506102969190810190610d10565b60015491935091506001600160a01b038084169116146102b75760016102ba565b60005b60ff1660038190556103039015806102df57506001546001600160a01b038381169116145b654f7261636c6560d01b701130ee1b1b185c881b9bdd08199bdd5b99607a1b610380565b5050565b60065490565b610315610cb4565b60008054610342906001600160a01b03163314654f7261636c6560d01b664e6f742064616f60c81b610380565b600154600160a01b900460ff16156103655761035c6103f2565b9150915061037c565b61036d6104e7565b6103756106f1565b6000915091505b9091565b826103de5761038e82610713565b6101d160f51b61039d83610713565b6040516020016103af93929190610f0c565b60408051601f198184030181529082905262461bcd60e51b82526103d591600401610f66565b60405180910390fd5b505050565b60006103ed610795565b905090565b6103fa610cb4565b6000610404610cb4565b61040c6107ad565b90506000610418610863565b905060006104246103e3565b60025460405163fe575a8760e01b81526001600160a01b039283169263fe575a879261045592911690600401610f3d565b60206040518083038186803b15801561046d57600080fd5b505afa158015610481573d6000803e3d6000fd5b505050506040513d601f19601f820116820180604052506104a59190810190610d36565b905060016104b161091f565b8310156104bc575060005b6104c461091f565b60065410156104d1575060005b81156104db575060005b92945091925050509091565b6002546003546001600160a01b03909116906000901561057757816001600160a01b0316635a3d54936040518163ffffffff1660e01b815260040160206040518083038186803b15801561053a57600080fd5b505afa15801561054e573d6000803e3d6000fd5b505050506040513d601f19601f820116820180604052506105729190810190610da1565b6105e8565b816001600160a01b0316635909c0d56040518163ffffffff1660e01b815260040160206040518083038186803b1580156105b057600080fd5b505afa1580156105c4573d6000803e3d6000fd5b505050506040513d601f19601f820116820180604052506105e89190810190610da1565b90506000806000846001600160a01b0316630902f1ac6040518163ffffffff1660e01b815260040160606040518083038186803b15801561062857600080fd5b505afa15801561063c573d6000803e3d6000fd5b505050506040513d601f19601f820116820180604052506106609190810190610d54565b925092509250826001600160701b031660001415801561068857506001600160701b03821615155b8015610699575063ffffffff811615155b156106ea5760048490556005805463ffffffff831663ffffffff199091161790556001805460ff60a01b1916600160a01b179055600354156106db57826106dd565b815b6001600160701b03166006555b5050505050565b6106f9610cb4565b506040805160208101909152670de0b6b3a7640000815290565b606080826040516020016107279190610ef7565b60408051601f19818403018152919052905060205b801561077c5781516000199091019082908290811061075757fe5b01602001516001600160f81b031916156107775760010181529050610790565b61073c565b505060408051600081526020810190915290505b919050565b73a0b86991c6218b36c1d19d4a2e9eb0ce3606eb4890565b6107b5610cb4565b600254600090819081906107d1906001600160a01b0316610928565b600554600354939650919450925063ffffffff16820390600090156107f657836107f8565b845b9050610802610cb4565b6108238363ffffffff1660045484038161081857fe5b04600160701b610afd565b6005805463ffffffff191663ffffffff87811691909117909155600484905590915061085890829064e8d4a5100090610b2e16565b965050505050505090565b6000806006549050600080600260009054906101000a90046001600160a01b03166001600160a01b0316630902f1ac6040518163ffffffff1660e01b815260040160606040518083038186803b1580156108bc57600080fd5b505afa1580156108d0573d6000803e3d6000fd5b505050506040513d601f19601f820116820180604052506108f49190810190610d54565b5091509150600354600014610909578161090b565b805b6001600160701b0316600655509091505090565b6402540be40090565b6000806000610935610b55565b9050836001600160a01b0316635909c0d56040518163ffffffff1660e01b815260040160206040518083038186803b15801561097057600080fd5b505afa158015610984573d6000803e3d6000fd5b505050506040513d601f19601f820116820180604052506109a89190810190610da1565b9250836001600160a01b0316635a3d54936040518163ffffffff1660e01b815260040160206040518083038186803b1580156109e357600080fd5b505afa1580156109f7573d6000803e3d6000fd5b505050506040513d601f19601f82011682018060405250610a1b9190810190610da1565b91506000806000866001600160a01b0316630902f1ac6040518163ffffffff1660e01b815260040160606040518083038186803b158015610a5b57600080fd5b505afa158015610a6f573d6000803e3d6000fd5b505050506040513d601f19601f82011682018060405250610a939190810190610d54565b9250925092508363ffffffff168163ffffffff1614610af35780840363ffffffff8116610ac08486610b5f565b516001600160e01b031602969096019563ffffffff8116610ae18585610b5f565b516001600160e01b0316029590950194505b5050509193909250565b610b05610cb4565b6040518060200160405280610b2385670de0b6b3a764000086610bda565b905290505b92915050565b610b36610cb4565b604080516020810190915283518190610b23908563ffffffff610c0616565b63ffffffff421690565b610b67610cc7565b6000826001600160701b031611610b905760405162461bcd60e51b81526004016103d590610f87565b6040805160208101909152806001600160701b0384166dffffffffffffffffffffffffffff60701b607087901b1681610bc557fe5b046001600160e01b0316815250905092915050565b6000610bfc82610bf0868663ffffffff610c0616565b9063ffffffff610c4016565b90505b9392505050565b600082610c1557506000610b28565b82820282848281610c2257fe5b0414610bff5760405162461bcd60e51b81526004016103d590610f77565b6000610bff83836040518060400160405280601a81526020017f536166654d6174683a206469766973696f6e206279207a65726f00000000000081525060008183610c9e5760405162461bcd60e51b81526004016103d59190610f66565b506000838581610caa57fe5b0495945050505050565b6040518060200160405280600081525090565b60408051602081019091526000815290565b8051610b2881611044565b8051610b288161105b565b8051610b2881611064565b8051610b288161106d565b8051610b2881611076565b600060208284031215610d2257600080fd5b6000610d2e8484610cd9565b949350505050565b600060208284031215610d4857600080fd5b6000610d2e8484610ce4565b600080600060608486031215610d6957600080fd5b6000610d758686610cef565b9350506020610d8686828701610cef565b9250506040610d9786828701610d05565b9150509250925092565b600060208284031215610db357600080fd5b6000610d2e8484610cfa565b610dc881610fcd565b82525050565b610dc881610fd8565b610dc8610de382610fdd565b610fea565b610dc8610de382610fea565b6000610dff82610fc0565b610e098185610790565b9350610e1981856020860161100e565b9290920192915050565b6000610e2e82610fc0565b610e388185610fc4565b9350610e4881856020860161100e565b610e518161103a565b9093019392505050565b6000610e68602183610fc4565b7f536166654d6174683a206d756c7469706c69636174696f6e206f766572666c6f8152607760f81b602082015260400192915050565b6000610eab601783610fc4565b7f4669786564506f696e743a204449565f42595f5a45524f000000000000000000815260200192915050565b80516020830190610ee88482610eee565b50505050565b610dc881610fea565b6000610f038284610de8565b50602001919050565b6000610f188286610df4565b9150610f248285610dd7565b600282019150610f348284610df4565b95945050505050565b60208101610b288284610dbf565b60408101610f598285610dbf565b610bff6020830184610dbf565b60208082528101610bff8184610e23565b60208082528101610b2881610e5b565b60208082528101610b2881610e9e565b60408101610fa58285610ed7565b610bff6020830184610dce565b60208101610b288284610eee565b5190565b90815260200190565b6000610b2882610ff9565b151590565b6001600160f01b03191690565b90565b6001600160701b031690565b6001600160a01b031690565b63ffffffff1690565b60005b83811015611029578181015183820152602001611011565b83811115610ee85750506000910152565b601f01601f191690565b61104d81610fcd565b811461105857600080fd5b50565b61104d81610fd8565b61104d81610fed565b61104d81610fea565b61104d8161100556fea365627a7a723158208a155a521af2143eafb6ef685f809e1da8495087aec3f382b40685035151bcc66c6578706572696d656e74616cf564736f6c63430005110040a365627a7a7231582058559fa403adaa80c1bbbd54cc213a179479304db62fa8f0853e4fff9d3142bf6c6578706572696d656e74616cf564736f6c63430005110040",
  "source": "/*\n    Copyright 2020 Dynamic Dollar Devs, based on the works of the Empty Set Squad\n\n    Licensed under the Apache License, Version 2.0 (the \"License\");\n    you may not use this file except in compliance with the License.\n    You may obtain a copy of the License at\n\n    http://www.apache.org/licenses/LICENSE-2.0\n\n    Unless required by applicable law or agreed to in writing, software\n    distributed under the License is distributed on an \"AS IS\" BASIS,\n    WITHOUT WARRANTIES OR CONDITIONS OF ANY KIND, either express or implied.\n    See the License for the specific language governing permissions and\n    limitations under the License.\n*/\n\npragma solidity ^0.5.17;\npragma experimental ABIEncoderV2;\n\nimport \"../external/Decimal.sol\";\nimport \"../token/Dollar.sol\";\nimport \"../oracle/Oracle.sol\";\nimport \"../oracle/Pool.sol\";\nimport \"./Upgradeable.sol\";\nimport \"./Permission.sol\";\n\n\ncontract Deployer1 is State, Permission, Upgradeable {\n    function initialize() initializer public {\n        _state.provider.dollar = new Dollar();\n    }\n\n    function implement(address implementation) external {\n        upgradeTo(implementation);\n    }\n}\n\ncontract Deployer2 is State, Permission, Upgradeable {\n    function initialize() initializer public {\n        _state.provider.oracle = new Oracle(address(dollar()));\n        oracle().setup();\n    }\n\n    function implement(address implementation) external {\n        upgradeTo(implementation);\n    }\n}\n\ncontract Deployer3 is State, Permission, Upgradeable {\n    function initialize() initializer public {\n        _state.provider.pool = address(new Pool(address(dollar()), address(oracle().pair())));\n    }\n\n    function implement(address implementation) external {\n        upgradeTo(implementation);\n    }\n}",
  "sourcePath": "/Users/cinquemb/Documents/Startups/crypto/dollar/protocol/contracts/dao/Deployer.sol",
  "compiler": {
    "name": "solc",
    "version": "0.5.17+commit.d19bba13.Emscripten.clang"
  },
  "schemaVersion": "3.3.3",
  "updatedAt": "2021-01-13T12:52:37.192Z",
  "devdoc": {
    "methods": {}
  },
  "userdoc": {
    "methods": {
      "balanceOfStaged(address)": {
        "notice": "Account"
      },
      "dollar()": {
        "notice": "Global"
      },
      "epoch()": {
        "notice": "Epoch"
      },
      "name()": {
        "notice": "ERC20 Interface"
      },
      "recordedVote(address,address)": {
        "notice": "Governance"
      },
      "transfer(address,uint256)": {
        "notice": "ERC20 Interface"
      }
    }
  }
}