{
  "contractName": "Getters",
  "abi": [
    {
      "constant": true,
      "inputs": [],
      "name": "name",
      "outputs": [
        {
          "internalType": "string",
          "name": "",
          "type": "string"
        }
      ],
      "payable": false,
      "stateMutability": "view",
      "type": "function"
    },
    {
      "constant": true,
      "inputs": [],
      "name": "symbol",
      "outputs": [
        {
          "internalType": "string",
          "name": "",
          "type": "string"
        }
      ],
      "payable": false,
      "stateMutability": "view",
      "type": "function"
    },
    {
      "constant": true,
      "inputs": [],
      "name": "decimals",
      "outputs": [
        {
          "internalType": "uint8",
          "name": "",
          "type": "uint8"
        }
      ],
      "payable": false,
      "stateMutability": "view",
      "type": "function"
    },
    {
      "constant": true,
      "inputs": [
        {
          "internalType": "address",
          "name": "account",
          "type": "address"
        }
      ],
      "name": "balanceOf",
      "outputs": [
        {
          "internalType": "uint256",
          "name": "",
          "type": "uint256"
        }
      ],
      "payable": false,
      "stateMutability": "view",
      "type": "function"
    },
    {
      "constant": true,
      "inputs": [],
      "name": "totalSupply",
      "outputs": [
        {
          "internalType": "uint256",
          "name": "",
          "type": "uint256"
        }
      ],
      "payable": false,
      "stateMutability": "view",
      "type": "function"
    },
    {
      "constant": true,
      "inputs": [
        {
          "internalType": "address",
          "name": "owner",
          "type": "address"
        },
        {
          "internalType": "address",
          "name": "spender",
          "type": "address"
        }
      ],
      "name": "allowance",
      "outputs": [
        {
          "internalType": "uint256",
          "name": "",
          "type": "uint256"
        }
      ],
      "payable": false,
      "stateMutability": "view",
      "type": "function"
    },
    {
      "constant": true,
      "inputs": [],
      "name": "dollar",
      "outputs": [
        {
          "internalType": "contract IDollar",
          "name": "",
          "type": "address"
        }
      ],
      "payable": false,
      "stateMutability": "view",
      "type": "function"
    },
    {
      "constant": true,
      "inputs": [],
      "name": "oracle",
      "outputs": [
        {
          "internalType": "contract IOracle",
          "name": "",
          "type": "address"
        }
      ],
      "payable": false,
      "stateMutability": "view",
      "type": "function"
    },
    {
      "constant": true,
      "inputs": [],
      "name": "pool",
      "outputs": [
        {
          "internalType": "address",
          "name": "",
          "type": "address"
        }
      ],
      "payable": false,
      "stateMutability": "view",
      "type": "function"
    },
    {
      "constant": true,
      "inputs": [],
      "name": "totalBonded",
      "outputs": [
        {
          "internalType": "uint256",
          "name": "",
          "type": "uint256"
        }
      ],
      "payable": false,
      "stateMutability": "view",
      "type": "function"
    },
    {
      "constant": true,
      "inputs": [],
      "name": "totalStaged",
      "outputs": [
        {
          "internalType": "uint256",
          "name": "",
          "type": "uint256"
        }
      ],
      "payable": false,
      "stateMutability": "view",
      "type": "function"
    },
    {
      "constant": true,
      "inputs": [],
      "name": "totalDebt",
      "outputs": [
        {
          "internalType": "uint256",
          "name": "",
          "type": "uint256"
        }
      ],
      "payable": false,
      "stateMutability": "view",
      "type": "function"
    },
    {
      "constant": true,
      "inputs": [],
      "name": "totalRedeemable",
      "outputs": [
        {
          "internalType": "uint256",
          "name": "",
          "type": "uint256"
        }
      ],
      "payable": false,
      "stateMutability": "view",
      "type": "function"
    },
    {
      "constant": true,
      "inputs": [],
      "name": "totalCoupons",
      "outputs": [
        {
          "internalType": "uint256",
          "name": "",
          "type": "uint256"
        }
      ],
      "payable": false,
      "stateMutability": "view",
      "type": "function"
    },
    {
      "constant": true,
      "inputs": [],
      "name": "totalNet",
      "outputs": [
        {
          "internalType": "uint256",
          "name": "",
          "type": "uint256"
        }
      ],
      "payable": false,
      "stateMutability": "view",
      "type": "function"
    },
    {
      "constant": true,
      "inputs": [
        {
          "internalType": "address",
          "name": "account",
          "type": "address"
        }
      ],
      "name": "balanceOfStaged",
      "outputs": [
        {
          "internalType": "uint256",
          "name": "",
          "type": "uint256"
        }
      ],
      "payable": false,
      "stateMutability": "view",
      "type": "function"
    },
    {
      "constant": true,
      "inputs": [
        {
          "internalType": "address",
          "name": "account",
          "type": "address"
        }
      ],
      "name": "balanceOfBonded",
      "outputs": [
        {
          "internalType": "uint256",
          "name": "",
          "type": "uint256"
        }
      ],
      "payable": false,
      "stateMutability": "view",
      "type": "function"
    },
    {
      "constant": true,
      "inputs": [
        {
          "internalType": "address",
          "name": "account",
          "type": "address"
        },
        {
          "internalType": "uint256",
          "name": "epoch",
          "type": "uint256"
        }
      ],
      "name": "balanceOfCoupons",
      "outputs": [
        {
          "internalType": "uint256",
          "name": "",
          "type": "uint256"
        }
      ],
      "payable": false,
      "stateMutability": "view",
      "type": "function"
    },
    {
      "constant": true,
      "inputs": [
        {
          "internalType": "address",
          "name": "account",
          "type": "address"
        }
      ],
      "name": "statusOf",
      "outputs": [
        {
          "internalType": "enum Account.Status",
          "name": "",
          "type": "uint8"
        }
      ],
      "payable": false,
      "stateMutability": "view",
      "type": "function"
    },
    {
      "constant": true,
      "inputs": [
        {
          "internalType": "address",
          "name": "account",
          "type": "address"
        }
      ],
      "name": "fluidUntil",
      "outputs": [
        {
          "internalType": "uint256",
          "name": "",
          "type": "uint256"
        }
      ],
      "payable": false,
      "stateMutability": "view",
      "type": "function"
    },
    {
      "constant": true,
      "inputs": [
        {
          "internalType": "address",
          "name": "account",
          "type": "address"
        }
      ],
      "name": "lockedUntil",
      "outputs": [
        {
          "internalType": "uint256",
          "name": "",
          "type": "uint256"
        }
      ],
      "payable": false,
      "stateMutability": "view",
      "type": "function"
    },
    {
      "constant": true,
      "inputs": [
        {
          "internalType": "address",
          "name": "owner",
          "type": "address"
        },
        {
          "internalType": "address",
          "name": "spender",
          "type": "address"
        }
      ],
      "name": "allowanceCoupons",
      "outputs": [
        {
          "internalType": "uint256",
          "name": "",
          "type": "uint256"
        }
      ],
      "payable": false,
      "stateMutability": "view",
      "type": "function"
    },
    {
      "constant": true,
      "inputs": [],
      "name": "epoch",
      "outputs": [
        {
          "internalType": "uint256",
          "name": "",
          "type": "uint256"
        }
      ],
      "payable": false,
      "stateMutability": "view",
      "type": "function"
    },
    {
      "constant": true,
      "inputs": [],
      "name": "epochTime",
      "outputs": [
        {
          "internalType": "uint256",
          "name": "",
          "type": "uint256"
        }
      ],
      "payable": false,
      "stateMutability": "view",
      "type": "function"
    },
    {
      "constant": true,
      "inputs": [
        {
          "internalType": "uint256",
          "name": "epoch",
          "type": "uint256"
        }
      ],
      "name": "outstandingCoupons",
      "outputs": [
        {
          "internalType": "uint256",
          "name": "",
          "type": "uint256"
        }
      ],
      "payable": false,
      "stateMutability": "view",
      "type": "function"
    },
    {
      "constant": true,
      "inputs": [
        {
          "internalType": "uint256",
          "name": "epoch",
          "type": "uint256"
        }
      ],
      "name": "couponsExpiration",
      "outputs": [
        {
          "internalType": "uint256",
          "name": "",
          "type": "uint256"
        }
      ],
      "payable": false,
      "stateMutability": "view",
      "type": "function"
    },
    {
      "constant": true,
      "inputs": [
        {
          "internalType": "uint256",
          "name": "epoch",
          "type": "uint256"
        }
      ],
      "name": "expiringCoupons",
      "outputs": [
        {
          "internalType": "uint256",
          "name": "",
          "type": "uint256"
        }
      ],
      "payable": false,
      "stateMutability": "view",
      "type": "function"
    },
    {
      "constant": true,
      "inputs": [
        {
          "internalType": "uint256",
          "name": "epoch",
          "type": "uint256"
        },
        {
          "internalType": "uint256",
          "name": "i",
          "type": "uint256"
        }
      ],
      "name": "expiringCouponsAtIndex",
      "outputs": [
        {
          "internalType": "uint256",
          "name": "",
          "type": "uint256"
        }
      ],
      "payable": false,
      "stateMutability": "view",
      "type": "function"
    },
    {
      "constant": true,
      "inputs": [
        {
          "internalType": "uint256",
          "name": "epoch",
          "type": "uint256"
        }
      ],
      "name": "totalBondedAt",
      "outputs": [
        {
          "internalType": "uint256",
          "name": "",
          "type": "uint256"
        }
      ],
      "payable": false,
      "stateMutability": "view",
      "type": "function"
    },
    {
      "constant": true,
      "inputs": [
        {
          "internalType": "uint256",
          "name": "epoch",
          "type": "uint256"
        }
      ],
      "name": "bootstrappingAt",
      "outputs": [
        {
          "internalType": "bool",
          "name": "",
          "type": "bool"
        }
      ],
      "payable": false,
      "stateMutability": "view",
      "type": "function"
    },
    {
      "constant": true,
      "inputs": [
        {
          "internalType": "uint256",
          "name": "epoch",
          "type": "uint256"
        }
      ],
      "name": "getMinExpiryFilled",
      "outputs": [
        {
          "internalType": "uint256",
          "name": "",
          "type": "uint256"
        }
      ],
      "payable": false,
      "stateMutability": "view",
      "type": "function"
    },
    {
      "constant": true,
      "inputs": [
        {
          "internalType": "uint256",
          "name": "epoch",
          "type": "uint256"
        }
      ],
      "name": "getMaxExpiryFilled",
      "outputs": [
        {
          "internalType": "uint256",
          "name": "",
          "type": "uint256"
        }
      ],
      "payable": false,
      "stateMutability": "view",
      "type": "function"
    },
    {
      "constant": true,
      "inputs": [
        {
          "internalType": "uint256",
          "name": "epoch",
          "type": "uint256"
        }
      ],
      "name": "getAvgExpiryFilled",
      "outputs": [
        {
          "internalType": "uint256",
          "name": "",
          "type": "uint256"
        }
      ],
      "payable": false,
      "stateMutability": "view",
      "type": "function"
    },
    {
      "constant": true,
      "inputs": [
        {
          "internalType": "uint256",
          "name": "epoch",
          "type": "uint256"
        }
      ],
      "name": "getMinYieldFilled",
      "outputs": [
        {
          "internalType": "uint256",
          "name": "",
          "type": "uint256"
        }
      ],
      "payable": false,
      "stateMutability": "view",
      "type": "function"
    },
    {
      "constant": true,
      "inputs": [
        {
          "internalType": "uint256",
          "name": "epoch",
          "type": "uint256"
        }
      ],
      "name": "getMaxYieldFilled",
      "outputs": [
        {
          "internalType": "uint256",
          "name": "",
          "type": "uint256"
        }
      ],
      "payable": false,
      "stateMutability": "view",
      "type": "function"
    },
    {
      "constant": true,
      "inputs": [
        {
          "internalType": "uint256",
          "name": "epoch",
          "type": "uint256"
        }
      ],
      "name": "getAvgYieldFilled",
      "outputs": [
        {
          "internalType": "uint256",
          "name": "",
          "type": "uint256"
        }
      ],
      "payable": false,
      "stateMutability": "view",
      "type": "function"
    },
    {
      "constant": true,
      "inputs": [
        {
          "internalType": "uint256",
          "name": "epoch",
          "type": "uint256"
        }
      ],
      "name": "getBidToCover",
      "outputs": [
        {
          "internalType": "uint256",
          "name": "",
          "type": "uint256"
        }
      ],
      "payable": false,
      "stateMutability": "view",
      "type": "function"
    },
    {
      "constant": true,
      "inputs": [
        {
          "internalType": "uint256",
          "name": "epoch",
          "type": "uint256"
        }
      ],
      "name": "getTotalFilled",
      "outputs": [
        {
          "internalType": "uint256",
          "name": "",
          "type": "uint256"
        }
      ],
      "payable": false,
      "stateMutability": "view",
      "type": "function"
    },
    {
      "constant": true,
      "inputs": [
        {
          "internalType": "uint256",
          "name": "epoch",
          "type": "uint256"
        }
      ],
      "name": "getTotalAuctioned",
      "outputs": [
        {
          "internalType": "uint256",
          "name": "",
          "type": "uint256"
        }
      ],
      "payable": false,
      "stateMutability": "view",
      "type": "function"
    },
    {
      "constant": true,
      "inputs": [
        {
          "internalType": "uint256",
          "name": "epoch",
          "type": "uint256"
        }
      ],
      "name": "getTotalBurned",
      "outputs": [
        {
          "internalType": "uint256",
          "name": "",
          "type": "uint256"
        }
      ],
      "payable": false,
      "stateMutability": "view",
      "type": "function"
    },
    {
      "constant": true,
      "inputs": [
        {
          "internalType": "address",
          "name": "account",
          "type": "address"
        },
        {
          "internalType": "address",
          "name": "candidate",
          "type": "address"
        }
      ],
      "name": "recordedVote",
      "outputs": [
        {
          "internalType": "enum Candidate.Vote",
          "name": "",
          "type": "uint8"
        }
      ],
      "payable": false,
      "stateMutability": "view",
      "type": "function"
    },
    {
      "constant": true,
      "inputs": [
        {
          "internalType": "address",
          "name": "candidate",
          "type": "address"
        }
      ],
      "name": "startFor",
      "outputs": [
        {
          "internalType": "uint256",
          "name": "",
          "type": "uint256"
        }
      ],
      "payable": false,
      "stateMutability": "view",
      "type": "function"
    },
    {
      "constant": true,
      "inputs": [
        {
          "internalType": "address",
          "name": "candidate",
          "type": "address"
        }
      ],
      "name": "periodFor",
      "outputs": [
        {
          "internalType": "uint256",
          "name": "",
          "type": "uint256"
        }
      ],
      "payable": false,
      "stateMutability": "view",
      "type": "function"
    },
    {
      "constant": true,
      "inputs": [
        {
          "internalType": "address",
          "name": "candidate",
          "type": "address"
        }
      ],
      "name": "approveFor",
      "outputs": [
        {
          "internalType": "uint256",
          "name": "",
          "type": "uint256"
        }
      ],
      "payable": false,
      "stateMutability": "view",
      "type": "function"
    },
    {
      "constant": true,
      "inputs": [
        {
          "internalType": "address",
          "name": "candidate",
          "type": "address"
        }
      ],
      "name": "rejectFor",
      "outputs": [
        {
          "internalType": "uint256",
          "name": "",
          "type": "uint256"
        }
      ],
      "payable": false,
      "stateMutability": "view",
      "type": "function"
    },
    {
      "constant": true,
      "inputs": [
        {
          "internalType": "address",
          "name": "candidate",
          "type": "address"
        }
      ],
      "name": "votesFor",
      "outputs": [
        {
          "internalType": "uint256",
          "name": "",
          "type": "uint256"
        }
      ],
      "payable": false,
      "stateMutability": "view",
      "type": "function"
    },
    {
      "constant": true,
      "inputs": [
        {
          "internalType": "address",
          "name": "candidate",
          "type": "address"
        }
      ],
      "name": "isNominated",
      "outputs": [
        {
          "internalType": "bool",
          "name": "",
          "type": "bool"
        }
      ],
      "payable": false,
      "stateMutability": "view",
      "type": "function"
    },
    {
      "constant": true,
      "inputs": [
        {
          "internalType": "address",
          "name": "candidate",
          "type": "address"
        }
      ],
      "name": "isInitialized",
      "outputs": [
        {
          "internalType": "bool",
          "name": "",
          "type": "bool"
        }
      ],
      "payable": false,
      "stateMutability": "view",
      "type": "function"
    },
    {
      "constant": true,
      "inputs": [],
      "name": "implementation",
      "outputs": [
        {
          "internalType": "address",
          "name": "impl",
          "type": "address"
        }
      ],
      "payable": false,
      "stateMutability": "view",
      "type": "function"
    }
  ],
  "bytecode": "0x608060405234801561001057600080fd5b50611106806100206000396000f3fe608060405234801561001057600080fd5b50600436106102bb5760003560e01c80637dc0d1d011610182578063bc7513e2116100e9578063d60b347f116100a2578063eeaca09b1161007c578063eeaca09b146105d6578063f1b7cf49146105e9578063fc7b9c18146105fc578063ffbe3b7314610604576102bb565b8063d60b347f1461059d578063dd62ed3e146105b0578063dde74dc3146105c3576102bb565b8063bc7513e214610536578063c34eee6514610549578063c9aff70c1461055c578063cb0fbc711461056f578063cf02377914610582578063d53c6f5f1461058a576102bb565b80639a649edc1161013b5780639a649edc146104da5780639bc289f1146104e25780639f1a0929146104f55780639f6e1b2614610508578063a50cd8e71461051b578063a6c409f11461052e576102bb565b80637dc0d1d014610489578063825ad6071461049157806386cf9f14146104a4578063900cf0cf146104b757806395d89b41146104bf57806397a5d5b5146104c7576102bb565b806344d96e95116102265780635c60da1b116101df5780635c60da1b14610422578063646680221461042a5780636a39e3281461043d57806370a082311461045057806375d5024b146104635780637d8bb86914610476576102bb565b806344d96e95146103c45780634c736099146103cc5780635053e461146103df57806351adeb57146103e757806351bf21d8146103fc578063520acb761461040f576102bb565b80632d7f23b3116102785780632d7f23b314610336578063313ce56714610349578063353a420c1461035e5780633a3e6c81146103715780633dc905c7146103915780633fbba9a6146103a4576102bb565b806306fdde03146102c057806310e95b6c146102de57806315e14bf6146102fe57806316f0115b1461031157806318160ddd146103265780631edbcf6c1461032e575b600080fd5b6102c8610617565b6040516102d59190610fc0565b60405180910390f35b6102f16102ec366004610e3d565b61064e565b6040516102d59190610ff1565b6102f161030c366004610dad565b610666565b610319610684565b6040516102d59190610f88565b6102f1610693565b6102f1610699565b6102f1610344366004610e3d565b61069f565b6103516106b4565b6040516102d59190610fff565b6102f161036c366004610dad565b6106b9565b61038461037f366004610dad565b6106d7565b6040516102d59190610f96565b6102f161039f366004610e3d565b6106f4565b6103b76103b2366004610dd3565b610709565b6040516102d59190610fb2565b6102f161073d565b6102f16103da366004610e79565b610743565b6102f1610773565b6103ef610796565b6040516102d59190610fa4565b6102f161040a366004610dad565b6107a5565b6102f161041d366004610e3d565b6107c3565b6103196107d8565b6102f1610438366004610dad565b6107fd565b6102f161044b366004610e3d565b61081b565b6102f161045e366004610dad565b610830565b610384610471366004610e3d565b61084e565b6102f1610484366004610e3d565b610861565b6103ef610876565b6102f161049f366004610dad565b610885565b6102f16104b2366004610dad565b6108d8565b6102f16108f3565b6102c86108f9565b6103b76104d5366004610dad565b610917565b6102f1610984565b6102f16104f0366004610dad565b61098a565b6102f1610503366004610e3d565b6109a8565b6102f1610516366004610dd3565b6109be565b6102f1610529366004610dad565b6109ed565b6102f1610a10565b6102f1610544366004610e0d565b610aa6565b6102f1610557366004610e3d565b610aea565b6102f161056a366004610e3d565b610aff565b6102f161057d366004610e3d565b610b14565b6102f1610b29565b6102f1610598366004610e3d565b610b2f565b6103846105ab366004610dad565b610b44565b6102f16105be366004610dd3565b61097c565b6102f16105d1366004610e3d565b610b65565b6102f16105e4366004610e3d565b610b7a565b6102f16105f7366004610dad565b610b8f565b6102f1610baa565b6102f1610612366004610e3d565b610bb0565b60408051808201909152601881527f44796e616d69632053657420446f6c6c6172205374616b650000000000000000602082015290565b6000818152600d60205260409020600201545b919050565b6001600160a01b03166000908152600e602052604090206001015490565b600b546001600160a01b031690565b60035490565b60065490565b6000908152600d60205260409020600a015490565b601290565b6001600160a01b03166000908152600e602052604090206003015490565b6001600160a01b03166000908152600e6020526040902054151590565b6000908152600d60205260409020600e015490565b6001600160a01b038082166000908152600e60209081526040808320938616835260049093019052205460ff165b92915050565b60045490565b6000828152600d6020526040812060030180548390811061076057fe5b9060005260206000200154905092915050565b600061077d610d6b565b610785610bc2565b905061079081610bf1565b91505090565b6009546001600160a01b031690565b6001600160a01b03166000908152600c602052604090206004015490565b6000908152600d602052604090206010015490565b7f360894a13ba1a3210667c828492db98dca3e2076cc3735a920a3ca505d382bbc5490565b6001600160a01b03166000908152600e602052604090206002015490565b6000908152600d602052604090206003015490565b6001600160a01b03166000908152600c602052604090206001015490565b6000610858610c13565b90911115919050565b6000908152600d602052604090206012015490565b600a546001600160a01b031690565b600080610890610693565b9050806108a1576000915050610661565b6108d1816108c56108b186610830565b6108b961073d565b9063ffffffff610c1816565b9063ffffffff610c5b16565b9392505050565b6001600160a01b03166000908152600c602052604090205490565b60025490565b6040805180820190915260048152634453445360e01b602082015290565b60006109216108f3565b6001600160a01b0383166000908152600c6020526040902060050154111561094b57506002610661565b6001600160a01b0382166000908152600c602052604090206004015461096f6108f3565b101561097c576001610737565b600092915050565b60085490565b6001600160a01b03166000908152600c602052604090206005015490565b6000908152600d60208190526040909120015490565b6001600160a01b039182166000908152600c602090815260408083209390941682526003909201909152205490565b60006107376109fb836106b9565b610a04846107fd565b9063ffffffff610c9d16565b6000610aa1610a1d610baa565b610a25610796565b6001600160a01b03166318160ddd6040518163ffffffff1660e01b815260040160206040518083038186803b158015610a5d57600080fd5b505afa158015610a71573d6000803e3d6000fd5b505050506040513d601f19601f82011682018060405250610a959190810190610e5b565b9063ffffffff610cc216565b905090565b6000610ab182610aff565b610abd57506000610737565b506001600160a01b03919091166000908152600c6020908152604080832093835260029093019052205490565b6000908152600d602052604090206011015490565b6000908152600d602052604090206001015490565b6000908152600d602052604090206013015490565b60055490565b6000908152600d60205260409020600f015490565b6001600160a01b03166000908152600e602052604090206005015460ff1690565b6000908152600d60205260409020600c015490565b6000908152600d60205260409020600b015490565b6001600160a01b03166000908152600e602052604090205490565b60075490565b6000908152600d602052604090205490565b610bca610d6b565b604051806060016040528060008152602001635fbef0008152602001611c20815250905090565b60006107378260000151610a0484604001516108c58660200151610a95610d04565b609690565b600082610c2757506000610737565b82820282848281610c3457fe5b04146108d15760405162461bcd60e51b8152600401610c5290610fe1565b60405180910390fd5b60006108d183836040518060400160405280601a81526020017f536166654d6174683a206469766973696f6e206279207a65726f000000000000815250610d08565b6000828201838110156108d15760405162461bcd60e51b8152600401610c5290610fd1565b60006108d183836040518060400160405280601e81526020017f536166654d6174683a207375627472616374696f6e206f766572666c6f770000815250610d3f565b4290565b60008183610d295760405162461bcd60e51b8152600401610c529190610fc0565b506000838581610d3557fe5b0495945050505050565b60008184841115610d635760405162461bcd60e51b8152600401610c529190610fc0565b505050900390565b60405180606001604052806000815260200160008152602001600081525090565b8035610737816110a6565b8035610737816110ba565b8051610737816110ba565b600060208284031215610dbf57600080fd5b6000610dcb8484610d8c565b949350505050565b60008060408385031215610de657600080fd5b6000610df28585610d8c565b9250506020610e0385828601610d8c565b9150509250929050565b60008060408385031215610e2057600080fd5b6000610e2c8585610d8c565b9250506020610e0385828601610d97565b600060208284031215610e4f57600080fd5b6000610dcb8484610d97565b600060208284031215610e6d57600080fd5b6000610dcb8484610da2565b60008060408385031215610e8c57600080fd5b6000610e2c8585610d97565b610ea18161101a565b82525050565b610ea181611025565b610ea181611049565b610ea181611054565b6000610ecd8261100d565b610ed78185611011565b9350610ee781856020860161105f565b610ef08161108f565b9093019392505050565b6000610f07601b83611011565b7f536166654d6174683a206164646974696f6e206f766572666c6f770000000000815260200192915050565b6000610f40602183611011565b7f536166654d6174683a206d756c7469706c69636174696f6e206f766572666c6f8152607760f81b602082015260400192915050565b610ea181611040565b610ea181611043565b602081016107378284610e98565b602081016107378284610ea7565b602081016107378284610eb0565b602081016107378284610eb9565b602080825281016108d18184610ec2565b6020808252810161073781610efa565b6020808252810161073781610f33565b602081016107378284610f76565b602081016107378284610f7f565b5190565b90815260200190565b600061073782611034565b151590565b8061066181611099565b6001600160a01b031690565b90565b60ff1690565b60006107378261101a565b60006107378261102a565b60005b8381101561107a578181015183820152602001611062565b83811115611089576000848401525b50505050565b601f01601f191690565b600381106110a357fe5b50565b6110af8161101a565b81146110a357600080fd5b6110af8161104056fea365627a7a72315820a543a27fe29566eabb1dd9a0c6d07a82aae2f0dcfdd971c25df919ba78da312f6c6578706572696d656e74616cf564736f6c63430005110040",
  "source": "/*\n    Copyright 2020 Dynamic Dollar Devs, based on the works of the Empty Set Squad\n\n    Licensed under the Apache License, Version 2.0 (the \"License\");\n    you may not use this file except in compliance with the License.\n    You may obtain a copy of the License at\n\n    http://www.apache.org/licenses/LICENSE-2.0\n\n    Unless required by applicable law or agreed to in writing, software\n    distributed under the License is distributed on an \"AS IS\" BASIS,\n    WITHOUT WARRANTIES OR CONDITIONS OF ANY KIND, either express or implied.\n    See the License for the specific language governing permissions and\n    limitations under the License.\n*/\n\npragma solidity ^0.5.17;\npragma experimental ABIEncoderV2;\n\nimport \"@openzeppelin/contracts/math/SafeMath.sol\";\nimport \"./State.sol\";\nimport \"../Constants.sol\";\n\ncontract Getters is State {\n    using SafeMath for uint256;\n    using Decimal for Decimal.D256;\n\n    bytes32 private constant IMPLEMENTATION_SLOT = 0x360894a13ba1a3210667c828492db98dca3e2076cc3735a920a3ca505d382bbc;\n\n    /**\n     * ERC20 Interface\n     */\n\n    function name() public view returns (string memory) {\n        return \"Dynamic Set Dollar Stake\";\n    }\n\n    function symbol() public view returns (string memory) {\n        return \"DSDS\";\n    }\n\n    function decimals() public view returns (uint8) {\n        return 18;\n    }\n\n    function balanceOf(address account) public view returns (uint256) {\n        return _state.accounts[account].balance;\n    }\n\n    function totalSupply() public view returns (uint256) {\n        return _state.balance.supply;\n    }\n\n    function allowance(address owner, address spender) external view returns (uint256) {\n        return 0;\n    }\n\n    /**\n     * Global\n     */\n\n    function dollar() public view returns (IDollar) {\n        return _state.provider.dollar;\n    }\n\n    function oracle() public view returns (IOracle) {\n        return _state.provider.oracle;\n    }\n\n    function pool() public view returns (address) {\n        return _state.provider.pool;\n    }\n\n    function totalBonded() public view returns (uint256) {\n        return _state.balance.bonded;\n    }\n\n    function totalStaged() public view returns (uint256) {\n        return _state.balance.staged;\n    }\n\n    function totalDebt() public view returns (uint256) {\n        return _state.balance.debt;\n    }\n\n    function totalRedeemable() public view returns (uint256) {\n        return _state.balance.redeemable;\n    }\n\n    function totalCoupons() public view returns (uint256) {\n        return _state.balance.coupons;\n    }\n\n    function totalNet() public view returns (uint256) {\n        return dollar().totalSupply().sub(totalDebt());\n    }\n\n    /**\n     * Account\n     */\n\n    function balanceOfStaged(address account) public view returns (uint256) {\n        return _state.accounts[account].staged;\n    }\n\n    function balanceOfBonded(address account) public view returns (uint256) {\n        uint256 totalSupply = totalSupply();\n        if (totalSupply == 0) {\n            return 0;\n        }\n        return totalBonded().mul(balanceOf(account)).div(totalSupply);\n    }\n\n    function balanceOfCoupons(address account, uint256 epoch) public view returns (uint256) {\n        if (outstandingCoupons(epoch) == 0) {\n            return 0;\n        }\n        return _state.accounts[account].coupons[epoch];\n    }\n\n    function statusOf(address account) public view returns (Account.Status) {\n        if (_state.accounts[account].lockedUntil > epoch()) {\n            return Account.Status.Locked;\n        }\n\n        return epoch() >= _state.accounts[account].fluidUntil ? Account.Status.Frozen : Account.Status.Fluid;\n    }\n\n    function fluidUntil(address account) public view returns (uint256) {\n        return _state.accounts[account].fluidUntil;\n    }\n\n    function lockedUntil(address account) public view returns (uint256) {\n        return _state.accounts[account].lockedUntil;\n    }\n\n    function allowanceCoupons(address owner, address spender) public view returns (uint256) {\n        return _state.accounts[owner].couponAllowances[spender];\n    }\n\n    /**\n     * Epoch\n     */\n\n    function epoch() public view returns (uint256) {\n        return _state.epoch.current;\n    }\n\n    function epochTime() public view returns (uint256) {\n        Constants.EpochStrategy memory current = Constants.getEpochStrategy();\n\n        return epochTimeWithStrategy(current);\n    }\n\n    function epochTimeWithStrategy(Constants.EpochStrategy memory strategy) private view returns (uint256) {\n        return blockTimestamp()\n            .sub(strategy.start)\n            .div(strategy.period)\n            .add(strategy.offset);\n    }\n\n    // Overridable for testing\n    function blockTimestamp() internal view returns (uint256) {\n        return block.timestamp;\n    }\n\n    function outstandingCoupons(uint256 epoch) public view returns (uint256) {\n        return _state.epochs[epoch].coupons.outstanding;\n    }\n\n    function couponsExpiration(uint256 epoch) public view returns (uint256) {\n        return _state.epochs[epoch].coupons.expiration;\n    }\n\n    function expiringCoupons(uint256 epoch) public view returns (uint256) {\n        return _state.epochs[epoch].coupons.expiring.length;\n    }\n\n    function expiringCouponsAtIndex(uint256 epoch, uint256 i) public view returns (uint256) {\n        return _state.epochs[epoch].coupons.expiring[i];\n    }\n\n    function totalBondedAt(uint256 epoch) public view returns (uint256) {\n        return _state.epochs[epoch].bonded;\n    }\n\n    function bootstrappingAt(uint256 epoch) public view returns (bool) {\n        return epoch <= Constants.getBootstrappingPeriod();\n    }\n\n    function getCouponAuctionAtEpoch(uint256 epoch) internal view returns (Epoch.AuctionState storage) {\n        return _state.epochs[epoch].auction;\n    }\n    \n    function getCouponAuctionBids(uint256 epoch) internal view returns (uint256) {\n        return _state.epochs[epoch].auction._totalBids;\n    }\n\n    function getCouponBidderState(uint256 epoch, address bidder) internal view returns (Epoch.CouponBidderState storage) {\n        return _state.epochs[epoch].auction.couponBidderState[bidder];\n    }\n\n    function getCouponBidderStateSelected(uint256 epoch, address bidder) internal view returns (bool) {\n        return _state.epochs[epoch].auction.couponBidderState[bidder].selected;\n    }\n\n    function getCouponBidderStateRejected(uint256 epoch, address bidder) internal view returns (bool) {\n        return _state.epochs[epoch].auction.couponBidderState[bidder].rejected;\n    }\n\n    function getCouponBidderStateIndex(uint256 epoch, uint256 index) internal view returns (address) {\n        return _state.epochs[epoch].auction.couponBidder[index];\n    }\n\n    function isCouponAuctionFinished(uint256 epoch) internal view returns (bool){\n        return _state.epochs[epoch].auction.finished;\n    }\n\n    function isCouponAuctionCanceled(uint256 epoch) internal view returns (bool){\n        return _state.epochs[epoch].auction.canceled;\n    }\n\n    function getCouponAuctionMinExpiry(uint256 epoch) internal view returns (uint256) {\n        return _state.epochs[epoch].auction.minExpiry;\n    }\n\n    function getCouponAuctionMaxExpiry(uint256 epoch) internal view returns (uint256) {\n        return _state.epochs[epoch].auction.maxExpiry;\n    }\n\n    function getCouponAuctionMinYield(uint256 epoch) internal view returns (uint256) {\n        return _state.epochs[epoch].auction.minYield;\n    }\n\n    function getCouponAuctionMaxYield(uint256 epoch) internal view returns (uint256) {\n        return _state.epochs[epoch].auction.maxYield;\n    }\n\n    function getCouponAuctionMinDollarAmount(uint256 epoch) internal view returns (uint256) {\n        return _state.epochs[epoch].auction.minDollarAmount;\n    }\n\n    function getCouponAuctionMaxDollarAmount(uint256 epoch) internal view returns (uint256) {\n        return _state.epochs[epoch].auction.maxDollarAmount;\n    }\n\n    function getMinExpiryFilled(uint256 epoch) public view returns (uint256) {\n        return _state.epochs[epoch].auction.minExpiryFilled;\n    }\n    \n    function getMaxExpiryFilled(uint256 epoch) public view returns (uint256) {\n        return _state.epochs[epoch].auction.maxExpiryFilled;\n    }\n    \n    function getAvgExpiryFilled(uint256 epoch) public view returns (uint256) {\n        return _state.epochs[epoch].auction.avgExpiryFilled;\n    }\n    \n    function getMinYieldFilled(uint256 epoch) public view returns (uint256) {\n        return _state.epochs[epoch].auction.minYieldFilled;\n    }\n    \n    function getMaxYieldFilled(uint256 epoch) public view returns (uint256) {\n        return _state.epochs[epoch].auction.maxYieldFilled;\n    }\n    \n    function getAvgYieldFilled(uint256 epoch) public view returns (uint256) {\n        return _state.epochs[epoch].auction.avgYieldFilled;\n    }\n    \n    function getBidToCover(uint256 epoch) public view returns (uint256) {\n        return _state.epochs[epoch].auction.bidToCover;\n    }\n    \n    function getTotalFilled(uint256 epoch) public view returns (uint256) {\n        return _state.epochs[epoch].auction.totalFilled;\n    }\n\n    function getTotalAuctioned(uint256 epoch) public view returns (uint256) {\n        return _state.epochs[epoch].auction.totalAuctioned;\n    }\n\n    function getTotalBurned(uint256 epoch) public view returns (uint256) {\n        return _state.epochs[epoch].auction.totalBurned;\n    }\n\n    /**\n     * Governance\n     */\n\n    function recordedVote(address account, address candidate) public view returns (Candidate.Vote) {\n        return _state.candidates[candidate].votes[account];\n    }\n\n    function startFor(address candidate) public view returns (uint256) {\n        return _state.candidates[candidate].start;\n    }\n\n    function periodFor(address candidate) public view returns (uint256) {\n        return _state.candidates[candidate].period;\n    }\n\n    function approveFor(address candidate) public view returns (uint256) {\n        return _state.candidates[candidate].approve;\n    }\n\n    function rejectFor(address candidate) public view returns (uint256) {\n        return _state.candidates[candidate].reject;\n    }\n\n    function votesFor(address candidate) public view returns (uint256) {\n        return approveFor(candidate).add(rejectFor(candidate));\n    }\n\n    function isNominated(address candidate) public view returns (bool) {\n        return _state.candidates[candidate].start > 0;\n    }\n\n    function isInitialized(address candidate) public view returns (bool) {\n        return _state.candidates[candidate].initialized;\n    }\n\n    function implementation() public view returns (address impl) {\n        bytes32 slot = IMPLEMENTATION_SLOT;\n        assembly {\n            impl := sload(slot)\n        }\n    }\n}\n",
  "sourcePath": "/Users/cinquemb/Documents/Startups/crypto/dollar/protocol/contracts/dao/Getters.sol",
  "compiler": {
    "name": "solc",
    "version": "0.5.17+commit.d19bba13.Emscripten.clang"
  },
  "schemaVersion": "3.3.3",
  "updatedAt": "2021-01-14T02:02:04.358Z",
  "devdoc": {
    "methods": {}
  },
  "userdoc": {
    "methods": {
      "balanceOfStaged(address)": {
        "notice": "Account"
      },
      "dollar()": {
        "notice": "Global"
      },
      "epoch()": {
        "notice": "Epoch"
      },
      "name()": {
        "notice": "ERC20 Interface"
      },
      "recordedVote(address,address)": {
        "notice": "Governance"
      }
    }
  }
}