{
  "contractName": "Implementation",
  "abi": [
    {
      "anonymous": false,
      "inputs": [
        {
          "indexed": true,
          "internalType": "uint256",
          "name": "epoch",
          "type": "uint256"
        },
        {
          "indexed": false,
          "internalType": "uint256",
          "name": "block",
          "type": "uint256"
        },
        {
          "indexed": false,
          "internalType": "uint256",
          "name": "timestamp",
          "type": "uint256"
        }
      ],
      "name": "Advance",
      "type": "event"
    },
    {
      "anonymous": false,
      "inputs": [
        {
          "indexed": true,
          "internalType": "address",
          "name": "account",
          "type": "address"
        },
        {
          "indexed": false,
          "internalType": "uint256",
          "name": "start",
          "type": "uint256"
        },
        {
          "indexed": false,
          "internalType": "uint256",
          "name": "value",
          "type": "uint256"
        },
        {
          "indexed": false,
          "internalType": "uint256",
          "name": "valueUnderlying",
          "type": "uint256"
        }
      ],
      "name": "Bond",
      "type": "event"
    },
    {
      "anonymous": false,
      "inputs": [
        {
          "indexed": true,
          "internalType": "address",
          "name": "account",
          "type": "address"
        },
        {
          "indexed": true,
          "internalType": "address",
          "name": "candidate",
          "type": "address"
        }
      ],
      "name": "Commit",
      "type": "event"
    },
    {
      "anonymous": false,
      "inputs": [
        {
          "indexed": true,
          "internalType": "address",
          "name": "owner",
          "type": "address"
        },
        {
          "indexed": true,
          "internalType": "address",
          "name": "spender",
          "type": "address"
        },
        {
          "indexed": false,
          "internalType": "uint256",
          "name": "value",
          "type": "uint256"
        }
      ],
      "name": "CouponApproval",
      "type": "event"
    },
    {
      "anonymous": false,
      "inputs": [
        {
          "indexed": true,
          "internalType": "uint256",
          "name": "epoch",
          "type": "uint256"
        },
        {
          "indexed": false,
          "internalType": "uint256",
          "name": "couponsExpired",
          "type": "uint256"
        },
        {
          "indexed": false,
          "internalType": "uint256",
          "name": "lessRedeemable",
          "type": "uint256"
        },
        {
          "indexed": false,
          "internalType": "uint256",
          "name": "lessDebt",
          "type": "uint256"
        },
        {
          "indexed": false,
          "internalType": "uint256",
          "name": "newBonded",
          "type": "uint256"
        }
      ],
      "name": "CouponExpiration",
      "type": "event"
    },
    {
      "anonymous": false,
      "inputs": [
        {
          "indexed": true,
          "internalType": "address",
          "name": "account",
          "type": "address"
        },
        {
          "indexed": true,
          "internalType": "uint256",
          "name": "epoch",
          "type": "uint256"
        },
        {
          "indexed": false,
          "internalType": "uint256",
          "name": "dollarAmount",
          "type": "uint256"
        },
        {
          "indexed": false,
          "internalType": "uint256",
          "name": "couponAmount",
          "type": "uint256"
        }
      ],
      "name": "CouponPurchase",
      "type": "event"
    },
    {
      "anonymous": false,
      "inputs": [
        {
          "indexed": true,
          "internalType": "address",
          "name": "account",
          "type": "address"
        },
        {
          "indexed": true,
          "internalType": "uint256",
          "name": "epoch",
          "type": "uint256"
        },
        {
          "indexed": false,
          "internalType": "uint256",
          "name": "couponAmount",
          "type": "uint256"
        }
      ],
      "name": "CouponRedemption",
      "type": "event"
    },
    {
      "anonymous": false,
      "inputs": [
        {
          "indexed": true,
          "internalType": "address",
          "name": "from",
          "type": "address"
        },
        {
          "indexed": true,
          "internalType": "address",
          "name": "to",
          "type": "address"
        },
        {
          "indexed": true,
          "internalType": "uint256",
          "name": "epoch",
          "type": "uint256"
        },
        {
          "indexed": false,
          "internalType": "uint256",
          "name": "value",
          "type": "uint256"
        }
      ],
      "name": "CouponTransfer",
      "type": "event"
    },
    {
      "anonymous": false,
      "inputs": [
        {
          "indexed": true,
          "internalType": "address",
          "name": "account",
          "type": "address"
        },
        {
          "indexed": false,
          "internalType": "uint256",
          "name": "value",
          "type": "uint256"
        }
      ],
      "name": "Deposit",
      "type": "event"
    },
    {
      "anonymous": false,
      "inputs": [
        {
          "indexed": true,
          "internalType": "address",
          "name": "account",
          "type": "address"
        },
        {
          "indexed": false,
          "internalType": "uint256",
          "name": "amount",
          "type": "uint256"
        }
      ],
      "name": "Incentivization",
      "type": "event"
    },
    {
      "anonymous": false,
      "inputs": [
        {
          "indexed": true,
          "internalType": "address",
          "name": "candidate",
          "type": "address"
        },
        {
          "indexed": true,
          "internalType": "address",
          "name": "account",
          "type": "address"
        },
        {
          "indexed": true,
          "internalType": "uint256",
          "name": "start",
          "type": "uint256"
        },
        {
          "indexed": false,
          "internalType": "uint256",
          "name": "period",
          "type": "uint256"
        }
      ],
      "name": "Proposal",
      "type": "event"
    },
    {
      "anonymous": false,
      "inputs": [
        {
          "indexed": true,
          "internalType": "uint256",
          "name": "epoch",
          "type": "uint256"
        },
        {
          "indexed": false,
          "internalType": "uint256",
          "name": "price",
          "type": "uint256"
        },
        {
          "indexed": false,
          "internalType": "uint256",
          "name": "newDebt",
          "type": "uint256"
        }
      ],
      "name": "SupplyDecrease",
      "type": "event"
    },
    {
      "anonymous": false,
      "inputs": [
        {
          "indexed": true,
          "internalType": "uint256",
          "name": "epoch",
          "type": "uint256"
        },
        {
          "indexed": false,
          "internalType": "uint256",
          "name": "price",
          "type": "uint256"
        },
        {
          "indexed": false,
          "internalType": "uint256",
          "name": "newRedeemable",
          "type": "uint256"
        },
        {
          "indexed": false,
          "internalType": "uint256",
          "name": "lessDebt",
          "type": "uint256"
        },
        {
          "indexed": false,
          "internalType": "uint256",
          "name": "newBonded",
          "type": "uint256"
        }
      ],
      "name": "SupplyIncrease",
      "type": "event"
    },
    {
      "anonymous": false,
      "inputs": [
        {
          "indexed": true,
          "internalType": "uint256",
          "name": "epoch",
          "type": "uint256"
        }
      ],
      "name": "SupplyNeutral",
      "type": "event"
    },
    {
      "anonymous": false,
      "inputs": [
        {
          "indexed": true,
          "internalType": "address",
          "name": "from",
          "type": "address"
        },
        {
          "indexed": true,
          "internalType": "address",
          "name": "to",
          "type": "address"
        },
        {
          "indexed": false,
          "internalType": "uint256",
          "name": "value",
          "type": "uint256"
        }
      ],
      "name": "Transfer",
      "type": "event"
    },
    {
      "anonymous": false,
      "inputs": [
        {
          "indexed": true,
          "internalType": "address",
          "name": "account",
          "type": "address"
        },
        {
          "indexed": false,
          "internalType": "uint256",
          "name": "start",
          "type": "uint256"
        },
        {
          "indexed": false,
          "internalType": "uint256",
          "name": "value",
          "type": "uint256"
        },
        {
          "indexed": false,
          "internalType": "uint256",
          "name": "valueUnderlying",
          "type": "uint256"
        }
      ],
      "name": "Unbond",
      "type": "event"
    },
    {
      "anonymous": false,
      "inputs": [
        {
          "indexed": true,
          "internalType": "address",
          "name": "implementation",
          "type": "address"
        }
      ],
      "name": "Upgraded",
      "type": "event"
    },
    {
      "anonymous": false,
      "inputs": [
        {
          "indexed": true,
          "internalType": "address",
          "name": "account",
          "type": "address"
        },
        {
          "indexed": true,
          "internalType": "address",
          "name": "candidate",
          "type": "address"
        },
        {
          "indexed": false,
          "internalType": "enum Candidate.Vote",
          "name": "vote",
          "type": "uint8"
        },
        {
          "indexed": false,
          "internalType": "uint256",
          "name": "bonded",
          "type": "uint256"
        }
      ],
      "name": "Vote",
      "type": "event"
    },
    {
      "anonymous": false,
      "inputs": [
        {
          "indexed": true,
          "internalType": "address",
          "name": "account",
          "type": "address"
        },
        {
          "indexed": false,
          "internalType": "uint256",
          "name": "value",
          "type": "uint256"
        }
      ],
      "name": "Withdraw",
      "type": "event"
    },
    {
      "constant": true,
      "inputs": [
        {
          "internalType": "address",
          "name": "owner",
          "type": "address"
        },
        {
          "internalType": "address",
          "name": "spender",
          "type": "address"
        }
      ],
      "name": "allowance",
      "outputs": [
        {
          "internalType": "uint256",
          "name": "",
          "type": "uint256"
        }
      ],
      "payable": false,
      "stateMutability": "view",
      "type": "function"
    },
    {
      "constant": true,
      "inputs": [
        {
          "internalType": "address",
          "name": "owner",
          "type": "address"
        },
        {
          "internalType": "address",
          "name": "spender",
          "type": "address"
        }
      ],
      "name": "allowanceCoupons",
      "outputs": [
        {
          "internalType": "uint256",
          "name": "",
          "type": "uint256"
        }
      ],
      "payable": false,
      "stateMutability": "view",
      "type": "function"
    },
    {
      "constant": false,
      "inputs": [
        {
          "internalType": "address",
          "name": "spender",
          "type": "address"
        },
        {
          "internalType": "uint256",
          "name": "amount",
          "type": "uint256"
        }
      ],
      "name": "approve",
      "outputs": [
        {
          "internalType": "bool",
          "name": "",
          "type": "bool"
        }
      ],
      "payable": false,
      "stateMutability": "nonpayable",
      "type": "function"
    },
    {
      "constant": false,
      "inputs": [
        {
          "internalType": "address",
          "name": "spender",
          "type": "address"
        },
        {
          "internalType": "uint256",
          "name": "amount",
          "type": "uint256"
        }
      ],
      "name": "approveCoupons",
      "outputs": [],
      "payable": false,
      "stateMutability": "nonpayable",
      "type": "function"
    },
    {
      "constant": true,
      "inputs": [
        {
          "internalType": "address",
          "name": "candidate",
          "type": "address"
        }
      ],
      "name": "approveFor",
      "outputs": [
        {
          "internalType": "uint256",
          "name": "",
          "type": "uint256"
        }
      ],
      "payable": false,
      "stateMutability": "view",
      "type": "function"
    },
    {
      "constant": true,
      "inputs": [
        {
          "internalType": "address",
          "name": "account",
          "type": "address"
        }
      ],
      "name": "balanceOf",
      "outputs": [
        {
          "internalType": "uint256",
          "name": "",
          "type": "uint256"
        }
      ],
      "payable": false,
      "stateMutability": "view",
      "type": "function"
    },
    {
      "constant": true,
      "inputs": [
        {
          "internalType": "address",
          "name": "account",
          "type": "address"
        }
      ],
      "name": "balanceOfBonded",
      "outputs": [
        {
          "internalType": "uint256",
          "name": "",
          "type": "uint256"
        }
      ],
      "payable": false,
      "stateMutability": "view",
      "type": "function"
    },
    {
      "constant": true,
      "inputs": [
        {
          "internalType": "address",
          "name": "account",
          "type": "address"
        },
        {
          "internalType": "uint256",
          "name": "epoch",
          "type": "uint256"
        }
      ],
      "name": "balanceOfCoupons",
      "outputs": [
        {
          "internalType": "uint256",
          "name": "",
          "type": "uint256"
        }
      ],
      "payable": false,
      "stateMutability": "view",
      "type": "function"
    },
    {
      "constant": true,
      "inputs": [
        {
          "internalType": "address",
          "name": "account",
          "type": "address"
        }
      ],
      "name": "balanceOfStaged",
      "outputs": [
        {
          "internalType": "uint256",
          "name": "",
          "type": "uint256"
        }
      ],
      "payable": false,
      "stateMutability": "view",
      "type": "function"
    },
    {
      "constant": false,
      "inputs": [
        {
          "internalType": "uint256",
          "name": "value",
          "type": "uint256"
        }
      ],
      "name": "bond",
      "outputs": [],
      "payable": false,
      "stateMutability": "nonpayable",
      "type": "function"
    },
    {
      "constant": true,
      "inputs": [
        {
          "internalType": "uint256",
          "name": "epoch",
          "type": "uint256"
        }
      ],
      "name": "bootstrappingAt",
      "outputs": [
        {
          "internalType": "bool",
          "name": "",
          "type": "bool"
        }
      ],
      "payable": false,
      "stateMutability": "view",
      "type": "function"
    },
    {
      "constant": false,
      "inputs": [
        {
          "internalType": "address",
          "name": "candidate",
          "type": "address"
        }
      ],
      "name": "commit",
      "outputs": [],
      "payable": false,
      "stateMutability": "nonpayable",
      "type": "function"
    },
    {
      "constant": true,
      "inputs": [
        {
          "internalType": "uint256",
          "name": "amount",
          "type": "uint256"
        }
      ],
      "name": "couponPremium",
      "outputs": [
        {
          "internalType": "uint256",
          "name": "",
          "type": "uint256"
        }
      ],
      "payable": false,
      "stateMutability": "view",
      "type": "function"
    },
    {
      "constant": true,
      "inputs": [
        {
          "internalType": "uint256",
          "name": "epoch",
          "type": "uint256"
        }
      ],
      "name": "couponsExpiration",
      "outputs": [
        {
          "internalType": "uint256",
          "name": "",
          "type": "uint256"
        }
      ],
      "payable": false,
      "stateMutability": "view",
      "type": "function"
    },
    {
      "constant": true,
      "inputs": [],
      "name": "decimals",
      "outputs": [
        {
          "internalType": "uint8",
          "name": "",
          "type": "uint8"
        }
      ],
      "payable": false,
      "stateMutability": "view",
      "type": "function"
    },
    {
      "constant": false,
      "inputs": [
        {
          "internalType": "uint256",
          "name": "value",
          "type": "uint256"
        }
      ],
      "name": "deposit",
      "outputs": [],
      "payable": false,
      "stateMutability": "nonpayable",
      "type": "function"
    },
    {
      "constant": true,
      "inputs": [],
      "name": "dollar",
      "outputs": [
        {
          "internalType": "contract IDollar",
          "name": "",
          "type": "address"
        }
      ],
      "payable": false,
      "stateMutability": "view",
      "type": "function"
    },
    {
      "constant": false,
      "inputs": [
        {
          "internalType": "address",
          "name": "candidate",
          "type": "address"
        }
      ],
      "name": "emergencyCommit",
      "outputs": [],
      "payable": false,
      "stateMutability": "nonpayable",
      "type": "function"
    },
    {
      "constant": true,
      "inputs": [],
      "name": "epoch",
      "outputs": [
        {
          "internalType": "uint256",
          "name": "",
          "type": "uint256"
        }
      ],
      "payable": false,
      "stateMutability": "view",
      "type": "function"
    },
    {
      "constant": true,
      "inputs": [],
      "name": "epochTime",
      "outputs": [
        {
          "internalType": "uint256",
          "name": "",
          "type": "uint256"
        }
      ],
      "payable": false,
      "stateMutability": "view",
      "type": "function"
    },
    {
      "constant": true,
      "inputs": [
        {
          "internalType": "uint256",
          "name": "epoch",
          "type": "uint256"
        }
      ],
      "name": "expiringCoupons",
      "outputs": [
        {
          "internalType": "uint256",
          "name": "",
          "type": "uint256"
        }
      ],
      "payable": false,
      "stateMutability": "view",
      "type": "function"
    },
    {
      "constant": true,
      "inputs": [
        {
          "internalType": "uint256",
          "name": "epoch",
          "type": "uint256"
        },
        {
          "internalType": "uint256",
          "name": "i",
          "type": "uint256"
        }
      ],
      "name": "expiringCouponsAtIndex",
      "outputs": [
        {
          "internalType": "uint256",
          "name": "",
          "type": "uint256"
        }
      ],
      "payable": false,
      "stateMutability": "view",
      "type": "function"
    },
    {
      "constant": true,
      "inputs": [],
      "name": "implementation",
      "outputs": [
        {
          "internalType": "address",
          "name": "impl",
          "type": "address"
        }
      ],
      "payable": false,
      "stateMutability": "view",
      "type": "function"
    },
    {
      "constant": true,
      "inputs": [
        {
          "internalType": "address",
          "name": "candidate",
          "type": "address"
        }
      ],
      "name": "isInitialized",
      "outputs": [
        {
          "internalType": "bool",
          "name": "",
          "type": "bool"
        }
      ],
      "payable": false,
      "stateMutability": "view",
      "type": "function"
    },
    {
      "constant": true,
      "inputs": [
        {
          "internalType": "address",
          "name": "candidate",
          "type": "address"
        }
      ],
      "name": "isNominated",
      "outputs": [
        {
          "internalType": "bool",
          "name": "",
          "type": "bool"
        }
      ],
      "payable": false,
      "stateMutability": "view",
      "type": "function"
    },
    {
      "constant": true,
      "inputs": [],
      "name": "name",
      "outputs": [
        {
          "internalType": "string",
          "name": "",
          "type": "string"
        }
      ],
      "payable": false,
      "stateMutability": "view",
      "type": "function"
    },
    {
      "constant": true,
      "inputs": [],
      "name": "oracle",
      "outputs": [
        {
          "internalType": "contract IOracle",
          "name": "",
          "type": "address"
        }
      ],
      "payable": false,
      "stateMutability": "view",
      "type": "function"
    },
    {
      "constant": true,
      "inputs": [
        {
          "internalType": "uint256",
          "name": "epoch",
          "type": "uint256"
        }
      ],
      "name": "outstandingCoupons",
      "outputs": [
        {
          "internalType": "uint256",
          "name": "",
          "type": "uint256"
        }
      ],
      "payable": false,
      "stateMutability": "view",
      "type": "function"
    },
    {
      "constant": true,
      "inputs": [
        {
          "internalType": "address",
          "name": "candidate",
          "type": "address"
        }
      ],
      "name": "periodFor",
      "outputs": [
        {
          "internalType": "uint256",
          "name": "",
          "type": "uint256"
        }
      ],
      "payable": false,
      "stateMutability": "view",
      "type": "function"
    },
    {
      "constant": true,
      "inputs": [],
      "name": "pool",
      "outputs": [
        {
          "internalType": "address",
          "name": "",
          "type": "address"
        }
      ],
      "payable": false,
      "stateMutability": "view",
      "type": "function"
    },
    {
      "constant": false,
      "inputs": [
        {
          "internalType": "uint256",
          "name": "dollarAmount",
          "type": "uint256"
        }
      ],
      "name": "purchaseCoupons",
      "outputs": [
        {
          "internalType": "uint256",
          "name": "",
          "type": "uint256"
        }
      ],
      "payable": false,
      "stateMutability": "nonpayable",
      "type": "function"
    },
    {
      "constant": true,
      "inputs": [
        {
          "internalType": "address",
          "name": "account",
          "type": "address"
        },
        {
          "internalType": "address",
          "name": "candidate",
          "type": "address"
        }
      ],
      "name": "recordedVote",
      "outputs": [
        {
          "internalType": "enum Candidate.Vote",
          "name": "",
          "type": "uint8"
        }
      ],
      "payable": false,
      "stateMutability": "view",
      "type": "function"
    },
    {
      "constant": false,
      "inputs": [
        {
          "internalType": "uint256",
          "name": "couponEpoch",
          "type": "uint256"
        },
        {
          "internalType": "uint256",
          "name": "couponAmount",
          "type": "uint256"
        }
      ],
      "name": "redeemCoupons",
      "outputs": [],
      "payable": false,
      "stateMutability": "nonpayable",
      "type": "function"
    },
    {
      "constant": true,
      "inputs": [
        {
          "internalType": "address",
          "name": "candidate",
          "type": "address"
        }
      ],
      "name": "rejectFor",
      "outputs": [
        {
          "internalType": "uint256",
          "name": "",
          "type": "uint256"
        }
      ],
      "payable": false,
      "stateMutability": "view",
      "type": "function"
    },
    {
      "constant": true,
      "inputs": [
        {
          "internalType": "address",
          "name": "candidate",
          "type": "address"
        }
      ],
      "name": "startFor",
      "outputs": [
        {
          "internalType": "uint256",
          "name": "",
          "type": "uint256"
        }
      ],
      "payable": false,
      "stateMutability": "view",
      "type": "function"
    },
    {
      "constant": true,
      "inputs": [
        {
          "internalType": "address",
          "name": "account",
          "type": "address"
        }
      ],
      "name": "statusOf",
      "outputs": [
        {
          "internalType": "enum Account.Status",
          "name": "",
          "type": "uint8"
        }
      ],
      "payable": false,
      "stateMutability": "view",
      "type": "function"
    },
    {
      "constant": true,
      "inputs": [],
      "name": "symbol",
      "outputs": [
        {
          "internalType": "string",
          "name": "",
          "type": "string"
        }
      ],
      "payable": false,
      "stateMutability": "view",
      "type": "function"
    },
    {
      "constant": true,
      "inputs": [],
      "name": "totalBonded",
      "outputs": [
        {
          "internalType": "uint256",
          "name": "",
          "type": "uint256"
        }
      ],
      "payable": false,
      "stateMutability": "view",
      "type": "function"
    },
    {
      "constant": true,
      "inputs": [
        {
          "internalType": "uint256",
          "name": "epoch",
          "type": "uint256"
        }
      ],
      "name": "totalBondedAt",
      "outputs": [
        {
          "internalType": "uint256",
          "name": "",
          "type": "uint256"
        }
      ],
      "payable": false,
      "stateMutability": "view",
      "type": "function"
    },
    {
      "constant": true,
      "inputs": [],
      "name": "totalCoupons",
      "outputs": [
        {
          "internalType": "uint256",
          "name": "",
          "type": "uint256"
        }
      ],
      "payable": false,
      "stateMutability": "view",
      "type": "function"
    },
    {
      "constant": true,
      "inputs": [],
      "name": "totalDebt",
      "outputs": [
        {
          "internalType": "uint256",
          "name": "",
          "type": "uint256"
        }
      ],
      "payable": false,
      "stateMutability": "view",
      "type": "function"
    },
    {
      "constant": true,
      "inputs": [],
      "name": "totalNet",
      "outputs": [
        {
          "internalType": "uint256",
          "name": "",
          "type": "uint256"
        }
      ],
      "payable": false,
      "stateMutability": "view",
      "type": "function"
    },
    {
      "constant": true,
      "inputs": [],
      "name": "totalRedeemable",
      "outputs": [
        {
          "internalType": "uint256",
          "name": "",
          "type": "uint256"
        }
      ],
      "payable": false,
      "stateMutability": "view",
      "type": "function"
    },
    {
      "constant": true,
      "inputs": [],
      "name": "totalStaged",
      "outputs": [
        {
          "internalType": "uint256",
          "name": "",
          "type": "uint256"
        }
      ],
      "payable": false,
      "stateMutability": "view",
      "type": "function"
    },
    {
      "constant": true,
      "inputs": [],
      "name": "totalSupply",
      "outputs": [
        {
          "internalType": "uint256",
          "name": "",
          "type": "uint256"
        }
      ],
      "payable": false,
      "stateMutability": "view",
      "type": "function"
    },
    {
      "constant": false,
      "inputs": [
        {
          "internalType": "address",
          "name": "recipient",
          "type": "address"
        },
        {
          "internalType": "uint256",
          "name": "amount",
          "type": "uint256"
        }
      ],
      "name": "transfer",
      "outputs": [
        {
          "internalType": "bool",
          "name": "",
          "type": "bool"
        }
      ],
      "payable": false,
      "stateMutability": "nonpayable",
      "type": "function"
    },
    {
      "constant": false,
      "inputs": [
        {
          "internalType": "address",
          "name": "sender",
          "type": "address"
        },
        {
          "internalType": "address",
          "name": "recipient",
          "type": "address"
        },
        {
          "internalType": "uint256",
          "name": "epoch",
          "type": "uint256"
        },
        {
          "internalType": "uint256",
          "name": "amount",
          "type": "uint256"
        }
      ],
      "name": "transferCoupons",
      "outputs": [],
      "payable": false,
      "stateMutability": "nonpayable",
      "type": "function"
    },
    {
      "constant": false,
      "inputs": [
        {
          "internalType": "address",
          "name": "sender",
          "type": "address"
        },
        {
          "internalType": "address",
          "name": "recipient",
          "type": "address"
        },
        {
          "internalType": "uint256",
          "name": "amount",
          "type": "uint256"
        }
      ],
      "name": "transferFrom",
      "outputs": [
        {
          "internalType": "bool",
          "name": "",
          "type": "bool"
        }
      ],
      "payable": false,
      "stateMutability": "nonpayable",
      "type": "function"
    },
    {
      "constant": false,
      "inputs": [
        {
          "internalType": "uint256",
          "name": "value",
          "type": "uint256"
        }
      ],
      "name": "unbond",
      "outputs": [],
      "payable": false,
      "stateMutability": "nonpayable",
      "type": "function"
    },
    {
      "constant": false,
      "inputs": [
        {
          "internalType": "uint256",
          "name": "value",
          "type": "uint256"
        }
      ],
      "name": "unbondUnderlying",
      "outputs": [],
      "payable": false,
      "stateMutability": "nonpayable",
      "type": "function"
    },
    {
      "constant": false,
      "inputs": [
        {
          "internalType": "address",
          "name": "candidate",
          "type": "address"
        },
        {
          "internalType": "enum Candidate.Vote",
          "name": "vote",
          "type": "uint8"
        }
      ],
      "name": "vote",
      "outputs": [],
      "payable": false,
      "stateMutability": "nonpayable",
      "type": "function"
    },
    {
      "constant": true,
      "inputs": [
        {
          "internalType": "address",
          "name": "candidate",
          "type": "address"
        }
      ],
      "name": "votesFor",
      "outputs": [
        {
          "internalType": "uint256",
          "name": "",
          "type": "uint256"
        }
      ],
      "payable": false,
      "stateMutability": "view",
      "type": "function"
    },
    {
      "constant": false,
      "inputs": [
        {
          "internalType": "uint256",
          "name": "value",
          "type": "uint256"
        }
      ],
      "name": "withdraw",
      "outputs": [],
      "payable": false,
      "stateMutability": "nonpayable",
      "type": "function"
    },
    {
      "constant": false,
      "inputs": [],
      "name": "initialize",
      "outputs": [],
      "payable": false,
      "stateMutability": "nonpayable",
      "type": "function"
    },
    {
      "constant": false,
      "inputs": [],
      "name": "advance",
      "outputs": [],
      "payable": false,
      "stateMutability": "nonpayable",
      "type": "function"
    }
  ],
  "bytecode": "0x608060405234801561001057600080fd5b5061416b806100206000396000f3fe608060405234801561001057600080fd5b506004361061035c5760003560e01c80637dc0d1d0116101d3578063bc7513e211610104578063dd62ed3e116100a2578063ea105ac71161007c578063ea105ac7146106c8578063f1b7cf49146106d0578063fc7b9c18146106e3578063ffbe3b73146106eb5761035c565b8063dd62ed3e14610694578063df9a2b1c146106a2578063e5f55c7e146106b55761035c565b8063cf023779116100de578063cf02377914610653578063d60b347f1461065b578063d6a9cf081461066e578063d8f54138146106815761035c565b8063bc7513e21461061a578063bceb514d1461062d578063c9aff70c146106405761035c565b80639940686e11610171578063a50cd8e71161014b578063a50cd8e7146105ec578063a6c409f1146105ff578063a9059cbb14610394578063b6b55f25146106075761035c565b80639940686e146105be5780639a649edc146105d15780639f6e1b26146105d95761035c565b806386cf9f14116101ad57806386cf9f1414610588578063900cf0cf1461059b57806395d89b41146105a357806397a5d5b5146105ab5761035c565b80637dc0d1d0146105655780638129fc1c1461056d578063825ad607146105755761035c565b8063353a420c116102ad5780635053e4611161024b578063646680221161022557806364668022146105195780636a39e3281461052c57806370a082311461053f57806375d5024b146105525761035c565b80635053e461146104f457806351adeb57146104fc5780635c60da1b146105115761035c565b80633fbba9a6116102875780633fbba9a6146104a657806344d96e95146104c657806347c05069146104ce5780634c736099146104e15761035c565b8063353a420c1461046d578063369e8c1d146104805780633a3e6c81146104935761035c565b806318160ddd1161031a57806327de9e32116102f457806327de9e321461041f5780632e1a7d4d146104325780632f7f889e14610445578063313ce567146104585761035c565b806318160ddd146103fc5780631edbcf6c1461040457806323b872dd1461040c5761035c565b80625edd371461036157806306fdde0314610376578063095ea7b31461039457806310e95b6c146103b457806315e14bf6146103d457806316f0115b146103e7575b600080fd5b61037461036f36600461392b565b6106fe565b005b61037e610821565b60405161038b9190613e51565b60405180910390f35b6103a76103a23660046139bc565b610859565b60405161038b9190613e19565b6103c76103c2366004613a3a565b610862565b60405161038b9190613ed2565b6103c76103e2366004613886565b61087a565b6103ef610898565b60405161038b9190613dac565b6103c76108a7565b6103c76108ad565b6103a761041a3660046138de565b6108b3565b61037461042d366004613a3a565b6108bd565b610374610440366004613a3a565b610a07565b6103746104533660046139bc565b610b3f565b610460610bbf565b60405161038b9190613f3e565b6103c761047b366004613886565b610bc4565b61037461048e366004613886565b610be2565b6103a76104a1366004613886565b610d30565b6104b96104b43660046138a4565b610d4d565b60405161038b9190613e35565b6103c7610d80565b6103746104dc366004613886565b610d86565b6103c76104ef366004613a76565b610e79565b6103c7610ea9565b610504610ecc565b60405161038b9190613e27565b6103ef610edb565b6103c7610527366004613886565b610f00565b6103c761053a366004613a3a565b610f1e565b6103c761054d366004613886565b610f33565b6103a7610560366004613a3a565b610f51565b610504610f64565b610374610f73565b6103c7610583366004613886565b610fbe565b6103c7610596366004613886565b610ffe565b6103c7611019565b61037e61101f565b6104b96105b9366004613886565b61103d565b6103746105cc366004613a3a565b6110a2565b6103c7611170565b6103c76105e73660046138a4565b611176565b6103c76105fa366004613886565b6111a5565b6103c76111bc565b610374610615366004613a3a565b611246565b6103c76106283660046139bc565b61131e565b61037461063b36600461398c565b611362565b6103c761064e366004613a3a565b611608565b6103c761161d565b6103a7610669366004613886565b611623565b61037461067c366004613a76565b611644565b6103c761068f366004613a3a565b6116d8565b6103c76103a23660046138a4565b6103746106b0366004613a3a565b611763565b6103c76106c3366004613a3a565b611821565b610374611913565b6103c76106de366004613886565b6119c6565b6103c76119e1565b6103c76106f9366004613a3a565b6119e7565b6001600160a01b03841661072d5760405162461bcd60e51b815260040161072490613eb2565b60405180910390fd5b6001600160a01b0383166107535760405162461bcd60e51b815260040161072490613e72565b61077784838360405180606001604052806023815260200161404a602391396119f9565b610782838383611aa4565b336001600160a01b038516148015906107a657506000196107a38533611176565b14155b156107cf576107cf84338360405180606001604052806024815260200161409160249139611b4b565b81836001600160a01b0316856001600160a01b03167f0f1dbb1ccbe57a1590c7baad7b01d581b730c9ebc535dcde4345e6db424063d8846040516108139190613ed2565b60405180910390a450505050565b60408051808201909152601881527f44796e616d69632053657420446f6c6c6172205374616b65000000000000000060208201525b90565b60005b92915050565b6000818152600d60205260409020600201545b919050565b6001600160a01b03166000908152600e602052604090206001015490565b600b546001600160a01b031690565b60035490565b60065490565b60005b9392505050565b3361090460025b6108cd8361103d565b60028111156108d857fe5b1415692832b936b4b9b9b4b7b760b11b72139bdd08199c9bde995b881bdc88199b1d5a59606a1b611bbc565b61090d33611c11565b600061094061091b33610f33565b61093461092733610fbe565b869063ffffffff611c3b16565b9063ffffffff611c7516565b905061094c3382611cb7565b61096e816040518060600160405280602281526020016140b560229139611d13565b6109ae33846040518060400160405280601d81526020017f426f6e64696e673a20696e73756666696369656e742062616c616e6365000000815250611d2e565b337f93530ac0ee8c50e696e13c5ac62355d0c0ba4bd943620d5bda1eb08b64ae75126109e960016109dd611019565b9063ffffffff611dd916565b85846040516109fa93929190613eee565b60405180910390a2505050565b33610a4f60015b610a178361103d565b6002811115610a2257fe5b1415692832b936b4b9b9b4b7b760b11b73139bdd08199c9bde995b881bdc881b1bd8dad95960621b611bbc565b610a57610ecc565b6001600160a01b031663a9059cbb33846040518363ffffffff1660e01b8152600401610a84929190613de2565b602060405180830381600087803b158015610a9e57600080fd5b505af1158015610ab2573d6000803e3d6000fd5b505050506040513d601f19601f82011682018060405250610ad691908101906139ec565b50610afa338360405180606001604052806024815260200161406d60249139611dfe565b336001600160a01b03167f884edad9ce6fa2440d8a54cc123490eb96d2768479d49ff9c7366125a942436483604051610b339190613ed2565b60405180910390a25050565b6001600160a01b038216610b655760405162461bcd60e51b815260040161072490613ea2565b610b70338383611e5d565b816001600160a01b0316336001600160a01b03167f8ff27e6b95060c1ca851e7c2c28af8b413eb1a8bcb637b0290da9543a709cce383604051610bb39190613ed2565b60405180910390a35050565b601290565b6001600160a01b03166000908152600e602052604090206003015490565b610c0e610bee82610d30565b6523b7bb32b93760d11b6c139bdd081b9bdb5a5b985d1959609a1b611bbc565b6000610c366001610c2a610c218561087a565b6109dd866119c6565b9063ffffffff611e8d16565b9050610c6181610c44611019565b116523b7bb32b93760d11b68139bdd08195b99195960ba1b611bbc565b610cb8610c95610c6f611ecf565b610c89610c7b866111a5565b610c84866119e7565b611ef1565b9063ffffffff611f2016565b6523b7bb32b93760d11b6f4d75737420686176652071756f726f6d60801b611bbc565b610ced610cc483610bc4565b610ccd84610f00565b116523b7bb32b93760d11b6b139bdd08185c1c1c9bdd995960a21b611bbc565b610cf682611f36565b6040516001600160a01b0383169033907f815ca4497ab9fc80c76f210e6e842a5e198e195aa136034557eee144f790e7bb90600090a35050565b6001600160a01b03166000908152600e6020526040902054151590565b6001600160a01b038082166000908152600e60209081526040808320938616835260049093019052205460ff1692915050565b60045490565b610d92610bee82610d30565b610dd0610da8610da0612022565b6109dd611019565b610db0610ea9565b116523b7bb32b93760d11b6b115c1bd8da081cde5b98d95960a21b611bbc565b610e22610df2610dde612027565b610c89610dea85610f00565b610c846108a7565b6523b7bb32b93760d11b7f4d7573742068617665207375706572206d616a6f726974790000000000000000611bbc565b610e37610e2e82610bc4565b610ccd83610f00565b610e4081611f36565b6040516001600160a01b0382169033907f815ca4497ab9fc80c76f210e6e842a5e198e195aa136034557eee144f790e7bb90600090a350565b6000828152600d60205260408120600301805483908110610e9657fe5b9060005260206000200154905092915050565b6000610eb36137e8565b610ebb612049565b9050610ec681612078565b91505090565b6009546001600160a01b031690565b7f360894a13ba1a3210667c828492db98dca3e2076cc3735a920a3ca505d382bbc5490565b6001600160a01b03166000908152600e602052604090206002015490565b6000908152600d602052604090206003015490565b6001600160a01b03166000908152600c602052604090206001015490565b6000610f5b61209a565b90911115919050565b600a546001600160a01b031690565b610fac610f81610669610edb565b15692832b936b4b9b9b4b7b760b11b72105b1c9958591e481a5b9a5d1a585b1a5e9959606a1b611bbc565b610fbc610fb7610edb565b61209f565b565b600080610fc96108a7565b905080610fda576000915050610875565b6108b681610934610fea86610f33565b610ff2610d80565b9063ffffffff611c3b16565b6001600160a01b03166000908152600c602052604090205490565b60025490565b6040805180820190915260048152634453445360e01b602082015290565b6000611047611019565b6001600160a01b0383166000908152600c6020526040902060050154111561107157506002610875565b6001600160a01b0382166000908152600c6020526040902060040154611095611019565b101561085957600161085c565b336110ad60026108c4565b6110b633611c11565b60006110c0610d80565b156110e0576110db6110d0610d80565b6109346109276108a7565b6110f8565b6110f86110eb6120c6565b849063ffffffff611c3b16565b905061110433826120cd565b61110d83612169565b611130338460405180606001604052806024815260200161406d60249139611dfe565b337f44002fdef5a0c2d2e4e05572e9780b95aef97e0e93ffd7cc076b09fa78ff2b4661115f60016109dd611019565b83866040516109fa93929190613eee565b60085490565b6001600160a01b039182166000908152600c602090815260408083209390941682526003909201909152205490565b600061085c6111b383610bc4565b6109dd84610f00565b60006112416111c96119e1565b6111d1610ecc565b6001600160a01b03166318160ddd6040518163ffffffff1660e01b815260040160206040518083038186803b15801561120957600080fd5b505afa15801561121d573d6000803e3d6000fd5b505050506040513d601f19601f82011682018060405250610c2a9190810190613a58565b905090565b336112516001610a0e565b611259610ecc565b6001600160a01b03166323b872dd3330856040518463ffffffff1660e01b815260040161128893929190613dba565b602060405180830381600087803b1580156112a257600080fd5b505af11580156112b6573d6000803e3d6000fd5b505050506040513d601f19601f820116820180604052506112da91908101906139ec565b506112e53383611cb7565b336001600160a01b03167fe1fffcc4923d04b559f4d29a8bfc6cda04eb5b0d3c460751c2402c5c5cc9109c83604051610b339190613ed2565b600061132982611608565b6113355750600061085c565b506001600160a01b03919091166000908152600c6020908152604080832093835260029093019052205490565b3361136d6001610a0e565b61139e600061137b33610f33565b116523b7bb32b93760d11b6e4d7573742068617665207374616b6560881b611bbc565b6113a783610d30565b61144a576113e76113b733612182565b6523b7bb32b93760d11b7f4e6f7420656e6f756768207374616b6520746f2070726f706f73650000000000611bbc565b6113f8836113f36121ca565b6121cf565b611400611019565b336001600160a01b0385167fd15e38a680a427478883cd2d32eb664cb6bb2090b0126a23ebaf3e3784b8c56b6114346121ca565b6040516114419190613ed2565b60405180910390a45b61147a611459610c218561087a565b611461611019565b106523b7bb32b93760d11b64115b99195960da1b611bbc565b600061148533610f33565b905060006114933386610d4d565b90508060028111156114a157fe5b8460028111156114ad57fe5b14156114ba575050611603565b60028160028111156114c857fe5b141561150e5761150e85836040518060400160405280601b81526020017f476f7665726e3a20496e73756666696369656e742072656a65637400000000008152506121fb565b600181600281111561151c57fe5b14156115625761156285836040518060400160405280601c81526020017f476f7665726e3a20496e73756666696369656e7420617070726f76650000000081525061224c565b600284600281111561157057fe5b141561158057611580858361229d565b600184600281111561158e57fe5b141561159e5761159e85836122ec565b6115a933868661233b565b6115b33386612385565b846001600160a01b0316336001600160a01b03167fbe50c78cbc15b0864819aadea36c6499da421b33c38e2ef19bebda583c708c7886856040516115f8929190613e43565b60405180910390a350505b505050565b6000908152600d602052604090206001015490565b60055490565b6001600160a01b03166000908152600e602052604090206005015460ff1690565b600261165283610c2a611019565b10156116705760405162461bcd60e51b815260040161072490613ec2565b61169433838360405180606001604052806023815260200161404a602391396119f9565b61169e33826123e6565b81336001600160a01b03167f46e9903ae8ac9e9f0c9bc321b05965c1c036e7d4783758703f5cdfc4133c51b683604051610bb39190613ed2565b600061085c6116e5610ecc565b6001600160a01b03166318160ddd6040518163ffffffff1660e01b815260040160206040518083038186803b15801561171d57600080fd5b505afa158015611731573d6000803e3d6000fd5b505050506040513d601f19601f820116820180604052506117559190810190613a58565b61175d6119e1565b8461249c565b3361176e60026108c4565b61177733611c11565b60006117846110d0610d80565b90506117903384611cb7565b6117b2836040518060600160405280602281526020016140b560229139611d13565b6117f233826040518060400160405280601d81526020017f426f6e64696e673a20696e73756666696369656e742062616c616e6365000000815250611d2e565b337f93530ac0ee8c50e696e13c5ac62355d0c0ba4bd943620d5bda1eb08b64ae751261115f60016109dd611019565b600061185a600083116513585c9ad95d60d21b7f4d757374207075726368617365206e6f6e2d7a65726f20616d6f756e74000000611bbc565b61188a826118666119e1565b10156513585c9ad95d60d21b6e139bdd08195b9bdd59da081919589d608a1b611bbc565b6000611894611019565b905060006118b16118a4856116d8565b859063ffffffff611dd916565b90506118bd33856124c9565b6118c8338383611aa4565b81336001600160a01b03167fbce252db29f761f815dc2e9ea60005af065efba6eb619d2a0b2a113fdeb614148684604051611904929190613ee0565b60405180910390a39392505050565b600061191d6125da565b905061192933826125e7565b336001600160a01b03167fbb4f656853bc420ad6e4321622c07eefb4ed40e3f91b35553ce14a6dff4c0981826040516119629190613ed2565b60405180910390a2611972612687565b61197a6126d2565b611982612765565b61198a611019565b7fc30b728d1c19e5db3678b8ea9e9a063a5655071e1a325c2f7fdbca48baa9060043426040516119bb929190613ee0565b60405180910390a250565b6001600160a01b03166000908152600e602052604090205490565b60075490565b6000908152600d602052604090205490565b6001600160a01b0384166000908152600c60209081526040808320868452600201909152902054611a3190838363ffffffff6127bf16565b6001600160a01b0385166000908152600c60209081526040808320878452600201825280832093909355600d90522060010154611a7590838363ffffffff6127bf16565b6000848152600d6020526040902060010155600854611a9b90838363ffffffff6127bf16565b60085550505050565b6001600160a01b0383166000908152600c60209081526040808320858452600201909152902054611adb908263ffffffff611dd916565b6001600160a01b0384166000908152600c60209081526040808320868452600201825280832093909355600d90522060010154611b1e908263ffffffff611dd916565b6000838152600d6020526040902060010155600854611b43908263ffffffff611dd916565b600855505050565b6001600160a01b038085166000908152600c602090815260408083209387168352600390930190522054611b8690838363ffffffff6127bf16565b6001600160a01b039485166000908152600c60209081526040808320969097168252600390950190945293909220929092555050565b8261160357611bca826127eb565b6101d160f51b611bd9836127eb565b604051602001611beb93929190613d7b565b60408051601f198184030181529082905262461bcd60e51b825261072491600401613e51565b611c1c610da06121ca565b6001600160a01b039091166000908152600c6020526040902060040155565b600082611c4a5750600061085c565b82820282848281611c5757fe5b04146108b65760405162461bcd60e51b815260040161072490613e82565b60006108b683836040518060400160405280601a81526020017f536166654d6174683a206469766973696f6e206279207a65726f00000000000081525061286b565b6001600160a01b0382166000908152600c6020526040902054611ce0908263ffffffff611dd916565b6001600160a01b0383166000908152600c6020526040902055600554611d0c908263ffffffff611dd916565b6005555050565b600454611d2790838363ffffffff6127bf16565b6004555050565b6001600160a01b0383166000908152600c6020526040902060010154611d5b90838363ffffffff6127bf16565b6001600160a01b0384166000908152600c6020526040902060010155600354611d8b90838363ffffffff6127bf16565b6003556040516000906001600160a01b038516907fddf252ad1be2c89b69c2b068fc378daa952ba7f163c4a11628f55a4df523b3ef90611dcc908690613ed2565b60405180910390a3505050565b6000828201838110156108b65760405162461bcd60e51b815260040161072490613e62565b6001600160a01b0383166000908152600c6020526040902054611e2890838363ffffffff6127bf16565b6001600160a01b0384166000908152600c6020526040902055600554611e5590838363ffffffff6127bf16565b600555505050565b6001600160a01b039283166000908152600c60209081526040808320949095168252600390930190925291902055565b60006108b683836040518060400160405280601e81526020017f536166654d6174683a207375627472616374696f6e206f766572666c6f7700008152506127bf565b611ed7613809565b506040805160208101909152670494654067e10000815290565b611ef9613809565b6040518060200160405280611f1785670de0b6b3a7640000866128a2565b90529392505050565b6000611f2c83836128b8565b6002149392505050565b611f3f816128ea565b60408051600481526024810182526020810180516001600160e01b031663204a7f0760e21b17905290516000916060916001600160a01b03851691611f8391613d6f565b600060405180830381855af49150503d8060008114611fbe576040519150601f19603f3d011682016040523d82523d6000602084013e611fc3565b606091505b5091509150818190611fe85760405162461bcd60e51b81526004016107249190613e51565b506040516001600160a01b038416907fbc7cd75a20ee27fd9adebab32041f755214dbc6bffa90cc0225b39da2e5c2d3b90600090a2505050565b600690565b61202f613809565b506040805160208101909152670928ca80cfc20000815290565b6120516137e8565b604051806060016040528060008152602001635fbef0008152602001611c20815250905090565b600061085c82600001516109dd84604001516109348660200151610c2a612933565b609690565b6001600160a01b03166000908152600e60205260409020600501805460ff19166001179055565b620f424090565b6001600160a01b0382166000908152600c60205260409020600101546120f9908263ffffffff611dd916565b6001600160a01b0383166000908152600c6020526040902060010155600354612128908263ffffffff611dd916565b6003556040516001600160a01b038316906000907fddf252ad1be2c89b69c2b068fc378daa952ba7f163c4a11628f55a4df523b3ef90610bb3908590613ed2565b60045461217c908263ffffffff611dd916565b60045550565b600061218c610d80565b61219857506000610875565b6121a0613809565b6121ac610dea84610f33565b90506108b66121bd60016064611ef1565b829063ffffffff611f2016565b602490565b6121d7611019565b6001600160a01b039092166000908152600e60205260409020918255600190910155565b6001600160a01b0383166000908152600e602052604090206003015461222890838363ffffffff6127bf16565b6001600160a01b039093166000908152600e60205260409020600301929092555050565b6001600160a01b0383166000908152600e602052604090206002015461227990838363ffffffff6127bf16565b6001600160a01b039093166000908152600e60205260409020600201929092555050565b6001600160a01b0382166000908152600e60205260409020600301546122c9908263ffffffff611dd916565b6001600160a01b039092166000908152600e602052604090206003019190915550565b6001600160a01b0382166000908152600e6020526040902060020154612318908263ffffffff611dd916565b6001600160a01b039092166000908152600e602052604090206002019190915550565b6001600160a01b038083166000908152600e6020908152604080832093871683526004909301905220805482919060ff1916600183600281111561237b57fe5b0217905550505050565b6001600160a01b0382166000908152600c6020526040812060050154906123b76123ae8461087a565b6109dd856119c6565b9050818111156123e0576001600160a01b0384166000908152600c602052604090206005018190555b50505050565b6123ee610ecc565b6001600160a01b031663a9059cbb83836040518363ffffffff1660e01b815260040161241b929190613e0b565b602060405180830381600087803b15801561243557600080fd5b505af1158015612449573d6000803e3d6000fd5b505050506040513d601f19601f8201168201806040525061246d91908101906139ec565b50612490816040518060600160405280602a81526020016140ff602a9139612937565b612498612952565b5050565b60006124c16124bc836124b0878787612a25565b9063ffffffff612b9e16565b612bc5565b949350505050565b6124d1610ecc565b6001600160a01b03166323b872dd8330846040518463ffffffff1660e01b815260040161250093929190613dfd565b602060405180830381600087803b15801561251a57600080fd5b505af115801561252e573d6000803e3d6000fd5b505050506040513d601f19601f8201168201806040525061255291908101906139ec565b5061255b610ecc565b6001600160a01b03166342966c68826040518263ffffffff1660e01b81526004016125869190613ed2565b600060405180830381600087803b1580156125a057600080fd5b505af11580156125b4573d6000803e3d6000fd5b50505050612490816040518060600160405280602881526020016140d760289139612be2565b68056bc75e2d6310000090565b6125ef610ecc565b6001600160a01b03166340c10f1983836040518363ffffffff1660e01b815260040161261c929190613e0b565b602060405180830381600087803b15801561263657600080fd5b505af115801561264a573d6000803e3d6000fd5b505050506040513d601f19601f8201168201806040525061266e91908101906139ec565b5061267a610560611019565b6124905761249081612bfd565b6126c2612692611019565b61269a610ea9565b1166426f6e64696e6760c81b720a6e8d2d8d840c6eae4e4cadce840cae0dec6d606b1b611bbc565b6126ca612c1e565b610fbc612c45565b6126da613809565b6126e2612c5e565b90506126ef6121bd612d26565b1561270b576126fc612d48565b61270581612d4f565b50610fbc565b612723612716612d26565b829063ffffffff612e0516565b156127315761270581612e19565b612739611019565b6040517fff7db5a0dc69b02c191ba632db46961b7d0daa1bd30709ddba9b80ad0a15d2c090600090a250565b60005b61277361053a611019565b81101561279b5761279361278e612788611019565b83610e79565b612e93565b600101612768565b5060006127a9610da0612f3f565b90506127bc6127b6611019565b82612f45565b50565b600081848411156127e35760405162461bcd60e51b81526004016107249190613e51565b505050900390565b606080826040516020016127ff9190613d5a565b60408051601f19818403018152919052905060205b80156128545781516000199091019082908290811061282f57fe5b01602001516001600160f81b0319161561284f5760010181529050610875565b612814565b505060408051600081526020810190915292915050565b6000818361288c5760405162461bcd60e51b81526004016107249190613e51565b50600083858161289857fe5b0495945050505050565b60006124c182610934868663ffffffff611c3b16565b8051825160009114156128cd5750600161085c565b81518351116128dd5760006128e0565b60025b60ff169392505050565b6128f381612f77565b61290f5760405162461bcd60e51b815260040161072490613e92565b7f360894a13ba1a3210667c828492db98dca3e2076cc3735a920a3ca505d382bbc55565b4290565b60065461294b90838363ffffffff6127bf16565b6006555050565b610fbc6129736129606108ad565b6109dd61296b61161d565b6109dd610d80565b61297b610ecc565b6001600160a01b03166370a08231306040518263ffffffff1660e01b81526004016129a69190613dac565b60206040518083038186803b1580156129be57600080fd5b505afa1580156129d2573d6000803e3d6000fd5b505050506040513d601f19601f820116820180604052506129f69190810190613a58565b10156a21b7b6b83a3937b63632b960a91b74496e636f6e73697374656e742062616c616e63657360581b611bbc565b612a2d613809565b612a35613809565b612a3f8486611ef1565b9050612a49613809565b612a51612f7d565b90506000612a65878663ffffffff611e8d16565b90506000612a79878763ffffffff611e8d16565b9050612a83613809565b612a8d8284611ef1565b9050612a9f858563ffffffff611f2016565b15612b8757612ab4818563ffffffff611f2016565b15612ace57612ac284612f9f565b955050505050506108b6565b612ad6613809565b612ae08286612ff7565b9050612aea613809565b612afa868463ffffffff61305416565b9050612b04613809565b612b0d87612f9f565b9050612b17613809565b612b27898963ffffffff61305416565b9050612b77612b3c848363ffffffff61307d16565b612b6b612b4f858563ffffffff6130a616565b612b5f888863ffffffff6130a616565b9063ffffffff61307d16565b9063ffffffff6130d416565b99505050505050505050506108b6565b612b918186612ff7565b9998505050505050505050565b612ba6613809565b604080516020810190915283518190611f17908563ffffffff611c3b16565b805160009061085c90670de0b6b3a764000063ffffffff611c7516565b600754612bf690838363ffffffff6127bf16565b6007555050565b612c0681613102565b612c16612c11612f7d565b61311b565b6127bc612952565b612c266108a7565b600d6000612c32611019565b8152602081019190915260400160002055565b600254612c5990600163ffffffff611dd916565b600255565b612c66613809565b612c6e613809565b6000612c78610f64565b6001600160a01b031663d4a3e9d76040518163ffffffff1660e01b81526004016040805180830381600087803b158015612cb157600080fd5b505af1158015612cc5573d6000803e3d6000fd5b505050506040513d601f19601f82011682018060405250612ce99190810190613a0a565b91509150612cfd6105606001610c2a611019565b15612d1357612d0a6131ce565b92505050610856565b80612d2057612d0a612d26565b50905090565b612d2e613809565b506040805160208101909152670de0b6b3a7640000815290565b6000600755565b612d57613809565b612d82612d7d612d656131f0565b612b6b612d70612d26565b869063ffffffff61305416565b613212565b90506000612da16124bc612d946111bc565b849063ffffffff612b9e16565b90506000806000612db184613246565b925092509250612dbf611019565b86516040517f32fcaa1e76ed9517f4749d8ec9a77dd5e7329456d740b9bf9665d900eef5e28391612df591879087908790613f09565b60405180910390a2505050505050565b6000612e1183836128b8565b159392505050565b612e21613809565b612e3c612d7d83612e30612d26565b9063ffffffff61305416565b90506000612e4e6124bc612d946111bc565b9050612e5981612bfd565b612e61611019565b83516040517f5e139d4b8080a4a00dcc151e8217694aeebae893936326aa22096924a9906677916109fa918590613ee0565b6000612e9e82611608565b905060008080612ead856133b2565b6000612eb76108ad565b90506000612ec3611170565b905080821115612ef857612edd828263ffffffff611e8d16565b9450612ee8856133f5565b612ef185613246565b9095509350505b867f753df65b37159bf237ae1fca97ba1bd57cf83bc9498f271a514a4d7bafe87bda87878787604051612f2e9493929190613f09565b60405180910390a250505050505050565b61016890565b6000828152600d6020908152604080832060020184905592825291812060030180546001810182559082529190200155565b3b151590565b612f85613809565b5060408051602081019091526704db732547630000815290565b612fa7613809565b61085c612fb660016003611ef1565b612e30612fef612fd96002612fcd88612e30612d26565b9063ffffffff61347c16565b612fe360036134d2565b9063ffffffff6130a616565b612b6b612d26565b612fff613809565b61300f838363ffffffff61350616565b156130245761301d83612f9f565b905061085c565b6108b661303360016003611ef1565b612e30612fef61304587612e30612d26565b612fe3612fd988612e30612d26565b61305c613809565b6040805160208101909152825184518291611f17919063ffffffff611e8d16565b613085613809565b6040805160208101909152825184518291611f17919063ffffffff611dd916565b6130ae613809565b6040518060200160405280611f1785600001518560000151670de0b6b3a76400006128a2565b6130dc613809565b6040518060200160405280611f178560000151670de0b6b3a764000086600001516128a2565b600754613115908263ffffffff611dd916565b60075550565b600061319b6124bc61312b610ecc565b6001600160a01b03166318160ddd6040518163ffffffff1660e01b815260040160206040518083038186803b15801561316357600080fd5b505afa158015613177573d6000803e3d6000fd5b505050506040513d601f19601f82011682018060405250612d949190810190613a58565b905060006131a76119e1565b9050818111156116035760006131c3828463ffffffff611e8d16565b90506123e08161350d565b6131d6613809565b50604080516020810190915267155f2dd73a1a0000815290565b6131f8613809565b50604080516020810190915267a688906bd8b00000815290565b61321a613809565b613222613809565b61322a61354c565b905061323c838263ffffffff611f2016565b61085c57826108b6565b60008080808080806132566108ad565b90506000613262611170565b90508082101561331f5761327c818363ffffffff611e8d16565b94506132a4613293606461328e61356e565b611e8d565b61093487606463ffffffff611c3b16565b94508885116132b357846132b5565b885b94506132d460646109346132c761356e565b889063ffffffff611c3b16565b92506132e6858463ffffffff611e8d16565b94506132f183613573565b6132fa85613607565b61330a898463ffffffff611e8d16565b985061331c898663ffffffff611e8d16565b98505b60006133296119e1565b905060008a11801561333b5750600081115b1561336d5789811161334d578061334f565b895b945061335a8561350d565b61336a8a8663ffffffff611e8d16565b99505b613375610d80565b61337e57600099505b891561338d5761338d8a613698565b858561339f8c8763ffffffff611dd916565b9850985098505050505050509193909250565b60006133bd82611608565b9050806133ca57506127bc565b6008546133dd908263ffffffff611e8d16565b600855506000908152600d6020526040812060010155565b6133fd610ecc565b6001600160a01b03166342966c68826040518263ffffffff1660e01b81526004016134289190613ed2565b600060405180830381600087803b15801561344257600080fd5b505af1158015613456573d6000803e3d6000fd5b50505050612c16816040518060600160405280602a81526020016140ff602a9139612937565b613484613809565b816134935761301d60016134d2565b61349b613809565b5060408051602081019091528351815260015b838110156134ca576134c082866130a6565b91506001016134ae565b509392505050565b6134da613809565b6040805160208101909152806134fe84670de0b6b3a764000063ffffffff611c3b16565b905292915050565b5190511490565b612c16816040518060400160405280601c81526020017f436f6d7074726f6c6c65723a206e6f7420656e6f756768206465627400000000815250612be2565b613554613809565b50604080516020810190915267016345785d8a0000815290565b602890565b80156127bc57613581610ecc565b6001600160a01b03166340c10f19613597610898565b836040518363ffffffff1660e01b81526004016135b5929190613e0b565b602060405180830381600087803b1580156135cf57600080fd5b505af11580156135e3573d6000803e3d6000fd5b505050506040513d601f19601f8201168201806040525061249891908101906139ec565b61360f610ecc565b6001600160a01b03166340c10f1930836040518363ffffffff1660e01b815260040161363c929190613e0b565b602060405180830381600087803b15801561365657600080fd5b505af115801561366a573d6000803e3d6000fd5b505050506040513d601f19601f8201168201806040525061368e91908101906139ec565b50612c1681613738565b6136db60006136a5610d80565b116a21b7b6b83a3937b63632b960a91b7f43616e74206d696e7420746f20656d70747920706f6f6c000000000000000000611bbc565b60006136fa60646109346136ed61356e565b859063ffffffff611c3b16565b9050600081831161370c57600061371c565b61371c838363ffffffff611e8d16565b905061372782613573565b61373081613751565b611603612952565b60065461374b908263ffffffff611dd916565b60065550565b80156127bc5761375f610ecc565b6001600160a01b03166340c10f1930836040518363ffffffff1660e01b815260040161378c929190613e0b565b602060405180830381600087803b1580156137a657600080fd5b505af11580156137ba573d6000803e3d6000fd5b505050506040513d601f19601f820116820180604052506137de91908101906139ec565b506127bc81612169565b60405180606001604052806000815260200160008152602001600081525090565b6040518060200160405280600081525090565b803561085c81614016565b805161085c8161402a565b803561085c81614033565b60006020828403121561384f57600080fd5b6138596020613f4c565b90506000613867848461387b565b82525092915050565b803561085c81614040565b805161085c81614040565b60006020828403121561389857600080fd5b60006124c1848461381c565b600080604083850312156138b757600080fd5b60006138c3858561381c565b92505060206138d48582860161381c565b9150509250929050565b6000806000606084860312156138f357600080fd5b60006138ff868661381c565b93505060206139108682870161381c565b925050604061392186828701613870565b9150509250925092565b6000806000806080858703121561394157600080fd5b600061394d878761381c565b945050602061395e8782880161381c565b935050604061396f87828801613870565b925050606061398087828801613870565b91505092959194509250565b6000806040838503121561399f57600080fd5b60006139ab858561381c565b92505060206138d485828601613832565b600080604083850312156139cf57600080fd5b60006139db858561381c565b92505060206138d485828601613870565b6000602082840312156139fe57600080fd5b60006124c18484613827565b60008060408385031215613a1d57600080fd5b6000613a29858561383d565b92505060206138d485828601613827565b600060208284031215613a4c57600080fd5b60006124c18484613870565b600060208284031215613a6a57600080fd5b60006124c1848461387b565b60008060408385031215613a8957600080fd5b60006139db8585613870565b613a9e81613fb9565b82525050565b613a9e81613f80565b613a9e81613f8b565b613a9e613ac282613f90565b610856565b613a9e613ac282610856565b6000613ade82613f73565b613ae88185610875565b9350613af8818560208601613fd6565b9290920192915050565b613a9e81613fc0565b613a9e81613fcb565b6000613b1f82613f73565b613b298185613f77565b9350613b39818560208601613fd6565b613b4281614002565b9093019392505050565b6000613b59601b83613f77565b7f536166654d6174683a206164646974696f6e206f766572666c6f770000000000815260200192915050565b6000613b92602b83613f77565b7f4d61726b65743a20436f75706f6e207472616e7366657220746f20746865207a81526a65726f206164647265737360a81b602082015260400192915050565b6000613bdf602183613f77565b7f536166654d6174683a206d756c7469706c69636174696f6e206f766572666c6f8152607760f81b602082015260400192915050565b6000613c22603b83613f77565b7f43616e6e6f742073657420612070726f787920696d706c656d656e746174696f81527f6e20746f2061206e6f6e2d636f6e747261637420616464726573730000000000602082015260400192915050565b6000613c81602a83613f77565b7f4d61726b65743a20436f75706f6e20617070726f766520746f20746865207a65815269726f206164647265737360b01b602082015260400192915050565b6000613ccd602d83613f77565b7f4d61726b65743a20436f75706f6e207472616e736665722066726f6d2074686581526c207a65726f206164647265737360981b602082015260400192915050565b6000613d1c601b83613f77565b7f4d61726b65743a20546f6f206561726c7920746f2072656465656d0000000000815260200192915050565b613a9e81610856565b613a9e81613fb3565b6000613d668284613ac7565b50602001919050565b60006108b68284613ad3565b6000613d878286613ad3565b9150613d938285613ab6565b600282019150613da38284613ad3565b95945050505050565b6020810161085c8284613aa4565b60608101613dc88286613a95565b613dd56020830185613aa4565b6124c16040830184613d48565b60408101613df08285613a95565b6108b66020830184613d48565b60608101613dc88286613aa4565b60408101613df08285613aa4565b6020810161085c8284613aad565b6020810161085c8284613b02565b6020810161085c8284613b0b565b60408101613df08285613b0b565b602080825281016108b68184613b14565b6020808252810161085c81613b4c565b6020808252810161085c81613b85565b6020808252810161085c81613bd2565b6020808252810161085c81613c15565b6020808252810161085c81613c74565b6020808252810161085c81613cc0565b6020808252810161085c81613d0f565b6020810161085c8284613d48565b60408101613df08285613d48565b60608101613efc8286613d48565b613dd56020830185613d48565b60808101613f178287613d48565b613f246020830186613d48565b613f316040830185613d48565b613da36060830184613d48565b6020810161085c8284613d51565b60405181810167ffffffffffffffff81118282101715613f6b57600080fd5b604052919050565b5190565b90815260200190565b600061085c82613fa7565b151590565b6001600160f01b03191690565b806108758161400c565b6001600160a01b031690565b60ff1690565b600061085c825b600061085c82613f80565b600061085c82613f9d565b60005b83811015613ff1578181015183820152602001613fd9565b838111156123e05750506000910152565b601f01601f191690565b600381106127bc57fe5b61401f81613f80565b81146127bc57600080fd5b61401f81613f8b565b600381106127bc57600080fd5b61401f8161085656fe4d61726b65743a20496e73756666696369656e7420636f75706f6e2062616c616e6365426f6e64696e673a20696e73756666696369656e74207374616765642062616c616e63654d61726b65743a20496e73756666696369656e7420636f75706f6e20617070726f76616c426f6e64696e673a20696e73756666696369656e7420746f74616c20626f6e646564436f6d7074726f6c6c65723a206e6f7420656e6f756768206f75747374616e64696e672064656274436f6d7074726f6c6c65723a206e6f7420656e6f7567682072656465656d61626c652062616c616e6365a365627a7a7231582068e56019ce335b9c60b64b1fc795dc36d20843d67762cb2a1bdda463370f18c66c6578706572696d656e74616cf564736f6c63430005110040",
  "source": "/*\n    Copyright 2020 Dynamic Dollar Devs, based on the works of the Empty Set Squad\n\n    Licensed under the Apache License, Version 2.0 (the \"License\");\n    you may not use this file except in compliance with the License.\n    You may obtain a copy of the License at\n\n    http://www.apache.org/licenses/LICENSE-2.0\n\n    Unless required by applicable law or agreed to in writing, software\n    distributed under the License is distributed on an \"AS IS\" BASIS,\n    WITHOUT WARRANTIES OR CONDITIONS OF ANY KIND, either express or implied.\n    See the License for the specific language governing permissions and\n    limitations under the License.\n*/\n\npragma solidity ^0.5.17;\npragma experimental ABIEncoderV2;\n\nimport \"@openzeppelin/contracts/math/SafeMath.sol\";\nimport \"./Market.sol\";\nimport \"./Regulator.sol\";\nimport \"./Bonding.sol\";\nimport \"./Govern.sol\";\nimport \"../Constants.sol\";\n\ncontract Implementation is State, Bonding, Market, Regulator, Govern {\n    using SafeMath for uint256;\n\n    event Advance(uint256 indexed epoch, uint256 block, uint256 timestamp);\n    event Incentivization(address indexed account, uint256 amount);\n\n    function initialize() initializer public {\n    }\n\n    function advance() external incentivized {\n        Bonding.step();\n        Regulator.step();\n        Market.step();\n\n        emit Advance(epoch(), block.number, block.timestamp);\n    }\n\n    modifier incentivized {\n        // Mint advance reward to sender\n        uint256 incentive = Constants.getAdvanceIncentive();\n        mintToAccount(msg.sender, incentive);\n        emit Incentivization(msg.sender, incentive);\n        _;\n    }\n}\n",
  "sourcePath": "/home/name/Desktop/Files/projects/dynamic/dollar/protocol/contracts/dao/Implementation.sol",
  "compiler": {
    "name": "solc",
    "version": "0.5.17+commit.d19bba13.Emscripten.clang"
  },
  "schemaVersion": "3.3.1",
  "updatedAt": "2020-11-25T22:42:17.282Z",
  "networkType": "ethereum",
  "devdoc": {
    "methods": {}
  },
  "userdoc": {
    "methods": {
      "balanceOfStaged(address)": {
        "notice": "Account"
      },
      "dollar()": {
        "notice": "Global"
      },
      "epoch()": {
        "notice": "Epoch"
      },
      "name()": {
        "notice": "ERC20 Interface"
      },
      "recordedVote(address,address)": {
        "notice": "Governance"
      },
      "transfer(address,uint256)": {
        "notice": "ERC20 Interface"
      }
    }
  }
}