{
  "contractName": "Implementation",
  "abi": [
    {
      "anonymous": false,
      "inputs": [
        {
          "indexed": true,
          "internalType": "uint256",
          "name": "epoch",
          "type": "uint256"
        },
        {
          "indexed": false,
          "internalType": "uint256",
          "name": "block",
          "type": "uint256"
        },
        {
          "indexed": false,
          "internalType": "uint256",
          "name": "timestamp",
          "type": "uint256"
        }
      ],
      "name": "Advance",
      "type": "event"
    },
    {
      "anonymous": false,
      "inputs": [
        {
          "indexed": true,
          "internalType": "address",
          "name": "account",
          "type": "address"
        },
        {
          "indexed": false,
          "internalType": "uint256",
          "name": "start",
          "type": "uint256"
        },
        {
          "indexed": false,
          "internalType": "uint256",
          "name": "value",
          "type": "uint256"
        },
        {
          "indexed": false,
          "internalType": "uint256",
          "name": "valueUnderlying",
          "type": "uint256"
        }
      ],
      "name": "Bond",
      "type": "event"
    },
    {
      "anonymous": false,
      "inputs": [
        {
          "indexed": true,
          "internalType": "address",
          "name": "account",
          "type": "address"
        },
        {
          "indexed": true,
          "internalType": "address",
          "name": "candidate",
          "type": "address"
        }
      ],
      "name": "Commit",
      "type": "event"
    },
    {
      "anonymous": false,
      "inputs": [
        {
          "indexed": true,
          "internalType": "address",
          "name": "owner",
          "type": "address"
        },
        {
          "indexed": true,
          "internalType": "address",
          "name": "spender",
          "type": "address"
        },
        {
          "indexed": false,
          "internalType": "uint256",
          "name": "value",
          "type": "uint256"
        }
      ],
      "name": "CouponApproval",
      "type": "event"
    },
    {
      "anonymous": false,
      "inputs": [
        {
          "indexed": true,
          "internalType": "address",
          "name": "account",
          "type": "address"
        },
        {
          "indexed": true,
          "internalType": "uint256",
          "name": "epoch",
          "type": "uint256"
        },
        {
          "indexed": false,
          "internalType": "uint256",
          "name": "dollarAmount",
          "type": "uint256"
        },
        {
          "indexed": false,
          "internalType": "uint256",
          "name": "maxCouponAmount",
          "type": "uint256"
        }
      ],
      "name": "CouponBidPlaced",
      "type": "event"
    },
    {
      "anonymous": false,
      "inputs": [
        {
          "indexed": true,
          "internalType": "address",
          "name": "account",
          "type": "address"
        },
        {
          "indexed": true,
          "internalType": "uint256",
          "name": "epoch",
          "type": "uint256"
        },
        {
          "indexed": false,
          "internalType": "uint256",
          "name": "couponAmount",
          "type": "uint256"
        }
      ],
      "name": "CouponBurn",
      "type": "event"
    },
    {
      "anonymous": false,
      "inputs": [
        {
          "indexed": true,
          "internalType": "uint256",
          "name": "epoch",
          "type": "uint256"
        },
        {
          "indexed": false,
          "internalType": "uint256",
          "name": "couponsExpired",
          "type": "uint256"
        },
        {
          "indexed": false,
          "internalType": "uint256",
          "name": "lessRedeemable",
          "type": "uint256"
        },
        {
          "indexed": false,
          "internalType": "uint256",
          "name": "lessDebt",
          "type": "uint256"
        },
        {
          "indexed": false,
          "internalType": "uint256",
          "name": "newBonded",
          "type": "uint256"
        }
      ],
      "name": "CouponExpiration",
      "type": "event"
    },
    {
      "anonymous": false,
      "inputs": [
        {
          "indexed": true,
          "internalType": "address",
          "name": "account",
          "type": "address"
        },
        {
          "indexed": true,
          "internalType": "uint256",
          "name": "epoch",
          "type": "uint256"
        },
        {
          "indexed": false,
          "internalType": "uint256",
          "name": "dollarAmount",
          "type": "uint256"
        },
        {
          "indexed": false,
          "internalType": "uint256",
          "name": "couponAmount",
          "type": "uint256"
        }
      ],
      "name": "CouponPurchase",
      "type": "event"
    },
    {
      "anonymous": false,
      "inputs": [
        {
          "indexed": true,
          "internalType": "address",
          "name": "account",
          "type": "address"
        },
        {
          "indexed": true,
          "internalType": "uint256",
          "name": "epoch",
          "type": "uint256"
        },
        {
          "indexed": false,
          "internalType": "uint256",
          "name": "couponAmount",
          "type": "uint256"
        }
      ],
      "name": "CouponRedemption",
      "type": "event"
    },
    {
      "anonymous": false,
      "inputs": [
        {
          "indexed": true,
          "internalType": "address",
          "name": "from",
          "type": "address"
        },
        {
          "indexed": true,
          "internalType": "address",
          "name": "to",
          "type": "address"
        },
        {
          "indexed": true,
          "internalType": "uint256",
          "name": "epoch",
          "type": "uint256"
        },
        {
          "indexed": false,
          "internalType": "uint256",
          "name": "value",
          "type": "uint256"
        }
      ],
      "name": "CouponTransfer",
      "type": "event"
    },
    {
      "anonymous": false,
      "inputs": [
        {
          "indexed": true,
          "internalType": "address",
          "name": "account",
          "type": "address"
        },
        {
          "indexed": false,
          "internalType": "uint256",
          "name": "value",
          "type": "uint256"
        }
      ],
      "name": "Deposit",
      "type": "event"
    },
    {
      "anonymous": false,
      "inputs": [
        {
          "indexed": true,
          "internalType": "address",
          "name": "account",
          "type": "address"
        },
        {
          "indexed": false,
          "internalType": "uint256",
          "name": "amount",
          "type": "uint256"
        }
      ],
      "name": "Incentivization",
      "type": "event"
    },
    {
      "anonymous": false,
      "inputs": [
        {
          "indexed": true,
          "internalType": "address",
          "name": "candidate",
          "type": "address"
        },
        {
          "indexed": true,
          "internalType": "address",
          "name": "account",
          "type": "address"
        },
        {
          "indexed": true,
          "internalType": "uint256",
          "name": "start",
          "type": "uint256"
        },
        {
          "indexed": false,
          "internalType": "uint256",
          "name": "period",
          "type": "uint256"
        }
      ],
      "name": "Proposal",
      "type": "event"
    },
    {
      "anonymous": false,
      "inputs": [
        {
          "indexed": true,
          "internalType": "uint256",
          "name": "epoch",
          "type": "uint256"
        },
        {
          "indexed": false,
          "internalType": "uint256",
          "name": "price",
          "type": "uint256"
        },
        {
          "indexed": false,
          "internalType": "uint256",
          "name": "newDebt",
          "type": "uint256"
        }
      ],
      "name": "SupplyDecrease",
      "type": "event"
    },
    {
      "anonymous": false,
      "inputs": [
        {
          "indexed": true,
          "internalType": "uint256",
          "name": "epoch",
          "type": "uint256"
        },
        {
          "indexed": false,
          "internalType": "uint256",
          "name": "price",
          "type": "uint256"
        },
        {
          "indexed": false,
          "internalType": "uint256",
          "name": "newRedeemable",
          "type": "uint256"
        },
        {
          "indexed": false,
          "internalType": "uint256",
          "name": "lessDebt",
          "type": "uint256"
        },
        {
          "indexed": false,
          "internalType": "uint256",
          "name": "newBonded",
          "type": "uint256"
        }
      ],
      "name": "SupplyIncrease",
      "type": "event"
    },
    {
      "anonymous": false,
      "inputs": [
        {
          "indexed": true,
          "internalType": "uint256",
          "name": "epoch",
          "type": "uint256"
        }
      ],
      "name": "SupplyNeutral",
      "type": "event"
    },
    {
      "anonymous": false,
      "inputs": [
        {
          "indexed": true,
          "internalType": "address",
          "name": "from",
          "type": "address"
        },
        {
          "indexed": true,
          "internalType": "address",
          "name": "to",
          "type": "address"
        },
        {
          "indexed": false,
          "internalType": "uint256",
          "name": "value",
          "type": "uint256"
        }
      ],
      "name": "Transfer",
      "type": "event"
    },
    {
      "anonymous": false,
      "inputs": [
        {
          "indexed": true,
          "internalType": "address",
          "name": "account",
          "type": "address"
        },
        {
          "indexed": false,
          "internalType": "uint256",
          "name": "start",
          "type": "uint256"
        },
        {
          "indexed": false,
          "internalType": "uint256",
          "name": "value",
          "type": "uint256"
        },
        {
          "indexed": false,
          "internalType": "uint256",
          "name": "valueUnderlying",
          "type": "uint256"
        }
      ],
      "name": "Unbond",
      "type": "event"
    },
    {
      "anonymous": false,
      "inputs": [
        {
          "indexed": true,
          "internalType": "address",
          "name": "implementation",
          "type": "address"
        }
      ],
      "name": "Upgraded",
      "type": "event"
    },
    {
      "anonymous": false,
      "inputs": [
        {
          "indexed": true,
          "internalType": "address",
          "name": "account",
          "type": "address"
        },
        {
          "indexed": true,
          "internalType": "address",
          "name": "candidate",
          "type": "address"
        },
        {
          "indexed": false,
          "internalType": "enum Candidate.Vote",
          "name": "vote",
          "type": "uint8"
        },
        {
          "indexed": false,
          "internalType": "uint256",
          "name": "bonded",
          "type": "uint256"
        }
      ],
      "name": "Vote",
      "type": "event"
    },
    {
      "anonymous": false,
      "inputs": [
        {
          "indexed": true,
          "internalType": "address",
          "name": "account",
          "type": "address"
        },
        {
          "indexed": false,
          "internalType": "uint256",
          "name": "value",
          "type": "uint256"
        }
      ],
      "name": "Withdraw",
      "type": "event"
    },
    {
      "constant": true,
      "inputs": [
        {
          "internalType": "address",
          "name": "owner",
          "type": "address"
        },
        {
          "internalType": "address",
          "name": "spender",
          "type": "address"
        }
      ],
      "name": "allowance",
      "outputs": [
        {
          "internalType": "uint256",
          "name": "",
          "type": "uint256"
        }
      ],
      "payable": false,
      "stateMutability": "view",
      "type": "function"
    },
    {
      "constant": true,
      "inputs": [
        {
          "internalType": "address",
          "name": "owner",
          "type": "address"
        },
        {
          "internalType": "address",
          "name": "spender",
          "type": "address"
        }
      ],
      "name": "allowanceCoupons",
      "outputs": [
        {
          "internalType": "uint256",
          "name": "",
          "type": "uint256"
        }
      ],
      "payable": false,
      "stateMutability": "view",
      "type": "function"
    },
    {
      "constant": false,
      "inputs": [
        {
          "internalType": "address",
          "name": "spender",
          "type": "address"
        },
        {
          "internalType": "uint256",
          "name": "amount",
          "type": "uint256"
        }
      ],
      "name": "approve",
      "outputs": [
        {
          "internalType": "bool",
          "name": "",
          "type": "bool"
        }
      ],
      "payable": false,
      "stateMutability": "nonpayable",
      "type": "function"
    },
    {
      "constant": false,
      "inputs": [
        {
          "internalType": "address",
          "name": "spender",
          "type": "address"
        },
        {
          "internalType": "uint256",
          "name": "amount",
          "type": "uint256"
        }
      ],
      "name": "approveCoupons",
      "outputs": [],
      "payable": false,
      "stateMutability": "nonpayable",
      "type": "function"
    },
    {
      "constant": true,
      "inputs": [
        {
          "internalType": "address",
          "name": "candidate",
          "type": "address"
        }
      ],
      "name": "approveFor",
      "outputs": [
        {
          "internalType": "uint256",
          "name": "",
          "type": "uint256"
        }
      ],
      "payable": false,
      "stateMutability": "view",
      "type": "function"
    },
    {
      "constant": true,
      "inputs": [
        {
          "internalType": "address",
          "name": "account",
          "type": "address"
        }
      ],
      "name": "balanceOf",
      "outputs": [
        {
          "internalType": "uint256",
          "name": "",
          "type": "uint256"
        }
      ],
      "payable": false,
      "stateMutability": "view",
      "type": "function"
    },
    {
      "constant": true,
      "inputs": [
        {
          "internalType": "address",
          "name": "account",
          "type": "address"
        }
      ],
      "name": "balanceOfBonded",
      "outputs": [
        {
          "internalType": "uint256",
          "name": "",
          "type": "uint256"
        }
      ],
      "payable": false,
      "stateMutability": "view",
      "type": "function"
    },
    {
      "constant": true,
      "inputs": [
        {
          "internalType": "address",
          "name": "account",
          "type": "address"
        },
        {
          "internalType": "uint256",
          "name": "epoch",
          "type": "uint256"
        }
      ],
      "name": "balanceOfCoupons",
      "outputs": [
        {
          "internalType": "uint256",
          "name": "",
          "type": "uint256"
        }
      ],
      "payable": false,
      "stateMutability": "view",
      "type": "function"
    },
    {
      "constant": true,
      "inputs": [
        {
          "internalType": "address",
          "name": "account",
          "type": "address"
        }
      ],
      "name": "balanceOfStaged",
      "outputs": [
        {
          "internalType": "uint256",
          "name": "",
          "type": "uint256"
        }
      ],
      "payable": false,
      "stateMutability": "view",
      "type": "function"
    },
    {
      "constant": false,
      "inputs": [
        {
          "internalType": "uint256",
          "name": "value",
          "type": "uint256"
        }
      ],
      "name": "bond",
      "outputs": [],
      "payable": false,
      "stateMutability": "nonpayable",
      "type": "function"
    },
    {
      "constant": true,
      "inputs": [
        {
          "internalType": "uint256",
          "name": "epoch",
          "type": "uint256"
        }
      ],
      "name": "bootstrappingAt",
      "outputs": [
        {
          "internalType": "bool",
          "name": "",
          "type": "bool"
        }
      ],
      "payable": false,
      "stateMutability": "view",
      "type": "function"
    },
    {
      "constant": false,
      "inputs": [
        {
          "internalType": "address",
          "name": "candidate",
          "type": "address"
        }
      ],
      "name": "commit",
      "outputs": [],
      "payable": false,
      "stateMutability": "nonpayable",
      "type": "function"
    },
    {
      "constant": true,
      "inputs": [
        {
          "internalType": "uint256",
          "name": "amount",
          "type": "uint256"
        }
      ],
      "name": "couponPremium",
      "outputs": [
        {
          "internalType": "uint256",
          "name": "",
          "type": "uint256"
        }
      ],
      "payable": false,
      "stateMutability": "view",
      "type": "function"
    },
    {
      "constant": true,
      "inputs": [
        {
          "internalType": "uint256",
          "name": "couponEpoch",
          "type": "uint256"
        },
        {
          "internalType": "uint256",
          "name": "couponAmount",
          "type": "uint256"
        }
      ],
      "name": "couponRedemptionPenalty",
      "outputs": [
        {
          "internalType": "uint256",
          "name": "",
          "type": "uint256"
        }
      ],
      "payable": false,
      "stateMutability": "view",
      "type": "function"
    },
    {
      "constant": true,
      "inputs": [
        {
          "internalType": "uint256",
          "name": "epoch",
          "type": "uint256"
        }
      ],
      "name": "couponsExpiration",
      "outputs": [
        {
          "internalType": "uint256",
          "name": "",
          "type": "uint256"
        }
      ],
      "payable": false,
      "stateMutability": "view",
      "type": "function"
    },
    {
      "constant": true,
      "inputs": [],
      "name": "decimals",
      "outputs": [
        {
          "internalType": "uint8",
          "name": "",
          "type": "uint8"
        }
      ],
      "payable": false,
      "stateMutability": "view",
      "type": "function"
    },
    {
      "constant": false,
      "inputs": [
        {
          "internalType": "uint256",
          "name": "value",
          "type": "uint256"
        }
      ],
      "name": "deposit",
      "outputs": [],
      "payable": false,
      "stateMutability": "nonpayable",
      "type": "function"
    },
    {
      "constant": true,
      "inputs": [],
      "name": "dollar",
      "outputs": [
        {
          "internalType": "contract IDollar",
          "name": "",
          "type": "address"
        }
      ],
      "payable": false,
      "stateMutability": "view",
      "type": "function"
    },
    {
      "constant": false,
      "inputs": [
        {
          "internalType": "address",
          "name": "candidate",
          "type": "address"
        }
      ],
      "name": "emergencyCommit",
      "outputs": [],
      "payable": false,
      "stateMutability": "nonpayable",
      "type": "function"
    },
    {
      "constant": true,
      "inputs": [],
      "name": "epoch",
      "outputs": [
        {
          "internalType": "uint256",
          "name": "",
          "type": "uint256"
        }
      ],
      "payable": false,
      "stateMutability": "view",
      "type": "function"
    },
    {
      "constant": true,
      "inputs": [],
      "name": "epochTime",
      "outputs": [
        {
          "internalType": "uint256",
          "name": "",
          "type": "uint256"
        }
      ],
      "payable": false,
      "stateMutability": "view",
      "type": "function"
    },
    {
      "constant": true,
      "inputs": [
        {
          "internalType": "uint256",
          "name": "epoch",
          "type": "uint256"
        }
      ],
      "name": "expiringCoupons",
      "outputs": [
        {
          "internalType": "uint256",
          "name": "",
          "type": "uint256"
        }
      ],
      "payable": false,
      "stateMutability": "view",
      "type": "function"
    },
    {
      "constant": true,
      "inputs": [
        {
          "internalType": "uint256",
          "name": "epoch",
          "type": "uint256"
        },
        {
          "internalType": "uint256",
          "name": "i",
          "type": "uint256"
        }
      ],
      "name": "expiringCouponsAtIndex",
      "outputs": [
        {
          "internalType": "uint256",
          "name": "",
          "type": "uint256"
        }
      ],
      "payable": false,
      "stateMutability": "view",
      "type": "function"
    },
    {
      "constant": true,
      "inputs": [
        {
          "internalType": "address",
          "name": "account",
          "type": "address"
        }
      ],
      "name": "fluidUntil",
      "outputs": [
        {
          "internalType": "uint256",
          "name": "",
          "type": "uint256"
        }
      ],
      "payable": false,
      "stateMutability": "view",
      "type": "function"
    },
    {
      "constant": true,
      "inputs": [
        {
          "internalType": "uint256",
          "name": "epoch",
          "type": "uint256"
        }
      ],
      "name": "getAvgExpiryFilled",
      "outputs": [
        {
          "internalType": "uint256",
          "name": "",
          "type": "uint256"
        }
      ],
      "payable": false,
      "stateMutability": "view",
      "type": "function"
    },
    {
      "constant": true,
      "inputs": [
        {
          "internalType": "uint256",
          "name": "epoch",
          "type": "uint256"
        }
      ],
      "name": "getAvgYieldFilled",
      "outputs": [
        {
          "internalType": "uint256",
          "name": "",
          "type": "uint256"
        }
      ],
      "payable": false,
      "stateMutability": "view",
      "type": "function"
    },
    {
      "constant": true,
      "inputs": [
        {
          "internalType": "uint256",
          "name": "epoch",
          "type": "uint256"
        }
      ],
      "name": "getBidToCover",
      "outputs": [
        {
          "internalType": "uint256",
          "name": "",
          "type": "uint256"
        }
      ],
      "payable": false,
      "stateMutability": "view",
      "type": "function"
    },
    {
      "constant": true,
      "inputs": [
        {
          "internalType": "uint256",
          "name": "epoch",
          "type": "uint256"
        }
      ],
      "name": "getMaxExpiryFilled",
      "outputs": [
        {
          "internalType": "uint256",
          "name": "",
          "type": "uint256"
        }
      ],
      "payable": false,
      "stateMutability": "view",
      "type": "function"
    },
    {
      "constant": true,
      "inputs": [
        {
          "internalType": "uint256",
          "name": "epoch",
          "type": "uint256"
        }
      ],
      "name": "getMaxYieldFilled",
      "outputs": [
        {
          "internalType": "uint256",
          "name": "",
          "type": "uint256"
        }
      ],
      "payable": false,
      "stateMutability": "view",
      "type": "function"
    },
    {
      "constant": true,
      "inputs": [
        {
          "internalType": "uint256",
          "name": "epoch",
          "type": "uint256"
        }
      ],
      "name": "getMinExpiryFilled",
      "outputs": [
        {
          "internalType": "uint256",
          "name": "",
          "type": "uint256"
        }
      ],
      "payable": false,
      "stateMutability": "view",
      "type": "function"
    },
    {
      "constant": true,
      "inputs": [
        {
          "internalType": "uint256",
          "name": "epoch",
          "type": "uint256"
        }
      ],
      "name": "getMinYieldFilled",
      "outputs": [
        {
          "internalType": "uint256",
          "name": "",
          "type": "uint256"
        }
      ],
      "payable": false,
      "stateMutability": "view",
      "type": "function"
    },
    {
      "constant": true,
      "inputs": [
        {
          "internalType": "uint256",
          "name": "epoch",
          "type": "uint256"
        }
      ],
      "name": "getTotalFilled",
      "outputs": [
        {
          "internalType": "uint256",
          "name": "",
          "type": "uint256"
        }
      ],
      "payable": false,
      "stateMutability": "view",
      "type": "function"
    },
    {
      "constant": true,
      "inputs": [],
      "name": "implementation",
      "outputs": [
        {
          "internalType": "address",
          "name": "impl",
          "type": "address"
        }
      ],
      "payable": false,
      "stateMutability": "view",
      "type": "function"
    },
    {
      "constant": true,
      "inputs": [
        {
          "internalType": "address",
          "name": "candidate",
          "type": "address"
        }
      ],
      "name": "isInitialized",
      "outputs": [
        {
          "internalType": "bool",
          "name": "",
          "type": "bool"
        }
      ],
      "payable": false,
      "stateMutability": "view",
      "type": "function"
    },
    {
      "constant": true,
      "inputs": [
        {
          "internalType": "address",
          "name": "candidate",
          "type": "address"
        }
      ],
      "name": "isNominated",
      "outputs": [
        {
          "internalType": "bool",
          "name": "",
          "type": "bool"
        }
      ],
      "payable": false,
      "stateMutability": "view",
      "type": "function"
    },
    {
      "constant": true,
      "inputs": [
        {
          "internalType": "address",
          "name": "account",
          "type": "address"
        }
      ],
      "name": "lockedUntil",
      "outputs": [
        {
          "internalType": "uint256",
          "name": "",
          "type": "uint256"
        }
      ],
      "payable": false,
      "stateMutability": "view",
      "type": "function"
    },
    {
      "constant": true,
      "inputs": [],
      "name": "name",
      "outputs": [
        {
          "internalType": "string",
          "name": "",
          "type": "string"
        }
      ],
      "payable": false,
      "stateMutability": "view",
      "type": "function"
    },
    {
      "constant": true,
      "inputs": [],
      "name": "oracle",
      "outputs": [
        {
          "internalType": "contract IOracle",
          "name": "",
          "type": "address"
        }
      ],
      "payable": false,
      "stateMutability": "view",
      "type": "function"
    },
    {
      "constant": true,
      "inputs": [
        {
          "internalType": "uint256",
          "name": "epoch",
          "type": "uint256"
        }
      ],
      "name": "outstandingCoupons",
      "outputs": [
        {
          "internalType": "uint256",
          "name": "",
          "type": "uint256"
        }
      ],
      "payable": false,
      "stateMutability": "view",
      "type": "function"
    },
    {
      "constant": true,
      "inputs": [
        {
          "internalType": "address",
          "name": "candidate",
          "type": "address"
        }
      ],
      "name": "periodFor",
      "outputs": [
        {
          "internalType": "uint256",
          "name": "",
          "type": "uint256"
        }
      ],
      "payable": false,
      "stateMutability": "view",
      "type": "function"
    },
    {
      "constant": false,
      "inputs": [
        {
          "internalType": "uint256",
          "name": "couponEpochExpiry",
          "type": "uint256"
        },
        {
          "internalType": "uint256",
          "name": "dollarAmount",
          "type": "uint256"
        },
        {
          "internalType": "uint256",
          "name": "maxCouponAmount",
          "type": "uint256"
        }
      ],
      "name": "placeCouponAuctionBid",
      "outputs": [
        {
          "internalType": "bool",
          "name": "",
          "type": "bool"
        }
      ],
      "payable": false,
      "stateMutability": "nonpayable",
      "type": "function"
    },
    {
      "constant": true,
      "inputs": [],
      "name": "pool",
      "outputs": [
        {
          "internalType": "address",
          "name": "",
          "type": "address"
        }
      ],
      "payable": false,
      "stateMutability": "view",
      "type": "function"
    },
    {
      "constant": false,
      "inputs": [
        {
          "internalType": "uint256",
          "name": "dollarAmount",
          "type": "uint256"
        }
      ],
      "name": "purchaseCoupons",
      "outputs": [
        {
          "internalType": "uint256",
          "name": "",
          "type": "uint256"
        }
      ],
      "payable": false,
      "stateMutability": "nonpayable",
      "type": "function"
    },
    {
      "constant": true,
      "inputs": [
        {
          "internalType": "address",
          "name": "account",
          "type": "address"
        },
        {
          "internalType": "address",
          "name": "candidate",
          "type": "address"
        }
      ],
      "name": "recordedVote",
      "outputs": [
        {
          "internalType": "enum Candidate.Vote",
          "name": "",
          "type": "uint8"
        }
      ],
      "payable": false,
      "stateMutability": "view",
      "type": "function"
    },
    {
      "constant": false,
      "inputs": [
        {
          "internalType": "uint256",
          "name": "couponEpoch",
          "type": "uint256"
        },
        {
          "internalType": "uint256",
          "name": "couponAmount",
          "type": "uint256"
        },
        {
          "internalType": "uint256",
          "name": "minOutput",
          "type": "uint256"
        }
      ],
      "name": "redeemCoupons",
      "outputs": [],
      "payable": false,
      "stateMutability": "nonpayable",
      "type": "function"
    },
    {
      "constant": false,
      "inputs": [
        {
          "internalType": "uint256",
          "name": "couponEpoch",
          "type": "uint256"
        },
        {
          "internalType": "uint256",
          "name": "couponAmount",
          "type": "uint256"
        }
      ],
      "name": "redeemCoupons",
      "outputs": [],
      "payable": false,
      "stateMutability": "nonpayable",
      "type": "function"
    },
    {
      "constant": true,
      "inputs": [
        {
          "internalType": "address",
          "name": "candidate",
          "type": "address"
        }
      ],
      "name": "rejectFor",
      "outputs": [
        {
          "internalType": "uint256",
          "name": "",
          "type": "uint256"
        }
      ],
      "payable": false,
      "stateMutability": "view",
      "type": "function"
    },
    {
      "constant": true,
      "inputs": [
        {
          "internalType": "address",
          "name": "candidate",
          "type": "address"
        }
      ],
      "name": "startFor",
      "outputs": [
        {
          "internalType": "uint256",
          "name": "",
          "type": "uint256"
        }
      ],
      "payable": false,
      "stateMutability": "view",
      "type": "function"
    },
    {
      "constant": true,
      "inputs": [
        {
          "internalType": "address",
          "name": "account",
          "type": "address"
        }
      ],
      "name": "statusOf",
      "outputs": [
        {
          "internalType": "enum Account.Status",
          "name": "",
          "type": "uint8"
        }
      ],
      "payable": false,
      "stateMutability": "view",
      "type": "function"
    },
    {
      "constant": true,
      "inputs": [],
      "name": "symbol",
      "outputs": [
        {
          "internalType": "string",
          "name": "",
          "type": "string"
        }
      ],
      "payable": false,
      "stateMutability": "view",
      "type": "function"
    },
    {
      "constant": true,
      "inputs": [],
      "name": "totalBonded",
      "outputs": [
        {
          "internalType": "uint256",
          "name": "",
          "type": "uint256"
        }
      ],
      "payable": false,
      "stateMutability": "view",
      "type": "function"
    },
    {
      "constant": true,
      "inputs": [
        {
          "internalType": "uint256",
          "name": "epoch",
          "type": "uint256"
        }
      ],
      "name": "totalBondedAt",
      "outputs": [
        {
          "internalType": "uint256",
          "name": "",
          "type": "uint256"
        }
      ],
      "payable": false,
      "stateMutability": "view",
      "type": "function"
    },
    {
      "constant": true,
      "inputs": [],
      "name": "totalCoupons",
      "outputs": [
        {
          "internalType": "uint256",
          "name": "",
          "type": "uint256"
        }
      ],
      "payable": false,
      "stateMutability": "view",
      "type": "function"
    },
    {
      "constant": true,
      "inputs": [],
      "name": "totalDebt",
      "outputs": [
        {
          "internalType": "uint256",
          "name": "",
          "type": "uint256"
        }
      ],
      "payable": false,
      "stateMutability": "view",
      "type": "function"
    },
    {
      "constant": true,
      "inputs": [],
      "name": "totalNet",
      "outputs": [
        {
          "internalType": "uint256",
          "name": "",
          "type": "uint256"
        }
      ],
      "payable": false,
      "stateMutability": "view",
      "type": "function"
    },
    {
      "constant": true,
      "inputs": [],
      "name": "totalRedeemable",
      "outputs": [
        {
          "internalType": "uint256",
          "name": "",
          "type": "uint256"
        }
      ],
      "payable": false,
      "stateMutability": "view",
      "type": "function"
    },
    {
      "constant": true,
      "inputs": [],
      "name": "totalStaged",
      "outputs": [
        {
          "internalType": "uint256",
          "name": "",
          "type": "uint256"
        }
      ],
      "payable": false,
      "stateMutability": "view",
      "type": "function"
    },
    {
      "constant": true,
      "inputs": [],
      "name": "totalSupply",
      "outputs": [
        {
          "internalType": "uint256",
          "name": "",
          "type": "uint256"
        }
      ],
      "payable": false,
      "stateMutability": "view",
      "type": "function"
    },
    {
      "constant": false,
      "inputs": [
        {
          "internalType": "address",
          "name": "recipient",
          "type": "address"
        },
        {
          "internalType": "uint256",
          "name": "amount",
          "type": "uint256"
        }
      ],
      "name": "transfer",
      "outputs": [
        {
          "internalType": "bool",
          "name": "",
          "type": "bool"
        }
      ],
      "payable": false,
      "stateMutability": "nonpayable",
      "type": "function"
    },
    {
      "constant": false,
      "inputs": [
        {
          "internalType": "address",
          "name": "sender",
          "type": "address"
        },
        {
          "internalType": "address",
          "name": "recipient",
          "type": "address"
        },
        {
          "internalType": "uint256",
          "name": "epoch",
          "type": "uint256"
        },
        {
          "internalType": "uint256",
          "name": "amount",
          "type": "uint256"
        }
      ],
      "name": "transferCoupons",
      "outputs": [],
      "payable": false,
      "stateMutability": "nonpayable",
      "type": "function"
    },
    {
      "constant": false,
      "inputs": [
        {
          "internalType": "address",
          "name": "sender",
          "type": "address"
        },
        {
          "internalType": "address",
          "name": "recipient",
          "type": "address"
        },
        {
          "internalType": "uint256",
          "name": "amount",
          "type": "uint256"
        }
      ],
      "name": "transferFrom",
      "outputs": [
        {
          "internalType": "bool",
          "name": "",
          "type": "bool"
        }
      ],
      "payable": false,
      "stateMutability": "nonpayable",
      "type": "function"
    },
    {
      "constant": false,
      "inputs": [
        {
          "internalType": "uint256",
          "name": "value",
          "type": "uint256"
        }
      ],
      "name": "unbond",
      "outputs": [],
      "payable": false,
      "stateMutability": "nonpayable",
      "type": "function"
    },
    {
      "constant": false,
      "inputs": [
        {
          "internalType": "uint256",
          "name": "value",
          "type": "uint256"
        }
      ],
      "name": "unbondUnderlying",
      "outputs": [],
      "payable": false,
      "stateMutability": "nonpayable",
      "type": "function"
    },
    {
      "constant": false,
      "inputs": [
        {
          "internalType": "address",
          "name": "candidate",
          "type": "address"
        },
        {
          "internalType": "enum Candidate.Vote",
          "name": "vote",
          "type": "uint8"
        }
      ],
      "name": "vote",
      "outputs": [],
      "payable": false,
      "stateMutability": "nonpayable",
      "type": "function"
    },
    {
      "constant": true,
      "inputs": [
        {
          "internalType": "address",
          "name": "candidate",
          "type": "address"
        }
      ],
      "name": "votesFor",
      "outputs": [
        {
          "internalType": "uint256",
          "name": "",
          "type": "uint256"
        }
      ],
      "payable": false,
      "stateMutability": "view",
      "type": "function"
    },
    {
      "constant": false,
      "inputs": [
        {
          "internalType": "uint256",
          "name": "value",
          "type": "uint256"
        }
      ],
      "name": "withdraw",
      "outputs": [],
      "payable": false,
      "stateMutability": "nonpayable",
      "type": "function"
    },
    {
      "constant": false,
      "inputs": [],
      "name": "initialize",
      "outputs": [],
      "payable": false,
      "stateMutability": "nonpayable",
      "type": "function"
    },
    {
      "constant": false,
      "inputs": [],
      "name": "advance",
      "outputs": [],
      "payable": false,
      "stateMutability": "nonpayable",
      "type": "function"
    }
  ],
  "bytecode": "0x60806040526000601055600060115560006012556000601355600019601455620000336200006060201b62004a551760201c565b516015556040805160208101909152600019908190526016553480156200005957600080fd5b5062000090565b6200006a6200007d565b5060408051602081019091526000815290565b6040518060200160405280600081525090565b615e7380620000a06000396000f3fe608060405234801561001057600080fd5b50600436106103fb5760003560e01c80638129fc1c11610215578063bceb514d11610125578063d8f54138116100b8578063ea105ac711610087578063ea105ac71461084b578063eeaca09b14610853578063f1b7cf4914610866578063fc7b9c1814610879578063ffbe3b7314610881576103fb565b8063d8f5413814610804578063dd62ed3e14610817578063df9a2b1c14610825578063e5f55c7e14610838576103fb565b8063cf023779116100f4578063cf023779146107c3578063d53c6f5f146107cb578063d60b347f146107de578063d6a9cf08146107f1576103fb565b8063bceb514d14610777578063c34eee651461078a578063c9aff70c1461079d578063cb0fbc71146107b0576103fb565b80639bc289f1116101a8578063a6c409f111610177578063a6c409f114610736578063a9059cbb14610433578063b6b55f251461073e578063bc0b1df614610751578063bc7513e214610764576103fb565b80639bc289f1146106ea5780639f6e1b26146106fd578063a1eb31e814610710578063a50cd8e714610723576103fb565b806395d89b41116101e457806395d89b41146106b457806397a5d5b5146106bc5780639940686e146106cf5780639a649edc146106e2576103fb565b80638129fc1c1461067e578063825ad6071461068657806386cf9f1414610699578063900cf0cf146106ac576103fb565b80633a3e6c811161031057806351bf21d8116102a35780636a39e328116102725780636a39e3281461062a57806370a082311461063d57806375d5024b146106505780637d8bb869146106635780637dc0d1d014610676576103fb565b806351bf21d8146105e9578063520acb76146105fc5780635c60da1b1461060f5780636466802214610617576103fb565b806347c05069116102df57806347c05069146105a65780634c736099146105b95780635053e461146105cc57806351adeb57146105d4576103fb565b80633a3e6c81146105585780633dc905c71461056b5780633fbba9a61461057e57806344d96e951461059e576103fb565b806323b872dd116103935780632e1a7d4d116103625780632e1a7d4d146104f75780632f7f889e1461050a578063313ce5671461051d578063353a420c14610532578063369e8c1d14610545576103fb565b806323b872dd146104ab57806324772c04146104be57806327de9e32146104d15780632d7f23b3146104e4576103fb565b806315e14bf6116103cf57806315e14bf61461047357806316f0115b1461048657806318160ddd1461049b5780631edbcf6c146104a3576103fb565b80625edd371461040057806306fdde0314610415578063095ea7b31461043357806310e95b6c14610453575b600080fd5b61041361040e366004615601565b610894565b005b61041d6109b7565b60405161042a9190615b59565b60405180910390f35b610446610441366004615692565b6109ef565b60405161042a9190615b21565b610466610461366004615710565b6109f8565b60405161042a9190615bda565b61046661048136600461555c565b610a10565b61048e610a2e565b60405161042a9190615ab4565b610466610a3d565b610466610a43565b6104466104b93660046155b4565b610a49565b6104466104cc36600461576b565b610a53565b6104136104df366004615710565b610be4565b6104666104f2366004615710565b610d22565b610413610505366004615710565b610d37565b610413610518366004615692565b610e6f565b610525610eef565b60405161042a9190615c46565b61046661054036600461555c565b610ef4565b61041361055336600461555c565b610f12565b61044661056636600461555c565b611060565b610466610579366004615710565b61107d565b61059161058c36600461557a565b611092565b60405161042a9190615b3d565b6104666110c5565b6104136105b436600461555c565b6110cb565b6104666105c736600461574c565b6111be565b6104666111ee565b6105dc611211565b60405161042a9190615b2f565b6104666105f736600461555c565b611220565b61046661060a366004615710565b61123e565b61048e611253565b61046661062536600461555c565b611278565b610466610638366004615710565b611296565b61046661064b36600461555c565b6112ab565b61044661065e366004615710565b6112c9565b610466610671366004615710565b6112dc565b6105dc6112f1565b610413611300565b61046661069436600461555c565b611385565b6104666106a736600461555c565b6113c5565b6104666113e0565b61041d6113e6565b6105916106ca36600461555c565b611404565b6104136106dd366004615710565b611469565b610466611537565b6104666106f836600461555c565b61153d565b61046661070b36600461557a565b61155b565b61046661071e36600461574c565b61158a565b61046661073136600461555c565b6116b0565b6104666116c7565b61041361074c366004615710565b611751565b61041361075f36600461576b565b611829565b610466610772366004615692565b61195d565b610413610785366004615662565b6119a1565b610466610798366004615710565b611c3c565b6104666107ab366004615710565b611c51565b6104666107be366004615710565b611c66565b610466611c7b565b6104666107d9366004615710565b611c81565b6104466107ec36600461555c565b611c97565b6104136107ff36600461574c565b611cb8565b610466610812366004615710565b611db4565b61046661044136600461557a565b610413610833366004615710565b611e3f565b610466610846366004615710565b611efd565b610413611fcb565b610466610861366004615710565b612073565b61046661087436600461555c565b612088565b6104666120a3565b61046661088f366004615710565b6120a9565b6001600160a01b0384166108c35760405162461bcd60e51b81526004016108ba90615bba565b60405180910390fd5b6001600160a01b0383166108e95760405162461bcd60e51b81526004016108ba90615b7a565b61090d848383604051806060016040528060238152602001615d52602391396120bb565b610918838383612166565b336001600160a01b0385161480159061093c5750600019610939853361155b565b14155b1561096557610965843383604051806060016040528060248152602001615d996024913961220d565b81836001600160a01b0316856001600160a01b03167f0f1dbb1ccbe57a1590c7baad7b01d581b730c9ebc535dcde4345e6db424063d8846040516109a99190615bda565b60405180910390a450505050565b60408051808201909152601881527f44796e616d69632053657420446f6c6c6172205374616b65000000000000000060208201525b90565b60005b92915050565b6000818152600d60205260409020600201545b919050565b6001600160a01b03166000908152600e602052604090206001015490565b600b546001600160a01b031690565b60035490565b60065490565b60005b9392505050565b6000610a8c600085116513585c9ad95d60d21b7f4d7573742068617665206e6f6e2d7a65726f206578706972790000000000000061227e565b610ac3600084116513585c9ad95d60d21b7f4d75737420626964206e6f6e2d7a65726f20616d6f756e74000000000000000061227e565b610afa600083116513585c9ad95d60d21b7f4d75737420626964206f6e206e6f6e2d7a65726f20616d6f756e74000000000061227e565b610b2a83610b066120a3565b10156513585c9ad95d60d21b6e139bdd08195b9bdd59da081919589d608a1b61227e565b6000610b4485610b386113e0565b9063ffffffff6122d316565b9050610b5e610b59848663ffffffff6122f816565b61233a565b610b67846123d1565b610b7081612467565b610b7c338286866124fd565b610b8d610b8761256b565b33612592565b610b956125ec565b80336001600160a01b03167f9f5acf79fa92396b7f3cb679d46ed617794dc8709703e9111f109216820301028686604051610bd1929190615be8565b60405180910390a3506001949350505050565b33610c2b60025b610bf483611404565b6002811115610bff57fe5b1415692832b936b4b9b9b4b7b760b11b72139bdd08199c9bde995b881bdc88199b1d5a59606a1b61227e565b610c3433612614565b6000610c67610c42336112ab565b610c5b610c4e33611385565b869063ffffffff61263e16565b9063ffffffff6122f816565b9050610c733382612678565b610c9581604051806060016040528060228152602001615dbd602291396126d4565b610cd533846040518060400160405280601d81526020017f426f6e64696e673a20696e73756666696369656e742062616c616e63650000008152506126ef565b337f93530ac0ee8c50e696e13c5ac62355d0c0ba4bd943620d5bda1eb08b64ae7512610d046001610b386113e0565b8584604051610d1593929190615bf6565b60405180910390a2505050565b6000908152600d60205260409020600a015490565b33610d7f60015b610d4783611404565b6002811115610d5257fe5b1415692832b936b4b9b9b4b7b760b11b73139bdd08199c9bde995b881bdc881b1bd8dad95960621b61227e565b610d87611211565b6001600160a01b031663a9059cbb33846040518363ffffffff1660e01b8152600401610db4929190615aea565b602060405180830381600087803b158015610dce57600080fd5b505af1158015610de2573d6000803e3d6000fd5b505050506040513d601f19601f82011682018060405250610e0691908101906156c2565b50610e2a3383604051806060016040528060248152602001615d756024913961279a565b336001600160a01b03167f884edad9ce6fa2440d8a54cc123490eb96d2768479d49ff9c7366125a942436483604051610e639190615bda565b60405180910390a25050565b6001600160a01b038216610e955760405162461bcd60e51b81526004016108ba90615baa565b610ea03383836127f9565b816001600160a01b0316336001600160a01b03167f8ff27e6b95060c1ca851e7c2c28af8b413eb1a8bcb637b0290da9543a709cce383604051610ee39190615bda565b60405180910390a35050565b601290565b6001600160a01b03166000908152600e602052604090206003015490565b610f3e610f1e82611060565b6523b7bb32b93760d11b6c139bdd081b9bdb5a5b985d1959609a1b61227e565b6000610f666001610f5a610f5185610a10565b610b3886612088565b9063ffffffff61282916565b9050610f9181610f746113e0565b116523b7bb32b93760d11b68139bdd08195b99195960ba1b61227e565b610fe8610fc5610f9f61286b565b610fb9610fab866116b0565b610fb4866120a9565b61288d565b9063ffffffff6128bc16565b6523b7bb32b93760d11b6f4d75737420686176652071756f726f6d60801b61227e565b61101d610ff483610ef4565b610ffd84611278565b116523b7bb32b93760d11b6b139bdd08185c1c1c9bdd995960a21b61227e565b611026826128d2565b6040516001600160a01b0383169033907f815ca4497ab9fc80c76f210e6e842a5e198e195aa136034557eee144f790e7bb90600090a35050565b6001600160a01b03166000908152600e6020526040902054151590565b6000908152600d60205260409020600c015490565b6001600160a01b038082166000908152600e60209081526040808320938616835260049093019052205460ff1692915050565b60045490565b6110d7610f1e82611060565b6111156110ed6110e56129be565b610b386113e0565b6110f56111ee565b116523b7bb32b93760d11b6b115c1bd8da081cde5b98d95960a21b61227e565b6111676111376111236129c3565b610fb961112f85611278565b610fb4610a3d565b6523b7bb32b93760d11b7f4d7573742068617665207375706572206d616a6f72697479000000000000000061227e565b61117c61117382610ef4565b610ffd83611278565b611185816128d2565b6040516001600160a01b0382169033907f815ca4497ab9fc80c76f210e6e842a5e198e195aa136034557eee144f790e7bb90600090a350565b6000828152600d602052604081206003018054839081106111db57fe5b9060005260206000200154905092915050565b60006111f8615397565b6112006129e5565b905061120b81612a14565b91505090565b6009546001600160a01b031690565b6001600160a01b03166000908152600c602052604090206004015490565b6000908152600d60205260409020600e015490565b7f360894a13ba1a3210667c828492db98dca3e2076cc3735a920a3ca505d382bbc5490565b6001600160a01b03166000908152600e602052604090206002015490565b6000908152600d602052604090206003015490565b6001600160a01b03166000908152600c602052604090206001015490565b60006112d3612a36565b90911115919050565b6000908152600d602052604090206010015490565b600a546001600160a01b031690565b61133961130e6107ec611253565b15692832b936b4b9b9b4b7b760b11b72105b1c9958591e481a5b9a5d1a585b1a5e9959606a1b61227e565b611349611344611253565b612a3b565b61135c3368056bc75e2d63100000612a62565b6113837361105dd0b0ded973bc94bb054f314c46a0234b06683635c9adc5dea00000612a62565b565b600080611390610a3d565b9050806113a1576000915050610a0b565b610a4c81610c5b6113b1866112ab565b6113b96110c5565b9063ffffffff61263e16565b6001600160a01b03166000908152600c602052604090205490565b60025490565b6040805180820190915260048152634453445360e01b602082015290565b600061140e6113e0565b6001600160a01b0383166000908152600c6020526040902060050154111561143857506002610a0b565b6001600160a01b0382166000908152600c602052604090206004015461145c6113e0565b10156109ef5760016109f2565b336114746002610beb565b61147d33612614565b60006114876110c5565b156114a7576114a26114976110c5565b610c5b610c4e610a3d565b6114bf565b6114bf6114b2612b0e565b849063ffffffff61263e16565b90506114cb3382612b15565b6114d483612bb1565b6114f73384604051806060016040528060248152602001615d756024913961279a565b337f44002fdef5a0c2d2e4e05572e9780b95aef97e0e93ffd7cc076b09fa78ff2b466115266001610b386113e0565b8386604051610d1593929190615bf6565b60085490565b6001600160a01b03166000908152600c602052604090206005015490565b6001600160a01b039182166000908152600c602090815260408083209390941682526003909201909152205490565b6000806115956129e5565b6040015142816115a157fe5b0690506000846115af6113e0565b03905060006115bc612bca565b826115c5612bca565b036115ce612bd0565b02816115d657fe5b049050808311156115ed57600093505050506109f2565b6115f56153b8565b61164860405180602001604052808561160c612bca565b0381525061163c6040518060200160405280611626612bca565b9052611630612bd6565b9063ffffffff612bf816565b9063ffffffff612c2616565b90506116526153b8565b6040805160208082018352878603825282519081019092528482526116829161163c90859063ffffffff612bf816565b60408051602081019091528881529091506116a3908263ffffffff612c2616565b5198975050505050505050565b60006109f26116be83610ef4565b610b3884611278565b600061174c6116d46120a3565b6116dc611211565b6001600160a01b03166318160ddd6040518163ffffffff1660e01b815260040160206040518083038186803b15801561171457600080fd5b505afa158015611728573d6000803e3d6000fd5b505050506040513d601f19601f82011682018060405250610f5a919081019061572e565b905090565b611759611211565b6001600160a01b03166323b872dd3330846040518463ffffffff1660e01b815260040161178893929190615ac2565b602060405180830381600087803b1580156117a257600080fd5b505af11580156117b6573d6000803e3d6000fd5b505050506040513d601f19601f820116820180604052506117da91908101906156c2565b506117e53382612678565b336001600160a01b03167fe1fffcc4923d04b559f4d29a8bfc6cda04eb5b0d3c460751c2402c5c5cc9109c8260405161181e9190615bda565b60405180910390a250565b600261183784610f5a6113e0565b10156118555760405162461bcd60e51b81526004016108ba90615bca565b611879338484604051806060016040528060238152602001615d52602391396120bb565b6000611885848461158a565b90508083036118c1838210156513585c9ad95d60d21b7f496e73756666696369656e74206f757470757420616d6f756e7400000000000061227e565b6118cb3382612c54565b81156119145784336001600160a01b03167f1cd1213d4276c260e84170b4a39025dc8398fbf744edee0709261769b456b94b8460405161190b9190615bda565b60405180910390a35b84336001600160a01b03167f46e9903ae8ac9e9f0c9bc321b05965c1c036e7d4783758703f5cdfc4133c51b68360405161194e9190615bda565b60405180910390a35050505050565b600061196882611c51565b611974575060006109f2565b506001600160a01b03919091166000908152600c6020908152604080832093835260029093019052205490565b336119ac6001610d3e565b6119dd60006119ba336112ab565b116523b7bb32b93760d11b6e4d7573742068617665207374616b6560881b61227e565b6119e683611060565b611a8957611a266119f633612cfe565b6523b7bb32b93760d11b7f4e6f7420656e6f756768207374616b6520746f2070726f706f7365000000000061227e565b611a3783611a32612d42565b612d47565b611a3f6113e0565b336001600160a01b0385167fd15e38a680a427478883cd2d32eb664cb6bb2090b0126a23ebaf3e3784b8c56b611a73612d42565b604051611a809190615bda565b60405180910390a45b611ab9611a98610f5185610a10565b611aa06113e0565b106523b7bb32b93760d11b64115b99195960da1b61227e565b6000611ac4336112ab565b90506000611ad23386611092565b9050806002811115611ae057fe5b846002811115611aec57fe5b1415611af9575050611c37565b6002816002811115611b0757fe5b1415611b4d57611b4d85836040518060400160405280601b81526020017f476f7665726e3a20496e73756666696369656e742072656a6563740000000000815250612d73565b6001816002811115611b5b57fe5b1415611ba157611ba185836040518060400160405280601c81526020017f476f7665726e3a20496e73756666696369656e7420617070726f766500000000815250612dc4565b6002846002811115611baf57fe5b1415611bbf57611bbf8583612e15565b6001846002811115611bcd57fe5b1415611bdd57611bdd8583612e64565b611be8338686612eb3565b611bf23386612efd565b846001600160a01b0316336001600160a01b03167fbe50c78cbc15b0864819aadea36c6499da421b33c38e2ef19bebda583c708c78868560405161194e929190615b4b565b505050565b6000908152600d60205260409020600f015490565b6000908152600d602052604090206001015490565b6000908152600d602052604090206011015490565b60055490565b6000908152600d60208190526040909120015490565b6001600160a01b03166000908152600e602052604090206005015460ff1690565b6002611cc683610f5a6113e0565b1015611ce45760405162461bcd60e51b81526004016108ba90615bca565b611d08338383604051806060016040528060238152602001615d52602391396120bb565b6000611d14838361158a565b9050808203611d233382612c54565b8115611d6c5783336001600160a01b03167f1cd1213d4276c260e84170b4a39025dc8398fbf744edee0709261769b456b94b84604051611d639190615bda565b60405180910390a35b83336001600160a01b03167f46e9903ae8ac9e9f0c9bc321b05965c1c036e7d4783758703f5cdfc4133c51b683604051611da69190615bda565b60405180910390a350505050565b60006109f2611dc1611211565b6001600160a01b03166318160ddd6040518163ffffffff1660e01b815260040160206040518083038186803b158015611df957600080fd5b505afa158015611e0d573d6000803e3d6000fd5b505050506040513d601f19601f82011682018060405250611e31919081019061572e565b611e396120a3565b84612f5e565b33611e4a6002610beb565b611e5333612614565b6000611e606114976110c5565b9050611e6c3384612678565b611e8e83604051806060016040528060228152602001615dbd602291396126d4565b611ece33826040518060400160405280601d81526020017f426f6e64696e673a20696e73756666696369656e742062616c616e63650000008152506126ef565b337f93530ac0ee8c50e696e13c5ac62355d0c0ba4bd943620d5bda1eb08b64ae75126115266001610b386113e0565b6000611f36600083116513585c9ad95d60d21b7f4d757374207075726368617365206e6f6e2d7a65726f20616d6f756e7400000061227e565b611f4282610b066120a3565b6000611f4c6113e0565b90506000611f69611f5c85611db4565b859063ffffffff6122d316565b9050611f753385612f8b565b611f80338383612166565b81336001600160a01b03167fbce252db29f761f815dc2e9ea60005af065efba6eb619d2a0b2a113fdeb614148684604051611fbc929190615be8565b60405180910390a39392505050565b6000611fd561309c565b9050611fe13382612a62565b336001600160a01b03167fbb4f656853bc420ad6e4321622c07eefb4ed40e3f91b35553ce14a6dff4c09818260405161201a9190615bda565b60405180910390a261202a6130a9565b6120326130f4565b61203a613207565b6120426113e0565b7fc30b728d1c19e5db3678b8ea9e9a063a5655071e1a325c2f7fdbca48baa90600434260405161181e929190615be8565b6000908152600d60205260409020600b015490565b6001600160a01b03166000908152600e602052604090205490565b60075490565b6000908152600d602052604090205490565b6001600160a01b0384166000908152600c602090815260408083208684526002019091529020546120f390838363ffffffff61325e16565b6001600160a01b0385166000908152600c60209081526040808320878452600201825280832093909355600d9052206001015461213790838363ffffffff61325e16565b6000848152600d602052604090206001015560085461215d90838363ffffffff61325e16565b60085550505050565b6001600160a01b0383166000908152600c6020908152604080832085845260020190915290205461219d908263ffffffff6122d316565b6001600160a01b0384166000908152600c60209081526040808320868452600201825280832093909355600d905220600101546121e0908263ffffffff6122d316565b6000838152600d6020526040902060010155600854612205908263ffffffff6122d316565b600855505050565b6001600160a01b038085166000908152600c60209081526040808320938716835260039093019052205461224890838363ffffffff61325e16565b6001600160a01b039485166000908152600c60209081526040808320969097168252600390950190945293909220929092555050565b82611c375761228c8261328a565b6101d160f51b61229b8361328a565b6040516020016122ad93929190615a83565b60408051601f198184030181529082905262461bcd60e51b82526108ba91600401615b59565b600082820183811015610a4c5760405162461bcd60e51b81526004016108ba90615b6a565b6000610a4c83836040518060400160405280601a81526020017f536166654d6174683a206469766973696f6e206279207a65726f00000000000081525061330a565b600d60006123466113e0565b8152602001908152602001600020600401600401548111156123845780600d600061236f6113e0565b81526020810191909152604001600020600801555b80600d60006123916113e0565b81526020019081526020016000206004016003015411156123ce5780600d60006123b96113e0565b81526020810191909152604001600020600701555b50565b600d60006123dd6113e0565b8152602001908152602001600020600401600f015481111561241b5780600d60006124066113e0565b81526020810191909152604001600020601301555b600d60006124276113e0565b8152602001908152602001600020600401600e01548110156123ce5780600d60006124506113e0565b815260208101919091526040016000206012015550565b600d60006124736113e0565b8152602001908152602001600020600401600201548111156124b15780600d600061249c6113e0565b81526020810191909152604001600020600601555b600d60006124bd6113e0565b8152602001908152602001600020600401600101548110156123ce5780600d60006124e66113e0565b815260208101919091526040016000206005015550565b6000600d8161250a6113e0565b8152602080820192909252604090810160009081206001600160a01b03989098168082526016909801909252902060048101949094555060018301919091556002820155805462010000600160b01b03191662010000909202919091179055565b6000600d816125786113e0565b815260200190815260200160002060040160050154905090565b80600d600061259f6113e0565b8152602001908152602001600020600401601101600084815260200190815260200160002060006101000a8154816001600160a01b0302191690836001600160a01b031602179055505050565b600d60006125f86113e0565b8152602081019190915260400160002060090180546001019055565b61261f6110e5612d42565b6001600160a01b039091166000908152600c6020526040902060040155565b60008261264d575060006109f2565b8282028284828161265a57fe5b0414610a4c5760405162461bcd60e51b81526004016108ba90615b8a565b6001600160a01b0382166000908152600c60205260409020546126a1908263ffffffff6122d316565b6001600160a01b0383166000908152600c60205260409020556005546126cd908263ffffffff6122d316565b6005555050565b6004546126e890838363ffffffff61325e16565b6004555050565b6001600160a01b0383166000908152600c602052604090206001015461271c90838363ffffffff61325e16565b6001600160a01b0384166000908152600c602052604090206001015560035461274c90838363ffffffff61325e16565b6003556040516000906001600160a01b038516907fddf252ad1be2c89b69c2b068fc378daa952ba7f163c4a11628f55a4df523b3ef9061278d908690615bda565b60405180910390a3505050565b6001600160a01b0383166000908152600c60205260409020546127c490838363ffffffff61325e16565b6001600160a01b0384166000908152600c60205260409020556005546127f190838363ffffffff61325e16565b600555505050565b6001600160a01b039283166000908152600c60209081526040808320949095168252600390930190925291902055565b6000610a4c83836040518060400160405280601e81526020017f536166654d6174683a207375627472616374696f6e206f766572666c6f77000081525061325e565b6128736153b8565b5060408051602081019091526702c68af0bb140000815290565b6128956153b8565b60405180602001604052806128b385670de0b6b3a764000086613341565b90529392505050565b60006128c88383613357565b6002149392505050565b6128db81613389565b60408051600481526024810182526020810180516001600160e01b031663204a7f0760e21b17905290516000916060916001600160a01b0385169161291f91615a77565b600060405180830381855af49150503d806000811461295a576040519150601f19603f3d011682016040523d82523d6000602084013e61295f565b606091505b50915091508181906129845760405162461bcd60e51b81526004016108ba9190615b59565b506040516001600160a01b038416907fbc7cd75a20ee27fd9adebab32041f755214dbc6bffa90cc0225b39da2e5c2d3b90600090a2505050565b600690565b6129cb6153b8565b506040805160208101909152670928ca80cfc20000815290565b6129ed615397565b604051806060016040528060008152602001635fbef0008152602001611c20815250905090565b60006109f28260000151610b388460400151610c5b8660200151610f5a6133d2565b609690565b6001600160a01b03166000908152600e60205260409020600501805460ff19166001179055565b612a6a611211565b6001600160a01b03166340c10f1983836040518363ffffffff1660e01b8152600401612a97929190615b13565b602060405180830381600087803b158015612ab157600080fd5b505af1158015612ac5573d6000803e3d6000fd5b505050506040513d601f19601f82011682018060405250612ae991908101906156c2565b50612af561065e6113e0565b612b0257612b02816133d6565b612b0a6133f3565b5050565b620f424090565b6001600160a01b0382166000908152600c6020526040902060010154612b41908263ffffffff6122d316565b6001600160a01b0383166000908152600c6020526040902060010155600354612b70908263ffffffff6122d316565b6003556040516001600160a01b038316906000907fddf252ad1be2c89b69c2b068fc378daa952ba7f163c4a11628f55a4df523b3ef90610ee3908590615bda565b600454612bc4908263ffffffff6122d316565b60045550565b61016890565b610e1090565b612bde6153b8565b5060408051602081019091526706f05b59d3b20000815290565b612c006153b8565b60405180602001604052806128b38560000151670de0b6b3a76400008660000151613341565b612c2e6153b8565b60405180602001604052806128b385600001518560000151670de0b6b3a7640000613341565b612c5c611211565b6001600160a01b031663a9059cbb83836040518363ffffffff1660e01b8152600401612c89929190615b13565b602060405180830381600087803b158015612ca357600080fd5b505af1158015612cb7573d6000803e3d6000fd5b505050506040513d601f19601f82011682018060405250612cdb91908101906156c2565b50612b02816040518060600160405280602a8152602001615e07602a91396134c6565b6000612d086110c5565b612d1457506000610a0b565b612d1c6153b8565b612d2861112f846112ab565b9050610a4c612d356134e1565b829063ffffffff6128bc16565b602490565b612d4f6113e0565b6001600160a01b039092166000908152600e60205260409020918255600190910155565b6001600160a01b0383166000908152600e6020526040902060030154612da090838363ffffffff61325e16565b6001600160a01b039093166000908152600e60205260409020600301929092555050565b6001600160a01b0383166000908152600e6020526040902060020154612df190838363ffffffff61325e16565b6001600160a01b039093166000908152600e60205260409020600201929092555050565b6001600160a01b0382166000908152600e6020526040902060030154612e41908263ffffffff6122d316565b6001600160a01b039092166000908152600e602052604090206003019190915550565b6001600160a01b0382166000908152600e6020526040902060020154612e90908263ffffffff6122d316565b6001600160a01b039092166000908152600e602052604090206002019190915550565b6001600160a01b038083166000908152600e6020908152604080832093871683526004909301905220805482919060ff19166001836002811115612ef357fe5b0217905550505050565b6001600160a01b0382166000908152600c602052604081206005015490612f2f612f2684610a10565b610b3885612088565b905081811115612f58576001600160a01b0384166000908152600c602052604090206005018190555b50505050565b6000612f83612f7e83612f72878787613502565b9063ffffffff61366f16565b613696565b949350505050565b612f93611211565b6001600160a01b03166323b872dd8330846040518463ffffffff1660e01b8152600401612fc293929190615b05565b602060405180830381600087803b158015612fdc57600080fd5b505af1158015612ff0573d6000803e3d6000fd5b505050506040513d601f19601f8201168201806040525061301491908101906156c2565b5061301d611211565b6001600160a01b03166342966c68826040518263ffffffff1660e01b81526004016130489190615bda565b600060405180830381600087803b15801561306257600080fd5b505af1158015613076573d6000803e3d6000fd5b50505050612b0281604051806060016040528060288152602001615ddf602891396136b3565b6802b5e3af16b188000090565b6130e46130b46113e0565b6130bc6111ee565b1166426f6e64696e6760c81b720a6e8d2d8d840c6eae4e4cadce840cae0dec6d606b1b61227e565b6130ec6136ce565b6113836136f5565b6130fc6153b8565b61310461370e565b9050600061311b60016131156113e0565b036137d6565b90506131356131286137ea565b839063ffffffff6128bc16565b156131745761314261380c565b805460ff1615156001141561316457613164600161315e6113e0565b03613813565b61316d82613833565b5050611383565b61318c61317f6137ea565b839063ffffffff61392316565b156131d257805460ff161515600114156131c15760006131aa613937565b90506131bf60016131b96113e0565b03614106565b505b6131c9614128565b61316d82614293565b6131da6113e0565b6040517fff7db5a0dc69b02c191ba632db46961b7d0daa1bd30709ddba9b80ad0a15d2c090600090a25050565b60005b6132156106386113e0565b81101561323d5761323561323061322a6113e0565b836111be565b614312565b60010161320a565b50600061324b6110e5612bca565b90506123ce6132586113e0565b826143be565b600081848411156132825760405162461bcd60e51b81526004016108ba9190615b59565b505050900390565b6060808260405160200161329e9190615a62565b60408051601f19818403018152919052905060205b80156132f3578151600019909101908290829081106132ce57fe5b01602001516001600160f81b031916156132ee5760010181529050610a0b565b6132b3565b505060408051600081526020810190915292915050565b6000818361332b5760405162461bcd60e51b81526004016108ba9190615b59565b50600083858161333757fe5b0495945050505050565b6000612f8382610c5b868663ffffffff61263e16565b80518251600091141561336c575060016109f2565b815183511161337c57600061337f565b60025b60ff169392505050565b613392816143f0565b6133ae5760405162461bcd60e51b81526004016108ba90615b9a565b7f360894a13ba1a3210667c828492db98dca3e2076cc3735a920a3ca505d382bbc55565b4290565b6133df816143f6565b6133ef6133ea61440f565b614431565b6123ce5b611383613414613401610a43565b610b3861340c611c7b565b610b386110c5565b61341c611211565b6001600160a01b03166370a08231306040518263ffffffff1660e01b81526004016134479190615ab4565b60206040518083038186803b15801561345f57600080fd5b505afa158015613473573d6000803e3d6000fd5b505050506040513d601f19601f82011682018060405250613497919081019061572e565b10156a21b7b6b83a3937b63632b960a91b74496e636f6e73697374656e742062616c616e63657360581b61227e565b6006546134da90838363ffffffff61325e16565b6006555050565b6134e96153b8565b5060408051602081019091526611c37937e08000815290565b61350a6153b8565b6135126153b8565b61351c848661288d565b90506135266153b8565b61352e61440f565b90506000613542878663ffffffff61282916565b90506000613556878763ffffffff61282916565b90506135606153b8565b61356a828461288d565b905061357c858563ffffffff6128bc16565b1561365857613591818563ffffffff6128bc16565b156135ab5761359f846144e4565b95505050505050610a4c565b6135b36153b8565b6135bd8286614530565b90506135c76153b8565b6135d7868463ffffffff61458d16565b90506135e16153b8565b6135ea876144e4565b90506135f46153b8565b613604898963ffffffff61458d16565b9050613648613619848363ffffffff6145b616565b61163061362c858563ffffffff612c2616565b61363c888863ffffffff612c2616565b9063ffffffff6145b616565b9950505050505050505050610a4c565b6136628186614530565b9998505050505050505050565b6136776153b8565b6040805160208101909152835181906128b3908563ffffffff61263e16565b80516000906109f290670de0b6b3a764000063ffffffff6122f816565b6007546136c790838363ffffffff61325e16565b6007555050565b6136d6610a3d565b600d60006136e26113e0565b8152602081019190915260400160002055565b60025461370990600163ffffffff6122d316565b600255565b6137166153b8565b61371e6153b8565b60006137286112f1565b6001600160a01b031663d4a3e9d76040518163ffffffff1660e01b81526004016040805180830381600087803b15801561376157600080fd5b505af1158015613775573d6000803e3d6000fd5b505050506040513d601f19601f8201168201806040525061379991908101906156e0565b915091506137ad61065e6001610f5a6113e0565b156137c3576137ba6145df565b925050506109ec565b806137d0576137ba6137ea565b50905090565b6000908152600d6020526040902060040190565b6137f26153b8565b506040805160208101909152670de0b6b3a7640000815290565b6000600755565b6000908152600d60205260409020600401805461ff001916610100179055565b61383b6153b8565b613843614601565b9050600061384f610a43565b9050600061385b611537565b9050808210156138705761386d614624565b92505b6138786153b8565b61389d6138978561163061388a6137ea565b899063ffffffff61458d16565b86614646565b905060006138bc612f7e6138af6116c7565b849063ffffffff61366f16565b905060008060006138cc846146d1565b9250925092506138da6113e0565b89516040517f32fcaa1e76ed9517f4749d8ec9a77dd5e7329456d740b9bf9665d900eef5e2839161391091879087908790615c11565b60405180910390a2505050505050505050565b600061392f8383613357565b159392505050565b600061394161483d565b158015613953575061395161486c565b155b156140fe57600061396261489a565b61396a6148c1565b03905060006139776148e8565b61397f61490f565b039050600061398c614936565b61399461495d565b03905060005b6139a261256b565b811015613c515760006139bc6139b783614984565b6149c2565b90506139c66153b8565b6139e46139de612f7e8460020154856001015461288d565b8761288d565b90506139ee6153b8565b6139fc83600401548761288d565b9050613a066153b8565b613a1484600101548761288d565b9050613a1e6153b8565b613a4182613a35613a2d6137ea565b61363c6137ea565b9063ffffffff61458d16565b9050613a4b6153b8565b613a5c85600263ffffffff6149ff16565b9050613a666153b8565b613a7785600263ffffffff6149ff16565b9050613a816153b8565b613a9284600263ffffffff6149ff16565b9050613a9c6153b8565b613ab08261363c868663ffffffff6145b616565b9050613aba6153b8565b613ac5613128614a55565b15613ada57613ad382614a70565b9050613ae5565b613ae2614a55565b90505b613af7613af18c614984565b82614af2565b613b036139b78c614984565b600f80546001808201835560009290925282547f8d1108e10bcb7c27dddfc02ed9d693a074039d026cf4ea4240b40f7d581ac8026005909202918201805460ff191660ff928316151517808255855461ff00199091166101009182900490931615150291909117808255845462010000600160b01b031990911662010000918290046001600160a01b0316909102179055828201547f8d1108e10bcb7c27dddfc02ed9d693a074039d026cf4ea4240b40f7d581ac80382015560028301547f8d1108e10bcb7c27dddfc02ed9d693a074039d026cf4ea4240b40f7d581ac80482015560038301547f8d1108e10bcb7c27dddfc02ed9d693a074039d026cf4ea4240b40f7d581ac8058201556004909201547f8d1108e10bcb7c27dddfc02ed9d693a074039d026cf4ea4240b40f7d581ac806909201919091559a909a01995061399a98505050505050505050565b50613c5c600f614b3a565b8054613c6a91600f916153cb565b5060005b600f54811015613fb657600f8181548110613c8557fe5b906000526020600020906005020160010154613c9f6120a3565b10613fa957613cd9600f8281548110613cb457fe5b60009182526020909120600590910201546201000090046001600160a01b0316614c07565b158015613cf35750613cf1600f8281548110613cb457fe5b155b15613fa457613d006153b8565b613d46600f8381548110613d1057fe5b906000526020600020906005020160020154600f8481548110613d2f57fe5b90600052602060002090600502016001015461288d565b60408051602081019091526016548152909150613d6a90829063ffffffff61392316565b15613d79578051601655613da5565b60408051602081019091526015548152613d9a90829063ffffffff6128bc16565b15613da55780516015555b601454600f8381548110613db557fe5b9060005260206000209060050201600401541015613df757600f8281548110613dda57fe5b906000526020600020906005020160040154601481905550613e45565b601154600f8381548110613e0757fe5b9060005260206000209060050201600401541115613e4557600f8281548110613e2c57fe5b9060005260206000209060050201600401546011819055505b613e4e81613696565b601380549091019055600f805483908110613e6557fe5b60009182526020822060046005909202010154601280549091019055600f8054613eae919085908110613e9457fe5b906000526020600020906005020160040154610b386113e0565b9050613f09600f8481548110613ec057fe5b906000526020600020906005020160000160029054906101000a90046001600160a01b0316600f8581548110613ef257fe5b906000526020600020906005020160010154612f8b565b613f63600f8481548110613f1957fe5b906000526020600020906005020160000160029054906101000a90046001600160a01b031682600f8681548110613f4c57fe5b906000526020600020906005020160020154612166565b613f98600f8481548110613f7357fe5b60009182526020909120600590910201546201000090046001600160a01b0316614c4e565b50506010805460010190555b613fae565b613fb6565b600101613c6e565b50601054156140ab57613fc76153b8565b613fd560135460105461288d565b9050613fdf6153b8565b613fed60125460105461288d565b9050613ff76153b8565b61400d6064612f72600f8054905060105461288d565b905061401a601454614c9b565b614025601154614cbf565b61403661403183613696565b614ce3565b604080516020810190915260165481526140589061405390613696565b614d07565b6040805160208101909152601554815261407a9061407590613696565b614d2b565b61408b61408684613696565b614d4f565b61409c61409782613696565b614d73565b6140a7601054614d97565b5050505b6140b7600f6000615495565b60006010819055601181905560128190556013556000196014556140d9614a55565b51601555505060408051602081019091526000199081905260165550600190506109ec565b5060006109ec565b6000908152600d60205260409020600401805462ff0000191662010000179055565b600d60006141346113e0565b815260208101919091526040016000206004015460ff16611383576000600d8161415c6113e0565b8152602001908152602001600020600401600501819055506000196000600d0160006141866113e0565b81526020810191909152604001600090812060050191909155600d816141aa6113e0565b8152602001908152602001600020600401600201819055506000196000600d0160006141d46113e0565b81526020810191909152604001600090812060070191909155600d816141f86113e0565b8152602001908152602001600020600401600401819055506000196000600d0160006142226113e0565b81526020810191909152604001600090812060120191909155600d816142466113e0565b8152602001908152602001600020600401600f018190555060016000600d01600061426f6113e0565b81526020810191909152604001600020600401805460ff1916911515919091179055565b61429b6153b8565b6142bb6142b56142a9614dbb565b61163085613a356137ea565b83614646565b905060006142cd612f7e6138af6116c7565b90506142d8816133d6565b6142e06113e0565b83516040517f5e139d4b8080a4a00dcc151e8217694aeebae893936326aa22096924a990667791610d15918590615be8565b600061431d82611c51565b90506000808061432c85614ddd565b6000614336610a43565b90506000614342611537565b9050808211156143775761435c828263ffffffff61282916565b945061436785614e20565b614370856146d1565b9095509350505b867f753df65b37159bf237ae1fca97ba1bd57cf83bc9498f271a514a4d7bafe87bda878787876040516143ad9493929190615c11565b60405180910390a250505050505050565b6000828152600d6020908152604080832060020184905592825291812060030180546001810182559082529190200155565b3b151590565b600754614409908263ffffffff6122d316565b60075550565b6144176153b8565b5060408051602081019091526704db732547630000815290565b60006144b1612f7e614441611211565b6001600160a01b03166318160ddd6040518163ffffffff1660e01b815260040160206040518083038186803b15801561447957600080fd5b505afa15801561448d573d6000803e3d6000fd5b505050506040513d601f19601f820116820180604052506138af919081019061572e565b905060006144bd6120a3565b905081811115611c375760006144d9828463ffffffff61282916565b9050612f5881614ea7565b6144ec6153b8565b6109f26144fb6001600361288d565b613a3561452861451e600261451288613a356137ea565b9063ffffffff6149ff16565b61163c6003614ee6565b6116306137ea565b6145386153b8565b614548838363ffffffff614f1a16565b1561455d57614556836144e4565b90506109f2565b610a4c61456c6001600361288d565b613a3561452861457e87613a356137ea565b61163c61451e88613a356137ea565b6145956153b8565b60408051602081019091528251845182916128b3919063ffffffff61282916565b6145be6153b8565b60408051602081019091528251845182916128b3919063ffffffff6122d316565b6145e76153b8565b50604080516020810190915267155f2dd73a1a0000815290565b6146096153b8565b50604080516020810190915268015af1d78b58c40000815290565b61462c6153b8565b50604080516020810190915267e73435bb46020000815290565b61464e6153b8565b6146566153b8565b61465e614f21565b9050600061466a610a43565b90506000614676611537565b90506146906146836137ea565b869063ffffffff6128bc16565b801561469b57508082105b156146ab576146a8614f42565b92505b6146bb868463ffffffff6128bc16565b6146c557856146c7565b825b9695505050505050565b60008080808080806146e1610a43565b905060006146ed611537565b9050808210156147aa57614707818363ffffffff61282916565b945061472f61471e6064614719614f63565b612829565b610c5b87606463ffffffff61263e16565b945088851161473e5784614740565b885b945061475f6064610c5b614752614f63565b889063ffffffff61263e16565b9250614771858463ffffffff61282916565b945061477c83614f68565b61478585614ffc565b614795898463ffffffff61282916565b98506147a7898663ffffffff61282916565b98505b60006147b46120a3565b905060008a1180156147c65750600081115b156147f8578981116147d857806147da565b895b94506147e585614ea7565b6147f58a8663ffffffff61282916565b99505b6148006110c5565b61480957600099505b8915614818576148188a61508d565b858561482a8c8763ffffffff6122d316565b9850985098505050505050509193909250565b6000600d8161484a6113e0565b815260208101919091526040016000206004015462010000900460ff16919050565b6000600d816148796113e0565b8152602081019190915260400160002060040154610100900460ff16919050565b6000600d816148a76113e0565b815260200190815260200160002060040160030154905090565b6000600d816148ce6113e0565b815260200190815260200160002060040160040154905090565b6000600d816148f56113e0565b815260200190815260200160002060040160010154905090565b6000600d8161491c6113e0565b815260200190815260200160002060040160020154905090565b6000600d816149436113e0565b8152602001908152602001600020600401600e0154905090565b6000600d8161496a6113e0565b8152602001908152602001600020600401600f0154905090565b6000600d816149916113e0565b8152602080820192909252604090810160009081208582526015019092529020546001600160a01b03169050919050565b6000600d816149cf6113e0565b8152602080820192909252604090810160009081206001600160a01b038616825260160190925290209050919050565b614a076153b8565b81614a16576145566001614ee6565b614a1e6153b8565b5060408051602081019091528351815260015b83811015614a4d57614a438286612c26565b9150600101614a31565b509392505050565b614a5d6153b8565b5060408051602081019091526000815290565b614a786153b8565b614a806153b8565b614aa26002614a9685600163ffffffff61512d16565b9063ffffffff61516a16565b90508291505b614ab8818363ffffffff61392316565b15614aec57905080614ae56002614a96614ad8848063ffffffff6145b616565b869063ffffffff612bf816565b9050614aa8565b50919050565b80600d6000614aff6113e0565b8152602080820192909252604090810160009081206001600160a01b0390961681526016909501909152909220915160039092019190915550565b6000614c0382805480602002602001604051908101604052809291908181526020016000905b82821015614bf05760008481526020908190206040805160e08101825260058602909201805460ff808216151585526101008204161515848601526201000090046001600160a01b03168383015260018082015460608501526002820154608085015282518086019093526003820154835260a08401929092526004015460c08301529083529092019101614b60565b5050855460009250600019019050615191565b5090565b6000600d81614c146113e0565b8152602080820192909252604090810160009081206001600160a01b038616825260160190925290205460ff610100909104169050919050565b6001600d6000614c5c6113e0565b8152602080820192909252604090810160009081206001600160a01b039590951681526016909401909152909120805460ff1916911515919091179055565b80600d6000614ca86113e0565b81526020810191909152604001600020600f015550565b80600d6000614ccc6113e0565b815260208101919091526040016000206010015550565b80600d6000614cf06113e0565b815260208101919091526040016000206011015550565b80600d6000614d146113e0565b81526020810191909152604001600020600c015550565b80600d6000614d386113e0565b81526020810191909152604001600020600d015550565b80600d6000614d5c6113e0565b81526020810191909152604001600020600e015550565b80600d6000614d806113e0565b81526020810191909152604001600020600b015550565b80600d6000614da46113e0565b81526020810191909152604001600020600a015550565b614dc36153b8565b506040805160208101909152674563918244f40000815290565b6000614de882611c51565b905080614df557506123ce565b600854614e08908263ffffffff61282916565b600855506000908152600d6020526040812060010155565b614e28611211565b6001600160a01b03166342966c68826040518263ffffffff1660e01b8152600401614e539190615bda565b600060405180830381600087803b158015614e6d57600080fd5b505af1158015614e81573d6000803e3d6000fd5b505050506133ef816040518060600160405280602a8152602001615e07602a91396134c6565b6133ef816040518060400160405280601c81526020017f436f6d7074726f6c6c65723a206e6f7420656e6f7567682064656274000000008152506136b3565b614eee6153b8565b604080516020810190915280614f1284670de0b6b3a764000063ffffffff61263e16565b905292915050565b5190511490565b614f296153b8565b50604080516020810190915266470de4df820000815290565b614f4a6153b8565b506040805160208101909152666a94d74f430000815290565b602890565b80156123ce57614f76611211565b6001600160a01b03166340c10f19614f8c610a2e565b836040518363ffffffff1660e01b8152600401614faa929190615b13565b602060405180830381600087803b158015614fc457600080fd5b505af1158015614fd8573d6000803e3d6000fd5b505050506040513d601f19601f82011682018060405250612b0a91908101906156c2565b615004611211565b6001600160a01b03166340c10f1930836040518363ffffffff1660e01b8152600401615031929190615b13565b602060405180830381600087803b15801561504b57600080fd5b505af115801561505f573d6000803e3d6000fd5b505050506040513d601f19601f8201168201806040525061508391908101906156c2565b506133ef816152e7565b6150d0600061509a6110c5565b116a21b7b6b83a3937b63632b960a91b7f43616e74206d696e7420746f20656d70747920706f6f6c00000000000000000061227e565b60006150ef6064610c5b6150e2614f63565b859063ffffffff61263e16565b90506000818311615101576000615111565b615111838363ffffffff61282916565b905061511c82614f68565b61512581615300565b611c376133f3565b6151356153b8565b6040805160208101909152806128b361515c85670de0b6b3a764000063ffffffff61263e16565b86519063ffffffff6122d316565b6151726153b8565b6040805160208101909152835181906128b3908563ffffffff6122f816565b8181808214156151a2575050611c37565b6151aa6153b8565b856002868603058601815181106151bd57fe5b602002602001015160a0015190505b8183136152b9575b6151fe818785815181106151e457fe5b602002602001015160a0015161392390919063ffffffff16565b1561520e576001909201916151d4565b61523886838151811061521d57fe5b602002602001015160a001518261392390919063ffffffff16565b15615249576000199091019061520e565b8183136152b45785828151811061525c57fe5b602002602001015186848151811061527057fe5b602002602001015187858151811061528457fe5b6020026020010188858151811061529757fe5b602090810291909101019190915252600190920191600019909101905b6151cc565b818512156152cc576152cc868684615191565b838312156152df576152df868486615191565b505050505050565b6006546152fa908263ffffffff6122d316565b60065550565b80156123ce5761530e611211565b6001600160a01b03166340c10f1930836040518363ffffffff1660e01b815260040161533b929190615b13565b602060405180830381600087803b15801561535557600080fd5b505af1158015615369573d6000803e3d6000fd5b505050506040513d601f19601f8201168201806040525061538d91908101906156c2565b506123ce81612bb1565b60405180606001604052806000815260200160008152602001600081525090565b6040518060200160405280600081525090565b8280548282559060005260206000209060050281019282156154895760005260206000209160050282015b82811115615489578254825460ff191660ff918216151517808455845461ff00199091166101009182900490921615150217808355835462010000600160b01b031990911662010000918290046001600160a01b031690910217825560018084015490830155600280840154908301556003808401549083015560048084015490830155600592830192909101906153f6565b50614c039291506154b2565b50805460008255600502906000526020600020908101906123ce91905b6109ec91905b80821115614c035780546001600160b01b0319168155600060018201819055600282018190556003820181905560048201556005016154b8565b80356109f281615d1e565b80516109f281615d32565b80356109f281615d3b565b60006020828403121561552557600080fd5b61552f6020615c54565b9050600061553d8484615551565b82525092915050565b80356109f281615d48565b80516109f281615d48565b60006020828403121561556e57600080fd5b6000612f8384846154f2565b6000806040838503121561558d57600080fd5b600061559985856154f2565b92505060206155aa858286016154f2565b9150509250929050565b6000806000606084860312156155c957600080fd5b60006155d586866154f2565b93505060206155e6868287016154f2565b92505060406155f786828701615546565b9150509250925092565b6000806000806080858703121561561757600080fd5b600061562387876154f2565b9450506020615634878288016154f2565b935050604061564587828801615546565b925050606061565687828801615546565b91505092959194509250565b6000806040838503121561567557600080fd5b600061568185856154f2565b92505060206155aa85828601615508565b600080604083850312156156a557600080fd5b60006156b185856154f2565b92505060206155aa85828601615546565b6000602082840312156156d457600080fd5b6000612f8384846154fd565b600080604083850312156156f357600080fd5b60006156ff8585615513565b92505060206155aa858286016154fd565b60006020828403121561572257600080fd5b6000612f838484615546565b60006020828403121561574057600080fd5b6000612f838484615551565b6000806040838503121561575f57600080fd5b60006156b18585615546565b60008060006060848603121561578057600080fd5b600061578c8686615546565b93505060206155e686828701615546565b6157a681615cc1565b82525050565b6157a681615c88565b6157a681615c93565b6157a66157ca82615c98565b6109ec565b6157a66157ca826109ec565b60006157e682615c7b565b6157f08185610a0b565b9350615800818560208601615cde565b9290920192915050565b6157a681615cc8565b6157a681615cd3565b600061582782615c7b565b6158318185615c7f565b9350615841818560208601615cde565b61584a81615d0a565b9093019392505050565b6000615861601b83615c7f565b7f536166654d6174683a206164646974696f6e206f766572666c6f770000000000815260200192915050565b600061589a602b83615c7f565b7f4d61726b65743a20436f75706f6e207472616e7366657220746f20746865207a81526a65726f206164647265737360a81b602082015260400192915050565b60006158e7602183615c7f565b7f536166654d6174683a206d756c7469706c69636174696f6e206f766572666c6f8152607760f81b602082015260400192915050565b600061592a603b83615c7f565b7f43616e6e6f742073657420612070726f787920696d706c656d656e746174696f81527f6e20746f2061206e6f6e2d636f6e747261637420616464726573730000000000602082015260400192915050565b6000615989602a83615c7f565b7f4d61726b65743a20436f75706f6e20617070726f766520746f20746865207a65815269726f206164647265737360b01b602082015260400192915050565b60006159d5602d83615c7f565b7f4d61726b65743a20436f75706f6e207472616e736665722066726f6d2074686581526c207a65726f206164647265737360981b602082015260400192915050565b6000615a24601b83615c7f565b7f4d61726b65743a20546f6f206561726c7920746f2072656465656d0000000000815260200192915050565b6157a6816109ec565b6157a681615cbb565b6000615a6e82846157cf565b50602001919050565b6000610a4c82846157db565b6000615a8f82866157db565b9150615a9b82856157be565b600282019150615aab82846157db565b95945050505050565b602081016109f282846157ac565b60608101615ad0828661579d565b615add60208301856157ac565b612f836040830184615a50565b60408101615af8828561579d565b610a4c6020830184615a50565b60608101615ad082866157ac565b60408101615af882856157ac565b602081016109f282846157b5565b602081016109f2828461580a565b602081016109f28284615813565b60408101615af88285615813565b60208082528101610a4c818461581c565b602080825281016109f281615854565b602080825281016109f28161588d565b602080825281016109f2816158da565b602080825281016109f28161591d565b602080825281016109f28161597c565b602080825281016109f2816159c8565b602080825281016109f281615a17565b602081016109f28284615a50565b60408101615af88285615a50565b60608101615c048286615a50565b615add6020830185615a50565b60808101615c1f8287615a50565b615c2c6020830186615a50565b615c396040830185615a50565b615aab6060830184615a50565b602081016109f28284615a59565b60405181810167ffffffffffffffff81118282101715615c7357600080fd5b604052919050565b5190565b90815260200190565b60006109f282615caf565b151590565b6001600160f01b03191690565b80610a0b81615d14565b6001600160a01b031690565b60ff1690565b60006109f2825b60006109f282615c88565b60006109f282615ca5565b60005b83811015615cf9578181015183820152602001615ce1565b83811115612f585750506000910152565b601f01601f191690565b600381106123ce57fe5b615d2781615c88565b81146123ce57600080fd5b615d2781615c93565b600381106123ce57600080fd5b615d27816109ec56fe4d61726b65743a20496e73756666696369656e7420636f75706f6e2062616c616e6365426f6e64696e673a20696e73756666696369656e74207374616765642062616c616e63654d61726b65743a20496e73756666696369656e7420636f75706f6e20617070726f76616c426f6e64696e673a20696e73756666696369656e7420746f74616c20626f6e646564436f6d7074726f6c6c65723a206e6f7420656e6f756768206f75747374616e64696e672064656274436f6d7074726f6c6c65723a206e6f7420656e6f7567682072656465656d61626c652062616c616e6365a365627a7a723158205a4730605378dbd225eb974f236c210b4474ca779a678fa3a02b1d36b1ca5ce06c6578706572696d656e74616cf564736f6c63430005110040",
  "source": "/*\n    Copyright 2020 Dynamic Dollar Devs, based on the works of the Empty Set Squad\n\n    Licensed under the Apache License, Version 2.0 (the \"License\");\n    you may not use this file except in compliance with the License.\n    You may obtain a copy of the License at\n\n    http://www.apache.org/licenses/LICENSE-2.0\n\n    Unless required by applicable law or agreed to in writing, software\n    distributed under the License is distributed on an \"AS IS\" BASIS,\n    WITHOUT WARRANTIES OR CONDITIONS OF ANY KIND, either express or implied.\n    See the License for the specific language governing permissions and\n    limitations under the License.\n*/\n\npragma solidity ^0.5.17;\npragma experimental ABIEncoderV2;\n\nimport \"@openzeppelin/contracts/math/SafeMath.sol\";\nimport \"./Market.sol\";\nimport \"./Regulator.sol\";\nimport \"./Bonding.sol\";\nimport \"./Govern.sol\";\nimport \"../Constants.sol\";\n\ncontract Implementation is State, Bonding, Market, Regulator, Govern {\n    using SafeMath for uint256;\n\n    event Advance(uint256 indexed epoch, uint256 block, uint256 timestamp);\n    event Incentivization(address indexed account, uint256 amount);\n\n    function initialize() initializer public {\n        // committer reward:\n        mintToAccount(msg.sender, 100e18); // 100 DSD to committer\n        // contributor  rewards:\n        mintToAccount(0x61105dD0b0deD973BC94BB054f314c46A0234B06, 1000e18); // 1000 DSD to devnull\n    }\n\n    function advance() external incentivized {\n        Bonding.step();\n        Regulator.step();\n        Market.step();\n\n        emit Advance(epoch(), block.number, block.timestamp);\n    }\n\n    modifier incentivized {\n        // Mint advance reward to sender\n        uint256 incentive = Constants.getAdvanceIncentive();\n        mintToAccount(msg.sender, incentive);\n        emit Incentivization(msg.sender, incentive);\n        _;\n    }\n}\n",
  "sourcePath": "/Users/cinquemb/Documents/Startups/crypto/dollar/protocol/contracts/dao/Implementation.sol",
  "compiler": {
    "name": "solc",
    "version": "0.5.17+commit.d19bba13.Emscripten.clang"
  },
  "schemaVersion": "3.3.3",
  "updatedAt": "2021-01-12T08:04:48.550Z",
  "devdoc": {
    "methods": {}
  },
  "userdoc": {
    "methods": {
      "balanceOfStaged(address)": {
        "notice": "Account"
      },
      "dollar()": {
        "notice": "Global"
      },
      "epoch()": {
        "notice": "Epoch"
      },
      "name()": {
        "notice": "ERC20 Interface"
      },
      "recordedVote(address,address)": {
        "notice": "Governance"
      },
      "transfer(address,uint256)": {
        "notice": "ERC20 Interface"
      }
    }
  }
}