{
  "contractName": "Implementation",
  "abi": [
    {
      "anonymous": false,
      "inputs": [
        {
          "indexed": true,
          "internalType": "uint256",
          "name": "epoch",
          "type": "uint256"
        },
        {
          "indexed": false,
          "internalType": "uint256",
          "name": "block",
          "type": "uint256"
        },
        {
          "indexed": false,
          "internalType": "uint256",
          "name": "timestamp",
          "type": "uint256"
        }
      ],
      "name": "Advance",
      "type": "event"
    },
    {
      "anonymous": false,
      "inputs": [
        {
          "indexed": true,
          "internalType": "address",
          "name": "account",
          "type": "address"
        },
        {
          "indexed": false,
          "internalType": "uint256",
          "name": "start",
          "type": "uint256"
        },
        {
          "indexed": false,
          "internalType": "uint256",
          "name": "value",
          "type": "uint256"
        },
        {
          "indexed": false,
          "internalType": "uint256",
          "name": "valueUnderlying",
          "type": "uint256"
        }
      ],
      "name": "Bond",
      "type": "event"
    },
    {
      "anonymous": false,
      "inputs": [
        {
          "indexed": true,
          "internalType": "address",
          "name": "account",
          "type": "address"
        },
        {
          "indexed": true,
          "internalType": "address",
          "name": "candidate",
          "type": "address"
        }
      ],
      "name": "Commit",
      "type": "event"
    },
    {
      "anonymous": false,
      "inputs": [
        {
          "indexed": true,
          "internalType": "address",
          "name": "owner",
          "type": "address"
        },
        {
          "indexed": true,
          "internalType": "address",
          "name": "spender",
          "type": "address"
        },
        {
          "indexed": false,
          "internalType": "uint256",
          "name": "value",
          "type": "uint256"
        }
      ],
      "name": "CouponApproval",
      "type": "event"
    },
    {
      "anonymous": false,
      "inputs": [
        {
          "indexed": true,
          "internalType": "address",
          "name": "account",
          "type": "address"
        },
        {
          "indexed": true,
          "internalType": "uint256",
          "name": "epoch",
          "type": "uint256"
        },
        {
          "indexed": false,
          "internalType": "uint256",
          "name": "dollarAmount",
          "type": "uint256"
        },
        {
          "indexed": false,
          "internalType": "uint256",
          "name": "maxCouponAmount",
          "type": "uint256"
        }
      ],
      "name": "CouponBidPlaced",
      "type": "event"
    },
    {
      "anonymous": false,
      "inputs": [
        {
          "indexed": true,
          "internalType": "address",
          "name": "account",
          "type": "address"
        },
        {
          "indexed": true,
          "internalType": "uint256",
          "name": "epoch",
          "type": "uint256"
        },
        {
          "indexed": false,
          "internalType": "uint256",
          "name": "couponAmount",
          "type": "uint256"
        }
      ],
      "name": "CouponBurn",
      "type": "event"
    },
    {
      "anonymous": false,
      "inputs": [
        {
          "indexed": true,
          "internalType": "uint256",
          "name": "epoch",
          "type": "uint256"
        },
        {
          "indexed": false,
          "internalType": "uint256",
          "name": "couponsExpired",
          "type": "uint256"
        },
        {
          "indexed": false,
          "internalType": "uint256",
          "name": "lessRedeemable",
          "type": "uint256"
        },
        {
          "indexed": false,
          "internalType": "uint256",
          "name": "lessDebt",
          "type": "uint256"
        },
        {
          "indexed": false,
          "internalType": "uint256",
          "name": "newBonded",
          "type": "uint256"
        }
      ],
      "name": "CouponExpiration",
      "type": "event"
    },
    {
      "anonymous": false,
      "inputs": [
        {
          "indexed": true,
          "internalType": "address",
          "name": "account",
          "type": "address"
        },
        {
          "indexed": true,
          "internalType": "uint256",
          "name": "epoch",
          "type": "uint256"
        },
        {
          "indexed": false,
          "internalType": "uint256",
          "name": "dollarAmount",
          "type": "uint256"
        },
        {
          "indexed": false,
          "internalType": "uint256",
          "name": "couponAmount",
          "type": "uint256"
        }
      ],
      "name": "CouponPurchase",
      "type": "event"
    },
    {
      "anonymous": false,
      "inputs": [
        {
          "indexed": true,
          "internalType": "address",
          "name": "account",
          "type": "address"
        },
        {
          "indexed": true,
          "internalType": "uint256",
          "name": "epoch",
          "type": "uint256"
        },
        {
          "indexed": false,
          "internalType": "uint256",
          "name": "couponAmount",
          "type": "uint256"
        }
      ],
      "name": "CouponRedemption",
      "type": "event"
    },
    {
      "anonymous": false,
      "inputs": [
        {
          "indexed": true,
          "internalType": "address",
          "name": "from",
          "type": "address"
        },
        {
          "indexed": true,
          "internalType": "address",
          "name": "to",
          "type": "address"
        },
        {
          "indexed": true,
          "internalType": "uint256",
          "name": "epoch",
          "type": "uint256"
        },
        {
          "indexed": false,
          "internalType": "uint256",
          "name": "value",
          "type": "uint256"
        }
      ],
      "name": "CouponTransfer",
      "type": "event"
    },
    {
      "anonymous": false,
      "inputs": [
        {
          "indexed": true,
          "internalType": "address",
          "name": "account",
          "type": "address"
        },
        {
          "indexed": false,
          "internalType": "uint256",
          "name": "value",
          "type": "uint256"
        }
      ],
      "name": "Deposit",
      "type": "event"
    },
    {
      "anonymous": false,
      "inputs": [
        {
          "indexed": true,
          "internalType": "address",
          "name": "account",
          "type": "address"
        },
        {
          "indexed": false,
          "internalType": "uint256",
          "name": "amount",
          "type": "uint256"
        }
      ],
      "name": "Incentivization",
      "type": "event"
    },
    {
      "anonymous": false,
      "inputs": [
        {
          "indexed": true,
          "internalType": "address",
          "name": "candidate",
          "type": "address"
        },
        {
          "indexed": true,
          "internalType": "address",
          "name": "account",
          "type": "address"
        },
        {
          "indexed": true,
          "internalType": "uint256",
          "name": "start",
          "type": "uint256"
        },
        {
          "indexed": false,
          "internalType": "uint256",
          "name": "period",
          "type": "uint256"
        }
      ],
      "name": "Proposal",
      "type": "event"
    },
    {
      "anonymous": false,
      "inputs": [
        {
          "indexed": true,
          "internalType": "uint256",
          "name": "epoch",
          "type": "uint256"
        },
        {
          "indexed": false,
          "internalType": "uint256",
          "name": "price",
          "type": "uint256"
        },
        {
          "indexed": false,
          "internalType": "uint256",
          "name": "newDebt",
          "type": "uint256"
        }
      ],
      "name": "SupplyDecrease",
      "type": "event"
    },
    {
      "anonymous": false,
      "inputs": [
        {
          "indexed": true,
          "internalType": "uint256",
          "name": "epoch",
          "type": "uint256"
        },
        {
          "indexed": false,
          "internalType": "uint256",
          "name": "price",
          "type": "uint256"
        },
        {
          "indexed": false,
          "internalType": "uint256",
          "name": "newRedeemable",
          "type": "uint256"
        },
        {
          "indexed": false,
          "internalType": "uint256",
          "name": "lessDebt",
          "type": "uint256"
        },
        {
          "indexed": false,
          "internalType": "uint256",
          "name": "newBonded",
          "type": "uint256"
        }
      ],
      "name": "SupplyIncrease",
      "type": "event"
    },
    {
      "anonymous": false,
      "inputs": [
        {
          "indexed": true,
          "internalType": "uint256",
          "name": "epoch",
          "type": "uint256"
        }
      ],
      "name": "SupplyNeutral",
      "type": "event"
    },
    {
      "anonymous": false,
      "inputs": [
        {
          "indexed": true,
          "internalType": "address",
          "name": "from",
          "type": "address"
        },
        {
          "indexed": true,
          "internalType": "address",
          "name": "to",
          "type": "address"
        },
        {
          "indexed": false,
          "internalType": "uint256",
          "name": "value",
          "type": "uint256"
        }
      ],
      "name": "Transfer",
      "type": "event"
    },
    {
      "anonymous": false,
      "inputs": [
        {
          "indexed": true,
          "internalType": "address",
          "name": "account",
          "type": "address"
        },
        {
          "indexed": false,
          "internalType": "uint256",
          "name": "start",
          "type": "uint256"
        },
        {
          "indexed": false,
          "internalType": "uint256",
          "name": "value",
          "type": "uint256"
        },
        {
          "indexed": false,
          "internalType": "uint256",
          "name": "valueUnderlying",
          "type": "uint256"
        }
      ],
      "name": "Unbond",
      "type": "event"
    },
    {
      "anonymous": false,
      "inputs": [
        {
          "indexed": true,
          "internalType": "address",
          "name": "implementation",
          "type": "address"
        }
      ],
      "name": "Upgraded",
      "type": "event"
    },
    {
      "anonymous": false,
      "inputs": [
        {
          "indexed": true,
          "internalType": "address",
          "name": "account",
          "type": "address"
        },
        {
          "indexed": true,
          "internalType": "address",
          "name": "candidate",
          "type": "address"
        },
        {
          "indexed": false,
          "internalType": "enum Candidate.Vote",
          "name": "vote",
          "type": "uint8"
        },
        {
          "indexed": false,
          "internalType": "uint256",
          "name": "bonded",
          "type": "uint256"
        }
      ],
      "name": "Vote",
      "type": "event"
    },
    {
      "anonymous": false,
      "inputs": [
        {
          "indexed": true,
          "internalType": "address",
          "name": "account",
          "type": "address"
        },
        {
          "indexed": false,
          "internalType": "uint256",
          "name": "value",
          "type": "uint256"
        }
      ],
      "name": "Withdraw",
      "type": "event"
    },
    {
      "constant": true,
      "inputs": [
        {
          "internalType": "address",
          "name": "owner",
          "type": "address"
        },
        {
          "internalType": "address",
          "name": "spender",
          "type": "address"
        }
      ],
      "name": "allowance",
      "outputs": [
        {
          "internalType": "uint256",
          "name": "",
          "type": "uint256"
        }
      ],
      "payable": false,
      "stateMutability": "view",
      "type": "function"
    },
    {
      "constant": true,
      "inputs": [
        {
          "internalType": "address",
          "name": "owner",
          "type": "address"
        },
        {
          "internalType": "address",
          "name": "spender",
          "type": "address"
        }
      ],
      "name": "allowanceCoupons",
      "outputs": [
        {
          "internalType": "uint256",
          "name": "",
          "type": "uint256"
        }
      ],
      "payable": false,
      "stateMutability": "view",
      "type": "function"
    },
    {
      "constant": false,
      "inputs": [
        {
          "internalType": "address",
          "name": "spender",
          "type": "address"
        },
        {
          "internalType": "uint256",
          "name": "amount",
          "type": "uint256"
        }
      ],
      "name": "approve",
      "outputs": [
        {
          "internalType": "bool",
          "name": "",
          "type": "bool"
        }
      ],
      "payable": false,
      "stateMutability": "nonpayable",
      "type": "function"
    },
    {
      "constant": false,
      "inputs": [
        {
          "internalType": "address",
          "name": "spender",
          "type": "address"
        },
        {
          "internalType": "uint256",
          "name": "amount",
          "type": "uint256"
        }
      ],
      "name": "approveCoupons",
      "outputs": [],
      "payable": false,
      "stateMutability": "nonpayable",
      "type": "function"
    },
    {
      "constant": true,
      "inputs": [
        {
          "internalType": "address",
          "name": "candidate",
          "type": "address"
        }
      ],
      "name": "approveFor",
      "outputs": [
        {
          "internalType": "uint256",
          "name": "",
          "type": "uint256"
        }
      ],
      "payable": false,
      "stateMutability": "view",
      "type": "function"
    },
    {
      "constant": true,
      "inputs": [
        {
          "internalType": "address",
          "name": "account",
          "type": "address"
        }
      ],
      "name": "balanceOf",
      "outputs": [
        {
          "internalType": "uint256",
          "name": "",
          "type": "uint256"
        }
      ],
      "payable": false,
      "stateMutability": "view",
      "type": "function"
    },
    {
      "constant": true,
      "inputs": [
        {
          "internalType": "address",
          "name": "account",
          "type": "address"
        }
      ],
      "name": "balanceOfBonded",
      "outputs": [
        {
          "internalType": "uint256",
          "name": "",
          "type": "uint256"
        }
      ],
      "payable": false,
      "stateMutability": "view",
      "type": "function"
    },
    {
      "constant": true,
      "inputs": [
        {
          "internalType": "address",
          "name": "account",
          "type": "address"
        },
        {
          "internalType": "uint256",
          "name": "epoch",
          "type": "uint256"
        }
      ],
      "name": "balanceOfCoupons",
      "outputs": [
        {
          "internalType": "uint256",
          "name": "",
          "type": "uint256"
        }
      ],
      "payable": false,
      "stateMutability": "view",
      "type": "function"
    },
    {
      "constant": true,
      "inputs": [
        {
          "internalType": "address",
          "name": "account",
          "type": "address"
        }
      ],
      "name": "balanceOfStaged",
      "outputs": [
        {
          "internalType": "uint256",
          "name": "",
          "type": "uint256"
        }
      ],
      "payable": false,
      "stateMutability": "view",
      "type": "function"
    },
    {
      "constant": false,
      "inputs": [
        {
          "internalType": "uint256",
          "name": "value",
          "type": "uint256"
        }
      ],
      "name": "bond",
      "outputs": [],
      "payable": false,
      "stateMutability": "nonpayable",
      "type": "function"
    },
    {
      "constant": true,
      "inputs": [
        {
          "internalType": "uint256",
          "name": "epoch",
          "type": "uint256"
        }
      ],
      "name": "bootstrappingAt",
      "outputs": [
        {
          "internalType": "bool",
          "name": "",
          "type": "bool"
        }
      ],
      "payable": false,
      "stateMutability": "view",
      "type": "function"
    },
    {
      "constant": false,
      "inputs": [
        {
          "internalType": "address",
          "name": "candidate",
          "type": "address"
        }
      ],
      "name": "commit",
      "outputs": [],
      "payable": false,
      "stateMutability": "nonpayable",
      "type": "function"
    },
    {
      "constant": true,
      "inputs": [
        {
          "internalType": "uint256",
          "name": "amount",
          "type": "uint256"
        }
      ],
      "name": "couponPremium",
      "outputs": [
        {
          "internalType": "uint256",
          "name": "",
          "type": "uint256"
        }
      ],
      "payable": false,
      "stateMutability": "view",
      "type": "function"
    },
    {
      "constant": true,
      "inputs": [
        {
          "internalType": "uint256",
          "name": "couponEpoch",
          "type": "uint256"
        },
        {
          "internalType": "uint256",
          "name": "couponAmount",
          "type": "uint256"
        }
      ],
      "name": "couponRedemptionPenalty",
      "outputs": [
        {
          "internalType": "uint256",
          "name": "",
          "type": "uint256"
        }
      ],
      "payable": false,
      "stateMutability": "view",
      "type": "function"
    },
    {
      "constant": true,
      "inputs": [
        {
          "internalType": "uint256",
          "name": "epoch",
          "type": "uint256"
        }
      ],
      "name": "couponsExpiration",
      "outputs": [
        {
          "internalType": "uint256",
          "name": "",
          "type": "uint256"
        }
      ],
      "payable": false,
      "stateMutability": "view",
      "type": "function"
    },
    {
      "constant": true,
      "inputs": [],
      "name": "decimals",
      "outputs": [
        {
          "internalType": "uint8",
          "name": "",
          "type": "uint8"
        }
      ],
      "payable": false,
      "stateMutability": "view",
      "type": "function"
    },
    {
      "constant": false,
      "inputs": [
        {
          "internalType": "uint256",
          "name": "value",
          "type": "uint256"
        }
      ],
      "name": "deposit",
      "outputs": [],
      "payable": false,
      "stateMutability": "nonpayable",
      "type": "function"
    },
    {
      "constant": true,
      "inputs": [],
      "name": "dollar",
      "outputs": [
        {
          "internalType": "contract IDollar",
          "name": "",
          "type": "address"
        }
      ],
      "payable": false,
      "stateMutability": "view",
      "type": "function"
    },
    {
      "constant": false,
      "inputs": [
        {
          "internalType": "address",
          "name": "candidate",
          "type": "address"
        }
      ],
      "name": "emergencyCommit",
      "outputs": [],
      "payable": false,
      "stateMutability": "nonpayable",
      "type": "function"
    },
    {
      "constant": true,
      "inputs": [],
      "name": "epoch",
      "outputs": [
        {
          "internalType": "uint256",
          "name": "",
          "type": "uint256"
        }
      ],
      "payable": false,
      "stateMutability": "view",
      "type": "function"
    },
    {
      "constant": true,
      "inputs": [],
      "name": "epochTime",
      "outputs": [
        {
          "internalType": "uint256",
          "name": "",
          "type": "uint256"
        }
      ],
      "payable": false,
      "stateMutability": "view",
      "type": "function"
    },
    {
      "constant": true,
      "inputs": [
        {
          "internalType": "uint256",
          "name": "epoch",
          "type": "uint256"
        }
      ],
      "name": "expiringCoupons",
      "outputs": [
        {
          "internalType": "uint256",
          "name": "",
          "type": "uint256"
        }
      ],
      "payable": false,
      "stateMutability": "view",
      "type": "function"
    },
    {
      "constant": true,
      "inputs": [
        {
          "internalType": "uint256",
          "name": "epoch",
          "type": "uint256"
        },
        {
          "internalType": "uint256",
          "name": "i",
          "type": "uint256"
        }
      ],
      "name": "expiringCouponsAtIndex",
      "outputs": [
        {
          "internalType": "uint256",
          "name": "",
          "type": "uint256"
        }
      ],
      "payable": false,
      "stateMutability": "view",
      "type": "function"
    },
    {
      "constant": true,
      "inputs": [
        {
          "internalType": "address",
          "name": "account",
          "type": "address"
        }
      ],
      "name": "fluidUntil",
      "outputs": [
        {
          "internalType": "uint256",
          "name": "",
          "type": "uint256"
        }
      ],
      "payable": false,
      "stateMutability": "view",
      "type": "function"
    },
    {
      "constant": true,
      "inputs": [
        {
          "internalType": "uint256",
          "name": "epoch",
          "type": "uint256"
        }
      ],
      "name": "getAvgExpiryFilled",
      "outputs": [
        {
          "internalType": "uint256",
          "name": "",
          "type": "uint256"
        }
      ],
      "payable": false,
      "stateMutability": "view",
      "type": "function"
    },
    {
      "constant": true,
      "inputs": [
        {
          "internalType": "uint256",
          "name": "epoch",
          "type": "uint256"
        }
      ],
      "name": "getAvgYieldFilled",
      "outputs": [
        {
          "internalType": "uint256",
          "name": "",
          "type": "uint256"
        }
      ],
      "payable": false,
      "stateMutability": "view",
      "type": "function"
    },
    {
      "constant": true,
      "inputs": [
        {
          "internalType": "uint256",
          "name": "epoch",
          "type": "uint256"
        }
      ],
      "name": "getBidToCover",
      "outputs": [
        {
          "internalType": "uint256",
          "name": "",
          "type": "uint256"
        }
      ],
      "payable": false,
      "stateMutability": "view",
      "type": "function"
    },
    {
      "constant": true,
      "inputs": [],
      "name": "getLatestDeadAuctionEpoch",
      "outputs": [
        {
          "internalType": "uint256",
          "name": "",
          "type": "uint256"
        }
      ],
      "payable": false,
      "stateMutability": "view",
      "type": "function"
    },
    {
      "constant": true,
      "inputs": [
        {
          "internalType": "uint256",
          "name": "epoch",
          "type": "uint256"
        }
      ],
      "name": "getMaxExpiryFilled",
      "outputs": [
        {
          "internalType": "uint256",
          "name": "",
          "type": "uint256"
        }
      ],
      "payable": false,
      "stateMutability": "view",
      "type": "function"
    },
    {
      "constant": true,
      "inputs": [
        {
          "internalType": "uint256",
          "name": "epoch",
          "type": "uint256"
        }
      ],
      "name": "getMaxYieldFilled",
      "outputs": [
        {
          "internalType": "uint256",
          "name": "",
          "type": "uint256"
        }
      ],
      "payable": false,
      "stateMutability": "view",
      "type": "function"
    },
    {
      "constant": true,
      "inputs": [
        {
          "internalType": "uint256",
          "name": "epoch",
          "type": "uint256"
        }
      ],
      "name": "getMinExpiryFilled",
      "outputs": [
        {
          "internalType": "uint256",
          "name": "",
          "type": "uint256"
        }
      ],
      "payable": false,
      "stateMutability": "view",
      "type": "function"
    },
    {
      "constant": true,
      "inputs": [
        {
          "internalType": "uint256",
          "name": "epoch",
          "type": "uint256"
        }
      ],
      "name": "getMinYieldFilled",
      "outputs": [
        {
          "internalType": "uint256",
          "name": "",
          "type": "uint256"
        }
      ],
      "payable": false,
      "stateMutability": "view",
      "type": "function"
    },
    {
      "constant": true,
      "inputs": [
        {
          "internalType": "uint256",
          "name": "epoch",
          "type": "uint256"
        }
      ],
      "name": "getTotalAuctioned",
      "outputs": [
        {
          "internalType": "uint256",
          "name": "",
          "type": "uint256"
        }
      ],
      "payable": false,
      "stateMutability": "view",
      "type": "function"
    },
    {
      "constant": true,
      "inputs": [
        {
          "internalType": "uint256",
          "name": "epoch",
          "type": "uint256"
        }
      ],
      "name": "getTotalBurned",
      "outputs": [
        {
          "internalType": "uint256",
          "name": "",
          "type": "uint256"
        }
      ],
      "payable": false,
      "stateMutability": "view",
      "type": "function"
    },
    {
      "constant": true,
      "inputs": [
        {
          "internalType": "uint256",
          "name": "epoch",
          "type": "uint256"
        }
      ],
      "name": "getTotalFilled",
      "outputs": [
        {
          "internalType": "uint256",
          "name": "",
          "type": "uint256"
        }
      ],
      "payable": false,
      "stateMutability": "view",
      "type": "function"
    },
    {
      "constant": true,
      "inputs": [],
      "name": "implementation",
      "outputs": [
        {
          "internalType": "address",
          "name": "impl",
          "type": "address"
        }
      ],
      "payable": false,
      "stateMutability": "view",
      "type": "function"
    },
    {
      "constant": true,
      "inputs": [
        {
          "internalType": "address",
          "name": "candidate",
          "type": "address"
        }
      ],
      "name": "isInitialized",
      "outputs": [
        {
          "internalType": "bool",
          "name": "",
          "type": "bool"
        }
      ],
      "payable": false,
      "stateMutability": "view",
      "type": "function"
    },
    {
      "constant": true,
      "inputs": [
        {
          "internalType": "address",
          "name": "candidate",
          "type": "address"
        }
      ],
      "name": "isNominated",
      "outputs": [
        {
          "internalType": "bool",
          "name": "",
          "type": "bool"
        }
      ],
      "payable": false,
      "stateMutability": "view",
      "type": "function"
    },
    {
      "constant": true,
      "inputs": [
        {
          "internalType": "address",
          "name": "account",
          "type": "address"
        }
      ],
      "name": "lockedUntil",
      "outputs": [
        {
          "internalType": "uint256",
          "name": "",
          "type": "uint256"
        }
      ],
      "payable": false,
      "stateMutability": "view",
      "type": "function"
    },
    {
      "constant": true,
      "inputs": [],
      "name": "name",
      "outputs": [
        {
          "internalType": "string",
          "name": "",
          "type": "string"
        }
      ],
      "payable": false,
      "stateMutability": "view",
      "type": "function"
    },
    {
      "constant": true,
      "inputs": [],
      "name": "oracle",
      "outputs": [
        {
          "internalType": "contract IOracle",
          "name": "",
          "type": "address"
        }
      ],
      "payable": false,
      "stateMutability": "view",
      "type": "function"
    },
    {
      "constant": true,
      "inputs": [
        {
          "internalType": "uint256",
          "name": "epoch",
          "type": "uint256"
        }
      ],
      "name": "outstandingCoupons",
      "outputs": [
        {
          "internalType": "uint256",
          "name": "",
          "type": "uint256"
        }
      ],
      "payable": false,
      "stateMutability": "view",
      "type": "function"
    },
    {
      "constant": true,
      "inputs": [
        {
          "internalType": "address",
          "name": "candidate",
          "type": "address"
        }
      ],
      "name": "periodFor",
      "outputs": [
        {
          "internalType": "uint256",
          "name": "",
          "type": "uint256"
        }
      ],
      "payable": false,
      "stateMutability": "view",
      "type": "function"
    },
    {
      "constant": false,
      "inputs": [
        {
          "internalType": "uint256",
          "name": "couponEpochExpiry",
          "type": "uint256"
        },
        {
          "internalType": "uint256",
          "name": "dollarAmount",
          "type": "uint256"
        },
        {
          "internalType": "uint256",
          "name": "maxCouponAmount",
          "type": "uint256"
        }
      ],
      "name": "placeCouponAuctionBid",
      "outputs": [
        {
          "internalType": "bool",
          "name": "",
          "type": "bool"
        }
      ],
      "payable": false,
      "stateMutability": "nonpayable",
      "type": "function"
    },
    {
      "constant": true,
      "inputs": [],
      "name": "pool",
      "outputs": [
        {
          "internalType": "address",
          "name": "",
          "type": "address"
        }
      ],
      "payable": false,
      "stateMutability": "view",
      "type": "function"
    },
    {
      "constant": false,
      "inputs": [
        {
          "internalType": "uint256",
          "name": "dollarAmount",
          "type": "uint256"
        }
      ],
      "name": "purchaseCoupons",
      "outputs": [
        {
          "internalType": "uint256",
          "name": "",
          "type": "uint256"
        }
      ],
      "payable": false,
      "stateMutability": "nonpayable",
      "type": "function"
    },
    {
      "constant": true,
      "inputs": [
        {
          "internalType": "address",
          "name": "account",
          "type": "address"
        },
        {
          "internalType": "address",
          "name": "candidate",
          "type": "address"
        }
      ],
      "name": "recordedVote",
      "outputs": [
        {
          "internalType": "enum Candidate.Vote",
          "name": "",
          "type": "uint8"
        }
      ],
      "payable": false,
      "stateMutability": "view",
      "type": "function"
    },
    {
      "constant": false,
      "inputs": [
        {
          "internalType": "uint256",
          "name": "couponEpoch",
          "type": "uint256"
        },
        {
          "internalType": "uint256",
          "name": "couponAmount",
          "type": "uint256"
        },
        {
          "internalType": "uint256",
          "name": "minOutput",
          "type": "uint256"
        }
      ],
      "name": "redeemCoupons",
      "outputs": [],
      "payable": false,
      "stateMutability": "nonpayable",
      "type": "function"
    },
    {
      "constant": false,
      "inputs": [
        {
          "internalType": "uint256",
          "name": "couponEpoch",
          "type": "uint256"
        },
        {
          "internalType": "uint256",
          "name": "couponAmount",
          "type": "uint256"
        }
      ],
      "name": "redeemCoupons",
      "outputs": [],
      "payable": false,
      "stateMutability": "nonpayable",
      "type": "function"
    },
    {
      "constant": true,
      "inputs": [
        {
          "internalType": "address",
          "name": "candidate",
          "type": "address"
        }
      ],
      "name": "rejectFor",
      "outputs": [
        {
          "internalType": "uint256",
          "name": "",
          "type": "uint256"
        }
      ],
      "payable": false,
      "stateMutability": "view",
      "type": "function"
    },
    {
      "constant": true,
      "inputs": [
        {
          "internalType": "address",
          "name": "candidate",
          "type": "address"
        }
      ],
      "name": "startFor",
      "outputs": [
        {
          "internalType": "uint256",
          "name": "",
          "type": "uint256"
        }
      ],
      "payable": false,
      "stateMutability": "view",
      "type": "function"
    },
    {
      "constant": true,
      "inputs": [
        {
          "internalType": "address",
          "name": "account",
          "type": "address"
        }
      ],
      "name": "statusOf",
      "outputs": [
        {
          "internalType": "enum Account.Status",
          "name": "",
          "type": "uint8"
        }
      ],
      "payable": false,
      "stateMutability": "view",
      "type": "function"
    },
    {
      "constant": true,
      "inputs": [],
      "name": "symbol",
      "outputs": [
        {
          "internalType": "string",
          "name": "",
          "type": "string"
        }
      ],
      "payable": false,
      "stateMutability": "view",
      "type": "function"
    },
    {
      "constant": true,
      "inputs": [],
      "name": "totalBonded",
      "outputs": [
        {
          "internalType": "uint256",
          "name": "",
          "type": "uint256"
        }
      ],
      "payable": false,
      "stateMutability": "view",
      "type": "function"
    },
    {
      "constant": true,
      "inputs": [
        {
          "internalType": "uint256",
          "name": "epoch",
          "type": "uint256"
        }
      ],
      "name": "totalBondedAt",
      "outputs": [
        {
          "internalType": "uint256",
          "name": "",
          "type": "uint256"
        }
      ],
      "payable": false,
      "stateMutability": "view",
      "type": "function"
    },
    {
      "constant": true,
      "inputs": [],
      "name": "totalCoupons",
      "outputs": [
        {
          "internalType": "uint256",
          "name": "",
          "type": "uint256"
        }
      ],
      "payable": false,
      "stateMutability": "view",
      "type": "function"
    },
    {
      "constant": true,
      "inputs": [],
      "name": "totalDebt",
      "outputs": [
        {
          "internalType": "uint256",
          "name": "",
          "type": "uint256"
        }
      ],
      "payable": false,
      "stateMutability": "view",
      "type": "function"
    },
    {
      "constant": true,
      "inputs": [],
      "name": "totalNet",
      "outputs": [
        {
          "internalType": "uint256",
          "name": "",
          "type": "uint256"
        }
      ],
      "payable": false,
      "stateMutability": "view",
      "type": "function"
    },
    {
      "constant": true,
      "inputs": [],
      "name": "totalRedeemable",
      "outputs": [
        {
          "internalType": "uint256",
          "name": "",
          "type": "uint256"
        }
      ],
      "payable": false,
      "stateMutability": "view",
      "type": "function"
    },
    {
      "constant": true,
      "inputs": [],
      "name": "totalStaged",
      "outputs": [
        {
          "internalType": "uint256",
          "name": "",
          "type": "uint256"
        }
      ],
      "payable": false,
      "stateMutability": "view",
      "type": "function"
    },
    {
      "constant": true,
      "inputs": [],
      "name": "totalSupply",
      "outputs": [
        {
          "internalType": "uint256",
          "name": "",
          "type": "uint256"
        }
      ],
      "payable": false,
      "stateMutability": "view",
      "type": "function"
    },
    {
      "constant": false,
      "inputs": [
        {
          "internalType": "address",
          "name": "recipient",
          "type": "address"
        },
        {
          "internalType": "uint256",
          "name": "amount",
          "type": "uint256"
        }
      ],
      "name": "transfer",
      "outputs": [
        {
          "internalType": "bool",
          "name": "",
          "type": "bool"
        }
      ],
      "payable": false,
      "stateMutability": "nonpayable",
      "type": "function"
    },
    {
      "constant": false,
      "inputs": [
        {
          "internalType": "address",
          "name": "sender",
          "type": "address"
        },
        {
          "internalType": "address",
          "name": "recipient",
          "type": "address"
        },
        {
          "internalType": "uint256",
          "name": "epoch",
          "type": "uint256"
        },
        {
          "internalType": "uint256",
          "name": "amount",
          "type": "uint256"
        }
      ],
      "name": "transferCoupons",
      "outputs": [],
      "payable": false,
      "stateMutability": "nonpayable",
      "type": "function"
    },
    {
      "constant": false,
      "inputs": [
        {
          "internalType": "address",
          "name": "sender",
          "type": "address"
        },
        {
          "internalType": "address",
          "name": "recipient",
          "type": "address"
        },
        {
          "internalType": "uint256",
          "name": "amount",
          "type": "uint256"
        }
      ],
      "name": "transferFrom",
      "outputs": [
        {
          "internalType": "bool",
          "name": "",
          "type": "bool"
        }
      ],
      "payable": false,
      "stateMutability": "nonpayable",
      "type": "function"
    },
    {
      "constant": false,
      "inputs": [
        {
          "internalType": "uint256",
          "name": "value",
          "type": "uint256"
        }
      ],
      "name": "unbond",
      "outputs": [],
      "payable": false,
      "stateMutability": "nonpayable",
      "type": "function"
    },
    {
      "constant": false,
      "inputs": [
        {
          "internalType": "uint256",
          "name": "value",
          "type": "uint256"
        }
      ],
      "name": "unbondUnderlying",
      "outputs": [],
      "payable": false,
      "stateMutability": "nonpayable",
      "type": "function"
    },
    {
      "constant": false,
      "inputs": [
        {
          "internalType": "address",
          "name": "candidate",
          "type": "address"
        },
        {
          "internalType": "enum Candidate.Vote",
          "name": "vote",
          "type": "uint8"
        }
      ],
      "name": "vote",
      "outputs": [],
      "payable": false,
      "stateMutability": "nonpayable",
      "type": "function"
    },
    {
      "constant": true,
      "inputs": [
        {
          "internalType": "address",
          "name": "candidate",
          "type": "address"
        }
      ],
      "name": "votesFor",
      "outputs": [
        {
          "internalType": "uint256",
          "name": "",
          "type": "uint256"
        }
      ],
      "payable": false,
      "stateMutability": "view",
      "type": "function"
    },
    {
      "constant": false,
      "inputs": [
        {
          "internalType": "uint256",
          "name": "value",
          "type": "uint256"
        }
      ],
      "name": "withdraw",
      "outputs": [],
      "payable": false,
      "stateMutability": "nonpayable",
      "type": "function"
    },
    {
      "constant": false,
      "inputs": [],
      "name": "initialize",
      "outputs": [],
      "payable": false,
      "stateMutability": "nonpayable",
      "type": "function"
    },
    {
      "constant": false,
      "inputs": [],
      "name": "advance",
      "outputs": [],
      "payable": false,
      "stateMutability": "nonpayable",
      "type": "function"
    }
  ],
  "bytecode": "0x6080604052600060115560006012556001601355600160145560016015556000601655600060175560006018556000601955600019601a556200004c6200007960201b62004cf41760201c565b51601b55604080516020810190915260001990819052601c553480156200007257600080fd5b50620000a9565b6200008362000096565b5060408051602081019091526000815290565b6040518060200160405280600081525090565b61615980620000b96000396000f3fe608060405234801561001057600080fd5b506004361061041c5760003560e01c8063825ad6071161022b578063bceb514d11610130578063dd62ed3e116100b8578063ea105ac711610087578063ea105ac71461089a578063eeaca09b146108a2578063f1b7cf49146108b5578063fc7b9c18146108c8578063ffbe3b73146108d05761041c565b8063dd62ed3e14610853578063dde74dc314610861578063df9a2b1c14610874578063e5f55c7e146108875761041c565b8063cf023779116100ff578063cf023779146107ff578063d53c6f5f14610807578063d60b347f1461081a578063d6a9cf081461082d578063d8f54138146108405761041c565b8063bceb514d146107b3578063c34eee65146107c6578063c9aff70c146107d9578063cb0fbc71146107ec5761041c565b80639f1a0929116101b3578063a6c409f111610182578063a6c409f114610772578063a9059cbb14610454578063b6b55f251461077a578063bc0b1df61461078d578063bc7513e2146107a05761041c565b80639f1a0929146107265780639f6e1b2614610739578063a1eb31e81461074c578063a50cd8e71461075f5761041c565b806395d89b41116101fa57806395d89b41146106dd57806397a5d5b5146106e55780639940686e146106f85780639a649edc1461070b5780639bc289f1146107135761041c565b8063825ad607146106a757806386cf9f14146106ba5780638e825388146106cd578063900cf0cf146106d55761041c565b80633a3e6c8111610331578063520acb76116102b957806370a082311161028857806370a082311461065e57806375d5024b146106715780637d8bb869146106845780637dc0d1d0146106975780638129fc1c1461069f5761041c565b8063520acb761461061d5780635c60da1b1461063057806364668022146106385780636a39e3281461064b5761041c565b806347c050691161030057806347c05069146105c75780634c736099146105da5780635053e461146105ed57806351adeb57146105f557806351bf21d81461060a5761041c565b80633a3e6c81146105795780633dc905c71461058c5780633fbba9a61461059f57806344d96e95146105bf5761041c565b806323b872dd116103b45780632e1a7d4d116103835780632e1a7d4d146105185780632f7f889e1461052b578063313ce5671461053e578063353a420c14610553578063369e8c1d146105665761041c565b806323b872dd146104cc57806324772c04146104df57806327de9e32146104f25780632d7f23b3146105055761041c565b806315e14bf6116103f057806315e14bf61461049457806316f0115b146104a757806318160ddd146104bc5780631edbcf6c146104c45761041c565b80625edd371461042157806306fdde0314610436578063095ea7b31461045457806310e95b6c14610474575b600080fd5b61043461042f3660046158e7565b6108e3565b005b61043e610a06565b60405161044b9190615e3f565b60405180910390f35b610467610462366004615978565b610a3e565b60405161044b9190615e07565b6104876104823660046159f6565b610a47565b60405161044b9190615ec0565b6104876104a2366004615842565b610a5f565b6104af610a7d565b60405161044b9190615d9a565b610487610a8c565b610487610a92565b6104676104da36600461589a565b610a98565b6104676104ed366004615a51565b610aa2565b6104346105003660046159f6565b610cda565b6104876105133660046159f6565b610e18565b6104346105263660046159f6565b610e2d565b610434610539366004615978565b610f65565b610546610fe5565b60405161044b9190615f2c565b610487610561366004615842565b610fea565b610434610574366004615842565b611008565b610467610587366004615842565b611156565b61048761059a3660046159f6565b611173565b6105b26105ad366004615860565b611189565b60405161044b9190615e23565b6104876111bc565b6104346105d5366004615842565b6111c2565b6104876105e8366004615a32565b6112b5565b6104876112e5565b6105fd611308565b60405161044b9190615e15565b610487610618366004615842565b611317565b61048761062b3660046159f6565b611335565b6104af61134a565b610487610646366004615842565b61136f565b6104876106593660046159f6565b61138d565b61048761066c366004615842565b6113a2565b61046761067f3660046159f6565b6113c0565b6104876106923660046159f6565b6113d3565b6105fd6113e8565b6104346113f7565b6104876106b5366004615842565b61147c565b6104876106c8366004615842565b6114bc565b6104876114d7565b6104876114dd565b61043e6114e3565b6105b26106f3366004615842565b611501565b6104346107063660046159f6565b611566565b610487611634565b610487610721366004615842565b61163a565b6104876107343660046159f6565b611658565b610487610747366004615860565b61166d565b61048761075a366004615a32565b61169c565b61048761076d366004615842565b6117c2565b6104876117d9565b6104346107883660046159f6565b611863565b61043461079b366004615a51565b61193b565b6104876107ae366004615978565b611a6f565b6104346107c1366004615948565b611ab3565b6104876107d43660046159f6565b611d4e565b6104876107e73660046159f6565b611d63565b6104876107fa3660046159f6565b611d78565b610487611d8d565b6104876108153660046159f6565b611d93565b610467610828366004615842565b611da8565b61043461083b366004615a32565b611dc9565b61048761084e3660046159f6565b611ec5565b610487610462366004615860565b61048761086f3660046159f6565b611f50565b6104346108823660046159f6565b611f65565b6104876108953660046159f6565b612023565b6104346120f1565b6104876108b03660046159f6565b612199565b6104876108c3366004615842565b6121ae565b6104876121c9565b6104876108de3660046159f6565b6121cf565b6001600160a01b0384166109125760405162461bcd60e51b815260040161090990615ea0565b60405180910390fd5b6001600160a01b0383166109385760405162461bcd60e51b815260040161090990615e60565b61095c848383604051806060016040528060238152602001616038602391396121e1565b61096783838361228c565b336001600160a01b0385161480159061098b5750600019610988853361166d565b14155b156109b4576109b484338360405180606001604052806024815260200161607f60249139612333565b81836001600160a01b0316856001600160a01b03167f0f1dbb1ccbe57a1590c7baad7b01d581b730c9ebc535dcde4345e6db424063d8846040516109f89190615ec0565b60405180910390a450505050565b60408051808201909152601881527f44796e616d69632053657420446f6c6c6172205374616b65000000000000000060208201525b90565b60005b92915050565b6000818152600e60205260409020600201545b919050565b6001600160a01b03166000908152600f602052604090206001015490565b600c546001600160a01b031690565b60045490565b60075490565b60005b9392505050565b6000610adb600085116513585c9ad95d60d21b7f4d7573742068617665206e6f6e2d7a65726f20657870697279000000000000006123a4565b610b12600084116513585c9ad95d60d21b7f4d75737420626964206e6f6e2d7a65726f20616d6f756e7400000000000000006123a4565b610b49600083116513585c9ad95d60d21b7f4d75737420626964206f6e206e6f6e2d7a65726f20616d6f756e7400000000006123a4565b610b7983610b556121c9565b10156513585c9ad95d60d21b6e139bdd08195b9bdd59da081919589d608a1b6123a4565b610bb6610b8633856123f9565b6513585c9ad95d60d21b7f4d757374206861766520656e6f75676820696e206163636f756e7400000000006123a4565b6000610bc8838563ffffffff61249416565b90506000610bd46124d6565b9050610c06828210156513585c9ad95d60d21b75135d5cdd081899481d5b99195c881b585e165a595b1960521b6123a4565b6000610c2087610c146114dd565b9063ffffffff6124dc16565b9050610c3a610c35868863ffffffff61249416565b612501565b610c4386612598565b610c4c8161262e565b610c60610c576114dd565b338989896126c4565b610c81610c6b6114dd565b610c7b610c766114dd565b612721565b33612736565b610c89612772565b80336001600160a01b03167f9f5acf79fa92396b7f3cb679d46ed617794dc8709703e9111f109216820301028888604051610cc5929190615ece565b60405180910390a35060019695505050505050565b33610d2160025b610cea83611501565b6002811115610cf557fe5b1415692832b936b4b9b9b4b7b760b11b72139bdd08199c9bde995b881bdc88199b1d5a59606a1b6123a4565b610d2a3361279a565b6000610d5d610d38336113a2565b610d51610d443361147c565b869063ffffffff6127c416565b9063ffffffff61249416565b9050610d6933826127fe565b610d8b816040518060600160405280602281526020016160a36022913961285a565b610dcb33846040518060400160405280601d81526020017f426f6e64696e673a20696e73756666696369656e742062616c616e6365000000815250612875565b337f93530ac0ee8c50e696e13c5ac62355d0c0ba4bd943620d5bda1eb08b64ae7512610dfa6001610c146114dd565b8584604051610e0b93929190615edc565b60405180910390a2505050565b6000908152600e60205260409020600a015490565b33610e7560015b610e3d83611501565b6002811115610e4857fe5b1415692832b936b4b9b9b4b7b760b11b73139bdd08199c9bde995b881bdc881b1bd8dad95960621b6123a4565b610e7d611308565b6001600160a01b031663a9059cbb33846040518363ffffffff1660e01b8152600401610eaa929190615dd0565b602060405180830381600087803b158015610ec457600080fd5b505af1158015610ed8573d6000803e3d6000fd5b505050506040513d601f19601f82011682018060405250610efc91908101906159a8565b50610f20338360405180606001604052806024815260200161605b60249139612920565b336001600160a01b03167f884edad9ce6fa2440d8a54cc123490eb96d2768479d49ff9c7366125a942436483604051610f599190615ec0565b60405180910390a25050565b6001600160a01b038216610f8b5760405162461bcd60e51b815260040161090990615e90565b610f9633838361297f565b816001600160a01b0316336001600160a01b03167f8ff27e6b95060c1ca851e7c2c28af8b413eb1a8bcb637b0290da9543a709cce383604051610fd99190615ec0565b60405180910390a35050565b601290565b6001600160a01b03166000908152600f602052604090206003015490565b61103461101482611156565b6523b7bb32b93760d11b6c139bdd081b9bdb5a5b985d1959609a1b6123a4565b600061105c600161105061104785610a5f565b610c14866121ae565b9063ffffffff6129af16565b90506110878161106a6114dd565b116523b7bb32b93760d11b68139bdd08195b99195960ba1b6123a4565b6110de6110bb6110956129f1565b6110af6110a1866117c2565b6110aa866121cf565b612a13565b9063ffffffff612a4216565b6523b7bb32b93760d11b6f4d75737420686176652071756f726f6d60801b6123a4565b6111136110ea83610fea565b6110f38461136f565b116523b7bb32b93760d11b6b139bdd08185c1c1c9bdd995960a21b6123a4565b61111c82612a58565b6040516001600160a01b0383169033907f815ca4497ab9fc80c76f210e6e842a5e198e195aa136034557eee144f790e7bb90600090a35050565b6001600160a01b03166000908152600f6020526040902054151590565b6000908152600e60208190526040909120015490565b6001600160a01b038082166000908152600f60209081526040808320938616835260049093019052205460ff1692915050565b60055490565b6111ce61101482611156565b61120c6111e46111dc612b44565b610c146114dd565b6111ec6112e5565b116523b7bb32b93760d11b6b115c1bd8da081cde5b98d95960a21b6123a4565b61125e61122e61121a612b49565b6110af6112268561136f565b6110aa610a8c565b6523b7bb32b93760d11b7f4d7573742068617665207375706572206d616a6f7269747900000000000000006123a4565b61127361126a82610fea565b6110f38361136f565b61127c81612a58565b6040516001600160a01b0382169033907f815ca4497ab9fc80c76f210e6e842a5e198e195aa136034557eee144f790e7bb90600090a350565b6000828152600e602052604081206003018054839081106112d257fe5b9060005260206000200154905092915050565b60006112ef61562f565b6112f7612b6b565b905061130281612b9a565b91505090565b600a546001600160a01b031690565b6001600160a01b03166000908152600d602052604090206004015490565b6000908152600e602052604090206010015490565b7f360894a13ba1a3210667c828492db98dca3e2076cc3735a920a3ca505d382bbc5490565b6001600160a01b03166000908152600f602052604090206002015490565b6000908152600e602052604090206003015490565b6001600160a01b03166000908152600d602052604090206001015490565b60006113ca612bbc565b90911115919050565b6000908152600e602052604090206012015490565b600b546001600160a01b031690565b61143061140561082861134a565b15692832b936b4b9b9b4b7b760b11b72105b1c9958591e481a5b9a5d1a585b1a5e9959606a1b6123a4565b61144061143b61134a565b612bc1565b6114533368056bc75e2d63100000612be8565b61147a7361105dd0b0ded973bc94bb054f314c46a0234b06683635c9adc5dea00000612be8565b565b600080611487610a8c565b905080611498576000915050610a5a565b610a9b81610d516114a8866113a2565b6114b06111bc565b9063ffffffff6127c416565b6001600160a01b03166000908152600d602052604090205490565b60035490565b60025490565b6040805180820190915260048152634453445360e01b602082015290565b600061150b6114dd565b6001600160a01b0383166000908152600d6020526040902060050154111561153557506002610a5a565b6001600160a01b0382166000908152600d60205260409020600401546115596114dd565b1015610a3e576001610a41565b336115716002610ce1565b61157a3361279a565b60006115846111bc565b156115a45761159f6115946111bc565b610d51610d44610a8c565b6115bc565b6115bc6115af612c94565b849063ffffffff6127c416565b90506115c83382612c9b565b6115d183612d37565b6115f4338460405180606001604052806024815260200161605b60249139612920565b337f44002fdef5a0c2d2e4e05572e9780b95aef97e0e93ffd7cc076b09fa78ff2b466116236001610c146114dd565b8386604051610e0b93929190615edc565b60095490565b6001600160a01b03166000908152600d602052604090206005015490565b6000908152600e60205260409020600d015490565b6001600160a01b039182166000908152600d602090815260408083209390941682526003909201909152205490565b6000806116a7612b6b565b6040015142816116b357fe5b0690506000846116c16114dd565b03905060006116ce612d50565b826116d7612d50565b036116e0612d56565b02816116e857fe5b049050808311156116ff5760009350505050610a41565b611707615650565b61175a60405180602001604052808561171e612d50565b0381525061174e6040518060200160405280611738612d50565b9052611742612d5c565b9063ffffffff612d7e16565b9063ffffffff612dac16565b9050611764615650565b6040805160208082018352878603825282519081019092528482526117949161174e90859063ffffffff612d7e16565b60408051602081019091528881529091506117b5908263ffffffff612dac16565b5198975050505050505050565b6000610a416117d083610fea565b610c148461136f565b600061185e6117e66121c9565b6117ee611308565b6001600160a01b03166318160ddd6040518163ffffffff1660e01b815260040160206040518083038186803b15801561182657600080fd5b505afa15801561183a573d6000803e3d6000fd5b505050506040513d601f19601f820116820180604052506110509190810190615a14565b905090565b61186b611308565b6001600160a01b03166323b872dd3330846040518463ffffffff1660e01b815260040161189a93929190615da8565b602060405180830381600087803b1580156118b457600080fd5b505af11580156118c8573d6000803e3d6000fd5b505050506040513d601f19601f820116820180604052506118ec91908101906159a8565b506118f733826127fe565b336001600160a01b03167fe1fffcc4923d04b559f4d29a8bfc6cda04eb5b0d3c460751c2402c5c5cc9109c826040516119309190615ec0565b60405180910390a250565b6002611949846110506114dd565b10156119675760405162461bcd60e51b815260040161090990615eb0565b61198b338484604051806060016040528060238152602001616038602391396121e1565b6000611997848461169c565b90508083036119d3838210156513585c9ad95d60d21b7f496e73756666696369656e74206f757470757420616d6f756e740000000000006123a4565b6119dd3382612dda565b8115611a265784336001600160a01b03167f1cd1213d4276c260e84170b4a39025dc8398fbf744edee0709261769b456b94b84604051611a1d9190615ec0565b60405180910390a35b84336001600160a01b03167f46e9903ae8ac9e9f0c9bc321b05965c1c036e7d4783758703f5cdfc4133c51b683604051611a609190615ec0565b60405180910390a35050505050565b6000611a7a82611d63565b611a8657506000610a41565b506001600160a01b03919091166000908152600d6020908152604080832093835260029093019052205490565b33611abe6001610e34565b611aef6000611acc336113a2565b116523b7bb32b93760d11b6e4d7573742068617665207374616b6560881b6123a4565b611af883611156565b611b9b57611b38611b0833612e84565b6523b7bb32b93760d11b7f4e6f7420656e6f756768207374616b6520746f2070726f706f736500000000006123a4565b611b4983611b44612ec8565b612ecd565b611b516114dd565b336001600160a01b0385167fd15e38a680a427478883cd2d32eb664cb6bb2090b0126a23ebaf3e3784b8c56b611b85612ec8565b604051611b929190615ec0565b60405180910390a45b611bcb611baa61104785610a5f565b611bb26114dd565b106523b7bb32b93760d11b64115b99195960da1b6123a4565b6000611bd6336113a2565b90506000611be43386611189565b9050806002811115611bf257fe5b846002811115611bfe57fe5b1415611c0b575050611d49565b6002816002811115611c1957fe5b1415611c5f57611c5f85836040518060400160405280601b81526020017f476f7665726e3a20496e73756666696369656e742072656a6563740000000000815250612ef9565b6001816002811115611c6d57fe5b1415611cb357611cb385836040518060400160405280601c81526020017f476f7665726e3a20496e73756666696369656e7420617070726f766500000000815250612f4a565b6002846002811115611cc157fe5b1415611cd157611cd18583612f9b565b6001846002811115611cdf57fe5b1415611cef57611cef8583612fea565b611cfa338686613039565b611d043386613083565b846001600160a01b0316336001600160a01b03167fbe50c78cbc15b0864819aadea36c6499da421b33c38e2ef19bebda583c708c788685604051611a60929190615e31565b505050565b6000908152600e602052604090206011015490565b6000908152600e602052604090206001015490565b6000908152600e602052604090206013015490565b60065490565b6000908152600e60205260409020600f015490565b6001600160a01b03166000908152600f602052604090206005015460ff1690565b6002611dd7836110506114dd565b1015611df55760405162461bcd60e51b815260040161090990615eb0565b611e19338383604051806060016040528060238152602001616038602391396121e1565b6000611e25838361169c565b9050808203611e343382612dda565b8115611e7d5783336001600160a01b03167f1cd1213d4276c260e84170b4a39025dc8398fbf744edee0709261769b456b94b84604051611e749190615ec0565b60405180910390a35b83336001600160a01b03167f46e9903ae8ac9e9f0c9bc321b05965c1c036e7d4783758703f5cdfc4133c51b683604051611eb79190615ec0565b60405180910390a350505050565b6000610a41611ed2611308565b6001600160a01b03166318160ddd6040518163ffffffff1660e01b815260040160206040518083038186803b158015611f0a57600080fd5b505afa158015611f1e573d6000803e3d6000fd5b505050506040513d601f19601f82011682018060405250611f429190810190615a14565b611f4a6121c9565b846130e4565b6000908152600e60205260409020600c015490565b33611f706002610ce1565b611f793361279a565b6000611f866115946111bc565b9050611f9233846127fe565b611fb4836040518060600160405280602281526020016160a36022913961285a565b611ff433826040518060400160405280601d81526020017f426f6e64696e673a20696e73756666696369656e742062616c616e6365000000815250612875565b337f93530ac0ee8c50e696e13c5ac62355d0c0ba4bd943620d5bda1eb08b64ae75126116236001610c146114dd565b600061205c600083116513585c9ad95d60d21b7f4d757374207075726368617365206e6f6e2d7a65726f20616d6f756e740000006123a4565b61206882610b556121c9565b60006120726114dd565b9050600061208f61208285611ec5565b859063ffffffff6124dc16565b905061209b3385613111565b6120a633838361228c565b81336001600160a01b03167fbce252db29f761f815dc2e9ea60005af065efba6eb619d2a0b2a113fdeb6141486846040516120e2929190615ece565b60405180910390a39392505050565b60006120fb613222565b90506121073382612be8565b336001600160a01b03167fbb4f656853bc420ad6e4321622c07eefb4ed40e3f91b35553ce14a6dff4c0981826040516121409190615ec0565b60405180910390a261215061322f565b61215861327a565b6121606133a4565b6121686114dd565b7fc30b728d1c19e5db3678b8ea9e9a063a5655071e1a325c2f7fdbca48baa906004342604051611930929190615ece565b6000908152600e60205260409020600b015490565b6001600160a01b03166000908152600f602052604090205490565b60085490565b6000908152600e602052604090205490565b6001600160a01b0384166000908152600d6020908152604080832086845260020190915290205461221990838363ffffffff6133fb16565b6001600160a01b0385166000908152600d60209081526040808320878452600201825280832093909355600e9052206001015461225d90838363ffffffff6133fb16565b6000848152600e602052604090206001015560095461228390838363ffffffff6133fb16565b60095550505050565b6001600160a01b0383166000908152600d602090815260408083208584526002019091529020546122c3908263ffffffff6124dc16565b6001600160a01b0384166000908152600d60209081526040808320868452600201825280832093909355600e90522060010154612306908263ffffffff6124dc16565b6000838152600e602052604090206001015560095461232b908263ffffffff6124dc16565b600955505050565b6001600160a01b038085166000908152600d60209081526040808320938716835260039093019052205461236e90838363ffffffff6133fb16565b6001600160a01b039485166000908152600d60209081526040808320969097168252600390950190945293909220929092555050565b82611d49576123b282613427565b6101d160f51b6123c183613427565b6040516020016123d393929190615d69565b60408051601f198184030181529082905262461bcd60e51b825261090991600401615e3f565b600061240882610c148561147c565b612410611308565b6001600160a01b03166370a08231856040518263ffffffff1660e01b815260040161243b9190615d9a565b60206040518083038186803b15801561245357600080fd5b505afa158015612467573d6000803e3d6000fd5b505050506040513d601f19601f8201168201806040525061248b9190810190615a14565b10159392505050565b6000610a9b83836040518060400160405280601a81526020017f536166654d6174683a206469766973696f6e206279207a65726f0000000000008152506134a7565b6107d090565b600082820183811015610a9b5760405162461bcd60e51b815260040161090990615e50565b600e600061250d6114dd565b81526020019081526020016000206004016004015481111561254b5780600e60006125366114dd565b81526020810191909152604001600020600801555b80600e60006125586114dd565b81526020019081526020016000206004016003015411156125955780600e60006125806114dd565b81526020810191909152604001600020600701555b50565b600e60006125a46114dd565b8152602001908152602001600020600401601101548111156125e25780600e60006125cd6114dd565b81526020810191909152604001600020601501555b600e60006125ee6114dd565b8152602001908152602001600020600401601001548110156125955780600e60006126176114dd565b815260208101919091526040016000206014015550565b600e600061263a6114dd565b8152602001908152602001600020600401600201548111156126785780600e60006126636114dd565b81526020810191909152604001600020600601555b600e60006126846114dd565b8152602001908152602001600020600401600101548110156125955780600e60006126ad6114dd565b815260208101919091526040016000206005015550565b6000948552600e602090815260408087206001600160a01b039690961680885260189096019091529094206004810192909255600182015560028101929092558154640100000000600160c01b031916600160201b909102179055565b6000908152600e602052604090206009015490565b6000928352600e6020908152604080852093855260169093019052912080546001600160a01b0319166001600160a01b03909216919091179055565b600e600061277e6114dd565b8152602081019190915260400160002060090180546001019055565b6127a56111dc612ec8565b6001600160a01b039091166000908152600d6020526040902060040155565b6000826127d357506000610a41565b828202828482816127e057fe5b0414610a9b5760405162461bcd60e51b815260040161090990615e70565b6001600160a01b0382166000908152600d6020526040902054612827908263ffffffff6124dc16565b6001600160a01b0383166000908152600d6020526040902055600654612853908263ffffffff6124dc16565b6006555050565b60055461286e90838363ffffffff6133fb16565b6005555050565b6001600160a01b0383166000908152600d60205260409020600101546128a290838363ffffffff6133fb16565b6001600160a01b0384166000908152600d60205260409020600101556004546128d290838363ffffffff6133fb16565b6004556040516000906001600160a01b038516907fddf252ad1be2c89b69c2b068fc378daa952ba7f163c4a11628f55a4df523b3ef90612913908690615ec0565b60405180910390a3505050565b6001600160a01b0383166000908152600d602052604090205461294a90838363ffffffff6133fb16565b6001600160a01b0384166000908152600d602052604090205560065461297790838363ffffffff6133fb16565b600655505050565b6001600160a01b039283166000908152600d60209081526040808320949095168252600390930190925291902055565b6000610a9b83836040518060400160405280601e81526020017f536166654d6174683a207375627472616374696f6e206f766572666c6f7700008152506133fb565b6129f9615650565b5060408051602081019091526702c68af0bb140000815290565b612a1b615650565b6040518060200160405280612a3985670de0b6b3a7640000866134de565b90529392505050565b6000612a4e83836134f4565b6002149392505050565b612a6181613526565b60408051600481526024810182526020810180516001600160e01b031663204a7f0760e21b17905290516000916060916001600160a01b03851691612aa591615d5d565b600060405180830381855af49150503d8060008114612ae0576040519150601f19603f3d011682016040523d82523d6000602084013e612ae5565b606091505b5091509150818190612b0a5760405162461bcd60e51b81526004016109099190615e3f565b506040516001600160a01b038416907fbc7cd75a20ee27fd9adebab32041f755214dbc6bffa90cc0225b39da2e5c2d3b90600090a2505050565b600690565b612b51615650565b506040805160208101909152670928ca80cfc20000815290565b612b7361562f565b604051806060016040528060008152602001635fbef0008152602001611c20815250905090565b6000610a418260000151610c148460400151610d51866020015161105061356f565b609690565b6001600160a01b03166000908152600f60205260409020600501805460ff19166001179055565b612bf0611308565b6001600160a01b03166340c10f1983836040518363ffffffff1660e01b8152600401612c1d929190615df9565b602060405180830381600087803b158015612c3757600080fd5b505af1158015612c4b573d6000803e3d6000fd5b505050506040513d601f19601f82011682018060405250612c6f91908101906159a8565b50612c7b61067f6114dd565b612c8857612c8881613573565b612c90613590565b5050565b620f424090565b6001600160a01b0382166000908152600d6020526040902060010154612cc7908263ffffffff6124dc16565b6001600160a01b0383166000908152600d6020526040902060010155600454612cf6908263ffffffff6124dc16565b6004556040516001600160a01b038316906000907fddf252ad1be2c89b69c2b068fc378daa952ba7f163c4a11628f55a4df523b3ef90610fd9908590615ec0565b600554612d4a908263ffffffff6124dc16565b60055550565b61016890565b610e1090565b612d64615650565b5060408051602081019091526706f05b59d3b20000815290565b612d86615650565b6040518060200160405280612a398560000151670de0b6b3a764000086600001516134de565b612db4615650565b6040518060200160405280612a3985600001518560000151670de0b6b3a76400006134de565b612de2611308565b6001600160a01b031663a9059cbb83836040518363ffffffff1660e01b8152600401612e0f929190615df9565b602060405180830381600087803b158015612e2957600080fd5b505af1158015612e3d573d6000803e3d6000fd5b505050506040513d601f19601f82011682018060405250612e6191908101906159a8565b50612c88816040518060600160405280602a81526020016160ed602a9139613663565b6000612e8e6111bc565b612e9a57506000610a5a565b612ea2615650565b612eae611226846113a2565b9050610a9b612ebb61367e565b829063ffffffff612a4216565b602490565b612ed56114dd565b6001600160a01b039092166000908152600f60205260409020918255600190910155565b6001600160a01b0383166000908152600f6020526040902060030154612f2690838363ffffffff6133fb16565b6001600160a01b039093166000908152600f60205260409020600301929092555050565b6001600160a01b0383166000908152600f6020526040902060020154612f7790838363ffffffff6133fb16565b6001600160a01b039093166000908152600f60205260409020600201929092555050565b6001600160a01b0382166000908152600f6020526040902060030154612fc7908263ffffffff6124dc16565b6001600160a01b039092166000908152600f602052604090206003019190915550565b6001600160a01b0382166000908152600f6020526040902060020154613016908263ffffffff6124dc16565b6001600160a01b039092166000908152600f602052604090206002019190915550565b6001600160a01b038083166000908152600f6020908152604080832093871683526004909301905220805482919060ff1916600183600281111561307957fe5b0217905550505050565b6001600160a01b0382166000908152600d6020526040812060050154906130b56130ac84610a5f565b610c14856121ae565b9050818111156130de576001600160a01b0384166000908152600d602052604090206005018190555b50505050565b6000613109613104836130f887878761369f565b9063ffffffff61380c16565b613833565b949350505050565b613119611308565b6001600160a01b03166323b872dd8330846040518463ffffffff1660e01b815260040161314893929190615deb565b602060405180830381600087803b15801561316257600080fd5b505af1158015613176573d6000803e3d6000fd5b505050506040513d601f19601f8201168201806040525061319a91908101906159a8565b506131a3611308565b6001600160a01b03166342966c68826040518263ffffffff1660e01b81526004016131ce9190615ec0565b600060405180830381600087803b1580156131e857600080fd5b505af11580156131fc573d6000803e3d6000fd5b50505050612c88816040518060600160405280602881526020016160c560289139613850565b6802b5e3af16b188000090565b61326a61323a6114dd565b6132426112e5565b1166426f6e64696e6760c81b720a6e8d2d8d840c6eae4e4cadce840cae0dec6d606b1b6123a4565b61327261386b565b61147a613892565b613282615650565b61328a6138ab565b905060006132a1600161329b6114dd565b03613973565b90506132bb6132ae613987565b839063ffffffff612a4216565b15613300576132c86139a9565b805460ff610100909104161515600114156132f0576132f060016132ea6114dd565b036139b0565b6132f9826139d2565b505061147a565b61331861330b613987565b839063ffffffff613ac216565b1561336f57805460ff6101009091041615156001141561335e57600061334760016133416114dd565b03613ad6565b905061335c60016133566114dd565b03614449565b505b61336661446d565b6132f9826145e4565b6133776114dd565b6040517fff7db5a0dc69b02c191ba632db46961b7d0daa1bd30709ddba9b80ad0a15d2c090600090a25050565b60005b6133b26106596114dd565b8110156133da576133d26133cd6133c76114dd565b836112b5565b614663565b6001016133a7565b5060006133e86111dc612d50565b90506125956133f56114dd565b8261470f565b6000818484111561341f5760405162461bcd60e51b81526004016109099190615e3f565b505050900390565b6060808260405160200161343b9190615d48565b60408051601f19818403018152919052905060205b80156134905781516000199091019082908290811061346b57fe5b01602001516001600160f81b0319161561348b5760010181529050610a5a565b613450565b505060408051600081526020810190915292915050565b600081836134c85760405162461bcd60e51b81526004016109099190615e3f565b5060008385816134d457fe5b0495945050505050565b600061310982610d51868663ffffffff6127c416565b80518251600091141561350957506001610a41565b815183511161351957600061351c565b60025b60ff169392505050565b61352f81614741565b61354b5760405162461bcd60e51b815260040161090990615e80565b7f360894a13ba1a3210667c828492db98dca3e2076cc3735a920a3ca505d382bbc55565b4290565b61357c81614747565b61358c613587614760565b614782565b6125955b61147a6135b161359e610a92565b610c146135a9611d8d565b610c146111bc565b6135b9611308565b6001600160a01b03166370a08231306040518263ffffffff1660e01b81526004016135e49190615d9a565b60206040518083038186803b1580156135fc57600080fd5b505afa158015613610573d6000803e3d6000fd5b505050506040513d601f19601f820116820180604052506136349190810190615a14565b10156a21b7b6b83a3937b63632b960a91b74496e636f6e73697374656e742062616c616e63657360581b6123a4565b60075461367790838363ffffffff6133fb16565b6007555050565b613686615650565b5060408051602081019091526611c37937e08000815290565b6136a7615650565b6136af615650565b6136b98486612a13565b90506136c3615650565b6136cb614760565b905060006136df878663ffffffff6129af16565b905060006136f3878763ffffffff6129af16565b90506136fd615650565b6137078284612a13565b9050613719858563ffffffff612a4216565b156137f55761372e818563ffffffff612a4216565b156137485761373c84614835565b95505050505050610a9b565b613750615650565b61375a8286614881565b9050613764615650565b613774868463ffffffff6148de16565b905061377e615650565b61378787614835565b9050613791615650565b6137a1898963ffffffff6148de16565b90506137e56137b6848363ffffffff61490716565b6117426137c9858563ffffffff612dac16565b6137d9888863ffffffff612dac16565b9063ffffffff61490716565b9950505050505050505050610a9b565b6137ff8186614881565b9998505050505050505050565b613814615650565b604080516020810190915283518190612a39908563ffffffff6127c416565b8051600090610a4190670de0b6b3a764000063ffffffff61249416565b60085461386490838363ffffffff6133fb16565b6008555050565b613873610a8c565b600e600061387f6114dd565b8152602081019190915260400160002055565b6002546138a690600163ffffffff6124dc16565b600255565b6138b3615650565b6138bb615650565b60006138c56113e8565b6001600160a01b031663d4a3e9d76040518163ffffffff1660e01b81526004016040805180830381600087803b1580156138fe57600080fd5b505af1158015613912573d6000803e3d6000fd5b505050506040513d601f19601f8201168201806040525061393691908101906159c6565b9150915061394a61067f60016110506114dd565b1561396057613957614930565b92505050610a3b565b8061396d57613957613987565b50905090565b6000908152600e6020526040902060040190565b61398f615650565b506040805160208101909152670de0b6b3a7640000815290565b6000600855565b6000908152600e60205260409020600401805462ff0000191662010000179055565b6139da615650565b6139e2614952565b905060006139ee610a92565b905060006139fa611634565b905080821015613a0f57613a0c614975565b92505b613a17615650565b613a3c613a3685611742613a29613987565b899063ffffffff6148de16565b86614997565b90506000613a5b613104613a4e6117d9565b849063ffffffff61380c16565b90506000806000613a6b84614a22565b925092509250613a796114dd565b89516040517f32fcaa1e76ed9517f4749d8ec9a77dd5e7329456d740b9bf9665d900eef5e28391613aaf91879087908790615ef7565b60405180910390a2505050505050505050565b6000613ace83836134f4565b159392505050565b6000613ae182614b8e565b158015613af45750613af282614bad565b155b1561444157613b0282614bcb565b613b0b83614be0565b03601355613b1882614bf5565b613b2183614c0a565b03601455613b2e82614c1f565b613b3783614c34565b0360155560005b613b4783612721565b811015613e68576000613b6384613b5e8685614c49565b614c73565b9050613b6d615650565b613b8d613b8561310484600201548560010154612a13565b601354612a13565b9050613b97615650565b613ba78360040154601454612a13565b9050613bb1615650565b613bc18460010154601554612a13565b9050613bcb615650565b613bee82613be2613bda613987565b6137d9613987565b9063ffffffff6148de16565b9050613bf8615650565b613c0985600263ffffffff614c9e16565b9050613c13615650565b613c2485600263ffffffff614c9e16565b9050613c2e615650565b613c3f84600263ffffffff614c9e16565b9050613c49615650565b613c5d826137d9868663ffffffff61490716565b9050613c67615650565b613c726132ae614cf4565b15613c8757613c8082614d0f565b9050613c92565b613c8f614cf4565b90505b613ca68d613ca08f8e614c49565b83614d91565b613cb48d613b5e8f8e614c49565b6010805460018181018355600092909252825460069091027f1b6847dc741a1b0cd08d278845f9d819d87b734759afb55fe2de5cb82a9ae6728101805460ff938416151560ff1990911617808255855461010090819004851615150261ff00199091161780825585546201000090819004851615150262ff000019909116178082558554630100000090819004909416151590930263ff000000199093169290921780835584546001600160a01b03600160201b918290041602640100000000600160c01b031990911617909155818301547f1b6847dc741a1b0cd08d278845f9d819d87b734759afb55fe2de5cb82a9ae67382015560028301547f1b6847dc741a1b0cd08d278845f9d819d87b734759afb55fe2de5cb82a9ae67482015560038301547f1b6847dc741a1b0cd08d278845f9d819d87b734759afb55fe2de5cb82a9ae67582015560048301547f1b6847dc741a1b0cd08d278845f9d819d87b734759afb55fe2de5cb82a9ae6768201556005909201547f1b6847dc741a1b0cd08d278845f9d819d87b734759afb55fe2de5cb82a9ae677909201919091559a909a019950613b3e98505050505050505050565b50613e736010614dc2565b8054613e8191601091615663565b5060005b6010548110156142c25760108181548110613e9c57fe5b906000526020600020906006020160010154613eb66121c9565b106142b557613ef28360108381548110613ecc57fe5b6000918252602090912060069091020154600160201b90046001600160a01b0316614ebe565b158015613f0d5750613f0b8360108381548110613ecc57fe5b155b156142b057613f1a615650565b613f6060108381548110613f2a57fe5b90600052602060002090600602016002015460108481548110613f4957fe5b906000526020600020906006020160010154612a13565b9050613fbb60108381548110613f7257fe5b906000526020600020906006020160000160049054906101000a90046001600160a01b031660108481548110613fa457fe5b9060005260206000209060060201600101546123f9565b15614277576040805160208101909152601c548152613fe190829063ffffffff613ac216565b15613ff0578051601c5561401c565b6040805160208101909152601b54815261401190829063ffffffff612a4216565b1561401c578051601b555b601a546010838154811061402c57fe5b906000526020600020906006020160040154101561406e576010828154811061405157fe5b906000526020600020906006020160040154601a819055506140bc565b6017546010838154811061407e57fe5b90600052602060002090600602016004015411156140bc57601082815481106140a357fe5b9060005260206000209060060201600401546017819055505b6140c581613833565b60198054909101905560108054839081106140dc57fe5b6000918252602090912060046006909202010154601880549091019055601080548390811061410757fe5b6000918252602090912060026006909202010154601680549091019055601080548390811061413257fe5b600091825260208220600160069092020101546012805490910190556010805461417b91908590811061416157fe5b906000526020600020906006020160040154610c146114dd565b90506141d66010848154811061418d57fe5b906000526020600020906006020160000160049054906101000a90046001600160a01b0316601085815481106141bf57fe5b906000526020600020906006020160010154613111565b614230601084815481106141e657fe5b906000526020600020906006020160000160049054906101000a90046001600160a01b0316826010868154811061421957fe5b90600052602060002090600602016002015461228c565b614268856010858154811061424157fe5b6000918252602090912060069091020154600160201b90046001600160a01b031685614ef3565b506011805460010190556142ae565b6142ae846010848154811061428857fe5b6000918252602090912060069091020154600160201b90046001600160a01b0316614f47565b505b6142ba565b6142c2565b600101613e85565b50601154156143d9576142d3615650565b6142e1601954601154612a13565b90506142eb615650565b6142f9601854601154612a13565b9050614303615650565b61431960646130f8601080549050601154612a13565b905061432785601a54614f7f565b61433385601754614f94565b6143458561434084613833565b614fa9565b6040805160208101909152601c54815261436990869061436490613833565b614fbe565b6040805160208101909152601b54815261438d90869061438890613833565b614fd5565b61439f8561439a85613833565b614fea565b6143b1856143ac83613833565b614fff565b6143bd85601154615014565b6143c985601654615029565b6143d58560125461503e565b5050505b6143e560106000615774565b600060118190556012819055600160138190556014819055601555601681905560178190556018819055601955600019601a55614420614cf4565b51601b5550604080516020810190915260001990819052601c556001610a5a565b506000610a5a565b6000908152600e60205260409020600401805463ff00000019166301000000179055565b600e60006144796114dd565b8152602081019190915260400160002060040154610100900460ff1661147a576000600e816144a66114dd565b8152602001908152602001600020600401600501819055506000196000600e0160006144d06114dd565b81526020810191909152604001600090812060050191909155600e816144f46114dd565b8152602001908152602001600020600401600201819055506000196000600e01600061451e6114dd565b81526020810191909152604001600090812060070191909155600e816145426114dd565b8152602001908152602001600020600401600401819055506000196000600e01600061456c6114dd565b81526020810191909152604001600090812060140191909155600e816145906114dd565b81526020019081526020016000206004016011018190555060016000600e0160006145b96114dd565b8152602081019190915260400160002060040180549115156101000261ff0019909216919091179055565b6145ec615650565b61460c6146066145fa615053565b61174285613be2613987565b83614997565b9050600061461e613104613a4e6117d9565b905061462981613573565b6146316114dd565b83516040517f5e139d4b8080a4a00dcc151e8217694aeebae893936326aa22096924a990667791610e0b918590615ece565b600061466e82611d63565b90506000808061467d85615075565b6000614687610a92565b90506000614693611634565b9050808211156146c8576146ad828263ffffffff6129af16565b94506146b8856150b8565b6146c185614a22565b9095509350505b867f753df65b37159bf237ae1fca97ba1bd57cf83bc9498f271a514a4d7bafe87bda878787876040516146fe9493929190615ef7565b60405180910390a250505050505050565b6000828152600e6020908152604080832060020184905592825291812060030180546001810182559082529190200155565b3b151590565b60085461475a908263ffffffff6124dc16565b60085550565b614768615650565b5060408051602081019091526704db732547630000815290565b6000614802613104614792611308565b6001600160a01b03166318160ddd6040518163ffffffff1660e01b815260040160206040518083038186803b1580156147ca57600080fd5b505afa1580156147de573d6000803e3d6000fd5b505050506040513d601f19601f82011682018060405250613a4e9190810190615a14565b9050600061480e6121c9565b905081811115611d4957600061482a828463ffffffff6129af16565b90506130de8161513f565b61483d615650565b610a4161484c60016003612a13565b613be261487961486f600261486388613be2613987565b9063ffffffff614c9e16565b61174e600361517e565b611742613987565b614889615650565b614899838363ffffffff6151b216565b156148ae576148a783614835565b9050610a41565b610a9b6148bd60016003612a13565b613be26148796148cf87613be2613987565b61174e61486f88613be2613987565b6148e6615650565b6040805160208101909152825184518291612a39919063ffffffff6129af16565b61490f615650565b6040805160208101909152825184518291612a39919063ffffffff6124dc16565b614938615650565b50604080516020810190915267155f2dd73a1a0000815290565b61495a615650565b50604080516020810190915268015af1d78b58c40000815290565b61497d615650565b50604080516020810190915267e73435bb46020000815290565b61499f615650565b6149a7615650565b6149af6151b9565b905060006149bb610a92565b905060006149c7611634565b90506149e16149d4613987565b869063ffffffff612a4216565b80156149ec57508082105b156149fc576149f96151da565b92505b614a0c868463ffffffff612a4216565b614a165785614a18565b825b9695505050505050565b6000808080808080614a32610a92565b90506000614a3e611634565b905080821015614afb57614a58818363ffffffff6129af16565b9450614a80614a6f6064614a6a6151fb565b6129af565b610d5187606463ffffffff6127c416565b9450888511614a8f5784614a91565b885b9450614ab06064610d51614aa36151fb565b889063ffffffff6127c416565b9250614ac2858463ffffffff6129af16565b9450614acd83615200565b614ad685615294565b614ae6898463ffffffff6129af16565b9850614af8898663ffffffff6129af16565b98505b6000614b056121c9565b905060008a118015614b175750600081115b15614b4957898111614b295780614b2b565b895b9450614b368561513f565b614b468a8663ffffffff6129af16565b99505b614b516111bc565b614b5a57600099505b8915614b6957614b698a615325565b8585614b7b8c8763ffffffff6124dc16565b9850985098505050505050509193909250565b6000908152600e60205260409020600401546301000000900460ff1690565b6000908152600e602052604090206004015462010000900460ff1690565b6000908152600e602052604090206007015490565b6000908152600e602052604090206008015490565b6000908152600e602052604090206005015490565b6000908152600e602052604090206006015490565b6000908152600e602052604090206014015490565b6000908152600e602052604090206015015490565b6000918252600e60209081526040808420928452601690920190529020546001600160a01b031690565b6000828152600e602090815260408083206001600160a01b0385168452601801909152902092915050565b614ca6615650565b81614cb5576148a7600161517e565b614cbd615650565b5060408051602081019091528351815260015b83811015614cec57614ce28286612dac565b9150600101614cd0565b509392505050565b614cfc615650565b5060408051602081019091526000815290565b614d17615650565b614d1f615650565b614d416002614d3585600163ffffffff6153c516565b9063ffffffff61540216565b90508291505b614d57818363ffffffff613ac216565b15614d8b57905080614d846002614d35614d77848063ffffffff61490716565b869063ffffffff612d7e16565b9050614d47565b50919050565b6000928352600e602090815260408085206001600160a01b0390941685526018909301905291209051600390910155565b6000614eba82805480602002602001604051908101604052809291908181526020016000905b82821015614ea7576000848152602090819020604080516101408101825260068602909201805460ff80821615158552610100808304821615158688015262010000830482161515868601526301000000830490911615156060860152600160201b9091046001600160a01b0316608085015260018083015460a0860152600283015460c086015283518087019094526003830154845260e0850193909352600482015490840152600501546101208301529083529092019101614de8565b5050855460009250600019019050615429565b5090565b6000918252600e602090815260408084206001600160a01b039390931684526018909201905290205462010000900460ff1690565b6000928352600e602090815260408085206001600160a01b03909416808652601885018352818620805461ff00191661010017905592855260179093019052912080546001600160a01b0319169091179055565b6000918252600e602090815260408084206001600160a01b039093168452601890920190529020805462ff0000191662010000179055565b6000918252600e602052604090912060110155565b6000918252600e602052604090912060120155565b6000918252600e602052604090912060130155565b6000918252600e6020819052604090922090910155565b6000918252600e6020526040909120600f0155565b6000918252600e602052604090912060100155565b6000918252600e6020526040909120600b0155565b6000918252600e6020526040909120600a0155565b6000918252600e6020526040909120600c0155565b6000918252600e6020526040909120600d0155565b61505b615650565b506040805160208101909152674563918244f40000815290565b600061508082611d63565b90508061508d5750612595565b6009546150a0908263ffffffff6129af16565b600955506000908152600e6020526040812060010155565b6150c0611308565b6001600160a01b03166342966c68826040518263ffffffff1660e01b81526004016150eb9190615ec0565b600060405180830381600087803b15801561510557600080fd5b505af1158015615119573d6000803e3d6000fd5b5050505061358c816040518060600160405280602a81526020016160ed602a9139613663565b61358c816040518060400160405280601c81526020017f436f6d7074726f6c6c65723a206e6f7420656e6f756768206465627400000000815250613850565b615186615650565b6040805160208101909152806151aa84670de0b6b3a764000063ffffffff6127c416565b905292915050565b5190511490565b6151c1615650565b50604080516020810190915266470de4df820000815290565b6151e2615650565b506040805160208101909152666a94d74f430000815290565b602890565b80156125955761520e611308565b6001600160a01b03166340c10f19615224610a7d565b836040518363ffffffff1660e01b8152600401615242929190615df9565b602060405180830381600087803b15801561525c57600080fd5b505af1158015615270573d6000803e3d6000fd5b505050506040513d601f19601f82011682018060405250612c9091908101906159a8565b61529c611308565b6001600160a01b03166340c10f1930836040518363ffffffff1660e01b81526004016152c9929190615df9565b602060405180830381600087803b1580156152e357600080fd5b505af11580156152f7573d6000803e3d6000fd5b505050506040513d601f19601f8201168201806040525061531b91908101906159a8565b5061358c8161557f565b61536860006153326111bc565b116a21b7b6b83a3937b63632b960a91b7f43616e74206d696e7420746f20656d70747920706f6f6c0000000000000000006123a4565b60006153876064610d5161537a6151fb565b859063ffffffff6127c416565b905060008183116153995760006153a9565b6153a9838363ffffffff6129af16565b90506153b482615200565b6153bd81615598565b611d49613590565b6153cd615650565b604080516020810190915280612a396153f485670de0b6b3a764000063ffffffff6127c416565b86519063ffffffff6124dc16565b61540a615650565b604080516020810190915283518190612a39908563ffffffff61249416565b81818082141561543a575050611d49565b615442615650565b8560028686030586018151811061545557fe5b602002602001015160e0015190505b818313615551575b6154968187858151811061547c57fe5b602002602001015160e00151613ac290919063ffffffff16565b156154a65760019092019161546c565b6154d08683815181106154b557fe5b602002602001015160e0015182613ac290919063ffffffff16565b156154e157600019909101906154a6565b81831361554c578582815181106154f457fe5b602002602001015186848151811061550857fe5b602002602001015187858151811061551c57fe5b6020026020010188858151811061552f57fe5b602090810291909101019190915252600190920191600019909101905b615464565b8185121561556457615564868684615429565b8383121561557757615577868486615429565b505050505050565b600754615592908263ffffffff6124dc16565b60075550565b8015612595576155a6611308565b6001600160a01b03166340c10f1930836040518363ffffffff1660e01b81526004016155d3929190615df9565b602060405180830381600087803b1580156155ed57600080fd5b505af1158015615601573d6000803e3d6000fd5b505050506040513d601f19601f8201168201806040525061562591908101906159a8565b5061259581612d37565b60405180606001604052806000815260200160008152602001600081525090565b6040518060200160405280600081525090565b8280548282559060005260206000209060060281019282156157685760005260206000209160060282015b82811115615768578254825460ff918216151560ff1990911617808455845461010090819004831615150261ff00199091161780845584546201000090819004831615150262ff000019909116178084558454630100000090819004909216151590910263ff000000199091161780835583546001600160a01b03600160201b918290041602640100000000600160c01b031990911617825560018084015490830155600280840154908301556003808401549083015560048084015490830155600580840154908301556006928301929091019061568e565b50614eba929150615791565b508054600082556006029060005260206000209081019061259591905b610a3b91905b80821115614eba5780546001600160c01b03191681556000600182018190556002820181905560038201819055600482018190556005820155600601615797565b8035610a4181616004565b8051610a4181616018565b8035610a4181616021565b60006020828403121561580b57600080fd5b6158156020615f3a565b905060006158238484615837565b82525092915050565b8035610a418161602e565b8051610a418161602e565b60006020828403121561585457600080fd5b600061310984846157d8565b6000806040838503121561587357600080fd5b600061587f85856157d8565b9250506020615890858286016157d8565b9150509250929050565b6000806000606084860312156158af57600080fd5b60006158bb86866157d8565b93505060206158cc868287016157d8565b92505060406158dd8682870161582c565b9150509250925092565b600080600080608085870312156158fd57600080fd5b600061590987876157d8565b945050602061591a878288016157d8565b935050604061592b8782880161582c565b925050606061593c8782880161582c565b91505092959194509250565b6000806040838503121561595b57600080fd5b600061596785856157d8565b9250506020615890858286016157ee565b6000806040838503121561598b57600080fd5b600061599785856157d8565b92505060206158908582860161582c565b6000602082840312156159ba57600080fd5b600061310984846157e3565b600080604083850312156159d957600080fd5b60006159e585856157f9565b9250506020615890858286016157e3565b600060208284031215615a0857600080fd5b6000613109848461582c565b600060208284031215615a2657600080fd5b60006131098484615837565b60008060408385031215615a4557600080fd5b6000615997858561582c565b600080600060608486031215615a6657600080fd5b6000615a72868661582c565b93505060206158cc8682870161582c565b615a8c81615fa7565b82525050565b615a8c81615f6e565b615a8c81615f79565b615a8c615ab082615f7e565b610a3b565b615a8c615ab082610a3b565b6000615acc82615f61565b615ad68185610a5a565b9350615ae6818560208601615fc4565b9290920192915050565b615a8c81615fae565b615a8c81615fb9565b6000615b0d82615f61565b615b178185615f65565b9350615b27818560208601615fc4565b615b3081615ff0565b9093019392505050565b6000615b47601b83615f65565b7f536166654d6174683a206164646974696f6e206f766572666c6f770000000000815260200192915050565b6000615b80602b83615f65565b7f4d61726b65743a20436f75706f6e207472616e7366657220746f20746865207a81526a65726f206164647265737360a81b602082015260400192915050565b6000615bcd602183615f65565b7f536166654d6174683a206d756c7469706c69636174696f6e206f766572666c6f8152607760f81b602082015260400192915050565b6000615c10603b83615f65565b7f43616e6e6f742073657420612070726f787920696d706c656d656e746174696f81527f6e20746f2061206e6f6e2d636f6e747261637420616464726573730000000000602082015260400192915050565b6000615c6f602a83615f65565b7f4d61726b65743a20436f75706f6e20617070726f766520746f20746865207a65815269726f206164647265737360b01b602082015260400192915050565b6000615cbb602d83615f65565b7f4d61726b65743a20436f75706f6e207472616e736665722066726f6d2074686581526c207a65726f206164647265737360981b602082015260400192915050565b6000615d0a601b83615f65565b7f4d61726b65743a20546f6f206561726c7920746f2072656465656d0000000000815260200192915050565b615a8c81610a3b565b615a8c81615fa1565b6000615d548284615ab5565b50602001919050565b6000610a9b8284615ac1565b6000615d758286615ac1565b9150615d818285615aa4565b600282019150615d918284615ac1565b95945050505050565b60208101610a418284615a92565b60608101615db68286615a83565b615dc36020830185615a92565b6131096040830184615d36565b60408101615dde8285615a83565b610a9b6020830184615d36565b60608101615db68286615a92565b60408101615dde8285615a92565b60208101610a418284615a9b565b60208101610a418284615af0565b60208101610a418284615af9565b60408101615dde8285615af9565b60208082528101610a9b8184615b02565b60208082528101610a4181615b3a565b60208082528101610a4181615b73565b60208082528101610a4181615bc0565b60208082528101610a4181615c03565b60208082528101610a4181615c62565b60208082528101610a4181615cae565b60208082528101610a4181615cfd565b60208101610a418284615d36565b60408101615dde8285615d36565b60608101615eea8286615d36565b615dc36020830185615d36565b60808101615f058287615d36565b615f126020830186615d36565b615f1f6040830185615d36565b615d916060830184615d36565b60208101610a418284615d3f565b60405181810167ffffffffffffffff81118282101715615f5957600080fd5b604052919050565b5190565b90815260200190565b6000610a4182615f95565b151590565b6001600160f01b03191690565b80610a5a81615ffa565b6001600160a01b031690565b60ff1690565b6000610a41825b6000610a4182615f6e565b6000610a4182615f8b565b60005b83811015615fdf578181015183820152602001615fc7565b838111156130de5750506000910152565b601f01601f191690565b6003811061259557fe5b61600d81615f6e565b811461259557600080fd5b61600d81615f79565b6003811061259557600080fd5b61600d81610a3b56fe4d61726b65743a20496e73756666696369656e7420636f75706f6e2062616c616e6365426f6e64696e673a20696e73756666696369656e74207374616765642062616c616e63654d61726b65743a20496e73756666696369656e7420636f75706f6e20617070726f76616c426f6e64696e673a20696e73756666696369656e7420746f74616c20626f6e646564436f6d7074726f6c6c65723a206e6f7420656e6f756768206f75747374616e64696e672064656274436f6d7074726f6c6c65723a206e6f7420656e6f7567682072656465656d61626c652062616c616e6365a365627a7a723158204a16627f93e8f291b194ebad2d40e2883046a8f81d2bad3c49f823e61dc4508d6c6578706572696d656e74616cf564736f6c63430005110040",
  "source": "/*\n    Copyright 2020 Dynamic Dollar Devs, based on the works of the Empty Set Squad\n\n    Licensed under the Apache License, Version 2.0 (the \"License\");\n    you may not use this file except in compliance with the License.\n    You may obtain a copy of the License at\n\n    http://www.apache.org/licenses/LICENSE-2.0\n\n    Unless required by applicable law or agreed to in writing, software\n    distributed under the License is distributed on an \"AS IS\" BASIS,\n    WITHOUT WARRANTIES OR CONDITIONS OF ANY KIND, either express or implied.\n    See the License for the specific language governing permissions and\n    limitations under the License.\n*/\n\npragma solidity ^0.5.17;\npragma experimental ABIEncoderV2;\n\nimport \"@openzeppelin/contracts/math/SafeMath.sol\";\nimport \"./Market.sol\";\nimport \"./Regulator.sol\";\nimport \"./Bonding.sol\";\nimport \"./Govern.sol\";\nimport \"../Constants.sol\";\n\ncontract Implementation is State, Bonding, Market, Regulator, Govern {\n    using SafeMath for uint256;\n\n    event Advance(uint256 indexed epoch, uint256 block, uint256 timestamp);\n    event Incentivization(address indexed account, uint256 amount);\n\n    function initialize() initializer public {\n        // committer reward:\n        mintToAccount(msg.sender, 100e18); // 100 DSD to committer\n        // contributor  rewards:\n        mintToAccount(0x61105dD0b0deD973BC94BB054f314c46A0234B06, 1000e18); // 1000 DSD to @cinquemb\n    }\n\n    function advance() external incentivized {\n        Bonding.step();\n        Regulator.step();\n        Market.step();\n\n        emit Advance(epoch(), block.number, block.timestamp);\n    }\n\n    modifier incentivized {\n        // Mint advance reward to sender\n        uint256 incentive = Constants.getAdvanceIncentive();\n        mintToAccount(msg.sender, incentive);\n        emit Incentivization(msg.sender, incentive);\n        _;\n    }\n}\n",
  "sourcePath": "/Users/cinquemb/Documents/Startups/crypto/dollar/protocol/contracts/dao/Implementation.sol",
  "compiler": {
    "name": "solc",
    "version": "0.5.17+commit.d19bba13.Emscripten.clang"
  },
  "schemaVersion": "3.3.3",
  "updatedAt": "2021-01-15T13:20:51.239Z",
  "devdoc": {
    "methods": {}
  },
  "userdoc": {
    "methods": {
      "balanceOfStaged(address)": {
        "notice": "Account"
      },
      "dollar()": {
        "notice": "Global"
      },
      "epoch()": {
        "notice": "Epoch"
      },
      "name()": {
        "notice": "ERC20 Interface"
      },
      "recordedVote(address,address)": {
        "notice": "Governance"
      },
      "transfer(address,uint256)": {
        "notice": "ERC20 Interface"
      }
    }
  }
}