{
  "contractName": "Implementation",
  "abi": [
    {
      "anonymous": false,
      "inputs": [
        {
          "indexed": true,
          "internalType": "uint256",
          "name": "epoch",
          "type": "uint256"
        },
        {
          "indexed": false,
          "internalType": "uint256",
          "name": "block",
          "type": "uint256"
        },
        {
          "indexed": false,
          "internalType": "uint256",
          "name": "timestamp",
          "type": "uint256"
        }
      ],
      "name": "Advance",
      "type": "event"
    },
    {
      "anonymous": false,
      "inputs": [
        {
          "indexed": true,
          "internalType": "address",
          "name": "account",
          "type": "address"
        },
        {
          "indexed": false,
          "internalType": "uint256",
          "name": "start",
          "type": "uint256"
        },
        {
          "indexed": false,
          "internalType": "uint256",
          "name": "value",
          "type": "uint256"
        },
        {
          "indexed": false,
          "internalType": "uint256",
          "name": "valueUnderlying",
          "type": "uint256"
        }
      ],
      "name": "Bond",
      "type": "event"
    },
    {
      "anonymous": false,
      "inputs": [
        {
          "indexed": true,
          "internalType": "address",
          "name": "account",
          "type": "address"
        },
        {
          "indexed": true,
          "internalType": "address",
          "name": "candidate",
          "type": "address"
        }
      ],
      "name": "Commit",
      "type": "event"
    },
    {
      "anonymous": false,
      "inputs": [
        {
          "indexed": true,
          "internalType": "address",
          "name": "owner",
          "type": "address"
        },
        {
          "indexed": true,
          "internalType": "address",
          "name": "spender",
          "type": "address"
        },
        {
          "indexed": false,
          "internalType": "uint256",
          "name": "value",
          "type": "uint256"
        }
      ],
      "name": "CouponApproval",
      "type": "event"
    },
    {
      "anonymous": false,
      "inputs": [
        {
          "indexed": true,
          "internalType": "address",
          "name": "account",
          "type": "address"
        },
        {
          "indexed": true,
          "internalType": "uint256",
          "name": "epoch",
          "type": "uint256"
        },
        {
          "indexed": false,
          "internalType": "uint256",
          "name": "dollarAmount",
          "type": "uint256"
        },
        {
          "indexed": false,
          "internalType": "uint256",
          "name": "maxCouponAmount",
          "type": "uint256"
        }
      ],
      "name": "CouponBidPlaced",
      "type": "event"
    },
    {
      "anonymous": false,
      "inputs": [
        {
          "indexed": true,
          "internalType": "address",
          "name": "account",
          "type": "address"
        },
        {
          "indexed": true,
          "internalType": "uint256",
          "name": "epoch",
          "type": "uint256"
        },
        {
          "indexed": false,
          "internalType": "uint256",
          "name": "couponAmount",
          "type": "uint256"
        }
      ],
      "name": "CouponBurn",
      "type": "event"
    },
    {
      "anonymous": false,
      "inputs": [
        {
          "indexed": true,
          "internalType": "uint256",
          "name": "epoch",
          "type": "uint256"
        },
        {
          "indexed": false,
          "internalType": "uint256",
          "name": "couponsExpired",
          "type": "uint256"
        },
        {
          "indexed": false,
          "internalType": "uint256",
          "name": "lessRedeemable",
          "type": "uint256"
        },
        {
          "indexed": false,
          "internalType": "uint256",
          "name": "lessDebt",
          "type": "uint256"
        },
        {
          "indexed": false,
          "internalType": "uint256",
          "name": "newBonded",
          "type": "uint256"
        }
      ],
      "name": "CouponExpiration",
      "type": "event"
    },
    {
      "anonymous": false,
      "inputs": [
        {
          "indexed": true,
          "internalType": "address",
          "name": "account",
          "type": "address"
        },
        {
          "indexed": true,
          "internalType": "uint256",
          "name": "epoch",
          "type": "uint256"
        },
        {
          "indexed": false,
          "internalType": "uint256",
          "name": "dollarAmount",
          "type": "uint256"
        },
        {
          "indexed": false,
          "internalType": "uint256",
          "name": "couponAmount",
          "type": "uint256"
        }
      ],
      "name": "CouponPurchase",
      "type": "event"
    },
    {
      "anonymous": false,
      "inputs": [
        {
          "indexed": true,
          "internalType": "address",
          "name": "account",
          "type": "address"
        },
        {
          "indexed": true,
          "internalType": "uint256",
          "name": "epoch",
          "type": "uint256"
        },
        {
          "indexed": false,
          "internalType": "uint256",
          "name": "couponAmount",
          "type": "uint256"
        }
      ],
      "name": "CouponRedemption",
      "type": "event"
    },
    {
      "anonymous": false,
      "inputs": [
        {
          "indexed": true,
          "internalType": "address",
          "name": "from",
          "type": "address"
        },
        {
          "indexed": true,
          "internalType": "address",
          "name": "to",
          "type": "address"
        },
        {
          "indexed": true,
          "internalType": "uint256",
          "name": "epoch",
          "type": "uint256"
        },
        {
          "indexed": false,
          "internalType": "uint256",
          "name": "value",
          "type": "uint256"
        }
      ],
      "name": "CouponTransfer",
      "type": "event"
    },
    {
      "anonymous": false,
      "inputs": [
        {
          "indexed": true,
          "internalType": "address",
          "name": "account",
          "type": "address"
        },
        {
          "indexed": false,
          "internalType": "uint256",
          "name": "value",
          "type": "uint256"
        }
      ],
      "name": "Deposit",
      "type": "event"
    },
    {
      "anonymous": false,
      "inputs": [
        {
          "indexed": true,
          "internalType": "address",
          "name": "account",
          "type": "address"
        },
        {
          "indexed": false,
          "internalType": "uint256",
          "name": "amount",
          "type": "uint256"
        }
      ],
      "name": "Incentivization",
      "type": "event"
    },
    {
      "anonymous": false,
      "inputs": [
        {
          "indexed": true,
          "internalType": "address",
          "name": "candidate",
          "type": "address"
        },
        {
          "indexed": true,
          "internalType": "address",
          "name": "account",
          "type": "address"
        },
        {
          "indexed": true,
          "internalType": "uint256",
          "name": "start",
          "type": "uint256"
        },
        {
          "indexed": false,
          "internalType": "uint256",
          "name": "period",
          "type": "uint256"
        }
      ],
      "name": "Proposal",
      "type": "event"
    },
    {
      "anonymous": false,
      "inputs": [
        {
          "indexed": true,
          "internalType": "uint256",
          "name": "epoch",
          "type": "uint256"
        },
        {
          "indexed": false,
          "internalType": "uint256",
          "name": "price",
          "type": "uint256"
        },
        {
          "indexed": false,
          "internalType": "uint256",
          "name": "newDebt",
          "type": "uint256"
        }
      ],
      "name": "SupplyDecrease",
      "type": "event"
    },
    {
      "anonymous": false,
      "inputs": [
        {
          "indexed": true,
          "internalType": "uint256",
          "name": "epoch",
          "type": "uint256"
        },
        {
          "indexed": false,
          "internalType": "uint256",
          "name": "price",
          "type": "uint256"
        },
        {
          "indexed": false,
          "internalType": "uint256",
          "name": "newRedeemable",
          "type": "uint256"
        },
        {
          "indexed": false,
          "internalType": "uint256",
          "name": "lessDebt",
          "type": "uint256"
        },
        {
          "indexed": false,
          "internalType": "uint256",
          "name": "newBonded",
          "type": "uint256"
        }
      ],
      "name": "SupplyIncrease",
      "type": "event"
    },
    {
      "anonymous": false,
      "inputs": [
        {
          "indexed": true,
          "internalType": "uint256",
          "name": "epoch",
          "type": "uint256"
        }
      ],
      "name": "SupplyNeutral",
      "type": "event"
    },
    {
      "anonymous": false,
      "inputs": [
        {
          "indexed": true,
          "internalType": "address",
          "name": "from",
          "type": "address"
        },
        {
          "indexed": true,
          "internalType": "address",
          "name": "to",
          "type": "address"
        },
        {
          "indexed": false,
          "internalType": "uint256",
          "name": "value",
          "type": "uint256"
        }
      ],
      "name": "Transfer",
      "type": "event"
    },
    {
      "anonymous": false,
      "inputs": [
        {
          "indexed": true,
          "internalType": "address",
          "name": "account",
          "type": "address"
        },
        {
          "indexed": false,
          "internalType": "uint256",
          "name": "start",
          "type": "uint256"
        },
        {
          "indexed": false,
          "internalType": "uint256",
          "name": "value",
          "type": "uint256"
        },
        {
          "indexed": false,
          "internalType": "uint256",
          "name": "valueUnderlying",
          "type": "uint256"
        }
      ],
      "name": "Unbond",
      "type": "event"
    },
    {
      "anonymous": false,
      "inputs": [
        {
          "indexed": true,
          "internalType": "address",
          "name": "implementation",
          "type": "address"
        }
      ],
      "name": "Upgraded",
      "type": "event"
    },
    {
      "anonymous": false,
      "inputs": [
        {
          "indexed": true,
          "internalType": "address",
          "name": "account",
          "type": "address"
        },
        {
          "indexed": true,
          "internalType": "address",
          "name": "candidate",
          "type": "address"
        },
        {
          "indexed": false,
          "internalType": "enum Candidate.Vote",
          "name": "vote",
          "type": "uint8"
        },
        {
          "indexed": false,
          "internalType": "uint256",
          "name": "bonded",
          "type": "uint256"
        }
      ],
      "name": "Vote",
      "type": "event"
    },
    {
      "anonymous": false,
      "inputs": [
        {
          "indexed": true,
          "internalType": "address",
          "name": "account",
          "type": "address"
        },
        {
          "indexed": false,
          "internalType": "uint256",
          "name": "value",
          "type": "uint256"
        }
      ],
      "name": "Withdraw",
      "type": "event"
    },
    {
      "constant": true,
      "inputs": [
        {
          "internalType": "address",
          "name": "owner",
          "type": "address"
        },
        {
          "internalType": "address",
          "name": "spender",
          "type": "address"
        }
      ],
      "name": "allowance",
      "outputs": [
        {
          "internalType": "uint256",
          "name": "",
          "type": "uint256"
        }
      ],
      "payable": false,
      "stateMutability": "view",
      "type": "function"
    },
    {
      "constant": true,
      "inputs": [
        {
          "internalType": "address",
          "name": "owner",
          "type": "address"
        },
        {
          "internalType": "address",
          "name": "spender",
          "type": "address"
        }
      ],
      "name": "allowanceCoupons",
      "outputs": [
        {
          "internalType": "uint256",
          "name": "",
          "type": "uint256"
        }
      ],
      "payable": false,
      "stateMutability": "view",
      "type": "function"
    },
    {
      "constant": false,
      "inputs": [
        {
          "internalType": "address",
          "name": "spender",
          "type": "address"
        },
        {
          "internalType": "uint256",
          "name": "amount",
          "type": "uint256"
        }
      ],
      "name": "approve",
      "outputs": [
        {
          "internalType": "bool",
          "name": "",
          "type": "bool"
        }
      ],
      "payable": false,
      "stateMutability": "nonpayable",
      "type": "function"
    },
    {
      "constant": false,
      "inputs": [
        {
          "internalType": "address",
          "name": "spender",
          "type": "address"
        },
        {
          "internalType": "uint256",
          "name": "amount",
          "type": "uint256"
        }
      ],
      "name": "approveCoupons",
      "outputs": [],
      "payable": false,
      "stateMutability": "nonpayable",
      "type": "function"
    },
    {
      "constant": true,
      "inputs": [
        {
          "internalType": "address",
          "name": "candidate",
          "type": "address"
        }
      ],
      "name": "approveFor",
      "outputs": [
        {
          "internalType": "uint256",
          "name": "",
          "type": "uint256"
        }
      ],
      "payable": false,
      "stateMutability": "view",
      "type": "function"
    },
    {
      "constant": true,
      "inputs": [
        {
          "internalType": "address",
          "name": "account",
          "type": "address"
        }
      ],
      "name": "balanceOf",
      "outputs": [
        {
          "internalType": "uint256",
          "name": "",
          "type": "uint256"
        }
      ],
      "payable": false,
      "stateMutability": "view",
      "type": "function"
    },
    {
      "constant": true,
      "inputs": [
        {
          "internalType": "address",
          "name": "account",
          "type": "address"
        }
      ],
      "name": "balanceOfBonded",
      "outputs": [
        {
          "internalType": "uint256",
          "name": "",
          "type": "uint256"
        }
      ],
      "payable": false,
      "stateMutability": "view",
      "type": "function"
    },
    {
      "constant": true,
      "inputs": [
        {
          "internalType": "address",
          "name": "account",
          "type": "address"
        },
        {
          "internalType": "uint256",
          "name": "epoch",
          "type": "uint256"
        }
      ],
      "name": "balanceOfCoupons",
      "outputs": [
        {
          "internalType": "uint256",
          "name": "",
          "type": "uint256"
        }
      ],
      "payable": false,
      "stateMutability": "view",
      "type": "function"
    },
    {
      "constant": true,
      "inputs": [
        {
          "internalType": "address",
          "name": "account",
          "type": "address"
        }
      ],
      "name": "balanceOfStaged",
      "outputs": [
        {
          "internalType": "uint256",
          "name": "",
          "type": "uint256"
        }
      ],
      "payable": false,
      "stateMutability": "view",
      "type": "function"
    },
    {
      "constant": false,
      "inputs": [
        {
          "internalType": "uint256",
          "name": "value",
          "type": "uint256"
        }
      ],
      "name": "bond",
      "outputs": [],
      "payable": false,
      "stateMutability": "nonpayable",
      "type": "function"
    },
    {
      "constant": true,
      "inputs": [
        {
          "internalType": "uint256",
          "name": "epoch",
          "type": "uint256"
        }
      ],
      "name": "bootstrappingAt",
      "outputs": [
        {
          "internalType": "bool",
          "name": "",
          "type": "bool"
        }
      ],
      "payable": false,
      "stateMutability": "view",
      "type": "function"
    },
    {
      "constant": false,
      "inputs": [
        {
          "internalType": "address",
          "name": "candidate",
          "type": "address"
        }
      ],
      "name": "commit",
      "outputs": [],
      "payable": false,
      "stateMutability": "nonpayable",
      "type": "function"
    },
    {
      "constant": true,
      "inputs": [
        {
          "internalType": "uint256",
          "name": "amount",
          "type": "uint256"
        }
      ],
      "name": "couponPremium",
      "outputs": [
        {
          "internalType": "uint256",
          "name": "",
          "type": "uint256"
        }
      ],
      "payable": false,
      "stateMutability": "view",
      "type": "function"
    },
    {
      "constant": true,
      "inputs": [
        {
          "internalType": "uint256",
          "name": "couponEpoch",
          "type": "uint256"
        },
        {
          "internalType": "uint256",
          "name": "couponAmount",
          "type": "uint256"
        }
      ],
      "name": "couponRedemptionPenalty",
      "outputs": [
        {
          "internalType": "uint256",
          "name": "",
          "type": "uint256"
        }
      ],
      "payable": false,
      "stateMutability": "view",
      "type": "function"
    },
    {
      "constant": true,
      "inputs": [
        {
          "internalType": "uint256",
          "name": "epoch",
          "type": "uint256"
        }
      ],
      "name": "couponsExpiration",
      "outputs": [
        {
          "internalType": "uint256",
          "name": "",
          "type": "uint256"
        }
      ],
      "payable": false,
      "stateMutability": "view",
      "type": "function"
    },
    {
      "constant": true,
      "inputs": [],
      "name": "decimals",
      "outputs": [
        {
          "internalType": "uint8",
          "name": "",
          "type": "uint8"
        }
      ],
      "payable": false,
      "stateMutability": "view",
      "type": "function"
    },
    {
      "constant": false,
      "inputs": [
        {
          "internalType": "uint256",
          "name": "value",
          "type": "uint256"
        }
      ],
      "name": "deposit",
      "outputs": [],
      "payable": false,
      "stateMutability": "nonpayable",
      "type": "function"
    },
    {
      "constant": true,
      "inputs": [],
      "name": "dollar",
      "outputs": [
        {
          "internalType": "contract IDollar",
          "name": "",
          "type": "address"
        }
      ],
      "payable": false,
      "stateMutability": "view",
      "type": "function"
    },
    {
      "constant": false,
      "inputs": [
        {
          "internalType": "address",
          "name": "candidate",
          "type": "address"
        }
      ],
      "name": "emergencyCommit",
      "outputs": [],
      "payable": false,
      "stateMutability": "nonpayable",
      "type": "function"
    },
    {
      "constant": true,
      "inputs": [],
      "name": "epoch",
      "outputs": [
        {
          "internalType": "uint256",
          "name": "",
          "type": "uint256"
        }
      ],
      "payable": false,
      "stateMutability": "view",
      "type": "function"
    },
    {
      "constant": true,
      "inputs": [],
      "name": "epochTime",
      "outputs": [
        {
          "internalType": "uint256",
          "name": "",
          "type": "uint256"
        }
      ],
      "payable": false,
      "stateMutability": "view",
      "type": "function"
    },
    {
      "constant": true,
      "inputs": [
        {
          "internalType": "uint256",
          "name": "epoch",
          "type": "uint256"
        }
      ],
      "name": "expiringCoupons",
      "outputs": [
        {
          "internalType": "uint256",
          "name": "",
          "type": "uint256"
        }
      ],
      "payable": false,
      "stateMutability": "view",
      "type": "function"
    },
    {
      "constant": true,
      "inputs": [
        {
          "internalType": "uint256",
          "name": "epoch",
          "type": "uint256"
        },
        {
          "internalType": "uint256",
          "name": "i",
          "type": "uint256"
        }
      ],
      "name": "expiringCouponsAtIndex",
      "outputs": [
        {
          "internalType": "uint256",
          "name": "",
          "type": "uint256"
        }
      ],
      "payable": false,
      "stateMutability": "view",
      "type": "function"
    },
    {
      "constant": true,
      "inputs": [
        {
          "internalType": "address",
          "name": "account",
          "type": "address"
        }
      ],
      "name": "fluidUntil",
      "outputs": [
        {
          "internalType": "uint256",
          "name": "",
          "type": "uint256"
        }
      ],
      "payable": false,
      "stateMutability": "view",
      "type": "function"
    },
    {
      "constant": true,
      "inputs": [
        {
          "internalType": "uint256",
          "name": "epoch",
          "type": "uint256"
        }
      ],
      "name": "getAvgExpiryFilled",
      "outputs": [
        {
          "internalType": "uint256",
          "name": "",
          "type": "uint256"
        }
      ],
      "payable": false,
      "stateMutability": "view",
      "type": "function"
    },
    {
      "constant": true,
      "inputs": [
        {
          "internalType": "uint256",
          "name": "epoch",
          "type": "uint256"
        }
      ],
      "name": "getAvgYieldFilled",
      "outputs": [
        {
          "internalType": "uint256",
          "name": "",
          "type": "uint256"
        }
      ],
      "payable": false,
      "stateMutability": "view",
      "type": "function"
    },
    {
      "constant": true,
      "inputs": [
        {
          "internalType": "uint256",
          "name": "epoch",
          "type": "uint256"
        }
      ],
      "name": "getBidToCover",
      "outputs": [
        {
          "internalType": "uint256",
          "name": "",
          "type": "uint256"
        }
      ],
      "payable": false,
      "stateMutability": "view",
      "type": "function"
    },
    {
      "constant": true,
      "inputs": [
        {
          "internalType": "uint256",
          "name": "epoch",
          "type": "uint256"
        }
      ],
      "name": "getMaxExpiryFilled",
      "outputs": [
        {
          "internalType": "uint256",
          "name": "",
          "type": "uint256"
        }
      ],
      "payable": false,
      "stateMutability": "view",
      "type": "function"
    },
    {
      "constant": true,
      "inputs": [
        {
          "internalType": "uint256",
          "name": "epoch",
          "type": "uint256"
        }
      ],
      "name": "getMaxYieldFilled",
      "outputs": [
        {
          "internalType": "uint256",
          "name": "",
          "type": "uint256"
        }
      ],
      "payable": false,
      "stateMutability": "view",
      "type": "function"
    },
    {
      "constant": true,
      "inputs": [
        {
          "internalType": "uint256",
          "name": "epoch",
          "type": "uint256"
        }
      ],
      "name": "getMinExpiryFilled",
      "outputs": [
        {
          "internalType": "uint256",
          "name": "",
          "type": "uint256"
        }
      ],
      "payable": false,
      "stateMutability": "view",
      "type": "function"
    },
    {
      "constant": true,
      "inputs": [
        {
          "internalType": "uint256",
          "name": "epoch",
          "type": "uint256"
        }
      ],
      "name": "getMinYieldFilled",
      "outputs": [
        {
          "internalType": "uint256",
          "name": "",
          "type": "uint256"
        }
      ],
      "payable": false,
      "stateMutability": "view",
      "type": "function"
    },
    {
      "constant": true,
      "inputs": [
        {
          "internalType": "uint256",
          "name": "epoch",
          "type": "uint256"
        }
      ],
      "name": "getTotalAuctioned",
      "outputs": [
        {
          "internalType": "uint256",
          "name": "",
          "type": "uint256"
        }
      ],
      "payable": false,
      "stateMutability": "view",
      "type": "function"
    },
    {
      "constant": true,
      "inputs": [
        {
          "internalType": "uint256",
          "name": "epoch",
          "type": "uint256"
        }
      ],
      "name": "getTotalBurned",
      "outputs": [
        {
          "internalType": "uint256",
          "name": "",
          "type": "uint256"
        }
      ],
      "payable": false,
      "stateMutability": "view",
      "type": "function"
    },
    {
      "constant": true,
      "inputs": [
        {
          "internalType": "uint256",
          "name": "epoch",
          "type": "uint256"
        }
      ],
      "name": "getTotalFilled",
      "outputs": [
        {
          "internalType": "uint256",
          "name": "",
          "type": "uint256"
        }
      ],
      "payable": false,
      "stateMutability": "view",
      "type": "function"
    },
    {
      "constant": true,
      "inputs": [],
      "name": "implementation",
      "outputs": [
        {
          "internalType": "address",
          "name": "impl",
          "type": "address"
        }
      ],
      "payable": false,
      "stateMutability": "view",
      "type": "function"
    },
    {
      "constant": true,
      "inputs": [
        {
          "internalType": "address",
          "name": "candidate",
          "type": "address"
        }
      ],
      "name": "isInitialized",
      "outputs": [
        {
          "internalType": "bool",
          "name": "",
          "type": "bool"
        }
      ],
      "payable": false,
      "stateMutability": "view",
      "type": "function"
    },
    {
      "constant": true,
      "inputs": [
        {
          "internalType": "address",
          "name": "candidate",
          "type": "address"
        }
      ],
      "name": "isNominated",
      "outputs": [
        {
          "internalType": "bool",
          "name": "",
          "type": "bool"
        }
      ],
      "payable": false,
      "stateMutability": "view",
      "type": "function"
    },
    {
      "constant": true,
      "inputs": [
        {
          "internalType": "address",
          "name": "account",
          "type": "address"
        }
      ],
      "name": "lockedUntil",
      "outputs": [
        {
          "internalType": "uint256",
          "name": "",
          "type": "uint256"
        }
      ],
      "payable": false,
      "stateMutability": "view",
      "type": "function"
    },
    {
      "constant": true,
      "inputs": [],
      "name": "name",
      "outputs": [
        {
          "internalType": "string",
          "name": "",
          "type": "string"
        }
      ],
      "payable": false,
      "stateMutability": "view",
      "type": "function"
    },
    {
      "constant": true,
      "inputs": [],
      "name": "oracle",
      "outputs": [
        {
          "internalType": "contract IOracle",
          "name": "",
          "type": "address"
        }
      ],
      "payable": false,
      "stateMutability": "view",
      "type": "function"
    },
    {
      "constant": true,
      "inputs": [
        {
          "internalType": "uint256",
          "name": "epoch",
          "type": "uint256"
        }
      ],
      "name": "outstandingCoupons",
      "outputs": [
        {
          "internalType": "uint256",
          "name": "",
          "type": "uint256"
        }
      ],
      "payable": false,
      "stateMutability": "view",
      "type": "function"
    },
    {
      "constant": true,
      "inputs": [
        {
          "internalType": "address",
          "name": "candidate",
          "type": "address"
        }
      ],
      "name": "periodFor",
      "outputs": [
        {
          "internalType": "uint256",
          "name": "",
          "type": "uint256"
        }
      ],
      "payable": false,
      "stateMutability": "view",
      "type": "function"
    },
    {
      "constant": false,
      "inputs": [
        {
          "internalType": "uint256",
          "name": "couponEpochExpiry",
          "type": "uint256"
        },
        {
          "internalType": "uint256",
          "name": "dollarAmount",
          "type": "uint256"
        },
        {
          "internalType": "uint256",
          "name": "maxCouponAmount",
          "type": "uint256"
        }
      ],
      "name": "placeCouponAuctionBid",
      "outputs": [
        {
          "internalType": "bool",
          "name": "",
          "type": "bool"
        }
      ],
      "payable": false,
      "stateMutability": "nonpayable",
      "type": "function"
    },
    {
      "constant": true,
      "inputs": [],
      "name": "pool",
      "outputs": [
        {
          "internalType": "address",
          "name": "",
          "type": "address"
        }
      ],
      "payable": false,
      "stateMutability": "view",
      "type": "function"
    },
    {
      "constant": false,
      "inputs": [
        {
          "internalType": "uint256",
          "name": "dollarAmount",
          "type": "uint256"
        }
      ],
      "name": "purchaseCoupons",
      "outputs": [
        {
          "internalType": "uint256",
          "name": "",
          "type": "uint256"
        }
      ],
      "payable": false,
      "stateMutability": "nonpayable",
      "type": "function"
    },
    {
      "constant": true,
      "inputs": [
        {
          "internalType": "address",
          "name": "account",
          "type": "address"
        },
        {
          "internalType": "address",
          "name": "candidate",
          "type": "address"
        }
      ],
      "name": "recordedVote",
      "outputs": [
        {
          "internalType": "enum Candidate.Vote",
          "name": "",
          "type": "uint8"
        }
      ],
      "payable": false,
      "stateMutability": "view",
      "type": "function"
    },
    {
      "constant": false,
      "inputs": [
        {
          "internalType": "uint256",
          "name": "couponEpoch",
          "type": "uint256"
        },
        {
          "internalType": "uint256",
          "name": "couponAmount",
          "type": "uint256"
        },
        {
          "internalType": "uint256",
          "name": "minOutput",
          "type": "uint256"
        }
      ],
      "name": "redeemCoupons",
      "outputs": [],
      "payable": false,
      "stateMutability": "nonpayable",
      "type": "function"
    },
    {
      "constant": false,
      "inputs": [
        {
          "internalType": "uint256",
          "name": "couponEpoch",
          "type": "uint256"
        },
        {
          "internalType": "uint256",
          "name": "couponAmount",
          "type": "uint256"
        }
      ],
      "name": "redeemCoupons",
      "outputs": [],
      "payable": false,
      "stateMutability": "nonpayable",
      "type": "function"
    },
    {
      "constant": true,
      "inputs": [
        {
          "internalType": "address",
          "name": "candidate",
          "type": "address"
        }
      ],
      "name": "rejectFor",
      "outputs": [
        {
          "internalType": "uint256",
          "name": "",
          "type": "uint256"
        }
      ],
      "payable": false,
      "stateMutability": "view",
      "type": "function"
    },
    {
      "constant": true,
      "inputs": [
        {
          "internalType": "address",
          "name": "candidate",
          "type": "address"
        }
      ],
      "name": "startFor",
      "outputs": [
        {
          "internalType": "uint256",
          "name": "",
          "type": "uint256"
        }
      ],
      "payable": false,
      "stateMutability": "view",
      "type": "function"
    },
    {
      "constant": true,
      "inputs": [
        {
          "internalType": "address",
          "name": "account",
          "type": "address"
        }
      ],
      "name": "statusOf",
      "outputs": [
        {
          "internalType": "enum Account.Status",
          "name": "",
          "type": "uint8"
        }
      ],
      "payable": false,
      "stateMutability": "view",
      "type": "function"
    },
    {
      "constant": true,
      "inputs": [],
      "name": "symbol",
      "outputs": [
        {
          "internalType": "string",
          "name": "",
          "type": "string"
        }
      ],
      "payable": false,
      "stateMutability": "view",
      "type": "function"
    },
    {
      "constant": true,
      "inputs": [],
      "name": "totalBonded",
      "outputs": [
        {
          "internalType": "uint256",
          "name": "",
          "type": "uint256"
        }
      ],
      "payable": false,
      "stateMutability": "view",
      "type": "function"
    },
    {
      "constant": true,
      "inputs": [
        {
          "internalType": "uint256",
          "name": "epoch",
          "type": "uint256"
        }
      ],
      "name": "totalBondedAt",
      "outputs": [
        {
          "internalType": "uint256",
          "name": "",
          "type": "uint256"
        }
      ],
      "payable": false,
      "stateMutability": "view",
      "type": "function"
    },
    {
      "constant": true,
      "inputs": [],
      "name": "totalCoupons",
      "outputs": [
        {
          "internalType": "uint256",
          "name": "",
          "type": "uint256"
        }
      ],
      "payable": false,
      "stateMutability": "view",
      "type": "function"
    },
    {
      "constant": true,
      "inputs": [],
      "name": "totalDebt",
      "outputs": [
        {
          "internalType": "uint256",
          "name": "",
          "type": "uint256"
        }
      ],
      "payable": false,
      "stateMutability": "view",
      "type": "function"
    },
    {
      "constant": true,
      "inputs": [],
      "name": "totalNet",
      "outputs": [
        {
          "internalType": "uint256",
          "name": "",
          "type": "uint256"
        }
      ],
      "payable": false,
      "stateMutability": "view",
      "type": "function"
    },
    {
      "constant": true,
      "inputs": [],
      "name": "totalRedeemable",
      "outputs": [
        {
          "internalType": "uint256",
          "name": "",
          "type": "uint256"
        }
      ],
      "payable": false,
      "stateMutability": "view",
      "type": "function"
    },
    {
      "constant": true,
      "inputs": [],
      "name": "totalStaged",
      "outputs": [
        {
          "internalType": "uint256",
          "name": "",
          "type": "uint256"
        }
      ],
      "payable": false,
      "stateMutability": "view",
      "type": "function"
    },
    {
      "constant": true,
      "inputs": [],
      "name": "totalSupply",
      "outputs": [
        {
          "internalType": "uint256",
          "name": "",
          "type": "uint256"
        }
      ],
      "payable": false,
      "stateMutability": "view",
      "type": "function"
    },
    {
      "constant": false,
      "inputs": [
        {
          "internalType": "address",
          "name": "recipient",
          "type": "address"
        },
        {
          "internalType": "uint256",
          "name": "amount",
          "type": "uint256"
        }
      ],
      "name": "transfer",
      "outputs": [
        {
          "internalType": "bool",
          "name": "",
          "type": "bool"
        }
      ],
      "payable": false,
      "stateMutability": "nonpayable",
      "type": "function"
    },
    {
      "constant": false,
      "inputs": [
        {
          "internalType": "address",
          "name": "sender",
          "type": "address"
        },
        {
          "internalType": "address",
          "name": "recipient",
          "type": "address"
        },
        {
          "internalType": "uint256",
          "name": "epoch",
          "type": "uint256"
        },
        {
          "internalType": "uint256",
          "name": "amount",
          "type": "uint256"
        }
      ],
      "name": "transferCoupons",
      "outputs": [],
      "payable": false,
      "stateMutability": "nonpayable",
      "type": "function"
    },
    {
      "constant": false,
      "inputs": [
        {
          "internalType": "address",
          "name": "sender",
          "type": "address"
        },
        {
          "internalType": "address",
          "name": "recipient",
          "type": "address"
        },
        {
          "internalType": "uint256",
          "name": "amount",
          "type": "uint256"
        }
      ],
      "name": "transferFrom",
      "outputs": [
        {
          "internalType": "bool",
          "name": "",
          "type": "bool"
        }
      ],
      "payable": false,
      "stateMutability": "nonpayable",
      "type": "function"
    },
    {
      "constant": false,
      "inputs": [
        {
          "internalType": "uint256",
          "name": "value",
          "type": "uint256"
        }
      ],
      "name": "unbond",
      "outputs": [],
      "payable": false,
      "stateMutability": "nonpayable",
      "type": "function"
    },
    {
      "constant": false,
      "inputs": [
        {
          "internalType": "uint256",
          "name": "value",
          "type": "uint256"
        }
      ],
      "name": "unbondUnderlying",
      "outputs": [],
      "payable": false,
      "stateMutability": "nonpayable",
      "type": "function"
    },
    {
      "constant": false,
      "inputs": [
        {
          "internalType": "address",
          "name": "candidate",
          "type": "address"
        },
        {
          "internalType": "enum Candidate.Vote",
          "name": "vote",
          "type": "uint8"
        }
      ],
      "name": "vote",
      "outputs": [],
      "payable": false,
      "stateMutability": "nonpayable",
      "type": "function"
    },
    {
      "constant": true,
      "inputs": [
        {
          "internalType": "address",
          "name": "candidate",
          "type": "address"
        }
      ],
      "name": "votesFor",
      "outputs": [
        {
          "internalType": "uint256",
          "name": "",
          "type": "uint256"
        }
      ],
      "payable": false,
      "stateMutability": "view",
      "type": "function"
    },
    {
      "constant": false,
      "inputs": [
        {
          "internalType": "uint256",
          "name": "value",
          "type": "uint256"
        }
      ],
      "name": "withdraw",
      "outputs": [],
      "payable": false,
      "stateMutability": "nonpayable",
      "type": "function"
    },
    {
      "constant": false,
      "inputs": [],
      "name": "initialize",
      "outputs": [],
      "payable": false,
      "stateMutability": "nonpayable",
      "type": "function"
    },
    {
      "constant": false,
      "inputs": [],
      "name": "advance",
      "outputs": [],
      "payable": false,
      "stateMutability": "nonpayable",
      "type": "function"
    }
  ],
  "bytecode": "0x60806040526000601055600060115560006012556000601355600060145560006015556000196016556200003d6200006a60201b62004b5b1760201c565b516017556040805160208101909152600019908190526018553480156200006357600080fd5b506200009a565b6200007462000087565b5060408051602081019091526000815290565b6040518060200160405280600081525090565b61603580620000aa6000396000f3fe608060405234801561001057600080fd5b50600436106104115760003560e01c8063825ad60711610220578063bceb514d11610130578063dd62ed3e116100b8578063ea105ac711610087578063ea105ac714610887578063eeaca09b1461088f578063f1b7cf49146108a2578063fc7b9c18146108b5578063ffbe3b73146108bd57610411565b8063dd62ed3e14610840578063dde74dc31461084e578063df9a2b1c14610861578063e5f55c7e1461087457610411565b8063cf023779116100ff578063cf023779146107ec578063d53c6f5f146107f4578063d60b347f14610807578063d6a9cf081461081a578063d8f541381461082d57610411565b8063bceb514d146107a0578063c34eee65146107b3578063c9aff70c146107c6578063cb0fbc71146107d957610411565b80639f1a0929116101b3578063a6c409f111610182578063a6c409f11461075f578063a9059cbb14610449578063b6b55f2514610767578063bc0b1df61461077a578063bc7513e21461078d57610411565b80639f1a0929146107135780639f6e1b2614610726578063a1eb31e814610739578063a50cd8e71461074c57610411565b806397a5d5b5116101ef57806397a5d5b5146106d25780639940686e146106e55780639a649edc146106f85780639bc289f11461070057610411565b8063825ad6071461069c57806386cf9f14146106af578063900cf0cf146106c257806395d89b41146106ca57610411565b80633a3e6c8111610326578063520acb76116102ae57806370a082311161027d57806370a082311461065357806375d5024b146106665780637d8bb869146106795780637dc0d1d01461068c5780638129fc1c1461069457610411565b8063520acb76146106125780635c60da1b14610625578063646680221461062d5780636a39e3281461064057610411565b806347c05069116102f557806347c05069146105bc5780634c736099146105cf5780635053e461146105e257806351adeb57146105ea57806351bf21d8146105ff57610411565b80633a3e6c811461056e5780633dc905c7146105815780633fbba9a61461059457806344d96e95146105b457610411565b806323b872dd116103a95780632e1a7d4d116103785780632e1a7d4d1461050d5780632f7f889e14610520578063313ce56714610533578063353a420c14610548578063369e8c1d1461055b57610411565b806323b872dd146104c157806324772c04146104d457806327de9e32146104e75780632d7f23b3146104fa57610411565b806315e14bf6116103e557806315e14bf61461048957806316f0115b1461049c57806318160ddd146104b15780631edbcf6c146104b957610411565b80625edd371461041657806306fdde031461042b578063095ea7b31461044957806310e95b6c14610469575b600080fd5b6104296104243660046157c3565b6108d0565b005b6104336109f3565b6040516104409190615d1b565b60405180910390f35b61045c610457366004615854565b610a2b565b6040516104409190615ce3565b61047c6104773660046158d2565b610a34565b6040516104409190615d9c565b61047c61049736600461571e565b610a4c565b6104a4610a6a565b6040516104409190615c76565b61047c610a79565b61047c610a7f565b61045c6104cf366004615776565b610a85565b61045c6104e236600461592d565b610a8f565b6104296104f53660046158d2565b610c20565b61047c6105083660046158d2565b610d5e565b61042961051b3660046158d2565b610d73565b61042961052e366004615854565b610eab565b61053b610f2b565b6040516104409190615e08565b61047c61055636600461571e565b610f30565b61042961056936600461571e565b610f4e565b61045c61057c36600461571e565b61109c565b61047c61058f3660046158d2565b6110b9565b6105a76105a236600461573c565b6110ce565b6040516104409190615cff565b61047c611101565b6104296105ca36600461571e565b611107565b61047c6105dd36600461590e565b6111fa565b61047c61122a565b6105f261124d565b6040516104409190615cf1565b61047c61060d36600461571e565b61125c565b61047c6106203660046158d2565b61127a565b6104a461128f565b61047c61063b36600461571e565b6112b4565b61047c61064e3660046158d2565b6112d2565b61047c61066136600461571e565b6112e7565b61045c6106743660046158d2565b611305565b61047c6106873660046158d2565b611318565b6105f261132d565b61042961133c565b61047c6106aa36600461571e565b6113c1565b61047c6106bd36600461571e565b611401565b61047c61141c565b610433611422565b6105a76106e036600461571e565b611440565b6104296106f33660046158d2565b6114a5565b61047c611573565b61047c61070e36600461571e565b611579565b61047c6107213660046158d2565b611597565b61047c61073436600461573c565b6115ad565b61047c61074736600461590e565b6115dc565b61047c61075a36600461571e565b611702565b61047c611719565b6104296107753660046158d2565b6117a3565b61042961078836600461592d565b61187b565b61047c61079b366004615854565b6119af565b6104296107ae366004615824565b6119f3565b61047c6107c13660046158d2565b611c8e565b61047c6107d43660046158d2565b611ca3565b61047c6107e73660046158d2565b611cb8565b61047c611ccd565b61047c6108023660046158d2565b611cd3565b61045c61081536600461571e565b611ce8565b61042961082836600461590e565b611d09565b61047c61083b3660046158d2565b611e05565b61047c61045736600461573c565b61047c61085c3660046158d2565b611e90565b61042961086f3660046158d2565b611ea5565b61047c6108823660046158d2565b611f63565b610429612031565b61047c61089d3660046158d2565b6120d9565b61047c6108b036600461571e565b6120ee565b61047c612109565b61047c6108cb3660046158d2565b61210f565b6001600160a01b0384166108ff5760405162461bcd60e51b81526004016108f690615d7c565b60405180910390fd5b6001600160a01b0383166109255760405162461bcd60e51b81526004016108f690615d3c565b610949848383604051806060016040528060238152602001615f1460239139612121565b6109548383836121cc565b336001600160a01b03851614801590610978575060001961097585336115ad565b14155b156109a1576109a1843383604051806060016040528060248152602001615f5b60249139612273565b81836001600160a01b0316856001600160a01b03167f0f1dbb1ccbe57a1590c7baad7b01d581b730c9ebc535dcde4345e6db424063d8846040516109e59190615d9c565b60405180910390a450505050565b60408051808201909152601881527f44796e616d69632053657420446f6c6c6172205374616b65000000000000000060208201525b90565b60005b92915050565b6000818152600d60205260409020600201545b919050565b6001600160a01b03166000908152600e602052604090206001015490565b600b546001600160a01b031690565b60035490565b60065490565b60005b9392505050565b6000610ac8600085116513585c9ad95d60d21b7f4d7573742068617665206e6f6e2d7a65726f20657870697279000000000000006122e4565b610aff600084116513585c9ad95d60d21b7f4d75737420626964206e6f6e2d7a65726f20616d6f756e7400000000000000006122e4565b610b36600083116513585c9ad95d60d21b7f4d75737420626964206f6e206e6f6e2d7a65726f20616d6f756e7400000000006122e4565b610b6683610b42612109565b10156513585c9ad95d60d21b6e139bdd08195b9bdd59da081919589d608a1b6122e4565b6000610b8085610b7461141c565b9063ffffffff61233916565b9050610b9a610b95848663ffffffff61235e16565b6123a0565b610ba384612437565b610bac816124cd565b610bb833828686612563565b610bc9610bc36125d1565b336125f8565b610bd1612652565b80336001600160a01b03167f9f5acf79fa92396b7f3cb679d46ed617794dc8709703e9111f109216820301028686604051610c0d929190615daa565b60405180910390a3506001949350505050565b33610c6760025b610c3083611440565b6002811115610c3b57fe5b1415692832b936b4b9b9b4b7b760b11b72139bdd08199c9bde995b881bdc88199b1d5a59606a1b6122e4565b610c703361267a565b6000610ca3610c7e336112e7565b610c97610c8a336113c1565b869063ffffffff6126a416565b9063ffffffff61235e16565b9050610caf33826126de565b610cd181604051806060016040528060228152602001615f7f6022913961273a565b610d1133846040518060400160405280601d81526020017f426f6e64696e673a20696e73756666696369656e742062616c616e6365000000815250612755565b337f93530ac0ee8c50e696e13c5ac62355d0c0ba4bd943620d5bda1eb08b64ae7512610d406001610b7461141c565b8584604051610d5193929190615db8565b60405180910390a2505050565b6000908152600d60205260409020600a015490565b33610dbb60015b610d8383611440565b6002811115610d8e57fe5b1415692832b936b4b9b9b4b7b760b11b73139bdd08199c9bde995b881bdc881b1bd8dad95960621b6122e4565b610dc361124d565b6001600160a01b031663a9059cbb33846040518363ffffffff1660e01b8152600401610df0929190615cac565b602060405180830381600087803b158015610e0a57600080fd5b505af1158015610e1e573d6000803e3d6000fd5b505050506040513d601f19601f82011682018060405250610e429190810190615884565b50610e663383604051806060016040528060248152602001615f3760249139612800565b336001600160a01b03167f884edad9ce6fa2440d8a54cc123490eb96d2768479d49ff9c7366125a942436483604051610e9f9190615d9c565b60405180910390a25050565b6001600160a01b038216610ed15760405162461bcd60e51b81526004016108f690615d6c565b610edc33838361285f565b816001600160a01b0316336001600160a01b03167f8ff27e6b95060c1ca851e7c2c28af8b413eb1a8bcb637b0290da9543a709cce383604051610f1f9190615d9c565b60405180910390a35050565b601290565b6001600160a01b03166000908152600e602052604090206003015490565b610f7a610f5a8261109c565b6523b7bb32b93760d11b6c139bdd081b9bdb5a5b985d1959609a1b6122e4565b6000610fa26001610f96610f8d85610a4c565b610b74866120ee565b9063ffffffff61288f16565b9050610fcd81610fb061141c565b116523b7bb32b93760d11b68139bdd08195b99195960ba1b6122e4565b611024611001610fdb6128d1565b610ff5610fe786611702565b610ff08661210f565b6128f3565b9063ffffffff61292216565b6523b7bb32b93760d11b6f4d75737420686176652071756f726f6d60801b6122e4565b61105961103083610f30565b611039846112b4565b116523b7bb32b93760d11b6b139bdd08185c1c1c9bdd995960a21b6122e4565b61106282612938565b6040516001600160a01b0383169033907f815ca4497ab9fc80c76f210e6e842a5e198e195aa136034557eee144f790e7bb90600090a35050565b6001600160a01b03166000908152600e6020526040902054151590565b6000908152600d60205260409020600e015490565b6001600160a01b038082166000908152600e60209081526040808320938616835260049093019052205460ff1692915050565b60045490565b611113610f5a8261109c565b611151611129611121612a24565b610b7461141c565b61113161122a565b116523b7bb32b93760d11b6b115c1bd8da081cde5b98d95960a21b6122e4565b6111a361117361115f612a29565b610ff561116b856112b4565b610ff0610a79565b6523b7bb32b93760d11b7f4d7573742068617665207375706572206d616a6f7269747900000000000000006122e4565b6111b86111af82610f30565b611039836112b4565b6111c181612938565b6040516001600160a01b0382169033907f815ca4497ab9fc80c76f210e6e842a5e198e195aa136034557eee144f790e7bb90600090a350565b6000828152600d6020526040812060030180548390811061121757fe5b9060005260206000200154905092915050565b6000611234615548565b61123c612a4b565b905061124781612a7a565b91505090565b6009546001600160a01b031690565b6001600160a01b03166000908152600c602052604090206004015490565b6000908152600d602052604090206010015490565b7f360894a13ba1a3210667c828492db98dca3e2076cc3735a920a3ca505d382bbc5490565b6001600160a01b03166000908152600e602052604090206002015490565b6000908152600d602052604090206003015490565b6001600160a01b03166000908152600c602052604090206001015490565b600061130f612a9c565b90911115919050565b6000908152600d602052604090206012015490565b600a546001600160a01b031690565b61137561134a61081561128f565b15692832b936b4b9b9b4b7b760b11b72105b1c9958591e481a5b9a5d1a585b1a5e9959606a1b6122e4565b61138561138061128f565b612aa1565b6113983368056bc75e2d63100000612ac8565b6113bf7361105dd0b0ded973bc94bb054f314c46a0234b06683635c9adc5dea00000612ac8565b565b6000806113cc610a79565b9050806113dd576000915050610a47565b610a8881610c976113ed866112e7565b6113f5611101565b9063ffffffff6126a416565b6001600160a01b03166000908152600c602052604090205490565b60025490565b6040805180820190915260048152634453445360e01b602082015290565b600061144a61141c565b6001600160a01b0383166000908152600c6020526040902060050154111561147457506002610a47565b6001600160a01b0382166000908152600c602052604090206004015461149861141c565b1015610a2b576001610a2e565b336114b06002610c27565b6114b93361267a565b60006114c3611101565b156114e3576114de6114d3611101565b610c97610c8a610a79565b6114fb565b6114fb6114ee612b74565b849063ffffffff6126a416565b90506115073382612b7b565b61151083612c17565b6115333384604051806060016040528060248152602001615f3760249139612800565b337f44002fdef5a0c2d2e4e05572e9780b95aef97e0e93ffd7cc076b09fa78ff2b466115626001610b7461141c565b8386604051610d5193929190615db8565b60085490565b6001600160a01b03166000908152600c602052604090206005015490565b6000908152600d60208190526040909120015490565b6001600160a01b039182166000908152600c602090815260408083209390941682526003909201909152205490565b6000806115e7612a4b565b6040015142816115f357fe5b06905060008461160161141c565b039050600061160e612c30565b82611617612c30565b03611620612c36565b028161162857fe5b0490508083111561163f5760009350505050610a2e565b611647615569565b61169a60405180602001604052808561165e612c30565b0381525061168e6040518060200160405280611678612c30565b9052611682612c3c565b9063ffffffff612c5e16565b9063ffffffff612c8c16565b90506116a4615569565b6040805160208082018352878603825282519081019092528482526116d49161168e90859063ffffffff612c5e16565b60408051602081019091528881529091506116f5908263ffffffff612c8c16565b5198975050505050505050565b6000610a2e61171083610f30565b610b74846112b4565b600061179e611726612109565b61172e61124d565b6001600160a01b03166318160ddd6040518163ffffffff1660e01b815260040160206040518083038186803b15801561176657600080fd5b505afa15801561177a573d6000803e3d6000fd5b505050506040513d601f19601f82011682018060405250610f9691908101906158f0565b905090565b6117ab61124d565b6001600160a01b03166323b872dd3330846040518463ffffffff1660e01b81526004016117da93929190615c84565b602060405180830381600087803b1580156117f457600080fd5b505af1158015611808573d6000803e3d6000fd5b505050506040513d601f19601f8201168201806040525061182c9190810190615884565b5061183733826126de565b336001600160a01b03167fe1fffcc4923d04b559f4d29a8bfc6cda04eb5b0d3c460751c2402c5c5cc9109c826040516118709190615d9c565b60405180910390a250565b600261188984610f9661141c565b10156118a75760405162461bcd60e51b81526004016108f690615d8c565b6118cb338484604051806060016040528060238152602001615f1460239139612121565b60006118d784846115dc565b9050808303611913838210156513585c9ad95d60d21b7f496e73756666696369656e74206f757470757420616d6f756e740000000000006122e4565b61191d3382612cba565b81156119665784336001600160a01b03167f1cd1213d4276c260e84170b4a39025dc8398fbf744edee0709261769b456b94b8460405161195d9190615d9c565b60405180910390a35b84336001600160a01b03167f46e9903ae8ac9e9f0c9bc321b05965c1c036e7d4783758703f5cdfc4133c51b6836040516119a09190615d9c565b60405180910390a35050505050565b60006119ba82611ca3565b6119c657506000610a2e565b506001600160a01b03919091166000908152600c6020908152604080832093835260029093019052205490565b336119fe6001610d7a565b611a2f6000611a0c336112e7565b116523b7bb32b93760d11b6e4d7573742068617665207374616b6560881b6122e4565b611a388361109c565b611adb57611a78611a4833612d64565b6523b7bb32b93760d11b7f4e6f7420656e6f756768207374616b6520746f2070726f706f736500000000006122e4565b611a8983611a84612da8565b612dad565b611a9161141c565b336001600160a01b0385167fd15e38a680a427478883cd2d32eb664cb6bb2090b0126a23ebaf3e3784b8c56b611ac5612da8565b604051611ad29190615d9c565b60405180910390a45b611b0b611aea610f8d85610a4c565b611af261141c565b106523b7bb32b93760d11b64115b99195960da1b6122e4565b6000611b16336112e7565b90506000611b2433866110ce565b9050806002811115611b3257fe5b846002811115611b3e57fe5b1415611b4b575050611c89565b6002816002811115611b5957fe5b1415611b9f57611b9f85836040518060400160405280601b81526020017f476f7665726e3a20496e73756666696369656e742072656a6563740000000000815250612dd9565b6001816002811115611bad57fe5b1415611bf357611bf385836040518060400160405280601c81526020017f476f7665726e3a20496e73756666696369656e7420617070726f766500000000815250612e2a565b6002846002811115611c0157fe5b1415611c1157611c118583612e7b565b6001846002811115611c1f57fe5b1415611c2f57611c2f8583612eca565b611c3a338686612f19565b611c443386612f63565b846001600160a01b0316336001600160a01b03167fbe50c78cbc15b0864819aadea36c6499da421b33c38e2ef19bebda583c708c7886856040516119a0929190615d0d565b505050565b6000908152600d602052604090206011015490565b6000908152600d602052604090206001015490565b6000908152600d602052604090206013015490565b60055490565b6000908152600d60205260409020600f015490565b6001600160a01b03166000908152600e602052604090206005015460ff1690565b6002611d1783610f9661141c565b1015611d355760405162461bcd60e51b81526004016108f690615d8c565b611d59338383604051806060016040528060238152602001615f1460239139612121565b6000611d6583836115dc565b9050808203611d743382612cba565b8115611dbd5783336001600160a01b03167f1cd1213d4276c260e84170b4a39025dc8398fbf744edee0709261769b456b94b84604051611db49190615d9c565b60405180910390a35b83336001600160a01b03167f46e9903ae8ac9e9f0c9bc321b05965c1c036e7d4783758703f5cdfc4133c51b683604051611df79190615d9c565b60405180910390a350505050565b6000610a2e611e1261124d565b6001600160a01b03166318160ddd6040518163ffffffff1660e01b815260040160206040518083038186803b158015611e4a57600080fd5b505afa158015611e5e573d6000803e3d6000fd5b505050506040513d601f19601f82011682018060405250611e8291908101906158f0565b611e8a612109565b84612fc4565b6000908152600d60205260409020600c015490565b33611eb06002610c27565b611eb93361267a565b6000611ec66114d3611101565b9050611ed233846126de565b611ef483604051806060016040528060228152602001615f7f6022913961273a565b611f3433826040518060400160405280601d81526020017f426f6e64696e673a20696e73756666696369656e742062616c616e6365000000815250612755565b337f93530ac0ee8c50e696e13c5ac62355d0c0ba4bd943620d5bda1eb08b64ae75126115626001610b7461141c565b6000611f9c600083116513585c9ad95d60d21b7f4d757374207075726368617365206e6f6e2d7a65726f20616d6f756e740000006122e4565b611fa882610b42612109565b6000611fb261141c565b90506000611fcf611fc285611e05565b859063ffffffff61233916565b9050611fdb3385612ff1565b611fe63383836121cc565b81336001600160a01b03167fbce252db29f761f815dc2e9ea60005af065efba6eb619d2a0b2a113fdeb614148684604051612022929190615daa565b60405180910390a39392505050565b600061203b613102565b90506120473382612ac8565b336001600160a01b03167fbb4f656853bc420ad6e4321622c07eefb4ed40e3f91b35553ce14a6dff4c0981826040516120809190615d9c565b60405180910390a261209061310f565b61209861315a565b6120a061326d565b6120a861141c565b7fc30b728d1c19e5db3678b8ea9e9a063a5655071e1a325c2f7fdbca48baa906004342604051611870929190615daa565b6000908152600d60205260409020600b015490565b6001600160a01b03166000908152600e602052604090205490565b60075490565b6000908152600d602052604090205490565b6001600160a01b0384166000908152600c6020908152604080832086845260020190915290205461215990838363ffffffff6132c416565b6001600160a01b0385166000908152600c60209081526040808320878452600201825280832093909355600d9052206001015461219d90838363ffffffff6132c416565b6000848152600d60205260409020600101556008546121c390838363ffffffff6132c416565b60085550505050565b6001600160a01b0383166000908152600c60209081526040808320858452600201909152902054612203908263ffffffff61233916565b6001600160a01b0384166000908152600c60209081526040808320868452600201825280832093909355600d90522060010154612246908263ffffffff61233916565b6000838152600d602052604090206001015560085461226b908263ffffffff61233916565b600855505050565b6001600160a01b038085166000908152600c6020908152604080832093871683526003909301905220546122ae90838363ffffffff6132c416565b6001600160a01b039485166000908152600c60209081526040808320969097168252600390950190945293909220929092555050565b82611c89576122f2826132f0565b6101d160f51b612301836132f0565b60405160200161231393929190615c45565b60408051601f198184030181529082905262461bcd60e51b82526108f691600401615d1b565b600082820183811015610a885760405162461bcd60e51b81526004016108f690615d2c565b6000610a8883836040518060400160405280601a81526020017f536166654d6174683a206469766973696f6e206279207a65726f000000000000815250613370565b600d60006123ac61141c565b8152602001908152602001600020600401600401548111156123ea5780600d60006123d561141c565b81526020810191909152604001600020600801555b80600d60006123f761141c565b81526020019081526020016000206004016003015411156124345780600d600061241f61141c565b81526020810191909152604001600020600701555b50565b600d600061244361141c565b8152602001908152602001600020600401601101548111156124815780600d600061246c61141c565b81526020810191909152604001600020601501555b600d600061248d61141c565b8152602001908152602001600020600401601001548110156124345780600d60006124b661141c565b815260208101919091526040016000206014015550565b600d60006124d961141c565b8152602001908152602001600020600401600201548111156125175780600d600061250261141c565b81526020810191909152604001600020600601555b600d600061252361141c565b8152602001908152602001600020600401600101548110156124345780600d600061254c61141c565b815260208101919091526040016000206005015550565b6000600d8161257061141c565b8152602080820192909252604090810160009081206001600160a01b03989098168082526018909801909252902060048101949094555060018301919091556002820155805462010000600160b01b03191662010000909202919091179055565b6000600d816125de61141c565b815260200190815260200160002060040160050154905090565b80600d600061260561141c565b8152602001908152602001600020600401601201600084815260200190815260200160002060006101000a8154816001600160a01b0302191690836001600160a01b031602179055505050565b600d600061265e61141c565b8152602081019190915260400160002060090180546001019055565b612685611121612da8565b6001600160a01b039091166000908152600c6020526040902060040155565b6000826126b357506000610a2e565b828202828482816126c057fe5b0414610a885760405162461bcd60e51b81526004016108f690615d4c565b6001600160a01b0382166000908152600c6020526040902054612707908263ffffffff61233916565b6001600160a01b0383166000908152600c6020526040902055600554612733908263ffffffff61233916565b6005555050565b60045461274e90838363ffffffff6132c416565b6004555050565b6001600160a01b0383166000908152600c602052604090206001015461278290838363ffffffff6132c416565b6001600160a01b0384166000908152600c60205260409020600101556003546127b290838363ffffffff6132c416565b6003556040516000906001600160a01b038516907fddf252ad1be2c89b69c2b068fc378daa952ba7f163c4a11628f55a4df523b3ef906127f3908690615d9c565b60405180910390a3505050565b6001600160a01b0383166000908152600c602052604090205461282a90838363ffffffff6132c416565b6001600160a01b0384166000908152600c602052604090205560055461285790838363ffffffff6132c416565b600555505050565b6001600160a01b039283166000908152600c60209081526040808320949095168252600390930190925291902055565b6000610a8883836040518060400160405280601e81526020017f536166654d6174683a207375627472616374696f6e206f766572666c6f7700008152506132c4565b6128d9615569565b5060408051602081019091526702c68af0bb140000815290565b6128fb615569565b604051806020016040528061291985670de0b6b3a7640000866133a7565b90529392505050565b600061292e83836133bd565b6002149392505050565b612941816133ef565b60408051600481526024810182526020810180516001600160e01b031663204a7f0760e21b17905290516000916060916001600160a01b0385169161298591615c39565b600060405180830381855af49150503d80600081146129c0576040519150601f19603f3d011682016040523d82523d6000602084013e6129c5565b606091505b50915091508181906129ea5760405162461bcd60e51b81526004016108f69190615d1b565b506040516001600160a01b038416907fbc7cd75a20ee27fd9adebab32041f755214dbc6bffa90cc0225b39da2e5c2d3b90600090a2505050565b600690565b612a31615569565b506040805160208101909152670928ca80cfc20000815290565b612a53615548565b604051806060016040528060008152602001635fbef0008152602001611c20815250905090565b6000610a2e8260000151610b748460400151610c978660200151610f96613438565b609690565b6001600160a01b03166000908152600e60205260409020600501805460ff19166001179055565b612ad061124d565b6001600160a01b03166340c10f1983836040518363ffffffff1660e01b8152600401612afd929190615cd5565b602060405180830381600087803b158015612b1757600080fd5b505af1158015612b2b573d6000803e3d6000fd5b505050506040513d601f19601f82011682018060405250612b4f9190810190615884565b50612b5b61067461141c565b612b6857612b688161343c565b612b70613459565b5050565b620f424090565b6001600160a01b0382166000908152600c6020526040902060010154612ba7908263ffffffff61233916565b6001600160a01b0383166000908152600c6020526040902060010155600354612bd6908263ffffffff61233916565b6003556040516001600160a01b038316906000907fddf252ad1be2c89b69c2b068fc378daa952ba7f163c4a11628f55a4df523b3ef90610f1f908590615d9c565b600454612c2a908263ffffffff61233916565b60045550565b61016890565b610e1090565b612c44615569565b5060408051602081019091526706f05b59d3b20000815290565b612c66615569565b60405180602001604052806129198560000151670de0b6b3a764000086600001516133a7565b612c94615569565b604051806020016040528061291985600001518560000151670de0b6b3a76400006133a7565b612cc261124d565b6001600160a01b031663a9059cbb83836040518363ffffffff1660e01b8152600401612cef929190615cd5565b602060405180830381600087803b158015612d0957600080fd5b505af1158015612d1d573d6000803e3d6000fd5b505050506040513d601f19601f82011682018060405250612d419190810190615884565b50612b68816040518060600160405280602a8152602001615fc9602a913961352c565b6000612d6e611101565b612d7a57506000610a47565b612d82615569565b612d8e61116b846112e7565b9050610a88612d9b613547565b829063ffffffff61292216565b602490565b612db561141c565b6001600160a01b039092166000908152600e60205260409020918255600190910155565b6001600160a01b0383166000908152600e6020526040902060030154612e0690838363ffffffff6132c416565b6001600160a01b039093166000908152600e60205260409020600301929092555050565b6001600160a01b0383166000908152600e6020526040902060020154612e5790838363ffffffff6132c416565b6001600160a01b039093166000908152600e60205260409020600201929092555050565b6001600160a01b0382166000908152600e6020526040902060030154612ea7908263ffffffff61233916565b6001600160a01b039092166000908152600e602052604090206003019190915550565b6001600160a01b0382166000908152600e6020526040902060020154612ef6908263ffffffff61233916565b6001600160a01b039092166000908152600e602052604090206002019190915550565b6001600160a01b038083166000908152600e6020908152604080832093871683526004909301905220805482919060ff19166001836002811115612f5957fe5b0217905550505050565b6001600160a01b0382166000908152600c602052604081206005015490612f95612f8c84610a4c565b610b74856120ee565b905081811115612fbe576001600160a01b0384166000908152600c602052604090206005018190555b50505050565b6000612fe9612fe483612fd8878787613568565b9063ffffffff6136d516565b6136fc565b949350505050565b612ff961124d565b6001600160a01b03166323b872dd8330846040518463ffffffff1660e01b815260040161302893929190615cc7565b602060405180830381600087803b15801561304257600080fd5b505af1158015613056573d6000803e3d6000fd5b505050506040513d601f19601f8201168201806040525061307a9190810190615884565b5061308361124d565b6001600160a01b03166342966c68826040518263ffffffff1660e01b81526004016130ae9190615d9c565b600060405180830381600087803b1580156130c857600080fd5b505af11580156130dc573d6000803e3d6000fd5b50505050612b6881604051806060016040528060288152602001615fa160289139613719565b6802b5e3af16b188000090565b61314a61311a61141c565b61312261122a565b1166426f6e64696e6760c81b720a6e8d2d8d840c6eae4e4cadce840cae0dec6d606b1b6122e4565b613152613734565b6113bf61375b565b613162615569565b61316a613774565b90506000613181600161317b61141c565b0361383c565b905061319b61318e613850565b839063ffffffff61292216565b156131da576131a8613872565b805460ff161515600114156131ca576131ca60016131c461141c565b03613879565b6131d382613899565b50506113bf565b6131f26131e5613850565b839063ffffffff61398916565b1561323857805460ff1615156001141561322757600061321061399d565b9050613225600161321f61141c565b0361420c565b505b61322f61422e565b6131d382614399565b61324061141c565b6040517fff7db5a0dc69b02c191ba632db46961b7d0daa1bd30709ddba9b80ad0a15d2c090600090a25050565b60005b61327b61064e61141c565b8110156132a35761329b61329661329061141c565b836111fa565b614418565b600101613270565b5060006132b1611121612c30565b90506124346132be61141c565b826144c4565b600081848411156132e85760405162461bcd60e51b81526004016108f69190615d1b565b505050900390565b606080826040516020016133049190615c24565b60408051601f19818403018152919052905060205b80156133595781516000199091019082908290811061333457fe5b01602001516001600160f81b031916156133545760010181529050610a47565b613319565b505060408051600081526020810190915292915050565b600081836133915760405162461bcd60e51b81526004016108f69190615d1b565b50600083858161339d57fe5b0495945050505050565b6000612fe982610c97868663ffffffff6126a416565b8051825160009114156133d257506001610a2e565b81518351116133e25760006133e5565b60025b60ff169392505050565b6133f8816144f6565b6134145760405162461bcd60e51b81526004016108f690615d5c565b7f360894a13ba1a3210667c828492db98dca3e2076cc3735a920a3ca505d382bbc55565b4290565b613445816144fc565b613455613450614515565b614537565b6124345b6113bf61347a613467610a7f565b610b74613472611ccd565b610b74611101565b61348261124d565b6001600160a01b03166370a08231306040518263ffffffff1660e01b81526004016134ad9190615c76565b60206040518083038186803b1580156134c557600080fd5b505afa1580156134d9573d6000803e3d6000fd5b505050506040513d601f19601f820116820180604052506134fd91908101906158f0565b10156a21b7b6b83a3937b63632b960a91b74496e636f6e73697374656e742062616c616e63657360581b6122e4565b60065461354090838363ffffffff6132c416565b6006555050565b61354f615569565b5060408051602081019091526611c37937e08000815290565b613570615569565b613578615569565b61358284866128f3565b905061358c615569565b613594614515565b905060006135a8878663ffffffff61288f16565b905060006135bc878763ffffffff61288f16565b90506135c6615569565b6135d082846128f3565b90506135e2858563ffffffff61292216565b156136be576135f7818563ffffffff61292216565b1561361157613605846145ea565b95505050505050610a88565b613619615569565b6136238286614636565b905061362d615569565b61363d868463ffffffff61469316565b9050613647615569565b613650876145ea565b905061365a615569565b61366a898963ffffffff61469316565b90506136ae61367f848363ffffffff6146bc16565b611682613692858563ffffffff612c8c16565b6136a2888863ffffffff612c8c16565b9063ffffffff6146bc16565b9950505050505050505050610a88565b6136c88186614636565b9998505050505050505050565b6136dd615569565b604080516020810190915283518190612919908563ffffffff6126a416565b8051600090610a2e90670de0b6b3a764000063ffffffff61235e16565b60075461372d90838363ffffffff6132c416565b6007555050565b61373c610a79565b600d600061374861141c565b8152602081019190915260400160002055565b60025461376f90600163ffffffff61233916565b600255565b61377c615569565b613784615569565b600061378e61132d565b6001600160a01b031663d4a3e9d76040518163ffffffff1660e01b81526004016040805180830381600087803b1580156137c757600080fd5b505af11580156137db573d6000803e3d6000fd5b505050506040513d601f19601f820116820180604052506137ff91908101906158a2565b915091506138136106746001610f9661141c565b15613829576138206146e5565b92505050610a28565b8061383657613820613850565b50905090565b6000908152600d6020526040902060040190565b613858615569565b506040805160208101909152670de0b6b3a7640000815290565b6000600755565b6000908152600d60205260409020600401805461ff001916610100179055565b6138a1615569565b6138a9614707565b905060006138b5610a7f565b905060006138c1611573565b9050808210156138d6576138d361472a565b92505b6138de615569565b6139036138fd856116826138f0613850565b899063ffffffff61469316565b8661474c565b90506000613922612fe4613915611719565b849063ffffffff6136d516565b90506000806000613932846147d7565b92509250925061394061141c565b89516040517f32fcaa1e76ed9517f4749d8ec9a77dd5e7329456d740b9bf9665d900eef5e2839161397691879087908790615dd3565b60405180910390a2505050505050505050565b600061399583836133bd565b159392505050565b60006139a7614943565b1580156139b957506139b7614972565b155b156142045760006139c86149a0565b6139d06149c7565b03905060006139dd6149ee565b6139e5614a15565b03905060006139f2614a3c565b6139fa614a63565b03905060005b613a086125d1565b811015613ce0576000613a22613a1d83614a8a565b614ac8565b9050613a2c615569565b613a4a613a44612fe4846002015485600101546128f3565b876128f3565b9050613a54615569565b613a628360040154876128f3565b9050613a6c615569565b613a7a8460010154876128f3565b9050613a84615569565b613aa782613a9b613a93613850565b6136a2613850565b9063ffffffff61469316565b9050613ab1615569565b613ac285600263ffffffff614b0516565b9050613acc615569565b613add85600263ffffffff614b0516565b9050613ae7615569565b613af884600263ffffffff614b0516565b9050613b02615569565b613b16826136a2868663ffffffff6146bc16565b9050613b20615569565b613b2b61318e614b5b565b15613b4057613b3982614b76565b9050613b4b565b613b48614b5b565b90505b613b5d613b578c614a8a565b82614bf8565b613b69613a1d8c614a8a565b600f80546001808201835560009290925282547f8d1108e10bcb7c27dddfc02ed9d693a074039d026cf4ea4240b40f7d581ac8026006909202918201805460ff191660ff928316151517808255855461ff00199091166101009182900490931615150291909117808255845462010000600160b01b031990911662010000918290046001600160a01b0316909102179055828201547f8d1108e10bcb7c27dddfc02ed9d693a074039d026cf4ea4240b40f7d581ac80382015560028301547f8d1108e10bcb7c27dddfc02ed9d693a074039d026cf4ea4240b40f7d581ac80482015560038301547f8d1108e10bcb7c27dddfc02ed9d693a074039d026cf4ea4240b40f7d581ac80582015560048301547f8d1108e10bcb7c27dddfc02ed9d693a074039d026cf4ea4240b40f7d581ac8068201556005909201547f8d1108e10bcb7c27dddfc02ed9d693a074039d026cf4ea4240b40f7d581ac807909201919091559a909a019950613a0098505050505050505050565b50613ceb600f614c40565b8054613cf991600f9161557c565b5060005b600f5481101561409c57600f8181548110613d1457fe5b906000526020600020906006020160010154613d2e612109565b1061408f57613d68600f8281548110613d4357fe5b60009182526020909120600690910201546201000090046001600160a01b0316614d1c565b158015613d825750613d80600f8281548110613d4357fe5b155b1561408a57613d8f615569565b613dd5600f8381548110613d9f57fe5b906000526020600020906006020160020154600f8481548110613dbe57fe5b9060005260206000209060060201600101546128f3565b60408051602081019091526018548152909150613df990829063ffffffff61398916565b15613e08578051601855613e34565b60408051602081019091526017548152613e2990829063ffffffff61292216565b15613e345780516017555b601654600f8381548110613e4457fe5b9060005260206000209060060201600401541015613e8657600f8281548110613e6957fe5b906000526020600020906006020160040154601681905550613ed4565b601354600f8381548110613e9657fe5b9060005260206000209060060201600401541115613ed457600f8281548110613ebb57fe5b9060005260206000209060060201600401546013819055505b613edd816136fc565b601580549091019055600f805483908110613ef457fe5b6000918252602090912060046006909202010154601480549091019055600f805483908110613f1f57fe5b6000918252602090912060026006909202010154601280549091019055600f805483908110613f4a57fe5b60009182526020822060016006909202010154601180549091019055600f8054613f93919085908110613f7957fe5b906000526020600020906006020160040154610b7461141c565b9050613fee600f8481548110613fa557fe5b906000526020600020906006020160000160029054906101000a90046001600160a01b0316600f8581548110613fd757fe5b906000526020600020906006020160010154612ff1565b614048600f8481548110613ffe57fe5b906000526020600020906006020160000160029054906101000a90046001600160a01b031682600f868154811061403157fe5b9060005260206000209060060201600201546121cc565b61407e600f848154811061405857fe5b60009182526020909120600690910201546201000090046001600160a01b031684614d63565b50506010805460010190555b614094565b61409c565b600101613cfd565b50601054156141a7576140ad615569565b6140bb6015546010546128f3565b90506140c5615569565b6140d36014546010546128f3565b90506140dd615569565b6140f36064612fd8600f805490506010546128f3565b9050614100601654614e04565b61410b601354614e28565b61411c614117836136fc565b614e4c565b6040805160208101909152601854815261413e90614139906136fc565b614e70565b604080516020810190915260175481526141609061415b906136fc565b614e94565b61417161416c846136fc565b614eb8565b61418261417d826136fc565b614edc565b61418d601054614f00565b614198601254614f24565b6141a3601154614f48565b5050505b6141b3600f6000615650565b6000601081905560118190556012819055601381905560148190556015556000196016556141df614b5b565b5160175550506040805160208101909152600019908190526018555060019050610a28565b506000610a28565b6000908152600d60205260409020600401805462ff0000191662010000179055565b600d600061423a61141c565b815260208101919091526040016000206004015460ff166113bf576000600d8161426261141c565b8152602001908152602001600020600401600501819055506000196000600d01600061428c61141c565b81526020810191909152604001600090812060050191909155600d816142b061141c565b8152602001908152602001600020600401600201819055506000196000600d0160006142da61141c565b81526020810191909152604001600090812060070191909155600d816142fe61141c565b8152602001908152602001600020600401600401819055506000196000600d01600061432861141c565b81526020810191909152604001600090812060140191909155600d8161434c61141c565b81526020019081526020016000206004016011018190555060016000600d01600061437561141c565b81526020810191909152604001600020600401805460ff1916911515919091179055565b6143a1615569565b6143c16143bb6143af614f6c565b61168285613a9b613850565b8361474c565b905060006143d3612fe4613915611719565b90506143de8161343c565b6143e661141c565b83516040517f5e139d4b8080a4a00dcc151e8217694aeebae893936326aa22096924a990667791610d51918590615daa565b600061442382611ca3565b90506000808061443285614f8e565b600061443c610a7f565b90506000614448611573565b90508082111561447d57614462828263ffffffff61288f16565b945061446d85614fd1565b614476856147d7565b9095509350505b867f753df65b37159bf237ae1fca97ba1bd57cf83bc9498f271a514a4d7bafe87bda878787876040516144b39493929190615dd3565b60405180910390a250505050505050565b6000828152600d6020908152604080832060020184905592825291812060030180546001810182559082529190200155565b3b151590565b60075461450f908263ffffffff61233916565b60075550565b61451d615569565b5060408051602081019091526704db732547630000815290565b60006145b7612fe461454761124d565b6001600160a01b03166318160ddd6040518163ffffffff1660e01b815260040160206040518083038186803b15801561457f57600080fd5b505afa158015614593573d6000803e3d6000fd5b505050506040513d601f19601f8201168201806040525061391591908101906158f0565b905060006145c3612109565b905081811115611c895760006145df828463ffffffff61288f16565b9050612fbe81615058565b6145f2615569565b610a2e614601600160036128f3565b613a9b61462e614624600261461888613a9b613850565b9063ffffffff614b0516565b61168e6003615097565b611682613850565b61463e615569565b61464e838363ffffffff6150cb16565b156146635761465c836145ea565b9050610a2e565b610a88614672600160036128f3565b613a9b61462e61468487613a9b613850565b61168e61462488613a9b613850565b61469b615569565b6040805160208101909152825184518291612919919063ffffffff61288f16565b6146c4615569565b6040805160208101909152825184518291612919919063ffffffff61233916565b6146ed615569565b50604080516020810190915267155f2dd73a1a0000815290565b61470f615569565b50604080516020810190915268015af1d78b58c40000815290565b614732615569565b50604080516020810190915267e73435bb46020000815290565b614754615569565b61475c615569565b6147646150d2565b90506000614770610a7f565b9050600061477c611573565b9050614796614789613850565b869063ffffffff61292216565b80156147a157508082105b156147b1576147ae6150f3565b92505b6147c1868463ffffffff61292216565b6147cb57856147cd565b825b9695505050505050565b60008080808080806147e7610a7f565b905060006147f3611573565b9050808210156148b05761480d818363ffffffff61288f16565b9450614835614824606461481f615114565b61288f565b610c9787606463ffffffff6126a416565b94508885116148445784614846565b885b94506148656064610c97614858615114565b889063ffffffff6126a416565b9250614877858463ffffffff61288f16565b945061488283615119565b61488b856151ad565b61489b898463ffffffff61288f16565b98506148ad898663ffffffff61288f16565b98505b60006148ba612109565b905060008a1180156148cc5750600081115b156148fe578981116148de57806148e0565b895b94506148eb85615058565b6148fb8a8663ffffffff61288f16565b99505b614906611101565b61490f57600099505b891561491e5761491e8a61523e565b85856149308c8763ffffffff61233916565b9850985098505050505050509193909250565b6000600d8161495061141c565b815260208101919091526040016000206004015462010000900460ff16919050565b6000600d8161497f61141c565b8152602081019190915260400160002060040154610100900460ff16919050565b6000600d816149ad61141c565b815260200190815260200160002060040160030154905090565b6000600d816149d461141c565b815260200190815260200160002060040160040154905090565b6000600d816149fb61141c565b815260200190815260200160002060040160010154905090565b6000600d81614a2261141c565b815260200190815260200160002060040160020154905090565b6000600d81614a4961141c565b815260200190815260200160002060040160100154905090565b6000600d81614a7061141c565b815260200190815260200160002060040160110154905090565b6000600d81614a9761141c565b8152602080820192909252604090810160009081208582526016019092529020546001600160a01b03169050919050565b6000600d81614ad561141c565b8152602080820192909252604090810160009081206001600160a01b038616825260180190925290209050919050565b614b0d615569565b81614b1c5761465c6001615097565b614b24615569565b5060408051602081019091528351815260015b83811015614b5357614b498286612c8c565b9150600101614b37565b509392505050565b614b63615569565b5060408051602081019091526000815290565b614b7e615569565b614b86615569565b614ba86002614b9c85600163ffffffff6152de16565b9063ffffffff61531b16565b90508291505b614bbe818363ffffffff61398916565b15614bf257905080614beb6002614b9c614bde848063ffffffff6146bc16565b869063ffffffff612c5e16565b9050614bae565b50919050565b80600d6000614c0561141c565b8152602080820192909252604090810160009081206001600160a01b0390961681526018909501909152909220915160039092019190915550565b6000614d1882805480602002602001604051908101604052809291908181526020016000905b82821015614d0557600084815260209081902060408051610100808201835260068702909301805460ff80821615158452948104909416151582860152620100009093046001600160a01b03168183015260018084015460608301526002840154608083015282518086019093526003840154835260a0820192909252600483015460c082015260059092015460e08301529083529092019101614c66565b5050855460009250600019019050615342565b5090565b6000600d81614d2961141c565b8152602080820192909252604090810160009081206001600160a01b038616825260180190925290205460ff610100909104169050919050565b6001600d6000614d7161141c565b8152602080820192909252604090810160009081206001600160a01b03871682526018019092528120805460ff1916921515929092179091558290600d90614db761141c565b8152602001908152602001600020600401601301600083815260200190815260200160002060006101000a8154816001600160a01b0302191690836001600160a01b031602179055505050565b80600d6000614e1161141c565b815260208101919091526040016000206011015550565b80600d6000614e3561141c565b815260208101919091526040016000206012015550565b80600d6000614e5961141c565b815260208101919091526040016000206013015550565b80600d6000614e7d61141c565b81526020810191909152604001600020600e015550565b80600d6000614ea161141c565b81526020810191909152604001600020600f015550565b80600d6000614ec561141c565b815260208101919091526040016000206010015550565b80600d6000614ee961141c565b81526020810191909152604001600020600b015550565b80600d6000614f0d61141c565b81526020810191909152604001600020600a015550565b80600d6000614f3161141c565b81526020810191909152604001600020600c015550565b80600d6000614f5561141c565b81526020810191909152604001600020600d015550565b614f74615569565b506040805160208101909152674563918244f40000815290565b6000614f9982611ca3565b905080614fa65750612434565b600854614fb9908263ffffffff61288f16565b600855506000908152600d6020526040812060010155565b614fd961124d565b6001600160a01b03166342966c68826040518263ffffffff1660e01b81526004016150049190615d9c565b600060405180830381600087803b15801561501e57600080fd5b505af1158015615032573d6000803e3d6000fd5b50505050613455816040518060600160405280602a8152602001615fc9602a913961352c565b613455816040518060400160405280601c81526020017f436f6d7074726f6c6c65723a206e6f7420656e6f756768206465627400000000815250613719565b61509f615569565b6040805160208101909152806150c384670de0b6b3a764000063ffffffff6126a416565b905292915050565b5190511490565b6150da615569565b50604080516020810190915266470de4df820000815290565b6150fb615569565b506040805160208101909152666a94d74f430000815290565b602890565b80156124345761512761124d565b6001600160a01b03166340c10f1961513d610a6a565b836040518363ffffffff1660e01b815260040161515b929190615cd5565b602060405180830381600087803b15801561517557600080fd5b505af1158015615189573d6000803e3d6000fd5b505050506040513d601f19601f82011682018060405250612b709190810190615884565b6151b561124d565b6001600160a01b03166340c10f1930836040518363ffffffff1660e01b81526004016151e2929190615cd5565b602060405180830381600087803b1580156151fc57600080fd5b505af1158015615210573d6000803e3d6000fd5b505050506040513d601f19601f820116820180604052506152349190810190615884565b5061345581615498565b615281600061524b611101565b116a21b7b6b83a3937b63632b960a91b7f43616e74206d696e7420746f20656d70747920706f6f6c0000000000000000006122e4565b60006152a06064610c97615293615114565b859063ffffffff6126a416565b905060008183116152b25760006152c2565b6152c2838363ffffffff61288f16565b90506152cd82615119565b6152d6816154b1565b611c89613459565b6152e6615569565b60408051602081019091528061291961530d85670de0b6b3a764000063ffffffff6126a416565b86519063ffffffff61233916565b615323615569565b604080516020810190915283518190612919908563ffffffff61235e16565b818180821415615353575050611c89565b61535b615569565b8560028686030586018151811061536e57fe5b602002602001015160a0015190505b81831361546a575b6153af8187858151811061539557fe5b602002602001015160a0015161398990919063ffffffff16565b156153bf57600190920191615385565b6153e98683815181106153ce57fe5b602002602001015160a001518261398990919063ffffffff16565b156153fa57600019909101906153bf565b8183136154655785828151811061540d57fe5b602002602001015186848151811061542157fe5b602002602001015187858151811061543557fe5b6020026020010188858151811061544857fe5b602090810291909101019190915252600190920191600019909101905b61537d565b8185121561547d5761547d868684615342565b8383121561549057615490868486615342565b505050505050565b6006546154ab908263ffffffff61233916565b60065550565b8015612434576154bf61124d565b6001600160a01b03166340c10f1930836040518363ffffffff1660e01b81526004016154ec929190615cd5565b602060405180830381600087803b15801561550657600080fd5b505af115801561551a573d6000803e3d6000fd5b505050506040513d601f19601f8201168201806040525061553e9190810190615884565b5061243481612c17565b60405180606001604052806000815260200160008152602001600081525090565b6040518060200160405280600081525090565b8280548282559060005260206000209060060281019282156156445760005260206000209160060282015b82811115615644578254825460ff191660ff918216151517808455845461ff00199091166101009182900490921615150217808355835462010000600160b01b031990911662010000918290046001600160a01b03169091021782556001808401549083015560028084015490830155600380840154908301556004808401549083015560058084015490830155600692830192909101906155a7565b50614d1892915061566d565b508054600082556006029060005260206000209081019061243491905b610a2891905b80821115614d185780546001600160b01b03191681556000600182018190556002820181905560038201819055600482018190556005820155600601615673565b8035610a2e81615ee0565b8051610a2e81615ef4565b8035610a2e81615efd565b6000602082840312156156e757600080fd5b6156f16020615e16565b905060006156ff8484615713565b82525092915050565b8035610a2e81615f0a565b8051610a2e81615f0a565b60006020828403121561573057600080fd5b6000612fe984846156b4565b6000806040838503121561574f57600080fd5b600061575b85856156b4565b925050602061576c858286016156b4565b9150509250929050565b60008060006060848603121561578b57600080fd5b600061579786866156b4565b93505060206157a8868287016156b4565b92505060406157b986828701615708565b9150509250925092565b600080600080608085870312156157d957600080fd5b60006157e587876156b4565b94505060206157f6878288016156b4565b935050604061580787828801615708565b925050606061581887828801615708565b91505092959194509250565b6000806040838503121561583757600080fd5b600061584385856156b4565b925050602061576c858286016156ca565b6000806040838503121561586757600080fd5b600061587385856156b4565b925050602061576c85828601615708565b60006020828403121561589657600080fd5b6000612fe984846156bf565b600080604083850312156158b557600080fd5b60006158c185856156d5565b925050602061576c858286016156bf565b6000602082840312156158e457600080fd5b6000612fe98484615708565b60006020828403121561590257600080fd5b6000612fe98484615713565b6000806040838503121561592157600080fd5b60006158738585615708565b60008060006060848603121561594257600080fd5b600061594e8686615708565b93505060206157a886828701615708565b61596881615e83565b82525050565b61596881615e4a565b61596881615e55565b61596861598c82615e5a565b610a28565b61596861598c82610a28565b60006159a882615e3d565b6159b28185610a47565b93506159c2818560208601615ea0565b9290920192915050565b61596881615e8a565b61596881615e95565b60006159e982615e3d565b6159f38185615e41565b9350615a03818560208601615ea0565b615a0c81615ecc565b9093019392505050565b6000615a23601b83615e41565b7f536166654d6174683a206164646974696f6e206f766572666c6f770000000000815260200192915050565b6000615a5c602b83615e41565b7f4d61726b65743a20436f75706f6e207472616e7366657220746f20746865207a81526a65726f206164647265737360a81b602082015260400192915050565b6000615aa9602183615e41565b7f536166654d6174683a206d756c7469706c69636174696f6e206f766572666c6f8152607760f81b602082015260400192915050565b6000615aec603b83615e41565b7f43616e6e6f742073657420612070726f787920696d706c656d656e746174696f81527f6e20746f2061206e6f6e2d636f6e747261637420616464726573730000000000602082015260400192915050565b6000615b4b602a83615e41565b7f4d61726b65743a20436f75706f6e20617070726f766520746f20746865207a65815269726f206164647265737360b01b602082015260400192915050565b6000615b97602d83615e41565b7f4d61726b65743a20436f75706f6e207472616e736665722066726f6d2074686581526c207a65726f206164647265737360981b602082015260400192915050565b6000615be6601b83615e41565b7f4d61726b65743a20546f6f206561726c7920746f2072656465656d0000000000815260200192915050565b61596881610a28565b61596881615e7d565b6000615c308284615991565b50602001919050565b6000610a88828461599d565b6000615c51828661599d565b9150615c5d8285615980565b600282019150615c6d828461599d565b95945050505050565b60208101610a2e828461596e565b60608101615c92828661595f565b615c9f602083018561596e565b612fe96040830184615c12565b60408101615cba828561595f565b610a886020830184615c12565b60608101615c92828661596e565b60408101615cba828561596e565b60208101610a2e8284615977565b60208101610a2e82846159cc565b60208101610a2e82846159d5565b60408101615cba82856159d5565b60208082528101610a8881846159de565b60208082528101610a2e81615a16565b60208082528101610a2e81615a4f565b60208082528101610a2e81615a9c565b60208082528101610a2e81615adf565b60208082528101610a2e81615b3e565b60208082528101610a2e81615b8a565b60208082528101610a2e81615bd9565b60208101610a2e8284615c12565b60408101615cba8285615c12565b60608101615dc68286615c12565b615c9f6020830185615c12565b60808101615de18287615c12565b615dee6020830186615c12565b615dfb6040830185615c12565b615c6d6060830184615c12565b60208101610a2e8284615c1b565b60405181810167ffffffffffffffff81118282101715615e3557600080fd5b604052919050565b5190565b90815260200190565b6000610a2e82615e71565b151590565b6001600160f01b03191690565b80610a4781615ed6565b6001600160a01b031690565b60ff1690565b6000610a2e825b6000610a2e82615e4a565b6000610a2e82615e67565b60005b83811015615ebb578181015183820152602001615ea3565b83811115612fbe5750506000910152565b601f01601f191690565b6003811061243457fe5b615ee981615e4a565b811461243457600080fd5b615ee981615e55565b6003811061243457600080fd5b615ee981610a2856fe4d61726b65743a20496e73756666696369656e7420636f75706f6e2062616c616e6365426f6e64696e673a20696e73756666696369656e74207374616765642062616c616e63654d61726b65743a20496e73756666696369656e7420636f75706f6e20617070726f76616c426f6e64696e673a20696e73756666696369656e7420746f74616c20626f6e646564436f6d7074726f6c6c65723a206e6f7420656e6f756768206f75747374616e64696e672064656274436f6d7074726f6c6c65723a206e6f7420656e6f7567682072656465656d61626c652062616c616e6365a365627a7a7231582086e7c64973ab7ce00436d564b81883499b87070c1e19d76581fe4463aaf3345b6c6578706572696d656e74616cf564736f6c63430005110040",
  "source": "/*\n    Copyright 2020 Dynamic Dollar Devs, based on the works of the Empty Set Squad\n\n    Licensed under the Apache License, Version 2.0 (the \"License\");\n    you may not use this file except in compliance with the License.\n    You may obtain a copy of the License at\n\n    http://www.apache.org/licenses/LICENSE-2.0\n\n    Unless required by applicable law or agreed to in writing, software\n    distributed under the License is distributed on an \"AS IS\" BASIS,\n    WITHOUT WARRANTIES OR CONDITIONS OF ANY KIND, either express or implied.\n    See the License for the specific language governing permissions and\n    limitations under the License.\n*/\n\npragma solidity ^0.5.17;\npragma experimental ABIEncoderV2;\n\nimport \"@openzeppelin/contracts/math/SafeMath.sol\";\nimport \"./Market.sol\";\nimport \"./Regulator.sol\";\nimport \"./Bonding.sol\";\nimport \"./Govern.sol\";\nimport \"../Constants.sol\";\n\ncontract Implementation is State, Bonding, Market, Regulator, Govern {\n    using SafeMath for uint256;\n\n    event Advance(uint256 indexed epoch, uint256 block, uint256 timestamp);\n    event Incentivization(address indexed account, uint256 amount);\n\n    function initialize() initializer public {\n        // committer reward:\n        mintToAccount(msg.sender, 100e18); // 100 DSD to committer\n        // contributor  rewards:\n        mintToAccount(0x61105dD0b0deD973BC94BB054f314c46A0234B06, 1000e18); // 1000 DSD to @cinquemb\n    }\n\n    function advance() external incentivized {\n        Bonding.step();\n        Regulator.step();\n        Market.step();\n\n        emit Advance(epoch(), block.number, block.timestamp);\n    }\n\n    modifier incentivized {\n        // Mint advance reward to sender\n        uint256 incentive = Constants.getAdvanceIncentive();\n        mintToAccount(msg.sender, incentive);\n        emit Incentivization(msg.sender, incentive);\n        _;\n    }\n}\n",
  "sourcePath": "/Users/cinquemb/Documents/Startups/crypto/dollar/protocol/contracts/dao/Implementation.sol",
  "compiler": {
    "name": "solc",
    "version": "0.5.17+commit.d19bba13.Emscripten.clang"
  },
  "schemaVersion": "3.3.3",
  "updatedAt": "2021-01-12T11:27:05.800Z",
  "devdoc": {
    "methods": {}
  },
  "userdoc": {
    "methods": {
      "balanceOfStaged(address)": {
        "notice": "Account"
      },
      "dollar()": {
        "notice": "Global"
      },
      "epoch()": {
        "notice": "Epoch"
      },
      "name()": {
        "notice": "ERC20 Interface"
      },
      "recordedVote(address,address)": {
        "notice": "Governance"
      },
      "transfer(address,uint256)": {
        "notice": "ERC20 Interface"
      }
    }
  }
}