{
  "contractName": "Implementation",
  "abi": [
    {
      "anonymous": false,
      "inputs": [
        {
          "indexed": true,
          "internalType": "uint256",
          "name": "epoch",
          "type": "uint256"
        },
        {
          "indexed": false,
          "internalType": "uint256",
          "name": "block",
          "type": "uint256"
        },
        {
          "indexed": false,
          "internalType": "uint256",
          "name": "timestamp",
          "type": "uint256"
        }
      ],
      "name": "Advance",
      "type": "event"
    },
    {
      "anonymous": false,
      "inputs": [
        {
          "indexed": true,
          "internalType": "address",
          "name": "account",
          "type": "address"
        },
        {
          "indexed": false,
          "internalType": "uint256",
          "name": "start",
          "type": "uint256"
        },
        {
          "indexed": false,
          "internalType": "uint256",
          "name": "value",
          "type": "uint256"
        },
        {
          "indexed": false,
          "internalType": "uint256",
          "name": "valueUnderlying",
          "type": "uint256"
        }
      ],
      "name": "Bond",
      "type": "event"
    },
    {
      "anonymous": false,
      "inputs": [
        {
          "indexed": true,
          "internalType": "address",
          "name": "account",
          "type": "address"
        },
        {
          "indexed": true,
          "internalType": "address",
          "name": "candidate",
          "type": "address"
        }
      ],
      "name": "Commit",
      "type": "event"
    },
    {
      "anonymous": false,
      "inputs": [
        {
          "indexed": true,
          "internalType": "address",
          "name": "owner",
          "type": "address"
        },
        {
          "indexed": true,
          "internalType": "address",
          "name": "spender",
          "type": "address"
        },
        {
          "indexed": false,
          "internalType": "uint256",
          "name": "value",
          "type": "uint256"
        }
      ],
      "name": "CouponApproval",
      "type": "event"
    },
    {
      "anonymous": false,
      "inputs": [
        {
          "indexed": true,
          "internalType": "address",
          "name": "account",
          "type": "address"
        },
        {
          "indexed": true,
          "internalType": "uint256",
          "name": "epoch",
          "type": "uint256"
        },
        {
          "indexed": false,
          "internalType": "uint256",
          "name": "dollarAmount",
          "type": "uint256"
        },
        {
          "indexed": false,
          "internalType": "uint256",
          "name": "maxCouponAmount",
          "type": "uint256"
        }
      ],
      "name": "CouponBidPlaced",
      "type": "event"
    },
    {
      "anonymous": false,
      "inputs": [
        {
          "indexed": true,
          "internalType": "address",
          "name": "account",
          "type": "address"
        },
        {
          "indexed": true,
          "internalType": "uint256",
          "name": "epoch",
          "type": "uint256"
        },
        {
          "indexed": false,
          "internalType": "uint256",
          "name": "couponAmount",
          "type": "uint256"
        }
      ],
      "name": "CouponBurn",
      "type": "event"
    },
    {
      "anonymous": false,
      "inputs": [
        {
          "indexed": true,
          "internalType": "uint256",
          "name": "epoch",
          "type": "uint256"
        },
        {
          "indexed": false,
          "internalType": "uint256",
          "name": "couponsExpired",
          "type": "uint256"
        },
        {
          "indexed": false,
          "internalType": "uint256",
          "name": "lessRedeemable",
          "type": "uint256"
        },
        {
          "indexed": false,
          "internalType": "uint256",
          "name": "lessDebt",
          "type": "uint256"
        },
        {
          "indexed": false,
          "internalType": "uint256",
          "name": "newBonded",
          "type": "uint256"
        }
      ],
      "name": "CouponExpiration",
      "type": "event"
    },
    {
      "anonymous": false,
      "inputs": [
        {
          "indexed": true,
          "internalType": "address",
          "name": "account",
          "type": "address"
        },
        {
          "indexed": true,
          "internalType": "uint256",
          "name": "epoch",
          "type": "uint256"
        },
        {
          "indexed": false,
          "internalType": "uint256",
          "name": "dollarAmount",
          "type": "uint256"
        },
        {
          "indexed": false,
          "internalType": "uint256",
          "name": "couponAmount",
          "type": "uint256"
        }
      ],
      "name": "CouponPurchase",
      "type": "event"
    },
    {
      "anonymous": false,
      "inputs": [
        {
          "indexed": true,
          "internalType": "address",
          "name": "account",
          "type": "address"
        },
        {
          "indexed": true,
          "internalType": "uint256",
          "name": "epoch",
          "type": "uint256"
        },
        {
          "indexed": false,
          "internalType": "uint256",
          "name": "couponAmount",
          "type": "uint256"
        }
      ],
      "name": "CouponRedemption",
      "type": "event"
    },
    {
      "anonymous": false,
      "inputs": [
        {
          "indexed": true,
          "internalType": "address",
          "name": "from",
          "type": "address"
        },
        {
          "indexed": true,
          "internalType": "address",
          "name": "to",
          "type": "address"
        },
        {
          "indexed": true,
          "internalType": "uint256",
          "name": "epoch",
          "type": "uint256"
        },
        {
          "indexed": false,
          "internalType": "uint256",
          "name": "value",
          "type": "uint256"
        }
      ],
      "name": "CouponTransfer",
      "type": "event"
    },
    {
      "anonymous": false,
      "inputs": [
        {
          "indexed": true,
          "internalType": "address",
          "name": "account",
          "type": "address"
        },
        {
          "indexed": false,
          "internalType": "uint256",
          "name": "value",
          "type": "uint256"
        }
      ],
      "name": "Deposit",
      "type": "event"
    },
    {
      "anonymous": false,
      "inputs": [
        {
          "indexed": true,
          "internalType": "address",
          "name": "account",
          "type": "address"
        },
        {
          "indexed": false,
          "internalType": "uint256",
          "name": "amount",
          "type": "uint256"
        }
      ],
      "name": "Incentivization",
      "type": "event"
    },
    {
      "anonymous": false,
      "inputs": [
        {
          "indexed": true,
          "internalType": "address",
          "name": "candidate",
          "type": "address"
        },
        {
          "indexed": true,
          "internalType": "address",
          "name": "account",
          "type": "address"
        },
        {
          "indexed": true,
          "internalType": "uint256",
          "name": "start",
          "type": "uint256"
        },
        {
          "indexed": false,
          "internalType": "uint256",
          "name": "period",
          "type": "uint256"
        }
      ],
      "name": "Proposal",
      "type": "event"
    },
    {
      "anonymous": false,
      "inputs": [
        {
          "indexed": true,
          "internalType": "uint256",
          "name": "epoch",
          "type": "uint256"
        },
        {
          "indexed": false,
          "internalType": "uint256",
          "name": "price",
          "type": "uint256"
        },
        {
          "indexed": false,
          "internalType": "uint256",
          "name": "newDebt",
          "type": "uint256"
        }
      ],
      "name": "SupplyDecrease",
      "type": "event"
    },
    {
      "anonymous": false,
      "inputs": [
        {
          "indexed": true,
          "internalType": "uint256",
          "name": "epoch",
          "type": "uint256"
        },
        {
          "indexed": false,
          "internalType": "uint256",
          "name": "price",
          "type": "uint256"
        },
        {
          "indexed": false,
          "internalType": "uint256",
          "name": "newRedeemable",
          "type": "uint256"
        },
        {
          "indexed": false,
          "internalType": "uint256",
          "name": "lessDebt",
          "type": "uint256"
        },
        {
          "indexed": false,
          "internalType": "uint256",
          "name": "newBonded",
          "type": "uint256"
        }
      ],
      "name": "SupplyIncrease",
      "type": "event"
    },
    {
      "anonymous": false,
      "inputs": [
        {
          "indexed": true,
          "internalType": "uint256",
          "name": "epoch",
          "type": "uint256"
        }
      ],
      "name": "SupplyNeutral",
      "type": "event"
    },
    {
      "anonymous": false,
      "inputs": [
        {
          "indexed": true,
          "internalType": "address",
          "name": "from",
          "type": "address"
        },
        {
          "indexed": true,
          "internalType": "address",
          "name": "to",
          "type": "address"
        },
        {
          "indexed": false,
          "internalType": "uint256",
          "name": "value",
          "type": "uint256"
        }
      ],
      "name": "Transfer",
      "type": "event"
    },
    {
      "anonymous": false,
      "inputs": [
        {
          "indexed": true,
          "internalType": "address",
          "name": "account",
          "type": "address"
        },
        {
          "indexed": false,
          "internalType": "uint256",
          "name": "start",
          "type": "uint256"
        },
        {
          "indexed": false,
          "internalType": "uint256",
          "name": "value",
          "type": "uint256"
        },
        {
          "indexed": false,
          "internalType": "uint256",
          "name": "valueUnderlying",
          "type": "uint256"
        }
      ],
      "name": "Unbond",
      "type": "event"
    },
    {
      "anonymous": false,
      "inputs": [
        {
          "indexed": true,
          "internalType": "address",
          "name": "implementation",
          "type": "address"
        }
      ],
      "name": "Upgraded",
      "type": "event"
    },
    {
      "anonymous": false,
      "inputs": [
        {
          "indexed": true,
          "internalType": "address",
          "name": "account",
          "type": "address"
        },
        {
          "indexed": true,
          "internalType": "address",
          "name": "candidate",
          "type": "address"
        },
        {
          "indexed": false,
          "internalType": "enum Candidate.Vote",
          "name": "vote",
          "type": "uint8"
        },
        {
          "indexed": false,
          "internalType": "uint256",
          "name": "bonded",
          "type": "uint256"
        }
      ],
      "name": "Vote",
      "type": "event"
    },
    {
      "anonymous": false,
      "inputs": [
        {
          "indexed": true,
          "internalType": "address",
          "name": "account",
          "type": "address"
        },
        {
          "indexed": false,
          "internalType": "uint256",
          "name": "value",
          "type": "uint256"
        }
      ],
      "name": "Withdraw",
      "type": "event"
    },
    {
      "constant": true,
      "inputs": [
        {
          "internalType": "address",
          "name": "owner",
          "type": "address"
        },
        {
          "internalType": "address",
          "name": "spender",
          "type": "address"
        }
      ],
      "name": "allowance",
      "outputs": [
        {
          "internalType": "uint256",
          "name": "",
          "type": "uint256"
        }
      ],
      "payable": false,
      "stateMutability": "view",
      "type": "function"
    },
    {
      "constant": true,
      "inputs": [
        {
          "internalType": "address",
          "name": "owner",
          "type": "address"
        },
        {
          "internalType": "address",
          "name": "spender",
          "type": "address"
        }
      ],
      "name": "allowanceCoupons",
      "outputs": [
        {
          "internalType": "uint256",
          "name": "",
          "type": "uint256"
        }
      ],
      "payable": false,
      "stateMutability": "view",
      "type": "function"
    },
    {
      "constant": false,
      "inputs": [
        {
          "internalType": "address",
          "name": "spender",
          "type": "address"
        },
        {
          "internalType": "uint256",
          "name": "amount",
          "type": "uint256"
        }
      ],
      "name": "approve",
      "outputs": [
        {
          "internalType": "bool",
          "name": "",
          "type": "bool"
        }
      ],
      "payable": false,
      "stateMutability": "nonpayable",
      "type": "function"
    },
    {
      "constant": false,
      "inputs": [
        {
          "internalType": "address",
          "name": "spender",
          "type": "address"
        },
        {
          "internalType": "uint256",
          "name": "amount",
          "type": "uint256"
        }
      ],
      "name": "approveCoupons",
      "outputs": [],
      "payable": false,
      "stateMutability": "nonpayable",
      "type": "function"
    },
    {
      "constant": true,
      "inputs": [
        {
          "internalType": "address",
          "name": "candidate",
          "type": "address"
        }
      ],
      "name": "approveFor",
      "outputs": [
        {
          "internalType": "uint256",
          "name": "",
          "type": "uint256"
        }
      ],
      "payable": false,
      "stateMutability": "view",
      "type": "function"
    },
    {
      "constant": true,
      "inputs": [
        {
          "internalType": "address",
          "name": "account",
          "type": "address"
        }
      ],
      "name": "balanceOf",
      "outputs": [
        {
          "internalType": "uint256",
          "name": "",
          "type": "uint256"
        }
      ],
      "payable": false,
      "stateMutability": "view",
      "type": "function"
    },
    {
      "constant": true,
      "inputs": [
        {
          "internalType": "address",
          "name": "account",
          "type": "address"
        }
      ],
      "name": "balanceOfBonded",
      "outputs": [
        {
          "internalType": "uint256",
          "name": "",
          "type": "uint256"
        }
      ],
      "payable": false,
      "stateMutability": "view",
      "type": "function"
    },
    {
      "constant": true,
      "inputs": [
        {
          "internalType": "address",
          "name": "account",
          "type": "address"
        },
        {
          "internalType": "uint256",
          "name": "epoch",
          "type": "uint256"
        }
      ],
      "name": "balanceOfCoupons",
      "outputs": [
        {
          "internalType": "uint256",
          "name": "",
          "type": "uint256"
        }
      ],
      "payable": false,
      "stateMutability": "view",
      "type": "function"
    },
    {
      "constant": true,
      "inputs": [
        {
          "internalType": "address",
          "name": "account",
          "type": "address"
        }
      ],
      "name": "balanceOfStaged",
      "outputs": [
        {
          "internalType": "uint256",
          "name": "",
          "type": "uint256"
        }
      ],
      "payable": false,
      "stateMutability": "view",
      "type": "function"
    },
    {
      "constant": false,
      "inputs": [
        {
          "internalType": "uint256",
          "name": "value",
          "type": "uint256"
        }
      ],
      "name": "bond",
      "outputs": [],
      "payable": false,
      "stateMutability": "nonpayable",
      "type": "function"
    },
    {
      "constant": true,
      "inputs": [
        {
          "internalType": "uint256",
          "name": "epoch",
          "type": "uint256"
        }
      ],
      "name": "bootstrappingAt",
      "outputs": [
        {
          "internalType": "bool",
          "name": "",
          "type": "bool"
        }
      ],
      "payable": false,
      "stateMutability": "view",
      "type": "function"
    },
    {
      "constant": false,
      "inputs": [
        {
          "internalType": "address",
          "name": "candidate",
          "type": "address"
        }
      ],
      "name": "commit",
      "outputs": [],
      "payable": false,
      "stateMutability": "nonpayable",
      "type": "function"
    },
    {
      "constant": true,
      "inputs": [
        {
          "internalType": "uint256",
          "name": "amount",
          "type": "uint256"
        }
      ],
      "name": "couponPremium",
      "outputs": [
        {
          "internalType": "uint256",
          "name": "",
          "type": "uint256"
        }
      ],
      "payable": false,
      "stateMutability": "view",
      "type": "function"
    },
    {
      "constant": true,
      "inputs": [
        {
          "internalType": "uint256",
          "name": "couponEpoch",
          "type": "uint256"
        },
        {
          "internalType": "uint256",
          "name": "couponAmount",
          "type": "uint256"
        }
      ],
      "name": "couponRedemptionPenalty",
      "outputs": [
        {
          "internalType": "uint256",
          "name": "",
          "type": "uint256"
        }
      ],
      "payable": false,
      "stateMutability": "view",
      "type": "function"
    },
    {
      "constant": true,
      "inputs": [
        {
          "internalType": "uint256",
          "name": "epoch",
          "type": "uint256"
        }
      ],
      "name": "couponsExpiration",
      "outputs": [
        {
          "internalType": "uint256",
          "name": "",
          "type": "uint256"
        }
      ],
      "payable": false,
      "stateMutability": "view",
      "type": "function"
    },
    {
      "constant": true,
      "inputs": [],
      "name": "decimals",
      "outputs": [
        {
          "internalType": "uint8",
          "name": "",
          "type": "uint8"
        }
      ],
      "payable": false,
      "stateMutability": "view",
      "type": "function"
    },
    {
      "constant": false,
      "inputs": [
        {
          "internalType": "uint256",
          "name": "value",
          "type": "uint256"
        }
      ],
      "name": "deposit",
      "outputs": [],
      "payable": false,
      "stateMutability": "nonpayable",
      "type": "function"
    },
    {
      "constant": true,
      "inputs": [],
      "name": "dollar",
      "outputs": [
        {
          "internalType": "contract IDollar",
          "name": "",
          "type": "address"
        }
      ],
      "payable": false,
      "stateMutability": "view",
      "type": "function"
    },
    {
      "constant": false,
      "inputs": [
        {
          "internalType": "address",
          "name": "candidate",
          "type": "address"
        }
      ],
      "name": "emergencyCommit",
      "outputs": [],
      "payable": false,
      "stateMutability": "nonpayable",
      "type": "function"
    },
    {
      "constant": true,
      "inputs": [],
      "name": "epoch",
      "outputs": [
        {
          "internalType": "uint256",
          "name": "",
          "type": "uint256"
        }
      ],
      "payable": false,
      "stateMutability": "view",
      "type": "function"
    },
    {
      "constant": true,
      "inputs": [],
      "name": "epochTime",
      "outputs": [
        {
          "internalType": "uint256",
          "name": "",
          "type": "uint256"
        }
      ],
      "payable": false,
      "stateMutability": "view",
      "type": "function"
    },
    {
      "constant": true,
      "inputs": [
        {
          "internalType": "uint256",
          "name": "epoch",
          "type": "uint256"
        }
      ],
      "name": "expiringCoupons",
      "outputs": [
        {
          "internalType": "uint256",
          "name": "",
          "type": "uint256"
        }
      ],
      "payable": false,
      "stateMutability": "view",
      "type": "function"
    },
    {
      "constant": true,
      "inputs": [
        {
          "internalType": "uint256",
          "name": "epoch",
          "type": "uint256"
        },
        {
          "internalType": "uint256",
          "name": "i",
          "type": "uint256"
        }
      ],
      "name": "expiringCouponsAtIndex",
      "outputs": [
        {
          "internalType": "uint256",
          "name": "",
          "type": "uint256"
        }
      ],
      "payable": false,
      "stateMutability": "view",
      "type": "function"
    },
    {
      "constant": true,
      "inputs": [
        {
          "internalType": "address",
          "name": "account",
          "type": "address"
        }
      ],
      "name": "fluidUntil",
      "outputs": [
        {
          "internalType": "uint256",
          "name": "",
          "type": "uint256"
        }
      ],
      "payable": false,
      "stateMutability": "view",
      "type": "function"
    },
    {
      "constant": true,
      "inputs": [
        {
          "internalType": "uint256",
          "name": "epoch",
          "type": "uint256"
        }
      ],
      "name": "getAvgExpiryFilled",
      "outputs": [
        {
          "internalType": "uint256",
          "name": "",
          "type": "uint256"
        }
      ],
      "payable": false,
      "stateMutability": "view",
      "type": "function"
    },
    {
      "constant": true,
      "inputs": [
        {
          "internalType": "uint256",
          "name": "epoch",
          "type": "uint256"
        }
      ],
      "name": "getAvgYieldFilled",
      "outputs": [
        {
          "internalType": "uint256",
          "name": "",
          "type": "uint256"
        }
      ],
      "payable": false,
      "stateMutability": "view",
      "type": "function"
    },
    {
      "constant": true,
      "inputs": [
        {
          "internalType": "uint256",
          "name": "epoch",
          "type": "uint256"
        }
      ],
      "name": "getBidToCover",
      "outputs": [
        {
          "internalType": "uint256",
          "name": "",
          "type": "uint256"
        }
      ],
      "payable": false,
      "stateMutability": "view",
      "type": "function"
    },
    {
      "constant": true,
      "inputs": [
        {
          "internalType": "uint256",
          "name": "epoch",
          "type": "uint256"
        }
      ],
      "name": "getMaxExpiryFilled",
      "outputs": [
        {
          "internalType": "uint256",
          "name": "",
          "type": "uint256"
        }
      ],
      "payable": false,
      "stateMutability": "view",
      "type": "function"
    },
    {
      "constant": true,
      "inputs": [
        {
          "internalType": "uint256",
          "name": "epoch",
          "type": "uint256"
        }
      ],
      "name": "getMaxYieldFilled",
      "outputs": [
        {
          "internalType": "uint256",
          "name": "",
          "type": "uint256"
        }
      ],
      "payable": false,
      "stateMutability": "view",
      "type": "function"
    },
    {
      "constant": true,
      "inputs": [
        {
          "internalType": "uint256",
          "name": "epoch",
          "type": "uint256"
        }
      ],
      "name": "getMinExpiryFilled",
      "outputs": [
        {
          "internalType": "uint256",
          "name": "",
          "type": "uint256"
        }
      ],
      "payable": false,
      "stateMutability": "view",
      "type": "function"
    },
    {
      "constant": true,
      "inputs": [
        {
          "internalType": "uint256",
          "name": "epoch",
          "type": "uint256"
        }
      ],
      "name": "getMinYieldFilled",
      "outputs": [
        {
          "internalType": "uint256",
          "name": "",
          "type": "uint256"
        }
      ],
      "payable": false,
      "stateMutability": "view",
      "type": "function"
    },
    {
      "constant": true,
      "inputs": [
        {
          "internalType": "uint256",
          "name": "epoch",
          "type": "uint256"
        }
      ],
      "name": "getTotalAuctioned",
      "outputs": [
        {
          "internalType": "uint256",
          "name": "",
          "type": "uint256"
        }
      ],
      "payable": false,
      "stateMutability": "view",
      "type": "function"
    },
    {
      "constant": true,
      "inputs": [
        {
          "internalType": "uint256",
          "name": "epoch",
          "type": "uint256"
        }
      ],
      "name": "getTotalBurned",
      "outputs": [
        {
          "internalType": "uint256",
          "name": "",
          "type": "uint256"
        }
      ],
      "payable": false,
      "stateMutability": "view",
      "type": "function"
    },
    {
      "constant": true,
      "inputs": [
        {
          "internalType": "uint256",
          "name": "epoch",
          "type": "uint256"
        }
      ],
      "name": "getTotalFilled",
      "outputs": [
        {
          "internalType": "uint256",
          "name": "",
          "type": "uint256"
        }
      ],
      "payable": false,
      "stateMutability": "view",
      "type": "function"
    },
    {
      "constant": true,
      "inputs": [],
      "name": "implementation",
      "outputs": [
        {
          "internalType": "address",
          "name": "impl",
          "type": "address"
        }
      ],
      "payable": false,
      "stateMutability": "view",
      "type": "function"
    },
    {
      "constant": true,
      "inputs": [
        {
          "internalType": "address",
          "name": "candidate",
          "type": "address"
        }
      ],
      "name": "isInitialized",
      "outputs": [
        {
          "internalType": "bool",
          "name": "",
          "type": "bool"
        }
      ],
      "payable": false,
      "stateMutability": "view",
      "type": "function"
    },
    {
      "constant": true,
      "inputs": [
        {
          "internalType": "address",
          "name": "candidate",
          "type": "address"
        }
      ],
      "name": "isNominated",
      "outputs": [
        {
          "internalType": "bool",
          "name": "",
          "type": "bool"
        }
      ],
      "payable": false,
      "stateMutability": "view",
      "type": "function"
    },
    {
      "constant": true,
      "inputs": [
        {
          "internalType": "address",
          "name": "account",
          "type": "address"
        }
      ],
      "name": "lockedUntil",
      "outputs": [
        {
          "internalType": "uint256",
          "name": "",
          "type": "uint256"
        }
      ],
      "payable": false,
      "stateMutability": "view",
      "type": "function"
    },
    {
      "constant": true,
      "inputs": [],
      "name": "name",
      "outputs": [
        {
          "internalType": "string",
          "name": "",
          "type": "string"
        }
      ],
      "payable": false,
      "stateMutability": "view",
      "type": "function"
    },
    {
      "constant": true,
      "inputs": [],
      "name": "oracle",
      "outputs": [
        {
          "internalType": "contract IOracle",
          "name": "",
          "type": "address"
        }
      ],
      "payable": false,
      "stateMutability": "view",
      "type": "function"
    },
    {
      "constant": true,
      "inputs": [
        {
          "internalType": "uint256",
          "name": "epoch",
          "type": "uint256"
        }
      ],
      "name": "outstandingCoupons",
      "outputs": [
        {
          "internalType": "uint256",
          "name": "",
          "type": "uint256"
        }
      ],
      "payable": false,
      "stateMutability": "view",
      "type": "function"
    },
    {
      "constant": true,
      "inputs": [
        {
          "internalType": "address",
          "name": "candidate",
          "type": "address"
        }
      ],
      "name": "periodFor",
      "outputs": [
        {
          "internalType": "uint256",
          "name": "",
          "type": "uint256"
        }
      ],
      "payable": false,
      "stateMutability": "view",
      "type": "function"
    },
    {
      "constant": false,
      "inputs": [
        {
          "internalType": "uint256",
          "name": "couponEpochExpiry",
          "type": "uint256"
        },
        {
          "internalType": "uint256",
          "name": "dollarAmount",
          "type": "uint256"
        },
        {
          "internalType": "uint256",
          "name": "maxCouponAmount",
          "type": "uint256"
        }
      ],
      "name": "placeCouponAuctionBid",
      "outputs": [
        {
          "internalType": "bool",
          "name": "",
          "type": "bool"
        }
      ],
      "payable": false,
      "stateMutability": "nonpayable",
      "type": "function"
    },
    {
      "constant": true,
      "inputs": [],
      "name": "pool",
      "outputs": [
        {
          "internalType": "address",
          "name": "",
          "type": "address"
        }
      ],
      "payable": false,
      "stateMutability": "view",
      "type": "function"
    },
    {
      "constant": false,
      "inputs": [
        {
          "internalType": "uint256",
          "name": "dollarAmount",
          "type": "uint256"
        }
      ],
      "name": "purchaseCoupons",
      "outputs": [
        {
          "internalType": "uint256",
          "name": "",
          "type": "uint256"
        }
      ],
      "payable": false,
      "stateMutability": "nonpayable",
      "type": "function"
    },
    {
      "constant": true,
      "inputs": [
        {
          "internalType": "address",
          "name": "account",
          "type": "address"
        },
        {
          "internalType": "address",
          "name": "candidate",
          "type": "address"
        }
      ],
      "name": "recordedVote",
      "outputs": [
        {
          "internalType": "enum Candidate.Vote",
          "name": "",
          "type": "uint8"
        }
      ],
      "payable": false,
      "stateMutability": "view",
      "type": "function"
    },
    {
      "constant": false,
      "inputs": [
        {
          "internalType": "uint256",
          "name": "couponEpoch",
          "type": "uint256"
        },
        {
          "internalType": "uint256",
          "name": "couponAmount",
          "type": "uint256"
        },
        {
          "internalType": "uint256",
          "name": "minOutput",
          "type": "uint256"
        }
      ],
      "name": "redeemCoupons",
      "outputs": [],
      "payable": false,
      "stateMutability": "nonpayable",
      "type": "function"
    },
    {
      "constant": false,
      "inputs": [
        {
          "internalType": "uint256",
          "name": "couponEpoch",
          "type": "uint256"
        },
        {
          "internalType": "uint256",
          "name": "couponAmount",
          "type": "uint256"
        }
      ],
      "name": "redeemCoupons",
      "outputs": [],
      "payable": false,
      "stateMutability": "nonpayable",
      "type": "function"
    },
    {
      "constant": true,
      "inputs": [
        {
          "internalType": "address",
          "name": "candidate",
          "type": "address"
        }
      ],
      "name": "rejectFor",
      "outputs": [
        {
          "internalType": "uint256",
          "name": "",
          "type": "uint256"
        }
      ],
      "payable": false,
      "stateMutability": "view",
      "type": "function"
    },
    {
      "constant": true,
      "inputs": [
        {
          "internalType": "address",
          "name": "candidate",
          "type": "address"
        }
      ],
      "name": "startFor",
      "outputs": [
        {
          "internalType": "uint256",
          "name": "",
          "type": "uint256"
        }
      ],
      "payable": false,
      "stateMutability": "view",
      "type": "function"
    },
    {
      "constant": true,
      "inputs": [
        {
          "internalType": "address",
          "name": "account",
          "type": "address"
        }
      ],
      "name": "statusOf",
      "outputs": [
        {
          "internalType": "enum Account.Status",
          "name": "",
          "type": "uint8"
        }
      ],
      "payable": false,
      "stateMutability": "view",
      "type": "function"
    },
    {
      "constant": true,
      "inputs": [],
      "name": "symbol",
      "outputs": [
        {
          "internalType": "string",
          "name": "",
          "type": "string"
        }
      ],
      "payable": false,
      "stateMutability": "view",
      "type": "function"
    },
    {
      "constant": true,
      "inputs": [],
      "name": "totalBonded",
      "outputs": [
        {
          "internalType": "uint256",
          "name": "",
          "type": "uint256"
        }
      ],
      "payable": false,
      "stateMutability": "view",
      "type": "function"
    },
    {
      "constant": true,
      "inputs": [
        {
          "internalType": "uint256",
          "name": "epoch",
          "type": "uint256"
        }
      ],
      "name": "totalBondedAt",
      "outputs": [
        {
          "internalType": "uint256",
          "name": "",
          "type": "uint256"
        }
      ],
      "payable": false,
      "stateMutability": "view",
      "type": "function"
    },
    {
      "constant": true,
      "inputs": [],
      "name": "totalCoupons",
      "outputs": [
        {
          "internalType": "uint256",
          "name": "",
          "type": "uint256"
        }
      ],
      "payable": false,
      "stateMutability": "view",
      "type": "function"
    },
    {
      "constant": true,
      "inputs": [],
      "name": "totalDebt",
      "outputs": [
        {
          "internalType": "uint256",
          "name": "",
          "type": "uint256"
        }
      ],
      "payable": false,
      "stateMutability": "view",
      "type": "function"
    },
    {
      "constant": true,
      "inputs": [],
      "name": "totalNet",
      "outputs": [
        {
          "internalType": "uint256",
          "name": "",
          "type": "uint256"
        }
      ],
      "payable": false,
      "stateMutability": "view",
      "type": "function"
    },
    {
      "constant": true,
      "inputs": [],
      "name": "totalRedeemable",
      "outputs": [
        {
          "internalType": "uint256",
          "name": "",
          "type": "uint256"
        }
      ],
      "payable": false,
      "stateMutability": "view",
      "type": "function"
    },
    {
      "constant": true,
      "inputs": [],
      "name": "totalStaged",
      "outputs": [
        {
          "internalType": "uint256",
          "name": "",
          "type": "uint256"
        }
      ],
      "payable": false,
      "stateMutability": "view",
      "type": "function"
    },
    {
      "constant": true,
      "inputs": [],
      "name": "totalSupply",
      "outputs": [
        {
          "internalType": "uint256",
          "name": "",
          "type": "uint256"
        }
      ],
      "payable": false,
      "stateMutability": "view",
      "type": "function"
    },
    {
      "constant": false,
      "inputs": [
        {
          "internalType": "address",
          "name": "recipient",
          "type": "address"
        },
        {
          "internalType": "uint256",
          "name": "amount",
          "type": "uint256"
        }
      ],
      "name": "transfer",
      "outputs": [
        {
          "internalType": "bool",
          "name": "",
          "type": "bool"
        }
      ],
      "payable": false,
      "stateMutability": "nonpayable",
      "type": "function"
    },
    {
      "constant": false,
      "inputs": [
        {
          "internalType": "address",
          "name": "sender",
          "type": "address"
        },
        {
          "internalType": "address",
          "name": "recipient",
          "type": "address"
        },
        {
          "internalType": "uint256",
          "name": "epoch",
          "type": "uint256"
        },
        {
          "internalType": "uint256",
          "name": "amount",
          "type": "uint256"
        }
      ],
      "name": "transferCoupons",
      "outputs": [],
      "payable": false,
      "stateMutability": "nonpayable",
      "type": "function"
    },
    {
      "constant": false,
      "inputs": [
        {
          "internalType": "address",
          "name": "sender",
          "type": "address"
        },
        {
          "internalType": "address",
          "name": "recipient",
          "type": "address"
        },
        {
          "internalType": "uint256",
          "name": "amount",
          "type": "uint256"
        }
      ],
      "name": "transferFrom",
      "outputs": [
        {
          "internalType": "bool",
          "name": "",
          "type": "bool"
        }
      ],
      "payable": false,
      "stateMutability": "nonpayable",
      "type": "function"
    },
    {
      "constant": false,
      "inputs": [
        {
          "internalType": "uint256",
          "name": "value",
          "type": "uint256"
        }
      ],
      "name": "unbond",
      "outputs": [],
      "payable": false,
      "stateMutability": "nonpayable",
      "type": "function"
    },
    {
      "constant": false,
      "inputs": [
        {
          "internalType": "uint256",
          "name": "value",
          "type": "uint256"
        }
      ],
      "name": "unbondUnderlying",
      "outputs": [],
      "payable": false,
      "stateMutability": "nonpayable",
      "type": "function"
    },
    {
      "constant": false,
      "inputs": [
        {
          "internalType": "address",
          "name": "candidate",
          "type": "address"
        },
        {
          "internalType": "enum Candidate.Vote",
          "name": "vote",
          "type": "uint8"
        }
      ],
      "name": "vote",
      "outputs": [],
      "payable": false,
      "stateMutability": "nonpayable",
      "type": "function"
    },
    {
      "constant": true,
      "inputs": [
        {
          "internalType": "address",
          "name": "candidate",
          "type": "address"
        }
      ],
      "name": "votesFor",
      "outputs": [
        {
          "internalType": "uint256",
          "name": "",
          "type": "uint256"
        }
      ],
      "payable": false,
      "stateMutability": "view",
      "type": "function"
    },
    {
      "constant": false,
      "inputs": [
        {
          "internalType": "uint256",
          "name": "value",
          "type": "uint256"
        }
      ],
      "name": "withdraw",
      "outputs": [],
      "payable": false,
      "stateMutability": "nonpayable",
      "type": "function"
    },
    {
      "constant": false,
      "inputs": [],
      "name": "initialize",
      "outputs": [],
      "payable": false,
      "stateMutability": "nonpayable",
      "type": "function"
    },
    {
      "constant": false,
      "inputs": [],
      "name": "advance",
      "outputs": [],
      "payable": false,
      "stateMutability": "nonpayable",
      "type": "function"
    }
  ],
  "bytecode": "0x60806040526000601055600060115560006012556000601355600060145560006015556000196016556200003d6200006a60201b62004cca1760201c565b516017556040805160208101909152600019908190526018553480156200006357600080fd5b506200009a565b6200007462000087565b5060408051602081019091526000815290565b6040518060200160405280600081525090565b6161f780620000aa6000396000f3fe608060405234801561001057600080fd5b50600436106104115760003560e01c8063825ad60711610220578063bceb514d11610130578063dd62ed3e116100b8578063ea105ac711610087578063ea105ac714610887578063eeaca09b1461088f578063f1b7cf49146108a2578063fc7b9c18146108b5578063ffbe3b73146108bd57610411565b8063dd62ed3e14610840578063dde74dc31461084e578063df9a2b1c14610861578063e5f55c7e1461087457610411565b8063cf023779116100ff578063cf023779146107ec578063d53c6f5f146107f4578063d60b347f14610807578063d6a9cf081461081a578063d8f541381461082d57610411565b8063bceb514d146107a0578063c34eee65146107b3578063c9aff70c146107c6578063cb0fbc71146107d957610411565b80639f1a0929116101b3578063a6c409f111610182578063a6c409f11461075f578063a9059cbb14610449578063b6b55f2514610767578063bc0b1df61461077a578063bc7513e21461078d57610411565b80639f1a0929146107135780639f6e1b2614610726578063a1eb31e814610739578063a50cd8e71461074c57610411565b806397a5d5b5116101ef57806397a5d5b5146106d25780639940686e146106e55780639a649edc146106f85780639bc289f11461070057610411565b8063825ad6071461069c57806386cf9f14146106af578063900cf0cf146106c257806395d89b41146106ca57610411565b80633a3e6c8111610326578063520acb76116102ae57806370a082311161027d57806370a082311461065357806375d5024b146106665780637d8bb869146106795780637dc0d1d01461068c5780638129fc1c1461069457610411565b8063520acb76146106125780635c60da1b14610625578063646680221461062d5780636a39e3281461064057610411565b806347c05069116102f557806347c05069146105bc5780634c736099146105cf5780635053e461146105e257806351adeb57146105ea57806351bf21d8146105ff57610411565b80633a3e6c811461056e5780633dc905c7146105815780633fbba9a61461059457806344d96e95146105b457610411565b806323b872dd116103a95780632e1a7d4d116103785780632e1a7d4d1461050d5780632f7f889e14610520578063313ce56714610533578063353a420c14610548578063369e8c1d1461055b57610411565b806323b872dd146104c157806324772c04146104d457806327de9e32146104e75780632d7f23b3146104fa57610411565b806315e14bf6116103e557806315e14bf61461048957806316f0115b1461049c57806318160ddd146104b15780631edbcf6c146104b957610411565b80625edd371461041657806306fdde031461042b578063095ea7b31461044957806310e95b6c14610469575b600080fd5b610429610424366004615985565b6108d0565b005b6104336109f3565b6040516104409190615edd565b60405180910390f35b61045c610457366004615a16565b610a2b565b6040516104409190615ea5565b61047c610477366004615a94565b610a34565b6040516104409190615f5e565b61047c6104973660046158e0565b610a4c565b6104a4610a6a565b6040516104409190615e38565b61047c610a79565b61047c610a7f565b61045c6104cf366004615938565b610a85565b61045c6104e2366004615aef565b610a8f565b6104296104f5366004615a94565b610c5d565b61047c610508366004615a94565b610d9b565b61042961051b366004615a94565b610db0565b61042961052e366004615a16565b610ee8565b61053b610f68565b6040516104409190615fca565b61047c6105563660046158e0565b610f6d565b6104296105693660046158e0565b610f8b565b61045c61057c3660046158e0565b6110d9565b61047c61058f366004615a94565b6110f6565b6105a76105a23660046158fe565b61110b565b6040516104409190615ec1565b61047c61113e565b6104296105ca3660046158e0565b611144565b61047c6105dd366004615ad0565b611237565b61047c611267565b6105f261128a565b6040516104409190615eb3565b61047c61060d3660046158e0565b611299565b61047c610620366004615a94565b6112b7565b6104a46112cc565b61047c61063b3660046158e0565b6112f1565b61047c61064e366004615a94565b61130f565b61047c6106613660046158e0565b611324565b61045c610674366004615a94565b611342565b61047c610687366004615a94565b611355565b6105f261136a565b610429611379565b61047c6106aa3660046158e0565b6113fe565b61047c6106bd3660046158e0565b61143e565b61047c611459565b61043361145f565b6105a76106e03660046158e0565b61147d565b6104296106f3366004615a94565b6114e2565b61047c6115b0565b61047c61070e3660046158e0565b6115b6565b61047c610721366004615a94565b6115d4565b61047c6107343660046158fe565b6115ea565b61047c610747366004615ad0565b611619565b61047c61075a3660046158e0565b61173f565b61047c611756565b610429610775366004615a94565b6117e0565b610429610788366004615aef565b6118b8565b61047c61079b366004615a16565b6119ec565b6104296107ae3660046159e6565b611a30565b61047c6107c1366004615a94565b611ccb565b61047c6107d4366004615a94565b611ce0565b61047c6107e7366004615a94565b611cf5565b61047c611d0a565b61047c610802366004615a94565b611d10565b61045c6108153660046158e0565b611d25565b610429610828366004615ad0565b611d46565b61047c61083b366004615a94565b611e42565b61047c6104573660046158fe565b61047c61085c366004615a94565b611ecd565b61042961086f366004615a94565b611ee2565b61047c610882366004615a94565b611fa0565b61042961206e565b61047c61089d366004615a94565b612116565b61047c6108b03660046158e0565b61212b565b61047c612146565b61047c6108cb366004615a94565b61214c565b6001600160a01b0384166108ff5760405162461bcd60e51b81526004016108f690615f3e565b60405180910390fd5b6001600160a01b0383166109255760405162461bcd60e51b81526004016108f690615efe565b6109498483836040518060600160405280602381526020016160d66023913961215e565b610954838383612209565b336001600160a01b03851614801590610978575060001961097585336115ea565b14155b156109a1576109a184338360405180606001604052806024815260200161611d602491396122b0565b81836001600160a01b0316856001600160a01b03167f0f1dbb1ccbe57a1590c7baad7b01d581b730c9ebc535dcde4345e6db424063d8846040516109e59190615f5e565b60405180910390a450505050565b60408051808201909152601881527f44796e616d69632053657420446f6c6c6172205374616b65000000000000000060208201525b90565b60005b92915050565b6000818152600d60205260409020600201545b919050565b6001600160a01b03166000908152600e602052604090206001015490565b600b546001600160a01b031690565b60035490565b60065490565b60005b9392505050565b6000610ac8600085116513585c9ad95d60d21b7f4d7573742068617665206e6f6e2d7a65726f2065787069727900000000000000612321565b610aff600084116513585c9ad95d60d21b7f4d75737420626964206e6f6e2d7a65726f20616d6f756e740000000000000000612321565b610b36600083116513585c9ad95d60d21b7f4d75737420626964206f6e206e6f6e2d7a65726f20616d6f756e740000000000612321565b610b6683610b42612146565b10156513585c9ad95d60d21b6e139bdd08195b9bdd59da081919589d608a1b612321565b610ba3610b733385612376565b6513585c9ad95d60d21b7f4d757374206861766520656e6f75676820696e206163636f756e740000000000612321565b6000610bbd85610bb1611459565b9063ffffffff61241116565b9050610bd7610bd2848663ffffffff61243616565b612478565b610be08461250f565b610be9816125a5565b610bf53382868661263b565b610c06610c006126a9565b336126d0565b610c0e61272a565b80336001600160a01b03167f9f5acf79fa92396b7f3cb679d46ed617794dc8709703e9111f109216820301028686604051610c4a929190615f6c565b60405180910390a3506001949350505050565b33610ca460025b610c6d8361147d565b6002811115610c7857fe5b1415692832b936b4b9b9b4b7b760b11b72139bdd08199c9bde995b881bdc88199b1d5a59606a1b612321565b610cad33612752565b6000610ce0610cbb33611324565b610cd4610cc7336113fe565b869063ffffffff61277c16565b9063ffffffff61243616565b9050610cec33826127b6565b610d0e8160405180606001604052806022815260200161614160229139612812565b610d4e33846040518060400160405280601d81526020017f426f6e64696e673a20696e73756666696369656e742062616c616e636500000081525061282d565b337f93530ac0ee8c50e696e13c5ac62355d0c0ba4bd943620d5bda1eb08b64ae7512610d7d6001610bb1611459565b8584604051610d8e93929190615f7a565b60405180910390a2505050565b6000908152600d60205260409020600a015490565b33610df860015b610dc08361147d565b6002811115610dcb57fe5b1415692832b936b4b9b9b4b7b760b11b73139bdd08199c9bde995b881bdc881b1bd8dad95960621b612321565b610e0061128a565b6001600160a01b031663a9059cbb33846040518363ffffffff1660e01b8152600401610e2d929190615e6e565b602060405180830381600087803b158015610e4757600080fd5b505af1158015610e5b573d6000803e3d6000fd5b505050506040513d601f19601f82011682018060405250610e7f9190810190615a46565b50610ea333836040518060600160405280602481526020016160f9602491396128d8565b336001600160a01b03167f884edad9ce6fa2440d8a54cc123490eb96d2768479d49ff9c7366125a942436483604051610edc9190615f5e565b60405180910390a25050565b6001600160a01b038216610f0e5760405162461bcd60e51b81526004016108f690615f2e565b610f19338383612937565b816001600160a01b0316336001600160a01b03167f8ff27e6b95060c1ca851e7c2c28af8b413eb1a8bcb637b0290da9543a709cce383604051610f5c9190615f5e565b60405180910390a35050565b601290565b6001600160a01b03166000908152600e602052604090206003015490565b610fb7610f97826110d9565b6523b7bb32b93760d11b6c139bdd081b9bdb5a5b985d1959609a1b612321565b6000610fdf6001610fd3610fca85610a4c565b610bb18661212b565b9063ffffffff61296716565b905061100a81610fed611459565b116523b7bb32b93760d11b68139bdd08195b99195960ba1b612321565b61106161103e6110186129a9565b6110326110248661173f565b61102d8661214c565b6129cb565b9063ffffffff6129fa16565b6523b7bb32b93760d11b6f4d75737420686176652071756f726f6d60801b612321565b61109661106d83610f6d565b611076846112f1565b116523b7bb32b93760d11b6b139bdd08185c1c1c9bdd995960a21b612321565b61109f82612a10565b6040516001600160a01b0383169033907f815ca4497ab9fc80c76f210e6e842a5e198e195aa136034557eee144f790e7bb90600090a35050565b6001600160a01b03166000908152600e6020526040902054151590565b6000908152600d60205260409020600e015490565b6001600160a01b038082166000908152600e60209081526040808320938616835260049093019052205460ff1692915050565b60045490565b611150610f97826110d9565b61118e61116661115e612afc565b610bb1611459565b61116e611267565b116523b7bb32b93760d11b6b115c1bd8da081cde5b98d95960a21b612321565b6111e06111b061119c612b01565b6110326111a8856112f1565b61102d610a79565b6523b7bb32b93760d11b7f4d7573742068617665207375706572206d616a6f726974790000000000000000612321565b6111f56111ec82610f6d565b611076836112f1565b6111fe81612a10565b6040516001600160a01b0382169033907f815ca4497ab9fc80c76f210e6e842a5e198e195aa136034557eee144f790e7bb90600090a350565b6000828152600d6020526040812060030180548390811061125457fe5b9060005260206000200154905092915050565b600061127161570a565b611279612b23565b905061128481612b52565b91505090565b6009546001600160a01b031690565b6001600160a01b03166000908152600c602052604090206004015490565b6000908152600d602052604090206010015490565b7f360894a13ba1a3210667c828492db98dca3e2076cc3735a920a3ca505d382bbc5490565b6001600160a01b03166000908152600e602052604090206002015490565b6000908152600d602052604090206003015490565b6001600160a01b03166000908152600c602052604090206001015490565b600061134c612b74565b90911115919050565b6000908152600d602052604090206012015490565b600a546001600160a01b031690565b6113b26113876108156112cc565b15692832b936b4b9b9b4b7b760b11b72105b1c9958591e481a5b9a5d1a585b1a5e9959606a1b612321565b6113c26113bd6112cc565b612b79565b6113d53368056bc75e2d63100000612ba0565b6113fc7361105dd0b0ded973bc94bb054f314c46a0234b06683635c9adc5dea00000612ba0565b565b600080611409610a79565b90508061141a576000915050610a47565b610a8881610cd461142a86611324565b61143261113e565b9063ffffffff61277c16565b6001600160a01b03166000908152600c602052604090205490565b60025490565b6040805180820190915260048152634453445360e01b602082015290565b6000611487611459565b6001600160a01b0383166000908152600c602052604090206005015411156114b157506002610a47565b6001600160a01b0382166000908152600c60205260409020600401546114d5611459565b1015610a2b576001610a2e565b336114ed6002610c64565b6114f633612752565b600061150061113e565b156115205761151b61151061113e565b610cd4610cc7610a79565b611538565b61153861152b612c4c565b849063ffffffff61277c16565b90506115443382612c53565b61154d83612cef565b61157033846040518060600160405280602481526020016160f9602491396128d8565b337f44002fdef5a0c2d2e4e05572e9780b95aef97e0e93ffd7cc076b09fa78ff2b4661159f6001610bb1611459565b8386604051610d8e93929190615f7a565b60085490565b6001600160a01b03166000908152600c602052604090206005015490565b6000908152600d60208190526040909120015490565b6001600160a01b039182166000908152600c602090815260408083209390941682526003909201909152205490565b600080611624612b23565b60400151428161163057fe5b06905060008461163e611459565b039050600061164b612d08565b82611654612d08565b0361165d612d0e565b028161166557fe5b0490508083111561167c5760009350505050610a2e565b61168461572b565b6116d760405180602001604052808561169b612d08565b038152506116cb60405180602001604052806116b5612d08565b90526116bf612d14565b9063ffffffff612d3616565b9063ffffffff612d6416565b90506116e161572b565b604080516020808201835287860382528251908101909252848252611711916116cb90859063ffffffff612d3616565b6040805160208101909152888152909150611732908263ffffffff612d6416565b5198975050505050505050565b6000610a2e61174d83610f6d565b610bb1846112f1565b60006117db611763612146565b61176b61128a565b6001600160a01b03166318160ddd6040518163ffffffff1660e01b815260040160206040518083038186803b1580156117a357600080fd5b505afa1580156117b7573d6000803e3d6000fd5b505050506040513d601f19601f82011682018060405250610fd39190810190615ab2565b905090565b6117e861128a565b6001600160a01b03166323b872dd3330846040518463ffffffff1660e01b815260040161181793929190615e46565b602060405180830381600087803b15801561183157600080fd5b505af1158015611845573d6000803e3d6000fd5b505050506040513d601f19601f820116820180604052506118699190810190615a46565b5061187433826127b6565b336001600160a01b03167fe1fffcc4923d04b559f4d29a8bfc6cda04eb5b0d3c460751c2402c5c5cc9109c826040516118ad9190615f5e565b60405180910390a250565b60026118c684610fd3611459565b10156118e45760405162461bcd60e51b81526004016108f690615f4e565b6119083384846040518060600160405280602381526020016160d66023913961215e565b60006119148484611619565b9050808303611950838210156513585c9ad95d60d21b7f496e73756666696369656e74206f757470757420616d6f756e74000000000000612321565b61195a3382612d92565b81156119a35784336001600160a01b03167f1cd1213d4276c260e84170b4a39025dc8398fbf744edee0709261769b456b94b8460405161199a9190615f5e565b60405180910390a35b84336001600160a01b03167f46e9903ae8ac9e9f0c9bc321b05965c1c036e7d4783758703f5cdfc4133c51b6836040516119dd9190615f5e565b60405180910390a35050505050565b60006119f782611ce0565b611a0357506000610a2e565b506001600160a01b03919091166000908152600c6020908152604080832093835260029093019052205490565b33611a3b6001610db7565b611a6c6000611a4933611324565b116523b7bb32b93760d11b6e4d7573742068617665207374616b6560881b612321565b611a75836110d9565b611b1857611ab5611a8533612e3c565b6523b7bb32b93760d11b7f4e6f7420656e6f756768207374616b6520746f2070726f706f73650000000000612321565b611ac683611ac1612e80565b612e85565b611ace611459565b336001600160a01b0385167fd15e38a680a427478883cd2d32eb664cb6bb2090b0126a23ebaf3e3784b8c56b611b02612e80565b604051611b0f9190615f5e565b60405180910390a45b611b48611b27610fca85610a4c565b611b2f611459565b106523b7bb32b93760d11b64115b99195960da1b612321565b6000611b5333611324565b90506000611b61338661110b565b9050806002811115611b6f57fe5b846002811115611b7b57fe5b1415611b88575050611cc6565b6002816002811115611b9657fe5b1415611bdc57611bdc85836040518060400160405280601b81526020017f476f7665726e3a20496e73756666696369656e742072656a6563740000000000815250612eb1565b6001816002811115611bea57fe5b1415611c3057611c3085836040518060400160405280601c81526020017f476f7665726e3a20496e73756666696369656e7420617070726f766500000000815250612f02565b6002846002811115611c3e57fe5b1415611c4e57611c4e8583612f53565b6001846002811115611c5c57fe5b1415611c6c57611c6c8583612fa2565b611c77338686612ff1565b611c81338661303b565b846001600160a01b0316336001600160a01b03167fbe50c78cbc15b0864819aadea36c6499da421b33c38e2ef19bebda583c708c7886856040516119dd929190615ecf565b505050565b6000908152600d602052604090206011015490565b6000908152600d602052604090206001015490565b6000908152600d602052604090206013015490565b60055490565b6000908152600d60205260409020600f015490565b6001600160a01b03166000908152600e602052604090206005015460ff1690565b6002611d5483610fd3611459565b1015611d725760405162461bcd60e51b81526004016108f690615f4e565b611d963383836040518060600160405280602381526020016160d66023913961215e565b6000611da28383611619565b9050808203611db13382612d92565b8115611dfa5783336001600160a01b03167f1cd1213d4276c260e84170b4a39025dc8398fbf744edee0709261769b456b94b84604051611df19190615f5e565b60405180910390a35b83336001600160a01b03167f46e9903ae8ac9e9f0c9bc321b05965c1c036e7d4783758703f5cdfc4133c51b683604051611e349190615f5e565b60405180910390a350505050565b6000610a2e611e4f61128a565b6001600160a01b03166318160ddd6040518163ffffffff1660e01b815260040160206040518083038186803b158015611e8757600080fd5b505afa158015611e9b573d6000803e3d6000fd5b505050506040513d601f19601f82011682018060405250611ebf9190810190615ab2565b611ec7612146565b8461309c565b6000908152600d60205260409020600c015490565b33611eed6002610c64565b611ef633612752565b6000611f0361151061113e565b9050611f0f33846127b6565b611f318360405180606001604052806022815260200161614160229139612812565b611f7133826040518060400160405280601d81526020017f426f6e64696e673a20696e73756666696369656e742062616c616e636500000081525061282d565b337f93530ac0ee8c50e696e13c5ac62355d0c0ba4bd943620d5bda1eb08b64ae751261159f6001610bb1611459565b6000611fd9600083116513585c9ad95d60d21b7f4d757374207075726368617365206e6f6e2d7a65726f20616d6f756e74000000612321565b611fe582610b42612146565b6000611fef611459565b9050600061200c611fff85611e42565b859063ffffffff61241116565b905061201833856130c9565b612023338383612209565b81336001600160a01b03167fbce252db29f761f815dc2e9ea60005af065efba6eb619d2a0b2a113fdeb61414868460405161205f929190615f6c565b60405180910390a39392505050565b60006120786131da565b90506120843382612ba0565b336001600160a01b03167fbb4f656853bc420ad6e4321622c07eefb4ed40e3f91b35553ce14a6dff4c0981826040516120bd9190615f5e565b60405180910390a26120cd6131e7565b6120d5613232565b6120dd613345565b6120e5611459565b7fc30b728d1c19e5db3678b8ea9e9a063a5655071e1a325c2f7fdbca48baa9060043426040516118ad929190615f6c565b6000908152600d60205260409020600b015490565b6001600160a01b03166000908152600e602052604090205490565b60075490565b6000908152600d602052604090205490565b6001600160a01b0384166000908152600c6020908152604080832086845260020190915290205461219690838363ffffffff61339c16565b6001600160a01b0385166000908152600c60209081526040808320878452600201825280832093909355600d905220600101546121da90838363ffffffff61339c16565b6000848152600d602052604090206001015560085461220090838363ffffffff61339c16565b60085550505050565b6001600160a01b0383166000908152600c60209081526040808320858452600201909152902054612240908263ffffffff61241116565b6001600160a01b0384166000908152600c60209081526040808320868452600201825280832093909355600d90522060010154612283908263ffffffff61241116565b6000838152600d60205260409020600101556008546122a8908263ffffffff61241116565b600855505050565b6001600160a01b038085166000908152600c6020908152604080832093871683526003909301905220546122eb90838363ffffffff61339c16565b6001600160a01b039485166000908152600c60209081526040808320969097168252600390950190945293909220929092555050565b82611cc65761232f826133c8565b6101d160f51b61233e836133c8565b60405160200161235093929190615e07565b60408051601f198184030181529082905262461bcd60e51b82526108f691600401615edd565b600061238582610bb1856113fe565b61238d61128a565b6001600160a01b03166370a08231856040518263ffffffff1660e01b81526004016123b89190615e38565b60206040518083038186803b1580156123d057600080fd5b505afa1580156123e4573d6000803e3d6000fd5b505050506040513d601f19601f820116820180604052506124089190810190615ab2565b10159392505050565b600082820183811015610a885760405162461bcd60e51b81526004016108f690615eee565b6000610a8883836040518060400160405280601a81526020017f536166654d6174683a206469766973696f6e206279207a65726f000000000000815250613448565b600d6000612484611459565b8152602001908152602001600020600401600401548111156124c25780600d60006124ad611459565b81526020810191909152604001600020600801555b80600d60006124cf611459565b815260200190815260200160002060040160030154111561250c5780600d60006124f7611459565b81526020810191909152604001600020600701555b50565b600d600061251b611459565b8152602001908152602001600020600401601101548111156125595780600d6000612544611459565b81526020810191909152604001600020601501555b600d6000612565611459565b81526020019081526020016000206004016010015481101561250c5780600d600061258e611459565b815260208101919091526040016000206014015550565b600d60006125b1611459565b8152602001908152602001600020600401600201548111156125ef5780600d60006125da611459565b81526020810191909152604001600020600601555b600d60006125fb611459565b81526020019081526020016000206004016001015481101561250c5780600d6000612624611459565b815260208101919091526040016000206005015550565b6000600d81612648611459565b8152602080820192909252604090810160009081206001600160a01b03989098168082526018909801909252902060048101949094555060018301919091556002820155805462010000600160b01b03191662010000909202919091179055565b6000600d816126b6611459565b815260200190815260200160002060040160050154905090565b80600d60006126dd611459565b8152602001908152602001600020600401601201600084815260200190815260200160002060006101000a8154816001600160a01b0302191690836001600160a01b031602179055505050565b600d6000612736611459565b8152602081019190915260400160002060090180546001019055565b61275d61115e612e80565b6001600160a01b039091166000908152600c6020526040902060040155565b60008261278b57506000610a2e565b8282028284828161279857fe5b0414610a885760405162461bcd60e51b81526004016108f690615f0e565b6001600160a01b0382166000908152600c60205260409020546127df908263ffffffff61241116565b6001600160a01b0383166000908152600c602052604090205560055461280b908263ffffffff61241116565b6005555050565b60045461282690838363ffffffff61339c16565b6004555050565b6001600160a01b0383166000908152600c602052604090206001015461285a90838363ffffffff61339c16565b6001600160a01b0384166000908152600c602052604090206001015560035461288a90838363ffffffff61339c16565b6003556040516000906001600160a01b038516907fddf252ad1be2c89b69c2b068fc378daa952ba7f163c4a11628f55a4df523b3ef906128cb908690615f5e565b60405180910390a3505050565b6001600160a01b0383166000908152600c602052604090205461290290838363ffffffff61339c16565b6001600160a01b0384166000908152600c602052604090205560055461292f90838363ffffffff61339c16565b600555505050565b6001600160a01b039283166000908152600c60209081526040808320949095168252600390930190925291902055565b6000610a8883836040518060400160405280601e81526020017f536166654d6174683a207375627472616374696f6e206f766572666c6f77000081525061339c565b6129b161572b565b5060408051602081019091526702c68af0bb140000815290565b6129d361572b565b60405180602001604052806129f185670de0b6b3a76400008661347f565b90529392505050565b6000612a068383613495565b6002149392505050565b612a19816134c7565b60408051600481526024810182526020810180516001600160e01b031663204a7f0760e21b17905290516000916060916001600160a01b03851691612a5d91615dfb565b600060405180830381855af49150503d8060008114612a98576040519150601f19603f3d011682016040523d82523d6000602084013e612a9d565b606091505b5091509150818190612ac25760405162461bcd60e51b81526004016108f69190615edd565b506040516001600160a01b038416907fbc7cd75a20ee27fd9adebab32041f755214dbc6bffa90cc0225b39da2e5c2d3b90600090a2505050565b600690565b612b0961572b565b506040805160208101909152670928ca80cfc20000815290565b612b2b61570a565b604051806060016040528060008152602001635fbef0008152602001611c20815250905090565b6000610a2e8260000151610bb18460400151610cd48660200151610fd3613510565b609690565b6001600160a01b03166000908152600e60205260409020600501805460ff19166001179055565b612ba861128a565b6001600160a01b03166340c10f1983836040518363ffffffff1660e01b8152600401612bd5929190615e97565b602060405180830381600087803b158015612bef57600080fd5b505af1158015612c03573d6000803e3d6000fd5b505050506040513d601f19601f82011682018060405250612c279190810190615a46565b50612c33610674611459565b612c4057612c4081613514565b612c48613531565b5050565b620f424090565b6001600160a01b0382166000908152600c6020526040902060010154612c7f908263ffffffff61241116565b6001600160a01b0383166000908152600c6020526040902060010155600354612cae908263ffffffff61241116565b6003556040516001600160a01b038316906000907fddf252ad1be2c89b69c2b068fc378daa952ba7f163c4a11628f55a4df523b3ef90610f5c908590615f5e565b600454612d02908263ffffffff61241116565b60045550565b61016890565b610e1090565b612d1c61572b565b5060408051602081019091526706f05b59d3b20000815290565b612d3e61572b565b60405180602001604052806129f18560000151670de0b6b3a7640000866000015161347f565b612d6c61572b565b60405180602001604052806129f185600001518560000151670de0b6b3a764000061347f565b612d9a61128a565b6001600160a01b031663a9059cbb83836040518363ffffffff1660e01b8152600401612dc7929190615e97565b602060405180830381600087803b158015612de157600080fd5b505af1158015612df5573d6000803e3d6000fd5b505050506040513d601f19601f82011682018060405250612e199190810190615a46565b50612c40816040518060600160405280602a815260200161618b602a9139613604565b6000612e4661113e565b612e5257506000610a47565b612e5a61572b565b612e666111a884611324565b9050610a88612e7361361f565b829063ffffffff6129fa16565b602490565b612e8d611459565b6001600160a01b039092166000908152600e60205260409020918255600190910155565b6001600160a01b0383166000908152600e6020526040902060030154612ede90838363ffffffff61339c16565b6001600160a01b039093166000908152600e60205260409020600301929092555050565b6001600160a01b0383166000908152600e6020526040902060020154612f2f90838363ffffffff61339c16565b6001600160a01b039093166000908152600e60205260409020600201929092555050565b6001600160a01b0382166000908152600e6020526040902060030154612f7f908263ffffffff61241116565b6001600160a01b039092166000908152600e602052604090206003019190915550565b6001600160a01b0382166000908152600e6020526040902060020154612fce908263ffffffff61241116565b6001600160a01b039092166000908152600e602052604090206002019190915550565b6001600160a01b038083166000908152600e6020908152604080832093871683526004909301905220805482919060ff1916600183600281111561303157fe5b0217905550505050565b6001600160a01b0382166000908152600c60205260408120600501549061306d61306484610a4c565b610bb18561212b565b905081811115613096576001600160a01b0384166000908152600c602052604090206005018190555b50505050565b60006130c16130bc836130b0878787613640565b9063ffffffff6137ad16565b6137d4565b949350505050565b6130d161128a565b6001600160a01b03166323b872dd8330846040518463ffffffff1660e01b815260040161310093929190615e89565b602060405180830381600087803b15801561311a57600080fd5b505af115801561312e573d6000803e3d6000fd5b505050506040513d601f19601f820116820180604052506131529190810190615a46565b5061315b61128a565b6001600160a01b03166342966c68826040518263ffffffff1660e01b81526004016131869190615f5e565b600060405180830381600087803b1580156131a057600080fd5b505af11580156131b4573d6000803e3d6000fd5b50505050612c4081604051806060016040528060288152602001616163602891396137f1565b6802b5e3af16b188000090565b6132226131f2611459565b6131fa611267565b1166426f6e64696e6760c81b720a6e8d2d8d840c6eae4e4cadce840cae0dec6d606b1b612321565b61322a61380c565b6113fc613833565b61323a61572b565b61324261384c565b905060006132596001613253611459565b03613914565b9050613273613266613928565b839063ffffffff6129fa16565b156132b25761328061394a565b805460ff161515600114156132a2576132a2600161329c611459565b03613951565b6132ab82613971565b50506113fc565b6132ca6132bd613928565b839063ffffffff613a6116565b1561331057805460ff161515600114156132ff5760006132e8613a75565b90506132fd60016132f7611459565b0361437b565b505b61330761439d565b6132ab82614508565b613318611459565b6040517fff7db5a0dc69b02c191ba632db46961b7d0daa1bd30709ddba9b80ad0a15d2c090600090a25050565b60005b61335361064e611459565b81101561337b5761337361336e613368611459565b83611237565b614587565b600101613348565b50600061338961115e612d08565b905061250c613396611459565b82614633565b600081848411156133c05760405162461bcd60e51b81526004016108f69190615edd565b505050900390565b606080826040516020016133dc9190615de6565b60408051601f19818403018152919052905060205b80156134315781516000199091019082908290811061340c57fe5b01602001516001600160f81b0319161561342c5760010181529050610a47565b6133f1565b505060408051600081526020810190915292915050565b600081836134695760405162461bcd60e51b81526004016108f69190615edd565b50600083858161347557fe5b0495945050505050565b60006130c182610cd4868663ffffffff61277c16565b8051825160009114156134aa57506001610a2e565b81518351116134ba5760006134bd565b60025b60ff169392505050565b6134d081614665565b6134ec5760405162461bcd60e51b81526004016108f690615f1e565b7f360894a13ba1a3210667c828492db98dca3e2076cc3735a920a3ca505d382bbc55565b4290565b61351d8161466b565b61352d613528614684565b6146a6565b61250c5b6113fc61355261353f610a7f565b610bb161354a611d0a565b610bb161113e565b61355a61128a565b6001600160a01b03166370a08231306040518263ffffffff1660e01b81526004016135859190615e38565b60206040518083038186803b15801561359d57600080fd5b505afa1580156135b1573d6000803e3d6000fd5b505050506040513d601f19601f820116820180604052506135d59190810190615ab2565b10156a21b7b6b83a3937b63632b960a91b74496e636f6e73697374656e742062616c616e63657360581b612321565b60065461361890838363ffffffff61339c16565b6006555050565b61362761572b565b5060408051602081019091526611c37937e08000815290565b61364861572b565b61365061572b565b61365a84866129cb565b905061366461572b565b61366c614684565b90506000613680878663ffffffff61296716565b90506000613694878763ffffffff61296716565b905061369e61572b565b6136a882846129cb565b90506136ba858563ffffffff6129fa16565b15613796576136cf818563ffffffff6129fa16565b156136e9576136dd84614759565b95505050505050610a88565b6136f161572b565b6136fb82866147a5565b905061370561572b565b613715868463ffffffff61480216565b905061371f61572b565b61372887614759565b905061373261572b565b613742898963ffffffff61480216565b9050613786613757848363ffffffff61482b16565b6116bf61376a858563ffffffff612d6416565b61377a888863ffffffff612d6416565b9063ffffffff61482b16565b9950505050505050505050610a88565b6137a081866147a5565b9998505050505050505050565b6137b561572b565b6040805160208101909152835181906129f1908563ffffffff61277c16565b8051600090610a2e90670de0b6b3a764000063ffffffff61243616565b60075461380590838363ffffffff61339c16565b6007555050565b613814610a79565b600d6000613820611459565b8152602081019190915260400160002055565b60025461384790600163ffffffff61241116565b600255565b61385461572b565b61385c61572b565b600061386661136a565b6001600160a01b031663d4a3e9d76040518163ffffffff1660e01b81526004016040805180830381600087803b15801561389f57600080fd5b505af11580156138b3573d6000803e3d6000fd5b505050506040513d601f19601f820116820180604052506138d79190810190615a64565b915091506138eb6106746001610fd3611459565b15613901576138f8614854565b92505050610a28565b8061390e576138f8613928565b50905090565b6000908152600d6020526040902060040190565b61393061572b565b506040805160208101909152670de0b6b3a7640000815290565b6000600755565b6000908152600d60205260409020600401805461ff001916610100179055565b61397961572b565b613981614876565b9050600061398d610a7f565b905060006139996115b0565b9050808210156139ae576139ab614899565b92505b6139b661572b565b6139db6139d5856116bf6139c8613928565b899063ffffffff61480216565b866148bb565b905060006139fa6130bc6139ed611756565b849063ffffffff6137ad16565b90506000806000613a0a84614946565b925092509250613a18611459565b89516040517f32fcaa1e76ed9517f4749d8ec9a77dd5e7329456d740b9bf9665d900eef5e28391613a4e91879087908790615f95565b60405180910390a2505050505050505050565b6000613a6d8383613495565b159392505050565b6000613a7f614ab2565b158015613a915750613a8f614ae1565b155b15614373576000613aa0614b0f565b613aa8614b36565b0390506000613ab5614b5d565b613abd614b84565b0390506000613aca614bab565b613ad2614bd2565b03905060005b613ae06126a9565b811015613db8576000613afa613af583614bf9565b614c37565b9050613b0461572b565b613b22613b1c6130bc846002015485600101546129cb565b876129cb565b9050613b2c61572b565b613b3a8360040154876129cb565b9050613b4461572b565b613b528460010154876129cb565b9050613b5c61572b565b613b7f82613b73613b6b613928565b61377a613928565b9063ffffffff61480216565b9050613b8961572b565b613b9a85600263ffffffff614c7416565b9050613ba461572b565b613bb585600263ffffffff614c7416565b9050613bbf61572b565b613bd084600263ffffffff614c7416565b9050613bda61572b565b613bee8261377a868663ffffffff61482b16565b9050613bf861572b565b613c03613266614cca565b15613c1857613c1182614ce5565b9050613c23565b613c20614cca565b90505b613c35613c2f8c614bf9565b82614d67565b613c41613af58c614bf9565b600f80546001808201835560009290925282547f8d1108e10bcb7c27dddfc02ed9d693a074039d026cf4ea4240b40f7d581ac8026006909202918201805460ff191660ff928316151517808255855461ff00199091166101009182900490931615150291909117808255845462010000600160b01b031990911662010000918290046001600160a01b0316909102179055828201547f8d1108e10bcb7c27dddfc02ed9d693a074039d026cf4ea4240b40f7d581ac80382015560028301547f8d1108e10bcb7c27dddfc02ed9d693a074039d026cf4ea4240b40f7d581ac80482015560038301547f8d1108e10bcb7c27dddfc02ed9d693a074039d026cf4ea4240b40f7d581ac80582015560048301547f8d1108e10bcb7c27dddfc02ed9d693a074039d026cf4ea4240b40f7d581ac8068201556005909201547f8d1108e10bcb7c27dddfc02ed9d693a074039d026cf4ea4240b40f7d581ac807909201919091559a909a019950613ad898505050505050505050565b50613dc3600f614daf565b8054613dd191600f9161573e565b5060005b600f5481101561420b57600f8181548110613dec57fe5b906000526020600020906006020160010154613e06612146565b106141fe57613e40600f8281548110613e1b57fe5b60009182526020909120600690910201546201000090046001600160a01b0316614e8b565b158015613e5a5750613e58600f8281548110613e1b57fe5b155b156141f957613e6761572b565b613ead600f8381548110613e7757fe5b906000526020600020906006020160020154600f8481548110613e9657fe5b9060005260206000209060060201600101546129cb565b9050613f08600f8381548110613ebf57fe5b906000526020600020906006020160000160029054906101000a90046001600160a01b0316600f8481548110613ef157fe5b906000526020600020906006020160010154612376565b156141c25760408051602081019091526018548152613f2e90829063ffffffff613a6116565b15613f3d578051601855613f69565b60408051602081019091526017548152613f5e90829063ffffffff6129fa16565b15613f695780516017555b601654600f8381548110613f7957fe5b9060005260206000209060060201600401541015613fbb57600f8281548110613f9e57fe5b906000526020600020906006020160040154601681905550614009565b601354600f8381548110613fcb57fe5b906000526020600020906006020160040154111561400957600f8281548110613ff057fe5b9060005260206000209060060201600401546013819055505b614012816137d4565b601580549091019055600f80548390811061402957fe5b6000918252602090912060046006909202010154601480549091019055600f80548390811061405457fe5b6000918252602090912060026006909202010154601280549091019055600f80548390811061407f57fe5b60009182526020822060016006909202010154601180549091019055600f80546140c89190859081106140ae57fe5b906000526020600020906006020160040154610bb1611459565b9050614123600f84815481106140da57fe5b906000526020600020906006020160000160029054906101000a90046001600160a01b0316600f858154811061410c57fe5b9060005260206000209060060201600101546130c9565b61417d600f848154811061413357fe5b906000526020600020906006020160000160029054906101000a90046001600160a01b031682600f868154811061416657fe5b906000526020600020906006020160020154612209565b6141b3600f848154811061418d57fe5b60009182526020909120600690910201546201000090046001600160a01b031684614ed2565b506010805460010190556141f7565b6141f7600f83815481106141d257fe5b60009182526020909120600690910201546201000090046001600160a01b0316614f73565b505b614203565b61420b565b600101613dd5565b50601054156143165761421c61572b565b61422a6015546010546129cb565b905061423461572b565b6142426014546010546129cb565b905061424c61572b565b61426260646130b0600f805490506010546129cb565b905061426f601654614fc6565b61427a601354614fea565b61428b614286836137d4565b61500e565b604080516020810190915260185481526142ad906142a8906137d4565b615032565b604080516020810190915260175481526142cf906142ca906137d4565b615056565b6142e06142db846137d4565b61507a565b6142f16142ec826137d4565b61509e565b6142fc6010546150c2565b6143076012546150e6565b61431260115461510a565b5050505b614322600f6000615812565b60006010819055601181905560128190556013819055601481905560155560001960165561434e614cca565b5160175550506040805160208101909152600019908190526018555060019050610a28565b506000610a28565b6000908152600d60205260409020600401805462ff0000191662010000179055565b600d60006143a9611459565b815260208101919091526040016000206004015460ff166113fc576000600d816143d1611459565b8152602001908152602001600020600401600501819055506000196000600d0160006143fb611459565b81526020810191909152604001600090812060050191909155600d8161441f611459565b8152602001908152602001600020600401600201819055506000196000600d016000614449611459565b81526020810191909152604001600090812060070191909155600d8161446d611459565b8152602001908152602001600020600401600401819055506000196000600d016000614497611459565b81526020810191909152604001600090812060140191909155600d816144bb611459565b81526020019081526020016000206004016011018190555060016000600d0160006144e4611459565b81526020810191909152604001600020600401805460ff1916911515919091179055565b61451061572b565b61453061452a61451e61512e565b6116bf85613b73613928565b836148bb565b905060006145426130bc6139ed611756565b905061454d81613514565b614555611459565b83516040517f5e139d4b8080a4a00dcc151e8217694aeebae893936326aa22096924a990667791610d8e918590615f6c565b600061459282611ce0565b9050600080806145a185615150565b60006145ab610a7f565b905060006145b76115b0565b9050808211156145ec576145d1828263ffffffff61296716565b94506145dc85615193565b6145e585614946565b9095509350505b867f753df65b37159bf237ae1fca97ba1bd57cf83bc9498f271a514a4d7bafe87bda878787876040516146229493929190615f95565b60405180910390a250505050505050565b6000828152600d6020908152604080832060020184905592825291812060030180546001810182559082529190200155565b3b151590565b60075461467e908263ffffffff61241116565b60075550565b61468c61572b565b5060408051602081019091526704db732547630000815290565b60006147266130bc6146b661128a565b6001600160a01b03166318160ddd6040518163ffffffff1660e01b815260040160206040518083038186803b1580156146ee57600080fd5b505afa158015614702573d6000803e3d6000fd5b505050506040513d601f19601f820116820180604052506139ed9190810190615ab2565b90506000614732612146565b905081811115611cc657600061474e828463ffffffff61296716565b90506130968161521a565b61476161572b565b610a2e614770600160036129cb565b613b7361479d614793600261478788613b73613928565b9063ffffffff614c7416565b6116cb6003615259565b6116bf613928565b6147ad61572b565b6147bd838363ffffffff61528d16565b156147d2576147cb83614759565b9050610a2e565b610a886147e1600160036129cb565b613b7361479d6147f387613b73613928565b6116cb61479388613b73613928565b61480a61572b565b60408051602081019091528251845182916129f1919063ffffffff61296716565b61483361572b565b60408051602081019091528251845182916129f1919063ffffffff61241116565b61485c61572b565b50604080516020810190915267155f2dd73a1a0000815290565b61487e61572b565b50604080516020810190915268015af1d78b58c40000815290565b6148a161572b565b50604080516020810190915267e73435bb46020000815290565b6148c361572b565b6148cb61572b565b6148d3615294565b905060006148df610a7f565b905060006148eb6115b0565b90506149056148f8613928565b869063ffffffff6129fa16565b801561491057508082105b156149205761491d6152b5565b92505b614930868463ffffffff6129fa16565b61493a578561493c565b825b9695505050505050565b6000808080808080614956610a7f565b905060006149626115b0565b905080821015614a1f5761497c818363ffffffff61296716565b94506149a4614993606461498e6152d6565b612967565b610cd487606463ffffffff61277c16565b94508885116149b357846149b5565b885b94506149d46064610cd46149c76152d6565b889063ffffffff61277c16565b92506149e6858463ffffffff61296716565b94506149f1836152db565b6149fa8561536f565b614a0a898463ffffffff61296716565b9850614a1c898663ffffffff61296716565b98505b6000614a29612146565b905060008a118015614a3b5750600081115b15614a6d57898111614a4d5780614a4f565b895b9450614a5a8561521a565b614a6a8a8663ffffffff61296716565b99505b614a7561113e565b614a7e57600099505b8915614a8d57614a8d8a615400565b8585614a9f8c8763ffffffff61241116565b9850985098505050505050509193909250565b6000600d81614abf611459565b815260208101919091526040016000206004015462010000900460ff16919050565b6000600d81614aee611459565b8152602081019190915260400160002060040154610100900460ff16919050565b6000600d81614b1c611459565b815260200190815260200160002060040160030154905090565b6000600d81614b43611459565b815260200190815260200160002060040160040154905090565b6000600d81614b6a611459565b815260200190815260200160002060040160010154905090565b6000600d81614b91611459565b815260200190815260200160002060040160020154905090565b6000600d81614bb8611459565b815260200190815260200160002060040160100154905090565b6000600d81614bdf611459565b815260200190815260200160002060040160110154905090565b6000600d81614c06611459565b8152602080820192909252604090810160009081208582526016019092529020546001600160a01b03169050919050565b6000600d81614c44611459565b8152602080820192909252604090810160009081206001600160a01b038616825260180190925290209050919050565b614c7c61572b565b81614c8b576147cb6001615259565b614c9361572b565b5060408051602081019091528351815260015b83811015614cc257614cb88286612d64565b9150600101614ca6565b509392505050565b614cd261572b565b5060408051602081019091526000815290565b614ced61572b565b614cf561572b565b614d176002614d0b85600163ffffffff6154a016565b9063ffffffff6154dd16565b90508291505b614d2d818363ffffffff613a6116565b15614d6157905080614d5a6002614d0b614d4d848063ffffffff61482b16565b869063ffffffff612d3616565b9050614d1d565b50919050565b80600d6000614d74611459565b8152602080820192909252604090810160009081206001600160a01b0390961681526018909501909152909220915160039092019190915550565b6000614e8782805480602002602001604051908101604052809291908181526020016000905b82821015614e7457600084815260209081902060408051610100808201835260068702909301805460ff80821615158452948104909416151582860152620100009093046001600160a01b03168183015260018084015460608301526002840154608083015282518086019093526003840154835260a0820192909252600483015460c082015260059092015460e08301529083529092019101614dd5565b5050855460009250600019019050615504565b5090565b6000600d81614e98611459565b8152602080820192909252604090810160009081206001600160a01b038616825260180190925290205460ff610100909104169050919050565b6001600d6000614ee0611459565b8152602080820192909252604090810160009081206001600160a01b03871682526018019092528120805460ff1916921515929092179091558290600d90614f26611459565b8152602001908152602001600020600401601301600083815260200190815260200160002060006101000a8154816001600160a01b0302191690836001600160a01b031602179055505050565b6001600d6000614f81611459565b8152602080820192909252604090810160009081206001600160a01b039095168152601890940190915290912080549115156101000261ff0019909216919091179055565b80600d6000614fd3611459565b815260208101919091526040016000206011015550565b80600d6000614ff7611459565b815260208101919091526040016000206012015550565b80600d600061501b611459565b815260208101919091526040016000206013015550565b80600d600061503f611459565b81526020810191909152604001600020600e015550565b80600d6000615063611459565b81526020810191909152604001600020600f015550565b80600d6000615087611459565b815260208101919091526040016000206010015550565b80600d60006150ab611459565b81526020810191909152604001600020600b015550565b80600d60006150cf611459565b81526020810191909152604001600020600a015550565b80600d60006150f3611459565b81526020810191909152604001600020600c015550565b80600d6000615117611459565b81526020810191909152604001600020600d015550565b61513661572b565b506040805160208101909152674563918244f40000815290565b600061515b82611ce0565b905080615168575061250c565b60085461517b908263ffffffff61296716565b600855506000908152600d6020526040812060010155565b61519b61128a565b6001600160a01b03166342966c68826040518263ffffffff1660e01b81526004016151c69190615f5e565b600060405180830381600087803b1580156151e057600080fd5b505af11580156151f4573d6000803e3d6000fd5b5050505061352d816040518060600160405280602a815260200161618b602a9139613604565b61352d816040518060400160405280601c81526020017f436f6d7074726f6c6c65723a206e6f7420656e6f7567682064656274000000008152506137f1565b61526161572b565b60408051602081019091528061528584670de0b6b3a764000063ffffffff61277c16565b905292915050565b5190511490565b61529c61572b565b50604080516020810190915266470de4df820000815290565b6152bd61572b565b506040805160208101909152666a94d74f430000815290565b602890565b801561250c576152e961128a565b6001600160a01b03166340c10f196152ff610a6a565b836040518363ffffffff1660e01b815260040161531d929190615e97565b602060405180830381600087803b15801561533757600080fd5b505af115801561534b573d6000803e3d6000fd5b505050506040513d601f19601f82011682018060405250612c489190810190615a46565b61537761128a565b6001600160a01b03166340c10f1930836040518363ffffffff1660e01b81526004016153a4929190615e97565b602060405180830381600087803b1580156153be57600080fd5b505af11580156153d2573d6000803e3d6000fd5b505050506040513d601f19601f820116820180604052506153f69190810190615a46565b5061352d8161565a565b615443600061540d61113e565b116a21b7b6b83a3937b63632b960a91b7f43616e74206d696e7420746f20656d70747920706f6f6c000000000000000000612321565b60006154626064610cd46154556152d6565b859063ffffffff61277c16565b90506000818311615474576000615484565b615484838363ffffffff61296716565b905061548f826152db565b61549881615673565b611cc6613531565b6154a861572b565b6040805160208101909152806129f16154cf85670de0b6b3a764000063ffffffff61277c16565b86519063ffffffff61241116565b6154e561572b565b6040805160208101909152835181906129f1908563ffffffff61243616565b818180821415615515575050611cc6565b61551d61572b565b8560028686030586018151811061553057fe5b602002602001015160a0015190505b81831361562c575b6155718187858151811061555757fe5b602002602001015160a00151613a6190919063ffffffff16565b1561558157600190920191615547565b6155ab86838151811061559057fe5b602002602001015160a0015182613a6190919063ffffffff16565b156155bc5760001990910190615581565b818313615627578582815181106155cf57fe5b60200260200101518684815181106155e357fe5b60200260200101518785815181106155f757fe5b6020026020010188858151811061560a57fe5b602090810291909101019190915252600190920191600019909101905b61553f565b8185121561563f5761563f868684615504565b8383121561565257615652868486615504565b505050505050565b60065461566d908263ffffffff61241116565b60065550565b801561250c5761568161128a565b6001600160a01b03166340c10f1930836040518363ffffffff1660e01b81526004016156ae929190615e97565b602060405180830381600087803b1580156156c857600080fd5b505af11580156156dc573d6000803e3d6000fd5b505050506040513d601f19601f820116820180604052506157009190810190615a46565b5061250c81612cef565b60405180606001604052806000815260200160008152602001600081525090565b6040518060200160405280600081525090565b8280548282559060005260206000209060060281019282156158065760005260206000209160060282015b82811115615806578254825460ff191660ff918216151517808455845461ff00199091166101009182900490921615150217808355835462010000600160b01b031990911662010000918290046001600160a01b0316909102178255600180840154908301556002808401549083015560038084015490830155600480840154908301556005808401549083015560069283019290910190615769565b50614e8792915061582f565b508054600082556006029060005260206000209081019061250c91905b610a2891905b80821115614e875780546001600160b01b03191681556000600182018190556002820181905560038201819055600482018190556005820155600601615835565b8035610a2e816160a2565b8051610a2e816160b6565b8035610a2e816160bf565b6000602082840312156158a957600080fd5b6158b36020615fd8565b905060006158c184846158d5565b82525092915050565b8035610a2e816160cc565b8051610a2e816160cc565b6000602082840312156158f257600080fd5b60006130c18484615876565b6000806040838503121561591157600080fd5b600061591d8585615876565b925050602061592e85828601615876565b9150509250929050565b60008060006060848603121561594d57600080fd5b60006159598686615876565b935050602061596a86828701615876565b925050604061597b868287016158ca565b9150509250925092565b6000806000806080858703121561599b57600080fd5b60006159a78787615876565b94505060206159b887828801615876565b93505060406159c9878288016158ca565b92505060606159da878288016158ca565b91505092959194509250565b600080604083850312156159f957600080fd5b6000615a058585615876565b925050602061592e8582860161588c565b60008060408385031215615a2957600080fd5b6000615a358585615876565b925050602061592e858286016158ca565b600060208284031215615a5857600080fd5b60006130c18484615881565b60008060408385031215615a7757600080fd5b6000615a838585615897565b925050602061592e85828601615881565b600060208284031215615aa657600080fd5b60006130c184846158ca565b600060208284031215615ac457600080fd5b60006130c184846158d5565b60008060408385031215615ae357600080fd5b6000615a3585856158ca565b600080600060608486031215615b0457600080fd5b6000615b1086866158ca565b935050602061596a868287016158ca565b615b2a81616045565b82525050565b615b2a8161600c565b615b2a81616017565b615b2a615b4e8261601c565b610a28565b615b2a615b4e82610a28565b6000615b6a82615fff565b615b748185610a47565b9350615b84818560208601616062565b9290920192915050565b615b2a8161604c565b615b2a81616057565b6000615bab82615fff565b615bb58185616003565b9350615bc5818560208601616062565b615bce8161608e565b9093019392505050565b6000615be5601b83616003565b7f536166654d6174683a206164646974696f6e206f766572666c6f770000000000815260200192915050565b6000615c1e602b83616003565b7f4d61726b65743a20436f75706f6e207472616e7366657220746f20746865207a81526a65726f206164647265737360a81b602082015260400192915050565b6000615c6b602183616003565b7f536166654d6174683a206d756c7469706c69636174696f6e206f766572666c6f8152607760f81b602082015260400192915050565b6000615cae603b83616003565b7f43616e6e6f742073657420612070726f787920696d706c656d656e746174696f81527f6e20746f2061206e6f6e2d636f6e747261637420616464726573730000000000602082015260400192915050565b6000615d0d602a83616003565b7f4d61726b65743a20436f75706f6e20617070726f766520746f20746865207a65815269726f206164647265737360b01b602082015260400192915050565b6000615d59602d83616003565b7f4d61726b65743a20436f75706f6e207472616e736665722066726f6d2074686581526c207a65726f206164647265737360981b602082015260400192915050565b6000615da8601b83616003565b7f4d61726b65743a20546f6f206561726c7920746f2072656465656d0000000000815260200192915050565b615b2a81610a28565b615b2a8161603f565b6000615df28284615b53565b50602001919050565b6000610a888284615b5f565b6000615e138286615b5f565b9150615e1f8285615b42565b600282019150615e2f8284615b5f565b95945050505050565b60208101610a2e8284615b30565b60608101615e548286615b21565b615e616020830185615b30565b6130c16040830184615dd4565b60408101615e7c8285615b21565b610a886020830184615dd4565b60608101615e548286615b30565b60408101615e7c8285615b30565b60208101610a2e8284615b39565b60208101610a2e8284615b8e565b60208101610a2e8284615b97565b60408101615e7c8285615b97565b60208082528101610a888184615ba0565b60208082528101610a2e81615bd8565b60208082528101610a2e81615c11565b60208082528101610a2e81615c5e565b60208082528101610a2e81615ca1565b60208082528101610a2e81615d00565b60208082528101610a2e81615d4c565b60208082528101610a2e81615d9b565b60208101610a2e8284615dd4565b60408101615e7c8285615dd4565b60608101615f888286615dd4565b615e616020830185615dd4565b60808101615fa38287615dd4565b615fb06020830186615dd4565b615fbd6040830185615dd4565b615e2f6060830184615dd4565b60208101610a2e8284615ddd565b60405181810167ffffffffffffffff81118282101715615ff757600080fd5b604052919050565b5190565b90815260200190565b6000610a2e82616033565b151590565b6001600160f01b03191690565b80610a4781616098565b6001600160a01b031690565b60ff1690565b6000610a2e825b6000610a2e8261600c565b6000610a2e82616029565b60005b8381101561607d578181015183820152602001616065565b838111156130965750506000910152565b601f01601f191690565b6003811061250c57fe5b6160ab8161600c565b811461250c57600080fd5b6160ab81616017565b6003811061250c57600080fd5b6160ab81610a2856fe4d61726b65743a20496e73756666696369656e7420636f75706f6e2062616c616e6365426f6e64696e673a20696e73756666696369656e74207374616765642062616c616e63654d61726b65743a20496e73756666696369656e7420636f75706f6e20617070726f76616c426f6e64696e673a20696e73756666696369656e7420746f74616c20626f6e646564436f6d7074726f6c6c65723a206e6f7420656e6f756768206f75747374616e64696e672064656274436f6d7074726f6c6c65723a206e6f7420656e6f7567682072656465656d61626c652062616c616e6365a365627a7a723158200bc854e0f3137a66004f32c75c824d61bd7c9c434ca4835091fef7696bb963c96c6578706572696d656e74616cf564736f6c63430005110040",
  "source": "/*\n    Copyright 2020 Dynamic Dollar Devs, based on the works of the Empty Set Squad\n\n    Licensed under the Apache License, Version 2.0 (the \"License\");\n    you may not use this file except in compliance with the License.\n    You may obtain a copy of the License at\n\n    http://www.apache.org/licenses/LICENSE-2.0\n\n    Unless required by applicable law or agreed to in writing, software\n    distributed under the License is distributed on an \"AS IS\" BASIS,\n    WITHOUT WARRANTIES OR CONDITIONS OF ANY KIND, either express or implied.\n    See the License for the specific language governing permissions and\n    limitations under the License.\n*/\n\npragma solidity ^0.5.17;\npragma experimental ABIEncoderV2;\n\nimport \"@openzeppelin/contracts/math/SafeMath.sol\";\nimport \"./Market.sol\";\nimport \"./Regulator.sol\";\nimport \"./Bonding.sol\";\nimport \"./Govern.sol\";\nimport \"../Constants.sol\";\n\ncontract Implementation is State, Bonding, Market, Regulator, Govern {\n    using SafeMath for uint256;\n\n    event Advance(uint256 indexed epoch, uint256 block, uint256 timestamp);\n    event Incentivization(address indexed account, uint256 amount);\n\n    function initialize() initializer public {\n        // committer reward:\n        mintToAccount(msg.sender, 100e18); // 100 DSD to committer\n        // contributor  rewards:\n        mintToAccount(0x61105dD0b0deD973BC94BB054f314c46A0234B06, 1000e18); // 1000 DSD to @cinquemb\n    }\n\n    function advance() external incentivized {\n        Bonding.step();\n        Regulator.step();\n        Market.step();\n\n        emit Advance(epoch(), block.number, block.timestamp);\n    }\n\n    modifier incentivized {\n        // Mint advance reward to sender\n        uint256 incentive = Constants.getAdvanceIncentive();\n        mintToAccount(msg.sender, incentive);\n        emit Incentivization(msg.sender, incentive);\n        _;\n    }\n}\n",
  "sourcePath": "/Users/cinquemb/Documents/Startups/crypto/dollar/protocol/contracts/dao/Implementation.sol",
  "compiler": {
    "name": "solc",
    "version": "0.5.17+commit.d19bba13.Emscripten.clang"
  },
  "schemaVersion": "3.3.3",
  "updatedAt": "2021-01-13T13:26:25.325Z",
  "devdoc": {
    "methods": {}
  },
  "userdoc": {
    "methods": {
      "balanceOfStaged(address)": {
        "notice": "Account"
      },
      "dollar()": {
        "notice": "Global"
      },
      "epoch()": {
        "notice": "Epoch"
      },
      "name()": {
        "notice": "ERC20 Interface"
      },
      "recordedVote(address,address)": {
        "notice": "Governance"
      },
      "transfer(address,uint256)": {
        "notice": "ERC20 Interface"
      }
    }
  }
}