{
  "contractName": "Liquidity",
  "abi": [
    {
      "constant": true,
      "inputs": [
        {
          "internalType": "address",
          "name": "account",
          "type": "address"
        }
      ],
      "name": "balanceOfBonded",
      "outputs": [
        {
          "internalType": "uint256",
          "name": "",
          "type": "uint256"
        }
      ],
      "payable": false,
      "stateMutability": "view",
      "type": "function"
    },
    {
      "constant": true,
      "inputs": [
        {
          "internalType": "address",
          "name": "account",
          "type": "address"
        }
      ],
      "name": "balanceOfClaimable",
      "outputs": [
        {
          "internalType": "uint256",
          "name": "",
          "type": "uint256"
        }
      ],
      "payable": false,
      "stateMutability": "view",
      "type": "function"
    },
    {
      "constant": true,
      "inputs": [
        {
          "internalType": "address",
          "name": "account",
          "type": "address"
        }
      ],
      "name": "balanceOfPhantom",
      "outputs": [
        {
          "internalType": "uint256",
          "name": "",
          "type": "uint256"
        }
      ],
      "payable": false,
      "stateMutability": "view",
      "type": "function"
    },
    {
      "constant": true,
      "inputs": [
        {
          "internalType": "address",
          "name": "account",
          "type": "address"
        }
      ],
      "name": "balanceOfRewarded",
      "outputs": [
        {
          "internalType": "uint256",
          "name": "",
          "type": "uint256"
        }
      ],
      "payable": false,
      "stateMutability": "view",
      "type": "function"
    },
    {
      "constant": true,
      "inputs": [
        {
          "internalType": "address",
          "name": "account",
          "type": "address"
        }
      ],
      "name": "balanceOfStaged",
      "outputs": [
        {
          "internalType": "uint256",
          "name": "",
          "type": "uint256"
        }
      ],
      "payable": false,
      "stateMutability": "view",
      "type": "function"
    },
    {
      "constant": true,
      "inputs": [],
      "name": "dao",
      "outputs": [
        {
          "internalType": "contract IDAO",
          "name": "",
          "type": "address"
        }
      ],
      "payable": false,
      "stateMutability": "view",
      "type": "function"
    },
    {
      "constant": true,
      "inputs": [],
      "name": "dollar",
      "outputs": [
        {
          "internalType": "contract IDollar",
          "name": "",
          "type": "address"
        }
      ],
      "payable": false,
      "stateMutability": "view",
      "type": "function"
    },
    {
      "constant": true,
      "inputs": [],
      "name": "paused",
      "outputs": [
        {
          "internalType": "bool",
          "name": "",
          "type": "bool"
        }
      ],
      "payable": false,
      "stateMutability": "view",
      "type": "function"
    },
    {
      "constant": true,
      "inputs": [
        {
          "internalType": "address",
          "name": "account",
          "type": "address"
        }
      ],
      "name": "statusOf",
      "outputs": [
        {
          "internalType": "enum PoolAccount.Status",
          "name": "",
          "type": "uint8"
        }
      ],
      "payable": false,
      "stateMutability": "view",
      "type": "function"
    },
    {
      "constant": true,
      "inputs": [],
      "name": "totalBonded",
      "outputs": [
        {
          "internalType": "uint256",
          "name": "",
          "type": "uint256"
        }
      ],
      "payable": false,
      "stateMutability": "view",
      "type": "function"
    },
    {
      "constant": true,
      "inputs": [],
      "name": "totalClaimable",
      "outputs": [
        {
          "internalType": "uint256",
          "name": "",
          "type": "uint256"
        }
      ],
      "payable": false,
      "stateMutability": "view",
      "type": "function"
    },
    {
      "constant": true,
      "inputs": [],
      "name": "totalPhantom",
      "outputs": [
        {
          "internalType": "uint256",
          "name": "",
          "type": "uint256"
        }
      ],
      "payable": false,
      "stateMutability": "view",
      "type": "function"
    },
    {
      "constant": true,
      "inputs": [],
      "name": "totalRewarded",
      "outputs": [
        {
          "internalType": "uint256",
          "name": "",
          "type": "uint256"
        }
      ],
      "payable": false,
      "stateMutability": "view",
      "type": "function"
    },
    {
      "constant": true,
      "inputs": [],
      "name": "totalStaged",
      "outputs": [
        {
          "internalType": "uint256",
          "name": "",
          "type": "uint256"
        }
      ],
      "payable": false,
      "stateMutability": "view",
      "type": "function"
    },
    {
      "constant": true,
      "inputs": [],
      "name": "univ2",
      "outputs": [
        {
          "internalType": "contract IERC20",
          "name": "",
          "type": "address"
        }
      ],
      "payable": false,
      "stateMutability": "view",
      "type": "function"
    },
    {
      "constant": true,
      "inputs": [],
      "name": "usdc",
      "outputs": [
        {
          "internalType": "address",
          "name": "",
          "type": "address"
        }
      ],
      "payable": false,
      "stateMutability": "view",
      "type": "function"
    }
  ],
  "bytecode": "0x608060405234801561001057600080fd5b506108f8806100206000396000f3fe608060405234801561001057600080fd5b50600436106101005760003560e01c80637298d36e11610097578063aed29d0711610066578063aed29d07146101e6578063c0d7a94f146101ee578063cf02377914610201578063e0cf72851461020957610100565b80637298d36e14610198578063825ad607146101a057806386cf9f14146101b357806397a5d5b5146101c657610100565b806344d96e95116100d357806344d96e951461016b5780634838ed191461017357806351adeb571461017b5780635c975abb1461018357610100565b80631667eb171461010557806329f32ed41461012e5780633e413bee146101415780634162169f14610156575b600080fd5b610118610113366004610663565b610211565b60405161012591906107f7565b60405180910390f35b61011861013c366004610663565b610233565b610149610251565b604051610125919061078e565b61015e610260565b60405161012591906107aa565b61011861026f565b610118610275565b61015e61027b565b61018b61028a565b604051610125919061079c565b61015e610293565b6101186101ae366004610663565b6102a2565b6101186101c1366004610663565b6102c0565b6101d96101d4366004610663565b6102db565b60405161012591906107b8565b610118610315565b6101186101fc366004610663565b6103b1565b610118610459565b61011861045f565b6001600160a01b0381166000908152600860205260409020600101545b919050565b6001600160a01b031660009081526008602052604090206003015490565b600061025b610465565b905090565b6004546001600160a01b031690565b60025490565b60015490565b6005546001600160a01b031690565b60075460ff1690565b6006546001600160a01b031690565b6001600160a01b031660009081526008602052604090206002015490565b6001600160a01b031660009081526008602052604090205490565b6001600160a01b0381166000908152600860205260408120600401546102ff61047d565b101561030c57600161030f565b60005b92915050565b600061025b610322610275565b61032a61027b565b6001600160a01b03166370a08231306040518263ffffffff1660e01b8152600401610355919061078e565b60206040518083038186803b15801561036d57600080fd5b505afa158015610381573d6000803e3d6000fd5b505050506040513d601f19601f820116820180604052506103a59190810190610689565b9063ffffffff6104f716565b6000806103bc61026f565b9050806103cd57600091505061022e565b60006103ee6103da61045f565b6103e2610315565b9063ffffffff61054016565b9050600061041b8361040f610402886102a2565b859063ffffffff61056e16565b9063ffffffff6105a816565b9050600061042886610233565b90508082111561044d57610442828263ffffffff6104f716565b94505050505061022e565b50600095945050505050565b60005490565b60035490565b73a0b86991c6218b36c1d19d4a2e9eb0ce3606eb4890565b6000610487610260565b6001600160a01b031663900cf0cf6040518163ffffffff1660e01b815260040160206040518083038186803b1580156104bf57600080fd5b505afa1580156104d3573d6000803e3d6000fd5b505050506040513d601f19601f8201168201806040525061025b9190810190610689565b600061053983836040518060400160405280601e81526020017f536166654d6174683a207375627472616374696f6e206f766572666c6f7700008152506105ea565b9392505050565b6000828201838110156105395760405162461bcd60e51b8152600401610565906107d7565b60405180910390fd5b60008261057d5750600061030f565b8282028284828161058a57fe5b04146105395760405162461bcd60e51b8152600401610565906107e7565b600061053983836040518060400160405280601a81526020017f536166654d6174683a206469766973696f6e206279207a65726f000000000000815250610616565b6000818484111561060e5760405162461bcd60e51b815260040161056591906107c6565b505050900390565b600081836106375760405162461bcd60e51b815260040161056591906107c6565b50600083858161064357fe5b0495945050505050565b803561030f81610898565b805161030f816108ac565b60006020828403121561067557600080fd5b6000610681848461064d565b949350505050565b60006020828403121561069b57600080fd5b60006106818484610658565b6106b081610812565b82525050565b6106b08161081d565b6106b08161083b565b6106b081610846565b60006106dc82610805565b6106e68185610809565b93506106f6818560208601610851565b6106ff81610881565b9093019392505050565b6000610716601b83610809565b7f536166654d6174683a206164646974696f6e206f766572666c6f770000000000815260200192915050565b600061074f602183610809565b7f536166654d6174683a206d756c7469706c69636174696f6e206f766572666c6f8152607760f81b602082015260400192915050565b6106b081610838565b6020810161030f82846106a7565b6020810161030f82846106b6565b6020810161030f82846106bf565b6020810161030f82846106c8565b6020808252810161053981846106d1565b6020808252810161030f81610709565b6020808252810161030f81610742565b6020810161030f8284610785565b5190565b90815260200190565b600061030f8261082c565b151590565b8061022e8161088b565b6001600160a01b031690565b90565b600061030f82610812565b600061030f82610822565b60005b8381101561086c578181015183820152602001610854565b8381111561087b576000848401525b50505050565b601f01601f191690565b6003811061089557fe5b50565b6108a181610812565b811461089557600080fd5b6108a18161083856fea365627a7a723158202811132f61a89fcebed784e624a619762fa68f000442995b3954e2278a80303a6c6578706572696d656e74616cf564736f6c63430005110040",
  "source": "/*\n    Copyright 2020 Dynamic Dollar Devs, based on the works of the Empty Set Squad\n\n    Licensed under the Apache License, Version 2.0 (the \"License\");\n    you may not use this file except in compliance with the License.\n    You may obtain a copy of the License at\n\n    http://www.apache.org/licenses/LICENSE-2.0\n\n    Unless required by applicable law or agreed to in writing, software\n    distributed under the License is distributed on an \"AS IS\" BASIS,\n    WITHOUT WARRANTIES OR CONDITIONS OF ANY KIND, either express or implied.\n    See the License for the specific language governing permissions and\n    limitations under the License.\n*/\n\npragma solidity ^0.5.17;\npragma experimental ABIEncoderV2;\n\nimport \"@openzeppelin/contracts/token/ERC20/IERC20.sol\";\nimport '@uniswap/v2-core/contracts/interfaces/IUniswapV2Pair.sol';\nimport '../external/UniswapV2Library.sol';\nimport \"../Constants.sol\";\nimport \"./PoolGetters.sol\";\n\ncontract Liquidity is PoolGetters {\n    address private constant UNISWAP_FACTORY = address(0x5C69bEe701ef814a2B6a3EDD4B1652CB9cc5aA6f);\n\n    function addLiquidity(uint256 dollarAmount) internal returns (uint256, uint256) {\n        (address dollar, address usdc) = (address(dollar()), usdc());\n        (uint reserveA, uint reserveB) = getReserves(dollar, usdc);\n\n        uint256 usdcAmount = (reserveA == 0 && reserveB == 0) ?\n             dollarAmount :\n             UniswapV2Library.quote(dollarAmount, reserveA, reserveB);\n\n        address pair = address(univ2());\n        IERC20(dollar).transfer(pair, dollarAmount);\n        IERC20(usdc).transferFrom(msg.sender, pair, usdcAmount);\n        return (usdcAmount, IUniswapV2Pair(pair).mint(address(this)));\n    }\n\n    // overridable for testing\n    function getReserves(address tokenA, address tokenB) internal view returns (uint reserveA, uint reserveB) {\n        (address token0,) = UniswapV2Library.sortTokens(tokenA, tokenB);\n        (uint reserve0, uint reserve1,) = IUniswapV2Pair(UniswapV2Library.pairFor(UNISWAP_FACTORY, tokenA, tokenB)).getReserves();\n        (reserveA, reserveB) = tokenA == token0 ? (reserve0, reserve1) : (reserve1, reserve0);\n    }\n}\n",
  "sourcePath": "/home/name/Desktop/Files/projects/dynamic/dollar/protocol/contracts/oracle/Liquidity.sol",
  "compiler": {
    "name": "solc",
    "version": "0.5.17+commit.d19bba13.Emscripten.clang"
  },
  "schemaVersion": "3.3.1",
  "updatedAt": "2020-11-25T22:34:45.290Z",
  "devdoc": {
    "methods": {}
  },
  "userdoc": {
    "methods": {
      "balanceOfStaged(address)": {
        "notice": "Account"
      },
      "usdc()": {
        "notice": "Global"
      }
    }
  }
}