{
  "contractName": "Market",
  "abi": [
    {
      "anonymous": false,
      "inputs": [
        {
          "indexed": true,
          "internalType": "address",
          "name": "owner",
          "type": "address"
        },
        {
          "indexed": true,
          "internalType": "address",
          "name": "spender",
          "type": "address"
        },
        {
          "indexed": false,
          "internalType": "uint256",
          "name": "value",
          "type": "uint256"
        }
      ],
      "name": "CouponApproval",
      "type": "event"
    },
    {
      "anonymous": false,
      "inputs": [
        {
          "indexed": true,
          "internalType": "address",
          "name": "account",
          "type": "address"
        },
        {
          "indexed": true,
          "internalType": "uint256",
          "name": "epoch",
          "type": "uint256"
        },
        {
          "indexed": false,
          "internalType": "uint256",
          "name": "dollarAmount",
          "type": "uint256"
        },
        {
          "indexed": false,
          "internalType": "uint256",
          "name": "maxCouponAmount",
          "type": "uint256"
        }
      ],
      "name": "CouponBidPlaced",
      "type": "event"
    },
    {
      "anonymous": false,
      "inputs": [
        {
          "indexed": true,
          "internalType": "address",
          "name": "account",
          "type": "address"
        },
        {
          "indexed": true,
          "internalType": "uint256",
          "name": "epoch",
          "type": "uint256"
        },
        {
          "indexed": false,
          "internalType": "uint256",
          "name": "couponAmount",
          "type": "uint256"
        }
      ],
      "name": "CouponBurn",
      "type": "event"
    },
    {
      "anonymous": false,
      "inputs": [
        {
          "indexed": true,
          "internalType": "uint256",
          "name": "epoch",
          "type": "uint256"
        },
        {
          "indexed": false,
          "internalType": "uint256",
          "name": "couponsExpired",
          "type": "uint256"
        },
        {
          "indexed": false,
          "internalType": "uint256",
          "name": "lessRedeemable",
          "type": "uint256"
        },
        {
          "indexed": false,
          "internalType": "uint256",
          "name": "lessDebt",
          "type": "uint256"
        },
        {
          "indexed": false,
          "internalType": "uint256",
          "name": "newBonded",
          "type": "uint256"
        }
      ],
      "name": "CouponExpiration",
      "type": "event"
    },
    {
      "anonymous": false,
      "inputs": [
        {
          "indexed": true,
          "internalType": "address",
          "name": "account",
          "type": "address"
        },
        {
          "indexed": true,
          "internalType": "uint256",
          "name": "epoch",
          "type": "uint256"
        },
        {
          "indexed": false,
          "internalType": "uint256",
          "name": "dollarAmount",
          "type": "uint256"
        },
        {
          "indexed": false,
          "internalType": "uint256",
          "name": "couponAmount",
          "type": "uint256"
        }
      ],
      "name": "CouponPurchase",
      "type": "event"
    },
    {
      "anonymous": false,
      "inputs": [
        {
          "indexed": true,
          "internalType": "address",
          "name": "account",
          "type": "address"
        },
        {
          "indexed": true,
          "internalType": "uint256",
          "name": "epoch",
          "type": "uint256"
        },
        {
          "indexed": false,
          "internalType": "uint256",
          "name": "couponAmount",
          "type": "uint256"
        }
      ],
      "name": "CouponRedemption",
      "type": "event"
    },
    {
      "anonymous": false,
      "inputs": [
        {
          "indexed": true,
          "internalType": "address",
          "name": "from",
          "type": "address"
        },
        {
          "indexed": true,
          "internalType": "address",
          "name": "to",
          "type": "address"
        },
        {
          "indexed": true,
          "internalType": "uint256",
          "name": "epoch",
          "type": "uint256"
        },
        {
          "indexed": false,
          "internalType": "uint256",
          "name": "value",
          "type": "uint256"
        }
      ],
      "name": "CouponTransfer",
      "type": "event"
    },
    {
      "anonymous": false,
      "inputs": [
        {
          "indexed": true,
          "internalType": "address",
          "name": "from",
          "type": "address"
        },
        {
          "indexed": true,
          "internalType": "address",
          "name": "to",
          "type": "address"
        },
        {
          "indexed": false,
          "internalType": "uint256",
          "name": "value",
          "type": "uint256"
        }
      ],
      "name": "Transfer",
      "type": "event"
    },
    {
      "constant": true,
      "inputs": [
        {
          "internalType": "address",
          "name": "owner",
          "type": "address"
        },
        {
          "internalType": "address",
          "name": "spender",
          "type": "address"
        }
      ],
      "name": "allowance",
      "outputs": [
        {
          "internalType": "uint256",
          "name": "",
          "type": "uint256"
        }
      ],
      "payable": false,
      "stateMutability": "view",
      "type": "function"
    },
    {
      "constant": true,
      "inputs": [
        {
          "internalType": "address",
          "name": "owner",
          "type": "address"
        },
        {
          "internalType": "address",
          "name": "spender",
          "type": "address"
        }
      ],
      "name": "allowanceCoupons",
      "outputs": [
        {
          "internalType": "uint256",
          "name": "",
          "type": "uint256"
        }
      ],
      "payable": false,
      "stateMutability": "view",
      "type": "function"
    },
    {
      "constant": false,
      "inputs": [
        {
          "internalType": "address",
          "name": "spender",
          "type": "address"
        },
        {
          "internalType": "uint256",
          "name": "amount",
          "type": "uint256"
        }
      ],
      "name": "approve",
      "outputs": [
        {
          "internalType": "bool",
          "name": "",
          "type": "bool"
        }
      ],
      "payable": false,
      "stateMutability": "nonpayable",
      "type": "function"
    },
    {
      "constant": true,
      "inputs": [
        {
          "internalType": "address",
          "name": "candidate",
          "type": "address"
        }
      ],
      "name": "approveFor",
      "outputs": [
        {
          "internalType": "uint256",
          "name": "",
          "type": "uint256"
        }
      ],
      "payable": false,
      "stateMutability": "view",
      "type": "function"
    },
    {
      "constant": true,
      "inputs": [
        {
          "internalType": "address",
          "name": "account",
          "type": "address"
        }
      ],
      "name": "balanceOf",
      "outputs": [
        {
          "internalType": "uint256",
          "name": "",
          "type": "uint256"
        }
      ],
      "payable": false,
      "stateMutability": "view",
      "type": "function"
    },
    {
      "constant": true,
      "inputs": [
        {
          "internalType": "address",
          "name": "account",
          "type": "address"
        }
      ],
      "name": "balanceOfBonded",
      "outputs": [
        {
          "internalType": "uint256",
          "name": "",
          "type": "uint256"
        }
      ],
      "payable": false,
      "stateMutability": "view",
      "type": "function"
    },
    {
      "constant": true,
      "inputs": [
        {
          "internalType": "address",
          "name": "account",
          "type": "address"
        },
        {
          "internalType": "uint256",
          "name": "epoch",
          "type": "uint256"
        }
      ],
      "name": "balanceOfCoupons",
      "outputs": [
        {
          "internalType": "uint256",
          "name": "",
          "type": "uint256"
        }
      ],
      "payable": false,
      "stateMutability": "view",
      "type": "function"
    },
    {
      "constant": true,
      "inputs": [
        {
          "internalType": "address",
          "name": "account",
          "type": "address"
        }
      ],
      "name": "balanceOfStaged",
      "outputs": [
        {
          "internalType": "uint256",
          "name": "",
          "type": "uint256"
        }
      ],
      "payable": false,
      "stateMutability": "view",
      "type": "function"
    },
    {
      "constant": true,
      "inputs": [
        {
          "internalType": "uint256",
          "name": "epoch",
          "type": "uint256"
        }
      ],
      "name": "bootstrappingAt",
      "outputs": [
        {
          "internalType": "bool",
          "name": "",
          "type": "bool"
        }
      ],
      "payable": false,
      "stateMutability": "view",
      "type": "function"
    },
    {
      "constant": true,
      "inputs": [
        {
          "internalType": "uint256",
          "name": "epoch",
          "type": "uint256"
        }
      ],
      "name": "couponsExpiration",
      "outputs": [
        {
          "internalType": "uint256",
          "name": "",
          "type": "uint256"
        }
      ],
      "payable": false,
      "stateMutability": "view",
      "type": "function"
    },
    {
      "constant": true,
      "inputs": [],
      "name": "decimals",
      "outputs": [
        {
          "internalType": "uint8",
          "name": "",
          "type": "uint8"
        }
      ],
      "payable": false,
      "stateMutability": "view",
      "type": "function"
    },
    {
      "constant": true,
      "inputs": [],
      "name": "dollar",
      "outputs": [
        {
          "internalType": "contract IDollar",
          "name": "",
          "type": "address"
        }
      ],
      "payable": false,
      "stateMutability": "view",
      "type": "function"
    },
    {
      "constant": true,
      "inputs": [],
      "name": "epoch",
      "outputs": [
        {
          "internalType": "uint256",
          "name": "",
          "type": "uint256"
        }
      ],
      "payable": false,
      "stateMutability": "view",
      "type": "function"
    },
    {
      "constant": true,
      "inputs": [],
      "name": "epochTime",
      "outputs": [
        {
          "internalType": "uint256",
          "name": "",
          "type": "uint256"
        }
      ],
      "payable": false,
      "stateMutability": "view",
      "type": "function"
    },
    {
      "constant": true,
      "inputs": [
        {
          "internalType": "uint256",
          "name": "epoch",
          "type": "uint256"
        }
      ],
      "name": "expiringCoupons",
      "outputs": [
        {
          "internalType": "uint256",
          "name": "",
          "type": "uint256"
        }
      ],
      "payable": false,
      "stateMutability": "view",
      "type": "function"
    },
    {
      "constant": true,
      "inputs": [
        {
          "internalType": "uint256",
          "name": "epoch",
          "type": "uint256"
        },
        {
          "internalType": "uint256",
          "name": "i",
          "type": "uint256"
        }
      ],
      "name": "expiringCouponsAtIndex",
      "outputs": [
        {
          "internalType": "uint256",
          "name": "",
          "type": "uint256"
        }
      ],
      "payable": false,
      "stateMutability": "view",
      "type": "function"
    },
    {
      "constant": true,
      "inputs": [
        {
          "internalType": "address",
          "name": "account",
          "type": "address"
        }
      ],
      "name": "fluidUntil",
      "outputs": [
        {
          "internalType": "uint256",
          "name": "",
          "type": "uint256"
        }
      ],
      "payable": false,
      "stateMutability": "view",
      "type": "function"
    },
    {
      "constant": true,
      "inputs": [
        {
          "internalType": "uint256",
          "name": "epoch",
          "type": "uint256"
        }
      ],
      "name": "getAvgExpiryFilled",
      "outputs": [
        {
          "internalType": "uint256",
          "name": "",
          "type": "uint256"
        }
      ],
      "payable": false,
      "stateMutability": "view",
      "type": "function"
    },
    {
      "constant": true,
      "inputs": [
        {
          "internalType": "uint256",
          "name": "epoch",
          "type": "uint256"
        }
      ],
      "name": "getAvgYieldFilled",
      "outputs": [
        {
          "internalType": "uint256",
          "name": "",
          "type": "uint256"
        }
      ],
      "payable": false,
      "stateMutability": "view",
      "type": "function"
    },
    {
      "constant": true,
      "inputs": [
        {
          "internalType": "uint256",
          "name": "epoch",
          "type": "uint256"
        }
      ],
      "name": "getBidToCover",
      "outputs": [
        {
          "internalType": "uint256",
          "name": "",
          "type": "uint256"
        }
      ],
      "payable": false,
      "stateMutability": "view",
      "type": "function"
    },
    {
      "constant": true,
      "inputs": [],
      "name": "getLatestDeadAuctionEpoch",
      "outputs": [
        {
          "internalType": "uint256",
          "name": "",
          "type": "uint256"
        }
      ],
      "payable": false,
      "stateMutability": "view",
      "type": "function"
    },
    {
      "constant": true,
      "inputs": [
        {
          "internalType": "uint256",
          "name": "epoch",
          "type": "uint256"
        }
      ],
      "name": "getMaxExpiryFilled",
      "outputs": [
        {
          "internalType": "uint256",
          "name": "",
          "type": "uint256"
        }
      ],
      "payable": false,
      "stateMutability": "view",
      "type": "function"
    },
    {
      "constant": true,
      "inputs": [
        {
          "internalType": "uint256",
          "name": "epoch",
          "type": "uint256"
        }
      ],
      "name": "getMaxYieldFilled",
      "outputs": [
        {
          "internalType": "uint256",
          "name": "",
          "type": "uint256"
        }
      ],
      "payable": false,
      "stateMutability": "view",
      "type": "function"
    },
    {
      "constant": true,
      "inputs": [
        {
          "internalType": "uint256",
          "name": "epoch",
          "type": "uint256"
        }
      ],
      "name": "getMinExpiryFilled",
      "outputs": [
        {
          "internalType": "uint256",
          "name": "",
          "type": "uint256"
        }
      ],
      "payable": false,
      "stateMutability": "view",
      "type": "function"
    },
    {
      "constant": true,
      "inputs": [
        {
          "internalType": "uint256",
          "name": "epoch",
          "type": "uint256"
        }
      ],
      "name": "getMinYieldFilled",
      "outputs": [
        {
          "internalType": "uint256",
          "name": "",
          "type": "uint256"
        }
      ],
      "payable": false,
      "stateMutability": "view",
      "type": "function"
    },
    {
      "constant": true,
      "inputs": [
        {
          "internalType": "uint256",
          "name": "epoch",
          "type": "uint256"
        }
      ],
      "name": "getTotalAuctioned",
      "outputs": [
        {
          "internalType": "uint256",
          "name": "",
          "type": "uint256"
        }
      ],
      "payable": false,
      "stateMutability": "view",
      "type": "function"
    },
    {
      "constant": true,
      "inputs": [
        {
          "internalType": "uint256",
          "name": "epoch",
          "type": "uint256"
        }
      ],
      "name": "getTotalBurned",
      "outputs": [
        {
          "internalType": "uint256",
          "name": "",
          "type": "uint256"
        }
      ],
      "payable": false,
      "stateMutability": "view",
      "type": "function"
    },
    {
      "constant": true,
      "inputs": [
        {
          "internalType": "uint256",
          "name": "epoch",
          "type": "uint256"
        }
      ],
      "name": "getTotalFilled",
      "outputs": [
        {
          "internalType": "uint256",
          "name": "",
          "type": "uint256"
        }
      ],
      "payable": false,
      "stateMutability": "view",
      "type": "function"
    },
    {
      "constant": true,
      "inputs": [],
      "name": "implementation",
      "outputs": [
        {
          "internalType": "address",
          "name": "impl",
          "type": "address"
        }
      ],
      "payable": false,
      "stateMutability": "view",
      "type": "function"
    },
    {
      "constant": true,
      "inputs": [
        {
          "internalType": "address",
          "name": "candidate",
          "type": "address"
        }
      ],
      "name": "isInitialized",
      "outputs": [
        {
          "internalType": "bool",
          "name": "",
          "type": "bool"
        }
      ],
      "payable": false,
      "stateMutability": "view",
      "type": "function"
    },
    {
      "constant": true,
      "inputs": [
        {
          "internalType": "address",
          "name": "candidate",
          "type": "address"
        }
      ],
      "name": "isNominated",
      "outputs": [
        {
          "internalType": "bool",
          "name": "",
          "type": "bool"
        }
      ],
      "payable": false,
      "stateMutability": "view",
      "type": "function"
    },
    {
      "constant": true,
      "inputs": [
        {
          "internalType": "address",
          "name": "account",
          "type": "address"
        }
      ],
      "name": "lockedUntil",
      "outputs": [
        {
          "internalType": "uint256",
          "name": "",
          "type": "uint256"
        }
      ],
      "payable": false,
      "stateMutability": "view",
      "type": "function"
    },
    {
      "constant": true,
      "inputs": [],
      "name": "name",
      "outputs": [
        {
          "internalType": "string",
          "name": "",
          "type": "string"
        }
      ],
      "payable": false,
      "stateMutability": "view",
      "type": "function"
    },
    {
      "constant": true,
      "inputs": [],
      "name": "oracle",
      "outputs": [
        {
          "internalType": "contract IOracle",
          "name": "",
          "type": "address"
        }
      ],
      "payable": false,
      "stateMutability": "view",
      "type": "function"
    },
    {
      "constant": true,
      "inputs": [
        {
          "internalType": "uint256",
          "name": "epoch",
          "type": "uint256"
        }
      ],
      "name": "outstandingCoupons",
      "outputs": [
        {
          "internalType": "uint256",
          "name": "",
          "type": "uint256"
        }
      ],
      "payable": false,
      "stateMutability": "view",
      "type": "function"
    },
    {
      "constant": true,
      "inputs": [
        {
          "internalType": "address",
          "name": "candidate",
          "type": "address"
        }
      ],
      "name": "periodFor",
      "outputs": [
        {
          "internalType": "uint256",
          "name": "",
          "type": "uint256"
        }
      ],
      "payable": false,
      "stateMutability": "view",
      "type": "function"
    },
    {
      "constant": true,
      "inputs": [],
      "name": "pool",
      "outputs": [
        {
          "internalType": "address",
          "name": "",
          "type": "address"
        }
      ],
      "payable": false,
      "stateMutability": "view",
      "type": "function"
    },
    {
      "constant": true,
      "inputs": [
        {
          "internalType": "address",
          "name": "account",
          "type": "address"
        },
        {
          "internalType": "address",
          "name": "candidate",
          "type": "address"
        }
      ],
      "name": "recordedVote",
      "outputs": [
        {
          "internalType": "enum Candidate.Vote",
          "name": "",
          "type": "uint8"
        }
      ],
      "payable": false,
      "stateMutability": "view",
      "type": "function"
    },
    {
      "constant": true,
      "inputs": [
        {
          "internalType": "address",
          "name": "candidate",
          "type": "address"
        }
      ],
      "name": "rejectFor",
      "outputs": [
        {
          "internalType": "uint256",
          "name": "",
          "type": "uint256"
        }
      ],
      "payable": false,
      "stateMutability": "view",
      "type": "function"
    },
    {
      "constant": true,
      "inputs": [
        {
          "internalType": "address",
          "name": "candidate",
          "type": "address"
        }
      ],
      "name": "startFor",
      "outputs": [
        {
          "internalType": "uint256",
          "name": "",
          "type": "uint256"
        }
      ],
      "payable": false,
      "stateMutability": "view",
      "type": "function"
    },
    {
      "constant": true,
      "inputs": [
        {
          "internalType": "address",
          "name": "account",
          "type": "address"
        }
      ],
      "name": "statusOf",
      "outputs": [
        {
          "internalType": "enum Account.Status",
          "name": "",
          "type": "uint8"
        }
      ],
      "payable": false,
      "stateMutability": "view",
      "type": "function"
    },
    {
      "constant": true,
      "inputs": [],
      "name": "symbol",
      "outputs": [
        {
          "internalType": "string",
          "name": "",
          "type": "string"
        }
      ],
      "payable": false,
      "stateMutability": "view",
      "type": "function"
    },
    {
      "constant": true,
      "inputs": [],
      "name": "totalBonded",
      "outputs": [
        {
          "internalType": "uint256",
          "name": "",
          "type": "uint256"
        }
      ],
      "payable": false,
      "stateMutability": "view",
      "type": "function"
    },
    {
      "constant": true,
      "inputs": [
        {
          "internalType": "uint256",
          "name": "epoch",
          "type": "uint256"
        }
      ],
      "name": "totalBondedAt",
      "outputs": [
        {
          "internalType": "uint256",
          "name": "",
          "type": "uint256"
        }
      ],
      "payable": false,
      "stateMutability": "view",
      "type": "function"
    },
    {
      "constant": true,
      "inputs": [],
      "name": "totalCoupons",
      "outputs": [
        {
          "internalType": "uint256",
          "name": "",
          "type": "uint256"
        }
      ],
      "payable": false,
      "stateMutability": "view",
      "type": "function"
    },
    {
      "constant": true,
      "inputs": [],
      "name": "totalDebt",
      "outputs": [
        {
          "internalType": "uint256",
          "name": "",
          "type": "uint256"
        }
      ],
      "payable": false,
      "stateMutability": "view",
      "type": "function"
    },
    {
      "constant": true,
      "inputs": [],
      "name": "totalNet",
      "outputs": [
        {
          "internalType": "uint256",
          "name": "",
          "type": "uint256"
        }
      ],
      "payable": false,
      "stateMutability": "view",
      "type": "function"
    },
    {
      "constant": true,
      "inputs": [],
      "name": "totalRedeemable",
      "outputs": [
        {
          "internalType": "uint256",
          "name": "",
          "type": "uint256"
        }
      ],
      "payable": false,
      "stateMutability": "view",
      "type": "function"
    },
    {
      "constant": true,
      "inputs": [],
      "name": "totalStaged",
      "outputs": [
        {
          "internalType": "uint256",
          "name": "",
          "type": "uint256"
        }
      ],
      "payable": false,
      "stateMutability": "view",
      "type": "function"
    },
    {
      "constant": true,
      "inputs": [],
      "name": "totalSupply",
      "outputs": [
        {
          "internalType": "uint256",
          "name": "",
          "type": "uint256"
        }
      ],
      "payable": false,
      "stateMutability": "view",
      "type": "function"
    },
    {
      "constant": false,
      "inputs": [
        {
          "internalType": "address",
          "name": "recipient",
          "type": "address"
        },
        {
          "internalType": "uint256",
          "name": "amount",
          "type": "uint256"
        }
      ],
      "name": "transfer",
      "outputs": [
        {
          "internalType": "bool",
          "name": "",
          "type": "bool"
        }
      ],
      "payable": false,
      "stateMutability": "nonpayable",
      "type": "function"
    },
    {
      "constant": false,
      "inputs": [
        {
          "internalType": "address",
          "name": "sender",
          "type": "address"
        },
        {
          "internalType": "address",
          "name": "recipient",
          "type": "address"
        },
        {
          "internalType": "uint256",
          "name": "amount",
          "type": "uint256"
        }
      ],
      "name": "transferFrom",
      "outputs": [
        {
          "internalType": "bool",
          "name": "",
          "type": "bool"
        }
      ],
      "payable": false,
      "stateMutability": "nonpayable",
      "type": "function"
    },
    {
      "constant": true,
      "inputs": [
        {
          "internalType": "address",
          "name": "candidate",
          "type": "address"
        }
      ],
      "name": "votesFor",
      "outputs": [
        {
          "internalType": "uint256",
          "name": "",
          "type": "uint256"
        }
      ],
      "payable": false,
      "stateMutability": "view",
      "type": "function"
    },
    {
      "constant": true,
      "inputs": [
        {
          "internalType": "uint256",
          "name": "amount",
          "type": "uint256"
        }
      ],
      "name": "couponPremium",
      "outputs": [
        {
          "internalType": "uint256",
          "name": "",
          "type": "uint256"
        }
      ],
      "payable": false,
      "stateMutability": "view",
      "type": "function"
    },
    {
      "constant": true,
      "inputs": [
        {
          "internalType": "uint256",
          "name": "couponEpoch",
          "type": "uint256"
        },
        {
          "internalType": "uint256",
          "name": "couponAmount",
          "type": "uint256"
        }
      ],
      "name": "couponRedemptionPenalty",
      "outputs": [
        {
          "internalType": "uint256",
          "name": "",
          "type": "uint256"
        }
      ],
      "payable": false,
      "stateMutability": "view",
      "type": "function"
    },
    {
      "constant": false,
      "inputs": [
        {
          "internalType": "uint256",
          "name": "dollarAmount",
          "type": "uint256"
        }
      ],
      "name": "purchaseCoupons",
      "outputs": [
        {
          "internalType": "uint256",
          "name": "",
          "type": "uint256"
        }
      ],
      "payable": false,
      "stateMutability": "nonpayable",
      "type": "function"
    },
    {
      "constant": false,
      "inputs": [
        {
          "internalType": "uint256",
          "name": "couponEpoch",
          "type": "uint256"
        },
        {
          "internalType": "uint256",
          "name": "couponAmount",
          "type": "uint256"
        },
        {
          "internalType": "uint256",
          "name": "minOutput",
          "type": "uint256"
        }
      ],
      "name": "redeemCoupons",
      "outputs": [],
      "payable": false,
      "stateMutability": "nonpayable",
      "type": "function"
    },
    {
      "constant": false,
      "inputs": [
        {
          "internalType": "uint256",
          "name": "couponEpoch",
          "type": "uint256"
        },
        {
          "internalType": "uint256",
          "name": "couponAmount",
          "type": "uint256"
        }
      ],
      "name": "redeemCoupons",
      "outputs": [],
      "payable": false,
      "stateMutability": "nonpayable",
      "type": "function"
    },
    {
      "constant": false,
      "inputs": [
        {
          "internalType": "address",
          "name": "spender",
          "type": "address"
        },
        {
          "internalType": "uint256",
          "name": "amount",
          "type": "uint256"
        }
      ],
      "name": "approveCoupons",
      "outputs": [],
      "payable": false,
      "stateMutability": "nonpayable",
      "type": "function"
    },
    {
      "constant": false,
      "inputs": [
        {
          "internalType": "address",
          "name": "sender",
          "type": "address"
        },
        {
          "internalType": "address",
          "name": "recipient",
          "type": "address"
        },
        {
          "internalType": "uint256",
          "name": "epoch",
          "type": "uint256"
        },
        {
          "internalType": "uint256",
          "name": "amount",
          "type": "uint256"
        }
      ],
      "name": "transferCoupons",
      "outputs": [],
      "payable": false,
      "stateMutability": "nonpayable",
      "type": "function"
    },
    {
      "constant": false,
      "inputs": [
        {
          "internalType": "uint256",
          "name": "couponEpochExpiry",
          "type": "uint256"
        },
        {
          "internalType": "uint256",
          "name": "dollarAmount",
          "type": "uint256"
        },
        {
          "internalType": "uint256",
          "name": "maxCouponAmount",
          "type": "uint256"
        }
      ],
      "name": "placeCouponAuctionBid",
      "outputs": [
        {
          "internalType": "bool",
          "name": "",
          "type": "bool"
        }
      ],
      "payable": false,
      "stateMutability": "nonpayable",
      "type": "function"
    }
  ],
  "bytecode": "0x608060405234801561001057600080fd5b50612ce9806100206000396000f3fe608060405234801561001057600080fd5b50600436106103ae5760003560e01c8063825ad607116101f4578063bc7513e21161011a578063d8f54138116100ad578063eeaca09b1161007c578063eeaca09b1461078c578063f1b7cf491461079f578063fc7b9c18146107b2578063ffbe3b73146107ba576103ae565b8063d8f5413814610745578063dd62ed3e14610758578063dde74dc314610766578063e5f55c7e14610779576103ae565b8063cf023779116100e9578063cf02377914610704578063d53c6f5f1461070c578063d60b347f1461071f578063d6a9cf0814610732576103ae565b8063bc7513e2146106b8578063c34eee65146106cb578063c9aff70c146106de578063cb0fbc71146106f1576103ae565b80639bc289f111610192578063a50cd8e711610161578063a50cd8e71461068a578063a6c409f11461069d578063a9059cbb146103e6578063bc0b1df6146106a5576103ae565b80639bc289f11461063e5780639f1a0929146106515780639f6e1b2614610664578063a1eb31e814610677576103ae565b8063900cf0cf116101ce578063900cf0cf1461061357806395d89b411461061b57806397a5d5b5146106235780639a649edc14610636576103ae565b8063825ad607146105e557806386cf9f14146105f85780638e8253881461060b576103ae565b80633dc905c7116102d9578063520acb761161027757806370a082311161024657806370a08231146105a457806375d5024b146105b75780637d8bb869146105ca5780637dc0d1d0146105dd576103ae565b8063520acb76146105635780635c60da1b14610576578063646680221461057e5780636a39e32814610591576103ae565b80634c736099116102b35780634c736099146105205780635053e4611461053357806351adeb571461053b57806351bf21d814610550576103ae565b80633dc905c7146104e55780633fbba9a6146104f857806344d96e9514610518576103ae565b80631edbcf6c116103515780632f7f889e116103205780632f7f889e14610497578063313ce567146104aa578063353a420c146104bf5780633a3e6c81146104d2576103ae565b80631edbcf6c1461045657806323b872dd1461045e57806324772c04146104715780632d7f23b314610484576103ae565b806310e95b6c1161038d57806310e95b6c1461040657806315e14bf61461042657806316f0115b1461043957806318160ddd1461044e576103ae565b80625edd37146103b357806306fdde03146103c8578063095ea7b3146103e6575b600080fd5b6103c66103c136600461264f565b6107cd565b005b6103d06108f0565b6040516103dd9190612aa9565b60405180910390f35b6103f96103f43660046126b0565b610927565b6040516103dd9190612a7f565b6104196104143660046126fe565b610930565b6040516103dd9190612b1a565b6104196104343660046125aa565b610948565b610441610966565b6040516103dd9190612a2e565b610419610975565b61041961097b565b6103f961046c366004612602565b610981565b6103f961047f366004612759565b61098b565b6104196104923660046126fe565b610bc3565b6103c66104a53660046126b0565b610bd8565b6104b2610c58565b6040516103dd9190612b36565b6104196104cd3660046125aa565b610c5d565b6103f96104e03660046125aa565b610c7b565b6104196104f33660046126fe565b610c98565b61050b6105063660046125c8565b610cae565b6040516103dd9190612a9b565b610419610ce1565b61041961052e36600461273a565b610ce7565b610419610d17565b610543610d3a565b6040516103dd9190612a8d565b61041961055e3660046125aa565b610d49565b6104196105713660046126fe565b610d67565b610441610d7c565b61041961058c3660046125aa565b610da1565b61041961059f3660046126fe565b610dbf565b6104196105b23660046125aa565b610dd4565b6103f96105c53660046126fe565b610df2565b6104196105d83660046126fe565b610e05565b610543610e1a565b6104196105f33660046125aa565b610e29565b6104196106063660046125aa565b610e75565b610419610e90565b610419610e96565b6103d0610e9c565b61050b6106313660046125aa565b610eba565b610419610f1f565b61041961064c3660046125aa565b610f25565b61041961065f3660046126fe565b610f43565b6104196106723660046125c8565b610f58565b61041961068536600461273a565b610f87565b6104196106983660046125aa565b6110ad565b6104196110c4565b6103c66106b3366004612759565b61115a565b6104196106c63660046126b0565b61128e565b6104196106d93660046126fe565b6112d2565b6104196106ec3660046126fe565b6112e7565b6104196106ff3660046126fe565b6112fc565b610419611311565b61041961071a3660046126fe565b611317565b6103f961072d3660046125aa565b61132c565b6103c661074036600461273a565b61134d565b6104196107533660046126fe565b611449565b6104196103f43660046125c8565b6104196107743660046126fe565b6114d4565b6104196107873660046126fe565b6114e9565b61041961079a3660046126fe565b6115b7565b6104196107ad3660046125aa565b6115cc565b6104196115e7565b6104196107c83660046126fe565b6115ed565b6001600160a01b0384166107fc5760405162461bcd60e51b81526004016107f390612afa565b60405180910390fd5b6001600160a01b0383166108225760405162461bcd60e51b81526004016107f390612aca565b610846848383604051806060016040528060238152602001612c0e602391396115ff565b6108518383836116aa565b336001600160a01b0385161480159061087557506000196108728533610f58565b14155b1561089e5761089e843383604051806060016040528060248152602001612c3160249139611751565b81836001600160a01b0316856001600160a01b03167f0f1dbb1ccbe57a1590c7baad7b01d581b730c9ebc535dcde4345e6db424063d8846040516108e29190612b1a565b60405180910390a450505050565b60408051808201909152601881527f44796e616d69632053657420446f6c6c6172205374616b650000000000000000602082015290565b60005b92915050565b6000818152600e60205260409020600201545b919050565b6001600160a01b03166000908152600f602052604090206001015490565b600c546001600160a01b031690565b60045490565b60075490565b60005b9392505050565b60006109c4600085116513585c9ad95d60d21b7f4d7573742068617665206e6f6e2d7a65726f20657870697279000000000000006117c2565b6109fb600084116513585c9ad95d60d21b7f4d75737420626964206e6f6e2d7a65726f20616d6f756e7400000000000000006117c2565b610a32600083116513585c9ad95d60d21b7f4d75737420626964206f6e206e6f6e2d7a65726f20616d6f756e7400000000006117c2565b610a6283610a3e6115e7565b10156513585c9ad95d60d21b6e139bdd08195b9bdd59da081919589d608a1b6117c2565b610a9f610a6f338561181c565b6513585c9ad95d60d21b7f4d757374206861766520656e6f75676820696e206163636f756e7400000000006117c2565b6000610ab1838563ffffffff6118b716565b90506000610abd6118f9565b9050610aef828210156513585c9ad95d60d21b75135d5cdd081899481d5b99195c881b585e165a595b1960521b6117c2565b6000610b0987610afd610e96565b9063ffffffff6118ff16565b9050610b23610b1e868863ffffffff6118b716565b611924565b610b2c866119bb565b610b3581611a51565b610b49610b40610e96565b33898989611ae7565b610b6a610b54610e96565b610b64610b5f610e96565b611b45565b33611b5a565b610b72611b96565b80336001600160a01b03167f9f5acf79fa92396b7f3cb679d46ed617794dc8709703e9111f109216820301028888604051610bae929190612b28565b60405180910390a35060019695505050505050565b6000908152600e60205260409020600a015490565b6001600160a01b038216610bfe5760405162461bcd60e51b81526004016107f390612aea565b610c09338383611bbe565b816001600160a01b0316336001600160a01b03167f8ff27e6b95060c1ca851e7c2c28af8b413eb1a8bcb637b0290da9543a709cce383604051610c4c9190612b1a565b60405180910390a35050565b601290565b6001600160a01b03166000908152600f602052604090206003015490565b6001600160a01b03166000908152600f6020526040902054151590565b6000908152600e60208190526040909120015490565b6001600160a01b038082166000908152600f60209081526040808320938616835260049093019052205460ff1692915050565b60055490565b6000828152600e60205260408120600301805483908110610d0457fe5b9060005260206000200154905092915050565b6000610d2161254a565b610d29611bee565b9050610d3481611c1d565b91505090565b600a546001600160a01b031690565b6001600160a01b03166000908152600d602052604090206004015490565b6000908152600e602052604090206010015490565b7f360894a13ba1a3210667c828492db98dca3e2076cc3735a920a3ca505d382bbc5490565b6001600160a01b03166000908152600f602052604090206002015490565b6000908152600e602052604090206003015490565b6001600160a01b03166000908152600d602052604090206001015490565b6000610dfc611c3f565b90911115919050565b6000908152600e602052604090206012015490565b600b546001600160a01b031690565b600080610e34610975565b905080610e45576000915050610943565b61098481610e69610e5586610dd4565b610e5d610ce1565b9063ffffffff611c4416565b9063ffffffff6118b716565b6001600160a01b03166000908152600d602052604090205490565b60035490565b60025490565b6040805180820190915260048152634453445360e01b602082015290565b6000610ec4610e96565b6001600160a01b0383166000908152600d60205260409020600501541115610eee57506002610943565b6001600160a01b0382166000908152600d6020526040902060040154610f12610e96565b101561092757600161092a565b60095490565b6001600160a01b03166000908152600d602052604090206005015490565b6000908152600e60205260409020600d015490565b6001600160a01b039182166000908152600d602090815260408083209390941682526003909201909152205490565b600080610f92611bee565b604001514281610f9e57fe5b069050600084610fac610e96565b0390506000610fb9611c7e565b82610fc2611c7e565b03610fcb611c84565b0281610fd357fe5b04905080831115610fea576000935050505061092a565b610ff261256b565b611045604051806020016040528085611009611c7e565b038152506110396040518060200160405280611023611c7e565b905261102d611c8a565b9063ffffffff611cac16565b9063ffffffff611ce316565b905061104f61256b565b60408051602080820183528786038252825190810190925284825261107f9161103990859063ffffffff611cac16565b60408051602081019091528881529091506110a0908263ffffffff611ce316565b5198975050505050505050565b600061092a6110bb83610c5d565b610afd84610da1565b60006111556110d16115e7565b6110d9610d3a565b6001600160a01b03166318160ddd6040518163ffffffff1660e01b815260040160206040518083038186803b15801561111157600080fd5b505afa158015611125573d6000803e3d6000fd5b505050506040513d601f19601f82011682018060405250611149919081019061271c565b9063ffffffff611d1116565b905090565b600261116884611149610e96565b10156111865760405162461bcd60e51b81526004016107f390612b0a565b6111aa338484604051806060016040528060238152602001612c0e602391396115ff565b60006111b68484610f87565b90508083036111f2838210156513585c9ad95d60d21b7f496e73756666696369656e74206f757470757420616d6f756e740000000000006117c2565b6111fc3382611d53565b81156112455784336001600160a01b03167f1cd1213d4276c260e84170b4a39025dc8398fbf744edee0709261769b456b94b8460405161123c9190612b1a565b60405180910390a35b84336001600160a01b03167f46e9903ae8ac9e9f0c9bc321b05965c1c036e7d4783758703f5cdfc4133c51b68360405161127f9190612b1a565b60405180910390a35050505050565b6000611299826112e7565b6112a55750600061092a565b506001600160a01b03919091166000908152600d6020908152604080832093835260029093019052205490565b6000908152600e602052604090206011015490565b6000908152600e602052604090206001015490565b6000908152600e602052604090206013015490565b60065490565b6000908152600e60205260409020600f015490565b6001600160a01b03166000908152600f602052604090206005015460ff1690565b600261135b83611149610e96565b10156113795760405162461bcd60e51b81526004016107f390612b0a565b61139d338383604051806060016040528060238152602001612c0e602391396115ff565b60006113a98383610f87565b90508082036113b83382611d53565b81156114015783336001600160a01b03167f1cd1213d4276c260e84170b4a39025dc8398fbf744edee0709261769b456b94b846040516113f89190612b1a565b60405180910390a35b83336001600160a01b03167f46e9903ae8ac9e9f0c9bc321b05965c1c036e7d4783758703f5cdfc4133c51b68360405161143b9190612b1a565b60405180910390a350505050565b600061092a611456610d3a565b6001600160a01b03166318160ddd6040518163ffffffff1660e01b815260040160206040518083038186803b15801561148e57600080fd5b505afa1580156114a2573d6000803e3d6000fd5b505050506040513d601f19601f820116820180604052506114c6919081019061271c565b6114ce6115e7565b84611e09565b6000908152600e60205260409020600c015490565b6000611522600083116513585c9ad95d60d21b7f4d757374207075726368617365206e6f6e2d7a65726f20616d6f756e740000006117c2565b61152e82610a3e6115e7565b6000611538610e96565b9050600061155561154885611449565b859063ffffffff6118ff16565b90506115613385611e36565b61156c3383836116aa565b81336001600160a01b03167fbce252db29f761f815dc2e9ea60005af065efba6eb619d2a0b2a113fdeb6141486846040516115a8929190612b28565b60405180910390a39392505050565b6000908152600e60205260409020600b015490565b6001600160a01b03166000908152600f602052604090205490565b60085490565b6000908152600e602052604090205490565b6001600160a01b0384166000908152600d6020908152604080832086845260020190915290205461163790838363ffffffff611f4716565b6001600160a01b0385166000908152600d60209081526040808320878452600201825280832093909355600e9052206001015461167b90838363ffffffff611f4716565b6000848152600e60205260409020600101556009546116a190838363ffffffff611f4716565b60095550505050565b6001600160a01b0383166000908152600d602090815260408083208584526002019091529020546116e1908263ffffffff6118ff16565b6001600160a01b0384166000908152600d60209081526040808320868452600201825280832093909355600e90522060010154611724908263ffffffff6118ff16565b6000838152600e6020526040902060010155600954611749908263ffffffff6118ff16565b600955505050565b6001600160a01b038085166000908152600d60209081526040808320938716835260039093019052205461178c90838363ffffffff611f4716565b6001600160a01b039485166000908152600d60209081526040808320969097168252600390950190945293909220929092555050565b82611817576117d082611f73565b6101d160f51b6117df83611f73565b6040516020016117f1939291906129fd565b60408051601f198184030181529082905262461bcd60e51b82526107f391600401612aa9565b505050565b600061182b82610afd85610e29565b611833610d3a565b6001600160a01b03166370a08231856040518263ffffffff1660e01b815260040161185e9190612a2e565b60206040518083038186803b15801561187657600080fd5b505afa15801561188a573d6000803e3d6000fd5b505050506040513d601f19601f820116820180604052506118ae919081019061271c565b10159392505050565b600061098483836040518060400160405280601a81526020017f536166654d6174683a206469766973696f6e206279207a65726f000000000000815250611ff3565b6107d090565b6000828201838110156109845760405162461bcd60e51b81526004016107f390612aba565b600e6000611930610e96565b81526020019081526020016000206004016004015481111561196e5780600e6000611959610e96565b81526020810191909152604001600020600801555b80600e600061197b610e96565b81526020019081526020016000206004016003015411156119b85780600e60006119a3610e96565b81526020810191909152604001600020600701555b50565b600e60006119c7610e96565b815260200190815260200160002060040160110154811115611a055780600e60006119f0610e96565b81526020810191909152604001600020601501555b600e6000611a11610e96565b8152602001908152602001600020600401601001548110156119b85780600e6000611a3a610e96565b815260208101919091526040016000206014015550565b600e6000611a5d610e96565b815260200190815260200160002060040160020154811115611a9b5780600e6000611a86610e96565b81526020810191909152604001600020600601555b600e6000611aa7610e96565b8152602001908152602001600020600401600101548110156119b85780600e6000611ad0610e96565b815260208101919091526040016000206005015550565b6000948552600e602090815260408087206001600160a01b039690961680885260189096019091529094206004810192909255600182015560028101929092558154640100000000600160c01b031916640100000000909102179055565b6000908152600e602052604090206009015490565b6000928352600e6020908152604080852093855260169093019052912080546001600160a01b0319166001600160a01b03909216919091179055565b600e6000611ba2610e96565b8152602081019190915260400160002060090180546001019055565b6001600160a01b039283166000908152600d60209081526040808320949095168252600390930190925291902055565b611bf661254a565b604051806060016040528060008152602001635fbef0008152602001611c20815250905090565b600061092a8260000151610afd8460400151610e69866020015161114961202a565b609690565b600082611c535750600061092a565b82820282848281611c6057fe5b04146109845760405162461bcd60e51b81526004016107f390612ada565b61016890565b610e1090565b611c9261256b565b5060408051602081019091526706f05b59d3b20000815290565b611cb461256b565b6040518060200160405280611cda8560000151670de0b6b3a7640000866000015161202e565b90529392505050565b611ceb61256b565b6040518060200160405280611cda85600001518560000151670de0b6b3a764000061202e565b600061098483836040518060400160405280601e81526020017f536166654d6174683a207375627472616374696f6e206f766572666c6f770000815250611f47565b611d5b610d3a565b6001600160a01b031663a9059cbb83836040518363ffffffff1660e01b8152600401611d88929190612a64565b602060405180830381600087803b158015611da257600080fd5b505af1158015611db6573d6000803e3d6000fd5b505050506040513d601f19601f82011682018060405250611dda91908101906126e0565b50611dfd816040518060600160405280602a8152602001612c7d602a9139612044565b611e0561205f565b5050565b6000611e2e611e2983611e1d878787612134565b9063ffffffff6122a116565b6122c8565b949350505050565b611e3e610d3a565b6001600160a01b03166323b872dd8330846040518463ffffffff1660e01b8152600401611e6d93929190612a3c565b602060405180830381600087803b158015611e8757600080fd5b505af1158015611e9b573d6000803e3d6000fd5b505050506040513d601f19601f82011682018060405250611ebf91908101906126e0565b50611ec8610d3a565b6001600160a01b03166342966c68826040518263ffffffff1660e01b8152600401611ef39190612b1a565b600060405180830381600087803b158015611f0d57600080fd5b505af1158015611f21573d6000803e3d6000fd5b50505050611dfd81604051806060016040528060288152602001612c55602891396122e5565b60008184841115611f6b5760405162461bcd60e51b81526004016107f39190612aa9565b505050900390565b60608082604051602001611f8791906129e8565b60408051601f19818403018152919052905060205b8015611fdc57815160001990910190829082908110611fb757fe5b01602001516001600160f81b03191615611fd75760010181529050610943565b611f9c565b505060408051600081526020810190915292915050565b600081836120145760405162461bcd60e51b81526004016107f39190612aa9565b50600083858161202057fe5b0495945050505050565b4290565b6000611e2e82610e69868663ffffffff611c4416565b60075461205890838363ffffffff611f4716565b6007555050565b61213261208061206d61097b565b610afd612078611311565b610afd610ce1565b612088610d3a565b6001600160a01b03166370a08231306040518263ffffffff1660e01b81526004016120b39190612a2e565b60206040518083038186803b1580156120cb57600080fd5b505afa1580156120df573d6000803e3d6000fd5b505050506040513d601f19601f82011682018060405250612103919081019061271c565b10156a21b7b6b83a3937b63632b960a91b74496e636f6e73697374656e742062616c616e63657360581b6117c2565b565b61213c61256b565b61214461256b565b61214e8486612300565b905061215861256b565b612160612326565b90506000612174878663ffffffff611d1116565b90506000612188878763ffffffff611d1116565b905061219261256b565b61219c8284612300565b90506121ae858563ffffffff61234816565b1561228a576121c3818563ffffffff61234816565b156121dd576121d18461235e565b95505050505050610984565b6121e561256b565b6121ef82866123b6565b90506121f961256b565b612209868463ffffffff61241316565b905061221361256b565b61221c8761235e565b905061222661256b565b612236898963ffffffff61241316565b905061227a61224b848363ffffffff61243c16565b61102d61225e858563ffffffff611ce316565b61226e888863ffffffff611ce316565b9063ffffffff61243c16565b9950505050505050505050610984565b61229481866123b6565b9998505050505050505050565b6122a961256b565b604080516020810190915283518190611cda908563ffffffff611c4416565b805160009061092a90670de0b6b3a764000063ffffffff6118b716565b6008546122f990838363ffffffff611f4716565b6008555050565b61230861256b565b6040518060200160405280611cda85670de0b6b3a76400008661202e565b61232e61256b565b5060408051602081019091526704db732547630000815290565b60006123548383612465565b6002149392505050565b61236661256b565b61092a61237560016003612300565b61238c6123ae6123a460026123988861238c612497565b9063ffffffff61241316565b9063ffffffff6124b916565b611039600361250f565b61102d612497565b6123be61256b565b6123ce838363ffffffff61254316565b156123e3576123dc8361235e565b905061092a565b6109846123f260016003612300565b61238c6123ae6124048761238c612497565b6110396123a48861238c612497565b61241b61256b565b6040805160208101909152825184518291611cda919063ffffffff611d1116565b61244461256b565b6040805160208101909152825184518291611cda919063ffffffff6118ff16565b80518251600091141561247a5750600161092a565b815183511161248a57600061248d565b60025b60ff169392505050565b61249f61256b565b506040805160208101909152670de0b6b3a7640000815290565b6124c161256b565b816124d0576123dc600161250f565b6124d861256b565b5060408051602081019091528351815260015b83811015612507576124fd8286611ce3565b91506001016124eb565b509392505050565b61251761256b565b60408051602081019091528061253b84670de0b6b3a764000063ffffffff611c4416565b905292915050565b5190511490565b60405180606001604052806000815260200160008152602001600081525090565b6040518060200160405280600081525090565b803561092a81612be7565b805161092a81612bfb565b803561092a81612c04565b805161092a81612c04565b6000602082840312156125bc57600080fd5b6000611e2e848461257e565b600080604083850312156125db57600080fd5b60006125e7858561257e565b92505060206125f88582860161257e565b9150509250929050565b60008060006060848603121561261757600080fd5b6000612623868661257e565b93505060206126348682870161257e565b925050604061264586828701612594565b9150509250925092565b6000806000806080858703121561266557600080fd5b6000612671878761257e565b94505060206126828782880161257e565b935050604061269387828801612594565b92505060606126a487828801612594565b91505092959194509250565b600080604083850312156126c357600080fd5b60006126cf858561257e565b92505060206125f885828601612594565b6000602082840312156126f257600080fd5b6000611e2e8484612589565b60006020828403121561271057600080fd5b6000611e2e8484612594565b60006020828403121561272e57600080fd5b6000611e2e848461259f565b6000806040838503121561274d57600080fd5b60006126cf8585612594565b60008060006060848603121561276e57600080fd5b600061277a8686612594565b935050602061263486828701612594565b61279481612b51565b82525050565b61279481612b5c565b6127946127af82612b61565b612b6e565b6127946127af82612b6e565b60006127cb82612b44565b6127d58185610943565b93506127e5818560208601612ba3565b9290920192915050565b61279481612b8d565b61279481612b98565b600061280c82612b44565b6128168185612b48565b9350612826818560208601612ba3565b61282f81612bd3565b9093019392505050565b6000612846601b83612b48565b7f536166654d6174683a206164646974696f6e206f766572666c6f770000000000815260200192915050565b600061287f602b83612b48565b7f4d61726b65743a20436f75706f6e207472616e7366657220746f20746865207a81526a65726f206164647265737360a81b602082015260400192915050565b60006128cc602183612b48565b7f536166654d6174683a206d756c7469706c69636174696f6e206f766572666c6f8152607760f81b602082015260400192915050565b600061290f602a83612b48565b7f4d61726b65743a20436f75706f6e20617070726f766520746f20746865207a65815269726f206164647265737360b01b602082015260400192915050565b600061295b602d83612b48565b7f4d61726b65743a20436f75706f6e207472616e736665722066726f6d2074686581526c207a65726f206164647265737360981b602082015260400192915050565b60006129aa601b83612b48565b7f4d61726b65743a20546f6f206561726c7920746f2072656465656d0000000000815260200192915050565b61279481612b6e565b61279481612b87565b60006129f482846127b4565b50602001919050565b6000612a0982866127c0565b9150612a1582856127a3565b600282019150612a2582846127c0565b95945050505050565b6020810161092a828461278b565b60608101612a4a828661278b565b612a57602083018561278b565b611e2e60408301846129d6565b60408101612a72828561278b565b61098460208301846129d6565b6020810161092a828461279a565b6020810161092a82846127ef565b6020810161092a82846127f8565b602080825281016109848184612801565b6020808252810161092a81612839565b6020808252810161092a81612872565b6020808252810161092a816128bf565b6020808252810161092a81612902565b6020808252810161092a8161294e565b6020808252810161092a8161299d565b6020810161092a82846129d6565b60408101612a7282856129d6565b6020810161092a82846129df565b5190565b90815260200190565b600061092a82612b7b565b151590565b6001600160f01b03191690565b90565b8061094381612bdd565b6001600160a01b031690565b60ff1690565b600061092a82612b51565b600061092a82612b71565b60005b83811015612bbe578181015183820152602001612ba6565b83811115612bcd576000848401525b50505050565b601f01601f191690565b600381106119b857fe5b612bf081612b51565b81146119b857600080fd5b612bf081612b5c565b612bf081612b6e56fe4d61726b65743a20496e73756666696369656e7420636f75706f6e2062616c616e63654d61726b65743a20496e73756666696369656e7420636f75706f6e20617070726f76616c436f6d7074726f6c6c65723a206e6f7420656e6f756768206f75747374616e64696e672064656274436f6d7074726f6c6c65723a206e6f7420656e6f7567682072656465656d61626c652062616c616e6365a365627a7a72315820fa54c818ab3dcc9d121a67cebdab80545a0ff200fc77494a9eb03d22cee2c70e6c6578706572696d656e74616cf564736f6c63430005110040",
  "source": "/*\n    Copyright 2020 Dynamic Dollar Devs, based on the works of the Empty Set Squad\n\n    Licensed under the Apache License, Version 2.0 (the \"License\");\n    you may not use this file except in compliance with the License.\n    You may obtain a copy of the License at\n\n    http://www.apache.org/licenses/LICENSE-2.0\n\n    Unless required by applicable law or agreed to in writing, software\n    distributed under the License is distributed on an \"AS IS\" BASIS,\n    WITHOUT WARRANTIES OR CONDITIONS OF ANY KIND, either express or implied.\n    See the License for the specific language governing permissions and\n    limitations under the License.\n*/\n\npragma solidity ^0.5.17;\npragma experimental ABIEncoderV2;\n\nimport \"@openzeppelin/contracts/math/SafeMath.sol\";\nimport \"./Curve.sol\";\nimport \"./Comptroller.sol\";\nimport \"../Constants.sol\";\n\ncontract Market is Comptroller, Curve {\n    using SafeMath for uint256;\n\n    bytes32 private constant FILE = \"Market\";\n\n    event CouponExpiration(uint256 indexed epoch, uint256 couponsExpired, uint256 lessRedeemable, uint256 lessDebt, uint256 newBonded);\n    event CouponPurchase(address indexed account, uint256 indexed epoch, uint256 dollarAmount, uint256 couponAmount);\n    event CouponRedemption(address indexed account, uint256 indexed epoch, uint256 couponAmount);\n    event CouponBurn(address indexed account, uint256 indexed epoch, uint256 couponAmount);\n    event CouponTransfer(address indexed from, address indexed to, uint256 indexed epoch, uint256 value);\n    event CouponApproval(address indexed owner, address indexed spender, uint256 value);\n    event CouponBidPlaced(address indexed account, uint256 indexed epoch, uint256 dollarAmount, uint256 maxCouponAmount);\n    \n    function step() internal {\n        // Expire prior coupons\n        for (uint256 i = 0; i < expiringCoupons(epoch()); i++) {\n            expireCouponsForEpoch(expiringCouponsAtIndex(epoch(), i));\n        }\n\n        // Record expiry for current epoch's coupons\n        uint256 expirationEpoch = epoch().add(Constants.getCouponExpiration());\n        initializeCouponsExpiration(epoch(), expirationEpoch);\n    }\n\n    function expireCouponsForEpoch(uint256 epoch) private {\n        uint256 couponsForEpoch = outstandingCoupons(epoch);\n        (uint256 lessRedeemable, uint256 lessDebt, uint256 newBonded) = (0, 0, 0);\n\n        eliminateOutstandingCoupons(epoch);\n\n        uint256 totalRedeemable = totalRedeemable();\n        uint256 totalCoupons = totalCoupons();\n        if (totalRedeemable > totalCoupons) {\n            lessRedeemable = totalRedeemable.sub(totalCoupons);\n            burnRedeemable(lessRedeemable);\n            (, lessDebt, newBonded) = increaseSupply(lessRedeemable);\n        }\n\n        emit CouponExpiration(epoch, couponsForEpoch, lessRedeemable, lessDebt, newBonded);\n    }\n\n    function couponPremium(uint256 amount) public view returns (uint256) {\n        return calculateCouponPremium(dollar().totalSupply(), totalDebt(), amount);\n    }\n\n    function couponRedemptionPenalty(uint256 couponEpoch, uint256 couponAmount) public view returns (uint256) {\n        uint timeIntoEpoch = block.timestamp % Constants.getEpochStrategy().period;\n        uint couponAge = epoch() - couponEpoch;\n\n        uint couponEpochDecay = Constants.getCouponRedemptionPenaltyDecay() * (Constants.getCouponExpiration() - couponAge) / Constants.getCouponExpiration();\n\n        if(timeIntoEpoch > couponEpochDecay) {\n            return 0;\n        }\n\n        Decimal.D256 memory couponEpochInitialPenalty = Constants.getInitialCouponRedemptionPenalty().div(Decimal.D256({value: Constants.getCouponExpiration() })).mul(Decimal.D256({value: Constants.getCouponExpiration() - couponAge}));\n\n        Decimal.D256 memory couponEpochDecayedPenalty = couponEpochInitialPenalty.div(Decimal.D256({value: couponEpochDecay})).mul(Decimal.D256({value: couponEpochDecay - timeIntoEpoch}));\n\n        return Decimal.D256({value: couponAmount}).mul(couponEpochDecayedPenalty).value;\n    }\n\n    function purchaseCoupons(uint256 dollarAmount) external returns (uint256) {\n        Require.that(\n            dollarAmount > 0,\n            FILE,\n            \"Must purchase non-zero amount\"\n        );\n\n        Require.that(\n            totalDebt() >= dollarAmount,\n            FILE,\n            \"Not enough debt\"\n        );\n\n        uint256 epoch = epoch();\n        uint256 couponAmount = dollarAmount.add(couponPremium(dollarAmount));\n        burnFromAccount(msg.sender, dollarAmount);\n        incrementBalanceOfCoupons(msg.sender, epoch, couponAmount);\n\n        emit CouponPurchase(msg.sender, epoch, dollarAmount, couponAmount);\n\n        return couponAmount;\n    }\n\n    function redeemCoupons(uint256 couponEpoch, uint256 couponAmount) external {\n        require(epoch().sub(couponEpoch) >= 2, \"Market: Too early to redeem\");\n        decrementBalanceOfCoupons(msg.sender, couponEpoch, couponAmount, \"Market: Insufficient coupon balance\");\n        \n        uint burnAmount = couponRedemptionPenalty(couponEpoch, couponAmount);\n        uint256 redeemAmount = couponAmount - burnAmount;\n        \n        redeemToAccount(msg.sender, redeemAmount);\n\n        if(burnAmount > 0){\n            emit CouponBurn(msg.sender, couponEpoch, burnAmount);\n        }\n\n        emit CouponRedemption(msg.sender, couponEpoch, redeemAmount);\n    }\n\n    function redeemCoupons(uint256 couponEpoch, uint256 couponAmount, uint256 minOutput) external {\n        require(epoch().sub(couponEpoch) >= 2, \"Market: Too early to redeem\");\n        decrementBalanceOfCoupons(msg.sender, couponEpoch, couponAmount, \"Market: Insufficient coupon balance\");\n        \n        uint burnAmount = couponRedemptionPenalty(couponEpoch, couponAmount);\n        uint256 redeemAmount = couponAmount - burnAmount;\n\n        Require.that(\n            redeemAmount >= minOutput,\n            FILE,\n            \"Insufficient output amount\"\n        );\n        \n        redeemToAccount(msg.sender, redeemAmount);\n\n        if(burnAmount > 0){\n            emit CouponBurn(msg.sender, couponEpoch, burnAmount);\n        }\n\n        emit CouponRedemption(msg.sender, couponEpoch, redeemAmount);\n    }\n\n    function approveCoupons(address spender, uint256 amount) external {\n        require(spender != address(0), \"Market: Coupon approve to the zero address\");\n\n        updateAllowanceCoupons(msg.sender, spender, amount);\n\n        emit CouponApproval(msg.sender, spender, amount);\n    }\n\n    function transferCoupons(address sender, address recipient, uint256 epoch, uint256 amount) external {\n        require(sender != address(0), \"Market: Coupon transfer from the zero address\");\n        require(recipient != address(0), \"Market: Coupon transfer to the zero address\");\n\n        decrementBalanceOfCoupons(sender, epoch, amount, \"Market: Insufficient coupon balance\");\n        incrementBalanceOfCoupons(recipient, epoch, amount);\n\n        if (msg.sender != sender && allowanceCoupons(sender, msg.sender) != uint256(-1)) {\n            decrementAllowanceCoupons(sender, msg.sender, amount, \"Market: Insufficient coupon approval\");\n        }\n\n        emit CouponTransfer(sender, recipient, epoch, amount);\n    }\n\n    function placeCouponAuctionBid(uint256 couponEpochExpiry, uint256 dollarAmount, uint256 maxCouponAmount) external returns (bool) {\n        Require.that(\n            couponEpochExpiry > 0,\n            FILE,\n            \"Must have non-zero expiry\"\n        );\n        \n        Require.that(\n            dollarAmount > 0,\n            FILE,\n            \"Must bid non-zero amount\"\n        );\n        \n        Require.that(\n            maxCouponAmount > 0,\n            FILE,\n            \"Must bid on non-zero amount\"\n        );\n        \n        Require.that(\n            totalDebt() >= dollarAmount,\n            FILE,\n            \"Not enough debt\"\n        );\n\n        Require.that(\n            acceptableBidCheck(msg.sender, dollarAmount),\n            FILE,\n            \"Must have enough in account\"\n        );\n\n        uint256 yield = maxCouponAmount.div(dollarAmount);\n        uint256 maxYield = Constants.getCouponMaxYieldToBurn();\n\n        Require.that(\n            maxYield >= yield,\n            FILE,\n            \"Must be under maxYield\"\n        );\n\n        uint256 epochExpiry = epoch().add(couponEpochExpiry);\n        setCouponAuctionRelYield(maxCouponAmount.div(dollarAmount));\n        setCouponAuctionRelDollarAmount(dollarAmount);\n        setCouponAuctionRelExpiry(epochExpiry);\n        setCouponBidderState(uint256(epoch()), msg.sender, couponEpochExpiry, dollarAmount, maxCouponAmount);\n        setCouponBidderStateIndex(uint256(epoch()), getCouponAuctionBids(uint256(epoch())), msg.sender);\n        incrementCouponAuctionBids();\n        emit CouponBidPlaced(msg.sender, epochExpiry, dollarAmount, maxCouponAmount);\n        return true;\n    }\n}\n",
  "sourcePath": "/Users/cinquemb/Documents/Startups/crypto/dollar/protocol/contracts/dao/Market.sol",
  "compiler": {
    "name": "solc",
    "version": "0.5.17+commit.d19bba13.Emscripten.clang"
  },
  "schemaVersion": "3.3.3",
  "updatedAt": "2021-01-15T13:20:51.281Z",
  "devdoc": {
    "methods": {}
  },
  "userdoc": {
    "methods": {
      "balanceOfStaged(address)": {
        "notice": "Account"
      },
      "dollar()": {
        "notice": "Global"
      },
      "epoch()": {
        "notice": "Epoch"
      },
      "name()": {
        "notice": "ERC20 Interface"
      },
      "recordedVote(address,address)": {
        "notice": "Governance"
      },
      "transfer(address,uint256)": {
        "notice": "ERC20 Interface"
      }
    }
  }
}