{
  "contractName": "Market",
  "abi": [
    {
      "anonymous": false,
      "inputs": [
        {
          "indexed": true,
          "internalType": "address",
          "name": "owner",
          "type": "address"
        },
        {
          "indexed": true,
          "internalType": "address",
          "name": "spender",
          "type": "address"
        },
        {
          "indexed": false,
          "internalType": "uint256",
          "name": "value",
          "type": "uint256"
        }
      ],
      "name": "CouponApproval",
      "type": "event"
    },
    {
      "anonymous": false,
      "inputs": [
        {
          "indexed": true,
          "internalType": "address",
          "name": "account",
          "type": "address"
        },
        {
          "indexed": true,
          "internalType": "uint256",
          "name": "epoch",
          "type": "uint256"
        },
        {
          "indexed": false,
          "internalType": "uint256",
          "name": "dollarAmount",
          "type": "uint256"
        },
        {
          "indexed": false,
          "internalType": "uint256",
          "name": "maxCouponAmount",
          "type": "uint256"
        }
      ],
      "name": "CouponBidPlaced",
      "type": "event"
    },
    {
      "anonymous": false,
      "inputs": [
        {
          "indexed": true,
          "internalType": "address",
          "name": "account",
          "type": "address"
        },
        {
          "indexed": true,
          "internalType": "uint256",
          "name": "epoch",
          "type": "uint256"
        },
        {
          "indexed": false,
          "internalType": "uint256",
          "name": "couponAmount",
          "type": "uint256"
        }
      ],
      "name": "CouponBurn",
      "type": "event"
    },
    {
      "anonymous": false,
      "inputs": [
        {
          "indexed": true,
          "internalType": "uint256",
          "name": "epoch",
          "type": "uint256"
        },
        {
          "indexed": false,
          "internalType": "uint256",
          "name": "couponsExpired",
          "type": "uint256"
        },
        {
          "indexed": false,
          "internalType": "uint256",
          "name": "lessRedeemable",
          "type": "uint256"
        },
        {
          "indexed": false,
          "internalType": "uint256",
          "name": "lessDebt",
          "type": "uint256"
        },
        {
          "indexed": false,
          "internalType": "uint256",
          "name": "newBonded",
          "type": "uint256"
        }
      ],
      "name": "CouponExpiration",
      "type": "event"
    },
    {
      "anonymous": false,
      "inputs": [
        {
          "indexed": true,
          "internalType": "address",
          "name": "account",
          "type": "address"
        },
        {
          "indexed": true,
          "internalType": "uint256",
          "name": "epoch",
          "type": "uint256"
        },
        {
          "indexed": false,
          "internalType": "uint256",
          "name": "dollarAmount",
          "type": "uint256"
        },
        {
          "indexed": false,
          "internalType": "uint256",
          "name": "couponAmount",
          "type": "uint256"
        }
      ],
      "name": "CouponPurchase",
      "type": "event"
    },
    {
      "anonymous": false,
      "inputs": [
        {
          "indexed": true,
          "internalType": "address",
          "name": "account",
          "type": "address"
        },
        {
          "indexed": true,
          "internalType": "uint256",
          "name": "epoch",
          "type": "uint256"
        },
        {
          "indexed": false,
          "internalType": "uint256",
          "name": "couponAmount",
          "type": "uint256"
        }
      ],
      "name": "CouponRedemption",
      "type": "event"
    },
    {
      "anonymous": false,
      "inputs": [
        {
          "indexed": true,
          "internalType": "address",
          "name": "from",
          "type": "address"
        },
        {
          "indexed": true,
          "internalType": "address",
          "name": "to",
          "type": "address"
        },
        {
          "indexed": true,
          "internalType": "uint256",
          "name": "epoch",
          "type": "uint256"
        },
        {
          "indexed": false,
          "internalType": "uint256",
          "name": "value",
          "type": "uint256"
        }
      ],
      "name": "CouponTransfer",
      "type": "event"
    },
    {
      "anonymous": false,
      "inputs": [
        {
          "indexed": true,
          "internalType": "address",
          "name": "from",
          "type": "address"
        },
        {
          "indexed": true,
          "internalType": "address",
          "name": "to",
          "type": "address"
        },
        {
          "indexed": false,
          "internalType": "uint256",
          "name": "value",
          "type": "uint256"
        }
      ],
      "name": "Transfer",
      "type": "event"
    },
    {
      "constant": true,
      "inputs": [
        {
          "internalType": "address",
          "name": "owner",
          "type": "address"
        },
        {
          "internalType": "address",
          "name": "spender",
          "type": "address"
        }
      ],
      "name": "allowance",
      "outputs": [
        {
          "internalType": "uint256",
          "name": "",
          "type": "uint256"
        }
      ],
      "payable": false,
      "stateMutability": "view",
      "type": "function"
    },
    {
      "constant": true,
      "inputs": [
        {
          "internalType": "address",
          "name": "owner",
          "type": "address"
        },
        {
          "internalType": "address",
          "name": "spender",
          "type": "address"
        }
      ],
      "name": "allowanceCoupons",
      "outputs": [
        {
          "internalType": "uint256",
          "name": "",
          "type": "uint256"
        }
      ],
      "payable": false,
      "stateMutability": "view",
      "type": "function"
    },
    {
      "constant": false,
      "inputs": [
        {
          "internalType": "address",
          "name": "spender",
          "type": "address"
        },
        {
          "internalType": "uint256",
          "name": "amount",
          "type": "uint256"
        }
      ],
      "name": "approve",
      "outputs": [
        {
          "internalType": "bool",
          "name": "",
          "type": "bool"
        }
      ],
      "payable": false,
      "stateMutability": "nonpayable",
      "type": "function"
    },
    {
      "constant": true,
      "inputs": [
        {
          "internalType": "address",
          "name": "candidate",
          "type": "address"
        }
      ],
      "name": "approveFor",
      "outputs": [
        {
          "internalType": "uint256",
          "name": "",
          "type": "uint256"
        }
      ],
      "payable": false,
      "stateMutability": "view",
      "type": "function"
    },
    {
      "constant": true,
      "inputs": [
        {
          "internalType": "address",
          "name": "account",
          "type": "address"
        }
      ],
      "name": "balanceOf",
      "outputs": [
        {
          "internalType": "uint256",
          "name": "",
          "type": "uint256"
        }
      ],
      "payable": false,
      "stateMutability": "view",
      "type": "function"
    },
    {
      "constant": true,
      "inputs": [
        {
          "internalType": "address",
          "name": "account",
          "type": "address"
        }
      ],
      "name": "balanceOfBonded",
      "outputs": [
        {
          "internalType": "uint256",
          "name": "",
          "type": "uint256"
        }
      ],
      "payable": false,
      "stateMutability": "view",
      "type": "function"
    },
    {
      "constant": true,
      "inputs": [
        {
          "internalType": "address",
          "name": "account",
          "type": "address"
        },
        {
          "internalType": "uint256",
          "name": "epoch",
          "type": "uint256"
        }
      ],
      "name": "balanceOfCoupons",
      "outputs": [
        {
          "internalType": "uint256",
          "name": "",
          "type": "uint256"
        }
      ],
      "payable": false,
      "stateMutability": "view",
      "type": "function"
    },
    {
      "constant": true,
      "inputs": [
        {
          "internalType": "address",
          "name": "account",
          "type": "address"
        }
      ],
      "name": "balanceOfStaged",
      "outputs": [
        {
          "internalType": "uint256",
          "name": "",
          "type": "uint256"
        }
      ],
      "payable": false,
      "stateMutability": "view",
      "type": "function"
    },
    {
      "constant": true,
      "inputs": [
        {
          "internalType": "uint256",
          "name": "epoch",
          "type": "uint256"
        }
      ],
      "name": "bootstrappingAt",
      "outputs": [
        {
          "internalType": "bool",
          "name": "",
          "type": "bool"
        }
      ],
      "payable": false,
      "stateMutability": "view",
      "type": "function"
    },
    {
      "constant": true,
      "inputs": [
        {
          "internalType": "uint256",
          "name": "epoch",
          "type": "uint256"
        }
      ],
      "name": "couponsExpiration",
      "outputs": [
        {
          "internalType": "uint256",
          "name": "",
          "type": "uint256"
        }
      ],
      "payable": false,
      "stateMutability": "view",
      "type": "function"
    },
    {
      "constant": true,
      "inputs": [],
      "name": "decimals",
      "outputs": [
        {
          "internalType": "uint8",
          "name": "",
          "type": "uint8"
        }
      ],
      "payable": false,
      "stateMutability": "view",
      "type": "function"
    },
    {
      "constant": true,
      "inputs": [],
      "name": "dollar",
      "outputs": [
        {
          "internalType": "contract IDollar",
          "name": "",
          "type": "address"
        }
      ],
      "payable": false,
      "stateMutability": "view",
      "type": "function"
    },
    {
      "constant": true,
      "inputs": [],
      "name": "epoch",
      "outputs": [
        {
          "internalType": "uint256",
          "name": "",
          "type": "uint256"
        }
      ],
      "payable": false,
      "stateMutability": "view",
      "type": "function"
    },
    {
      "constant": true,
      "inputs": [],
      "name": "epochTime",
      "outputs": [
        {
          "internalType": "uint256",
          "name": "",
          "type": "uint256"
        }
      ],
      "payable": false,
      "stateMutability": "view",
      "type": "function"
    },
    {
      "constant": true,
      "inputs": [
        {
          "internalType": "uint256",
          "name": "epoch",
          "type": "uint256"
        }
      ],
      "name": "expiringCoupons",
      "outputs": [
        {
          "internalType": "uint256",
          "name": "",
          "type": "uint256"
        }
      ],
      "payable": false,
      "stateMutability": "view",
      "type": "function"
    },
    {
      "constant": true,
      "inputs": [
        {
          "internalType": "uint256",
          "name": "epoch",
          "type": "uint256"
        },
        {
          "internalType": "uint256",
          "name": "i",
          "type": "uint256"
        }
      ],
      "name": "expiringCouponsAtIndex",
      "outputs": [
        {
          "internalType": "uint256",
          "name": "",
          "type": "uint256"
        }
      ],
      "payable": false,
      "stateMutability": "view",
      "type": "function"
    },
    {
      "constant": true,
      "inputs": [
        {
          "internalType": "address",
          "name": "account",
          "type": "address"
        }
      ],
      "name": "fluidUntil",
      "outputs": [
        {
          "internalType": "uint256",
          "name": "",
          "type": "uint256"
        }
      ],
      "payable": false,
      "stateMutability": "view",
      "type": "function"
    },
    {
      "constant": true,
      "inputs": [
        {
          "internalType": "uint256",
          "name": "epoch",
          "type": "uint256"
        }
      ],
      "name": "getAvgExpiryFilled",
      "outputs": [
        {
          "internalType": "uint256",
          "name": "",
          "type": "uint256"
        }
      ],
      "payable": false,
      "stateMutability": "view",
      "type": "function"
    },
    {
      "constant": true,
      "inputs": [
        {
          "internalType": "uint256",
          "name": "epoch",
          "type": "uint256"
        }
      ],
      "name": "getAvgYieldFilled",
      "outputs": [
        {
          "internalType": "uint256",
          "name": "",
          "type": "uint256"
        }
      ],
      "payable": false,
      "stateMutability": "view",
      "type": "function"
    },
    {
      "constant": true,
      "inputs": [
        {
          "internalType": "uint256",
          "name": "epoch",
          "type": "uint256"
        }
      ],
      "name": "getBidToCover",
      "outputs": [
        {
          "internalType": "uint256",
          "name": "",
          "type": "uint256"
        }
      ],
      "payable": false,
      "stateMutability": "view",
      "type": "function"
    },
    {
      "constant": true,
      "inputs": [
        {
          "internalType": "uint256",
          "name": "epoch",
          "type": "uint256"
        }
      ],
      "name": "getMaxExpiryFilled",
      "outputs": [
        {
          "internalType": "uint256",
          "name": "",
          "type": "uint256"
        }
      ],
      "payable": false,
      "stateMutability": "view",
      "type": "function"
    },
    {
      "constant": true,
      "inputs": [
        {
          "internalType": "uint256",
          "name": "epoch",
          "type": "uint256"
        }
      ],
      "name": "getMaxYieldFilled",
      "outputs": [
        {
          "internalType": "uint256",
          "name": "",
          "type": "uint256"
        }
      ],
      "payable": false,
      "stateMutability": "view",
      "type": "function"
    },
    {
      "constant": true,
      "inputs": [
        {
          "internalType": "uint256",
          "name": "epoch",
          "type": "uint256"
        }
      ],
      "name": "getMinExpiryFilled",
      "outputs": [
        {
          "internalType": "uint256",
          "name": "",
          "type": "uint256"
        }
      ],
      "payable": false,
      "stateMutability": "view",
      "type": "function"
    },
    {
      "constant": true,
      "inputs": [
        {
          "internalType": "uint256",
          "name": "epoch",
          "type": "uint256"
        }
      ],
      "name": "getMinYieldFilled",
      "outputs": [
        {
          "internalType": "uint256",
          "name": "",
          "type": "uint256"
        }
      ],
      "payable": false,
      "stateMutability": "view",
      "type": "function"
    },
    {
      "constant": true,
      "inputs": [
        {
          "internalType": "uint256",
          "name": "epoch",
          "type": "uint256"
        }
      ],
      "name": "getTotalAuctioned",
      "outputs": [
        {
          "internalType": "uint256",
          "name": "",
          "type": "uint256"
        }
      ],
      "payable": false,
      "stateMutability": "view",
      "type": "function"
    },
    {
      "constant": true,
      "inputs": [
        {
          "internalType": "uint256",
          "name": "epoch",
          "type": "uint256"
        }
      ],
      "name": "getTotalBurned",
      "outputs": [
        {
          "internalType": "uint256",
          "name": "",
          "type": "uint256"
        }
      ],
      "payable": false,
      "stateMutability": "view",
      "type": "function"
    },
    {
      "constant": true,
      "inputs": [
        {
          "internalType": "uint256",
          "name": "epoch",
          "type": "uint256"
        }
      ],
      "name": "getTotalFilled",
      "outputs": [
        {
          "internalType": "uint256",
          "name": "",
          "type": "uint256"
        }
      ],
      "payable": false,
      "stateMutability": "view",
      "type": "function"
    },
    {
      "constant": true,
      "inputs": [],
      "name": "implementation",
      "outputs": [
        {
          "internalType": "address",
          "name": "impl",
          "type": "address"
        }
      ],
      "payable": false,
      "stateMutability": "view",
      "type": "function"
    },
    {
      "constant": true,
      "inputs": [
        {
          "internalType": "address",
          "name": "candidate",
          "type": "address"
        }
      ],
      "name": "isInitialized",
      "outputs": [
        {
          "internalType": "bool",
          "name": "",
          "type": "bool"
        }
      ],
      "payable": false,
      "stateMutability": "view",
      "type": "function"
    },
    {
      "constant": true,
      "inputs": [
        {
          "internalType": "address",
          "name": "candidate",
          "type": "address"
        }
      ],
      "name": "isNominated",
      "outputs": [
        {
          "internalType": "bool",
          "name": "",
          "type": "bool"
        }
      ],
      "payable": false,
      "stateMutability": "view",
      "type": "function"
    },
    {
      "constant": true,
      "inputs": [
        {
          "internalType": "address",
          "name": "account",
          "type": "address"
        }
      ],
      "name": "lockedUntil",
      "outputs": [
        {
          "internalType": "uint256",
          "name": "",
          "type": "uint256"
        }
      ],
      "payable": false,
      "stateMutability": "view",
      "type": "function"
    },
    {
      "constant": true,
      "inputs": [],
      "name": "name",
      "outputs": [
        {
          "internalType": "string",
          "name": "",
          "type": "string"
        }
      ],
      "payable": false,
      "stateMutability": "view",
      "type": "function"
    },
    {
      "constant": true,
      "inputs": [],
      "name": "oracle",
      "outputs": [
        {
          "internalType": "contract IOracle",
          "name": "",
          "type": "address"
        }
      ],
      "payable": false,
      "stateMutability": "view",
      "type": "function"
    },
    {
      "constant": true,
      "inputs": [
        {
          "internalType": "uint256",
          "name": "epoch",
          "type": "uint256"
        }
      ],
      "name": "outstandingCoupons",
      "outputs": [
        {
          "internalType": "uint256",
          "name": "",
          "type": "uint256"
        }
      ],
      "payable": false,
      "stateMutability": "view",
      "type": "function"
    },
    {
      "constant": true,
      "inputs": [
        {
          "internalType": "address",
          "name": "candidate",
          "type": "address"
        }
      ],
      "name": "periodFor",
      "outputs": [
        {
          "internalType": "uint256",
          "name": "",
          "type": "uint256"
        }
      ],
      "payable": false,
      "stateMutability": "view",
      "type": "function"
    },
    {
      "constant": true,
      "inputs": [],
      "name": "pool",
      "outputs": [
        {
          "internalType": "address",
          "name": "",
          "type": "address"
        }
      ],
      "payable": false,
      "stateMutability": "view",
      "type": "function"
    },
    {
      "constant": true,
      "inputs": [
        {
          "internalType": "address",
          "name": "account",
          "type": "address"
        },
        {
          "internalType": "address",
          "name": "candidate",
          "type": "address"
        }
      ],
      "name": "recordedVote",
      "outputs": [
        {
          "internalType": "enum Candidate.Vote",
          "name": "",
          "type": "uint8"
        }
      ],
      "payable": false,
      "stateMutability": "view",
      "type": "function"
    },
    {
      "constant": true,
      "inputs": [
        {
          "internalType": "address",
          "name": "candidate",
          "type": "address"
        }
      ],
      "name": "rejectFor",
      "outputs": [
        {
          "internalType": "uint256",
          "name": "",
          "type": "uint256"
        }
      ],
      "payable": false,
      "stateMutability": "view",
      "type": "function"
    },
    {
      "constant": true,
      "inputs": [
        {
          "internalType": "address",
          "name": "candidate",
          "type": "address"
        }
      ],
      "name": "startFor",
      "outputs": [
        {
          "internalType": "uint256",
          "name": "",
          "type": "uint256"
        }
      ],
      "payable": false,
      "stateMutability": "view",
      "type": "function"
    },
    {
      "constant": true,
      "inputs": [
        {
          "internalType": "address",
          "name": "account",
          "type": "address"
        }
      ],
      "name": "statusOf",
      "outputs": [
        {
          "internalType": "enum Account.Status",
          "name": "",
          "type": "uint8"
        }
      ],
      "payable": false,
      "stateMutability": "view",
      "type": "function"
    },
    {
      "constant": true,
      "inputs": [],
      "name": "symbol",
      "outputs": [
        {
          "internalType": "string",
          "name": "",
          "type": "string"
        }
      ],
      "payable": false,
      "stateMutability": "view",
      "type": "function"
    },
    {
      "constant": true,
      "inputs": [],
      "name": "totalBonded",
      "outputs": [
        {
          "internalType": "uint256",
          "name": "",
          "type": "uint256"
        }
      ],
      "payable": false,
      "stateMutability": "view",
      "type": "function"
    },
    {
      "constant": true,
      "inputs": [
        {
          "internalType": "uint256",
          "name": "epoch",
          "type": "uint256"
        }
      ],
      "name": "totalBondedAt",
      "outputs": [
        {
          "internalType": "uint256",
          "name": "",
          "type": "uint256"
        }
      ],
      "payable": false,
      "stateMutability": "view",
      "type": "function"
    },
    {
      "constant": true,
      "inputs": [],
      "name": "totalCoupons",
      "outputs": [
        {
          "internalType": "uint256",
          "name": "",
          "type": "uint256"
        }
      ],
      "payable": false,
      "stateMutability": "view",
      "type": "function"
    },
    {
      "constant": true,
      "inputs": [],
      "name": "totalDebt",
      "outputs": [
        {
          "internalType": "uint256",
          "name": "",
          "type": "uint256"
        }
      ],
      "payable": false,
      "stateMutability": "view",
      "type": "function"
    },
    {
      "constant": true,
      "inputs": [],
      "name": "totalNet",
      "outputs": [
        {
          "internalType": "uint256",
          "name": "",
          "type": "uint256"
        }
      ],
      "payable": false,
      "stateMutability": "view",
      "type": "function"
    },
    {
      "constant": true,
      "inputs": [],
      "name": "totalRedeemable",
      "outputs": [
        {
          "internalType": "uint256",
          "name": "",
          "type": "uint256"
        }
      ],
      "payable": false,
      "stateMutability": "view",
      "type": "function"
    },
    {
      "constant": true,
      "inputs": [],
      "name": "totalStaged",
      "outputs": [
        {
          "internalType": "uint256",
          "name": "",
          "type": "uint256"
        }
      ],
      "payable": false,
      "stateMutability": "view",
      "type": "function"
    },
    {
      "constant": true,
      "inputs": [],
      "name": "totalSupply",
      "outputs": [
        {
          "internalType": "uint256",
          "name": "",
          "type": "uint256"
        }
      ],
      "payable": false,
      "stateMutability": "view",
      "type": "function"
    },
    {
      "constant": false,
      "inputs": [
        {
          "internalType": "address",
          "name": "recipient",
          "type": "address"
        },
        {
          "internalType": "uint256",
          "name": "amount",
          "type": "uint256"
        }
      ],
      "name": "transfer",
      "outputs": [
        {
          "internalType": "bool",
          "name": "",
          "type": "bool"
        }
      ],
      "payable": false,
      "stateMutability": "nonpayable",
      "type": "function"
    },
    {
      "constant": false,
      "inputs": [
        {
          "internalType": "address",
          "name": "sender",
          "type": "address"
        },
        {
          "internalType": "address",
          "name": "recipient",
          "type": "address"
        },
        {
          "internalType": "uint256",
          "name": "amount",
          "type": "uint256"
        }
      ],
      "name": "transferFrom",
      "outputs": [
        {
          "internalType": "bool",
          "name": "",
          "type": "bool"
        }
      ],
      "payable": false,
      "stateMutability": "nonpayable",
      "type": "function"
    },
    {
      "constant": true,
      "inputs": [
        {
          "internalType": "address",
          "name": "candidate",
          "type": "address"
        }
      ],
      "name": "votesFor",
      "outputs": [
        {
          "internalType": "uint256",
          "name": "",
          "type": "uint256"
        }
      ],
      "payable": false,
      "stateMutability": "view",
      "type": "function"
    },
    {
      "constant": true,
      "inputs": [
        {
          "internalType": "uint256",
          "name": "amount",
          "type": "uint256"
        }
      ],
      "name": "couponPremium",
      "outputs": [
        {
          "internalType": "uint256",
          "name": "",
          "type": "uint256"
        }
      ],
      "payable": false,
      "stateMutability": "view",
      "type": "function"
    },
    {
      "constant": true,
      "inputs": [
        {
          "internalType": "uint256",
          "name": "couponEpoch",
          "type": "uint256"
        },
        {
          "internalType": "uint256",
          "name": "couponAmount",
          "type": "uint256"
        }
      ],
      "name": "couponRedemptionPenalty",
      "outputs": [
        {
          "internalType": "uint256",
          "name": "",
          "type": "uint256"
        }
      ],
      "payable": false,
      "stateMutability": "view",
      "type": "function"
    },
    {
      "constant": false,
      "inputs": [
        {
          "internalType": "uint256",
          "name": "dollarAmount",
          "type": "uint256"
        }
      ],
      "name": "purchaseCoupons",
      "outputs": [
        {
          "internalType": "uint256",
          "name": "",
          "type": "uint256"
        }
      ],
      "payable": false,
      "stateMutability": "nonpayable",
      "type": "function"
    },
    {
      "constant": false,
      "inputs": [
        {
          "internalType": "uint256",
          "name": "couponEpoch",
          "type": "uint256"
        },
        {
          "internalType": "uint256",
          "name": "couponAmount",
          "type": "uint256"
        },
        {
          "internalType": "uint256",
          "name": "minOutput",
          "type": "uint256"
        }
      ],
      "name": "redeemCoupons",
      "outputs": [],
      "payable": false,
      "stateMutability": "nonpayable",
      "type": "function"
    },
    {
      "constant": false,
      "inputs": [
        {
          "internalType": "uint256",
          "name": "couponEpoch",
          "type": "uint256"
        },
        {
          "internalType": "uint256",
          "name": "couponAmount",
          "type": "uint256"
        }
      ],
      "name": "redeemCoupons",
      "outputs": [],
      "payable": false,
      "stateMutability": "nonpayable",
      "type": "function"
    },
    {
      "constant": false,
      "inputs": [
        {
          "internalType": "address",
          "name": "spender",
          "type": "address"
        },
        {
          "internalType": "uint256",
          "name": "amount",
          "type": "uint256"
        }
      ],
      "name": "approveCoupons",
      "outputs": [],
      "payable": false,
      "stateMutability": "nonpayable",
      "type": "function"
    },
    {
      "constant": false,
      "inputs": [
        {
          "internalType": "address",
          "name": "sender",
          "type": "address"
        },
        {
          "internalType": "address",
          "name": "recipient",
          "type": "address"
        },
        {
          "internalType": "uint256",
          "name": "epoch",
          "type": "uint256"
        },
        {
          "internalType": "uint256",
          "name": "amount",
          "type": "uint256"
        }
      ],
      "name": "transferCoupons",
      "outputs": [],
      "payable": false,
      "stateMutability": "nonpayable",
      "type": "function"
    },
    {
      "constant": false,
      "inputs": [
        {
          "internalType": "uint256",
          "name": "couponEpochExpiry",
          "type": "uint256"
        },
        {
          "internalType": "uint256",
          "name": "dollarAmount",
          "type": "uint256"
        },
        {
          "internalType": "uint256",
          "name": "maxCouponAmount",
          "type": "uint256"
        }
      ],
      "name": "placeCouponAuctionBid",
      "outputs": [
        {
          "internalType": "bool",
          "name": "",
          "type": "bool"
        }
      ],
      "payable": false,
      "stateMutability": "nonpayable",
      "type": "function"
    }
  ],
  "bytecode": "0x608060405234801561001057600080fd5b50612c74806100206000396000f3fe608060405234801561001057600080fd5b50600436106103a35760003560e01c8063825ad607116101e9578063c34eee651161010f578063d8f54138116100ad578063eeaca09b1161007c578063eeaca09b14610779578063f1b7cf491461078c578063fc7b9c181461079f578063ffbe3b73146107a7576103a3565b8063d8f5413814610732578063dd62ed3e14610745578063dde74dc314610753578063e5f55c7e14610766576103a3565b8063cf023779116100e9578063cf023779146106f1578063d53c6f5f146106f9578063d60b347f1461070c578063d6a9cf081461071f576103a3565b8063c34eee65146106b8578063c9aff70c146106cb578063cb0fbc71146106de576103a3565b80639f1a092911610187578063a6c409f111610156578063a6c409f11461068a578063a9059cbb146103db578063bc0b1df614610692578063bc7513e2146106a5576103a3565b80639f1a09291461063e5780639f6e1b2614610651578063a1eb31e814610664578063a50cd8e714610677576103a3565b806395d89b41116101c357806395d89b411461060857806397a5d5b5146106105780639a649edc146106235780639bc289f11461062b576103a3565b8063825ad607146105da57806386cf9f14146105ed578063900cf0cf14610600576103a3565b80633dc905c7116102ce578063520acb761161026c57806370a082311161023b57806370a082311461059957806375d5024b146105ac5780637d8bb869146105bf5780637dc0d1d0146105d2576103a3565b8063520acb76146105585780635c60da1b1461056b57806364668022146105735780636a39e32814610586576103a3565b80634c736099116102a85780634c736099146105155780635053e4611461052857806351adeb571461053057806351bf21d814610545576103a3565b80633dc905c7146104da5780633fbba9a6146104ed57806344d96e951461050d576103a3565b80631edbcf6c116103465780632f7f889e116103155780632f7f889e1461048c578063313ce5671461049f578063353a420c146104b45780633a3e6c81146104c7576103a3565b80631edbcf6c1461044b57806323b872dd1461045357806324772c04146104665780632d7f23b314610479576103a3565b806310e95b6c1161038257806310e95b6c146103fb57806315e14bf61461041b57806316f0115b1461042e57806318160ddd14610443576103a3565b80625edd37146103a857806306fdde03146103bd578063095ea7b3146103db575b600080fd5b6103bb6103b63660046125da565b6107ba565b005b6103c56108dd565b6040516103d29190612a34565b60405180910390f35b6103ee6103e936600461263b565b610914565b6040516103d29190612a0a565b61040e610409366004612689565b61091d565b6040516103d29190612aa5565b61040e610429366004612535565b610935565b610436610953565b6040516103d291906129b9565b61040e610962565b61040e610968565b6103ee61046136600461258d565b61096e565b6103ee6104743660046126e4565b610978565b61040e610487366004612689565b610b5e565b6103bb61049a36600461263b565b610b73565b6104a7610bf3565b6040516103d29190612ac1565b61040e6104c2366004612535565b610bf8565b6103ee6104d5366004612535565b610c16565b61040e6104e8366004612689565b610c33565b6105006104fb366004612553565b610c48565b6040516103d29190612a26565b61040e610c7b565b61040e6105233660046126c5565b610c81565b61040e610cb1565b610538610cd4565b6040516103d29190612a18565b61040e610553366004612535565b610ce3565b61040e610566366004612689565b610d01565b610436610d16565b61040e610581366004612535565b610d3b565b61040e610594366004612689565b610d59565b61040e6105a7366004612535565b610d6e565b6103ee6105ba366004612689565b610d8c565b61040e6105cd366004612689565b610d9f565b610538610db4565b61040e6105e8366004612535565b610dc3565b61040e6105fb366004612535565b610e0f565b61040e610e2a565b6103c5610e30565b61050061061e366004612535565b610e4e565b61040e610eb3565b61040e610639366004612535565b610eb9565b61040e61064c366004612689565b610ed7565b61040e61065f366004612553565b610eed565b61040e6106723660046126c5565b610f1c565b61040e610685366004612535565b611042565b61040e611059565b6103bb6106a03660046126e4565b6110ef565b61040e6106b336600461263b565b611223565b61040e6106c6366004612689565b611267565b61040e6106d9366004612689565b61127c565b61040e6106ec366004612689565b611291565b61040e6112a6565b61040e610707366004612689565b6112ac565b6103ee61071a366004612535565b6112c1565b6103bb61072d3660046126c5565b6112e2565b61040e610740366004612689565b6113de565b61040e6103e9366004612553565b61040e610761366004612689565b611469565b61040e610774366004612689565b61147e565b61040e610787366004612689565b61154c565b61040e61079a366004612535565b611561565b61040e61157c565b61040e6107b5366004612689565b611582565b6001600160a01b0384166107e95760405162461bcd60e51b81526004016107e090612a85565b60405180910390fd5b6001600160a01b03831661080f5760405162461bcd60e51b81526004016107e090612a55565b610833848383604051806060016040528060238152602001612b9960239139611594565b61083e83838361163f565b336001600160a01b03851614801590610862575060001961085f8533610eed565b14155b1561088b5761088b843383604051806060016040528060248152602001612bbc602491396116e6565b81836001600160a01b0316856001600160a01b03167f0f1dbb1ccbe57a1590c7baad7b01d581b730c9ebc535dcde4345e6db424063d8846040516108cf9190612aa5565b60405180910390a450505050565b60408051808201909152601881527f44796e616d69632053657420446f6c6c6172205374616b650000000000000000602082015290565b60005b92915050565b6000818152600d60205260409020600201545b919050565b6001600160a01b03166000908152600e602052604090206001015490565b600b546001600160a01b031690565b60035490565b60065490565b60005b9392505050565b60006109b1600085116513585c9ad95d60d21b7f4d7573742068617665206e6f6e2d7a65726f2065787069727900000000000000611757565b6109e8600084116513585c9ad95d60d21b7f4d75737420626964206e6f6e2d7a65726f20616d6f756e740000000000000000611757565b610a1f600083116513585c9ad95d60d21b7f4d75737420626964206f6e206e6f6e2d7a65726f20616d6f756e740000000000611757565b610a4f83610a2b61157c565b10156513585c9ad95d60d21b6e139bdd08195b9bdd59da081919589d608a1b611757565b610a8c610a5c33856117b1565b6513585c9ad95d60d21b7f4d757374206861766520656e6f75676820696e206163636f756e740000000000611757565b6000610aa685610a9a610e2a565b9063ffffffff61184c16565b9050610ac0610abb848663ffffffff61187116565b6118b3565b610ac98461194a565b610ad2816119e0565b610ae6610add610e2a565b33878787611a76565b610b07610af1610e2a565b610b01610afc610e2a565b611ad0565b33611ae5565b610b0f611b21565b80336001600160a01b03167f9f5acf79fa92396b7f3cb679d46ed617794dc8709703e9111f109216820301028686604051610b4b929190612ab3565b60405180910390a3506001949350505050565b6000908152600d60205260409020600a015490565b6001600160a01b038216610b995760405162461bcd60e51b81526004016107e090612a75565b610ba4338383611b49565b816001600160a01b0316336001600160a01b03167f8ff27e6b95060c1ca851e7c2c28af8b413eb1a8bcb637b0290da9543a709cce383604051610be79190612aa5565b60405180910390a35050565b601290565b6001600160a01b03166000908152600e602052604090206003015490565b6001600160a01b03166000908152600e6020526040902054151590565b6000908152600d60205260409020600e015490565b6001600160a01b038082166000908152600e60209081526040808320938616835260049093019052205460ff1692915050565b60045490565b6000828152600d60205260408120600301805483908110610c9e57fe5b9060005260206000200154905092915050565b6000610cbb6124d5565b610cc3611b79565b9050610cce81611ba8565b91505090565b6009546001600160a01b031690565b6001600160a01b03166000908152600c602052604090206004015490565b6000908152600d602052604090206010015490565b7f360894a13ba1a3210667c828492db98dca3e2076cc3735a920a3ca505d382bbc5490565b6001600160a01b03166000908152600e602052604090206002015490565b6000908152600d602052604090206003015490565b6001600160a01b03166000908152600c602052604090206001015490565b6000610d96611bca565b90911115919050565b6000908152600d602052604090206012015490565b600a546001600160a01b031690565b600080610dce610962565b905080610ddf576000915050610930565b61097181610e03610def86610d6e565b610df7610c7b565b9063ffffffff611bcf16565b9063ffffffff61187116565b6001600160a01b03166000908152600c602052604090205490565b60025490565b6040805180820190915260048152634453445360e01b602082015290565b6000610e58610e2a565b6001600160a01b0383166000908152600c60205260409020600501541115610e8257506002610930565b6001600160a01b0382166000908152600c6020526040902060040154610ea6610e2a565b1015610914576001610917565b60085490565b6001600160a01b03166000908152600c602052604090206005015490565b6000908152600d60208190526040909120015490565b6001600160a01b039182166000908152600c602090815260408083209390941682526003909201909152205490565b600080610f27611b79565b604001514281610f3357fe5b069050600084610f41610e2a565b0390506000610f4e611c09565b82610f57611c09565b03610f60611c0f565b0281610f6857fe5b04905080831115610f7f5760009350505050610917565b610f876124f6565b610fda604051806020016040528085610f9e611c09565b03815250610fce6040518060200160405280610fb8611c09565b9052610fc2611c15565b9063ffffffff611c3716565b9063ffffffff611c6e16565b9050610fe46124f6565b60408051602080820183528786038252825190810190925284825261101491610fce90859063ffffffff611c3716565b6040805160208101909152888152909150611035908263ffffffff611c6e16565b5198975050505050505050565b600061091761105083610bf8565b610a9a84610d3b565b60006110ea61106661157c565b61106e610cd4565b6001600160a01b03166318160ddd6040518163ffffffff1660e01b815260040160206040518083038186803b1580156110a657600080fd5b505afa1580156110ba573d6000803e3d6000fd5b505050506040513d601f19601f820116820180604052506110de91908101906126a7565b9063ffffffff611c9c16565b905090565b60026110fd846110de610e2a565b101561111b5760405162461bcd60e51b81526004016107e090612a95565b61113f338484604051806060016040528060238152602001612b9960239139611594565b600061114b8484610f1c565b9050808303611187838210156513585c9ad95d60d21b7f496e73756666696369656e74206f757470757420616d6f756e74000000000000611757565b6111913382611cde565b81156111da5784336001600160a01b03167f1cd1213d4276c260e84170b4a39025dc8398fbf744edee0709261769b456b94b846040516111d19190612aa5565b60405180910390a35b84336001600160a01b03167f46e9903ae8ac9e9f0c9bc321b05965c1c036e7d4783758703f5cdfc4133c51b6836040516112149190612aa5565b60405180910390a35050505050565b600061122e8261127c565b61123a57506000610917565b506001600160a01b03919091166000908152600c6020908152604080832093835260029093019052205490565b6000908152600d602052604090206011015490565b6000908152600d602052604090206001015490565b6000908152600d602052604090206013015490565b60055490565b6000908152600d60205260409020600f015490565b6001600160a01b03166000908152600e602052604090206005015460ff1690565b60026112f0836110de610e2a565b101561130e5760405162461bcd60e51b81526004016107e090612a95565b611332338383604051806060016040528060238152602001612b9960239139611594565b600061133e8383610f1c565b905080820361134d3382611cde565b81156113965783336001600160a01b03167f1cd1213d4276c260e84170b4a39025dc8398fbf744edee0709261769b456b94b8460405161138d9190612aa5565b60405180910390a35b83336001600160a01b03167f46e9903ae8ac9e9f0c9bc321b05965c1c036e7d4783758703f5cdfc4133c51b6836040516113d09190612aa5565b60405180910390a350505050565b60006109176113eb610cd4565b6001600160a01b03166318160ddd6040518163ffffffff1660e01b815260040160206040518083038186803b15801561142357600080fd5b505afa158015611437573d6000803e3d6000fd5b505050506040513d601f19601f8201168201806040525061145b91908101906126a7565b61146361157c565b84611d94565b6000908152600d60205260409020600c015490565b60006114b7600083116513585c9ad95d60d21b7f4d757374207075726368617365206e6f6e2d7a65726f20616d6f756e74000000611757565b6114c382610a2b61157c565b60006114cd610e2a565b905060006114ea6114dd856113de565b859063ffffffff61184c16565b90506114f63385611dc1565b61150133838361163f565b81336001600160a01b03167fbce252db29f761f815dc2e9ea60005af065efba6eb619d2a0b2a113fdeb61414868460405161153d929190612ab3565b60405180910390a39392505050565b6000908152600d60205260409020600b015490565b6001600160a01b03166000908152600e602052604090205490565b60075490565b6000908152600d602052604090205490565b6001600160a01b0384166000908152600c602090815260408083208684526002019091529020546115cc90838363ffffffff611ed216565b6001600160a01b0385166000908152600c60209081526040808320878452600201825280832093909355600d9052206001015461161090838363ffffffff611ed216565b6000848152600d602052604090206001015560085461163690838363ffffffff611ed216565b60085550505050565b6001600160a01b0383166000908152600c60209081526040808320858452600201909152902054611676908263ffffffff61184c16565b6001600160a01b0384166000908152600c60209081526040808320868452600201825280832093909355600d905220600101546116b9908263ffffffff61184c16565b6000838152600d60205260409020600101556008546116de908263ffffffff61184c16565b600855505050565b6001600160a01b038085166000908152600c60209081526040808320938716835260039093019052205461172190838363ffffffff611ed216565b6001600160a01b039485166000908152600c60209081526040808320969097168252600390950190945293909220929092555050565b826117ac5761176582611efe565b6101d160f51b61177483611efe565b60405160200161178693929190612988565b60408051601f198184030181529082905262461bcd60e51b82526107e091600401612a34565b505050565b60006117c082610a9a85610dc3565b6117c8610cd4565b6001600160a01b03166370a08231856040518263ffffffff1660e01b81526004016117f391906129b9565b60206040518083038186803b15801561180b57600080fd5b505afa15801561181f573d6000803e3d6000fd5b505050506040513d601f19601f8201168201806040525061184391908101906126a7565b10159392505050565b6000828201838110156109715760405162461bcd60e51b81526004016107e090612a45565b600061097183836040518060400160405280601a81526020017f536166654d6174683a206469766973696f6e206279207a65726f000000000000815250611f7e565b600d60006118bf610e2a565b8152602001908152602001600020600401600401548111156118fd5780600d60006118e8610e2a565b81526020810191909152604001600020600801555b80600d600061190a610e2a565b81526020019081526020016000206004016003015411156119475780600d6000611932610e2a565b81526020810191909152604001600020600701555b50565b600d6000611956610e2a565b8152602001908152602001600020600401601101548111156119945780600d600061197f610e2a565b81526020810191909152604001600020601501555b600d60006119a0610e2a565b8152602001908152602001600020600401601001548110156119475780600d60006119c9610e2a565b815260208101919091526040016000206014015550565b600d60006119ec610e2a565b815260200190815260200160002060040160020154811115611a2a5780600d6000611a15610e2a565b81526020810191909152604001600020600601555b600d6000611a36610e2a565b8152602001908152602001600020600401600101548110156119475780600d6000611a5f610e2a565b815260208101919091526040016000206005015550565b6000948552600d602090815260408087206001600160a01b03969096168088526018909601909152909420600481019290925560018201556002810192909255815462010000600160b01b03191662010000909102179055565b6000908152600d602052604090206009015490565b6000928352600d6020908152604080852093855260169093019052912080546001600160a01b0319166001600160a01b03909216919091179055565b600d6000611b2d610e2a565b8152602081019190915260400160002060090180546001019055565b6001600160a01b039283166000908152600c60209081526040808320949095168252600390930190925291902055565b611b816124d5565b604051806060016040528060008152602001635fbef0008152602001611c20815250905090565b60006109178260000151610a9a8460400151610e0386602001516110de611fb5565b609690565b600082611bde57506000610917565b82820282848281611beb57fe5b04146109715760405162461bcd60e51b81526004016107e090612a65565b61016890565b610e1090565b611c1d6124f6565b5060408051602081019091526706f05b59d3b20000815290565b611c3f6124f6565b6040518060200160405280611c658560000151670de0b6b3a76400008660000151611fb9565b90529392505050565b611c766124f6565b6040518060200160405280611c6585600001518560000151670de0b6b3a7640000611fb9565b600061097183836040518060400160405280601e81526020017f536166654d6174683a207375627472616374696f6e206f766572666c6f770000815250611ed2565b611ce6610cd4565b6001600160a01b031663a9059cbb83836040518363ffffffff1660e01b8152600401611d139291906129ef565b602060405180830381600087803b158015611d2d57600080fd5b505af1158015611d41573d6000803e3d6000fd5b505050506040513d601f19601f82011682018060405250611d65919081019061266b565b50611d88816040518060600160405280602a8152602001612c08602a9139611fcf565b611d90611fea565b5050565b6000611db9611db483611da88787876120bf565b9063ffffffff61222c16565b612253565b949350505050565b611dc9610cd4565b6001600160a01b03166323b872dd8330846040518463ffffffff1660e01b8152600401611df8939291906129c7565b602060405180830381600087803b158015611e1257600080fd5b505af1158015611e26573d6000803e3d6000fd5b505050506040513d601f19601f82011682018060405250611e4a919081019061266b565b50611e53610cd4565b6001600160a01b03166342966c68826040518263ffffffff1660e01b8152600401611e7e9190612aa5565b600060405180830381600087803b158015611e9857600080fd5b505af1158015611eac573d6000803e3d6000fd5b50505050611d8881604051806060016040528060288152602001612be060289139612270565b60008184841115611ef65760405162461bcd60e51b81526004016107e09190612a34565b505050900390565b60608082604051602001611f129190612973565b60408051601f19818403018152919052905060205b8015611f6757815160001990910190829082908110611f4257fe5b01602001516001600160f81b03191615611f625760010181529050610930565b611f27565b505060408051600081526020810190915292915050565b60008183611f9f5760405162461bcd60e51b81526004016107e09190612a34565b506000838581611fab57fe5b0495945050505050565b4290565b6000611db982610e03868663ffffffff611bcf16565b600654611fe390838363ffffffff611ed216565b6006555050565b6120bd61200b611ff8610968565b610a9a6120036112a6565b610a9a610c7b565b612013610cd4565b6001600160a01b03166370a08231306040518263ffffffff1660e01b815260040161203e91906129b9565b60206040518083038186803b15801561205657600080fd5b505afa15801561206a573d6000803e3d6000fd5b505050506040513d601f19601f8201168201806040525061208e91908101906126a7565b10156a21b7b6b83a3937b63632b960a91b74496e636f6e73697374656e742062616c616e63657360581b611757565b565b6120c76124f6565b6120cf6124f6565b6120d9848661228b565b90506120e36124f6565b6120eb6122b1565b905060006120ff878663ffffffff611c9c16565b90506000612113878763ffffffff611c9c16565b905061211d6124f6565b612127828461228b565b9050612139858563ffffffff6122d316565b156122155761214e818563ffffffff6122d316565b156121685761215c846122e9565b95505050505050610971565b6121706124f6565b61217a8286612341565b90506121846124f6565b612194868463ffffffff61239e16565b905061219e6124f6565b6121a7876122e9565b90506121b16124f6565b6121c1898963ffffffff61239e16565b90506122056121d6848363ffffffff6123c716565b610fc26121e9858563ffffffff611c6e16565b6121f9888863ffffffff611c6e16565b9063ffffffff6123c716565b9950505050505050505050610971565b61221f8186612341565b9998505050505050505050565b6122346124f6565b604080516020810190915283518190611c65908563ffffffff611bcf16565b805160009061091790670de0b6b3a764000063ffffffff61187116565b60075461228490838363ffffffff611ed216565b6007555050565b6122936124f6565b6040518060200160405280611c6585670de0b6b3a764000086611fb9565b6122b96124f6565b5060408051602081019091526704db732547630000815290565b60006122df83836123f0565b6002149392505050565b6122f16124f6565b6109176123006001600361228b565b61231761233961232f600261232388612317612422565b9063ffffffff61239e16565b9063ffffffff61244416565b610fce600361249a565b610fc2612422565b6123496124f6565b612359838363ffffffff6124ce16565b1561236e57612367836122e9565b9050610917565b61097161237d6001600361228b565b61231761233961238f87612317612422565b610fce61232f88612317612422565b6123a66124f6565b6040805160208101909152825184518291611c65919063ffffffff611c9c16565b6123cf6124f6565b6040805160208101909152825184518291611c65919063ffffffff61184c16565b80518251600091141561240557506001610917565b8151835111612415576000612418565b60025b60ff169392505050565b61242a6124f6565b506040805160208101909152670de0b6b3a7640000815290565b61244c6124f6565b8161245b57612367600161249a565b6124636124f6565b5060408051602081019091528351815260015b83811015612492576124888286611c6e565b9150600101612476565b509392505050565b6124a26124f6565b6040805160208101909152806124c684670de0b6b3a764000063ffffffff611bcf16565b905292915050565b5190511490565b60405180606001604052806000815260200160008152602001600081525090565b6040518060200160405280600081525090565b803561091781612b72565b805161091781612b86565b803561091781612b8f565b805161091781612b8f565b60006020828403121561254757600080fd5b6000611db98484612509565b6000806040838503121561256657600080fd5b60006125728585612509565b925050602061258385828601612509565b9150509250929050565b6000806000606084860312156125a257600080fd5b60006125ae8686612509565b93505060206125bf86828701612509565b92505060406125d08682870161251f565b9150509250925092565b600080600080608085870312156125f057600080fd5b60006125fc8787612509565b945050602061260d87828801612509565b935050604061261e8782880161251f565b925050606061262f8782880161251f565b91505092959194509250565b6000806040838503121561264e57600080fd5b600061265a8585612509565b92505060206125838582860161251f565b60006020828403121561267d57600080fd5b6000611db98484612514565b60006020828403121561269b57600080fd5b6000611db9848461251f565b6000602082840312156126b957600080fd5b6000611db9848461252a565b600080604083850312156126d857600080fd5b600061265a858561251f565b6000806000606084860312156126f957600080fd5b6000612705868661251f565b93505060206125bf8682870161251f565b61271f81612adc565b82525050565b61271f81612ae7565b61271f61273a82612aec565b612af9565b61271f61273a82612af9565b600061275682612acf565b6127608185610930565b9350612770818560208601612b2e565b9290920192915050565b61271f81612b18565b61271f81612b23565b600061279782612acf565b6127a18185612ad3565b93506127b1818560208601612b2e565b6127ba81612b5e565b9093019392505050565b60006127d1601b83612ad3565b7f536166654d6174683a206164646974696f6e206f766572666c6f770000000000815260200192915050565b600061280a602b83612ad3565b7f4d61726b65743a20436f75706f6e207472616e7366657220746f20746865207a81526a65726f206164647265737360a81b602082015260400192915050565b6000612857602183612ad3565b7f536166654d6174683a206d756c7469706c69636174696f6e206f766572666c6f8152607760f81b602082015260400192915050565b600061289a602a83612ad3565b7f4d61726b65743a20436f75706f6e20617070726f766520746f20746865207a65815269726f206164647265737360b01b602082015260400192915050565b60006128e6602d83612ad3565b7f4d61726b65743a20436f75706f6e207472616e736665722066726f6d2074686581526c207a65726f206164647265737360981b602082015260400192915050565b6000612935601b83612ad3565b7f4d61726b65743a20546f6f206561726c7920746f2072656465656d0000000000815260200192915050565b61271f81612af9565b61271f81612b12565b600061297f828461273f565b50602001919050565b6000612994828661274b565b91506129a0828561272e565b6002820191506129b0828461274b565b95945050505050565b602081016109178284612716565b606081016129d58286612716565b6129e26020830185612716565b611db96040830184612961565b604081016129fd8285612716565b6109716020830184612961565b602081016109178284612725565b60208101610917828461277a565b602081016109178284612783565b60208082528101610971818461278c565b60208082528101610917816127c4565b60208082528101610917816127fd565b602080825281016109178161284a565b602080825281016109178161288d565b60208082528101610917816128d9565b6020808252810161091781612928565b602081016109178284612961565b604081016129fd8285612961565b60208101610917828461296a565b5190565b90815260200190565b600061091782612b06565b151590565b6001600160f01b03191690565b90565b8061093081612b68565b6001600160a01b031690565b60ff1690565b600061091782612adc565b600061091782612afc565b60005b83811015612b49578181015183820152602001612b31565b83811115612b58576000848401525b50505050565b601f01601f191690565b6003811061194757fe5b612b7b81612adc565b811461194757600080fd5b612b7b81612ae7565b612b7b81612af956fe4d61726b65743a20496e73756666696369656e7420636f75706f6e2062616c616e63654d61726b65743a20496e73756666696369656e7420636f75706f6e20617070726f76616c436f6d7074726f6c6c65723a206e6f7420656e6f756768206f75747374616e64696e672064656274436f6d7074726f6c6c65723a206e6f7420656e6f7567682072656465656d61626c652062616c616e6365a365627a7a72315820fe5f77fd6493735bde7d0fb9b7d23be39ca500d718d661aac564093403f8cb416c6578706572696d656e74616cf564736f6c63430005110040",
  "source": "/*\n    Copyright 2020 Dynamic Dollar Devs, based on the works of the Empty Set Squad\n\n    Licensed under the Apache License, Version 2.0 (the \"License\");\n    you may not use this file except in compliance with the License.\n    You may obtain a copy of the License at\n\n    http://www.apache.org/licenses/LICENSE-2.0\n\n    Unless required by applicable law or agreed to in writing, software\n    distributed under the License is distributed on an \"AS IS\" BASIS,\n    WITHOUT WARRANTIES OR CONDITIONS OF ANY KIND, either express or implied.\n    See the License for the specific language governing permissions and\n    limitations under the License.\n*/\n\npragma solidity ^0.5.17;\npragma experimental ABIEncoderV2;\n\nimport \"@openzeppelin/contracts/math/SafeMath.sol\";\nimport \"./Curve.sol\";\nimport \"./Comptroller.sol\";\nimport \"../Constants.sol\";\n\ncontract Market is Comptroller, Curve {\n    using SafeMath for uint256;\n\n    bytes32 private constant FILE = \"Market\";\n\n    event CouponExpiration(uint256 indexed epoch, uint256 couponsExpired, uint256 lessRedeemable, uint256 lessDebt, uint256 newBonded);\n    event CouponPurchase(address indexed account, uint256 indexed epoch, uint256 dollarAmount, uint256 couponAmount);\n    event CouponRedemption(address indexed account, uint256 indexed epoch, uint256 couponAmount);\n    event CouponBurn(address indexed account, uint256 indexed epoch, uint256 couponAmount);\n    event CouponTransfer(address indexed from, address indexed to, uint256 indexed epoch, uint256 value);\n    event CouponApproval(address indexed owner, address indexed spender, uint256 value);\n    event CouponBidPlaced(address indexed account, uint256 indexed epoch, uint256 dollarAmount, uint256 maxCouponAmount);\n    \n    function step() internal {\n        // Expire prior coupons\n        for (uint256 i = 0; i < expiringCoupons(epoch()); i++) {\n            expireCouponsForEpoch(expiringCouponsAtIndex(epoch(), i));\n        }\n\n        // Record expiry for current epoch's coupons\n        uint256 expirationEpoch = epoch().add(Constants.getCouponExpiration());\n        initializeCouponsExpiration(epoch(), expirationEpoch);\n    }\n\n    function expireCouponsForEpoch(uint256 epoch) private {\n        uint256 couponsForEpoch = outstandingCoupons(epoch);\n        (uint256 lessRedeemable, uint256 lessDebt, uint256 newBonded) = (0, 0, 0);\n\n        eliminateOutstandingCoupons(epoch);\n\n        uint256 totalRedeemable = totalRedeemable();\n        uint256 totalCoupons = totalCoupons();\n        if (totalRedeemable > totalCoupons) {\n            lessRedeemable = totalRedeemable.sub(totalCoupons);\n            burnRedeemable(lessRedeemable);\n            (, lessDebt, newBonded) = increaseSupply(lessRedeemable);\n        }\n\n        emit CouponExpiration(epoch, couponsForEpoch, lessRedeemable, lessDebt, newBonded);\n    }\n\n    function couponPremium(uint256 amount) public view returns (uint256) {\n        return calculateCouponPremium(dollar().totalSupply(), totalDebt(), amount);\n    }\n\n    function couponRedemptionPenalty(uint256 couponEpoch, uint256 couponAmount) public view returns (uint256) {\n        uint timeIntoEpoch = block.timestamp % Constants.getEpochStrategy().period;\n        uint couponAge = epoch() - couponEpoch;\n\n        uint couponEpochDecay = Constants.getCouponRedemptionPenaltyDecay() * (Constants.getCouponExpiration() - couponAge) / Constants.getCouponExpiration();\n\n        if(timeIntoEpoch > couponEpochDecay) {\n            return 0;\n        }\n\n        Decimal.D256 memory couponEpochInitialPenalty = Constants.getInitialCouponRedemptionPenalty().div(Decimal.D256({value: Constants.getCouponExpiration() })).mul(Decimal.D256({value: Constants.getCouponExpiration() - couponAge}));\n\n        Decimal.D256 memory couponEpochDecayedPenalty = couponEpochInitialPenalty.div(Decimal.D256({value: couponEpochDecay})).mul(Decimal.D256({value: couponEpochDecay - timeIntoEpoch}));\n\n        return Decimal.D256({value: couponAmount}).mul(couponEpochDecayedPenalty).value;\n    }\n\n    function purchaseCoupons(uint256 dollarAmount) external returns (uint256) {\n        Require.that(\n            dollarAmount > 0,\n            FILE,\n            \"Must purchase non-zero amount\"\n        );\n\n        Require.that(\n            totalDebt() >= dollarAmount,\n            FILE,\n            \"Not enough debt\"\n        );\n\n        uint256 epoch = epoch();\n        uint256 couponAmount = dollarAmount.add(couponPremium(dollarAmount));\n        burnFromAccount(msg.sender, dollarAmount);\n        incrementBalanceOfCoupons(msg.sender, epoch, couponAmount);\n\n        emit CouponPurchase(msg.sender, epoch, dollarAmount, couponAmount);\n\n        return couponAmount;\n    }\n\n    function redeemCoupons(uint256 couponEpoch, uint256 couponAmount) external {\n        require(epoch().sub(couponEpoch) >= 2, \"Market: Too early to redeem\");\n        decrementBalanceOfCoupons(msg.sender, couponEpoch, couponAmount, \"Market: Insufficient coupon balance\");\n        \n        uint burnAmount = couponRedemptionPenalty(couponEpoch, couponAmount);\n        uint256 redeemAmount = couponAmount - burnAmount;\n        \n        redeemToAccount(msg.sender, redeemAmount);\n\n        if(burnAmount > 0){\n            emit CouponBurn(msg.sender, couponEpoch, burnAmount);\n        }\n\n        emit CouponRedemption(msg.sender, couponEpoch, redeemAmount);\n    }\n\n    function redeemCoupons(uint256 couponEpoch, uint256 couponAmount, uint256 minOutput) external {\n        require(epoch().sub(couponEpoch) >= 2, \"Market: Too early to redeem\");\n        decrementBalanceOfCoupons(msg.sender, couponEpoch, couponAmount, \"Market: Insufficient coupon balance\");\n        \n        uint burnAmount = couponRedemptionPenalty(couponEpoch, couponAmount);\n        uint256 redeemAmount = couponAmount - burnAmount;\n\n        Require.that(\n            redeemAmount >= minOutput,\n            FILE,\n            \"Insufficient output amount\"\n        );\n        \n        redeemToAccount(msg.sender, redeemAmount);\n\n        if(burnAmount > 0){\n            emit CouponBurn(msg.sender, couponEpoch, burnAmount);\n        }\n\n        emit CouponRedemption(msg.sender, couponEpoch, redeemAmount);\n    }\n\n    function approveCoupons(address spender, uint256 amount) external {\n        require(spender != address(0), \"Market: Coupon approve to the zero address\");\n\n        updateAllowanceCoupons(msg.sender, spender, amount);\n\n        emit CouponApproval(msg.sender, spender, amount);\n    }\n\n    function transferCoupons(address sender, address recipient, uint256 epoch, uint256 amount) external {\n        require(sender != address(0), \"Market: Coupon transfer from the zero address\");\n        require(recipient != address(0), \"Market: Coupon transfer to the zero address\");\n\n        decrementBalanceOfCoupons(sender, epoch, amount, \"Market: Insufficient coupon balance\");\n        incrementBalanceOfCoupons(recipient, epoch, amount);\n\n        if (msg.sender != sender && allowanceCoupons(sender, msg.sender) != uint256(-1)) {\n            decrementAllowanceCoupons(sender, msg.sender, amount, \"Market: Insufficient coupon approval\");\n        }\n\n        emit CouponTransfer(sender, recipient, epoch, amount);\n    }\n\n    function placeCouponAuctionBid(uint256 couponEpochExpiry, uint256 dollarAmount, uint256 maxCouponAmount) external returns (bool) {\n        Require.that(\n            couponEpochExpiry > 0,\n            FILE,\n            \"Must have non-zero expiry\"\n        );\n        \n        Require.that(\n            dollarAmount > 0,\n            FILE,\n            \"Must bid non-zero amount\"\n        );\n        \n        Require.that(\n            maxCouponAmount > 0,\n            FILE,\n            \"Must bid on non-zero amount\"\n        );\n        \n        Require.that(\n            totalDebt() >= dollarAmount,\n            FILE,\n            \"Not enough debt\"\n        );\n\n        Require.that(\n            acceptableBidCheck(msg.sender, dollarAmount),\n            FILE,\n            \"Must have enough in account\"\n        );\n\n        uint256 epochExpiry = epoch().add(couponEpochExpiry);\n        setCouponAuctionRelYield(maxCouponAmount.div(dollarAmount));\n        setCouponAuctionRelDollarAmount(dollarAmount);\n        setCouponAuctionRelExpiry(epochExpiry);\n        setCouponBidderState(uint256(epoch()), msg.sender, couponEpochExpiry, dollarAmount, maxCouponAmount);\n        setCouponBidderStateIndex(uint256(epoch()), getCouponAuctionBids(uint256(epoch())), msg.sender);\n        incrementCouponAuctionBids();\n        emit CouponBidPlaced(msg.sender, epochExpiry, dollarAmount, maxCouponAmount);\n        return true;\n    }\n}\n",
  "sourcePath": "/Users/cinquemb/Documents/Startups/crypto/dollar/protocol/contracts/dao/Market.sol",
  "compiler": {
    "name": "solc",
    "version": "0.5.17+commit.d19bba13.Emscripten.clang"
  },
  "schemaVersion": "3.3.3",
  "updatedAt": "2021-01-14T02:02:04.541Z",
  "devdoc": {
    "methods": {}
  },
  "userdoc": {
    "methods": {
      "balanceOfStaged(address)": {
        "notice": "Account"
      },
      "dollar()": {
        "notice": "Global"
      },
      "epoch()": {
        "notice": "Epoch"
      },
      "name()": {
        "notice": "ERC20 Interface"
      },
      "recordedVote(address,address)": {
        "notice": "Governance"
      },
      "transfer(address,uint256)": {
        "notice": "ERC20 Interface"
      }
    }
  }
}