{
  "contractName": "Market",
  "abi": [
    {
      "anonymous": false,
      "inputs": [
        {
          "indexed": true,
          "internalType": "address",
          "name": "owner",
          "type": "address"
        },
        {
          "indexed": true,
          "internalType": "address",
          "name": "spender",
          "type": "address"
        },
        {
          "indexed": false,
          "internalType": "uint256",
          "name": "value",
          "type": "uint256"
        }
      ],
      "name": "CouponApproval",
      "type": "event"
    },
    {
      "anonymous": false,
      "inputs": [
        {
          "indexed": true,
          "internalType": "address",
          "name": "account",
          "type": "address"
        },
        {
          "indexed": true,
          "internalType": "uint256",
          "name": "epoch",
          "type": "uint256"
        },
        {
          "indexed": false,
          "internalType": "uint256",
          "name": "dollarAmount",
          "type": "uint256"
        },
        {
          "indexed": false,
          "internalType": "uint256",
          "name": "maxCouponAmount",
          "type": "uint256"
        }
      ],
      "name": "CouponBidPlaced",
      "type": "event"
    },
    {
      "anonymous": false,
      "inputs": [
        {
          "indexed": true,
          "internalType": "address",
          "name": "account",
          "type": "address"
        },
        {
          "indexed": true,
          "internalType": "uint256",
          "name": "epoch",
          "type": "uint256"
        },
        {
          "indexed": false,
          "internalType": "uint256",
          "name": "couponAmount",
          "type": "uint256"
        }
      ],
      "name": "CouponBurn",
      "type": "event"
    },
    {
      "anonymous": false,
      "inputs": [
        {
          "indexed": true,
          "internalType": "uint256",
          "name": "epoch",
          "type": "uint256"
        },
        {
          "indexed": false,
          "internalType": "uint256",
          "name": "couponsExpired",
          "type": "uint256"
        },
        {
          "indexed": false,
          "internalType": "uint256",
          "name": "lessRedeemable",
          "type": "uint256"
        },
        {
          "indexed": false,
          "internalType": "uint256",
          "name": "lessDebt",
          "type": "uint256"
        },
        {
          "indexed": false,
          "internalType": "uint256",
          "name": "newBonded",
          "type": "uint256"
        }
      ],
      "name": "CouponExpiration",
      "type": "event"
    },
    {
      "anonymous": false,
      "inputs": [
        {
          "indexed": true,
          "internalType": "address",
          "name": "account",
          "type": "address"
        },
        {
          "indexed": true,
          "internalType": "uint256",
          "name": "epoch",
          "type": "uint256"
        },
        {
          "indexed": false,
          "internalType": "uint256",
          "name": "dollarAmount",
          "type": "uint256"
        },
        {
          "indexed": false,
          "internalType": "uint256",
          "name": "couponAmount",
          "type": "uint256"
        }
      ],
      "name": "CouponPurchase",
      "type": "event"
    },
    {
      "anonymous": false,
      "inputs": [
        {
          "indexed": true,
          "internalType": "address",
          "name": "account",
          "type": "address"
        },
        {
          "indexed": true,
          "internalType": "uint256",
          "name": "epoch",
          "type": "uint256"
        },
        {
          "indexed": false,
          "internalType": "uint256",
          "name": "couponAmount",
          "type": "uint256"
        }
      ],
      "name": "CouponRedemption",
      "type": "event"
    },
    {
      "anonymous": false,
      "inputs": [
        {
          "indexed": true,
          "internalType": "address",
          "name": "from",
          "type": "address"
        },
        {
          "indexed": true,
          "internalType": "address",
          "name": "to",
          "type": "address"
        },
        {
          "indexed": true,
          "internalType": "uint256",
          "name": "epoch",
          "type": "uint256"
        },
        {
          "indexed": false,
          "internalType": "uint256",
          "name": "value",
          "type": "uint256"
        }
      ],
      "name": "CouponTransfer",
      "type": "event"
    },
    {
      "anonymous": false,
      "inputs": [
        {
          "indexed": true,
          "internalType": "address",
          "name": "from",
          "type": "address"
        },
        {
          "indexed": true,
          "internalType": "address",
          "name": "to",
          "type": "address"
        },
        {
          "indexed": false,
          "internalType": "uint256",
          "name": "value",
          "type": "uint256"
        }
      ],
      "name": "Transfer",
      "type": "event"
    },
    {
      "constant": true,
      "inputs": [
        {
          "internalType": "address",
          "name": "owner",
          "type": "address"
        },
        {
          "internalType": "address",
          "name": "spender",
          "type": "address"
        }
      ],
      "name": "allowance",
      "outputs": [
        {
          "internalType": "uint256",
          "name": "",
          "type": "uint256"
        }
      ],
      "payable": false,
      "stateMutability": "view",
      "type": "function"
    },
    {
      "constant": true,
      "inputs": [
        {
          "internalType": "address",
          "name": "owner",
          "type": "address"
        },
        {
          "internalType": "address",
          "name": "spender",
          "type": "address"
        }
      ],
      "name": "allowanceCoupons",
      "outputs": [
        {
          "internalType": "uint256",
          "name": "",
          "type": "uint256"
        }
      ],
      "payable": false,
      "stateMutability": "view",
      "type": "function"
    },
    {
      "constant": false,
      "inputs": [
        {
          "internalType": "address",
          "name": "spender",
          "type": "address"
        },
        {
          "internalType": "uint256",
          "name": "amount",
          "type": "uint256"
        }
      ],
      "name": "approve",
      "outputs": [
        {
          "internalType": "bool",
          "name": "",
          "type": "bool"
        }
      ],
      "payable": false,
      "stateMutability": "nonpayable",
      "type": "function"
    },
    {
      "constant": true,
      "inputs": [
        {
          "internalType": "address",
          "name": "candidate",
          "type": "address"
        }
      ],
      "name": "approveFor",
      "outputs": [
        {
          "internalType": "uint256",
          "name": "",
          "type": "uint256"
        }
      ],
      "payable": false,
      "stateMutability": "view",
      "type": "function"
    },
    {
      "constant": true,
      "inputs": [
        {
          "internalType": "address",
          "name": "account",
          "type": "address"
        }
      ],
      "name": "balanceOf",
      "outputs": [
        {
          "internalType": "uint256",
          "name": "",
          "type": "uint256"
        }
      ],
      "payable": false,
      "stateMutability": "view",
      "type": "function"
    },
    {
      "constant": true,
      "inputs": [
        {
          "internalType": "address",
          "name": "account",
          "type": "address"
        }
      ],
      "name": "balanceOfBonded",
      "outputs": [
        {
          "internalType": "uint256",
          "name": "",
          "type": "uint256"
        }
      ],
      "payable": false,
      "stateMutability": "view",
      "type": "function"
    },
    {
      "constant": true,
      "inputs": [
        {
          "internalType": "address",
          "name": "account",
          "type": "address"
        },
        {
          "internalType": "uint256",
          "name": "epoch",
          "type": "uint256"
        }
      ],
      "name": "balanceOfCoupons",
      "outputs": [
        {
          "internalType": "uint256",
          "name": "",
          "type": "uint256"
        }
      ],
      "payable": false,
      "stateMutability": "view",
      "type": "function"
    },
    {
      "constant": true,
      "inputs": [
        {
          "internalType": "address",
          "name": "account",
          "type": "address"
        }
      ],
      "name": "balanceOfStaged",
      "outputs": [
        {
          "internalType": "uint256",
          "name": "",
          "type": "uint256"
        }
      ],
      "payable": false,
      "stateMutability": "view",
      "type": "function"
    },
    {
      "constant": true,
      "inputs": [
        {
          "internalType": "uint256",
          "name": "epoch",
          "type": "uint256"
        }
      ],
      "name": "bootstrappingAt",
      "outputs": [
        {
          "internalType": "bool",
          "name": "",
          "type": "bool"
        }
      ],
      "payable": false,
      "stateMutability": "view",
      "type": "function"
    },
    {
      "constant": true,
      "inputs": [
        {
          "internalType": "uint256",
          "name": "epoch",
          "type": "uint256"
        }
      ],
      "name": "couponsExpiration",
      "outputs": [
        {
          "internalType": "uint256",
          "name": "",
          "type": "uint256"
        }
      ],
      "payable": false,
      "stateMutability": "view",
      "type": "function"
    },
    {
      "constant": true,
      "inputs": [],
      "name": "decimals",
      "outputs": [
        {
          "internalType": "uint8",
          "name": "",
          "type": "uint8"
        }
      ],
      "payable": false,
      "stateMutability": "view",
      "type": "function"
    },
    {
      "constant": true,
      "inputs": [],
      "name": "dollar",
      "outputs": [
        {
          "internalType": "contract IDollar",
          "name": "",
          "type": "address"
        }
      ],
      "payable": false,
      "stateMutability": "view",
      "type": "function"
    },
    {
      "constant": true,
      "inputs": [],
      "name": "epoch",
      "outputs": [
        {
          "internalType": "uint256",
          "name": "",
          "type": "uint256"
        }
      ],
      "payable": false,
      "stateMutability": "view",
      "type": "function"
    },
    {
      "constant": true,
      "inputs": [],
      "name": "epochTime",
      "outputs": [
        {
          "internalType": "uint256",
          "name": "",
          "type": "uint256"
        }
      ],
      "payable": false,
      "stateMutability": "view",
      "type": "function"
    },
    {
      "constant": true,
      "inputs": [
        {
          "internalType": "uint256",
          "name": "epoch",
          "type": "uint256"
        }
      ],
      "name": "expiringCoupons",
      "outputs": [
        {
          "internalType": "uint256",
          "name": "",
          "type": "uint256"
        }
      ],
      "payable": false,
      "stateMutability": "view",
      "type": "function"
    },
    {
      "constant": true,
      "inputs": [
        {
          "internalType": "uint256",
          "name": "epoch",
          "type": "uint256"
        },
        {
          "internalType": "uint256",
          "name": "i",
          "type": "uint256"
        }
      ],
      "name": "expiringCouponsAtIndex",
      "outputs": [
        {
          "internalType": "uint256",
          "name": "",
          "type": "uint256"
        }
      ],
      "payable": false,
      "stateMutability": "view",
      "type": "function"
    },
    {
      "constant": true,
      "inputs": [
        {
          "internalType": "address",
          "name": "account",
          "type": "address"
        }
      ],
      "name": "fluidUntil",
      "outputs": [
        {
          "internalType": "uint256",
          "name": "",
          "type": "uint256"
        }
      ],
      "payable": false,
      "stateMutability": "view",
      "type": "function"
    },
    {
      "constant": true,
      "inputs": [
        {
          "internalType": "uint256",
          "name": "epoch",
          "type": "uint256"
        }
      ],
      "name": "getAvgExpiryFilled",
      "outputs": [
        {
          "internalType": "uint256",
          "name": "",
          "type": "uint256"
        }
      ],
      "payable": false,
      "stateMutability": "view",
      "type": "function"
    },
    {
      "constant": true,
      "inputs": [
        {
          "internalType": "uint256",
          "name": "epoch",
          "type": "uint256"
        }
      ],
      "name": "getAvgYieldFilled",
      "outputs": [
        {
          "internalType": "uint256",
          "name": "",
          "type": "uint256"
        }
      ],
      "payable": false,
      "stateMutability": "view",
      "type": "function"
    },
    {
      "constant": true,
      "inputs": [
        {
          "internalType": "uint256",
          "name": "epoch",
          "type": "uint256"
        }
      ],
      "name": "getBidToCover",
      "outputs": [
        {
          "internalType": "uint256",
          "name": "",
          "type": "uint256"
        }
      ],
      "payable": false,
      "stateMutability": "view",
      "type": "function"
    },
    {
      "constant": true,
      "inputs": [
        {
          "internalType": "uint256",
          "name": "epoch",
          "type": "uint256"
        }
      ],
      "name": "getMaxExpiryFilled",
      "outputs": [
        {
          "internalType": "uint256",
          "name": "",
          "type": "uint256"
        }
      ],
      "payable": false,
      "stateMutability": "view",
      "type": "function"
    },
    {
      "constant": true,
      "inputs": [
        {
          "internalType": "uint256",
          "name": "epoch",
          "type": "uint256"
        }
      ],
      "name": "getMaxYieldFilled",
      "outputs": [
        {
          "internalType": "uint256",
          "name": "",
          "type": "uint256"
        }
      ],
      "payable": false,
      "stateMutability": "view",
      "type": "function"
    },
    {
      "constant": true,
      "inputs": [
        {
          "internalType": "uint256",
          "name": "epoch",
          "type": "uint256"
        }
      ],
      "name": "getMinExpiryFilled",
      "outputs": [
        {
          "internalType": "uint256",
          "name": "",
          "type": "uint256"
        }
      ],
      "payable": false,
      "stateMutability": "view",
      "type": "function"
    },
    {
      "constant": true,
      "inputs": [
        {
          "internalType": "uint256",
          "name": "epoch",
          "type": "uint256"
        }
      ],
      "name": "getMinYieldFilled",
      "outputs": [
        {
          "internalType": "uint256",
          "name": "",
          "type": "uint256"
        }
      ],
      "payable": false,
      "stateMutability": "view",
      "type": "function"
    },
    {
      "constant": true,
      "inputs": [
        {
          "internalType": "uint256",
          "name": "epoch",
          "type": "uint256"
        }
      ],
      "name": "getTotalAuctioned",
      "outputs": [
        {
          "internalType": "uint256",
          "name": "",
          "type": "uint256"
        }
      ],
      "payable": false,
      "stateMutability": "view",
      "type": "function"
    },
    {
      "constant": true,
      "inputs": [
        {
          "internalType": "uint256",
          "name": "epoch",
          "type": "uint256"
        }
      ],
      "name": "getTotalBurned",
      "outputs": [
        {
          "internalType": "uint256",
          "name": "",
          "type": "uint256"
        }
      ],
      "payable": false,
      "stateMutability": "view",
      "type": "function"
    },
    {
      "constant": true,
      "inputs": [
        {
          "internalType": "uint256",
          "name": "epoch",
          "type": "uint256"
        }
      ],
      "name": "getTotalFilled",
      "outputs": [
        {
          "internalType": "uint256",
          "name": "",
          "type": "uint256"
        }
      ],
      "payable": false,
      "stateMutability": "view",
      "type": "function"
    },
    {
      "constant": true,
      "inputs": [],
      "name": "implementation",
      "outputs": [
        {
          "internalType": "address",
          "name": "impl",
          "type": "address"
        }
      ],
      "payable": false,
      "stateMutability": "view",
      "type": "function"
    },
    {
      "constant": true,
      "inputs": [
        {
          "internalType": "address",
          "name": "candidate",
          "type": "address"
        }
      ],
      "name": "isInitialized",
      "outputs": [
        {
          "internalType": "bool",
          "name": "",
          "type": "bool"
        }
      ],
      "payable": false,
      "stateMutability": "view",
      "type": "function"
    },
    {
      "constant": true,
      "inputs": [
        {
          "internalType": "address",
          "name": "candidate",
          "type": "address"
        }
      ],
      "name": "isNominated",
      "outputs": [
        {
          "internalType": "bool",
          "name": "",
          "type": "bool"
        }
      ],
      "payable": false,
      "stateMutability": "view",
      "type": "function"
    },
    {
      "constant": true,
      "inputs": [
        {
          "internalType": "address",
          "name": "account",
          "type": "address"
        }
      ],
      "name": "lockedUntil",
      "outputs": [
        {
          "internalType": "uint256",
          "name": "",
          "type": "uint256"
        }
      ],
      "payable": false,
      "stateMutability": "view",
      "type": "function"
    },
    {
      "constant": true,
      "inputs": [],
      "name": "name",
      "outputs": [
        {
          "internalType": "string",
          "name": "",
          "type": "string"
        }
      ],
      "payable": false,
      "stateMutability": "view",
      "type": "function"
    },
    {
      "constant": true,
      "inputs": [],
      "name": "oracle",
      "outputs": [
        {
          "internalType": "contract IOracle",
          "name": "",
          "type": "address"
        }
      ],
      "payable": false,
      "stateMutability": "view",
      "type": "function"
    },
    {
      "constant": true,
      "inputs": [
        {
          "internalType": "uint256",
          "name": "epoch",
          "type": "uint256"
        }
      ],
      "name": "outstandingCoupons",
      "outputs": [
        {
          "internalType": "uint256",
          "name": "",
          "type": "uint256"
        }
      ],
      "payable": false,
      "stateMutability": "view",
      "type": "function"
    },
    {
      "constant": true,
      "inputs": [
        {
          "internalType": "address",
          "name": "candidate",
          "type": "address"
        }
      ],
      "name": "periodFor",
      "outputs": [
        {
          "internalType": "uint256",
          "name": "",
          "type": "uint256"
        }
      ],
      "payable": false,
      "stateMutability": "view",
      "type": "function"
    },
    {
      "constant": true,
      "inputs": [],
      "name": "pool",
      "outputs": [
        {
          "internalType": "address",
          "name": "",
          "type": "address"
        }
      ],
      "payable": false,
      "stateMutability": "view",
      "type": "function"
    },
    {
      "constant": true,
      "inputs": [
        {
          "internalType": "address",
          "name": "account",
          "type": "address"
        },
        {
          "internalType": "address",
          "name": "candidate",
          "type": "address"
        }
      ],
      "name": "recordedVote",
      "outputs": [
        {
          "internalType": "enum Candidate.Vote",
          "name": "",
          "type": "uint8"
        }
      ],
      "payable": false,
      "stateMutability": "view",
      "type": "function"
    },
    {
      "constant": true,
      "inputs": [
        {
          "internalType": "address",
          "name": "candidate",
          "type": "address"
        }
      ],
      "name": "rejectFor",
      "outputs": [
        {
          "internalType": "uint256",
          "name": "",
          "type": "uint256"
        }
      ],
      "payable": false,
      "stateMutability": "view",
      "type": "function"
    },
    {
      "constant": true,
      "inputs": [
        {
          "internalType": "address",
          "name": "candidate",
          "type": "address"
        }
      ],
      "name": "startFor",
      "outputs": [
        {
          "internalType": "uint256",
          "name": "",
          "type": "uint256"
        }
      ],
      "payable": false,
      "stateMutability": "view",
      "type": "function"
    },
    {
      "constant": true,
      "inputs": [
        {
          "internalType": "address",
          "name": "account",
          "type": "address"
        }
      ],
      "name": "statusOf",
      "outputs": [
        {
          "internalType": "enum Account.Status",
          "name": "",
          "type": "uint8"
        }
      ],
      "payable": false,
      "stateMutability": "view",
      "type": "function"
    },
    {
      "constant": true,
      "inputs": [],
      "name": "symbol",
      "outputs": [
        {
          "internalType": "string",
          "name": "",
          "type": "string"
        }
      ],
      "payable": false,
      "stateMutability": "view",
      "type": "function"
    },
    {
      "constant": true,
      "inputs": [],
      "name": "totalBonded",
      "outputs": [
        {
          "internalType": "uint256",
          "name": "",
          "type": "uint256"
        }
      ],
      "payable": false,
      "stateMutability": "view",
      "type": "function"
    },
    {
      "constant": true,
      "inputs": [
        {
          "internalType": "uint256",
          "name": "epoch",
          "type": "uint256"
        }
      ],
      "name": "totalBondedAt",
      "outputs": [
        {
          "internalType": "uint256",
          "name": "",
          "type": "uint256"
        }
      ],
      "payable": false,
      "stateMutability": "view",
      "type": "function"
    },
    {
      "constant": true,
      "inputs": [],
      "name": "totalCoupons",
      "outputs": [
        {
          "internalType": "uint256",
          "name": "",
          "type": "uint256"
        }
      ],
      "payable": false,
      "stateMutability": "view",
      "type": "function"
    },
    {
      "constant": true,
      "inputs": [],
      "name": "totalDebt",
      "outputs": [
        {
          "internalType": "uint256",
          "name": "",
          "type": "uint256"
        }
      ],
      "payable": false,
      "stateMutability": "view",
      "type": "function"
    },
    {
      "constant": true,
      "inputs": [],
      "name": "totalNet",
      "outputs": [
        {
          "internalType": "uint256",
          "name": "",
          "type": "uint256"
        }
      ],
      "payable": false,
      "stateMutability": "view",
      "type": "function"
    },
    {
      "constant": true,
      "inputs": [],
      "name": "totalRedeemable",
      "outputs": [
        {
          "internalType": "uint256",
          "name": "",
          "type": "uint256"
        }
      ],
      "payable": false,
      "stateMutability": "view",
      "type": "function"
    },
    {
      "constant": true,
      "inputs": [],
      "name": "totalStaged",
      "outputs": [
        {
          "internalType": "uint256",
          "name": "",
          "type": "uint256"
        }
      ],
      "payable": false,
      "stateMutability": "view",
      "type": "function"
    },
    {
      "constant": true,
      "inputs": [],
      "name": "totalSupply",
      "outputs": [
        {
          "internalType": "uint256",
          "name": "",
          "type": "uint256"
        }
      ],
      "payable": false,
      "stateMutability": "view",
      "type": "function"
    },
    {
      "constant": false,
      "inputs": [
        {
          "internalType": "address",
          "name": "recipient",
          "type": "address"
        },
        {
          "internalType": "uint256",
          "name": "amount",
          "type": "uint256"
        }
      ],
      "name": "transfer",
      "outputs": [
        {
          "internalType": "bool",
          "name": "",
          "type": "bool"
        }
      ],
      "payable": false,
      "stateMutability": "nonpayable",
      "type": "function"
    },
    {
      "constant": false,
      "inputs": [
        {
          "internalType": "address",
          "name": "sender",
          "type": "address"
        },
        {
          "internalType": "address",
          "name": "recipient",
          "type": "address"
        },
        {
          "internalType": "uint256",
          "name": "amount",
          "type": "uint256"
        }
      ],
      "name": "transferFrom",
      "outputs": [
        {
          "internalType": "bool",
          "name": "",
          "type": "bool"
        }
      ],
      "payable": false,
      "stateMutability": "nonpayable",
      "type": "function"
    },
    {
      "constant": true,
      "inputs": [
        {
          "internalType": "address",
          "name": "candidate",
          "type": "address"
        }
      ],
      "name": "votesFor",
      "outputs": [
        {
          "internalType": "uint256",
          "name": "",
          "type": "uint256"
        }
      ],
      "payable": false,
      "stateMutability": "view",
      "type": "function"
    },
    {
      "constant": true,
      "inputs": [
        {
          "internalType": "uint256",
          "name": "amount",
          "type": "uint256"
        }
      ],
      "name": "couponPremium",
      "outputs": [
        {
          "internalType": "uint256",
          "name": "",
          "type": "uint256"
        }
      ],
      "payable": false,
      "stateMutability": "view",
      "type": "function"
    },
    {
      "constant": true,
      "inputs": [
        {
          "internalType": "uint256",
          "name": "couponEpoch",
          "type": "uint256"
        },
        {
          "internalType": "uint256",
          "name": "couponAmount",
          "type": "uint256"
        }
      ],
      "name": "couponRedemptionPenalty",
      "outputs": [
        {
          "internalType": "uint256",
          "name": "",
          "type": "uint256"
        }
      ],
      "payable": false,
      "stateMutability": "view",
      "type": "function"
    },
    {
      "constant": false,
      "inputs": [
        {
          "internalType": "uint256",
          "name": "dollarAmount",
          "type": "uint256"
        }
      ],
      "name": "purchaseCoupons",
      "outputs": [
        {
          "internalType": "uint256",
          "name": "",
          "type": "uint256"
        }
      ],
      "payable": false,
      "stateMutability": "nonpayable",
      "type": "function"
    },
    {
      "constant": false,
      "inputs": [
        {
          "internalType": "uint256",
          "name": "couponEpoch",
          "type": "uint256"
        },
        {
          "internalType": "uint256",
          "name": "couponAmount",
          "type": "uint256"
        },
        {
          "internalType": "uint256",
          "name": "minOutput",
          "type": "uint256"
        }
      ],
      "name": "redeemCoupons",
      "outputs": [],
      "payable": false,
      "stateMutability": "nonpayable",
      "type": "function"
    },
    {
      "constant": false,
      "inputs": [
        {
          "internalType": "uint256",
          "name": "couponEpoch",
          "type": "uint256"
        },
        {
          "internalType": "uint256",
          "name": "couponAmount",
          "type": "uint256"
        }
      ],
      "name": "redeemCoupons",
      "outputs": [],
      "payable": false,
      "stateMutability": "nonpayable",
      "type": "function"
    },
    {
      "constant": false,
      "inputs": [
        {
          "internalType": "address",
          "name": "spender",
          "type": "address"
        },
        {
          "internalType": "uint256",
          "name": "amount",
          "type": "uint256"
        }
      ],
      "name": "approveCoupons",
      "outputs": [],
      "payable": false,
      "stateMutability": "nonpayable",
      "type": "function"
    },
    {
      "constant": false,
      "inputs": [
        {
          "internalType": "address",
          "name": "sender",
          "type": "address"
        },
        {
          "internalType": "address",
          "name": "recipient",
          "type": "address"
        },
        {
          "internalType": "uint256",
          "name": "epoch",
          "type": "uint256"
        },
        {
          "internalType": "uint256",
          "name": "amount",
          "type": "uint256"
        }
      ],
      "name": "transferCoupons",
      "outputs": [],
      "payable": false,
      "stateMutability": "nonpayable",
      "type": "function"
    },
    {
      "constant": false,
      "inputs": [
        {
          "internalType": "uint256",
          "name": "couponEpochExpiry",
          "type": "uint256"
        },
        {
          "internalType": "uint256",
          "name": "dollarAmount",
          "type": "uint256"
        },
        {
          "internalType": "uint256",
          "name": "maxCouponAmount",
          "type": "uint256"
        }
      ],
      "name": "placeCouponAuctionBid",
      "outputs": [
        {
          "internalType": "bool",
          "name": "",
          "type": "bool"
        }
      ],
      "payable": false,
      "stateMutability": "nonpayable",
      "type": "function"
    }
  ],
  "bytecode": "0x608060405234801561001057600080fd5b50612bc8806100206000396000f3fe608060405234801561001057600080fd5b50600436106103a35760003560e01c8063825ad607116101e9578063c34eee651161010f578063d8f54138116100ad578063eeaca09b1161007c578063eeaca09b14610779578063f1b7cf491461078c578063fc7b9c181461079f578063ffbe3b73146107a7576103a3565b8063d8f5413814610732578063dd62ed3e14610745578063dde74dc314610753578063e5f55c7e14610766576103a3565b8063cf023779116100e9578063cf023779146106f1578063d53c6f5f146106f9578063d60b347f1461070c578063d6a9cf081461071f576103a3565b8063c34eee65146106b8578063c9aff70c146106cb578063cb0fbc71146106de576103a3565b80639f1a092911610187578063a6c409f111610156578063a6c409f11461068a578063a9059cbb146103db578063bc0b1df614610692578063bc7513e2146106a5576103a3565b80639f1a09291461063e5780639f6e1b2614610651578063a1eb31e814610664578063a50cd8e714610677576103a3565b806395d89b41116101c357806395d89b411461060857806397a5d5b5146106105780639a649edc146106235780639bc289f11461062b576103a3565b8063825ad607146105da57806386cf9f14146105ed578063900cf0cf14610600576103a3565b80633dc905c7116102ce578063520acb761161026c57806370a082311161023b57806370a082311461059957806375d5024b146105ac5780637d8bb869146105bf5780637dc0d1d0146105d2576103a3565b8063520acb76146105585780635c60da1b1461056b57806364668022146105735780636a39e32814610586576103a3565b80634c736099116102a85780634c736099146105155780635053e4611461052857806351adeb571461053057806351bf21d814610545576103a3565b80633dc905c7146104da5780633fbba9a6146104ed57806344d96e951461050d576103a3565b80631edbcf6c116103465780632f7f889e116103155780632f7f889e1461048c578063313ce5671461049f578063353a420c146104b45780633a3e6c81146104c7576103a3565b80631edbcf6c1461044b57806323b872dd1461045357806324772c04146104665780632d7f23b314610479576103a3565b806310e95b6c1161038257806310e95b6c146103fb57806315e14bf61461041b57806316f0115b1461042e57806318160ddd14610443576103a3565b80625edd37146103a857806306fdde03146103bd578063095ea7b3146103db575b600080fd5b6103bb6103b636600461252e565b6107ba565b005b6103c56108dd565b6040516103d29190612988565b60405180910390f35b6103ee6103e936600461258f565b610914565b6040516103d2919061295e565b61040e6104093660046125dd565b61091d565b6040516103d291906129f9565b61040e610429366004612489565b610935565b610436610953565b6040516103d2919061290d565b61040e610962565b61040e610968565b6103ee6104613660046124e1565b61096e565b6103ee610474366004612638565b610978565b61040e6104873660046125dd565b610b09565b6103bb61049a36600461258f565b610b1e565b6104a7610b9e565b6040516103d29190612a15565b61040e6104c2366004612489565b610ba3565b6103ee6104d5366004612489565b610bc1565b61040e6104e83660046125dd565b610bde565b6105006104fb3660046124a7565b610bf3565b6040516103d2919061297a565b61040e610c26565b61040e610523366004612619565b610c2c565b61040e610c5c565b610538610c7f565b6040516103d2919061296c565b61040e610553366004612489565b610c8e565b61040e6105663660046125dd565b610cac565b610436610cc1565b61040e610581366004612489565b610ce6565b61040e6105943660046125dd565b610d04565b61040e6105a7366004612489565b610d19565b6103ee6105ba3660046125dd565b610d37565b61040e6105cd3660046125dd565b610d4a565b610538610d5f565b61040e6105e8366004612489565b610d6e565b61040e6105fb366004612489565b610dba565b61040e610dd5565b6103c5610ddb565b61050061061e366004612489565b610df9565b61040e610e5e565b61040e610639366004612489565b610e64565b61040e61064c3660046125dd565b610e82565b61040e61065f3660046124a7565b610e98565b61040e610672366004612619565b610ec7565b61040e610685366004612489565b610fed565b61040e611004565b6103bb6106a0366004612638565b61109a565b61040e6106b336600461258f565b6111ce565b61040e6106c63660046125dd565b611212565b61040e6106d93660046125dd565b611227565b61040e6106ec3660046125dd565b61123c565b61040e611251565b61040e6107073660046125dd565b611257565b6103ee61071a366004612489565b61126c565b6103bb61072d366004612619565b61128d565b61040e6107403660046125dd565b611389565b61040e6103e93660046124a7565b61040e6107613660046125dd565b611414565b61040e6107743660046125dd565b611429565b61040e6107873660046125dd565b6114f7565b61040e61079a366004612489565b61150c565b61040e611527565b61040e6107b53660046125dd565b61152d565b6001600160a01b0384166107e95760405162461bcd60e51b81526004016107e0906129d9565b60405180910390fd5b6001600160a01b03831661080f5760405162461bcd60e51b81526004016107e0906129a9565b610833848383604051806060016040528060238152602001612aed6023913961153f565b61083e8383836115ea565b336001600160a01b03851614801590610862575060001961085f8533610e98565b14155b1561088b5761088b843383604051806060016040528060248152602001612b1060249139611691565b81836001600160a01b0316856001600160a01b03167f0f1dbb1ccbe57a1590c7baad7b01d581b730c9ebc535dcde4345e6db424063d8846040516108cf91906129f9565b60405180910390a450505050565b60408051808201909152601881527f44796e616d69632053657420446f6c6c6172205374616b650000000000000000602082015290565b60005b92915050565b6000818152600d60205260409020600201545b919050565b6001600160a01b03166000908152600e602052604090206001015490565b600b546001600160a01b031690565b60035490565b60065490565b60005b9392505050565b60006109b1600085116513585c9ad95d60d21b7f4d7573742068617665206e6f6e2d7a65726f2065787069727900000000000000611702565b6109e8600084116513585c9ad95d60d21b7f4d75737420626964206e6f6e2d7a65726f20616d6f756e740000000000000000611702565b610a1f600083116513585c9ad95d60d21b7f4d75737420626964206f6e206e6f6e2d7a65726f20616d6f756e740000000000611702565b610a4f83610a2b611527565b10156513585c9ad95d60d21b6e139bdd08195b9bdd59da081919589d608a1b611702565b6000610a6985610a5d610dd5565b9063ffffffff61175c16565b9050610a83610a7e848663ffffffff61178116565b6117c3565b610a8c8461185a565b610a95816118f0565b610aa133828686611986565b610ab2610aac6119f4565b33611a1b565b610aba611a75565b80336001600160a01b03167f9f5acf79fa92396b7f3cb679d46ed617794dc8709703e9111f109216820301028686604051610af6929190612a07565b60405180910390a3506001949350505050565b6000908152600d60205260409020600a015490565b6001600160a01b038216610b445760405162461bcd60e51b81526004016107e0906129c9565b610b4f338383611a9d565b816001600160a01b0316336001600160a01b03167f8ff27e6b95060c1ca851e7c2c28af8b413eb1a8bcb637b0290da9543a709cce383604051610b9291906129f9565b60405180910390a35050565b601290565b6001600160a01b03166000908152600e602052604090206003015490565b6001600160a01b03166000908152600e6020526040902054151590565b6000908152600d60205260409020600e015490565b6001600160a01b038082166000908152600e60209081526040808320938616835260049093019052205460ff1692915050565b60045490565b6000828152600d60205260408120600301805483908110610c4957fe5b9060005260206000200154905092915050565b6000610c66612429565b610c6e611acd565b9050610c7981611afc565b91505090565b6009546001600160a01b031690565b6001600160a01b03166000908152600c602052604090206004015490565b6000908152600d602052604090206010015490565b7f360894a13ba1a3210667c828492db98dca3e2076cc3735a920a3ca505d382bbc5490565b6001600160a01b03166000908152600e602052604090206002015490565b6000908152600d602052604090206003015490565b6001600160a01b03166000908152600c602052604090206001015490565b6000610d41611b1e565b90911115919050565b6000908152600d602052604090206012015490565b600a546001600160a01b031690565b600080610d79610962565b905080610d8a576000915050610930565b61097181610dae610d9a86610d19565b610da2610c26565b9063ffffffff611b2316565b9063ffffffff61178116565b6001600160a01b03166000908152600c602052604090205490565b60025490565b6040805180820190915260048152634453445360e01b602082015290565b6000610e03610dd5565b6001600160a01b0383166000908152600c60205260409020600501541115610e2d57506002610930565b6001600160a01b0382166000908152600c6020526040902060040154610e51610dd5565b1015610914576001610917565b60085490565b6001600160a01b03166000908152600c602052604090206005015490565b6000908152600d60208190526040909120015490565b6001600160a01b039182166000908152600c602090815260408083209390941682526003909201909152205490565b600080610ed2611acd565b604001514281610ede57fe5b069050600084610eec610dd5565b0390506000610ef9611b5d565b82610f02611b5d565b03610f0b611b63565b0281610f1357fe5b04905080831115610f2a5760009350505050610917565b610f3261244a565b610f85604051806020016040528085610f49611b5d565b03815250610f796040518060200160405280610f63611b5d565b9052610f6d611b69565b9063ffffffff611b8b16565b9063ffffffff611bc216565b9050610f8f61244a565b604080516020808201835287860382528251908101909252848252610fbf91610f7990859063ffffffff611b8b16565b6040805160208101909152888152909150610fe0908263ffffffff611bc216565b5198975050505050505050565b6000610917610ffb83610ba3565b610a5d84610ce6565b6000611095611011611527565b611019610c7f565b6001600160a01b03166318160ddd6040518163ffffffff1660e01b815260040160206040518083038186803b15801561105157600080fd5b505afa158015611065573d6000803e3d6000fd5b505050506040513d601f19601f8201168201806040525061108991908101906125fb565b9063ffffffff611bf016565b905090565b60026110a884611089610dd5565b10156110c65760405162461bcd60e51b81526004016107e0906129e9565b6110ea338484604051806060016040528060238152602001612aed6023913961153f565b60006110f68484610ec7565b9050808303611132838210156513585c9ad95d60d21b7f496e73756666696369656e74206f757470757420616d6f756e74000000000000611702565b61113c3382611c32565b81156111855784336001600160a01b03167f1cd1213d4276c260e84170b4a39025dc8398fbf744edee0709261769b456b94b8460405161117c91906129f9565b60405180910390a35b84336001600160a01b03167f46e9903ae8ac9e9f0c9bc321b05965c1c036e7d4783758703f5cdfc4133c51b6836040516111bf91906129f9565b60405180910390a35050505050565b60006111d982611227565b6111e557506000610917565b506001600160a01b03919091166000908152600c6020908152604080832093835260029093019052205490565b6000908152600d602052604090206011015490565b6000908152600d602052604090206001015490565b6000908152600d602052604090206013015490565b60055490565b6000908152600d60205260409020600f015490565b6001600160a01b03166000908152600e602052604090206005015460ff1690565b600261129b83611089610dd5565b10156112b95760405162461bcd60e51b81526004016107e0906129e9565b6112dd338383604051806060016040528060238152602001612aed6023913961153f565b60006112e98383610ec7565b90508082036112f83382611c32565b81156113415783336001600160a01b03167f1cd1213d4276c260e84170b4a39025dc8398fbf744edee0709261769b456b94b8460405161133891906129f9565b60405180910390a35b83336001600160a01b03167f46e9903ae8ac9e9f0c9bc321b05965c1c036e7d4783758703f5cdfc4133c51b68360405161137b91906129f9565b60405180910390a350505050565b6000610917611396610c7f565b6001600160a01b03166318160ddd6040518163ffffffff1660e01b815260040160206040518083038186803b1580156113ce57600080fd5b505afa1580156113e2573d6000803e3d6000fd5b505050506040513d601f19601f8201168201806040525061140691908101906125fb565b61140e611527565b84611ce8565b6000908152600d60205260409020600c015490565b6000611462600083116513585c9ad95d60d21b7f4d757374207075726368617365206e6f6e2d7a65726f20616d6f756e74000000611702565b61146e82610a2b611527565b6000611478610dd5565b9050600061149561148885611389565b859063ffffffff61175c16565b90506114a13385611d15565b6114ac3383836115ea565b81336001600160a01b03167fbce252db29f761f815dc2e9ea60005af065efba6eb619d2a0b2a113fdeb6141486846040516114e8929190612a07565b60405180910390a39392505050565b6000908152600d60205260409020600b015490565b6001600160a01b03166000908152600e602052604090205490565b60075490565b6000908152600d602052604090205490565b6001600160a01b0384166000908152600c6020908152604080832086845260020190915290205461157790838363ffffffff611e2616565b6001600160a01b0385166000908152600c60209081526040808320878452600201825280832093909355600d905220600101546115bb90838363ffffffff611e2616565b6000848152600d60205260409020600101556008546115e190838363ffffffff611e2616565b60085550505050565b6001600160a01b0383166000908152600c60209081526040808320858452600201909152902054611621908263ffffffff61175c16565b6001600160a01b0384166000908152600c60209081526040808320868452600201825280832093909355600d90522060010154611664908263ffffffff61175c16565b6000838152600d6020526040902060010155600854611689908263ffffffff61175c16565b600855505050565b6001600160a01b038085166000908152600c6020908152604080832093871683526003909301905220546116cc90838363ffffffff611e2616565b6001600160a01b039485166000908152600c60209081526040808320969097168252600390950190945293909220929092555050565b826117575761171082611e52565b6101d160f51b61171f83611e52565b604051602001611731939291906128dc565b60408051601f198184030181529082905262461bcd60e51b82526107e091600401612988565b505050565b6000828201838110156109715760405162461bcd60e51b81526004016107e090612999565b600061097183836040518060400160405280601a81526020017f536166654d6174683a206469766973696f6e206279207a65726f000000000000815250611ed2565b600d60006117cf610dd5565b81526020019081526020016000206004016004015481111561180d5780600d60006117f8610dd5565b81526020810191909152604001600020600801555b80600d600061181a610dd5565b81526020019081526020016000206004016003015411156118575780600d6000611842610dd5565b81526020810191909152604001600020600701555b50565b600d6000611866610dd5565b8152602001908152602001600020600401601101548111156118a45780600d600061188f610dd5565b81526020810191909152604001600020601501555b600d60006118b0610dd5565b8152602001908152602001600020600401601001548110156118575780600d60006118d9610dd5565b815260208101919091526040016000206014015550565b600d60006118fc610dd5565b81526020019081526020016000206004016002015481111561193a5780600d6000611925610dd5565b81526020810191909152604001600020600601555b600d6000611946610dd5565b8152602001908152602001600020600401600101548110156118575780600d600061196f610dd5565b815260208101919091526040016000206005015550565b6000600d81611993610dd5565b8152602080820192909252604090810160009081206001600160a01b03989098168082526018909801909252902060048101949094555060018301919091556002820155805462010000600160b01b03191662010000909202919091179055565b6000600d81611a01610dd5565b815260200190815260200160002060040160050154905090565b80600d6000611a28610dd5565b8152602001908152602001600020600401601201600084815260200190815260200160002060006101000a8154816001600160a01b0302191690836001600160a01b031602179055505050565b600d6000611a81610dd5565b8152602081019190915260400160002060090180546001019055565b6001600160a01b039283166000908152600c60209081526040808320949095168252600390930190925291902055565b611ad5612429565b604051806060016040528060008152602001635fbef0008152602001611c20815250905090565b60006109178260000151610a5d8460400151610dae8660200151611089611f09565b609690565b600082611b3257506000610917565b82820282848281611b3f57fe5b04146109715760405162461bcd60e51b81526004016107e0906129b9565b61016890565b610e1090565b611b7161244a565b5060408051602081019091526706f05b59d3b20000815290565b611b9361244a565b6040518060200160405280611bb98560000151670de0b6b3a76400008660000151611f0d565b90529392505050565b611bca61244a565b6040518060200160405280611bb985600001518560000151670de0b6b3a7640000611f0d565b600061097183836040518060400160405280601e81526020017f536166654d6174683a207375627472616374696f6e206f766572666c6f770000815250611e26565b611c3a610c7f565b6001600160a01b031663a9059cbb83836040518363ffffffff1660e01b8152600401611c67929190612943565b602060405180830381600087803b158015611c8157600080fd5b505af1158015611c95573d6000803e3d6000fd5b505050506040513d601f19601f82011682018060405250611cb991908101906125bf565b50611cdc816040518060600160405280602a8152602001612b5c602a9139611f23565b611ce4611f3e565b5050565b6000611d0d611d0883611cfc878787612013565b9063ffffffff61218016565b6121a7565b949350505050565b611d1d610c7f565b6001600160a01b03166323b872dd8330846040518463ffffffff1660e01b8152600401611d4c9392919061291b565b602060405180830381600087803b158015611d6657600080fd5b505af1158015611d7a573d6000803e3d6000fd5b505050506040513d601f19601f82011682018060405250611d9e91908101906125bf565b50611da7610c7f565b6001600160a01b03166342966c68826040518263ffffffff1660e01b8152600401611dd291906129f9565b600060405180830381600087803b158015611dec57600080fd5b505af1158015611e00573d6000803e3d6000fd5b50505050611cdc81604051806060016040528060288152602001612b34602891396121c4565b60008184841115611e4a5760405162461bcd60e51b81526004016107e09190612988565b505050900390565b60608082604051602001611e6691906128c7565b60408051601f19818403018152919052905060205b8015611ebb57815160001990910190829082908110611e9657fe5b01602001516001600160f81b03191615611eb65760010181529050610930565b611e7b565b505060408051600081526020810190915292915050565b60008183611ef35760405162461bcd60e51b81526004016107e09190612988565b506000838581611eff57fe5b0495945050505050565b4290565b6000611d0d82610dae868663ffffffff611b2316565b600654611f3790838363ffffffff611e2616565b6006555050565b612011611f5f611f4c610968565b610a5d611f57611251565b610a5d610c26565b611f67610c7f565b6001600160a01b03166370a08231306040518263ffffffff1660e01b8152600401611f92919061290d565b60206040518083038186803b158015611faa57600080fd5b505afa158015611fbe573d6000803e3d6000fd5b505050506040513d601f19601f82011682018060405250611fe291908101906125fb565b10156a21b7b6b83a3937b63632b960a91b74496e636f6e73697374656e742062616c616e63657360581b611702565b565b61201b61244a565b61202361244a565b61202d84866121df565b905061203761244a565b61203f612205565b90506000612053878663ffffffff611bf016565b90506000612067878763ffffffff611bf016565b905061207161244a565b61207b82846121df565b905061208d858563ffffffff61222716565b15612169576120a2818563ffffffff61222716565b156120bc576120b08461223d565b95505050505050610971565b6120c461244a565b6120ce8286612295565b90506120d861244a565b6120e8868463ffffffff6122f216565b90506120f261244a565b6120fb8761223d565b905061210561244a565b612115898963ffffffff6122f216565b905061215961212a848363ffffffff61231b16565b610f6d61213d858563ffffffff611bc216565b61214d888863ffffffff611bc216565b9063ffffffff61231b16565b9950505050505050505050610971565b6121738186612295565b9998505050505050505050565b61218861244a565b604080516020810190915283518190611bb9908563ffffffff611b2316565b805160009061091790670de0b6b3a764000063ffffffff61178116565b6007546121d890838363ffffffff611e2616565b6007555050565b6121e761244a565b6040518060200160405280611bb985670de0b6b3a764000086611f0d565b61220d61244a565b5060408051602081019091526704db732547630000815290565b60006122338383612344565b6002149392505050565b61224561244a565b610917612254600160036121df565b61226b61228d61228360026122778861226b612376565b9063ffffffff6122f216565b9063ffffffff61239816565b610f7960036123ee565b610f6d612376565b61229d61244a565b6122ad838363ffffffff61242216565b156122c2576122bb8361223d565b9050610917565b6109716122d1600160036121df565b61226b61228d6122e38761226b612376565b610f796122838861226b612376565b6122fa61244a565b6040805160208101909152825184518291611bb9919063ffffffff611bf016565b61232361244a565b6040805160208101909152825184518291611bb9919063ffffffff61175c16565b80518251600091141561235957506001610917565b815183511161236957600061236c565b60025b60ff169392505050565b61237e61244a565b506040805160208101909152670de0b6b3a7640000815290565b6123a061244a565b816123af576122bb60016123ee565b6123b761244a565b5060408051602081019091528351815260015b838110156123e6576123dc8286611bc2565b91506001016123ca565b509392505050565b6123f661244a565b60408051602081019091528061241a84670de0b6b3a764000063ffffffff611b2316565b905292915050565b5190511490565b60405180606001604052806000815260200160008152602001600081525090565b6040518060200160405280600081525090565b803561091781612ac6565b805161091781612ada565b803561091781612ae3565b805161091781612ae3565b60006020828403121561249b57600080fd5b6000611d0d848461245d565b600080604083850312156124ba57600080fd5b60006124c6858561245d565b92505060206124d78582860161245d565b9150509250929050565b6000806000606084860312156124f657600080fd5b6000612502868661245d565b93505060206125138682870161245d565b925050604061252486828701612473565b9150509250925092565b6000806000806080858703121561254457600080fd5b6000612550878761245d565b94505060206125618782880161245d565b935050604061257287828801612473565b925050606061258387828801612473565b91505092959194509250565b600080604083850312156125a257600080fd5b60006125ae858561245d565b92505060206124d785828601612473565b6000602082840312156125d157600080fd5b6000611d0d8484612468565b6000602082840312156125ef57600080fd5b6000611d0d8484612473565b60006020828403121561260d57600080fd5b6000611d0d848461247e565b6000806040838503121561262c57600080fd5b60006125ae8585612473565b60008060006060848603121561264d57600080fd5b60006126598686612473565b935050602061251386828701612473565b61267381612a30565b82525050565b61267381612a3b565b61267361268e82612a40565b612a4d565b61267361268e82612a4d565b60006126aa82612a23565b6126b48185610930565b93506126c4818560208601612a82565b9290920192915050565b61267381612a6c565b61267381612a77565b60006126eb82612a23565b6126f58185612a27565b9350612705818560208601612a82565b61270e81612ab2565b9093019392505050565b6000612725601b83612a27565b7f536166654d6174683a206164646974696f6e206f766572666c6f770000000000815260200192915050565b600061275e602b83612a27565b7f4d61726b65743a20436f75706f6e207472616e7366657220746f20746865207a81526a65726f206164647265737360a81b602082015260400192915050565b60006127ab602183612a27565b7f536166654d6174683a206d756c7469706c69636174696f6e206f766572666c6f8152607760f81b602082015260400192915050565b60006127ee602a83612a27565b7f4d61726b65743a20436f75706f6e20617070726f766520746f20746865207a65815269726f206164647265737360b01b602082015260400192915050565b600061283a602d83612a27565b7f4d61726b65743a20436f75706f6e207472616e736665722066726f6d2074686581526c207a65726f206164647265737360981b602082015260400192915050565b6000612889601b83612a27565b7f4d61726b65743a20546f6f206561726c7920746f2072656465656d0000000000815260200192915050565b61267381612a4d565b61267381612a66565b60006128d38284612693565b50602001919050565b60006128e8828661269f565b91506128f48285612682565b600282019150612904828461269f565b95945050505050565b60208101610917828461266a565b60608101612929828661266a565b612936602083018561266a565b611d0d60408301846128b5565b60408101612951828561266a565b61097160208301846128b5565b602081016109178284612679565b6020810161091782846126ce565b6020810161091782846126d7565b6020808252810161097181846126e0565b6020808252810161091781612718565b6020808252810161091781612751565b602080825281016109178161279e565b60208082528101610917816127e1565b602080825281016109178161282d565b602080825281016109178161287c565b6020810161091782846128b5565b6040810161295182856128b5565b6020810161091782846128be565b5190565b90815260200190565b600061091782612a5a565b151590565b6001600160f01b03191690565b90565b8061093081612abc565b6001600160a01b031690565b60ff1690565b600061091782612a30565b600061091782612a50565b60005b83811015612a9d578181015183820152602001612a85565b83811115612aac576000848401525b50505050565b601f01601f191690565b6003811061185757fe5b612acf81612a30565b811461185757600080fd5b612acf81612a3b565b612acf81612a4d56fe4d61726b65743a20496e73756666696369656e7420636f75706f6e2062616c616e63654d61726b65743a20496e73756666696369656e7420636f75706f6e20617070726f76616c436f6d7074726f6c6c65723a206e6f7420656e6f756768206f75747374616e64696e672064656274436f6d7074726f6c6c65723a206e6f7420656e6f7567682072656465656d61626c652062616c616e6365a365627a7a72315820e198bf537e7b1cbf23c24051c50a00ef01640aa4f71207a8d0c400aff042867b6c6578706572696d656e74616cf564736f6c63430005110040",
  "source": "/*\n    Copyright 2020 Dynamic Dollar Devs, based on the works of the Empty Set Squad\n\n    Licensed under the Apache License, Version 2.0 (the \"License\");\n    you may not use this file except in compliance with the License.\n    You may obtain a copy of the License at\n\n    http://www.apache.org/licenses/LICENSE-2.0\n\n    Unless required by applicable law or agreed to in writing, software\n    distributed under the License is distributed on an \"AS IS\" BASIS,\n    WITHOUT WARRANTIES OR CONDITIONS OF ANY KIND, either express or implied.\n    See the License for the specific language governing permissions and\n    limitations under the License.\n*/\n\npragma solidity ^0.5.17;\npragma experimental ABIEncoderV2;\n\nimport \"@openzeppelin/contracts/math/SafeMath.sol\";\nimport \"./Curve.sol\";\nimport \"./Comptroller.sol\";\nimport \"../Constants.sol\";\n\ncontract Market is Comptroller, Curve {\n    using SafeMath for uint256;\n\n    bytes32 private constant FILE = \"Market\";\n\n    event CouponExpiration(uint256 indexed epoch, uint256 couponsExpired, uint256 lessRedeemable, uint256 lessDebt, uint256 newBonded);\n    event CouponPurchase(address indexed account, uint256 indexed epoch, uint256 dollarAmount, uint256 couponAmount);\n    event CouponRedemption(address indexed account, uint256 indexed epoch, uint256 couponAmount);\n    event CouponBurn(address indexed account, uint256 indexed epoch, uint256 couponAmount);\n    event CouponTransfer(address indexed from, address indexed to, uint256 indexed epoch, uint256 value);\n    event CouponApproval(address indexed owner, address indexed spender, uint256 value);\n    event CouponBidPlaced(address indexed account, uint256 indexed epoch, uint256 dollarAmount, uint256 maxCouponAmount);\n    \n    function step() internal {\n        // Expire prior coupons\n        for (uint256 i = 0; i < expiringCoupons(epoch()); i++) {\n            expireCouponsForEpoch(expiringCouponsAtIndex(epoch(), i));\n        }\n\n        // Record expiry for current epoch's coupons\n        uint256 expirationEpoch = epoch().add(Constants.getCouponExpiration());\n        initializeCouponsExpiration(epoch(), expirationEpoch);\n    }\n\n    function expireCouponsForEpoch(uint256 epoch) private {\n        uint256 couponsForEpoch = outstandingCoupons(epoch);\n        (uint256 lessRedeemable, uint256 lessDebt, uint256 newBonded) = (0, 0, 0);\n\n        eliminateOutstandingCoupons(epoch);\n\n        uint256 totalRedeemable = totalRedeemable();\n        uint256 totalCoupons = totalCoupons();\n        if (totalRedeemable > totalCoupons) {\n            lessRedeemable = totalRedeemable.sub(totalCoupons);\n            burnRedeemable(lessRedeemable);\n            (, lessDebt, newBonded) = increaseSupply(lessRedeemable);\n        }\n\n        emit CouponExpiration(epoch, couponsForEpoch, lessRedeemable, lessDebt, newBonded);\n    }\n\n    function couponPremium(uint256 amount) public view returns (uint256) {\n        return calculateCouponPremium(dollar().totalSupply(), totalDebt(), amount);\n    }\n\n    function couponRedemptionPenalty(uint256 couponEpoch, uint256 couponAmount) public view returns (uint256) {\n        uint timeIntoEpoch = block.timestamp % Constants.getEpochStrategy().period;\n        uint couponAge = epoch() - couponEpoch;\n\n        uint couponEpochDecay = Constants.getCouponRedemptionPenaltyDecay() * (Constants.getCouponExpiration() - couponAge) / Constants.getCouponExpiration();\n\n        if(timeIntoEpoch > couponEpochDecay) {\n            return 0;\n        }\n\n        Decimal.D256 memory couponEpochInitialPenalty = Constants.getInitialCouponRedemptionPenalty().div(Decimal.D256({value: Constants.getCouponExpiration() })).mul(Decimal.D256({value: Constants.getCouponExpiration() - couponAge}));\n\n        Decimal.D256 memory couponEpochDecayedPenalty = couponEpochInitialPenalty.div(Decimal.D256({value: couponEpochDecay})).mul(Decimal.D256({value: couponEpochDecay - timeIntoEpoch}));\n\n        return Decimal.D256({value: couponAmount}).mul(couponEpochDecayedPenalty).value;\n    }\n\n    function purchaseCoupons(uint256 dollarAmount) external returns (uint256) {\n        Require.that(\n            dollarAmount > 0,\n            FILE,\n            \"Must purchase non-zero amount\"\n        );\n\n        Require.that(\n            totalDebt() >= dollarAmount,\n            FILE,\n            \"Not enough debt\"\n        );\n\n        uint256 epoch = epoch();\n        uint256 couponAmount = dollarAmount.add(couponPremium(dollarAmount));\n        burnFromAccount(msg.sender, dollarAmount);\n        incrementBalanceOfCoupons(msg.sender, epoch, couponAmount);\n\n        emit CouponPurchase(msg.sender, epoch, dollarAmount, couponAmount);\n\n        return couponAmount;\n    }\n\n    function redeemCoupons(uint256 couponEpoch, uint256 couponAmount) external {\n        require(epoch().sub(couponEpoch) >= 2, \"Market: Too early to redeem\");\n        decrementBalanceOfCoupons(msg.sender, couponEpoch, couponAmount, \"Market: Insufficient coupon balance\");\n        \n        uint burnAmount = couponRedemptionPenalty(couponEpoch, couponAmount);\n        uint256 redeemAmount = couponAmount - burnAmount;\n        \n        redeemToAccount(msg.sender, redeemAmount);\n\n        if(burnAmount > 0){\n            emit CouponBurn(msg.sender, couponEpoch, burnAmount);\n        }\n\n        emit CouponRedemption(msg.sender, couponEpoch, redeemAmount);\n    }\n\n    function redeemCoupons(uint256 couponEpoch, uint256 couponAmount, uint256 minOutput) external {\n        require(epoch().sub(couponEpoch) >= 2, \"Market: Too early to redeem\");\n        decrementBalanceOfCoupons(msg.sender, couponEpoch, couponAmount, \"Market: Insufficient coupon balance\");\n        \n        uint burnAmount = couponRedemptionPenalty(couponEpoch, couponAmount);\n        uint256 redeemAmount = couponAmount - burnAmount;\n\n        Require.that(\n            redeemAmount >= minOutput,\n            FILE,\n            \"Insufficient output amount\"\n        );\n        \n        redeemToAccount(msg.sender, redeemAmount);\n\n        if(burnAmount > 0){\n            emit CouponBurn(msg.sender, couponEpoch, burnAmount);\n        }\n\n        emit CouponRedemption(msg.sender, couponEpoch, redeemAmount);\n    }\n\n    function approveCoupons(address spender, uint256 amount) external {\n        require(spender != address(0), \"Market: Coupon approve to the zero address\");\n\n        updateAllowanceCoupons(msg.sender, spender, amount);\n\n        emit CouponApproval(msg.sender, spender, amount);\n    }\n\n    function transferCoupons(address sender, address recipient, uint256 epoch, uint256 amount) external {\n        require(sender != address(0), \"Market: Coupon transfer from the zero address\");\n        require(recipient != address(0), \"Market: Coupon transfer to the zero address\");\n\n        decrementBalanceOfCoupons(sender, epoch, amount, \"Market: Insufficient coupon balance\");\n        incrementBalanceOfCoupons(recipient, epoch, amount);\n\n        if (msg.sender != sender && allowanceCoupons(sender, msg.sender) != uint256(-1)) {\n            decrementAllowanceCoupons(sender, msg.sender, amount, \"Market: Insufficient coupon approval\");\n        }\n\n        emit CouponTransfer(sender, recipient, epoch, amount);\n    }\n\n    function placeCouponAuctionBid(uint256 couponEpochExpiry, uint256 dollarAmount, uint256 maxCouponAmount) external returns (bool) {\n        Require.that(\n            couponEpochExpiry > 0,\n            FILE,\n            \"Must have non-zero expiry\"\n        );\n        \n        Require.that(\n            dollarAmount > 0,\n            FILE,\n            \"Must bid non-zero amount\"\n        );\n        \n        Require.that(\n            maxCouponAmount > 0,\n            FILE,\n            \"Must bid on non-zero amount\"\n        );\n        \n        Require.that(\n            totalDebt() >= dollarAmount,\n            FILE,\n            \"Not enough debt\"\n        );\n\n        uint256 epoch = epoch().add(couponEpochExpiry);\n        setCouponAuctionRelYield(maxCouponAmount.div(dollarAmount));\n        setCouponAuctionRelDollarAmount(dollarAmount);\n        setCouponAuctionRelExpiry(epoch);\n        setCouponBidderState(msg.sender, epoch, dollarAmount, maxCouponAmount);\n        setCouponBidderStateIndex(getCouponAuctionBids(), msg.sender);\n        incrementCouponAuctionBids();\n        emit CouponBidPlaced(msg.sender, epoch, dollarAmount, maxCouponAmount);\n        return true;\n    }\n}\n",
  "sourcePath": "/Users/cinquemb/Documents/Startups/crypto/dollar/protocol/contracts/dao/Market.sol",
  "compiler": {
    "name": "solc",
    "version": "0.5.17+commit.d19bba13.Emscripten.clang"
  },
  "schemaVersion": "3.3.3",
  "updatedAt": "2021-01-12T11:27:05.877Z",
  "devdoc": {
    "methods": {}
  },
  "userdoc": {
    "methods": {
      "balanceOfStaged(address)": {
        "notice": "Account"
      },
      "dollar()": {
        "notice": "Global"
      },
      "epoch()": {
        "notice": "Epoch"
      },
      "name()": {
        "notice": "ERC20 Interface"
      },
      "recordedVote(address,address)": {
        "notice": "Governance"
      },
      "transfer(address,uint256)": {
        "notice": "ERC20 Interface"
      }
    }
  }
}