{
  "contractName": "Market",
  "abi": [
    {
      "anonymous": false,
      "inputs": [
        {
          "indexed": true,
          "internalType": "address",
          "name": "owner",
          "type": "address"
        },
        {
          "indexed": true,
          "internalType": "address",
          "name": "spender",
          "type": "address"
        },
        {
          "indexed": false,
          "internalType": "uint256",
          "name": "value",
          "type": "uint256"
        }
      ],
      "name": "CouponApproval",
      "type": "event"
    },
    {
      "anonymous": false,
      "inputs": [
        {
          "indexed": true,
          "internalType": "address",
          "name": "account",
          "type": "address"
        },
        {
          "indexed": true,
          "internalType": "uint256",
          "name": "epoch",
          "type": "uint256"
        },
        {
          "indexed": false,
          "internalType": "uint256",
          "name": "dollarAmount",
          "type": "uint256"
        },
        {
          "indexed": false,
          "internalType": "uint256",
          "name": "maxCouponAmount",
          "type": "uint256"
        }
      ],
      "name": "CouponBidPlaced",
      "type": "event"
    },
    {
      "anonymous": false,
      "inputs": [
        {
          "indexed": true,
          "internalType": "address",
          "name": "account",
          "type": "address"
        },
        {
          "indexed": true,
          "internalType": "uint256",
          "name": "epoch",
          "type": "uint256"
        },
        {
          "indexed": false,
          "internalType": "uint256",
          "name": "couponAmount",
          "type": "uint256"
        }
      ],
      "name": "CouponBurn",
      "type": "event"
    },
    {
      "anonymous": false,
      "inputs": [
        {
          "indexed": true,
          "internalType": "uint256",
          "name": "epoch",
          "type": "uint256"
        },
        {
          "indexed": false,
          "internalType": "uint256",
          "name": "couponsExpired",
          "type": "uint256"
        },
        {
          "indexed": false,
          "internalType": "uint256",
          "name": "lessRedeemable",
          "type": "uint256"
        },
        {
          "indexed": false,
          "internalType": "uint256",
          "name": "lessDebt",
          "type": "uint256"
        },
        {
          "indexed": false,
          "internalType": "uint256",
          "name": "newBonded",
          "type": "uint256"
        }
      ],
      "name": "CouponExpiration",
      "type": "event"
    },
    {
      "anonymous": false,
      "inputs": [
        {
          "indexed": true,
          "internalType": "address",
          "name": "account",
          "type": "address"
        },
        {
          "indexed": true,
          "internalType": "uint256",
          "name": "epoch",
          "type": "uint256"
        },
        {
          "indexed": false,
          "internalType": "uint256",
          "name": "dollarAmount",
          "type": "uint256"
        },
        {
          "indexed": false,
          "internalType": "uint256",
          "name": "couponAmount",
          "type": "uint256"
        }
      ],
      "name": "CouponPurchase",
      "type": "event"
    },
    {
      "anonymous": false,
      "inputs": [
        {
          "indexed": true,
          "internalType": "address",
          "name": "account",
          "type": "address"
        },
        {
          "indexed": true,
          "internalType": "uint256",
          "name": "epoch",
          "type": "uint256"
        },
        {
          "indexed": false,
          "internalType": "uint256",
          "name": "couponAmount",
          "type": "uint256"
        }
      ],
      "name": "CouponRedemption",
      "type": "event"
    },
    {
      "anonymous": false,
      "inputs": [
        {
          "indexed": true,
          "internalType": "address",
          "name": "from",
          "type": "address"
        },
        {
          "indexed": true,
          "internalType": "address",
          "name": "to",
          "type": "address"
        },
        {
          "indexed": true,
          "internalType": "uint256",
          "name": "epoch",
          "type": "uint256"
        },
        {
          "indexed": false,
          "internalType": "uint256",
          "name": "value",
          "type": "uint256"
        }
      ],
      "name": "CouponTransfer",
      "type": "event"
    },
    {
      "anonymous": false,
      "inputs": [
        {
          "indexed": true,
          "internalType": "address",
          "name": "from",
          "type": "address"
        },
        {
          "indexed": true,
          "internalType": "address",
          "name": "to",
          "type": "address"
        },
        {
          "indexed": false,
          "internalType": "uint256",
          "name": "value",
          "type": "uint256"
        }
      ],
      "name": "Transfer",
      "type": "event"
    },
    {
      "constant": true,
      "inputs": [
        {
          "internalType": "address",
          "name": "owner",
          "type": "address"
        },
        {
          "internalType": "address",
          "name": "spender",
          "type": "address"
        }
      ],
      "name": "allowance",
      "outputs": [
        {
          "internalType": "uint256",
          "name": "",
          "type": "uint256"
        }
      ],
      "payable": false,
      "stateMutability": "view",
      "type": "function"
    },
    {
      "constant": true,
      "inputs": [
        {
          "internalType": "address",
          "name": "owner",
          "type": "address"
        },
        {
          "internalType": "address",
          "name": "spender",
          "type": "address"
        }
      ],
      "name": "allowanceCoupons",
      "outputs": [
        {
          "internalType": "uint256",
          "name": "",
          "type": "uint256"
        }
      ],
      "payable": false,
      "stateMutability": "view",
      "type": "function"
    },
    {
      "constant": false,
      "inputs": [
        {
          "internalType": "address",
          "name": "spender",
          "type": "address"
        },
        {
          "internalType": "uint256",
          "name": "amount",
          "type": "uint256"
        }
      ],
      "name": "approve",
      "outputs": [
        {
          "internalType": "bool",
          "name": "",
          "type": "bool"
        }
      ],
      "payable": false,
      "stateMutability": "nonpayable",
      "type": "function"
    },
    {
      "constant": true,
      "inputs": [
        {
          "internalType": "address",
          "name": "candidate",
          "type": "address"
        }
      ],
      "name": "approveFor",
      "outputs": [
        {
          "internalType": "uint256",
          "name": "",
          "type": "uint256"
        }
      ],
      "payable": false,
      "stateMutability": "view",
      "type": "function"
    },
    {
      "constant": true,
      "inputs": [
        {
          "internalType": "address",
          "name": "account",
          "type": "address"
        }
      ],
      "name": "balanceOf",
      "outputs": [
        {
          "internalType": "uint256",
          "name": "",
          "type": "uint256"
        }
      ],
      "payable": false,
      "stateMutability": "view",
      "type": "function"
    },
    {
      "constant": true,
      "inputs": [
        {
          "internalType": "address",
          "name": "account",
          "type": "address"
        }
      ],
      "name": "balanceOfBonded",
      "outputs": [
        {
          "internalType": "uint256",
          "name": "",
          "type": "uint256"
        }
      ],
      "payable": false,
      "stateMutability": "view",
      "type": "function"
    },
    {
      "constant": true,
      "inputs": [
        {
          "internalType": "address",
          "name": "account",
          "type": "address"
        },
        {
          "internalType": "uint256",
          "name": "epoch",
          "type": "uint256"
        }
      ],
      "name": "balanceOfCoupons",
      "outputs": [
        {
          "internalType": "uint256",
          "name": "",
          "type": "uint256"
        }
      ],
      "payable": false,
      "stateMutability": "view",
      "type": "function"
    },
    {
      "constant": true,
      "inputs": [
        {
          "internalType": "address",
          "name": "account",
          "type": "address"
        }
      ],
      "name": "balanceOfStaged",
      "outputs": [
        {
          "internalType": "uint256",
          "name": "",
          "type": "uint256"
        }
      ],
      "payable": false,
      "stateMutability": "view",
      "type": "function"
    },
    {
      "constant": true,
      "inputs": [
        {
          "internalType": "uint256",
          "name": "epoch",
          "type": "uint256"
        }
      ],
      "name": "bootstrappingAt",
      "outputs": [
        {
          "internalType": "bool",
          "name": "",
          "type": "bool"
        }
      ],
      "payable": false,
      "stateMutability": "view",
      "type": "function"
    },
    {
      "constant": true,
      "inputs": [
        {
          "internalType": "uint256",
          "name": "epoch",
          "type": "uint256"
        }
      ],
      "name": "couponsExpiration",
      "outputs": [
        {
          "internalType": "uint256",
          "name": "",
          "type": "uint256"
        }
      ],
      "payable": false,
      "stateMutability": "view",
      "type": "function"
    },
    {
      "constant": true,
      "inputs": [],
      "name": "decimals",
      "outputs": [
        {
          "internalType": "uint8",
          "name": "",
          "type": "uint8"
        }
      ],
      "payable": false,
      "stateMutability": "view",
      "type": "function"
    },
    {
      "constant": true,
      "inputs": [],
      "name": "dollar",
      "outputs": [
        {
          "internalType": "contract IDollar",
          "name": "",
          "type": "address"
        }
      ],
      "payable": false,
      "stateMutability": "view",
      "type": "function"
    },
    {
      "constant": true,
      "inputs": [],
      "name": "epoch",
      "outputs": [
        {
          "internalType": "uint256",
          "name": "",
          "type": "uint256"
        }
      ],
      "payable": false,
      "stateMutability": "view",
      "type": "function"
    },
    {
      "constant": true,
      "inputs": [],
      "name": "epochTime",
      "outputs": [
        {
          "internalType": "uint256",
          "name": "",
          "type": "uint256"
        }
      ],
      "payable": false,
      "stateMutability": "view",
      "type": "function"
    },
    {
      "constant": true,
      "inputs": [
        {
          "internalType": "uint256",
          "name": "epoch",
          "type": "uint256"
        }
      ],
      "name": "expiringCoupons",
      "outputs": [
        {
          "internalType": "uint256",
          "name": "",
          "type": "uint256"
        }
      ],
      "payable": false,
      "stateMutability": "view",
      "type": "function"
    },
    {
      "constant": true,
      "inputs": [
        {
          "internalType": "uint256",
          "name": "epoch",
          "type": "uint256"
        },
        {
          "internalType": "uint256",
          "name": "i",
          "type": "uint256"
        }
      ],
      "name": "expiringCouponsAtIndex",
      "outputs": [
        {
          "internalType": "uint256",
          "name": "",
          "type": "uint256"
        }
      ],
      "payable": false,
      "stateMutability": "view",
      "type": "function"
    },
    {
      "constant": true,
      "inputs": [
        {
          "internalType": "address",
          "name": "account",
          "type": "address"
        }
      ],
      "name": "fluidUntil",
      "outputs": [
        {
          "internalType": "uint256",
          "name": "",
          "type": "uint256"
        }
      ],
      "payable": false,
      "stateMutability": "view",
      "type": "function"
    },
    {
      "constant": true,
      "inputs": [
        {
          "internalType": "uint256",
          "name": "epoch",
          "type": "uint256"
        }
      ],
      "name": "getAvgExpiryFilled",
      "outputs": [
        {
          "internalType": "uint256",
          "name": "",
          "type": "uint256"
        }
      ],
      "payable": false,
      "stateMutability": "view",
      "type": "function"
    },
    {
      "constant": true,
      "inputs": [
        {
          "internalType": "uint256",
          "name": "epoch",
          "type": "uint256"
        }
      ],
      "name": "getAvgYieldFilled",
      "outputs": [
        {
          "internalType": "uint256",
          "name": "",
          "type": "uint256"
        }
      ],
      "payable": false,
      "stateMutability": "view",
      "type": "function"
    },
    {
      "constant": true,
      "inputs": [
        {
          "internalType": "uint256",
          "name": "epoch",
          "type": "uint256"
        }
      ],
      "name": "getBidToCover",
      "outputs": [
        {
          "internalType": "uint256",
          "name": "",
          "type": "uint256"
        }
      ],
      "payable": false,
      "stateMutability": "view",
      "type": "function"
    },
    {
      "constant": true,
      "inputs": [
        {
          "internalType": "uint256",
          "name": "epoch",
          "type": "uint256"
        }
      ],
      "name": "getMaxExpiryFilled",
      "outputs": [
        {
          "internalType": "uint256",
          "name": "",
          "type": "uint256"
        }
      ],
      "payable": false,
      "stateMutability": "view",
      "type": "function"
    },
    {
      "constant": true,
      "inputs": [
        {
          "internalType": "uint256",
          "name": "epoch",
          "type": "uint256"
        }
      ],
      "name": "getMaxYieldFilled",
      "outputs": [
        {
          "internalType": "uint256",
          "name": "",
          "type": "uint256"
        }
      ],
      "payable": false,
      "stateMutability": "view",
      "type": "function"
    },
    {
      "constant": true,
      "inputs": [
        {
          "internalType": "uint256",
          "name": "epoch",
          "type": "uint256"
        }
      ],
      "name": "getMinExpiryFilled",
      "outputs": [
        {
          "internalType": "uint256",
          "name": "",
          "type": "uint256"
        }
      ],
      "payable": false,
      "stateMutability": "view",
      "type": "function"
    },
    {
      "constant": true,
      "inputs": [
        {
          "internalType": "uint256",
          "name": "epoch",
          "type": "uint256"
        }
      ],
      "name": "getMinYieldFilled",
      "outputs": [
        {
          "internalType": "uint256",
          "name": "",
          "type": "uint256"
        }
      ],
      "payable": false,
      "stateMutability": "view",
      "type": "function"
    },
    {
      "constant": true,
      "inputs": [
        {
          "internalType": "uint256",
          "name": "epoch",
          "type": "uint256"
        }
      ],
      "name": "getTotalFilled",
      "outputs": [
        {
          "internalType": "uint256",
          "name": "",
          "type": "uint256"
        }
      ],
      "payable": false,
      "stateMutability": "view",
      "type": "function"
    },
    {
      "constant": true,
      "inputs": [],
      "name": "implementation",
      "outputs": [
        {
          "internalType": "address",
          "name": "impl",
          "type": "address"
        }
      ],
      "payable": false,
      "stateMutability": "view",
      "type": "function"
    },
    {
      "constant": true,
      "inputs": [
        {
          "internalType": "address",
          "name": "candidate",
          "type": "address"
        }
      ],
      "name": "isInitialized",
      "outputs": [
        {
          "internalType": "bool",
          "name": "",
          "type": "bool"
        }
      ],
      "payable": false,
      "stateMutability": "view",
      "type": "function"
    },
    {
      "constant": true,
      "inputs": [
        {
          "internalType": "address",
          "name": "candidate",
          "type": "address"
        }
      ],
      "name": "isNominated",
      "outputs": [
        {
          "internalType": "bool",
          "name": "",
          "type": "bool"
        }
      ],
      "payable": false,
      "stateMutability": "view",
      "type": "function"
    },
    {
      "constant": true,
      "inputs": [
        {
          "internalType": "address",
          "name": "account",
          "type": "address"
        }
      ],
      "name": "lockedUntil",
      "outputs": [
        {
          "internalType": "uint256",
          "name": "",
          "type": "uint256"
        }
      ],
      "payable": false,
      "stateMutability": "view",
      "type": "function"
    },
    {
      "constant": true,
      "inputs": [],
      "name": "name",
      "outputs": [
        {
          "internalType": "string",
          "name": "",
          "type": "string"
        }
      ],
      "payable": false,
      "stateMutability": "view",
      "type": "function"
    },
    {
      "constant": true,
      "inputs": [],
      "name": "oracle",
      "outputs": [
        {
          "internalType": "contract IOracle",
          "name": "",
          "type": "address"
        }
      ],
      "payable": false,
      "stateMutability": "view",
      "type": "function"
    },
    {
      "constant": true,
      "inputs": [
        {
          "internalType": "uint256",
          "name": "epoch",
          "type": "uint256"
        }
      ],
      "name": "outstandingCoupons",
      "outputs": [
        {
          "internalType": "uint256",
          "name": "",
          "type": "uint256"
        }
      ],
      "payable": false,
      "stateMutability": "view",
      "type": "function"
    },
    {
      "constant": true,
      "inputs": [
        {
          "internalType": "address",
          "name": "candidate",
          "type": "address"
        }
      ],
      "name": "periodFor",
      "outputs": [
        {
          "internalType": "uint256",
          "name": "",
          "type": "uint256"
        }
      ],
      "payable": false,
      "stateMutability": "view",
      "type": "function"
    },
    {
      "constant": true,
      "inputs": [],
      "name": "pool",
      "outputs": [
        {
          "internalType": "address",
          "name": "",
          "type": "address"
        }
      ],
      "payable": false,
      "stateMutability": "view",
      "type": "function"
    },
    {
      "constant": true,
      "inputs": [
        {
          "internalType": "address",
          "name": "account",
          "type": "address"
        },
        {
          "internalType": "address",
          "name": "candidate",
          "type": "address"
        }
      ],
      "name": "recordedVote",
      "outputs": [
        {
          "internalType": "enum Candidate.Vote",
          "name": "",
          "type": "uint8"
        }
      ],
      "payable": false,
      "stateMutability": "view",
      "type": "function"
    },
    {
      "constant": true,
      "inputs": [
        {
          "internalType": "address",
          "name": "candidate",
          "type": "address"
        }
      ],
      "name": "rejectFor",
      "outputs": [
        {
          "internalType": "uint256",
          "name": "",
          "type": "uint256"
        }
      ],
      "payable": false,
      "stateMutability": "view",
      "type": "function"
    },
    {
      "constant": true,
      "inputs": [
        {
          "internalType": "address",
          "name": "candidate",
          "type": "address"
        }
      ],
      "name": "startFor",
      "outputs": [
        {
          "internalType": "uint256",
          "name": "",
          "type": "uint256"
        }
      ],
      "payable": false,
      "stateMutability": "view",
      "type": "function"
    },
    {
      "constant": true,
      "inputs": [
        {
          "internalType": "address",
          "name": "account",
          "type": "address"
        }
      ],
      "name": "statusOf",
      "outputs": [
        {
          "internalType": "enum Account.Status",
          "name": "",
          "type": "uint8"
        }
      ],
      "payable": false,
      "stateMutability": "view",
      "type": "function"
    },
    {
      "constant": true,
      "inputs": [],
      "name": "symbol",
      "outputs": [
        {
          "internalType": "string",
          "name": "",
          "type": "string"
        }
      ],
      "payable": false,
      "stateMutability": "view",
      "type": "function"
    },
    {
      "constant": true,
      "inputs": [],
      "name": "totalBonded",
      "outputs": [
        {
          "internalType": "uint256",
          "name": "",
          "type": "uint256"
        }
      ],
      "payable": false,
      "stateMutability": "view",
      "type": "function"
    },
    {
      "constant": true,
      "inputs": [
        {
          "internalType": "uint256",
          "name": "epoch",
          "type": "uint256"
        }
      ],
      "name": "totalBondedAt",
      "outputs": [
        {
          "internalType": "uint256",
          "name": "",
          "type": "uint256"
        }
      ],
      "payable": false,
      "stateMutability": "view",
      "type": "function"
    },
    {
      "constant": true,
      "inputs": [],
      "name": "totalCoupons",
      "outputs": [
        {
          "internalType": "uint256",
          "name": "",
          "type": "uint256"
        }
      ],
      "payable": false,
      "stateMutability": "view",
      "type": "function"
    },
    {
      "constant": true,
      "inputs": [],
      "name": "totalDebt",
      "outputs": [
        {
          "internalType": "uint256",
          "name": "",
          "type": "uint256"
        }
      ],
      "payable": false,
      "stateMutability": "view",
      "type": "function"
    },
    {
      "constant": true,
      "inputs": [],
      "name": "totalNet",
      "outputs": [
        {
          "internalType": "uint256",
          "name": "",
          "type": "uint256"
        }
      ],
      "payable": false,
      "stateMutability": "view",
      "type": "function"
    },
    {
      "constant": true,
      "inputs": [],
      "name": "totalRedeemable",
      "outputs": [
        {
          "internalType": "uint256",
          "name": "",
          "type": "uint256"
        }
      ],
      "payable": false,
      "stateMutability": "view",
      "type": "function"
    },
    {
      "constant": true,
      "inputs": [],
      "name": "totalStaged",
      "outputs": [
        {
          "internalType": "uint256",
          "name": "",
          "type": "uint256"
        }
      ],
      "payable": false,
      "stateMutability": "view",
      "type": "function"
    },
    {
      "constant": true,
      "inputs": [],
      "name": "totalSupply",
      "outputs": [
        {
          "internalType": "uint256",
          "name": "",
          "type": "uint256"
        }
      ],
      "payable": false,
      "stateMutability": "view",
      "type": "function"
    },
    {
      "constant": false,
      "inputs": [
        {
          "internalType": "address",
          "name": "recipient",
          "type": "address"
        },
        {
          "internalType": "uint256",
          "name": "amount",
          "type": "uint256"
        }
      ],
      "name": "transfer",
      "outputs": [
        {
          "internalType": "bool",
          "name": "",
          "type": "bool"
        }
      ],
      "payable": false,
      "stateMutability": "nonpayable",
      "type": "function"
    },
    {
      "constant": false,
      "inputs": [
        {
          "internalType": "address",
          "name": "sender",
          "type": "address"
        },
        {
          "internalType": "address",
          "name": "recipient",
          "type": "address"
        },
        {
          "internalType": "uint256",
          "name": "amount",
          "type": "uint256"
        }
      ],
      "name": "transferFrom",
      "outputs": [
        {
          "internalType": "bool",
          "name": "",
          "type": "bool"
        }
      ],
      "payable": false,
      "stateMutability": "nonpayable",
      "type": "function"
    },
    {
      "constant": true,
      "inputs": [
        {
          "internalType": "address",
          "name": "candidate",
          "type": "address"
        }
      ],
      "name": "votesFor",
      "outputs": [
        {
          "internalType": "uint256",
          "name": "",
          "type": "uint256"
        }
      ],
      "payable": false,
      "stateMutability": "view",
      "type": "function"
    },
    {
      "constant": true,
      "inputs": [
        {
          "internalType": "uint256",
          "name": "amount",
          "type": "uint256"
        }
      ],
      "name": "couponPremium",
      "outputs": [
        {
          "internalType": "uint256",
          "name": "",
          "type": "uint256"
        }
      ],
      "payable": false,
      "stateMutability": "view",
      "type": "function"
    },
    {
      "constant": true,
      "inputs": [
        {
          "internalType": "uint256",
          "name": "couponEpoch",
          "type": "uint256"
        },
        {
          "internalType": "uint256",
          "name": "couponAmount",
          "type": "uint256"
        }
      ],
      "name": "couponRedemptionPenalty",
      "outputs": [
        {
          "internalType": "uint256",
          "name": "",
          "type": "uint256"
        }
      ],
      "payable": false,
      "stateMutability": "view",
      "type": "function"
    },
    {
      "constant": false,
      "inputs": [
        {
          "internalType": "uint256",
          "name": "dollarAmount",
          "type": "uint256"
        }
      ],
      "name": "purchaseCoupons",
      "outputs": [
        {
          "internalType": "uint256",
          "name": "",
          "type": "uint256"
        }
      ],
      "payable": false,
      "stateMutability": "nonpayable",
      "type": "function"
    },
    {
      "constant": false,
      "inputs": [
        {
          "internalType": "uint256",
          "name": "couponEpoch",
          "type": "uint256"
        },
        {
          "internalType": "uint256",
          "name": "couponAmount",
          "type": "uint256"
        },
        {
          "internalType": "uint256",
          "name": "minOutput",
          "type": "uint256"
        }
      ],
      "name": "redeemCoupons",
      "outputs": [],
      "payable": false,
      "stateMutability": "nonpayable",
      "type": "function"
    },
    {
      "constant": false,
      "inputs": [
        {
          "internalType": "uint256",
          "name": "couponEpoch",
          "type": "uint256"
        },
        {
          "internalType": "uint256",
          "name": "couponAmount",
          "type": "uint256"
        }
      ],
      "name": "redeemCoupons",
      "outputs": [],
      "payable": false,
      "stateMutability": "nonpayable",
      "type": "function"
    },
    {
      "constant": false,
      "inputs": [
        {
          "internalType": "address",
          "name": "spender",
          "type": "address"
        },
        {
          "internalType": "uint256",
          "name": "amount",
          "type": "uint256"
        }
      ],
      "name": "approveCoupons",
      "outputs": [],
      "payable": false,
      "stateMutability": "nonpayable",
      "type": "function"
    },
    {
      "constant": false,
      "inputs": [
        {
          "internalType": "address",
          "name": "sender",
          "type": "address"
        },
        {
          "internalType": "address",
          "name": "recipient",
          "type": "address"
        },
        {
          "internalType": "uint256",
          "name": "epoch",
          "type": "uint256"
        },
        {
          "internalType": "uint256",
          "name": "amount",
          "type": "uint256"
        }
      ],
      "name": "transferCoupons",
      "outputs": [],
      "payable": false,
      "stateMutability": "nonpayable",
      "type": "function"
    },
    {
      "constant": false,
      "inputs": [
        {
          "internalType": "uint256",
          "name": "couponEpochExpiry",
          "type": "uint256"
        },
        {
          "internalType": "uint256",
          "name": "dollarAmount",
          "type": "uint256"
        },
        {
          "internalType": "uint256",
          "name": "maxCouponAmount",
          "type": "uint256"
        }
      ],
      "name": "placeCouponAuctionBid",
      "outputs": [
        {
          "internalType": "bool",
          "name": "",
          "type": "bool"
        }
      ],
      "payable": false,
      "stateMutability": "nonpayable",
      "type": "function"
    }
  ],
  "bytecode": "0x608060405234801561001057600080fd5b50612b62806100206000396000f3fe608060405234801561001057600080fd5b506004361061038d5760003560e01c80637dc0d1d0116101de578063bc7513e21161010f578063d6a9cf08116100ad578063eeaca09b1161007c578063eeaca09b1461073d578063f1b7cf4914610750578063fc7b9c1814610763578063ffbe3b731461076b5761038d565b8063d6a9cf08146106f6578063d8f5413814610709578063dd62ed3e1461071c578063e5f55c7e1461072a5761038d565b8063cb0fbc71116100e9578063cb0fbc71146106b5578063cf023779146106c8578063d53c6f5f146106d0578063d60b347f146106e35761038d565b8063bc7513e21461067c578063c34eee651461068f578063c9aff70c146106a25761038d565b80639bc289f11161017c578063a50cd8e711610156578063a50cd8e71461064e578063a6c409f114610661578063a9059cbb146103c5578063bc0b1df6146106695761038d565b80639bc289f1146106155780639f6e1b2614610628578063a1eb31e81461063b5761038d565b8063900cf0cf116101b8578063900cf0cf146105ea57806395d89b41146105f257806397a5d5b5146105fa5780639a649edc1461060d5761038d565b80637dc0d1d0146105bc578063825ad607146105c457806386cf9f14146105d75761038d565b80633a3e6c81116102c357806351bf21d8116102615780636a39e328116102305780636a39e3281461057057806370a082311461058357806375d5024b146105965780637d8bb869146105a95761038d565b806351bf21d81461052f578063520acb76146105425780635c60da1b14610555578063646680221461055d5761038d565b806344d96e951161029d57806344d96e95146104f75780634c736099146104ff5780635053e4611461051257806351adeb571461051a5761038d565b80633a3e6c81146104b15780633dc905c7146104c45780633fbba9a6146104d75761038d565b80631edbcf6c116103305780632d7f23b31161030a5780632d7f23b3146104635780632f7f889e14610476578063313ce56714610489578063353a420c1461049e5761038d565b80631edbcf6c1461043557806323b872dd1461043d57806324772c04146104505761038d565b806310e95b6c1161036c57806310e95b6c146103e557806315e14bf61461040557806316f0115b1461041857806318160ddd1461042d5761038d565b80625edd371461039257806306fdde03146103a7578063095ea7b3146103c5575b600080fd5b6103a56103a03660046124c8565b61077e565b005b6103af6108a1565b6040516103bc9190612922565b60405180910390f35b6103d86103d3366004612529565b6108d8565b6040516103bc91906128f8565b6103f86103f3366004612577565b6108e1565b6040516103bc9190612993565b6103f8610413366004612423565b6108f9565b610420610917565b6040516103bc91906128a7565b6103f8610926565b6103f861092c565b6103d861044b36600461247b565b610932565b6103d861045e3660046125d2565b61093c565b6103f8610471366004612577565b610acd565b6103a5610484366004612529565b610ae2565b610491610b62565b6040516103bc91906129af565b6103f86104ac366004612423565b610b67565b6103d86104bf366004612423565b610b85565b6103f86104d2366004612577565b610ba2565b6104ea6104e5366004612441565b610bb7565b6040516103bc9190612914565b6103f8610bea565b6103f861050d3660046125b3565b610bf0565b6103f8610c20565b610522610c43565b6040516103bc9190612906565b6103f861053d366004612423565b610c52565b6103f8610550366004612577565b610c70565b610420610c85565b6103f861056b366004612423565b610caa565b6103f861057e366004612577565b610cc8565b6103f8610591366004612423565b610cdd565b6103d86105a4366004612577565b610cfb565b6103f86105b7366004612577565b610d0e565b610522610d23565b6103f86105d2366004612423565b610d32565b6103f86105e5366004612423565b610d7e565b6103f8610d99565b6103af610d9f565b6104ea610608366004612423565b610dbd565b6103f8610e22565b6103f8610623366004612423565b610e28565b6103f8610636366004612441565b610e46565b6103f86106493660046125b3565b610e75565b6103f861065c366004612423565b610f9b565b6103f8610fb2565b6103a56106773660046125d2565b611048565b6103f861068a366004612529565b61117c565b6103f861069d366004612577565b6111c0565b6103f86106b0366004612577565b6111d5565b6103f86106c3366004612577565b6111ea565b6103f86111ff565b6103f86106de366004612577565b611205565b6103d86106f1366004612423565b61121b565b6103a56107043660046125b3565b61123c565b6103f8610717366004612577565b611338565b6103f86103d3366004612441565b6103f8610738366004612577565b6113c3565b6103f861074b366004612577565b611491565b6103f861075e366004612423565b6114a6565b6103f86114c1565b6103f8610779366004612577565b6114c7565b6001600160a01b0384166107ad5760405162461bcd60e51b81526004016107a490612973565b60405180910390fd5b6001600160a01b0383166107d35760405162461bcd60e51b81526004016107a490612943565b6107f7848383604051806060016040528060238152602001612a87602391396114d9565b610802838383611584565b336001600160a01b0385161480159061082657506000196108238533610e46565b14155b1561084f5761084f843383604051806060016040528060248152602001612aaa6024913961162b565b81836001600160a01b0316856001600160a01b03167f0f1dbb1ccbe57a1590c7baad7b01d581b730c9ebc535dcde4345e6db424063d8846040516108939190612993565b60405180910390a450505050565b60408051808201909152601881527f44796e616d69632053657420446f6c6c6172205374616b650000000000000000602082015290565b60005b92915050565b6000818152600d60205260409020600201545b919050565b6001600160a01b03166000908152600e602052604090206001015490565b600b546001600160a01b031690565b60035490565b60065490565b60005b9392505050565b6000610975600085116513585c9ad95d60d21b7f4d7573742068617665206e6f6e2d7a65726f206578706972790000000000000061169c565b6109ac600084116513585c9ad95d60d21b7f4d75737420626964206e6f6e2d7a65726f20616d6f756e74000000000000000061169c565b6109e3600083116513585c9ad95d60d21b7f4d75737420626964206f6e206e6f6e2d7a65726f20616d6f756e74000000000061169c565b610a13836109ef6114c1565b10156513585c9ad95d60d21b6e139bdd08195b9bdd59da081919589d608a1b61169c565b6000610a2d85610a21610d99565b9063ffffffff6116f616565b9050610a47610a42848663ffffffff61171b16565b61175d565b610a50846117f4565b610a598161188a565b610a6533828686611920565b610a76610a7061198e565b336119b5565b610a7e611a0f565b80336001600160a01b03167f9f5acf79fa92396b7f3cb679d46ed617794dc8709703e9111f109216820301028686604051610aba9291906129a1565b60405180910390a3506001949350505050565b6000908152600d60205260409020600a015490565b6001600160a01b038216610b085760405162461bcd60e51b81526004016107a490612963565b610b13338383611a37565b816001600160a01b0316336001600160a01b03167f8ff27e6b95060c1ca851e7c2c28af8b413eb1a8bcb637b0290da9543a709cce383604051610b569190612993565b60405180910390a35050565b601290565b6001600160a01b03166000908152600e602052604090206003015490565b6001600160a01b03166000908152600e6020526040902054151590565b6000908152600d60205260409020600c015490565b6001600160a01b038082166000908152600e60209081526040808320938616835260049093019052205460ff1692915050565b60045490565b6000828152600d60205260408120600301805483908110610c0d57fe5b9060005260206000200154905092915050565b6000610c2a6123c3565b610c32611a67565b9050610c3d81611a96565b91505090565b6009546001600160a01b031690565b6001600160a01b03166000908152600c602052604090206004015490565b6000908152600d60205260409020600e015490565b7f360894a13ba1a3210667c828492db98dca3e2076cc3735a920a3ca505d382bbc5490565b6001600160a01b03166000908152600e602052604090206002015490565b6000908152600d602052604090206003015490565b6001600160a01b03166000908152600c602052604090206001015490565b6000610d05611ab8565b90911115919050565b6000908152600d602052604090206010015490565b600a546001600160a01b031690565b600080610d3d610926565b905080610d4e5760009150506108f4565b61093581610d72610d5e86610cdd565b610d66610bea565b9063ffffffff611abd16565b9063ffffffff61171b16565b6001600160a01b03166000908152600c602052604090205490565b60025490565b6040805180820190915260048152634453445360e01b602082015290565b6000610dc7610d99565b6001600160a01b0383166000908152600c60205260409020600501541115610df1575060026108f4565b6001600160a01b0382166000908152600c6020526040902060040154610e15610d99565b10156108d85760016108db565b60085490565b6001600160a01b03166000908152600c602052604090206005015490565b6001600160a01b039182166000908152600c602090815260408083209390941682526003909201909152205490565b600080610e80611a67565b604001514281610e8c57fe5b069050600084610e9a610d99565b0390506000610ea7611af7565b82610eb0611af7565b03610eb9611afd565b0281610ec157fe5b04905080831115610ed857600093505050506108db565b610ee06123e4565b610f33604051806020016040528085610ef7611af7565b03815250610f276040518060200160405280610f11611af7565b9052610f1b611b03565b9063ffffffff611b2516565b9063ffffffff611b5c16565b9050610f3d6123e4565b604080516020808201835287860382528251908101909252848252610f6d91610f2790859063ffffffff611b2516565b6040805160208101909152888152909150610f8e908263ffffffff611b5c16565b5198975050505050505050565b60006108db610fa983610b67565b610a2184610caa565b6000611043610fbf6114c1565b610fc7610c43565b6001600160a01b03166318160ddd6040518163ffffffff1660e01b815260040160206040518083038186803b158015610fff57600080fd5b505afa158015611013573d6000803e3d6000fd5b505050506040513d601f19601f820116820180604052506110379190810190612595565b9063ffffffff611b8a16565b905090565b600261105684611037610d99565b10156110745760405162461bcd60e51b81526004016107a490612983565b611098338484604051806060016040528060238152602001612a87602391396114d9565b60006110a48484610e75565b90508083036110e0838210156513585c9ad95d60d21b7f496e73756666696369656e74206f757470757420616d6f756e7400000000000061169c565b6110ea3382611bcc565b81156111335784336001600160a01b03167f1cd1213d4276c260e84170b4a39025dc8398fbf744edee0709261769b456b94b8460405161112a9190612993565b60405180910390a35b84336001600160a01b03167f46e9903ae8ac9e9f0c9bc321b05965c1c036e7d4783758703f5cdfc4133c51b68360405161116d9190612993565b60405180910390a35050505050565b6000611187826111d5565b611193575060006108db565b506001600160a01b03919091166000908152600c6020908152604080832093835260029093019052205490565b6000908152600d60205260409020600f015490565b6000908152600d602052604090206001015490565b6000908152600d602052604090206011015490565b60055490565b6000908152600d60208190526040909120015490565b6001600160a01b03166000908152600e602052604090206005015460ff1690565b600261124a83611037610d99565b10156112685760405162461bcd60e51b81526004016107a490612983565b61128c338383604051806060016040528060238152602001612a87602391396114d9565b60006112988383610e75565b90508082036112a73382611bcc565b81156112f05783336001600160a01b03167f1cd1213d4276c260e84170b4a39025dc8398fbf744edee0709261769b456b94b846040516112e79190612993565b60405180910390a35b83336001600160a01b03167f46e9903ae8ac9e9f0c9bc321b05965c1c036e7d4783758703f5cdfc4133c51b68360405161132a9190612993565b60405180910390a350505050565b60006108db611345610c43565b6001600160a01b03166318160ddd6040518163ffffffff1660e01b815260040160206040518083038186803b15801561137d57600080fd5b505afa158015611391573d6000803e3d6000fd5b505050506040513d601f19601f820116820180604052506113b59190810190612595565b6113bd6114c1565b84611c82565b60006113fc600083116513585c9ad95d60d21b7f4d757374207075726368617365206e6f6e2d7a65726f20616d6f756e7400000061169c565b611408826109ef6114c1565b6000611412610d99565b9050600061142f61142285611338565b859063ffffffff6116f616565b905061143b3385611caf565b611446338383611584565b81336001600160a01b03167fbce252db29f761f815dc2e9ea60005af065efba6eb619d2a0b2a113fdeb6141486846040516114829291906129a1565b60405180910390a39392505050565b6000908152600d60205260409020600b015490565b6001600160a01b03166000908152600e602052604090205490565b60075490565b6000908152600d602052604090205490565b6001600160a01b0384166000908152600c6020908152604080832086845260020190915290205461151190838363ffffffff611dc016565b6001600160a01b0385166000908152600c60209081526040808320878452600201825280832093909355600d9052206001015461155590838363ffffffff611dc016565b6000848152600d602052604090206001015560085461157b90838363ffffffff611dc016565b60085550505050565b6001600160a01b0383166000908152600c602090815260408083208584526002019091529020546115bb908263ffffffff6116f616565b6001600160a01b0384166000908152600c60209081526040808320868452600201825280832093909355600d905220600101546115fe908263ffffffff6116f616565b6000838152600d6020526040902060010155600854611623908263ffffffff6116f616565b600855505050565b6001600160a01b038085166000908152600c60209081526040808320938716835260039093019052205461166690838363ffffffff611dc016565b6001600160a01b039485166000908152600c60209081526040808320969097168252600390950190945293909220929092555050565b826116f1576116aa82611dec565b6101d160f51b6116b983611dec565b6040516020016116cb93929190612876565b60408051601f198184030181529082905262461bcd60e51b82526107a491600401612922565b505050565b6000828201838110156109355760405162461bcd60e51b81526004016107a490612933565b600061093583836040518060400160405280601a81526020017f536166654d6174683a206469766973696f6e206279207a65726f000000000000815250611e6c565b600d6000611769610d99565b8152602001908152602001600020600401600401548111156117a75780600d6000611792610d99565b81526020810191909152604001600020600801555b80600d60006117b4610d99565b81526020019081526020016000206004016003015411156117f15780600d60006117dc610d99565b81526020810191909152604001600020600701555b50565b600d6000611800610d99565b8152602001908152602001600020600401600f015481111561183e5780600d6000611829610d99565b81526020810191909152604001600020601301555b600d600061184a610d99565b8152602001908152602001600020600401600e01548110156117f15780600d6000611873610d99565b815260208101919091526040016000206012015550565b600d6000611896610d99565b8152602001908152602001600020600401600201548111156118d45780600d60006118bf610d99565b81526020810191909152604001600020600601555b600d60006118e0610d99565b8152602001908152602001600020600401600101548110156117f15780600d6000611909610d99565b815260208101919091526040016000206005015550565b6000600d8161192d610d99565b8152602080820192909252604090810160009081206001600160a01b03989098168082526016909801909252902060048101949094555060018301919091556002820155805462010000600160b01b03191662010000909202919091179055565b6000600d8161199b610d99565b815260200190815260200160002060040160050154905090565b80600d60006119c2610d99565b8152602001908152602001600020600401601101600084815260200190815260200160002060006101000a8154816001600160a01b0302191690836001600160a01b031602179055505050565b600d6000611a1b610d99565b8152602081019190915260400160002060090180546001019055565b6001600160a01b039283166000908152600c60209081526040808320949095168252600390930190925291902055565b611a6f6123c3565b604051806060016040528060008152602001635fbef0008152602001611c20815250905090565b60006108db8260000151610a218460400151610d728660200151611037611ea3565b609690565b600082611acc575060006108db565b82820282848281611ad957fe5b04146109355760405162461bcd60e51b81526004016107a490612953565b61016890565b610e1090565b611b0b6123e4565b5060408051602081019091526706f05b59d3b20000815290565b611b2d6123e4565b6040518060200160405280611b538560000151670de0b6b3a76400008660000151611ea7565b90529392505050565b611b646123e4565b6040518060200160405280611b5385600001518560000151670de0b6b3a7640000611ea7565b600061093583836040518060400160405280601e81526020017f536166654d6174683a207375627472616374696f6e206f766572666c6f770000815250611dc0565b611bd4610c43565b6001600160a01b031663a9059cbb83836040518363ffffffff1660e01b8152600401611c019291906128dd565b602060405180830381600087803b158015611c1b57600080fd5b505af1158015611c2f573d6000803e3d6000fd5b505050506040513d601f19601f82011682018060405250611c539190810190612559565b50611c76816040518060600160405280602a8152602001612af6602a9139611ebd565b611c7e611ed8565b5050565b6000611ca7611ca283611c96878787611fad565b9063ffffffff61211a16565b612141565b949350505050565b611cb7610c43565b6001600160a01b03166323b872dd8330846040518463ffffffff1660e01b8152600401611ce6939291906128b5565b602060405180830381600087803b158015611d0057600080fd5b505af1158015611d14573d6000803e3d6000fd5b505050506040513d601f19601f82011682018060405250611d389190810190612559565b50611d41610c43565b6001600160a01b03166342966c68826040518263ffffffff1660e01b8152600401611d6c9190612993565b600060405180830381600087803b158015611d8657600080fd5b505af1158015611d9a573d6000803e3d6000fd5b50505050611c7681604051806060016040528060288152602001612ace6028913961215e565b60008184841115611de45760405162461bcd60e51b81526004016107a49190612922565b505050900390565b60608082604051602001611e009190612861565b60408051601f19818403018152919052905060205b8015611e5557815160001990910190829082908110611e3057fe5b01602001516001600160f81b03191615611e5057600101815290506108f4565b611e15565b505060408051600081526020810190915292915050565b60008183611e8d5760405162461bcd60e51b81526004016107a49190612922565b506000838581611e9957fe5b0495945050505050565b4290565b6000611ca782610d72868663ffffffff611abd16565b600654611ed190838363ffffffff611dc016565b6006555050565b611fab611ef9611ee661092c565b610a21611ef16111ff565b610a21610bea565b611f01610c43565b6001600160a01b03166370a08231306040518263ffffffff1660e01b8152600401611f2c91906128a7565b60206040518083038186803b158015611f4457600080fd5b505afa158015611f58573d6000803e3d6000fd5b505050506040513d601f19601f82011682018060405250611f7c9190810190612595565b10156a21b7b6b83a3937b63632b960a91b74496e636f6e73697374656e742062616c616e63657360581b61169c565b565b611fb56123e4565b611fbd6123e4565b611fc78486612179565b9050611fd16123e4565b611fd961219f565b90506000611fed878663ffffffff611b8a16565b90506000612001878763ffffffff611b8a16565b905061200b6123e4565b6120158284612179565b9050612027858563ffffffff6121c116565b156121035761203c818563ffffffff6121c116565b156120565761204a846121d7565b95505050505050610935565b61205e6123e4565b612068828661222f565b90506120726123e4565b612082868463ffffffff61228c16565b905061208c6123e4565b612095876121d7565b905061209f6123e4565b6120af898963ffffffff61228c16565b90506120f36120c4848363ffffffff6122b516565b610f1b6120d7858563ffffffff611b5c16565b6120e7888863ffffffff611b5c16565b9063ffffffff6122b516565b9950505050505050505050610935565b61210d818661222f565b9998505050505050505050565b6121226123e4565b604080516020810190915283518190611b53908563ffffffff611abd16565b80516000906108db90670de0b6b3a764000063ffffffff61171b16565b60075461217290838363ffffffff611dc016565b6007555050565b6121816123e4565b6040518060200160405280611b5385670de0b6b3a764000086611ea7565b6121a76123e4565b5060408051602081019091526704db732547630000815290565b60006121cd83836122de565b6002149392505050565b6121df6123e4565b6108db6121ee60016003612179565b61220561222761221d600261221188612205612310565b9063ffffffff61228c16565b9063ffffffff61233216565b610f276003612388565b610f1b612310565b6122376123e4565b612247838363ffffffff6123bc16565b1561225c57612255836121d7565b90506108db565b61093561226b60016003612179565b61220561222761227d87612205612310565b610f2761221d88612205612310565b6122946123e4565b6040805160208101909152825184518291611b53919063ffffffff611b8a16565b6122bd6123e4565b6040805160208101909152825184518291611b53919063ffffffff6116f616565b8051825160009114156122f3575060016108db565b8151835111612303576000612306565b60025b60ff169392505050565b6123186123e4565b506040805160208101909152670de0b6b3a7640000815290565b61233a6123e4565b81612349576122556001612388565b6123516123e4565b5060408051602081019091528351815260015b83811015612380576123768286611b5c565b9150600101612364565b509392505050565b6123906123e4565b6040805160208101909152806123b484670de0b6b3a764000063ffffffff611abd16565b905292915050565b5190511490565b60405180606001604052806000815260200160008152602001600081525090565b6040518060200160405280600081525090565b80356108db81612a60565b80516108db81612a74565b80356108db81612a7d565b80516108db81612a7d565b60006020828403121561243557600080fd5b6000611ca784846123f7565b6000806040838503121561245457600080fd5b600061246085856123f7565b9250506020612471858286016123f7565b9150509250929050565b60008060006060848603121561249057600080fd5b600061249c86866123f7565b93505060206124ad868287016123f7565b92505060406124be8682870161240d565b9150509250925092565b600080600080608085870312156124de57600080fd5b60006124ea87876123f7565b94505060206124fb878288016123f7565b935050604061250c8782880161240d565b925050606061251d8782880161240d565b91505092959194509250565b6000806040838503121561253c57600080fd5b600061254885856123f7565b92505060206124718582860161240d565b60006020828403121561256b57600080fd5b6000611ca78484612402565b60006020828403121561258957600080fd5b6000611ca7848461240d565b6000602082840312156125a757600080fd5b6000611ca78484612418565b600080604083850312156125c657600080fd5b6000612548858561240d565b6000806000606084860312156125e757600080fd5b60006125f3868661240d565b93505060206124ad8682870161240d565b61260d816129ca565b82525050565b61260d816129d5565b61260d612628826129da565b6129e7565b61260d612628826129e7565b6000612644826129bd565b61264e81856108f4565b935061265e818560208601612a1c565b9290920192915050565b61260d81612a06565b61260d81612a11565b6000612685826129bd565b61268f81856129c1565b935061269f818560208601612a1c565b6126a881612a4c565b9093019392505050565b60006126bf601b836129c1565b7f536166654d6174683a206164646974696f6e206f766572666c6f770000000000815260200192915050565b60006126f8602b836129c1565b7f4d61726b65743a20436f75706f6e207472616e7366657220746f20746865207a81526a65726f206164647265737360a81b602082015260400192915050565b60006127456021836129c1565b7f536166654d6174683a206d756c7469706c69636174696f6e206f766572666c6f8152607760f81b602082015260400192915050565b6000612788602a836129c1565b7f4d61726b65743a20436f75706f6e20617070726f766520746f20746865207a65815269726f206164647265737360b01b602082015260400192915050565b60006127d4602d836129c1565b7f4d61726b65743a20436f75706f6e207472616e736665722066726f6d2074686581526c207a65726f206164647265737360981b602082015260400192915050565b6000612823601b836129c1565b7f4d61726b65743a20546f6f206561726c7920746f2072656465656d0000000000815260200192915050565b61260d816129e7565b61260d81612a00565b600061286d828461262d565b50602001919050565b60006128828286612639565b915061288e828561261c565b60028201915061289e8284612639565b95945050505050565b602081016108db8284612604565b606081016128c38286612604565b6128d06020830185612604565b611ca7604083018461284f565b604081016128eb8285612604565b610935602083018461284f565b602081016108db8284612613565b602081016108db8284612668565b602081016108db8284612671565b60208082528101610935818461267a565b602080825281016108db816126b2565b602080825281016108db816126eb565b602080825281016108db81612738565b602080825281016108db8161277b565b602080825281016108db816127c7565b602080825281016108db81612816565b602081016108db828461284f565b604081016128eb828561284f565b602081016108db8284612858565b5190565b90815260200190565b60006108db826129f4565b151590565b6001600160f01b03191690565b90565b806108f481612a56565b6001600160a01b031690565b60ff1690565b60006108db826129ca565b60006108db826129ea565b60005b83811015612a37578181015183820152602001612a1f565b83811115612a46576000848401525b50505050565b601f01601f191690565b600381106117f157fe5b612a69816129ca565b81146117f157600080fd5b612a69816129d5565b612a69816129e756fe4d61726b65743a20496e73756666696369656e7420636f75706f6e2062616c616e63654d61726b65743a20496e73756666696369656e7420636f75706f6e20617070726f76616c436f6d7074726f6c6c65723a206e6f7420656e6f756768206f75747374616e64696e672064656274436f6d7074726f6c6c65723a206e6f7420656e6f7567682072656465656d61626c652062616c616e6365a365627a7a723158205ba09db360230e6f6ccad7fb3c5434bc75c1ded3dc4ec20439be00be448d64936c6578706572696d656e74616cf564736f6c63430005110040",
  "source": "/*\n    Copyright 2020 Dynamic Dollar Devs, based on the works of the Empty Set Squad\n\n    Licensed under the Apache License, Version 2.0 (the \"License\");\n    you may not use this file except in compliance with the License.\n    You may obtain a copy of the License at\n\n    http://www.apache.org/licenses/LICENSE-2.0\n\n    Unless required by applicable law or agreed to in writing, software\n    distributed under the License is distributed on an \"AS IS\" BASIS,\n    WITHOUT WARRANTIES OR CONDITIONS OF ANY KIND, either express or implied.\n    See the License for the specific language governing permissions and\n    limitations under the License.\n*/\n\npragma solidity ^0.5.17;\npragma experimental ABIEncoderV2;\n\nimport \"@openzeppelin/contracts/math/SafeMath.sol\";\nimport \"./Curve.sol\";\nimport \"./Comptroller.sol\";\nimport \"../Constants.sol\";\n\ncontract Market is Comptroller, Curve {\n    using SafeMath for uint256;\n\n    bytes32 private constant FILE = \"Market\";\n\n    event CouponExpiration(uint256 indexed epoch, uint256 couponsExpired, uint256 lessRedeemable, uint256 lessDebt, uint256 newBonded);\n    event CouponPurchase(address indexed account, uint256 indexed epoch, uint256 dollarAmount, uint256 couponAmount);\n    event CouponRedemption(address indexed account, uint256 indexed epoch, uint256 couponAmount);\n    event CouponBurn(address indexed account, uint256 indexed epoch, uint256 couponAmount);\n    event CouponTransfer(address indexed from, address indexed to, uint256 indexed epoch, uint256 value);\n    event CouponApproval(address indexed owner, address indexed spender, uint256 value);\n    event CouponBidPlaced(address indexed account, uint256 indexed epoch, uint256 dollarAmount, uint256 maxCouponAmount);\n    \n    function step() internal {\n        // Expire prior coupons\n        for (uint256 i = 0; i < expiringCoupons(epoch()); i++) {\n            expireCouponsForEpoch(expiringCouponsAtIndex(epoch(), i));\n        }\n\n        // Record expiry for current epoch's coupons\n        uint256 expirationEpoch = epoch().add(Constants.getCouponExpiration());\n        initializeCouponsExpiration(epoch(), expirationEpoch);\n    }\n\n    function expireCouponsForEpoch(uint256 epoch) private {\n        uint256 couponsForEpoch = outstandingCoupons(epoch);\n        (uint256 lessRedeemable, uint256 lessDebt, uint256 newBonded) = (0, 0, 0);\n\n        eliminateOutstandingCoupons(epoch);\n\n        uint256 totalRedeemable = totalRedeemable();\n        uint256 totalCoupons = totalCoupons();\n        if (totalRedeemable > totalCoupons) {\n            lessRedeemable = totalRedeemable.sub(totalCoupons);\n            burnRedeemable(lessRedeemable);\n            (, lessDebt, newBonded) = increaseSupply(lessRedeemable);\n        }\n\n        emit CouponExpiration(epoch, couponsForEpoch, lessRedeemable, lessDebt, newBonded);\n    }\n\n    function couponPremium(uint256 amount) public view returns (uint256) {\n        return calculateCouponPremium(dollar().totalSupply(), totalDebt(), amount);\n    }\n\n    function couponRedemptionPenalty(uint256 couponEpoch, uint256 couponAmount) public view returns (uint256) {\n        uint timeIntoEpoch = block.timestamp % Constants.getEpochStrategy().period;\n        uint couponAge = epoch() - couponEpoch;\n\n        uint couponEpochDecay = Constants.getCouponRedemptionPenaltyDecay() * (Constants.getCouponExpiration() - couponAge) / Constants.getCouponExpiration();\n\n        if(timeIntoEpoch > couponEpochDecay) {\n            return 0;\n        }\n\n        Decimal.D256 memory couponEpochInitialPenalty = Constants.getInitialCouponRedemptionPenalty().div(Decimal.D256({value: Constants.getCouponExpiration() })).mul(Decimal.D256({value: Constants.getCouponExpiration() - couponAge}));\n\n        Decimal.D256 memory couponEpochDecayedPenalty = couponEpochInitialPenalty.div(Decimal.D256({value: couponEpochDecay})).mul(Decimal.D256({value: couponEpochDecay - timeIntoEpoch}));\n\n        return Decimal.D256({value: couponAmount}).mul(couponEpochDecayedPenalty).value;\n    }\n\n    function purchaseCoupons(uint256 dollarAmount) external returns (uint256) {\n        Require.that(\n            dollarAmount > 0,\n            FILE,\n            \"Must purchase non-zero amount\"\n        );\n\n        Require.that(\n            totalDebt() >= dollarAmount,\n            FILE,\n            \"Not enough debt\"\n        );\n\n        uint256 epoch = epoch();\n        uint256 couponAmount = dollarAmount.add(couponPremium(dollarAmount));\n        burnFromAccount(msg.sender, dollarAmount);\n        incrementBalanceOfCoupons(msg.sender, epoch, couponAmount);\n\n        emit CouponPurchase(msg.sender, epoch, dollarAmount, couponAmount);\n\n        return couponAmount;\n    }\n\n    function redeemCoupons(uint256 couponEpoch, uint256 couponAmount) external {\n        require(epoch().sub(couponEpoch) >= 2, \"Market: Too early to redeem\");\n        decrementBalanceOfCoupons(msg.sender, couponEpoch, couponAmount, \"Market: Insufficient coupon balance\");\n        \n        uint burnAmount = couponRedemptionPenalty(couponEpoch, couponAmount);\n        uint256 redeemAmount = couponAmount - burnAmount;\n        \n        redeemToAccount(msg.sender, redeemAmount);\n\n        if(burnAmount > 0){\n            emit CouponBurn(msg.sender, couponEpoch, burnAmount);\n        }\n\n        emit CouponRedemption(msg.sender, couponEpoch, redeemAmount);\n    }\n\n    function redeemCoupons(uint256 couponEpoch, uint256 couponAmount, uint256 minOutput) external {\n        require(epoch().sub(couponEpoch) >= 2, \"Market: Too early to redeem\");\n        decrementBalanceOfCoupons(msg.sender, couponEpoch, couponAmount, \"Market: Insufficient coupon balance\");\n        \n        uint burnAmount = couponRedemptionPenalty(couponEpoch, couponAmount);\n        uint256 redeemAmount = couponAmount - burnAmount;\n\n        Require.that(\n            redeemAmount >= minOutput,\n            FILE,\n            \"Insufficient output amount\"\n        );\n        \n        redeemToAccount(msg.sender, redeemAmount);\n\n        if(burnAmount > 0){\n            emit CouponBurn(msg.sender, couponEpoch, burnAmount);\n        }\n\n        emit CouponRedemption(msg.sender, couponEpoch, redeemAmount);\n    }\n\n    function approveCoupons(address spender, uint256 amount) external {\n        require(spender != address(0), \"Market: Coupon approve to the zero address\");\n\n        updateAllowanceCoupons(msg.sender, spender, amount);\n\n        emit CouponApproval(msg.sender, spender, amount);\n    }\n\n    function transferCoupons(address sender, address recipient, uint256 epoch, uint256 amount) external {\n        require(sender != address(0), \"Market: Coupon transfer from the zero address\");\n        require(recipient != address(0), \"Market: Coupon transfer to the zero address\");\n\n        decrementBalanceOfCoupons(sender, epoch, amount, \"Market: Insufficient coupon balance\");\n        incrementBalanceOfCoupons(recipient, epoch, amount);\n\n        if (msg.sender != sender && allowanceCoupons(sender, msg.sender) != uint256(-1)) {\n            decrementAllowanceCoupons(sender, msg.sender, amount, \"Market: Insufficient coupon approval\");\n        }\n\n        emit CouponTransfer(sender, recipient, epoch, amount);\n    }\n\n    function placeCouponAuctionBid(uint256 couponEpochExpiry, uint256 dollarAmount, uint256 maxCouponAmount) external returns (bool) {\n        Require.that(\n            couponEpochExpiry > 0,\n            FILE,\n            \"Must have non-zero expiry\"\n        );\n        \n        Require.that(\n            dollarAmount > 0,\n            FILE,\n            \"Must bid non-zero amount\"\n        );\n        \n        Require.that(\n            maxCouponAmount > 0,\n            FILE,\n            \"Must bid on non-zero amount\"\n        );\n        \n        Require.that(\n            totalDebt() >= dollarAmount,\n            FILE,\n            \"Not enough debt\"\n        );\n\n        uint256 epoch = epoch().add(couponEpochExpiry);\n        setCouponAuctionRelYield(maxCouponAmount.div(dollarAmount));\n        setCouponAuctionRelDollarAmount(dollarAmount);\n        setCouponAuctionRelExpiry(epoch);\n        setCouponBidderState(msg.sender, epoch, dollarAmount, maxCouponAmount);\n        setCouponBidderStateIndex(getCouponAuctionBids(), msg.sender);\n        incrementCouponAuctionBids();\n        emit CouponBidPlaced(msg.sender, epoch, dollarAmount, maxCouponAmount);\n        return true;\n    }\n}\n",
  "sourcePath": "/Users/cinquemb/Documents/Startups/crypto/dollar/protocol/contracts/dao/Market.sol",
  "compiler": {
    "name": "solc",
    "version": "0.5.17+commit.d19bba13.Emscripten.clang"
  },
  "schemaVersion": "3.3.3",
  "updatedAt": "2021-01-12T08:04:48.684Z",
  "devdoc": {
    "methods": {}
  },
  "userdoc": {
    "methods": {
      "balanceOfStaged(address)": {
        "notice": "Account"
      },
      "dollar()": {
        "notice": "Global"
      },
      "epoch()": {
        "notice": "Epoch"
      },
      "name()": {
        "notice": "ERC20 Interface"
      },
      "recordedVote(address,address)": {
        "notice": "Governance"
      },
      "transfer(address,uint256)": {
        "notice": "ERC20 Interface"
      }
    }
  }
}