{
  "contractName": "Market",
  "abi": [
    {
      "anonymous": false,
      "inputs": [
        {
          "indexed": true,
          "internalType": "address",
          "name": "owner",
          "type": "address"
        },
        {
          "indexed": true,
          "internalType": "address",
          "name": "spender",
          "type": "address"
        },
        {
          "indexed": false,
          "internalType": "uint256",
          "name": "value",
          "type": "uint256"
        }
      ],
      "name": "CouponApproval",
      "type": "event"
    },
    {
      "anonymous": false,
      "inputs": [
        {
          "indexed": true,
          "internalType": "uint256",
          "name": "epoch",
          "type": "uint256"
        },
        {
          "indexed": false,
          "internalType": "uint256",
          "name": "couponsExpired",
          "type": "uint256"
        },
        {
          "indexed": false,
          "internalType": "uint256",
          "name": "lessRedeemable",
          "type": "uint256"
        },
        {
          "indexed": false,
          "internalType": "uint256",
          "name": "lessDebt",
          "type": "uint256"
        },
        {
          "indexed": false,
          "internalType": "uint256",
          "name": "newBonded",
          "type": "uint256"
        }
      ],
      "name": "CouponExpiration",
      "type": "event"
    },
    {
      "anonymous": false,
      "inputs": [
        {
          "indexed": true,
          "internalType": "address",
          "name": "account",
          "type": "address"
        },
        {
          "indexed": true,
          "internalType": "uint256",
          "name": "epoch",
          "type": "uint256"
        },
        {
          "indexed": false,
          "internalType": "uint256",
          "name": "dollarAmount",
          "type": "uint256"
        },
        {
          "indexed": false,
          "internalType": "uint256",
          "name": "couponAmount",
          "type": "uint256"
        }
      ],
      "name": "CouponPurchase",
      "type": "event"
    },
    {
      "anonymous": false,
      "inputs": [
        {
          "indexed": true,
          "internalType": "address",
          "name": "account",
          "type": "address"
        },
        {
          "indexed": true,
          "internalType": "uint256",
          "name": "epoch",
          "type": "uint256"
        },
        {
          "indexed": false,
          "internalType": "uint256",
          "name": "couponAmount",
          "type": "uint256"
        }
      ],
      "name": "CouponRedemption",
      "type": "event"
    },
    {
      "anonymous": false,
      "inputs": [
        {
          "indexed": true,
          "internalType": "address",
          "name": "from",
          "type": "address"
        },
        {
          "indexed": true,
          "internalType": "address",
          "name": "to",
          "type": "address"
        },
        {
          "indexed": true,
          "internalType": "uint256",
          "name": "epoch",
          "type": "uint256"
        },
        {
          "indexed": false,
          "internalType": "uint256",
          "name": "value",
          "type": "uint256"
        }
      ],
      "name": "CouponTransfer",
      "type": "event"
    },
    {
      "anonymous": false,
      "inputs": [
        {
          "indexed": true,
          "internalType": "address",
          "name": "from",
          "type": "address"
        },
        {
          "indexed": true,
          "internalType": "address",
          "name": "to",
          "type": "address"
        },
        {
          "indexed": false,
          "internalType": "uint256",
          "name": "value",
          "type": "uint256"
        }
      ],
      "name": "Transfer",
      "type": "event"
    },
    {
      "constant": true,
      "inputs": [
        {
          "internalType": "address",
          "name": "owner",
          "type": "address"
        },
        {
          "internalType": "address",
          "name": "spender",
          "type": "address"
        }
      ],
      "name": "allowance",
      "outputs": [
        {
          "internalType": "uint256",
          "name": "",
          "type": "uint256"
        }
      ],
      "payable": false,
      "stateMutability": "view",
      "type": "function"
    },
    {
      "constant": true,
      "inputs": [
        {
          "internalType": "address",
          "name": "owner",
          "type": "address"
        },
        {
          "internalType": "address",
          "name": "spender",
          "type": "address"
        }
      ],
      "name": "allowanceCoupons",
      "outputs": [
        {
          "internalType": "uint256",
          "name": "",
          "type": "uint256"
        }
      ],
      "payable": false,
      "stateMutability": "view",
      "type": "function"
    },
    {
      "constant": false,
      "inputs": [
        {
          "internalType": "address",
          "name": "spender",
          "type": "address"
        },
        {
          "internalType": "uint256",
          "name": "amount",
          "type": "uint256"
        }
      ],
      "name": "approve",
      "outputs": [
        {
          "internalType": "bool",
          "name": "",
          "type": "bool"
        }
      ],
      "payable": false,
      "stateMutability": "nonpayable",
      "type": "function"
    },
    {
      "constant": true,
      "inputs": [
        {
          "internalType": "address",
          "name": "candidate",
          "type": "address"
        }
      ],
      "name": "approveFor",
      "outputs": [
        {
          "internalType": "uint256",
          "name": "",
          "type": "uint256"
        }
      ],
      "payable": false,
      "stateMutability": "view",
      "type": "function"
    },
    {
      "constant": true,
      "inputs": [
        {
          "internalType": "address",
          "name": "account",
          "type": "address"
        }
      ],
      "name": "balanceOf",
      "outputs": [
        {
          "internalType": "uint256",
          "name": "",
          "type": "uint256"
        }
      ],
      "payable": false,
      "stateMutability": "view",
      "type": "function"
    },
    {
      "constant": true,
      "inputs": [
        {
          "internalType": "address",
          "name": "account",
          "type": "address"
        }
      ],
      "name": "balanceOfBonded",
      "outputs": [
        {
          "internalType": "uint256",
          "name": "",
          "type": "uint256"
        }
      ],
      "payable": false,
      "stateMutability": "view",
      "type": "function"
    },
    {
      "constant": true,
      "inputs": [
        {
          "internalType": "address",
          "name": "account",
          "type": "address"
        },
        {
          "internalType": "uint256",
          "name": "epoch",
          "type": "uint256"
        }
      ],
      "name": "balanceOfCoupons",
      "outputs": [
        {
          "internalType": "uint256",
          "name": "",
          "type": "uint256"
        }
      ],
      "payable": false,
      "stateMutability": "view",
      "type": "function"
    },
    {
      "constant": true,
      "inputs": [
        {
          "internalType": "address",
          "name": "account",
          "type": "address"
        }
      ],
      "name": "balanceOfStaged",
      "outputs": [
        {
          "internalType": "uint256",
          "name": "",
          "type": "uint256"
        }
      ],
      "payable": false,
      "stateMutability": "view",
      "type": "function"
    },
    {
      "constant": true,
      "inputs": [
        {
          "internalType": "uint256",
          "name": "epoch",
          "type": "uint256"
        }
      ],
      "name": "bootstrappingAt",
      "outputs": [
        {
          "internalType": "bool",
          "name": "",
          "type": "bool"
        }
      ],
      "payable": false,
      "stateMutability": "view",
      "type": "function"
    },
    {
      "constant": true,
      "inputs": [
        {
          "internalType": "uint256",
          "name": "epoch",
          "type": "uint256"
        }
      ],
      "name": "couponsExpiration",
      "outputs": [
        {
          "internalType": "uint256",
          "name": "",
          "type": "uint256"
        }
      ],
      "payable": false,
      "stateMutability": "view",
      "type": "function"
    },
    {
      "constant": true,
      "inputs": [],
      "name": "decimals",
      "outputs": [
        {
          "internalType": "uint8",
          "name": "",
          "type": "uint8"
        }
      ],
      "payable": false,
      "stateMutability": "view",
      "type": "function"
    },
    {
      "constant": true,
      "inputs": [],
      "name": "dollar",
      "outputs": [
        {
          "internalType": "contract IDollar",
          "name": "",
          "type": "address"
        }
      ],
      "payable": false,
      "stateMutability": "view",
      "type": "function"
    },
    {
      "constant": true,
      "inputs": [],
      "name": "epoch",
      "outputs": [
        {
          "internalType": "uint256",
          "name": "",
          "type": "uint256"
        }
      ],
      "payable": false,
      "stateMutability": "view",
      "type": "function"
    },
    {
      "constant": true,
      "inputs": [],
      "name": "epochTime",
      "outputs": [
        {
          "internalType": "uint256",
          "name": "",
          "type": "uint256"
        }
      ],
      "payable": false,
      "stateMutability": "view",
      "type": "function"
    },
    {
      "constant": true,
      "inputs": [
        {
          "internalType": "uint256",
          "name": "epoch",
          "type": "uint256"
        }
      ],
      "name": "expiringCoupons",
      "outputs": [
        {
          "internalType": "uint256",
          "name": "",
          "type": "uint256"
        }
      ],
      "payable": false,
      "stateMutability": "view",
      "type": "function"
    },
    {
      "constant": true,
      "inputs": [
        {
          "internalType": "uint256",
          "name": "epoch",
          "type": "uint256"
        },
        {
          "internalType": "uint256",
          "name": "i",
          "type": "uint256"
        }
      ],
      "name": "expiringCouponsAtIndex",
      "outputs": [
        {
          "internalType": "uint256",
          "name": "",
          "type": "uint256"
        }
      ],
      "payable": false,
      "stateMutability": "view",
      "type": "function"
    },
    {
      "constant": true,
      "inputs": [],
      "name": "implementation",
      "outputs": [
        {
          "internalType": "address",
          "name": "impl",
          "type": "address"
        }
      ],
      "payable": false,
      "stateMutability": "view",
      "type": "function"
    },
    {
      "constant": true,
      "inputs": [
        {
          "internalType": "address",
          "name": "candidate",
          "type": "address"
        }
      ],
      "name": "isInitialized",
      "outputs": [
        {
          "internalType": "bool",
          "name": "",
          "type": "bool"
        }
      ],
      "payable": false,
      "stateMutability": "view",
      "type": "function"
    },
    {
      "constant": true,
      "inputs": [
        {
          "internalType": "address",
          "name": "candidate",
          "type": "address"
        }
      ],
      "name": "isNominated",
      "outputs": [
        {
          "internalType": "bool",
          "name": "",
          "type": "bool"
        }
      ],
      "payable": false,
      "stateMutability": "view",
      "type": "function"
    },
    {
      "constant": true,
      "inputs": [],
      "name": "name",
      "outputs": [
        {
          "internalType": "string",
          "name": "",
          "type": "string"
        }
      ],
      "payable": false,
      "stateMutability": "view",
      "type": "function"
    },
    {
      "constant": true,
      "inputs": [],
      "name": "oracle",
      "outputs": [
        {
          "internalType": "contract IOracle",
          "name": "",
          "type": "address"
        }
      ],
      "payable": false,
      "stateMutability": "view",
      "type": "function"
    },
    {
      "constant": true,
      "inputs": [
        {
          "internalType": "uint256",
          "name": "epoch",
          "type": "uint256"
        }
      ],
      "name": "outstandingCoupons",
      "outputs": [
        {
          "internalType": "uint256",
          "name": "",
          "type": "uint256"
        }
      ],
      "payable": false,
      "stateMutability": "view",
      "type": "function"
    },
    {
      "constant": true,
      "inputs": [
        {
          "internalType": "address",
          "name": "candidate",
          "type": "address"
        }
      ],
      "name": "periodFor",
      "outputs": [
        {
          "internalType": "uint256",
          "name": "",
          "type": "uint256"
        }
      ],
      "payable": false,
      "stateMutability": "view",
      "type": "function"
    },
    {
      "constant": true,
      "inputs": [],
      "name": "pool",
      "outputs": [
        {
          "internalType": "address",
          "name": "",
          "type": "address"
        }
      ],
      "payable": false,
      "stateMutability": "view",
      "type": "function"
    },
    {
      "constant": true,
      "inputs": [
        {
          "internalType": "address",
          "name": "account",
          "type": "address"
        },
        {
          "internalType": "address",
          "name": "candidate",
          "type": "address"
        }
      ],
      "name": "recordedVote",
      "outputs": [
        {
          "internalType": "enum Candidate.Vote",
          "name": "",
          "type": "uint8"
        }
      ],
      "payable": false,
      "stateMutability": "view",
      "type": "function"
    },
    {
      "constant": true,
      "inputs": [
        {
          "internalType": "address",
          "name": "candidate",
          "type": "address"
        }
      ],
      "name": "rejectFor",
      "outputs": [
        {
          "internalType": "uint256",
          "name": "",
          "type": "uint256"
        }
      ],
      "payable": false,
      "stateMutability": "view",
      "type": "function"
    },
    {
      "constant": true,
      "inputs": [
        {
          "internalType": "address",
          "name": "candidate",
          "type": "address"
        }
      ],
      "name": "startFor",
      "outputs": [
        {
          "internalType": "uint256",
          "name": "",
          "type": "uint256"
        }
      ],
      "payable": false,
      "stateMutability": "view",
      "type": "function"
    },
    {
      "constant": true,
      "inputs": [
        {
          "internalType": "address",
          "name": "account",
          "type": "address"
        }
      ],
      "name": "statusOf",
      "outputs": [
        {
          "internalType": "enum Account.Status",
          "name": "",
          "type": "uint8"
        }
      ],
      "payable": false,
      "stateMutability": "view",
      "type": "function"
    },
    {
      "constant": true,
      "inputs": [],
      "name": "symbol",
      "outputs": [
        {
          "internalType": "string",
          "name": "",
          "type": "string"
        }
      ],
      "payable": false,
      "stateMutability": "view",
      "type": "function"
    },
    {
      "constant": true,
      "inputs": [],
      "name": "totalBonded",
      "outputs": [
        {
          "internalType": "uint256",
          "name": "",
          "type": "uint256"
        }
      ],
      "payable": false,
      "stateMutability": "view",
      "type": "function"
    },
    {
      "constant": true,
      "inputs": [
        {
          "internalType": "uint256",
          "name": "epoch",
          "type": "uint256"
        }
      ],
      "name": "totalBondedAt",
      "outputs": [
        {
          "internalType": "uint256",
          "name": "",
          "type": "uint256"
        }
      ],
      "payable": false,
      "stateMutability": "view",
      "type": "function"
    },
    {
      "constant": true,
      "inputs": [],
      "name": "totalCoupons",
      "outputs": [
        {
          "internalType": "uint256",
          "name": "",
          "type": "uint256"
        }
      ],
      "payable": false,
      "stateMutability": "view",
      "type": "function"
    },
    {
      "constant": true,
      "inputs": [],
      "name": "totalDebt",
      "outputs": [
        {
          "internalType": "uint256",
          "name": "",
          "type": "uint256"
        }
      ],
      "payable": false,
      "stateMutability": "view",
      "type": "function"
    },
    {
      "constant": true,
      "inputs": [],
      "name": "totalNet",
      "outputs": [
        {
          "internalType": "uint256",
          "name": "",
          "type": "uint256"
        }
      ],
      "payable": false,
      "stateMutability": "view",
      "type": "function"
    },
    {
      "constant": true,
      "inputs": [],
      "name": "totalRedeemable",
      "outputs": [
        {
          "internalType": "uint256",
          "name": "",
          "type": "uint256"
        }
      ],
      "payable": false,
      "stateMutability": "view",
      "type": "function"
    },
    {
      "constant": true,
      "inputs": [],
      "name": "totalStaged",
      "outputs": [
        {
          "internalType": "uint256",
          "name": "",
          "type": "uint256"
        }
      ],
      "payable": false,
      "stateMutability": "view",
      "type": "function"
    },
    {
      "constant": true,
      "inputs": [],
      "name": "totalSupply",
      "outputs": [
        {
          "internalType": "uint256",
          "name": "",
          "type": "uint256"
        }
      ],
      "payable": false,
      "stateMutability": "view",
      "type": "function"
    },
    {
      "constant": false,
      "inputs": [
        {
          "internalType": "address",
          "name": "recipient",
          "type": "address"
        },
        {
          "internalType": "uint256",
          "name": "amount",
          "type": "uint256"
        }
      ],
      "name": "transfer",
      "outputs": [
        {
          "internalType": "bool",
          "name": "",
          "type": "bool"
        }
      ],
      "payable": false,
      "stateMutability": "nonpayable",
      "type": "function"
    },
    {
      "constant": false,
      "inputs": [
        {
          "internalType": "address",
          "name": "sender",
          "type": "address"
        },
        {
          "internalType": "address",
          "name": "recipient",
          "type": "address"
        },
        {
          "internalType": "uint256",
          "name": "amount",
          "type": "uint256"
        }
      ],
      "name": "transferFrom",
      "outputs": [
        {
          "internalType": "bool",
          "name": "",
          "type": "bool"
        }
      ],
      "payable": false,
      "stateMutability": "nonpayable",
      "type": "function"
    },
    {
      "constant": true,
      "inputs": [
        {
          "internalType": "address",
          "name": "candidate",
          "type": "address"
        }
      ],
      "name": "votesFor",
      "outputs": [
        {
          "internalType": "uint256",
          "name": "",
          "type": "uint256"
        }
      ],
      "payable": false,
      "stateMutability": "view",
      "type": "function"
    },
    {
      "constant": true,
      "inputs": [
        {
          "internalType": "uint256",
          "name": "amount",
          "type": "uint256"
        }
      ],
      "name": "couponPremium",
      "outputs": [
        {
          "internalType": "uint256",
          "name": "",
          "type": "uint256"
        }
      ],
      "payable": false,
      "stateMutability": "view",
      "type": "function"
    },
    {
      "constant": false,
      "inputs": [
        {
          "internalType": "uint256",
          "name": "dollarAmount",
          "type": "uint256"
        }
      ],
      "name": "purchaseCoupons",
      "outputs": [
        {
          "internalType": "uint256",
          "name": "",
          "type": "uint256"
        }
      ],
      "payable": false,
      "stateMutability": "nonpayable",
      "type": "function"
    },
    {
      "constant": false,
      "inputs": [
        {
          "internalType": "uint256",
          "name": "couponEpoch",
          "type": "uint256"
        },
        {
          "internalType": "uint256",
          "name": "couponAmount",
          "type": "uint256"
        }
      ],
      "name": "redeemCoupons",
      "outputs": [],
      "payable": false,
      "stateMutability": "nonpayable",
      "type": "function"
    },
    {
      "constant": false,
      "inputs": [
        {
          "internalType": "address",
          "name": "spender",
          "type": "address"
        },
        {
          "internalType": "uint256",
          "name": "amount",
          "type": "uint256"
        }
      ],
      "name": "approveCoupons",
      "outputs": [],
      "payable": false,
      "stateMutability": "nonpayable",
      "type": "function"
    },
    {
      "constant": false,
      "inputs": [
        {
          "internalType": "address",
          "name": "sender",
          "type": "address"
        },
        {
          "internalType": "address",
          "name": "recipient",
          "type": "address"
        },
        {
          "internalType": "uint256",
          "name": "epoch",
          "type": "uint256"
        },
        {
          "internalType": "uint256",
          "name": "amount",
          "type": "uint256"
        }
      ],
      "name": "transferCoupons",
      "outputs": [],
      "payable": false,
      "stateMutability": "nonpayable",
      "type": "function"
    }
  ],
  "bytecode": "0x608060405234801561001057600080fd5b50612131806100206000396000f3fe608060405234801561001057600080fd5b506004361061027e5760003560e01c806375d5024b1161015c578063a9059cbb116100ce578063d8f5413811610087578063d8f5413814610516578063dd62ed3e14610529578063e5f55c7e14610537578063f1b7cf491461054a578063fc7b9c181461055d578063ffbe3b73146105655761027e565b8063a9059cbb146102b6578063bc7513e2146104c2578063c9aff70c146104d5578063cf023779146104e8578063d60b347f146104f0578063d6a9cf08146105035761027e565b806395d89b411161012057806395d89b411461047157806397a5d5b5146104795780639a649edc1461048c5780639f6e1b2614610494578063a50cd8e7146104a7578063a6c409f1146104ba5761027e565b806375d5024b146104285780637dc0d1d01461043b578063825ad6071461044357806386cf9f1414610456578063900cf0cf146104695761027e565b8063353a420c116101f55780635053e461116101b95780635053e461146103ca57806351adeb57146103d25780635c60da1b146103e757806364668022146103ef5780636a39e3281461040257806370a08231146104155761027e565b8063353a420c146103695780633a3e6c811461037c5780633fbba9a61461038f57806344d96e95146103af5780634c736099146103b75761027e565b806316f0115b1161024757806316f0115b1461030957806318160ddd1461031e5780631edbcf6c1461032657806323b872dd1461032e5780632f7f889e14610341578063313ce567146103545761027e565b80625edd371461028357806306fdde0314610298578063095ea7b3146102b657806310e95b6c146102d657806315e14bf6146102f6575b600080fd5b610296610291366004611ac6565b610578565b005b6102a061069b565b6040516102ad9190611eee565b60405180910390f35b6102c96102c4366004611b27565b6106d2565b6040516102ad9190611ec4565b6102e96102e4366004611b75565b6106db565b6040516102ad9190611f5f565b6102e9610304366004611a21565b6106f3565b610311610711565b6040516102ad9190611e73565b6102e9610720565b6102e9610726565b6102c961033c366004611a79565b61072c565b61029661034f366004611b27565b610736565b61035c6107b6565b6040516102ad9190611f7b565b6102e9610377366004611a21565b6107bb565b6102c961038a366004611a21565b6107d9565b6103a261039d366004611a3f565b6107f6565b6040516102ad9190611ee0565b6102e9610829565b6102e96103c5366004611bb1565b61082f565b6102e961085f565b6103da610882565b6040516102ad9190611ed2565b610311610891565b6102e96103fd366004611a21565b6108b6565b6102e9610410366004611b75565b6108d4565b6102e9610423366004611a21565b6108e9565b6102c9610436366004611b75565b610907565b6103da61091a565b6102e9610451366004611a21565b610929565b6102e9610464366004611a21565b610975565b6102e9610990565b6102a0610996565b6103a2610487366004611a21565b6109b4565b6102e9610a19565b6102e96104a2366004611a3f565b610a1f565b6102e96104b5366004611a21565b610a4e565b6102e9610a71565b6102e96104d0366004611b27565b610b07565b6102e96104e3366004611b75565b610b4b565b6102e9610b60565b6102c96104fe366004611a21565b610b66565b610296610511366004611bb1565b610b87565b6102e9610524366004611b75565b610c1b565b6102e96102c4366004611a3f565b6102e9610545366004611b75565b610ca6565b6102e9610558366004611a21565b610d98565b6102e9610db3565b6102e9610573366004611b75565b610db9565b6001600160a01b0384166105a75760405162461bcd60e51b815260040161059e90611f3f565b60405180910390fd5b6001600160a01b0383166105cd5760405162461bcd60e51b815260040161059e90611f0f565b6105f184838360405180606001604052806023815260200161205660239139610dcb565b6105fc838383610e76565b336001600160a01b03851614801590610620575060001961061d8533610a1f565b14155b156106495761064984338360405180606001604052806024815260200161207960249139610f1d565b81836001600160a01b0316856001600160a01b03167f0f1dbb1ccbe57a1590c7baad7b01d581b730c9ebc535dcde4345e6db424063d88460405161068d9190611f5f565b60405180910390a450505050565b60408051808201909152601881527f44796e616d69632053657420446f6c6c6172205374616b650000000000000000602082015290565b60005b92915050565b6000818152600d60205260409020600201545b919050565b6001600160a01b03166000908152600e602052604090206001015490565b600b546001600160a01b031690565b60035490565b60065490565b60005b9392505050565b6001600160a01b03821661075c5760405162461bcd60e51b815260040161059e90611f2f565b610767338383610f8e565b816001600160a01b0316336001600160a01b03167f8ff27e6b95060c1ca851e7c2c28af8b413eb1a8bcb637b0290da9543a709cce3836040516107aa9190611f5f565b60405180910390a35050565b601290565b6001600160a01b03166000908152600e602052604090206003015490565b6001600160a01b03166000908152600e6020526040902054151590565b6001600160a01b038082166000908152600e60209081526040808320938616835260049093019052205460ff1692915050565b60045490565b6000828152600d6020526040812060030180548390811061084c57fe5b9060005260206000200154905092915050565b60006108696119c1565b610871610fbe565b905061087c81610fed565b91505090565b6009546001600160a01b031690565b7f360894a13ba1a3210667c828492db98dca3e2076cc3735a920a3ca505d382bbc5490565b6001600160a01b03166000908152600e602052604090206002015490565b6000908152600d602052604090206003015490565b6001600160a01b03166000908152600c602052604090206001015490565b600061091161100f565b90911115919050565b600a546001600160a01b031690565b600080610934610720565b9050806109455760009150506106ee565b61072f81610969610955866108e9565b61095d610829565b9063ffffffff61101416565b9063ffffffff61104e16565b6001600160a01b03166000908152600c602052604090205490565b60025490565b6040805180820190915260048152634453445360e01b602082015290565b60006109be610990565b6001600160a01b0383166000908152600c602052604090206005015411156109e8575060026106ee565b6001600160a01b0382166000908152600c6020526040902060040154610a0c610990565b10156106d25760016106d5565b60085490565b6001600160a01b039182166000908152600c602090815260408083209390941682526003909201909152205490565b60006106d5610a5c836107bb565b610a65846108b6565b9063ffffffff61109016565b6000610b02610a7e610db3565b610a86610882565b6001600160a01b03166318160ddd6040518163ffffffff1660e01b815260040160206040518083038186803b158015610abe57600080fd5b505afa158015610ad2573d6000803e3d6000fd5b505050506040513d601f19601f82011682018060405250610af69190810190611b93565b9063ffffffff6110b516565b905090565b6000610b1282610b4b565b610b1e575060006106d5565b506001600160a01b03919091166000908152600c6020908152604080832093835260029093019052205490565b6000908152600d602052604090206001015490565b60055490565b6001600160a01b03166000908152600e602052604090206005015460ff1690565b6002610b9583610af6610990565b1015610bb35760405162461bcd60e51b815260040161059e90611f4f565b610bd733838360405180606001604052806023815260200161205660239139610dcb565b610be133826110f7565b81336001600160a01b03167f46e9903ae8ac9e9f0c9bc321b05965c1c036e7d4783758703f5cdfc4133c51b6836040516107aa9190611f5f565b60006106d5610c28610882565b6001600160a01b03166318160ddd6040518163ffffffff1660e01b815260040160206040518083038186803b158015610c6057600080fd5b505afa158015610c74573d6000803e3d6000fd5b505050506040513d601f19601f82011682018060405250610c989190810190611b93565b610ca0610db3565b846111ad565b6000610cdf600083116513585c9ad95d60d21b7f4d757374207075726368617365206e6f6e2d7a65726f20616d6f756e740000006111da565b610d0f82610ceb610db3565b10156513585c9ad95d60d21b6e139bdd08195b9bdd59da081919589d608a1b6111da565b6000610d19610990565b90506000610d36610d2985610c1b565b859063ffffffff61109016565b9050610d423385611234565b610d4d338383610e76565b81336001600160a01b03167fbce252db29f761f815dc2e9ea60005af065efba6eb619d2a0b2a113fdeb614148684604051610d89929190611f6d565b60405180910390a39392505050565b6001600160a01b03166000908152600e602052604090205490565b60075490565b6000908152600d602052604090205490565b6001600160a01b0384166000908152600c60209081526040808320868452600201909152902054610e0390838363ffffffff61134516565b6001600160a01b0385166000908152600c60209081526040808320878452600201825280832093909355600d90522060010154610e4790838363ffffffff61134516565b6000848152600d6020526040902060010155600854610e6d90838363ffffffff61134516565b60085550505050565b6001600160a01b0383166000908152600c60209081526040808320858452600201909152902054610ead908263ffffffff61109016565b6001600160a01b0384166000908152600c60209081526040808320868452600201825280832093909355600d90522060010154610ef0908263ffffffff61109016565b6000838152600d6020526040902060010155600854610f15908263ffffffff61109016565b600855505050565b6001600160a01b038085166000908152600c602090815260408083209387168352600390930190522054610f5890838363ffffffff61134516565b6001600160a01b039485166000908152600c60209081526040808320969097168252600390950190945293909220929092555050565b6001600160a01b039283166000908152600c60209081526040808320949095168252600390930190925291902055565b610fc66119c1565b604051806060016040528060008152602001635fbef0008152602001611c20815250905090565b60006106d58260000151610a6584604001516109698660200151610af6611371565b609690565b600082611023575060006106d5565b8282028284828161103057fe5b041461072f5760405162461bcd60e51b815260040161059e90611f1f565b600061072f83836040518060400160405280601a81526020017f536166654d6174683a206469766973696f6e206279207a65726f000000000000815250611375565b60008282018381101561072f5760405162461bcd60e51b815260040161059e90611eff565b600061072f83836040518060400160405280601e81526020017f536166654d6174683a207375627472616374696f6e206f766572666c6f770000815250611345565b6110ff610882565b6001600160a01b031663a9059cbb83836040518363ffffffff1660e01b815260040161112c929190611ea9565b602060405180830381600087803b15801561114657600080fd5b505af115801561115a573d6000803e3d6000fd5b505050506040513d601f19601f8201168201806040525061117e9190810190611b57565b506111a1816040518060600160405280602a81526020016120c5602a91396113ac565b6111a96113c7565b5050565b60006111d26111cd836111c187878761149c565b9063ffffffff61161516565b611645565b949350505050565b8261122f576111e882611662565b6101d160f51b6111f783611662565b60405160200161120993929190611e42565b60408051601f198184030181529082905262461bcd60e51b825261059e91600401611eee565b505050565b61123c610882565b6001600160a01b03166323b872dd8330846040518463ffffffff1660e01b815260040161126b93929190611e81565b602060405180830381600087803b15801561128557600080fd5b505af1158015611299573d6000803e3d6000fd5b505050506040513d601f19601f820116820180604052506112bd9190810190611b57565b506112c6610882565b6001600160a01b03166342966c68826040518263ffffffff1660e01b81526004016112f19190611f5f565b600060405180830381600087803b15801561130b57600080fd5b505af115801561131f573d6000803e3d6000fd5b505050506111a18160405180606001604052806028815260200161209d602891396116e2565b600081848411156113695760405162461bcd60e51b815260040161059e9190611eee565b505050900390565b4290565b600081836113965760405162461bcd60e51b815260040161059e9190611eee565b5060008385816113a257fe5b0495945050505050565b6006546113c090838363ffffffff61134516565b6006555050565b61149a6113e86113d5610726565b610a656113e0610b60565b610a65610829565b6113f0610882565b6001600160a01b03166370a08231306040518263ffffffff1660e01b815260040161141b9190611e73565b60206040518083038186803b15801561143357600080fd5b505afa158015611447573d6000803e3d6000fd5b505050506040513d601f19601f8201168201806040525061146b9190810190611b93565b10156a21b7b6b83a3937b63632b960a91b74496e636f6e73697374656e742062616c616e63657360581b6111da565b565b6114a46119e2565b6114ac6119e2565b6114b684866116fd565b90506114c06119e2565b6114c8611723565b905060006114dc878663ffffffff6110b516565b905060006114f0878763ffffffff6110b516565b90506114fa6119e2565b61150482846116fd565b9050611516858563ffffffff61174516565b156115fe5761152b818563ffffffff61174516565b15611545576115398461175b565b9550505050505061072f565b61154d6119e2565b61155782866117bf565b90506115616119e2565b611571868463ffffffff61181c16565b905061157b6119e2565b6115848761175b565b905061158e6119e2565b61159e898963ffffffff61181c16565b90506115ee6115b3848363ffffffff61184516565b6115e26115c6858563ffffffff61186e16565b6115d6888863ffffffff61186e16565b9063ffffffff61184516565b9063ffffffff61189c16565b995050505050505050505061072f565b61160881866117bf565b9998505050505050505050565b61161d6119e2565b60408051602081019091528351819061163c908563ffffffff61101416565b90529392505050565b80516000906106d590670de0b6b3a764000063ffffffff61104e16565b606080826040516020016116769190611e2d565b60408051601f19818403018152919052905060205b80156116cb578151600019909101908290829081106116a657fe5b01602001516001600160f81b031916156116c657600101815290506106ee565b61168b565b505060408051600081526020810190915292915050565b6007546116f690838363ffffffff61134516565b6007555050565b6117056119e2565b604051806020016040528061163c85670de0b6b3a7640000866118c6565b61172b6119e2565b5060408051602081019091526704db732547630000815290565b600061175183836118dc565b6002149392505050565b6117636119e2565b6106d5611772600160036116fd565b6117896117b76117a160026117958861178961190e565b9063ffffffff61181c16565b9063ffffffff61193016565b6117ab6003611986565b9063ffffffff61186e16565b6115e261190e565b6117c76119e2565b6117d7838363ffffffff6119ba16565b156117ec576117e58361175b565b90506106d5565b61072f6117fb600160036116fd565b6117896117b761180d8761178961190e565b6117ab6117a18861178961190e565b6118246119e2565b604080516020810190915282518451829161163c919063ffffffff6110b516565b61184d6119e2565b604080516020810190915282518451829161163c919063ffffffff61109016565b6118766119e2565b604051806020016040528061163c85600001518560000151670de0b6b3a76400006118c6565b6118a46119e2565b604051806020016040528061163c8560000151670de0b6b3a764000086600001515b60006111d282610969868663ffffffff61101416565b8051825160009114156118f1575060016106d5565b8151835111611901576000611904565b60025b60ff169392505050565b6119166119e2565b506040805160208101909152670de0b6b3a7640000815290565b6119386119e2565b81611947576117e56001611986565b61194f6119e2565b5060408051602081019091528351815260015b8381101561197e57611974828661186e565b9150600101611962565b509392505050565b61198e6119e2565b6040805160208101909152806119b284670de0b6b3a764000063ffffffff61101416565b905292915050565b5190511490565b60405180606001604052806000815260200160008152602001600081525090565b6040518060200160405280600081525090565b80356106d58161202f565b80516106d581612043565b80356106d58161204c565b80516106d58161204c565b600060208284031215611a3357600080fd5b60006111d284846119f5565b60008060408385031215611a5257600080fd5b6000611a5e85856119f5565b9250506020611a6f858286016119f5565b9150509250929050565b600080600060608486031215611a8e57600080fd5b6000611a9a86866119f5565b9350506020611aab868287016119f5565b9250506040611abc86828701611a0b565b9150509250925092565b60008060008060808587031215611adc57600080fd5b6000611ae887876119f5565b9450506020611af9878288016119f5565b9350506040611b0a87828801611a0b565b9250506060611b1b87828801611a0b565b91505092959194509250565b60008060408385031215611b3a57600080fd5b6000611b4685856119f5565b9250506020611a6f85828601611a0b565b600060208284031215611b6957600080fd5b60006111d28484611a00565b600060208284031215611b8757600080fd5b60006111d28484611a0b565b600060208284031215611ba557600080fd5b60006111d28484611a16565b60008060408385031215611bc457600080fd5b6000611b468585611a0b565b611bd981611f96565b82525050565b611bd981611fa1565b611bd9611bf482611fa6565b611fb3565b611bd9611bf482611fb3565b6000611c1082611f89565b611c1a81856106ee565b9350611c2a818560208601611fe8565b9290920192915050565b611bd981611fd2565b611bd981611fdd565b6000611c5182611f89565b611c5b8185611f8d565b9350611c6b818560208601611fe8565b611c7481612018565b9093019392505050565b6000611c8b601b83611f8d565b7f536166654d6174683a206164646974696f6e206f766572666c6f770000000000815260200192915050565b6000611cc4602b83611f8d565b7f4d61726b65743a20436f75706f6e207472616e7366657220746f20746865207a81526a65726f206164647265737360a81b602082015260400192915050565b6000611d11602183611f8d565b7f536166654d6174683a206d756c7469706c69636174696f6e206f766572666c6f8152607760f81b602082015260400192915050565b6000611d54602a83611f8d565b7f4d61726b65743a20436f75706f6e20617070726f766520746f20746865207a65815269726f206164647265737360b01b602082015260400192915050565b6000611da0602d83611f8d565b7f4d61726b65743a20436f75706f6e207472616e736665722066726f6d2074686581526c207a65726f206164647265737360981b602082015260400192915050565b6000611def601b83611f8d565b7f4d61726b65743a20546f6f206561726c7920746f2072656465656d0000000000815260200192915050565b611bd981611fb3565b611bd981611fcc565b6000611e398284611bf9565b50602001919050565b6000611e4e8286611c05565b9150611e5a8285611be8565b600282019150611e6a8284611c05565b95945050505050565b602081016106d58284611bd0565b60608101611e8f8286611bd0565b611e9c6020830185611bd0565b6111d26040830184611e1b565b60408101611eb78285611bd0565b61072f6020830184611e1b565b602081016106d58284611bdf565b602081016106d58284611c34565b602081016106d58284611c3d565b6020808252810161072f8184611c46565b602080825281016106d581611c7e565b602080825281016106d581611cb7565b602080825281016106d581611d04565b602080825281016106d581611d47565b602080825281016106d581611d93565b602080825281016106d581611de2565b602081016106d58284611e1b565b60408101611eb78285611e1b565b602081016106d58284611e24565b5190565b90815260200190565b60006106d582611fc0565b151590565b6001600160f01b03191690565b90565b806106ee81612022565b6001600160a01b031690565b60ff1690565b60006106d582611f96565b60006106d582611fb6565b60005b83811015612003578181015183820152602001611feb565b83811115612012576000848401525b50505050565b601f01601f191690565b6003811061202c57fe5b50565b61203881611f96565b811461202c57600080fd5b61203881611fa1565b61203881611fb356fe4d61726b65743a20496e73756666696369656e7420636f75706f6e2062616c616e63654d61726b65743a20496e73756666696369656e7420636f75706f6e20617070726f76616c436f6d7074726f6c6c65723a206e6f7420656e6f756768206f75747374616e64696e672064656274436f6d7074726f6c6c65723a206e6f7420656e6f7567682072656465656d61626c652062616c616e6365a365627a7a72315820b8da70827d9a65283d578e4face7241a1d13f3a287c5d2496eda4afc4e2914046c6578706572696d656e74616cf564736f6c63430005110040",
  "source": "/*\n    Copyright 2020 Dynamic Dollar Devs, based on the works of the Empty Set Squad\n\n    Licensed under the Apache License, Version 2.0 (the \"License\");\n    you may not use this file except in compliance with the License.\n    You may obtain a copy of the License at\n\n    http://www.apache.org/licenses/LICENSE-2.0\n\n    Unless required by applicable law or agreed to in writing, software\n    distributed under the License is distributed on an \"AS IS\" BASIS,\n    WITHOUT WARRANTIES OR CONDITIONS OF ANY KIND, either express or implied.\n    See the License for the specific language governing permissions and\n    limitations under the License.\n*/\n\npragma solidity ^0.5.17;\npragma experimental ABIEncoderV2;\n\nimport \"@openzeppelin/contracts/math/SafeMath.sol\";\nimport \"./Curve.sol\";\nimport \"./Comptroller.sol\";\nimport \"../Constants.sol\";\n\ncontract Market is Comptroller, Curve {\n    using SafeMath for uint256;\n\n    bytes32 private constant FILE = \"Market\";\n\n    event CouponExpiration(uint256 indexed epoch, uint256 couponsExpired, uint256 lessRedeemable, uint256 lessDebt, uint256 newBonded);\n    event CouponPurchase(address indexed account, uint256 indexed epoch, uint256 dollarAmount, uint256 couponAmount);\n    event CouponRedemption(address indexed account, uint256 indexed epoch, uint256 couponAmount);\n    event CouponTransfer(address indexed from, address indexed to, uint256 indexed epoch, uint256 value);\n    event CouponApproval(address indexed owner, address indexed spender, uint256 value);\n\n    function step() internal {\n        // Expire prior coupons\n        for (uint256 i = 0; i < expiringCoupons(epoch()); i++) {\n            expireCouponsForEpoch(expiringCouponsAtIndex(epoch(), i));\n        }\n\n        // Record expiry for current epoch's coupons\n        uint256 expirationEpoch = epoch().add(Constants.getCouponExpiration());\n        initializeCouponsExpiration(epoch(), expirationEpoch);\n    }\n\n    function expireCouponsForEpoch(uint256 epoch) private {\n        uint256 couponsForEpoch = outstandingCoupons(epoch);\n        (uint256 lessRedeemable, uint256 lessDebt, uint256 newBonded) = (0, 0, 0);\n\n        eliminateOutstandingCoupons(epoch);\n\n        uint256 totalRedeemable = totalRedeemable();\n        uint256 totalCoupons = totalCoupons();\n        if (totalRedeemable > totalCoupons) {\n            lessRedeemable = totalRedeemable.sub(totalCoupons);\n            burnRedeemable(lessRedeemable);\n            (, lessDebt, newBonded) = increaseSupply(lessRedeemable);\n        }\n\n        emit CouponExpiration(epoch, couponsForEpoch, lessRedeemable, lessDebt, newBonded);\n    }\n\n    function couponPremium(uint256 amount) public view returns (uint256) {\n        return calculateCouponPremium(dollar().totalSupply(), totalDebt(), amount);\n    }\n\n    function purchaseCoupons(uint256 dollarAmount) external returns (uint256) {\n        Require.that(\n            dollarAmount > 0,\n            FILE,\n            \"Must purchase non-zero amount\"\n        );\n\n        Require.that(\n            totalDebt() >= dollarAmount,\n            FILE,\n            \"Not enough debt\"\n        );\n\n        uint256 epoch = epoch();\n        uint256 couponAmount = dollarAmount.add(couponPremium(dollarAmount));\n        burnFromAccount(msg.sender, dollarAmount);\n        incrementBalanceOfCoupons(msg.sender, epoch, couponAmount);\n\n        emit CouponPurchase(msg.sender, epoch, dollarAmount, couponAmount);\n\n        return couponAmount;\n    }\n\n    function redeemCoupons(uint256 couponEpoch, uint256 couponAmount) external {\n        require(epoch().sub(couponEpoch) >= 2, \"Market: Too early to redeem\");\n        decrementBalanceOfCoupons(msg.sender, couponEpoch, couponAmount, \"Market: Insufficient coupon balance\");\n        redeemToAccount(msg.sender, couponAmount);\n\n        emit CouponRedemption(msg.sender, couponEpoch, couponAmount);\n    }\n\n    function approveCoupons(address spender, uint256 amount) external {\n        require(spender != address(0), \"Market: Coupon approve to the zero address\");\n\n        updateAllowanceCoupons(msg.sender, spender, amount);\n\n        emit CouponApproval(msg.sender, spender, amount);\n    }\n\n    function transferCoupons(address sender, address recipient, uint256 epoch, uint256 amount) external {\n        require(sender != address(0), \"Market: Coupon transfer from the zero address\");\n        require(recipient != address(0), \"Market: Coupon transfer to the zero address\");\n\n        decrementBalanceOfCoupons(sender, epoch, amount, \"Market: Insufficient coupon balance\");\n        incrementBalanceOfCoupons(recipient, epoch, amount);\n\n        if (msg.sender != sender && allowanceCoupons(sender, msg.sender) != uint256(-1)) {\n            decrementAllowanceCoupons(sender, msg.sender, amount, \"Market: Insufficient coupon approval\");\n        }\n\n        emit CouponTransfer(sender, recipient, epoch, amount);\n    }\n}\n",
  "sourcePath": "/home/name/Desktop/Files/projects/dynamic/dollar/protocol/contracts/dao/Market.sol",
  "compiler": {
    "name": "solc",
    "version": "0.5.17+commit.d19bba13.Emscripten.clang"
  },
  "schemaVersion": "3.3.1",
  "updatedAt": "2020-11-25T22:34:45.193Z",
  "devdoc": {
    "methods": {}
  },
  "userdoc": {
    "methods": {
      "balanceOfStaged(address)": {
        "notice": "Account"
      },
      "dollar()": {
        "notice": "Global"
      },
      "epoch()": {
        "notice": "Epoch"
      },
      "name()": {
        "notice": "ERC20 Interface"
      },
      "recordedVote(address,address)": {
        "notice": "Governance"
      },
      "transfer(address,uint256)": {
        "notice": "ERC20 Interface"
      }
    }
  }
}