{
  "contractName": "MockPool",
  "abi": [
    {
      "inputs": [
        {
          "internalType": "address",
          "name": "dollar",
          "type": "address"
        },
        {
          "internalType": "address",
          "name": "usdc",
          "type": "address"
        },
        {
          "internalType": "address",
          "name": "univ2",
          "type": "address"
        }
      ],
      "payable": false,
      "stateMutability": "nonpayable",
      "type": "constructor"
    },
    {
      "anonymous": false,
      "inputs": [
        {
          "indexed": true,
          "internalType": "address",
          "name": "account",
          "type": "address"
        },
        {
          "indexed": false,
          "internalType": "uint256",
          "name": "start",
          "type": "uint256"
        },
        {
          "indexed": false,
          "internalType": "uint256",
          "name": "value",
          "type": "uint256"
        }
      ],
      "name": "Bond",
      "type": "event"
    },
    {
      "anonymous": false,
      "inputs": [
        {
          "indexed": true,
          "internalType": "address",
          "name": "account",
          "type": "address"
        },
        {
          "indexed": false,
          "internalType": "uint256",
          "name": "value",
          "type": "uint256"
        }
      ],
      "name": "Claim",
      "type": "event"
    },
    {
      "anonymous": false,
      "inputs": [
        {
          "indexed": true,
          "internalType": "address",
          "name": "account",
          "type": "address"
        },
        {
          "indexed": false,
          "internalType": "uint256",
          "name": "value",
          "type": "uint256"
        }
      ],
      "name": "Deposit",
      "type": "event"
    },
    {
      "anonymous": false,
      "inputs": [
        {
          "indexed": true,
          "internalType": "address",
          "name": "account",
          "type": "address"
        },
        {
          "indexed": false,
          "internalType": "uint256",
          "name": "value",
          "type": "uint256"
        },
        {
          "indexed": false,
          "internalType": "uint256",
          "name": "lessUsdc",
          "type": "uint256"
        },
        {
          "indexed": false,
          "internalType": "uint256",
          "name": "newUniv2",
          "type": "uint256"
        }
      ],
      "name": "Provide",
      "type": "event"
    },
    {
      "anonymous": false,
      "inputs": [
        {
          "indexed": true,
          "internalType": "address",
          "name": "account",
          "type": "address"
        },
        {
          "indexed": false,
          "internalType": "uint256",
          "name": "start",
          "type": "uint256"
        },
        {
          "indexed": false,
          "internalType": "uint256",
          "name": "value",
          "type": "uint256"
        },
        {
          "indexed": false,
          "internalType": "uint256",
          "name": "newClaimable",
          "type": "uint256"
        }
      ],
      "name": "Unbond",
      "type": "event"
    },
    {
      "anonymous": false,
      "inputs": [
        {
          "indexed": true,
          "internalType": "address",
          "name": "account",
          "type": "address"
        },
        {
          "indexed": false,
          "internalType": "uint256",
          "name": "value",
          "type": "uint256"
        }
      ],
      "name": "Withdraw",
      "type": "event"
    },
    {
      "constant": true,
      "inputs": [
        {
          "internalType": "address",
          "name": "account",
          "type": "address"
        }
      ],
      "name": "balanceOfBonded",
      "outputs": [
        {
          "internalType": "uint256",
          "name": "",
          "type": "uint256"
        }
      ],
      "payable": false,
      "stateMutability": "view",
      "type": "function"
    },
    {
      "constant": true,
      "inputs": [
        {
          "internalType": "address",
          "name": "account",
          "type": "address"
        }
      ],
      "name": "balanceOfClaimable",
      "outputs": [
        {
          "internalType": "uint256",
          "name": "",
          "type": "uint256"
        }
      ],
      "payable": false,
      "stateMutability": "view",
      "type": "function"
    },
    {
      "constant": true,
      "inputs": [
        {
          "internalType": "address",
          "name": "account",
          "type": "address"
        }
      ],
      "name": "balanceOfPhantom",
      "outputs": [
        {
          "internalType": "uint256",
          "name": "",
          "type": "uint256"
        }
      ],
      "payable": false,
      "stateMutability": "view",
      "type": "function"
    },
    {
      "constant": true,
      "inputs": [
        {
          "internalType": "address",
          "name": "account",
          "type": "address"
        }
      ],
      "name": "balanceOfRewarded",
      "outputs": [
        {
          "internalType": "uint256",
          "name": "",
          "type": "uint256"
        }
      ],
      "payable": false,
      "stateMutability": "view",
      "type": "function"
    },
    {
      "constant": true,
      "inputs": [
        {
          "internalType": "address",
          "name": "account",
          "type": "address"
        }
      ],
      "name": "balanceOfStaged",
      "outputs": [
        {
          "internalType": "uint256",
          "name": "",
          "type": "uint256"
        }
      ],
      "payable": false,
      "stateMutability": "view",
      "type": "function"
    },
    {
      "constant": false,
      "inputs": [
        {
          "internalType": "uint256",
          "name": "value",
          "type": "uint256"
        }
      ],
      "name": "bond",
      "outputs": [],
      "payable": false,
      "stateMutability": "nonpayable",
      "type": "function"
    },
    {
      "constant": false,
      "inputs": [
        {
          "internalType": "uint256",
          "name": "value",
          "type": "uint256"
        }
      ],
      "name": "claim",
      "outputs": [],
      "payable": false,
      "stateMutability": "nonpayable",
      "type": "function"
    },
    {
      "constant": false,
      "inputs": [
        {
          "internalType": "uint256",
          "name": "value",
          "type": "uint256"
        }
      ],
      "name": "deposit",
      "outputs": [],
      "payable": false,
      "stateMutability": "nonpayable",
      "type": "function"
    },
    {
      "constant": false,
      "inputs": [],
      "name": "emergencyPause",
      "outputs": [],
      "payable": false,
      "stateMutability": "nonpayable",
      "type": "function"
    },
    {
      "constant": false,
      "inputs": [
        {
          "internalType": "address",
          "name": "token",
          "type": "address"
        },
        {
          "internalType": "uint256",
          "name": "value",
          "type": "uint256"
        }
      ],
      "name": "emergencyWithdraw",
      "outputs": [],
      "payable": false,
      "stateMutability": "nonpayable",
      "type": "function"
    },
    {
      "constant": true,
      "inputs": [
        {
          "internalType": "address",
          "name": "account",
          "type": "address"
        }
      ],
      "name": "fluidUntil",
      "outputs": [
        {
          "internalType": "uint256",
          "name": "",
          "type": "uint256"
        }
      ],
      "payable": false,
      "stateMutability": "view",
      "type": "function"
    },
    {
      "constant": true,
      "inputs": [],
      "name": "paused",
      "outputs": [
        {
          "internalType": "bool",
          "name": "",
          "type": "bool"
        }
      ],
      "payable": false,
      "stateMutability": "view",
      "type": "function"
    },
    {
      "constant": false,
      "inputs": [
        {
          "internalType": "uint256",
          "name": "value",
          "type": "uint256"
        }
      ],
      "name": "provide",
      "outputs": [],
      "payable": false,
      "stateMutability": "nonpayable",
      "type": "function"
    },
    {
      "constant": true,
      "inputs": [
        {
          "internalType": "address",
          "name": "account",
          "type": "address"
        }
      ],
      "name": "statusOf",
      "outputs": [
        {
          "internalType": "enum PoolAccount.Status",
          "name": "",
          "type": "uint8"
        }
      ],
      "payable": false,
      "stateMutability": "view",
      "type": "function"
    },
    {
      "constant": true,
      "inputs": [],
      "name": "totalBonded",
      "outputs": [
        {
          "internalType": "uint256",
          "name": "",
          "type": "uint256"
        }
      ],
      "payable": false,
      "stateMutability": "view",
      "type": "function"
    },
    {
      "constant": true,
      "inputs": [],
      "name": "totalClaimable",
      "outputs": [
        {
          "internalType": "uint256",
          "name": "",
          "type": "uint256"
        }
      ],
      "payable": false,
      "stateMutability": "view",
      "type": "function"
    },
    {
      "constant": true,
      "inputs": [],
      "name": "totalPhantom",
      "outputs": [
        {
          "internalType": "uint256",
          "name": "",
          "type": "uint256"
        }
      ],
      "payable": false,
      "stateMutability": "view",
      "type": "function"
    },
    {
      "constant": true,
      "inputs": [],
      "name": "totalRewarded",
      "outputs": [
        {
          "internalType": "uint256",
          "name": "",
          "type": "uint256"
        }
      ],
      "payable": false,
      "stateMutability": "view",
      "type": "function"
    },
    {
      "constant": true,
      "inputs": [],
      "name": "totalStaged",
      "outputs": [
        {
          "internalType": "uint256",
          "name": "",
          "type": "uint256"
        }
      ],
      "payable": false,
      "stateMutability": "view",
      "type": "function"
    },
    {
      "constant": false,
      "inputs": [
        {
          "internalType": "uint256",
          "name": "value",
          "type": "uint256"
        }
      ],
      "name": "unbond",
      "outputs": [],
      "payable": false,
      "stateMutability": "nonpayable",
      "type": "function"
    },
    {
      "constant": false,
      "inputs": [
        {
          "internalType": "uint256",
          "name": "value",
          "type": "uint256"
        }
      ],
      "name": "withdraw",
      "outputs": [],
      "payable": false,
      "stateMutability": "nonpayable",
      "type": "function"
    },
    {
      "constant": false,
      "inputs": [
        {
          "internalType": "address",
          "name": "dao",
          "type": "address"
        },
        {
          "internalType": "address",
          "name": "dollar",
          "type": "address"
        },
        {
          "internalType": "address",
          "name": "univ2",
          "type": "address"
        }
      ],
      "name": "set",
      "outputs": [],
      "payable": false,
      "stateMutability": "nonpayable",
      "type": "function"
    },
    {
      "constant": true,
      "inputs": [],
      "name": "usdc",
      "outputs": [
        {
          "internalType": "address",
          "name": "",
          "type": "address"
        }
      ],
      "payable": false,
      "stateMutability": "view",
      "type": "function"
    },
    {
      "constant": true,
      "inputs": [],
      "name": "dao",
      "outputs": [
        {
          "internalType": "contract IDAO",
          "name": "",
          "type": "address"
        }
      ],
      "payable": false,
      "stateMutability": "view",
      "type": "function"
    },
    {
      "constant": true,
      "inputs": [],
      "name": "dollar",
      "outputs": [
        {
          "internalType": "contract IDollar",
          "name": "",
          "type": "address"
        }
      ],
      "payable": false,
      "stateMutability": "view",
      "type": "function"
    },
    {
      "constant": true,
      "inputs": [],
      "name": "univ2",
      "outputs": [
        {
          "internalType": "contract IERC20",
          "name": "",
          "type": "address"
        }
      ],
      "payable": false,
      "stateMutability": "view",
      "type": "function"
    }
  ],
  "bytecode": "0x60806040523480156200001157600080fd5b5060405162001f1438038062001f14833981016040819052620000349162000094565b60048054336001600160a01b0319918216179091556005805482166001600160a01b0395861617905560068054821692851692909217909155600980549091169190921617905562000114565b80516200008e81620000fa565b92915050565b600080600060608486031215620000aa57600080fd5b6000620000b8868662000081565b9350506020620000cb8682870162000081565b9250506040620000de8682870162000081565b9150509250925092565b60006001600160a01b0382166200008e565b6200010581620000e8565b81146200011157600080fd5b50565b611df080620001246000396000f3fe608060405234801561001057600080fd5b506004361061018e5760003560e01c80635c975abb116100de57806397a5d5b511610097578063b6b55f2511610071578063b6b55f251461031e578063c0d7a94f14610331578063cf02377914610344578063e0cf72851461034c5761018e565b806397a5d5b5146102e35780639940686e14610303578063aed29d07146103165761018e565b80635c975abb1461027a5780637298d36e1461028f578063825ad6071461029757806383209259146102aa57806386cf9f14146102bd57806395ccea67146102d05761018e565b80633e413bee1161014b5780634838ed19116101255780634838ed191461024f57806351858e271461025757806351adeb571461025f57806351bf21d8146102675761018e565b80633e413bee1461021d5780634162169f1461023257806344d96e95146102475761018e565b80631667eb171461019357806327de9e32146101bc57806329f32ed4146101d15780632e1a7d4d146101e45780632e2ebe06146101f7578063379607f51461020a575b600080fd5b6101a66101a13660046117c3565b610354565b6040516101b39190611bfa565b60405180910390f35b6101cf6101ca3660046118d1565b610376565b005b6101a66101df3660046117c3565b6104bf565b6101cf6101f23660046118d1565b6104dd565b6101cf6102053660046118d1565b61060c565b6101cf6102183660046118d1565b6107b1565b6102256108a8565b6040516101b39190611b20565b61023a6108b7565b6040516101b39190611b8d565b6101a66108c6565b6101a66108cc565b6101cf6108d2565b61023a610913565b6101a66102753660046117c3565b610922565b610282610940565b6040516101b39190611b7f565b61023a610949565b6101a66102a53660046117c3565b610958565b6101cf6102b83660046117e9565b610976565b6101a66102cb3660046117c3565b6109b5565b6101cf6102de366004611836565b6109d0565b6102f66102f13660046117c3565b610a67565b6040516101b39190611b9b565b6101cf6103113660046118d1565b610aa1565b6101a6610b8f565b6101cf61032c3660046118d1565b610c30565b6101a661033f3660046117c3565b610d1b565b6101a6610da3565b6101a6610da9565b6001600160a01b0381166000908152600860205260409020600101545b919050565b61037f33610daf565b600061038a33610958565b90506103c16000821163141bdbdb60e21b7f696e73756666696369656e7420626f6e6465642062616c616e63650000000000610de1565b60006103ec826103e0856103d433610d1b565b9063ffffffff610e3f16565b9063ffffffff610e8016565b90506000610401836103e0866103d4336104bf565b905061040d3385610ec2565b6104173383610f1f565b61043a3385604051806060016040528060218152602001611d8d60219139610f84565b61045d3382604051806060016040528060228152602001611d4a60229139610fec565b610465611054565b337f93530ac0ee8c50e696e13c5ac62355d0c0ba4bd943620d5bda1eb08b64ae75126104a0600161049461111d565b9063ffffffff61119716565b86856040516104b193929190611c16565b60405180910390a250505050565b6001600160a01b031660009081526008602052604090206003015490565b3361051460005b6104ed83610a67565b60028111156104f857fe5b1463141bdbdb60e21b692737ba10333937bd32b760b11b610de1565b61051c610949565b6001600160a01b031663a9059cbb33846040518363ffffffff1660e01b8152600401610549929190611b56565b602060405180830381600087803b15801561056357600080fd5b505af1158015610577573d6000803e3d6000fd5b505050506040513d601f19601f8201168201806040525061059b9190810190611870565b506105bf3383604051806060016040528060218152602001611d6c602191396111bc565b6105c7611054565b336001600160a01b03167f884edad9ce6fa2440d8a54cc123490eb96d2768479d49ff9c7366125a9424364836040516106009190611bfa565b60405180910390a25050565b3361061760006104e4565b61063a610622610940565b1563141bdbdb60e21b6514185d5cd95960d21b610de1565b61067660006106476108c6565b1163141bdbdb60e21b7f696e73756666696369656e7420746f74616c20626f6e64656400000000000000610de1565b6106b26000610683610b8f565b1163141bdbdb60e21b7f696e73756666696369656e7420746f74616c2072657761726465640000000000610de1565b6106ef826106bf33610d1b565b101563141bdbdb60e21b7f696e73756666696369656e742072657761726465642062616c616e6365000000610de1565b6000806106fb8461121c565b91509150600061071885610494610710610da9565b610494610b8f565b905060006107376107276108c6565b6103e0848663ffffffff610e3f16565b9050610743338461140f565b61075c33610757888463ffffffff61119716565b611474565b610764611054565b336001600160a01b03167fbe9d8078818a53534ce225882a00e0c6f709b5296c8a08c3a1f23f9ffd4483808786866040516107a193929190611c16565b60405180910390a2505050505050565b336107bc60006104e4565b6107c4610913565b6001600160a01b031663a9059cbb33846040518363ffffffff1660e01b81526004016107f1929190611b56565b602060405180830381600087803b15801561080b57600080fd5b505af115801561081f573d6000803e3d6000fd5b505050506040513d601f19601f820116820180604052506108439190810190611870565b506108673383604051806060016040528060248152602001611d26602491396114d9565b61086f611054565b336001600160a01b03167f47cee97cb7acd717b3c0aa1435d004cd5b3c8c57d70dbceb4e4458bbd60e39d4836040516106009190611bfa565b6009546001600160a01b031690565b600a546001600160a01b031690565b60025490565b60015490565b6109096108dd6108b7565b6001600160a01b0316336001600160a01b03161463141bdbdb60e21b664e6f742064616f60c81b610de1565b610911611541565b565b600b546001600160a01b031690565b6001600160a01b031660009081526008602052604090206004015490565b60075460ff1690565b600c546001600160a01b031690565b6001600160a01b031660009081526008602052604090206002015490565b600a80546001600160a01b039485166001600160a01b031991821617909155600b805493851693821693909317909255600c8054919093169116179055565b6001600160a01b031660009081526008602052604090205490565b6109db6108dd6108b7565b816001600160a01b031663a9059cbb6109f26108b7565b836040518363ffffffff1660e01b8152600401610a10929190611b71565b602060405180830381600087803b158015610a2a57600080fd5b505af1158015610a3e573d6000803e3d6000fd5b505050506040513d601f19601f82011682018060405250610a629190810190611870565b505050565b6001600160a01b038116600090815260086020526040812060040154610a8b61111d565b1015610a98576001610a9b565b60005b92915050565b610aac610622610940565b610ab533610daf565b6000610ac2610710610da9565b90506000610ace6108c6565b15610ae357610ade6107276108c6565b610b03565b610aeb610b8f565b15610af7576000610b03565b610b03836103d4611550565b9050610b0f338461140f565b610b193382611474565b610b3c3384604051806060016040528060218152602001611d6c602191396111bc565b610b44611054565b337f3ae9ad26d7d47616d306d7757b947fe7b0f9a7c61a5f0dc784b0ddb6c7c40b5a610b73600161049461111d565b85604051610b82929190611c08565b60405180910390a2505050565b6000610c2b610b9c6108cc565b610ba4610913565b6001600160a01b03166370a08231306040518263ffffffff1660e01b8152600401610bcf9190611b20565b60206040518083038186803b158015610be757600080fd5b505afa158015610bfb573d6000803e3d6000fd5b505050506040513d601f19601f82011682018060405250610c1f91908101906118ef565b9063ffffffff61155716565b905090565b33610c3b60006104e4565b610c46610622610940565b610c4e610949565b6001600160a01b03166323b872dd3330856040518463ffffffff1660e01b8152600401610c7d93929190611b2e565b602060405180830381600087803b158015610c9757600080fd5b505af1158015610cab573d6000803e3d6000fd5b505050506040513d601f19601f82011682018060405250610ccf9190810190611870565b50610cda3383610ec2565b610ce2611054565b336001600160a01b03167fe1fffcc4923d04b559f4d29a8bfc6cda04eb5b0d3c460751c2402c5c5cc9109c836040516106009190611bfa565b600080610d266108c6565b905080610d37576000915050610371565b6000610d44610710610da9565b90506000610d65836103e0610d5888610958565b859063ffffffff610e3f16565b90506000610d72866104bf565b905080821115610d9757610d8c828263ffffffff61155716565b945050505050610371565b50600095945050505050565b60005490565b60035490565b610dc2610dba611599565b61049461111d565b6001600160a01b03909116600090815260086020526040902060040155565b82610a6257610def8261159e565b6101d160f51b610dfe8361159e565b604051602001610e1093929190611aef565b60408051601f198184030181529082905262461bcd60e51b8252610e3691600401611ba9565b60405180910390fd5b600082610e4e57506000610a9b565b82820282848281610e5b57fe5b0414610e795760405162461bcd60e51b8152600401610e3690611bda565b9392505050565b6000610e7983836040518060400160405280601a81526020017f536166654d6174683a206469766973696f6e206279207a65726f00000000000081525061161e565b6001600160a01b038216600090815260086020526040902054610eeb908263ffffffff61119716565b6001600160a01b03831660009081526008602052604081209190915554610f18908263ffffffff61119716565b6000555050565b6001600160a01b038216600090815260086020526040902060010154610f4b908263ffffffff61119716565b6001600160a01b038316600090815260086020526040902060019081019190915554610f7d908263ffffffff61119716565b6001555050565b6001600160a01b038316600090815260086020526040902060020154610fb190838363ffffffff61165516565b6001600160a01b038416600090815260086020526040902060029081019190915554610fe490838363ffffffff61165516565b600255505050565b6001600160a01b03831660009081526008602052604090206003015461101990838363ffffffff61165516565b6001600160a01b03841660009081526008602052604090206003908101919091555461104c90838363ffffffff61165516565b600355505050565b61091161106a6110626108c6565b610494610da3565b611072610949565b6001600160a01b03166370a08231306040518263ffffffff1660e01b815260040161109d9190611b20565b60206040518083038186803b1580156110b557600080fd5b505afa1580156110c9573d6000803e3d6000fd5b505050506040513d601f19601f820116820180604052506110ed91908101906118ef565b101563141bdbdb60e21b7f496e636f6e73697374656e7420554e492d56322062616c616e63657300000000610de1565b60006111276108b7565b6001600160a01b031663900cf0cf6040518163ffffffff1660e01b815260040160206040518083038186803b15801561115f57600080fd5b505afa158015611173573d6000803e3d6000fd5b505050506040513d601f19601f82011682018060405250610c2b91908101906118ef565b600082820183811015610e795760405162461bcd60e51b8152600401610e3690611bba565b6001600160a01b0383166000908152600860205260409020546111e690838363ffffffff61165516565b6001600160a01b0384166000908152600860205260408120919091555461121490838363ffffffff61165516565b600055505050565b60008060008061122a610913565b6112326108a8565b915091506000806112438484611681565b915091506000826000148015611257575081155b61126b57611266888484611713565b61126d565b875b90506000611279610949565b60405163a9059cbb60e01b81529091506001600160a01b0387169063a9059cbb906112aa9084908d90600401611b71565b602060405180830381600087803b1580156112c457600080fd5b505af11580156112d8573d6000803e3d6000fd5b505050506040513d601f19601f820116820180604052506112fc9190810190611870565b506040516323b872dd60e01b81526001600160a01b038616906323b872dd9061132d90339085908790600401611b2e565b602060405180830381600087803b15801561134757600080fd5b505af115801561135b573d6000803e3d6000fd5b505050506040513d601f19601f8201168201806040525061137f9190810190611870565b506040516335313c2160e11b815282906001600160a01b03831690636a627842906113ae903090600401611b20565b602060405180830381600087803b1580156113c857600080fd5b505af11580156113dc573d6000803e3d6000fd5b505050506040513d601f19601f8201168201806040525061140091908101906118ef565b97509750505050505050915091565b6001600160a01b03821660009081526008602052604090206002015461143b908263ffffffff61119716565b6001600160a01b03831660009081526008602052604090206002908101919091555461146d908263ffffffff61119716565b6002555050565b6001600160a01b0382166000908152600860205260409020600301546114a0908263ffffffff61119716565b6001600160a01b0383166000908152600860205260409020600390810191909155546114d2908263ffffffff61119716565b6003555050565b6001600160a01b03831660009081526008602052604090206001015461150690838363ffffffff61165516565b6001600160a01b03841660009081526008602052604090206001908101919091555461153990838363ffffffff61165516565b600155505050565b6007805460ff19166001179055565b620f424090565b6000610e7983836040518060400160405280601e81526020017f536166654d6174683a207375627472616374696f6e206f766572666c6f770000815250611655565b600c90565b606080826040516020016115b29190611ada565b60408051601f19818403018152919052905060205b8015611607578151600019909101908290829081106115e257fe5b01602001516001600160f81b031916156116025760010181529050610371565b6115c7565b505060408051600081526020810190915292915050565b6000818361163f5760405162461bcd60e51b8152600401610e369190611ba9565b50600083858161164b57fe5b0495945050505050565b600081848411156116795760405162461bcd60e51b8152600401610e369190611ba9565b505050900390565b60008061168c610949565b6001600160a01b0316630902f1ac6040518163ffffffff1660e01b815260040160606040518083038186803b1580156116c457600080fd5b505afa1580156116d8573d6000803e3d6000fd5b505050506040513d601f19601f820116820180604052506116fc919081019061188e565b506001600160701b03918216969116945092505050565b60008084116117345760405162461bcd60e51b8152600401610e3690611bea565b6000831180156117445750600082115b6117605760405162461bcd60e51b8152600401610e3690611bca565b82611771858463ffffffff610e3f16565b8161177857fe5b04949350505050565b8035610a9b81611ced565b8051610a9b81611d01565b8051610a9b81611d0a565b8035610a9b81611d13565b8051610a9b81611d13565b8051610a9b81611d1c565b6000602082840312156117d557600080fd5b60006117e18484611781565b949350505050565b6000806000606084860312156117fe57600080fd5b600061180a8686611781565b935050602061181b86828701611781565b925050604061182c86828701611781565b9150509250925092565b6000806040838503121561184957600080fd5b60006118558585611781565b9250506020611866858286016117a2565b9150509250929050565b60006020828403121561188257600080fd5b60006117e1848461178c565b6000806000606084860312156118a357600080fd5b60006118af8686611797565b93505060206118c086828701611797565b925050604061182c868287016117b8565b6000602082840312156118e357600080fd5b60006117e184846117a2565b60006020828403121561190157600080fd5b60006117e184846117ad565b61191681611c89565b82525050565b61191681611c3e565b61191681611c49565b61191661193a82611c4e565b611c5b565b61191661193a82611c5b565b600061195682611c31565b6119608185610371565b9350611970818560208601611ca6565b9290920192915050565b61191681611c90565b61191681611c9b565b600061199782611c31565b6119a18185611c35565b93506119b1818560208601611ca6565b6119ba81611cd6565b9093019392505050565b60006119d1601b83611c35565b7f536166654d6174683a206164646974696f6e206f766572666c6f770000000000815260200192915050565b6000611a0a602883611c35565b7f556e697377617056324c6962726172793a20494e53554646494349454e545f4c815267495155494449545960c01b602082015260400192915050565b6000611a54602183611c35565b7f536166654d6174683a206d756c7469706c69636174696f6e206f766572666c6f8152607760f81b602082015260400192915050565b6000611a97602583611c35565b7f556e697377617056324c6962726172793a20494e53554646494349454e545f418152641353d5539560da1b602082015260400192915050565b61191681611c5b565b6000611ae6828461193f565b50602001919050565b6000611afb828661194b565b9150611b07828561192e565b600282019150611b17828461194b565b95945050505050565b60208101610a9b828461191c565b60608101611b3c828661190d565b611b49602083018561191c565b6117e16040830184611ad1565b60408101611b64828561190d565b610e796020830184611ad1565b60408101611b64828561191c565b60208101610a9b8284611925565b60208101610a9b828461197a565b60208101610a9b8284611983565b60208082528101610e79818461198c565b60208082528101610a9b816119c4565b60208082528101610a9b816119fd565b60208082528101610a9b81611a47565b60208082528101610a9b81611a8a565b60208101610a9b8284611ad1565b60408101611b648285611ad1565b60608101611c248286611ad1565b611b496020830185611ad1565b5190565b90815260200190565b6000610a9b82611c74565b151590565b6001600160f01b03191690565b90565b8061037181611ce0565b6001600160701b031690565b6001600160a01b031690565b63ffffffff1690565b6000610a9b825b6000610a9b82611c3e565b6000610a9b82611c5e565b60005b83811015611cc1578181015183820152602001611ca9565b83811115611cd0576000848401525b50505050565b601f01601f191690565b60038110611cea57fe5b50565b611cf681611c3e565b8114611cea57600080fd5b611cf681611c49565b611cf681611c68565b611cf681611c5b565b611cf681611c8056fe506f6f6c3a20696e73756666696369656e7420636c61696d61626c652062616c616e6365506f6f6c3a20696e73756666696369656e74207068616e746f6d2062616c616e6365506f6f6c3a20696e73756666696369656e74207374616765642062616c616e6365506f6f6c3a20696e73756666696369656e7420626f6e6465642062616c616e6365a365627a7a72315820fb9582a389df662c6c975ce44c23121d43bf672ba01d44e4eeb33421955dbeda6c6578706572696d656e74616cf564736f6c63430005110040",
  "source": "/*\n    Copyright 2020 Dynamic Dollar Devs, based on the works of the Empty Set Squad\n\n    Licensed under the Apache License, Version 2.0 (the \"License\");\n    you may not use this file except in compliance with the License.\n    You may obtain a copy of the License at\n\n    http://www.apache.org/licenses/LICENSE-2.0\n\n    Unless required by applicable law or agreed to in writing, software\n    distributed under the License is distributed on an \"AS IS\" BASIS,\n    WITHOUT WARRANTIES OR CONDITIONS OF ANY KIND, either express or implied.\n    See the License for the specific language governing permissions and\n    limitations under the License.\n*/\n\npragma solidity ^0.5.17;\npragma experimental ABIEncoderV2;\n\nimport \"../oracle/Pool.sol\";\n\ncontract MockPool is Pool {\n    address private _usdc;\n    address private _dao;\n    address private _dollar;\n    address private _univ2;\n\n    constructor(address dollar, address usdc, address univ2) Pool(dollar, univ2) public {\n        _usdc = usdc;\n    }\n\n    function set(address dao, address dollar, address univ2) external {\n        _dao = dao;\n        _dollar = dollar;\n        _univ2 = univ2;\n    }\n\n    function usdc() public view returns (address) {\n        return _usdc;\n    }\n\n    function dao() public view returns (IDAO) {\n        return IDAO(_dao);\n    }\n\n    function dollar() public view returns (IDollar) {\n        return IDollar(_dollar);\n    }\n\n    function univ2() public view returns (IERC20) {\n        return IERC20(_univ2);\n    }\n\n    function getReserves(address tokenA, address tokenB) internal view returns (uint reserveA, uint reserveB) {\n        (reserveA, reserveB,) = IUniswapV2Pair(address(univ2())).getReserves();\n    }\n}\n",
  "sourcePath": "/Users/cinquemb/Documents/Startups/crypto/dollar/protocol/contracts/mock/MockPool.sol",
  "compiler": {
    "name": "solc",
    "version": "0.5.17+commit.d19bba13.Emscripten.clang"
  },
  "schemaVersion": "3.3.3",
  "updatedAt": "2021-01-12T08:04:49.861Z",
  "devdoc": {
    "methods": {}
  },
  "userdoc": {
    "methods": {
      "balanceOfStaged(address)": {
        "notice": "Account"
      }
    }
  }
}