{
  "contractName": "MockComptroller",
  "abi": [
    {
      "inputs": [
        {
          "internalType": "address",
          "name": "pool",
          "type": "address"
        }
      ],
      "payable": false,
      "stateMutability": "nonpayable",
      "type": "constructor"
    },
    {
      "anonymous": false,
      "inputs": [
        {
          "indexed": true,
          "internalType": "address",
          "name": "from",
          "type": "address"
        },
        {
          "indexed": true,
          "internalType": "address",
          "name": "to",
          "type": "address"
        },
        {
          "indexed": false,
          "internalType": "uint256",
          "name": "value",
          "type": "uint256"
        }
      ],
      "name": "Transfer",
      "type": "event"
    },
    {
      "constant": true,
      "inputs": [
        {
          "internalType": "address",
          "name": "owner",
          "type": "address"
        },
        {
          "internalType": "address",
          "name": "spender",
          "type": "address"
        }
      ],
      "name": "allowance",
      "outputs": [
        {
          "internalType": "uint256",
          "name": "",
          "type": "uint256"
        }
      ],
      "payable": false,
      "stateMutability": "view",
      "type": "function"
    },
    {
      "constant": true,
      "inputs": [
        {
          "internalType": "address",
          "name": "owner",
          "type": "address"
        },
        {
          "internalType": "address",
          "name": "spender",
          "type": "address"
        }
      ],
      "name": "allowanceCoupons",
      "outputs": [
        {
          "internalType": "uint256",
          "name": "",
          "type": "uint256"
        }
      ],
      "payable": false,
      "stateMutability": "view",
      "type": "function"
    },
    {
      "constant": false,
      "inputs": [
        {
          "internalType": "address",
          "name": "spender",
          "type": "address"
        },
        {
          "internalType": "uint256",
          "name": "amount",
          "type": "uint256"
        }
      ],
      "name": "approve",
      "outputs": [
        {
          "internalType": "bool",
          "name": "",
          "type": "bool"
        }
      ],
      "payable": false,
      "stateMutability": "nonpayable",
      "type": "function"
    },
    {
      "constant": true,
      "inputs": [
        {
          "internalType": "address",
          "name": "candidate",
          "type": "address"
        }
      ],
      "name": "approveFor",
      "outputs": [
        {
          "internalType": "uint256",
          "name": "",
          "type": "uint256"
        }
      ],
      "payable": false,
      "stateMutability": "view",
      "type": "function"
    },
    {
      "constant": true,
      "inputs": [
        {
          "internalType": "address",
          "name": "account",
          "type": "address"
        }
      ],
      "name": "balanceOf",
      "outputs": [
        {
          "internalType": "uint256",
          "name": "",
          "type": "uint256"
        }
      ],
      "payable": false,
      "stateMutability": "view",
      "type": "function"
    },
    {
      "constant": true,
      "inputs": [
        {
          "internalType": "address",
          "name": "account",
          "type": "address"
        }
      ],
      "name": "balanceOfBonded",
      "outputs": [
        {
          "internalType": "uint256",
          "name": "",
          "type": "uint256"
        }
      ],
      "payable": false,
      "stateMutability": "view",
      "type": "function"
    },
    {
      "constant": true,
      "inputs": [
        {
          "internalType": "address",
          "name": "account",
          "type": "address"
        },
        {
          "internalType": "uint256",
          "name": "epoch",
          "type": "uint256"
        }
      ],
      "name": "balanceOfCoupons",
      "outputs": [
        {
          "internalType": "uint256",
          "name": "",
          "type": "uint256"
        }
      ],
      "payable": false,
      "stateMutability": "view",
      "type": "function"
    },
    {
      "constant": true,
      "inputs": [
        {
          "internalType": "address",
          "name": "account",
          "type": "address"
        }
      ],
      "name": "balanceOfStaged",
      "outputs": [
        {
          "internalType": "uint256",
          "name": "",
          "type": "uint256"
        }
      ],
      "payable": false,
      "stateMutability": "view",
      "type": "function"
    },
    {
      "constant": true,
      "inputs": [
        {
          "internalType": "uint256",
          "name": "epoch",
          "type": "uint256"
        }
      ],
      "name": "bootstrappingAt",
      "outputs": [
        {
          "internalType": "bool",
          "name": "",
          "type": "bool"
        }
      ],
      "payable": false,
      "stateMutability": "view",
      "type": "function"
    },
    {
      "constant": true,
      "inputs": [
        {
          "internalType": "uint256",
          "name": "epoch",
          "type": "uint256"
        }
      ],
      "name": "couponsExpiration",
      "outputs": [
        {
          "internalType": "uint256",
          "name": "",
          "type": "uint256"
        }
      ],
      "payable": false,
      "stateMutability": "view",
      "type": "function"
    },
    {
      "constant": false,
      "inputs": [
        {
          "internalType": "address",
          "name": "candidate",
          "type": "address"
        },
        {
          "internalType": "uint256",
          "name": "period",
          "type": "uint256"
        }
      ],
      "name": "createCandidateE",
      "outputs": [],
      "payable": false,
      "stateMutability": "nonpayable",
      "type": "function"
    },
    {
      "constant": true,
      "inputs": [],
      "name": "decimals",
      "outputs": [
        {
          "internalType": "uint8",
          "name": "",
          "type": "uint8"
        }
      ],
      "payable": false,
      "stateMutability": "view",
      "type": "function"
    },
    {
      "constant": false,
      "inputs": [
        {
          "internalType": "address",
          "name": "owner",
          "type": "address"
        },
        {
          "internalType": "address",
          "name": "spender",
          "type": "address"
        },
        {
          "internalType": "uint256",
          "name": "amount",
          "type": "uint256"
        },
        {
          "internalType": "string",
          "name": "reason",
          "type": "string"
        }
      ],
      "name": "decrementAllowanceCouponsE",
      "outputs": [],
      "payable": false,
      "stateMutability": "nonpayable",
      "type": "function"
    },
    {
      "constant": false,
      "inputs": [
        {
          "internalType": "address",
          "name": "candidate",
          "type": "address"
        },
        {
          "internalType": "uint256",
          "name": "amount",
          "type": "uint256"
        },
        {
          "internalType": "string",
          "name": "reason",
          "type": "string"
        }
      ],
      "name": "decrementApproveForE",
      "outputs": [],
      "payable": false,
      "stateMutability": "nonpayable",
      "type": "function"
    },
    {
      "constant": false,
      "inputs": [
        {
          "internalType": "address",
          "name": "account",
          "type": "address"
        },
        {
          "internalType": "uint256",
          "name": "epoch",
          "type": "uint256"
        },
        {
          "internalType": "uint256",
          "name": "amount",
          "type": "uint256"
        },
        {
          "internalType": "string",
          "name": "reason",
          "type": "string"
        }
      ],
      "name": "decrementBalanceOfCouponsE",
      "outputs": [],
      "payable": false,
      "stateMutability": "nonpayable",
      "type": "function"
    },
    {
      "constant": false,
      "inputs": [
        {
          "internalType": "address",
          "name": "account",
          "type": "address"
        },
        {
          "internalType": "uint256",
          "name": "amount",
          "type": "uint256"
        },
        {
          "internalType": "string",
          "name": "reason",
          "type": "string"
        }
      ],
      "name": "decrementBalanceOfE",
      "outputs": [],
      "payable": false,
      "stateMutability": "nonpayable",
      "type": "function"
    },
    {
      "constant": false,
      "inputs": [
        {
          "internalType": "address",
          "name": "account",
          "type": "address"
        },
        {
          "internalType": "uint256",
          "name": "amount",
          "type": "uint256"
        },
        {
          "internalType": "string",
          "name": "reason",
          "type": "string"
        }
      ],
      "name": "decrementBalanceOfStagedE",
      "outputs": [],
      "payable": false,
      "stateMutability": "nonpayable",
      "type": "function"
    },
    {
      "constant": false,
      "inputs": [
        {
          "internalType": "address",
          "name": "candidate",
          "type": "address"
        },
        {
          "internalType": "uint256",
          "name": "amount",
          "type": "uint256"
        },
        {
          "internalType": "string",
          "name": "reason",
          "type": "string"
        }
      ],
      "name": "decrementRejectForE",
      "outputs": [],
      "payable": false,
      "stateMutability": "nonpayable",
      "type": "function"
    },
    {
      "constant": false,
      "inputs": [
        {
          "internalType": "uint256",
          "name": "amount",
          "type": "uint256"
        },
        {
          "internalType": "string",
          "name": "reason",
          "type": "string"
        }
      ],
      "name": "decrementTotalBondedE",
      "outputs": [],
      "payable": false,
      "stateMutability": "nonpayable",
      "type": "function"
    },
    {
      "constant": false,
      "inputs": [
        {
          "internalType": "uint256",
          "name": "amount",
          "type": "uint256"
        },
        {
          "internalType": "string",
          "name": "reason",
          "type": "string"
        }
      ],
      "name": "decrementTotalDebtE",
      "outputs": [],
      "payable": false,
      "stateMutability": "nonpayable",
      "type": "function"
    },
    {
      "constant": false,
      "inputs": [
        {
          "internalType": "uint256",
          "name": "amount",
          "type": "uint256"
        },
        {
          "internalType": "string",
          "name": "reason",
          "type": "string"
        }
      ],
      "name": "decrementTotalRedeemableE",
      "outputs": [],
      "payable": false,
      "stateMutability": "nonpayable",
      "type": "function"
    },
    {
      "constant": true,
      "inputs": [],
      "name": "dollar",
      "outputs": [
        {
          "internalType": "contract IDollar",
          "name": "",
          "type": "address"
        }
      ],
      "payable": false,
      "stateMutability": "view",
      "type": "function"
    },
    {
      "constant": false,
      "inputs": [
        {
          "internalType": "uint256",
          "name": "epoch",
          "type": "uint256"
        }
      ],
      "name": "eliminateOutstandingCouponsE",
      "outputs": [],
      "payable": false,
      "stateMutability": "nonpayable",
      "type": "function"
    },
    {
      "constant": true,
      "inputs": [],
      "name": "epoch",
      "outputs": [
        {
          "internalType": "uint256",
          "name": "",
          "type": "uint256"
        }
      ],
      "payable": false,
      "stateMutability": "view",
      "type": "function"
    },
    {
      "constant": true,
      "inputs": [],
      "name": "epochTime",
      "outputs": [
        {
          "internalType": "uint256",
          "name": "",
          "type": "uint256"
        }
      ],
      "payable": false,
      "stateMutability": "view",
      "type": "function"
    },
    {
      "constant": true,
      "inputs": [
        {
          "internalType": "uint256",
          "name": "epoch",
          "type": "uint256"
        }
      ],
      "name": "expiringCoupons",
      "outputs": [
        {
          "internalType": "uint256",
          "name": "",
          "type": "uint256"
        }
      ],
      "payable": false,
      "stateMutability": "view",
      "type": "function"
    },
    {
      "constant": true,
      "inputs": [
        {
          "internalType": "uint256",
          "name": "epoch",
          "type": "uint256"
        },
        {
          "internalType": "uint256",
          "name": "i",
          "type": "uint256"
        }
      ],
      "name": "expiringCouponsAtIndex",
      "outputs": [
        {
          "internalType": "uint256",
          "name": "",
          "type": "uint256"
        }
      ],
      "payable": false,
      "stateMutability": "view",
      "type": "function"
    },
    {
      "constant": true,
      "inputs": [],
      "name": "implementation",
      "outputs": [
        {
          "internalType": "address",
          "name": "impl",
          "type": "address"
        }
      ],
      "payable": false,
      "stateMutability": "view",
      "type": "function"
    },
    {
      "constant": false,
      "inputs": [
        {
          "internalType": "address",
          "name": "candidate",
          "type": "address"
        },
        {
          "internalType": "uint256",
          "name": "amount",
          "type": "uint256"
        }
      ],
      "name": "incrementApproveForE",
      "outputs": [],
      "payable": false,
      "stateMutability": "nonpayable",
      "type": "function"
    },
    {
      "constant": false,
      "inputs": [
        {
          "internalType": "address",
          "name": "account",
          "type": "address"
        },
        {
          "internalType": "uint256",
          "name": "epoch",
          "type": "uint256"
        },
        {
          "internalType": "uint256",
          "name": "amount",
          "type": "uint256"
        }
      ],
      "name": "incrementBalanceOfCouponsE",
      "outputs": [],
      "payable": false,
      "stateMutability": "nonpayable",
      "type": "function"
    },
    {
      "constant": false,
      "inputs": [
        {
          "internalType": "address",
          "name": "account",
          "type": "address"
        },
        {
          "internalType": "uint256",
          "name": "amount",
          "type": "uint256"
        }
      ],
      "name": "incrementBalanceOfE",
      "outputs": [],
      "payable": false,
      "stateMutability": "nonpayable",
      "type": "function"
    },
    {
      "constant": false,
      "inputs": [
        {
          "internalType": "address",
          "name": "account",
          "type": "address"
        },
        {
          "internalType": "uint256",
          "name": "amount",
          "type": "uint256"
        }
      ],
      "name": "incrementBalanceOfStagedE",
      "outputs": [],
      "payable": false,
      "stateMutability": "nonpayable",
      "type": "function"
    },
    {
      "constant": false,
      "inputs": [],
      "name": "incrementEpochE",
      "outputs": [],
      "payable": false,
      "stateMutability": "nonpayable",
      "type": "function"
    },
    {
      "constant": false,
      "inputs": [
        {
          "internalType": "address",
          "name": "candidate",
          "type": "address"
        },
        {
          "internalType": "uint256",
          "name": "amount",
          "type": "uint256"
        }
      ],
      "name": "incrementRejectForE",
      "outputs": [],
      "payable": false,
      "stateMutability": "nonpayable",
      "type": "function"
    },
    {
      "constant": false,
      "inputs": [
        {
          "internalType": "uint256",
          "name": "amount",
          "type": "uint256"
        }
      ],
      "name": "incrementTotalBondedE",
      "outputs": [],
      "payable": false,
      "stateMutability": "nonpayable",
      "type": "function"
    },
    {
      "constant": false,
      "inputs": [
        {
          "internalType": "uint256",
          "name": "amount",
          "type": "uint256"
        }
      ],
      "name": "incrementTotalDebtE",
      "outputs": [],
      "payable": false,
      "stateMutability": "nonpayable",
      "type": "function"
    },
    {
      "constant": false,
      "inputs": [
        {
          "internalType": "uint256",
          "name": "amount",
          "type": "uint256"
        }
      ],
      "name": "incrementTotalRedeemableE",
      "outputs": [],
      "payable": false,
      "stateMutability": "nonpayable",
      "type": "function"
    },
    {
      "constant": false,
      "inputs": [
        {
          "internalType": "uint256",
          "name": "epoch",
          "type": "uint256"
        },
        {
          "internalType": "uint256",
          "name": "expiration",
          "type": "uint256"
        }
      ],
      "name": "initializeCouponsExpirationE",
      "outputs": [],
      "payable": false,
      "stateMutability": "nonpayable",
      "type": "function"
    },
    {
      "constant": false,
      "inputs": [
        {
          "internalType": "address",
          "name": "candidate",
          "type": "address"
        }
      ],
      "name": "initializedE",
      "outputs": [],
      "payable": false,
      "stateMutability": "nonpayable",
      "type": "function"
    },
    {
      "constant": true,
      "inputs": [
        {
          "internalType": "address",
          "name": "candidate",
          "type": "address"
        }
      ],
      "name": "isInitialized",
      "outputs": [
        {
          "internalType": "bool",
          "name": "",
          "type": "bool"
        }
      ],
      "payable": false,
      "stateMutability": "view",
      "type": "function"
    },
    {
      "constant": true,
      "inputs": [
        {
          "internalType": "address",
          "name": "candidate",
          "type": "address"
        }
      ],
      "name": "isNominated",
      "outputs": [
        {
          "internalType": "bool",
          "name": "",
          "type": "bool"
        }
      ],
      "payable": false,
      "stateMutability": "view",
      "type": "function"
    },
    {
      "constant": true,
      "inputs": [],
      "name": "name",
      "outputs": [
        {
          "internalType": "string",
          "name": "",
          "type": "string"
        }
      ],
      "payable": false,
      "stateMutability": "view",
      "type": "function"
    },
    {
      "constant": true,
      "inputs": [],
      "name": "oracle",
      "outputs": [
        {
          "internalType": "contract IOracle",
          "name": "",
          "type": "address"
        }
      ],
      "payable": false,
      "stateMutability": "view",
      "type": "function"
    },
    {
      "constant": true,
      "inputs": [
        {
          "internalType": "uint256",
          "name": "epoch",
          "type": "uint256"
        }
      ],
      "name": "outstandingCoupons",
      "outputs": [
        {
          "internalType": "uint256",
          "name": "",
          "type": "uint256"
        }
      ],
      "payable": false,
      "stateMutability": "view",
      "type": "function"
    },
    {
      "constant": true,
      "inputs": [
        {
          "internalType": "address",
          "name": "candidate",
          "type": "address"
        }
      ],
      "name": "periodFor",
      "outputs": [
        {
          "internalType": "uint256",
          "name": "",
          "type": "uint256"
        }
      ],
      "payable": false,
      "stateMutability": "view",
      "type": "function"
    },
    {
      "constant": false,
      "inputs": [
        {
          "internalType": "address",
          "name": "account",
          "type": "address"
        },
        {
          "internalType": "address",
          "name": "candidate",
          "type": "address"
        }
      ],
      "name": "placeLockE",
      "outputs": [],
      "payable": false,
      "stateMutability": "nonpayable",
      "type": "function"
    },
    {
      "constant": true,
      "inputs": [],
      "name": "pool",
      "outputs": [
        {
          "internalType": "address",
          "name": "",
          "type": "address"
        }
      ],
      "payable": false,
      "stateMutability": "view",
      "type": "function"
    },
    {
      "constant": false,
      "inputs": [
        {
          "internalType": "address",
          "name": "account",
          "type": "address"
        },
        {
          "internalType": "address",
          "name": "candidate",
          "type": "address"
        },
        {
          "internalType": "enum Candidate.Vote",
          "name": "vote",
          "type": "uint8"
        }
      ],
      "name": "recordVoteE",
      "outputs": [],
      "payable": false,
      "stateMutability": "nonpayable",
      "type": "function"
    },
    {
      "constant": true,
      "inputs": [
        {
          "internalType": "address",
          "name": "account",
          "type": "address"
        },
        {
          "internalType": "address",
          "name": "candidate",
          "type": "address"
        }
      ],
      "name": "recordedVote",
      "outputs": [
        {
          "internalType": "enum Candidate.Vote",
          "name": "",
          "type": "uint8"
        }
      ],
      "payable": false,
      "stateMutability": "view",
      "type": "function"
    },
    {
      "constant": true,
      "inputs": [
        {
          "internalType": "address",
          "name": "candidate",
          "type": "address"
        }
      ],
      "name": "rejectFor",
      "outputs": [
        {
          "internalType": "uint256",
          "name": "",
          "type": "uint256"
        }
      ],
      "payable": false,
      "stateMutability": "view",
      "type": "function"
    },
    {
      "constant": false,
      "inputs": [
        {
          "internalType": "uint256",
          "name": "timestamp",
          "type": "uint256"
        }
      ],
      "name": "setBlockTimestamp",
      "outputs": [],
      "payable": false,
      "stateMutability": "nonpayable",
      "type": "function"
    },
    {
      "constant": false,
      "inputs": [
        {
          "internalType": "uint256",
          "name": "start",
          "type": "uint256"
        },
        {
          "internalType": "uint256",
          "name": "period",
          "type": "uint256"
        }
      ],
      "name": "setEpochParamsE",
      "outputs": [],
      "payable": false,
      "stateMutability": "nonpayable",
      "type": "function"
    },
    {
      "constant": false,
      "inputs": [],
      "name": "snapshotTotalBondedE",
      "outputs": [],
      "payable": false,
      "stateMutability": "nonpayable",
      "type": "function"
    },
    {
      "constant": true,
      "inputs": [
        {
          "internalType": "address",
          "name": "candidate",
          "type": "address"
        }
      ],
      "name": "startFor",
      "outputs": [
        {
          "internalType": "uint256",
          "name": "",
          "type": "uint256"
        }
      ],
      "payable": false,
      "stateMutability": "view",
      "type": "function"
    },
    {
      "constant": true,
      "inputs": [
        {
          "internalType": "address",
          "name": "account",
          "type": "address"
        }
      ],
      "name": "statusOf",
      "outputs": [
        {
          "internalType": "enum Account.Status",
          "name": "",
          "type": "uint8"
        }
      ],
      "payable": false,
      "stateMutability": "view",
      "type": "function"
    },
    {
      "constant": true,
      "inputs": [],
      "name": "symbol",
      "outputs": [
        {
          "internalType": "string",
          "name": "",
          "type": "string"
        }
      ],
      "payable": false,
      "stateMutability": "view",
      "type": "function"
    },
    {
      "constant": true,
      "inputs": [],
      "name": "totalBonded",
      "outputs": [
        {
          "internalType": "uint256",
          "name": "",
          "type": "uint256"
        }
      ],
      "payable": false,
      "stateMutability": "view",
      "type": "function"
    },
    {
      "constant": true,
      "inputs": [
        {
          "internalType": "uint256",
          "name": "epoch",
          "type": "uint256"
        }
      ],
      "name": "totalBondedAt",
      "outputs": [
        {
          "internalType": "uint256",
          "name": "",
          "type": "uint256"
        }
      ],
      "payable": false,
      "stateMutability": "view",
      "type": "function"
    },
    {
      "constant": true,
      "inputs": [],
      "name": "totalCoupons",
      "outputs": [
        {
          "internalType": "uint256",
          "name": "",
          "type": "uint256"
        }
      ],
      "payable": false,
      "stateMutability": "view",
      "type": "function"
    },
    {
      "constant": true,
      "inputs": [],
      "name": "totalDebt",
      "outputs": [
        {
          "internalType": "uint256",
          "name": "",
          "type": "uint256"
        }
      ],
      "payable": false,
      "stateMutability": "view",
      "type": "function"
    },
    {
      "constant": true,
      "inputs": [],
      "name": "totalNet",
      "outputs": [
        {
          "internalType": "uint256",
          "name": "",
          "type": "uint256"
        }
      ],
      "payable": false,
      "stateMutability": "view",
      "type": "function"
    },
    {
      "constant": true,
      "inputs": [],
      "name": "totalRedeemable",
      "outputs": [
        {
          "internalType": "uint256",
          "name": "",
          "type": "uint256"
        }
      ],
      "payable": false,
      "stateMutability": "view",
      "type": "function"
    },
    {
      "constant": true,
      "inputs": [],
      "name": "totalStaged",
      "outputs": [
        {
          "internalType": "uint256",
          "name": "",
          "type": "uint256"
        }
      ],
      "payable": false,
      "stateMutability": "view",
      "type": "function"
    },
    {
      "constant": true,
      "inputs": [],
      "name": "totalSupply",
      "outputs": [
        {
          "internalType": "uint256",
          "name": "",
          "type": "uint256"
        }
      ],
      "payable": false,
      "stateMutability": "view",
      "type": "function"
    },
    {
      "constant": false,
      "inputs": [
        {
          "internalType": "address",
          "name": "recipient",
          "type": "address"
        },
        {
          "internalType": "uint256",
          "name": "amount",
          "type": "uint256"
        }
      ],
      "name": "transfer",
      "outputs": [
        {
          "internalType": "bool",
          "name": "",
          "type": "bool"
        }
      ],
      "payable": false,
      "stateMutability": "nonpayable",
      "type": "function"
    },
    {
      "constant": false,
      "inputs": [
        {
          "internalType": "address",
          "name": "sender",
          "type": "address"
        },
        {
          "internalType": "address",
          "name": "recipient",
          "type": "address"
        },
        {
          "internalType": "uint256",
          "name": "amount",
          "type": "uint256"
        }
      ],
      "name": "transferFrom",
      "outputs": [
        {
          "internalType": "bool",
          "name": "",
          "type": "bool"
        }
      ],
      "payable": false,
      "stateMutability": "nonpayable",
      "type": "function"
    },
    {
      "constant": false,
      "inputs": [
        {
          "internalType": "address",
          "name": "account",
          "type": "address"
        }
      ],
      "name": "unfreezeE",
      "outputs": [],
      "payable": false,
      "stateMutability": "nonpayable",
      "type": "function"
    },
    {
      "constant": false,
      "inputs": [
        {
          "internalType": "address",
          "name": "owner",
          "type": "address"
        },
        {
          "internalType": "address",
          "name": "spender",
          "type": "address"
        },
        {
          "internalType": "uint256",
          "name": "amount",
          "type": "uint256"
        }
      ],
      "name": "updateAllowanceCouponsE",
      "outputs": [],
      "payable": false,
      "stateMutability": "nonpayable",
      "type": "function"
    },
    {
      "constant": true,
      "inputs": [
        {
          "internalType": "address",
          "name": "candidate",
          "type": "address"
        }
      ],
      "name": "votesFor",
      "outputs": [
        {
          "internalType": "uint256",
          "name": "",
          "type": "uint256"
        }
      ],
      "payable": false,
      "stateMutability": "view",
      "type": "function"
    },
    {
      "constant": false,
      "inputs": [
        {
          "internalType": "address",
          "name": "account",
          "type": "address"
        },
        {
          "internalType": "uint256",
          "name": "amount",
          "type": "uint256"
        }
      ],
      "name": "mintToAccountE",
      "outputs": [],
      "payable": false,
      "stateMutability": "nonpayable",
      "type": "function"
    },
    {
      "constant": false,
      "inputs": [
        {
          "internalType": "address",
          "name": "account",
          "type": "address"
        },
        {
          "internalType": "uint256",
          "name": "amount",
          "type": "uint256"
        }
      ],
      "name": "burnFromAccountE",
      "outputs": [],
      "payable": false,
      "stateMutability": "nonpayable",
      "type": "function"
    },
    {
      "constant": false,
      "inputs": [
        {
          "internalType": "address",
          "name": "account",
          "type": "address"
        },
        {
          "internalType": "uint256",
          "name": "amount",
          "type": "uint256"
        }
      ],
      "name": "redeemToAccountE",
      "outputs": [],
      "payable": false,
      "stateMutability": "nonpayable",
      "type": "function"
    },
    {
      "constant": false,
      "inputs": [
        {
          "internalType": "uint256",
          "name": "amount",
          "type": "uint256"
        }
      ],
      "name": "burnRedeemableE",
      "outputs": [],
      "payable": false,
      "stateMutability": "nonpayable",
      "type": "function"
    },
    {
      "constant": false,
      "inputs": [
        {
          "internalType": "uint256",
          "name": "amount",
          "type": "uint256"
        }
      ],
      "name": "increaseDebtE",
      "outputs": [],
      "payable": false,
      "stateMutability": "nonpayable",
      "type": "function"
    },
    {
      "constant": false,
      "inputs": [
        {
          "internalType": "uint256",
          "name": "amount",
          "type": "uint256"
        }
      ],
      "name": "decreaseDebtE",
      "outputs": [],
      "payable": false,
      "stateMutability": "nonpayable",
      "type": "function"
    },
    {
      "constant": false,
      "inputs": [
        {
          "internalType": "uint256",
          "name": "percent",
          "type": "uint256"
        }
      ],
      "name": "resetDebtE",
      "outputs": [],
      "payable": false,
      "stateMutability": "nonpayable",
      "type": "function"
    },
    {
      "constant": false,
      "inputs": [
        {
          "internalType": "address",
          "name": "account",
          "type": "address"
        },
        {
          "internalType": "uint256",
          "name": "amount",
          "type": "uint256"
        }
      ],
      "name": "mintToE",
      "outputs": [],
      "payable": false,
      "stateMutability": "nonpayable",
      "type": "function"
    }
  ],
  "bytecode": "0x60806040523480156200001157600080fd5b50604051620046c9380380620046c98339810160408190526200003491620000ba565b42600f55604051620000469062000099565b604051809103906000f08015801562000063573d6000803e3d6000fd5b50600980546001600160a01b039283166001600160a01b031991821617909155600b80549390921692169190911790556200010f565b611c068062002ac383390190565b8051620000b481620000f5565b92915050565b600060208284031215620000cd57600080fd5b6000620000db8484620000a7565b949350505050565b60006001600160a01b038216620000b4565b6200010081620000e3565b81146200010c57600080fd5b50565b6129a4806200011f6000396000f3fe608060405234801561001057600080fd5b506004361061045f5760003560e01c8063825ad6071161024c578063b11ee0e311610146578063d60b347f116100c3578063f1b7cf4911610087578063f1b7cf491461095a578063f35adf7e1461096d578063f7a3181814610975578063fc7b9c1814610988578063ffbe3b73146109905761045f565b8063d60b347f14610900578063d6d8816d14610913578063d83d3ed514610926578063dd62ed3e14610939578063e0abdf66146109475761045f565b8063c2aeb5fe1161010a578063c2aeb5fe146108ac578063c45a3e0a146108bf578063c9aff70c146108d2578063cc8d823c146108e5578063cf023779146108f85761045f565b8063b11ee0e31461084d578063b16144a314610860578063b32a2f9014610873578063bc7513e214610886578063c1410c02146108995761045f565b80639be46493116101d4578063a6f37b5311610198578063a6f37b5314610801578063a9059cbb14610482578063a9b3cf1514610814578063adbff2be14610827578063ae5c23811461083a5761045f565b80639be46493146107ad5780639f6e1b26146107c0578063a00e14d1146107d3578063a50cd8e7146107e6578063a6c409f1146107f95761045f565b8063900cf0cf1161021b578063900cf0cf1461076f57806395d89b411461077757806397a5d5b51461077f5780639a649edc146107925780639b82b49b1461079a5761045f565b8063825ad607146107235780638413e52a1461073657806386cf9f14146107495780638de2e5731461075c5761045f565b80633fbba9a61161035d5780635f14fec8116102e557806371c511eb116102a957806371c511eb146106da57806372924d2a146106e257806375d5024b146106f55780637cb95a32146107085780637dc0d1d01461071b5761045f565b80635f14fec81461067b578063646680221461068e5780636a39e328146106a15780636b862d66146106b457806370a08231146106c75761045f565b80634c7360991161032c5780634c736099146106305780635053e4611461064357806351adeb571461064b5780635c60da1b146106605780635dbf800a146106685761045f565b80633fbba9a6146105e25780633fd4973c14610602578063438735261461061557806344d96e95146106285761045f565b80631fac9732116103eb578063313ce567116103af578063313ce567146105815780633234742214610596578063353a420c146105a95780633a3e6c81146105bc5780633f7bcaf3146105cf5761045f565b80631fac97321461052257806320f6bc901461053557806323b872dd14610548578063259f7adf1461055b578063277805a91461056e5761045f565b806315e14bf61161043257806315e14bf6146104d757806316f0115b146104ea57806318160ddd146104ff5780631a08e22a146105075780631edbcf6c1461051a5761045f565b806306fdde0314610464578063095ea7b3146104825780630dc6d3a3146104a257806310e95b6c146104b7575b600080fd5b61046c6109a3565b60405161047991906127f0565b60405180910390f35b610495610490366004612425565b6109da565b60405161047991906127c6565b6104b56104b03660046123a7565b6109e3565b005b6104ca6104c5366004612542565b610a2c565b6040516104799190612821565b6104ca6104e53660046122bf565b610a44565b6104f2610a62565b6040516104799190612775565b6104ca610a71565b6104b56105153660046125d4565b610a77565b6104ca610a85565b6104b5610530366004612542565b610a8b565b6104b5610543366004612425565b610a97565b610495610556366004612364565b610aa1565b6104b5610569366004612542565b610aab565b6104b561057c366004612425565b610ab4565b610589610b40565b604051610479919061282f565b6104b56105a436600461257e565b610b45565b6104ca6105b73660046122bf565b610b85565b6104956105ca3660046122bf565b610ba3565b6104b56105dd366004612364565b610bc0565b6105f56105f03660046122dd565b610bcb565b60405161047991906127e2565b6104b5610610366004612455565b610bfe565b6104b5610623366004612542565b610c45565b6104ca610c4e565b6104ca61063e3660046125d4565b610c54565b6104ca610c84565b610653610ca7565b60405161047991906127d4565b6104f2610cb6565b6104b5610676366004612542565b610cdb565b6104b5610689366004612425565b610ce4565b6104ca61069c3660046122bf565b610cee565b6104ca6106af366004612542565b610d0c565b6104b56106c23660046124bd565b610d21565b6104ca6106d53660046122bf565b610d2c565b6104b5610d4a565b6104b56106f036600461257e565b610d54565b610495610703366004612542565b610d94565b6104b5610716366004612455565b610da7565b610653610de8565b6104ca6107313660046122bf565b610df7565b6104b5610744366004612317565b610e43565b6104ca6107573660046122bf565b610e4e565b6104b561076a366004612542565b610e69565b6104ca610e72565b61046c610e78565b6105f561078d3660046122bf565b610e96565b6104ca610efb565b6104b56107a836600461257e565b610f01565b6104b56107bb3660046122bf565b610f41565b6104ca6107ce3660046122dd565b610f4a565b6104b56107e13660046125d4565b610f79565b6104ca6107f43660046122bf565b610f84565b6104ca610fa7565b6104b561080f3660046122bf565b61103d565b6104b5610822366004612542565b611046565b6104b5610835366004612455565b61104f565b6104b5610848366004612425565b611090565b6104b561085b366004612425565b61109a565b6104b561086e366004612542565b6110a4565b6104b5610881366004612455565b6110b7565b6104ca610894366004612425565b6110f8565b6104b56108a73660046122dd565b61113c565b6104b56108ba3660046124ef565b611146565b6104b56108cd366004612425565b611188565b6104ca6108e0366004612542565b611192565b6104b56108f3366004612425565b6111a7565b6104ca6111b1565b61049561090e3660046122bf565b6111b7565b6104b5610921366004612542565b6111d8565b6104b5610934366004612425565b6111e1565b6104ca6104903660046122dd565b6104b5610955366004612542565b6111eb565b6104ca6109683660046122bf565b6111f0565b6104b561120b565b6104b5610983366004612425565b611213565b6104ca61121d565b6104ca61099e366004612542565b611223565b60408051808201909152601881527f44796e616d69632053657420446f6c6c6172205374616b650000000000000000602082015290565b60005b92915050565b610a2585858585858080601f01602080910402602001604051908101604052809392919081815260200183838082843760009201919091525061123592505050565b5050505050565b6000818152600d60205260409020600201545b919050565b6001600160a01b03166000908152600e602052604090206001015490565b600b546001600160a01b031690565b60035490565b610a8182826112a6565b5050565b60065490565b610a94816112d8565b50565b610a81828261131f565b60005b9392505050565b610a94816113c7565b610abc610ca7565b6001600160a01b03166340c10f1983836040518363ffffffff1660e01b8152600401610ae99291906127ab565b602060405180830381600087803b158015610b0357600080fd5b505af1158015610b17573d6000803e3d6000fd5b505050506040513d601f19601f82011682018060405250610b3b9190810190612524565b505050565b601290565b610b3b8383838080601f0160208091040260200160405190810160405280939291908181526020018383808284376000920191909152506113e092505050565b6001600160a01b03166000908152600e602052604090206003015490565b6001600160a01b03166000908152600e6020526040902054151590565b610b3b8383836113fb565b6001600160a01b038082166000908152600e60209081526040808320938616835260049093019052205460ff1692915050565b610c3f848484848080601f01602080910402602001604051908101604052809392919081815260200183838082843760009201919091525061142b92505050565b50505050565b610a948161147c565b60045490565b6000828152600d60205260408120600301805483908110610c7157fe5b9060005260206000200154905092915050565b6000610c8e61220b565b610c96611490565b9050610ca1816114bf565b91505090565b6009546001600160a01b031690565b7f360894a13ba1a3210667c828492db98dca3e2076cc3735a920a3ca505d382bbc5490565b610a94816114e1565b610a818282611568565b6001600160a01b03166000908152600e602052604090206002015490565b6000908152600d602052604090206003015490565b610b3b838383611679565b6001600160a01b03166000908152600c602052604090206001015490565b610d52611720565b565b610b3b8383838080601f01602080910402602001604051908101604052809392919081815260200183838082843760009201919091525061174792505050565b6000610d9e611762565b90911115919050565b610c3f848484848080601f01602080910402602001604051908101604052809392919081815260200183838082843760009201919091525061176792505050565b600a546001600160a01b031690565b600080610e02610a71565b905080610e13576000915050610a3f565b610aa481610e37610e2386610d2c565b610e2b610c4e565b9063ffffffff6117b816565b9063ffffffff6117fb16565b610b3b83838361183d565b6001600160a01b03166000908152600c602052604090205490565b610a9481611887565b60025490565b6040805180820190915260048152634453445360e01b602082015290565b6000610ea0610e72565b6001600160a01b0383166000908152600c60205260409020600501541115610eca57506002610a3f565b6001600160a01b0382166000908152600c6020526040902060040154610eee610e72565b10156109da5760016109dd565b60085490565b610b3b8383838080601f0160208091040260200160405190810160405280939291908181526020018383808284376000920191909152506118a092505050565b610a94816118bb565b6001600160a01b039182166000908152600c602090815260408083209390941682526003909201909152205490565b600091909155600155565b60006109dd610f9283610b85565b610f9b84610cee565b9063ffffffff6118ed16565b6000611038610fb461121d565b610fbc610ca7565b6001600160a01b03166318160ddd6040518163ffffffff1660e01b815260040160206040518083038186803b158015610ff457600080fd5b505afa158015611008573d6000803e3d6000fd5b505050506040513d601f19601f8201168201806040525061102c9190810190612560565b9063ffffffff61191216565b905090565b610a9481611954565b610a948161197b565b610c3f848484848080601f0160208091040260200160405190810160405280939291908181526020018383808284376000920191909152506119be92505050565b610a818282611a69565b610a818282611b11565b610a946110b2826064611b6d565b611b9c565b610c3f848484848080601f016020809104026020016040519081016040528093929190818152602001838380828437600092019190915250611c6192505050565b600061110382611192565b61110f575060006109dd565b506001600160a01b03919091166000908152600c6020908152604080832093835260029093019052205490565b610a818282611cc0565b610a2585858585858080601f016020809104026020016040519081016040528093929190818152602001838380828437600092019190915250611d2092505050565b610a818282611dcb565b6000908152600d602052604090206001015490565b610a818282611e75565b60055490565b6001600160a01b03166000908152600e602052604090206005015460ff1690565b610a9481611ec4565b610a818282611edd565b600f55565b6001600160a01b03166000908152600e602052604090205490565b610d52611f09565b610a818282611f22565b60075490565b6000908152600d602052604090205490565b6001600160a01b038085166000908152600c60209081526040808320938716835260039093019052205461127090838363ffffffff611f7116565b6001600160a01b039485166000908152600c60209081526040808320969097168252600390950190945293909220929092555050565b6000828152600d6020908152604080832060020184905592825291812060030180546001810182559082529190200155565b611317816040518060400160405280601c81526020017f436f6d7074726f6c6c65723a206e6f7420656e6f756768206465627400000000815250611747565b610a94611f9d565b611327610ca7565b6001600160a01b03166340c10f1983836040518363ffffffff1660e01b81526004016113549291906127ab565b602060405180830381600087803b15801561136e57600080fd5b505af1158015611382573d6000803e3d6000fd5b505050506040513d601f19601f820116820180604052506113a69190810190612524565b506113b2610703610e72565b6113bf576113bf8161147c565b610a81611f9d565b6004546113da908263ffffffff6118ed16565b60045550565b6006546113f490838363ffffffff611f7116565b6006555050565b6001600160a01b039283166000908152600c60209081526040808320949095168252600390930190925291902055565b6001600160a01b0383166000908152600e602052604090206003015461145890838363ffffffff611f7116565b6001600160a01b039093166000908152600e60205260409020600301929092555050565b61148581611887565b6113176110b2612070565b61149861220b565b604051806060016040528060008152602001635fbef0008152602001611c20815250905090565b60006109dd8260000151610f9b8460400151610e37866020015161102c612092565b6114e9610ca7565b6001600160a01b03166342966c68826040518263ffffffff1660e01b81526004016115149190612821565b600060405180830381600087803b15801561152e57600080fd5b505af1158015611542573d6000803e3d6000fd5b50505050611317816040518060600160405280602a8152602001612938602a91396113e0565b611570610ca7565b6001600160a01b03166323b872dd8330846040518463ffffffff1660e01b815260040161159f93929190612783565b602060405180830381600087803b1580156115b957600080fd5b505af11580156115cd573d6000803e3d6000fd5b505050506040513d601f19601f820116820180604052506115f19190810190612524565b506115fa610ca7565b6001600160a01b03166342966c68826040518263ffffffff1660e01b81526004016116259190612821565b600060405180830381600087803b15801561163f57600080fd5b505af1158015611653573d6000803e3d6000fd5b505050506113bf8160405180606001604052806028815260200161291060289139611747565b6001600160a01b0383166000908152600c602090815260408083208584526002019091529020546116b0908263ffffffff6118ed16565b6001600160a01b0384166000908152600c60209081526040808320868452600201825280832093909355600d905220600101546116f3908263ffffffff6118ed16565b6000838152600d6020526040902060010155600854611718908263ffffffff6118ed16565b600855505050565b611728610a71565b600d6000611734610e72565b8152602081019190915260400160002055565b60075461175b90838363ffffffff611f7116565b6007555050565b609690565b6001600160a01b0383166000908152600e602052604090206002015461179490838363ffffffff611f7116565b6001600160a01b039093166000908152600e60205260409020600201929092555050565b6000826117c7575060006109dd565b828202828482816117d457fe5b0414610aa45760405162461bcd60e51b81526004016117f290612811565b60405180910390fd5b6000610aa483836040518060400160405280601a81526020017f536166654d6174683a206469766973696f6e206279207a65726f000000000000815250612098565b6001600160a01b038083166000908152600e6020908152604080832093871683526004909301905220805482919060ff1916600183600281111561187d57fe5b0217905550505050565b60075461189a908263ffffffff6118ed16565b60075550565b6004546118b490838363ffffffff611f7116565b6004555050565b6118ce6118c66120cf565b610f9b610e72565b6001600160a01b039091166000908152600c6020526040902060040155565b600082820183811015610aa45760405162461bcd60e51b81526004016117f290612801565b6000610aa483836040518060400160405280601e81526020017f536166654d6174683a207375627472616374696f6e206f766572666c6f770000815250611f71565b6001600160a01b03166000908152600e60205260409020600501805460ff19166001179055565b600061198682611192565b9050806119935750610a94565b6008546119a6908263ffffffff61191216565b600855506000908152600d6020526040812060010155565b6001600160a01b0383166000908152600c60205260409020600101546119eb90838363ffffffff611f7116565b6001600160a01b0384166000908152600c6020526040902060010155600354611a1b90838363ffffffff611f7116565b6003556040516000906001600160a01b038516907fddf252ad1be2c89b69c2b068fc378daa952ba7f163c4a11628f55a4df523b3ef90611a5c908690612821565b60405180910390a3505050565b6001600160a01b0382166000908152600c6020526040902060010154611a95908263ffffffff6118ed16565b6001600160a01b0383166000908152600c6020526040902060010155600354611ac4908263ffffffff6118ed16565b6003556040516001600160a01b038316906000907fddf252ad1be2c89b69c2b068fc378daa952ba7f163c4a11628f55a4df523b3ef90611b05908590612821565b60405180910390a35050565b6001600160a01b0382166000908152600c6020526040902054611b3a908263ffffffff6118ed16565b6001600160a01b0383166000908152600c6020526040902055600554611b66908263ffffffff6118ed16565b6005555050565b611b7561222c565b6040518060200160405280611b9385670de0b6b3a7640000866120d4565b90529392505050565b6000611c2e611c29611bac610ca7565b6001600160a01b03166318160ddd6040518163ffffffff1660e01b815260040160206040518083038186803b158015611be457600080fd5b505afa158015611bf8573d6000803e3d6000fd5b505050506040513d601f19601f82011682018060405250611c1c9190810190612560565b849063ffffffff6120f216565b612119565b90506000611c3a61121d565b905081811115610b3b576000611c56828463ffffffff61191216565b9050610c3f816112d8565b6001600160a01b0383166000908152600c6020526040902054611c8b90838363ffffffff611f7116565b6001600160a01b0384166000908152600c6020526040902055600554611cb890838363ffffffff611f7116565b600555505050565b6001600160a01b0382166000908152600c602052604081206005015490611cf2611ce984610a44565b610f9b856111f0565b905081811115610c3f576001600160a01b0384166000908152600c6020526040902060050181905550505050565b6001600160a01b0384166000908152600c60209081526040808320868452600201909152902054611d5890838363ffffffff611f7116565b6001600160a01b0385166000908152600c60209081526040808320878452600201825280832093909355600d90522060010154611d9c90838363ffffffff611f7116565b6000848152600d6020526040902060010155600854611dc290838363ffffffff611f7116565b60085550505050565b611dd3610ca7565b6001600160a01b031663a9059cbb83836040518363ffffffff1660e01b8152600401611e009291906127ab565b602060405180830381600087803b158015611e1a57600080fd5b505af1158015611e2e573d6000803e3d6000fd5b505050506040513d601f19601f82011682018060405250611e529190810190612524565b506113bf816040518060600160405280602a8152602001612938602a91396113e0565b6001600160a01b0382166000908152600e6020526040902060030154611ea1908263ffffffff6118ed16565b6001600160a01b039092166000908152600e602052604090206003019190915550565b600654611ed7908263ffffffff6118ed16565b60065550565b611ee5610e72565b6001600160a01b039092166000908152600e60205260409020918255600190910155565b600254611f1d90600163ffffffff6118ed16565b600255565b6001600160a01b0382166000908152600e6020526040902060020154611f4e908263ffffffff6118ed16565b6001600160a01b039092166000908152600e602052604090206002019190915550565b60008184841115611f955760405162461bcd60e51b81526004016117f291906127f0565b505050900390565b610d52611fbe611fab610a85565b610f9b611fb66111b1565b610f9b610c4e565b611fc6610ca7565b6001600160a01b03166370a08231306040518263ffffffff1660e01b8152600401611ff19190612775565b60206040518083038186803b15801561200957600080fd5b505afa15801561201d573d6000803e3d6000fd5b505050506040513d601f19601f820116820180604052506120419190810190612560565b10156a21b7b6b83a3937b63632b960a91b74496e636f6e73697374656e742062616c616e63657360581b612136565b61207861222c565b5060408051602081019091526704db732547630000815290565b600f5490565b600081836120b95760405162461bcd60e51b81526004016117f291906127f0565b5060008385816120c557fe5b0495945050505050565b602490565b60006120ea82610e37868663ffffffff6117b816565b949350505050565b6120fa61222c565b604080516020810190915283518190611b93908563ffffffff6117b816565b80516000906109dd90670de0b6b3a764000063ffffffff6117fb16565b82610b3b576121448261218b565b6101d160f51b6121538361218b565b60405160200161216593929190612744565b60408051601f198184030181529082905262461bcd60e51b82526117f2916004016127f0565b6060808260405160200161219f919061272f565b60408051601f19818403018152919052905060205b80156121f4578151600019909101908290829081106121cf57fe5b01602001516001600160f81b031916156121ef5760010181529050610a3f565b6121b4565b505060408051600081526020810190915292915050565b60405180606001604052806000815260200160008152602001600081525090565b6040518060200160405280600081525090565b80356109dd816128dc565b80516109dd816128f0565b80356109dd816128f9565b60008083601f84011261227257600080fd5b50813567ffffffffffffffff81111561228a57600080fd5b6020830191508360018202830111156122a257600080fd5b9250929050565b80356109dd81612906565b80516109dd81612906565b6000602082840312156122d157600080fd5b60006120ea848461223f565b600080604083850312156122f057600080fd5b60006122fc858561223f565b925050602061230d8582860161223f565b9150509250929050565b60008060006060848603121561232c57600080fd5b6000612338868661223f565b93505060206123498682870161223f565b925050604061235a86828701612255565b9150509250925092565b60008060006060848603121561237957600080fd5b6000612385868661223f565b93505060206123968682870161223f565b925050604061235a868287016122a9565b6000806000806000608086880312156123bf57600080fd5b60006123cb888861223f565b95505060206123dc8882890161223f565b94505060406123ed888289016122a9565b935050606086013567ffffffffffffffff81111561240a57600080fd5b61241688828901612260565b92509250509295509295909350565b6000806040838503121561243857600080fd5b6000612444858561223f565b925050602061230d858286016122a9565b6000806000806060858703121561246b57600080fd5b6000612477878761223f565b9450506020612488878288016122a9565b935050604085013567ffffffffffffffff8111156124a557600080fd5b6124b187828801612260565b95989497509550505050565b6000806000606084860312156124d257600080fd5b60006124de868661223f565b9350506020612396868287016122a9565b60008060008060006080868803121561250757600080fd5b6000612513888861223f565b95505060206123dc888289016122a9565b60006020828403121561253657600080fd5b60006120ea848461224a565b60006020828403121561255457600080fd5b60006120ea84846122a9565b60006020828403121561257257600080fd5b60006120ea84846122b4565b60008060006040848603121561259357600080fd5b600061259f86866122a9565b935050602084013567ffffffffffffffff8111156125bc57600080fd5b6125c886828701612260565b92509250509250925092565b600080604083850312156125e757600080fd5b600061244485856122a9565b6125fc8161284a565b82525050565b6125fc81612855565b6125fc6126178261285a565b612867565b6125fc61261782612867565b60006126338261283d565b61263d8185610a3f565b935061264d81856020860161289c565b9290920192915050565b6125fc81612886565b6125fc81612891565b60006126748261283d565b61267e8185612841565b935061268e81856020860161289c565b612697816128c8565b9093019392505050565b60006126ae601b83612841565b7f536166654d6174683a206164646974696f6e206f766572666c6f770000000000815260200192915050565b60006126e7602183612841565b7f536166654d6174683a206d756c7469706c69636174696f6e206f766572666c6f8152607760f81b602082015260400192915050565b6125fc81612867565b6125fc81612880565b600061273b828461261c565b50602001919050565b60006127508286612628565b915061275c828561260b565b60028201915061276c8284612628565b95945050505050565b602081016109dd82846125f3565b6060810161279182866125f3565b61279e60208301856125f3565b6120ea604083018461271d565b604081016127b982856125f3565b610aa4602083018461271d565b602081016109dd8284612602565b602081016109dd8284612657565b602081016109dd8284612660565b60208082528101610aa48184612669565b602080825281016109dd816126a1565b602080825281016109dd816126da565b602081016109dd828461271d565b602081016109dd8284612726565b5190565b90815260200190565b60006109dd82612874565b151590565b6001600160f01b03191690565b90565b80610a3f816128d2565b6001600160a01b031690565b60ff1690565b60006109dd8261284a565b60006109dd8261286a565b60005b838110156128b757818101518382015260200161289f565b83811115610c3f5750506000910152565b601f01601f191690565b60038110610a9457fe5b6128e58161284a565b8114610a9457600080fd5b6128e581612855565b60038110610a9457600080fd5b6128e58161286756fe436f6d7074726f6c6c65723a206e6f7420656e6f756768206f75747374616e64696e672064656274436f6d7074726f6c6c65723a206e6f7420656e6f7567682072656465656d61626c652062616c616e6365a365627a7a72315820fa46026f6cbacb942f9543db8ec634a8ad8b0ebe549610ac1b6f81a2b6c040106c6578706572696d656e74616cf564736f6c6343000511004060806040523480156200001157600080fd5b5060405180604001604052806012815260200171223cb730b6b4b19029b2ba102237b63630b960711b815250604051806040016040528060038152602001621114d160ea1b81525060126200007e6200006f6200011960201b60201c565b6001600160e01b036200011e16565b82516200009390600190602086019062000313565b508151620000a990600290602085019062000313565b506003805460ff191660ff9290921691909117905550620001109050620000cf62000170565b604051806040016040528060018152602001603160f81b815250620000fe6200020960201b620016341760201c565b306200020e60201b620016391760201c565b60075562000469565b335b90565b620001398160006200026560201b62000d7e1790919060201c565b6040516001600160a01b038216907f6ae172837ea30b801fbfcdd4108aa1d5bf8ff775444fd70256b44e6bf3dfc3f690600090a250565b60018054604080516020601f60026000196101008789161502019095169490940493840181900481028201810190925282815260609390929091830182828015620001ff5780601f10620001d357610100808354040283529160200191620001ff565b820191906000526020600020905b815481529060010190602001808311620001e157829003601f168201915b5050505050905090565b600190565b8351602094850120835193850193909320604080517f8b73c3c69bb8fe3d512ecc4cf759cc79239f7b179b0ffacaa9a75d522b39400f815295860194909452928401929092526060830152608082015260a0902090565b6200027a82826001600160e01b03620002c816565b15620002a35760405162461bcd60e51b81526004016200029a9062000436565b60405180910390fd5b6001600160a01b0316600090815260209190915260409020805460ff19166001179055565b60006001600160a01b038216620002f35760405162461bcd60e51b81526004016200029a906200044e565b506001600160a01b03166000908152602091909152604090205460ff1690565b828054600181600116156101000203166002900490600052602060002090601f016020900481019282601f106200035657805160ff191683800117855562000386565b8280016001018555821562000386579182015b828111156200038657825182559160200191906001019062000369565b506200039492915062000398565b5090565b6200011b91905b808211156200039457600081556001016200039f565b6000620003c4601f8362000460565b7f526f6c65733a206163636f756e7420616c72656164792068617320726f6c6500815260200192915050565b6000620003ff60228362000460565b7f526f6c65733a206163636f756e7420697320746865207a65726f206164647265815261737360f01b602082015260400192915050565b602080825281016200044881620003b5565b92915050565b602080825281016200044881620003f0565b90815260200190565b61178d80620004796000396000f3fe608060405234801561001057600080fd5b506004361061012c5760003560e01c806395d89b41116100ad578063aa271e1a11610071578063aa271e1a14610256578063d505accf14610269578063dab400f31461027c578063dd62ed3e14610284578063e879c19f146102975761012c565b806395d89b411461020d578063983b2d56146102155780639865027514610228578063a457c2d714610230578063a9059cbb146102435761012c565b806339509351116100f457806339509351146101ac57806340c10f19146101bf57806342966c68146101d257806370a08231146101e757806379cc6790146101fa5761012c565b806306fdde0314610131578063095ea7b31461014f57806318160ddd1461016f57806323b872dd14610184578063313ce56714610197575b600080fd5b61013961029f565b60405161014691906114c6565b60405180910390f35b61016261015d366004610ffc565b610334565b604051610146919061141b565b610177610352565b6040516101469190611429565b610162610192366004610f13565b610358565b61019f6103ca565b6040516101469190611587565b6101626101ba366004610ffc565b6103d3565b6101626101cd366004610ffc565b610427565b6101e56101e036600461102c565b610463565b005b6101776101f5366004610eb3565b610477565b6101e5610208366004610ffc565b610496565b6101396104a4565b6101e5610223366004610eb3565b610502565b6101e5610532565b61016261023e366004610ffc565b610544565b610162610251366004610ffc565b6105b2565b610162610264366004610eb3565b6105c6565b6101e5610277366004610f60565b6105d8565b61017761075f565b610177610292366004610ed9565b610765565b610177610790565b60018054604080516020601f6002600019610100878916150201909516949094049384018190048102820181019092528281526060939092909183018282801561032a5780601f106102ff5761010080835404028352916020019161032a565b820191906000526020600020905b81548152906001019060200180831161030d57829003601f168201915b5050505050905090565b60006103486103416107b4565b84846107b8565b5060015b92915050565b60065490565b600061036584848461086c565b600019610374856102926107b4565b146103c0576103c0846103856107b4565b6103bb856040518060600160405280602981526020016116fd602991396103ae8a6102926107b4565b919063ffffffff61098216565b6107b8565b5060019392505050565b60035460ff1690565b60006103486103e06107b4565b846103bb85600560006103f16107b4565b6001600160a01b03908116825260208083019390935260409182016000908120918c16815292529020549063ffffffff6109ae16565b60006104346102646107b4565b6104595760405162461bcd60e51b815260040161045090611517565b60405180910390fd5b61034883836109da565b61047461046e6107b4565b82610a9a565b50565b6001600160a01b0381166000908152600460205260409020545b919050565b6104a08282610b70565b5050565b60028054604080516020601f600019610100600187161502019094168590049384018190048102820181019092528281526060939092909183018282801561032a5780601f106102ff5761010080835404028352916020019161032a565b61050d6102646107b4565b6105295760405162461bcd60e51b815260040161045090611517565b61047481610beb565b61054261053d6107b4565b610c33565b565b60006103486105516107b4565b846103bb85604051806060016040528060258152602001611726602591396005600061057b6107b4565b6001600160a01b03908116825260208083019390935260409182016000908120918d1681529252902054919063ffffffff61098216565b60006103486105bf6107b4565b848461086c565b600061034c818363ffffffff610c7b16565b6007546001600160a01b03881660009081526008602090815260408083208054600181019091559051929361065a93909261063f927f6e71edae12b1b97f4d1f60370fef10105fa2faae0126114a169c64845d6126c9928e928e928e9290918e9101611437565b60405160208183030381529060405280519060200120610cc3565b90506000600182868686604051600081526020016040526040516106819493929190611491565b6020604051602081039080840390855afa1580156106a3573d6000803e3d6000fd5b5050506020604051035190506106f0896001600160a01b0316826001600160a01b0316146a5065726d69747461626c6560a81b70496e76616c6964207369676e617475726560781b610ce2565b6107236001600160a01b03821615156a5065726d69747461626c6560a81b6b5a65726f206164647265737360a01b610ce2565b610749864211156a5065726d69747461626c6560a81b66115e1c1a5c995960ca1b610ce2565b6107548989896107b8565b505050505050505050565b60075481565b6001600160a01b03918216600090815260056020908152604080832093909416825291909152205490565b7f6e71edae12b1b97f4d1f60370fef10105fa2faae0126114a169c64845d6126c981565b3390565b6001600160a01b0383166107de5760405162461bcd60e51b815260040161045090611567565b6001600160a01b0382166108045760405162461bcd60e51b8152600401610450906114f7565b6001600160a01b0380841660008181526005602090815260408083209487168084529490915290819020849055517f8c5be1e5ebec7d5bd14f71427d1e84f3dd0314c0f7b2291e5b200ac8c7c3b9259061085f908590611429565b60405180910390a3505050565b6001600160a01b0383166108925760405162461bcd60e51b815260040161045090611557565b6001600160a01b0382166108b85760405162461bcd60e51b8152600401610450906114d7565b6108fb816040518060600160405280602681526020016116b3602691396001600160a01b038616600090815260046020526040902054919063ffffffff61098216565b6001600160a01b038085166000908152600460205260408082209390935590841681522054610930908263ffffffff6109ae16565b6001600160a01b0380841660008181526004602052604090819020939093559151908516907fddf252ad1be2c89b69c2b068fc378daa952ba7f163c4a11628f55a4df523b3ef9061085f908590611429565b600081848411156109a65760405162461bcd60e51b815260040161045091906114c6565b505050900390565b6000828201838110156109d35760405162461bcd60e51b815260040161045090611507565b9392505050565b6001600160a01b038216610a005760405162461bcd60e51b815260040161045090611577565b600654610a13908263ffffffff6109ae16565b6006556001600160a01b038216600090815260046020526040902054610a3f908263ffffffff6109ae16565b6001600160a01b0383166000818152600460205260408082209390935591519091907fddf252ad1be2c89b69c2b068fc378daa952ba7f163c4a11628f55a4df523b3ef90610a8e908590611429565b60405180910390a35050565b6001600160a01b038216610ac05760405162461bcd60e51b815260040161045090611547565b610b0381604051806060016040528060228152602001611691602291396001600160a01b038516600090815260046020526040902054919063ffffffff61098216565b6001600160a01b038316600090815260046020526040902055600654610b2f908263ffffffff610d3c16565b6006556040516000906001600160a01b038416907fddf252ad1be2c89b69c2b068fc378daa952ba7f163c4a11628f55a4df523b3ef90610a8e908590611429565b610b7a8282610a9a565b6104a082610b866107b4565b6103bb846040518060600160405280602481526020016116d9602491396001600160a01b038816600090815260056020526040812090610bc46107b4565b6001600160a01b03168152602081019190915260400160002054919063ffffffff61098216565b610bfc60008263ffffffff610d7e16565b6040516001600160a01b038216907f6ae172837ea30b801fbfcdd4108aa1d5bf8ff775444fd70256b44e6bf3dfc3f690600090a250565b610c4460008263ffffffff610dca16565b6040516001600160a01b038216907fe94479a9f7e1952cc78f2d6baab678adc1b772d936c6583def489e524cb6669290600090a250565b60006001600160a01b038216610ca35760405162461bcd60e51b815260040161045090611537565b506001600160a01b03166000908152602091909152604090205460ff1690565b60405161190160f01b8152600281019290925260228201526042902090565b82610d3757610cf082610e12565b6101d160f51b610cff83610e12565b604051602001610d11939291906113ea565b60408051601f198184030181529082905262461bcd60e51b8252610450916004016114c6565b505050565b60006109d383836040518060400160405280601e81526020017f536166654d6174683a207375627472616374696f6e206f766572666c6f770000815250610982565b610d888282610c7b565b15610da55760405162461bcd60e51b8152600401610450906114e7565b6001600160a01b0316600090815260209190915260409020805460ff19166001179055565b610dd48282610c7b565b610df05760405162461bcd60e51b815260040161045090611527565b6001600160a01b0316600090815260209190915260409020805460ff19169055565b60608082604051602001610e2691906113d5565b60408051601f19818403018152919052905060205b8015610e7b57815160001990910190829082908110610e5657fe5b01602001516001600160f81b03191615610e765760010181529050610491565b610e3b565b505060408051600081526020810190915292915050565b803561034c8161160e565b803561034c81611622565b803561034c8161162b565b600060208284031215610ec557600080fd5b6000610ed18484610e92565b949350505050565b60008060408385031215610eec57600080fd5b6000610ef88585610e92565b9250506020610f0985828601610e92565b9150509250929050565b600080600060608486031215610f2857600080fd5b6000610f348686610e92565b9350506020610f4586828701610e92565b9250506040610f5686828701610e9d565b9150509250925092565b600080600080600080600060e0888a031215610f7b57600080fd5b6000610f878a8a610e92565b9750506020610f988a828b01610e92565b9650506040610fa98a828b01610e9d565b9550506060610fba8a828b01610e9d565b9450506080610fcb8a828b01610ea8565b93505060a0610fdc8a828b01610e9d565b92505060c0610fed8a828b01610e9d565b91505092959891949750929550565b6000806040838503121561100f57600080fd5b600061101b8585610e92565b9250506020610f0985828601610e9d565b60006020828403121561103e57600080fd5b6000610ed18484610e9d565b611053816115a2565b82525050565b611053816115ad565b61105361106e826115b2565b6115bf565b611053816115bf565b61105361106e826115bf565b600061109382611595565b61109d8185610491565b93506110ad8185602086016115d4565b9290920192915050565b60006110c282611595565b6110cc8185611599565b93506110dc8185602086016115d4565b6110e581611604565b9093019392505050565b60006110fc602383611599565b7f45524332303a207472616e7366657220746f20746865207a65726f206164647281526265737360e81b602082015260400192915050565b6000611141601f83611599565b7f526f6c65733a206163636f756e7420616c72656164792068617320726f6c6500815260200192915050565b600061117a602283611599565b7f45524332303a20617070726f766520746f20746865207a65726f206164647265815261737360f01b602082015260400192915050565b60006111be601b83611599565b7f536166654d6174683a206164646974696f6e206f766572666c6f770000000000815260200192915050565b60006111f7603083611599565b7f4d696e746572526f6c653a2063616c6c657220646f6573206e6f74206861766581526f20746865204d696e74657220726f6c6560801b602082015260400192915050565b6000611249602183611599565b7f526f6c65733a206163636f756e7420646f6573206e6f74206861766520726f6c8152606560f81b602082015260400192915050565b600061128c602283611599565b7f526f6c65733a206163636f756e7420697320746865207a65726f206164647265815261737360f01b602082015260400192915050565b60006112d0602183611599565b7f45524332303a206275726e2066726f6d20746865207a65726f206164647265738152607360f81b602082015260400192915050565b6000611313602583611599565b7f45524332303a207472616e736665722066726f6d20746865207a65726f206164815264647265737360d81b602082015260400192915050565b600061135a602483611599565b7f45524332303a20617070726f76652066726f6d20746865207a65726f206164648152637265737360e01b602082015260400192915050565b60006113a0601f83611599565b7f45524332303a206d696e7420746f20746865207a65726f206164647265737300815260200192915050565b611053816115ce565b60006113e1828461107c565b50602001919050565b60006113f68286611088565b91506114028285611062565b6002820191506114128284611088565b95945050505050565b6020810161034c8284611059565b6020810161034c8284611073565b60c081016114458289611073565b611452602083018861104a565b61145f604083018761104a565b61146c6060830186611073565b6114796080830185611073565b61148660a0830184611073565b979650505050505050565b6080810161149f8287611073565b6114ac60208301866113cc565b6114b96040830185611073565b6114126060830184611073565b602080825281016109d381846110b7565b6020808252810161034c816110ef565b6020808252810161034c81611134565b6020808252810161034c8161116d565b6020808252810161034c816111b1565b6020808252810161034c816111ea565b6020808252810161034c8161123c565b6020808252810161034c8161127f565b6020808252810161034c816112c3565b6020808252810161034c81611306565b6020808252810161034c8161134d565b6020808252810161034c81611393565b6020810161034c82846113cc565b5190565b90815260200190565b600061034c826115c2565b151590565b6001600160f01b03191690565b90565b6001600160a01b031690565b60ff1690565b60005b838110156115ef5781810151838201526020016115d7565b838111156115fe576000848401525b50505050565b601f01601f191690565b611617816115a2565b811461047457600080fd5b611617816115bf565b611617816115ce565b600190565b8351602094850120835193850193909320604080517f8b73c3c69bb8fe3d512ecc4cf759cc79239f7b179b0ffacaa9a75d522b39400f815295860194909452928401929092526060830152608082015260a090209056fe45524332303a206275726e20616d6f756e7420657863656564732062616c616e636545524332303a207472616e7366657220616d6f756e7420657863656564732062616c616e636545524332303a206275726e20616d6f756e74206578636565647320616c6c6f77616e6365446f6c6c61723a207472616e7366657220616d6f756e74206578636565647320616c6c6f77616e636545524332303a2064656372656173656420616c6c6f77616e63652062656c6f77207a65726fa365627a7a723158203e95e3d3fa85fd718716875e661179418ecad6cb835113952f812d6ca66506066c6578706572696d656e74616cf564736f6c63430005110040",
  "source": "/*\n    Copyright 2020 Dynamic Dollar Devs, based on the works of the Empty Set Squad\n\n    Licensed under the Apache License, Version 2.0 (the \"License\");\n    you may not use this file except in compliance with the License.\n    You may obtain a copy of the License at\n\n    http://www.apache.org/licenses/LICENSE-2.0\n\n    Unless required by applicable law or agreed to in writing, software\n    distributed under the License is distributed on an \"AS IS\" BASIS,\n    WITHOUT WARRANTIES OR CONDITIONS OF ANY KIND, either express or implied.\n    See the License for the specific language governing permissions and\n    limitations under the License.\n*/\n\npragma solidity ^0.5.17;\npragma experimental ABIEncoderV2;\n\nimport \"../dao/Comptroller.sol\";\nimport \"../token/Dollar.sol\";\nimport \"./MockState.sol\";\n\ncontract MockComptroller is Comptroller, MockState {\n    constructor(address pool) public {\n        _state.provider.dollar = new Dollar();\n        _state.provider.pool = pool;\n    }\n\n    function mintToAccountE(address account, uint256 amount) external {\n        super.mintToAccount(account, amount);\n    }\n\n    function burnFromAccountE(address account, uint256 amount) external {\n        super.burnFromAccount(account, amount);\n    }\n\n    function redeemToAccountE(address account, uint256 amount) external {\n        super.redeemToAccount(account, amount);\n    }\n\n    function burnRedeemableE(uint256 amount) external {\n        super.burnRedeemable(amount);\n    }\n\n    function increaseDebtE(uint256 amount) external {\n        super.increaseDebt(amount);\n    }\n\n    function decreaseDebtE(uint256 amount) external {\n        super.decreaseDebt(amount);\n    }\n\n    function resetDebtE(uint256 percent) external {\n        super.resetDebt(Decimal.ratio(percent, 100));\n    }\n\n    /* For testing only */\n    function mintToE(address account, uint256 amount) external {\n        dollar().mint(account, amount);\n    }\n}\n",
  "sourcePath": "/home/name/Desktop/Files/projects/dynamic/dollar/protocol/contracts/mock/MockComptroller.sol",
  "compiler": {
    "name": "solc",
    "version": "0.5.17+commit.d19bba13.Emscripten.clang"
  },
  "schemaVersion": "3.3.1",
  "updatedAt": "2020-11-25T22:34:45.253Z",
  "devdoc": {
    "methods": {}
  },
  "userdoc": {
    "methods": {
      "balanceOfStaged(address)": {
        "notice": "Account"
      },
      "createCandidateE(address,uint256)": {
        "notice": "Governance"
      },
      "dollar()": {
        "notice": "Global"
      },
      "epoch()": {
        "notice": "Epoch"
      },
      "incrementBalanceOfE(address,uint256)": {
        "notice": "Account"
      },
      "incrementTotalBondedE(uint256)": {
        "notice": "Global"
      },
      "name()": {
        "notice": "ERC20 Interface"
      },
      "recordedVote(address,address)": {
        "notice": "Governance"
      },
      "setBlockTimestamp(uint256)": {
        "notice": "Mock"
      },
      "setEpochParamsE(uint256,uint256)": {
        "notice": "Epoch"
      },
      "transfer(address,uint256)": {
        "notice": "ERC20 Interface"
      }
    }
  }
}