{
  "contractName": "MockPoolState",
  "abi": [
    {
      "constant": true,
      "inputs": [
        {
          "internalType": "address",
          "name": "account",
          "type": "address"
        }
      ],
      "name": "balanceOfBonded",
      "outputs": [
        {
          "internalType": "uint256",
          "name": "",
          "type": "uint256"
        }
      ],
      "payable": false,
      "stateMutability": "view",
      "type": "function"
    },
    {
      "constant": true,
      "inputs": [
        {
          "internalType": "address",
          "name": "account",
          "type": "address"
        }
      ],
      "name": "balanceOfClaimable",
      "outputs": [
        {
          "internalType": "uint256",
          "name": "",
          "type": "uint256"
        }
      ],
      "payable": false,
      "stateMutability": "view",
      "type": "function"
    },
    {
      "constant": true,
      "inputs": [
        {
          "internalType": "address",
          "name": "account",
          "type": "address"
        }
      ],
      "name": "balanceOfPhantom",
      "outputs": [
        {
          "internalType": "uint256",
          "name": "",
          "type": "uint256"
        }
      ],
      "payable": false,
      "stateMutability": "view",
      "type": "function"
    },
    {
      "constant": true,
      "inputs": [
        {
          "internalType": "address",
          "name": "account",
          "type": "address"
        }
      ],
      "name": "balanceOfRewarded",
      "outputs": [
        {
          "internalType": "uint256",
          "name": "",
          "type": "uint256"
        }
      ],
      "payable": false,
      "stateMutability": "view",
      "type": "function"
    },
    {
      "constant": true,
      "inputs": [
        {
          "internalType": "address",
          "name": "account",
          "type": "address"
        }
      ],
      "name": "balanceOfStaged",
      "outputs": [
        {
          "internalType": "uint256",
          "name": "",
          "type": "uint256"
        }
      ],
      "payable": false,
      "stateMutability": "view",
      "type": "function"
    },
    {
      "constant": true,
      "inputs": [
        {
          "internalType": "address",
          "name": "account",
          "type": "address"
        }
      ],
      "name": "fluidUntil",
      "outputs": [
        {
          "internalType": "uint256",
          "name": "",
          "type": "uint256"
        }
      ],
      "payable": false,
      "stateMutability": "view",
      "type": "function"
    },
    {
      "constant": true,
      "inputs": [],
      "name": "paused",
      "outputs": [
        {
          "internalType": "bool",
          "name": "",
          "type": "bool"
        }
      ],
      "payable": false,
      "stateMutability": "view",
      "type": "function"
    },
    {
      "constant": true,
      "inputs": [
        {
          "internalType": "address",
          "name": "account",
          "type": "address"
        }
      ],
      "name": "statusOf",
      "outputs": [
        {
          "internalType": "enum PoolAccount.Status",
          "name": "",
          "type": "uint8"
        }
      ],
      "payable": false,
      "stateMutability": "view",
      "type": "function"
    },
    {
      "constant": true,
      "inputs": [],
      "name": "totalBonded",
      "outputs": [
        {
          "internalType": "uint256",
          "name": "",
          "type": "uint256"
        }
      ],
      "payable": false,
      "stateMutability": "view",
      "type": "function"
    },
    {
      "constant": true,
      "inputs": [],
      "name": "totalClaimable",
      "outputs": [
        {
          "internalType": "uint256",
          "name": "",
          "type": "uint256"
        }
      ],
      "payable": false,
      "stateMutability": "view",
      "type": "function"
    },
    {
      "constant": true,
      "inputs": [],
      "name": "totalPhantom",
      "outputs": [
        {
          "internalType": "uint256",
          "name": "",
          "type": "uint256"
        }
      ],
      "payable": false,
      "stateMutability": "view",
      "type": "function"
    },
    {
      "constant": true,
      "inputs": [],
      "name": "totalRewarded",
      "outputs": [
        {
          "internalType": "uint256",
          "name": "",
          "type": "uint256"
        }
      ],
      "payable": false,
      "stateMutability": "view",
      "type": "function"
    },
    {
      "constant": true,
      "inputs": [],
      "name": "totalStaged",
      "outputs": [
        {
          "internalType": "uint256",
          "name": "",
          "type": "uint256"
        }
      ],
      "payable": false,
      "stateMutability": "view",
      "type": "function"
    },
    {
      "constant": true,
      "inputs": [],
      "name": "univ2",
      "outputs": [
        {
          "internalType": "contract IERC20",
          "name": "",
          "type": "address"
        }
      ],
      "payable": false,
      "stateMutability": "view",
      "type": "function"
    },
    {
      "constant": true,
      "inputs": [],
      "name": "usdc",
      "outputs": [
        {
          "internalType": "address",
          "name": "",
          "type": "address"
        }
      ],
      "payable": false,
      "stateMutability": "view",
      "type": "function"
    },
    {
      "constant": false,
      "inputs": [
        {
          "internalType": "address",
          "name": "dao",
          "type": "address"
        },
        {
          "internalType": "address",
          "name": "dollar",
          "type": "address"
        }
      ],
      "name": "set",
      "outputs": [],
      "payable": false,
      "stateMutability": "nonpayable",
      "type": "function"
    },
    {
      "constant": true,
      "inputs": [],
      "name": "dao",
      "outputs": [
        {
          "internalType": "contract IDAO",
          "name": "",
          "type": "address"
        }
      ],
      "payable": false,
      "stateMutability": "view",
      "type": "function"
    },
    {
      "constant": true,
      "inputs": [],
      "name": "dollar",
      "outputs": [
        {
          "internalType": "contract IDollar",
          "name": "",
          "type": "address"
        }
      ],
      "payable": false,
      "stateMutability": "view",
      "type": "function"
    },
    {
      "constant": false,
      "inputs": [
        {
          "internalType": "address",
          "name": "account",
          "type": "address"
        },
        {
          "internalType": "uint256",
          "name": "amount",
          "type": "uint256"
        }
      ],
      "name": "incrementBalanceOfBondedE",
      "outputs": [],
      "payable": false,
      "stateMutability": "nonpayable",
      "type": "function"
    },
    {
      "constant": false,
      "inputs": [
        {
          "internalType": "address",
          "name": "account",
          "type": "address"
        },
        {
          "internalType": "uint256",
          "name": "amount",
          "type": "uint256"
        },
        {
          "internalType": "string",
          "name": "reason",
          "type": "string"
        }
      ],
      "name": "decrementBalanceOfBondedE",
      "outputs": [],
      "payable": false,
      "stateMutability": "nonpayable",
      "type": "function"
    },
    {
      "constant": false,
      "inputs": [
        {
          "internalType": "address",
          "name": "account",
          "type": "address"
        },
        {
          "internalType": "uint256",
          "name": "amount",
          "type": "uint256"
        }
      ],
      "name": "incrementBalanceOfStagedE",
      "outputs": [],
      "payable": false,
      "stateMutability": "nonpayable",
      "type": "function"
    },
    {
      "constant": false,
      "inputs": [
        {
          "internalType": "address",
          "name": "account",
          "type": "address"
        },
        {
          "internalType": "uint256",
          "name": "amount",
          "type": "uint256"
        },
        {
          "internalType": "string",
          "name": "reason",
          "type": "string"
        }
      ],
      "name": "decrementBalanceOfStagedE",
      "outputs": [],
      "payable": false,
      "stateMutability": "nonpayable",
      "type": "function"
    },
    {
      "constant": false,
      "inputs": [
        {
          "internalType": "address",
          "name": "account",
          "type": "address"
        },
        {
          "internalType": "uint256",
          "name": "amount",
          "type": "uint256"
        }
      ],
      "name": "incrementBalanceOfClaimableE",
      "outputs": [],
      "payable": false,
      "stateMutability": "nonpayable",
      "type": "function"
    },
    {
      "constant": false,
      "inputs": [
        {
          "internalType": "address",
          "name": "account",
          "type": "address"
        },
        {
          "internalType": "uint256",
          "name": "amount",
          "type": "uint256"
        },
        {
          "internalType": "string",
          "name": "reason",
          "type": "string"
        }
      ],
      "name": "decrementBalanceOfClaimableE",
      "outputs": [],
      "payable": false,
      "stateMutability": "nonpayable",
      "type": "function"
    },
    {
      "constant": false,
      "inputs": [
        {
          "internalType": "address",
          "name": "account",
          "type": "address"
        },
        {
          "internalType": "uint256",
          "name": "amount",
          "type": "uint256"
        }
      ],
      "name": "incrementBalanceOfPhantomE",
      "outputs": [],
      "payable": false,
      "stateMutability": "nonpayable",
      "type": "function"
    },
    {
      "constant": false,
      "inputs": [
        {
          "internalType": "address",
          "name": "account",
          "type": "address"
        },
        {
          "internalType": "uint256",
          "name": "amount",
          "type": "uint256"
        },
        {
          "internalType": "string",
          "name": "reason",
          "type": "string"
        }
      ],
      "name": "decrementBalanceOfPhantomE",
      "outputs": [],
      "payable": false,
      "stateMutability": "nonpayable",
      "type": "function"
    },
    {
      "constant": false,
      "inputs": [
        {
          "internalType": "address",
          "name": "account",
          "type": "address"
        }
      ],
      "name": "unfreezeE",
      "outputs": [],
      "payable": false,
      "stateMutability": "nonpayable",
      "type": "function"
    }
  ],
  "bytecode": "0x608060405234801561001057600080fd5b5061107c806100206000396000f3fe608060405234801561001057600080fd5b50600436106101a95760003560e01c806356a7d6ce116100f95780639be4649311610097578063b32a2f9011610071578063b32a2f9014610357578063c0d7a94f1461036a578063cf0237791461037d578063e0cf728514610385576101a9565b80639be4649314610329578063aed29d071461033c578063b11ee0e314610344576101a9565b8063825ad607116100d3578063825ad607146102d057806386cf9f14146102e357806389675cac146102f657806397a5d5b514610309576101a9565b806356a7d6ce146102a05780635c975abb146102b35780637298d36e146102c8576101a9565b8063400d56ac1161016657806344d96e951161014057806344d96e95146102755780634838ed191461027d57806351adeb571461028557806351bf21d81461028d576101a9565b8063400d56ac1461023a5780634162169f1461024d578063447ca8b414610262576101a9565b80631667eb17146101ae57806326ff681a146101d757806329f32ed4146101ec5780633cdb7767146101ff5780633d2286d3146102125780633e413bee14610225575b600080fd5b6101c16101bc366004610d1c565b61038d565b6040516101ce9190610f82565b60405180910390f35b6101ea6101e5366004610d7c565b6103af565b005b6101c16101fa366004610d1c565b6103bd565b6101ea61020d366004610d7c565b6103db565b6101ea610220366004610dac565b6103e5565b61022d61042c565b6040516101ce9190610f19565b6101ea610248366004610dac565b61043b565b61025561047c565b6040516101ce9190610f35565b6101ea610270366004610dac565b61048b565b6101c16104cc565b6101c16104d2565b6102556104d8565b6101c161029b366004610d1c565b6104e7565b6101ea6102ae366004610d7c565b610505565b6102bb61050f565b6040516101ce9190610f27565b610255610518565b6101c16102de366004610d1c565b610527565b6101c16102f1366004610d1c565b610545565b6101ea610304366004610d42565b610560565b61031c610317366004610d1c565b61058e565b6040516101ce9190610f43565b6101ea610337366004610d1c565b6105c8565b6101c16105d4565b6101ea610352366004610d7c565b610670565b6101ea610365366004610dac565b61067a565b6101c1610378366004610d1c565b6106bb565b6101c1610763565b6101c1610769565b6001600160a01b0381166000908152600860205260409020600101545b919050565b6103b9828261076f565b5050565b6001600160a01b031660009081526008602052604090206003015490565b6103b982826107d4565b610426848484848080601f01602080910402602001604051908101604052809392919081815260200183838082843760009201919091525061083992505050565b50505050565b60006104366108a1565b905090565b610426848484848080601f0160208091040260200160405190810160405280939291908181526020018383808284376000920191909152506108b992505050565b6009546001600160a01b031690565b610426848484848080601f01602080910402602001604051908101604052809392919081815260200183838082843760009201919091525061092192505050565b60025490565b60015490565b600a546001600160a01b031690565b6001600160a01b031660009081526008602052604090206004015490565b6103b98282610989565b60075460ff1690565b6006546001600160a01b031690565b6001600160a01b031660009081526008602052604090206002015490565b6001600160a01b031660009081526008602052604090205490565b600980546001600160a01b039384166001600160a01b031991821617909155600a8054929093169116179055565b6001600160a01b0381166000908152600860205260408120600401546105b26109ee565b10156105bf5760016105c2565b60005b92915050565b6105d181610a68565b50565b60006104366105e16104d2565b6105e96104d8565b6001600160a01b03166370a08231306040518263ffffffff1660e01b81526004016106149190610f19565b60206040518083038186803b15801561062c57600080fd5b505afa158015610640573d6000803e3d6000fd5b505050506040513d601f19601f820116820180604052506106649190810190610e14565b9063ffffffff610a9a16565b6103b98282610ae3565b610426848484848080601f016020809104026020016040519081016040528093929190818152602001838380828437600092019190915250610b4092505050565b6000806106c66104cc565b9050806106d75760009150506103aa565b60006106f86106e4610769565b6106ec6105d4565b9063ffffffff610ba016565b905060006107258361071961070c88610527565b859063ffffffff610bce16565b9063ffffffff610c0816565b90506000610732866103bd565b9050808211156107575761074c828263ffffffff610a9a16565b9450505050506103aa565b50600095945050505050565b60005490565b60035490565b6001600160a01b03821660009081526008602052604090206002015461079b908263ffffffff610ba016565b6001600160a01b0383166000908152600860205260409020600290810191909155546107cd908263ffffffff610ba016565b6002555050565b6001600160a01b038216600090815260086020526040902060010154610800908263ffffffff610ba016565b6001600160a01b038316600090815260086020526040902060019081019190915554610832908263ffffffff610ba016565b6001555050565b6001600160a01b03831660009081526008602052604090206003015461086690838363ffffffff610c4a16565b6001600160a01b03841660009081526008602052604090206003908101919091555461089990838363ffffffff610c4a16565b600355505050565b73a0b86991c6218b36c1d19d4a2e9eb0ce3606eb4890565b6001600160a01b0383166000908152600860205260409020600201546108e690838363ffffffff610c4a16565b6001600160a01b03841660009081526008602052604090206002908101919091555461091990838363ffffffff610c4a16565b600255505050565b6001600160a01b03831660009081526008602052604090206001015461094e90838363ffffffff610c4a16565b6001600160a01b03841660009081526008602052604090206001908101919091555461098190838363ffffffff610c4a16565b600155505050565b6001600160a01b0382166000908152600860205260409020600301546109b5908263ffffffff610ba016565b6001600160a01b0383166000908152600860205260409020600390810191909155546109e7908263ffffffff610ba016565b6003555050565b60006109f861047c565b6001600160a01b031663900cf0cf6040518163ffffffff1660e01b815260040160206040518083038186803b158015610a3057600080fd5b505afa158015610a44573d6000803e3d6000fd5b505050506040513d601f19601f820116820180604052506104369190810190610e14565b610a7b610a73610c76565b6106ec6109ee565b6001600160a01b03909116600090815260086020526040902060040155565b6000610adc83836040518060400160405280601e81526020017f536166654d6174683a207375627472616374696f6e206f766572666c6f770000815250610c4a565b9392505050565b6001600160a01b038216600090815260086020526040902054610b0c908263ffffffff610ba016565b6001600160a01b03831660009081526008602052604081209190915554610b39908263ffffffff610ba016565b6000555050565b6001600160a01b038316600090815260086020526040902054610b6a90838363ffffffff610c4a16565b6001600160a01b03841660009081526008602052604081209190915554610b9890838363ffffffff610c4a16565b600055505050565b600082820183811015610adc5760405162461bcd60e51b8152600401610bc590610f62565b60405180910390fd5b600082610bdd575060006105c2565b82820282848281610bea57fe5b0414610adc5760405162461bcd60e51b8152600401610bc590610f72565b6000610adc83836040518060400160405280601a81526020017f536166654d6174683a206469766973696f6e206279207a65726f000000000000815250610c7b565b60008184841115610c6e5760405162461bcd60e51b8152600401610bc59190610f51565b505050900390565b600c90565b60008183610c9c5760405162461bcd60e51b8152600401610bc59190610f51565b506000838581610ca857fe5b0495945050505050565b80356105c28161101c565b60008083601f840112610ccf57600080fd5b50813567ffffffffffffffff811115610ce757600080fd5b602083019150836001820283011115610cff57600080fd5b9250929050565b80356105c281611030565b80516105c281611030565b600060208284031215610d2e57600080fd5b6000610d3a8484610cb2565b949350505050565b60008060408385031215610d5557600080fd5b6000610d618585610cb2565b9250506020610d7285828601610cb2565b9150509250929050565b60008060408385031215610d8f57600080fd5b6000610d9b8585610cb2565b9250506020610d7285828601610d06565b60008060008060608587031215610dc257600080fd5b6000610dce8787610cb2565b9450506020610ddf87828801610d06565b935050604085013567ffffffffffffffff811115610dfc57600080fd5b610e0887828801610cbd565b95989497509550505050565b600060208284031215610e2657600080fd5b6000610d3a8484610d11565b610e3b81610f9d565b82525050565b610e3b81610fa8565b610e3b81610fc6565b610e3b81610fd1565b6000610e6782610f90565b610e718185610f94565b9350610e81818560208601610fdc565b610e8a81611008565b9093019392505050565b6000610ea1601b83610f94565b7f536166654d6174683a206164646974696f6e206f766572666c6f770000000000815260200192915050565b6000610eda602183610f94565b7f536166654d6174683a206d756c7469706c69636174696f6e206f766572666c6f8152607760f81b602082015260400192915050565b610e3b81610fc3565b602081016105c28284610e32565b602081016105c28284610e41565b602081016105c28284610e4a565b602081016105c28284610e53565b60208082528101610adc8184610e5c565b602080825281016105c281610e94565b602080825281016105c281610ecd565b602081016105c28284610f10565b5190565b90815260200190565b60006105c282610fb7565b151590565b806103aa81611012565b6001600160a01b031690565b90565b60006105c282610f9d565b60006105c282610fad565b60005b83811015610ff7578181015183820152602001610fdf565b838111156104265750506000910152565b601f01601f191690565b600381106105d157fe5b61102581610f9d565b81146105d157600080fd5b61102581610fc356fea365627a7a72315820296dc11f20827e3720710001236ea69e8b49000e8c82464f9b6344e3c65584666c6578706572696d656e74616cf564736f6c63430005110040",
  "source": "/*\n    Copyright 2020 Dynamic Dollar Devs, based on the works of the Empty Set Squad\n\n    Licensed under the Apache License, Version 2.0 (the \"License\");\n    you may not use this file except in compliance with the License.\n    You may obtain a copy of the License at\n\n    http://www.apache.org/licenses/LICENSE-2.0\n\n    Unless required by applicable law or agreed to in writing, software\n    distributed under the License is distributed on an \"AS IS\" BASIS,\n    WITHOUT WARRANTIES OR CONDITIONS OF ANY KIND, either express or implied.\n    See the License for the specific language governing permissions and\n    limitations under the License.\n*/\n\npragma solidity ^0.5.17;\npragma experimental ABIEncoderV2;\n\nimport \"../oracle/PoolSetters.sol\";\n\ncontract MockPoolState is PoolSetters {\n    address private _dao;\n    address private _dollar;\n\n    function set(address dao, address dollar) external {\n        _dao = dao;\n        _dollar = dollar;\n    }\n\n    function dao() public view returns (IDAO) {\n        return IDAO(_dao);\n    }\n\n    function dollar() public view returns (IDollar) {\n        return IDollar(_dollar);\n    }\n\n    /**\n     * Account\n     */\n\n    function incrementBalanceOfBondedE(address account, uint256 amount) external {\n        super.incrementBalanceOfBonded(account, amount);\n    }\n\n    function decrementBalanceOfBondedE(address account, uint256 amount, string calldata reason) external {\n        super.decrementBalanceOfBonded(account, amount, reason);\n    }\n\n    function incrementBalanceOfStagedE(address account, uint256 amount) external {\n        super.incrementBalanceOfStaged(account, amount);\n    }\n\n    function decrementBalanceOfStagedE(address account, uint256 amount, string calldata reason) external {\n        super.decrementBalanceOfStaged(account, amount, reason);\n    }\n\n    function incrementBalanceOfClaimableE(address account, uint256 amount) external {\n        super.incrementBalanceOfClaimable(account, amount);\n    }\n\n    function decrementBalanceOfClaimableE(address account, uint256 amount, string calldata reason) external {\n        super.decrementBalanceOfClaimable(account, amount, reason);\n    }\n\n    function incrementBalanceOfPhantomE(address account, uint256 amount) external {\n        super.incrementBalanceOfPhantom(account, amount);\n    }\n\n    function decrementBalanceOfPhantomE(address account, uint256 amount, string calldata reason) external {\n        super.decrementBalanceOfPhantom(account, amount, reason);\n    }\n\n    function unfreezeE(address account) external {\n        super.unfreeze(account);\n    }\n}\n",
  "sourcePath": "/Users/cinquemb/Documents/Startups/crypto/dollar/protocol/contracts/mock/MockPoolState.sol",
  "compiler": {
    "name": "solc",
    "version": "0.5.17+commit.d19bba13.Emscripten.clang"
  },
  "schemaVersion": "3.3.3",
  "updatedAt": "2021-01-12T08:04:49.874Z",
  "devdoc": {
    "methods": {}
  },
  "userdoc": {
    "methods": {
      "balanceOfStaged(address)": {
        "notice": "Account"
      },
      "incrementBalanceOfBondedE(address,uint256)": {
        "notice": "Account"
      },
      "usdc()": {
        "notice": "Global"
      }
    }
  }
}