{
  "contractName": "MockUniswapV2PairTrade",
  "abi": [
    {
      "anonymous": false,
      "inputs": [
        {
          "indexed": true,
          "internalType": "address",
          "name": "owner",
          "type": "address"
        },
        {
          "indexed": true,
          "internalType": "address",
          "name": "spender",
          "type": "address"
        },
        {
          "indexed": false,
          "internalType": "uint256",
          "name": "value",
          "type": "uint256"
        }
      ],
      "name": "Approval",
      "type": "event"
    },
    {
      "anonymous": false,
      "inputs": [
        {
          "indexed": true,
          "internalType": "address",
          "name": "sender",
          "type": "address"
        },
        {
          "indexed": false,
          "internalType": "uint256",
          "name": "amount0",
          "type": "uint256"
        },
        {
          "indexed": false,
          "internalType": "uint256",
          "name": "amount1",
          "type": "uint256"
        },
        {
          "indexed": true,
          "internalType": "address",
          "name": "to",
          "type": "address"
        }
      ],
      "name": "Burn",
      "type": "event"
    },
    {
      "anonymous": false,
      "inputs": [
        {
          "indexed": true,
          "internalType": "address",
          "name": "sender",
          "type": "address"
        },
        {
          "indexed": false,
          "internalType": "uint256",
          "name": "amount0",
          "type": "uint256"
        },
        {
          "indexed": false,
          "internalType": "uint256",
          "name": "amount1",
          "type": "uint256"
        }
      ],
      "name": "Mint",
      "type": "event"
    },
    {
      "anonymous": false,
      "inputs": [
        {
          "indexed": true,
          "internalType": "address",
          "name": "sender",
          "type": "address"
        },
        {
          "indexed": false,
          "internalType": "uint256",
          "name": "amount0In",
          "type": "uint256"
        },
        {
          "indexed": false,
          "internalType": "uint256",
          "name": "amount1In",
          "type": "uint256"
        },
        {
          "indexed": false,
          "internalType": "uint256",
          "name": "amount0Out",
          "type": "uint256"
        },
        {
          "indexed": false,
          "internalType": "uint256",
          "name": "amount1Out",
          "type": "uint256"
        },
        {
          "indexed": true,
          "internalType": "address",
          "name": "to",
          "type": "address"
        }
      ],
      "name": "Swap",
      "type": "event"
    },
    {
      "anonymous": false,
      "inputs": [
        {
          "indexed": false,
          "internalType": "uint112",
          "name": "reserve0",
          "type": "uint112"
        },
        {
          "indexed": false,
          "internalType": "uint112",
          "name": "reserve1",
          "type": "uint112"
        }
      ],
      "name": "Sync",
      "type": "event"
    },
    {
      "anonymous": false,
      "inputs": [
        {
          "indexed": true,
          "internalType": "address",
          "name": "from",
          "type": "address"
        },
        {
          "indexed": true,
          "internalType": "address",
          "name": "to",
          "type": "address"
        },
        {
          "indexed": false,
          "internalType": "uint256",
          "name": "value",
          "type": "uint256"
        }
      ],
      "name": "Transfer",
      "type": "event"
    },
    {
      "constant": true,
      "inputs": [],
      "name": "price0CumulativeLast",
      "outputs": [
        {
          "internalType": "uint256",
          "name": "",
          "type": "uint256"
        }
      ],
      "payable": false,
      "stateMutability": "view",
      "type": "function"
    },
    {
      "constant": true,
      "inputs": [],
      "name": "price1CumulativeLast",
      "outputs": [
        {
          "internalType": "uint256",
          "name": "",
          "type": "uint256"
        }
      ],
      "payable": false,
      "stateMutability": "view",
      "type": "function"
    },
    {
      "constant": true,
      "inputs": [],
      "name": "getReserves",
      "outputs": [
        {
          "internalType": "uint112",
          "name": "",
          "type": "uint112"
        },
        {
          "internalType": "uint112",
          "name": "",
          "type": "uint112"
        },
        {
          "internalType": "uint32",
          "name": "",
          "type": "uint32"
        }
      ],
      "payable": false,
      "stateMutability": "view",
      "type": "function"
    },
    {
      "constant": false,
      "inputs": [
        {
          "internalType": "uint112",
          "name": "newReserve0",
          "type": "uint112"
        },
        {
          "internalType": "uint112",
          "name": "newReserve1",
          "type": "uint112"
        }
      ],
      "name": "simulateTrade",
      "outputs": [],
      "payable": false,
      "stateMutability": "nonpayable",
      "type": "function"
    },
    {
      "constant": true,
      "inputs": [],
      "name": "name",
      "outputs": [
        {
          "internalType": "string",
          "name": "",
          "type": "string"
        }
      ],
      "payable": false,
      "stateMutability": "pure",
      "type": "function"
    },
    {
      "constant": true,
      "inputs": [],
      "name": "symbol",
      "outputs": [
        {
          "internalType": "string",
          "name": "",
          "type": "string"
        }
      ],
      "payable": false,
      "stateMutability": "pure",
      "type": "function"
    },
    {
      "constant": true,
      "inputs": [],
      "name": "decimals",
      "outputs": [
        {
          "internalType": "uint8",
          "name": "",
          "type": "uint8"
        }
      ],
      "payable": false,
      "stateMutability": "pure",
      "type": "function"
    },
    {
      "constant": true,
      "inputs": [],
      "name": "totalSupply",
      "outputs": [
        {
          "internalType": "uint256",
          "name": "",
          "type": "uint256"
        }
      ],
      "payable": false,
      "stateMutability": "view",
      "type": "function"
    },
    {
      "constant": true,
      "inputs": [
        {
          "internalType": "address",
          "name": "owner",
          "type": "address"
        }
      ],
      "name": "balanceOf",
      "outputs": [
        {
          "internalType": "uint256",
          "name": "",
          "type": "uint256"
        }
      ],
      "payable": false,
      "stateMutability": "view",
      "type": "function"
    },
    {
      "constant": true,
      "inputs": [
        {
          "internalType": "address",
          "name": "owner",
          "type": "address"
        },
        {
          "internalType": "address",
          "name": "spender",
          "type": "address"
        }
      ],
      "name": "allowance",
      "outputs": [
        {
          "internalType": "uint256",
          "name": "",
          "type": "uint256"
        }
      ],
      "payable": false,
      "stateMutability": "view",
      "type": "function"
    },
    {
      "constant": false,
      "inputs": [
        {
          "internalType": "address",
          "name": "spender",
          "type": "address"
        },
        {
          "internalType": "uint256",
          "name": "value",
          "type": "uint256"
        }
      ],
      "name": "approve",
      "outputs": [
        {
          "internalType": "bool",
          "name": "",
          "type": "bool"
        }
      ],
      "payable": false,
      "stateMutability": "nonpayable",
      "type": "function"
    },
    {
      "constant": false,
      "inputs": [
        {
          "internalType": "address",
          "name": "to",
          "type": "address"
        },
        {
          "internalType": "uint256",
          "name": "value",
          "type": "uint256"
        }
      ],
      "name": "transfer",
      "outputs": [
        {
          "internalType": "bool",
          "name": "",
          "type": "bool"
        }
      ],
      "payable": false,
      "stateMutability": "nonpayable",
      "type": "function"
    },
    {
      "constant": false,
      "inputs": [
        {
          "internalType": "address",
          "name": "from",
          "type": "address"
        },
        {
          "internalType": "address",
          "name": "to",
          "type": "address"
        },
        {
          "internalType": "uint256",
          "name": "value",
          "type": "uint256"
        }
      ],
      "name": "transferFrom",
      "outputs": [
        {
          "internalType": "bool",
          "name": "",
          "type": "bool"
        }
      ],
      "payable": false,
      "stateMutability": "nonpayable",
      "type": "function"
    },
    {
      "constant": true,
      "inputs": [],
      "name": "DOMAIN_SEPARATOR",
      "outputs": [
        {
          "internalType": "bytes32",
          "name": "",
          "type": "bytes32"
        }
      ],
      "payable": false,
      "stateMutability": "view",
      "type": "function"
    },
    {
      "constant": true,
      "inputs": [],
      "name": "PERMIT_TYPEHASH",
      "outputs": [
        {
          "internalType": "bytes32",
          "name": "",
          "type": "bytes32"
        }
      ],
      "payable": false,
      "stateMutability": "pure",
      "type": "function"
    },
    {
      "constant": true,
      "inputs": [
        {
          "internalType": "address",
          "name": "owner",
          "type": "address"
        }
      ],
      "name": "nonces",
      "outputs": [
        {
          "internalType": "uint256",
          "name": "",
          "type": "uint256"
        }
      ],
      "payable": false,
      "stateMutability": "view",
      "type": "function"
    },
    {
      "constant": false,
      "inputs": [
        {
          "internalType": "address",
          "name": "owner",
          "type": "address"
        },
        {
          "internalType": "address",
          "name": "spender",
          "type": "address"
        },
        {
          "internalType": "uint256",
          "name": "value",
          "type": "uint256"
        },
        {
          "internalType": "uint256",
          "name": "deadline",
          "type": "uint256"
        },
        {
          "internalType": "uint8",
          "name": "v",
          "type": "uint8"
        },
        {
          "internalType": "bytes32",
          "name": "r",
          "type": "bytes32"
        },
        {
          "internalType": "bytes32",
          "name": "s",
          "type": "bytes32"
        }
      ],
      "name": "permit",
      "outputs": [],
      "payable": false,
      "stateMutability": "nonpayable",
      "type": "function"
    },
    {
      "constant": true,
      "inputs": [],
      "name": "MINIMUM_LIQUIDITY",
      "outputs": [
        {
          "internalType": "uint256",
          "name": "",
          "type": "uint256"
        }
      ],
      "payable": false,
      "stateMutability": "pure",
      "type": "function"
    },
    {
      "constant": true,
      "inputs": [],
      "name": "factory",
      "outputs": [
        {
          "internalType": "address",
          "name": "",
          "type": "address"
        }
      ],
      "payable": false,
      "stateMutability": "view",
      "type": "function"
    },
    {
      "constant": true,
      "inputs": [],
      "name": "token0",
      "outputs": [
        {
          "internalType": "address",
          "name": "",
          "type": "address"
        }
      ],
      "payable": false,
      "stateMutability": "view",
      "type": "function"
    },
    {
      "constant": true,
      "inputs": [],
      "name": "token1",
      "outputs": [
        {
          "internalType": "address",
          "name": "",
          "type": "address"
        }
      ],
      "payable": false,
      "stateMutability": "view",
      "type": "function"
    },
    {
      "constant": true,
      "inputs": [],
      "name": "kLast",
      "outputs": [
        {
          "internalType": "uint256",
          "name": "",
          "type": "uint256"
        }
      ],
      "payable": false,
      "stateMutability": "view",
      "type": "function"
    },
    {
      "constant": false,
      "inputs": [
        {
          "internalType": "address",
          "name": "to",
          "type": "address"
        }
      ],
      "name": "mint",
      "outputs": [
        {
          "internalType": "uint256",
          "name": "liquidity",
          "type": "uint256"
        }
      ],
      "payable": false,
      "stateMutability": "nonpayable",
      "type": "function"
    },
    {
      "constant": false,
      "inputs": [
        {
          "internalType": "address",
          "name": "to",
          "type": "address"
        }
      ],
      "name": "burn",
      "outputs": [
        {
          "internalType": "uint256",
          "name": "amount0",
          "type": "uint256"
        },
        {
          "internalType": "uint256",
          "name": "amount1",
          "type": "uint256"
        }
      ],
      "payable": false,
      "stateMutability": "nonpayable",
      "type": "function"
    },
    {
      "constant": false,
      "inputs": [
        {
          "internalType": "uint256",
          "name": "amount0Out",
          "type": "uint256"
        },
        {
          "internalType": "uint256",
          "name": "amount1Out",
          "type": "uint256"
        },
        {
          "internalType": "address",
          "name": "to",
          "type": "address"
        },
        {
          "internalType": "bytes",
          "name": "data",
          "type": "bytes"
        }
      ],
      "name": "swap",
      "outputs": [],
      "payable": false,
      "stateMutability": "nonpayable",
      "type": "function"
    },
    {
      "constant": false,
      "inputs": [
        {
          "internalType": "address",
          "name": "to",
          "type": "address"
        }
      ],
      "name": "skim",
      "outputs": [],
      "payable": false,
      "stateMutability": "nonpayable",
      "type": "function"
    },
    {
      "constant": false,
      "inputs": [],
      "name": "sync",
      "outputs": [],
      "payable": false,
      "stateMutability": "nonpayable",
      "type": "function"
    },
    {
      "constant": false,
      "inputs": [
        {
          "internalType": "address",
          "name": "",
          "type": "address"
        },
        {
          "internalType": "address",
          "name": "",
          "type": "address"
        }
      ],
      "name": "initialize",
      "outputs": [],
      "payable": false,
      "stateMutability": "nonpayable",
      "type": "function"
    }
  ],
  "bytecode": "0x608060405234801561001057600080fd5b50610a98806100206000396000f3fe608060405234801561001057600080fd5b50600436106101c45760003560e01c806370a08231116100f9578063bc25cf7711610097578063d21220a711610071578063d21220a714610233578063d505accf146102ee578063dd62ed3e146102fc578063fff6cae91461030a576101c4565b8063bc25cf77146102cd578063bc3cfbb4146102db578063c45a015514610233576101c4565b806389afcb44116100d357806389afcb44146102ac57806395d89b41146101de578063a9059cbb14610213578063ba9a7a5614610248576101c4565b806370a082311461029e5780637464fc3d146102485780637ecebe001461029e576101c4565b806330adf81f11610166578063485cc95511610140578063485cc955146102805780635909c0d51461028e5780635a3d5493146102965780636a6278421461029e576101c4565b806330adf81f14610248578063313ce5671461026b5780633644e51514610248576101c4565b8063095ea7b3116101a2578063095ea7b3146102135780630dfe16811461023357806318160ddd1461024857806323b872dd1461025d576101c4565b8063022c0d9f146101c957806306fdde03146101de5780630902f1ac146101fc575b600080fd5b6101dc6101d736600461079a565b61030e565b005b6101e661032f565b6040516101f39190610919565b60405180910390f35b610204610349565b6040516101f393929190610951565b61022661022136600461073a565b610373565b6040516101f391906108fd565b61023b610373565b6040516101f391906108ef565b610250610373565b6040516101f3919061090b565b610226610221366004610651565b610273610373565b6040516101f39190610994565b6101dc6101d7366004610617565b61025061038d565b610250610393565b6102506102213660046105f1565b6102bf6102ba3660046105f1565b610399565b6040516101f3929190610979565b6101dc6101d73660046105f1565b6101dc6102e936600461076a565b6103b4565b6101dc6101d736600461069e565b610250610221366004610617565b6101dc5b60405162461bcd60e51b815260040161032690610931565b60405180910390fd5b606060405162461bcd60e51b815260040161032690610931565b6000546001600160701b0380821692600160701b830490911691600160e01b900463ffffffff1690565b600060405162461bcd60e51b815260040161032690610931565b60015481565b60025481565b60008060405162461bcd60e51b815260040161032690610931565b60005463ffffffff42811691600160e01b900481168203908116158015906103e657506000546001600160701b031615155b80156104035750600054600160701b90046001600160701b031615155b156104865760005463ffffffff82169061042f906001600160701b03600160701b8204811691166104ee565b51600180546001600160e01b039092169290920201905560005463ffffffff82169061046e906001600160701b0380821691600160701b9004166104ee565b51600280546001600160e01b03909216929092020190555b506000805463ffffffff909216600160e01b026001600160e01b036001600160701b03948516600160701b026dffffffffffffffffffffffffffff60701b19959096166dffffffffffffffffffffffffffff1990941693909317939093169390931716179055565b6104f661056a565b6000826001600160701b03161161051f5760405162461bcd60e51b815260040161032690610941565b6040805160208101909152806001600160701b0384166dffffffffffffffffffffffffffff60701b607087901b168161055457fe5b046001600160e01b031681525090505b92915050565b60408051602081019091526000815290565b803561056481610a23565b803561056481610a3a565b60008083601f8401126105a457600080fd5b50813567ffffffffffffffff8111156105bc57600080fd5b6020830191508360018202830111156105d457600080fd5b9250929050565b803561056481610a43565b803561056481610a4c565b60006020828403121561060357600080fd5b600061060f848461057c565b949350505050565b6000806040838503121561062a57600080fd5b6000610636858561057c565b92505060206106478582860161057c565b9150509250929050565b60008060006060848603121561066657600080fd5b6000610672868661057c565b93505060206106838682870161057c565b925050604061069486828701610587565b9150509250925092565b600080600080600080600060e0888a0312156106b957600080fd5b60006106c58a8a61057c565b97505060206106d68a828b0161057c565b96505060406106e78a828b01610587565b95505060606106f88a828b01610587565b94505060806107098a828b016105e6565b93505060a061071a8a828b01610587565b92505060c061072b8a828b01610587565b91505092959891949750929550565b6000806040838503121561074d57600080fd5b6000610759858561057c565b925050602061064785828601610587565b6000806040838503121561077d57600080fd5b600061078985856105db565b9250506020610647858286016105db565b6000806000806000608086880312156107b257600080fd5b60006107be8888610587565b95505060206107cf88828901610587565b94505060406107e08882890161057c565b935050606086013567ffffffffffffffff8111156107fd57600080fd5b61080988828901610592565b92509250509295509295909350565b610821816109af565b82525050565b610821816109ba565b610821816109bf565b6000610844826109a2565b61084e81856109a6565b935061085e8185602086016109e9565b61086781610a19565b9093019392505050565b600061087e600e836109a6565b6d53686f756c64206e6f742075736560901b815260200192915050565b60006108a86017836109a6565b7f4669786564506f696e743a204449565f42595f5a45524f000000000000000000815260200192915050565b610821816109c2565b610821816109da565b610821816109e3565b602081016105648284610818565b602081016105648284610827565b602081016105648284610830565b6020808252810161092a8184610839565b9392505050565b6020808252810161056481610871565b602080825281016105648161089b565b6060810161095f82866108d4565b61096c60208301856108d4565b61060f60408301846108dd565b604081016109878285610830565b61092a6020830184610830565b6020810161056482846108e6565b5190565b90815260200190565b6000610564826109ce565b151590565b90565b6001600160701b031690565b6001600160a01b031690565b63ffffffff1690565b60ff1690565b60005b83811015610a045781810151838201526020016109ec565b83811115610a13576000848401525b50505050565b601f01601f191690565b610a2c816109af565b8114610a3757600080fd5b50565b610a2c816109bf565b610a2c816109c2565b610a2c816109e356fea365627a7a72315820d22601270bde4f86fa1645161ddc9604dd062a5f0280a263debd470e4382e14c6c6578706572696d656e74616cf564736f6c63430005110040",
  "source": "/*\n    Copyright 2020 Dynamic Dollar Devs, based on the works of the Empty Set Squad\n\n    Licensed under the Apache License, Version 2.0 (the \"License\");\n    you may not use this file except in compliance with the License.\n    You may obtain a copy of the License at\n\n    http://www.apache.org/licenses/LICENSE-2.0\n\n    Unless required by applicable law or agreed to in writing, software\n    distributed under the License is distributed on an \"AS IS\" BASIS,\n    WITHOUT WARRANTIES OR CONDITIONS OF ANY KIND, either express or implied.\n    See the License for the specific language governing permissions and\n    limitations under the License.\n*/\n\npragma solidity ^0.5.17;\npragma experimental ABIEncoderV2;\n\nimport '@uniswap/lib/contracts/libraries/FixedPoint.sol';\nimport '@uniswap/v2-core/contracts/interfaces/IUniswapV2Pair.sol';\n\ncontract MockUniswapV2PairTrade is IUniswapV2Pair {\n    uint112 private reserve0;           // uses single storage slot, accessible via getReserves\n    uint112 private reserve1;           // uses single storage slot, accessible via getReserves\n    uint32  private blockTimestampLast; // uses single storage slot, accessible via getReserves\n\n    uint public price0CumulativeLast;\n    uint public price1CumulativeLast;\n\n    function getReserves() external view returns (uint112, uint112, uint32) {\n        return (reserve0, reserve1, blockTimestampLast);\n    }\n\n    function simulateTrade(uint112 newReserve0, uint112 newReserve1) external {\n        uint32 blockTimestamp = uint32(block.timestamp % 2 ** 32);\n        uint32 timeElapsed = blockTimestamp - blockTimestampLast;\n        if (timeElapsed > 0 && reserve0 != 0 && reserve1 != 0) {\n            price0CumulativeLast += uint(FixedPoint.fraction(reserve1, reserve0)._x) * timeElapsed;\n            price1CumulativeLast += uint(FixedPoint.fraction(reserve0, reserve1)._x) * timeElapsed;\n        }\n        reserve0 = newReserve0;\n        reserve1 = newReserve1;\n        blockTimestampLast = blockTimestamp;\n    }\n\n    /**\n     * Should not use\n     */\n    function name() external pure returns (string memory) { revert(\"Should not use\"); }\n    function symbol() external pure returns (string memory) { revert(\"Should not use\"); }\n    function decimals() external pure returns (uint8) { revert(\"Should not use\"); }\n    function totalSupply() external view returns (uint) { revert(\"Should not use\"); }\n    function balanceOf(address owner) external view returns (uint) { revert(\"Should not use\"); }\n    function allowance(address owner, address spender) external view returns (uint) { revert(\"Should not use\"); }\n\n    function approve(address spender, uint value) external returns (bool) { revert(\"Should not use\"); }\n    function transfer(address to, uint value) external returns (bool) { revert(\"Should not use\"); }\n    function transferFrom(address from, address to, uint value) external returns (bool) { revert(\"Should not use\"); }\n\n    function DOMAIN_SEPARATOR() external view returns (bytes32) { revert(\"Should not use\"); }\n    function PERMIT_TYPEHASH() external pure returns (bytes32) { revert(\"Should not use\"); }\n    function nonces(address owner) external view returns (uint) { revert(\"Should not use\"); }\n\n    function permit(address owner, address spender, uint value, uint deadline, uint8 v, bytes32 r, bytes32 s) external { revert(\"Should not use\"); }\n\n    function MINIMUM_LIQUIDITY() external pure returns (uint) { revert(\"Should not use\"); }\n    function factory() external view returns (address) { revert(\"Should not use\"); }\n    function token0() external view returns (address) { revert(\"Should not use\"); }\n    function token1() external view returns (address) { revert(\"Should not use\"); }\n    function kLast() external view returns (uint) { revert(\"Should not use\"); }\n\n    function mint(address to) external returns (uint liquidity) { revert(\"Should not use\"); }\n    function burn(address to) external returns (uint amount0, uint amount1) { revert(\"Should not use\"); }\n    function swap(uint amount0Out, uint amount1Out, address to, bytes calldata data) external { revert(\"Should not use\"); }\n    function skim(address to) external { revert(\"Should not use\"); }\n    function sync() external { revert(\"Should not use\"); }\n\n    function initialize(address, address) external { revert(\"Should not use\"); }\n}\n",
  "sourcePath": "/home/name/Desktop/Files/projects/dynamic/dollar/protocol/contracts/mock/MockUniswapV2PairTrade.sol",
  "compiler": {
    "name": "solc",
    "version": "0.5.17+commit.d19bba13.Emscripten.clang"
  },
  "schemaVersion": "3.3.1",
  "updatedAt": "2020-11-25T22:34:45.284Z",
  "devdoc": {
    "methods": {}
  },
  "userdoc": {
    "methods": {
      "name()": {
        "notice": "Should not use"
      }
    }
  }
}