{
  "contractName": "MockComptroller",
  "abi": [
    {
      "inputs": [
        {
          "internalType": "address",
          "name": "pool",
          "type": "address"
        }
      ],
      "payable": false,
      "stateMutability": "nonpayable",
      "type": "constructor"
    },
    {
      "anonymous": false,
      "inputs": [
        {
          "indexed": true,
          "internalType": "address",
          "name": "from",
          "type": "address"
        },
        {
          "indexed": true,
          "internalType": "address",
          "name": "to",
          "type": "address"
        },
        {
          "indexed": false,
          "internalType": "uint256",
          "name": "value",
          "type": "uint256"
        }
      ],
      "name": "Transfer",
      "type": "event"
    },
    {
      "constant": true,
      "inputs": [
        {
          "internalType": "address",
          "name": "owner",
          "type": "address"
        },
        {
          "internalType": "address",
          "name": "spender",
          "type": "address"
        }
      ],
      "name": "allowance",
      "outputs": [
        {
          "internalType": "uint256",
          "name": "",
          "type": "uint256"
        }
      ],
      "payable": false,
      "stateMutability": "view",
      "type": "function"
    },
    {
      "constant": true,
      "inputs": [
        {
          "internalType": "address",
          "name": "owner",
          "type": "address"
        },
        {
          "internalType": "address",
          "name": "spender",
          "type": "address"
        }
      ],
      "name": "allowanceCoupons",
      "outputs": [
        {
          "internalType": "uint256",
          "name": "",
          "type": "uint256"
        }
      ],
      "payable": false,
      "stateMutability": "view",
      "type": "function"
    },
    {
      "constant": false,
      "inputs": [
        {
          "internalType": "address",
          "name": "spender",
          "type": "address"
        },
        {
          "internalType": "uint256",
          "name": "amount",
          "type": "uint256"
        }
      ],
      "name": "approve",
      "outputs": [
        {
          "internalType": "bool",
          "name": "",
          "type": "bool"
        }
      ],
      "payable": false,
      "stateMutability": "nonpayable",
      "type": "function"
    },
    {
      "constant": true,
      "inputs": [
        {
          "internalType": "address",
          "name": "candidate",
          "type": "address"
        }
      ],
      "name": "approveFor",
      "outputs": [
        {
          "internalType": "uint256",
          "name": "",
          "type": "uint256"
        }
      ],
      "payable": false,
      "stateMutability": "view",
      "type": "function"
    },
    {
      "constant": true,
      "inputs": [
        {
          "internalType": "address",
          "name": "account",
          "type": "address"
        }
      ],
      "name": "balanceOf",
      "outputs": [
        {
          "internalType": "uint256",
          "name": "",
          "type": "uint256"
        }
      ],
      "payable": false,
      "stateMutability": "view",
      "type": "function"
    },
    {
      "constant": true,
      "inputs": [
        {
          "internalType": "address",
          "name": "account",
          "type": "address"
        }
      ],
      "name": "balanceOfBonded",
      "outputs": [
        {
          "internalType": "uint256",
          "name": "",
          "type": "uint256"
        }
      ],
      "payable": false,
      "stateMutability": "view",
      "type": "function"
    },
    {
      "constant": true,
      "inputs": [
        {
          "internalType": "address",
          "name": "account",
          "type": "address"
        },
        {
          "internalType": "uint256",
          "name": "epoch",
          "type": "uint256"
        }
      ],
      "name": "balanceOfCoupons",
      "outputs": [
        {
          "internalType": "uint256",
          "name": "",
          "type": "uint256"
        }
      ],
      "payable": false,
      "stateMutability": "view",
      "type": "function"
    },
    {
      "constant": true,
      "inputs": [
        {
          "internalType": "address",
          "name": "account",
          "type": "address"
        }
      ],
      "name": "balanceOfStaged",
      "outputs": [
        {
          "internalType": "uint256",
          "name": "",
          "type": "uint256"
        }
      ],
      "payable": false,
      "stateMutability": "view",
      "type": "function"
    },
    {
      "constant": true,
      "inputs": [
        {
          "internalType": "uint256",
          "name": "epoch",
          "type": "uint256"
        }
      ],
      "name": "bootstrappingAt",
      "outputs": [
        {
          "internalType": "bool",
          "name": "",
          "type": "bool"
        }
      ],
      "payable": false,
      "stateMutability": "view",
      "type": "function"
    },
    {
      "constant": true,
      "inputs": [
        {
          "internalType": "uint256",
          "name": "epoch",
          "type": "uint256"
        }
      ],
      "name": "couponsExpiration",
      "outputs": [
        {
          "internalType": "uint256",
          "name": "",
          "type": "uint256"
        }
      ],
      "payable": false,
      "stateMutability": "view",
      "type": "function"
    },
    {
      "constant": false,
      "inputs": [
        {
          "internalType": "address",
          "name": "candidate",
          "type": "address"
        },
        {
          "internalType": "uint256",
          "name": "period",
          "type": "uint256"
        }
      ],
      "name": "createCandidateE",
      "outputs": [],
      "payable": false,
      "stateMutability": "nonpayable",
      "type": "function"
    },
    {
      "constant": true,
      "inputs": [],
      "name": "decimals",
      "outputs": [
        {
          "internalType": "uint8",
          "name": "",
          "type": "uint8"
        }
      ],
      "payable": false,
      "stateMutability": "view",
      "type": "function"
    },
    {
      "constant": false,
      "inputs": [
        {
          "internalType": "address",
          "name": "owner",
          "type": "address"
        },
        {
          "internalType": "address",
          "name": "spender",
          "type": "address"
        },
        {
          "internalType": "uint256",
          "name": "amount",
          "type": "uint256"
        },
        {
          "internalType": "string",
          "name": "reason",
          "type": "string"
        }
      ],
      "name": "decrementAllowanceCouponsE",
      "outputs": [],
      "payable": false,
      "stateMutability": "nonpayable",
      "type": "function"
    },
    {
      "constant": false,
      "inputs": [
        {
          "internalType": "address",
          "name": "candidate",
          "type": "address"
        },
        {
          "internalType": "uint256",
          "name": "amount",
          "type": "uint256"
        },
        {
          "internalType": "string",
          "name": "reason",
          "type": "string"
        }
      ],
      "name": "decrementApproveForE",
      "outputs": [],
      "payable": false,
      "stateMutability": "nonpayable",
      "type": "function"
    },
    {
      "constant": false,
      "inputs": [
        {
          "internalType": "address",
          "name": "account",
          "type": "address"
        },
        {
          "internalType": "uint256",
          "name": "epoch",
          "type": "uint256"
        },
        {
          "internalType": "uint256",
          "name": "amount",
          "type": "uint256"
        },
        {
          "internalType": "string",
          "name": "reason",
          "type": "string"
        }
      ],
      "name": "decrementBalanceOfCouponsE",
      "outputs": [],
      "payable": false,
      "stateMutability": "nonpayable",
      "type": "function"
    },
    {
      "constant": false,
      "inputs": [
        {
          "internalType": "address",
          "name": "account",
          "type": "address"
        },
        {
          "internalType": "uint256",
          "name": "amount",
          "type": "uint256"
        },
        {
          "internalType": "string",
          "name": "reason",
          "type": "string"
        }
      ],
      "name": "decrementBalanceOfE",
      "outputs": [],
      "payable": false,
      "stateMutability": "nonpayable",
      "type": "function"
    },
    {
      "constant": false,
      "inputs": [
        {
          "internalType": "address",
          "name": "account",
          "type": "address"
        },
        {
          "internalType": "uint256",
          "name": "amount",
          "type": "uint256"
        },
        {
          "internalType": "string",
          "name": "reason",
          "type": "string"
        }
      ],
      "name": "decrementBalanceOfStagedE",
      "outputs": [],
      "payable": false,
      "stateMutability": "nonpayable",
      "type": "function"
    },
    {
      "constant": false,
      "inputs": [
        {
          "internalType": "address",
          "name": "candidate",
          "type": "address"
        },
        {
          "internalType": "uint256",
          "name": "amount",
          "type": "uint256"
        },
        {
          "internalType": "string",
          "name": "reason",
          "type": "string"
        }
      ],
      "name": "decrementRejectForE",
      "outputs": [],
      "payable": false,
      "stateMutability": "nonpayable",
      "type": "function"
    },
    {
      "constant": false,
      "inputs": [
        {
          "internalType": "uint256",
          "name": "amount",
          "type": "uint256"
        },
        {
          "internalType": "string",
          "name": "reason",
          "type": "string"
        }
      ],
      "name": "decrementTotalBondedE",
      "outputs": [],
      "payable": false,
      "stateMutability": "nonpayable",
      "type": "function"
    },
    {
      "constant": false,
      "inputs": [
        {
          "internalType": "uint256",
          "name": "amount",
          "type": "uint256"
        },
        {
          "internalType": "string",
          "name": "reason",
          "type": "string"
        }
      ],
      "name": "decrementTotalDebtE",
      "outputs": [],
      "payable": false,
      "stateMutability": "nonpayable",
      "type": "function"
    },
    {
      "constant": false,
      "inputs": [
        {
          "internalType": "uint256",
          "name": "amount",
          "type": "uint256"
        },
        {
          "internalType": "string",
          "name": "reason",
          "type": "string"
        }
      ],
      "name": "decrementTotalRedeemableE",
      "outputs": [],
      "payable": false,
      "stateMutability": "nonpayable",
      "type": "function"
    },
    {
      "constant": true,
      "inputs": [],
      "name": "dollar",
      "outputs": [
        {
          "internalType": "contract IDollar",
          "name": "",
          "type": "address"
        }
      ],
      "payable": false,
      "stateMutability": "view",
      "type": "function"
    },
    {
      "constant": false,
      "inputs": [
        {
          "internalType": "uint256",
          "name": "epoch",
          "type": "uint256"
        }
      ],
      "name": "eliminateOutstandingCouponsE",
      "outputs": [],
      "payable": false,
      "stateMutability": "nonpayable",
      "type": "function"
    },
    {
      "constant": true,
      "inputs": [],
      "name": "epoch",
      "outputs": [
        {
          "internalType": "uint256",
          "name": "",
          "type": "uint256"
        }
      ],
      "payable": false,
      "stateMutability": "view",
      "type": "function"
    },
    {
      "constant": true,
      "inputs": [],
      "name": "epochTime",
      "outputs": [
        {
          "internalType": "uint256",
          "name": "",
          "type": "uint256"
        }
      ],
      "payable": false,
      "stateMutability": "view",
      "type": "function"
    },
    {
      "constant": true,
      "inputs": [
        {
          "internalType": "uint256",
          "name": "epoch",
          "type": "uint256"
        }
      ],
      "name": "expiringCoupons",
      "outputs": [
        {
          "internalType": "uint256",
          "name": "",
          "type": "uint256"
        }
      ],
      "payable": false,
      "stateMutability": "view",
      "type": "function"
    },
    {
      "constant": true,
      "inputs": [
        {
          "internalType": "uint256",
          "name": "epoch",
          "type": "uint256"
        },
        {
          "internalType": "uint256",
          "name": "i",
          "type": "uint256"
        }
      ],
      "name": "expiringCouponsAtIndex",
      "outputs": [
        {
          "internalType": "uint256",
          "name": "",
          "type": "uint256"
        }
      ],
      "payable": false,
      "stateMutability": "view",
      "type": "function"
    },
    {
      "constant": true,
      "inputs": [
        {
          "internalType": "address",
          "name": "account",
          "type": "address"
        }
      ],
      "name": "fluidUntil",
      "outputs": [
        {
          "internalType": "uint256",
          "name": "",
          "type": "uint256"
        }
      ],
      "payable": false,
      "stateMutability": "view",
      "type": "function"
    },
    {
      "constant": true,
      "inputs": [
        {
          "internalType": "uint256",
          "name": "epoch",
          "type": "uint256"
        }
      ],
      "name": "getAvgExpiryFilled",
      "outputs": [
        {
          "internalType": "uint256",
          "name": "",
          "type": "uint256"
        }
      ],
      "payable": false,
      "stateMutability": "view",
      "type": "function"
    },
    {
      "constant": true,
      "inputs": [
        {
          "internalType": "uint256",
          "name": "epoch",
          "type": "uint256"
        }
      ],
      "name": "getAvgYieldFilled",
      "outputs": [
        {
          "internalType": "uint256",
          "name": "",
          "type": "uint256"
        }
      ],
      "payable": false,
      "stateMutability": "view",
      "type": "function"
    },
    {
      "constant": true,
      "inputs": [
        {
          "internalType": "uint256",
          "name": "epoch",
          "type": "uint256"
        }
      ],
      "name": "getBidToCover",
      "outputs": [
        {
          "internalType": "uint256",
          "name": "",
          "type": "uint256"
        }
      ],
      "payable": false,
      "stateMutability": "view",
      "type": "function"
    },
    {
      "constant": true,
      "inputs": [
        {
          "internalType": "uint256",
          "name": "epoch",
          "type": "uint256"
        }
      ],
      "name": "getMaxExpiryFilled",
      "outputs": [
        {
          "internalType": "uint256",
          "name": "",
          "type": "uint256"
        }
      ],
      "payable": false,
      "stateMutability": "view",
      "type": "function"
    },
    {
      "constant": true,
      "inputs": [
        {
          "internalType": "uint256",
          "name": "epoch",
          "type": "uint256"
        }
      ],
      "name": "getMaxYieldFilled",
      "outputs": [
        {
          "internalType": "uint256",
          "name": "",
          "type": "uint256"
        }
      ],
      "payable": false,
      "stateMutability": "view",
      "type": "function"
    },
    {
      "constant": true,
      "inputs": [
        {
          "internalType": "uint256",
          "name": "epoch",
          "type": "uint256"
        }
      ],
      "name": "getMinExpiryFilled",
      "outputs": [
        {
          "internalType": "uint256",
          "name": "",
          "type": "uint256"
        }
      ],
      "payable": false,
      "stateMutability": "view",
      "type": "function"
    },
    {
      "constant": true,
      "inputs": [
        {
          "internalType": "uint256",
          "name": "epoch",
          "type": "uint256"
        }
      ],
      "name": "getMinYieldFilled",
      "outputs": [
        {
          "internalType": "uint256",
          "name": "",
          "type": "uint256"
        }
      ],
      "payable": false,
      "stateMutability": "view",
      "type": "function"
    },
    {
      "constant": true,
      "inputs": [
        {
          "internalType": "uint256",
          "name": "epoch",
          "type": "uint256"
        }
      ],
      "name": "getTotalAuctioned",
      "outputs": [
        {
          "internalType": "uint256",
          "name": "",
          "type": "uint256"
        }
      ],
      "payable": false,
      "stateMutability": "view",
      "type": "function"
    },
    {
      "constant": true,
      "inputs": [
        {
          "internalType": "uint256",
          "name": "epoch",
          "type": "uint256"
        }
      ],
      "name": "getTotalBurned",
      "outputs": [
        {
          "internalType": "uint256",
          "name": "",
          "type": "uint256"
        }
      ],
      "payable": false,
      "stateMutability": "view",
      "type": "function"
    },
    {
      "constant": true,
      "inputs": [
        {
          "internalType": "uint256",
          "name": "epoch",
          "type": "uint256"
        }
      ],
      "name": "getTotalFilled",
      "outputs": [
        {
          "internalType": "uint256",
          "name": "",
          "type": "uint256"
        }
      ],
      "payable": false,
      "stateMutability": "view",
      "type": "function"
    },
    {
      "constant": true,
      "inputs": [],
      "name": "implementation",
      "outputs": [
        {
          "internalType": "address",
          "name": "impl",
          "type": "address"
        }
      ],
      "payable": false,
      "stateMutability": "view",
      "type": "function"
    },
    {
      "constant": false,
      "inputs": [
        {
          "internalType": "address",
          "name": "candidate",
          "type": "address"
        },
        {
          "internalType": "uint256",
          "name": "amount",
          "type": "uint256"
        }
      ],
      "name": "incrementApproveForE",
      "outputs": [],
      "payable": false,
      "stateMutability": "nonpayable",
      "type": "function"
    },
    {
      "constant": false,
      "inputs": [
        {
          "internalType": "address",
          "name": "account",
          "type": "address"
        },
        {
          "internalType": "uint256",
          "name": "epoch",
          "type": "uint256"
        },
        {
          "internalType": "uint256",
          "name": "amount",
          "type": "uint256"
        }
      ],
      "name": "incrementBalanceOfCouponsE",
      "outputs": [],
      "payable": false,
      "stateMutability": "nonpayable",
      "type": "function"
    },
    {
      "constant": false,
      "inputs": [
        {
          "internalType": "address",
          "name": "account",
          "type": "address"
        },
        {
          "internalType": "uint256",
          "name": "amount",
          "type": "uint256"
        }
      ],
      "name": "incrementBalanceOfE",
      "outputs": [],
      "payable": false,
      "stateMutability": "nonpayable",
      "type": "function"
    },
    {
      "constant": false,
      "inputs": [
        {
          "internalType": "address",
          "name": "account",
          "type": "address"
        },
        {
          "internalType": "uint256",
          "name": "amount",
          "type": "uint256"
        }
      ],
      "name": "incrementBalanceOfStagedE",
      "outputs": [],
      "payable": false,
      "stateMutability": "nonpayable",
      "type": "function"
    },
    {
      "constant": false,
      "inputs": [],
      "name": "incrementEpochE",
      "outputs": [],
      "payable": false,
      "stateMutability": "nonpayable",
      "type": "function"
    },
    {
      "constant": false,
      "inputs": [
        {
          "internalType": "address",
          "name": "candidate",
          "type": "address"
        },
        {
          "internalType": "uint256",
          "name": "amount",
          "type": "uint256"
        }
      ],
      "name": "incrementRejectForE",
      "outputs": [],
      "payable": false,
      "stateMutability": "nonpayable",
      "type": "function"
    },
    {
      "constant": false,
      "inputs": [
        {
          "internalType": "uint256",
          "name": "amount",
          "type": "uint256"
        }
      ],
      "name": "incrementTotalBondedE",
      "outputs": [],
      "payable": false,
      "stateMutability": "nonpayable",
      "type": "function"
    },
    {
      "constant": false,
      "inputs": [
        {
          "internalType": "uint256",
          "name": "amount",
          "type": "uint256"
        }
      ],
      "name": "incrementTotalDebtE",
      "outputs": [],
      "payable": false,
      "stateMutability": "nonpayable",
      "type": "function"
    },
    {
      "constant": false,
      "inputs": [
        {
          "internalType": "uint256",
          "name": "amount",
          "type": "uint256"
        }
      ],
      "name": "incrementTotalRedeemableE",
      "outputs": [],
      "payable": false,
      "stateMutability": "nonpayable",
      "type": "function"
    },
    {
      "constant": false,
      "inputs": [
        {
          "internalType": "uint256",
          "name": "epoch",
          "type": "uint256"
        },
        {
          "internalType": "uint256",
          "name": "expiration",
          "type": "uint256"
        }
      ],
      "name": "initializeCouponsExpirationE",
      "outputs": [],
      "payable": false,
      "stateMutability": "nonpayable",
      "type": "function"
    },
    {
      "constant": false,
      "inputs": [
        {
          "internalType": "address",
          "name": "candidate",
          "type": "address"
        }
      ],
      "name": "initializedE",
      "outputs": [],
      "payable": false,
      "stateMutability": "nonpayable",
      "type": "function"
    },
    {
      "constant": false,
      "inputs": [
        {
          "internalType": "uint256",
          "name": "epoch",
          "type": "uint256"
        }
      ],
      "name": "isCouponAuctionInitAtEpochE",
      "outputs": [
        {
          "internalType": "bool",
          "name": "",
          "type": "bool"
        }
      ],
      "payable": false,
      "stateMutability": "nonpayable",
      "type": "function"
    },
    {
      "constant": true,
      "inputs": [
        {
          "internalType": "address",
          "name": "candidate",
          "type": "address"
        }
      ],
      "name": "isInitialized",
      "outputs": [
        {
          "internalType": "bool",
          "name": "",
          "type": "bool"
        }
      ],
      "payable": false,
      "stateMutability": "view",
      "type": "function"
    },
    {
      "constant": true,
      "inputs": [
        {
          "internalType": "address",
          "name": "candidate",
          "type": "address"
        }
      ],
      "name": "isNominated",
      "outputs": [
        {
          "internalType": "bool",
          "name": "",
          "type": "bool"
        }
      ],
      "payable": false,
      "stateMutability": "view",
      "type": "function"
    },
    {
      "constant": true,
      "inputs": [
        {
          "internalType": "address",
          "name": "account",
          "type": "address"
        }
      ],
      "name": "lockedUntil",
      "outputs": [
        {
          "internalType": "uint256",
          "name": "",
          "type": "uint256"
        }
      ],
      "payable": false,
      "stateMutability": "view",
      "type": "function"
    },
    {
      "constant": true,
      "inputs": [],
      "name": "name",
      "outputs": [
        {
          "internalType": "string",
          "name": "",
          "type": "string"
        }
      ],
      "payable": false,
      "stateMutability": "view",
      "type": "function"
    },
    {
      "constant": true,
      "inputs": [],
      "name": "oracle",
      "outputs": [
        {
          "internalType": "contract IOracle",
          "name": "",
          "type": "address"
        }
      ],
      "payable": false,
      "stateMutability": "view",
      "type": "function"
    },
    {
      "constant": true,
      "inputs": [
        {
          "internalType": "uint256",
          "name": "epoch",
          "type": "uint256"
        }
      ],
      "name": "outstandingCoupons",
      "outputs": [
        {
          "internalType": "uint256",
          "name": "",
          "type": "uint256"
        }
      ],
      "payable": false,
      "stateMutability": "view",
      "type": "function"
    },
    {
      "constant": true,
      "inputs": [
        {
          "internalType": "address",
          "name": "candidate",
          "type": "address"
        }
      ],
      "name": "periodFor",
      "outputs": [
        {
          "internalType": "uint256",
          "name": "",
          "type": "uint256"
        }
      ],
      "payable": false,
      "stateMutability": "view",
      "type": "function"
    },
    {
      "constant": false,
      "inputs": [
        {
          "internalType": "address",
          "name": "account",
          "type": "address"
        },
        {
          "internalType": "address",
          "name": "candidate",
          "type": "address"
        }
      ],
      "name": "placeLockE",
      "outputs": [],
      "payable": false,
      "stateMutability": "nonpayable",
      "type": "function"
    },
    {
      "constant": true,
      "inputs": [],
      "name": "pool",
      "outputs": [
        {
          "internalType": "address",
          "name": "",
          "type": "address"
        }
      ],
      "payable": false,
      "stateMutability": "view",
      "type": "function"
    },
    {
      "constant": false,
      "inputs": [
        {
          "internalType": "address",
          "name": "account",
          "type": "address"
        },
        {
          "internalType": "address",
          "name": "candidate",
          "type": "address"
        },
        {
          "internalType": "enum Candidate.Vote",
          "name": "vote",
          "type": "uint8"
        }
      ],
      "name": "recordVoteE",
      "outputs": [],
      "payable": false,
      "stateMutability": "nonpayable",
      "type": "function"
    },
    {
      "constant": true,
      "inputs": [
        {
          "internalType": "address",
          "name": "account",
          "type": "address"
        },
        {
          "internalType": "address",
          "name": "candidate",
          "type": "address"
        }
      ],
      "name": "recordedVote",
      "outputs": [
        {
          "internalType": "enum Candidate.Vote",
          "name": "",
          "type": "uint8"
        }
      ],
      "payable": false,
      "stateMutability": "view",
      "type": "function"
    },
    {
      "constant": true,
      "inputs": [
        {
          "internalType": "address",
          "name": "candidate",
          "type": "address"
        }
      ],
      "name": "rejectFor",
      "outputs": [
        {
          "internalType": "uint256",
          "name": "",
          "type": "uint256"
        }
      ],
      "payable": false,
      "stateMutability": "view",
      "type": "function"
    },
    {
      "constant": false,
      "inputs": [
        {
          "internalType": "uint256",
          "name": "timestamp",
          "type": "uint256"
        }
      ],
      "name": "setBlockTimestamp",
      "outputs": [],
      "payable": false,
      "stateMutability": "nonpayable",
      "type": "function"
    },
    {
      "constant": false,
      "inputs": [
        {
          "internalType": "uint256",
          "name": "start",
          "type": "uint256"
        },
        {
          "internalType": "uint256",
          "name": "period",
          "type": "uint256"
        }
      ],
      "name": "setEpochParamsE",
      "outputs": [],
      "payable": false,
      "stateMutability": "nonpayable",
      "type": "function"
    },
    {
      "constant": false,
      "inputs": [],
      "name": "snapshotTotalBondedE",
      "outputs": [],
      "payable": false,
      "stateMutability": "nonpayable",
      "type": "function"
    },
    {
      "constant": true,
      "inputs": [
        {
          "internalType": "address",
          "name": "candidate",
          "type": "address"
        }
      ],
      "name": "startFor",
      "outputs": [
        {
          "internalType": "uint256",
          "name": "",
          "type": "uint256"
        }
      ],
      "payable": false,
      "stateMutability": "view",
      "type": "function"
    },
    {
      "constant": true,
      "inputs": [
        {
          "internalType": "address",
          "name": "account",
          "type": "address"
        }
      ],
      "name": "statusOf",
      "outputs": [
        {
          "internalType": "enum Account.Status",
          "name": "",
          "type": "uint8"
        }
      ],
      "payable": false,
      "stateMutability": "view",
      "type": "function"
    },
    {
      "constant": true,
      "inputs": [],
      "name": "symbol",
      "outputs": [
        {
          "internalType": "string",
          "name": "",
          "type": "string"
        }
      ],
      "payable": false,
      "stateMutability": "view",
      "type": "function"
    },
    {
      "constant": true,
      "inputs": [],
      "name": "totalBonded",
      "outputs": [
        {
          "internalType": "uint256",
          "name": "",
          "type": "uint256"
        }
      ],
      "payable": false,
      "stateMutability": "view",
      "type": "function"
    },
    {
      "constant": true,
      "inputs": [
        {
          "internalType": "uint256",
          "name": "epoch",
          "type": "uint256"
        }
      ],
      "name": "totalBondedAt",
      "outputs": [
        {
          "internalType": "uint256",
          "name": "",
          "type": "uint256"
        }
      ],
      "payable": false,
      "stateMutability": "view",
      "type": "function"
    },
    {
      "constant": true,
      "inputs": [],
      "name": "totalCoupons",
      "outputs": [
        {
          "internalType": "uint256",
          "name": "",
          "type": "uint256"
        }
      ],
      "payable": false,
      "stateMutability": "view",
      "type": "function"
    },
    {
      "constant": true,
      "inputs": [],
      "name": "totalDebt",
      "outputs": [
        {
          "internalType": "uint256",
          "name": "",
          "type": "uint256"
        }
      ],
      "payable": false,
      "stateMutability": "view",
      "type": "function"
    },
    {
      "constant": true,
      "inputs": [],
      "name": "totalNet",
      "outputs": [
        {
          "internalType": "uint256",
          "name": "",
          "type": "uint256"
        }
      ],
      "payable": false,
      "stateMutability": "view",
      "type": "function"
    },
    {
      "constant": true,
      "inputs": [],
      "name": "totalRedeemable",
      "outputs": [
        {
          "internalType": "uint256",
          "name": "",
          "type": "uint256"
        }
      ],
      "payable": false,
      "stateMutability": "view",
      "type": "function"
    },
    {
      "constant": true,
      "inputs": [],
      "name": "totalStaged",
      "outputs": [
        {
          "internalType": "uint256",
          "name": "",
          "type": "uint256"
        }
      ],
      "payable": false,
      "stateMutability": "view",
      "type": "function"
    },
    {
      "constant": true,
      "inputs": [],
      "name": "totalSupply",
      "outputs": [
        {
          "internalType": "uint256",
          "name": "",
          "type": "uint256"
        }
      ],
      "payable": false,
      "stateMutability": "view",
      "type": "function"
    },
    {
      "constant": false,
      "inputs": [
        {
          "internalType": "address",
          "name": "recipient",
          "type": "address"
        },
        {
          "internalType": "uint256",
          "name": "amount",
          "type": "uint256"
        }
      ],
      "name": "transfer",
      "outputs": [
        {
          "internalType": "bool",
          "name": "",
          "type": "bool"
        }
      ],
      "payable": false,
      "stateMutability": "nonpayable",
      "type": "function"
    },
    {
      "constant": false,
      "inputs": [
        {
          "internalType": "address",
          "name": "sender",
          "type": "address"
        },
        {
          "internalType": "address",
          "name": "recipient",
          "type": "address"
        },
        {
          "internalType": "uint256",
          "name": "amount",
          "type": "uint256"
        }
      ],
      "name": "transferFrom",
      "outputs": [
        {
          "internalType": "bool",
          "name": "",
          "type": "bool"
        }
      ],
      "payable": false,
      "stateMutability": "nonpayable",
      "type": "function"
    },
    {
      "constant": false,
      "inputs": [
        {
          "internalType": "address",
          "name": "account",
          "type": "address"
        }
      ],
      "name": "unfreezeE",
      "outputs": [],
      "payable": false,
      "stateMutability": "nonpayable",
      "type": "function"
    },
    {
      "constant": false,
      "inputs": [
        {
          "internalType": "address",
          "name": "owner",
          "type": "address"
        },
        {
          "internalType": "address",
          "name": "spender",
          "type": "address"
        },
        {
          "internalType": "uint256",
          "name": "amount",
          "type": "uint256"
        }
      ],
      "name": "updateAllowanceCouponsE",
      "outputs": [],
      "payable": false,
      "stateMutability": "nonpayable",
      "type": "function"
    },
    {
      "constant": true,
      "inputs": [
        {
          "internalType": "address",
          "name": "candidate",
          "type": "address"
        }
      ],
      "name": "votesFor",
      "outputs": [
        {
          "internalType": "uint256",
          "name": "",
          "type": "uint256"
        }
      ],
      "payable": false,
      "stateMutability": "view",
      "type": "function"
    },
    {
      "constant": false,
      "inputs": [
        {
          "internalType": "address",
          "name": "account",
          "type": "address"
        },
        {
          "internalType": "uint256",
          "name": "amount",
          "type": "uint256"
        }
      ],
      "name": "mintToAccountE",
      "outputs": [],
      "payable": false,
      "stateMutability": "nonpayable",
      "type": "function"
    },
    {
      "constant": false,
      "inputs": [
        {
          "internalType": "address",
          "name": "account",
          "type": "address"
        },
        {
          "internalType": "uint256",
          "name": "amount",
          "type": "uint256"
        }
      ],
      "name": "burnFromAccountE",
      "outputs": [],
      "payable": false,
      "stateMutability": "nonpayable",
      "type": "function"
    },
    {
      "constant": false,
      "inputs": [
        {
          "internalType": "address",
          "name": "account",
          "type": "address"
        },
        {
          "internalType": "uint256",
          "name": "amount",
          "type": "uint256"
        }
      ],
      "name": "redeemToAccountE",
      "outputs": [],
      "payable": false,
      "stateMutability": "nonpayable",
      "type": "function"
    },
    {
      "constant": false,
      "inputs": [
        {
          "internalType": "uint256",
          "name": "amount",
          "type": "uint256"
        }
      ],
      "name": "burnRedeemableE",
      "outputs": [],
      "payable": false,
      "stateMutability": "nonpayable",
      "type": "function"
    },
    {
      "constant": false,
      "inputs": [
        {
          "internalType": "uint256",
          "name": "amount",
          "type": "uint256"
        }
      ],
      "name": "increaseDebtE",
      "outputs": [],
      "payable": false,
      "stateMutability": "nonpayable",
      "type": "function"
    },
    {
      "constant": false,
      "inputs": [
        {
          "internalType": "uint256",
          "name": "amount",
          "type": "uint256"
        }
      ],
      "name": "decreaseDebtE",
      "outputs": [],
      "payable": false,
      "stateMutability": "nonpayable",
      "type": "function"
    },
    {
      "constant": false,
      "inputs": [
        {
          "internalType": "uint256",
          "name": "percent",
          "type": "uint256"
        }
      ],
      "name": "resetDebtE",
      "outputs": [],
      "payable": false,
      "stateMutability": "nonpayable",
      "type": "function"
    },
    {
      "constant": false,
      "inputs": [
        {
          "internalType": "address",
          "name": "account",
          "type": "address"
        },
        {
          "internalType": "uint256",
          "name": "amount",
          "type": "uint256"
        }
      ],
      "name": "mintToE",
      "outputs": [],
      "payable": false,
      "stateMutability": "nonpayable",
      "type": "function"
    }
  ],
  "bytecode": "0x60806040523480156200001157600080fd5b5060405162004987380380620049878339810160408190526200003491620000ba565b42600f55604051620000469062000099565b604051809103906000f08015801562000063573d6000803e3d6000fd5b50600980546001600160a01b039283166001600160a01b031991821617909155600b80549390921692169190911790556200010f565b611c068062002d8183390190565b8051620000b481620000f5565b92915050565b600060208284031215620000cd57600080fd5b6000620000db8484620000a7565b949350505050565b60006001600160a01b038216620000b4565b6200010081620000e3565b81146200010c57600080fd5b50565b612c62806200011f6000396000f3fe608060405234801561001057600080fd5b50600436106104ee5760003560e01c80638413e52a1161028e578063b32a2f9011610167578063d60b347f116100d9578063eeaca09b11610092578063eeaca09b14610acd578063f1b7cf4914610ae0578063f35adf7e14610af3578063f7a3181814610afb578063fc7b9c1814610b0e578063ffbe3b7314610b16576104ee565b8063d60b347f14610a60578063d6d8816d14610a73578063d83d3ed514610a86578063dd62ed3e14610a99578063dde74dc314610aa7578063e0abdf6614610aba576104ee565b8063c45a3e0a1161012b578063c45a3e0a146109f9578063c9aff70c14610a0c578063cb0fbc7114610a1f578063cc8d823c14610a32578063cf02377914610a45578063d53c6f5f14610a4d576104ee565b8063b32a2f901461099a578063bc7513e2146109ad578063c1410c02146109c0578063c2aeb5fe146109d3578063c34eee65146109e6576104ee565b80639f6e1b2611610200578063a9059cbb116101c4578063a9059cbb14610511578063a9b3cf151461093b578063adbff2be1461094e578063ae5c238114610961578063b11ee0e314610974578063b16144a314610987576104ee565b80639f6e1b26146108e7578063a00e14d1146108fa578063a50cd8e71461090d578063a6c409f114610920578063a6f37b5314610928576104ee565b806397a5d5b51161025257806397a5d5b5146108805780639a649edc146108935780639b82b49b1461089b5780639bc289f1146108ae5780639be46493146108c15780639f1a0929146108d4576104ee565b80638413e52a1461083757806386cf9f141461084a5780638de2e5731461085d578063900cf0cf1461087057806395d89b4114610878576104ee565b80633fbba9a6116103cb5780635f14fec81161033d57806372924d2a116102f657806372924d2a146107d057806375d5024b146107e35780637cb95a32146107f65780637d8bb869146108095780637dc0d1d01461081c578063825ad60714610824576104ee565b80635f14fec814610769578063646680221461077c5780636a39e3281461078f5780636b862d66146107a257806370a08231146107b557806371c511eb146107c8576104ee565b80635053e4611161038f5780635053e4611461070b57806351adeb571461071357806351bf21d814610728578063520acb761461073b5780635c60da1b1461074e5780635dbf800a14610756576104ee565b80633fbba9a6146106aa5780633fd4973c146106ca57806343873526146106dd57806344d96e95146106f05780634c736099146106f8576104ee565b806320f6bc9011610464578063313ce56711610428578063313ce56714610636578063323474221461064b578063353a420c1461065e5780633a3e6c81146106715780633dc905c7146106845780633f7bcaf314610697576104ee565b806320f6bc90146105d757806323b872dd146105ea578063259f7adf146105fd578063277805a9146106105780632d7f23b314610623576104ee565b806315e14bf6116104b657806315e14bf61461057957806316f0115b1461058c57806318160ddd146105a15780631a08e22a146105a95780631edbcf6c146105bc5780631fac9732146105c4576104ee565b806306fdde03146104f3578063095ea7b3146105115780630dc6d3a31461053157806310e95b6c146105465780631550ec2414610566575b600080fd5b6104fb610b29565b6040516105089190612aae565b60405180910390f35b61052461051f3660046126e3565b610b60565b6040516105089190612a84565b61054461053f366004612665565b610b69565b005b610559610554366004612800565b610bb2565b6040516105089190612adf565b610524610574366004612800565b610bca565b61055961058736600461257d565b610bdf565b610594610bfd565b6040516105089190612a33565b610559610c0c565b6105446105b7366004612892565b610c12565b610559610c20565b6105446105d2366004612800565b610c26565b6105446105e53660046126e3565b610c32565b6105246105f8366004612622565b610c3c565b61054461060b366004612800565b610c46565b61054461061e3660046126e3565b610c4f565b610559610631366004612800565b610cdb565b61063e610cf0565b6040516105089190612aed565b61054461065936600461283c565b610cf5565b61055961066c36600461257d565b610d35565b61052461067f36600461257d565b610d53565b610559610692366004612800565b610d70565b6105446106a5366004612622565b610d85565b6106bd6106b836600461259b565b610d90565b6040516105089190612aa0565b6105446106d8366004612713565b610dc3565b6105446106eb366004612800565b610e0a565b610559610e13565b610559610706366004612892565b610e19565b610559610e49565b61071b610e6c565b6040516105089190612a92565b61055961073636600461257d565b610e7b565b610559610749366004612800565b610e99565b610594610eae565b610544610764366004612800565b610ed3565b6105446107773660046126e3565b610edc565b61055961078a36600461257d565b610ee6565b61055961079d366004612800565b610f04565b6105446107b036600461277b565b610f19565b6105596107c336600461257d565b610f24565b610544610f42565b6105446107de36600461283c565b610f4c565b6105246107f1366004612800565b610f8c565b610544610804366004612713565b610f9f565b610559610817366004612800565b610fe0565b61071b610ff5565b61055961083236600461257d565b611004565b6105446108453660046125d5565b611050565b61055961085836600461257d565b61105b565b61054461086b366004612800565b611076565b61055961107f565b6104fb611085565b6106bd61088e36600461257d565b6110a3565b610559611108565b6105446108a936600461283c565b61110e565b6105596108bc36600461257d565b61114e565b6105446108cf36600461257d565b61116c565b6105596108e2366004612800565b611175565b6105596108f536600461259b565b61118b565b610544610908366004612892565b6111ba565b61055961091b36600461257d565b6111c5565b6105596111e8565b61054461093636600461257d565b61127e565b610544610949366004612800565b611287565b61054461095c366004612713565b611290565b61054461096f3660046126e3565b6112d1565b6105446109823660046126e3565b6112db565b610544610995366004612800565b6112e5565b6105446109a8366004612713565b6112f8565b6105596109bb3660046126e3565b611339565b6105446109ce36600461259b565b61137d565b6105446109e13660046127ad565b611387565b6105596109f4366004612800565b6113c9565b610544610a073660046126e3565b6113de565b610559610a1a366004612800565b6113e8565b610559610a2d366004612800565b6113fd565b610544610a403660046126e3565b611412565b61055961141c565b610559610a5b366004612800565b611422565b610524610a6e36600461257d565b611437565b610544610a81366004612800565b611458565b610544610a943660046126e3565b611461565b61055961051f36600461259b565b610559610ab5366004612800565b61146b565b610544610ac8366004612800565b611480565b610559610adb366004612800565b611485565b610559610aee36600461257d565b61149a565b6105446114b5565b610544610b093660046126e3565b6114bd565b6105596114c7565b610559610b24366004612800565b6114cd565b60408051808201909152601881527f44796e616d69632053657420446f6c6c6172205374616b650000000000000000602082015290565b60005b92915050565b610bab85858585858080601f0160208091040260200160405190810160405280939291908181526020018383808284376000920191909152506114df92505050565b5050505050565b6000818152600d60205260409020600201545b919050565b6000610bd582611550565b5460ff1692915050565b6001600160a01b03166000908152600e602052604090206001015490565b600b546001600160a01b031690565b60035490565b610c1c8282611564565b5050565b60065490565b610c2f81611596565b50565b610c1c82826115dd565b60005b9392505050565b610c2f81611685565b610c57610e6c565b6001600160a01b03166340c10f1983836040518363ffffffff1660e01b8152600401610c84929190612a69565b602060405180830381600087803b158015610c9e57600080fd5b505af1158015610cb2573d6000803e3d6000fd5b505050506040513d601f19601f82011682018060405250610cd691908101906127e2565b505050565b6000908152600d60205260409020600a015490565b601290565b610cd68383838080601f01602080910402602001604051908101604052809392919081815260200183838082843760009201919091525061169e92505050565b6001600160a01b03166000908152600e602052604090206003015490565b6001600160a01b03166000908152600e6020526040902054151590565b6000908152600d60205260409020600e015490565b610cd68383836116b9565b6001600160a01b038082166000908152600e60209081526040808320938616835260049093019052205460ff1692915050565b610e04848484848080601f0160208091040260200160405190810160405280939291908181526020018383808284376000920191909152506116e992505050565b50505050565b610c2f8161173a565b60045490565b6000828152600d60205260408120600301805483908110610e3657fe5b9060005260206000200154905092915050565b6000610e536124c9565b610e5b61174e565b9050610e668161177d565b91505090565b6009546001600160a01b031690565b6001600160a01b03166000908152600c602052604090206004015490565b6000908152600d602052604090206010015490565b7f360894a13ba1a3210667c828492db98dca3e2076cc3735a920a3ca505d382bbc5490565b610c2f8161179f565b610c1c8282611826565b6001600160a01b03166000908152600e602052604090206002015490565b6000908152600d602052604090206003015490565b610cd6838383611937565b6001600160a01b03166000908152600c602052604090206001015490565b610f4a6119de565b565b610cd68383838080601f016020809104026020016040519081016040528093929190818152602001838380828437600092019190915250611a0592505050565b6000610f96611a20565b90911115919050565b610e04848484848080601f016020809104026020016040519081016040528093929190818152602001838380828437600092019190915250611a2592505050565b6000908152600d602052604090206012015490565b600a546001600160a01b031690565b60008061100f610c0c565b905080611020576000915050610bc5565b610c3f8161104461103086610f24565b611038610e13565b9063ffffffff611a7616565b9063ffffffff611ab916565b610cd6838383611afb565b6001600160a01b03166000908152600c602052604090205490565b610c2f81611b45565b60025490565b6040805180820190915260048152634453445360e01b602082015290565b60006110ad61107f565b6001600160a01b0383166000908152600c602052604090206005015411156110d757506002610bc5565b6001600160a01b0382166000908152600c60205260409020600401546110fb61107f565b1015610b60576001610b63565b60085490565b610cd68383838080601f016020809104026020016040519081016040528093929190818152602001838380828437600092019190915250611b5e92505050565b6001600160a01b03166000908152600c602052604090206005015490565b610c2f81611b79565b6000908152600d60208190526040909120015490565b6001600160a01b039182166000908152600c602090815260408083209390941682526003909201909152205490565b600091909155600155565b6000610b636111d383610d35565b6111dc84610ee6565b9063ffffffff611bab16565b60006112796111f56114c7565b6111fd610e6c565b6001600160a01b03166318160ddd6040518163ffffffff1660e01b815260040160206040518083038186803b15801561123557600080fd5b505afa158015611249573d6000803e3d6000fd5b505050506040513d601f19601f8201168201806040525061126d919081019061281e565b9063ffffffff611bd016565b905090565b610c2f81611c12565b610c2f81611c39565b610e04848484848080601f016020809104026020016040519081016040528093929190818152602001838380828437600092019190915250611c7c92505050565b610c1c8282611d27565b610c1c8282611dcf565b610c2f6112f3826064611e2b565b611e5a565b610e04848484848080601f016020809104026020016040519081016040528093929190818152602001838380828437600092019190915250611f1f92505050565b6000611344826113e8565b61135057506000610b63565b506001600160a01b03919091166000908152600c6020908152604080832093835260029093019052205490565b610c1c8282611f7e565b610bab85858585858080601f016020809104026020016040519081016040528093929190818152602001838380828437600092019190915250611fde92505050565b6000908152600d602052604090206011015490565b610c1c8282612089565b6000908152600d602052604090206001015490565b6000908152600d602052604090206013015490565b610c1c8282612133565b60055490565b6000908152600d60205260409020600f015490565b6001600160a01b03166000908152600e602052604090206005015460ff1690565b610c2f81612182565b610c1c828261219b565b6000908152600d60205260409020600c015490565b600f55565b6000908152600d60205260409020600b015490565b6001600160a01b03166000908152600e602052604090205490565b610f4a6121c7565b610c1c82826121e0565b60075490565b6000908152600d602052604090205490565b6001600160a01b038085166000908152600c60209081526040808320938716835260039093019052205461151a90838363ffffffff61222f16565b6001600160a01b039485166000908152600c60209081526040808320969097168252600390950190945293909220929092555050565b6000908152600d6020526040902060040190565b6000828152600d6020908152604080832060020184905592825291812060030180546001810182559082529190200155565b6115d5816040518060400160405280601c81526020017f436f6d7074726f6c6c65723a206e6f7420656e6f756768206465627400000000815250611a05565b610c2f61225b565b6115e5610e6c565b6001600160a01b03166340c10f1983836040518363ffffffff1660e01b8152600401611612929190612a69565b602060405180830381600087803b15801561162c57600080fd5b505af1158015611640573d6000803e3d6000fd5b505050506040513d601f19601f8201168201806040525061166491908101906127e2565b506116706107f161107f565b61167d5761167d8161173a565b610c1c61225b565b600454611698908263ffffffff611bab16565b60045550565b6006546116b290838363ffffffff61222f16565b6006555050565b6001600160a01b039283166000908152600c60209081526040808320949095168252600390930190925291902055565b6001600160a01b0383166000908152600e602052604090206003015461171690838363ffffffff61222f16565b6001600160a01b039093166000908152600e60205260409020600301929092555050565b61174381611b45565b6115d56112f361232e565b6117566124c9565b604051806060016040528060008152602001635fbef0008152602001611c20815250905090565b6000610b6382600001516111dc8460400151611044866020015161126d612350565b6117a7610e6c565b6001600160a01b03166342966c68826040518263ffffffff1660e01b81526004016117d29190612adf565b600060405180830381600087803b1580156117ec57600080fd5b505af1158015611800573d6000803e3d6000fd5b505050506115d5816040518060600160405280602a8152602001612bf6602a913961169e565b61182e610e6c565b6001600160a01b03166323b872dd8330846040518463ffffffff1660e01b815260040161185d93929190612a41565b602060405180830381600087803b15801561187757600080fd5b505af115801561188b573d6000803e3d6000fd5b505050506040513d601f19601f820116820180604052506118af91908101906127e2565b506118b8610e6c565b6001600160a01b03166342966c68826040518263ffffffff1660e01b81526004016118e39190612adf565b600060405180830381600087803b1580156118fd57600080fd5b505af1158015611911573d6000803e3d6000fd5b5050505061167d81604051806060016040528060288152602001612bce60289139611a05565b6001600160a01b0383166000908152600c6020908152604080832085845260020190915290205461196e908263ffffffff611bab16565b6001600160a01b0384166000908152600c60209081526040808320868452600201825280832093909355600d905220600101546119b1908263ffffffff611bab16565b6000838152600d60205260409020600101556008546119d6908263ffffffff611bab16565b600855505050565b6119e6610c0c565b600d60006119f261107f565b8152602081019190915260400160002055565b600754611a1990838363ffffffff61222f16565b6007555050565b609690565b6001600160a01b0383166000908152600e6020526040902060020154611a5290838363ffffffff61222f16565b6001600160a01b039093166000908152600e60205260409020600201929092555050565b600082611a8557506000610b63565b82820282848281611a9257fe5b0414610c3f5760405162461bcd60e51b8152600401611ab090612acf565b60405180910390fd5b6000610c3f83836040518060400160405280601a81526020017f536166654d6174683a206469766973696f6e206279207a65726f000000000000815250612356565b6001600160a01b038083166000908152600e6020908152604080832093871683526004909301905220805482919060ff19166001836002811115611b3b57fe5b0217905550505050565b600754611b58908263ffffffff611bab16565b60075550565b600454611b7290838363ffffffff61222f16565b6004555050565b611b8c611b8461238d565b6111dc61107f565b6001600160a01b039091166000908152600c6020526040902060040155565b600082820183811015610c3f5760405162461bcd60e51b8152600401611ab090612abf565b6000610c3f83836040518060400160405280601e81526020017f536166654d6174683a207375627472616374696f6e206f766572666c6f77000081525061222f565b6001600160a01b03166000908152600e60205260409020600501805460ff19166001179055565b6000611c44826113e8565b905080611c515750610c2f565b600854611c64908263ffffffff611bd016565b600855506000908152600d6020526040812060010155565b6001600160a01b0383166000908152600c6020526040902060010154611ca990838363ffffffff61222f16565b6001600160a01b0384166000908152600c6020526040902060010155600354611cd990838363ffffffff61222f16565b6003556040516000906001600160a01b038516907fddf252ad1be2c89b69c2b068fc378daa952ba7f163c4a11628f55a4df523b3ef90611d1a908690612adf565b60405180910390a3505050565b6001600160a01b0382166000908152600c6020526040902060010154611d53908263ffffffff611bab16565b6001600160a01b0383166000908152600c6020526040902060010155600354611d82908263ffffffff611bab16565b6003556040516001600160a01b038316906000907fddf252ad1be2c89b69c2b068fc378daa952ba7f163c4a11628f55a4df523b3ef90611dc3908590612adf565b60405180910390a35050565b6001600160a01b0382166000908152600c6020526040902054611df8908263ffffffff611bab16565b6001600160a01b0383166000908152600c6020526040902055600554611e24908263ffffffff611bab16565b6005555050565b611e336124ea565b6040518060200160405280611e5185670de0b6b3a764000086612392565b90529392505050565b6000611eec611ee7611e6a610e6c565b6001600160a01b03166318160ddd6040518163ffffffff1660e01b815260040160206040518083038186803b158015611ea257600080fd5b505afa158015611eb6573d6000803e3d6000fd5b505050506040513d601f19601f82011682018060405250611eda919081019061281e565b849063ffffffff6123b016565b6123d7565b90506000611ef86114c7565b905081811115610cd6576000611f14828463ffffffff611bd016565b9050610e0481611596565b6001600160a01b0383166000908152600c6020526040902054611f4990838363ffffffff61222f16565b6001600160a01b0384166000908152600c6020526040902055600554611f7690838363ffffffff61222f16565b600555505050565b6001600160a01b0382166000908152600c602052604081206005015490611fb0611fa784610bdf565b6111dc8561149a565b905081811115610e04576001600160a01b0384166000908152600c6020526040902060050181905550505050565b6001600160a01b0384166000908152600c6020908152604080832086845260020190915290205461201690838363ffffffff61222f16565b6001600160a01b0385166000908152600c60209081526040808320878452600201825280832093909355600d9052206001015461205a90838363ffffffff61222f16565b6000848152600d602052604090206001015560085461208090838363ffffffff61222f16565b60085550505050565b612091610e6c565b6001600160a01b031663a9059cbb83836040518363ffffffff1660e01b81526004016120be929190612a69565b602060405180830381600087803b1580156120d857600080fd5b505af11580156120ec573d6000803e3d6000fd5b505050506040513d601f19601f8201168201806040525061211091908101906127e2565b5061167d816040518060600160405280602a8152602001612bf6602a913961169e565b6001600160a01b0382166000908152600e602052604090206003015461215f908263ffffffff611bab16565b6001600160a01b039092166000908152600e602052604090206003019190915550565b600654612195908263ffffffff611bab16565b60065550565b6121a361107f565b6001600160a01b039092166000908152600e60205260409020918255600190910155565b6002546121db90600163ffffffff611bab16565b600255565b6001600160a01b0382166000908152600e602052604090206002015461220c908263ffffffff611bab16565b6001600160a01b039092166000908152600e602052604090206002019190915550565b600081848411156122535760405162461bcd60e51b8152600401611ab09190612aae565b505050900390565b610f4a61227c612269610c20565b6111dc61227461141c565b6111dc610e13565b612284610e6c565b6001600160a01b03166370a08231306040518263ffffffff1660e01b81526004016122af9190612a33565b60206040518083038186803b1580156122c757600080fd5b505afa1580156122db573d6000803e3d6000fd5b505050506040513d601f19601f820116820180604052506122ff919081019061281e565b10156a21b7b6b83a3937b63632b960a91b74496e636f6e73697374656e742062616c616e63657360581b6123f4565b6123366124ea565b5060408051602081019091526704db732547630000815290565b600f5490565b600081836123775760405162461bcd60e51b8152600401611ab09190612aae565b50600083858161238357fe5b0495945050505050565b602490565b60006123a882611044868663ffffffff611a7616565b949350505050565b6123b86124ea565b604080516020810190915283518190611e51908563ffffffff611a7616565b8051600090610b6390670de0b6b3a764000063ffffffff611ab916565b82610cd65761240282612449565b6101d160f51b61241183612449565b60405160200161242393929190612a02565b60408051601f198184030181529082905262461bcd60e51b8252611ab091600401612aae565b6060808260405160200161245d91906129ed565b60408051601f19818403018152919052905060205b80156124b25781516000199091019082908290811061248d57fe5b01602001516001600160f81b031916156124ad5760010181529050610bc5565b612472565b505060408051600081526020810190915292915050565b60405180606001604052806000815260200160008152602001600081525090565b6040518060200160405280600081525090565b8035610b6381612b9a565b8051610b6381612bae565b8035610b6381612bb7565b60008083601f84011261253057600080fd5b50813567ffffffffffffffff81111561254857600080fd5b60208301915083600182028301111561256057600080fd5b9250929050565b8035610b6381612bc4565b8051610b6381612bc4565b60006020828403121561258f57600080fd5b60006123a884846124fd565b600080604083850312156125ae57600080fd5b60006125ba85856124fd565b92505060206125cb858286016124fd565b9150509250929050565b6000806000606084860312156125ea57600080fd5b60006125f686866124fd565b9350506020612607868287016124fd565b925050604061261886828701612513565b9150509250925092565b60008060006060848603121561263757600080fd5b600061264386866124fd565b9350506020612654868287016124fd565b925050604061261886828701612567565b60008060008060006080868803121561267d57600080fd5b600061268988886124fd565b955050602061269a888289016124fd565b94505060406126ab88828901612567565b935050606086013567ffffffffffffffff8111156126c857600080fd5b6126d48882890161251e565b92509250509295509295909350565b600080604083850312156126f657600080fd5b600061270285856124fd565b92505060206125cb85828601612567565b6000806000806060858703121561272957600080fd5b600061273587876124fd565b945050602061274687828801612567565b935050604085013567ffffffffffffffff81111561276357600080fd5b61276f8782880161251e565b95989497509550505050565b60008060006060848603121561279057600080fd5b600061279c86866124fd565b935050602061265486828701612567565b6000806000806000608086880312156127c557600080fd5b60006127d188886124fd565b955050602061269a88828901612567565b6000602082840312156127f457600080fd5b60006123a88484612508565b60006020828403121561281257600080fd5b60006123a88484612567565b60006020828403121561283057600080fd5b60006123a88484612572565b60008060006040848603121561285157600080fd5b600061285d8686612567565b935050602084013567ffffffffffffffff81111561287a57600080fd5b6128868682870161251e565b92509250509250925092565b600080604083850312156128a557600080fd5b60006127028585612567565b6128ba81612b08565b82525050565b6128ba81612b13565b6128ba6128d582612b18565b612b25565b6128ba6128d582612b25565b60006128f182612afb565b6128fb8185610bc5565b935061290b818560208601612b5a565b9290920192915050565b6128ba81612b44565b6128ba81612b4f565b600061293282612afb565b61293c8185612aff565b935061294c818560208601612b5a565b61295581612b86565b9093019392505050565b600061296c601b83612aff565b7f536166654d6174683a206164646974696f6e206f766572666c6f770000000000815260200192915050565b60006129a5602183612aff565b7f536166654d6174683a206d756c7469706c69636174696f6e206f766572666c6f8152607760f81b602082015260400192915050565b6128ba81612b25565b6128ba81612b3e565b60006129f982846128da565b50602001919050565b6000612a0e82866128e6565b9150612a1a82856128c9565b600282019150612a2a82846128e6565b95945050505050565b60208101610b6382846128b1565b60608101612a4f82866128b1565b612a5c60208301856128b1565b6123a860408301846129db565b60408101612a7782856128b1565b610c3f60208301846129db565b60208101610b6382846128c0565b60208101610b638284612915565b60208101610b63828461291e565b60208082528101610c3f8184612927565b60208082528101610b638161295f565b60208082528101610b6381612998565b60208101610b6382846129db565b60208101610b6382846129e4565b5190565b90815260200190565b6000610b6382612b32565b151590565b6001600160f01b03191690565b90565b80610bc581612b90565b6001600160a01b031690565b60ff1690565b6000610b6382612b08565b6000610b6382612b28565b60005b83811015612b75578181015183820152602001612b5d565b83811115610e045750506000910152565b601f01601f191690565b60038110610c2f57fe5b612ba381612b08565b8114610c2f57600080fd5b612ba381612b13565b60038110610c2f57600080fd5b612ba381612b2556fe436f6d7074726f6c6c65723a206e6f7420656e6f756768206f75747374616e64696e672064656274436f6d7074726f6c6c65723a206e6f7420656e6f7567682072656465656d61626c652062616c616e6365a365627a7a7231582074772c724ca0f357f293130e402a3e7b5dc6e9899be367b9e9e4a5f22b7683356c6578706572696d656e74616cf564736f6c6343000511004060806040523480156200001157600080fd5b5060405180604001604052806012815260200171223cb730b6b4b19029b2ba102237b63630b960711b815250604051806040016040528060038152602001621114d160ea1b81525060126200007e6200006f6200011960201b60201c565b6001600160e01b036200011e16565b82516200009390600190602086019062000313565b508151620000a990600290602085019062000313565b506003805460ff191660ff9290921691909117905550620001109050620000cf62000170565b604051806040016040528060018152602001603160f81b815250620000fe6200020960201b620016341760201c565b306200020e60201b620016391760201c565b60075562000469565b335b90565b620001398160006200026560201b62000d7e1790919060201c565b6040516001600160a01b038216907f6ae172837ea30b801fbfcdd4108aa1d5bf8ff775444fd70256b44e6bf3dfc3f690600090a250565b60018054604080516020601f60026000196101008789161502019095169490940493840181900481028201810190925282815260609390929091830182828015620001ff5780601f10620001d357610100808354040283529160200191620001ff565b820191906000526020600020905b815481529060010190602001808311620001e157829003601f168201915b5050505050905090565b600190565b8351602094850120835193850193909320604080517f8b73c3c69bb8fe3d512ecc4cf759cc79239f7b179b0ffacaa9a75d522b39400f815295860194909452928401929092526060830152608082015260a0902090565b6200027a82826001600160e01b03620002c816565b15620002a35760405162461bcd60e51b81526004016200029a9062000436565b60405180910390fd5b6001600160a01b0316600090815260209190915260409020805460ff19166001179055565b60006001600160a01b038216620002f35760405162461bcd60e51b81526004016200029a906200044e565b506001600160a01b03166000908152602091909152604090205460ff1690565b828054600181600116156101000203166002900490600052602060002090601f016020900481019282601f106200035657805160ff191683800117855562000386565b8280016001018555821562000386579182015b828111156200038657825182559160200191906001019062000369565b506200039492915062000398565b5090565b6200011b91905b808211156200039457600081556001016200039f565b6000620003c4601f8362000460565b7f526f6c65733a206163636f756e7420616c72656164792068617320726f6c6500815260200192915050565b6000620003ff60228362000460565b7f526f6c65733a206163636f756e7420697320746865207a65726f206164647265815261737360f01b602082015260400192915050565b602080825281016200044881620003b5565b92915050565b602080825281016200044881620003f0565b90815260200190565b61178d80620004796000396000f3fe608060405234801561001057600080fd5b506004361061012c5760003560e01c806395d89b41116100ad578063aa271e1a11610071578063aa271e1a14610256578063d505accf14610269578063dab400f31461027c578063dd62ed3e14610284578063e879c19f146102975761012c565b806395d89b411461020d578063983b2d56146102155780639865027514610228578063a457c2d714610230578063a9059cbb146102435761012c565b806339509351116100f457806339509351146101ac57806340c10f19146101bf57806342966c68146101d257806370a08231146101e757806379cc6790146101fa5761012c565b806306fdde0314610131578063095ea7b31461014f57806318160ddd1461016f57806323b872dd14610184578063313ce56714610197575b600080fd5b61013961029f565b60405161014691906114c6565b60405180910390f35b61016261015d366004610ffc565b610334565b604051610146919061141b565b610177610352565b6040516101469190611429565b610162610192366004610f13565b610358565b61019f6103ca565b6040516101469190611587565b6101626101ba366004610ffc565b6103d3565b6101626101cd366004610ffc565b610427565b6101e56101e036600461102c565b610463565b005b6101776101f5366004610eb3565b610477565b6101e5610208366004610ffc565b610496565b6101396104a4565b6101e5610223366004610eb3565b610502565b6101e5610532565b61016261023e366004610ffc565b610544565b610162610251366004610ffc565b6105b2565b610162610264366004610eb3565b6105c6565b6101e5610277366004610f60565b6105d8565b61017761075f565b610177610292366004610ed9565b610765565b610177610790565b60018054604080516020601f6002600019610100878916150201909516949094049384018190048102820181019092528281526060939092909183018282801561032a5780601f106102ff5761010080835404028352916020019161032a565b820191906000526020600020905b81548152906001019060200180831161030d57829003601f168201915b5050505050905090565b60006103486103416107b4565b84846107b8565b5060015b92915050565b60065490565b600061036584848461086c565b600019610374856102926107b4565b146103c0576103c0846103856107b4565b6103bb856040518060600160405280602981526020016116fd602991396103ae8a6102926107b4565b919063ffffffff61098216565b6107b8565b5060019392505050565b60035460ff1690565b60006103486103e06107b4565b846103bb85600560006103f16107b4565b6001600160a01b03908116825260208083019390935260409182016000908120918c16815292529020549063ffffffff6109ae16565b60006104346102646107b4565b6104595760405162461bcd60e51b815260040161045090611517565b60405180910390fd5b61034883836109da565b61047461046e6107b4565b82610a9a565b50565b6001600160a01b0381166000908152600460205260409020545b919050565b6104a08282610b70565b5050565b60028054604080516020601f600019610100600187161502019094168590049384018190048102820181019092528281526060939092909183018282801561032a5780601f106102ff5761010080835404028352916020019161032a565b61050d6102646107b4565b6105295760405162461bcd60e51b815260040161045090611517565b61047481610beb565b61054261053d6107b4565b610c33565b565b60006103486105516107b4565b846103bb85604051806060016040528060258152602001611726602591396005600061057b6107b4565b6001600160a01b03908116825260208083019390935260409182016000908120918d1681529252902054919063ffffffff61098216565b60006103486105bf6107b4565b848461086c565b600061034c818363ffffffff610c7b16565b6007546001600160a01b03881660009081526008602090815260408083208054600181019091559051929361065a93909261063f927f6e71edae12b1b97f4d1f60370fef10105fa2faae0126114a169c64845d6126c9928e928e928e9290918e9101611437565b60405160208183030381529060405280519060200120610cc3565b90506000600182868686604051600081526020016040526040516106819493929190611491565b6020604051602081039080840390855afa1580156106a3573d6000803e3d6000fd5b5050506020604051035190506106f0896001600160a01b0316826001600160a01b0316146a5065726d69747461626c6560a81b70496e76616c6964207369676e617475726560781b610ce2565b6107236001600160a01b03821615156a5065726d69747461626c6560a81b6b5a65726f206164647265737360a01b610ce2565b610749864211156a5065726d69747461626c6560a81b66115e1c1a5c995960ca1b610ce2565b6107548989896107b8565b505050505050505050565b60075481565b6001600160a01b03918216600090815260056020908152604080832093909416825291909152205490565b7f6e71edae12b1b97f4d1f60370fef10105fa2faae0126114a169c64845d6126c981565b3390565b6001600160a01b0383166107de5760405162461bcd60e51b815260040161045090611567565b6001600160a01b0382166108045760405162461bcd60e51b8152600401610450906114f7565b6001600160a01b0380841660008181526005602090815260408083209487168084529490915290819020849055517f8c5be1e5ebec7d5bd14f71427d1e84f3dd0314c0f7b2291e5b200ac8c7c3b9259061085f908590611429565b60405180910390a3505050565b6001600160a01b0383166108925760405162461bcd60e51b815260040161045090611557565b6001600160a01b0382166108b85760405162461bcd60e51b8152600401610450906114d7565b6108fb816040518060600160405280602681526020016116b3602691396001600160a01b038616600090815260046020526040902054919063ffffffff61098216565b6001600160a01b038085166000908152600460205260408082209390935590841681522054610930908263ffffffff6109ae16565b6001600160a01b0380841660008181526004602052604090819020939093559151908516907fddf252ad1be2c89b69c2b068fc378daa952ba7f163c4a11628f55a4df523b3ef9061085f908590611429565b600081848411156109a65760405162461bcd60e51b815260040161045091906114c6565b505050900390565b6000828201838110156109d35760405162461bcd60e51b815260040161045090611507565b9392505050565b6001600160a01b038216610a005760405162461bcd60e51b815260040161045090611577565b600654610a13908263ffffffff6109ae16565b6006556001600160a01b038216600090815260046020526040902054610a3f908263ffffffff6109ae16565b6001600160a01b0383166000818152600460205260408082209390935591519091907fddf252ad1be2c89b69c2b068fc378daa952ba7f163c4a11628f55a4df523b3ef90610a8e908590611429565b60405180910390a35050565b6001600160a01b038216610ac05760405162461bcd60e51b815260040161045090611547565b610b0381604051806060016040528060228152602001611691602291396001600160a01b038516600090815260046020526040902054919063ffffffff61098216565b6001600160a01b038316600090815260046020526040902055600654610b2f908263ffffffff610d3c16565b6006556040516000906001600160a01b038416907fddf252ad1be2c89b69c2b068fc378daa952ba7f163c4a11628f55a4df523b3ef90610a8e908590611429565b610b7a8282610a9a565b6104a082610b866107b4565b6103bb846040518060600160405280602481526020016116d9602491396001600160a01b038816600090815260056020526040812090610bc46107b4565b6001600160a01b03168152602081019190915260400160002054919063ffffffff61098216565b610bfc60008263ffffffff610d7e16565b6040516001600160a01b038216907f6ae172837ea30b801fbfcdd4108aa1d5bf8ff775444fd70256b44e6bf3dfc3f690600090a250565b610c4460008263ffffffff610dca16565b6040516001600160a01b038216907fe94479a9f7e1952cc78f2d6baab678adc1b772d936c6583def489e524cb6669290600090a250565b60006001600160a01b038216610ca35760405162461bcd60e51b815260040161045090611537565b506001600160a01b03166000908152602091909152604090205460ff1690565b60405161190160f01b8152600281019290925260228201526042902090565b82610d3757610cf082610e12565b6101d160f51b610cff83610e12565b604051602001610d11939291906113ea565b60408051601f198184030181529082905262461bcd60e51b8252610450916004016114c6565b505050565b60006109d383836040518060400160405280601e81526020017f536166654d6174683a207375627472616374696f6e206f766572666c6f770000815250610982565b610d888282610c7b565b15610da55760405162461bcd60e51b8152600401610450906114e7565b6001600160a01b0316600090815260209190915260409020805460ff19166001179055565b610dd48282610c7b565b610df05760405162461bcd60e51b815260040161045090611527565b6001600160a01b0316600090815260209190915260409020805460ff19169055565b60608082604051602001610e2691906113d5565b60408051601f19818403018152919052905060205b8015610e7b57815160001990910190829082908110610e5657fe5b01602001516001600160f81b03191615610e765760010181529050610491565b610e3b565b505060408051600081526020810190915292915050565b803561034c8161160e565b803561034c81611622565b803561034c8161162b565b600060208284031215610ec557600080fd5b6000610ed18484610e92565b949350505050565b60008060408385031215610eec57600080fd5b6000610ef88585610e92565b9250506020610f0985828601610e92565b9150509250929050565b600080600060608486031215610f2857600080fd5b6000610f348686610e92565b9350506020610f4586828701610e92565b9250506040610f5686828701610e9d565b9150509250925092565b600080600080600080600060e0888a031215610f7b57600080fd5b6000610f878a8a610e92565b9750506020610f988a828b01610e92565b9650506040610fa98a828b01610e9d565b9550506060610fba8a828b01610e9d565b9450506080610fcb8a828b01610ea8565b93505060a0610fdc8a828b01610e9d565b92505060c0610fed8a828b01610e9d565b91505092959891949750929550565b6000806040838503121561100f57600080fd5b600061101b8585610e92565b9250506020610f0985828601610e9d565b60006020828403121561103e57600080fd5b6000610ed18484610e9d565b611053816115a2565b82525050565b611053816115ad565b61105361106e826115b2565b6115bf565b611053816115bf565b61105361106e826115bf565b600061109382611595565b61109d8185610491565b93506110ad8185602086016115d4565b9290920192915050565b60006110c282611595565b6110cc8185611599565b93506110dc8185602086016115d4565b6110e581611604565b9093019392505050565b60006110fc602383611599565b7f45524332303a207472616e7366657220746f20746865207a65726f206164647281526265737360e81b602082015260400192915050565b6000611141601f83611599565b7f526f6c65733a206163636f756e7420616c72656164792068617320726f6c6500815260200192915050565b600061117a602283611599565b7f45524332303a20617070726f766520746f20746865207a65726f206164647265815261737360f01b602082015260400192915050565b60006111be601b83611599565b7f536166654d6174683a206164646974696f6e206f766572666c6f770000000000815260200192915050565b60006111f7603083611599565b7f4d696e746572526f6c653a2063616c6c657220646f6573206e6f74206861766581526f20746865204d696e74657220726f6c6560801b602082015260400192915050565b6000611249602183611599565b7f526f6c65733a206163636f756e7420646f6573206e6f74206861766520726f6c8152606560f81b602082015260400192915050565b600061128c602283611599565b7f526f6c65733a206163636f756e7420697320746865207a65726f206164647265815261737360f01b602082015260400192915050565b60006112d0602183611599565b7f45524332303a206275726e2066726f6d20746865207a65726f206164647265738152607360f81b602082015260400192915050565b6000611313602583611599565b7f45524332303a207472616e736665722066726f6d20746865207a65726f206164815264647265737360d81b602082015260400192915050565b600061135a602483611599565b7f45524332303a20617070726f76652066726f6d20746865207a65726f206164648152637265737360e01b602082015260400192915050565b60006113a0601f83611599565b7f45524332303a206d696e7420746f20746865207a65726f206164647265737300815260200192915050565b611053816115ce565b60006113e1828461107c565b50602001919050565b60006113f68286611088565b91506114028285611062565b6002820191506114128284611088565b95945050505050565b6020810161034c8284611059565b6020810161034c8284611073565b60c081016114458289611073565b611452602083018861104a565b61145f604083018761104a565b61146c6060830186611073565b6114796080830185611073565b61148660a0830184611073565b979650505050505050565b6080810161149f8287611073565b6114ac60208301866113cc565b6114b96040830185611073565b6114126060830184611073565b602080825281016109d381846110b7565b6020808252810161034c816110ef565b6020808252810161034c81611134565b6020808252810161034c8161116d565b6020808252810161034c816111b1565b6020808252810161034c816111ea565b6020808252810161034c8161123c565b6020808252810161034c8161127f565b6020808252810161034c816112c3565b6020808252810161034c81611306565b6020808252810161034c8161134d565b6020808252810161034c81611393565b6020810161034c82846113cc565b5190565b90815260200190565b600061034c826115c2565b151590565b6001600160f01b03191690565b90565b6001600160a01b031690565b60ff1690565b60005b838110156115ef5781810151838201526020016115d7565b838111156115fe576000848401525b50505050565b601f01601f191690565b611617816115a2565b811461047457600080fd5b611617816115bf565b611617816115ce565b600190565b8351602094850120835193850193909320604080517f8b73c3c69bb8fe3d512ecc4cf759cc79239f7b179b0ffacaa9a75d522b39400f815295860194909452928401929092526060830152608082015260a090209056fe45524332303a206275726e20616d6f756e7420657863656564732062616c616e636545524332303a207472616e7366657220616d6f756e7420657863656564732062616c616e636545524332303a206275726e20616d6f756e74206578636565647320616c6c6f77616e6365446f6c6c61723a207472616e7366657220616d6f756e74206578636565647320616c6c6f77616e636545524332303a2064656372656173656420616c6c6f77616e63652062656c6f77207a65726fa365627a7a7231582021717f4bb76e445345cb7f360c6be702a59b3219eb6cebef899d276f27b2e4bb6c6578706572696d656e74616cf564736f6c63430005110040",
  "source": "/*\n    Copyright 2020 Dynamic Dollar Devs, based on the works of the Empty Set Squad\n\n    Licensed under the Apache License, Version 2.0 (the \"License\");\n    you may not use this file except in compliance with the License.\n    You may obtain a copy of the License at\n\n    http://www.apache.org/licenses/LICENSE-2.0\n\n    Unless required by applicable law or agreed to in writing, software\n    distributed under the License is distributed on an \"AS IS\" BASIS,\n    WITHOUT WARRANTIES OR CONDITIONS OF ANY KIND, either express or implied.\n    See the License for the specific language governing permissions and\n    limitations under the License.\n*/\n\npragma solidity ^0.5.17;\npragma experimental ABIEncoderV2;\n\nimport \"../dao/Comptroller.sol\";\nimport \"../token/Dollar.sol\";\nimport \"./MockState.sol\";\n\ncontract MockComptroller is Comptroller, MockState {\n    constructor(address pool) public {\n        _state.provider.dollar = new Dollar();\n        _state.provider.pool = pool;\n    }\n\n    function mintToAccountE(address account, uint256 amount) external {\n        super.mintToAccount(account, amount);\n    }\n\n    function burnFromAccountE(address account, uint256 amount) external {\n        super.burnFromAccount(account, amount);\n    }\n\n    function redeemToAccountE(address account, uint256 amount) external {\n        super.redeemToAccount(account, amount);\n    }\n\n    function burnRedeemableE(uint256 amount) external {\n        super.burnRedeemable(amount);\n    }\n\n    function increaseDebtE(uint256 amount) external {\n        super.increaseDebt(amount);\n    }\n\n    function decreaseDebtE(uint256 amount) external {\n        super.decreaseDebt(amount);\n    }\n\n    function resetDebtE(uint256 percent) external {\n        super.resetDebt(Decimal.ratio(percent, 100));\n    }\n\n    /* For testing only */\n    function mintToE(address account, uint256 amount) external {\n        dollar().mint(account, amount);\n    }\n}\n",
  "sourcePath": "/Users/cinquemb/Documents/Startups/crypto/dollar/protocol/contracts/mock/MockComptroller.sol",
  "compiler": {
    "name": "solc",
    "version": "0.5.17+commit.d19bba13.Emscripten.clang"
  },
  "schemaVersion": "3.3.3",
  "updatedAt": "2021-01-12T11:27:06.580Z",
  "devdoc": {
    "methods": {}
  },
  "userdoc": {
    "methods": {
      "balanceOfStaged(address)": {
        "notice": "Account"
      },
      "createCandidateE(address,uint256)": {
        "notice": "Governance"
      },
      "dollar()": {
        "notice": "Global"
      },
      "epoch()": {
        "notice": "Epoch"
      },
      "incrementBalanceOfE(address,uint256)": {
        "notice": "Account"
      },
      "incrementTotalBondedE(uint256)": {
        "notice": "Global"
      },
      "name()": {
        "notice": "ERC20 Interface"
      },
      "recordedVote(address,address)": {
        "notice": "Governance"
      },
      "setBlockTimestamp(uint256)": {
        "notice": "Mock"
      },
      "setEpochParamsE(uint256,uint256)": {
        "notice": "Epoch"
      },
      "transfer(address,uint256)": {
        "notice": "ERC20 Interface"
      }
    }
  }
}