{
  "contractName": "MockState",
  "abi": [
    {
      "inputs": [],
      "payable": false,
      "stateMutability": "nonpayable",
      "type": "constructor"
    },
    {
      "anonymous": false,
      "inputs": [
        {
          "indexed": true,
          "internalType": "address",
          "name": "from",
          "type": "address"
        },
        {
          "indexed": true,
          "internalType": "address",
          "name": "to",
          "type": "address"
        },
        {
          "indexed": false,
          "internalType": "uint256",
          "name": "value",
          "type": "uint256"
        }
      ],
      "name": "Transfer",
      "type": "event"
    },
    {
      "constant": true,
      "inputs": [
        {
          "internalType": "address",
          "name": "owner",
          "type": "address"
        },
        {
          "internalType": "address",
          "name": "spender",
          "type": "address"
        }
      ],
      "name": "allowance",
      "outputs": [
        {
          "internalType": "uint256",
          "name": "",
          "type": "uint256"
        }
      ],
      "payable": false,
      "stateMutability": "view",
      "type": "function"
    },
    {
      "constant": true,
      "inputs": [
        {
          "internalType": "address",
          "name": "owner",
          "type": "address"
        },
        {
          "internalType": "address",
          "name": "spender",
          "type": "address"
        }
      ],
      "name": "allowanceCoupons",
      "outputs": [
        {
          "internalType": "uint256",
          "name": "",
          "type": "uint256"
        }
      ],
      "payable": false,
      "stateMutability": "view",
      "type": "function"
    },
    {
      "constant": false,
      "inputs": [
        {
          "internalType": "address",
          "name": "spender",
          "type": "address"
        },
        {
          "internalType": "uint256",
          "name": "amount",
          "type": "uint256"
        }
      ],
      "name": "approve",
      "outputs": [
        {
          "internalType": "bool",
          "name": "",
          "type": "bool"
        }
      ],
      "payable": false,
      "stateMutability": "nonpayable",
      "type": "function"
    },
    {
      "constant": true,
      "inputs": [
        {
          "internalType": "address",
          "name": "candidate",
          "type": "address"
        }
      ],
      "name": "approveFor",
      "outputs": [
        {
          "internalType": "uint256",
          "name": "",
          "type": "uint256"
        }
      ],
      "payable": false,
      "stateMutability": "view",
      "type": "function"
    },
    {
      "constant": true,
      "inputs": [
        {
          "internalType": "address",
          "name": "account",
          "type": "address"
        }
      ],
      "name": "balanceOf",
      "outputs": [
        {
          "internalType": "uint256",
          "name": "",
          "type": "uint256"
        }
      ],
      "payable": false,
      "stateMutability": "view",
      "type": "function"
    },
    {
      "constant": true,
      "inputs": [
        {
          "internalType": "address",
          "name": "account",
          "type": "address"
        }
      ],
      "name": "balanceOfBonded",
      "outputs": [
        {
          "internalType": "uint256",
          "name": "",
          "type": "uint256"
        }
      ],
      "payable": false,
      "stateMutability": "view",
      "type": "function"
    },
    {
      "constant": true,
      "inputs": [
        {
          "internalType": "address",
          "name": "account",
          "type": "address"
        },
        {
          "internalType": "uint256",
          "name": "epoch",
          "type": "uint256"
        }
      ],
      "name": "balanceOfCoupons",
      "outputs": [
        {
          "internalType": "uint256",
          "name": "",
          "type": "uint256"
        }
      ],
      "payable": false,
      "stateMutability": "view",
      "type": "function"
    },
    {
      "constant": true,
      "inputs": [
        {
          "internalType": "address",
          "name": "account",
          "type": "address"
        }
      ],
      "name": "balanceOfStaged",
      "outputs": [
        {
          "internalType": "uint256",
          "name": "",
          "type": "uint256"
        }
      ],
      "payable": false,
      "stateMutability": "view",
      "type": "function"
    },
    {
      "constant": true,
      "inputs": [
        {
          "internalType": "uint256",
          "name": "epoch",
          "type": "uint256"
        }
      ],
      "name": "bootstrappingAt",
      "outputs": [
        {
          "internalType": "bool",
          "name": "",
          "type": "bool"
        }
      ],
      "payable": false,
      "stateMutability": "view",
      "type": "function"
    },
    {
      "constant": true,
      "inputs": [
        {
          "internalType": "uint256",
          "name": "epoch",
          "type": "uint256"
        }
      ],
      "name": "couponsExpiration",
      "outputs": [
        {
          "internalType": "uint256",
          "name": "",
          "type": "uint256"
        }
      ],
      "payable": false,
      "stateMutability": "view",
      "type": "function"
    },
    {
      "constant": true,
      "inputs": [],
      "name": "decimals",
      "outputs": [
        {
          "internalType": "uint8",
          "name": "",
          "type": "uint8"
        }
      ],
      "payable": false,
      "stateMutability": "view",
      "type": "function"
    },
    {
      "constant": true,
      "inputs": [],
      "name": "dollar",
      "outputs": [
        {
          "internalType": "contract IDollar",
          "name": "",
          "type": "address"
        }
      ],
      "payable": false,
      "stateMutability": "view",
      "type": "function"
    },
    {
      "constant": true,
      "inputs": [],
      "name": "epoch",
      "outputs": [
        {
          "internalType": "uint256",
          "name": "",
          "type": "uint256"
        }
      ],
      "payable": false,
      "stateMutability": "view",
      "type": "function"
    },
    {
      "constant": true,
      "inputs": [],
      "name": "epochTime",
      "outputs": [
        {
          "internalType": "uint256",
          "name": "",
          "type": "uint256"
        }
      ],
      "payable": false,
      "stateMutability": "view",
      "type": "function"
    },
    {
      "constant": true,
      "inputs": [
        {
          "internalType": "uint256",
          "name": "epoch",
          "type": "uint256"
        }
      ],
      "name": "expiringCoupons",
      "outputs": [
        {
          "internalType": "uint256",
          "name": "",
          "type": "uint256"
        }
      ],
      "payable": false,
      "stateMutability": "view",
      "type": "function"
    },
    {
      "constant": true,
      "inputs": [
        {
          "internalType": "uint256",
          "name": "epoch",
          "type": "uint256"
        },
        {
          "internalType": "uint256",
          "name": "i",
          "type": "uint256"
        }
      ],
      "name": "expiringCouponsAtIndex",
      "outputs": [
        {
          "internalType": "uint256",
          "name": "",
          "type": "uint256"
        }
      ],
      "payable": false,
      "stateMutability": "view",
      "type": "function"
    },
    {
      "constant": true,
      "inputs": [
        {
          "internalType": "address",
          "name": "account",
          "type": "address"
        }
      ],
      "name": "fluidUntil",
      "outputs": [
        {
          "internalType": "uint256",
          "name": "",
          "type": "uint256"
        }
      ],
      "payable": false,
      "stateMutability": "view",
      "type": "function"
    },
    {
      "constant": true,
      "inputs": [
        {
          "internalType": "uint256",
          "name": "epoch",
          "type": "uint256"
        }
      ],
      "name": "getAvgExpiryFilled",
      "outputs": [
        {
          "internalType": "uint256",
          "name": "",
          "type": "uint256"
        }
      ],
      "payable": false,
      "stateMutability": "view",
      "type": "function"
    },
    {
      "constant": true,
      "inputs": [
        {
          "internalType": "uint256",
          "name": "epoch",
          "type": "uint256"
        }
      ],
      "name": "getAvgYieldFilled",
      "outputs": [
        {
          "internalType": "uint256",
          "name": "",
          "type": "uint256"
        }
      ],
      "payable": false,
      "stateMutability": "view",
      "type": "function"
    },
    {
      "constant": true,
      "inputs": [
        {
          "internalType": "uint256",
          "name": "epoch",
          "type": "uint256"
        }
      ],
      "name": "getBidToCover",
      "outputs": [
        {
          "internalType": "uint256",
          "name": "",
          "type": "uint256"
        }
      ],
      "payable": false,
      "stateMutability": "view",
      "type": "function"
    },
    {
      "constant": true,
      "inputs": [
        {
          "internalType": "uint256",
          "name": "epoch",
          "type": "uint256"
        }
      ],
      "name": "getMaxExpiryFilled",
      "outputs": [
        {
          "internalType": "uint256",
          "name": "",
          "type": "uint256"
        }
      ],
      "payable": false,
      "stateMutability": "view",
      "type": "function"
    },
    {
      "constant": true,
      "inputs": [
        {
          "internalType": "uint256",
          "name": "epoch",
          "type": "uint256"
        }
      ],
      "name": "getMaxYieldFilled",
      "outputs": [
        {
          "internalType": "uint256",
          "name": "",
          "type": "uint256"
        }
      ],
      "payable": false,
      "stateMutability": "view",
      "type": "function"
    },
    {
      "constant": true,
      "inputs": [
        {
          "internalType": "uint256",
          "name": "epoch",
          "type": "uint256"
        }
      ],
      "name": "getMinExpiryFilled",
      "outputs": [
        {
          "internalType": "uint256",
          "name": "",
          "type": "uint256"
        }
      ],
      "payable": false,
      "stateMutability": "view",
      "type": "function"
    },
    {
      "constant": true,
      "inputs": [
        {
          "internalType": "uint256",
          "name": "epoch",
          "type": "uint256"
        }
      ],
      "name": "getMinYieldFilled",
      "outputs": [
        {
          "internalType": "uint256",
          "name": "",
          "type": "uint256"
        }
      ],
      "payable": false,
      "stateMutability": "view",
      "type": "function"
    },
    {
      "constant": true,
      "inputs": [
        {
          "internalType": "uint256",
          "name": "epoch",
          "type": "uint256"
        }
      ],
      "name": "getTotalFilled",
      "outputs": [
        {
          "internalType": "uint256",
          "name": "",
          "type": "uint256"
        }
      ],
      "payable": false,
      "stateMutability": "view",
      "type": "function"
    },
    {
      "constant": true,
      "inputs": [],
      "name": "implementation",
      "outputs": [
        {
          "internalType": "address",
          "name": "impl",
          "type": "address"
        }
      ],
      "payable": false,
      "stateMutability": "view",
      "type": "function"
    },
    {
      "constant": true,
      "inputs": [
        {
          "internalType": "address",
          "name": "candidate",
          "type": "address"
        }
      ],
      "name": "isInitialized",
      "outputs": [
        {
          "internalType": "bool",
          "name": "",
          "type": "bool"
        }
      ],
      "payable": false,
      "stateMutability": "view",
      "type": "function"
    },
    {
      "constant": true,
      "inputs": [
        {
          "internalType": "address",
          "name": "candidate",
          "type": "address"
        }
      ],
      "name": "isNominated",
      "outputs": [
        {
          "internalType": "bool",
          "name": "",
          "type": "bool"
        }
      ],
      "payable": false,
      "stateMutability": "view",
      "type": "function"
    },
    {
      "constant": true,
      "inputs": [
        {
          "internalType": "address",
          "name": "account",
          "type": "address"
        }
      ],
      "name": "lockedUntil",
      "outputs": [
        {
          "internalType": "uint256",
          "name": "",
          "type": "uint256"
        }
      ],
      "payable": false,
      "stateMutability": "view",
      "type": "function"
    },
    {
      "constant": true,
      "inputs": [],
      "name": "name",
      "outputs": [
        {
          "internalType": "string",
          "name": "",
          "type": "string"
        }
      ],
      "payable": false,
      "stateMutability": "view",
      "type": "function"
    },
    {
      "constant": true,
      "inputs": [],
      "name": "oracle",
      "outputs": [
        {
          "internalType": "contract IOracle",
          "name": "",
          "type": "address"
        }
      ],
      "payable": false,
      "stateMutability": "view",
      "type": "function"
    },
    {
      "constant": true,
      "inputs": [
        {
          "internalType": "uint256",
          "name": "epoch",
          "type": "uint256"
        }
      ],
      "name": "outstandingCoupons",
      "outputs": [
        {
          "internalType": "uint256",
          "name": "",
          "type": "uint256"
        }
      ],
      "payable": false,
      "stateMutability": "view",
      "type": "function"
    },
    {
      "constant": true,
      "inputs": [
        {
          "internalType": "address",
          "name": "candidate",
          "type": "address"
        }
      ],
      "name": "periodFor",
      "outputs": [
        {
          "internalType": "uint256",
          "name": "",
          "type": "uint256"
        }
      ],
      "payable": false,
      "stateMutability": "view",
      "type": "function"
    },
    {
      "constant": true,
      "inputs": [],
      "name": "pool",
      "outputs": [
        {
          "internalType": "address",
          "name": "",
          "type": "address"
        }
      ],
      "payable": false,
      "stateMutability": "view",
      "type": "function"
    },
    {
      "constant": true,
      "inputs": [
        {
          "internalType": "address",
          "name": "account",
          "type": "address"
        },
        {
          "internalType": "address",
          "name": "candidate",
          "type": "address"
        }
      ],
      "name": "recordedVote",
      "outputs": [
        {
          "internalType": "enum Candidate.Vote",
          "name": "",
          "type": "uint8"
        }
      ],
      "payable": false,
      "stateMutability": "view",
      "type": "function"
    },
    {
      "constant": true,
      "inputs": [
        {
          "internalType": "address",
          "name": "candidate",
          "type": "address"
        }
      ],
      "name": "rejectFor",
      "outputs": [
        {
          "internalType": "uint256",
          "name": "",
          "type": "uint256"
        }
      ],
      "payable": false,
      "stateMutability": "view",
      "type": "function"
    },
    {
      "constant": true,
      "inputs": [
        {
          "internalType": "address",
          "name": "candidate",
          "type": "address"
        }
      ],
      "name": "startFor",
      "outputs": [
        {
          "internalType": "uint256",
          "name": "",
          "type": "uint256"
        }
      ],
      "payable": false,
      "stateMutability": "view",
      "type": "function"
    },
    {
      "constant": true,
      "inputs": [
        {
          "internalType": "address",
          "name": "account",
          "type": "address"
        }
      ],
      "name": "statusOf",
      "outputs": [
        {
          "internalType": "enum Account.Status",
          "name": "",
          "type": "uint8"
        }
      ],
      "payable": false,
      "stateMutability": "view",
      "type": "function"
    },
    {
      "constant": true,
      "inputs": [],
      "name": "symbol",
      "outputs": [
        {
          "internalType": "string",
          "name": "",
          "type": "string"
        }
      ],
      "payable": false,
      "stateMutability": "view",
      "type": "function"
    },
    {
      "constant": true,
      "inputs": [],
      "name": "totalBonded",
      "outputs": [
        {
          "internalType": "uint256",
          "name": "",
          "type": "uint256"
        }
      ],
      "payable": false,
      "stateMutability": "view",
      "type": "function"
    },
    {
      "constant": true,
      "inputs": [
        {
          "internalType": "uint256",
          "name": "epoch",
          "type": "uint256"
        }
      ],
      "name": "totalBondedAt",
      "outputs": [
        {
          "internalType": "uint256",
          "name": "",
          "type": "uint256"
        }
      ],
      "payable": false,
      "stateMutability": "view",
      "type": "function"
    },
    {
      "constant": true,
      "inputs": [],
      "name": "totalCoupons",
      "outputs": [
        {
          "internalType": "uint256",
          "name": "",
          "type": "uint256"
        }
      ],
      "payable": false,
      "stateMutability": "view",
      "type": "function"
    },
    {
      "constant": true,
      "inputs": [],
      "name": "totalDebt",
      "outputs": [
        {
          "internalType": "uint256",
          "name": "",
          "type": "uint256"
        }
      ],
      "payable": false,
      "stateMutability": "view",
      "type": "function"
    },
    {
      "constant": true,
      "inputs": [],
      "name": "totalNet",
      "outputs": [
        {
          "internalType": "uint256",
          "name": "",
          "type": "uint256"
        }
      ],
      "payable": false,
      "stateMutability": "view",
      "type": "function"
    },
    {
      "constant": true,
      "inputs": [],
      "name": "totalRedeemable",
      "outputs": [
        {
          "internalType": "uint256",
          "name": "",
          "type": "uint256"
        }
      ],
      "payable": false,
      "stateMutability": "view",
      "type": "function"
    },
    {
      "constant": true,
      "inputs": [],
      "name": "totalStaged",
      "outputs": [
        {
          "internalType": "uint256",
          "name": "",
          "type": "uint256"
        }
      ],
      "payable": false,
      "stateMutability": "view",
      "type": "function"
    },
    {
      "constant": true,
      "inputs": [],
      "name": "totalSupply",
      "outputs": [
        {
          "internalType": "uint256",
          "name": "",
          "type": "uint256"
        }
      ],
      "payable": false,
      "stateMutability": "view",
      "type": "function"
    },
    {
      "constant": false,
      "inputs": [
        {
          "internalType": "address",
          "name": "recipient",
          "type": "address"
        },
        {
          "internalType": "uint256",
          "name": "amount",
          "type": "uint256"
        }
      ],
      "name": "transfer",
      "outputs": [
        {
          "internalType": "bool",
          "name": "",
          "type": "bool"
        }
      ],
      "payable": false,
      "stateMutability": "nonpayable",
      "type": "function"
    },
    {
      "constant": false,
      "inputs": [
        {
          "internalType": "address",
          "name": "sender",
          "type": "address"
        },
        {
          "internalType": "address",
          "name": "recipient",
          "type": "address"
        },
        {
          "internalType": "uint256",
          "name": "amount",
          "type": "uint256"
        }
      ],
      "name": "transferFrom",
      "outputs": [
        {
          "internalType": "bool",
          "name": "",
          "type": "bool"
        }
      ],
      "payable": false,
      "stateMutability": "nonpayable",
      "type": "function"
    },
    {
      "constant": true,
      "inputs": [
        {
          "internalType": "address",
          "name": "candidate",
          "type": "address"
        }
      ],
      "name": "votesFor",
      "outputs": [
        {
          "internalType": "uint256",
          "name": "",
          "type": "uint256"
        }
      ],
      "payable": false,
      "stateMutability": "view",
      "type": "function"
    },
    {
      "constant": false,
      "inputs": [
        {
          "internalType": "uint256",
          "name": "amount",
          "type": "uint256"
        }
      ],
      "name": "incrementTotalBondedE",
      "outputs": [],
      "payable": false,
      "stateMutability": "nonpayable",
      "type": "function"
    },
    {
      "constant": false,
      "inputs": [
        {
          "internalType": "uint256",
          "name": "amount",
          "type": "uint256"
        },
        {
          "internalType": "string",
          "name": "reason",
          "type": "string"
        }
      ],
      "name": "decrementTotalBondedE",
      "outputs": [],
      "payable": false,
      "stateMutability": "nonpayable",
      "type": "function"
    },
    {
      "constant": false,
      "inputs": [
        {
          "internalType": "uint256",
          "name": "amount",
          "type": "uint256"
        }
      ],
      "name": "incrementTotalDebtE",
      "outputs": [],
      "payable": false,
      "stateMutability": "nonpayable",
      "type": "function"
    },
    {
      "constant": false,
      "inputs": [
        {
          "internalType": "uint256",
          "name": "amount",
          "type": "uint256"
        },
        {
          "internalType": "string",
          "name": "reason",
          "type": "string"
        }
      ],
      "name": "decrementTotalDebtE",
      "outputs": [],
      "payable": false,
      "stateMutability": "nonpayable",
      "type": "function"
    },
    {
      "constant": false,
      "inputs": [
        {
          "internalType": "uint256",
          "name": "amount",
          "type": "uint256"
        }
      ],
      "name": "incrementTotalRedeemableE",
      "outputs": [],
      "payable": false,
      "stateMutability": "nonpayable",
      "type": "function"
    },
    {
      "constant": false,
      "inputs": [
        {
          "internalType": "uint256",
          "name": "amount",
          "type": "uint256"
        },
        {
          "internalType": "string",
          "name": "reason",
          "type": "string"
        }
      ],
      "name": "decrementTotalRedeemableE",
      "outputs": [],
      "payable": false,
      "stateMutability": "nonpayable",
      "type": "function"
    },
    {
      "constant": false,
      "inputs": [
        {
          "internalType": "address",
          "name": "account",
          "type": "address"
        },
        {
          "internalType": "uint256",
          "name": "amount",
          "type": "uint256"
        }
      ],
      "name": "incrementBalanceOfE",
      "outputs": [],
      "payable": false,
      "stateMutability": "nonpayable",
      "type": "function"
    },
    {
      "constant": false,
      "inputs": [
        {
          "internalType": "address",
          "name": "account",
          "type": "address"
        },
        {
          "internalType": "uint256",
          "name": "amount",
          "type": "uint256"
        },
        {
          "internalType": "string",
          "name": "reason",
          "type": "string"
        }
      ],
      "name": "decrementBalanceOfE",
      "outputs": [],
      "payable": false,
      "stateMutability": "nonpayable",
      "type": "function"
    },
    {
      "constant": false,
      "inputs": [
        {
          "internalType": "address",
          "name": "account",
          "type": "address"
        },
        {
          "internalType": "uint256",
          "name": "amount",
          "type": "uint256"
        }
      ],
      "name": "incrementBalanceOfStagedE",
      "outputs": [],
      "payable": false,
      "stateMutability": "nonpayable",
      "type": "function"
    },
    {
      "constant": false,
      "inputs": [
        {
          "internalType": "address",
          "name": "account",
          "type": "address"
        },
        {
          "internalType": "uint256",
          "name": "amount",
          "type": "uint256"
        },
        {
          "internalType": "string",
          "name": "reason",
          "type": "string"
        }
      ],
      "name": "decrementBalanceOfStagedE",
      "outputs": [],
      "payable": false,
      "stateMutability": "nonpayable",
      "type": "function"
    },
    {
      "constant": false,
      "inputs": [
        {
          "internalType": "address",
          "name": "account",
          "type": "address"
        },
        {
          "internalType": "uint256",
          "name": "epoch",
          "type": "uint256"
        },
        {
          "internalType": "uint256",
          "name": "amount",
          "type": "uint256"
        }
      ],
      "name": "incrementBalanceOfCouponsE",
      "outputs": [],
      "payable": false,
      "stateMutability": "nonpayable",
      "type": "function"
    },
    {
      "constant": false,
      "inputs": [
        {
          "internalType": "address",
          "name": "account",
          "type": "address"
        },
        {
          "internalType": "uint256",
          "name": "epoch",
          "type": "uint256"
        },
        {
          "internalType": "uint256",
          "name": "amount",
          "type": "uint256"
        },
        {
          "internalType": "string",
          "name": "reason",
          "type": "string"
        }
      ],
      "name": "decrementBalanceOfCouponsE",
      "outputs": [],
      "payable": false,
      "stateMutability": "nonpayable",
      "type": "function"
    },
    {
      "constant": false,
      "inputs": [
        {
          "internalType": "address",
          "name": "account",
          "type": "address"
        }
      ],
      "name": "unfreezeE",
      "outputs": [],
      "payable": false,
      "stateMutability": "nonpayable",
      "type": "function"
    },
    {
      "constant": false,
      "inputs": [
        {
          "internalType": "address",
          "name": "owner",
          "type": "address"
        },
        {
          "internalType": "address",
          "name": "spender",
          "type": "address"
        },
        {
          "internalType": "uint256",
          "name": "amount",
          "type": "uint256"
        }
      ],
      "name": "updateAllowanceCouponsE",
      "outputs": [],
      "payable": false,
      "stateMutability": "nonpayable",
      "type": "function"
    },
    {
      "constant": false,
      "inputs": [
        {
          "internalType": "address",
          "name": "owner",
          "type": "address"
        },
        {
          "internalType": "address",
          "name": "spender",
          "type": "address"
        },
        {
          "internalType": "uint256",
          "name": "amount",
          "type": "uint256"
        },
        {
          "internalType": "string",
          "name": "reason",
          "type": "string"
        }
      ],
      "name": "decrementAllowanceCouponsE",
      "outputs": [],
      "payable": false,
      "stateMutability": "nonpayable",
      "type": "function"
    },
    {
      "constant": false,
      "inputs": [
        {
          "internalType": "uint256",
          "name": "start",
          "type": "uint256"
        },
        {
          "internalType": "uint256",
          "name": "period",
          "type": "uint256"
        }
      ],
      "name": "setEpochParamsE",
      "outputs": [],
      "payable": false,
      "stateMutability": "nonpayable",
      "type": "function"
    },
    {
      "constant": false,
      "inputs": [],
      "name": "incrementEpochE",
      "outputs": [],
      "payable": false,
      "stateMutability": "nonpayable",
      "type": "function"
    },
    {
      "constant": false,
      "inputs": [],
      "name": "snapshotTotalBondedE",
      "outputs": [],
      "payable": false,
      "stateMutability": "nonpayable",
      "type": "function"
    },
    {
      "constant": false,
      "inputs": [
        {
          "internalType": "uint256",
          "name": "epoch",
          "type": "uint256"
        },
        {
          "internalType": "uint256",
          "name": "expiration",
          "type": "uint256"
        }
      ],
      "name": "initializeCouponsExpirationE",
      "outputs": [],
      "payable": false,
      "stateMutability": "nonpayable",
      "type": "function"
    },
    {
      "constant": false,
      "inputs": [
        {
          "internalType": "uint256",
          "name": "epoch",
          "type": "uint256"
        }
      ],
      "name": "eliminateOutstandingCouponsE",
      "outputs": [],
      "payable": false,
      "stateMutability": "nonpayable",
      "type": "function"
    },
    {
      "constant": false,
      "inputs": [
        {
          "internalType": "uint256",
          "name": "epoch",
          "type": "uint256"
        }
      ],
      "name": "isCouponAuctionInitAtEpochE",
      "outputs": [
        {
          "internalType": "bool",
          "name": "",
          "type": "bool"
        }
      ],
      "payable": false,
      "stateMutability": "nonpayable",
      "type": "function"
    },
    {
      "constant": false,
      "inputs": [
        {
          "internalType": "address",
          "name": "candidate",
          "type": "address"
        },
        {
          "internalType": "uint256",
          "name": "period",
          "type": "uint256"
        }
      ],
      "name": "createCandidateE",
      "outputs": [],
      "payable": false,
      "stateMutability": "nonpayable",
      "type": "function"
    },
    {
      "constant": false,
      "inputs": [
        {
          "internalType": "address",
          "name": "account",
          "type": "address"
        },
        {
          "internalType": "address",
          "name": "candidate",
          "type": "address"
        },
        {
          "internalType": "enum Candidate.Vote",
          "name": "vote",
          "type": "uint8"
        }
      ],
      "name": "recordVoteE",
      "outputs": [],
      "payable": false,
      "stateMutability": "nonpayable",
      "type": "function"
    },
    {
      "constant": false,
      "inputs": [
        {
          "internalType": "address",
          "name": "candidate",
          "type": "address"
        },
        {
          "internalType": "uint256",
          "name": "amount",
          "type": "uint256"
        }
      ],
      "name": "incrementApproveForE",
      "outputs": [],
      "payable": false,
      "stateMutability": "nonpayable",
      "type": "function"
    },
    {
      "constant": false,
      "inputs": [
        {
          "internalType": "address",
          "name": "candidate",
          "type": "address"
        },
        {
          "internalType": "uint256",
          "name": "amount",
          "type": "uint256"
        },
        {
          "internalType": "string",
          "name": "reason",
          "type": "string"
        }
      ],
      "name": "decrementApproveForE",
      "outputs": [],
      "payable": false,
      "stateMutability": "nonpayable",
      "type": "function"
    },
    {
      "constant": false,
      "inputs": [
        {
          "internalType": "address",
          "name": "candidate",
          "type": "address"
        },
        {
          "internalType": "uint256",
          "name": "amount",
          "type": "uint256"
        }
      ],
      "name": "incrementRejectForE",
      "outputs": [],
      "payable": false,
      "stateMutability": "nonpayable",
      "type": "function"
    },
    {
      "constant": false,
      "inputs": [
        {
          "internalType": "address",
          "name": "candidate",
          "type": "address"
        },
        {
          "internalType": "uint256",
          "name": "amount",
          "type": "uint256"
        },
        {
          "internalType": "string",
          "name": "reason",
          "type": "string"
        }
      ],
      "name": "decrementRejectForE",
      "outputs": [],
      "payable": false,
      "stateMutability": "nonpayable",
      "type": "function"
    },
    {
      "constant": false,
      "inputs": [
        {
          "internalType": "address",
          "name": "account",
          "type": "address"
        },
        {
          "internalType": "address",
          "name": "candidate",
          "type": "address"
        }
      ],
      "name": "placeLockE",
      "outputs": [],
      "payable": false,
      "stateMutability": "nonpayable",
      "type": "function"
    },
    {
      "constant": false,
      "inputs": [
        {
          "internalType": "address",
          "name": "candidate",
          "type": "address"
        }
      ],
      "name": "initializedE",
      "outputs": [],
      "payable": false,
      "stateMutability": "nonpayable",
      "type": "function"
    },
    {
      "constant": false,
      "inputs": [
        {
          "internalType": "uint256",
          "name": "timestamp",
          "type": "uint256"
        }
      ],
      "name": "setBlockTimestamp",
      "outputs": [],
      "payable": false,
      "stateMutability": "nonpayable",
      "type": "function"
    }
  ],
  "bytecode": "0x608060405234801561001057600080fd5b5042600f55612269806100246000396000f3fe608060405234801561001057600080fd5b50600436106104805760003560e01c806386cf9f1411610257578063bc7513e211610146578063d6d8816d116100c3578063f1b7cf4911610087578063f1b7cf49146109b4578063f35adf7e146109c7578063f7a31818146109cf578063fc7b9c18146109e2578063ffbe3b73146109ea57610480565b8063d6d8816d1461095a578063d83d3ed51461096d578063dd62ed3e14610980578063e0abdf661461098e578063eeaca09b146109a157610480565b8063cb0fbc711161010a578063cb0fbc7114610906578063cc8d823c14610919578063cf0237791461092c578063d53c6f5f14610934578063d60b347f1461094757610480565b8063bc7513e2146108a7578063c1410c02146108ba578063c2aeb5fe146108cd578063c34eee65146108e0578063c9aff70c146108f357610480565b8063a00e14d1116101d4578063a9b3cf1511610198578063a9b3cf1514610848578063adbff2be1461085b578063ae5c23811461086e578063b11ee0e314610881578063b32a2f901461089457610480565b8063a00e14d114610807578063a50cd8e71461081a578063a6c409f11461082d578063a6f37b5314610835578063a9059cbb146104a357610480565b80639a649edc1161021b5780639a649edc146107b35780639b82b49b146107bb5780639bc289f1146107ce5780639be46493146107e15780639f6e1b26146107f457610480565b806386cf9f141461076a5780638de2e5731461077d578063900cf0cf1461079057806395d89b411461079857806397a5d5b5146107a057610480565b80633fd4973c116103735780636b862d66116102f05780637cb95a32116102b45780637cb95a32146107165780637d8bb869146107295780637dc0d1d01461073c578063825ad607146107445780638413e52a1461075757610480565b80636b862d66146106c257806370a08231146106d557806371c511eb146106e857806372924d2a146106f057806375d5024b1461070357610480565b806351bf21d81161033757806351bf21d81461066e578063520acb76146106815780635c60da1b14610694578063646680221461069c5780636a39e328146106af57610480565b80633fd4973c1461062357806344d96e95146106365780634c7360991461063e5780635053e4611461065157806351adeb571461065957610480565b806323b872dd11610401578063353a420c116103c5578063353a420c146105b75780633a3e6c81146105ca5780633dc905c7146105dd5780633f7bcaf3146105f05780633fbba9a61461060357610480565b806323b872dd14610556578063259f7adf146105695780632d7f23b31461057c578063313ce5671461058f57806332347422146105a457610480565b806315e14bf61161044857806315e14bf61461050b57806316f0115b1461051e57806318160ddd146105335780631a08e22a1461053b5780631edbcf6c1461054e57610480565b806306fdde0314610485578063095ea7b3146104a35780630dc6d3a3146104c357806310e95b6c146104d85780631550ec24146104f8575b600080fd5b61048d6109fd565b60405161049a919061211d565b60405180910390f35b6104b66104b1366004611e45565b610a34565b60405161049a91906120f3565b6104d66104d1366004611dc7565b610a3d565b005b6104eb6104e6366004611f44565b610a86565b60405161049a919061214e565b6104b6610506366004611f44565b610a9e565b6104eb610519366004611cd7565b610ab3565b610526610ad1565b60405161049a91906120e5565b6104eb610ae0565b6104d6610549366004611fd6565b610ae6565b6104eb610af4565b6104b6610564366004611d84565b610afa565b6104d6610577366004611f44565b610b03565b6104eb61058a366004611f44565b610b0f565b610597610b24565b60405161049a919061215c565b6104d66105b2366004611f80565b610b29565b6104eb6105c5366004611cd7565b610b6e565b6104b66105d8366004611cd7565b610b8c565b6104eb6105eb366004611f44565b610ba9565b6104d66105fe366004611d84565b610bbe565b610616610611366004611cfd565b610bc9565b60405161049a919061210f565b6104d6610631366004611e75565b610bfc565b6104eb610c43565b6104eb61064c366004611fd6565b610c49565b6104eb610c79565b610661610c9c565b60405161049a9190612101565b6104eb61067c366004611cd7565b610cab565b6104eb61068f366004611f44565b610cc9565b610526610cde565b6104eb6106aa366004611cd7565b610d03565b6104eb6106bd366004611f44565b610d21565b6104d66106d0366004611edd565b610d36565b6104eb6106e3366004611cd7565b610d41565b6104d6610d5f565b6104d66106fe366004611f80565b610d69565b6104b6610711366004611f44565b610da9565b6104d6610724366004611e75565b610dbc565b6104eb610737366004611f44565b610dfd565b610661610e12565b6104eb610752366004611cd7565b610e21565b6104d6610765366004611d37565b610e74565b6104eb610778366004611cd7565b610e7f565b6104d661078b366004611f44565b610e9a565b6104eb610ea3565b61048d610ea9565b6106166107ae366004611cd7565b610ec7565b6104eb610f2c565b6104d66107c9366004611f80565b610f32565b6104eb6107dc366004611cd7565b610f72565b6104d66107ef366004611cd7565b610f90565b6104eb610802366004611cfd565b610f99565b6104d6610815366004611fd6565b610fc8565b6104eb610828366004611cd7565b610fd3565b6104eb610ff6565b6104d6610843366004611cd7565b61108c565b6104d6610856366004611f44565b611095565b6104d6610869366004611e75565b61109e565b6104d661087c366004611e45565b6110df565b6104d661088f366004611e45565b6110e9565b6104d66108a2366004611e75565b6110f3565b6104eb6108b5366004611e45565b611134565b6104d66108c8366004611cfd565b611178565b6104d66108db366004611f0f565b611182565b6104eb6108ee366004611f44565b6111c4565b6104eb610901366004611f44565b6111d9565b6104eb610914366004611f44565b6111ee565b6104d6610927366004611e45565b611203565b6104eb61120d565b6104eb610942366004611f44565b611213565b6104b6610955366004611cd7565b611229565b6104d6610968366004611f44565b61124a565b6104d661097b366004611e45565b611253565b6104eb6104b1366004611cfd565b6104d661099c366004611f44565b61125d565b6104eb6109af366004611f44565b611262565b6104eb6109c2366004611cd7565b611277565b6104d6611292565b6104d66109dd366004611e45565b61129a565b6104eb6112a4565b6104eb6109f8366004611f44565b6112aa565b60408051808201909152601881527f44796e616d69632053657420446f6c6c6172205374616b650000000000000000602082015290565b60005b92915050565b610a7f85858585858080601f0160208091040260200160405190810160405280939291908181526020018383808284376000920191909152506112bc92505050565b5050505050565b6000818152600d60205260409020600201545b919050565b6000610aa98261132d565b5460ff1692915050565b6001600160a01b03166000908152600e602052604090206001015490565b600b546001600160a01b031690565b60035490565b610af08282611341565b5050565b60065490565b60009392505050565b610b0c81611373565b50565b6000908152600d60205260409020600a015490565b601290565b610b698383838080601f01602080910402602001604051908101604052809392919081815260200183838082843760009201919091525061138c92505050565b505050565b6001600160a01b03166000908152600e602052604090206003015490565b6001600160a01b03166000908152600e6020526040902054151590565b6000908152600d60205260409020600c015490565b610b698383836113a7565b6001600160a01b038082166000908152600e60209081526040808320938616835260049093019052205460ff1692915050565b610c3d848484848080601f0160208091040260200160405190810160405280939291908181526020018383808284376000920191909152506113d792505050565b50505050565b60045490565b6000828152600d60205260408120600301805483908110610c6657fe5b9060005260206000200154905092915050565b6000610c83611c41565b610c8b611428565b9050610c9681611457565b91505090565b6009546001600160a01b031690565b6001600160a01b03166000908152600c602052604090206004015490565b6000908152600d60205260409020600e015490565b7f360894a13ba1a3210667c828492db98dca3e2076cc3735a920a3ca505d382bbc5490565b6001600160a01b03166000908152600e602052604090206002015490565b6000908152600d602052604090206003015490565b610b69838383611479565b6001600160a01b03166000908152600c602052604090206001015490565b610d67611520565b565b610b698383838080601f01602080910402602001604051908101604052809392919081815260200183838082843760009201919091525061154792505050565b6000610db3611562565b90911115919050565b610c3d848484848080601f01602080910402602001604051908101604052809392919081815260200183838082843760009201919091525061156792505050565b6000908152600d602052604090206010015490565b600a546001600160a01b031690565b600080610e2c610ae0565b905080610e3d576000915050610a99565b610e6d81610e61610e4d86610d41565b610e55610c43565b9063ffffffff6115b816565b9063ffffffff6115fb16565b9392505050565b610b6983838361163d565b6001600160a01b03166000908152600c602052604090205490565b610b0c81611687565b60025490565b6040805180820190915260048152634453445360e01b602082015290565b6000610ed1610ea3565b6001600160a01b0383166000908152600c60205260409020600501541115610efb57506002610a99565b6001600160a01b0382166000908152600c6020526040902060040154610f1f610ea3565b1015610a34576001610a37565b60085490565b610b698383838080601f0160208091040260200160405190810160405280939291908181526020018383808284376000920191909152506116a092505050565b6001600160a01b03166000908152600c602052604090206005015490565b610b0c816116bb565b6001600160a01b039182166000908152600c602090815260408083209390941682526003909201909152205490565b600091909155600155565b6000610a37610fe183610b6e565b610fea84610d03565b9063ffffffff6116ed16565b60006110876110036112a4565b61100b610c9c565b6001600160a01b03166318160ddd6040518163ffffffff1660e01b815260040160206040518083038186803b15801561104357600080fd5b505afa158015611057573d6000803e3d6000fd5b505050506040513d601f19601f8201168201806040525061107b9190810190611f62565b9063ffffffff61171216565b905090565b610b0c81611754565b610b0c8161177b565b610c3d848484848080601f0160208091040260200160405190810160405280939291908181526020018383808284376000920191909152506117be92505050565b610af08282611869565b610af08282611911565b610c3d848484848080601f01602080910402602001604051908101604052809392919081815260200183838082843760009201919091525061196d92505050565b600061113f826111d9565b61114b57506000610a37565b506001600160a01b03919091166000908152600c6020908152604080832093835260029093019052205490565b610af082826119cc565b610a7f85858585858080601f016020809104026020016040519081016040528093929190818152602001838380828437600092019190915250611a2c92505050565b6000908152600d60205260409020600f015490565b6000908152600d602052604090206001015490565b6000908152600d602052604090206011015490565b610af08282611ad7565b60055490565b6000908152600d60208190526040909120015490565b6001600160a01b03166000908152600e602052604090206005015460ff1690565b610b0c81611b26565b610af08282611b3f565b600f55565b6000908152600d60205260409020600b015490565b6001600160a01b03166000908152600e602052604090205490565b610d67611b6b565b610af08282611b84565b60075490565b6000908152600d602052604090205490565b6001600160a01b038085166000908152600c6020908152604080832093871683526003909301905220546112f790838363ffffffff611bd316565b6001600160a01b039485166000908152600c60209081526040808320969097168252600390950190945293909220929092555050565b6000908152600d6020526040902060040190565b6000828152600d6020908152604080832060020184905592825291812060030180546001810182559082529190200155565b600454611386908263ffffffff6116ed16565b60045550565b6006546113a090838363ffffffff611bd316565b6006555050565b6001600160a01b039283166000908152600c60209081526040808320949095168252600390930190925291902055565b6001600160a01b0383166000908152600e602052604090206003015461140490838363ffffffff611bd316565b6001600160a01b039093166000908152600e60205260409020600301929092555050565b611430611c41565b604051806060016040528060008152602001635fbef0008152602001611c20815250905090565b6000610a378260000151610fea8460400151610e61866020015161107b611bff565b6001600160a01b0383166000908152600c602090815260408083208584526002019091529020546114b0908263ffffffff6116ed16565b6001600160a01b0384166000908152600c60209081526040808320868452600201825280832093909355600d905220600101546114f3908263ffffffff6116ed16565b6000838152600d6020526040902060010155600854611518908263ffffffff6116ed16565b600855505050565b611528610ae0565b600d6000611534610ea3565b8152602081019190915260400160002055565b60075461155b90838363ffffffff611bd316565b6007555050565b609690565b6001600160a01b0383166000908152600e602052604090206002015461159490838363ffffffff611bd316565b6001600160a01b039093166000908152600e60205260409020600201929092555050565b6000826115c757506000610a37565b828202828482816115d457fe5b0414610e6d5760405162461bcd60e51b81526004016115f29061213e565b60405180910390fd5b6000610e6d83836040518060400160405280601a81526020017f536166654d6174683a206469766973696f6e206279207a65726f000000000000815250611c05565b6001600160a01b038083166000908152600e6020908152604080832093871683526004909301905220805482919060ff1916600183600281111561167d57fe5b0217905550505050565b60075461169a908263ffffffff6116ed16565b60075550565b6004546116b490838363ffffffff611bd316565b6004555050565b6116ce6116c6611c3c565b610fea610ea3565b6001600160a01b039091166000908152600c6020526040902060040155565b600082820183811015610e6d5760405162461bcd60e51b81526004016115f29061212e565b6000610e6d83836040518060400160405280601e81526020017f536166654d6174683a207375627472616374696f6e206f766572666c6f770000815250611bd3565b6001600160a01b03166000908152600e60205260409020600501805460ff19166001179055565b6000611786826111d9565b9050806117935750610b0c565b6008546117a6908263ffffffff61171216565b600855506000908152600d6020526040812060010155565b6001600160a01b0383166000908152600c60205260409020600101546117eb90838363ffffffff611bd316565b6001600160a01b0384166000908152600c602052604090206001015560035461181b90838363ffffffff611bd316565b6003556040516000906001600160a01b038516907fddf252ad1be2c89b69c2b068fc378daa952ba7f163c4a11628f55a4df523b3ef9061185c90869061214e565b60405180910390a3505050565b6001600160a01b0382166000908152600c6020526040902060010154611895908263ffffffff6116ed16565b6001600160a01b0383166000908152600c60205260409020600101556003546118c4908263ffffffff6116ed16565b6003556040516001600160a01b038316906000907fddf252ad1be2c89b69c2b068fc378daa952ba7f163c4a11628f55a4df523b3ef9061190590859061214e565b60405180910390a35050565b6001600160a01b0382166000908152600c602052604090205461193a908263ffffffff6116ed16565b6001600160a01b0383166000908152600c6020526040902055600554611966908263ffffffff6116ed16565b6005555050565b6001600160a01b0383166000908152600c602052604090205461199790838363ffffffff611bd316565b6001600160a01b0384166000908152600c60205260409020556005546119c490838363ffffffff611bd316565b600555505050565b6001600160a01b0382166000908152600c6020526040812060050154906119fe6119f584610ab3565b610fea85611277565b905081811115610c3d576001600160a01b0384166000908152600c6020526040902060050181905550505050565b6001600160a01b0384166000908152600c60209081526040808320868452600201909152902054611a6490838363ffffffff611bd316565b6001600160a01b0385166000908152600c60209081526040808320878452600201825280832093909355600d90522060010154611aa890838363ffffffff611bd316565b6000848152600d6020526040902060010155600854611ace90838363ffffffff611bd316565b60085550505050565b6001600160a01b0382166000908152600e6020526040902060030154611b03908263ffffffff6116ed16565b6001600160a01b039092166000908152600e602052604090206003019190915550565b600654611b39908263ffffffff6116ed16565b60065550565b611b47610ea3565b6001600160a01b039092166000908152600e60205260409020918255600190910155565b600254611b7f90600163ffffffff6116ed16565b600255565b6001600160a01b0382166000908152600e6020526040902060020154611bb0908263ffffffff6116ed16565b6001600160a01b039092166000908152600e602052604090206002019190915550565b60008184841115611bf75760405162461bcd60e51b81526004016115f2919061211d565b505050900390565b600f5490565b60008183611c265760405162461bcd60e51b81526004016115f2919061211d565b506000838581611c3257fe5b0495945050505050565b602490565b60405180606001604052806000815260200160008152602001600081525090565b8035610a37816121fc565b8035610a3781612210565b60008083601f840112611c8a57600080fd5b50813567ffffffffffffffff811115611ca257600080fd5b602083019150836001820283011115611cba57600080fd5b9250929050565b8035610a378161221d565b8051610a378161221d565b600060208284031215611ce957600080fd5b6000611cf58484611c62565b949350505050565b60008060408385031215611d1057600080fd5b6000611d1c8585611c62565b9250506020611d2d85828601611c62565b9150509250929050565b600080600060608486031215611d4c57600080fd5b6000611d588686611c62565b9350506020611d6986828701611c62565b9250506040611d7a86828701611c6d565b9150509250925092565b600080600060608486031215611d9957600080fd5b6000611da58686611c62565b9350506020611db686828701611c62565b9250506040611d7a86828701611cc1565b600080600080600060808688031215611ddf57600080fd5b6000611deb8888611c62565b9550506020611dfc88828901611c62565b9450506040611e0d88828901611cc1565b935050606086013567ffffffffffffffff811115611e2a57600080fd5b611e3688828901611c78565b92509250509295509295909350565b60008060408385031215611e5857600080fd5b6000611e648585611c62565b9250506020611d2d85828601611cc1565b60008060008060608587031215611e8b57600080fd5b6000611e978787611c62565b9450506020611ea887828801611cc1565b935050604085013567ffffffffffffffff811115611ec557600080fd5b611ed187828801611c78565b95989497509550505050565b600080600060608486031215611ef257600080fd5b6000611efe8686611c62565b9350506020611db686828701611cc1565b600080600080600060808688031215611f2757600080fd5b6000611f338888611c62565b9550506020611dfc88828901611cc1565b600060208284031215611f5657600080fd5b6000611cf58484611cc1565b600060208284031215611f7457600080fd5b6000611cf58484611ccc565b600080600060408486031215611f9557600080fd5b6000611fa18686611cc1565b935050602084013567ffffffffffffffff811115611fbe57600080fd5b611fca86828701611c78565b92509250509250925092565b60008060408385031215611fe957600080fd5b6000611e648585611cc1565b611ffe81612177565b82525050565b611ffe81612182565b611ffe816121a6565b611ffe816121b1565b600061202a8261216a565b612034818561216e565b93506120448185602086016121bc565b61204d816121e8565b9093019392505050565b6000612064601b8361216e565b7f536166654d6174683a206164646974696f6e206f766572666c6f770000000000815260200192915050565b600061209d60218361216e565b7f536166654d6174683a206d756c7469706c69636174696f6e206f766572666c6f8152607760f81b602082015260400192915050565b611ffe8161219d565b611ffe816121a0565b60208101610a378284611ff5565b60208101610a378284612004565b60208101610a37828461200d565b60208101610a378284612016565b60208082528101610e6d818461201f565b60208082528101610a3781612057565b60208082528101610a3781612090565b60208101610a3782846120d3565b60208101610a3782846120dc565b5190565b90815260200190565b6000610a3782612191565b151590565b80610a99816121f2565b6001600160a01b031690565b90565b60ff1690565b6000610a3782612177565b6000610a3782612187565b60005b838110156121d75781810151838201526020016121bf565b83811115610c3d5750506000910152565b601f01601f191690565b60038110610b0c57fe5b61220581612177565b8114610b0c57600080fd5b60038110610b0c57600080fd5b6122058161219d56fea365627a7a72315820e2c5beb1c13f314cb927480e7173df021794fb7e41b33275df4a5e3a4402e9046c6578706572696d656e74616cf564736f6c63430005110040",
  "source": "/*\n    Copyright 2020 Dynamic Dollar Devs, based on the works of the Empty Set Squad\n\n    Licensed under the Apache License, Version 2.0 (the \"License\");\n    you may not use this file except in compliance with the License.\n    You may obtain a copy of the License at\n\n    http://www.apache.org/licenses/LICENSE-2.0\n\n    Unless required by applicable law or agreed to in writing, software\n    distributed under the License is distributed on an \"AS IS\" BASIS,\n    WITHOUT WARRANTIES OR CONDITIONS OF ANY KIND, either express or implied.\n    See the License for the specific language governing permissions and\n    limitations under the License.\n*/\n\npragma solidity ^0.5.17;\npragma experimental ABIEncoderV2;\n\nimport \"../dao/Setters.sol\";\n\ncontract MockState is Setters {\n    uint256 internal _blockTimestamp;\n\n    constructor () public {\n        _blockTimestamp = block.timestamp;\n    }\n\n    /**\n     * Global\n     */\n\n    function incrementTotalBondedE(uint256 amount) external {\n        super.incrementTotalBonded(amount);\n    }\n\n    function decrementTotalBondedE(uint256 amount, string calldata reason) external {\n        super.decrementTotalBonded(amount, reason);\n    }\n\n    function incrementTotalDebtE(uint256 amount) external {\n        super.incrementTotalDebt(amount);\n    }\n\n    function decrementTotalDebtE(uint256 amount, string calldata reason) external {\n        super.decrementTotalDebt(amount, reason);\n    }\n\n    function incrementTotalRedeemableE(uint256 amount) external {\n        super.incrementTotalRedeemable(amount);\n    }\n\n    function decrementTotalRedeemableE(uint256 amount, string calldata reason) external {\n        super.decrementTotalRedeemable(amount, reason);\n    }\n\n    /**\n     * Account\n     */\n\n    function incrementBalanceOfE(address account, uint256 amount) external {\n        super.incrementBalanceOf(account, amount);\n    }\n\n    function decrementBalanceOfE(address account, uint256 amount, string calldata reason) external {\n        super.decrementBalanceOf(account, amount, reason);\n    }\n\n    function incrementBalanceOfStagedE(address account, uint256 amount) external {\n        super.incrementBalanceOfStaged(account, amount);\n    }\n\n    function decrementBalanceOfStagedE(address account, uint256 amount, string calldata reason) external {\n        super.decrementBalanceOfStaged(account, amount, reason);\n    }\n\n    function incrementBalanceOfCouponsE(address account, uint256 epoch, uint256 amount) external {\n        super.incrementBalanceOfCoupons(account, epoch, amount);\n    }\n\n    function decrementBalanceOfCouponsE(address account, uint256 epoch, uint256 amount, string calldata reason) external {\n        super.decrementBalanceOfCoupons(account, epoch, amount, reason);\n    }\n\n    function unfreezeE(address account) external {\n        super.unfreeze(account);\n    }\n\n    function updateAllowanceCouponsE(address owner, address spender, uint256 amount) external {\n        super.updateAllowanceCoupons(owner, spender, amount);\n    }\n\n    function decrementAllowanceCouponsE(address owner, address spender, uint256 amount, string calldata reason) external {\n        super.decrementAllowanceCoupons(owner, spender, amount, reason);\n    }\n\n    /**\n     * Epoch\n     */\n\n    function setEpochParamsE(uint256 start, uint256 period) external {\n        _state.epoch.start = start;\n        _state.epoch.period = period;\n    }\n\n    function incrementEpochE() external {\n        super.incrementEpoch();\n    }\n\n    function snapshotTotalBondedE() external {\n        super.snapshotTotalBonded();\n    }\n\n    function initializeCouponsExpirationE(uint256 epoch, uint256 expiration) external {\n        super.initializeCouponsExpiration(epoch, expiration);\n    }\n\n    function eliminateOutstandingCouponsE(uint256 epoch) external {\n       super.eliminateOutstandingCoupons(epoch);\n    }\n\n    function isCouponAuctionInitAtEpochE(uint256 epoch) external returns (bool) {\n        return super.getCouponAuctionAtEpoch(epoch).isInit;\n    }\n\n\n    /**\n     * Governance\n     */\n\n    function createCandidateE(address candidate, uint256 period) external {\n        super.createCandidate(candidate, period);\n    }\n\n    function recordVoteE(address account, address candidate, Candidate.Vote vote) external {\n        super.recordVote(account, candidate, vote);\n    }\n\n    function incrementApproveForE(address candidate, uint256 amount) external {\n        super.incrementApproveFor(candidate, amount);\n    }\n\n    function decrementApproveForE(address candidate, uint256 amount, string calldata reason) external {\n        super.decrementApproveFor(candidate, amount, reason);\n    }\n\n    function incrementRejectForE(address candidate, uint256 amount) external {\n        super.incrementRejectFor(candidate, amount);\n    }\n\n    function decrementRejectForE(address candidate, uint256 amount, string calldata reason) external {\n        super.decrementRejectFor(candidate, amount, reason);\n    }\n\n    function placeLockE(address account, address candidate) external {\n        super.placeLock(account, candidate);\n    }\n\n    function initializedE(address candidate) external {\n        super.initialized(candidate);\n    }\n\n    /**\n     * Mock\n     */\n\n    function setBlockTimestamp(uint256 timestamp) external {\n        _blockTimestamp = timestamp;\n    }\n\n    function blockTimestamp() internal view returns (uint256) {\n        return _blockTimestamp;\n    }\n}\n",
  "sourcePath": "/Users/cinquemb/Documents/Startups/crypto/dollar/protocol/contracts/mock/MockState.sol",
  "compiler": {
    "name": "solc",
    "version": "0.5.17+commit.d19bba13.Emscripten.clang"
  },
  "schemaVersion": "3.3.3",
  "updatedAt": "2021-01-12T08:04:50.001Z",
  "devdoc": {
    "methods": {}
  },
  "userdoc": {
    "methods": {
      "balanceOfStaged(address)": {
        "notice": "Account"
      },
      "createCandidateE(address,uint256)": {
        "notice": "Governance"
      },
      "dollar()": {
        "notice": "Global"
      },
      "epoch()": {
        "notice": "Epoch"
      },
      "incrementBalanceOfE(address,uint256)": {
        "notice": "Account"
      },
      "incrementTotalBondedE(uint256)": {
        "notice": "Global"
      },
      "name()": {
        "notice": "ERC20 Interface"
      },
      "recordedVote(address,address)": {
        "notice": "Governance"
      },
      "setBlockTimestamp(uint256)": {
        "notice": "Mock"
      },
      "setEpochParamsE(uint256,uint256)": {
        "notice": "Epoch"
      },
      "transfer(address,uint256)": {
        "notice": "ERC20 Interface"
      }
    }
  }
}