{
  "contractName": "MockRegulator",
  "abi": [
    {
      "inputs": [
        {
          "internalType": "address",
          "name": "oracle",
          "type": "address"
        },
        {
          "internalType": "address",
          "name": "pool",
          "type": "address"
        }
      ],
      "payable": false,
      "stateMutability": "nonpayable",
      "type": "constructor"
    },
    {
      "anonymous": false,
      "inputs": [
        {
          "indexed": true,
          "internalType": "uint256",
          "name": "epoch",
          "type": "uint256"
        },
        {
          "indexed": false,
          "internalType": "uint256",
          "name": "price",
          "type": "uint256"
        },
        {
          "indexed": false,
          "internalType": "uint256",
          "name": "newDebt",
          "type": "uint256"
        }
      ],
      "name": "SupplyDecrease",
      "type": "event"
    },
    {
      "anonymous": false,
      "inputs": [
        {
          "indexed": true,
          "internalType": "uint256",
          "name": "epoch",
          "type": "uint256"
        },
        {
          "indexed": false,
          "internalType": "uint256",
          "name": "price",
          "type": "uint256"
        },
        {
          "indexed": false,
          "internalType": "uint256",
          "name": "newRedeemable",
          "type": "uint256"
        },
        {
          "indexed": false,
          "internalType": "uint256",
          "name": "lessDebt",
          "type": "uint256"
        },
        {
          "indexed": false,
          "internalType": "uint256",
          "name": "newBonded",
          "type": "uint256"
        }
      ],
      "name": "SupplyIncrease",
      "type": "event"
    },
    {
      "anonymous": false,
      "inputs": [
        {
          "indexed": true,
          "internalType": "uint256",
          "name": "epoch",
          "type": "uint256"
        }
      ],
      "name": "SupplyNeutral",
      "type": "event"
    },
    {
      "anonymous": false,
      "inputs": [
        {
          "indexed": true,
          "internalType": "address",
          "name": "from",
          "type": "address"
        },
        {
          "indexed": true,
          "internalType": "address",
          "name": "to",
          "type": "address"
        },
        {
          "indexed": false,
          "internalType": "uint256",
          "name": "value",
          "type": "uint256"
        }
      ],
      "name": "Transfer",
      "type": "event"
    },
    {
      "constant": true,
      "inputs": [
        {
          "internalType": "address",
          "name": "owner",
          "type": "address"
        },
        {
          "internalType": "address",
          "name": "spender",
          "type": "address"
        }
      ],
      "name": "allowance",
      "outputs": [
        {
          "internalType": "uint256",
          "name": "",
          "type": "uint256"
        }
      ],
      "payable": false,
      "stateMutability": "view",
      "type": "function"
    },
    {
      "constant": true,
      "inputs": [
        {
          "internalType": "address",
          "name": "owner",
          "type": "address"
        },
        {
          "internalType": "address",
          "name": "spender",
          "type": "address"
        }
      ],
      "name": "allowanceCoupons",
      "outputs": [
        {
          "internalType": "uint256",
          "name": "",
          "type": "uint256"
        }
      ],
      "payable": false,
      "stateMutability": "view",
      "type": "function"
    },
    {
      "constant": false,
      "inputs": [
        {
          "internalType": "address",
          "name": "spender",
          "type": "address"
        },
        {
          "internalType": "uint256",
          "name": "amount",
          "type": "uint256"
        }
      ],
      "name": "approve",
      "outputs": [
        {
          "internalType": "bool",
          "name": "",
          "type": "bool"
        }
      ],
      "payable": false,
      "stateMutability": "nonpayable",
      "type": "function"
    },
    {
      "constant": true,
      "inputs": [
        {
          "internalType": "address",
          "name": "candidate",
          "type": "address"
        }
      ],
      "name": "approveFor",
      "outputs": [
        {
          "internalType": "uint256",
          "name": "",
          "type": "uint256"
        }
      ],
      "payable": false,
      "stateMutability": "view",
      "type": "function"
    },
    {
      "constant": true,
      "inputs": [
        {
          "internalType": "address",
          "name": "account",
          "type": "address"
        }
      ],
      "name": "balanceOf",
      "outputs": [
        {
          "internalType": "uint256",
          "name": "",
          "type": "uint256"
        }
      ],
      "payable": false,
      "stateMutability": "view",
      "type": "function"
    },
    {
      "constant": true,
      "inputs": [
        {
          "internalType": "address",
          "name": "account",
          "type": "address"
        }
      ],
      "name": "balanceOfBonded",
      "outputs": [
        {
          "internalType": "uint256",
          "name": "",
          "type": "uint256"
        }
      ],
      "payable": false,
      "stateMutability": "view",
      "type": "function"
    },
    {
      "constant": true,
      "inputs": [
        {
          "internalType": "address",
          "name": "account",
          "type": "address"
        },
        {
          "internalType": "uint256",
          "name": "epoch",
          "type": "uint256"
        }
      ],
      "name": "balanceOfCoupons",
      "outputs": [
        {
          "internalType": "uint256",
          "name": "",
          "type": "uint256"
        }
      ],
      "payable": false,
      "stateMutability": "view",
      "type": "function"
    },
    {
      "constant": true,
      "inputs": [
        {
          "internalType": "address",
          "name": "account",
          "type": "address"
        }
      ],
      "name": "balanceOfStaged",
      "outputs": [
        {
          "internalType": "uint256",
          "name": "",
          "type": "uint256"
        }
      ],
      "payable": false,
      "stateMutability": "view",
      "type": "function"
    },
    {
      "constant": false,
      "inputs": [
        {
          "internalType": "address",
          "name": "account",
          "type": "address"
        },
        {
          "internalType": "uint256",
          "name": "amount",
          "type": "uint256"
        }
      ],
      "name": "burnFromAccountE",
      "outputs": [],
      "payable": false,
      "stateMutability": "nonpayable",
      "type": "function"
    },
    {
      "constant": false,
      "inputs": [
        {
          "internalType": "uint256",
          "name": "amount",
          "type": "uint256"
        }
      ],
      "name": "burnRedeemableE",
      "outputs": [],
      "payable": false,
      "stateMutability": "nonpayable",
      "type": "function"
    },
    {
      "constant": true,
      "inputs": [
        {
          "internalType": "uint256",
          "name": "epoch",
          "type": "uint256"
        }
      ],
      "name": "couponsExpiration",
      "outputs": [
        {
          "internalType": "uint256",
          "name": "",
          "type": "uint256"
        }
      ],
      "payable": false,
      "stateMutability": "view",
      "type": "function"
    },
    {
      "constant": false,
      "inputs": [
        {
          "internalType": "address",
          "name": "candidate",
          "type": "address"
        },
        {
          "internalType": "uint256",
          "name": "period",
          "type": "uint256"
        }
      ],
      "name": "createCandidateE",
      "outputs": [],
      "payable": false,
      "stateMutability": "nonpayable",
      "type": "function"
    },
    {
      "constant": true,
      "inputs": [],
      "name": "decimals",
      "outputs": [
        {
          "internalType": "uint8",
          "name": "",
          "type": "uint8"
        }
      ],
      "payable": false,
      "stateMutability": "view",
      "type": "function"
    },
    {
      "constant": false,
      "inputs": [
        {
          "internalType": "uint256",
          "name": "amount",
          "type": "uint256"
        }
      ],
      "name": "decreaseDebtE",
      "outputs": [],
      "payable": false,
      "stateMutability": "nonpayable",
      "type": "function"
    },
    {
      "constant": false,
      "inputs": [
        {
          "internalType": "address",
          "name": "owner",
          "type": "address"
        },
        {
          "internalType": "address",
          "name": "spender",
          "type": "address"
        },
        {
          "internalType": "uint256",
          "name": "amount",
          "type": "uint256"
        },
        {
          "internalType": "string",
          "name": "reason",
          "type": "string"
        }
      ],
      "name": "decrementAllowanceCouponsE",
      "outputs": [],
      "payable": false,
      "stateMutability": "nonpayable",
      "type": "function"
    },
    {
      "constant": false,
      "inputs": [
        {
          "internalType": "address",
          "name": "candidate",
          "type": "address"
        },
        {
          "internalType": "uint256",
          "name": "amount",
          "type": "uint256"
        },
        {
          "internalType": "string",
          "name": "reason",
          "type": "string"
        }
      ],
      "name": "decrementApproveForE",
      "outputs": [],
      "payable": false,
      "stateMutability": "nonpayable",
      "type": "function"
    },
    {
      "constant": false,
      "inputs": [
        {
          "internalType": "address",
          "name": "account",
          "type": "address"
        },
        {
          "internalType": "uint256",
          "name": "epoch",
          "type": "uint256"
        },
        {
          "internalType": "uint256",
          "name": "amount",
          "type": "uint256"
        },
        {
          "internalType": "string",
          "name": "reason",
          "type": "string"
        }
      ],
      "name": "decrementBalanceOfCouponsE",
      "outputs": [],
      "payable": false,
      "stateMutability": "nonpayable",
      "type": "function"
    },
    {
      "constant": false,
      "inputs": [
        {
          "internalType": "address",
          "name": "account",
          "type": "address"
        },
        {
          "internalType": "uint256",
          "name": "amount",
          "type": "uint256"
        },
        {
          "internalType": "string",
          "name": "reason",
          "type": "string"
        }
      ],
      "name": "decrementBalanceOfE",
      "outputs": [],
      "payable": false,
      "stateMutability": "nonpayable",
      "type": "function"
    },
    {
      "constant": false,
      "inputs": [
        {
          "internalType": "address",
          "name": "account",
          "type": "address"
        },
        {
          "internalType": "uint256",
          "name": "amount",
          "type": "uint256"
        },
        {
          "internalType": "string",
          "name": "reason",
          "type": "string"
        }
      ],
      "name": "decrementBalanceOfStagedE",
      "outputs": [],
      "payable": false,
      "stateMutability": "nonpayable",
      "type": "function"
    },
    {
      "constant": false,
      "inputs": [
        {
          "internalType": "address",
          "name": "candidate",
          "type": "address"
        },
        {
          "internalType": "uint256",
          "name": "amount",
          "type": "uint256"
        },
        {
          "internalType": "string",
          "name": "reason",
          "type": "string"
        }
      ],
      "name": "decrementRejectForE",
      "outputs": [],
      "payable": false,
      "stateMutability": "nonpayable",
      "type": "function"
    },
    {
      "constant": false,
      "inputs": [
        {
          "internalType": "uint256",
          "name": "amount",
          "type": "uint256"
        },
        {
          "internalType": "string",
          "name": "reason",
          "type": "string"
        }
      ],
      "name": "decrementTotalBondedE",
      "outputs": [],
      "payable": false,
      "stateMutability": "nonpayable",
      "type": "function"
    },
    {
      "constant": false,
      "inputs": [
        {
          "internalType": "uint256",
          "name": "amount",
          "type": "uint256"
        },
        {
          "internalType": "string",
          "name": "reason",
          "type": "string"
        }
      ],
      "name": "decrementTotalDebtE",
      "outputs": [],
      "payable": false,
      "stateMutability": "nonpayable",
      "type": "function"
    },
    {
      "constant": false,
      "inputs": [
        {
          "internalType": "uint256",
          "name": "amount",
          "type": "uint256"
        },
        {
          "internalType": "string",
          "name": "reason",
          "type": "string"
        }
      ],
      "name": "decrementTotalRedeemableE",
      "outputs": [],
      "payable": false,
      "stateMutability": "nonpayable",
      "type": "function"
    },
    {
      "constant": true,
      "inputs": [],
      "name": "dollar",
      "outputs": [
        {
          "internalType": "contract IDollar",
          "name": "",
          "type": "address"
        }
      ],
      "payable": false,
      "stateMutability": "view",
      "type": "function"
    },
    {
      "constant": false,
      "inputs": [
        {
          "internalType": "uint256",
          "name": "epoch",
          "type": "uint256"
        }
      ],
      "name": "eliminateOutstandingCouponsE",
      "outputs": [],
      "payable": false,
      "stateMutability": "nonpayable",
      "type": "function"
    },
    {
      "constant": true,
      "inputs": [],
      "name": "epoch",
      "outputs": [
        {
          "internalType": "uint256",
          "name": "",
          "type": "uint256"
        }
      ],
      "payable": false,
      "stateMutability": "view",
      "type": "function"
    },
    {
      "constant": true,
      "inputs": [],
      "name": "epochTime",
      "outputs": [
        {
          "internalType": "uint256",
          "name": "",
          "type": "uint256"
        }
      ],
      "payable": false,
      "stateMutability": "view",
      "type": "function"
    },
    {
      "constant": true,
      "inputs": [
        {
          "internalType": "uint256",
          "name": "epoch",
          "type": "uint256"
        }
      ],
      "name": "expiringCoupons",
      "outputs": [
        {
          "internalType": "uint256",
          "name": "",
          "type": "uint256"
        }
      ],
      "payable": false,
      "stateMutability": "view",
      "type": "function"
    },
    {
      "constant": true,
      "inputs": [
        {
          "internalType": "uint256",
          "name": "epoch",
          "type": "uint256"
        },
        {
          "internalType": "uint256",
          "name": "i",
          "type": "uint256"
        }
      ],
      "name": "expiringCouponsAtIndex",
      "outputs": [
        {
          "internalType": "uint256",
          "name": "",
          "type": "uint256"
        }
      ],
      "payable": false,
      "stateMutability": "view",
      "type": "function"
    },
    {
      "constant": true,
      "inputs": [
        {
          "internalType": "address",
          "name": "account",
          "type": "address"
        }
      ],
      "name": "fluidUntil",
      "outputs": [
        {
          "internalType": "uint256",
          "name": "",
          "type": "uint256"
        }
      ],
      "payable": false,
      "stateMutability": "view",
      "type": "function"
    },
    {
      "constant": true,
      "inputs": [
        {
          "internalType": "uint256",
          "name": "epoch",
          "type": "uint256"
        }
      ],
      "name": "getAvgExpiryFilled",
      "outputs": [
        {
          "internalType": "uint256",
          "name": "",
          "type": "uint256"
        }
      ],
      "payable": false,
      "stateMutability": "view",
      "type": "function"
    },
    {
      "constant": true,
      "inputs": [
        {
          "internalType": "uint256",
          "name": "epoch",
          "type": "uint256"
        }
      ],
      "name": "getAvgYieldFilled",
      "outputs": [
        {
          "internalType": "uint256",
          "name": "",
          "type": "uint256"
        }
      ],
      "payable": false,
      "stateMutability": "view",
      "type": "function"
    },
    {
      "constant": true,
      "inputs": [
        {
          "internalType": "uint256",
          "name": "epoch",
          "type": "uint256"
        }
      ],
      "name": "getBidToCover",
      "outputs": [
        {
          "internalType": "uint256",
          "name": "",
          "type": "uint256"
        }
      ],
      "payable": false,
      "stateMutability": "view",
      "type": "function"
    },
    {
      "constant": true,
      "inputs": [
        {
          "internalType": "uint256",
          "name": "epoch",
          "type": "uint256"
        }
      ],
      "name": "getMaxExpiryFilled",
      "outputs": [
        {
          "internalType": "uint256",
          "name": "",
          "type": "uint256"
        }
      ],
      "payable": false,
      "stateMutability": "view",
      "type": "function"
    },
    {
      "constant": true,
      "inputs": [
        {
          "internalType": "uint256",
          "name": "epoch",
          "type": "uint256"
        }
      ],
      "name": "getMaxYieldFilled",
      "outputs": [
        {
          "internalType": "uint256",
          "name": "",
          "type": "uint256"
        }
      ],
      "payable": false,
      "stateMutability": "view",
      "type": "function"
    },
    {
      "constant": true,
      "inputs": [
        {
          "internalType": "uint256",
          "name": "epoch",
          "type": "uint256"
        }
      ],
      "name": "getMinExpiryFilled",
      "outputs": [
        {
          "internalType": "uint256",
          "name": "",
          "type": "uint256"
        }
      ],
      "payable": false,
      "stateMutability": "view",
      "type": "function"
    },
    {
      "constant": true,
      "inputs": [
        {
          "internalType": "uint256",
          "name": "epoch",
          "type": "uint256"
        }
      ],
      "name": "getMinYieldFilled",
      "outputs": [
        {
          "internalType": "uint256",
          "name": "",
          "type": "uint256"
        }
      ],
      "payable": false,
      "stateMutability": "view",
      "type": "function"
    },
    {
      "constant": true,
      "inputs": [
        {
          "internalType": "uint256",
          "name": "epoch",
          "type": "uint256"
        }
      ],
      "name": "getTotalAuctioned",
      "outputs": [
        {
          "internalType": "uint256",
          "name": "",
          "type": "uint256"
        }
      ],
      "payable": false,
      "stateMutability": "view",
      "type": "function"
    },
    {
      "constant": true,
      "inputs": [
        {
          "internalType": "uint256",
          "name": "epoch",
          "type": "uint256"
        }
      ],
      "name": "getTotalBurned",
      "outputs": [
        {
          "internalType": "uint256",
          "name": "",
          "type": "uint256"
        }
      ],
      "payable": false,
      "stateMutability": "view",
      "type": "function"
    },
    {
      "constant": true,
      "inputs": [
        {
          "internalType": "uint256",
          "name": "epoch",
          "type": "uint256"
        }
      ],
      "name": "getTotalFilled",
      "outputs": [
        {
          "internalType": "uint256",
          "name": "",
          "type": "uint256"
        }
      ],
      "payable": false,
      "stateMutability": "view",
      "type": "function"
    },
    {
      "constant": true,
      "inputs": [],
      "name": "implementation",
      "outputs": [
        {
          "internalType": "address",
          "name": "impl",
          "type": "address"
        }
      ],
      "payable": false,
      "stateMutability": "view",
      "type": "function"
    },
    {
      "constant": false,
      "inputs": [
        {
          "internalType": "uint256",
          "name": "amount",
          "type": "uint256"
        }
      ],
      "name": "increaseDebtE",
      "outputs": [],
      "payable": false,
      "stateMutability": "nonpayable",
      "type": "function"
    },
    {
      "constant": false,
      "inputs": [
        {
          "internalType": "address",
          "name": "candidate",
          "type": "address"
        },
        {
          "internalType": "uint256",
          "name": "amount",
          "type": "uint256"
        }
      ],
      "name": "incrementApproveForE",
      "outputs": [],
      "payable": false,
      "stateMutability": "nonpayable",
      "type": "function"
    },
    {
      "constant": false,
      "inputs": [
        {
          "internalType": "address",
          "name": "account",
          "type": "address"
        },
        {
          "internalType": "uint256",
          "name": "epoch",
          "type": "uint256"
        },
        {
          "internalType": "uint256",
          "name": "amount",
          "type": "uint256"
        }
      ],
      "name": "incrementBalanceOfCouponsE",
      "outputs": [],
      "payable": false,
      "stateMutability": "nonpayable",
      "type": "function"
    },
    {
      "constant": false,
      "inputs": [
        {
          "internalType": "address",
          "name": "account",
          "type": "address"
        },
        {
          "internalType": "uint256",
          "name": "amount",
          "type": "uint256"
        }
      ],
      "name": "incrementBalanceOfE",
      "outputs": [],
      "payable": false,
      "stateMutability": "nonpayable",
      "type": "function"
    },
    {
      "constant": false,
      "inputs": [
        {
          "internalType": "address",
          "name": "account",
          "type": "address"
        },
        {
          "internalType": "uint256",
          "name": "amount",
          "type": "uint256"
        }
      ],
      "name": "incrementBalanceOfStagedE",
      "outputs": [],
      "payable": false,
      "stateMutability": "nonpayable",
      "type": "function"
    },
    {
      "constant": false,
      "inputs": [],
      "name": "incrementEpochE",
      "outputs": [],
      "payable": false,
      "stateMutability": "nonpayable",
      "type": "function"
    },
    {
      "constant": false,
      "inputs": [
        {
          "internalType": "address",
          "name": "candidate",
          "type": "address"
        },
        {
          "internalType": "uint256",
          "name": "amount",
          "type": "uint256"
        }
      ],
      "name": "incrementRejectForE",
      "outputs": [],
      "payable": false,
      "stateMutability": "nonpayable",
      "type": "function"
    },
    {
      "constant": false,
      "inputs": [
        {
          "internalType": "uint256",
          "name": "amount",
          "type": "uint256"
        }
      ],
      "name": "incrementTotalBondedE",
      "outputs": [],
      "payable": false,
      "stateMutability": "nonpayable",
      "type": "function"
    },
    {
      "constant": false,
      "inputs": [
        {
          "internalType": "uint256",
          "name": "amount",
          "type": "uint256"
        }
      ],
      "name": "incrementTotalDebtE",
      "outputs": [],
      "payable": false,
      "stateMutability": "nonpayable",
      "type": "function"
    },
    {
      "constant": false,
      "inputs": [
        {
          "internalType": "uint256",
          "name": "amount",
          "type": "uint256"
        }
      ],
      "name": "incrementTotalRedeemableE",
      "outputs": [],
      "payable": false,
      "stateMutability": "nonpayable",
      "type": "function"
    },
    {
      "constant": false,
      "inputs": [
        {
          "internalType": "uint256",
          "name": "epoch",
          "type": "uint256"
        },
        {
          "internalType": "uint256",
          "name": "expiration",
          "type": "uint256"
        }
      ],
      "name": "initializeCouponsExpirationE",
      "outputs": [],
      "payable": false,
      "stateMutability": "nonpayable",
      "type": "function"
    },
    {
      "constant": false,
      "inputs": [
        {
          "internalType": "address",
          "name": "candidate",
          "type": "address"
        }
      ],
      "name": "initializedE",
      "outputs": [],
      "payable": false,
      "stateMutability": "nonpayable",
      "type": "function"
    },
    {
      "constant": false,
      "inputs": [
        {
          "internalType": "uint256",
          "name": "epoch",
          "type": "uint256"
        }
      ],
      "name": "isCouponAuctionInitAtEpochE",
      "outputs": [
        {
          "internalType": "bool",
          "name": "",
          "type": "bool"
        }
      ],
      "payable": false,
      "stateMutability": "nonpayable",
      "type": "function"
    },
    {
      "constant": true,
      "inputs": [
        {
          "internalType": "address",
          "name": "candidate",
          "type": "address"
        }
      ],
      "name": "isInitialized",
      "outputs": [
        {
          "internalType": "bool",
          "name": "",
          "type": "bool"
        }
      ],
      "payable": false,
      "stateMutability": "view",
      "type": "function"
    },
    {
      "constant": true,
      "inputs": [
        {
          "internalType": "address",
          "name": "candidate",
          "type": "address"
        }
      ],
      "name": "isNominated",
      "outputs": [
        {
          "internalType": "bool",
          "name": "",
          "type": "bool"
        }
      ],
      "payable": false,
      "stateMutability": "view",
      "type": "function"
    },
    {
      "constant": true,
      "inputs": [
        {
          "internalType": "address",
          "name": "account",
          "type": "address"
        }
      ],
      "name": "lockedUntil",
      "outputs": [
        {
          "internalType": "uint256",
          "name": "",
          "type": "uint256"
        }
      ],
      "payable": false,
      "stateMutability": "view",
      "type": "function"
    },
    {
      "constant": false,
      "inputs": [
        {
          "internalType": "address",
          "name": "account",
          "type": "address"
        },
        {
          "internalType": "uint256",
          "name": "amount",
          "type": "uint256"
        }
      ],
      "name": "mintToAccountE",
      "outputs": [],
      "payable": false,
      "stateMutability": "nonpayable",
      "type": "function"
    },
    {
      "constant": false,
      "inputs": [
        {
          "internalType": "address",
          "name": "account",
          "type": "address"
        },
        {
          "internalType": "uint256",
          "name": "amount",
          "type": "uint256"
        }
      ],
      "name": "mintToE",
      "outputs": [],
      "payable": false,
      "stateMutability": "nonpayable",
      "type": "function"
    },
    {
      "constant": true,
      "inputs": [],
      "name": "name",
      "outputs": [
        {
          "internalType": "string",
          "name": "",
          "type": "string"
        }
      ],
      "payable": false,
      "stateMutability": "view",
      "type": "function"
    },
    {
      "constant": true,
      "inputs": [],
      "name": "oracle",
      "outputs": [
        {
          "internalType": "contract IOracle",
          "name": "",
          "type": "address"
        }
      ],
      "payable": false,
      "stateMutability": "view",
      "type": "function"
    },
    {
      "constant": true,
      "inputs": [
        {
          "internalType": "uint256",
          "name": "epoch",
          "type": "uint256"
        }
      ],
      "name": "outstandingCoupons",
      "outputs": [
        {
          "internalType": "uint256",
          "name": "",
          "type": "uint256"
        }
      ],
      "payable": false,
      "stateMutability": "view",
      "type": "function"
    },
    {
      "constant": true,
      "inputs": [
        {
          "internalType": "address",
          "name": "candidate",
          "type": "address"
        }
      ],
      "name": "periodFor",
      "outputs": [
        {
          "internalType": "uint256",
          "name": "",
          "type": "uint256"
        }
      ],
      "payable": false,
      "stateMutability": "view",
      "type": "function"
    },
    {
      "constant": false,
      "inputs": [
        {
          "internalType": "address",
          "name": "account",
          "type": "address"
        },
        {
          "internalType": "address",
          "name": "candidate",
          "type": "address"
        }
      ],
      "name": "placeLockE",
      "outputs": [],
      "payable": false,
      "stateMutability": "nonpayable",
      "type": "function"
    },
    {
      "constant": true,
      "inputs": [],
      "name": "pool",
      "outputs": [
        {
          "internalType": "address",
          "name": "",
          "type": "address"
        }
      ],
      "payable": false,
      "stateMutability": "view",
      "type": "function"
    },
    {
      "constant": false,
      "inputs": [
        {
          "internalType": "address",
          "name": "account",
          "type": "address"
        },
        {
          "internalType": "address",
          "name": "candidate",
          "type": "address"
        },
        {
          "internalType": "enum Candidate.Vote",
          "name": "vote",
          "type": "uint8"
        }
      ],
      "name": "recordVoteE",
      "outputs": [],
      "payable": false,
      "stateMutability": "nonpayable",
      "type": "function"
    },
    {
      "constant": true,
      "inputs": [
        {
          "internalType": "address",
          "name": "account",
          "type": "address"
        },
        {
          "internalType": "address",
          "name": "candidate",
          "type": "address"
        }
      ],
      "name": "recordedVote",
      "outputs": [
        {
          "internalType": "enum Candidate.Vote",
          "name": "",
          "type": "uint8"
        }
      ],
      "payable": false,
      "stateMutability": "view",
      "type": "function"
    },
    {
      "constant": false,
      "inputs": [
        {
          "internalType": "address",
          "name": "account",
          "type": "address"
        },
        {
          "internalType": "uint256",
          "name": "amount",
          "type": "uint256"
        }
      ],
      "name": "redeemToAccountE",
      "outputs": [],
      "payable": false,
      "stateMutability": "nonpayable",
      "type": "function"
    },
    {
      "constant": true,
      "inputs": [
        {
          "internalType": "address",
          "name": "candidate",
          "type": "address"
        }
      ],
      "name": "rejectFor",
      "outputs": [
        {
          "internalType": "uint256",
          "name": "",
          "type": "uint256"
        }
      ],
      "payable": false,
      "stateMutability": "view",
      "type": "function"
    },
    {
      "constant": false,
      "inputs": [
        {
          "internalType": "uint256",
          "name": "percent",
          "type": "uint256"
        }
      ],
      "name": "resetDebtE",
      "outputs": [],
      "payable": false,
      "stateMutability": "nonpayable",
      "type": "function"
    },
    {
      "constant": false,
      "inputs": [
        {
          "internalType": "uint256",
          "name": "timestamp",
          "type": "uint256"
        }
      ],
      "name": "setBlockTimestamp",
      "outputs": [],
      "payable": false,
      "stateMutability": "nonpayable",
      "type": "function"
    },
    {
      "constant": false,
      "inputs": [
        {
          "internalType": "uint256",
          "name": "start",
          "type": "uint256"
        },
        {
          "internalType": "uint256",
          "name": "period",
          "type": "uint256"
        }
      ],
      "name": "setEpochParamsE",
      "outputs": [],
      "payable": false,
      "stateMutability": "nonpayable",
      "type": "function"
    },
    {
      "constant": false,
      "inputs": [],
      "name": "snapshotTotalBondedE",
      "outputs": [],
      "payable": false,
      "stateMutability": "nonpayable",
      "type": "function"
    },
    {
      "constant": true,
      "inputs": [
        {
          "internalType": "address",
          "name": "candidate",
          "type": "address"
        }
      ],
      "name": "startFor",
      "outputs": [
        {
          "internalType": "uint256",
          "name": "",
          "type": "uint256"
        }
      ],
      "payable": false,
      "stateMutability": "view",
      "type": "function"
    },
    {
      "constant": true,
      "inputs": [
        {
          "internalType": "address",
          "name": "account",
          "type": "address"
        }
      ],
      "name": "statusOf",
      "outputs": [
        {
          "internalType": "enum Account.Status",
          "name": "",
          "type": "uint8"
        }
      ],
      "payable": false,
      "stateMutability": "view",
      "type": "function"
    },
    {
      "constant": true,
      "inputs": [],
      "name": "symbol",
      "outputs": [
        {
          "internalType": "string",
          "name": "",
          "type": "string"
        }
      ],
      "payable": false,
      "stateMutability": "view",
      "type": "function"
    },
    {
      "constant": true,
      "inputs": [],
      "name": "totalBonded",
      "outputs": [
        {
          "internalType": "uint256",
          "name": "",
          "type": "uint256"
        }
      ],
      "payable": false,
      "stateMutability": "view",
      "type": "function"
    },
    {
      "constant": true,
      "inputs": [
        {
          "internalType": "uint256",
          "name": "epoch",
          "type": "uint256"
        }
      ],
      "name": "totalBondedAt",
      "outputs": [
        {
          "internalType": "uint256",
          "name": "",
          "type": "uint256"
        }
      ],
      "payable": false,
      "stateMutability": "view",
      "type": "function"
    },
    {
      "constant": true,
      "inputs": [],
      "name": "totalCoupons",
      "outputs": [
        {
          "internalType": "uint256",
          "name": "",
          "type": "uint256"
        }
      ],
      "payable": false,
      "stateMutability": "view",
      "type": "function"
    },
    {
      "constant": true,
      "inputs": [],
      "name": "totalDebt",
      "outputs": [
        {
          "internalType": "uint256",
          "name": "",
          "type": "uint256"
        }
      ],
      "payable": false,
      "stateMutability": "view",
      "type": "function"
    },
    {
      "constant": true,
      "inputs": [],
      "name": "totalNet",
      "outputs": [
        {
          "internalType": "uint256",
          "name": "",
          "type": "uint256"
        }
      ],
      "payable": false,
      "stateMutability": "view",
      "type": "function"
    },
    {
      "constant": true,
      "inputs": [],
      "name": "totalRedeemable",
      "outputs": [
        {
          "internalType": "uint256",
          "name": "",
          "type": "uint256"
        }
      ],
      "payable": false,
      "stateMutability": "view",
      "type": "function"
    },
    {
      "constant": true,
      "inputs": [],
      "name": "totalStaged",
      "outputs": [
        {
          "internalType": "uint256",
          "name": "",
          "type": "uint256"
        }
      ],
      "payable": false,
      "stateMutability": "view",
      "type": "function"
    },
    {
      "constant": true,
      "inputs": [],
      "name": "totalSupply",
      "outputs": [
        {
          "internalType": "uint256",
          "name": "",
          "type": "uint256"
        }
      ],
      "payable": false,
      "stateMutability": "view",
      "type": "function"
    },
    {
      "constant": false,
      "inputs": [
        {
          "internalType": "address",
          "name": "recipient",
          "type": "address"
        },
        {
          "internalType": "uint256",
          "name": "amount",
          "type": "uint256"
        }
      ],
      "name": "transfer",
      "outputs": [
        {
          "internalType": "bool",
          "name": "",
          "type": "bool"
        }
      ],
      "payable": false,
      "stateMutability": "nonpayable",
      "type": "function"
    },
    {
      "constant": false,
      "inputs": [
        {
          "internalType": "address",
          "name": "sender",
          "type": "address"
        },
        {
          "internalType": "address",
          "name": "recipient",
          "type": "address"
        },
        {
          "internalType": "uint256",
          "name": "amount",
          "type": "uint256"
        }
      ],
      "name": "transferFrom",
      "outputs": [
        {
          "internalType": "bool",
          "name": "",
          "type": "bool"
        }
      ],
      "payable": false,
      "stateMutability": "nonpayable",
      "type": "function"
    },
    {
      "constant": false,
      "inputs": [
        {
          "internalType": "address",
          "name": "account",
          "type": "address"
        }
      ],
      "name": "unfreezeE",
      "outputs": [],
      "payable": false,
      "stateMutability": "nonpayable",
      "type": "function"
    },
    {
      "constant": false,
      "inputs": [
        {
          "internalType": "address",
          "name": "owner",
          "type": "address"
        },
        {
          "internalType": "address",
          "name": "spender",
          "type": "address"
        },
        {
          "internalType": "uint256",
          "name": "amount",
          "type": "uint256"
        }
      ],
      "name": "updateAllowanceCouponsE",
      "outputs": [],
      "payable": false,
      "stateMutability": "nonpayable",
      "type": "function"
    },
    {
      "constant": true,
      "inputs": [
        {
          "internalType": "address",
          "name": "candidate",
          "type": "address"
        }
      ],
      "name": "votesFor",
      "outputs": [
        {
          "internalType": "uint256",
          "name": "",
          "type": "uint256"
        }
      ],
      "payable": false,
      "stateMutability": "view",
      "type": "function"
    },
    {
      "constant": false,
      "inputs": [],
      "name": "stepE",
      "outputs": [],
      "payable": false,
      "stateMutability": "nonpayable",
      "type": "function"
    },
    {
      "constant": true,
      "inputs": [
        {
          "internalType": "uint256",
          "name": "epoch",
          "type": "uint256"
        }
      ],
      "name": "bootstrappingAt",
      "outputs": [
        {
          "internalType": "bool",
          "name": "",
          "type": "bool"
        }
      ],
      "payable": false,
      "stateMutability": "view",
      "type": "function"
    },
    {
      "constant": false,
      "inputs": [
        {
          "internalType": "uint256",
          "name": "epoch",
          "type": "uint256"
        }
      ],
      "name": "settleCouponAuctionE",
      "outputs": [],
      "payable": false,
      "stateMutability": "nonpayable",
      "type": "function"
    },
    {
      "constant": false,
      "inputs": [
        {
          "internalType": "uint256",
          "name": "epoch",
          "type": "uint256"
        }
      ],
      "name": "cancelCouponAuctionAtEpochE",
      "outputs": [],
      "payable": false,
      "stateMutability": "nonpayable",
      "type": "function"
    },
    {
      "constant": false,
      "inputs": [
        {
          "internalType": "uint256",
          "name": "epoch",
          "type": "uint256"
        }
      ],
      "name": "finishCouponAuctionAtEpochE",
      "outputs": [],
      "payable": false,
      "stateMutability": "nonpayable",
      "type": "function"
    },
    {
      "constant": false,
      "inputs": [],
      "name": "initCouponAuctionE",
      "outputs": [],
      "payable": false,
      "stateMutability": "nonpayable",
      "type": "function"
    },
    {
      "constant": false,
      "inputs": [
        {
          "internalType": "uint256",
          "name": "epoch",
          "type": "uint256"
        }
      ],
      "name": "getCouponAuctionBidsE",
      "outputs": [
        {
          "internalType": "uint256",
          "name": "",
          "type": "uint256"
        }
      ],
      "payable": false,
      "stateMutability": "nonpayable",
      "type": "function"
    },
    {
      "constant": false,
      "inputs": [
        {
          "internalType": "uint256",
          "name": "epoch",
          "type": "uint256"
        }
      ],
      "name": "getCouponAuctionMinExpiryE",
      "outputs": [
        {
          "internalType": "uint256",
          "name": "",
          "type": "uint256"
        }
      ],
      "payable": false,
      "stateMutability": "nonpayable",
      "type": "function"
    },
    {
      "constant": false,
      "inputs": [
        {
          "internalType": "uint256",
          "name": "epoch",
          "type": "uint256"
        }
      ],
      "name": "getCouponAuctionMaxExpiryE",
      "outputs": [
        {
          "internalType": "uint256",
          "name": "",
          "type": "uint256"
        }
      ],
      "payable": false,
      "stateMutability": "nonpayable",
      "type": "function"
    },
    {
      "constant": false,
      "inputs": [
        {
          "internalType": "uint256",
          "name": "epoch",
          "type": "uint256"
        }
      ],
      "name": "getCouponAuctionMinYieldE",
      "outputs": [
        {
          "internalType": "uint256",
          "name": "",
          "type": "uint256"
        }
      ],
      "payable": false,
      "stateMutability": "nonpayable",
      "type": "function"
    },
    {
      "constant": false,
      "inputs": [
        {
          "internalType": "uint256",
          "name": "epoch",
          "type": "uint256"
        }
      ],
      "name": "getCouponAuctionMaxYieldE",
      "outputs": [
        {
          "internalType": "uint256",
          "name": "",
          "type": "uint256"
        }
      ],
      "payable": false,
      "stateMutability": "nonpayable",
      "type": "function"
    },
    {
      "constant": false,
      "inputs": [
        {
          "internalType": "uint256",
          "name": "epoch",
          "type": "uint256"
        }
      ],
      "name": "getCouponAuctionMinDollarAmountE",
      "outputs": [
        {
          "internalType": "uint256",
          "name": "",
          "type": "uint256"
        }
      ],
      "payable": false,
      "stateMutability": "nonpayable",
      "type": "function"
    },
    {
      "constant": false,
      "inputs": [
        {
          "internalType": "uint256",
          "name": "epoch",
          "type": "uint256"
        }
      ],
      "name": "getCouponAuctionMaxDollarAmountE",
      "outputs": [
        {
          "internalType": "uint256",
          "name": "",
          "type": "uint256"
        }
      ],
      "payable": false,
      "stateMutability": "nonpayable",
      "type": "function"
    },
    {
      "constant": false,
      "inputs": [
        {
          "internalType": "uint256",
          "name": "couponEpochExpiry",
          "type": "uint256"
        },
        {
          "internalType": "uint256",
          "name": "dollarAmount",
          "type": "uint256"
        },
        {
          "internalType": "uint256",
          "name": "maxCouponAmount",
          "type": "uint256"
        }
      ],
      "name": "placeCouponAuctionBid",
      "outputs": [
        {
          "internalType": "bool",
          "name": "",
          "type": "bool"
        }
      ],
      "payable": false,
      "stateMutability": "nonpayable",
      "type": "function"
    }
  ],
  "bytecode": "0x6080604052600060115560006012556001601355600160145560016015556000601655600060175560006018556000601955600019601a556200004c6200010d60201b6200398a1760201c565b51601b55604080516020810190915260001990819052601c553480156200007257600080fd5b5060405162006ee438038062006ee483398101604081905262000095916200015e565b42600f556040518190620000a9906200012a565b604051809103906000f080158015620000c6573d6000803e3d6000fd5b50600980546001600160a01b03199081166001600160a01b0393841617909155600b8054821693831693909317909255600a805490921693169290921790915550620001c9565b6200011762000138565b5060408051602081019091526000815290565b611c0680620052de83390190565b6040518060200160405280600081525090565b80516200015881620001af565b92915050565b600080604083850312156200017257600080fd5b60006200018085856200014b565b925050602062000193858286016200014b565b9150509250929050565b60006001600160a01b03821662000158565b620001ba816200019d565b8114620001c657600080fd5b50565b61510580620001d96000396000f3fe608060405234801561001057600080fd5b50600436106105ed5760003560e01c80637d8bb8691161031b578063b32a2f90116101a8578063d60b347f116100f4578063e0abdf66116100ad578063f35adf7e11610087578063f35adf7e14610cd3578063f7a3181814610cdb578063fc7b9c1814610cee578063ffbe3b7314610cf6576105ed565b8063e0abdf6614610c9a578063eeaca09b14610cad578063f1b7cf4914610cc0576105ed565b8063d60b347f14610c2d578063d6d8816d14610c40578063d83d3ed514610c53578063dca5386b14610c66578063dd62ed3e14610c79578063dde74dc314610c87576105ed565b8063c45a3e0a11610161578063cb0fbc711161013b578063cb0fbc7114610bec578063cc8d823c14610bff578063cf02377914610c12578063d53c6f5f14610c1a576105ed565b8063c45a3e0a14610bb3578063c72e4e3214610bc6578063c9aff70c14610bd9576105ed565b8063b32a2f9014610b4c578063bad9206c14610b5f578063bc7513e214610b67578063c1410c0214610b7a578063c2aeb5fe14610b8d578063c34eee6514610ba0576105ed565b80639be4649311610267578063a6f37b5311610220578063adbff2be116101fa578063adbff2be14610b00578063ae5c238114610b13578063b11ee0e314610b26578063b16144a314610b39576105ed565b8063a6f37b5314610ada578063a9059cbb14610630578063a9b3cf1514610aed576105ed565b80639be4649314610a735780639f1a092914610a865780639f6e1b2614610a99578063a00e14d114610aac578063a50cd8e714610abf578063a6c409f114610ad2576105ed565b80638de2e573116102d457806397a5d5b5116102ae57806397a5d5b514610a325780639a649edc14610a455780639b82b49b14610a4d5780639bc289f114610a60576105ed565b80638de2e57314610a0f578063900cf0cf14610a2257806395d89b4114610a2a576105ed565b80637d8bb869146109a85780637dc0d1d0146109bb57806381a79414146109c3578063825ad607146109d65780638413e52a146109e957806386cf9f14146109fc576105ed565b80633f7bcaf3116104995780635c60da1b116103e55780636f68b27b1161039e57806372924d2a1161037857806372924d2a1461095c57806375d5024b1461096f57806379066f2c146109825780637cb95a3214610995576105ed565b80636f68b27b1461092e57806370a082311461094157806371c511eb14610954576105ed565b80635c60da1b146108c75780635dbf800a146108cf5780635f14fec8146108e257806364668022146108f55780636a39e328146109085780636b862d661461091b576105ed565b80634ad690d7116104525780635053e4611161042c5780635053e4611461088457806351adeb571461088c57806351bf21d8146108a1578063520acb76146108b4576105ed565b80634ad690d71461084b5780634c7360991461085e5780634d64e40314610871576105ed565b80633f7bcaf3146107e25780633fbba9a6146107f55780633fd4973c14610815578063416a23cc14610828578063438735261461083057806344d96e9514610843576105ed565b80631fac9732116105585780632c97e9d51161051157806332347422116104eb5780633234742214610796578063353a420c146107a95780633a3e6c81146107bc5780633dc905c7146107cf576105ed565b80632c97e9d51461075b5780632d7f23b31461076e578063313ce56714610781576105ed565b80631fac9732146106e957806320f6bc90146106fc57806323b872dd1461070f57806324772c0414610722578063259f7adf14610735578063277805a914610748576105ed565b806315e14bf6116105aa57806315e14bf61461068b578063169f68531461069e57806316f0115b146106b157806318160ddd146106c65780631a08e22a146106ce5780631edbcf6c146106e1576105ed565b80630308bc98146105f257806306fdde031461061b578063095ea7b3146106305780630dc6d3a31461065057806310e95b6c146106655780631550ec2414610678575b600080fd5b610605610600366004614c1b565b610d09565b6040516106129190614f1b565b60405180910390f35b610623610d1c565b6040516106129190614eea565b61064361063e366004614ace565b610d54565b6040516106129190614ec0565b61066361065e366004614a50565b610d5d565b005b610605610673366004614c1b565b610da6565b610643610686366004614c1b565b610dbb565b610605610699366004614968565b610dd0565b6106056106ac366004614c1b565b610dee565b6106b9610df9565b6040516106129190614e6f565b610605610e08565b6106636106dc366004614cad565b610e0e565b610605610e1c565b6106636106f7366004614c1b565b610e22565b61066361070a366004614ace565b610e2e565b61064361071d366004614a0d565b610e38565b610643610730366004614ccc565b610e42565b610663610743366004614c1b565b611007565b610663610756366004614ace565b611010565b610663610769366004614c1b565b61109c565b61060561077c366004614c1b565b6110a5565b6107896110ba565b6040516106129190614f6c565b6106636107a4366004614c57565b6110bf565b6106056107b7366004614968565b6110ff565b6106436107ca366004614968565b61111d565b6106056107dd366004614c1b565b61113a565b6106636107f0366004614a0d565b61114f565b610808610803366004614986565b61115a565b6040516106129190614edc565b610663610823366004614afe565b61118d565b6106636111d4565b61066361083e366004614c1b565b6111de565b6106056111e7565b610605610859366004614c1b565b6111ed565b61060561086c366004614cad565b6111f8565b61060561087f366004614c1b565b611228565b610605611233565b610894611256565b6040516106129190614ece565b6106056108af366004614968565b611265565b6106056108c2366004614c1b565b611283565b6106b9611298565b6106636108dd366004614c1b565b6112bd565b6106636108f0366004614ace565b6112c6565b610605610903366004614968565b6112d0565b610605610916366004614c1b565b6112ee565b610663610929366004614b66565b611303565b61060561093c366004614c1b565b61130e565b61060561094f366004614968565b611319565b610663611337565b61066361096a366004614c57565b61133f565b61064361097d366004614c1b565b61137f565b610663610990366004614c1b565b611386565b6106636109a3366004614afe565b61138f565b6106056109b6366004614c1b565b6113d0565b6108946113e5565b6106056109d1366004614c1b565b6113f4565b6106056109e4366004614968565b6113ff565b6106636109f73660046149c0565b61144b565b610605610a0a366004614968565b611456565b610663610a1d366004614c1b565b611471565b61060561147a565b610623611480565b610808610a40366004614968565b61149e565b61060561150b565b610663610a5b366004614c57565b611511565b610605610a6e366004614968565b611551565b610663610a81366004614968565b61156f565b610605610a94366004614c1b565b611578565b610605610aa7366004614986565b61158e565b610663610aba366004614cad565b6115bd565b610605610acd366004614968565b6115c8565b6106056115df565b610663610ae8366004614968565b611675565b610663610afb366004614c1b565b61167e565b610663610b0e366004614afe565b611687565b610663610b21366004614ace565b6116c8565b610663610b34366004614ace565b6116d2565b610663610b47366004614c1b565b6116dc565b610663610b5a366004614afe565b6116ef565b610663611730565b610605610b75366004614ace565b611738565b610663610b88366004614986565b61177c565b610663610b9b366004614b98565b611786565b610605610bae366004614c1b565b6117c8565b610663610bc1366004614ace565b6117dd565b610663610bd4366004614c1b565b6117e7565b610605610be7366004614c1b565b6117f0565b610605610bfa366004614c1b565b611805565b610663610c0d366004614ace565b61181a565b610605611824565b610605610c28366004614c1b565b61182a565b610643610c3b366004614968565b61183f565b610663610c4e366004614c1b565b611860565b610663610c61366004614ace565b611869565b610605610c74366004614c1b565b611873565b61060561063e366004614986565b610605610c95366004614c1b565b61187e565b610663610ca8366004614c1b565b611893565b610605610cbb366004614c1b565b611898565b610605610cce366004614968565b6118ad565b6106636118c8565b610663610ce9366004614ace565b6118d0565b6106056118da565b610605610d04366004614c1b565b6118e0565b6000610d14826118f2565b90505b919050565b60408051808201909152601881527f44796e616d69632053657420446f6c6c6172205374616b65000000000000000060208201525b90565b60005b92915050565b610d9f85858585858080601f01602080910402602001604051908101604052809392919081815260200183838082843760009201919091525061190792505050565b5050505050565b6000908152600d602052604090206002015490565b6000610dc682611978565b5460ff1692915050565b6001600160a01b03166000908152600e602052604090206001015490565b6000610d148261198c565b600b546001600160a01b031690565b60035490565b610e1882826119a1565b5050565b60065490565b610e2b816119d3565b50565b610e188282611a1a565b60005b9392505050565b6000610e82600085116c26b7b1b5a932b3bab630ba37b960991b7f4d7573742068617665206e6f6e2d7a65726f2065787069727900000000000000611ac2565b610ec0600084116c26b7b1b5a932b3bab630ba37b960991b7f4d75737420626964206e6f6e2d7a65726f20616d6f756e740000000000000000611ac2565b610efe600083116c26b7b1b5a932b3bab630ba37b960991b7f4d75737420626964206f6e206e6f6e2d7a65726f20616d6f756e740000000000611ac2565b610f3583610f0a6118da565b10156c26b7b1b5a932b3bab630ba37b960991b6e139bdd08195b9bdd59da081919589d608a1b611ac2565b610f79610f423385611b20565b6c26b7b1b5a932b3bab630ba37b960991b7f4d757374206861766520656e6f75676820696e206163636f756e740000000000611ac2565b6000610f9385610f8761147a565b9063ffffffff611bbb16565b9050610fad610fa8848663ffffffff611be016565b611c22565b610fb684611cb8565b610fbf81611d4e565b610fd3610fca61147a565b33878787611de4565b610ff4610fde61147a565b610fee610fe961147a565b6118f2565b33611e3e565b610ffc611e7a565b506001949350505050565b610e2b81611ea2565b611018611256565b6001600160a01b03166340c10f1983836040518363ffffffff1660e01b8152600401611045929190614ea5565b602060405180830381600087803b15801561105f57600080fd5b505af1158015611073573d6000803e3d6000fd5b505050506040513d601f19601f820116820180604052506110979190810190614bcd565b505050565b610e1881611ebb565b6000908152600d60205260409020600a015490565b601290565b6110978383838080601f01602080910402602001604051908101604052809392919081815260200183838082843760009201919091525061281892505050565b6001600160a01b03166000908152600e602052604090206003015490565b6001600160a01b03166000908152600e6020526040902054151590565b6000908152600d60205260409020600e015490565b611097838383612833565b6001600160a01b038082166000908152600e60209081526040808320938616835260049093019052205460ff1692915050565b6111ce848484848080601f01602080910402602001604051908101604052809392919081815260200183838082843760009201919091525061286392505050565b50505050565b6111dc6128b4565b565b610e2b816129c5565b60045490565b6000610d14826129d9565b6000828152600d6020526040812060030180548390811061121557fe5b9060005260206000200154905092915050565b6000610d14826129ee565b600061123d614749565b611245612a03565b905061125081612a32565b91505090565b6009546001600160a01b031690565b6001600160a01b03166000908152600c602052604090206004015490565b6000908152600d602052604090206010015490565b7f360894a13ba1a3210667c828492db98dca3e2076cc3735a920a3ca505d382bbc5490565b610e2b81612a54565b610e188282612adb565b6001600160a01b03166000908152600e602052604090206002015490565b6000908152600d602052604090206003015490565b611097838383612bec565b6000610d1482612c93565b6001600160a01b03166000908152600c602052604090206001015490565b6111dc612ca8565b6110978383838080601f016020809104026020016040519081016040528093929190818152602001838380828437600092019190915250612ccf92505050565b6005101590565b610e2b81612cea565b6111ce848484848080601f016020809104026020016040519081016040528093929190818152602001838380828437600092019190915250612d0c92505050565b6000908152600d602052604090206012015490565b600a546001600160a01b031690565b6000610d1482612d5d565b60008061140a610e08565b90508061141b576000915050610d17565b610e3b8161143f61142b86611319565b6114336111e7565b9063ffffffff612d7216565b9063ffffffff611be016565b611097838383612dac565b6001600160a01b03166000908152600c602052604090205490565b610e2b81612df6565b60025490565b6040805180820190915260048152634453445360e01b602082015290565b60006114a861147a565b6001600160a01b0383166000908152600c602052604090206005015411156114d257506002610d17565b6001600160a01b0382166000908152600c60205260409020600401546114f661147a565b1015611503576001610d14565b506000919050565b60085490565b6110978383838080601f016020809104026020016040519081016040528093929190818152602001838380828437600092019190915250612e0f92505050565b6001600160a01b03166000908152600c602052604090206005015490565b610e2b81612e2a565b6000908152600d60208190526040909120015490565b6001600160a01b039182166000908152600c602090815260408083209390941682526003909201909152205490565b600091909155600155565b6000610d146115d6836110ff565b610f87846112d0565b60006116706115ec6118da565b6115f4611256565b6001600160a01b03166318160ddd6040518163ffffffff1660e01b815260040160206040518083038186803b15801561162c57600080fd5b505afa158015611640573d6000803e3d6000fd5b505050506040513d601f19601f820116820180604052506116649190810190614c39565b9063ffffffff612e5c16565b905090565b610e2b81612e9e565b610e2b81612ec5565b6111ce848484848080601f016020809104026020016040519081016040528093929190818152602001838380828437600092019190915250612f0892505050565b610e188282612fb3565b610e18828261305b565b610e2b6116ea8260646130b7565b6130e6565b6111ce848484848080601f0160208091040260200160405190810160405280939291908181526020018383808284376000920191909152506131a692505050565b6111dc613205565b6000611743826117f0565b61174f57506000610d57565b506001600160a01b03919091166000908152600c6020908152604080832093835260029093019052205490565b610e188282613370565b610d9f85858585858080601f0160208091040260200160405190810160405280939291908181526020018383808284376000920191909152506133d092505050565b6000908152600d602052604090206011015490565b610e18828261347b565b610e2b81613525565b6000908152600d602052604090206001015490565b6000908152600d602052604090206013015490565b610e188282613545565b60055490565b6000908152600d60205260409020600f015490565b6001600160a01b03166000908152600e602052604090206005015460ff1690565b610e2b81613594565b610e1882826135ad565b6000610d14826135d9565b6000908152600d60205260409020600c015490565b600f55565b6000908152600d60205260409020600b015490565b6001600160a01b03166000908152600e602052604090205490565b6111dc6135ee565b610e188282613607565b60075490565b6000908152600d602052604090205490565b6000908152600d602052604090206009015490565b6001600160a01b038085166000908152600c60209081526040808320938716835260039093019052205461194290838363ffffffff61365616565b6001600160a01b039485166000908152600c60209081526040808320969097168252600390950190945293909220929092555050565b6000908152600d6020526040902060040190565b6000908152600d602052604090206007015490565b6000828152600d6020908152604080832060020184905592825291812060030180546001810182559082529190200155565b611a12816040518060400160405280601c81526020017f436f6d7074726f6c6c65723a206e6f7420656e6f756768206465627400000000815250612ccf565b610e2b613682565b611a22611256565b6001600160a01b03166340c10f1983836040518363ffffffff1660e01b8152600401611a4f929190614ea5565b602060405180830381600087803b158015611a6957600080fd5b505af1158015611a7d573d6000803e3d6000fd5b505050506040513d601f19601f82011682018060405250611aa19190810190614bcd565b50611aad61097d61147a565b611aba57611aba816129c5565b610e18613682565b8261109757611ad082613755565b6101d160f51b611adf83613755565b604051602001611af193929190614e3e565b60408051601f198184030181529082905262461bcd60e51b8252611b1791600401614eea565b60405180910390fd5b6000611b2f82610f87856113ff565b611b37611256565b6001600160a01b03166370a08231856040518263ffffffff1660e01b8152600401611b629190614e6f565b60206040518083038186803b158015611b7a57600080fd5b505afa158015611b8e573d6000803e3d6000fd5b505050506040513d601f19601f82011682018060405250611bb29190810190614c39565b10159392505050565b600082820183811015610e3b5760405162461bcd60e51b8152600401611b1790614efb565b6000610e3b83836040518060400160405280601a81526020017f536166654d6174683a206469766973696f6e206279207a65726f0000000000008152506137d5565b600d6000611c2e61147a565b815260200190815260200160002060040160040154811115611c6c5780600d6000611c5761147a565b81526020810191909152604001600020600801555b80600d6000611c7961147a565b8152602001908152602001600020600401600301541115610e2b5780600d6000611ca161147a565b815260208101919091526040016000206007015550565b600d6000611cc461147a565b815260200190815260200160002060040160110154811115611d025780600d6000611ced61147a565b81526020810191909152604001600020601501555b600d6000611d0e61147a565b815260200190815260200160002060040160100154811015610e2b5780600d6000611d3761147a565b815260208101919091526040016000206014015550565b600d6000611d5a61147a565b815260200190815260200160002060040160020154811115611d985780600d6000611d8361147a565b81526020810191909152604001600020600601555b600d6000611da461147a565b815260200190815260200160002060040160010154811015610e2b5780600d6000611dcd61147a565b815260208101919091526040016000206005015550565b6000948552600d602090815260408087206001600160a01b03969096168088526018909601909152909420600481019290925560018201556002810192909255815462010000600160b01b03191662010000909102179055565b6000928352600d6020908152604080852093855260169093019052912080546001600160a01b0319166001600160a01b03909216919091179055565b600d6000611e8661147a565b8152602081019190915260400160002060090180546001019055565b600454611eb5908263ffffffff611bbb16565b60045550565b6000611ec68261380c565b158015611ed95750611ed78261382a565b155b1561281057611ee78261198c565b611ef0836135d9565b03601355611efd826129d9565b611f06836129ee565b03601455611f1382612c93565b611f1c83612d5d565b0360155560005b611f2c836118f2565b81101561222e576000611f4884611f438685613847565b613871565b9050611f5261476a565b611f77611f6f611f6a846002015485600101546130b7565b61389c565b6013546130b7565b9050611f8161476a565b611f9183600401546014546130b7565b9050611f9b61476a565b611fab84600101546015546130b7565b9050611fb561476a565b611fe482611fd8611fc46138b9565b611fcc6138b9565b9063ffffffff6138db16565b9063ffffffff61390416565b9050611fee61476a565b611fff85600263ffffffff61392d16565b905061200961476a565b61201a85600263ffffffff61392d16565b905061202461476a565b61203584600263ffffffff61392d16565b905061203f61476a565b61205382611fcc868663ffffffff6138db16565b905061205d61476a565b61207561206861398a565b839063ffffffff6139a516565b1561208a57612083826139bb565b9050612095565b61209261398a565b90505b6120a98d6120a38f8e613847565b83613a3d565b6120b78d611f438f8e613847565b601080546001808201835560009290925282547f1b6847dc741a1b0cd08d278845f9d819d87b734759afb55fe2de5cb82a9ae6726006909202918201805460ff191660ff928316151517808255855461ff00199091166101009182900490931615150291909117808255845462010000600160b01b031990911662010000918290046001600160a01b0316909102179055828201547f1b6847dc741a1b0cd08d278845f9d819d87b734759afb55fe2de5cb82a9ae67382015560028301547f1b6847dc741a1b0cd08d278845f9d819d87b734759afb55fe2de5cb82a9ae67482015560038301547f1b6847dc741a1b0cd08d278845f9d819d87b734759afb55fe2de5cb82a9ae67582015560048301547f1b6847dc741a1b0cd08d278845f9d819d87b734759afb55fe2de5cb82a9ae6768201556005909201547f1b6847dc741a1b0cd08d278845f9d819d87b734759afb55fe2de5cb82a9ae677909201919091559a909a019950611f2398505050505050505050565b506122396010613a6e565b80546122479160109161477d565b5060005b601054811015612685576010818154811061226257fe5b90600052602060002090600602016001015461227c6118da565b10612678576122b7836010838154811061229257fe5b60009182526020909120600690910201546201000090046001600160a01b0316613b4a565b1580156122d257506122d0836010838154811061229257fe5b155b15612673576122df61476a565b612325601083815481106122ef57fe5b9060005260206000209060060201600201546010848154811061230e57fe5b9060005260206000209060060201600101546130b7565b90506123806010838154811061233757fe5b906000526020600020906006020160000160029054906101000a90046001600160a01b03166010848154811061236957fe5b906000526020600020906006020160010154611b20565b1561263b576040805160208101909152601c5481526123a690829063ffffffff613b7e16565b156123b5578051601c556123e1565b6040805160208101909152601b5481526123d690829063ffffffff6139a516565b156123e1578051601b555b601a54601083815481106123f157fe5b9060005260206000209060060201600401541015612433576010828154811061241657fe5b906000526020600020906006020160040154601a81905550612481565b6017546010838154811061244357fe5b9060005260206000209060060201600401541115612481576010828154811061246857fe5b9060005260206000209060060201600401546017819055505b61248a8161389c565b60198054909101905560108054839081106124a157fe5b600091825260209091206004600690920201015460188054909101905560108054839081106124cc57fe5b600091825260209091206002600690920201015460168054909101905560108054839081106124f757fe5b600091825260208220600160069092020101546012805490910190556010805461254091908590811061252657fe5b906000526020600020906006020160040154610f8761147a565b905061259b6010848154811061255257fe5b906000526020600020906006020160000160029054906101000a90046001600160a01b03166010858154811061258457fe5b906000526020600020906006020160010154612adb565b6125f5601084815481106125ab57fe5b906000526020600020906006020160000160029054906101000a90046001600160a01b031682601086815481106125de57fe5b906000526020600020906006020160020154612bec565b61262c856010858154811061260657fe5b60009182526020909120600690910201546201000090046001600160a01b031685613b92565b50601180546001019055612671565b612671846010848154811061264c57fe5b60009182526020909120600690910201546201000090046001600160a01b0316613be4565b505b61267d565b612685565b60010161224b565b50601154156127a85761269661476a565b6126a46019546011546130b7565b90506126ae61476a565b6126bc6018546011546130b7565b90506126c661476a565b6126e860646126dc6010805490506011546130b7565b9063ffffffff613c1a16565b90506126f685601a54613c41565b61270285601754613c56565b6127148561270f8461389c565b613c6b565b6040805160208101909152601c5481526127389086906127339061389c565b613c80565b6040805160208101909152601b54815261275c9086906127579061389c565b613c95565b61276e856127698561389c565b613caa565b6127808561277b8361389c565b613cbf565b61278c85601154613cd4565b61279885601654613ce9565b6127a485601254613cfe565b5050505b6127b460106000614851565b600060118190556012819055600160138190556014819055601555601681905560178190556018819055601955600019601a556127ef61398a565b51601b5550604080516020810190915260001990819052601c556001610d17565b506000610d17565b60065461282c90838363ffffffff61365616565b6006555050565b6001600160a01b039283166000908152600c60209081526040808320949095168252600390930190925291902055565b6001600160a01b0383166000908152600e602052604090206003015461289090838363ffffffff61365616565b6001600160a01b039093166000908152600e60205260409020600301929092555050565b6128bc61476a565b6128c4613d15565b905060006128db60016128d561147a565b03611978565b90506128e86120686138b9565b15612927576128f5613ddd565b805460ff1615156001141561291757612917600161291161147a565b03613525565b61292082613de4565b50506111dc565b61293f6129326138b9565b839063ffffffff613b7e16565b1561299057805460ff1615156001141561297f576000612968600161296261147a565b03611ebb565b905061297d600161297761147a565b03612cea565b505b612987613205565b61292082613ed3565b61299861147a565b6040517fff7db5a0dc69b02c191ba632db46961b7d0daa1bd30709ddba9b80ad0a15d2c090600090a25050565b6129ce81612df6565b611a126116ea613f5f565b6000908152600d602052604090206005015490565b6000908152600d602052604090206006015490565b612a0b614749565b604051806060016040528060008152602001635fbef0008152602001611c20815250905090565b6000610d148260000151610f87846040015161143f8660200151611664613f81565b612a5c611256565b6001600160a01b03166342966c68826040518263ffffffff1660e01b8152600401612a879190614f1b565b600060405180830381600087803b158015612aa157600080fd5b505af1158015612ab5573d6000803e3d6000fd5b50505050611a12816040518060600160405280602a8152602001615099602a9139612818565b612ae3611256565b6001600160a01b03166323b872dd8330846040518463ffffffff1660e01b8152600401612b1293929190614e7d565b602060405180830381600087803b158015612b2c57600080fd5b505af1158015612b40573d6000803e3d6000fd5b505050506040513d601f19601f82011682018060405250612b649190810190614bcd565b50612b6d611256565b6001600160a01b03166342966c68826040518263ffffffff1660e01b8152600401612b989190614f1b565b600060405180830381600087803b158015612bb257600080fd5b505af1158015612bc6573d6000803e3d6000fd5b50505050611aba8160405180606001604052806028815260200161507160289139612ccf565b6001600160a01b0383166000908152600c60209081526040808320858452600201909152902054612c23908263ffffffff611bbb16565b6001600160a01b0384166000908152600c60209081526040808320868452600201825280832093909355600d90522060010154612c66908263ffffffff611bbb16565b6000838152600d6020526040902060010155600854612c8b908263ffffffff611bbb16565b600855505050565b6000908152600d602052604090206014015490565b612cb0610e08565b600d6000612cbc61147a565b8152602081019190915260400160002055565b600754612ce390838363ffffffff61365616565b6007555050565b6000908152600d60205260409020600401805462ff0000191662010000179055565b6001600160a01b0383166000908152600e6020526040902060020154612d3990838363ffffffff61365616565b6001600160a01b039093166000908152600e60205260409020600201929092555050565b6000908152600d602052604090206015015490565b600082612d8157506000610d57565b82820282848281612d8e57fe5b0414610e3b5760405162461bcd60e51b8152600401611b1790614f0b565b6001600160a01b038083166000908152600e6020908152604080832093871683526004909301905220805482919060ff19166001836002811115612dec57fe5b0217905550505050565b600754612e09908263ffffffff611bbb16565b60075550565b600454612e2390838363ffffffff61365616565b6004555050565b612e3d612e35613f87565b610f8761147a565b6001600160a01b039091166000908152600c6020526040902060040155565b6000610e3b83836040518060400160405280601e81526020017f536166654d6174683a207375627472616374696f6e206f766572666c6f770000815250613656565b6001600160a01b03166000908152600e60205260409020600501805460ff19166001179055565b6000612ed0826117f0565b905080612edd5750610e2b565b600854612ef0908263ffffffff612e5c16565b600855506000908152600d6020526040812060010155565b6001600160a01b0383166000908152600c6020526040902060010154612f3590838363ffffffff61365616565b6001600160a01b0384166000908152600c6020526040902060010155600354612f6590838363ffffffff61365616565b6003556040516000906001600160a01b038516907fddf252ad1be2c89b69c2b068fc378daa952ba7f163c4a11628f55a4df523b3ef90612fa6908690614f1b565b60405180910390a3505050565b6001600160a01b0382166000908152600c6020526040902060010154612fdf908263ffffffff611bbb16565b6001600160a01b0383166000908152600c602052604090206001015560035461300e908263ffffffff611bbb16565b6003556040516001600160a01b038316906000907fddf252ad1be2c89b69c2b068fc378daa952ba7f163c4a11628f55a4df523b3ef9061304f908590614f1b565b60405180910390a35050565b6001600160a01b0382166000908152600c6020526040902054613084908263ffffffff611bbb16565b6001600160a01b0383166000908152600c60205260409020556005546130b0908263ffffffff611bbb16565b6005555050565b6130bf61476a565b60405180602001604052806130dd85670de0b6b3a764000086613f8c565b90529392505050565b6000613173611f6a6130f6611256565b6001600160a01b03166318160ddd6040518163ffffffff1660e01b815260040160206040518083038186803b15801561312e57600080fd5b505afa158015613142573d6000803e3d6000fd5b505050506040513d601f19601f820116820180604052506131669190810190614c39565b849063ffffffff613c1a16565b9050600061317f6118da565b90508181111561109757600061319b828463ffffffff612e5c16565b90506111ce816119d3565b6001600160a01b0383166000908152600c60205260409020546131d090838363ffffffff61365616565b6001600160a01b0384166000908152600c60205260409020556005546131fd90838363ffffffff61365616565b600555505050565b600d600061321161147a565b815260208101919091526040016000206004015460ff166111dc576000600d8161323961147a565b8152602001908152602001600020600401600501819055506000196000600d01600061326361147a565b81526020810191909152604001600090812060050191909155600d8161328761147a565b8152602001908152602001600020600401600201819055506000196000600d0160006132b161147a565b81526020810191909152604001600090812060070191909155600d816132d561147a565b8152602001908152602001600020600401600401819055506000196000600d0160006132ff61147a565b81526020810191909152604001600090812060140191909155600d8161332361147a565b81526020019081526020016000206004016011018190555060016000600d01600061334c61147a565b81526020810191909152604001600020600401805460ff1916911515919091179055565b6001600160a01b0382166000908152600c6020526040812060050154906133a261339984610dd0565b610f87856118ad565b9050818111156111ce576001600160a01b0384166000908152600c6020526040902060050181905550505050565b6001600160a01b0384166000908152600c6020908152604080832086845260020190915290205461340890838363ffffffff61365616565b6001600160a01b0385166000908152600c60209081526040808320878452600201825280832093909355600d9052206001015461344c90838363ffffffff61365616565b6000848152600d602052604090206001015560085461347290838363ffffffff61365616565b60085550505050565b613483611256565b6001600160a01b031663a9059cbb83836040518363ffffffff1660e01b81526004016134b0929190614ea5565b602060405180830381600087803b1580156134ca57600080fd5b505af11580156134de573d6000803e3d6000fd5b505050506040513d601f19601f820116820180604052506135029190810190614bcd565b50611aba816040518060600160405280602a8152602001615099602a9139612818565b6000908152600d60205260409020600401805461ff001916610100179055565b6001600160a01b0382166000908152600e6020526040902060030154613571908263ffffffff611bbb16565b6001600160a01b039092166000908152600e602052604090206003019190915550565b6006546135a7908263ffffffff611bbb16565b60065550565b6135b561147a565b6001600160a01b039092166000908152600e60205260409020918255600190910155565b6000908152600d602052604090206008015490565b60025461360290600163ffffffff611bbb16565b600255565b6001600160a01b0382166000908152600e6020526040902060020154613633908263ffffffff611bbb16565b6001600160a01b039092166000908152600e602052604090206002019190915550565b6000818484111561367a5760405162461bcd60e51b8152600401611b179190614eea565b505050900390565b6111dc6136a3613690610e1c565b610f8761369b611824565b610f876111e7565b6136ab611256565b6001600160a01b03166370a08231306040518263ffffffff1660e01b81526004016136d69190614e6f565b60206040518083038186803b1580156136ee57600080fd5b505afa158015613702573d6000803e3d6000fd5b505050506040513d601f19601f820116820180604052506137269190810190614c39565b10156a21b7b6b83a3937b63632b960a91b74496e636f6e73697374656e742062616c616e63657360581b611ac2565b606080826040516020016137699190614e29565b60408051601f19818403018152919052905060205b80156137be5781516000199091019082908290811061379957fe5b01602001516001600160f81b031916156137b95760010181529050610d17565b61377e565b505060408051600081526020810190915292915050565b600081836137f65760405162461bcd60e51b8152600401611b179190614eea565b50600083858161380257fe5b0495945050505050565b6000908152600d602052604090206004015462010000900460ff1690565b6000908152600d6020526040902060040154610100900460ff1690565b6000918252600d60209081526040808420928452601690920190529020546001600160a01b031690565b6000828152600d602090815260408083206001600160a01b0385168452601801909152902092915050565b8051600090610d1490670de0b6b3a764000063ffffffff611be016565b6138c161476a565b506040805160208101909152670de0b6b3a7640000815290565b6138e361476a565b60408051602081019091528251845182916130dd919063ffffffff611bbb16565b61390c61476a565b60408051602081019091528251845182916130dd919063ffffffff612e5c16565b61393561476a565b8161394b576139446001613faa565b9050610d57565b61395361476a565b5060408051602081019091528351815260015b83811015613982576139788286613fde565b9150600101613966565b509392505050565b61399261476a565b5060408051602081019091526000815290565b60006139b1838361400c565b6002149392505050565b6139c361476a565b6139cb61476a565b6139ed60026139e185600163ffffffff61403e16565b9063ffffffff61407b16565b90508291505b613a03818363ffffffff613b7e16565b15613a3757905080613a3060026139e1613a23848063ffffffff6138db16565b869063ffffffff6140a216565b90506139f3565b50919050565b6000928352600d602090815260408085206001600160a01b0390941685526018909301905291209051600390910155565b6000613b4682805480602002602001604051908101604052809291908181526020016000905b82821015613b3357600084815260209081902060408051610100808201835260068702909301805460ff80821615158452948104909416151582860152620100009093046001600160a01b03168183015260018084015460608301526002840154608083015282518086019093526003840154835260a0820192909252600483015460c082015260059092015460e08301529083529092019101613a94565b50508554600092506000190190506140d0565b5090565b6000918252600d602090815260408084206001600160a01b0393909316845260189092019052902054610100900460ff1690565b6000613b8a838361400c565b159392505050565b6000928352600d602090815260408085206001600160a01b03909416808652601885018352818620805460ff1916600117905592855260179093019052912080546001600160a01b0319169091179055565b6000918252600d602090815260408084206001600160a01b039093168452601890920190529020805461ff001916610100179055565b613c2261476a565b6040805160208101909152835181906130dd908563ffffffff612d7216565b6000918252600d602052604090912060110155565b6000918252600d602052604090912060120155565b6000918252600d602052604090912060130155565b6000918252600d6020526040909120600e0155565b6000918252600d6020526040909120600f0155565b6000918252600d602052604090912060100155565b6000918252600d6020526040909120600b0155565b6000918252600d6020526040909120600a0155565b6000918252600d6020526040909120600c0155565b6000918252600d6020819052604090922090910155565b613d1d61476a565b613d2561476a565b6000613d2f6113e5565b6001600160a01b031663d4a3e9d76040518163ffffffff1660e01b81526004016040805180830381600087803b158015613d6857600080fd5b505af1158015613d7c573d6000803e3d6000fd5b505050506040513d601f19601f82011682018060405250613da09190810190614beb565b91509150613db461097d600161166461147a565b15613dca57613dc1614226565b92505050610d51565b80613dd757613dc16138b9565b50905090565b6000600755565b613dec61476a565b613df4614248565b90506000613e00610e1c565b90506000613e0c61150b565b905080821015613e2157613e1e61426b565b92505b613e2961476a565b613e5a613e5485613e48613e3b6138b9565b899063ffffffff61390416565b9063ffffffff6140a216565b8661428d565b90506000613e6c611f6a6131666115df565b90506000806000613e7c84614318565b925092509250613e8a61147a565b89516040517f32fcaa1e76ed9517f4749d8ec9a77dd5e7329456d740b9bf9665d900eef5e28391613ec091879087908790614f37565b60405180910390a2505050505050505050565b613edb61476a565b613efb613ef5613ee9614484565b613e4885611fd86138b9565b8361428d565b90506000613f0d611f6a6131666115df565b9050613f18816129c5565b613f2061147a565b83516040517f5e139d4b8080a4a00dcc151e8217694aeebae893936326aa22096924a990667791613f52918590614f29565b60405180910390a2505050565b613f6761476a565b5060408051602081019091526704db732547630000815290565b600f5490565b602490565b6000613fa28261143f868663ffffffff612d7216565b949350505050565b613fb261476a565b604080516020810190915280613fd684670de0b6b3a764000063ffffffff612d7216565b905292915050565b613fe661476a565b60405180602001604052806130dd85600001518560000151670de0b6b3a7640000613f8c565b80518251600091141561402157506001610d57565b8151835111614031576000614034565b60025b60ff169392505050565b61404661476a565b6040805160208101909152806130dd61406d85670de0b6b3a764000063ffffffff612d7216565b86519063ffffffff611bbb16565b61408361476a565b6040805160208101909152835181906130dd908563ffffffff611be016565b6140aa61476a565b60405180602001604052806130dd8560000151670de0b6b3a76400008660000151613f8c565b8181808214156140e1575050611097565b6140e961476a565b856002868603058601815181106140fc57fe5b602002602001015160a0015190505b8183136141f8575b61413d8187858151811061412357fe5b602002602001015160a00151613b7e90919063ffffffff16565b1561414d57600190920191614113565b61417786838151811061415c57fe5b602002602001015160a0015182613b7e90919063ffffffff16565b15614188576000199091019061414d565b8183136141f35785828151811061419b57fe5b60200260200101518684815181106141af57fe5b60200260200101518785815181106141c357fe5b602002602001018885815181106141d657fe5b602090810291909101019190915252600190920191600019909101905b61410b565b8185121561420b5761420b8686846140d0565b8383121561421e5761421e8684866140d0565b505050505050565b61422e61476a565b50604080516020810190915267155f2dd73a1a0000815290565b61425061476a565b50604080516020810190915268015af1d78b58c40000815290565b61427361476a565b50604080516020810190915267e73435bb46020000815290565b61429561476a565b61429d61476a565b6142a56144a6565b905060006142b1610e1c565b905060006142bd61150b565b90506142d76142ca6138b9565b869063ffffffff6139a516565b80156142e257508082105b156142f2576142ef6144c7565b92505b614302868463ffffffff6139a516565b61430c578561430e565b825b9695505050505050565b6000808080808080614328610e1c565b9050600061433461150b565b9050808210156143f15761434e818363ffffffff612e5c16565b945061437661436560646143606144e8565b612e5c565b61143f87606463ffffffff612d7216565b94508885116143855784614387565b885b94506143a6606461143f6143996144e8565b889063ffffffff612d7216565b92506143b8858463ffffffff612e5c16565b94506143c3836144ed565b6143cc85614581565b6143dc898463ffffffff612e5c16565b98506143ee898663ffffffff612e5c16565b98505b60006143fb6118da565b905060008a11801561440d5750600081115b1561443f5789811161441f5780614421565b895b945061442c856119d3565b61443c8a8663ffffffff612e5c16565b99505b6144476111e7565b61445057600099505b891561445f5761445f8a614612565b85856144718c8763ffffffff611bbb16565b9850985098505050505050509193909250565b61448c61476a565b506040805160208101909152674563918244f40000815290565b6144ae61476a565b50604080516020810190915266470de4df820000815290565b6144cf61476a565b506040805160208101909152666a94d74f430000815290565b602890565b8015610e2b576144fb611256565b6001600160a01b03166340c10f19614511610df9565b836040518363ffffffff1660e01b815260040161452f929190614ea5565b602060405180830381600087803b15801561454957600080fd5b505af115801561455d573d6000803e3d6000fd5b505050506040513d601f19601f82011682018060405250610e189190810190614bcd565b614589611256565b6001600160a01b03166340c10f1930836040518363ffffffff1660e01b81526004016145b6929190614ea5565b602060405180830381600087803b1580156145d057600080fd5b505af11580156145e4573d6000803e3d6000fd5b505050506040513d601f19601f820116820180604052506146089190810190614bcd565b50611a1281613594565b614655600061461f6111e7565b116a21b7b6b83a3937b63632b960a91b7f43616e74206d696e7420746f20656d70747920706f6f6c000000000000000000611ac2565b6000614674606461143f6146676144e8565b859063ffffffff612d7216565b90506000818311614686576000614696565b614696838363ffffffff612e5c16565b90506146a1826144ed565b6146aa816146b2565b611097613682565b8015610e2b576146c0611256565b6001600160a01b03166340c10f1930836040518363ffffffff1660e01b81526004016146ed929190614ea5565b602060405180830381600087803b15801561470757600080fd5b505af115801561471b573d6000803e3d6000fd5b505050506040513d601f19601f8201168201806040525061473f9190810190614bcd565b50610e2b81611ea2565b60405180606001604052806000815260200160008152602001600081525090565b6040518060200160405280600081525090565b8280548282559060005260206000209060060281019282156148455760005260206000209160060282015b82811115614845578254825460ff191660ff918216151517808455845461ff00199091166101009182900490921615150217808355835462010000600160b01b031990911662010000918290046001600160a01b03169091021782556001808401549083015560028084015490830155600380840154908301556004808401549083015560058084015490830155600692830192909101906147a8565b50613b4692915061486e565b5080546000825560060290600052602060002090810190610e2b91905b610d5191905b80821115613b465780546001600160b01b03191681556000600182018190556002820181905560038201819055600482018190556005820155600601614874565b8035610d578161503d565b8051610d5781615051565b8035610d578161505a565b60008083601f8401126148e857600080fd5b50813567ffffffffffffffff81111561490057600080fd5b60208301915083600182028301111561491857600080fd5b9250929050565b60006020828403121561493157600080fd5b61493b6020614f7a565b90506000614949848461495d565b82525092915050565b8035610d5781615067565b8051610d5781615067565b60006020828403121561497a57600080fd5b6000613fa284846148b5565b6000806040838503121561499957600080fd5b60006149a585856148b5565b92505060206149b6858286016148b5565b9150509250929050565b6000806000606084860312156149d557600080fd5b60006149e186866148b5565b93505060206149f2868287016148b5565b9250506040614a03868287016148cb565b9150509250925092565b600080600060608486031215614a2257600080fd5b6000614a2e86866148b5565b9350506020614a3f868287016148b5565b9250506040614a0386828701614952565b600080600080600060808688031215614a6857600080fd5b6000614a7488886148b5565b9550506020614a85888289016148b5565b9450506040614a9688828901614952565b935050606086013567ffffffffffffffff811115614ab357600080fd5b614abf888289016148d6565b92509250509295509295909350565b60008060408385031215614ae157600080fd5b6000614aed85856148b5565b92505060206149b685828601614952565b60008060008060608587031215614b1457600080fd5b6000614b2087876148b5565b9450506020614b3187828801614952565b935050604085013567ffffffffffffffff811115614b4e57600080fd5b614b5a878288016148d6565b95989497509550505050565b600080600060608486031215614b7b57600080fd5b6000614b8786866148b5565b9350506020614a3f86828701614952565b600080600080600060808688031215614bb057600080fd5b6000614bbc88886148b5565b9550506020614a8588828901614952565b600060208284031215614bdf57600080fd5b6000613fa284846148c0565b60008060408385031215614bfe57600080fd5b6000614c0a858561491f565b92505060206149b6858286016148c0565b600060208284031215614c2d57600080fd5b6000613fa28484614952565b600060208284031215614c4b57600080fd5b6000613fa2848461495d565b600080600060408486031215614c6c57600080fd5b6000614c788686614952565b935050602084013567ffffffffffffffff811115614c9557600080fd5b614ca1868287016148d6565b92509250509250925092565b60008060408385031215614cc057600080fd5b6000614aed8585614952565b600080600060608486031215614ce157600080fd5b6000614b878686614952565b614cf681614fae565b82525050565b614cf681614fb9565b614cf6614d1182614fbe565b610d51565b614cf6614d1182610d51565b6000614d2d82614fa1565b614d378185610d17565b9350614d47818560208601614ffd565b9290920192915050565b614cf681614fe7565b614cf681614ff2565b6000614d6e82614fa1565b614d788185614fa5565b9350614d88818560208601614ffd565b614d9181615029565b9093019392505050565b6000614da8601b83614fa5565b7f536166654d6174683a206164646974696f6e206f766572666c6f770000000000815260200192915050565b6000614de1602183614fa5565b7f536166654d6174683a206d756c7469706c69636174696f6e206f766572666c6f8152607760f81b602082015260400192915050565b614cf681610d51565b614cf681614fe1565b6000614e358284614d16565b50602001919050565b6000614e4a8286614d22565b9150614e568285614d05565b600282019150614e668284614d22565b95945050505050565b60208101610d578284614ced565b60608101614e8b8286614ced565b614e986020830185614ced565b613fa26040830184614e17565b60408101614eb38285614ced565b610e3b6020830184614e17565b60208101610d578284614cfc565b60208101610d578284614d51565b60208101610d578284614d5a565b60208082528101610e3b8184614d63565b60208082528101610d1481614d9b565b60208082528101610d1481614dd4565b60208101610d578284614e17565b60408101614eb38285614e17565b60808101614f458287614e17565b614f526020830186614e17565b614f5f6040830185614e17565b614e666060830184614e17565b60208101610d578284614e20565b60405181810167ffffffffffffffff81118282101715614f9957600080fd5b604052919050565b5190565b90815260200190565b6000610d1482614fd5565b151590565b6001600160f01b03191690565b80610d1781615033565b6001600160a01b031690565b60ff1690565b6000610d1482614fae565b6000610d1482614fcb565b60005b83811015615018578181015183820152602001615000565b838111156111ce5750506000910152565b601f01601f191690565b60038110610e2b57fe5b61504681614fae565b8114610e2b57600080fd5b61504681614fb9565b60038110610e2b57600080fd5b61504681610d5156fe436f6d7074726f6c6c65723a206e6f7420656e6f756768206f75747374616e64696e672064656274436f6d7074726f6c6c65723a206e6f7420656e6f7567682072656465656d61626c652062616c616e6365a365627a7a723158206422eff39ed3ebc6f94c6c1919685a5b1fed0b66a62d3dab21e0119ebf89db1b6c6578706572696d656e74616cf564736f6c6343000511004060806040523480156200001157600080fd5b5060405180604001604052806012815260200171223cb730b6b4b19029b2ba102237b63630b960711b815250604051806040016040528060038152602001621114d160ea1b81525060126200007e6200006f6200011960201b60201c565b6001600160e01b036200011e16565b82516200009390600190602086019062000313565b508151620000a990600290602085019062000313565b506003805460ff191660ff9290921691909117905550620001109050620000cf62000170565b604051806040016040528060018152602001603160f81b815250620000fe6200020960201b620016341760201c565b306200020e60201b620016391760201c565b60075562000469565b335b90565b620001398160006200026560201b62000d7e1790919060201c565b6040516001600160a01b038216907f6ae172837ea30b801fbfcdd4108aa1d5bf8ff775444fd70256b44e6bf3dfc3f690600090a250565b60018054604080516020601f60026000196101008789161502019095169490940493840181900481028201810190925282815260609390929091830182828015620001ff5780601f10620001d357610100808354040283529160200191620001ff565b820191906000526020600020905b815481529060010190602001808311620001e157829003601f168201915b5050505050905090565b600190565b8351602094850120835193850193909320604080517f8b73c3c69bb8fe3d512ecc4cf759cc79239f7b179b0ffacaa9a75d522b39400f815295860194909452928401929092526060830152608082015260a0902090565b6200027a82826001600160e01b03620002c816565b15620002a35760405162461bcd60e51b81526004016200029a9062000436565b60405180910390fd5b6001600160a01b0316600090815260209190915260409020805460ff19166001179055565b60006001600160a01b038216620002f35760405162461bcd60e51b81526004016200029a906200044e565b506001600160a01b03166000908152602091909152604090205460ff1690565b828054600181600116156101000203166002900490600052602060002090601f016020900481019282601f106200035657805160ff191683800117855562000386565b8280016001018555821562000386579182015b828111156200038657825182559160200191906001019062000369565b506200039492915062000398565b5090565b6200011b91905b808211156200039457600081556001016200039f565b6000620003c4601f8362000460565b7f526f6c65733a206163636f756e7420616c72656164792068617320726f6c6500815260200192915050565b6000620003ff60228362000460565b7f526f6c65733a206163636f756e7420697320746865207a65726f206164647265815261737360f01b602082015260400192915050565b602080825281016200044881620003b5565b92915050565b602080825281016200044881620003f0565b90815260200190565b61178d80620004796000396000f3fe608060405234801561001057600080fd5b506004361061012c5760003560e01c806395d89b41116100ad578063aa271e1a11610071578063aa271e1a14610256578063d505accf14610269578063dab400f31461027c578063dd62ed3e14610284578063e879c19f146102975761012c565b806395d89b411461020d578063983b2d56146102155780639865027514610228578063a457c2d714610230578063a9059cbb146102435761012c565b806339509351116100f457806339509351146101ac57806340c10f19146101bf57806342966c68146101d257806370a08231146101e757806379cc6790146101fa5761012c565b806306fdde0314610131578063095ea7b31461014f57806318160ddd1461016f57806323b872dd14610184578063313ce56714610197575b600080fd5b61013961029f565b60405161014691906114c6565b60405180910390f35b61016261015d366004610ffc565b610334565b604051610146919061141b565b610177610352565b6040516101469190611429565b610162610192366004610f13565b610358565b61019f6103ca565b6040516101469190611587565b6101626101ba366004610ffc565b6103d3565b6101626101cd366004610ffc565b610427565b6101e56101e036600461102c565b610463565b005b6101776101f5366004610eb3565b610477565b6101e5610208366004610ffc565b610496565b6101396104a4565b6101e5610223366004610eb3565b610502565b6101e5610532565b61016261023e366004610ffc565b610544565b610162610251366004610ffc565b6105b2565b610162610264366004610eb3565b6105c6565b6101e5610277366004610f60565b6105d8565b61017761075f565b610177610292366004610ed9565b610765565b610177610790565b60018054604080516020601f6002600019610100878916150201909516949094049384018190048102820181019092528281526060939092909183018282801561032a5780601f106102ff5761010080835404028352916020019161032a565b820191906000526020600020905b81548152906001019060200180831161030d57829003601f168201915b5050505050905090565b60006103486103416107b4565b84846107b8565b5060015b92915050565b60065490565b600061036584848461086c565b600019610374856102926107b4565b146103c0576103c0846103856107b4565b6103bb856040518060600160405280602981526020016116fd602991396103ae8a6102926107b4565b919063ffffffff61098216565b6107b8565b5060019392505050565b60035460ff1690565b60006103486103e06107b4565b846103bb85600560006103f16107b4565b6001600160a01b03908116825260208083019390935260409182016000908120918c16815292529020549063ffffffff6109ae16565b60006104346102646107b4565b6104595760405162461bcd60e51b815260040161045090611517565b60405180910390fd5b61034883836109da565b61047461046e6107b4565b82610a9a565b50565b6001600160a01b0381166000908152600460205260409020545b919050565b6104a08282610b70565b5050565b60028054604080516020601f600019610100600187161502019094168590049384018190048102820181019092528281526060939092909183018282801561032a5780601f106102ff5761010080835404028352916020019161032a565b61050d6102646107b4565b6105295760405162461bcd60e51b815260040161045090611517565b61047481610beb565b61054261053d6107b4565b610c33565b565b60006103486105516107b4565b846103bb85604051806060016040528060258152602001611726602591396005600061057b6107b4565b6001600160a01b03908116825260208083019390935260409182016000908120918d1681529252902054919063ffffffff61098216565b60006103486105bf6107b4565b848461086c565b600061034c818363ffffffff610c7b16565b6007546001600160a01b03881660009081526008602090815260408083208054600181019091559051929361065a93909261063f927f6e71edae12b1b97f4d1f60370fef10105fa2faae0126114a169c64845d6126c9928e928e928e9290918e9101611437565b60405160208183030381529060405280519060200120610cc3565b90506000600182868686604051600081526020016040526040516106819493929190611491565b6020604051602081039080840390855afa1580156106a3573d6000803e3d6000fd5b5050506020604051035190506106f0896001600160a01b0316826001600160a01b0316146a5065726d69747461626c6560a81b70496e76616c6964207369676e617475726560781b610ce2565b6107236001600160a01b03821615156a5065726d69747461626c6560a81b6b5a65726f206164647265737360a01b610ce2565b610749864211156a5065726d69747461626c6560a81b66115e1c1a5c995960ca1b610ce2565b6107548989896107b8565b505050505050505050565b60075481565b6001600160a01b03918216600090815260056020908152604080832093909416825291909152205490565b7f6e71edae12b1b97f4d1f60370fef10105fa2faae0126114a169c64845d6126c981565b3390565b6001600160a01b0383166107de5760405162461bcd60e51b815260040161045090611567565b6001600160a01b0382166108045760405162461bcd60e51b8152600401610450906114f7565b6001600160a01b0380841660008181526005602090815260408083209487168084529490915290819020849055517f8c5be1e5ebec7d5bd14f71427d1e84f3dd0314c0f7b2291e5b200ac8c7c3b9259061085f908590611429565b60405180910390a3505050565b6001600160a01b0383166108925760405162461bcd60e51b815260040161045090611557565b6001600160a01b0382166108b85760405162461bcd60e51b8152600401610450906114d7565b6108fb816040518060600160405280602681526020016116b3602691396001600160a01b038616600090815260046020526040902054919063ffffffff61098216565b6001600160a01b038085166000908152600460205260408082209390935590841681522054610930908263ffffffff6109ae16565b6001600160a01b0380841660008181526004602052604090819020939093559151908516907fddf252ad1be2c89b69c2b068fc378daa952ba7f163c4a11628f55a4df523b3ef9061085f908590611429565b600081848411156109a65760405162461bcd60e51b815260040161045091906114c6565b505050900390565b6000828201838110156109d35760405162461bcd60e51b815260040161045090611507565b9392505050565b6001600160a01b038216610a005760405162461bcd60e51b815260040161045090611577565b600654610a13908263ffffffff6109ae16565b6006556001600160a01b038216600090815260046020526040902054610a3f908263ffffffff6109ae16565b6001600160a01b0383166000818152600460205260408082209390935591519091907fddf252ad1be2c89b69c2b068fc378daa952ba7f163c4a11628f55a4df523b3ef90610a8e908590611429565b60405180910390a35050565b6001600160a01b038216610ac05760405162461bcd60e51b815260040161045090611547565b610b0381604051806060016040528060228152602001611691602291396001600160a01b038516600090815260046020526040902054919063ffffffff61098216565b6001600160a01b038316600090815260046020526040902055600654610b2f908263ffffffff610d3c16565b6006556040516000906001600160a01b038416907fddf252ad1be2c89b69c2b068fc378daa952ba7f163c4a11628f55a4df523b3ef90610a8e908590611429565b610b7a8282610a9a565b6104a082610b866107b4565b6103bb846040518060600160405280602481526020016116d9602491396001600160a01b038816600090815260056020526040812090610bc46107b4565b6001600160a01b03168152602081019190915260400160002054919063ffffffff61098216565b610bfc60008263ffffffff610d7e16565b6040516001600160a01b038216907f6ae172837ea30b801fbfcdd4108aa1d5bf8ff775444fd70256b44e6bf3dfc3f690600090a250565b610c4460008263ffffffff610dca16565b6040516001600160a01b038216907fe94479a9f7e1952cc78f2d6baab678adc1b772d936c6583def489e524cb6669290600090a250565b60006001600160a01b038216610ca35760405162461bcd60e51b815260040161045090611537565b506001600160a01b03166000908152602091909152604090205460ff1690565b60405161190160f01b8152600281019290925260228201526042902090565b82610d3757610cf082610e12565b6101d160f51b610cff83610e12565b604051602001610d11939291906113ea565b60408051601f198184030181529082905262461bcd60e51b8252610450916004016114c6565b505050565b60006109d383836040518060400160405280601e81526020017f536166654d6174683a207375627472616374696f6e206f766572666c6f770000815250610982565b610d888282610c7b565b15610da55760405162461bcd60e51b8152600401610450906114e7565b6001600160a01b0316600090815260209190915260409020805460ff19166001179055565b610dd48282610c7b565b610df05760405162461bcd60e51b815260040161045090611527565b6001600160a01b0316600090815260209190915260409020805460ff19169055565b60608082604051602001610e2691906113d5565b60408051601f19818403018152919052905060205b8015610e7b57815160001990910190829082908110610e5657fe5b01602001516001600160f81b03191615610e765760010181529050610491565b610e3b565b505060408051600081526020810190915292915050565b803561034c8161160e565b803561034c81611622565b803561034c8161162b565b600060208284031215610ec557600080fd5b6000610ed18484610e92565b949350505050565b60008060408385031215610eec57600080fd5b6000610ef88585610e92565b9250506020610f0985828601610e92565b9150509250929050565b600080600060608486031215610f2857600080fd5b6000610f348686610e92565b9350506020610f4586828701610e92565b9250506040610f5686828701610e9d565b9150509250925092565b600080600080600080600060e0888a031215610f7b57600080fd5b6000610f878a8a610e92565b9750506020610f988a828b01610e92565b9650506040610fa98a828b01610e9d565b9550506060610fba8a828b01610e9d565b9450506080610fcb8a828b01610ea8565b93505060a0610fdc8a828b01610e9d565b92505060c0610fed8a828b01610e9d565b91505092959891949750929550565b6000806040838503121561100f57600080fd5b600061101b8585610e92565b9250506020610f0985828601610e9d565b60006020828403121561103e57600080fd5b6000610ed18484610e9d565b611053816115a2565b82525050565b611053816115ad565b61105361106e826115b2565b6115bf565b611053816115bf565b61105361106e826115bf565b600061109382611595565b61109d8185610491565b93506110ad8185602086016115d4565b9290920192915050565b60006110c282611595565b6110cc8185611599565b93506110dc8185602086016115d4565b6110e581611604565b9093019392505050565b60006110fc602383611599565b7f45524332303a207472616e7366657220746f20746865207a65726f206164647281526265737360e81b602082015260400192915050565b6000611141601f83611599565b7f526f6c65733a206163636f756e7420616c72656164792068617320726f6c6500815260200192915050565b600061117a602283611599565b7f45524332303a20617070726f766520746f20746865207a65726f206164647265815261737360f01b602082015260400192915050565b60006111be601b83611599565b7f536166654d6174683a206164646974696f6e206f766572666c6f770000000000815260200192915050565b60006111f7603083611599565b7f4d696e746572526f6c653a2063616c6c657220646f6573206e6f74206861766581526f20746865204d696e74657220726f6c6560801b602082015260400192915050565b6000611249602183611599565b7f526f6c65733a206163636f756e7420646f6573206e6f74206861766520726f6c8152606560f81b602082015260400192915050565b600061128c602283611599565b7f526f6c65733a206163636f756e7420697320746865207a65726f206164647265815261737360f01b602082015260400192915050565b60006112d0602183611599565b7f45524332303a206275726e2066726f6d20746865207a65726f206164647265738152607360f81b602082015260400192915050565b6000611313602583611599565b7f45524332303a207472616e736665722066726f6d20746865207a65726f206164815264647265737360d81b602082015260400192915050565b600061135a602483611599565b7f45524332303a20617070726f76652066726f6d20746865207a65726f206164648152637265737360e01b602082015260400192915050565b60006113a0601f83611599565b7f45524332303a206d696e7420746f20746865207a65726f206164647265737300815260200192915050565b611053816115ce565b60006113e1828461107c565b50602001919050565b60006113f68286611088565b91506114028285611062565b6002820191506114128284611088565b95945050505050565b6020810161034c8284611059565b6020810161034c8284611073565b60c081016114458289611073565b611452602083018861104a565b61145f604083018761104a565b61146c6060830186611073565b6114796080830185611073565b61148660a0830184611073565b979650505050505050565b6080810161149f8287611073565b6114ac60208301866113cc565b6114b96040830185611073565b6114126060830184611073565b602080825281016109d381846110b7565b6020808252810161034c816110ef565b6020808252810161034c81611134565b6020808252810161034c8161116d565b6020808252810161034c816111b1565b6020808252810161034c816111ea565b6020808252810161034c8161123c565b6020808252810161034c8161127f565b6020808252810161034c816112c3565b6020808252810161034c81611306565b6020808252810161034c8161134d565b6020808252810161034c81611393565b6020810161034c82846113cc565b5190565b90815260200190565b600061034c826115c2565b151590565b6001600160f01b03191690565b90565b6001600160a01b031690565b60ff1690565b60005b838110156115ef5781810151838201526020016115d7565b838111156115fe576000848401525b50505050565b601f01601f191690565b611617816115a2565b811461047457600080fd5b611617816115bf565b611617816115ce565b600190565b8351602094850120835193850193909320604080517f8b73c3c69bb8fe3d512ecc4cf759cc79239f7b179b0ffacaa9a75d522b39400f815295860194909452928401929092526060830152608082015260a090209056fe45524332303a206275726e20616d6f756e7420657863656564732062616c616e636545524332303a207472616e7366657220616d6f756e7420657863656564732062616c616e636545524332303a206275726e20616d6f756e74206578636565647320616c6c6f77616e6365446f6c6c61723a207472616e7366657220616d6f756e74206578636565647320616c6c6f77616e636545524332303a2064656372656173656420616c6c6f77616e63652062656c6f77207a65726fa365627a7a7231582021717f4bb76e445345cb7f360c6be702a59b3219eb6cebef899d276f27b2e4bb6c6578706572696d656e74616cf564736f6c63430005110040",
  "source": "/*\n    Copyright 2020 Dynamic Dollar Devs, based on the works of the Empty Set Squad\n\n    Licensed under the Apache License, Version 2.0 (the \"License\");\n    you may not use this file except in compliance with the License.\n    You may obtain a copy of the License at\n\n    http://www.apache.org/licenses/LICENSE-2.0\n\n    Unless required by applicable law or agreed to in writing, software\n    distributed under the License is distributed on an \"AS IS\" BASIS,\n    WITHOUT WARRANTIES OR CONDITIONS OF ANY KIND, either express or implied.\n    See the License for the specific language governing permissions and\n    limitations under the License.\n*/\n\npragma solidity ^0.5.17;\npragma experimental ABIEncoderV2;\n\nimport \"../dao/Regulator.sol\";\nimport \"../dao/Market.sol\";\nimport \"../oracle/IOracle.sol\";\nimport \"./MockComptroller.sol\";\nimport \"./MockState.sol\";\n\ncontract MockRegulator is MockComptroller, Regulator {\n    bytes32 private constant FILE = \"MockRegulator\";\n\n    constructor (address oracle, address pool) MockComptroller(pool) public {\n        _state.provider.oracle = IOracle(oracle);\n    }\n\n    function stepE() external {\n        super.step();\n    }\n\n    function bootstrappingAt(uint256 epoch) public view returns (bool) {\n        return epoch <= 5;\n    }\n\n    function settleCouponAuctionE(uint256 epoch) external {\n        super.settleCouponAuction(epoch);\n    }\n\n    function cancelCouponAuctionAtEpochE(uint256 epoch) external {\n        super.cancelCouponAuctionAtEpoch(epoch);\n    }\n\n    function finishCouponAuctionAtEpochE(uint256 epoch) external {\n         super.finishCouponAuctionAtEpoch(epoch);\n    }\n\n    function initCouponAuctionE() external {\n        super.initCouponAuction();\n    }\n\n    function getCouponAuctionBidsE(uint256 epoch) external returns (uint256) {\n        return super.getCouponAuctionBids(epoch);\n    }\n\n    function getCouponAuctionMinExpiryE(uint256 epoch) external returns (uint256) {\n        return super.getCouponAuctionMinExpiry(epoch);\n    }\n\n    function getCouponAuctionMaxExpiryE(uint256 epoch) external returns (uint256) {\n        return super.getCouponAuctionMaxExpiry(epoch);\n    }\n\n    function getCouponAuctionMinYieldE(uint256 epoch) external returns (uint256) {\n        return super.getCouponAuctionMinYield(epoch);\n    }\n\n    function getCouponAuctionMaxYieldE(uint256 epoch) external returns (uint256) {\n        return super.getCouponAuctionMaxYield(epoch);\n    }\n\n    function getCouponAuctionMinDollarAmountE(uint256 epoch) external returns (uint256) {\n        return super.getCouponAuctionMinDollarAmount(epoch);\n    }\n\n    function getCouponAuctionMaxDollarAmountE(uint256 epoch) external returns (uint256) {\n        return super.getCouponAuctionMaxDollarAmount(epoch);\n    }\n\n    /* for testing only */\n\n    function placeCouponAuctionBid(uint256 couponEpochExpiry, uint256 dollarAmount, uint256 maxCouponAmount) external returns (bool) {\n        Require.that(\n            couponEpochExpiry > 0,\n            FILE,\n            \"Must have non-zero expiry\"\n        );\n        \n        Require.that(\n            dollarAmount > 0,\n            FILE,\n            \"Must bid non-zero amount\"\n        );\n        \n        Require.that(\n            maxCouponAmount > 0,\n            FILE,\n            \"Must bid on non-zero amount\"\n        );\n        \n        Require.that(\n            totalDebt() >= dollarAmount,\n            FILE,\n            \"Not enough debt\"\n        );\n\n        Require.that(\n            acceptableBidCheck(msg.sender, dollarAmount),\n            FILE,\n            \"Must have enough in account\"\n        );\n\n        uint256 epochExpiry = epoch().add(couponEpochExpiry);\n        setCouponAuctionRelYield(maxCouponAmount.div(dollarAmount));\n        setCouponAuctionRelDollarAmount(dollarAmount);\n        setCouponAuctionRelExpiry(epochExpiry);\n        setCouponBidderState(uint256(epoch()), msg.sender, couponEpochExpiry, dollarAmount, maxCouponAmount);\n        setCouponBidderStateIndex(uint256(epoch()), getCouponAuctionBids(uint256(epoch())), msg.sender);\n        incrementCouponAuctionBids();\n        return true;\n    }\n}\n",
  "sourcePath": "/Users/cinquemb/Documents/Startups/crypto/dollar/protocol/contracts/mock/MockRegulator.sol",
  "compiler": {
    "name": "solc",
    "version": "0.5.17+commit.d19bba13.Emscripten.clang"
  },
  "schemaVersion": "3.3.3",
  "updatedAt": "2021-01-14T02:02:05.074Z",
  "devdoc": {
    "methods": {}
  },
  "userdoc": {
    "methods": {
      "balanceOfStaged(address)": {
        "notice": "Account"
      },
      "createCandidateE(address,uint256)": {
        "notice": "Governance"
      },
      "dollar()": {
        "notice": "Global"
      },
      "epoch()": {
        "notice": "Epoch"
      },
      "incrementBalanceOfE(address,uint256)": {
        "notice": "Account"
      },
      "incrementTotalBondedE(uint256)": {
        "notice": "Global"
      },
      "name()": {
        "notice": "ERC20 Interface"
      },
      "recordedVote(address,address)": {
        "notice": "Governance"
      },
      "setBlockTimestamp(uint256)": {
        "notice": "Mock"
      },
      "setEpochParamsE(uint256,uint256)": {
        "notice": "Epoch"
      },
      "transfer(address,uint256)": {
        "notice": "ERC20 Interface"
      }
    }
  }
}