{
  "contractName": "MockMarket",
  "abi": [
    {
      "inputs": [
        {
          "internalType": "address",
          "name": "pool",
          "type": "address"
        }
      ],
      "payable": false,
      "stateMutability": "nonpayable",
      "type": "constructor"
    },
    {
      "anonymous": false,
      "inputs": [
        {
          "indexed": true,
          "internalType": "address",
          "name": "owner",
          "type": "address"
        },
        {
          "indexed": true,
          "internalType": "address",
          "name": "spender",
          "type": "address"
        },
        {
          "indexed": false,
          "internalType": "uint256",
          "name": "value",
          "type": "uint256"
        }
      ],
      "name": "CouponApproval",
      "type": "event"
    },
    {
      "anonymous": false,
      "inputs": [
        {
          "indexed": true,
          "internalType": "address",
          "name": "account",
          "type": "address"
        },
        {
          "indexed": true,
          "internalType": "uint256",
          "name": "epoch",
          "type": "uint256"
        },
        {
          "indexed": false,
          "internalType": "uint256",
          "name": "dollarAmount",
          "type": "uint256"
        },
        {
          "indexed": false,
          "internalType": "uint256",
          "name": "maxCouponAmount",
          "type": "uint256"
        }
      ],
      "name": "CouponBidPlaced",
      "type": "event"
    },
    {
      "anonymous": false,
      "inputs": [
        {
          "indexed": true,
          "internalType": "address",
          "name": "account",
          "type": "address"
        },
        {
          "indexed": true,
          "internalType": "uint256",
          "name": "epoch",
          "type": "uint256"
        },
        {
          "indexed": false,
          "internalType": "uint256",
          "name": "couponAmount",
          "type": "uint256"
        }
      ],
      "name": "CouponBurn",
      "type": "event"
    },
    {
      "anonymous": false,
      "inputs": [
        {
          "indexed": true,
          "internalType": "uint256",
          "name": "epoch",
          "type": "uint256"
        },
        {
          "indexed": false,
          "internalType": "uint256",
          "name": "couponsExpired",
          "type": "uint256"
        },
        {
          "indexed": false,
          "internalType": "uint256",
          "name": "lessRedeemable",
          "type": "uint256"
        },
        {
          "indexed": false,
          "internalType": "uint256",
          "name": "lessDebt",
          "type": "uint256"
        },
        {
          "indexed": false,
          "internalType": "uint256",
          "name": "newBonded",
          "type": "uint256"
        }
      ],
      "name": "CouponExpiration",
      "type": "event"
    },
    {
      "anonymous": false,
      "inputs": [
        {
          "indexed": true,
          "internalType": "address",
          "name": "account",
          "type": "address"
        },
        {
          "indexed": true,
          "internalType": "uint256",
          "name": "epoch",
          "type": "uint256"
        },
        {
          "indexed": false,
          "internalType": "uint256",
          "name": "dollarAmount",
          "type": "uint256"
        },
        {
          "indexed": false,
          "internalType": "uint256",
          "name": "couponAmount",
          "type": "uint256"
        }
      ],
      "name": "CouponPurchase",
      "type": "event"
    },
    {
      "anonymous": false,
      "inputs": [
        {
          "indexed": true,
          "internalType": "address",
          "name": "account",
          "type": "address"
        },
        {
          "indexed": true,
          "internalType": "uint256",
          "name": "epoch",
          "type": "uint256"
        },
        {
          "indexed": false,
          "internalType": "uint256",
          "name": "couponAmount",
          "type": "uint256"
        }
      ],
      "name": "CouponRedemption",
      "type": "event"
    },
    {
      "anonymous": false,
      "inputs": [
        {
          "indexed": true,
          "internalType": "address",
          "name": "from",
          "type": "address"
        },
        {
          "indexed": true,
          "internalType": "address",
          "name": "to",
          "type": "address"
        },
        {
          "indexed": true,
          "internalType": "uint256",
          "name": "epoch",
          "type": "uint256"
        },
        {
          "indexed": false,
          "internalType": "uint256",
          "name": "value",
          "type": "uint256"
        }
      ],
      "name": "CouponTransfer",
      "type": "event"
    },
    {
      "anonymous": false,
      "inputs": [
        {
          "indexed": true,
          "internalType": "address",
          "name": "from",
          "type": "address"
        },
        {
          "indexed": true,
          "internalType": "address",
          "name": "to",
          "type": "address"
        },
        {
          "indexed": false,
          "internalType": "uint256",
          "name": "value",
          "type": "uint256"
        }
      ],
      "name": "Transfer",
      "type": "event"
    },
    {
      "constant": true,
      "inputs": [
        {
          "internalType": "address",
          "name": "owner",
          "type": "address"
        },
        {
          "internalType": "address",
          "name": "spender",
          "type": "address"
        }
      ],
      "name": "allowance",
      "outputs": [
        {
          "internalType": "uint256",
          "name": "",
          "type": "uint256"
        }
      ],
      "payable": false,
      "stateMutability": "view",
      "type": "function"
    },
    {
      "constant": true,
      "inputs": [
        {
          "internalType": "address",
          "name": "owner",
          "type": "address"
        },
        {
          "internalType": "address",
          "name": "spender",
          "type": "address"
        }
      ],
      "name": "allowanceCoupons",
      "outputs": [
        {
          "internalType": "uint256",
          "name": "",
          "type": "uint256"
        }
      ],
      "payable": false,
      "stateMutability": "view",
      "type": "function"
    },
    {
      "constant": false,
      "inputs": [
        {
          "internalType": "address",
          "name": "spender",
          "type": "address"
        },
        {
          "internalType": "uint256",
          "name": "amount",
          "type": "uint256"
        }
      ],
      "name": "approve",
      "outputs": [
        {
          "internalType": "bool",
          "name": "",
          "type": "bool"
        }
      ],
      "payable": false,
      "stateMutability": "nonpayable",
      "type": "function"
    },
    {
      "constant": false,
      "inputs": [
        {
          "internalType": "address",
          "name": "spender",
          "type": "address"
        },
        {
          "internalType": "uint256",
          "name": "amount",
          "type": "uint256"
        }
      ],
      "name": "approveCoupons",
      "outputs": [],
      "payable": false,
      "stateMutability": "nonpayable",
      "type": "function"
    },
    {
      "constant": true,
      "inputs": [
        {
          "internalType": "address",
          "name": "candidate",
          "type": "address"
        }
      ],
      "name": "approveFor",
      "outputs": [
        {
          "internalType": "uint256",
          "name": "",
          "type": "uint256"
        }
      ],
      "payable": false,
      "stateMutability": "view",
      "type": "function"
    },
    {
      "constant": true,
      "inputs": [
        {
          "internalType": "address",
          "name": "account",
          "type": "address"
        }
      ],
      "name": "balanceOf",
      "outputs": [
        {
          "internalType": "uint256",
          "name": "",
          "type": "uint256"
        }
      ],
      "payable": false,
      "stateMutability": "view",
      "type": "function"
    },
    {
      "constant": true,
      "inputs": [
        {
          "internalType": "address",
          "name": "account",
          "type": "address"
        }
      ],
      "name": "balanceOfBonded",
      "outputs": [
        {
          "internalType": "uint256",
          "name": "",
          "type": "uint256"
        }
      ],
      "payable": false,
      "stateMutability": "view",
      "type": "function"
    },
    {
      "constant": true,
      "inputs": [
        {
          "internalType": "address",
          "name": "account",
          "type": "address"
        },
        {
          "internalType": "uint256",
          "name": "epoch",
          "type": "uint256"
        }
      ],
      "name": "balanceOfCoupons",
      "outputs": [
        {
          "internalType": "uint256",
          "name": "",
          "type": "uint256"
        }
      ],
      "payable": false,
      "stateMutability": "view",
      "type": "function"
    },
    {
      "constant": true,
      "inputs": [
        {
          "internalType": "address",
          "name": "account",
          "type": "address"
        }
      ],
      "name": "balanceOfStaged",
      "outputs": [
        {
          "internalType": "uint256",
          "name": "",
          "type": "uint256"
        }
      ],
      "payable": false,
      "stateMutability": "view",
      "type": "function"
    },
    {
      "constant": true,
      "inputs": [
        {
          "internalType": "uint256",
          "name": "epoch",
          "type": "uint256"
        }
      ],
      "name": "bootstrappingAt",
      "outputs": [
        {
          "internalType": "bool",
          "name": "",
          "type": "bool"
        }
      ],
      "payable": false,
      "stateMutability": "view",
      "type": "function"
    },
    {
      "constant": false,
      "inputs": [
        {
          "internalType": "address",
          "name": "account",
          "type": "address"
        },
        {
          "internalType": "uint256",
          "name": "amount",
          "type": "uint256"
        }
      ],
      "name": "burnFromAccountE",
      "outputs": [],
      "payable": false,
      "stateMutability": "nonpayable",
      "type": "function"
    },
    {
      "constant": false,
      "inputs": [
        {
          "internalType": "uint256",
          "name": "amount",
          "type": "uint256"
        }
      ],
      "name": "burnRedeemableE",
      "outputs": [],
      "payable": false,
      "stateMutability": "nonpayable",
      "type": "function"
    },
    {
      "constant": true,
      "inputs": [
        {
          "internalType": "uint256",
          "name": "amount",
          "type": "uint256"
        }
      ],
      "name": "couponPremium",
      "outputs": [
        {
          "internalType": "uint256",
          "name": "",
          "type": "uint256"
        }
      ],
      "payable": false,
      "stateMutability": "view",
      "type": "function"
    },
    {
      "constant": true,
      "inputs": [
        {
          "internalType": "uint256",
          "name": "couponEpoch",
          "type": "uint256"
        },
        {
          "internalType": "uint256",
          "name": "couponAmount",
          "type": "uint256"
        }
      ],
      "name": "couponRedemptionPenalty",
      "outputs": [
        {
          "internalType": "uint256",
          "name": "",
          "type": "uint256"
        }
      ],
      "payable": false,
      "stateMutability": "view",
      "type": "function"
    },
    {
      "constant": true,
      "inputs": [
        {
          "internalType": "uint256",
          "name": "epoch",
          "type": "uint256"
        }
      ],
      "name": "couponsExpiration",
      "outputs": [
        {
          "internalType": "uint256",
          "name": "",
          "type": "uint256"
        }
      ],
      "payable": false,
      "stateMutability": "view",
      "type": "function"
    },
    {
      "constant": false,
      "inputs": [
        {
          "internalType": "address",
          "name": "candidate",
          "type": "address"
        },
        {
          "internalType": "uint256",
          "name": "period",
          "type": "uint256"
        }
      ],
      "name": "createCandidateE",
      "outputs": [],
      "payable": false,
      "stateMutability": "nonpayable",
      "type": "function"
    },
    {
      "constant": true,
      "inputs": [],
      "name": "decimals",
      "outputs": [
        {
          "internalType": "uint8",
          "name": "",
          "type": "uint8"
        }
      ],
      "payable": false,
      "stateMutability": "view",
      "type": "function"
    },
    {
      "constant": false,
      "inputs": [
        {
          "internalType": "uint256",
          "name": "amount",
          "type": "uint256"
        }
      ],
      "name": "decreaseDebtE",
      "outputs": [],
      "payable": false,
      "stateMutability": "nonpayable",
      "type": "function"
    },
    {
      "constant": false,
      "inputs": [
        {
          "internalType": "address",
          "name": "owner",
          "type": "address"
        },
        {
          "internalType": "address",
          "name": "spender",
          "type": "address"
        },
        {
          "internalType": "uint256",
          "name": "amount",
          "type": "uint256"
        },
        {
          "internalType": "string",
          "name": "reason",
          "type": "string"
        }
      ],
      "name": "decrementAllowanceCouponsE",
      "outputs": [],
      "payable": false,
      "stateMutability": "nonpayable",
      "type": "function"
    },
    {
      "constant": false,
      "inputs": [
        {
          "internalType": "address",
          "name": "candidate",
          "type": "address"
        },
        {
          "internalType": "uint256",
          "name": "amount",
          "type": "uint256"
        },
        {
          "internalType": "string",
          "name": "reason",
          "type": "string"
        }
      ],
      "name": "decrementApproveForE",
      "outputs": [],
      "payable": false,
      "stateMutability": "nonpayable",
      "type": "function"
    },
    {
      "constant": false,
      "inputs": [
        {
          "internalType": "address",
          "name": "account",
          "type": "address"
        },
        {
          "internalType": "uint256",
          "name": "epoch",
          "type": "uint256"
        },
        {
          "internalType": "uint256",
          "name": "amount",
          "type": "uint256"
        },
        {
          "internalType": "string",
          "name": "reason",
          "type": "string"
        }
      ],
      "name": "decrementBalanceOfCouponsE",
      "outputs": [],
      "payable": false,
      "stateMutability": "nonpayable",
      "type": "function"
    },
    {
      "constant": false,
      "inputs": [
        {
          "internalType": "address",
          "name": "account",
          "type": "address"
        },
        {
          "internalType": "uint256",
          "name": "amount",
          "type": "uint256"
        },
        {
          "internalType": "string",
          "name": "reason",
          "type": "string"
        }
      ],
      "name": "decrementBalanceOfE",
      "outputs": [],
      "payable": false,
      "stateMutability": "nonpayable",
      "type": "function"
    },
    {
      "constant": false,
      "inputs": [
        {
          "internalType": "address",
          "name": "account",
          "type": "address"
        },
        {
          "internalType": "uint256",
          "name": "amount",
          "type": "uint256"
        },
        {
          "internalType": "string",
          "name": "reason",
          "type": "string"
        }
      ],
      "name": "decrementBalanceOfStagedE",
      "outputs": [],
      "payable": false,
      "stateMutability": "nonpayable",
      "type": "function"
    },
    {
      "constant": false,
      "inputs": [
        {
          "internalType": "address",
          "name": "candidate",
          "type": "address"
        },
        {
          "internalType": "uint256",
          "name": "amount",
          "type": "uint256"
        },
        {
          "internalType": "string",
          "name": "reason",
          "type": "string"
        }
      ],
      "name": "decrementRejectForE",
      "outputs": [],
      "payable": false,
      "stateMutability": "nonpayable",
      "type": "function"
    },
    {
      "constant": false,
      "inputs": [
        {
          "internalType": "uint256",
          "name": "amount",
          "type": "uint256"
        },
        {
          "internalType": "string",
          "name": "reason",
          "type": "string"
        }
      ],
      "name": "decrementTotalBondedE",
      "outputs": [],
      "payable": false,
      "stateMutability": "nonpayable",
      "type": "function"
    },
    {
      "constant": false,
      "inputs": [
        {
          "internalType": "uint256",
          "name": "amount",
          "type": "uint256"
        },
        {
          "internalType": "string",
          "name": "reason",
          "type": "string"
        }
      ],
      "name": "decrementTotalDebtE",
      "outputs": [],
      "payable": false,
      "stateMutability": "nonpayable",
      "type": "function"
    },
    {
      "constant": false,
      "inputs": [
        {
          "internalType": "uint256",
          "name": "amount",
          "type": "uint256"
        },
        {
          "internalType": "string",
          "name": "reason",
          "type": "string"
        }
      ],
      "name": "decrementTotalRedeemableE",
      "outputs": [],
      "payable": false,
      "stateMutability": "nonpayable",
      "type": "function"
    },
    {
      "constant": true,
      "inputs": [],
      "name": "dollar",
      "outputs": [
        {
          "internalType": "contract IDollar",
          "name": "",
          "type": "address"
        }
      ],
      "payable": false,
      "stateMutability": "view",
      "type": "function"
    },
    {
      "constant": false,
      "inputs": [
        {
          "internalType": "uint256",
          "name": "epoch",
          "type": "uint256"
        }
      ],
      "name": "eliminateOutstandingCouponsE",
      "outputs": [],
      "payable": false,
      "stateMutability": "nonpayable",
      "type": "function"
    },
    {
      "constant": true,
      "inputs": [],
      "name": "epoch",
      "outputs": [
        {
          "internalType": "uint256",
          "name": "",
          "type": "uint256"
        }
      ],
      "payable": false,
      "stateMutability": "view",
      "type": "function"
    },
    {
      "constant": true,
      "inputs": [],
      "name": "epochTime",
      "outputs": [
        {
          "internalType": "uint256",
          "name": "",
          "type": "uint256"
        }
      ],
      "payable": false,
      "stateMutability": "view",
      "type": "function"
    },
    {
      "constant": true,
      "inputs": [
        {
          "internalType": "uint256",
          "name": "epoch",
          "type": "uint256"
        }
      ],
      "name": "expiringCoupons",
      "outputs": [
        {
          "internalType": "uint256",
          "name": "",
          "type": "uint256"
        }
      ],
      "payable": false,
      "stateMutability": "view",
      "type": "function"
    },
    {
      "constant": true,
      "inputs": [
        {
          "internalType": "uint256",
          "name": "epoch",
          "type": "uint256"
        },
        {
          "internalType": "uint256",
          "name": "i",
          "type": "uint256"
        }
      ],
      "name": "expiringCouponsAtIndex",
      "outputs": [
        {
          "internalType": "uint256",
          "name": "",
          "type": "uint256"
        }
      ],
      "payable": false,
      "stateMutability": "view",
      "type": "function"
    },
    {
      "constant": true,
      "inputs": [
        {
          "internalType": "address",
          "name": "account",
          "type": "address"
        }
      ],
      "name": "fluidUntil",
      "outputs": [
        {
          "internalType": "uint256",
          "name": "",
          "type": "uint256"
        }
      ],
      "payable": false,
      "stateMutability": "view",
      "type": "function"
    },
    {
      "constant": true,
      "inputs": [
        {
          "internalType": "uint256",
          "name": "epoch",
          "type": "uint256"
        }
      ],
      "name": "getAvgExpiryFilled",
      "outputs": [
        {
          "internalType": "uint256",
          "name": "",
          "type": "uint256"
        }
      ],
      "payable": false,
      "stateMutability": "view",
      "type": "function"
    },
    {
      "constant": true,
      "inputs": [
        {
          "internalType": "uint256",
          "name": "epoch",
          "type": "uint256"
        }
      ],
      "name": "getAvgYieldFilled",
      "outputs": [
        {
          "internalType": "uint256",
          "name": "",
          "type": "uint256"
        }
      ],
      "payable": false,
      "stateMutability": "view",
      "type": "function"
    },
    {
      "constant": true,
      "inputs": [
        {
          "internalType": "uint256",
          "name": "epoch",
          "type": "uint256"
        }
      ],
      "name": "getBidToCover",
      "outputs": [
        {
          "internalType": "uint256",
          "name": "",
          "type": "uint256"
        }
      ],
      "payable": false,
      "stateMutability": "view",
      "type": "function"
    },
    {
      "constant": true,
      "inputs": [
        {
          "internalType": "uint256",
          "name": "epoch",
          "type": "uint256"
        }
      ],
      "name": "getMaxExpiryFilled",
      "outputs": [
        {
          "internalType": "uint256",
          "name": "",
          "type": "uint256"
        }
      ],
      "payable": false,
      "stateMutability": "view",
      "type": "function"
    },
    {
      "constant": true,
      "inputs": [
        {
          "internalType": "uint256",
          "name": "epoch",
          "type": "uint256"
        }
      ],
      "name": "getMaxYieldFilled",
      "outputs": [
        {
          "internalType": "uint256",
          "name": "",
          "type": "uint256"
        }
      ],
      "payable": false,
      "stateMutability": "view",
      "type": "function"
    },
    {
      "constant": true,
      "inputs": [
        {
          "internalType": "uint256",
          "name": "epoch",
          "type": "uint256"
        }
      ],
      "name": "getMinExpiryFilled",
      "outputs": [
        {
          "internalType": "uint256",
          "name": "",
          "type": "uint256"
        }
      ],
      "payable": false,
      "stateMutability": "view",
      "type": "function"
    },
    {
      "constant": true,
      "inputs": [
        {
          "internalType": "uint256",
          "name": "epoch",
          "type": "uint256"
        }
      ],
      "name": "getMinYieldFilled",
      "outputs": [
        {
          "internalType": "uint256",
          "name": "",
          "type": "uint256"
        }
      ],
      "payable": false,
      "stateMutability": "view",
      "type": "function"
    },
    {
      "constant": true,
      "inputs": [
        {
          "internalType": "uint256",
          "name": "epoch",
          "type": "uint256"
        }
      ],
      "name": "getTotalFilled",
      "outputs": [
        {
          "internalType": "uint256",
          "name": "",
          "type": "uint256"
        }
      ],
      "payable": false,
      "stateMutability": "view",
      "type": "function"
    },
    {
      "constant": true,
      "inputs": [],
      "name": "implementation",
      "outputs": [
        {
          "internalType": "address",
          "name": "impl",
          "type": "address"
        }
      ],
      "payable": false,
      "stateMutability": "view",
      "type": "function"
    },
    {
      "constant": false,
      "inputs": [
        {
          "internalType": "uint256",
          "name": "amount",
          "type": "uint256"
        }
      ],
      "name": "increaseDebtE",
      "outputs": [],
      "payable": false,
      "stateMutability": "nonpayable",
      "type": "function"
    },
    {
      "constant": false,
      "inputs": [
        {
          "internalType": "address",
          "name": "candidate",
          "type": "address"
        },
        {
          "internalType": "uint256",
          "name": "amount",
          "type": "uint256"
        }
      ],
      "name": "incrementApproveForE",
      "outputs": [],
      "payable": false,
      "stateMutability": "nonpayable",
      "type": "function"
    },
    {
      "constant": false,
      "inputs": [
        {
          "internalType": "address",
          "name": "account",
          "type": "address"
        },
        {
          "internalType": "uint256",
          "name": "epoch",
          "type": "uint256"
        },
        {
          "internalType": "uint256",
          "name": "amount",
          "type": "uint256"
        }
      ],
      "name": "incrementBalanceOfCouponsE",
      "outputs": [],
      "payable": false,
      "stateMutability": "nonpayable",
      "type": "function"
    },
    {
      "constant": false,
      "inputs": [
        {
          "internalType": "address",
          "name": "account",
          "type": "address"
        },
        {
          "internalType": "uint256",
          "name": "amount",
          "type": "uint256"
        }
      ],
      "name": "incrementBalanceOfE",
      "outputs": [],
      "payable": false,
      "stateMutability": "nonpayable",
      "type": "function"
    },
    {
      "constant": false,
      "inputs": [
        {
          "internalType": "address",
          "name": "account",
          "type": "address"
        },
        {
          "internalType": "uint256",
          "name": "amount",
          "type": "uint256"
        }
      ],
      "name": "incrementBalanceOfStagedE",
      "outputs": [],
      "payable": false,
      "stateMutability": "nonpayable",
      "type": "function"
    },
    {
      "constant": false,
      "inputs": [],
      "name": "incrementEpochE",
      "outputs": [],
      "payable": false,
      "stateMutability": "nonpayable",
      "type": "function"
    },
    {
      "constant": false,
      "inputs": [
        {
          "internalType": "address",
          "name": "candidate",
          "type": "address"
        },
        {
          "internalType": "uint256",
          "name": "amount",
          "type": "uint256"
        }
      ],
      "name": "incrementRejectForE",
      "outputs": [],
      "payable": false,
      "stateMutability": "nonpayable",
      "type": "function"
    },
    {
      "constant": false,
      "inputs": [
        {
          "internalType": "uint256",
          "name": "amount",
          "type": "uint256"
        }
      ],
      "name": "incrementTotalBondedE",
      "outputs": [],
      "payable": false,
      "stateMutability": "nonpayable",
      "type": "function"
    },
    {
      "constant": false,
      "inputs": [
        {
          "internalType": "uint256",
          "name": "amount",
          "type": "uint256"
        }
      ],
      "name": "incrementTotalDebtE",
      "outputs": [],
      "payable": false,
      "stateMutability": "nonpayable",
      "type": "function"
    },
    {
      "constant": false,
      "inputs": [
        {
          "internalType": "uint256",
          "name": "amount",
          "type": "uint256"
        }
      ],
      "name": "incrementTotalRedeemableE",
      "outputs": [],
      "payable": false,
      "stateMutability": "nonpayable",
      "type": "function"
    },
    {
      "constant": false,
      "inputs": [
        {
          "internalType": "uint256",
          "name": "epoch",
          "type": "uint256"
        },
        {
          "internalType": "uint256",
          "name": "expiration",
          "type": "uint256"
        }
      ],
      "name": "initializeCouponsExpirationE",
      "outputs": [],
      "payable": false,
      "stateMutability": "nonpayable",
      "type": "function"
    },
    {
      "constant": false,
      "inputs": [
        {
          "internalType": "address",
          "name": "candidate",
          "type": "address"
        }
      ],
      "name": "initializedE",
      "outputs": [],
      "payable": false,
      "stateMutability": "nonpayable",
      "type": "function"
    },
    {
      "constant": false,
      "inputs": [
        {
          "internalType": "uint256",
          "name": "epoch",
          "type": "uint256"
        }
      ],
      "name": "isCouponAuctionInitAtEpochE",
      "outputs": [
        {
          "internalType": "bool",
          "name": "",
          "type": "bool"
        }
      ],
      "payable": false,
      "stateMutability": "nonpayable",
      "type": "function"
    },
    {
      "constant": true,
      "inputs": [
        {
          "internalType": "address",
          "name": "candidate",
          "type": "address"
        }
      ],
      "name": "isInitialized",
      "outputs": [
        {
          "internalType": "bool",
          "name": "",
          "type": "bool"
        }
      ],
      "payable": false,
      "stateMutability": "view",
      "type": "function"
    },
    {
      "constant": true,
      "inputs": [
        {
          "internalType": "address",
          "name": "candidate",
          "type": "address"
        }
      ],
      "name": "isNominated",
      "outputs": [
        {
          "internalType": "bool",
          "name": "",
          "type": "bool"
        }
      ],
      "payable": false,
      "stateMutability": "view",
      "type": "function"
    },
    {
      "constant": true,
      "inputs": [
        {
          "internalType": "address",
          "name": "account",
          "type": "address"
        }
      ],
      "name": "lockedUntil",
      "outputs": [
        {
          "internalType": "uint256",
          "name": "",
          "type": "uint256"
        }
      ],
      "payable": false,
      "stateMutability": "view",
      "type": "function"
    },
    {
      "constant": false,
      "inputs": [
        {
          "internalType": "address",
          "name": "account",
          "type": "address"
        },
        {
          "internalType": "uint256",
          "name": "amount",
          "type": "uint256"
        }
      ],
      "name": "mintToAccountE",
      "outputs": [],
      "payable": false,
      "stateMutability": "nonpayable",
      "type": "function"
    },
    {
      "constant": false,
      "inputs": [
        {
          "internalType": "address",
          "name": "account",
          "type": "address"
        },
        {
          "internalType": "uint256",
          "name": "amount",
          "type": "uint256"
        }
      ],
      "name": "mintToE",
      "outputs": [],
      "payable": false,
      "stateMutability": "nonpayable",
      "type": "function"
    },
    {
      "constant": true,
      "inputs": [],
      "name": "name",
      "outputs": [
        {
          "internalType": "string",
          "name": "",
          "type": "string"
        }
      ],
      "payable": false,
      "stateMutability": "view",
      "type": "function"
    },
    {
      "constant": true,
      "inputs": [],
      "name": "oracle",
      "outputs": [
        {
          "internalType": "contract IOracle",
          "name": "",
          "type": "address"
        }
      ],
      "payable": false,
      "stateMutability": "view",
      "type": "function"
    },
    {
      "constant": true,
      "inputs": [
        {
          "internalType": "uint256",
          "name": "epoch",
          "type": "uint256"
        }
      ],
      "name": "outstandingCoupons",
      "outputs": [
        {
          "internalType": "uint256",
          "name": "",
          "type": "uint256"
        }
      ],
      "payable": false,
      "stateMutability": "view",
      "type": "function"
    },
    {
      "constant": true,
      "inputs": [
        {
          "internalType": "address",
          "name": "candidate",
          "type": "address"
        }
      ],
      "name": "periodFor",
      "outputs": [
        {
          "internalType": "uint256",
          "name": "",
          "type": "uint256"
        }
      ],
      "payable": false,
      "stateMutability": "view",
      "type": "function"
    },
    {
      "constant": false,
      "inputs": [
        {
          "internalType": "uint256",
          "name": "couponEpochExpiry",
          "type": "uint256"
        },
        {
          "internalType": "uint256",
          "name": "dollarAmount",
          "type": "uint256"
        },
        {
          "internalType": "uint256",
          "name": "maxCouponAmount",
          "type": "uint256"
        }
      ],
      "name": "placeCouponAuctionBid",
      "outputs": [
        {
          "internalType": "bool",
          "name": "",
          "type": "bool"
        }
      ],
      "payable": false,
      "stateMutability": "nonpayable",
      "type": "function"
    },
    {
      "constant": false,
      "inputs": [
        {
          "internalType": "address",
          "name": "account",
          "type": "address"
        },
        {
          "internalType": "address",
          "name": "candidate",
          "type": "address"
        }
      ],
      "name": "placeLockE",
      "outputs": [],
      "payable": false,
      "stateMutability": "nonpayable",
      "type": "function"
    },
    {
      "constant": true,
      "inputs": [],
      "name": "pool",
      "outputs": [
        {
          "internalType": "address",
          "name": "",
          "type": "address"
        }
      ],
      "payable": false,
      "stateMutability": "view",
      "type": "function"
    },
    {
      "constant": false,
      "inputs": [
        {
          "internalType": "uint256",
          "name": "dollarAmount",
          "type": "uint256"
        }
      ],
      "name": "purchaseCoupons",
      "outputs": [
        {
          "internalType": "uint256",
          "name": "",
          "type": "uint256"
        }
      ],
      "payable": false,
      "stateMutability": "nonpayable",
      "type": "function"
    },
    {
      "constant": false,
      "inputs": [
        {
          "internalType": "address",
          "name": "account",
          "type": "address"
        },
        {
          "internalType": "address",
          "name": "candidate",
          "type": "address"
        },
        {
          "internalType": "enum Candidate.Vote",
          "name": "vote",
          "type": "uint8"
        }
      ],
      "name": "recordVoteE",
      "outputs": [],
      "payable": false,
      "stateMutability": "nonpayable",
      "type": "function"
    },
    {
      "constant": true,
      "inputs": [
        {
          "internalType": "address",
          "name": "account",
          "type": "address"
        },
        {
          "internalType": "address",
          "name": "candidate",
          "type": "address"
        }
      ],
      "name": "recordedVote",
      "outputs": [
        {
          "internalType": "enum Candidate.Vote",
          "name": "",
          "type": "uint8"
        }
      ],
      "payable": false,
      "stateMutability": "view",
      "type": "function"
    },
    {
      "constant": false,
      "inputs": [
        {
          "internalType": "uint256",
          "name": "couponEpoch",
          "type": "uint256"
        },
        {
          "internalType": "uint256",
          "name": "couponAmount",
          "type": "uint256"
        },
        {
          "internalType": "uint256",
          "name": "minOutput",
          "type": "uint256"
        }
      ],
      "name": "redeemCoupons",
      "outputs": [],
      "payable": false,
      "stateMutability": "nonpayable",
      "type": "function"
    },
    {
      "constant": false,
      "inputs": [
        {
          "internalType": "uint256",
          "name": "couponEpoch",
          "type": "uint256"
        },
        {
          "internalType": "uint256",
          "name": "couponAmount",
          "type": "uint256"
        }
      ],
      "name": "redeemCoupons",
      "outputs": [],
      "payable": false,
      "stateMutability": "nonpayable",
      "type": "function"
    },
    {
      "constant": false,
      "inputs": [
        {
          "internalType": "address",
          "name": "account",
          "type": "address"
        },
        {
          "internalType": "uint256",
          "name": "amount",
          "type": "uint256"
        }
      ],
      "name": "redeemToAccountE",
      "outputs": [],
      "payable": false,
      "stateMutability": "nonpayable",
      "type": "function"
    },
    {
      "constant": true,
      "inputs": [
        {
          "internalType": "address",
          "name": "candidate",
          "type": "address"
        }
      ],
      "name": "rejectFor",
      "outputs": [
        {
          "internalType": "uint256",
          "name": "",
          "type": "uint256"
        }
      ],
      "payable": false,
      "stateMutability": "view",
      "type": "function"
    },
    {
      "constant": false,
      "inputs": [
        {
          "internalType": "uint256",
          "name": "percent",
          "type": "uint256"
        }
      ],
      "name": "resetDebtE",
      "outputs": [],
      "payable": false,
      "stateMutability": "nonpayable",
      "type": "function"
    },
    {
      "constant": false,
      "inputs": [
        {
          "internalType": "uint256",
          "name": "timestamp",
          "type": "uint256"
        }
      ],
      "name": "setBlockTimestamp",
      "outputs": [],
      "payable": false,
      "stateMutability": "nonpayable",
      "type": "function"
    },
    {
      "constant": false,
      "inputs": [
        {
          "internalType": "uint256",
          "name": "start",
          "type": "uint256"
        },
        {
          "internalType": "uint256",
          "name": "period",
          "type": "uint256"
        }
      ],
      "name": "setEpochParamsE",
      "outputs": [],
      "payable": false,
      "stateMutability": "nonpayable",
      "type": "function"
    },
    {
      "constant": false,
      "inputs": [],
      "name": "snapshotTotalBondedE",
      "outputs": [],
      "payable": false,
      "stateMutability": "nonpayable",
      "type": "function"
    },
    {
      "constant": true,
      "inputs": [
        {
          "internalType": "address",
          "name": "candidate",
          "type": "address"
        }
      ],
      "name": "startFor",
      "outputs": [
        {
          "internalType": "uint256",
          "name": "",
          "type": "uint256"
        }
      ],
      "payable": false,
      "stateMutability": "view",
      "type": "function"
    },
    {
      "constant": true,
      "inputs": [
        {
          "internalType": "address",
          "name": "account",
          "type": "address"
        }
      ],
      "name": "statusOf",
      "outputs": [
        {
          "internalType": "enum Account.Status",
          "name": "",
          "type": "uint8"
        }
      ],
      "payable": false,
      "stateMutability": "view",
      "type": "function"
    },
    {
      "constant": true,
      "inputs": [],
      "name": "symbol",
      "outputs": [
        {
          "internalType": "string",
          "name": "",
          "type": "string"
        }
      ],
      "payable": false,
      "stateMutability": "view",
      "type": "function"
    },
    {
      "constant": true,
      "inputs": [],
      "name": "totalBonded",
      "outputs": [
        {
          "internalType": "uint256",
          "name": "",
          "type": "uint256"
        }
      ],
      "payable": false,
      "stateMutability": "view",
      "type": "function"
    },
    {
      "constant": true,
      "inputs": [
        {
          "internalType": "uint256",
          "name": "epoch",
          "type": "uint256"
        }
      ],
      "name": "totalBondedAt",
      "outputs": [
        {
          "internalType": "uint256",
          "name": "",
          "type": "uint256"
        }
      ],
      "payable": false,
      "stateMutability": "view",
      "type": "function"
    },
    {
      "constant": true,
      "inputs": [],
      "name": "totalCoupons",
      "outputs": [
        {
          "internalType": "uint256",
          "name": "",
          "type": "uint256"
        }
      ],
      "payable": false,
      "stateMutability": "view",
      "type": "function"
    },
    {
      "constant": true,
      "inputs": [],
      "name": "totalDebt",
      "outputs": [
        {
          "internalType": "uint256",
          "name": "",
          "type": "uint256"
        }
      ],
      "payable": false,
      "stateMutability": "view",
      "type": "function"
    },
    {
      "constant": true,
      "inputs": [],
      "name": "totalNet",
      "outputs": [
        {
          "internalType": "uint256",
          "name": "",
          "type": "uint256"
        }
      ],
      "payable": false,
      "stateMutability": "view",
      "type": "function"
    },
    {
      "constant": true,
      "inputs": [],
      "name": "totalRedeemable",
      "outputs": [
        {
          "internalType": "uint256",
          "name": "",
          "type": "uint256"
        }
      ],
      "payable": false,
      "stateMutability": "view",
      "type": "function"
    },
    {
      "constant": true,
      "inputs": [],
      "name": "totalStaged",
      "outputs": [
        {
          "internalType": "uint256",
          "name": "",
          "type": "uint256"
        }
      ],
      "payable": false,
      "stateMutability": "view",
      "type": "function"
    },
    {
      "constant": true,
      "inputs": [],
      "name": "totalSupply",
      "outputs": [
        {
          "internalType": "uint256",
          "name": "",
          "type": "uint256"
        }
      ],
      "payable": false,
      "stateMutability": "view",
      "type": "function"
    },
    {
      "constant": false,
      "inputs": [
        {
          "internalType": "address",
          "name": "recipient",
          "type": "address"
        },
        {
          "internalType": "uint256",
          "name": "amount",
          "type": "uint256"
        }
      ],
      "name": "transfer",
      "outputs": [
        {
          "internalType": "bool",
          "name": "",
          "type": "bool"
        }
      ],
      "payable": false,
      "stateMutability": "nonpayable",
      "type": "function"
    },
    {
      "constant": false,
      "inputs": [
        {
          "internalType": "address",
          "name": "sender",
          "type": "address"
        },
        {
          "internalType": "address",
          "name": "recipient",
          "type": "address"
        },
        {
          "internalType": "uint256",
          "name": "epoch",
          "type": "uint256"
        },
        {
          "internalType": "uint256",
          "name": "amount",
          "type": "uint256"
        }
      ],
      "name": "transferCoupons",
      "outputs": [],
      "payable": false,
      "stateMutability": "nonpayable",
      "type": "function"
    },
    {
      "constant": false,
      "inputs": [
        {
          "internalType": "address",
          "name": "sender",
          "type": "address"
        },
        {
          "internalType": "address",
          "name": "recipient",
          "type": "address"
        },
        {
          "internalType": "uint256",
          "name": "amount",
          "type": "uint256"
        }
      ],
      "name": "transferFrom",
      "outputs": [
        {
          "internalType": "bool",
          "name": "",
          "type": "bool"
        }
      ],
      "payable": false,
      "stateMutability": "nonpayable",
      "type": "function"
    },
    {
      "constant": false,
      "inputs": [
        {
          "internalType": "address",
          "name": "account",
          "type": "address"
        }
      ],
      "name": "unfreezeE",
      "outputs": [],
      "payable": false,
      "stateMutability": "nonpayable",
      "type": "function"
    },
    {
      "constant": false,
      "inputs": [
        {
          "internalType": "address",
          "name": "owner",
          "type": "address"
        },
        {
          "internalType": "address",
          "name": "spender",
          "type": "address"
        },
        {
          "internalType": "uint256",
          "name": "amount",
          "type": "uint256"
        }
      ],
      "name": "updateAllowanceCouponsE",
      "outputs": [],
      "payable": false,
      "stateMutability": "nonpayable",
      "type": "function"
    },
    {
      "constant": true,
      "inputs": [
        {
          "internalType": "address",
          "name": "candidate",
          "type": "address"
        }
      ],
      "name": "votesFor",
      "outputs": [
        {
          "internalType": "uint256",
          "name": "",
          "type": "uint256"
        }
      ],
      "payable": false,
      "stateMutability": "view",
      "type": "function"
    },
    {
      "constant": false,
      "inputs": [],
      "name": "stepE",
      "outputs": [],
      "payable": false,
      "stateMutability": "nonpayable",
      "type": "function"
    }
  ],
  "bytecode": "0x60806040523480156200001157600080fd5b506040516200602f3803806200602f8339810160408190526200003491620000bd565b42600f55604051819062000048906200009c565b604051809103906000f08015801562000065573d6000803e3d6000fd5b50600980546001600160a01b039283166001600160a01b031991821617909155600b80549390921692169190911790555062000112565b611c06806200442983390190565b8051620000b781620000f8565b92915050565b600060208284031215620000d057600080fd5b6000620000de8484620000aa565b949350505050565b60006001600160a01b038216620000b7565b6200010381620000e6565b81146200010f57600080fd5b50565b61430780620001226000396000f3fe608060405234801561001057600080fd5b506004361061054a5760003560e01c8063825ad607116102ca578063bc0b1df61161018d578063d6a9cf08116100f4578063e5f55c7e116100ad578063f35adf7e11610087578063f35adf7e14610bc9578063f7a3181814610bd1578063fc7b9c1814610be4578063ffbe3b7314610bec5761054a565b8063e5f55c7e14610b90578063eeaca09b14610ba3578063f1b7cf4914610bb65761054a565b8063d6a9cf0814610b23578063d6d8816d14610b36578063d83d3ed514610b49578063d8f5413814610b5c578063dd62ed3e14610b6f578063e0abdf6614610b7d5761054a565b8063c9aff70c11610146578063c9aff70c14610abc578063cb0fbc7114610acf578063cc8d823c14610ae2578063cf02377914610af5578063d53c6f5f14610afd578063d60b347f14610b105761054a565b8063bc0b1df614610a4a578063bc7513e214610a5d578063c1410c0214610a70578063c2aeb5fe14610a83578063c34eee6514610a96578063c45a3e0a14610aa95761054a565b8063a00e14d111610231578063a9b3cf15116101ea578063a9b3cf15146109d8578063adbff2be146109eb578063ae5c2381146109fe578063b11ee0e314610a11578063b16144a314610a24578063b32a2f9014610a375761054a565b8063a00e14d114610984578063a1eb31e814610997578063a50cd8e7146109aa578063a6c409f1146109bd578063a6f37b53146109c5578063a9059cbb146105825761054a565b806397a5d5b51161028357806397a5d5b51461091d5780639a649edc146109305780639b82b49b146109385780639bc289f11461094b5780639be464931461095e5780639f6e1b26146109715761054a565b8063825ad607146108c15780638413e52a146108d457806386cf9f14146108e75780638de2e573146108fa578063900cf0cf1461090d57806395d89b41146109155761054a565b80633f7bcaf3116104125780635dbf800a1161037957806371c511eb1161033257806371c511eb1461086557806372924d2a1461086d57806375d5024b146108805780637cb95a32146108935780637d8bb869146108a65780637dc0d1d0146108b95761054a565b80635dbf800a146107f35780635f14fec81461080657806364668022146108195780636a39e3281461082c5780636b862d661461083f57806370a08231146108525761054a565b80634c736099116103cb5780634c736099146107955780635053e461146107a857806351adeb57146107b057806351bf21d8146107c5578063520acb76146107d85780635c60da1b146107eb5761054a565b80633f7bcaf31461072c5780633fbba9a61461073f5780633fd4973c1461075f578063416a23cc14610772578063438735261461077a57806344d96e951461078d5761054a565b806320f6bc90116104b65780632f7f889e1161046f5780632f7f889e146106b8578063313ce567146106cb57806332347422146106e0578063353a420c146106f35780633a3e6c81146107065780633dc905c7146107195761054a565b806320f6bc901461064657806323b872dd1461065957806324772c041461066c578063259f7adf1461067f578063277805a9146106925780632d7f23b3146106a55761054a565b806315e14bf61161050857806315e14bf6146105e857806316f0115b146105fb57806318160ddd146106105780631a08e22a146106185780631edbcf6c1461062b5780631fac9732146106335761054a565b80625edd371461054f57806306fdde0314610564578063095ea7b3146105825780630dc6d3a3146105a257806310e95b6c146105b55780631550ec24146105d5575b600080fd5b61056261055d366004613b1b565b610bff565b005b61056c610d22565b6040516105799190614089565b60405180910390f35b610595610590366004613b7c565b610d59565b604051610579919061405f565b6105626105b0366004613a9d565b610d62565b6105c86105c3366004613c99565b610dab565b60405161057991906140fa565b6105956105e3366004613c99565b610dc3565b6105c86105f63660046139b5565b610dd8565b610603610df6565b604051610579919061400e565b6105c8610e05565b610562610626366004613d2b565b610e0b565b6105c8610e19565b610562610641366004613c99565b610e1f565b610562610654366004613b7c565b610e2b565b610595610667366004613a5a565b610e35565b61059561067a366004613d4a565b610e3f565b61056261068d366004613c99565b610fd0565b6105626106a0366004613b7c565b610fd9565b6105c86106b3366004613c99565b611065565b6105626106c6366004613b7c565b61107a565b6106d36110fa565b604051610579919061414b565b6105626106ee366004613cd5565b6110ff565b6105c86107013660046139b5565b61113f565b6105956107143660046139b5565b61115d565b6105c8610727366004613c99565b61117a565b61056261073a366004613a5a565b61118f565b61075261074d3660046139d3565b61119a565b604051610579919061407b565b61056261076d366004613bac565b6111cd565b610562611214565b610562610788366004613c99565b61121e565b6105c8611227565b6105c86107a3366004613d2b565b61122d565b6105c861125d565b6107b8611280565b604051610579919061406d565b6105c86107d33660046139b5565b61128f565b6105c86107e6366004613c99565b6112ad565b6106036112c2565b610562610801366004613c99565b6112e7565b610562610814366004613b7c565b6112f0565b6105c86108273660046139b5565b6112fa565b6105c861083a366004613c99565b611318565b61056261084d366004613c14565b61132d565b6105c86108603660046139b5565b611338565b610562611356565b61056261087b366004613cd5565b61135e565b61059561088e366004613c99565b61139e565b6105626108a1366004613bac565b6113b1565b6105c86108b4366004613c99565b6113f2565b6107b8611407565b6105c86108cf3660046139b5565b611416565b6105626108e2366004613a0d565b611462565b6105c86108f53660046139b5565b61146d565b610562610908366004613c99565b611488565b6105c8611491565b61056c611497565b61075261092b3660046139b5565b6114b5565b6105c861151a565b610562610946366004613cd5565b611520565b6105c86109593660046139b5565b611560565b61056261096c3660046139b5565b61157e565b6105c861097f3660046139d3565b611587565b610562610992366004613d2b565b6115b6565b6105c86109a5366004613d2b565b6115c1565b6105c86109b83660046139b5565b6116e7565b6105c86116fe565b6105626109d33660046139b5565b611794565b6105626109e6366004613c99565b61179d565b6105626109f9366004613bac565b6117a6565b610562610a0c366004613b7c565b6117e7565b610562610a1f366004613b7c565b6117f1565b610562610a32366004613c99565b6117fb565b610562610a45366004613bac565b61180e565b610562610a58366004613d4a565b61184f565b6105c8610a6b366004613b7c565b611983565b610562610a7e3660046139d3565b6119c7565b610562610a91366004613c46565b6119d1565b6105c8610aa4366004613c99565b611a13565b610562610ab7366004613b7c565b611a28565b6105c8610aca366004613c99565b611a32565b6105c8610add366004613c99565b611a47565b610562610af0366004613b7c565b611a5c565b6105c8611a66565b6105c8610b0b366004613c99565b611a6c565b610595610b1e3660046139b5565b611a82565b610562610b31366004613d2b565b611aa3565b610562610b44366004613c99565b611b9f565b610562610b57366004613b7c565b611ba8565b6105c8610b6a366004613c99565b611bb2565b6105c86105903660046139d3565b610562610b8b366004613c99565b611c3d565b6105c8610b9e366004613c99565b611c42565b6105c8610bb1366004613c99565b611d10565b6105c8610bc43660046139b5565b611d25565b610562611d40565b610562610bdf366004613b7c565b611d48565b6105c8611d52565b6105c8610bfa366004613c99565b611d58565b6001600160a01b038416610c2e5760405162461bcd60e51b8152600401610c25906140da565b60405180910390fd5b6001600160a01b038316610c545760405162461bcd60e51b8152600401610c25906140aa565b610c7884838360405180606001604052806023815260200161422c60239139611d6a565b610c83838383611e15565b336001600160a01b03851614801590610ca75750600019610ca48533611587565b14155b15610cd057610cd084338360405180606001604052806024815260200161424f60249139611ebc565b81836001600160a01b0316856001600160a01b03167f0f1dbb1ccbe57a1590c7baad7b01d581b730c9ebc535dcde4345e6db424063d884604051610d1491906140fa565b60405180910390a450505050565b60408051808201909152601881527f44796e616d69632053657420446f6c6c6172205374616b650000000000000000602082015290565b60005b92915050565b610da485858585858080601f016020809104026020016040519081016040528093929190818152602001838380828437600092019190915250611ebc92505050565b5050505050565b6000818152600d60205260409020600201545b919050565b6000610dce82611f2d565b5460ff1692915050565b6001600160a01b03166000908152600e602052604090206001015490565b600b546001600160a01b031690565b60035490565b610e158282611f41565b5050565b60065490565b610e2881611f73565b50565b610e158282611fba565b60005b9392505050565b6000610e78600085116513585c9ad95d60d21b7f4d7573742068617665206e6f6e2d7a65726f2065787069727900000000000000612062565b610eaf600084116513585c9ad95d60d21b7f4d75737420626964206e6f6e2d7a65726f20616d6f756e740000000000000000612062565b610ee6600083116513585c9ad95d60d21b7f4d75737420626964206f6e206e6f6e2d7a65726f20616d6f756e740000000000612062565b610f1683610ef2611d52565b10156513585c9ad95d60d21b6e139bdd08195b9bdd59da081919589d608a1b612062565b6000610f3085610f24611491565b9063ffffffff6120b716565b9050610f4a610f45848663ffffffff6120dc16565b61211e565b610f53846121b4565b610f5c8161224a565b610f68338286866122e0565b610f79610f7361234e565b33612375565b610f816123cf565b80336001600160a01b03167f9f5acf79fa92396b7f3cb679d46ed617794dc8709703e9111f109216820301028686604051610fbd929190614108565b60405180910390a3506001949350505050565b610e28816123f7565b610fe1611280565b6001600160a01b03166340c10f1983836040518363ffffffff1660e01b815260040161100e929190614044565b602060405180830381600087803b15801561102857600080fd5b505af115801561103c573d6000803e3d6000fd5b505050506040513d601f19601f820116820180604052506110609190810190613c7b565b505050565b6000908152600d60205260409020600a015490565b6001600160a01b0382166110a05760405162461bcd60e51b8152600401610c25906140ca565b6110ab338383612410565b816001600160a01b0316336001600160a01b03167f8ff27e6b95060c1ca851e7c2c28af8b413eb1a8bcb637b0290da9543a709cce3836040516110ee91906140fa565b60405180910390a35050565b601290565b6110608383838080601f01602080910402602001604051908101604052809392919081815260200183838082843760009201919091525061244092505050565b6001600160a01b03166000908152600e602052604090206003015490565b6001600160a01b03166000908152600e6020526040902054151590565b6000908152600d60205260409020600c015490565b611060838383612410565b6001600160a01b038082166000908152600e60209081526040808320938616835260049093019052205460ff1692915050565b61120e848484848080601f01602080910402602001604051908101604052809392919081815260200183838082843760009201919091525061245b92505050565b50505050565b61121c6124ac565b565b610e288161250b565b60045490565b6000828152600d6020526040812060030180548390811061124a57fe5b9060005260206000200154905092915050565b6000611267613901565b61126f61251f565b905061127a8161254e565b91505090565b6009546001600160a01b031690565b6001600160a01b03166000908152600c602052604090206004015490565b6000908152600d60205260409020600e015490565b7f360894a13ba1a3210667c828492db98dca3e2076cc3735a920a3ca505d382bbc5490565b610e2881612570565b610e1582826125f7565b6001600160a01b03166000908152600e602052604090206002015490565b6000908152600d602052604090206003015490565b611060838383611e15565b6001600160a01b03166000908152600c602052604090206001015490565b61121c612708565b6110608383838080601f01602080910402602001604051908101604052809392919081815260200183838082843760009201919091525061272f92505050565b60006113a861274a565b90911115919050565b61120e848484848080601f01602080910402602001604051908101604052809392919081815260200183838082843760009201919091525061274f92505050565b6000908152600d602052604090206010015490565b600a546001600160a01b031690565b600080611421610e05565b905080611432576000915050610dbe565b610e388161145661144286611338565b61144a611227565b9063ffffffff6127a016565b9063ffffffff6120dc16565b6110608383836127da565b6001600160a01b03166000908152600c602052604090205490565b610e2881612824565b60025490565b6040805180820190915260048152634453445360e01b602082015290565b60006114bf611491565b6001600160a01b0383166000908152600c602052604090206005015411156114e957506002610dbe565b6001600160a01b0382166000908152600c602052604090206004015461150d611491565b1015610d59576001610d5c565b60085490565b6110608383838080601f01602080910402602001604051908101604052809392919081815260200183838082843760009201919091525061283d92505050565b6001600160a01b03166000908152600c602052604090206005015490565b610e2881612858565b6001600160a01b039182166000908152600c602090815260408083209390941682526003909201909152205490565b600091909155600155565b6000806115cc61251f565b6040015142816115d857fe5b0690506000846115e6611491565b03905060006115f3612882565b826115fc612882565b03611605612888565b028161160d57fe5b049050808311156116245760009350505050610d5c565b61162c613922565b61167f604051806020016040528085611643612882565b03815250611673604051806020016040528061165d612882565b905261166761288e565b9063ffffffff6128b016565b9063ffffffff6128e716565b9050611689613922565b6040805160208082018352878603825282519081019092528482526116b99161167390859063ffffffff6128b016565b60408051602081019091528881529091506116da908263ffffffff6128e716565b5198975050505050505050565b6000610d5c6116f58361113f565b610f24846112fa565b600061178f61170b611d52565b611713611280565b6001600160a01b03166318160ddd6040518163ffffffff1660e01b815260040160206040518083038186803b15801561174b57600080fd5b505afa15801561175f573d6000803e3d6000fd5b505050506040513d601f19601f820116820180604052506117839190810190613cb7565b9063ffffffff61291516565b905090565b610e2881612957565b610e288161297e565b61120e848484848080601f0160208091040260200160405190810160405280939291908181526020018383808284376000920191909152506129c192505050565b610e158282612a6c565b610e158282612b08565b610e28611809826064612b64565b612b8a565b61120e848484848080601f016020809104026020016040519081016040528093929190818152602001838380828437600092019190915250612c4f92505050565b600261185d84611783611491565b101561187b5760405162461bcd60e51b8152600401610c25906140ea565b61189f33848460405180606001604052806023815260200161422c60239139611d6a565b60006118ab84846115c1565b90508083036118e7838210156513585c9ad95d60d21b7f496e73756666696369656e74206f757470757420616d6f756e74000000000000612062565b6118f13382612cae565b811561193a5784336001600160a01b03167f1cd1213d4276c260e84170b4a39025dc8398fbf744edee0709261769b456b94b8460405161193191906140fa565b60405180910390a35b84336001600160a01b03167f46e9903ae8ac9e9f0c9bc321b05965c1c036e7d4783758703f5cdfc4133c51b68360405161197491906140fa565b60405180910390a35050505050565b600061198e82611a32565b61199a57506000610d5c565b506001600160a01b03919091166000908152600c6020908152604080832093835260029093019052205490565b610e158282612d58565b610da485858585858080601f016020809104026020016040519081016040528093929190818152602001838380828437600092019190915250611d6a92505050565b6000908152600d60205260409020600f015490565b610e158282612cae565b6000908152600d602052604090206001015490565b6000908152600d602052604090206011015490565b610e158282612db8565b60055490565b6000908152600d60208190526040909120015490565b6001600160a01b03166000908152600e602052604090206005015460ff1690565b6002611ab183611783611491565b1015611acf5760405162461bcd60e51b8152600401610c25906140ea565b611af333838360405180606001604052806023815260200161422c60239139611d6a565b6000611aff83836115c1565b9050808203611b0e3382612cae565b8115611b575783336001600160a01b03167f1cd1213d4276c260e84170b4a39025dc8398fbf744edee0709261769b456b94b84604051611b4e91906140fa565b60405180910390a35b83336001600160a01b03167f46e9903ae8ac9e9f0c9bc321b05965c1c036e7d4783758703f5cdfc4133c51b683604051611b9191906140fa565b60405180910390a350505050565b610e2881612e07565b610e158282612e20565b6000610d5c611bbf611280565b6001600160a01b03166318160ddd6040518163ffffffff1660e01b815260040160206040518083038186803b158015611bf757600080fd5b505afa158015611c0b573d6000803e3d6000fd5b505050506040513d601f19601f82011682018060405250611c2f9190810190613cb7565b611c37611d52565b84612e4c565b600f55565b6000611c7b600083116513585c9ad95d60d21b7f4d757374207075726368617365206e6f6e2d7a65726f20616d6f756e74000000612062565b611c8782610ef2611d52565b6000611c91611491565b90506000611cae611ca185611bb2565b859063ffffffff6120b716565b9050611cba33856125f7565b611cc5338383611e15565b81336001600160a01b03167fbce252db29f761f815dc2e9ea60005af065efba6eb619d2a0b2a113fdeb614148684604051611d01929190614108565b60405180910390a39392505050565b6000908152600d60205260409020600b015490565b6001600160a01b03166000908152600e602052604090205490565b61121c612e74565b610e158282612e8d565b60075490565b6000908152600d602052604090205490565b6001600160a01b0384166000908152600c60209081526040808320868452600201909152902054611da290838363ffffffff612edc16565b6001600160a01b0385166000908152600c60209081526040808320878452600201825280832093909355600d90522060010154611de690838363ffffffff612edc16565b6000848152600d6020526040902060010155600854611e0c90838363ffffffff612edc16565b60085550505050565b6001600160a01b0383166000908152600c60209081526040808320858452600201909152902054611e4c908263ffffffff6120b716565b6001600160a01b0384166000908152600c60209081526040808320868452600201825280832093909355600d90522060010154611e8f908263ffffffff6120b716565b6000838152600d6020526040902060010155600854611eb4908263ffffffff6120b716565b600855505050565b6001600160a01b038085166000908152600c602090815260408083209387168352600390930190522054611ef790838363ffffffff612edc16565b6001600160a01b039485166000908152600c60209081526040808320969097168252600390950190945293909220929092555050565b6000908152600d6020526040902060040190565b6000828152600d6020908152604080832060020184905592825291812060030180546001810182559082529190200155565b611fb2816040518060400160405280601c81526020017f436f6d7074726f6c6c65723a206e6f7420656e6f75676820646562740000000081525061272f565b610e28612f08565b611fc2611280565b6001600160a01b03166340c10f1983836040518363ffffffff1660e01b8152600401611fef929190614044565b602060405180830381600087803b15801561200957600080fd5b505af115801561201d573d6000803e3d6000fd5b505050506040513d601f19601f820116820180604052506120419190810190613c7b565b5061204d61088e611491565b61205a5761205a8161250b565b610e15612f08565b826110605761207082612fdb565b6101d160f51b61207f83612fdb565b60405160200161209193929190613fdd565b60408051601f198184030181529082905262461bcd60e51b8252610c2591600401614089565b600082820183811015610e385760405162461bcd60e51b8152600401610c259061409a565b6000610e3883836040518060400160405280601a81526020017f536166654d6174683a206469766973696f6e206279207a65726f00000000000081525061305b565b600d600061212a611491565b8152602001908152602001600020600401600401548111156121685780600d6000612153611491565b81526020810191909152604001600020600801555b80600d6000612175611491565b8152602001908152602001600020600401600301541115610e285780600d600061219d611491565b815260208101919091526040016000206007015550565b600d60006121c0611491565b8152602001908152602001600020600401600f01548111156121fe5780600d60006121e9611491565b81526020810191909152604001600020601301555b600d600061220a611491565b8152602001908152602001600020600401600e0154811015610e285780600d6000612233611491565b815260208101919091526040016000206012015550565b600d6000612256611491565b8152602001908152602001600020600401600201548111156122945780600d600061227f611491565b81526020810191909152604001600020600601555b600d60006122a0611491565b815260200190815260200160002060040160010154811015610e285780600d60006122c9611491565b815260208101919091526040016000206005015550565b6000600d816122ed611491565b8152602080820192909252604090810160009081206001600160a01b03989098168082526016909801909252902060048101949094555060018301919091556002820155805462010000600160b01b03191662010000909202919091179055565b6000600d8161235b611491565b815260200190815260200160002060040160050154905090565b80600d6000612382611491565b8152602001908152602001600020600401601101600084815260200190815260200160002060006101000a8154816001600160a01b0302191690836001600160a01b031602179055505050565b600d60006123db611491565b8152602081019190915260400160002060090180546001019055565b60045461240a908263ffffffff6120b716565b60045550565b6001600160a01b039283166000908152600c60209081526040808320949095168252600390930190925291902055565b60065461245490838363ffffffff612edc16565b6006555050565b6001600160a01b0383166000908152600e602052604090206003015461248890838363ffffffff612edc16565b6001600160a01b039093166000908152600e60205260409020600301929092555050565b60005b6124ba61083a611491565b8110156124e2576124da6124d56124cf611491565b8361122d565b613092565b6001016124af565b5060006124f86124f0612882565b610f24611491565b9050610e28612505611491565b82611f41565b61251481612824565b611fb261180961313e565b612527613901565b604051806060016040528060008152602001635fbef0008152602001611c20815250905090565b6000610d5c8260000151610f2484604001516114568660200151611783613160565b612578611280565b6001600160a01b03166342966c68826040518263ffffffff1660e01b81526004016125a391906140fa565b600060405180830381600087803b1580156125bd57600080fd5b505af11580156125d1573d6000803e3d6000fd5b50505050611fb2816040518060600160405280602a815260200161429b602a9139612440565b6125ff611280565b6001600160a01b03166323b872dd8330846040518463ffffffff1660e01b815260040161262e9392919061401c565b602060405180830381600087803b15801561264857600080fd5b505af115801561265c573d6000803e3d6000fd5b505050506040513d601f19601f820116820180604052506126809190810190613c7b565b50612689611280565b6001600160a01b03166342966c68826040518263ffffffff1660e01b81526004016126b491906140fa565b600060405180830381600087803b1580156126ce57600080fd5b505af11580156126e2573d6000803e3d6000fd5b5050505061205a816040518060600160405280602881526020016142736028913961272f565b612710610e05565b600d600061271c611491565b8152602081019190915260400160002055565b60075461274390838363ffffffff612edc16565b6007555050565b609690565b6001600160a01b0383166000908152600e602052604090206002015461277c90838363ffffffff612edc16565b6001600160a01b039093166000908152600e60205260409020600201929092555050565b6000826127af57506000610d5c565b828202828482816127bc57fe5b0414610e385760405162461bcd60e51b8152600401610c25906140ba565b6001600160a01b038083166000908152600e6020908152604080832093871683526004909301905220805482919060ff1916600183600281111561281a57fe5b0217905550505050565b600754612837908263ffffffff6120b716565b60075550565b60045461285190838363ffffffff612edc16565b6004555050565b6128636124f0613166565b6001600160a01b039091166000908152600c6020526040902060040155565b61016890565b610e1090565b612896613922565b5060408051602081019091526706f05b59d3b20000815290565b6128b8613922565b60405180602001604052806128de8560000151670de0b6b3a7640000866000015161316b565b90529392505050565b6128ef613922565b60405180602001604052806128de85600001518560000151670de0b6b3a764000061316b565b6000610e3883836040518060400160405280601e81526020017f536166654d6174683a207375627472616374696f6e206f766572666c6f770000815250612edc565b6001600160a01b03166000908152600e60205260409020600501805460ff19166001179055565b600061298982611a32565b9050806129965750610e28565b6008546129a9908263ffffffff61291516565b600855506000908152600d6020526040812060010155565b6001600160a01b0383166000908152600c60205260409020600101546129ee90838363ffffffff612edc16565b6001600160a01b0384166000908152600c6020526040902060010155600354612a1e90838363ffffffff612edc16565b6003556040516000906001600160a01b038516907fddf252ad1be2c89b69c2b068fc378daa952ba7f163c4a11628f55a4df523b3ef90612a5f9086906140fa565b60405180910390a3505050565b6001600160a01b0382166000908152600c6020526040902060010154612a98908263ffffffff6120b716565b6001600160a01b0383166000908152600c6020526040902060010155600354612ac7908263ffffffff6120b716565b6003556040516001600160a01b038316906000907fddf252ad1be2c89b69c2b068fc378daa952ba7f163c4a11628f55a4df523b3ef906110ee9085906140fa565b6001600160a01b0382166000908152600c6020526040902054612b31908263ffffffff6120b716565b6001600160a01b0383166000908152600c6020526040902055600554612b5d908263ffffffff6120b716565b6005555050565b612b6c613922565b60405180602001604052806128de85670de0b6b3a76400008661316b565b6000612c1c612c17612b9a611280565b6001600160a01b03166318160ddd6040518163ffffffff1660e01b815260040160206040518083038186803b158015612bd257600080fd5b505afa158015612be6573d6000803e3d6000fd5b505050506040513d601f19601f82011682018060405250612c0a9190810190613cb7565b849063ffffffff61318116565b6131a8565b90506000612c28611d52565b905081811115611060576000612c44828463ffffffff61291516565b905061120e81611f73565b6001600160a01b0383166000908152600c6020526040902054612c7990838363ffffffff612edc16565b6001600160a01b0384166000908152600c6020526040902055600554612ca690838363ffffffff612edc16565b600555505050565b612cb6611280565b6001600160a01b031663a9059cbb83836040518363ffffffff1660e01b8152600401612ce3929190614044565b602060405180830381600087803b158015612cfd57600080fd5b505af1158015612d11573d6000803e3d6000fd5b505050506040513d601f19601f82011682018060405250612d359190810190613c7b565b5061205a816040518060600160405280602a815260200161429b602a9139612440565b6001600160a01b0382166000908152600c602052604081206005015490612d8a612d8184610dd8565b610f2485611d25565b90508181111561120e576001600160a01b0384166000908152600c6020526040902060050181905550505050565b6001600160a01b0382166000908152600e6020526040902060030154612de4908263ffffffff6120b716565b6001600160a01b039092166000908152600e602052604090206003019190915550565b600654612e1a908263ffffffff6120b716565b60065550565b612e28611491565b6001600160a01b039092166000908152600e60205260409020918255600190910155565b6000612e6c612c1783612e608787876131c5565b9063ffffffff61318116565b949350505050565b600254612e8890600163ffffffff6120b716565b600255565b6001600160a01b0382166000908152600e6020526040902060020154612eb9908263ffffffff6120b716565b6001600160a01b039092166000908152600e602052604090206002019190915550565b60008184841115612f005760405162461bcd60e51b8152600401610c259190614089565b505050900390565b61121c612f29612f16610e19565b610f24612f21611a66565b610f24611227565b612f31611280565b6001600160a01b03166370a08231306040518263ffffffff1660e01b8152600401612f5c919061400e565b60206040518083038186803b158015612f7457600080fd5b505afa158015612f88573d6000803e3d6000fd5b505050506040513d601f19601f82011682018060405250612fac9190810190613cb7565b10156a21b7b6b83a3937b63632b960a91b74496e636f6e73697374656e742062616c616e63657360581b612062565b60608082604051602001612fef9190613fc8565b60408051601f19818403018152919052905060205b80156130445781516000199091019082908290811061301f57fe5b01602001516001600160f81b0319161561303f5760010181529050610dbe565b613004565b505060408051600081526020810190915292915050565b6000818361307c5760405162461bcd60e51b8152600401610c259190614089565b50600083858161308857fe5b0495945050505050565b600061309d82611a32565b9050600080806130ac8561297e565b60006130b6610e19565b905060006130c261151a565b9050808211156130f7576130dc828263ffffffff61291516565b94506130e785612570565b6130f085613332565b9095509350505b867f753df65b37159bf237ae1fca97ba1bd57cf83bc9498f271a514a4d7bafe87bda8787878760405161312d9493929190614116565b60405180910390a250505050505050565b613146613922565b5060408051602081019091526704db732547630000815290565b600f5490565b602490565b6000612e6c82611456868663ffffffff6127a016565b613189613922565b6040805160208101909152835181906128de908563ffffffff6127a016565b8051600090610d5c90670de0b6b3a764000063ffffffff6120dc16565b6131cd613922565b6131d5613922565b6131df8486612b64565b90506131e9613922565b6131f161313e565b90506000613205878663ffffffff61291516565b90506000613219878763ffffffff61291516565b9050613223613922565b61322d8284612b64565b905061323f858563ffffffff61349e16565b1561331b57613254818563ffffffff61349e16565b1561326e57613262846134b4565b95505050505050610e38565b613276613922565b613280828661350c565b905061328a613922565b61329a868463ffffffff61356916565b90506132a4613922565b6132ad876134b4565b90506132b7613922565b6132c7898963ffffffff61356916565b905061330b6132dc848363ffffffff61359216565b6116676132ef858563ffffffff6128e716565b6132ff888863ffffffff6128e716565b9063ffffffff61359216565b9950505050505050505050610e38565b613325818661350c565b9998505050505050505050565b6000808080808080613342610e19565b9050600061334e61151a565b90508082101561340b57613368818363ffffffff61291516565b945061339061337f606461337a6135bb565b612915565b61145687606463ffffffff6127a016565b945088851161339f57846133a1565b885b94506133c060646114566133b36135bb565b889063ffffffff6127a016565b92506133d2858463ffffffff61291516565b94506133dd836135c0565b6133e685613654565b6133f6898463ffffffff61291516565b9850613408898663ffffffff61291516565b98505b6000613415611d52565b905060008a1180156134275750600081115b1561345957898111613439578061343b565b895b945061344685611f73565b6134568a8663ffffffff61291516565b99505b613461611227565b61346a57600099505b8915613479576134798a6136e5565b858561348b8c8763ffffffff6120b716565b9850985098505050505050509193909250565b60006134aa8383613785565b6002149392505050565b6134bc613922565b610d5c6134cb60016003612b64565b6134e26135046134fa60026134ee886134e26137b7565b9063ffffffff61356916565b9063ffffffff6137d916565b611673600361382f565b6116676137b7565b613514613922565b613524838363ffffffff61386316565b1561353957613532836134b4565b9050610d5c565b610e3861354860016003612b64565b6134e261350461355a876134e26137b7565b6116736134fa886134e26137b7565b613571613922565b60408051602081019091528251845182916128de919063ffffffff61291516565b61359a613922565b60408051602081019091528251845182916128de919063ffffffff6120b716565b602890565b8015610e28576135ce611280565b6001600160a01b03166340c10f196135e4610df6565b836040518363ffffffff1660e01b8152600401613602929190614044565b602060405180830381600087803b15801561361c57600080fd5b505af1158015613630573d6000803e3d6000fd5b505050506040513d601f19601f82011682018060405250610e159190810190613c7b565b61365c611280565b6001600160a01b03166340c10f1930836040518363ffffffff1660e01b8152600401613689929190614044565b602060405180830381600087803b1580156136a357600080fd5b505af11580156136b7573d6000803e3d6000fd5b505050506040513d601f19601f820116820180604052506136db9190810190613c7b565b50611fb281612e07565b61372860006136f2611227565b116a21b7b6b83a3937b63632b960a91b7f43616e74206d696e7420746f20656d70747920706f6f6c000000000000000000612062565b6000613747606461145661373a6135bb565b859063ffffffff6127a016565b90506000818311613759576000613769565b613769838363ffffffff61291516565b9050613774826135c0565b61377d8161386a565b611060612f08565b80518251600091141561379a57506001610d5c565b81518351116137aa5760006137ad565b60025b60ff169392505050565b6137bf613922565b506040805160208101909152670de0b6b3a7640000815290565b6137e1613922565b816137f057613532600161382f565b6137f8613922565b5060408051602081019091528351815260015b838110156138275761381d82866128e7565b915060010161380b565b509392505050565b613837613922565b60408051602081019091528061385b84670de0b6b3a764000063ffffffff6127a016565b905292915050565b5190511490565b8015610e2857613878611280565b6001600160a01b03166340c10f1930836040518363ffffffff1660e01b81526004016138a5929190614044565b602060405180830381600087803b1580156138bf57600080fd5b505af11580156138d3573d6000803e3d6000fd5b505050506040513d601f19601f820116820180604052506138f79190810190613c7b565b50610e28816123f7565b60405180606001604052806000815260200160008152602001600081525090565b6040518060200160405280600081525090565b8035610d5c816141f8565b8051610d5c8161420c565b8035610d5c81614215565b60008083601f84011261396857600080fd5b50813567ffffffffffffffff81111561398057600080fd5b60208301915083600182028301111561399857600080fd5b9250929050565b8035610d5c81614222565b8051610d5c81614222565b6000602082840312156139c757600080fd5b6000612e6c8484613935565b600080604083850312156139e657600080fd5b60006139f28585613935565b9250506020613a0385828601613935565b9150509250929050565b600080600060608486031215613a2257600080fd5b6000613a2e8686613935565b9350506020613a3f86828701613935565b9250506040613a508682870161394b565b9150509250925092565b600080600060608486031215613a6f57600080fd5b6000613a7b8686613935565b9350506020613a8c86828701613935565b9250506040613a508682870161399f565b600080600080600060808688031215613ab557600080fd5b6000613ac18888613935565b9550506020613ad288828901613935565b9450506040613ae38882890161399f565b935050606086013567ffffffffffffffff811115613b0057600080fd5b613b0c88828901613956565b92509250509295509295909350565b60008060008060808587031215613b3157600080fd5b6000613b3d8787613935565b9450506020613b4e87828801613935565b9350506040613b5f8782880161399f565b9250506060613b708782880161399f565b91505092959194509250565b60008060408385031215613b8f57600080fd5b6000613b9b8585613935565b9250506020613a038582860161399f565b60008060008060608587031215613bc257600080fd5b6000613bce8787613935565b9450506020613bdf8782880161399f565b935050604085013567ffffffffffffffff811115613bfc57600080fd5b613c0887828801613956565b95989497509550505050565b600080600060608486031215613c2957600080fd5b6000613c358686613935565b9350506020613a8c8682870161399f565b600080600080600060808688031215613c5e57600080fd5b6000613c6a8888613935565b9550506020613ad28882890161399f565b600060208284031215613c8d57600080fd5b6000612e6c8484613940565b600060208284031215613cab57600080fd5b6000612e6c848461399f565b600060208284031215613cc957600080fd5b6000612e6c84846139aa565b600080600060408486031215613cea57600080fd5b6000613cf6868661399f565b935050602084013567ffffffffffffffff811115613d1357600080fd5b613d1f86828701613956565b92509250509250925092565b60008060408385031215613d3e57600080fd5b6000613b9b858561399f565b600080600060608486031215613d5f57600080fd5b6000613c35868661399f565b613d7481614166565b82525050565b613d7481614171565b613d74613d8f82614176565b614183565b613d74613d8f82614183565b6000613dab82614159565b613db58185610dbe565b9350613dc58185602086016141b8565b9290920192915050565b613d74816141a2565b613d74816141ad565b6000613dec82614159565b613df6818561415d565b9350613e068185602086016141b8565b613e0f816141e4565b9093019392505050565b6000613e26601b8361415d565b7f536166654d6174683a206164646974696f6e206f766572666c6f770000000000815260200192915050565b6000613e5f602b8361415d565b7f4d61726b65743a20436f75706f6e207472616e7366657220746f20746865207a81526a65726f206164647265737360a81b602082015260400192915050565b6000613eac60218361415d565b7f536166654d6174683a206d756c7469706c69636174696f6e206f766572666c6f8152607760f81b602082015260400192915050565b6000613eef602a8361415d565b7f4d61726b65743a20436f75706f6e20617070726f766520746f20746865207a65815269726f206164647265737360b01b602082015260400192915050565b6000613f3b602d8361415d565b7f4d61726b65743a20436f75706f6e207472616e736665722066726f6d2074686581526c207a65726f206164647265737360981b602082015260400192915050565b6000613f8a601b8361415d565b7f4d61726b65743a20546f6f206561726c7920746f2072656465656d0000000000815260200192915050565b613d7481614183565b613d748161419c565b6000613fd48284613d94565b50602001919050565b6000613fe98286613da0565b9150613ff58285613d83565b6002820191506140058284613da0565b95945050505050565b60208101610d5c8284613d6b565b6060810161402a8286613d6b565b6140376020830185613d6b565b612e6c6040830184613fb6565b604081016140528285613d6b565b610e386020830184613fb6565b60208101610d5c8284613d7a565b60208101610d5c8284613dcf565b60208101610d5c8284613dd8565b60208082528101610e388184613de1565b60208082528101610d5c81613e19565b60208082528101610d5c81613e52565b60208082528101610d5c81613e9f565b60208082528101610d5c81613ee2565b60208082528101610d5c81613f2e565b60208082528101610d5c81613f7d565b60208101610d5c8284613fb6565b604081016140528285613fb6565b608081016141248287613fb6565b6141316020830186613fb6565b61413e6040830185613fb6565b6140056060830184613fb6565b60208101610d5c8284613fbf565b5190565b90815260200190565b6000610d5c82614190565b151590565b6001600160f01b03191690565b90565b80610dbe816141ee565b6001600160a01b031690565b60ff1690565b6000610d5c82614166565b6000610d5c82614186565b60005b838110156141d35781810151838201526020016141bb565b8381111561120e5750506000910152565b601f01601f191690565b60038110610e2857fe5b61420181614166565b8114610e2857600080fd5b61420181614171565b60038110610e2857600080fd5b6142018161418356fe4d61726b65743a20496e73756666696369656e7420636f75706f6e2062616c616e63654d61726b65743a20496e73756666696369656e7420636f75706f6e20617070726f76616c436f6d7074726f6c6c65723a206e6f7420656e6f756768206f75747374616e64696e672064656274436f6d7074726f6c6c65723a206e6f7420656e6f7567682072656465656d61626c652062616c616e6365a365627a7a723158202b29228e184851cdb9762269f18fa6e02401148313dd2f23eb421a3a46c7bedf6c6578706572696d656e74616cf564736f6c6343000511004060806040523480156200001157600080fd5b5060405180604001604052806012815260200171223cb730b6b4b19029b2ba102237b63630b960711b815250604051806040016040528060038152602001621114d160ea1b81525060126200007e6200006f6200011960201b60201c565b6001600160e01b036200011e16565b82516200009390600190602086019062000313565b508151620000a990600290602085019062000313565b506003805460ff191660ff9290921691909117905550620001109050620000cf62000170565b604051806040016040528060018152602001603160f81b815250620000fe6200020960201b620016341760201c565b306200020e60201b620016391760201c565b60075562000469565b335b90565b620001398160006200026560201b62000d7e1790919060201c565b6040516001600160a01b038216907f6ae172837ea30b801fbfcdd4108aa1d5bf8ff775444fd70256b44e6bf3dfc3f690600090a250565b60018054604080516020601f60026000196101008789161502019095169490940493840181900481028201810190925282815260609390929091830182828015620001ff5780601f10620001d357610100808354040283529160200191620001ff565b820191906000526020600020905b815481529060010190602001808311620001e157829003601f168201915b5050505050905090565b600190565b8351602094850120835193850193909320604080517f8b73c3c69bb8fe3d512ecc4cf759cc79239f7b179b0ffacaa9a75d522b39400f815295860194909452928401929092526060830152608082015260a0902090565b6200027a82826001600160e01b03620002c816565b15620002a35760405162461bcd60e51b81526004016200029a9062000436565b60405180910390fd5b6001600160a01b0316600090815260209190915260409020805460ff19166001179055565b60006001600160a01b038216620002f35760405162461bcd60e51b81526004016200029a906200044e565b506001600160a01b03166000908152602091909152604090205460ff1690565b828054600181600116156101000203166002900490600052602060002090601f016020900481019282601f106200035657805160ff191683800117855562000386565b8280016001018555821562000386579182015b828111156200038657825182559160200191906001019062000369565b506200039492915062000398565b5090565b6200011b91905b808211156200039457600081556001016200039f565b6000620003c4601f8362000460565b7f526f6c65733a206163636f756e7420616c72656164792068617320726f6c6500815260200192915050565b6000620003ff60228362000460565b7f526f6c65733a206163636f756e7420697320746865207a65726f206164647265815261737360f01b602082015260400192915050565b602080825281016200044881620003b5565b92915050565b602080825281016200044881620003f0565b90815260200190565b61178d80620004796000396000f3fe608060405234801561001057600080fd5b506004361061012c5760003560e01c806395d89b41116100ad578063aa271e1a11610071578063aa271e1a14610256578063d505accf14610269578063dab400f31461027c578063dd62ed3e14610284578063e879c19f146102975761012c565b806395d89b411461020d578063983b2d56146102155780639865027514610228578063a457c2d714610230578063a9059cbb146102435761012c565b806339509351116100f457806339509351146101ac57806340c10f19146101bf57806342966c68146101d257806370a08231146101e757806379cc6790146101fa5761012c565b806306fdde0314610131578063095ea7b31461014f57806318160ddd1461016f57806323b872dd14610184578063313ce56714610197575b600080fd5b61013961029f565b60405161014691906114c6565b60405180910390f35b61016261015d366004610ffc565b610334565b604051610146919061141b565b610177610352565b6040516101469190611429565b610162610192366004610f13565b610358565b61019f6103ca565b6040516101469190611587565b6101626101ba366004610ffc565b6103d3565b6101626101cd366004610ffc565b610427565b6101e56101e036600461102c565b610463565b005b6101776101f5366004610eb3565b610477565b6101e5610208366004610ffc565b610496565b6101396104a4565b6101e5610223366004610eb3565b610502565b6101e5610532565b61016261023e366004610ffc565b610544565b610162610251366004610ffc565b6105b2565b610162610264366004610eb3565b6105c6565b6101e5610277366004610f60565b6105d8565b61017761075f565b610177610292366004610ed9565b610765565b610177610790565b60018054604080516020601f6002600019610100878916150201909516949094049384018190048102820181019092528281526060939092909183018282801561032a5780601f106102ff5761010080835404028352916020019161032a565b820191906000526020600020905b81548152906001019060200180831161030d57829003601f168201915b5050505050905090565b60006103486103416107b4565b84846107b8565b5060015b92915050565b60065490565b600061036584848461086c565b600019610374856102926107b4565b146103c0576103c0846103856107b4565b6103bb856040518060600160405280602981526020016116fd602991396103ae8a6102926107b4565b919063ffffffff61098216565b6107b8565b5060019392505050565b60035460ff1690565b60006103486103e06107b4565b846103bb85600560006103f16107b4565b6001600160a01b03908116825260208083019390935260409182016000908120918c16815292529020549063ffffffff6109ae16565b60006104346102646107b4565b6104595760405162461bcd60e51b815260040161045090611517565b60405180910390fd5b61034883836109da565b61047461046e6107b4565b82610a9a565b50565b6001600160a01b0381166000908152600460205260409020545b919050565b6104a08282610b70565b5050565b60028054604080516020601f600019610100600187161502019094168590049384018190048102820181019092528281526060939092909183018282801561032a5780601f106102ff5761010080835404028352916020019161032a565b61050d6102646107b4565b6105295760405162461bcd60e51b815260040161045090611517565b61047481610beb565b61054261053d6107b4565b610c33565b565b60006103486105516107b4565b846103bb85604051806060016040528060258152602001611726602591396005600061057b6107b4565b6001600160a01b03908116825260208083019390935260409182016000908120918d1681529252902054919063ffffffff61098216565b60006103486105bf6107b4565b848461086c565b600061034c818363ffffffff610c7b16565b6007546001600160a01b03881660009081526008602090815260408083208054600181019091559051929361065a93909261063f927f6e71edae12b1b97f4d1f60370fef10105fa2faae0126114a169c64845d6126c9928e928e928e9290918e9101611437565b60405160208183030381529060405280519060200120610cc3565b90506000600182868686604051600081526020016040526040516106819493929190611491565b6020604051602081039080840390855afa1580156106a3573d6000803e3d6000fd5b5050506020604051035190506106f0896001600160a01b0316826001600160a01b0316146a5065726d69747461626c6560a81b70496e76616c6964207369676e617475726560781b610ce2565b6107236001600160a01b03821615156a5065726d69747461626c6560a81b6b5a65726f206164647265737360a01b610ce2565b610749864211156a5065726d69747461626c6560a81b66115e1c1a5c995960ca1b610ce2565b6107548989896107b8565b505050505050505050565b60075481565b6001600160a01b03918216600090815260056020908152604080832093909416825291909152205490565b7f6e71edae12b1b97f4d1f60370fef10105fa2faae0126114a169c64845d6126c981565b3390565b6001600160a01b0383166107de5760405162461bcd60e51b815260040161045090611567565b6001600160a01b0382166108045760405162461bcd60e51b8152600401610450906114f7565b6001600160a01b0380841660008181526005602090815260408083209487168084529490915290819020849055517f8c5be1e5ebec7d5bd14f71427d1e84f3dd0314c0f7b2291e5b200ac8c7c3b9259061085f908590611429565b60405180910390a3505050565b6001600160a01b0383166108925760405162461bcd60e51b815260040161045090611557565b6001600160a01b0382166108b85760405162461bcd60e51b8152600401610450906114d7565b6108fb816040518060600160405280602681526020016116b3602691396001600160a01b038616600090815260046020526040902054919063ffffffff61098216565b6001600160a01b038085166000908152600460205260408082209390935590841681522054610930908263ffffffff6109ae16565b6001600160a01b0380841660008181526004602052604090819020939093559151908516907fddf252ad1be2c89b69c2b068fc378daa952ba7f163c4a11628f55a4df523b3ef9061085f908590611429565b600081848411156109a65760405162461bcd60e51b815260040161045091906114c6565b505050900390565b6000828201838110156109d35760405162461bcd60e51b815260040161045090611507565b9392505050565b6001600160a01b038216610a005760405162461bcd60e51b815260040161045090611577565b600654610a13908263ffffffff6109ae16565b6006556001600160a01b038216600090815260046020526040902054610a3f908263ffffffff6109ae16565b6001600160a01b0383166000818152600460205260408082209390935591519091907fddf252ad1be2c89b69c2b068fc378daa952ba7f163c4a11628f55a4df523b3ef90610a8e908590611429565b60405180910390a35050565b6001600160a01b038216610ac05760405162461bcd60e51b815260040161045090611547565b610b0381604051806060016040528060228152602001611691602291396001600160a01b038516600090815260046020526040902054919063ffffffff61098216565b6001600160a01b038316600090815260046020526040902055600654610b2f908263ffffffff610d3c16565b6006556040516000906001600160a01b038416907fddf252ad1be2c89b69c2b068fc378daa952ba7f163c4a11628f55a4df523b3ef90610a8e908590611429565b610b7a8282610a9a565b6104a082610b866107b4565b6103bb846040518060600160405280602481526020016116d9602491396001600160a01b038816600090815260056020526040812090610bc46107b4565b6001600160a01b03168152602081019190915260400160002054919063ffffffff61098216565b610bfc60008263ffffffff610d7e16565b6040516001600160a01b038216907f6ae172837ea30b801fbfcdd4108aa1d5bf8ff775444fd70256b44e6bf3dfc3f690600090a250565b610c4460008263ffffffff610dca16565b6040516001600160a01b038216907fe94479a9f7e1952cc78f2d6baab678adc1b772d936c6583def489e524cb6669290600090a250565b60006001600160a01b038216610ca35760405162461bcd60e51b815260040161045090611537565b506001600160a01b03166000908152602091909152604090205460ff1690565b60405161190160f01b8152600281019290925260228201526042902090565b82610d3757610cf082610e12565b6101d160f51b610cff83610e12565b604051602001610d11939291906113ea565b60408051601f198184030181529082905262461bcd60e51b8252610450916004016114c6565b505050565b60006109d383836040518060400160405280601e81526020017f536166654d6174683a207375627472616374696f6e206f766572666c6f770000815250610982565b610d888282610c7b565b15610da55760405162461bcd60e51b8152600401610450906114e7565b6001600160a01b0316600090815260209190915260409020805460ff19166001179055565b610dd48282610c7b565b610df05760405162461bcd60e51b815260040161045090611527565b6001600160a01b0316600090815260209190915260409020805460ff19169055565b60608082604051602001610e2691906113d5565b60408051601f19818403018152919052905060205b8015610e7b57815160001990910190829082908110610e5657fe5b01602001516001600160f81b03191615610e765760010181529050610491565b610e3b565b505060408051600081526020810190915292915050565b803561034c8161160e565b803561034c81611622565b803561034c8161162b565b600060208284031215610ec557600080fd5b6000610ed18484610e92565b949350505050565b60008060408385031215610eec57600080fd5b6000610ef88585610e92565b9250506020610f0985828601610e92565b9150509250929050565b600080600060608486031215610f2857600080fd5b6000610f348686610e92565b9350506020610f4586828701610e92565b9250506040610f5686828701610e9d565b9150509250925092565b600080600080600080600060e0888a031215610f7b57600080fd5b6000610f878a8a610e92565b9750506020610f988a828b01610e92565b9650506040610fa98a828b01610e9d565b9550506060610fba8a828b01610e9d565b9450506080610fcb8a828b01610ea8565b93505060a0610fdc8a828b01610e9d565b92505060c0610fed8a828b01610e9d565b91505092959891949750929550565b6000806040838503121561100f57600080fd5b600061101b8585610e92565b9250506020610f0985828601610e9d565b60006020828403121561103e57600080fd5b6000610ed18484610e9d565b611053816115a2565b82525050565b611053816115ad565b61105361106e826115b2565b6115bf565b611053816115bf565b61105361106e826115bf565b600061109382611595565b61109d8185610491565b93506110ad8185602086016115d4565b9290920192915050565b60006110c282611595565b6110cc8185611599565b93506110dc8185602086016115d4565b6110e581611604565b9093019392505050565b60006110fc602383611599565b7f45524332303a207472616e7366657220746f20746865207a65726f206164647281526265737360e81b602082015260400192915050565b6000611141601f83611599565b7f526f6c65733a206163636f756e7420616c72656164792068617320726f6c6500815260200192915050565b600061117a602283611599565b7f45524332303a20617070726f766520746f20746865207a65726f206164647265815261737360f01b602082015260400192915050565b60006111be601b83611599565b7f536166654d6174683a206164646974696f6e206f766572666c6f770000000000815260200192915050565b60006111f7603083611599565b7f4d696e746572526f6c653a2063616c6c657220646f6573206e6f74206861766581526f20746865204d696e74657220726f6c6560801b602082015260400192915050565b6000611249602183611599565b7f526f6c65733a206163636f756e7420646f6573206e6f74206861766520726f6c8152606560f81b602082015260400192915050565b600061128c602283611599565b7f526f6c65733a206163636f756e7420697320746865207a65726f206164647265815261737360f01b602082015260400192915050565b60006112d0602183611599565b7f45524332303a206275726e2066726f6d20746865207a65726f206164647265738152607360f81b602082015260400192915050565b6000611313602583611599565b7f45524332303a207472616e736665722066726f6d20746865207a65726f206164815264647265737360d81b602082015260400192915050565b600061135a602483611599565b7f45524332303a20617070726f76652066726f6d20746865207a65726f206164648152637265737360e01b602082015260400192915050565b60006113a0601f83611599565b7f45524332303a206d696e7420746f20746865207a65726f206164647265737300815260200192915050565b611053816115ce565b60006113e1828461107c565b50602001919050565b60006113f68286611088565b91506114028285611062565b6002820191506114128284611088565b95945050505050565b6020810161034c8284611059565b6020810161034c8284611073565b60c081016114458289611073565b611452602083018861104a565b61145f604083018761104a565b61146c6060830186611073565b6114796080830185611073565b61148660a0830184611073565b979650505050505050565b6080810161149f8287611073565b6114ac60208301866113cc565b6114b96040830185611073565b6114126060830184611073565b602080825281016109d381846110b7565b6020808252810161034c816110ef565b6020808252810161034c81611134565b6020808252810161034c8161116d565b6020808252810161034c816111b1565b6020808252810161034c816111ea565b6020808252810161034c8161123c565b6020808252810161034c8161127f565b6020808252810161034c816112c3565b6020808252810161034c81611306565b6020808252810161034c8161134d565b6020808252810161034c81611393565b6020810161034c82846113cc565b5190565b90815260200190565b600061034c826115c2565b151590565b6001600160f01b03191690565b90565b6001600160a01b031690565b60ff1690565b60005b838110156115ef5781810151838201526020016115d7565b838111156115fe576000848401525b50505050565b601f01601f191690565b611617816115a2565b811461047457600080fd5b611617816115bf565b611617816115ce565b600190565b8351602094850120835193850193909320604080517f8b73c3c69bb8fe3d512ecc4cf759cc79239f7b179b0ffacaa9a75d522b39400f815295860194909452928401929092526060830152608082015260a090209056fe45524332303a206275726e20616d6f756e7420657863656564732062616c616e636545524332303a207472616e7366657220616d6f756e7420657863656564732062616c616e636545524332303a206275726e20616d6f756e74206578636565647320616c6c6f77616e6365446f6c6c61723a207472616e7366657220616d6f756e74206578636565647320616c6c6f77616e636545524332303a2064656372656173656420616c6c6f77616e63652062656c6f77207a65726fa365627a7a7231582021717f4bb76e445345cb7f360c6be702a59b3219eb6cebef899d276f27b2e4bb6c6578706572696d656e74616cf564736f6c63430005110040",
  "source": "/*\n    Copyright 2020 Dynamic Dollar Devs, based on the works of the Empty Set Squad\n\n    Licensed under the Apache License, Version 2.0 (the \"License\");\n    you may not use this file except in compliance with the License.\n    You may obtain a copy of the License at\n\n    http://www.apache.org/licenses/LICENSE-2.0\n\n    Unless required by applicable law or agreed to in writing, software\n    distributed under the License is distributed on an \"AS IS\" BASIS,\n    WITHOUT WARRANTIES OR CONDITIONS OF ANY KIND, either express or implied.\n    See the License for the specific language governing permissions and\n    limitations under the License.\n*/\n\npragma solidity ^0.5.17;\npragma experimental ABIEncoderV2;\n\nimport \"../dao/Market.sol\";\nimport \"./MockState.sol\";\nimport \"./MockComptroller.sol\";\n\ncontract MockMarket is MockState, MockComptroller, Market {\n    constructor(address pool) MockComptroller(pool) public { }\n\n    function stepE() external {\n        Market.step();\n    }\n}\n",
  "sourcePath": "/Users/cinquemb/Documents/Startups/crypto/dollar/protocol/contracts/mock/MockMarket.sol",
  "compiler": {
    "name": "solc",
    "version": "0.5.17+commit.d19bba13.Emscripten.clang"
  },
  "schemaVersion": "3.3.3",
  "updatedAt": "2021-01-12T08:04:49.739Z",
  "devdoc": {
    "methods": {}
  },
  "userdoc": {
    "methods": {
      "balanceOfStaged(address)": {
        "notice": "Account"
      },
      "createCandidateE(address,uint256)": {
        "notice": "Governance"
      },
      "dollar()": {
        "notice": "Global"
      },
      "epoch()": {
        "notice": "Epoch"
      },
      "incrementBalanceOfE(address,uint256)": {
        "notice": "Account"
      },
      "incrementTotalBondedE(uint256)": {
        "notice": "Global"
      },
      "name()": {
        "notice": "ERC20 Interface"
      },
      "recordedVote(address,address)": {
        "notice": "Governance"
      },
      "setBlockTimestamp(uint256)": {
        "notice": "Mock"
      },
      "setEpochParamsE(uint256,uint256)": {
        "notice": "Epoch"
      },
      "transfer(address,uint256)": {
        "notice": "ERC20 Interface"
      }
    }
  }
}