{
  "contractName": "MockState",
  "abi": [
    {
      "inputs": [],
      "payable": false,
      "stateMutability": "nonpayable",
      "type": "constructor"
    },
    {
      "anonymous": false,
      "inputs": [
        {
          "indexed": true,
          "internalType": "address",
          "name": "from",
          "type": "address"
        },
        {
          "indexed": true,
          "internalType": "address",
          "name": "to",
          "type": "address"
        },
        {
          "indexed": false,
          "internalType": "uint256",
          "name": "value",
          "type": "uint256"
        }
      ],
      "name": "Transfer",
      "type": "event"
    },
    {
      "constant": true,
      "inputs": [
        {
          "internalType": "address",
          "name": "owner",
          "type": "address"
        },
        {
          "internalType": "address",
          "name": "spender",
          "type": "address"
        }
      ],
      "name": "allowance",
      "outputs": [
        {
          "internalType": "uint256",
          "name": "",
          "type": "uint256"
        }
      ],
      "payable": false,
      "stateMutability": "view",
      "type": "function"
    },
    {
      "constant": true,
      "inputs": [
        {
          "internalType": "address",
          "name": "owner",
          "type": "address"
        },
        {
          "internalType": "address",
          "name": "spender",
          "type": "address"
        }
      ],
      "name": "allowanceCoupons",
      "outputs": [
        {
          "internalType": "uint256",
          "name": "",
          "type": "uint256"
        }
      ],
      "payable": false,
      "stateMutability": "view",
      "type": "function"
    },
    {
      "constant": false,
      "inputs": [
        {
          "internalType": "address",
          "name": "spender",
          "type": "address"
        },
        {
          "internalType": "uint256",
          "name": "amount",
          "type": "uint256"
        }
      ],
      "name": "approve",
      "outputs": [
        {
          "internalType": "bool",
          "name": "",
          "type": "bool"
        }
      ],
      "payable": false,
      "stateMutability": "nonpayable",
      "type": "function"
    },
    {
      "constant": true,
      "inputs": [
        {
          "internalType": "address",
          "name": "candidate",
          "type": "address"
        }
      ],
      "name": "approveFor",
      "outputs": [
        {
          "internalType": "uint256",
          "name": "",
          "type": "uint256"
        }
      ],
      "payable": false,
      "stateMutability": "view",
      "type": "function"
    },
    {
      "constant": true,
      "inputs": [
        {
          "internalType": "address",
          "name": "account",
          "type": "address"
        }
      ],
      "name": "balanceOf",
      "outputs": [
        {
          "internalType": "uint256",
          "name": "",
          "type": "uint256"
        }
      ],
      "payable": false,
      "stateMutability": "view",
      "type": "function"
    },
    {
      "constant": true,
      "inputs": [
        {
          "internalType": "address",
          "name": "account",
          "type": "address"
        }
      ],
      "name": "balanceOfBonded",
      "outputs": [
        {
          "internalType": "uint256",
          "name": "",
          "type": "uint256"
        }
      ],
      "payable": false,
      "stateMutability": "view",
      "type": "function"
    },
    {
      "constant": true,
      "inputs": [
        {
          "internalType": "address",
          "name": "account",
          "type": "address"
        },
        {
          "internalType": "uint256",
          "name": "epoch",
          "type": "uint256"
        }
      ],
      "name": "balanceOfCoupons",
      "outputs": [
        {
          "internalType": "uint256",
          "name": "",
          "type": "uint256"
        }
      ],
      "payable": false,
      "stateMutability": "view",
      "type": "function"
    },
    {
      "constant": true,
      "inputs": [
        {
          "internalType": "address",
          "name": "account",
          "type": "address"
        }
      ],
      "name": "balanceOfStaged",
      "outputs": [
        {
          "internalType": "uint256",
          "name": "",
          "type": "uint256"
        }
      ],
      "payable": false,
      "stateMutability": "view",
      "type": "function"
    },
    {
      "constant": true,
      "inputs": [
        {
          "internalType": "uint256",
          "name": "epoch",
          "type": "uint256"
        }
      ],
      "name": "bootstrappingAt",
      "outputs": [
        {
          "internalType": "bool",
          "name": "",
          "type": "bool"
        }
      ],
      "payable": false,
      "stateMutability": "view",
      "type": "function"
    },
    {
      "constant": true,
      "inputs": [
        {
          "internalType": "uint256",
          "name": "epoch",
          "type": "uint256"
        }
      ],
      "name": "couponsExpiration",
      "outputs": [
        {
          "internalType": "uint256",
          "name": "",
          "type": "uint256"
        }
      ],
      "payable": false,
      "stateMutability": "view",
      "type": "function"
    },
    {
      "constant": true,
      "inputs": [],
      "name": "decimals",
      "outputs": [
        {
          "internalType": "uint8",
          "name": "",
          "type": "uint8"
        }
      ],
      "payable": false,
      "stateMutability": "view",
      "type": "function"
    },
    {
      "constant": true,
      "inputs": [],
      "name": "dollar",
      "outputs": [
        {
          "internalType": "contract IDollar",
          "name": "",
          "type": "address"
        }
      ],
      "payable": false,
      "stateMutability": "view",
      "type": "function"
    },
    {
      "constant": true,
      "inputs": [],
      "name": "epoch",
      "outputs": [
        {
          "internalType": "uint256",
          "name": "",
          "type": "uint256"
        }
      ],
      "payable": false,
      "stateMutability": "view",
      "type": "function"
    },
    {
      "constant": true,
      "inputs": [],
      "name": "epochTime",
      "outputs": [
        {
          "internalType": "uint256",
          "name": "",
          "type": "uint256"
        }
      ],
      "payable": false,
      "stateMutability": "view",
      "type": "function"
    },
    {
      "constant": true,
      "inputs": [
        {
          "internalType": "uint256",
          "name": "epoch",
          "type": "uint256"
        }
      ],
      "name": "expiringCoupons",
      "outputs": [
        {
          "internalType": "uint256",
          "name": "",
          "type": "uint256"
        }
      ],
      "payable": false,
      "stateMutability": "view",
      "type": "function"
    },
    {
      "constant": true,
      "inputs": [
        {
          "internalType": "uint256",
          "name": "epoch",
          "type": "uint256"
        },
        {
          "internalType": "uint256",
          "name": "i",
          "type": "uint256"
        }
      ],
      "name": "expiringCouponsAtIndex",
      "outputs": [
        {
          "internalType": "uint256",
          "name": "",
          "type": "uint256"
        }
      ],
      "payable": false,
      "stateMutability": "view",
      "type": "function"
    },
    {
      "constant": true,
      "inputs": [
        {
          "internalType": "address",
          "name": "account",
          "type": "address"
        }
      ],
      "name": "fluidUntil",
      "outputs": [
        {
          "internalType": "uint256",
          "name": "",
          "type": "uint256"
        }
      ],
      "payable": false,
      "stateMutability": "view",
      "type": "function"
    },
    {
      "constant": true,
      "inputs": [
        {
          "internalType": "uint256",
          "name": "epoch",
          "type": "uint256"
        }
      ],
      "name": "getAvgExpiryFilled",
      "outputs": [
        {
          "internalType": "uint256",
          "name": "",
          "type": "uint256"
        }
      ],
      "payable": false,
      "stateMutability": "view",
      "type": "function"
    },
    {
      "constant": true,
      "inputs": [
        {
          "internalType": "uint256",
          "name": "epoch",
          "type": "uint256"
        }
      ],
      "name": "getAvgYieldFilled",
      "outputs": [
        {
          "internalType": "uint256",
          "name": "",
          "type": "uint256"
        }
      ],
      "payable": false,
      "stateMutability": "view",
      "type": "function"
    },
    {
      "constant": true,
      "inputs": [
        {
          "internalType": "uint256",
          "name": "epoch",
          "type": "uint256"
        }
      ],
      "name": "getBidToCover",
      "outputs": [
        {
          "internalType": "uint256",
          "name": "",
          "type": "uint256"
        }
      ],
      "payable": false,
      "stateMutability": "view",
      "type": "function"
    },
    {
      "constant": true,
      "inputs": [],
      "name": "getLatestDeadAuctionEpoch",
      "outputs": [
        {
          "internalType": "uint256",
          "name": "",
          "type": "uint256"
        }
      ],
      "payable": false,
      "stateMutability": "view",
      "type": "function"
    },
    {
      "constant": true,
      "inputs": [
        {
          "internalType": "uint256",
          "name": "epoch",
          "type": "uint256"
        }
      ],
      "name": "getMaxExpiryFilled",
      "outputs": [
        {
          "internalType": "uint256",
          "name": "",
          "type": "uint256"
        }
      ],
      "payable": false,
      "stateMutability": "view",
      "type": "function"
    },
    {
      "constant": true,
      "inputs": [
        {
          "internalType": "uint256",
          "name": "epoch",
          "type": "uint256"
        }
      ],
      "name": "getMaxYieldFilled",
      "outputs": [
        {
          "internalType": "uint256",
          "name": "",
          "type": "uint256"
        }
      ],
      "payable": false,
      "stateMutability": "view",
      "type": "function"
    },
    {
      "constant": true,
      "inputs": [
        {
          "internalType": "uint256",
          "name": "epoch",
          "type": "uint256"
        }
      ],
      "name": "getMinExpiryFilled",
      "outputs": [
        {
          "internalType": "uint256",
          "name": "",
          "type": "uint256"
        }
      ],
      "payable": false,
      "stateMutability": "view",
      "type": "function"
    },
    {
      "constant": true,
      "inputs": [
        {
          "internalType": "uint256",
          "name": "epoch",
          "type": "uint256"
        }
      ],
      "name": "getMinYieldFilled",
      "outputs": [
        {
          "internalType": "uint256",
          "name": "",
          "type": "uint256"
        }
      ],
      "payable": false,
      "stateMutability": "view",
      "type": "function"
    },
    {
      "constant": true,
      "inputs": [
        {
          "internalType": "uint256",
          "name": "epoch",
          "type": "uint256"
        }
      ],
      "name": "getTotalAuctioned",
      "outputs": [
        {
          "internalType": "uint256",
          "name": "",
          "type": "uint256"
        }
      ],
      "payable": false,
      "stateMutability": "view",
      "type": "function"
    },
    {
      "constant": true,
      "inputs": [
        {
          "internalType": "uint256",
          "name": "epoch",
          "type": "uint256"
        }
      ],
      "name": "getTotalBurned",
      "outputs": [
        {
          "internalType": "uint256",
          "name": "",
          "type": "uint256"
        }
      ],
      "payable": false,
      "stateMutability": "view",
      "type": "function"
    },
    {
      "constant": true,
      "inputs": [
        {
          "internalType": "uint256",
          "name": "epoch",
          "type": "uint256"
        }
      ],
      "name": "getTotalFilled",
      "outputs": [
        {
          "internalType": "uint256",
          "name": "",
          "type": "uint256"
        }
      ],
      "payable": false,
      "stateMutability": "view",
      "type": "function"
    },
    {
      "constant": true,
      "inputs": [],
      "name": "implementation",
      "outputs": [
        {
          "internalType": "address",
          "name": "impl",
          "type": "address"
        }
      ],
      "payable": false,
      "stateMutability": "view",
      "type": "function"
    },
    {
      "constant": true,
      "inputs": [
        {
          "internalType": "address",
          "name": "candidate",
          "type": "address"
        }
      ],
      "name": "isInitialized",
      "outputs": [
        {
          "internalType": "bool",
          "name": "",
          "type": "bool"
        }
      ],
      "payable": false,
      "stateMutability": "view",
      "type": "function"
    },
    {
      "constant": true,
      "inputs": [
        {
          "internalType": "address",
          "name": "candidate",
          "type": "address"
        }
      ],
      "name": "isNominated",
      "outputs": [
        {
          "internalType": "bool",
          "name": "",
          "type": "bool"
        }
      ],
      "payable": false,
      "stateMutability": "view",
      "type": "function"
    },
    {
      "constant": true,
      "inputs": [
        {
          "internalType": "address",
          "name": "account",
          "type": "address"
        }
      ],
      "name": "lockedUntil",
      "outputs": [
        {
          "internalType": "uint256",
          "name": "",
          "type": "uint256"
        }
      ],
      "payable": false,
      "stateMutability": "view",
      "type": "function"
    },
    {
      "constant": true,
      "inputs": [],
      "name": "name",
      "outputs": [
        {
          "internalType": "string",
          "name": "",
          "type": "string"
        }
      ],
      "payable": false,
      "stateMutability": "view",
      "type": "function"
    },
    {
      "constant": true,
      "inputs": [],
      "name": "oracle",
      "outputs": [
        {
          "internalType": "contract IOracle",
          "name": "",
          "type": "address"
        }
      ],
      "payable": false,
      "stateMutability": "view",
      "type": "function"
    },
    {
      "constant": true,
      "inputs": [
        {
          "internalType": "uint256",
          "name": "epoch",
          "type": "uint256"
        }
      ],
      "name": "outstandingCoupons",
      "outputs": [
        {
          "internalType": "uint256",
          "name": "",
          "type": "uint256"
        }
      ],
      "payable": false,
      "stateMutability": "view",
      "type": "function"
    },
    {
      "constant": true,
      "inputs": [
        {
          "internalType": "address",
          "name": "candidate",
          "type": "address"
        }
      ],
      "name": "periodFor",
      "outputs": [
        {
          "internalType": "uint256",
          "name": "",
          "type": "uint256"
        }
      ],
      "payable": false,
      "stateMutability": "view",
      "type": "function"
    },
    {
      "constant": true,
      "inputs": [],
      "name": "pool",
      "outputs": [
        {
          "internalType": "address",
          "name": "",
          "type": "address"
        }
      ],
      "payable": false,
      "stateMutability": "view",
      "type": "function"
    },
    {
      "constant": true,
      "inputs": [
        {
          "internalType": "address",
          "name": "account",
          "type": "address"
        },
        {
          "internalType": "address",
          "name": "candidate",
          "type": "address"
        }
      ],
      "name": "recordedVote",
      "outputs": [
        {
          "internalType": "enum Candidate.Vote",
          "name": "",
          "type": "uint8"
        }
      ],
      "payable": false,
      "stateMutability": "view",
      "type": "function"
    },
    {
      "constant": true,
      "inputs": [
        {
          "internalType": "address",
          "name": "candidate",
          "type": "address"
        }
      ],
      "name": "rejectFor",
      "outputs": [
        {
          "internalType": "uint256",
          "name": "",
          "type": "uint256"
        }
      ],
      "payable": false,
      "stateMutability": "view",
      "type": "function"
    },
    {
      "constant": true,
      "inputs": [
        {
          "internalType": "address",
          "name": "candidate",
          "type": "address"
        }
      ],
      "name": "startFor",
      "outputs": [
        {
          "internalType": "uint256",
          "name": "",
          "type": "uint256"
        }
      ],
      "payable": false,
      "stateMutability": "view",
      "type": "function"
    },
    {
      "constant": true,
      "inputs": [
        {
          "internalType": "address",
          "name": "account",
          "type": "address"
        }
      ],
      "name": "statusOf",
      "outputs": [
        {
          "internalType": "enum Account.Status",
          "name": "",
          "type": "uint8"
        }
      ],
      "payable": false,
      "stateMutability": "view",
      "type": "function"
    },
    {
      "constant": true,
      "inputs": [],
      "name": "symbol",
      "outputs": [
        {
          "internalType": "string",
          "name": "",
          "type": "string"
        }
      ],
      "payable": false,
      "stateMutability": "view",
      "type": "function"
    },
    {
      "constant": true,
      "inputs": [],
      "name": "totalBonded",
      "outputs": [
        {
          "internalType": "uint256",
          "name": "",
          "type": "uint256"
        }
      ],
      "payable": false,
      "stateMutability": "view",
      "type": "function"
    },
    {
      "constant": true,
      "inputs": [
        {
          "internalType": "uint256",
          "name": "epoch",
          "type": "uint256"
        }
      ],
      "name": "totalBondedAt",
      "outputs": [
        {
          "internalType": "uint256",
          "name": "",
          "type": "uint256"
        }
      ],
      "payable": false,
      "stateMutability": "view",
      "type": "function"
    },
    {
      "constant": true,
      "inputs": [],
      "name": "totalCoupons",
      "outputs": [
        {
          "internalType": "uint256",
          "name": "",
          "type": "uint256"
        }
      ],
      "payable": false,
      "stateMutability": "view",
      "type": "function"
    },
    {
      "constant": true,
      "inputs": [],
      "name": "totalDebt",
      "outputs": [
        {
          "internalType": "uint256",
          "name": "",
          "type": "uint256"
        }
      ],
      "payable": false,
      "stateMutability": "view",
      "type": "function"
    },
    {
      "constant": true,
      "inputs": [],
      "name": "totalNet",
      "outputs": [
        {
          "internalType": "uint256",
          "name": "",
          "type": "uint256"
        }
      ],
      "payable": false,
      "stateMutability": "view",
      "type": "function"
    },
    {
      "constant": true,
      "inputs": [],
      "name": "totalRedeemable",
      "outputs": [
        {
          "internalType": "uint256",
          "name": "",
          "type": "uint256"
        }
      ],
      "payable": false,
      "stateMutability": "view",
      "type": "function"
    },
    {
      "constant": true,
      "inputs": [],
      "name": "totalStaged",
      "outputs": [
        {
          "internalType": "uint256",
          "name": "",
          "type": "uint256"
        }
      ],
      "payable": false,
      "stateMutability": "view",
      "type": "function"
    },
    {
      "constant": true,
      "inputs": [],
      "name": "totalSupply",
      "outputs": [
        {
          "internalType": "uint256",
          "name": "",
          "type": "uint256"
        }
      ],
      "payable": false,
      "stateMutability": "view",
      "type": "function"
    },
    {
      "constant": false,
      "inputs": [
        {
          "internalType": "address",
          "name": "recipient",
          "type": "address"
        },
        {
          "internalType": "uint256",
          "name": "amount",
          "type": "uint256"
        }
      ],
      "name": "transfer",
      "outputs": [
        {
          "internalType": "bool",
          "name": "",
          "type": "bool"
        }
      ],
      "payable": false,
      "stateMutability": "nonpayable",
      "type": "function"
    },
    {
      "constant": false,
      "inputs": [
        {
          "internalType": "address",
          "name": "sender",
          "type": "address"
        },
        {
          "internalType": "address",
          "name": "recipient",
          "type": "address"
        },
        {
          "internalType": "uint256",
          "name": "amount",
          "type": "uint256"
        }
      ],
      "name": "transferFrom",
      "outputs": [
        {
          "internalType": "bool",
          "name": "",
          "type": "bool"
        }
      ],
      "payable": false,
      "stateMutability": "nonpayable",
      "type": "function"
    },
    {
      "constant": true,
      "inputs": [
        {
          "internalType": "address",
          "name": "candidate",
          "type": "address"
        }
      ],
      "name": "votesFor",
      "outputs": [
        {
          "internalType": "uint256",
          "name": "",
          "type": "uint256"
        }
      ],
      "payable": false,
      "stateMutability": "view",
      "type": "function"
    },
    {
      "constant": false,
      "inputs": [
        {
          "internalType": "uint256",
          "name": "amount",
          "type": "uint256"
        }
      ],
      "name": "incrementTotalBondedE",
      "outputs": [],
      "payable": false,
      "stateMutability": "nonpayable",
      "type": "function"
    },
    {
      "constant": false,
      "inputs": [
        {
          "internalType": "uint256",
          "name": "amount",
          "type": "uint256"
        },
        {
          "internalType": "string",
          "name": "reason",
          "type": "string"
        }
      ],
      "name": "decrementTotalBondedE",
      "outputs": [],
      "payable": false,
      "stateMutability": "nonpayable",
      "type": "function"
    },
    {
      "constant": false,
      "inputs": [
        {
          "internalType": "uint256",
          "name": "amount",
          "type": "uint256"
        }
      ],
      "name": "incrementTotalDebtE",
      "outputs": [],
      "payable": false,
      "stateMutability": "nonpayable",
      "type": "function"
    },
    {
      "constant": false,
      "inputs": [
        {
          "internalType": "uint256",
          "name": "amount",
          "type": "uint256"
        },
        {
          "internalType": "string",
          "name": "reason",
          "type": "string"
        }
      ],
      "name": "decrementTotalDebtE",
      "outputs": [],
      "payable": false,
      "stateMutability": "nonpayable",
      "type": "function"
    },
    {
      "constant": false,
      "inputs": [
        {
          "internalType": "uint256",
          "name": "amount",
          "type": "uint256"
        }
      ],
      "name": "incrementTotalRedeemableE",
      "outputs": [],
      "payable": false,
      "stateMutability": "nonpayable",
      "type": "function"
    },
    {
      "constant": false,
      "inputs": [
        {
          "internalType": "uint256",
          "name": "amount",
          "type": "uint256"
        },
        {
          "internalType": "string",
          "name": "reason",
          "type": "string"
        }
      ],
      "name": "decrementTotalRedeemableE",
      "outputs": [],
      "payable": false,
      "stateMutability": "nonpayable",
      "type": "function"
    },
    {
      "constant": false,
      "inputs": [
        {
          "internalType": "address",
          "name": "account",
          "type": "address"
        },
        {
          "internalType": "uint256",
          "name": "amount",
          "type": "uint256"
        }
      ],
      "name": "incrementBalanceOfE",
      "outputs": [],
      "payable": false,
      "stateMutability": "nonpayable",
      "type": "function"
    },
    {
      "constant": false,
      "inputs": [
        {
          "internalType": "address",
          "name": "account",
          "type": "address"
        },
        {
          "internalType": "uint256",
          "name": "amount",
          "type": "uint256"
        },
        {
          "internalType": "string",
          "name": "reason",
          "type": "string"
        }
      ],
      "name": "decrementBalanceOfE",
      "outputs": [],
      "payable": false,
      "stateMutability": "nonpayable",
      "type": "function"
    },
    {
      "constant": false,
      "inputs": [
        {
          "internalType": "address",
          "name": "account",
          "type": "address"
        },
        {
          "internalType": "uint256",
          "name": "amount",
          "type": "uint256"
        }
      ],
      "name": "incrementBalanceOfStagedE",
      "outputs": [],
      "payable": false,
      "stateMutability": "nonpayable",
      "type": "function"
    },
    {
      "constant": false,
      "inputs": [
        {
          "internalType": "address",
          "name": "account",
          "type": "address"
        },
        {
          "internalType": "uint256",
          "name": "amount",
          "type": "uint256"
        },
        {
          "internalType": "string",
          "name": "reason",
          "type": "string"
        }
      ],
      "name": "decrementBalanceOfStagedE",
      "outputs": [],
      "payable": false,
      "stateMutability": "nonpayable",
      "type": "function"
    },
    {
      "constant": false,
      "inputs": [
        {
          "internalType": "address",
          "name": "account",
          "type": "address"
        },
        {
          "internalType": "uint256",
          "name": "epoch",
          "type": "uint256"
        },
        {
          "internalType": "uint256",
          "name": "amount",
          "type": "uint256"
        }
      ],
      "name": "incrementBalanceOfCouponsE",
      "outputs": [],
      "payable": false,
      "stateMutability": "nonpayable",
      "type": "function"
    },
    {
      "constant": false,
      "inputs": [
        {
          "internalType": "address",
          "name": "account",
          "type": "address"
        },
        {
          "internalType": "uint256",
          "name": "epoch",
          "type": "uint256"
        },
        {
          "internalType": "uint256",
          "name": "amount",
          "type": "uint256"
        },
        {
          "internalType": "string",
          "name": "reason",
          "type": "string"
        }
      ],
      "name": "decrementBalanceOfCouponsE",
      "outputs": [],
      "payable": false,
      "stateMutability": "nonpayable",
      "type": "function"
    },
    {
      "constant": false,
      "inputs": [
        {
          "internalType": "address",
          "name": "account",
          "type": "address"
        }
      ],
      "name": "unfreezeE",
      "outputs": [],
      "payable": false,
      "stateMutability": "nonpayable",
      "type": "function"
    },
    {
      "constant": false,
      "inputs": [
        {
          "internalType": "address",
          "name": "owner",
          "type": "address"
        },
        {
          "internalType": "address",
          "name": "spender",
          "type": "address"
        },
        {
          "internalType": "uint256",
          "name": "amount",
          "type": "uint256"
        }
      ],
      "name": "updateAllowanceCouponsE",
      "outputs": [],
      "payable": false,
      "stateMutability": "nonpayable",
      "type": "function"
    },
    {
      "constant": false,
      "inputs": [
        {
          "internalType": "address",
          "name": "owner",
          "type": "address"
        },
        {
          "internalType": "address",
          "name": "spender",
          "type": "address"
        },
        {
          "internalType": "uint256",
          "name": "amount",
          "type": "uint256"
        },
        {
          "internalType": "string",
          "name": "reason",
          "type": "string"
        }
      ],
      "name": "decrementAllowanceCouponsE",
      "outputs": [],
      "payable": false,
      "stateMutability": "nonpayable",
      "type": "function"
    },
    {
      "constant": false,
      "inputs": [
        {
          "internalType": "uint256",
          "name": "start",
          "type": "uint256"
        },
        {
          "internalType": "uint256",
          "name": "period",
          "type": "uint256"
        }
      ],
      "name": "setEpochParamsE",
      "outputs": [],
      "payable": false,
      "stateMutability": "nonpayable",
      "type": "function"
    },
    {
      "constant": false,
      "inputs": [],
      "name": "incrementEpochE",
      "outputs": [],
      "payable": false,
      "stateMutability": "nonpayable",
      "type": "function"
    },
    {
      "constant": false,
      "inputs": [],
      "name": "snapshotTotalBondedE",
      "outputs": [],
      "payable": false,
      "stateMutability": "nonpayable",
      "type": "function"
    },
    {
      "constant": false,
      "inputs": [
        {
          "internalType": "uint256",
          "name": "epoch",
          "type": "uint256"
        },
        {
          "internalType": "uint256",
          "name": "expiration",
          "type": "uint256"
        }
      ],
      "name": "initializeCouponsExpirationE",
      "outputs": [],
      "payable": false,
      "stateMutability": "nonpayable",
      "type": "function"
    },
    {
      "constant": false,
      "inputs": [
        {
          "internalType": "uint256",
          "name": "epoch",
          "type": "uint256"
        }
      ],
      "name": "eliminateOutstandingCouponsE",
      "outputs": [],
      "payable": false,
      "stateMutability": "nonpayable",
      "type": "function"
    },
    {
      "constant": false,
      "inputs": [
        {
          "internalType": "uint256",
          "name": "epoch",
          "type": "uint256"
        }
      ],
      "name": "isCouponAuctionInitAtEpochE",
      "outputs": [
        {
          "internalType": "bool",
          "name": "",
          "type": "bool"
        }
      ],
      "payable": false,
      "stateMutability": "nonpayable",
      "type": "function"
    },
    {
      "constant": false,
      "inputs": [
        {
          "internalType": "address",
          "name": "candidate",
          "type": "address"
        },
        {
          "internalType": "uint256",
          "name": "period",
          "type": "uint256"
        }
      ],
      "name": "createCandidateE",
      "outputs": [],
      "payable": false,
      "stateMutability": "nonpayable",
      "type": "function"
    },
    {
      "constant": false,
      "inputs": [
        {
          "internalType": "address",
          "name": "account",
          "type": "address"
        },
        {
          "internalType": "address",
          "name": "candidate",
          "type": "address"
        },
        {
          "internalType": "enum Candidate.Vote",
          "name": "vote",
          "type": "uint8"
        }
      ],
      "name": "recordVoteE",
      "outputs": [],
      "payable": false,
      "stateMutability": "nonpayable",
      "type": "function"
    },
    {
      "constant": false,
      "inputs": [
        {
          "internalType": "address",
          "name": "candidate",
          "type": "address"
        },
        {
          "internalType": "uint256",
          "name": "amount",
          "type": "uint256"
        }
      ],
      "name": "incrementApproveForE",
      "outputs": [],
      "payable": false,
      "stateMutability": "nonpayable",
      "type": "function"
    },
    {
      "constant": false,
      "inputs": [
        {
          "internalType": "address",
          "name": "candidate",
          "type": "address"
        },
        {
          "internalType": "uint256",
          "name": "amount",
          "type": "uint256"
        },
        {
          "internalType": "string",
          "name": "reason",
          "type": "string"
        }
      ],
      "name": "decrementApproveForE",
      "outputs": [],
      "payable": false,
      "stateMutability": "nonpayable",
      "type": "function"
    },
    {
      "constant": false,
      "inputs": [
        {
          "internalType": "address",
          "name": "candidate",
          "type": "address"
        },
        {
          "internalType": "uint256",
          "name": "amount",
          "type": "uint256"
        }
      ],
      "name": "incrementRejectForE",
      "outputs": [],
      "payable": false,
      "stateMutability": "nonpayable",
      "type": "function"
    },
    {
      "constant": false,
      "inputs": [
        {
          "internalType": "address",
          "name": "candidate",
          "type": "address"
        },
        {
          "internalType": "uint256",
          "name": "amount",
          "type": "uint256"
        },
        {
          "internalType": "string",
          "name": "reason",
          "type": "string"
        }
      ],
      "name": "decrementRejectForE",
      "outputs": [],
      "payable": false,
      "stateMutability": "nonpayable",
      "type": "function"
    },
    {
      "constant": false,
      "inputs": [
        {
          "internalType": "address",
          "name": "account",
          "type": "address"
        },
        {
          "internalType": "address",
          "name": "candidate",
          "type": "address"
        }
      ],
      "name": "placeLockE",
      "outputs": [],
      "payable": false,
      "stateMutability": "nonpayable",
      "type": "function"
    },
    {
      "constant": false,
      "inputs": [
        {
          "internalType": "address",
          "name": "candidate",
          "type": "address"
        }
      ],
      "name": "initializedE",
      "outputs": [],
      "payable": false,
      "stateMutability": "nonpayable",
      "type": "function"
    },
    {
      "constant": false,
      "inputs": [
        {
          "internalType": "uint256",
          "name": "timestamp",
          "type": "uint256"
        }
      ],
      "name": "setBlockTimestamp",
      "outputs": [],
      "payable": false,
      "stateMutability": "nonpayable",
      "type": "function"
    }
  ],
  "bytecode": "0x608060405234801561001057600080fd5b50426010556122ed806100246000396000f3fe608060405234801561001057600080fd5b50600436106104a15760003560e01c80638de2e5731161026d578063bc7513e211610151578063d6d8816d116100ce578063eeaca09b11610092578063eeaca09b146109f0578063f1b7cf4914610a03578063f35adf7e14610a16578063f7a3181814610a1e578063fc7b9c1814610a31578063ffbe3b7314610a39576104a1565b8063d6d8816d14610996578063d83d3ed5146109a9578063dd62ed3e146109bc578063dde74dc3146109ca578063e0abdf66146109dd576104a1565b8063cb0fbc7111610115578063cb0fbc7114610942578063cc8d823c14610955578063cf02377914610968578063d53c6f5f14610970578063d60b347f14610983576104a1565b8063bc7513e2146108e3578063c1410c02146108f6578063c2aeb5fe14610909578063c34eee651461091c578063c9aff70c1461092f576104a1565b80639f6e1b26116101ea578063a9059cbb116101ae578063a9059cbb146104c4578063a9b3cf1514610884578063adbff2be14610897578063ae5c2381146108aa578063b11ee0e3146108bd578063b32a2f90146108d0576104a1565b80639f6e1b2614610830578063a00e14d114610843578063a50cd8e714610856578063a6c409f114610869578063a6f37b5314610871576104a1565b80639a649edc116102315780639a649edc146107dc5780639b82b49b146107e45780639bc289f1146107f75780639be464931461080a5780639f1a09291461081d576104a1565b80638de2e5731461079e5780638e825388146107b1578063900cf0cf146107b957806395d89b41146107c157806397a5d5b5146107c9576104a1565b80633fd4973c116103945780636b862d66116103115780637cb95a32116102d55780637cb95a32146107375780637d8bb8691461074a5780637dc0d1d01461075d578063825ad607146107655780638413e52a1461077857806386cf9f141461078b576104a1565b80636b862d66146106e357806370a08231146106f657806371c511eb1461070957806372924d2a1461071157806375d5024b14610724576104a1565b806351bf21d81161035857806351bf21d81461068f578063520acb76146106a25780635c60da1b146106b557806364668022146106bd5780636a39e328146106d0576104a1565b80633fd4973c1461064457806344d96e95146106575780634c7360991461065f5780635053e4611461067257806351adeb571461067a576104a1565b806323b872dd11610422578063353a420c116103e6578063353a420c146105d85780633a3e6c81146105eb5780633dc905c7146105fe5780633f7bcaf3146106115780633fbba9a614610624576104a1565b806323b872dd14610577578063259f7adf1461058a5780632d7f23b31461059d578063313ce567146105b057806332347422146105c5576104a1565b806315e14bf61161046957806315e14bf61461052c57806316f0115b1461053f57806318160ddd146105545780631a08e22a1461055c5780631edbcf6c1461056f576104a1565b806306fdde03146104a6578063095ea7b3146104c45780630dc6d3a3146104e457806310e95b6c146104f95780631550ec2414610519575b600080fd5b6104ae610a4c565b6040516104bb91906121a1565b60405180910390f35b6104d76104d2366004611ec9565b610a83565b6040516104bb9190612177565b6104f76104f2366004611e4b565b610a8c565b005b61050c610507366004611fc8565b610ad5565b6040516104bb91906121d2565b6104d7610527366004611fc8565b610aed565b61050c61053a366004611d5b565b610b07565b610547610b25565b6040516104bb9190612169565b61050c610b34565b6104f761056a36600461205a565b610b3a565b61050c610b48565b6104d7610585366004611e08565b610b4e565b6104f7610598366004611fc8565b610b57565b61050c6105ab366004611fc8565b610b63565b6105b8610b78565b6040516104bb91906121e0565b6104f76105d3366004612004565b610b7d565b61050c6105e6366004611d5b565b610bc2565b6104d76105f9366004611d5b565b610be0565b61050c61060c366004611fc8565b610bfd565b6104f761061f366004611e08565b610c13565b610637610632366004611d81565b610c1e565b6040516104bb9190612193565b6104f7610652366004611ef9565b610c51565b61050c610c98565b61050c61066d36600461205a565b610c9e565b61050c610cce565b610682610cf1565b6040516104bb9190612185565b61050c61069d366004611d5b565b610d00565b61050c6106b0366004611fc8565b610d1e565b610547610d33565b61050c6106cb366004611d5b565b610d58565b61050c6106de366004611fc8565b610d76565b6104f76106f1366004611f61565b610d8b565b61050c610704366004611d5b565b610d96565b6104f7610db4565b6104f761071f366004612004565b610dbe565b6104d7610732366004611fc8565b610dfe565b6104f7610745366004611ef9565b610e11565b61050c610758366004611fc8565b610e52565b610682610e67565b61050c610773366004611d5b565b610e76565b6104f7610786366004611dbb565b610ec9565b61050c610799366004611d5b565b610ed4565b6104f76107ac366004611fc8565b610eef565b61050c610ef8565b61050c610efe565b6104ae610f04565b6106376107d7366004611d5b565b610f22565b61050c610f87565b6104f76107f2366004612004565b610f8d565b61050c610805366004611d5b565b610fcd565b6104f7610818366004611d5b565b610feb565b61050c61082b366004611fc8565b610ff4565b61050c61083e366004611d81565b611009565b6104f761085136600461205a565b611038565b61050c610864366004611d5b565b611043565b61050c611066565b6104f761087f366004611d5b565b6110fc565b6104f7610892366004611fc8565b611105565b6104f76108a5366004611ef9565b61110e565b6104f76108b8366004611ec9565b61114f565b6104f76108cb366004611ec9565b611159565b6104f76108de366004611ef9565b611163565b61050c6108f1366004611ec9565b6111a4565b6104f7610904366004611d81565b6111e8565b6104f7610917366004611f93565b6111f2565b61050c61092a366004611fc8565b611234565b61050c61093d366004611fc8565b611249565b61050c610950366004611fc8565b61125e565b6104f7610963366004611ec9565b611273565b61050c61127d565b61050c61097e366004611fc8565b611283565b6104d7610991366004611d5b565b611298565b6104f76109a4366004611fc8565b6112b9565b6104f76109b7366004611ec9565b6112c2565b61050c6104d2366004611d81565b61050c6109d8366004611fc8565b6112cc565b6104f76109eb366004611fc8565b6112e1565b61050c6109fe366004611fc8565b6112e6565b61050c610a11366004611d5b565b6112fb565b6104f7611316565b6104f7610a2c366004611ec9565b61131e565b61050c611328565b61050c610a47366004611fc8565b61132e565b60408051808201909152601881527f44796e616d69632053657420446f6c6c6172205374616b650000000000000000602082015290565b60005b92915050565b610ace85858585858080601f01602080910402602001604051908101604052809392919081815260200183838082843760009201919091525061134092505050565b5050505050565b6000818152600e60205260409020600201545b919050565b6000610af8826113b1565b54610100900460ff1692915050565b6001600160a01b03166000908152600f602052604090206001015490565b600c546001600160a01b031690565b60045490565b610b4482826113c5565b5050565b60075490565b60009392505050565b610b60816113f7565b50565b6000908152600e60205260409020600a015490565b601290565b610bbd8383838080601f01602080910402602001604051908101604052809392919081815260200183838082843760009201919091525061141092505050565b505050565b6001600160a01b03166000908152600f602052604090206003015490565b6001600160a01b03166000908152600f6020526040902054151590565b6000908152600e60208190526040909120015490565b610bbd83838361142b565b6001600160a01b038082166000908152600f60209081526040808320938616835260049093019052205460ff1692915050565b610c92848484848080601f01602080910402602001604051908101604052809392919081815260200183838082843760009201919091525061145b92505050565b50505050565b60055490565b6000828152600e60205260408120600301805483908110610cbb57fe5b9060005260206000200154905092915050565b6000610cd8611cc5565b610ce06114ac565b9050610ceb816114db565b91505090565b600a546001600160a01b031690565b6001600160a01b03166000908152600d602052604090206004015490565b6000908152600e602052604090206010015490565b7f360894a13ba1a3210667c828492db98dca3e2076cc3735a920a3ca505d382bbc5490565b6001600160a01b03166000908152600f602052604090206002015490565b6000908152600e602052604090206003015490565b610bbd8383836114fd565b6001600160a01b03166000908152600d602052604090206001015490565b610dbc6115a4565b565b610bbd8383838080601f0160208091040260200160405190810160405280939291908181526020018383808284376000920191909152506115cb92505050565b6000610e086115e6565b90911115919050565b610c92848484848080601f0160208091040260200160405190810160405280939291908181526020018383808284376000920191909152506115eb92505050565b6000908152600e602052604090206012015490565b600b546001600160a01b031690565b600080610e81610b34565b905080610e92576000915050610ae8565b610ec281610eb6610ea286610d96565b610eaa610c98565b9063ffffffff61163c16565b9063ffffffff61167f16565b9392505050565b610bbd8383836116c1565b6001600160a01b03166000908152600d602052604090205490565b610b608161170b565b60035490565b60025490565b6040805180820190915260048152634453445360e01b602082015290565b6000610f2c610efe565b6001600160a01b0383166000908152600d60205260409020600501541115610f5657506002610ae8565b6001600160a01b0382166000908152600d6020526040902060040154610f7a610efe565b1015610a83576001610a86565b60095490565b610bbd8383838080601f01602080910402602001604051908101604052809392919081815260200183838082843760009201919091525061172492505050565b6001600160a01b03166000908152600d602052604090206005015490565b610b608161173f565b6000908152600e60205260409020600d015490565b6001600160a01b039182166000908152600d602090815260408083209390941682526003909201909152205490565b600091909155600155565b6000610a8661105183610bc2565b61105a84610d58565b9063ffffffff61177116565b60006110f7611073611328565b61107b610cf1565b6001600160a01b03166318160ddd6040518163ffffffff1660e01b815260040160206040518083038186803b1580156110b357600080fd5b505afa1580156110c7573d6000803e3d6000fd5b505050506040513d601f19601f820116820180604052506110eb9190810190611fe6565b9063ffffffff61179616565b905090565b610b60816117d8565b610b60816117ff565b610c92848484848080601f01602080910402602001604051908101604052809392919081815260200183838082843760009201919091525061184292505050565b610b4482826118ed565b610b448282611995565b610c92848484848080601f0160208091040260200160405190810160405280939291908181526020018383808284376000920191909152506119f192505050565b60006111af82611249565b6111bb57506000610a86565b506001600160a01b03919091166000908152600d6020908152604080832093835260029093019052205490565b610b448282611a50565b610ace85858585858080601f016020809104026020016040519081016040528093929190818152602001838380828437600092019190915250611ab092505050565b6000908152600e602052604090206011015490565b6000908152600e602052604090206001015490565b6000908152600e602052604090206013015490565b610b448282611b5b565b60065490565b6000908152600e60205260409020600f015490565b6001600160a01b03166000908152600f602052604090206005015460ff1690565b610b6081611baa565b610b448282611bc3565b6000908152600e60205260409020600c015490565b601055565b6000908152600e60205260409020600b015490565b6001600160a01b03166000908152600f602052604090205490565b610dbc611bef565b610b448282611c08565b60085490565b6000908152600e602052604090205490565b6001600160a01b038085166000908152600d60209081526040808320938716835260039093019052205461137b90838363ffffffff611c5716565b6001600160a01b039485166000908152600d60209081526040808320969097168252600390950190945293909220929092555050565b6000908152600e6020526040902060040190565b6000828152600e6020908152604080832060020184905592825291812060030180546001810182559082529190200155565b60055461140a908263ffffffff61177116565b60055550565b60075461142490838363ffffffff611c5716565b6007555050565b6001600160a01b039283166000908152600d60209081526040808320949095168252600390930190925291902055565b6001600160a01b0383166000908152600f602052604090206003015461148890838363ffffffff611c5716565b6001600160a01b039093166000908152600f60205260409020600301929092555050565b6114b4611cc5565b604051806060016040528060008152602001635fbef0008152602001611c20815250905090565b6000610a86826000015161105a8460400151610eb686602001516110eb611c83565b6001600160a01b0383166000908152600d60209081526040808320858452600201909152902054611534908263ffffffff61177116565b6001600160a01b0384166000908152600d60209081526040808320868452600201825280832093909355600e90522060010154611577908263ffffffff61177116565b6000838152600e602052604090206001015560095461159c908263ffffffff61177116565b600955505050565b6115ac610b34565b600e60006115b8610efe565b8152602081019190915260400160002055565b6008546115df90838363ffffffff611c5716565b6008555050565b609690565b6001600160a01b0383166000908152600f602052604090206002015461161890838363ffffffff611c5716565b6001600160a01b039093166000908152600f60205260409020600201929092555050565b60008261164b57506000610a86565b8282028284828161165857fe5b0414610ec25760405162461bcd60e51b8152600401611676906121c2565b60405180910390fd5b6000610ec283836040518060400160405280601a81526020017f536166654d6174683a206469766973696f6e206279207a65726f000000000000815250611c89565b6001600160a01b038083166000908152600f6020908152604080832093871683526004909301905220805482919060ff1916600183600281111561170157fe5b0217905550505050565b60085461171e908263ffffffff61177116565b60085550565b60055461173890838363ffffffff611c5716565b6005555050565b61175261174a611cc0565b61105a610efe565b6001600160a01b039091166000908152600d6020526040902060040155565b600082820183811015610ec25760405162461bcd60e51b8152600401611676906121b2565b6000610ec283836040518060400160405280601e81526020017f536166654d6174683a207375627472616374696f6e206f766572666c6f770000815250611c57565b6001600160a01b03166000908152600f60205260409020600501805460ff19166001179055565b600061180a82611249565b9050806118175750610b60565b60095461182a908263ffffffff61179616565b600955506000908152600e6020526040812060010155565b6001600160a01b0383166000908152600d602052604090206001015461186f90838363ffffffff611c5716565b6001600160a01b0384166000908152600d602052604090206001015560045461189f90838363ffffffff611c5716565b6004556040516000906001600160a01b038516907fddf252ad1be2c89b69c2b068fc378daa952ba7f163c4a11628f55a4df523b3ef906118e09086906121d2565b60405180910390a3505050565b6001600160a01b0382166000908152600d6020526040902060010154611919908263ffffffff61177116565b6001600160a01b0383166000908152600d6020526040902060010155600454611948908263ffffffff61177116565b6004556040516001600160a01b038316906000907fddf252ad1be2c89b69c2b068fc378daa952ba7f163c4a11628f55a4df523b3ef906119899085906121d2565b60405180910390a35050565b6001600160a01b0382166000908152600d60205260409020546119be908263ffffffff61177116565b6001600160a01b0383166000908152600d60205260409020556006546119ea908263ffffffff61177116565b6006555050565b6001600160a01b0383166000908152600d6020526040902054611a1b90838363ffffffff611c5716565b6001600160a01b0384166000908152600d6020526040902055600654611a4890838363ffffffff611c5716565b600655505050565b6001600160a01b0382166000908152600d602052604081206005015490611a82611a7984610b07565b61105a856112fb565b905081811115610c92576001600160a01b0384166000908152600d6020526040902060050181905550505050565b6001600160a01b0384166000908152600d60209081526040808320868452600201909152902054611ae890838363ffffffff611c5716565b6001600160a01b0385166000908152600d60209081526040808320878452600201825280832093909355600e90522060010154611b2c90838363ffffffff611c5716565b6000848152600e6020526040902060010155600954611b5290838363ffffffff611c5716565b60095550505050565b6001600160a01b0382166000908152600f6020526040902060030154611b87908263ffffffff61177116565b6001600160a01b039092166000908152600f602052604090206003019190915550565b600754611bbd908263ffffffff61177116565b60075550565b611bcb610efe565b6001600160a01b039092166000908152600f60205260409020918255600190910155565b600254611c0390600163ffffffff61177116565b600255565b6001600160a01b0382166000908152600f6020526040902060020154611c34908263ffffffff61177116565b6001600160a01b039092166000908152600f602052604090206002019190915550565b60008184841115611c7b5760405162461bcd60e51b815260040161167691906121a1565b505050900390565b60105490565b60008183611caa5760405162461bcd60e51b815260040161167691906121a1565b506000838581611cb657fe5b0495945050505050565b602490565b60405180606001604052806000815260200160008152602001600081525090565b8035610a8681612280565b8035610a8681612294565b60008083601f840112611d0e57600080fd5b50813567ffffffffffffffff811115611d2657600080fd5b602083019150836001820283011115611d3e57600080fd5b9250929050565b8035610a86816122a1565b8051610a86816122a1565b600060208284031215611d6d57600080fd5b6000611d798484611ce6565b949350505050565b60008060408385031215611d9457600080fd5b6000611da08585611ce6565b9250506020611db185828601611ce6565b9150509250929050565b600080600060608486031215611dd057600080fd5b6000611ddc8686611ce6565b9350506020611ded86828701611ce6565b9250506040611dfe86828701611cf1565b9150509250925092565b600080600060608486031215611e1d57600080fd5b6000611e298686611ce6565b9350506020611e3a86828701611ce6565b9250506040611dfe86828701611d45565b600080600080600060808688031215611e6357600080fd5b6000611e6f8888611ce6565b9550506020611e8088828901611ce6565b9450506040611e9188828901611d45565b935050606086013567ffffffffffffffff811115611eae57600080fd5b611eba88828901611cfc565b92509250509295509295909350565b60008060408385031215611edc57600080fd5b6000611ee88585611ce6565b9250506020611db185828601611d45565b60008060008060608587031215611f0f57600080fd5b6000611f1b8787611ce6565b9450506020611f2c87828801611d45565b935050604085013567ffffffffffffffff811115611f4957600080fd5b611f5587828801611cfc565b95989497509550505050565b600080600060608486031215611f7657600080fd5b6000611f828686611ce6565b9350506020611e3a86828701611d45565b600080600080600060808688031215611fab57600080fd5b6000611fb78888611ce6565b9550506020611e8088828901611d45565b600060208284031215611fda57600080fd5b6000611d798484611d45565b600060208284031215611ff857600080fd5b6000611d798484611d50565b60008060006040848603121561201957600080fd5b60006120258686611d45565b935050602084013567ffffffffffffffff81111561204257600080fd5b61204e86828701611cfc565b92509250509250925092565b6000806040838503121561206d57600080fd5b6000611ee88585611d45565b612082816121fb565b82525050565b61208281612206565b6120828161222a565b61208281612235565b60006120ae826121ee565b6120b881856121f2565b93506120c8818560208601612240565b6120d18161226c565b9093019392505050565b60006120e8601b836121f2565b7f536166654d6174683a206164646974696f6e206f766572666c6f770000000000815260200192915050565b60006121216021836121f2565b7f536166654d6174683a206d756c7469706c69636174696f6e206f766572666c6f8152607760f81b602082015260400192915050565b61208281612221565b61208281612224565b60208101610a868284612079565b60208101610a868284612088565b60208101610a868284612091565b60208101610a86828461209a565b60208082528101610ec281846120a3565b60208082528101610a86816120db565b60208082528101610a8681612114565b60208101610a868284612157565b60208101610a868284612160565b5190565b90815260200190565b6000610a8682612215565b151590565b80610ae881612276565b6001600160a01b031690565b90565b60ff1690565b6000610a86826121fb565b6000610a868261220b565b60005b8381101561225b578181015183820152602001612243565b83811115610c925750506000910152565b601f01601f191690565b60038110610b6057fe5b612289816121fb565b8114610b6057600080fd5b60038110610b6057600080fd5b6122898161222156fea365627a7a72315820f9c627d57ad9173d205ece4807bc5ce5a071b4251f34e8dfe44884d193b2afb76c6578706572696d656e74616cf564736f6c63430005110040",
  "source": "/*\n    Copyright 2020 Dynamic Dollar Devs, based on the works of the Empty Set Squad\n\n    Licensed under the Apache License, Version 2.0 (the \"License\");\n    you may not use this file except in compliance with the License.\n    You may obtain a copy of the License at\n\n    http://www.apache.org/licenses/LICENSE-2.0\n\n    Unless required by applicable law or agreed to in writing, software\n    distributed under the License is distributed on an \"AS IS\" BASIS,\n    WITHOUT WARRANTIES OR CONDITIONS OF ANY KIND, either express or implied.\n    See the License for the specific language governing permissions and\n    limitations under the License.\n*/\n\npragma solidity ^0.5.17;\npragma experimental ABIEncoderV2;\n\nimport \"../dao/Setters.sol\";\n\ncontract MockState is Setters {\n    uint256 internal _blockTimestamp;\n\n    constructor () public {\n        _blockTimestamp = block.timestamp;\n    }\n\n    /**\n     * Global\n     */\n\n    function incrementTotalBondedE(uint256 amount) external {\n        super.incrementTotalBonded(amount);\n    }\n\n    function decrementTotalBondedE(uint256 amount, string calldata reason) external {\n        super.decrementTotalBonded(amount, reason);\n    }\n\n    function incrementTotalDebtE(uint256 amount) external {\n        super.incrementTotalDebt(amount);\n    }\n\n    function decrementTotalDebtE(uint256 amount, string calldata reason) external {\n        super.decrementTotalDebt(amount, reason);\n    }\n\n    function incrementTotalRedeemableE(uint256 amount) external {\n        super.incrementTotalRedeemable(amount);\n    }\n\n    function decrementTotalRedeemableE(uint256 amount, string calldata reason) external {\n        super.decrementTotalRedeemable(amount, reason);\n    }\n\n    /**\n     * Account\n     */\n\n    function incrementBalanceOfE(address account, uint256 amount) external {\n        super.incrementBalanceOf(account, amount);\n    }\n\n    function decrementBalanceOfE(address account, uint256 amount, string calldata reason) external {\n        super.decrementBalanceOf(account, amount, reason);\n    }\n\n    function incrementBalanceOfStagedE(address account, uint256 amount) external {\n        super.incrementBalanceOfStaged(account, amount);\n    }\n\n    function decrementBalanceOfStagedE(address account, uint256 amount, string calldata reason) external {\n        super.decrementBalanceOfStaged(account, amount, reason);\n    }\n\n    function incrementBalanceOfCouponsE(address account, uint256 epoch, uint256 amount) external {\n        super.incrementBalanceOfCoupons(account, epoch, amount);\n    }\n\n    function decrementBalanceOfCouponsE(address account, uint256 epoch, uint256 amount, string calldata reason) external {\n        super.decrementBalanceOfCoupons(account, epoch, amount, reason);\n    }\n\n    function unfreezeE(address account) external {\n        super.unfreeze(account);\n    }\n\n    function updateAllowanceCouponsE(address owner, address spender, uint256 amount) external {\n        super.updateAllowanceCoupons(owner, spender, amount);\n    }\n\n    function decrementAllowanceCouponsE(address owner, address spender, uint256 amount, string calldata reason) external {\n        super.decrementAllowanceCoupons(owner, spender, amount, reason);\n    }\n\n    /**\n     * Epoch\n     */\n\n    function setEpochParamsE(uint256 start, uint256 period) external {\n        _state.epoch.start = start;\n        _state.epoch.period = period;\n    }\n\n    function incrementEpochE() external {\n        super.incrementEpoch();\n    }\n\n    function snapshotTotalBondedE() external {\n        super.snapshotTotalBonded();\n    }\n\n    function initializeCouponsExpirationE(uint256 epoch, uint256 expiration) external {\n        super.initializeCouponsExpiration(epoch, expiration);\n    }\n\n    function eliminateOutstandingCouponsE(uint256 epoch) external {\n       super.eliminateOutstandingCoupons(epoch);\n    }\n\n    function isCouponAuctionInitAtEpochE(uint256 epoch) external returns (bool) {\n        return super.getCouponAuctionAtEpoch(epoch).isInit;\n    }\n\n\n    /**\n     * Governance\n     */\n\n    function createCandidateE(address candidate, uint256 period) external {\n        super.createCandidate(candidate, period);\n    }\n\n    function recordVoteE(address account, address candidate, Candidate.Vote vote) external {\n        super.recordVote(account, candidate, vote);\n    }\n\n    function incrementApproveForE(address candidate, uint256 amount) external {\n        super.incrementApproveFor(candidate, amount);\n    }\n\n    function decrementApproveForE(address candidate, uint256 amount, string calldata reason) external {\n        super.decrementApproveFor(candidate, amount, reason);\n    }\n\n    function incrementRejectForE(address candidate, uint256 amount) external {\n        super.incrementRejectFor(candidate, amount);\n    }\n\n    function decrementRejectForE(address candidate, uint256 amount, string calldata reason) external {\n        super.decrementRejectFor(candidate, amount, reason);\n    }\n\n    function placeLockE(address account, address candidate) external {\n        super.placeLock(account, candidate);\n    }\n\n    function initializedE(address candidate) external {\n        super.initialized(candidate);\n    }\n\n    /**\n     * Mock\n     */\n\n    function setBlockTimestamp(uint256 timestamp) external {\n        _blockTimestamp = timestamp;\n    }\n\n    function blockTimestamp() internal view returns (uint256) {\n        return _blockTimestamp;\n    }\n}\n",
  "sourcePath": "/Users/cinquemb/Documents/Startups/crypto/dollar/protocol/contracts/mock/MockState.sol",
  "compiler": {
    "name": "solc",
    "version": "0.5.17+commit.d19bba13.Emscripten.clang"
  },
  "schemaVersion": "3.3.3",
  "updatedAt": "2021-01-15T13:15:59.180Z",
  "devdoc": {
    "methods": {}
  },
  "userdoc": {
    "methods": {
      "balanceOfStaged(address)": {
        "notice": "Account"
      },
      "createCandidateE(address,uint256)": {
        "notice": "Governance"
      },
      "dollar()": {
        "notice": "Global"
      },
      "epoch()": {
        "notice": "Epoch"
      },
      "incrementBalanceOfE(address,uint256)": {
        "notice": "Account"
      },
      "incrementTotalBondedE(uint256)": {
        "notice": "Global"
      },
      "name()": {
        "notice": "ERC20 Interface"
      },
      "recordedVote(address,address)": {
        "notice": "Governance"
      },
      "setBlockTimestamp(uint256)": {
        "notice": "Mock"
      },
      "setEpochParamsE(uint256,uint256)": {
        "notice": "Epoch"
      },
      "transfer(address,uint256)": {
        "notice": "ERC20 Interface"
      }
    }
  }
}