{
  "contractName": "MockState",
  "abi": [
    {
      "inputs": [],
      "payable": false,
      "stateMutability": "nonpayable",
      "type": "constructor"
    },
    {
      "anonymous": false,
      "inputs": [
        {
          "indexed": true,
          "internalType": "address",
          "name": "from",
          "type": "address"
        },
        {
          "indexed": true,
          "internalType": "address",
          "name": "to",
          "type": "address"
        },
        {
          "indexed": false,
          "internalType": "uint256",
          "name": "value",
          "type": "uint256"
        }
      ],
      "name": "Transfer",
      "type": "event"
    },
    {
      "constant": true,
      "inputs": [
        {
          "internalType": "address",
          "name": "owner",
          "type": "address"
        },
        {
          "internalType": "address",
          "name": "spender",
          "type": "address"
        }
      ],
      "name": "allowance",
      "outputs": [
        {
          "internalType": "uint256",
          "name": "",
          "type": "uint256"
        }
      ],
      "payable": false,
      "stateMutability": "view",
      "type": "function"
    },
    {
      "constant": true,
      "inputs": [
        {
          "internalType": "address",
          "name": "owner",
          "type": "address"
        },
        {
          "internalType": "address",
          "name": "spender",
          "type": "address"
        }
      ],
      "name": "allowanceCoupons",
      "outputs": [
        {
          "internalType": "uint256",
          "name": "",
          "type": "uint256"
        }
      ],
      "payable": false,
      "stateMutability": "view",
      "type": "function"
    },
    {
      "constant": false,
      "inputs": [
        {
          "internalType": "address",
          "name": "spender",
          "type": "address"
        },
        {
          "internalType": "uint256",
          "name": "amount",
          "type": "uint256"
        }
      ],
      "name": "approve",
      "outputs": [
        {
          "internalType": "bool",
          "name": "",
          "type": "bool"
        }
      ],
      "payable": false,
      "stateMutability": "nonpayable",
      "type": "function"
    },
    {
      "constant": true,
      "inputs": [
        {
          "internalType": "address",
          "name": "candidate",
          "type": "address"
        }
      ],
      "name": "approveFor",
      "outputs": [
        {
          "internalType": "uint256",
          "name": "",
          "type": "uint256"
        }
      ],
      "payable": false,
      "stateMutability": "view",
      "type": "function"
    },
    {
      "constant": true,
      "inputs": [
        {
          "internalType": "address",
          "name": "account",
          "type": "address"
        }
      ],
      "name": "balanceOf",
      "outputs": [
        {
          "internalType": "uint256",
          "name": "",
          "type": "uint256"
        }
      ],
      "payable": false,
      "stateMutability": "view",
      "type": "function"
    },
    {
      "constant": true,
      "inputs": [
        {
          "internalType": "address",
          "name": "account",
          "type": "address"
        }
      ],
      "name": "balanceOfBonded",
      "outputs": [
        {
          "internalType": "uint256",
          "name": "",
          "type": "uint256"
        }
      ],
      "payable": false,
      "stateMutability": "view",
      "type": "function"
    },
    {
      "constant": true,
      "inputs": [
        {
          "internalType": "address",
          "name": "account",
          "type": "address"
        },
        {
          "internalType": "uint256",
          "name": "epoch",
          "type": "uint256"
        }
      ],
      "name": "balanceOfCoupons",
      "outputs": [
        {
          "internalType": "uint256",
          "name": "",
          "type": "uint256"
        }
      ],
      "payable": false,
      "stateMutability": "view",
      "type": "function"
    },
    {
      "constant": true,
      "inputs": [
        {
          "internalType": "address",
          "name": "account",
          "type": "address"
        }
      ],
      "name": "balanceOfStaged",
      "outputs": [
        {
          "internalType": "uint256",
          "name": "",
          "type": "uint256"
        }
      ],
      "payable": false,
      "stateMutability": "view",
      "type": "function"
    },
    {
      "constant": true,
      "inputs": [
        {
          "internalType": "uint256",
          "name": "epoch",
          "type": "uint256"
        }
      ],
      "name": "bootstrappingAt",
      "outputs": [
        {
          "internalType": "bool",
          "name": "",
          "type": "bool"
        }
      ],
      "payable": false,
      "stateMutability": "view",
      "type": "function"
    },
    {
      "constant": true,
      "inputs": [
        {
          "internalType": "uint256",
          "name": "epoch",
          "type": "uint256"
        }
      ],
      "name": "couponsExpiration",
      "outputs": [
        {
          "internalType": "uint256",
          "name": "",
          "type": "uint256"
        }
      ],
      "payable": false,
      "stateMutability": "view",
      "type": "function"
    },
    {
      "constant": true,
      "inputs": [],
      "name": "decimals",
      "outputs": [
        {
          "internalType": "uint8",
          "name": "",
          "type": "uint8"
        }
      ],
      "payable": false,
      "stateMutability": "view",
      "type": "function"
    },
    {
      "constant": true,
      "inputs": [],
      "name": "dollar",
      "outputs": [
        {
          "internalType": "contract IDollar",
          "name": "",
          "type": "address"
        }
      ],
      "payable": false,
      "stateMutability": "view",
      "type": "function"
    },
    {
      "constant": true,
      "inputs": [],
      "name": "epoch",
      "outputs": [
        {
          "internalType": "uint256",
          "name": "",
          "type": "uint256"
        }
      ],
      "payable": false,
      "stateMutability": "view",
      "type": "function"
    },
    {
      "constant": true,
      "inputs": [],
      "name": "epochTime",
      "outputs": [
        {
          "internalType": "uint256",
          "name": "",
          "type": "uint256"
        }
      ],
      "payable": false,
      "stateMutability": "view",
      "type": "function"
    },
    {
      "constant": true,
      "inputs": [
        {
          "internalType": "uint256",
          "name": "epoch",
          "type": "uint256"
        }
      ],
      "name": "expiringCoupons",
      "outputs": [
        {
          "internalType": "uint256",
          "name": "",
          "type": "uint256"
        }
      ],
      "payable": false,
      "stateMutability": "view",
      "type": "function"
    },
    {
      "constant": true,
      "inputs": [
        {
          "internalType": "uint256",
          "name": "epoch",
          "type": "uint256"
        },
        {
          "internalType": "uint256",
          "name": "i",
          "type": "uint256"
        }
      ],
      "name": "expiringCouponsAtIndex",
      "outputs": [
        {
          "internalType": "uint256",
          "name": "",
          "type": "uint256"
        }
      ],
      "payable": false,
      "stateMutability": "view",
      "type": "function"
    },
    {
      "constant": true,
      "inputs": [
        {
          "internalType": "address",
          "name": "account",
          "type": "address"
        }
      ],
      "name": "fluidUntil",
      "outputs": [
        {
          "internalType": "uint256",
          "name": "",
          "type": "uint256"
        }
      ],
      "payable": false,
      "stateMutability": "view",
      "type": "function"
    },
    {
      "constant": true,
      "inputs": [
        {
          "internalType": "uint256",
          "name": "epoch",
          "type": "uint256"
        }
      ],
      "name": "getAvgExpiryFilled",
      "outputs": [
        {
          "internalType": "uint256",
          "name": "",
          "type": "uint256"
        }
      ],
      "payable": false,
      "stateMutability": "view",
      "type": "function"
    },
    {
      "constant": true,
      "inputs": [
        {
          "internalType": "uint256",
          "name": "epoch",
          "type": "uint256"
        }
      ],
      "name": "getAvgYieldFilled",
      "outputs": [
        {
          "internalType": "uint256",
          "name": "",
          "type": "uint256"
        }
      ],
      "payable": false,
      "stateMutability": "view",
      "type": "function"
    },
    {
      "constant": true,
      "inputs": [
        {
          "internalType": "uint256",
          "name": "epoch",
          "type": "uint256"
        }
      ],
      "name": "getBidToCover",
      "outputs": [
        {
          "internalType": "uint256",
          "name": "",
          "type": "uint256"
        }
      ],
      "payable": false,
      "stateMutability": "view",
      "type": "function"
    },
    {
      "constant": true,
      "inputs": [
        {
          "internalType": "uint256",
          "name": "epoch",
          "type": "uint256"
        }
      ],
      "name": "getMaxExpiryFilled",
      "outputs": [
        {
          "internalType": "uint256",
          "name": "",
          "type": "uint256"
        }
      ],
      "payable": false,
      "stateMutability": "view",
      "type": "function"
    },
    {
      "constant": true,
      "inputs": [
        {
          "internalType": "uint256",
          "name": "epoch",
          "type": "uint256"
        }
      ],
      "name": "getMaxYieldFilled",
      "outputs": [
        {
          "internalType": "uint256",
          "name": "",
          "type": "uint256"
        }
      ],
      "payable": false,
      "stateMutability": "view",
      "type": "function"
    },
    {
      "constant": true,
      "inputs": [
        {
          "internalType": "uint256",
          "name": "epoch",
          "type": "uint256"
        }
      ],
      "name": "getMinExpiryFilled",
      "outputs": [
        {
          "internalType": "uint256",
          "name": "",
          "type": "uint256"
        }
      ],
      "payable": false,
      "stateMutability": "view",
      "type": "function"
    },
    {
      "constant": true,
      "inputs": [
        {
          "internalType": "uint256",
          "name": "epoch",
          "type": "uint256"
        }
      ],
      "name": "getMinYieldFilled",
      "outputs": [
        {
          "internalType": "uint256",
          "name": "",
          "type": "uint256"
        }
      ],
      "payable": false,
      "stateMutability": "view",
      "type": "function"
    },
    {
      "constant": true,
      "inputs": [
        {
          "internalType": "uint256",
          "name": "epoch",
          "type": "uint256"
        }
      ],
      "name": "getTotalAuctioned",
      "outputs": [
        {
          "internalType": "uint256",
          "name": "",
          "type": "uint256"
        }
      ],
      "payable": false,
      "stateMutability": "view",
      "type": "function"
    },
    {
      "constant": true,
      "inputs": [
        {
          "internalType": "uint256",
          "name": "epoch",
          "type": "uint256"
        }
      ],
      "name": "getTotalBurned",
      "outputs": [
        {
          "internalType": "uint256",
          "name": "",
          "type": "uint256"
        }
      ],
      "payable": false,
      "stateMutability": "view",
      "type": "function"
    },
    {
      "constant": true,
      "inputs": [
        {
          "internalType": "uint256",
          "name": "epoch",
          "type": "uint256"
        }
      ],
      "name": "getTotalFilled",
      "outputs": [
        {
          "internalType": "uint256",
          "name": "",
          "type": "uint256"
        }
      ],
      "payable": false,
      "stateMutability": "view",
      "type": "function"
    },
    {
      "constant": true,
      "inputs": [],
      "name": "implementation",
      "outputs": [
        {
          "internalType": "address",
          "name": "impl",
          "type": "address"
        }
      ],
      "payable": false,
      "stateMutability": "view",
      "type": "function"
    },
    {
      "constant": true,
      "inputs": [
        {
          "internalType": "address",
          "name": "candidate",
          "type": "address"
        }
      ],
      "name": "isInitialized",
      "outputs": [
        {
          "internalType": "bool",
          "name": "",
          "type": "bool"
        }
      ],
      "payable": false,
      "stateMutability": "view",
      "type": "function"
    },
    {
      "constant": true,
      "inputs": [
        {
          "internalType": "address",
          "name": "candidate",
          "type": "address"
        }
      ],
      "name": "isNominated",
      "outputs": [
        {
          "internalType": "bool",
          "name": "",
          "type": "bool"
        }
      ],
      "payable": false,
      "stateMutability": "view",
      "type": "function"
    },
    {
      "constant": true,
      "inputs": [
        {
          "internalType": "address",
          "name": "account",
          "type": "address"
        }
      ],
      "name": "lockedUntil",
      "outputs": [
        {
          "internalType": "uint256",
          "name": "",
          "type": "uint256"
        }
      ],
      "payable": false,
      "stateMutability": "view",
      "type": "function"
    },
    {
      "constant": true,
      "inputs": [],
      "name": "name",
      "outputs": [
        {
          "internalType": "string",
          "name": "",
          "type": "string"
        }
      ],
      "payable": false,
      "stateMutability": "view",
      "type": "function"
    },
    {
      "constant": true,
      "inputs": [],
      "name": "oracle",
      "outputs": [
        {
          "internalType": "contract IOracle",
          "name": "",
          "type": "address"
        }
      ],
      "payable": false,
      "stateMutability": "view",
      "type": "function"
    },
    {
      "constant": true,
      "inputs": [
        {
          "internalType": "uint256",
          "name": "epoch",
          "type": "uint256"
        }
      ],
      "name": "outstandingCoupons",
      "outputs": [
        {
          "internalType": "uint256",
          "name": "",
          "type": "uint256"
        }
      ],
      "payable": false,
      "stateMutability": "view",
      "type": "function"
    },
    {
      "constant": true,
      "inputs": [
        {
          "internalType": "address",
          "name": "candidate",
          "type": "address"
        }
      ],
      "name": "periodFor",
      "outputs": [
        {
          "internalType": "uint256",
          "name": "",
          "type": "uint256"
        }
      ],
      "payable": false,
      "stateMutability": "view",
      "type": "function"
    },
    {
      "constant": true,
      "inputs": [],
      "name": "pool",
      "outputs": [
        {
          "internalType": "address",
          "name": "",
          "type": "address"
        }
      ],
      "payable": false,
      "stateMutability": "view",
      "type": "function"
    },
    {
      "constant": true,
      "inputs": [
        {
          "internalType": "address",
          "name": "account",
          "type": "address"
        },
        {
          "internalType": "address",
          "name": "candidate",
          "type": "address"
        }
      ],
      "name": "recordedVote",
      "outputs": [
        {
          "internalType": "enum Candidate.Vote",
          "name": "",
          "type": "uint8"
        }
      ],
      "payable": false,
      "stateMutability": "view",
      "type": "function"
    },
    {
      "constant": true,
      "inputs": [
        {
          "internalType": "address",
          "name": "candidate",
          "type": "address"
        }
      ],
      "name": "rejectFor",
      "outputs": [
        {
          "internalType": "uint256",
          "name": "",
          "type": "uint256"
        }
      ],
      "payable": false,
      "stateMutability": "view",
      "type": "function"
    },
    {
      "constant": true,
      "inputs": [
        {
          "internalType": "address",
          "name": "candidate",
          "type": "address"
        }
      ],
      "name": "startFor",
      "outputs": [
        {
          "internalType": "uint256",
          "name": "",
          "type": "uint256"
        }
      ],
      "payable": false,
      "stateMutability": "view",
      "type": "function"
    },
    {
      "constant": true,
      "inputs": [
        {
          "internalType": "address",
          "name": "account",
          "type": "address"
        }
      ],
      "name": "statusOf",
      "outputs": [
        {
          "internalType": "enum Account.Status",
          "name": "",
          "type": "uint8"
        }
      ],
      "payable": false,
      "stateMutability": "view",
      "type": "function"
    },
    {
      "constant": true,
      "inputs": [],
      "name": "symbol",
      "outputs": [
        {
          "internalType": "string",
          "name": "",
          "type": "string"
        }
      ],
      "payable": false,
      "stateMutability": "view",
      "type": "function"
    },
    {
      "constant": true,
      "inputs": [],
      "name": "totalBonded",
      "outputs": [
        {
          "internalType": "uint256",
          "name": "",
          "type": "uint256"
        }
      ],
      "payable": false,
      "stateMutability": "view",
      "type": "function"
    },
    {
      "constant": true,
      "inputs": [
        {
          "internalType": "uint256",
          "name": "epoch",
          "type": "uint256"
        }
      ],
      "name": "totalBondedAt",
      "outputs": [
        {
          "internalType": "uint256",
          "name": "",
          "type": "uint256"
        }
      ],
      "payable": false,
      "stateMutability": "view",
      "type": "function"
    },
    {
      "constant": true,
      "inputs": [],
      "name": "totalCoupons",
      "outputs": [
        {
          "internalType": "uint256",
          "name": "",
          "type": "uint256"
        }
      ],
      "payable": false,
      "stateMutability": "view",
      "type": "function"
    },
    {
      "constant": true,
      "inputs": [],
      "name": "totalDebt",
      "outputs": [
        {
          "internalType": "uint256",
          "name": "",
          "type": "uint256"
        }
      ],
      "payable": false,
      "stateMutability": "view",
      "type": "function"
    },
    {
      "constant": true,
      "inputs": [],
      "name": "totalNet",
      "outputs": [
        {
          "internalType": "uint256",
          "name": "",
          "type": "uint256"
        }
      ],
      "payable": false,
      "stateMutability": "view",
      "type": "function"
    },
    {
      "constant": true,
      "inputs": [],
      "name": "totalRedeemable",
      "outputs": [
        {
          "internalType": "uint256",
          "name": "",
          "type": "uint256"
        }
      ],
      "payable": false,
      "stateMutability": "view",
      "type": "function"
    },
    {
      "constant": true,
      "inputs": [],
      "name": "totalStaged",
      "outputs": [
        {
          "internalType": "uint256",
          "name": "",
          "type": "uint256"
        }
      ],
      "payable": false,
      "stateMutability": "view",
      "type": "function"
    },
    {
      "constant": true,
      "inputs": [],
      "name": "totalSupply",
      "outputs": [
        {
          "internalType": "uint256",
          "name": "",
          "type": "uint256"
        }
      ],
      "payable": false,
      "stateMutability": "view",
      "type": "function"
    },
    {
      "constant": false,
      "inputs": [
        {
          "internalType": "address",
          "name": "recipient",
          "type": "address"
        },
        {
          "internalType": "uint256",
          "name": "amount",
          "type": "uint256"
        }
      ],
      "name": "transfer",
      "outputs": [
        {
          "internalType": "bool",
          "name": "",
          "type": "bool"
        }
      ],
      "payable": false,
      "stateMutability": "nonpayable",
      "type": "function"
    },
    {
      "constant": false,
      "inputs": [
        {
          "internalType": "address",
          "name": "sender",
          "type": "address"
        },
        {
          "internalType": "address",
          "name": "recipient",
          "type": "address"
        },
        {
          "internalType": "uint256",
          "name": "amount",
          "type": "uint256"
        }
      ],
      "name": "transferFrom",
      "outputs": [
        {
          "internalType": "bool",
          "name": "",
          "type": "bool"
        }
      ],
      "payable": false,
      "stateMutability": "nonpayable",
      "type": "function"
    },
    {
      "constant": true,
      "inputs": [
        {
          "internalType": "address",
          "name": "candidate",
          "type": "address"
        }
      ],
      "name": "votesFor",
      "outputs": [
        {
          "internalType": "uint256",
          "name": "",
          "type": "uint256"
        }
      ],
      "payable": false,
      "stateMutability": "view",
      "type": "function"
    },
    {
      "constant": false,
      "inputs": [
        {
          "internalType": "uint256",
          "name": "amount",
          "type": "uint256"
        }
      ],
      "name": "incrementTotalBondedE",
      "outputs": [],
      "payable": false,
      "stateMutability": "nonpayable",
      "type": "function"
    },
    {
      "constant": false,
      "inputs": [
        {
          "internalType": "uint256",
          "name": "amount",
          "type": "uint256"
        },
        {
          "internalType": "string",
          "name": "reason",
          "type": "string"
        }
      ],
      "name": "decrementTotalBondedE",
      "outputs": [],
      "payable": false,
      "stateMutability": "nonpayable",
      "type": "function"
    },
    {
      "constant": false,
      "inputs": [
        {
          "internalType": "uint256",
          "name": "amount",
          "type": "uint256"
        }
      ],
      "name": "incrementTotalDebtE",
      "outputs": [],
      "payable": false,
      "stateMutability": "nonpayable",
      "type": "function"
    },
    {
      "constant": false,
      "inputs": [
        {
          "internalType": "uint256",
          "name": "amount",
          "type": "uint256"
        },
        {
          "internalType": "string",
          "name": "reason",
          "type": "string"
        }
      ],
      "name": "decrementTotalDebtE",
      "outputs": [],
      "payable": false,
      "stateMutability": "nonpayable",
      "type": "function"
    },
    {
      "constant": false,
      "inputs": [
        {
          "internalType": "uint256",
          "name": "amount",
          "type": "uint256"
        }
      ],
      "name": "incrementTotalRedeemableE",
      "outputs": [],
      "payable": false,
      "stateMutability": "nonpayable",
      "type": "function"
    },
    {
      "constant": false,
      "inputs": [
        {
          "internalType": "uint256",
          "name": "amount",
          "type": "uint256"
        },
        {
          "internalType": "string",
          "name": "reason",
          "type": "string"
        }
      ],
      "name": "decrementTotalRedeemableE",
      "outputs": [],
      "payable": false,
      "stateMutability": "nonpayable",
      "type": "function"
    },
    {
      "constant": false,
      "inputs": [
        {
          "internalType": "address",
          "name": "account",
          "type": "address"
        },
        {
          "internalType": "uint256",
          "name": "amount",
          "type": "uint256"
        }
      ],
      "name": "incrementBalanceOfE",
      "outputs": [],
      "payable": false,
      "stateMutability": "nonpayable",
      "type": "function"
    },
    {
      "constant": false,
      "inputs": [
        {
          "internalType": "address",
          "name": "account",
          "type": "address"
        },
        {
          "internalType": "uint256",
          "name": "amount",
          "type": "uint256"
        },
        {
          "internalType": "string",
          "name": "reason",
          "type": "string"
        }
      ],
      "name": "decrementBalanceOfE",
      "outputs": [],
      "payable": false,
      "stateMutability": "nonpayable",
      "type": "function"
    },
    {
      "constant": false,
      "inputs": [
        {
          "internalType": "address",
          "name": "account",
          "type": "address"
        },
        {
          "internalType": "uint256",
          "name": "amount",
          "type": "uint256"
        }
      ],
      "name": "incrementBalanceOfStagedE",
      "outputs": [],
      "payable": false,
      "stateMutability": "nonpayable",
      "type": "function"
    },
    {
      "constant": false,
      "inputs": [
        {
          "internalType": "address",
          "name": "account",
          "type": "address"
        },
        {
          "internalType": "uint256",
          "name": "amount",
          "type": "uint256"
        },
        {
          "internalType": "string",
          "name": "reason",
          "type": "string"
        }
      ],
      "name": "decrementBalanceOfStagedE",
      "outputs": [],
      "payable": false,
      "stateMutability": "nonpayable",
      "type": "function"
    },
    {
      "constant": false,
      "inputs": [
        {
          "internalType": "address",
          "name": "account",
          "type": "address"
        },
        {
          "internalType": "uint256",
          "name": "epoch",
          "type": "uint256"
        },
        {
          "internalType": "uint256",
          "name": "amount",
          "type": "uint256"
        }
      ],
      "name": "incrementBalanceOfCouponsE",
      "outputs": [],
      "payable": false,
      "stateMutability": "nonpayable",
      "type": "function"
    },
    {
      "constant": false,
      "inputs": [
        {
          "internalType": "address",
          "name": "account",
          "type": "address"
        },
        {
          "internalType": "uint256",
          "name": "epoch",
          "type": "uint256"
        },
        {
          "internalType": "uint256",
          "name": "amount",
          "type": "uint256"
        },
        {
          "internalType": "string",
          "name": "reason",
          "type": "string"
        }
      ],
      "name": "decrementBalanceOfCouponsE",
      "outputs": [],
      "payable": false,
      "stateMutability": "nonpayable",
      "type": "function"
    },
    {
      "constant": false,
      "inputs": [
        {
          "internalType": "address",
          "name": "account",
          "type": "address"
        }
      ],
      "name": "unfreezeE",
      "outputs": [],
      "payable": false,
      "stateMutability": "nonpayable",
      "type": "function"
    },
    {
      "constant": false,
      "inputs": [
        {
          "internalType": "address",
          "name": "owner",
          "type": "address"
        },
        {
          "internalType": "address",
          "name": "spender",
          "type": "address"
        },
        {
          "internalType": "uint256",
          "name": "amount",
          "type": "uint256"
        }
      ],
      "name": "updateAllowanceCouponsE",
      "outputs": [],
      "payable": false,
      "stateMutability": "nonpayable",
      "type": "function"
    },
    {
      "constant": false,
      "inputs": [
        {
          "internalType": "address",
          "name": "owner",
          "type": "address"
        },
        {
          "internalType": "address",
          "name": "spender",
          "type": "address"
        },
        {
          "internalType": "uint256",
          "name": "amount",
          "type": "uint256"
        },
        {
          "internalType": "string",
          "name": "reason",
          "type": "string"
        }
      ],
      "name": "decrementAllowanceCouponsE",
      "outputs": [],
      "payable": false,
      "stateMutability": "nonpayable",
      "type": "function"
    },
    {
      "constant": false,
      "inputs": [
        {
          "internalType": "uint256",
          "name": "start",
          "type": "uint256"
        },
        {
          "internalType": "uint256",
          "name": "period",
          "type": "uint256"
        }
      ],
      "name": "setEpochParamsE",
      "outputs": [],
      "payable": false,
      "stateMutability": "nonpayable",
      "type": "function"
    },
    {
      "constant": false,
      "inputs": [],
      "name": "incrementEpochE",
      "outputs": [],
      "payable": false,
      "stateMutability": "nonpayable",
      "type": "function"
    },
    {
      "constant": false,
      "inputs": [],
      "name": "snapshotTotalBondedE",
      "outputs": [],
      "payable": false,
      "stateMutability": "nonpayable",
      "type": "function"
    },
    {
      "constant": false,
      "inputs": [
        {
          "internalType": "uint256",
          "name": "epoch",
          "type": "uint256"
        },
        {
          "internalType": "uint256",
          "name": "expiration",
          "type": "uint256"
        }
      ],
      "name": "initializeCouponsExpirationE",
      "outputs": [],
      "payable": false,
      "stateMutability": "nonpayable",
      "type": "function"
    },
    {
      "constant": false,
      "inputs": [
        {
          "internalType": "uint256",
          "name": "epoch",
          "type": "uint256"
        }
      ],
      "name": "eliminateOutstandingCouponsE",
      "outputs": [],
      "payable": false,
      "stateMutability": "nonpayable",
      "type": "function"
    },
    {
      "constant": false,
      "inputs": [
        {
          "internalType": "uint256",
          "name": "epoch",
          "type": "uint256"
        }
      ],
      "name": "isCouponAuctionInitAtEpochE",
      "outputs": [
        {
          "internalType": "bool",
          "name": "",
          "type": "bool"
        }
      ],
      "payable": false,
      "stateMutability": "nonpayable",
      "type": "function"
    },
    {
      "constant": false,
      "inputs": [
        {
          "internalType": "address",
          "name": "candidate",
          "type": "address"
        },
        {
          "internalType": "uint256",
          "name": "period",
          "type": "uint256"
        }
      ],
      "name": "createCandidateE",
      "outputs": [],
      "payable": false,
      "stateMutability": "nonpayable",
      "type": "function"
    },
    {
      "constant": false,
      "inputs": [
        {
          "internalType": "address",
          "name": "account",
          "type": "address"
        },
        {
          "internalType": "address",
          "name": "candidate",
          "type": "address"
        },
        {
          "internalType": "enum Candidate.Vote",
          "name": "vote",
          "type": "uint8"
        }
      ],
      "name": "recordVoteE",
      "outputs": [],
      "payable": false,
      "stateMutability": "nonpayable",
      "type": "function"
    },
    {
      "constant": false,
      "inputs": [
        {
          "internalType": "address",
          "name": "candidate",
          "type": "address"
        },
        {
          "internalType": "uint256",
          "name": "amount",
          "type": "uint256"
        }
      ],
      "name": "incrementApproveForE",
      "outputs": [],
      "payable": false,
      "stateMutability": "nonpayable",
      "type": "function"
    },
    {
      "constant": false,
      "inputs": [
        {
          "internalType": "address",
          "name": "candidate",
          "type": "address"
        },
        {
          "internalType": "uint256",
          "name": "amount",
          "type": "uint256"
        },
        {
          "internalType": "string",
          "name": "reason",
          "type": "string"
        }
      ],
      "name": "decrementApproveForE",
      "outputs": [],
      "payable": false,
      "stateMutability": "nonpayable",
      "type": "function"
    },
    {
      "constant": false,
      "inputs": [
        {
          "internalType": "address",
          "name": "candidate",
          "type": "address"
        },
        {
          "internalType": "uint256",
          "name": "amount",
          "type": "uint256"
        }
      ],
      "name": "incrementRejectForE",
      "outputs": [],
      "payable": false,
      "stateMutability": "nonpayable",
      "type": "function"
    },
    {
      "constant": false,
      "inputs": [
        {
          "internalType": "address",
          "name": "candidate",
          "type": "address"
        },
        {
          "internalType": "uint256",
          "name": "amount",
          "type": "uint256"
        },
        {
          "internalType": "string",
          "name": "reason",
          "type": "string"
        }
      ],
      "name": "decrementRejectForE",
      "outputs": [],
      "payable": false,
      "stateMutability": "nonpayable",
      "type": "function"
    },
    {
      "constant": false,
      "inputs": [
        {
          "internalType": "address",
          "name": "account",
          "type": "address"
        },
        {
          "internalType": "address",
          "name": "candidate",
          "type": "address"
        }
      ],
      "name": "placeLockE",
      "outputs": [],
      "payable": false,
      "stateMutability": "nonpayable",
      "type": "function"
    },
    {
      "constant": false,
      "inputs": [
        {
          "internalType": "address",
          "name": "candidate",
          "type": "address"
        }
      ],
      "name": "initializedE",
      "outputs": [],
      "payable": false,
      "stateMutability": "nonpayable",
      "type": "function"
    },
    {
      "constant": false,
      "inputs": [
        {
          "internalType": "uint256",
          "name": "timestamp",
          "type": "uint256"
        }
      ],
      "name": "setBlockTimestamp",
      "outputs": [],
      "payable": false,
      "stateMutability": "nonpayable",
      "type": "function"
    }
  ],
  "bytecode": "0x608060405234801561001057600080fd5b5042600f556122cf806100246000396000f3fe608060405234801561001057600080fd5b50600436106104965760003560e01c80638de2e57311610262578063bc7513e211610151578063d6d8816d116100ce578063eeaca09b11610092578063eeaca09b146109dd578063f1b7cf49146109f0578063f35adf7e14610a03578063f7a3181814610a0b578063fc7b9c1814610a1e578063ffbe3b7314610a2657610496565b8063d6d8816d14610983578063d83d3ed514610996578063dd62ed3e146109a9578063dde74dc3146109b7578063e0abdf66146109ca57610496565b8063cb0fbc7111610115578063cb0fbc711461092f578063cc8d823c14610942578063cf02377914610955578063d53c6f5f1461095d578063d60b347f1461097057610496565b8063bc7513e2146108d0578063c1410c02146108e3578063c2aeb5fe146108f6578063c34eee6514610909578063c9aff70c1461091c57610496565b8063a00e14d1116101df578063a9b3cf15116101a3578063a9b3cf1514610871578063adbff2be14610884578063ae5c238114610897578063b11ee0e3146108aa578063b32a2f90146108bd57610496565b8063a00e14d114610830578063a50cd8e714610843578063a6c409f114610856578063a6f37b531461085e578063a9059cbb146104b957610496565b80639b82b49b116102265780639b82b49b146107d15780639bc289f1146107e45780639be46493146107f75780639f1a09291461080a5780639f6e1b261461081d57610496565b80638de2e57314610793578063900cf0cf146107a657806395d89b41146107ae57806397a5d5b5146107b65780639a649edc146107c957610496565b80633fd4973c116103895780636b862d66116103065780637cb95a32116102ca5780637cb95a321461072c5780637d8bb8691461073f5780637dc0d1d014610752578063825ad6071461075a5780638413e52a1461076d57806386cf9f141461078057610496565b80636b862d66146106d857806370a08231146106eb57806371c511eb146106fe57806372924d2a1461070657806375d5024b1461071957610496565b806351bf21d81161034d57806351bf21d814610684578063520acb76146106975780635c60da1b146106aa57806364668022146106b25780636a39e328146106c557610496565b80633fd4973c1461063957806344d96e951461064c5780634c736099146106545780635053e4611461066757806351adeb571461066f57610496565b806323b872dd11610417578063353a420c116103db578063353a420c146105cd5780633a3e6c81146105e05780633dc905c7146105f35780633f7bcaf3146106065780633fbba9a61461061957610496565b806323b872dd1461056c578063259f7adf1461057f5780632d7f23b314610592578063313ce567146105a557806332347422146105ba57610496565b806315e14bf61161045e57806315e14bf61461052157806316f0115b1461053457806318160ddd146105495780631a08e22a146105515780631edbcf6c1461056457610496565b806306fdde031461049b578063095ea7b3146104b95780630dc6d3a3146104d957806310e95b6c146104ee5780631550ec241461050e575b600080fd5b6104a3610a39565b6040516104b09190612183565b60405180910390f35b6104cc6104c7366004611eab565b610a70565b6040516104b09190612159565b6104ec6104e7366004611e2d565b610a79565b005b6105016104fc366004611faa565b610ac2565b6040516104b091906121b4565b6104cc61051c366004611faa565b610ada565b61050161052f366004611d3d565b610aef565b61053c610b0d565b6040516104b0919061214b565b610501610b1c565b6104ec61055f36600461203c565b610b22565b610501610b30565b6104cc61057a366004611dea565b610b36565b6104ec61058d366004611faa565b610b3f565b6105016105a0366004611faa565b610b4b565b6105ad610b60565b6040516104b091906121c2565b6104ec6105c8366004611fe6565b610b65565b6105016105db366004611d3d565b610baa565b6104cc6105ee366004611d3d565b610bc8565b610501610601366004611faa565b610be5565b6104ec610614366004611dea565b610bfa565b61062c610627366004611d63565b610c05565b6040516104b09190612175565b6104ec610647366004611edb565b610c38565b610501610c7f565b61050161066236600461203c565b610c85565b610501610cb5565b610677610cd8565b6040516104b09190612167565b610501610692366004611d3d565b610ce7565b6105016106a5366004611faa565b610d05565b61053c610d1a565b6105016106c0366004611d3d565b610d3f565b6105016106d3366004611faa565b610d5d565b6104ec6106e6366004611f43565b610d72565b6105016106f9366004611d3d565b610d7d565b6104ec610d9b565b6104ec610714366004611fe6565b610da5565b6104cc610727366004611faa565b610de5565b6104ec61073a366004611edb565b610df8565b61050161074d366004611faa565b610e39565b610677610e4e565b610501610768366004611d3d565b610e5d565b6104ec61077b366004611d9d565b610eb0565b61050161078e366004611d3d565b610ebb565b6104ec6107a1366004611faa565b610ed6565b610501610edf565b6104a3610ee5565b61062c6107c4366004611d3d565b610f03565b610501610f68565b6104ec6107df366004611fe6565b610f6e565b6105016107f2366004611d3d565b610fae565b6104ec610805366004611d3d565b610fcc565b610501610818366004611faa565b610fd5565b61050161082b366004611d63565b610feb565b6104ec61083e36600461203c565b61101a565b610501610851366004611d3d565b611025565b610501611048565b6104ec61086c366004611d3d565b6110de565b6104ec61087f366004611faa565b6110e7565b6104ec610892366004611edb565b6110f0565b6104ec6108a5366004611eab565b611131565b6104ec6108b8366004611eab565b61113b565b6104ec6108cb366004611edb565b611145565b6105016108de366004611eab565b611186565b6104ec6108f1366004611d63565b6111ca565b6104ec610904366004611f75565b6111d4565b610501610917366004611faa565b611216565b61050161092a366004611faa565b61122b565b61050161093d366004611faa565b611240565b6104ec610950366004611eab565b611255565b61050161125f565b61050161096b366004611faa565b611265565b6104cc61097e366004611d3d565b61127a565b6104ec610991366004611faa565b61129b565b6104ec6109a4366004611eab565b6112a4565b6105016104c7366004611d63565b6105016109c5366004611faa565b6112ae565b6104ec6109d8366004611faa565b6112c3565b6105016109eb366004611faa565b6112c8565b6105016109fe366004611d3d565b6112dd565b6104ec6112f8565b6104ec610a19366004611eab565b611300565b61050161130a565b610501610a34366004611faa565b611310565b60408051808201909152601881527f44796e616d69632053657420446f6c6c6172205374616b650000000000000000602082015290565b60005b92915050565b610abb85858585858080601f01602080910402602001604051908101604052809392919081815260200183838082843760009201919091525061132292505050565b5050505050565b6000818152600d60205260409020600201545b919050565b6000610ae582611393565b5460ff1692915050565b6001600160a01b03166000908152600e602052604090206001015490565b600b546001600160a01b031690565b60035490565b610b2c82826113a7565b5050565b60065490565b60009392505050565b610b48816113d9565b50565b6000908152600d60205260409020600a015490565b601290565b610ba58383838080601f0160208091040260200160405190810160405280939291908181526020018383808284376000920191909152506113f292505050565b505050565b6001600160a01b03166000908152600e602052604090206003015490565b6001600160a01b03166000908152600e6020526040902054151590565b6000908152600d60205260409020600e015490565b610ba583838361140d565b6001600160a01b038082166000908152600e60209081526040808320938616835260049093019052205460ff1692915050565b610c79848484848080601f01602080910402602001604051908101604052809392919081815260200183838082843760009201919091525061143d92505050565b50505050565b60045490565b6000828152600d60205260408120600301805483908110610ca257fe5b9060005260206000200154905092915050565b6000610cbf611ca7565b610cc761148e565b9050610cd2816114bd565b91505090565b6009546001600160a01b031690565b6001600160a01b03166000908152600c602052604090206004015490565b6000908152600d602052604090206010015490565b7f360894a13ba1a3210667c828492db98dca3e2076cc3735a920a3ca505d382bbc5490565b6001600160a01b03166000908152600e602052604090206002015490565b6000908152600d602052604090206003015490565b610ba58383836114df565b6001600160a01b03166000908152600c602052604090206001015490565b610da3611586565b565b610ba58383838080601f0160208091040260200160405190810160405280939291908181526020018383808284376000920191909152506115ad92505050565b6000610def6115c8565b90911115919050565b610c79848484848080601f0160208091040260200160405190810160405280939291908181526020018383808284376000920191909152506115cd92505050565b6000908152600d602052604090206012015490565b600a546001600160a01b031690565b600080610e68610b1c565b905080610e79576000915050610ad5565b610ea981610e9d610e8986610d7d565b610e91610c7f565b9063ffffffff61161e16565b9063ffffffff61166116565b9392505050565b610ba58383836116a3565b6001600160a01b03166000908152600c602052604090205490565b610b48816116ed565b60025490565b6040805180820190915260048152634453445360e01b602082015290565b6000610f0d610edf565b6001600160a01b0383166000908152600c60205260409020600501541115610f3757506002610ad5565b6001600160a01b0382166000908152600c6020526040902060040154610f5b610edf565b1015610a70576001610a73565b60085490565b610ba58383838080601f01602080910402602001604051908101604052809392919081815260200183838082843760009201919091525061170692505050565b6001600160a01b03166000908152600c602052604090206005015490565b610b4881611721565b6000908152600d60208190526040909120015490565b6001600160a01b039182166000908152600c602090815260408083209390941682526003909201909152205490565b600091909155600155565b6000610a7361103383610baa565b61103c84610d3f565b9063ffffffff61175316565b60006110d961105561130a565b61105d610cd8565b6001600160a01b03166318160ddd6040518163ffffffff1660e01b815260040160206040518083038186803b15801561109557600080fd5b505afa1580156110a9573d6000803e3d6000fd5b505050506040513d601f19601f820116820180604052506110cd9190810190611fc8565b9063ffffffff61177816565b905090565b610b48816117ba565b610b48816117e1565b610c79848484848080601f01602080910402602001604051908101604052809392919081815260200183838082843760009201919091525061182492505050565b610b2c82826118cf565b610b2c8282611977565b610c79848484848080601f0160208091040260200160405190810160405280939291908181526020018383808284376000920191909152506119d392505050565b60006111918261122b565b61119d57506000610a73565b506001600160a01b03919091166000908152600c6020908152604080832093835260029093019052205490565b610b2c8282611a32565b610abb85858585858080601f016020809104026020016040519081016040528093929190818152602001838380828437600092019190915250611a9292505050565b6000908152600d602052604090206011015490565b6000908152600d602052604090206001015490565b6000908152600d602052604090206013015490565b610b2c8282611b3d565b60055490565b6000908152600d60205260409020600f015490565b6001600160a01b03166000908152600e602052604090206005015460ff1690565b610b4881611b8c565b610b2c8282611ba5565b6000908152600d60205260409020600c015490565b600f55565b6000908152600d60205260409020600b015490565b6001600160a01b03166000908152600e602052604090205490565b610da3611bd1565b610b2c8282611bea565b60075490565b6000908152600d602052604090205490565b6001600160a01b038085166000908152600c60209081526040808320938716835260039093019052205461135d90838363ffffffff611c3916565b6001600160a01b039485166000908152600c60209081526040808320969097168252600390950190945293909220929092555050565b6000908152600d6020526040902060040190565b6000828152600d6020908152604080832060020184905592825291812060030180546001810182559082529190200155565b6004546113ec908263ffffffff61175316565b60045550565b60065461140690838363ffffffff611c3916565b6006555050565b6001600160a01b039283166000908152600c60209081526040808320949095168252600390930190925291902055565b6001600160a01b0383166000908152600e602052604090206003015461146a90838363ffffffff611c3916565b6001600160a01b039093166000908152600e60205260409020600301929092555050565b611496611ca7565b604051806060016040528060008152602001635fbef0008152602001611c20815250905090565b6000610a73826000015161103c8460400151610e9d86602001516110cd611c65565b6001600160a01b0383166000908152600c60209081526040808320858452600201909152902054611516908263ffffffff61175316565b6001600160a01b0384166000908152600c60209081526040808320868452600201825280832093909355600d90522060010154611559908263ffffffff61175316565b6000838152600d602052604090206001015560085461157e908263ffffffff61175316565b600855505050565b61158e610b1c565b600d600061159a610edf565b8152602081019190915260400160002055565b6007546115c190838363ffffffff611c3916565b6007555050565b609690565b6001600160a01b0383166000908152600e60205260409020600201546115fa90838363ffffffff611c3916565b6001600160a01b039093166000908152600e60205260409020600201929092555050565b60008261162d57506000610a73565b8282028284828161163a57fe5b0414610ea95760405162461bcd60e51b8152600401611658906121a4565b60405180910390fd5b6000610ea983836040518060400160405280601a81526020017f536166654d6174683a206469766973696f6e206279207a65726f000000000000815250611c6b565b6001600160a01b038083166000908152600e6020908152604080832093871683526004909301905220805482919060ff191660018360028111156116e357fe5b0217905550505050565b600754611700908263ffffffff61175316565b60075550565b60045461171a90838363ffffffff611c3916565b6004555050565b61173461172c611ca2565b61103c610edf565b6001600160a01b039091166000908152600c6020526040902060040155565b600082820183811015610ea95760405162461bcd60e51b815260040161165890612194565b6000610ea983836040518060400160405280601e81526020017f536166654d6174683a207375627472616374696f6e206f766572666c6f770000815250611c39565b6001600160a01b03166000908152600e60205260409020600501805460ff19166001179055565b60006117ec8261122b565b9050806117f95750610b48565b60085461180c908263ffffffff61177816565b600855506000908152600d6020526040812060010155565b6001600160a01b0383166000908152600c602052604090206001015461185190838363ffffffff611c3916565b6001600160a01b0384166000908152600c602052604090206001015560035461188190838363ffffffff611c3916565b6003556040516000906001600160a01b038516907fddf252ad1be2c89b69c2b068fc378daa952ba7f163c4a11628f55a4df523b3ef906118c29086906121b4565b60405180910390a3505050565b6001600160a01b0382166000908152600c60205260409020600101546118fb908263ffffffff61175316565b6001600160a01b0383166000908152600c602052604090206001015560035461192a908263ffffffff61175316565b6003556040516001600160a01b038316906000907fddf252ad1be2c89b69c2b068fc378daa952ba7f163c4a11628f55a4df523b3ef9061196b9085906121b4565b60405180910390a35050565b6001600160a01b0382166000908152600c60205260409020546119a0908263ffffffff61175316565b6001600160a01b0383166000908152600c60205260409020556005546119cc908263ffffffff61175316565b6005555050565b6001600160a01b0383166000908152600c60205260409020546119fd90838363ffffffff611c3916565b6001600160a01b0384166000908152600c6020526040902055600554611a2a90838363ffffffff611c3916565b600555505050565b6001600160a01b0382166000908152600c602052604081206005015490611a64611a5b84610aef565b61103c856112dd565b905081811115610c79576001600160a01b0384166000908152600c6020526040902060050181905550505050565b6001600160a01b0384166000908152600c60209081526040808320868452600201909152902054611aca90838363ffffffff611c3916565b6001600160a01b0385166000908152600c60209081526040808320878452600201825280832093909355600d90522060010154611b0e90838363ffffffff611c3916565b6000848152600d6020526040902060010155600854611b3490838363ffffffff611c3916565b60085550505050565b6001600160a01b0382166000908152600e6020526040902060030154611b69908263ffffffff61175316565b6001600160a01b039092166000908152600e602052604090206003019190915550565b600654611b9f908263ffffffff61175316565b60065550565b611bad610edf565b6001600160a01b039092166000908152600e60205260409020918255600190910155565b600254611be590600163ffffffff61175316565b600255565b6001600160a01b0382166000908152600e6020526040902060020154611c16908263ffffffff61175316565b6001600160a01b039092166000908152600e602052604090206002019190915550565b60008184841115611c5d5760405162461bcd60e51b81526004016116589190612183565b505050900390565b600f5490565b60008183611c8c5760405162461bcd60e51b81526004016116589190612183565b506000838581611c9857fe5b0495945050505050565b602490565b60405180606001604052806000815260200160008152602001600081525090565b8035610a7381612262565b8035610a7381612276565b60008083601f840112611cf057600080fd5b50813567ffffffffffffffff811115611d0857600080fd5b602083019150836001820283011115611d2057600080fd5b9250929050565b8035610a7381612283565b8051610a7381612283565b600060208284031215611d4f57600080fd5b6000611d5b8484611cc8565b949350505050565b60008060408385031215611d7657600080fd5b6000611d828585611cc8565b9250506020611d9385828601611cc8565b9150509250929050565b600080600060608486031215611db257600080fd5b6000611dbe8686611cc8565b9350506020611dcf86828701611cc8565b9250506040611de086828701611cd3565b9150509250925092565b600080600060608486031215611dff57600080fd5b6000611e0b8686611cc8565b9350506020611e1c86828701611cc8565b9250506040611de086828701611d27565b600080600080600060808688031215611e4557600080fd5b6000611e518888611cc8565b9550506020611e6288828901611cc8565b9450506040611e7388828901611d27565b935050606086013567ffffffffffffffff811115611e9057600080fd5b611e9c88828901611cde565b92509250509295509295909350565b60008060408385031215611ebe57600080fd5b6000611eca8585611cc8565b9250506020611d9385828601611d27565b60008060008060608587031215611ef157600080fd5b6000611efd8787611cc8565b9450506020611f0e87828801611d27565b935050604085013567ffffffffffffffff811115611f2b57600080fd5b611f3787828801611cde565b95989497509550505050565b600080600060608486031215611f5857600080fd5b6000611f648686611cc8565b9350506020611e1c86828701611d27565b600080600080600060808688031215611f8d57600080fd5b6000611f998888611cc8565b9550506020611e6288828901611d27565b600060208284031215611fbc57600080fd5b6000611d5b8484611d27565b600060208284031215611fda57600080fd5b6000611d5b8484611d32565b600080600060408486031215611ffb57600080fd5b60006120078686611d27565b935050602084013567ffffffffffffffff81111561202457600080fd5b61203086828701611cde565b92509250509250925092565b6000806040838503121561204f57600080fd5b6000611eca8585611d27565b612064816121dd565b82525050565b612064816121e8565b6120648161220c565b61206481612217565b6000612090826121d0565b61209a81856121d4565b93506120aa818560208601612222565b6120b38161224e565b9093019392505050565b60006120ca601b836121d4565b7f536166654d6174683a206164646974696f6e206f766572666c6f770000000000815260200192915050565b60006121036021836121d4565b7f536166654d6174683a206d756c7469706c69636174696f6e206f766572666c6f8152607760f81b602082015260400192915050565b61206481612203565b61206481612206565b60208101610a73828461205b565b60208101610a73828461206a565b60208101610a738284612073565b60208101610a73828461207c565b60208082528101610ea98184612085565b60208082528101610a73816120bd565b60208082528101610a73816120f6565b60208101610a738284612139565b60208101610a738284612142565b5190565b90815260200190565b6000610a73826121f7565b151590565b80610ad581612258565b6001600160a01b031690565b90565b60ff1690565b6000610a73826121dd565b6000610a73826121ed565b60005b8381101561223d578181015183820152602001612225565b83811115610c795750506000910152565b601f01601f191690565b60038110610b4857fe5b61226b816121dd565b8114610b4857600080fd5b60038110610b4857600080fd5b61226b8161220356fea365627a7a723158209b51e2e3059a161745b820030b2a94f2f1af0f54759b52ad0e1d0c0271c3c1426c6578706572696d656e74616cf564736f6c63430005110040",
  "source": "/*\n    Copyright 2020 Dynamic Dollar Devs, based on the works of the Empty Set Squad\n\n    Licensed under the Apache License, Version 2.0 (the \"License\");\n    you may not use this file except in compliance with the License.\n    You may obtain a copy of the License at\n\n    http://www.apache.org/licenses/LICENSE-2.0\n\n    Unless required by applicable law or agreed to in writing, software\n    distributed under the License is distributed on an \"AS IS\" BASIS,\n    WITHOUT WARRANTIES OR CONDITIONS OF ANY KIND, either express or implied.\n    See the License for the specific language governing permissions and\n    limitations under the License.\n*/\n\npragma solidity ^0.5.17;\npragma experimental ABIEncoderV2;\n\nimport \"../dao/Setters.sol\";\n\ncontract MockState is Setters {\n    uint256 internal _blockTimestamp;\n\n    constructor () public {\n        _blockTimestamp = block.timestamp;\n    }\n\n    /**\n     * Global\n     */\n\n    function incrementTotalBondedE(uint256 amount) external {\n        super.incrementTotalBonded(amount);\n    }\n\n    function decrementTotalBondedE(uint256 amount, string calldata reason) external {\n        super.decrementTotalBonded(amount, reason);\n    }\n\n    function incrementTotalDebtE(uint256 amount) external {\n        super.incrementTotalDebt(amount);\n    }\n\n    function decrementTotalDebtE(uint256 amount, string calldata reason) external {\n        super.decrementTotalDebt(amount, reason);\n    }\n\n    function incrementTotalRedeemableE(uint256 amount) external {\n        super.incrementTotalRedeemable(amount);\n    }\n\n    function decrementTotalRedeemableE(uint256 amount, string calldata reason) external {\n        super.decrementTotalRedeemable(amount, reason);\n    }\n\n    /**\n     * Account\n     */\n\n    function incrementBalanceOfE(address account, uint256 amount) external {\n        super.incrementBalanceOf(account, amount);\n    }\n\n    function decrementBalanceOfE(address account, uint256 amount, string calldata reason) external {\n        super.decrementBalanceOf(account, amount, reason);\n    }\n\n    function incrementBalanceOfStagedE(address account, uint256 amount) external {\n        super.incrementBalanceOfStaged(account, amount);\n    }\n\n    function decrementBalanceOfStagedE(address account, uint256 amount, string calldata reason) external {\n        super.decrementBalanceOfStaged(account, amount, reason);\n    }\n\n    function incrementBalanceOfCouponsE(address account, uint256 epoch, uint256 amount) external {\n        super.incrementBalanceOfCoupons(account, epoch, amount);\n    }\n\n    function decrementBalanceOfCouponsE(address account, uint256 epoch, uint256 amount, string calldata reason) external {\n        super.decrementBalanceOfCoupons(account, epoch, amount, reason);\n    }\n\n    function unfreezeE(address account) external {\n        super.unfreeze(account);\n    }\n\n    function updateAllowanceCouponsE(address owner, address spender, uint256 amount) external {\n        super.updateAllowanceCoupons(owner, spender, amount);\n    }\n\n    function decrementAllowanceCouponsE(address owner, address spender, uint256 amount, string calldata reason) external {\n        super.decrementAllowanceCoupons(owner, spender, amount, reason);\n    }\n\n    /**\n     * Epoch\n     */\n\n    function setEpochParamsE(uint256 start, uint256 period) external {\n        _state.epoch.start = start;\n        _state.epoch.period = period;\n    }\n\n    function incrementEpochE() external {\n        super.incrementEpoch();\n    }\n\n    function snapshotTotalBondedE() external {\n        super.snapshotTotalBonded();\n    }\n\n    function initializeCouponsExpirationE(uint256 epoch, uint256 expiration) external {\n        super.initializeCouponsExpiration(epoch, expiration);\n    }\n\n    function eliminateOutstandingCouponsE(uint256 epoch) external {\n       super.eliminateOutstandingCoupons(epoch);\n    }\n\n    function isCouponAuctionInitAtEpochE(uint256 epoch) external returns (bool) {\n        return super.getCouponAuctionAtEpoch(epoch).isInit;\n    }\n\n\n    /**\n     * Governance\n     */\n\n    function createCandidateE(address candidate, uint256 period) external {\n        super.createCandidate(candidate, period);\n    }\n\n    function recordVoteE(address account, address candidate, Candidate.Vote vote) external {\n        super.recordVote(account, candidate, vote);\n    }\n\n    function incrementApproveForE(address candidate, uint256 amount) external {\n        super.incrementApproveFor(candidate, amount);\n    }\n\n    function decrementApproveForE(address candidate, uint256 amount, string calldata reason) external {\n        super.decrementApproveFor(candidate, amount, reason);\n    }\n\n    function incrementRejectForE(address candidate, uint256 amount) external {\n        super.incrementRejectFor(candidate, amount);\n    }\n\n    function decrementRejectForE(address candidate, uint256 amount, string calldata reason) external {\n        super.decrementRejectFor(candidate, amount, reason);\n    }\n\n    function placeLockE(address account, address candidate) external {\n        super.placeLock(account, candidate);\n    }\n\n    function initializedE(address candidate) external {\n        super.initialized(candidate);\n    }\n\n    /**\n     * Mock\n     */\n\n    function setBlockTimestamp(uint256 timestamp) external {\n        _blockTimestamp = timestamp;\n    }\n\n    function blockTimestamp() internal view returns (uint256) {\n        return _blockTimestamp;\n    }\n}\n",
  "sourcePath": "/Users/cinquemb/Documents/Startups/crypto/dollar/protocol/contracts/mock/MockState.sol",
  "compiler": {
    "name": "solc",
    "version": "0.5.17+commit.d19bba13.Emscripten.clang"
  },
  "schemaVersion": "3.3.3",
  "updatedAt": "2021-01-12T11:27:06.740Z",
  "devdoc": {
    "methods": {}
  },
  "userdoc": {
    "methods": {
      "balanceOfStaged(address)": {
        "notice": "Account"
      },
      "createCandidateE(address,uint256)": {
        "notice": "Governance"
      },
      "dollar()": {
        "notice": "Global"
      },
      "epoch()": {
        "notice": "Epoch"
      },
      "incrementBalanceOfE(address,uint256)": {
        "notice": "Account"
      },
      "incrementTotalBondedE(uint256)": {
        "notice": "Global"
      },
      "name()": {
        "notice": "ERC20 Interface"
      },
      "recordedVote(address,address)": {
        "notice": "Governance"
      },
      "setBlockTimestamp(uint256)": {
        "notice": "Mock"
      },
      "setEpochParamsE(uint256,uint256)": {
        "notice": "Epoch"
      },
      "transfer(address,uint256)": {
        "notice": "ERC20 Interface"
      }
    }
  }
}