{
  "contractName": "MockOracle",
  "abi": [
    {
      "inputs": [
        {
          "internalType": "address",
          "name": "pair",
          "type": "address"
        },
        {
          "internalType": "address",
          "name": "dollar",
          "type": "address"
        },
        {
          "internalType": "address",
          "name": "usdc",
          "type": "address"
        }
      ],
      "payable": false,
      "stateMutability": "nonpayable",
      "type": "constructor"
    },
    {
      "constant": true,
      "inputs": [],
      "name": "pair",
      "outputs": [
        {
          "internalType": "address",
          "name": "",
          "type": "address"
        }
      ],
      "payable": false,
      "stateMutability": "view",
      "type": "function"
    },
    {
      "constant": false,
      "inputs": [],
      "name": "setup",
      "outputs": [],
      "payable": false,
      "stateMutability": "nonpayable",
      "type": "function"
    },
    {
      "constant": false,
      "inputs": [],
      "name": "capture",
      "outputs": [
        {
          "components": [
            {
              "internalType": "uint256",
              "name": "value",
              "type": "uint256"
            }
          ],
          "internalType": "struct Decimal.D256",
          "name": "",
          "type": "tuple"
        },
        {
          "internalType": "bool",
          "name": "",
          "type": "bool"
        }
      ],
      "payable": false,
      "stateMutability": "nonpayable",
      "type": "function"
    },
    {
      "constant": true,
      "inputs": [],
      "name": "latestPrice",
      "outputs": [
        {
          "components": [
            {
              "internalType": "uint256",
              "name": "value",
              "type": "uint256"
            }
          ],
          "internalType": "struct Decimal.D256",
          "name": "",
          "type": "tuple"
        }
      ],
      "payable": false,
      "stateMutability": "view",
      "type": "function"
    },
    {
      "constant": true,
      "inputs": [],
      "name": "latestValid",
      "outputs": [
        {
          "internalType": "bool",
          "name": "",
          "type": "bool"
        }
      ],
      "payable": false,
      "stateMutability": "view",
      "type": "function"
    },
    {
      "constant": true,
      "inputs": [],
      "name": "isInitialized",
      "outputs": [
        {
          "internalType": "bool",
          "name": "",
          "type": "bool"
        }
      ],
      "payable": false,
      "stateMutability": "view",
      "type": "function"
    },
    {
      "constant": true,
      "inputs": [],
      "name": "cumulative",
      "outputs": [
        {
          "internalType": "uint256",
          "name": "",
          "type": "uint256"
        }
      ],
      "payable": false,
      "stateMutability": "view",
      "type": "function"
    },
    {
      "constant": true,
      "inputs": [],
      "name": "timestamp",
      "outputs": [
        {
          "internalType": "uint256",
          "name": "",
          "type": "uint256"
        }
      ],
      "payable": false,
      "stateMutability": "view",
      "type": "function"
    },
    {
      "constant": true,
      "inputs": [],
      "name": "reserve",
      "outputs": [
        {
          "internalType": "uint256",
          "name": "",
          "type": "uint256"
        }
      ],
      "payable": false,
      "stateMutability": "view",
      "type": "function"
    }
  ],
  "bytecode": "0x60806040523480156200001157600080fd5b506040516200131a3803806200131a8339810160408190526200003491620000a9565b60008054336001600160a01b03199182161782556001805482166001600160a01b03958616179055600280549091169484169490941790935560039290925560088054610100600160a81b031916610100939092169290920217905562000129565b8051620000a3816200010f565b92915050565b600080600060608486031215620000bf57600080fd5b6000620000cd868662000096565b9350506020620000e08682870162000096565b9250506040620000f38682870162000096565b9150509250925092565b60006001600160a01b038216620000a3565b6200011a81620000fd565b81146200012657600080fd5b50565b6111e180620001396000396000f3fe608060405234801561001057600080fd5b50600436106100935760003560e01c8063b80777ea11610066578063b80777ea146100f5578063ba0bba40146100fd578063cd3293de14610107578063d4a3e9d71461010f578063f8cd50a21461012557610093565b8063392e53cd146100985780637ae176ff146100b6578063a3e6ba94146100cb578063a8aa1b31146100e0575b600080fd5b6100a061012d565b6040516100ad9190611069565b60405180910390f35b6100be61013d565b6040516100ad91906110d1565b6100d3610143565b6040516100ad91906110a8565b6100e861015f565b6040516100ad9190611040565b6100be61016e565b61010561017a565b005b6100be6103ce565b6101176103d4565b6040516100ad9291906110b6565b6100a061041a565b600154600160a01b900460ff1690565b60045490565b61014b610db7565b506040805160208101909152600754815290565b6002546001600160a01b031690565b60055463ffffffff1690565b6000546101a6906001600160a01b03163314654f7261636c6560d01b664e6f742064616f60c81b610423565b600154735c69bee701ef814a2b6a3edd4b1652cb9cc5aa6f9063c9c65396906001600160a01b03166101d6610486565b6040518363ffffffff1660e01b81526004016101f392919061104e565b602060405180830381600087803b15801561020d57600080fd5b505af1158015610221573d6000803e3d6000fd5b505050506040513d601f19601f820116820180604052506102459190810190610e13565b600280546001600160a01b0319166001600160a01b03928316179081905560408051630dfe168160e01b8152905160009384931691630dfe1681916004808301926020929190829003018186803b15801561029f57600080fd5b505afa1580156102b3573d6000803e3d6000fd5b505050506040513d601f19601f820116820180604052506102d79190810190610e13565b600260009054906101000a90046001600160a01b03166001600160a01b031663d21220a76040518163ffffffff1660e01b815260040160206040518083038186803b15801561032557600080fd5b505afa158015610339573d6000803e3d6000fd5b505050506040513d601f19601f8201168201806040525061035d9190810190610e13565b60015491935091506001600160a01b0380841691161461037e576001610381565b60005b60ff1660038190556103ca9015806103a657506001546001600160a01b038381169116145b654f7261636c6560d01b701130ee1b1b185c881b9bdd08199bdd5b99607a1b610423565b5050565b60065490565b6103dc610db7565b60006103e661049a565b6008805460ff19169115159190911790819055905160078190556040805160208101909152908152925060ff1690505b9091565b60085460ff1690565b82610481576104318261050d565b6101d160f51b6104408361050d565b6040516020016104529392919061100f565b60408051601f198184030181529082905262461bcd60e51b825261047891600401611077565b60405180910390fd5b505050565b60085461010090046001600160a01b031690565b6104a2610db7565b600080546104cf906001600160a01b03163314654f7261636c6560d01b664e6f742064616f60c81b610423565b600154600160a01b900460ff16156104f2576104e961058f565b91509150610416565b6104fa610684565b61050261088e565b600091509150610416565b606080826040516020016105219190610ffa565b60408051601f19818403018152919052905060205b80156105765781516000199091019082908290811061055157fe5b01602001516001600160f81b03191615610571576001018152905061058a565b610536565b505060408051600081526020810190915290505b919050565b610597610db7565b60006105a1610db7565b6105a96108b0565b905060006105b5610966565b905060006105c1610486565b60025460405163fe575a8760e01b81526001600160a01b039283169263fe575a87926105f292911690600401611040565b60206040518083038186803b15801561060a57600080fd5b505afa15801561061e573d6000803e3d6000fd5b505050506040513d601f19601f820116820180604052506106429190810190610e39565b9050600161064e610a22565b831015610659575060005b610661610a22565b600654101561066e575060005b8115610678575060005b92945091925050509091565b6002546003546001600160a01b03909116906000901561071457816001600160a01b0316635a3d54936040518163ffffffff1660e01b815260040160206040518083038186803b1580156106d757600080fd5b505afa1580156106eb573d6000803e3d6000fd5b505050506040513d601f19601f8201168201806040525061070f9190810190610ea4565b610785565b816001600160a01b0316635909c0d56040518163ffffffff1660e01b815260040160206040518083038186803b15801561074d57600080fd5b505afa158015610761573d6000803e3d6000fd5b505050506040513d601f19601f820116820180604052506107859190810190610ea4565b90506000806000846001600160a01b0316630902f1ac6040518163ffffffff1660e01b815260040160606040518083038186803b1580156107c557600080fd5b505afa1580156107d9573d6000803e3d6000fd5b505050506040513d601f19601f820116820180604052506107fd9190810190610e57565b925092509250826001600160701b031660001415801561082557506001600160701b03821615155b8015610836575063ffffffff811615155b156108875760048490556005805463ffffffff831663ffffffff199091161790556001805460ff60a01b1916600160a01b17905560035415610878578261087a565b815b6001600160701b03166006555b5050505050565b610896610db7565b506040805160208101909152670de0b6b3a7640000815290565b6108b8610db7565b600254600090819081906108d4906001600160a01b0316610a2b565b600554600354939650919450925063ffffffff16820390600090156108f957836108fb565b845b9050610905610db7565b6109268363ffffffff1660045484038161091b57fe5b04600160701b610c00565b6005805463ffffffff191663ffffffff87811691909117909155600484905590915061095b90829064e8d4a5100090610c3116565b965050505050505090565b6000806006549050600080600260009054906101000a90046001600160a01b03166001600160a01b0316630902f1ac6040518163ffffffff1660e01b815260040160606040518083038186803b1580156109bf57600080fd5b505afa1580156109d3573d6000803e3d6000fd5b505050506040513d601f19601f820116820180604052506109f79190810190610e57565b5091509150600354600014610a0c5781610a0e565b805b6001600160701b0316600655509091505090565b6402540be40090565b6000806000610a38610c58565b9050836001600160a01b0316635909c0d56040518163ffffffff1660e01b815260040160206040518083038186803b158015610a7357600080fd5b505afa158015610a87573d6000803e3d6000fd5b505050506040513d601f19601f82011682018060405250610aab9190810190610ea4565b9250836001600160a01b0316635a3d54936040518163ffffffff1660e01b815260040160206040518083038186803b158015610ae657600080fd5b505afa158015610afa573d6000803e3d6000fd5b505050506040513d601f19601f82011682018060405250610b1e9190810190610ea4565b91506000806000866001600160a01b0316630902f1ac6040518163ffffffff1660e01b815260040160606040518083038186803b158015610b5e57600080fd5b505afa158015610b72573d6000803e3d6000fd5b505050506040513d601f19601f82011682018060405250610b969190810190610e57565b9250925092508363ffffffff168163ffffffff1614610bf65780840363ffffffff8116610bc38486610c62565b516001600160e01b031602969096019563ffffffff8116610be48585610c62565b516001600160e01b0316029590950194505b5050509193909250565b610c08610db7565b6040518060200160405280610c2685670de0b6b3a764000086610cdd565b905290505b92915050565b610c39610db7565b604080516020810190915283518190610c26908563ffffffff610d0916565b63ffffffff421690565b610c6a610dca565b6000826001600160701b031611610c935760405162461bcd60e51b815260040161047890611098565b6040805160208101909152806001600160701b0384166dffffffffffffffffffffffffffff60701b607087901b1681610cc857fe5b046001600160e01b0316815250905092915050565b6000610cff82610cf3868663ffffffff610d0916565b9063ffffffff610d4316565b90505b9392505050565b600082610d1857506000610c2b565b82820282848281610d2557fe5b0414610d025760405162461bcd60e51b815260040161047890611088565b6000610d0283836040518060400160405280601a81526020017f536166654d6174683a206469766973696f6e206279207a65726f00000000000081525060008183610da15760405162461bcd60e51b81526004016104789190611077565b506000838581610dad57fe5b0495945050505050565b6040518060200160405280600081525090565b60408051602081019091526000815290565b8051610c2b81611163565b8051610c2b8161117a565b8051610c2b81611183565b8051610c2b8161118c565b8051610c2b81611195565b600060208284031215610e2557600080fd5b6000610e318484610ddc565b949350505050565b600060208284031215610e4b57600080fd5b6000610e318484610de7565b600080600060608486031215610e6c57600080fd5b6000610e788686610df2565b9350506020610e8986828701610df2565b9250506040610e9a86828701610e08565b9150509250925092565b600060208284031215610eb657600080fd5b6000610e318484610dfd565b610ecb816110ec565b82525050565b610ecb816110f7565b610ecb610ee6826110fc565b611109565b610ecb610ee682611109565b6000610f02826110df565b610f0c818561058a565b9350610f1c81856020860161112d565b9290920192915050565b6000610f31826110df565b610f3b81856110e3565b9350610f4b81856020860161112d565b610f5481611159565b9093019392505050565b6000610f6b6021836110e3565b7f536166654d6174683a206d756c7469706c69636174696f6e206f766572666c6f8152607760f81b602082015260400192915050565b6000610fae6017836110e3565b7f4669786564506f696e743a204449565f42595f5a45524f000000000000000000815260200192915050565b80516020830190610feb8482610ff1565b50505050565b610ecb81611109565b60006110068284610eeb565b50602001919050565b600061101b8286610ef7565b91506110278285610eda565b6002820191506110378284610ef7565b95945050505050565b60208101610c2b8284610ec2565b6040810161105c8285610ec2565b610d026020830184610ec2565b60208101610c2b8284610ed1565b60208082528101610d028184610f26565b60208082528101610c2b81610f5e565b60208082528101610c2b81610fa1565b60208101610c2b8284610fda565b604081016110c48285610fda565b610d026020830184610ed1565b60208101610c2b8284610ff1565b5190565b90815260200190565b6000610c2b82611118565b151590565b6001600160f01b03191690565b90565b6001600160701b031690565b6001600160a01b031690565b63ffffffff1690565b60005b83811015611148578181015183820152602001611130565b83811115610feb5750506000910152565b601f01601f191690565b61116c816110ec565b811461117757600080fd5b50565b61116c816110f7565b61116c8161110c565b61116c81611109565b61116c8161112456fea365627a7a7231582018e24767196d996c40732acd80e40a6b9a5bde2e10e027bbf92850f98a3037a96c6578706572696d656e74616cf564736f6c63430005110040",
  "source": "/*\n    Copyright 2020 Dynamic Dollar Devs, based on the works of the Empty Set Squad\n\n    Licensed under the Apache License, Version 2.0 (the \"License\");\n    you may not use this file except in compliance with the License.\n    You may obtain a copy of the License at\n\n    http://www.apache.org/licenses/LICENSE-2.0\n\n    Unless required by applicable law or agreed to in writing, software\n    distributed under the License is distributed on an \"AS IS\" BASIS,\n    WITHOUT WARRANTIES OR CONDITIONS OF ANY KIND, either express or implied.\n    See the License for the specific language governing permissions and\n    limitations under the License.\n*/\n\npragma solidity ^0.5.17;\npragma experimental ABIEncoderV2;\n\nimport '@uniswap/v2-core/contracts/interfaces/IUniswapV2Pair.sol';\nimport \"../oracle/Oracle.sol\";\nimport \"../external/Decimal.sol\";\n\ncontract MockOracle is Oracle {\n    Decimal.D256 private _latestPrice;\n    bool private _latestValid;\n    address private _usdc;\n\n    constructor (address pair, address dollar, address usdc) Oracle(dollar) public {\n        _pair = IUniswapV2Pair(pair);\n        _index = 0;\n        _usdc = usdc;\n    }\n\n    function usdc() internal view returns (address) {\n        return _usdc;\n    }\n\n    function capture() public returns (Decimal.D256 memory, bool) {\n        (_latestPrice, _latestValid) = super.capture();\n        return (_latestPrice, _latestValid);\n    }\n\n    function latestPrice() external view returns (Decimal.D256 memory) {\n        return _latestPrice;\n    }\n\n    function latestValid() external view returns (bool) {\n        return _latestValid;\n    }\n\n    function isInitialized() external view returns (bool) {\n        return _initialized;\n    }\n\n    function cumulative() external view returns (uint256) {\n        return _cumulative;\n    }\n\n    function timestamp() external view returns (uint256) {\n        return _timestamp;\n    }\n\n    function reserve() external view returns (uint256) {\n        return _reserve;\n    }\n}\n",
  "sourcePath": "/home/name/Desktop/Files/projects/dynamic/dollar/protocol/contracts/mock/MockOracle.sol",
  "compiler": {
    "name": "solc",
    "version": "0.5.17+commit.d19bba13.Emscripten.clang"
  },
  "schemaVersion": "3.3.1",
  "updatedAt": "2020-11-25T22:34:45.261Z",
  "devdoc": {
    "methods": {}
  },
  "userdoc": {
    "methods": {}
  }
}