{
  "contractName": "MockComptroller",
  "abi": [
    {
      "inputs": [
        {
          "internalType": "address",
          "name": "pool",
          "type": "address"
        }
      ],
      "payable": false,
      "stateMutability": "nonpayable",
      "type": "constructor"
    },
    {
      "anonymous": false,
      "inputs": [
        {
          "indexed": true,
          "internalType": "address",
          "name": "from",
          "type": "address"
        },
        {
          "indexed": true,
          "internalType": "address",
          "name": "to",
          "type": "address"
        },
        {
          "indexed": false,
          "internalType": "uint256",
          "name": "value",
          "type": "uint256"
        }
      ],
      "name": "Transfer",
      "type": "event"
    },
    {
      "constant": true,
      "inputs": [
        {
          "internalType": "address",
          "name": "owner",
          "type": "address"
        },
        {
          "internalType": "address",
          "name": "spender",
          "type": "address"
        }
      ],
      "name": "allowance",
      "outputs": [
        {
          "internalType": "uint256",
          "name": "",
          "type": "uint256"
        }
      ],
      "payable": false,
      "stateMutability": "view",
      "type": "function"
    },
    {
      "constant": true,
      "inputs": [
        {
          "internalType": "address",
          "name": "owner",
          "type": "address"
        },
        {
          "internalType": "address",
          "name": "spender",
          "type": "address"
        }
      ],
      "name": "allowanceCoupons",
      "outputs": [
        {
          "internalType": "uint256",
          "name": "",
          "type": "uint256"
        }
      ],
      "payable": false,
      "stateMutability": "view",
      "type": "function"
    },
    {
      "constant": false,
      "inputs": [
        {
          "internalType": "address",
          "name": "spender",
          "type": "address"
        },
        {
          "internalType": "uint256",
          "name": "amount",
          "type": "uint256"
        }
      ],
      "name": "approve",
      "outputs": [
        {
          "internalType": "bool",
          "name": "",
          "type": "bool"
        }
      ],
      "payable": false,
      "stateMutability": "nonpayable",
      "type": "function"
    },
    {
      "constant": true,
      "inputs": [
        {
          "internalType": "address",
          "name": "candidate",
          "type": "address"
        }
      ],
      "name": "approveFor",
      "outputs": [
        {
          "internalType": "uint256",
          "name": "",
          "type": "uint256"
        }
      ],
      "payable": false,
      "stateMutability": "view",
      "type": "function"
    },
    {
      "constant": true,
      "inputs": [
        {
          "internalType": "address",
          "name": "account",
          "type": "address"
        }
      ],
      "name": "balanceOf",
      "outputs": [
        {
          "internalType": "uint256",
          "name": "",
          "type": "uint256"
        }
      ],
      "payable": false,
      "stateMutability": "view",
      "type": "function"
    },
    {
      "constant": true,
      "inputs": [
        {
          "internalType": "address",
          "name": "account",
          "type": "address"
        }
      ],
      "name": "balanceOfBonded",
      "outputs": [
        {
          "internalType": "uint256",
          "name": "",
          "type": "uint256"
        }
      ],
      "payable": false,
      "stateMutability": "view",
      "type": "function"
    },
    {
      "constant": true,
      "inputs": [
        {
          "internalType": "address",
          "name": "account",
          "type": "address"
        },
        {
          "internalType": "uint256",
          "name": "epoch",
          "type": "uint256"
        }
      ],
      "name": "balanceOfCoupons",
      "outputs": [
        {
          "internalType": "uint256",
          "name": "",
          "type": "uint256"
        }
      ],
      "payable": false,
      "stateMutability": "view",
      "type": "function"
    },
    {
      "constant": true,
      "inputs": [
        {
          "internalType": "address",
          "name": "account",
          "type": "address"
        }
      ],
      "name": "balanceOfStaged",
      "outputs": [
        {
          "internalType": "uint256",
          "name": "",
          "type": "uint256"
        }
      ],
      "payable": false,
      "stateMutability": "view",
      "type": "function"
    },
    {
      "constant": true,
      "inputs": [
        {
          "internalType": "uint256",
          "name": "epoch",
          "type": "uint256"
        }
      ],
      "name": "bootstrappingAt",
      "outputs": [
        {
          "internalType": "bool",
          "name": "",
          "type": "bool"
        }
      ],
      "payable": false,
      "stateMutability": "view",
      "type": "function"
    },
    {
      "constant": true,
      "inputs": [
        {
          "internalType": "uint256",
          "name": "epoch",
          "type": "uint256"
        }
      ],
      "name": "couponsExpiration",
      "outputs": [
        {
          "internalType": "uint256",
          "name": "",
          "type": "uint256"
        }
      ],
      "payable": false,
      "stateMutability": "view",
      "type": "function"
    },
    {
      "constant": false,
      "inputs": [
        {
          "internalType": "address",
          "name": "candidate",
          "type": "address"
        },
        {
          "internalType": "uint256",
          "name": "period",
          "type": "uint256"
        }
      ],
      "name": "createCandidateE",
      "outputs": [],
      "payable": false,
      "stateMutability": "nonpayable",
      "type": "function"
    },
    {
      "constant": true,
      "inputs": [],
      "name": "decimals",
      "outputs": [
        {
          "internalType": "uint8",
          "name": "",
          "type": "uint8"
        }
      ],
      "payable": false,
      "stateMutability": "view",
      "type": "function"
    },
    {
      "constant": false,
      "inputs": [
        {
          "internalType": "address",
          "name": "owner",
          "type": "address"
        },
        {
          "internalType": "address",
          "name": "spender",
          "type": "address"
        },
        {
          "internalType": "uint256",
          "name": "amount",
          "type": "uint256"
        },
        {
          "internalType": "string",
          "name": "reason",
          "type": "string"
        }
      ],
      "name": "decrementAllowanceCouponsE",
      "outputs": [],
      "payable": false,
      "stateMutability": "nonpayable",
      "type": "function"
    },
    {
      "constant": false,
      "inputs": [
        {
          "internalType": "address",
          "name": "candidate",
          "type": "address"
        },
        {
          "internalType": "uint256",
          "name": "amount",
          "type": "uint256"
        },
        {
          "internalType": "string",
          "name": "reason",
          "type": "string"
        }
      ],
      "name": "decrementApproveForE",
      "outputs": [],
      "payable": false,
      "stateMutability": "nonpayable",
      "type": "function"
    },
    {
      "constant": false,
      "inputs": [
        {
          "internalType": "address",
          "name": "account",
          "type": "address"
        },
        {
          "internalType": "uint256",
          "name": "epoch",
          "type": "uint256"
        },
        {
          "internalType": "uint256",
          "name": "amount",
          "type": "uint256"
        },
        {
          "internalType": "string",
          "name": "reason",
          "type": "string"
        }
      ],
      "name": "decrementBalanceOfCouponsE",
      "outputs": [],
      "payable": false,
      "stateMutability": "nonpayable",
      "type": "function"
    },
    {
      "constant": false,
      "inputs": [
        {
          "internalType": "address",
          "name": "account",
          "type": "address"
        },
        {
          "internalType": "uint256",
          "name": "amount",
          "type": "uint256"
        },
        {
          "internalType": "string",
          "name": "reason",
          "type": "string"
        }
      ],
      "name": "decrementBalanceOfE",
      "outputs": [],
      "payable": false,
      "stateMutability": "nonpayable",
      "type": "function"
    },
    {
      "constant": false,
      "inputs": [
        {
          "internalType": "address",
          "name": "account",
          "type": "address"
        },
        {
          "internalType": "uint256",
          "name": "amount",
          "type": "uint256"
        },
        {
          "internalType": "string",
          "name": "reason",
          "type": "string"
        }
      ],
      "name": "decrementBalanceOfStagedE",
      "outputs": [],
      "payable": false,
      "stateMutability": "nonpayable",
      "type": "function"
    },
    {
      "constant": false,
      "inputs": [
        {
          "internalType": "address",
          "name": "candidate",
          "type": "address"
        },
        {
          "internalType": "uint256",
          "name": "amount",
          "type": "uint256"
        },
        {
          "internalType": "string",
          "name": "reason",
          "type": "string"
        }
      ],
      "name": "decrementRejectForE",
      "outputs": [],
      "payable": false,
      "stateMutability": "nonpayable",
      "type": "function"
    },
    {
      "constant": false,
      "inputs": [
        {
          "internalType": "uint256",
          "name": "amount",
          "type": "uint256"
        },
        {
          "internalType": "string",
          "name": "reason",
          "type": "string"
        }
      ],
      "name": "decrementTotalBondedE",
      "outputs": [],
      "payable": false,
      "stateMutability": "nonpayable",
      "type": "function"
    },
    {
      "constant": false,
      "inputs": [
        {
          "internalType": "uint256",
          "name": "amount",
          "type": "uint256"
        },
        {
          "internalType": "string",
          "name": "reason",
          "type": "string"
        }
      ],
      "name": "decrementTotalDebtE",
      "outputs": [],
      "payable": false,
      "stateMutability": "nonpayable",
      "type": "function"
    },
    {
      "constant": false,
      "inputs": [
        {
          "internalType": "uint256",
          "name": "amount",
          "type": "uint256"
        },
        {
          "internalType": "string",
          "name": "reason",
          "type": "string"
        }
      ],
      "name": "decrementTotalRedeemableE",
      "outputs": [],
      "payable": false,
      "stateMutability": "nonpayable",
      "type": "function"
    },
    {
      "constant": true,
      "inputs": [],
      "name": "dollar",
      "outputs": [
        {
          "internalType": "contract IDollar",
          "name": "",
          "type": "address"
        }
      ],
      "payable": false,
      "stateMutability": "view",
      "type": "function"
    },
    {
      "constant": false,
      "inputs": [
        {
          "internalType": "uint256",
          "name": "epoch",
          "type": "uint256"
        }
      ],
      "name": "eliminateOutstandingCouponsE",
      "outputs": [],
      "payable": false,
      "stateMutability": "nonpayable",
      "type": "function"
    },
    {
      "constant": true,
      "inputs": [],
      "name": "epoch",
      "outputs": [
        {
          "internalType": "uint256",
          "name": "",
          "type": "uint256"
        }
      ],
      "payable": false,
      "stateMutability": "view",
      "type": "function"
    },
    {
      "constant": true,
      "inputs": [],
      "name": "epochTime",
      "outputs": [
        {
          "internalType": "uint256",
          "name": "",
          "type": "uint256"
        }
      ],
      "payable": false,
      "stateMutability": "view",
      "type": "function"
    },
    {
      "constant": true,
      "inputs": [
        {
          "internalType": "uint256",
          "name": "epoch",
          "type": "uint256"
        }
      ],
      "name": "expiringCoupons",
      "outputs": [
        {
          "internalType": "uint256",
          "name": "",
          "type": "uint256"
        }
      ],
      "payable": false,
      "stateMutability": "view",
      "type": "function"
    },
    {
      "constant": true,
      "inputs": [
        {
          "internalType": "uint256",
          "name": "epoch",
          "type": "uint256"
        },
        {
          "internalType": "uint256",
          "name": "i",
          "type": "uint256"
        }
      ],
      "name": "expiringCouponsAtIndex",
      "outputs": [
        {
          "internalType": "uint256",
          "name": "",
          "type": "uint256"
        }
      ],
      "payable": false,
      "stateMutability": "view",
      "type": "function"
    },
    {
      "constant": true,
      "inputs": [
        {
          "internalType": "address",
          "name": "account",
          "type": "address"
        }
      ],
      "name": "fluidUntil",
      "outputs": [
        {
          "internalType": "uint256",
          "name": "",
          "type": "uint256"
        }
      ],
      "payable": false,
      "stateMutability": "view",
      "type": "function"
    },
    {
      "constant": true,
      "inputs": [
        {
          "internalType": "uint256",
          "name": "epoch",
          "type": "uint256"
        }
      ],
      "name": "getAvgExpiryFilled",
      "outputs": [
        {
          "internalType": "uint256",
          "name": "",
          "type": "uint256"
        }
      ],
      "payable": false,
      "stateMutability": "view",
      "type": "function"
    },
    {
      "constant": true,
      "inputs": [
        {
          "internalType": "uint256",
          "name": "epoch",
          "type": "uint256"
        }
      ],
      "name": "getAvgYieldFilled",
      "outputs": [
        {
          "internalType": "uint256",
          "name": "",
          "type": "uint256"
        }
      ],
      "payable": false,
      "stateMutability": "view",
      "type": "function"
    },
    {
      "constant": true,
      "inputs": [
        {
          "internalType": "uint256",
          "name": "epoch",
          "type": "uint256"
        }
      ],
      "name": "getBidToCover",
      "outputs": [
        {
          "internalType": "uint256",
          "name": "",
          "type": "uint256"
        }
      ],
      "payable": false,
      "stateMutability": "view",
      "type": "function"
    },
    {
      "constant": true,
      "inputs": [
        {
          "internalType": "uint256",
          "name": "epoch",
          "type": "uint256"
        }
      ],
      "name": "getMaxExpiryFilled",
      "outputs": [
        {
          "internalType": "uint256",
          "name": "",
          "type": "uint256"
        }
      ],
      "payable": false,
      "stateMutability": "view",
      "type": "function"
    },
    {
      "constant": true,
      "inputs": [
        {
          "internalType": "uint256",
          "name": "epoch",
          "type": "uint256"
        }
      ],
      "name": "getMaxYieldFilled",
      "outputs": [
        {
          "internalType": "uint256",
          "name": "",
          "type": "uint256"
        }
      ],
      "payable": false,
      "stateMutability": "view",
      "type": "function"
    },
    {
      "constant": true,
      "inputs": [
        {
          "internalType": "uint256",
          "name": "epoch",
          "type": "uint256"
        }
      ],
      "name": "getMinExpiryFilled",
      "outputs": [
        {
          "internalType": "uint256",
          "name": "",
          "type": "uint256"
        }
      ],
      "payable": false,
      "stateMutability": "view",
      "type": "function"
    },
    {
      "constant": true,
      "inputs": [
        {
          "internalType": "uint256",
          "name": "epoch",
          "type": "uint256"
        }
      ],
      "name": "getMinYieldFilled",
      "outputs": [
        {
          "internalType": "uint256",
          "name": "",
          "type": "uint256"
        }
      ],
      "payable": false,
      "stateMutability": "view",
      "type": "function"
    },
    {
      "constant": true,
      "inputs": [
        {
          "internalType": "uint256",
          "name": "epoch",
          "type": "uint256"
        }
      ],
      "name": "getTotalFilled",
      "outputs": [
        {
          "internalType": "uint256",
          "name": "",
          "type": "uint256"
        }
      ],
      "payable": false,
      "stateMutability": "view",
      "type": "function"
    },
    {
      "constant": true,
      "inputs": [],
      "name": "implementation",
      "outputs": [
        {
          "internalType": "address",
          "name": "impl",
          "type": "address"
        }
      ],
      "payable": false,
      "stateMutability": "view",
      "type": "function"
    },
    {
      "constant": false,
      "inputs": [
        {
          "internalType": "address",
          "name": "candidate",
          "type": "address"
        },
        {
          "internalType": "uint256",
          "name": "amount",
          "type": "uint256"
        }
      ],
      "name": "incrementApproveForE",
      "outputs": [],
      "payable": false,
      "stateMutability": "nonpayable",
      "type": "function"
    },
    {
      "constant": false,
      "inputs": [
        {
          "internalType": "address",
          "name": "account",
          "type": "address"
        },
        {
          "internalType": "uint256",
          "name": "epoch",
          "type": "uint256"
        },
        {
          "internalType": "uint256",
          "name": "amount",
          "type": "uint256"
        }
      ],
      "name": "incrementBalanceOfCouponsE",
      "outputs": [],
      "payable": false,
      "stateMutability": "nonpayable",
      "type": "function"
    },
    {
      "constant": false,
      "inputs": [
        {
          "internalType": "address",
          "name": "account",
          "type": "address"
        },
        {
          "internalType": "uint256",
          "name": "amount",
          "type": "uint256"
        }
      ],
      "name": "incrementBalanceOfE",
      "outputs": [],
      "payable": false,
      "stateMutability": "nonpayable",
      "type": "function"
    },
    {
      "constant": false,
      "inputs": [
        {
          "internalType": "address",
          "name": "account",
          "type": "address"
        },
        {
          "internalType": "uint256",
          "name": "amount",
          "type": "uint256"
        }
      ],
      "name": "incrementBalanceOfStagedE",
      "outputs": [],
      "payable": false,
      "stateMutability": "nonpayable",
      "type": "function"
    },
    {
      "constant": false,
      "inputs": [],
      "name": "incrementEpochE",
      "outputs": [],
      "payable": false,
      "stateMutability": "nonpayable",
      "type": "function"
    },
    {
      "constant": false,
      "inputs": [
        {
          "internalType": "address",
          "name": "candidate",
          "type": "address"
        },
        {
          "internalType": "uint256",
          "name": "amount",
          "type": "uint256"
        }
      ],
      "name": "incrementRejectForE",
      "outputs": [],
      "payable": false,
      "stateMutability": "nonpayable",
      "type": "function"
    },
    {
      "constant": false,
      "inputs": [
        {
          "internalType": "uint256",
          "name": "amount",
          "type": "uint256"
        }
      ],
      "name": "incrementTotalBondedE",
      "outputs": [],
      "payable": false,
      "stateMutability": "nonpayable",
      "type": "function"
    },
    {
      "constant": false,
      "inputs": [
        {
          "internalType": "uint256",
          "name": "amount",
          "type": "uint256"
        }
      ],
      "name": "incrementTotalDebtE",
      "outputs": [],
      "payable": false,
      "stateMutability": "nonpayable",
      "type": "function"
    },
    {
      "constant": false,
      "inputs": [
        {
          "internalType": "uint256",
          "name": "amount",
          "type": "uint256"
        }
      ],
      "name": "incrementTotalRedeemableE",
      "outputs": [],
      "payable": false,
      "stateMutability": "nonpayable",
      "type": "function"
    },
    {
      "constant": false,
      "inputs": [
        {
          "internalType": "uint256",
          "name": "epoch",
          "type": "uint256"
        },
        {
          "internalType": "uint256",
          "name": "expiration",
          "type": "uint256"
        }
      ],
      "name": "initializeCouponsExpirationE",
      "outputs": [],
      "payable": false,
      "stateMutability": "nonpayable",
      "type": "function"
    },
    {
      "constant": false,
      "inputs": [
        {
          "internalType": "address",
          "name": "candidate",
          "type": "address"
        }
      ],
      "name": "initializedE",
      "outputs": [],
      "payable": false,
      "stateMutability": "nonpayable",
      "type": "function"
    },
    {
      "constant": false,
      "inputs": [
        {
          "internalType": "uint256",
          "name": "epoch",
          "type": "uint256"
        }
      ],
      "name": "isCouponAuctionInitAtEpochE",
      "outputs": [
        {
          "internalType": "bool",
          "name": "",
          "type": "bool"
        }
      ],
      "payable": false,
      "stateMutability": "nonpayable",
      "type": "function"
    },
    {
      "constant": true,
      "inputs": [
        {
          "internalType": "address",
          "name": "candidate",
          "type": "address"
        }
      ],
      "name": "isInitialized",
      "outputs": [
        {
          "internalType": "bool",
          "name": "",
          "type": "bool"
        }
      ],
      "payable": false,
      "stateMutability": "view",
      "type": "function"
    },
    {
      "constant": true,
      "inputs": [
        {
          "internalType": "address",
          "name": "candidate",
          "type": "address"
        }
      ],
      "name": "isNominated",
      "outputs": [
        {
          "internalType": "bool",
          "name": "",
          "type": "bool"
        }
      ],
      "payable": false,
      "stateMutability": "view",
      "type": "function"
    },
    {
      "constant": true,
      "inputs": [
        {
          "internalType": "address",
          "name": "account",
          "type": "address"
        }
      ],
      "name": "lockedUntil",
      "outputs": [
        {
          "internalType": "uint256",
          "name": "",
          "type": "uint256"
        }
      ],
      "payable": false,
      "stateMutability": "view",
      "type": "function"
    },
    {
      "constant": true,
      "inputs": [],
      "name": "name",
      "outputs": [
        {
          "internalType": "string",
          "name": "",
          "type": "string"
        }
      ],
      "payable": false,
      "stateMutability": "view",
      "type": "function"
    },
    {
      "constant": true,
      "inputs": [],
      "name": "oracle",
      "outputs": [
        {
          "internalType": "contract IOracle",
          "name": "",
          "type": "address"
        }
      ],
      "payable": false,
      "stateMutability": "view",
      "type": "function"
    },
    {
      "constant": true,
      "inputs": [
        {
          "internalType": "uint256",
          "name": "epoch",
          "type": "uint256"
        }
      ],
      "name": "outstandingCoupons",
      "outputs": [
        {
          "internalType": "uint256",
          "name": "",
          "type": "uint256"
        }
      ],
      "payable": false,
      "stateMutability": "view",
      "type": "function"
    },
    {
      "constant": true,
      "inputs": [
        {
          "internalType": "address",
          "name": "candidate",
          "type": "address"
        }
      ],
      "name": "periodFor",
      "outputs": [
        {
          "internalType": "uint256",
          "name": "",
          "type": "uint256"
        }
      ],
      "payable": false,
      "stateMutability": "view",
      "type": "function"
    },
    {
      "constant": false,
      "inputs": [
        {
          "internalType": "address",
          "name": "account",
          "type": "address"
        },
        {
          "internalType": "address",
          "name": "candidate",
          "type": "address"
        }
      ],
      "name": "placeLockE",
      "outputs": [],
      "payable": false,
      "stateMutability": "nonpayable",
      "type": "function"
    },
    {
      "constant": true,
      "inputs": [],
      "name": "pool",
      "outputs": [
        {
          "internalType": "address",
          "name": "",
          "type": "address"
        }
      ],
      "payable": false,
      "stateMutability": "view",
      "type": "function"
    },
    {
      "constant": false,
      "inputs": [
        {
          "internalType": "address",
          "name": "account",
          "type": "address"
        },
        {
          "internalType": "address",
          "name": "candidate",
          "type": "address"
        },
        {
          "internalType": "enum Candidate.Vote",
          "name": "vote",
          "type": "uint8"
        }
      ],
      "name": "recordVoteE",
      "outputs": [],
      "payable": false,
      "stateMutability": "nonpayable",
      "type": "function"
    },
    {
      "constant": true,
      "inputs": [
        {
          "internalType": "address",
          "name": "account",
          "type": "address"
        },
        {
          "internalType": "address",
          "name": "candidate",
          "type": "address"
        }
      ],
      "name": "recordedVote",
      "outputs": [
        {
          "internalType": "enum Candidate.Vote",
          "name": "",
          "type": "uint8"
        }
      ],
      "payable": false,
      "stateMutability": "view",
      "type": "function"
    },
    {
      "constant": true,
      "inputs": [
        {
          "internalType": "address",
          "name": "candidate",
          "type": "address"
        }
      ],
      "name": "rejectFor",
      "outputs": [
        {
          "internalType": "uint256",
          "name": "",
          "type": "uint256"
        }
      ],
      "payable": false,
      "stateMutability": "view",
      "type": "function"
    },
    {
      "constant": false,
      "inputs": [
        {
          "internalType": "uint256",
          "name": "timestamp",
          "type": "uint256"
        }
      ],
      "name": "setBlockTimestamp",
      "outputs": [],
      "payable": false,
      "stateMutability": "nonpayable",
      "type": "function"
    },
    {
      "constant": false,
      "inputs": [
        {
          "internalType": "uint256",
          "name": "start",
          "type": "uint256"
        },
        {
          "internalType": "uint256",
          "name": "period",
          "type": "uint256"
        }
      ],
      "name": "setEpochParamsE",
      "outputs": [],
      "payable": false,
      "stateMutability": "nonpayable",
      "type": "function"
    },
    {
      "constant": false,
      "inputs": [],
      "name": "snapshotTotalBondedE",
      "outputs": [],
      "payable": false,
      "stateMutability": "nonpayable",
      "type": "function"
    },
    {
      "constant": true,
      "inputs": [
        {
          "internalType": "address",
          "name": "candidate",
          "type": "address"
        }
      ],
      "name": "startFor",
      "outputs": [
        {
          "internalType": "uint256",
          "name": "",
          "type": "uint256"
        }
      ],
      "payable": false,
      "stateMutability": "view",
      "type": "function"
    },
    {
      "constant": true,
      "inputs": [
        {
          "internalType": "address",
          "name": "account",
          "type": "address"
        }
      ],
      "name": "statusOf",
      "outputs": [
        {
          "internalType": "enum Account.Status",
          "name": "",
          "type": "uint8"
        }
      ],
      "payable": false,
      "stateMutability": "view",
      "type": "function"
    },
    {
      "constant": true,
      "inputs": [],
      "name": "symbol",
      "outputs": [
        {
          "internalType": "string",
          "name": "",
          "type": "string"
        }
      ],
      "payable": false,
      "stateMutability": "view",
      "type": "function"
    },
    {
      "constant": true,
      "inputs": [],
      "name": "totalBonded",
      "outputs": [
        {
          "internalType": "uint256",
          "name": "",
          "type": "uint256"
        }
      ],
      "payable": false,
      "stateMutability": "view",
      "type": "function"
    },
    {
      "constant": true,
      "inputs": [
        {
          "internalType": "uint256",
          "name": "epoch",
          "type": "uint256"
        }
      ],
      "name": "totalBondedAt",
      "outputs": [
        {
          "internalType": "uint256",
          "name": "",
          "type": "uint256"
        }
      ],
      "payable": false,
      "stateMutability": "view",
      "type": "function"
    },
    {
      "constant": true,
      "inputs": [],
      "name": "totalCoupons",
      "outputs": [
        {
          "internalType": "uint256",
          "name": "",
          "type": "uint256"
        }
      ],
      "payable": false,
      "stateMutability": "view",
      "type": "function"
    },
    {
      "constant": true,
      "inputs": [],
      "name": "totalDebt",
      "outputs": [
        {
          "internalType": "uint256",
          "name": "",
          "type": "uint256"
        }
      ],
      "payable": false,
      "stateMutability": "view",
      "type": "function"
    },
    {
      "constant": true,
      "inputs": [],
      "name": "totalNet",
      "outputs": [
        {
          "internalType": "uint256",
          "name": "",
          "type": "uint256"
        }
      ],
      "payable": false,
      "stateMutability": "view",
      "type": "function"
    },
    {
      "constant": true,
      "inputs": [],
      "name": "totalRedeemable",
      "outputs": [
        {
          "internalType": "uint256",
          "name": "",
          "type": "uint256"
        }
      ],
      "payable": false,
      "stateMutability": "view",
      "type": "function"
    },
    {
      "constant": true,
      "inputs": [],
      "name": "totalStaged",
      "outputs": [
        {
          "internalType": "uint256",
          "name": "",
          "type": "uint256"
        }
      ],
      "payable": false,
      "stateMutability": "view",
      "type": "function"
    },
    {
      "constant": true,
      "inputs": [],
      "name": "totalSupply",
      "outputs": [
        {
          "internalType": "uint256",
          "name": "",
          "type": "uint256"
        }
      ],
      "payable": false,
      "stateMutability": "view",
      "type": "function"
    },
    {
      "constant": false,
      "inputs": [
        {
          "internalType": "address",
          "name": "recipient",
          "type": "address"
        },
        {
          "internalType": "uint256",
          "name": "amount",
          "type": "uint256"
        }
      ],
      "name": "transfer",
      "outputs": [
        {
          "internalType": "bool",
          "name": "",
          "type": "bool"
        }
      ],
      "payable": false,
      "stateMutability": "nonpayable",
      "type": "function"
    },
    {
      "constant": false,
      "inputs": [
        {
          "internalType": "address",
          "name": "sender",
          "type": "address"
        },
        {
          "internalType": "address",
          "name": "recipient",
          "type": "address"
        },
        {
          "internalType": "uint256",
          "name": "amount",
          "type": "uint256"
        }
      ],
      "name": "transferFrom",
      "outputs": [
        {
          "internalType": "bool",
          "name": "",
          "type": "bool"
        }
      ],
      "payable": false,
      "stateMutability": "nonpayable",
      "type": "function"
    },
    {
      "constant": false,
      "inputs": [
        {
          "internalType": "address",
          "name": "account",
          "type": "address"
        }
      ],
      "name": "unfreezeE",
      "outputs": [],
      "payable": false,
      "stateMutability": "nonpayable",
      "type": "function"
    },
    {
      "constant": false,
      "inputs": [
        {
          "internalType": "address",
          "name": "owner",
          "type": "address"
        },
        {
          "internalType": "address",
          "name": "spender",
          "type": "address"
        },
        {
          "internalType": "uint256",
          "name": "amount",
          "type": "uint256"
        }
      ],
      "name": "updateAllowanceCouponsE",
      "outputs": [],
      "payable": false,
      "stateMutability": "nonpayable",
      "type": "function"
    },
    {
      "constant": true,
      "inputs": [
        {
          "internalType": "address",
          "name": "candidate",
          "type": "address"
        }
      ],
      "name": "votesFor",
      "outputs": [
        {
          "internalType": "uint256",
          "name": "",
          "type": "uint256"
        }
      ],
      "payable": false,
      "stateMutability": "view",
      "type": "function"
    },
    {
      "constant": false,
      "inputs": [
        {
          "internalType": "address",
          "name": "account",
          "type": "address"
        },
        {
          "internalType": "uint256",
          "name": "amount",
          "type": "uint256"
        }
      ],
      "name": "mintToAccountE",
      "outputs": [],
      "payable": false,
      "stateMutability": "nonpayable",
      "type": "function"
    },
    {
      "constant": false,
      "inputs": [
        {
          "internalType": "address",
          "name": "account",
          "type": "address"
        },
        {
          "internalType": "uint256",
          "name": "amount",
          "type": "uint256"
        }
      ],
      "name": "burnFromAccountE",
      "outputs": [],
      "payable": false,
      "stateMutability": "nonpayable",
      "type": "function"
    },
    {
      "constant": false,
      "inputs": [
        {
          "internalType": "address",
          "name": "account",
          "type": "address"
        },
        {
          "internalType": "uint256",
          "name": "amount",
          "type": "uint256"
        }
      ],
      "name": "redeemToAccountE",
      "outputs": [],
      "payable": false,
      "stateMutability": "nonpayable",
      "type": "function"
    },
    {
      "constant": false,
      "inputs": [
        {
          "internalType": "uint256",
          "name": "amount",
          "type": "uint256"
        }
      ],
      "name": "burnRedeemableE",
      "outputs": [],
      "payable": false,
      "stateMutability": "nonpayable",
      "type": "function"
    },
    {
      "constant": false,
      "inputs": [
        {
          "internalType": "uint256",
          "name": "amount",
          "type": "uint256"
        }
      ],
      "name": "increaseDebtE",
      "outputs": [],
      "payable": false,
      "stateMutability": "nonpayable",
      "type": "function"
    },
    {
      "constant": false,
      "inputs": [
        {
          "internalType": "uint256",
          "name": "amount",
          "type": "uint256"
        }
      ],
      "name": "decreaseDebtE",
      "outputs": [],
      "payable": false,
      "stateMutability": "nonpayable",
      "type": "function"
    },
    {
      "constant": false,
      "inputs": [
        {
          "internalType": "uint256",
          "name": "percent",
          "type": "uint256"
        }
      ],
      "name": "resetDebtE",
      "outputs": [],
      "payable": false,
      "stateMutability": "nonpayable",
      "type": "function"
    },
    {
      "constant": false,
      "inputs": [
        {
          "internalType": "address",
          "name": "account",
          "type": "address"
        },
        {
          "internalType": "uint256",
          "name": "amount",
          "type": "uint256"
        }
      ],
      "name": "mintToE",
      "outputs": [],
      "payable": false,
      "stateMutability": "nonpayable",
      "type": "function"
    }
  ],
  "bytecode": "0x60806040523480156200001157600080fd5b5060405162004921380380620049218339810160408190526200003491620000ba565b42600f55604051620000469062000099565b604051809103906000f08015801562000063573d6000803e3d6000fd5b50600980546001600160a01b039283166001600160a01b031991821617909155600b80549390921692169190911790556200010f565b611c068062002d1b83390190565b8051620000b481620000f5565b92915050565b600060208284031215620000cd57600080fd5b6000620000db8484620000a7565b949350505050565b60006001600160a01b038216620000b4565b6200010081620000e3565b81146200010c57600080fd5b50565b612bfc806200011f6000396000f3fe608060405234801561001057600080fd5b50600436106104d85760003560e01c8063825ad60711610283578063b32a2f901161015c578063d60b347f116100ce578063eeaca09b11610092578063eeaca09b14610a91578063f1b7cf4914610aa4578063f35adf7e14610ab7578063f7a3181814610abf578063fc7b9c1814610ad2578063ffbe3b7314610ada576104d8565b8063d60b347f14610a37578063d6d8816d14610a4a578063d83d3ed514610a5d578063dd62ed3e14610a70578063e0abdf6614610a7e576104d8565b8063c45a3e0a11610120578063c45a3e0a146109d0578063c9aff70c146109e3578063cb0fbc71146109f6578063cc8d823c14610a09578063cf02377914610a1c578063d53c6f5f14610a24576104d8565b8063b32a2f9014610971578063bc7513e214610984578063c1410c0214610997578063c2aeb5fe146109aa578063c34eee65146109bd576104d8565b80639f6e1b26116101f5578063a9059cbb116101b9578063a9059cbb146104fb578063a9b3cf1514610912578063adbff2be14610925578063ae5c238114610938578063b11ee0e31461094b578063b16144a31461095e576104d8565b80639f6e1b26146108be578063a00e14d1146108d1578063a50cd8e7146108e4578063a6c409f1146108f7578063a6f37b53146108ff576104d8565b806395d89b411161024757806395d89b411461086257806397a5d5b51461086a5780639a649edc1461087d5780639b82b49b146108855780639bc289f1146108985780639be46493146108ab576104d8565b8063825ad6071461080e5780638413e52a1461082157806386cf9f14146108345780638de2e57314610847578063900cf0cf1461085a576104d8565b80633fbba9a6116103b55780635f14fec81161032757806371c511eb116102eb57806371c511eb146107b257806372924d2a146107ba57806375d5024b146107cd5780637cb95a32146107e05780637d8bb869146107f35780637dc0d1d014610806576104d8565b80635f14fec81461075357806364668022146107665780636a39e328146107795780636b862d661461078c57806370a082311461079f576104d8565b80635053e461116103795780635053e461146106f557806351adeb57146106fd57806351bf21d814610712578063520acb76146107255780635c60da1b146107385780635dbf800a14610740576104d8565b80633fbba9a6146106945780633fd4973c146106b457806343873526146106c757806344d96e95146106da5780634c736099146106e2576104d8565b806320f6bc901161044e578063313ce56711610412578063313ce567146106205780633234742214610635578063353a420c146106485780633a3e6c811461065b5780633dc905c71461066e5780633f7bcaf314610681576104d8565b806320f6bc90146105c157806323b872dd146105d4578063259f7adf146105e7578063277805a9146105fa5780632d7f23b31461060d576104d8565b806315e14bf6116104a057806315e14bf61461056357806316f0115b1461057657806318160ddd1461058b5780631a08e22a146105935780631edbcf6c146105a65780631fac9732146105ae576104d8565b806306fdde03146104dd578063095ea7b3146104fb5780630dc6d3a31461051b57806310e95b6c146105305780631550ec2414610550575b600080fd5b6104e5610aed565b6040516104f29190612a48565b60405180910390f35b61050e61050936600461267d565b610b24565b6040516104f29190612a1e565b61052e6105293660046125ff565b610b2d565b005b61054361053e36600461279a565b610b76565b6040516104f29190612a79565b61050e61055e36600461279a565b610b8e565b610543610571366004612517565b610ba3565b61057e610bc1565b6040516104f291906129cd565b610543610bd0565b61052e6105a136600461282c565b610bd6565b610543610be4565b61052e6105bc36600461279a565b610bea565b61052e6105cf36600461267d565b610bf6565b61050e6105e23660046125bc565b610c00565b61052e6105f536600461279a565b610c0a565b61052e61060836600461267d565b610c13565b61054361061b36600461279a565b610c9f565b610628610cb4565b6040516104f29190612a87565b61052e6106433660046127d6565b610cb9565b610543610656366004612517565b610cf9565b61050e610669366004612517565b610d17565b61054361067c36600461279a565b610d34565b61052e61068f3660046125bc565b610d49565b6106a76106a2366004612535565b610d54565b6040516104f29190612a3a565b61052e6106c23660046126ad565b610d87565b61052e6106d536600461279a565b610dce565b610543610dd7565b6105436106f036600461282c565b610ddd565b610543610e0d565b610705610e30565b6040516104f29190612a2c565b610543610720366004612517565b610e3f565b61054361073336600461279a565b610e5d565b61057e610e72565b61052e61074e36600461279a565b610e97565b61052e61076136600461267d565b610ea0565b610543610774366004612517565b610eaa565b61054361078736600461279a565b610ec8565b61052e61079a366004612715565b610edd565b6105436107ad366004612517565b610ee8565b61052e610f06565b61052e6107c83660046127d6565b610f10565b61050e6107db36600461279a565b610f50565b61052e6107ee3660046126ad565b610f63565b61054361080136600461279a565b610fa4565b610705610fb9565b61054361081c366004612517565b610fc8565b61052e61082f36600461256f565b611014565b610543610842366004612517565b61101f565b61052e61085536600461279a565b61103a565b610543611043565b6104e5611049565b6106a7610878366004612517565b611067565b6105436110cc565b61052e6108933660046127d6565b6110d2565b6105436108a6366004612517565b611112565b61052e6108b9366004612517565b611130565b6105436108cc366004612535565b611139565b61052e6108df36600461282c565b611168565b6105436108f2366004612517565b611173565b610543611196565b61052e61090d366004612517565b61122c565b61052e61092036600461279a565b611235565b61052e6109333660046126ad565b61123e565b61052e61094636600461267d565b61127f565b61052e61095936600461267d565b611289565b61052e61096c36600461279a565b611293565b61052e61097f3660046126ad565b6112a6565b61054361099236600461267d565b6112e7565b61052e6109a5366004612535565b61132b565b61052e6109b8366004612747565b611335565b6105436109cb36600461279a565b611377565b61052e6109de36600461267d565b61138c565b6105436109f136600461279a565b611396565b610543610a0436600461279a565b6113ab565b61052e610a1736600461267d565b6113c0565b6105436113ca565b610543610a3236600461279a565b6113d0565b61050e610a45366004612517565b6113e6565b61052e610a5836600461279a565b611407565b61052e610a6b36600461267d565b611410565b610543610509366004612535565b61052e610a8c36600461279a565b61141a565b610543610a9f36600461279a565b61141f565b610543610ab2366004612517565b611434565b61052e61144f565b61052e610acd36600461267d565b611457565b610543611461565b610543610ae836600461279a565b611467565b60408051808201909152601881527f44796e616d69632053657420446f6c6c6172205374616b650000000000000000602082015290565b60005b92915050565b610b6f85858585858080601f01602080910402602001604051908101604052809392919081815260200183838082843760009201919091525061147992505050565b5050505050565b6000818152600d60205260409020600201545b919050565b6000610b99826114ea565b5460ff1692915050565b6001600160a01b03166000908152600e602052604090206001015490565b600b546001600160a01b031690565b60035490565b610be082826114fe565b5050565b60065490565b610bf381611530565b50565b610be08282611577565b60005b9392505050565b610bf38161161f565b610c1b610e30565b6001600160a01b03166340c10f1983836040518363ffffffff1660e01b8152600401610c48929190612a03565b602060405180830381600087803b158015610c6257600080fd5b505af1158015610c76573d6000803e3d6000fd5b505050506040513d601f19601f82011682018060405250610c9a919081019061277c565b505050565b6000908152600d60205260409020600a015490565b601290565b610c9a8383838080601f01602080910402602001604051908101604052809392919081815260200183838082843760009201919091525061163892505050565b6001600160a01b03166000908152600e602052604090206003015490565b6001600160a01b03166000908152600e6020526040902054151590565b6000908152600d60205260409020600c015490565b610c9a838383611653565b6001600160a01b038082166000908152600e60209081526040808320938616835260049093019052205460ff1692915050565b610dc8848484848080601f01602080910402602001604051908101604052809392919081815260200183838082843760009201919091525061168392505050565b50505050565b610bf3816116d4565b60045490565b6000828152600d60205260408120600301805483908110610dfa57fe5b9060005260206000200154905092915050565b6000610e17612463565b610e1f6116e8565b9050610e2a81611717565b91505090565b6009546001600160a01b031690565b6001600160a01b03166000908152600c602052604090206004015490565b6000908152600d60205260409020600e015490565b7f360894a13ba1a3210667c828492db98dca3e2076cc3735a920a3ca505d382bbc5490565b610bf381611739565b610be082826117c0565b6001600160a01b03166000908152600e602052604090206002015490565b6000908152600d602052604090206003015490565b610c9a8383836118d1565b6001600160a01b03166000908152600c602052604090206001015490565b610f0e611978565b565b610c9a8383838080601f01602080910402602001604051908101604052809392919081815260200183838082843760009201919091525061199f92505050565b6000610f5a6119ba565b90911115919050565b610dc8848484848080601f0160208091040260200160405190810160405280939291908181526020018383808284376000920191909152506119bf92505050565b6000908152600d602052604090206010015490565b600a546001600160a01b031690565b600080610fd3610bd0565b905080610fe4576000915050610b89565b610c0381611008610ff486610ee8565b610ffc610dd7565b9063ffffffff611a1016565b9063ffffffff611a5316565b610c9a838383611a95565b6001600160a01b03166000908152600c602052604090205490565b610bf381611adf565b60025490565b6040805180820190915260048152634453445360e01b602082015290565b6000611071611043565b6001600160a01b0383166000908152600c6020526040902060050154111561109b57506002610b89565b6001600160a01b0382166000908152600c60205260409020600401546110bf611043565b1015610b24576001610b27565b60085490565b610c9a8383838080601f016020809104026020016040519081016040528093929190818152602001838380828437600092019190915250611af892505050565b6001600160a01b03166000908152600c602052604090206005015490565b610bf381611b13565b6001600160a01b039182166000908152600c602090815260408083209390941682526003909201909152205490565b600091909155600155565b6000610b2761118183610cf9565b61118a84610eaa565b9063ffffffff611b4516565b60006112276111a3611461565b6111ab610e30565b6001600160a01b03166318160ddd6040518163ffffffff1660e01b815260040160206040518083038186803b1580156111e357600080fd5b505afa1580156111f7573d6000803e3d6000fd5b505050506040513d601f19601f8201168201806040525061121b91908101906127b8565b9063ffffffff611b6a16565b905090565b610bf381611bac565b610bf381611bd3565b610dc8848484848080601f016020809104026020016040519081016040528093929190818152602001838380828437600092019190915250611c1692505050565b610be08282611cc1565b610be08282611d69565b610bf36112a1826064611dc5565b611df4565b610dc8848484848080601f016020809104026020016040519081016040528093929190818152602001838380828437600092019190915250611eb992505050565b60006112f282611396565b6112fe57506000610b27565b506001600160a01b03919091166000908152600c6020908152604080832093835260029093019052205490565b610be08282611f18565b610b6f85858585858080601f016020809104026020016040519081016040528093929190818152602001838380828437600092019190915250611f7892505050565b6000908152600d60205260409020600f015490565b610be08282612023565b6000908152600d602052604090206001015490565b6000908152600d602052604090206011015490565b610be082826120cd565b60055490565b6000908152600d60208190526040909120015490565b6001600160a01b03166000908152600e602052604090206005015460ff1690565b610bf38161211c565b610be08282612135565b600f55565b6000908152600d60205260409020600b015490565b6001600160a01b03166000908152600e602052604090205490565b610f0e612161565b610be0828261217a565b60075490565b6000908152600d602052604090205490565b6001600160a01b038085166000908152600c6020908152604080832093871683526003909301905220546114b490838363ffffffff6121c916565b6001600160a01b039485166000908152600c60209081526040808320969097168252600390950190945293909220929092555050565b6000908152600d6020526040902060040190565b6000828152600d6020908152604080832060020184905592825291812060030180546001810182559082529190200155565b61156f816040518060400160405280601c81526020017f436f6d7074726f6c6c65723a206e6f7420656e6f75676820646562740000000081525061199f565b610bf36121f5565b61157f610e30565b6001600160a01b03166340c10f1983836040518363ffffffff1660e01b81526004016115ac929190612a03565b602060405180830381600087803b1580156115c657600080fd5b505af11580156115da573d6000803e3d6000fd5b505050506040513d601f19601f820116820180604052506115fe919081019061277c565b5061160a6107db611043565b61161757611617816116d4565b610be06121f5565b600454611632908263ffffffff611b4516565b60045550565b60065461164c90838363ffffffff6121c916565b6006555050565b6001600160a01b039283166000908152600c60209081526040808320949095168252600390930190925291902055565b6001600160a01b0383166000908152600e60205260409020600301546116b090838363ffffffff6121c916565b6001600160a01b039093166000908152600e60205260409020600301929092555050565b6116dd81611adf565b61156f6112a16122c8565b6116f0612463565b604051806060016040528060008152602001635fbef0008152602001611c20815250905090565b6000610b27826000015161118a8460400151611008866020015161121b6122ea565b611741610e30565b6001600160a01b03166342966c68826040518263ffffffff1660e01b815260040161176c9190612a79565b600060405180830381600087803b15801561178657600080fd5b505af115801561179a573d6000803e3d6000fd5b5050505061156f816040518060600160405280602a8152602001612b90602a9139611638565b6117c8610e30565b6001600160a01b03166323b872dd8330846040518463ffffffff1660e01b81526004016117f7939291906129db565b602060405180830381600087803b15801561181157600080fd5b505af1158015611825573d6000803e3d6000fd5b505050506040513d601f19601f82011682018060405250611849919081019061277c565b50611852610e30565b6001600160a01b03166342966c68826040518263ffffffff1660e01b815260040161187d9190612a79565b600060405180830381600087803b15801561189757600080fd5b505af11580156118ab573d6000803e3d6000fd5b5050505061161781604051806060016040528060288152602001612b686028913961199f565b6001600160a01b0383166000908152600c60209081526040808320858452600201909152902054611908908263ffffffff611b4516565b6001600160a01b0384166000908152600c60209081526040808320868452600201825280832093909355600d9052206001015461194b908263ffffffff611b4516565b6000838152600d6020526040902060010155600854611970908263ffffffff611b4516565b600855505050565b611980610bd0565b600d600061198c611043565b8152602081019190915260400160002055565b6007546119b390838363ffffffff6121c916565b6007555050565b609690565b6001600160a01b0383166000908152600e60205260409020600201546119ec90838363ffffffff6121c916565b6001600160a01b039093166000908152600e60205260409020600201929092555050565b600082611a1f57506000610b27565b82820282848281611a2c57fe5b0414610c035760405162461bcd60e51b8152600401611a4a90612a69565b60405180910390fd5b6000610c0383836040518060400160405280601a81526020017f536166654d6174683a206469766973696f6e206279207a65726f0000000000008152506122f0565b6001600160a01b038083166000908152600e6020908152604080832093871683526004909301905220805482919060ff19166001836002811115611ad557fe5b0217905550505050565b600754611af2908263ffffffff611b4516565b60075550565b600454611b0c90838363ffffffff6121c916565b6004555050565b611b26611b1e612327565b61118a611043565b6001600160a01b039091166000908152600c6020526040902060040155565b600082820183811015610c035760405162461bcd60e51b8152600401611a4a90612a59565b6000610c0383836040518060400160405280601e81526020017f536166654d6174683a207375627472616374696f6e206f766572666c6f7700008152506121c9565b6001600160a01b03166000908152600e60205260409020600501805460ff19166001179055565b6000611bde82611396565b905080611beb5750610bf3565b600854611bfe908263ffffffff611b6a16565b600855506000908152600d6020526040812060010155565b6001600160a01b0383166000908152600c6020526040902060010154611c4390838363ffffffff6121c916565b6001600160a01b0384166000908152600c6020526040902060010155600354611c7390838363ffffffff6121c916565b6003556040516000906001600160a01b038516907fddf252ad1be2c89b69c2b068fc378daa952ba7f163c4a11628f55a4df523b3ef90611cb4908690612a79565b60405180910390a3505050565b6001600160a01b0382166000908152600c6020526040902060010154611ced908263ffffffff611b4516565b6001600160a01b0383166000908152600c6020526040902060010155600354611d1c908263ffffffff611b4516565b6003556040516001600160a01b038316906000907fddf252ad1be2c89b69c2b068fc378daa952ba7f163c4a11628f55a4df523b3ef90611d5d908590612a79565b60405180910390a35050565b6001600160a01b0382166000908152600c6020526040902054611d92908263ffffffff611b4516565b6001600160a01b0383166000908152600c6020526040902055600554611dbe908263ffffffff611b4516565b6005555050565b611dcd612484565b6040518060200160405280611deb85670de0b6b3a76400008661232c565b90529392505050565b6000611e86611e81611e04610e30565b6001600160a01b03166318160ddd6040518163ffffffff1660e01b815260040160206040518083038186803b158015611e3c57600080fd5b505afa158015611e50573d6000803e3d6000fd5b505050506040513d601f19601f82011682018060405250611e7491908101906127b8565b849063ffffffff61234a16565b612371565b90506000611e92611461565b905081811115610c9a576000611eae828463ffffffff611b6a16565b9050610dc881611530565b6001600160a01b0383166000908152600c6020526040902054611ee390838363ffffffff6121c916565b6001600160a01b0384166000908152600c6020526040902055600554611f1090838363ffffffff6121c916565b600555505050565b6001600160a01b0382166000908152600c602052604081206005015490611f4a611f4184610ba3565b61118a85611434565b905081811115610dc8576001600160a01b0384166000908152600c6020526040902060050181905550505050565b6001600160a01b0384166000908152600c60209081526040808320868452600201909152902054611fb090838363ffffffff6121c916565b6001600160a01b0385166000908152600c60209081526040808320878452600201825280832093909355600d90522060010154611ff490838363ffffffff6121c916565b6000848152600d602052604090206001015560085461201a90838363ffffffff6121c916565b60085550505050565b61202b610e30565b6001600160a01b031663a9059cbb83836040518363ffffffff1660e01b8152600401612058929190612a03565b602060405180830381600087803b15801561207257600080fd5b505af1158015612086573d6000803e3d6000fd5b505050506040513d601f19601f820116820180604052506120aa919081019061277c565b50611617816040518060600160405280602a8152602001612b90602a9139611638565b6001600160a01b0382166000908152600e60205260409020600301546120f9908263ffffffff611b4516565b6001600160a01b039092166000908152600e602052604090206003019190915550565b60065461212f908263ffffffff611b4516565b60065550565b61213d611043565b6001600160a01b039092166000908152600e60205260409020918255600190910155565b60025461217590600163ffffffff611b4516565b600255565b6001600160a01b0382166000908152600e60205260409020600201546121a6908263ffffffff611b4516565b6001600160a01b039092166000908152600e602052604090206002019190915550565b600081848411156121ed5760405162461bcd60e51b8152600401611a4a9190612a48565b505050900390565b610f0e612216612203610be4565b61118a61220e6113ca565b61118a610dd7565b61221e610e30565b6001600160a01b03166370a08231306040518263ffffffff1660e01b815260040161224991906129cd565b60206040518083038186803b15801561226157600080fd5b505afa158015612275573d6000803e3d6000fd5b505050506040513d601f19601f8201168201806040525061229991908101906127b8565b10156a21b7b6b83a3937b63632b960a91b74496e636f6e73697374656e742062616c616e63657360581b61238e565b6122d0612484565b5060408051602081019091526704db732547630000815290565b600f5490565b600081836123115760405162461bcd60e51b8152600401611a4a9190612a48565b50600083858161231d57fe5b0495945050505050565b602490565b600061234282611008868663ffffffff611a1016565b949350505050565b612352612484565b604080516020810190915283518190611deb908563ffffffff611a1016565b8051600090610b2790670de0b6b3a764000063ffffffff611a5316565b82610c9a5761239c826123e3565b6101d160f51b6123ab836123e3565b6040516020016123bd9392919061299c565b60408051601f198184030181529082905262461bcd60e51b8252611a4a91600401612a48565b606080826040516020016123f79190612987565b60408051601f19818403018152919052905060205b801561244c5781516000199091019082908290811061242757fe5b01602001516001600160f81b031916156124475760010181529050610b89565b61240c565b505060408051600081526020810190915292915050565b60405180606001604052806000815260200160008152602001600081525090565b6040518060200160405280600081525090565b8035610b2781612b34565b8051610b2781612b48565b8035610b2781612b51565b60008083601f8401126124ca57600080fd5b50813567ffffffffffffffff8111156124e257600080fd5b6020830191508360018202830111156124fa57600080fd5b9250929050565b8035610b2781612b5e565b8051610b2781612b5e565b60006020828403121561252957600080fd5b60006123428484612497565b6000806040838503121561254857600080fd5b60006125548585612497565b925050602061256585828601612497565b9150509250929050565b60008060006060848603121561258457600080fd5b60006125908686612497565b93505060206125a186828701612497565b92505060406125b2868287016124ad565b9150509250925092565b6000806000606084860312156125d157600080fd5b60006125dd8686612497565b93505060206125ee86828701612497565b92505060406125b286828701612501565b60008060008060006080868803121561261757600080fd5b60006126238888612497565b955050602061263488828901612497565b945050604061264588828901612501565b935050606086013567ffffffffffffffff81111561266257600080fd5b61266e888289016124b8565b92509250509295509295909350565b6000806040838503121561269057600080fd5b600061269c8585612497565b925050602061256585828601612501565b600080600080606085870312156126c357600080fd5b60006126cf8787612497565b94505060206126e087828801612501565b935050604085013567ffffffffffffffff8111156126fd57600080fd5b612709878288016124b8565b95989497509550505050565b60008060006060848603121561272a57600080fd5b60006127368686612497565b93505060206125ee86828701612501565b60008060008060006080868803121561275f57600080fd5b600061276b8888612497565b955050602061263488828901612501565b60006020828403121561278e57600080fd5b600061234284846124a2565b6000602082840312156127ac57600080fd5b60006123428484612501565b6000602082840312156127ca57600080fd5b6000612342848461250c565b6000806000604084860312156127eb57600080fd5b60006127f78686612501565b935050602084013567ffffffffffffffff81111561281457600080fd5b612820868287016124b8565b92509250509250925092565b6000806040838503121561283f57600080fd5b600061269c8585612501565b61285481612aa2565b82525050565b61285481612aad565b61285461286f82612ab2565b612abf565b61285461286f82612abf565b600061288b82612a95565b6128958185610b89565b93506128a5818560208601612af4565b9290920192915050565b61285481612ade565b61285481612ae9565b60006128cc82612a95565b6128d68185612a99565b93506128e6818560208601612af4565b6128ef81612b20565b9093019392505050565b6000612906601b83612a99565b7f536166654d6174683a206164646974696f6e206f766572666c6f770000000000815260200192915050565b600061293f602183612a99565b7f536166654d6174683a206d756c7469706c69636174696f6e206f766572666c6f8152607760f81b602082015260400192915050565b61285481612abf565b61285481612ad8565b60006129938284612874565b50602001919050565b60006129a88286612880565b91506129b48285612863565b6002820191506129c48284612880565b95945050505050565b60208101610b27828461284b565b606081016129e9828661284b565b6129f6602083018561284b565b6123426040830184612975565b60408101612a11828561284b565b610c036020830184612975565b60208101610b27828461285a565b60208101610b2782846128af565b60208101610b2782846128b8565b60208082528101610c0381846128c1565b60208082528101610b27816128f9565b60208082528101610b2781612932565b60208101610b278284612975565b60208101610b27828461297e565b5190565b90815260200190565b6000610b2782612acc565b151590565b6001600160f01b03191690565b90565b80610b8981612b2a565b6001600160a01b031690565b60ff1690565b6000610b2782612aa2565b6000610b2782612ac2565b60005b83811015612b0f578181015183820152602001612af7565b83811115610dc85750506000910152565b601f01601f191690565b60038110610bf357fe5b612b3d81612aa2565b8114610bf357600080fd5b612b3d81612aad565b60038110610bf357600080fd5b612b3d81612abf56fe436f6d7074726f6c6c65723a206e6f7420656e6f756768206f75747374616e64696e672064656274436f6d7074726f6c6c65723a206e6f7420656e6f7567682072656465656d61626c652062616c616e6365a365627a7a723158205bbd229f76af767abea08f2cad625aa578e7a25a4b0e65fa831ceba2022708ca6c6578706572696d656e74616cf564736f6c6343000511004060806040523480156200001157600080fd5b5060405180604001604052806012815260200171223cb730b6b4b19029b2ba102237b63630b960711b815250604051806040016040528060038152602001621114d160ea1b81525060126200007e6200006f6200011960201b60201c565b6001600160e01b036200011e16565b82516200009390600190602086019062000313565b508151620000a990600290602085019062000313565b506003805460ff191660ff9290921691909117905550620001109050620000cf62000170565b604051806040016040528060018152602001603160f81b815250620000fe6200020960201b620016341760201c565b306200020e60201b620016391760201c565b60075562000469565b335b90565b620001398160006200026560201b62000d7e1790919060201c565b6040516001600160a01b038216907f6ae172837ea30b801fbfcdd4108aa1d5bf8ff775444fd70256b44e6bf3dfc3f690600090a250565b60018054604080516020601f60026000196101008789161502019095169490940493840181900481028201810190925282815260609390929091830182828015620001ff5780601f10620001d357610100808354040283529160200191620001ff565b820191906000526020600020905b815481529060010190602001808311620001e157829003601f168201915b5050505050905090565b600190565b8351602094850120835193850193909320604080517f8b73c3c69bb8fe3d512ecc4cf759cc79239f7b179b0ffacaa9a75d522b39400f815295860194909452928401929092526060830152608082015260a0902090565b6200027a82826001600160e01b03620002c816565b15620002a35760405162461bcd60e51b81526004016200029a9062000436565b60405180910390fd5b6001600160a01b0316600090815260209190915260409020805460ff19166001179055565b60006001600160a01b038216620002f35760405162461bcd60e51b81526004016200029a906200044e565b506001600160a01b03166000908152602091909152604090205460ff1690565b828054600181600116156101000203166002900490600052602060002090601f016020900481019282601f106200035657805160ff191683800117855562000386565b8280016001018555821562000386579182015b828111156200038657825182559160200191906001019062000369565b506200039492915062000398565b5090565b6200011b91905b808211156200039457600081556001016200039f565b6000620003c4601f8362000460565b7f526f6c65733a206163636f756e7420616c72656164792068617320726f6c6500815260200192915050565b6000620003ff60228362000460565b7f526f6c65733a206163636f756e7420697320746865207a65726f206164647265815261737360f01b602082015260400192915050565b602080825281016200044881620003b5565b92915050565b602080825281016200044881620003f0565b90815260200190565b61178d80620004796000396000f3fe608060405234801561001057600080fd5b506004361061012c5760003560e01c806395d89b41116100ad578063aa271e1a11610071578063aa271e1a14610256578063d505accf14610269578063dab400f31461027c578063dd62ed3e14610284578063e879c19f146102975761012c565b806395d89b411461020d578063983b2d56146102155780639865027514610228578063a457c2d714610230578063a9059cbb146102435761012c565b806339509351116100f457806339509351146101ac57806340c10f19146101bf57806342966c68146101d257806370a08231146101e757806379cc6790146101fa5761012c565b806306fdde0314610131578063095ea7b31461014f57806318160ddd1461016f57806323b872dd14610184578063313ce56714610197575b600080fd5b61013961029f565b60405161014691906114c6565b60405180910390f35b61016261015d366004610ffc565b610334565b604051610146919061141b565b610177610352565b6040516101469190611429565b610162610192366004610f13565b610358565b61019f6103ca565b6040516101469190611587565b6101626101ba366004610ffc565b6103d3565b6101626101cd366004610ffc565b610427565b6101e56101e036600461102c565b610463565b005b6101776101f5366004610eb3565b610477565b6101e5610208366004610ffc565b610496565b6101396104a4565b6101e5610223366004610eb3565b610502565b6101e5610532565b61016261023e366004610ffc565b610544565b610162610251366004610ffc565b6105b2565b610162610264366004610eb3565b6105c6565b6101e5610277366004610f60565b6105d8565b61017761075f565b610177610292366004610ed9565b610765565b610177610790565b60018054604080516020601f6002600019610100878916150201909516949094049384018190048102820181019092528281526060939092909183018282801561032a5780601f106102ff5761010080835404028352916020019161032a565b820191906000526020600020905b81548152906001019060200180831161030d57829003601f168201915b5050505050905090565b60006103486103416107b4565b84846107b8565b5060015b92915050565b60065490565b600061036584848461086c565b600019610374856102926107b4565b146103c0576103c0846103856107b4565b6103bb856040518060600160405280602981526020016116fd602991396103ae8a6102926107b4565b919063ffffffff61098216565b6107b8565b5060019392505050565b60035460ff1690565b60006103486103e06107b4565b846103bb85600560006103f16107b4565b6001600160a01b03908116825260208083019390935260409182016000908120918c16815292529020549063ffffffff6109ae16565b60006104346102646107b4565b6104595760405162461bcd60e51b815260040161045090611517565b60405180910390fd5b61034883836109da565b61047461046e6107b4565b82610a9a565b50565b6001600160a01b0381166000908152600460205260409020545b919050565b6104a08282610b70565b5050565b60028054604080516020601f600019610100600187161502019094168590049384018190048102820181019092528281526060939092909183018282801561032a5780601f106102ff5761010080835404028352916020019161032a565b61050d6102646107b4565b6105295760405162461bcd60e51b815260040161045090611517565b61047481610beb565b61054261053d6107b4565b610c33565b565b60006103486105516107b4565b846103bb85604051806060016040528060258152602001611726602591396005600061057b6107b4565b6001600160a01b03908116825260208083019390935260409182016000908120918d1681529252902054919063ffffffff61098216565b60006103486105bf6107b4565b848461086c565b600061034c818363ffffffff610c7b16565b6007546001600160a01b03881660009081526008602090815260408083208054600181019091559051929361065a93909261063f927f6e71edae12b1b97f4d1f60370fef10105fa2faae0126114a169c64845d6126c9928e928e928e9290918e9101611437565b60405160208183030381529060405280519060200120610cc3565b90506000600182868686604051600081526020016040526040516106819493929190611491565b6020604051602081039080840390855afa1580156106a3573d6000803e3d6000fd5b5050506020604051035190506106f0896001600160a01b0316826001600160a01b0316146a5065726d69747461626c6560a81b70496e76616c6964207369676e617475726560781b610ce2565b6107236001600160a01b03821615156a5065726d69747461626c6560a81b6b5a65726f206164647265737360a01b610ce2565b610749864211156a5065726d69747461626c6560a81b66115e1c1a5c995960ca1b610ce2565b6107548989896107b8565b505050505050505050565b60075481565b6001600160a01b03918216600090815260056020908152604080832093909416825291909152205490565b7f6e71edae12b1b97f4d1f60370fef10105fa2faae0126114a169c64845d6126c981565b3390565b6001600160a01b0383166107de5760405162461bcd60e51b815260040161045090611567565b6001600160a01b0382166108045760405162461bcd60e51b8152600401610450906114f7565b6001600160a01b0380841660008181526005602090815260408083209487168084529490915290819020849055517f8c5be1e5ebec7d5bd14f71427d1e84f3dd0314c0f7b2291e5b200ac8c7c3b9259061085f908590611429565b60405180910390a3505050565b6001600160a01b0383166108925760405162461bcd60e51b815260040161045090611557565b6001600160a01b0382166108b85760405162461bcd60e51b8152600401610450906114d7565b6108fb816040518060600160405280602681526020016116b3602691396001600160a01b038616600090815260046020526040902054919063ffffffff61098216565b6001600160a01b038085166000908152600460205260408082209390935590841681522054610930908263ffffffff6109ae16565b6001600160a01b0380841660008181526004602052604090819020939093559151908516907fddf252ad1be2c89b69c2b068fc378daa952ba7f163c4a11628f55a4df523b3ef9061085f908590611429565b600081848411156109a65760405162461bcd60e51b815260040161045091906114c6565b505050900390565b6000828201838110156109d35760405162461bcd60e51b815260040161045090611507565b9392505050565b6001600160a01b038216610a005760405162461bcd60e51b815260040161045090611577565b600654610a13908263ffffffff6109ae16565b6006556001600160a01b038216600090815260046020526040902054610a3f908263ffffffff6109ae16565b6001600160a01b0383166000818152600460205260408082209390935591519091907fddf252ad1be2c89b69c2b068fc378daa952ba7f163c4a11628f55a4df523b3ef90610a8e908590611429565b60405180910390a35050565b6001600160a01b038216610ac05760405162461bcd60e51b815260040161045090611547565b610b0381604051806060016040528060228152602001611691602291396001600160a01b038516600090815260046020526040902054919063ffffffff61098216565b6001600160a01b038316600090815260046020526040902055600654610b2f908263ffffffff610d3c16565b6006556040516000906001600160a01b038416907fddf252ad1be2c89b69c2b068fc378daa952ba7f163c4a11628f55a4df523b3ef90610a8e908590611429565b610b7a8282610a9a565b6104a082610b866107b4565b6103bb846040518060600160405280602481526020016116d9602491396001600160a01b038816600090815260056020526040812090610bc46107b4565b6001600160a01b03168152602081019190915260400160002054919063ffffffff61098216565b610bfc60008263ffffffff610d7e16565b6040516001600160a01b038216907f6ae172837ea30b801fbfcdd4108aa1d5bf8ff775444fd70256b44e6bf3dfc3f690600090a250565b610c4460008263ffffffff610dca16565b6040516001600160a01b038216907fe94479a9f7e1952cc78f2d6baab678adc1b772d936c6583def489e524cb6669290600090a250565b60006001600160a01b038216610ca35760405162461bcd60e51b815260040161045090611537565b506001600160a01b03166000908152602091909152604090205460ff1690565b60405161190160f01b8152600281019290925260228201526042902090565b82610d3757610cf082610e12565b6101d160f51b610cff83610e12565b604051602001610d11939291906113ea565b60408051601f198184030181529082905262461bcd60e51b8252610450916004016114c6565b505050565b60006109d383836040518060400160405280601e81526020017f536166654d6174683a207375627472616374696f6e206f766572666c6f770000815250610982565b610d888282610c7b565b15610da55760405162461bcd60e51b8152600401610450906114e7565b6001600160a01b0316600090815260209190915260409020805460ff19166001179055565b610dd48282610c7b565b610df05760405162461bcd60e51b815260040161045090611527565b6001600160a01b0316600090815260209190915260409020805460ff19169055565b60608082604051602001610e2691906113d5565b60408051601f19818403018152919052905060205b8015610e7b57815160001990910190829082908110610e5657fe5b01602001516001600160f81b03191615610e765760010181529050610491565b610e3b565b505060408051600081526020810190915292915050565b803561034c8161160e565b803561034c81611622565b803561034c8161162b565b600060208284031215610ec557600080fd5b6000610ed18484610e92565b949350505050565b60008060408385031215610eec57600080fd5b6000610ef88585610e92565b9250506020610f0985828601610e92565b9150509250929050565b600080600060608486031215610f2857600080fd5b6000610f348686610e92565b9350506020610f4586828701610e92565b9250506040610f5686828701610e9d565b9150509250925092565b600080600080600080600060e0888a031215610f7b57600080fd5b6000610f878a8a610e92565b9750506020610f988a828b01610e92565b9650506040610fa98a828b01610e9d565b9550506060610fba8a828b01610e9d565b9450506080610fcb8a828b01610ea8565b93505060a0610fdc8a828b01610e9d565b92505060c0610fed8a828b01610e9d565b91505092959891949750929550565b6000806040838503121561100f57600080fd5b600061101b8585610e92565b9250506020610f0985828601610e9d565b60006020828403121561103e57600080fd5b6000610ed18484610e9d565b611053816115a2565b82525050565b611053816115ad565b61105361106e826115b2565b6115bf565b611053816115bf565b61105361106e826115bf565b600061109382611595565b61109d8185610491565b93506110ad8185602086016115d4565b9290920192915050565b60006110c282611595565b6110cc8185611599565b93506110dc8185602086016115d4565b6110e581611604565b9093019392505050565b60006110fc602383611599565b7f45524332303a207472616e7366657220746f20746865207a65726f206164647281526265737360e81b602082015260400192915050565b6000611141601f83611599565b7f526f6c65733a206163636f756e7420616c72656164792068617320726f6c6500815260200192915050565b600061117a602283611599565b7f45524332303a20617070726f766520746f20746865207a65726f206164647265815261737360f01b602082015260400192915050565b60006111be601b83611599565b7f536166654d6174683a206164646974696f6e206f766572666c6f770000000000815260200192915050565b60006111f7603083611599565b7f4d696e746572526f6c653a2063616c6c657220646f6573206e6f74206861766581526f20746865204d696e74657220726f6c6560801b602082015260400192915050565b6000611249602183611599565b7f526f6c65733a206163636f756e7420646f6573206e6f74206861766520726f6c8152606560f81b602082015260400192915050565b600061128c602283611599565b7f526f6c65733a206163636f756e7420697320746865207a65726f206164647265815261737360f01b602082015260400192915050565b60006112d0602183611599565b7f45524332303a206275726e2066726f6d20746865207a65726f206164647265738152607360f81b602082015260400192915050565b6000611313602583611599565b7f45524332303a207472616e736665722066726f6d20746865207a65726f206164815264647265737360d81b602082015260400192915050565b600061135a602483611599565b7f45524332303a20617070726f76652066726f6d20746865207a65726f206164648152637265737360e01b602082015260400192915050565b60006113a0601f83611599565b7f45524332303a206d696e7420746f20746865207a65726f206164647265737300815260200192915050565b611053816115ce565b60006113e1828461107c565b50602001919050565b60006113f68286611088565b91506114028285611062565b6002820191506114128284611088565b95945050505050565b6020810161034c8284611059565b6020810161034c8284611073565b60c081016114458289611073565b611452602083018861104a565b61145f604083018761104a565b61146c6060830186611073565b6114796080830185611073565b61148660a0830184611073565b979650505050505050565b6080810161149f8287611073565b6114ac60208301866113cc565b6114b96040830185611073565b6114126060830184611073565b602080825281016109d381846110b7565b6020808252810161034c816110ef565b6020808252810161034c81611134565b6020808252810161034c8161116d565b6020808252810161034c816111b1565b6020808252810161034c816111ea565b6020808252810161034c8161123c565b6020808252810161034c8161127f565b6020808252810161034c816112c3565b6020808252810161034c81611306565b6020808252810161034c8161134d565b6020808252810161034c81611393565b6020810161034c82846113cc565b5190565b90815260200190565b600061034c826115c2565b151590565b6001600160f01b03191690565b90565b6001600160a01b031690565b60ff1690565b60005b838110156115ef5781810151838201526020016115d7565b838111156115fe576000848401525b50505050565b601f01601f191690565b611617816115a2565b811461047457600080fd5b611617816115bf565b611617816115ce565b600190565b8351602094850120835193850193909320604080517f8b73c3c69bb8fe3d512ecc4cf759cc79239f7b179b0ffacaa9a75d522b39400f815295860194909452928401929092526060830152608082015260a090209056fe45524332303a206275726e20616d6f756e7420657863656564732062616c616e636545524332303a207472616e7366657220616d6f756e7420657863656564732062616c616e636545524332303a206275726e20616d6f756e74206578636565647320616c6c6f77616e6365446f6c6c61723a207472616e7366657220616d6f756e74206578636565647320616c6c6f77616e636545524332303a2064656372656173656420616c6c6f77616e63652062656c6f77207a65726fa365627a7a7231582021717f4bb76e445345cb7f360c6be702a59b3219eb6cebef899d276f27b2e4bb6c6578706572696d656e74616cf564736f6c63430005110040",
  "source": "/*\n    Copyright 2020 Dynamic Dollar Devs, based on the works of the Empty Set Squad\n\n    Licensed under the Apache License, Version 2.0 (the \"License\");\n    you may not use this file except in compliance with the License.\n    You may obtain a copy of the License at\n\n    http://www.apache.org/licenses/LICENSE-2.0\n\n    Unless required by applicable law or agreed to in writing, software\n    distributed under the License is distributed on an \"AS IS\" BASIS,\n    WITHOUT WARRANTIES OR CONDITIONS OF ANY KIND, either express or implied.\n    See the License for the specific language governing permissions and\n    limitations under the License.\n*/\n\npragma solidity ^0.5.17;\npragma experimental ABIEncoderV2;\n\nimport \"../dao/Comptroller.sol\";\nimport \"../token/Dollar.sol\";\nimport \"./MockState.sol\";\n\ncontract MockComptroller is Comptroller, MockState {\n    constructor(address pool) public {\n        _state.provider.dollar = new Dollar();\n        _state.provider.pool = pool;\n    }\n\n    function mintToAccountE(address account, uint256 amount) external {\n        super.mintToAccount(account, amount);\n    }\n\n    function burnFromAccountE(address account, uint256 amount) external {\n        super.burnFromAccount(account, amount);\n    }\n\n    function redeemToAccountE(address account, uint256 amount) external {\n        super.redeemToAccount(account, amount);\n    }\n\n    function burnRedeemableE(uint256 amount) external {\n        super.burnRedeemable(amount);\n    }\n\n    function increaseDebtE(uint256 amount) external {\n        super.increaseDebt(amount);\n    }\n\n    function decreaseDebtE(uint256 amount) external {\n        super.decreaseDebt(amount);\n    }\n\n    function resetDebtE(uint256 percent) external {\n        super.resetDebt(Decimal.ratio(percent, 100));\n    }\n\n    /* For testing only */\n    function mintToE(address account, uint256 amount) external {\n        dollar().mint(account, amount);\n    }\n}\n",
  "sourcePath": "/Users/cinquemb/Documents/Startups/crypto/dollar/protocol/contracts/mock/MockComptroller.sol",
  "compiler": {
    "name": "solc",
    "version": "0.5.17+commit.d19bba13.Emscripten.clang"
  },
  "schemaVersion": "3.3.3",
  "updatedAt": "2021-01-12T08:04:49.681Z",
  "devdoc": {
    "methods": {}
  },
  "userdoc": {
    "methods": {
      "balanceOfStaged(address)": {
        "notice": "Account"
      },
      "createCandidateE(address,uint256)": {
        "notice": "Governance"
      },
      "dollar()": {
        "notice": "Global"
      },
      "epoch()": {
        "notice": "Epoch"
      },
      "incrementBalanceOfE(address,uint256)": {
        "notice": "Account"
      },
      "incrementTotalBondedE(uint256)": {
        "notice": "Global"
      },
      "name()": {
        "notice": "ERC20 Interface"
      },
      "recordedVote(address,address)": {
        "notice": "Governance"
      },
      "setBlockTimestamp(uint256)": {
        "notice": "Mock"
      },
      "setEpochParamsE(uint256,uint256)": {
        "notice": "Epoch"
      },
      "transfer(address,uint256)": {
        "notice": "ERC20 Interface"
      }
    }
  }
}