{
  "contractName": "MockMarket",
  "abi": [
    {
      "inputs": [
        {
          "internalType": "address",
          "name": "pool",
          "type": "address"
        }
      ],
      "payable": false,
      "stateMutability": "nonpayable",
      "type": "constructor"
    },
    {
      "anonymous": false,
      "inputs": [
        {
          "indexed": true,
          "internalType": "address",
          "name": "owner",
          "type": "address"
        },
        {
          "indexed": true,
          "internalType": "address",
          "name": "spender",
          "type": "address"
        },
        {
          "indexed": false,
          "internalType": "uint256",
          "name": "value",
          "type": "uint256"
        }
      ],
      "name": "CouponApproval",
      "type": "event"
    },
    {
      "anonymous": false,
      "inputs": [
        {
          "indexed": true,
          "internalType": "uint256",
          "name": "epoch",
          "type": "uint256"
        },
        {
          "indexed": false,
          "internalType": "uint256",
          "name": "couponsExpired",
          "type": "uint256"
        },
        {
          "indexed": false,
          "internalType": "uint256",
          "name": "lessRedeemable",
          "type": "uint256"
        },
        {
          "indexed": false,
          "internalType": "uint256",
          "name": "lessDebt",
          "type": "uint256"
        },
        {
          "indexed": false,
          "internalType": "uint256",
          "name": "newBonded",
          "type": "uint256"
        }
      ],
      "name": "CouponExpiration",
      "type": "event"
    },
    {
      "anonymous": false,
      "inputs": [
        {
          "indexed": true,
          "internalType": "address",
          "name": "account",
          "type": "address"
        },
        {
          "indexed": true,
          "internalType": "uint256",
          "name": "epoch",
          "type": "uint256"
        },
        {
          "indexed": false,
          "internalType": "uint256",
          "name": "dollarAmount",
          "type": "uint256"
        },
        {
          "indexed": false,
          "internalType": "uint256",
          "name": "couponAmount",
          "type": "uint256"
        }
      ],
      "name": "CouponPurchase",
      "type": "event"
    },
    {
      "anonymous": false,
      "inputs": [
        {
          "indexed": true,
          "internalType": "address",
          "name": "account",
          "type": "address"
        },
        {
          "indexed": true,
          "internalType": "uint256",
          "name": "epoch",
          "type": "uint256"
        },
        {
          "indexed": false,
          "internalType": "uint256",
          "name": "couponAmount",
          "type": "uint256"
        }
      ],
      "name": "CouponRedemption",
      "type": "event"
    },
    {
      "anonymous": false,
      "inputs": [
        {
          "indexed": true,
          "internalType": "address",
          "name": "from",
          "type": "address"
        },
        {
          "indexed": true,
          "internalType": "address",
          "name": "to",
          "type": "address"
        },
        {
          "indexed": true,
          "internalType": "uint256",
          "name": "epoch",
          "type": "uint256"
        },
        {
          "indexed": false,
          "internalType": "uint256",
          "name": "value",
          "type": "uint256"
        }
      ],
      "name": "CouponTransfer",
      "type": "event"
    },
    {
      "anonymous": false,
      "inputs": [
        {
          "indexed": true,
          "internalType": "address",
          "name": "from",
          "type": "address"
        },
        {
          "indexed": true,
          "internalType": "address",
          "name": "to",
          "type": "address"
        },
        {
          "indexed": false,
          "internalType": "uint256",
          "name": "value",
          "type": "uint256"
        }
      ],
      "name": "Transfer",
      "type": "event"
    },
    {
      "constant": true,
      "inputs": [
        {
          "internalType": "address",
          "name": "owner",
          "type": "address"
        },
        {
          "internalType": "address",
          "name": "spender",
          "type": "address"
        }
      ],
      "name": "allowance",
      "outputs": [
        {
          "internalType": "uint256",
          "name": "",
          "type": "uint256"
        }
      ],
      "payable": false,
      "stateMutability": "view",
      "type": "function"
    },
    {
      "constant": true,
      "inputs": [
        {
          "internalType": "address",
          "name": "owner",
          "type": "address"
        },
        {
          "internalType": "address",
          "name": "spender",
          "type": "address"
        }
      ],
      "name": "allowanceCoupons",
      "outputs": [
        {
          "internalType": "uint256",
          "name": "",
          "type": "uint256"
        }
      ],
      "payable": false,
      "stateMutability": "view",
      "type": "function"
    },
    {
      "constant": false,
      "inputs": [
        {
          "internalType": "address",
          "name": "spender",
          "type": "address"
        },
        {
          "internalType": "uint256",
          "name": "amount",
          "type": "uint256"
        }
      ],
      "name": "approve",
      "outputs": [
        {
          "internalType": "bool",
          "name": "",
          "type": "bool"
        }
      ],
      "payable": false,
      "stateMutability": "nonpayable",
      "type": "function"
    },
    {
      "constant": false,
      "inputs": [
        {
          "internalType": "address",
          "name": "spender",
          "type": "address"
        },
        {
          "internalType": "uint256",
          "name": "amount",
          "type": "uint256"
        }
      ],
      "name": "approveCoupons",
      "outputs": [],
      "payable": false,
      "stateMutability": "nonpayable",
      "type": "function"
    },
    {
      "constant": true,
      "inputs": [
        {
          "internalType": "address",
          "name": "candidate",
          "type": "address"
        }
      ],
      "name": "approveFor",
      "outputs": [
        {
          "internalType": "uint256",
          "name": "",
          "type": "uint256"
        }
      ],
      "payable": false,
      "stateMutability": "view",
      "type": "function"
    },
    {
      "constant": true,
      "inputs": [
        {
          "internalType": "address",
          "name": "account",
          "type": "address"
        }
      ],
      "name": "balanceOf",
      "outputs": [
        {
          "internalType": "uint256",
          "name": "",
          "type": "uint256"
        }
      ],
      "payable": false,
      "stateMutability": "view",
      "type": "function"
    },
    {
      "constant": true,
      "inputs": [
        {
          "internalType": "address",
          "name": "account",
          "type": "address"
        }
      ],
      "name": "balanceOfBonded",
      "outputs": [
        {
          "internalType": "uint256",
          "name": "",
          "type": "uint256"
        }
      ],
      "payable": false,
      "stateMutability": "view",
      "type": "function"
    },
    {
      "constant": true,
      "inputs": [
        {
          "internalType": "address",
          "name": "account",
          "type": "address"
        },
        {
          "internalType": "uint256",
          "name": "epoch",
          "type": "uint256"
        }
      ],
      "name": "balanceOfCoupons",
      "outputs": [
        {
          "internalType": "uint256",
          "name": "",
          "type": "uint256"
        }
      ],
      "payable": false,
      "stateMutability": "view",
      "type": "function"
    },
    {
      "constant": true,
      "inputs": [
        {
          "internalType": "address",
          "name": "account",
          "type": "address"
        }
      ],
      "name": "balanceOfStaged",
      "outputs": [
        {
          "internalType": "uint256",
          "name": "",
          "type": "uint256"
        }
      ],
      "payable": false,
      "stateMutability": "view",
      "type": "function"
    },
    {
      "constant": true,
      "inputs": [
        {
          "internalType": "uint256",
          "name": "epoch",
          "type": "uint256"
        }
      ],
      "name": "bootstrappingAt",
      "outputs": [
        {
          "internalType": "bool",
          "name": "",
          "type": "bool"
        }
      ],
      "payable": false,
      "stateMutability": "view",
      "type": "function"
    },
    {
      "constant": false,
      "inputs": [
        {
          "internalType": "address",
          "name": "account",
          "type": "address"
        },
        {
          "internalType": "uint256",
          "name": "amount",
          "type": "uint256"
        }
      ],
      "name": "burnFromAccountE",
      "outputs": [],
      "payable": false,
      "stateMutability": "nonpayable",
      "type": "function"
    },
    {
      "constant": false,
      "inputs": [
        {
          "internalType": "uint256",
          "name": "amount",
          "type": "uint256"
        }
      ],
      "name": "burnRedeemableE",
      "outputs": [],
      "payable": false,
      "stateMutability": "nonpayable",
      "type": "function"
    },
    {
      "constant": true,
      "inputs": [
        {
          "internalType": "uint256",
          "name": "amount",
          "type": "uint256"
        }
      ],
      "name": "couponPremium",
      "outputs": [
        {
          "internalType": "uint256",
          "name": "",
          "type": "uint256"
        }
      ],
      "payable": false,
      "stateMutability": "view",
      "type": "function"
    },
    {
      "constant": true,
      "inputs": [
        {
          "internalType": "uint256",
          "name": "epoch",
          "type": "uint256"
        }
      ],
      "name": "couponsExpiration",
      "outputs": [
        {
          "internalType": "uint256",
          "name": "",
          "type": "uint256"
        }
      ],
      "payable": false,
      "stateMutability": "view",
      "type": "function"
    },
    {
      "constant": false,
      "inputs": [
        {
          "internalType": "address",
          "name": "candidate",
          "type": "address"
        },
        {
          "internalType": "uint256",
          "name": "period",
          "type": "uint256"
        }
      ],
      "name": "createCandidateE",
      "outputs": [],
      "payable": false,
      "stateMutability": "nonpayable",
      "type": "function"
    },
    {
      "constant": true,
      "inputs": [],
      "name": "decimals",
      "outputs": [
        {
          "internalType": "uint8",
          "name": "",
          "type": "uint8"
        }
      ],
      "payable": false,
      "stateMutability": "view",
      "type": "function"
    },
    {
      "constant": false,
      "inputs": [
        {
          "internalType": "uint256",
          "name": "amount",
          "type": "uint256"
        }
      ],
      "name": "decreaseDebtE",
      "outputs": [],
      "payable": false,
      "stateMutability": "nonpayable",
      "type": "function"
    },
    {
      "constant": false,
      "inputs": [
        {
          "internalType": "address",
          "name": "owner",
          "type": "address"
        },
        {
          "internalType": "address",
          "name": "spender",
          "type": "address"
        },
        {
          "internalType": "uint256",
          "name": "amount",
          "type": "uint256"
        },
        {
          "internalType": "string",
          "name": "reason",
          "type": "string"
        }
      ],
      "name": "decrementAllowanceCouponsE",
      "outputs": [],
      "payable": false,
      "stateMutability": "nonpayable",
      "type": "function"
    },
    {
      "constant": false,
      "inputs": [
        {
          "internalType": "address",
          "name": "candidate",
          "type": "address"
        },
        {
          "internalType": "uint256",
          "name": "amount",
          "type": "uint256"
        },
        {
          "internalType": "string",
          "name": "reason",
          "type": "string"
        }
      ],
      "name": "decrementApproveForE",
      "outputs": [],
      "payable": false,
      "stateMutability": "nonpayable",
      "type": "function"
    },
    {
      "constant": false,
      "inputs": [
        {
          "internalType": "address",
          "name": "account",
          "type": "address"
        },
        {
          "internalType": "uint256",
          "name": "epoch",
          "type": "uint256"
        },
        {
          "internalType": "uint256",
          "name": "amount",
          "type": "uint256"
        },
        {
          "internalType": "string",
          "name": "reason",
          "type": "string"
        }
      ],
      "name": "decrementBalanceOfCouponsE",
      "outputs": [],
      "payable": false,
      "stateMutability": "nonpayable",
      "type": "function"
    },
    {
      "constant": false,
      "inputs": [
        {
          "internalType": "address",
          "name": "account",
          "type": "address"
        },
        {
          "internalType": "uint256",
          "name": "amount",
          "type": "uint256"
        },
        {
          "internalType": "string",
          "name": "reason",
          "type": "string"
        }
      ],
      "name": "decrementBalanceOfE",
      "outputs": [],
      "payable": false,
      "stateMutability": "nonpayable",
      "type": "function"
    },
    {
      "constant": false,
      "inputs": [
        {
          "internalType": "address",
          "name": "account",
          "type": "address"
        },
        {
          "internalType": "uint256",
          "name": "amount",
          "type": "uint256"
        },
        {
          "internalType": "string",
          "name": "reason",
          "type": "string"
        }
      ],
      "name": "decrementBalanceOfStagedE",
      "outputs": [],
      "payable": false,
      "stateMutability": "nonpayable",
      "type": "function"
    },
    {
      "constant": false,
      "inputs": [
        {
          "internalType": "address",
          "name": "candidate",
          "type": "address"
        },
        {
          "internalType": "uint256",
          "name": "amount",
          "type": "uint256"
        },
        {
          "internalType": "string",
          "name": "reason",
          "type": "string"
        }
      ],
      "name": "decrementRejectForE",
      "outputs": [],
      "payable": false,
      "stateMutability": "nonpayable",
      "type": "function"
    },
    {
      "constant": false,
      "inputs": [
        {
          "internalType": "uint256",
          "name": "amount",
          "type": "uint256"
        },
        {
          "internalType": "string",
          "name": "reason",
          "type": "string"
        }
      ],
      "name": "decrementTotalBondedE",
      "outputs": [],
      "payable": false,
      "stateMutability": "nonpayable",
      "type": "function"
    },
    {
      "constant": false,
      "inputs": [
        {
          "internalType": "uint256",
          "name": "amount",
          "type": "uint256"
        },
        {
          "internalType": "string",
          "name": "reason",
          "type": "string"
        }
      ],
      "name": "decrementTotalDebtE",
      "outputs": [],
      "payable": false,
      "stateMutability": "nonpayable",
      "type": "function"
    },
    {
      "constant": false,
      "inputs": [
        {
          "internalType": "uint256",
          "name": "amount",
          "type": "uint256"
        },
        {
          "internalType": "string",
          "name": "reason",
          "type": "string"
        }
      ],
      "name": "decrementTotalRedeemableE",
      "outputs": [],
      "payable": false,
      "stateMutability": "nonpayable",
      "type": "function"
    },
    {
      "constant": true,
      "inputs": [],
      "name": "dollar",
      "outputs": [
        {
          "internalType": "contract IDollar",
          "name": "",
          "type": "address"
        }
      ],
      "payable": false,
      "stateMutability": "view",
      "type": "function"
    },
    {
      "constant": false,
      "inputs": [
        {
          "internalType": "uint256",
          "name": "epoch",
          "type": "uint256"
        }
      ],
      "name": "eliminateOutstandingCouponsE",
      "outputs": [],
      "payable": false,
      "stateMutability": "nonpayable",
      "type": "function"
    },
    {
      "constant": true,
      "inputs": [],
      "name": "epoch",
      "outputs": [
        {
          "internalType": "uint256",
          "name": "",
          "type": "uint256"
        }
      ],
      "payable": false,
      "stateMutability": "view",
      "type": "function"
    },
    {
      "constant": true,
      "inputs": [],
      "name": "epochTime",
      "outputs": [
        {
          "internalType": "uint256",
          "name": "",
          "type": "uint256"
        }
      ],
      "payable": false,
      "stateMutability": "view",
      "type": "function"
    },
    {
      "constant": true,
      "inputs": [
        {
          "internalType": "uint256",
          "name": "epoch",
          "type": "uint256"
        }
      ],
      "name": "expiringCoupons",
      "outputs": [
        {
          "internalType": "uint256",
          "name": "",
          "type": "uint256"
        }
      ],
      "payable": false,
      "stateMutability": "view",
      "type": "function"
    },
    {
      "constant": true,
      "inputs": [
        {
          "internalType": "uint256",
          "name": "epoch",
          "type": "uint256"
        },
        {
          "internalType": "uint256",
          "name": "i",
          "type": "uint256"
        }
      ],
      "name": "expiringCouponsAtIndex",
      "outputs": [
        {
          "internalType": "uint256",
          "name": "",
          "type": "uint256"
        }
      ],
      "payable": false,
      "stateMutability": "view",
      "type": "function"
    },
    {
      "constant": true,
      "inputs": [],
      "name": "implementation",
      "outputs": [
        {
          "internalType": "address",
          "name": "impl",
          "type": "address"
        }
      ],
      "payable": false,
      "stateMutability": "view",
      "type": "function"
    },
    {
      "constant": false,
      "inputs": [
        {
          "internalType": "uint256",
          "name": "amount",
          "type": "uint256"
        }
      ],
      "name": "increaseDebtE",
      "outputs": [],
      "payable": false,
      "stateMutability": "nonpayable",
      "type": "function"
    },
    {
      "constant": false,
      "inputs": [
        {
          "internalType": "address",
          "name": "candidate",
          "type": "address"
        },
        {
          "internalType": "uint256",
          "name": "amount",
          "type": "uint256"
        }
      ],
      "name": "incrementApproveForE",
      "outputs": [],
      "payable": false,
      "stateMutability": "nonpayable",
      "type": "function"
    },
    {
      "constant": false,
      "inputs": [
        {
          "internalType": "address",
          "name": "account",
          "type": "address"
        },
        {
          "internalType": "uint256",
          "name": "epoch",
          "type": "uint256"
        },
        {
          "internalType": "uint256",
          "name": "amount",
          "type": "uint256"
        }
      ],
      "name": "incrementBalanceOfCouponsE",
      "outputs": [],
      "payable": false,
      "stateMutability": "nonpayable",
      "type": "function"
    },
    {
      "constant": false,
      "inputs": [
        {
          "internalType": "address",
          "name": "account",
          "type": "address"
        },
        {
          "internalType": "uint256",
          "name": "amount",
          "type": "uint256"
        }
      ],
      "name": "incrementBalanceOfE",
      "outputs": [],
      "payable": false,
      "stateMutability": "nonpayable",
      "type": "function"
    },
    {
      "constant": false,
      "inputs": [
        {
          "internalType": "address",
          "name": "account",
          "type": "address"
        },
        {
          "internalType": "uint256",
          "name": "amount",
          "type": "uint256"
        }
      ],
      "name": "incrementBalanceOfStagedE",
      "outputs": [],
      "payable": false,
      "stateMutability": "nonpayable",
      "type": "function"
    },
    {
      "constant": false,
      "inputs": [],
      "name": "incrementEpochE",
      "outputs": [],
      "payable": false,
      "stateMutability": "nonpayable",
      "type": "function"
    },
    {
      "constant": false,
      "inputs": [
        {
          "internalType": "address",
          "name": "candidate",
          "type": "address"
        },
        {
          "internalType": "uint256",
          "name": "amount",
          "type": "uint256"
        }
      ],
      "name": "incrementRejectForE",
      "outputs": [],
      "payable": false,
      "stateMutability": "nonpayable",
      "type": "function"
    },
    {
      "constant": false,
      "inputs": [
        {
          "internalType": "uint256",
          "name": "amount",
          "type": "uint256"
        }
      ],
      "name": "incrementTotalBondedE",
      "outputs": [],
      "payable": false,
      "stateMutability": "nonpayable",
      "type": "function"
    },
    {
      "constant": false,
      "inputs": [
        {
          "internalType": "uint256",
          "name": "amount",
          "type": "uint256"
        }
      ],
      "name": "incrementTotalDebtE",
      "outputs": [],
      "payable": false,
      "stateMutability": "nonpayable",
      "type": "function"
    },
    {
      "constant": false,
      "inputs": [
        {
          "internalType": "uint256",
          "name": "amount",
          "type": "uint256"
        }
      ],
      "name": "incrementTotalRedeemableE",
      "outputs": [],
      "payable": false,
      "stateMutability": "nonpayable",
      "type": "function"
    },
    {
      "constant": false,
      "inputs": [
        {
          "internalType": "uint256",
          "name": "epoch",
          "type": "uint256"
        },
        {
          "internalType": "uint256",
          "name": "expiration",
          "type": "uint256"
        }
      ],
      "name": "initializeCouponsExpirationE",
      "outputs": [],
      "payable": false,
      "stateMutability": "nonpayable",
      "type": "function"
    },
    {
      "constant": false,
      "inputs": [
        {
          "internalType": "address",
          "name": "candidate",
          "type": "address"
        }
      ],
      "name": "initializedE",
      "outputs": [],
      "payable": false,
      "stateMutability": "nonpayable",
      "type": "function"
    },
    {
      "constant": true,
      "inputs": [
        {
          "internalType": "address",
          "name": "candidate",
          "type": "address"
        }
      ],
      "name": "isInitialized",
      "outputs": [
        {
          "internalType": "bool",
          "name": "",
          "type": "bool"
        }
      ],
      "payable": false,
      "stateMutability": "view",
      "type": "function"
    },
    {
      "constant": true,
      "inputs": [
        {
          "internalType": "address",
          "name": "candidate",
          "type": "address"
        }
      ],
      "name": "isNominated",
      "outputs": [
        {
          "internalType": "bool",
          "name": "",
          "type": "bool"
        }
      ],
      "payable": false,
      "stateMutability": "view",
      "type": "function"
    },
    {
      "constant": false,
      "inputs": [
        {
          "internalType": "address",
          "name": "account",
          "type": "address"
        },
        {
          "internalType": "uint256",
          "name": "amount",
          "type": "uint256"
        }
      ],
      "name": "mintToAccountE",
      "outputs": [],
      "payable": false,
      "stateMutability": "nonpayable",
      "type": "function"
    },
    {
      "constant": false,
      "inputs": [
        {
          "internalType": "address",
          "name": "account",
          "type": "address"
        },
        {
          "internalType": "uint256",
          "name": "amount",
          "type": "uint256"
        }
      ],
      "name": "mintToE",
      "outputs": [],
      "payable": false,
      "stateMutability": "nonpayable",
      "type": "function"
    },
    {
      "constant": true,
      "inputs": [],
      "name": "name",
      "outputs": [
        {
          "internalType": "string",
          "name": "",
          "type": "string"
        }
      ],
      "payable": false,
      "stateMutability": "view",
      "type": "function"
    },
    {
      "constant": true,
      "inputs": [],
      "name": "oracle",
      "outputs": [
        {
          "internalType": "contract IOracle",
          "name": "",
          "type": "address"
        }
      ],
      "payable": false,
      "stateMutability": "view",
      "type": "function"
    },
    {
      "constant": true,
      "inputs": [
        {
          "internalType": "uint256",
          "name": "epoch",
          "type": "uint256"
        }
      ],
      "name": "outstandingCoupons",
      "outputs": [
        {
          "internalType": "uint256",
          "name": "",
          "type": "uint256"
        }
      ],
      "payable": false,
      "stateMutability": "view",
      "type": "function"
    },
    {
      "constant": true,
      "inputs": [
        {
          "internalType": "address",
          "name": "candidate",
          "type": "address"
        }
      ],
      "name": "periodFor",
      "outputs": [
        {
          "internalType": "uint256",
          "name": "",
          "type": "uint256"
        }
      ],
      "payable": false,
      "stateMutability": "view",
      "type": "function"
    },
    {
      "constant": false,
      "inputs": [
        {
          "internalType": "address",
          "name": "account",
          "type": "address"
        },
        {
          "internalType": "address",
          "name": "candidate",
          "type": "address"
        }
      ],
      "name": "placeLockE",
      "outputs": [],
      "payable": false,
      "stateMutability": "nonpayable",
      "type": "function"
    },
    {
      "constant": true,
      "inputs": [],
      "name": "pool",
      "outputs": [
        {
          "internalType": "address",
          "name": "",
          "type": "address"
        }
      ],
      "payable": false,
      "stateMutability": "view",
      "type": "function"
    },
    {
      "constant": false,
      "inputs": [
        {
          "internalType": "uint256",
          "name": "dollarAmount",
          "type": "uint256"
        }
      ],
      "name": "purchaseCoupons",
      "outputs": [
        {
          "internalType": "uint256",
          "name": "",
          "type": "uint256"
        }
      ],
      "payable": false,
      "stateMutability": "nonpayable",
      "type": "function"
    },
    {
      "constant": false,
      "inputs": [
        {
          "internalType": "address",
          "name": "account",
          "type": "address"
        },
        {
          "internalType": "address",
          "name": "candidate",
          "type": "address"
        },
        {
          "internalType": "enum Candidate.Vote",
          "name": "vote",
          "type": "uint8"
        }
      ],
      "name": "recordVoteE",
      "outputs": [],
      "payable": false,
      "stateMutability": "nonpayable",
      "type": "function"
    },
    {
      "constant": true,
      "inputs": [
        {
          "internalType": "address",
          "name": "account",
          "type": "address"
        },
        {
          "internalType": "address",
          "name": "candidate",
          "type": "address"
        }
      ],
      "name": "recordedVote",
      "outputs": [
        {
          "internalType": "enum Candidate.Vote",
          "name": "",
          "type": "uint8"
        }
      ],
      "payable": false,
      "stateMutability": "view",
      "type": "function"
    },
    {
      "constant": false,
      "inputs": [
        {
          "internalType": "uint256",
          "name": "couponEpoch",
          "type": "uint256"
        },
        {
          "internalType": "uint256",
          "name": "couponAmount",
          "type": "uint256"
        }
      ],
      "name": "redeemCoupons",
      "outputs": [],
      "payable": false,
      "stateMutability": "nonpayable",
      "type": "function"
    },
    {
      "constant": false,
      "inputs": [
        {
          "internalType": "address",
          "name": "account",
          "type": "address"
        },
        {
          "internalType": "uint256",
          "name": "amount",
          "type": "uint256"
        }
      ],
      "name": "redeemToAccountE",
      "outputs": [],
      "payable": false,
      "stateMutability": "nonpayable",
      "type": "function"
    },
    {
      "constant": true,
      "inputs": [
        {
          "internalType": "address",
          "name": "candidate",
          "type": "address"
        }
      ],
      "name": "rejectFor",
      "outputs": [
        {
          "internalType": "uint256",
          "name": "",
          "type": "uint256"
        }
      ],
      "payable": false,
      "stateMutability": "view",
      "type": "function"
    },
    {
      "constant": false,
      "inputs": [
        {
          "internalType": "uint256",
          "name": "percent",
          "type": "uint256"
        }
      ],
      "name": "resetDebtE",
      "outputs": [],
      "payable": false,
      "stateMutability": "nonpayable",
      "type": "function"
    },
    {
      "constant": false,
      "inputs": [
        {
          "internalType": "uint256",
          "name": "timestamp",
          "type": "uint256"
        }
      ],
      "name": "setBlockTimestamp",
      "outputs": [],
      "payable": false,
      "stateMutability": "nonpayable",
      "type": "function"
    },
    {
      "constant": false,
      "inputs": [
        {
          "internalType": "uint256",
          "name": "start",
          "type": "uint256"
        },
        {
          "internalType": "uint256",
          "name": "period",
          "type": "uint256"
        }
      ],
      "name": "setEpochParamsE",
      "outputs": [],
      "payable": false,
      "stateMutability": "nonpayable",
      "type": "function"
    },
    {
      "constant": false,
      "inputs": [],
      "name": "snapshotTotalBondedE",
      "outputs": [],
      "payable": false,
      "stateMutability": "nonpayable",
      "type": "function"
    },
    {
      "constant": true,
      "inputs": [
        {
          "internalType": "address",
          "name": "candidate",
          "type": "address"
        }
      ],
      "name": "startFor",
      "outputs": [
        {
          "internalType": "uint256",
          "name": "",
          "type": "uint256"
        }
      ],
      "payable": false,
      "stateMutability": "view",
      "type": "function"
    },
    {
      "constant": true,
      "inputs": [
        {
          "internalType": "address",
          "name": "account",
          "type": "address"
        }
      ],
      "name": "statusOf",
      "outputs": [
        {
          "internalType": "enum Account.Status",
          "name": "",
          "type": "uint8"
        }
      ],
      "payable": false,
      "stateMutability": "view",
      "type": "function"
    },
    {
      "constant": true,
      "inputs": [],
      "name": "symbol",
      "outputs": [
        {
          "internalType": "string",
          "name": "",
          "type": "string"
        }
      ],
      "payable": false,
      "stateMutability": "view",
      "type": "function"
    },
    {
      "constant": true,
      "inputs": [],
      "name": "totalBonded",
      "outputs": [
        {
          "internalType": "uint256",
          "name": "",
          "type": "uint256"
        }
      ],
      "payable": false,
      "stateMutability": "view",
      "type": "function"
    },
    {
      "constant": true,
      "inputs": [
        {
          "internalType": "uint256",
          "name": "epoch",
          "type": "uint256"
        }
      ],
      "name": "totalBondedAt",
      "outputs": [
        {
          "internalType": "uint256",
          "name": "",
          "type": "uint256"
        }
      ],
      "payable": false,
      "stateMutability": "view",
      "type": "function"
    },
    {
      "constant": true,
      "inputs": [],
      "name": "totalCoupons",
      "outputs": [
        {
          "internalType": "uint256",
          "name": "",
          "type": "uint256"
        }
      ],
      "payable": false,
      "stateMutability": "view",
      "type": "function"
    },
    {
      "constant": true,
      "inputs": [],
      "name": "totalDebt",
      "outputs": [
        {
          "internalType": "uint256",
          "name": "",
          "type": "uint256"
        }
      ],
      "payable": false,
      "stateMutability": "view",
      "type": "function"
    },
    {
      "constant": true,
      "inputs": [],
      "name": "totalNet",
      "outputs": [
        {
          "internalType": "uint256",
          "name": "",
          "type": "uint256"
        }
      ],
      "payable": false,
      "stateMutability": "view",
      "type": "function"
    },
    {
      "constant": true,
      "inputs": [],
      "name": "totalRedeemable",
      "outputs": [
        {
          "internalType": "uint256",
          "name": "",
          "type": "uint256"
        }
      ],
      "payable": false,
      "stateMutability": "view",
      "type": "function"
    },
    {
      "constant": true,
      "inputs": [],
      "name": "totalStaged",
      "outputs": [
        {
          "internalType": "uint256",
          "name": "",
          "type": "uint256"
        }
      ],
      "payable": false,
      "stateMutability": "view",
      "type": "function"
    },
    {
      "constant": true,
      "inputs": [],
      "name": "totalSupply",
      "outputs": [
        {
          "internalType": "uint256",
          "name": "",
          "type": "uint256"
        }
      ],
      "payable": false,
      "stateMutability": "view",
      "type": "function"
    },
    {
      "constant": false,
      "inputs": [
        {
          "internalType": "address",
          "name": "recipient",
          "type": "address"
        },
        {
          "internalType": "uint256",
          "name": "amount",
          "type": "uint256"
        }
      ],
      "name": "transfer",
      "outputs": [
        {
          "internalType": "bool",
          "name": "",
          "type": "bool"
        }
      ],
      "payable": false,
      "stateMutability": "nonpayable",
      "type": "function"
    },
    {
      "constant": false,
      "inputs": [
        {
          "internalType": "address",
          "name": "sender",
          "type": "address"
        },
        {
          "internalType": "address",
          "name": "recipient",
          "type": "address"
        },
        {
          "internalType": "uint256",
          "name": "epoch",
          "type": "uint256"
        },
        {
          "internalType": "uint256",
          "name": "amount",
          "type": "uint256"
        }
      ],
      "name": "transferCoupons",
      "outputs": [],
      "payable": false,
      "stateMutability": "nonpayable",
      "type": "function"
    },
    {
      "constant": false,
      "inputs": [
        {
          "internalType": "address",
          "name": "sender",
          "type": "address"
        },
        {
          "internalType": "address",
          "name": "recipient",
          "type": "address"
        },
        {
          "internalType": "uint256",
          "name": "amount",
          "type": "uint256"
        }
      ],
      "name": "transferFrom",
      "outputs": [
        {
          "internalType": "bool",
          "name": "",
          "type": "bool"
        }
      ],
      "payable": false,
      "stateMutability": "nonpayable",
      "type": "function"
    },
    {
      "constant": false,
      "inputs": [
        {
          "internalType": "address",
          "name": "account",
          "type": "address"
        }
      ],
      "name": "unfreezeE",
      "outputs": [],
      "payable": false,
      "stateMutability": "nonpayable",
      "type": "function"
    },
    {
      "constant": false,
      "inputs": [
        {
          "internalType": "address",
          "name": "owner",
          "type": "address"
        },
        {
          "internalType": "address",
          "name": "spender",
          "type": "address"
        },
        {
          "internalType": "uint256",
          "name": "amount",
          "type": "uint256"
        }
      ],
      "name": "updateAllowanceCouponsE",
      "outputs": [],
      "payable": false,
      "stateMutability": "nonpayable",
      "type": "function"
    },
    {
      "constant": true,
      "inputs": [
        {
          "internalType": "address",
          "name": "candidate",
          "type": "address"
        }
      ],
      "name": "votesFor",
      "outputs": [
        {
          "internalType": "uint256",
          "name": "",
          "type": "uint256"
        }
      ],
      "payable": false,
      "stateMutability": "view",
      "type": "function"
    },
    {
      "constant": false,
      "inputs": [],
      "name": "stepE",
      "outputs": [],
      "payable": false,
      "stateMutability": "nonpayable",
      "type": "function"
    }
  ],
  "bytecode": "0x60806040523480156200001157600080fd5b5060405162005640380380620056408339810160408190526200003491620000bd565b42600f55604051819062000048906200009c565b604051809103906000f08015801562000065573d6000803e3d6000fd5b50600980546001600160a01b039283166001600160a01b031991821617909155600b80549390921692169190911790555062000112565b611c068062003a3a83390190565b8051620000b781620000f8565b92915050565b600060208284031215620000d057600080fd5b6000620000de8484620000aa565b949350505050565b60006001600160a01b038216620000b7565b6200010381620000e6565b81146200010f57600080fd5b50565b61391880620001226000396000f3fe608060405234801561001057600080fd5b50600436106104a05760003560e01c8063825ad6071161026d578063b32a2f9011610151578063d6d8816d116100ce578063e5f55c7e11610092578063e5f55c7e146109ef578063f1b7cf4914610a02578063f35adf7e14610a15578063f7a3181814610a1d578063fc7b9c1814610a30578063ffbe3b7314610a38576104a0565b8063d6d8816d14610995578063d83d3ed5146109a8578063d8f54138146109bb578063dd62ed3e146109ce578063e0abdf66146109dc576104a0565b8063c9aff70c11610115578063c9aff70c14610941578063cc8d823c14610954578063cf02377914610967578063d60b347f1461096f578063d6a9cf0814610982576104a0565b8063b32a2f90146108e2578063bc7513e2146108f5578063c1410c0214610908578063c2aeb5fe1461091b578063c45a3e0a1461092e576104a0565b80639f6e1b26116101ea578063a9059cbb116101ae578063a9059cbb146104d8578063a9b3cf1514610883578063adbff2be14610896578063ae5c2381146108a9578063b11ee0e3146108bc578063b16144a3146108cf576104a0565b80639f6e1b261461082f578063a00e14d114610842578063a50cd8e714610855578063a6c409f114610868578063a6f37b5314610870576104a0565b806395d89b411161023157806395d89b41146107e657806397a5d5b5146107ee5780639a649edc146108015780639b82b49b146108095780639be464931461081c576104a0565b8063825ad607146107925780638413e52a146107a557806386cf9f14146107b85780638de2e573146107cb578063900cf0cf146107de576104a0565b80633f7bcaf3116103945780635dbf800a1161031157806370a08231116102d557806370a082311461073657806371c511eb1461074957806372924d2a1461075157806375d5024b146107645780637cb95a32146107775780637dc0d1d01461078a576104a0565b80635dbf800a146106d75780635f14fec8146106ea57806364668022146106fd5780636a39e328146107105780636b862d6614610723576104a0565b806344d96e951161035857806344d96e95146106975780634c7360991461069f5780635053e461146106b257806351adeb57146106ba5780635c60da1b146106cf576104a0565b80633f7bcaf3146106365780633fbba9a6146106495780633fd4973c14610669578063416a23cc1461067c5780634387352614610684576104a0565b80631fac9732116104225780632f7f889e116103e65780632f7f889e146105d5578063313ce567146105e857806332347422146105fd578063353a420c146106105780633a3e6c8114610623576104a0565b80631fac97321461057657806320f6bc901461058957806323b872dd1461059c578063259f7adf146105af578063277805a9146105c2576104a0565b806315e14bf61161046957806315e14bf61461052b57806316f0115b1461053e57806318160ddd146105535780631a08e22a1461055b5780631edbcf6c1461056e576104a0565b80625edd37146104a557806306fdde03146104ba578063095ea7b3146104d85780630dc6d3a3146104f857806310e95b6c1461050b575b600080fd5b6104b86104b336600461314d565b610a4b565b005b6104c2610b6e565b6040516104cf919061369a565b60405180910390f35b6104eb6104e63660046131ae565b610ba5565b6040516104cf9190613670565b6104b86105063660046130cf565b610bae565b61051e6105193660046132cb565b610bf7565b6040516104cf919061370b565b61051e610539366004612fe7565b610c0f565b610546610c2d565b6040516104cf919061361f565b61051e610c3c565b6104b861056936600461335d565b610c42565b61051e610c50565b6104b86105843660046132cb565b610c56565b6104b86105973660046131ae565b610c62565b6104eb6105aa36600461308c565b610c6c565b6104b86105bd3660046132cb565b610c76565b6104b86105d03660046131ae565b610c7f565b6104b86105e33660046131ae565b610d0b565b6105f0610d8b565b6040516104cf919061375c565b6104b861060b366004613307565b610d90565b61051e61061e366004612fe7565b610dd0565b6104eb610631366004612fe7565b610dee565b6104b861064436600461308c565b610e0b565b61065c610657366004613005565b610e16565b6040516104cf919061368c565b6104b86106773660046131de565b610e49565b6104b8610e90565b6104b86106923660046132cb565b610e9a565b61051e610ea3565b61051e6106ad36600461335d565b610ea9565b61051e610ed9565b6106c2610efc565b6040516104cf919061367e565b610546610f0b565b6104b86106e53660046132cb565b610f30565b6104b86106f83660046131ae565b610f39565b61051e61070b366004612fe7565b610f43565b61051e61071e3660046132cb565b610f61565b6104b8610731366004613246565b610f76565b61051e610744366004612fe7565b610f81565b6104b8610f9f565b6104b861075f366004613307565b610fa7565b6104eb6107723660046132cb565b610fe7565b6104b86107853660046131de565b610ffa565b6106c261103b565b61051e6107a0366004612fe7565b61104a565b6104b86107b336600461303f565b611096565b61051e6107c6366004612fe7565b6110a1565b6104b86107d93660046132cb565b6110bc565b61051e6110c5565b6104c26110cb565b61065c6107fc366004612fe7565b6110e9565b61051e61114e565b6104b8610817366004613307565b611154565b6104b861082a366004612fe7565b611194565b61051e61083d366004613005565b61119d565b6104b861085036600461335d565b6111cc565b61051e610863366004612fe7565b6111d7565b61051e6111fa565b6104b861087e366004612fe7565b611290565b6104b86108913660046132cb565b611299565b6104b86108a43660046131de565b6112a2565b6104b86108b73660046131ae565b6112e3565b6104b86108ca3660046131ae565b6112ed565b6104b86108dd3660046132cb565b6112f7565b6104b86108f03660046131de565b61130a565b61051e6109033660046131ae565b61134b565b6104b8610916366004613005565b61138f565b6104b8610929366004613278565b611399565b6104b861093c3660046131ae565b6113db565b61051e61094f3660046132cb565b6113e5565b6104b86109623660046131ae565b6113fa565b61051e611404565b6104eb61097d366004612fe7565b61140a565b6104b861099036600461335d565b61142b565b6104b86109a33660046132cb565b6114bf565b6104b86109b63660046131ae565b6114c8565b61051e6109c93660046132cb565b6114d2565b61051e6104e6366004613005565b6104b86109ea3660046132cb565b61155d565b61051e6109fd3660046132cb565b611562565b61051e610a10366004612fe7565b611654565b6104b861166f565b6104b8610a2b3660046131ae565b611677565b61051e611681565b61051e610a463660046132cb565b611687565b6001600160a01b038416610a7a5760405162461bcd60e51b8152600401610a71906136eb565b60405180910390fd5b6001600160a01b038316610aa05760405162461bcd60e51b8152600401610a71906136bb565b610ac484838360405180606001604052806023815260200161383d60239139611699565b610acf838383611744565b336001600160a01b03851614801590610af35750600019610af0853361119d565b14155b15610b1c57610b1c843383604051806060016040528060248152602001613860602491396117eb565b81836001600160a01b0316856001600160a01b03167f0f1dbb1ccbe57a1590c7baad7b01d581b730c9ebc535dcde4345e6db424063d884604051610b60919061370b565b60405180910390a450505050565b60408051808201909152601881527f44796e616d69632053657420446f6c6c6172205374616b650000000000000000602082015290565b60005b92915050565b610bf085858585858080601f0160208091040260200160405190810160405280939291908181526020018383808284376000920191909152506117eb92505050565b5050505050565b6000818152600d60205260409020600201545b919050565b6001600160a01b03166000908152600e602052604090206001015490565b600b546001600160a01b031690565b60035490565b610c4c828261185c565b5050565b60065490565b610c5f8161188e565b50565b610c4c82826118d5565b60005b9392505050565b610c5f8161197d565b610c87610efc565b6001600160a01b03166340c10f1983836040518363ffffffff1660e01b8152600401610cb4929190613655565b602060405180830381600087803b158015610cce57600080fd5b505af1158015610ce2573d6000803e3d6000fd5b505050506040513d601f19601f82011682018060405250610d0691908101906132ad565b505050565b6001600160a01b038216610d315760405162461bcd60e51b8152600401610a71906136db565b610d3c338383611996565b816001600160a01b0316336001600160a01b03167f8ff27e6b95060c1ca851e7c2c28af8b413eb1a8bcb637b0290da9543a709cce383604051610d7f919061370b565b60405180910390a35050565b601290565b610d068383838080601f0160208091040260200160405190810160405280939291908181526020018383808284376000920191909152506119c692505050565b6001600160a01b03166000908152600e602052604090206003015490565b6001600160a01b03166000908152600e6020526040902054151590565b610d06838383611996565b6001600160a01b038082166000908152600e60209081526040808320938616835260049093019052205460ff1692915050565b610e8a848484848080601f0160208091040260200160405190810160405280939291908181526020018383808284376000920191909152506119e192505050565b50505050565b610e98611a32565b565b610c5f81611a91565b60045490565b6000828152600d60205260408120600301805483908110610ec657fe5b9060005260206000200154905092915050565b6000610ee3612f33565b610eeb611aa5565b9050610ef681611ad4565b91505090565b6009546001600160a01b031690565b7f360894a13ba1a3210667c828492db98dca3e2076cc3735a920a3ca505d382bbc5490565b610c5f81611af6565b610c4c8282611b7d565b6001600160a01b03166000908152600e602052604090206002015490565b6000908152600d602052604090206003015490565b610d06838383611744565b6001600160a01b03166000908152600c602052604090206001015490565b610e98611c8e565b610d068383838080601f016020809104026020016040519081016040528093929190818152602001838380828437600092019190915250611cb592505050565b6000610ff1611cd0565b90911115919050565b610e8a848484848080601f016020809104026020016040519081016040528093929190818152602001838380828437600092019190915250611cd592505050565b600a546001600160a01b031690565b600080611055610c3c565b905080611066576000915050610c0a565b610c6f8161108a61107686610f81565b61107e610ea3565b9063ffffffff611d2616565b9063ffffffff611d6016565b610d06838383611da2565b6001600160a01b03166000908152600c602052604090205490565b610c5f81611dec565b60025490565b6040805180820190915260048152634453445360e01b602082015290565b60006110f36110c5565b6001600160a01b0383166000908152600c6020526040902060050154111561111d57506002610c0a565b6001600160a01b0382166000908152600c60205260409020600401546111416110c5565b1015610ba5576001610ba8565b60085490565b610d068383838080601f016020809104026020016040519081016040528093929190818152602001838380828437600092019190915250611e0592505050565b610c5f81611e20565b6001600160a01b039182166000908152600c602090815260408083209390941682526003909201909152205490565b600091909155600155565b6000610ba86111e583610dd0565b6111ee84610f43565b9063ffffffff611e4a16565b600061128b611207611681565b61120f610efc565b6001600160a01b03166318160ddd6040518163ffffffff1660e01b815260040160206040518083038186803b15801561124757600080fd5b505afa15801561125b573d6000803e3d6000fd5b505050506040513d601f19601f8201168201806040525061127f91908101906132e9565b9063ffffffff611e6f16565b905090565b610c5f81611eb1565b610c5f81611ed8565b610e8a848484848080601f016020809104026020016040519081016040528093929190818152602001838380828437600092019190915250611f1b92505050565b610c4c8282611fc6565b610c4c8282612062565b610c5f6113058260646120be565b6120ed565b610e8a848484848080601f0160208091040260200160405190810160405280939291908181526020018383808284376000920191909152506121b292505050565b6000611356826113e5565b61136257506000610ba8565b506001600160a01b03919091166000908152600c6020908152604080832093835260029093019052205490565b610c4c8282612211565b610bf085858585858080601f01602080910402602001604051908101604052809392919081815260200183838082843760009201919091525061169992505050565b610c4c8282612271565b6000908152600d602052604090206001015490565b610c4c828261231b565b60055490565b6001600160a01b03166000908152600e602052604090206005015460ff1690565b60026114398361127f6110c5565b10156114575760405162461bcd60e51b8152600401610a71906136fb565b61147b33838360405180606001604052806023815260200161383d60239139611699565b6114853382612271565b81336001600160a01b03167f46e9903ae8ac9e9f0c9bc321b05965c1c036e7d4783758703f5cdfc4133c51b683604051610d7f919061370b565b610c5f8161236a565b610c4c8282612383565b6000610ba86114df610efc565b6001600160a01b03166318160ddd6040518163ffffffff1660e01b815260040160206040518083038186803b15801561151757600080fd5b505afa15801561152b573d6000803e3d6000fd5b505050506040513d601f19601f8201168201806040525061154f91908101906132e9565b611557611681565b846123af565b600f55565b600061159b600083116513585c9ad95d60d21b7f4d757374207075726368617365206e6f6e2d7a65726f20616d6f756e740000006123d7565b6115cb826115a7611681565b10156513585c9ad95d60d21b6e139bdd08195b9bdd59da081919589d608a1b6123d7565b60006115d56110c5565b905060006115f26115e5856114d2565b859063ffffffff611e4a16565b90506115fe3385611b7d565b611609338383611744565b81336001600160a01b03167fbce252db29f761f815dc2e9ea60005af065efba6eb619d2a0b2a113fdeb614148684604051611645929190613719565b60405180910390a39392505050565b6001600160a01b03166000908152600e602052604090205490565b610e9861242c565b610c4c8282612445565b60075490565b6000908152600d602052604090205490565b6001600160a01b0384166000908152600c602090815260408083208684526002019091529020546116d190838363ffffffff61249416565b6001600160a01b0385166000908152600c60209081526040808320878452600201825280832093909355600d9052206001015461171590838363ffffffff61249416565b6000848152600d602052604090206001015560085461173b90838363ffffffff61249416565b60085550505050565b6001600160a01b0383166000908152600c6020908152604080832085845260020190915290205461177b908263ffffffff611e4a16565b6001600160a01b0384166000908152600c60209081526040808320868452600201825280832093909355600d905220600101546117be908263ffffffff611e4a16565b6000838152600d60205260409020600101556008546117e3908263ffffffff611e4a16565b600855505050565b6001600160a01b038085166000908152600c60209081526040808320938716835260039093019052205461182690838363ffffffff61249416565b6001600160a01b039485166000908152600c60209081526040808320969097168252600390950190945293909220929092555050565b6000828152600d6020908152604080832060020184905592825291812060030180546001810182559082529190200155565b6118cd816040518060400160405280601c81526020017f436f6d7074726f6c6c65723a206e6f7420656e6f756768206465627400000000815250611cb5565b610c5f6124c0565b6118dd610efc565b6001600160a01b03166340c10f1983836040518363ffffffff1660e01b815260040161190a929190613655565b602060405180830381600087803b15801561192457600080fd5b505af1158015611938573d6000803e3d6000fd5b505050506040513d601f19601f8201168201806040525061195c91908101906132ad565b506119686107726110c5565b6119755761197581611a91565b610c4c6124c0565b600454611990908263ffffffff611e4a16565b60045550565b6001600160a01b039283166000908152600c60209081526040808320949095168252600390930190925291902055565b6006546119da90838363ffffffff61249416565b6006555050565b6001600160a01b0383166000908152600e6020526040902060030154611a0e90838363ffffffff61249416565b6001600160a01b039093166000908152600e60205260409020600301929092555050565b60005b611a4061071e6110c5565b811015611a6857611a60611a5b611a556110c5565b83610ea9565b612593565b600101611a35565b506000611a7e611a7661263f565b6111ee6110c5565b9050610c5f611a8b6110c5565b8261185c565b611a9a81611dec565b6118cd611305612645565b611aad612f33565b604051806060016040528060008152602001635fbef0008152602001611c20815250905090565b6000610ba882600001516111ee846040015161108a866020015161127f612667565b611afe610efc565b6001600160a01b03166342966c68826040518263ffffffff1660e01b8152600401611b29919061370b565b600060405180830381600087803b158015611b4357600080fd5b505af1158015611b57573d6000803e3d6000fd5b505050506118cd816040518060600160405280602a81526020016138ac602a91396119c6565b611b85610efc565b6001600160a01b03166323b872dd8330846040518463ffffffff1660e01b8152600401611bb49392919061362d565b602060405180830381600087803b158015611bce57600080fd5b505af1158015611be2573d6000803e3d6000fd5b505050506040513d601f19601f82011682018060405250611c0691908101906132ad565b50611c0f610efc565b6001600160a01b03166342966c68826040518263ffffffff1660e01b8152600401611c3a919061370b565b600060405180830381600087803b158015611c5457600080fd5b505af1158015611c68573d6000803e3d6000fd5b505050506119758160405180606001604052806028815260200161388460289139611cb5565b611c96610c3c565b600d6000611ca26110c5565b8152602081019190915260400160002055565b600754611cc990838363ffffffff61249416565b6007555050565b609690565b6001600160a01b0383166000908152600e6020526040902060020154611d0290838363ffffffff61249416565b6001600160a01b039093166000908152600e60205260409020600201929092555050565b600082611d3557506000610ba8565b82820282848281611d4257fe5b0414610c6f5760405162461bcd60e51b8152600401610a71906136cb565b6000610c6f83836040518060400160405280601a81526020017f536166654d6174683a206469766973696f6e206279207a65726f00000000000081525061266d565b6001600160a01b038083166000908152600e6020908152604080832093871683526004909301905220805482919060ff19166001836002811115611de257fe5b0217905550505050565b600754611dff908263ffffffff611e4a16565b60075550565b600454611e1990838363ffffffff61249416565b6004555050565b611e2b611a766126a4565b6001600160a01b039091166000908152600c6020526040902060040155565b600082820183811015610c6f5760405162461bcd60e51b8152600401610a71906136ab565b6000610c6f83836040518060400160405280601e81526020017f536166654d6174683a207375627472616374696f6e206f766572666c6f770000815250612494565b6001600160a01b03166000908152600e60205260409020600501805460ff19166001179055565b6000611ee3826113e5565b905080611ef05750610c5f565b600854611f03908263ffffffff611e6f16565b600855506000908152600d6020526040812060010155565b6001600160a01b0383166000908152600c6020526040902060010154611f4890838363ffffffff61249416565b6001600160a01b0384166000908152600c6020526040902060010155600354611f7890838363ffffffff61249416565b6003556040516000906001600160a01b038516907fddf252ad1be2c89b69c2b068fc378daa952ba7f163c4a11628f55a4df523b3ef90611fb990869061370b565b60405180910390a3505050565b6001600160a01b0382166000908152600c6020526040902060010154611ff2908263ffffffff611e4a16565b6001600160a01b0383166000908152600c6020526040902060010155600354612021908263ffffffff611e4a16565b6003556040516001600160a01b038316906000907fddf252ad1be2c89b69c2b068fc378daa952ba7f163c4a11628f55a4df523b3ef90610d7f90859061370b565b6001600160a01b0382166000908152600c602052604090205461208b908263ffffffff611e4a16565b6001600160a01b0383166000908152600c60205260409020556005546120b7908263ffffffff611e4a16565b6005555050565b6120c6612f54565b60405180602001604052806120e485670de0b6b3a7640000866126a9565b90529392505050565b600061217f61217a6120fd610efc565b6001600160a01b03166318160ddd6040518163ffffffff1660e01b815260040160206040518083038186803b15801561213557600080fd5b505afa158015612149573d6000803e3d6000fd5b505050506040513d601f19601f8201168201806040525061216d91908101906132e9565b849063ffffffff6126bf16565b6126e6565b9050600061218b611681565b905081811115610d065760006121a7828463ffffffff611e6f16565b9050610e8a8161188e565b6001600160a01b0383166000908152600c60205260409020546121dc90838363ffffffff61249416565b6001600160a01b0384166000908152600c602052604090205560055461220990838363ffffffff61249416565b600555505050565b6001600160a01b0382166000908152600c60205260408120600501549061224361223a84610c0f565b6111ee85611654565b905081811115610e8a576001600160a01b0384166000908152600c6020526040902060050181905550505050565b612279610efc565b6001600160a01b031663a9059cbb83836040518363ffffffff1660e01b81526004016122a6929190613655565b602060405180830381600087803b1580156122c057600080fd5b505af11580156122d4573d6000803e3d6000fd5b505050506040513d601f19601f820116820180604052506122f891908101906132ad565b50611975816040518060600160405280602a81526020016138ac602a91396119c6565b6001600160a01b0382166000908152600e6020526040902060030154612347908263ffffffff611e4a16565b6001600160a01b039092166000908152600e602052604090206003019190915550565b60065461237d908263ffffffff611e4a16565b60065550565b61238b6110c5565b6001600160a01b039092166000908152600e60205260409020918255600190910155565b60006123cf61217a836123c3878787612703565b9063ffffffff6126bf16565b949350505050565b82610d06576123e58261287c565b6101d160f51b6123f48361287c565b604051602001612406939291906135ee565b60408051601f198184030181529082905262461bcd60e51b8252610a719160040161369a565b60025461244090600163ffffffff611e4a16565b600255565b6001600160a01b0382166000908152600e6020526040902060020154612471908263ffffffff611e4a16565b6001600160a01b039092166000908152600e602052604090206002019190915550565b600081848411156124b85760405162461bcd60e51b8152600401610a71919061369a565b505050900390565b610e986124e16124ce610c50565b6111ee6124d9611404565b6111ee610ea3565b6124e9610efc565b6001600160a01b03166370a08231306040518263ffffffff1660e01b8152600401612514919061361f565b60206040518083038186803b15801561252c57600080fd5b505afa158015612540573d6000803e3d6000fd5b505050506040513d601f19601f8201168201806040525061256491908101906132e9565b10156a21b7b6b83a3937b63632b960a91b74496e636f6e73697374656e742062616c616e63657360581b6123d7565b600061259e826113e5565b9050600080806125ad85611ed8565b60006125b7610c50565b905060006125c361114e565b9050808211156125f8576125dd828263ffffffff611e6f16565b94506125e885611af6565b6125f1856128fc565b9095509350505b867f753df65b37159bf237ae1fca97ba1bd57cf83bc9498f271a514a4d7bafe87bda8787878760405161262e9493929190613727565b60405180910390a250505050505050565b61016890565b61264d612f54565b5060408051602081019091526704db732547630000815290565b600f5490565b6000818361268e5760405162461bcd60e51b8152600401610a71919061369a565b50600083858161269a57fe5b0495945050505050565b602490565b60006123cf8261108a868663ffffffff611d2616565b6126c7612f54565b6040805160208101909152835181906120e4908563ffffffff611d2616565b8051600090610ba890670de0b6b3a764000063ffffffff611d6016565b61270b612f54565b612713612f54565b61271d84866120be565b9050612727612f54565b61272f612645565b90506000612743878663ffffffff611e6f16565b90506000612757878763ffffffff611e6f16565b9050612761612f54565b61276b82846120be565b905061277d858563ffffffff612a6816565b1561286557612792818563ffffffff612a6816565b156127ac576127a084612a7e565b95505050505050610c6f565b6127b4612f54565b6127be8286612ae2565b90506127c8612f54565b6127d8868463ffffffff612b3f16565b90506127e2612f54565b6127eb87612a7e565b90506127f5612f54565b612805898963ffffffff612b3f16565b905061285561281a848363ffffffff612b6816565b61284961282d858563ffffffff612b9116565b61283d888863ffffffff612b9116565b9063ffffffff612b6816565b9063ffffffff612bbf16565b9950505050505050505050610c6f565b61286f8186612ae2565b9998505050505050505050565b6060808260405160200161289091906135d9565b60408051601f19818403018152919052905060205b80156128e5578151600019909101908290829081106128c057fe5b01602001516001600160f81b031916156128e05760010181529050610c0a565b6128a5565b505060408051600081526020810190915292915050565b600080808080808061290c610c50565b9050600061291861114e565b9050808210156129d557612932818363ffffffff611e6f16565b945061295a6129496064612944612bed565b611e6f565b61108a87606463ffffffff611d2616565b9450888511612969578461296b565b885b945061298a606461108a61297d612bed565b889063ffffffff611d2616565b925061299c858463ffffffff611e6f16565b94506129a783612bf2565b6129b085612c86565b6129c0898463ffffffff611e6f16565b98506129d2898663ffffffff611e6f16565b98505b60006129df611681565b905060008a1180156129f15750600081115b15612a2357898111612a035780612a05565b895b9450612a108561188e565b612a208a8663ffffffff611e6f16565b99505b612a2b610ea3565b612a3457600099505b8915612a4357612a438a612d17565b8585612a558c8763ffffffff611e4a16565b9850985098505050505050509193909250565b6000612a748383612db7565b6002149392505050565b612a86612f54565b610ba8612a95600160036120be565b612aac612ada612ac46002612ab888612aac612de9565b9063ffffffff612b3f16565b9063ffffffff612e0b16565b612ace6003612e61565b9063ffffffff612b9116565b612849612de9565b612aea612f54565b612afa838363ffffffff612e9516565b15612b0f57612b0883612a7e565b9050610ba8565b610c6f612b1e600160036120be565b612aac612ada612b3087612aac612de9565b612ace612ac488612aac612de9565b612b47612f54565b60408051602081019091528251845182916120e4919063ffffffff611e6f16565b612b70612f54565b60408051602081019091528251845182916120e4919063ffffffff611e4a16565b612b99612f54565b60405180602001604052806120e485600001518560000151670de0b6b3a76400006126a9565b612bc7612f54565b60405180602001604052806120e48560000151670de0b6b3a764000086600001516126a9565b602890565b8015610c5f57612c00610efc565b6001600160a01b03166340c10f19612c16610c2d565b836040518363ffffffff1660e01b8152600401612c34929190613655565b602060405180830381600087803b158015612c4e57600080fd5b505af1158015612c62573d6000803e3d6000fd5b505050506040513d601f19601f82011682018060405250610c4c91908101906132ad565b612c8e610efc565b6001600160a01b03166340c10f1930836040518363ffffffff1660e01b8152600401612cbb929190613655565b602060405180830381600087803b158015612cd557600080fd5b505af1158015612ce9573d6000803e3d6000fd5b505050506040513d601f19601f82011682018060405250612d0d91908101906132ad565b506118cd8161236a565b612d5a6000612d24610ea3565b116a21b7b6b83a3937b63632b960a91b7f43616e74206d696e7420746f20656d70747920706f6f6c0000000000000000006123d7565b6000612d79606461108a612d6c612bed565b859063ffffffff611d2616565b90506000818311612d8b576000612d9b565b612d9b838363ffffffff611e6f16565b9050612da682612bf2565b612daf81612e9c565b610d066124c0565b805182516000911415612dcc57506001610ba8565b8151835111612ddc576000612ddf565b60025b60ff169392505050565b612df1612f54565b506040805160208101909152670de0b6b3a7640000815290565b612e13612f54565b81612e2257612b086001612e61565b612e2a612f54565b5060408051602081019091528351815260015b83811015612e5957612e4f8286612b91565b9150600101612e3d565b509392505050565b612e69612f54565b604080516020810190915280612e8d84670de0b6b3a764000063ffffffff611d2616565b905292915050565b5190511490565b8015610c5f57612eaa610efc565b6001600160a01b03166340c10f1930836040518363ffffffff1660e01b8152600401612ed7929190613655565b602060405180830381600087803b158015612ef157600080fd5b505af1158015612f05573d6000803e3d6000fd5b505050506040513d601f19601f82011682018060405250612f2991908101906132ad565b50610c5f8161197d565b60405180606001604052806000815260200160008152602001600081525090565b6040518060200160405280600081525090565b8035610ba881613809565b8051610ba88161381d565b8035610ba881613826565b60008083601f840112612f9a57600080fd5b50813567ffffffffffffffff811115612fb257600080fd5b602083019150836001820283011115612fca57600080fd5b9250929050565b8035610ba881613833565b8051610ba881613833565b600060208284031215612ff957600080fd5b60006123cf8484612f67565b6000806040838503121561301857600080fd5b60006130248585612f67565b925050602061303585828601612f67565b9150509250929050565b60008060006060848603121561305457600080fd5b60006130608686612f67565b935050602061307186828701612f67565b925050604061308286828701612f7d565b9150509250925092565b6000806000606084860312156130a157600080fd5b60006130ad8686612f67565b93505060206130be86828701612f67565b925050604061308286828701612fd1565b6000806000806000608086880312156130e757600080fd5b60006130f38888612f67565b955050602061310488828901612f67565b945050604061311588828901612fd1565b935050606086013567ffffffffffffffff81111561313257600080fd5b61313e88828901612f88565b92509250509295509295909350565b6000806000806080858703121561316357600080fd5b600061316f8787612f67565b945050602061318087828801612f67565b935050604061319187828801612fd1565b92505060606131a287828801612fd1565b91505092959194509250565b600080604083850312156131c157600080fd5b60006131cd8585612f67565b925050602061303585828601612fd1565b600080600080606085870312156131f457600080fd5b60006132008787612f67565b945050602061321187828801612fd1565b935050604085013567ffffffffffffffff81111561322e57600080fd5b61323a87828801612f88565b95989497509550505050565b60008060006060848603121561325b57600080fd5b60006132678686612f67565b93505060206130be86828701612fd1565b60008060008060006080868803121561329057600080fd5b600061329c8888612f67565b955050602061310488828901612fd1565b6000602082840312156132bf57600080fd5b60006123cf8484612f72565b6000602082840312156132dd57600080fd5b60006123cf8484612fd1565b6000602082840312156132fb57600080fd5b60006123cf8484612fdc565b60008060006040848603121561331c57600080fd5b60006133288686612fd1565b935050602084013567ffffffffffffffff81111561334557600080fd5b61335186828701612f88565b92509250509250925092565b6000806040838503121561337057600080fd5b60006131cd8585612fd1565b61338581613777565b82525050565b61338581613782565b6133856133a082613787565b613794565b6133856133a082613794565b60006133bc8261376a565b6133c68185610c0a565b93506133d68185602086016137c9565b9290920192915050565b613385816137b3565b613385816137be565b60006133fd8261376a565b613407818561376e565b93506134178185602086016137c9565b613420816137f5565b9093019392505050565b6000613437601b8361376e565b7f536166654d6174683a206164646974696f6e206f766572666c6f770000000000815260200192915050565b6000613470602b8361376e565b7f4d61726b65743a20436f75706f6e207472616e7366657220746f20746865207a81526a65726f206164647265737360a81b602082015260400192915050565b60006134bd60218361376e565b7f536166654d6174683a206d756c7469706c69636174696f6e206f766572666c6f8152607760f81b602082015260400192915050565b6000613500602a8361376e565b7f4d61726b65743a20436f75706f6e20617070726f766520746f20746865207a65815269726f206164647265737360b01b602082015260400192915050565b600061354c602d8361376e565b7f4d61726b65743a20436f75706f6e207472616e736665722066726f6d2074686581526c207a65726f206164647265737360981b602082015260400192915050565b600061359b601b8361376e565b7f4d61726b65743a20546f6f206561726c7920746f2072656465656d0000000000815260200192915050565b61338581613794565b613385816137ad565b60006135e582846133a5565b50602001919050565b60006135fa82866133b1565b91506136068285613394565b60028201915061361682846133b1565b95945050505050565b60208101610ba8828461337c565b6060810161363b828661337c565b613648602083018561337c565b6123cf60408301846135c7565b60408101613663828561337c565b610c6f60208301846135c7565b60208101610ba8828461338b565b60208101610ba882846133e0565b60208101610ba882846133e9565b60208082528101610c6f81846133f2565b60208082528101610ba88161342a565b60208082528101610ba881613463565b60208082528101610ba8816134b0565b60208082528101610ba8816134f3565b60208082528101610ba88161353f565b60208082528101610ba88161358e565b60208101610ba882846135c7565b6040810161366382856135c7565b6080810161373582876135c7565b61374260208301866135c7565b61374f60408301856135c7565b61361660608301846135c7565b60208101610ba882846135d0565b5190565b90815260200190565b6000610ba8826137a1565b151590565b6001600160f01b03191690565b90565b80610c0a816137ff565b6001600160a01b031690565b60ff1690565b6000610ba882613777565b6000610ba882613797565b60005b838110156137e45781810151838201526020016137cc565b83811115610e8a5750506000910152565b601f01601f191690565b60038110610c5f57fe5b61381281613777565b8114610c5f57600080fd5b61381281613782565b60038110610c5f57600080fd5b6138128161379456fe4d61726b65743a20496e73756666696369656e7420636f75706f6e2062616c616e63654d61726b65743a20496e73756666696369656e7420636f75706f6e20617070726f76616c436f6d7074726f6c6c65723a206e6f7420656e6f756768206f75747374616e64696e672064656274436f6d7074726f6c6c65723a206e6f7420656e6f7567682072656465656d61626c652062616c616e6365a365627a7a72315820dd8ad019c78dca9987cd42d4ad8290106c4ea4df88ad86da0de9ea7d138101b46c6578706572696d656e74616cf564736f6c6343000511004060806040523480156200001157600080fd5b5060405180604001604052806012815260200171223cb730b6b4b19029b2ba102237b63630b960711b815250604051806040016040528060038152602001621114d160ea1b81525060126200007e6200006f6200011960201b60201c565b6001600160e01b036200011e16565b82516200009390600190602086019062000313565b508151620000a990600290602085019062000313565b506003805460ff191660ff9290921691909117905550620001109050620000cf62000170565b604051806040016040528060018152602001603160f81b815250620000fe6200020960201b620016341760201c565b306200020e60201b620016391760201c565b60075562000469565b335b90565b620001398160006200026560201b62000d7e1790919060201c565b6040516001600160a01b038216907f6ae172837ea30b801fbfcdd4108aa1d5bf8ff775444fd70256b44e6bf3dfc3f690600090a250565b60018054604080516020601f60026000196101008789161502019095169490940493840181900481028201810190925282815260609390929091830182828015620001ff5780601f10620001d357610100808354040283529160200191620001ff565b820191906000526020600020905b815481529060010190602001808311620001e157829003601f168201915b5050505050905090565b600190565b8351602094850120835193850193909320604080517f8b73c3c69bb8fe3d512ecc4cf759cc79239f7b179b0ffacaa9a75d522b39400f815295860194909452928401929092526060830152608082015260a0902090565b6200027a82826001600160e01b03620002c816565b15620002a35760405162461bcd60e51b81526004016200029a9062000436565b60405180910390fd5b6001600160a01b0316600090815260209190915260409020805460ff19166001179055565b60006001600160a01b038216620002f35760405162461bcd60e51b81526004016200029a906200044e565b506001600160a01b03166000908152602091909152604090205460ff1690565b828054600181600116156101000203166002900490600052602060002090601f016020900481019282601f106200035657805160ff191683800117855562000386565b8280016001018555821562000386579182015b828111156200038657825182559160200191906001019062000369565b506200039492915062000398565b5090565b6200011b91905b808211156200039457600081556001016200039f565b6000620003c4601f8362000460565b7f526f6c65733a206163636f756e7420616c72656164792068617320726f6c6500815260200192915050565b6000620003ff60228362000460565b7f526f6c65733a206163636f756e7420697320746865207a65726f206164647265815261737360f01b602082015260400192915050565b602080825281016200044881620003b5565b92915050565b602080825281016200044881620003f0565b90815260200190565b61178d80620004796000396000f3fe608060405234801561001057600080fd5b506004361061012c5760003560e01c806395d89b41116100ad578063aa271e1a11610071578063aa271e1a14610256578063d505accf14610269578063dab400f31461027c578063dd62ed3e14610284578063e879c19f146102975761012c565b806395d89b411461020d578063983b2d56146102155780639865027514610228578063a457c2d714610230578063a9059cbb146102435761012c565b806339509351116100f457806339509351146101ac57806340c10f19146101bf57806342966c68146101d257806370a08231146101e757806379cc6790146101fa5761012c565b806306fdde0314610131578063095ea7b31461014f57806318160ddd1461016f57806323b872dd14610184578063313ce56714610197575b600080fd5b61013961029f565b60405161014691906114c6565b60405180910390f35b61016261015d366004610ffc565b610334565b604051610146919061141b565b610177610352565b6040516101469190611429565b610162610192366004610f13565b610358565b61019f6103ca565b6040516101469190611587565b6101626101ba366004610ffc565b6103d3565b6101626101cd366004610ffc565b610427565b6101e56101e036600461102c565b610463565b005b6101776101f5366004610eb3565b610477565b6101e5610208366004610ffc565b610496565b6101396104a4565b6101e5610223366004610eb3565b610502565b6101e5610532565b61016261023e366004610ffc565b610544565b610162610251366004610ffc565b6105b2565b610162610264366004610eb3565b6105c6565b6101e5610277366004610f60565b6105d8565b61017761075f565b610177610292366004610ed9565b610765565b610177610790565b60018054604080516020601f6002600019610100878916150201909516949094049384018190048102820181019092528281526060939092909183018282801561032a5780601f106102ff5761010080835404028352916020019161032a565b820191906000526020600020905b81548152906001019060200180831161030d57829003601f168201915b5050505050905090565b60006103486103416107b4565b84846107b8565b5060015b92915050565b60065490565b600061036584848461086c565b600019610374856102926107b4565b146103c0576103c0846103856107b4565b6103bb856040518060600160405280602981526020016116fd602991396103ae8a6102926107b4565b919063ffffffff61098216565b6107b8565b5060019392505050565b60035460ff1690565b60006103486103e06107b4565b846103bb85600560006103f16107b4565b6001600160a01b03908116825260208083019390935260409182016000908120918c16815292529020549063ffffffff6109ae16565b60006104346102646107b4565b6104595760405162461bcd60e51b815260040161045090611517565b60405180910390fd5b61034883836109da565b61047461046e6107b4565b82610a9a565b50565b6001600160a01b0381166000908152600460205260409020545b919050565b6104a08282610b70565b5050565b60028054604080516020601f600019610100600187161502019094168590049384018190048102820181019092528281526060939092909183018282801561032a5780601f106102ff5761010080835404028352916020019161032a565b61050d6102646107b4565b6105295760405162461bcd60e51b815260040161045090611517565b61047481610beb565b61054261053d6107b4565b610c33565b565b60006103486105516107b4565b846103bb85604051806060016040528060258152602001611726602591396005600061057b6107b4565b6001600160a01b03908116825260208083019390935260409182016000908120918d1681529252902054919063ffffffff61098216565b60006103486105bf6107b4565b848461086c565b600061034c818363ffffffff610c7b16565b6007546001600160a01b03881660009081526008602090815260408083208054600181019091559051929361065a93909261063f927f6e71edae12b1b97f4d1f60370fef10105fa2faae0126114a169c64845d6126c9928e928e928e9290918e9101611437565b60405160208183030381529060405280519060200120610cc3565b90506000600182868686604051600081526020016040526040516106819493929190611491565b6020604051602081039080840390855afa1580156106a3573d6000803e3d6000fd5b5050506020604051035190506106f0896001600160a01b0316826001600160a01b0316146a5065726d69747461626c6560a81b70496e76616c6964207369676e617475726560781b610ce2565b6107236001600160a01b03821615156a5065726d69747461626c6560a81b6b5a65726f206164647265737360a01b610ce2565b610749864211156a5065726d69747461626c6560a81b66115e1c1a5c995960ca1b610ce2565b6107548989896107b8565b505050505050505050565b60075481565b6001600160a01b03918216600090815260056020908152604080832093909416825291909152205490565b7f6e71edae12b1b97f4d1f60370fef10105fa2faae0126114a169c64845d6126c981565b3390565b6001600160a01b0383166107de5760405162461bcd60e51b815260040161045090611567565b6001600160a01b0382166108045760405162461bcd60e51b8152600401610450906114f7565b6001600160a01b0380841660008181526005602090815260408083209487168084529490915290819020849055517f8c5be1e5ebec7d5bd14f71427d1e84f3dd0314c0f7b2291e5b200ac8c7c3b9259061085f908590611429565b60405180910390a3505050565b6001600160a01b0383166108925760405162461bcd60e51b815260040161045090611557565b6001600160a01b0382166108b85760405162461bcd60e51b8152600401610450906114d7565b6108fb816040518060600160405280602681526020016116b3602691396001600160a01b038616600090815260046020526040902054919063ffffffff61098216565b6001600160a01b038085166000908152600460205260408082209390935590841681522054610930908263ffffffff6109ae16565b6001600160a01b0380841660008181526004602052604090819020939093559151908516907fddf252ad1be2c89b69c2b068fc378daa952ba7f163c4a11628f55a4df523b3ef9061085f908590611429565b600081848411156109a65760405162461bcd60e51b815260040161045091906114c6565b505050900390565b6000828201838110156109d35760405162461bcd60e51b815260040161045090611507565b9392505050565b6001600160a01b038216610a005760405162461bcd60e51b815260040161045090611577565b600654610a13908263ffffffff6109ae16565b6006556001600160a01b038216600090815260046020526040902054610a3f908263ffffffff6109ae16565b6001600160a01b0383166000818152600460205260408082209390935591519091907fddf252ad1be2c89b69c2b068fc378daa952ba7f163c4a11628f55a4df523b3ef90610a8e908590611429565b60405180910390a35050565b6001600160a01b038216610ac05760405162461bcd60e51b815260040161045090611547565b610b0381604051806060016040528060228152602001611691602291396001600160a01b038516600090815260046020526040902054919063ffffffff61098216565b6001600160a01b038316600090815260046020526040902055600654610b2f908263ffffffff610d3c16565b6006556040516000906001600160a01b038416907fddf252ad1be2c89b69c2b068fc378daa952ba7f163c4a11628f55a4df523b3ef90610a8e908590611429565b610b7a8282610a9a565b6104a082610b866107b4565b6103bb846040518060600160405280602481526020016116d9602491396001600160a01b038816600090815260056020526040812090610bc46107b4565b6001600160a01b03168152602081019190915260400160002054919063ffffffff61098216565b610bfc60008263ffffffff610d7e16565b6040516001600160a01b038216907f6ae172837ea30b801fbfcdd4108aa1d5bf8ff775444fd70256b44e6bf3dfc3f690600090a250565b610c4460008263ffffffff610dca16565b6040516001600160a01b038216907fe94479a9f7e1952cc78f2d6baab678adc1b772d936c6583def489e524cb6669290600090a250565b60006001600160a01b038216610ca35760405162461bcd60e51b815260040161045090611537565b506001600160a01b03166000908152602091909152604090205460ff1690565b60405161190160f01b8152600281019290925260228201526042902090565b82610d3757610cf082610e12565b6101d160f51b610cff83610e12565b604051602001610d11939291906113ea565b60408051601f198184030181529082905262461bcd60e51b8252610450916004016114c6565b505050565b60006109d383836040518060400160405280601e81526020017f536166654d6174683a207375627472616374696f6e206f766572666c6f770000815250610982565b610d888282610c7b565b15610da55760405162461bcd60e51b8152600401610450906114e7565b6001600160a01b0316600090815260209190915260409020805460ff19166001179055565b610dd48282610c7b565b610df05760405162461bcd60e51b815260040161045090611527565b6001600160a01b0316600090815260209190915260409020805460ff19169055565b60608082604051602001610e2691906113d5565b60408051601f19818403018152919052905060205b8015610e7b57815160001990910190829082908110610e5657fe5b01602001516001600160f81b03191615610e765760010181529050610491565b610e3b565b505060408051600081526020810190915292915050565b803561034c8161160e565b803561034c81611622565b803561034c8161162b565b600060208284031215610ec557600080fd5b6000610ed18484610e92565b949350505050565b60008060408385031215610eec57600080fd5b6000610ef88585610e92565b9250506020610f0985828601610e92565b9150509250929050565b600080600060608486031215610f2857600080fd5b6000610f348686610e92565b9350506020610f4586828701610e92565b9250506040610f5686828701610e9d565b9150509250925092565b600080600080600080600060e0888a031215610f7b57600080fd5b6000610f878a8a610e92565b9750506020610f988a828b01610e92565b9650506040610fa98a828b01610e9d565b9550506060610fba8a828b01610e9d565b9450506080610fcb8a828b01610ea8565b93505060a0610fdc8a828b01610e9d565b92505060c0610fed8a828b01610e9d565b91505092959891949750929550565b6000806040838503121561100f57600080fd5b600061101b8585610e92565b9250506020610f0985828601610e9d565b60006020828403121561103e57600080fd5b6000610ed18484610e9d565b611053816115a2565b82525050565b611053816115ad565b61105361106e826115b2565b6115bf565b611053816115bf565b61105361106e826115bf565b600061109382611595565b61109d8185610491565b93506110ad8185602086016115d4565b9290920192915050565b60006110c282611595565b6110cc8185611599565b93506110dc8185602086016115d4565b6110e581611604565b9093019392505050565b60006110fc602383611599565b7f45524332303a207472616e7366657220746f20746865207a65726f206164647281526265737360e81b602082015260400192915050565b6000611141601f83611599565b7f526f6c65733a206163636f756e7420616c72656164792068617320726f6c6500815260200192915050565b600061117a602283611599565b7f45524332303a20617070726f766520746f20746865207a65726f206164647265815261737360f01b602082015260400192915050565b60006111be601b83611599565b7f536166654d6174683a206164646974696f6e206f766572666c6f770000000000815260200192915050565b60006111f7603083611599565b7f4d696e746572526f6c653a2063616c6c657220646f6573206e6f74206861766581526f20746865204d696e74657220726f6c6560801b602082015260400192915050565b6000611249602183611599565b7f526f6c65733a206163636f756e7420646f6573206e6f74206861766520726f6c8152606560f81b602082015260400192915050565b600061128c602283611599565b7f526f6c65733a206163636f756e7420697320746865207a65726f206164647265815261737360f01b602082015260400192915050565b60006112d0602183611599565b7f45524332303a206275726e2066726f6d20746865207a65726f206164647265738152607360f81b602082015260400192915050565b6000611313602583611599565b7f45524332303a207472616e736665722066726f6d20746865207a65726f206164815264647265737360d81b602082015260400192915050565b600061135a602483611599565b7f45524332303a20617070726f76652066726f6d20746865207a65726f206164648152637265737360e01b602082015260400192915050565b60006113a0601f83611599565b7f45524332303a206d696e7420746f20746865207a65726f206164647265737300815260200192915050565b611053816115ce565b60006113e1828461107c565b50602001919050565b60006113f68286611088565b91506114028285611062565b6002820191506114128284611088565b95945050505050565b6020810161034c8284611059565b6020810161034c8284611073565b60c081016114458289611073565b611452602083018861104a565b61145f604083018761104a565b61146c6060830186611073565b6114796080830185611073565b61148660a0830184611073565b979650505050505050565b6080810161149f8287611073565b6114ac60208301866113cc565b6114b96040830185611073565b6114126060830184611073565b602080825281016109d381846110b7565b6020808252810161034c816110ef565b6020808252810161034c81611134565b6020808252810161034c8161116d565b6020808252810161034c816111b1565b6020808252810161034c816111ea565b6020808252810161034c8161123c565b6020808252810161034c8161127f565b6020808252810161034c816112c3565b6020808252810161034c81611306565b6020808252810161034c8161134d565b6020808252810161034c81611393565b6020810161034c82846113cc565b5190565b90815260200190565b600061034c826115c2565b151590565b6001600160f01b03191690565b90565b6001600160a01b031690565b60ff1690565b60005b838110156115ef5781810151838201526020016115d7565b838111156115fe576000848401525b50505050565b601f01601f191690565b611617816115a2565b811461047457600080fd5b611617816115bf565b611617816115ce565b600190565b8351602094850120835193850193909320604080517f8b73c3c69bb8fe3d512ecc4cf759cc79239f7b179b0ffacaa9a75d522b39400f815295860194909452928401929092526060830152608082015260a090209056fe45524332303a206275726e20616d6f756e7420657863656564732062616c616e636545524332303a207472616e7366657220616d6f756e7420657863656564732062616c616e636545524332303a206275726e20616d6f756e74206578636565647320616c6c6f77616e6365446f6c6c61723a207472616e7366657220616d6f756e74206578636565647320616c6c6f77616e636545524332303a2064656372656173656420616c6c6f77616e63652062656c6f77207a65726fa365627a7a723158203e95e3d3fa85fd718716875e661179418ecad6cb835113952f812d6ca66506066c6578706572696d656e74616cf564736f6c63430005110040",
  "source": "/*\n    Copyright 2020 Dynamic Dollar Devs, based on the works of the Empty Set Squad\n\n    Licensed under the Apache License, Version 2.0 (the \"License\");\n    you may not use this file except in compliance with the License.\n    You may obtain a copy of the License at\n\n    http://www.apache.org/licenses/LICENSE-2.0\n\n    Unless required by applicable law or agreed to in writing, software\n    distributed under the License is distributed on an \"AS IS\" BASIS,\n    WITHOUT WARRANTIES OR CONDITIONS OF ANY KIND, either express or implied.\n    See the License for the specific language governing permissions and\n    limitations under the License.\n*/\n\npragma solidity ^0.5.17;\npragma experimental ABIEncoderV2;\n\nimport \"../dao/Market.sol\";\nimport \"./MockState.sol\";\nimport \"./MockComptroller.sol\";\n\ncontract MockMarket is MockState, MockComptroller, Market {\n    constructor(address pool) MockComptroller(pool) public { }\n\n    function stepE() external {\n        Market.step();\n    }\n}\n",
  "sourcePath": "/home/name/Desktop/Files/projects/dynamic/dollar/protocol/contracts/mock/MockMarket.sol",
  "compiler": {
    "name": "solc",
    "version": "0.5.17+commit.d19bba13.Emscripten.clang"
  },
  "schemaVersion": "3.3.1",
  "updatedAt": "2020-11-25T22:34:45.259Z",
  "devdoc": {
    "methods": {}
  },
  "userdoc": {
    "methods": {
      "balanceOfStaged(address)": {
        "notice": "Account"
      },
      "createCandidateE(address,uint256)": {
        "notice": "Governance"
      },
      "dollar()": {
        "notice": "Global"
      },
      "epoch()": {
        "notice": "Epoch"
      },
      "incrementBalanceOfE(address,uint256)": {
        "notice": "Account"
      },
      "incrementTotalBondedE(uint256)": {
        "notice": "Global"
      },
      "name()": {
        "notice": "ERC20 Interface"
      },
      "recordedVote(address,address)": {
        "notice": "Governance"
      },
      "setBlockTimestamp(uint256)": {
        "notice": "Mock"
      },
      "setEpochParamsE(uint256,uint256)": {
        "notice": "Epoch"
      },
      "transfer(address,uint256)": {
        "notice": "ERC20 Interface"
      }
    }
  }
}