{
  "contractName": "MockRegulator",
  "abi": [
    {
      "inputs": [
        {
          "internalType": "address",
          "name": "oracle",
          "type": "address"
        },
        {
          "internalType": "address",
          "name": "pool",
          "type": "address"
        }
      ],
      "payable": false,
      "stateMutability": "nonpayable",
      "type": "constructor"
    },
    {
      "anonymous": false,
      "inputs": [
        {
          "indexed": true,
          "internalType": "uint256",
          "name": "epoch",
          "type": "uint256"
        },
        {
          "indexed": false,
          "internalType": "uint256",
          "name": "price",
          "type": "uint256"
        },
        {
          "indexed": false,
          "internalType": "uint256",
          "name": "newDebt",
          "type": "uint256"
        }
      ],
      "name": "SupplyDecrease",
      "type": "event"
    },
    {
      "anonymous": false,
      "inputs": [
        {
          "indexed": true,
          "internalType": "uint256",
          "name": "epoch",
          "type": "uint256"
        },
        {
          "indexed": false,
          "internalType": "uint256",
          "name": "price",
          "type": "uint256"
        },
        {
          "indexed": false,
          "internalType": "uint256",
          "name": "newRedeemable",
          "type": "uint256"
        },
        {
          "indexed": false,
          "internalType": "uint256",
          "name": "lessDebt",
          "type": "uint256"
        },
        {
          "indexed": false,
          "internalType": "uint256",
          "name": "newBonded",
          "type": "uint256"
        }
      ],
      "name": "SupplyIncrease",
      "type": "event"
    },
    {
      "anonymous": false,
      "inputs": [
        {
          "indexed": true,
          "internalType": "uint256",
          "name": "epoch",
          "type": "uint256"
        }
      ],
      "name": "SupplyNeutral",
      "type": "event"
    },
    {
      "anonymous": false,
      "inputs": [
        {
          "indexed": true,
          "internalType": "address",
          "name": "from",
          "type": "address"
        },
        {
          "indexed": true,
          "internalType": "address",
          "name": "to",
          "type": "address"
        },
        {
          "indexed": false,
          "internalType": "uint256",
          "name": "value",
          "type": "uint256"
        }
      ],
      "name": "Transfer",
      "type": "event"
    },
    {
      "constant": true,
      "inputs": [
        {
          "internalType": "address",
          "name": "owner",
          "type": "address"
        },
        {
          "internalType": "address",
          "name": "spender",
          "type": "address"
        }
      ],
      "name": "allowance",
      "outputs": [
        {
          "internalType": "uint256",
          "name": "",
          "type": "uint256"
        }
      ],
      "payable": false,
      "stateMutability": "view",
      "type": "function"
    },
    {
      "constant": true,
      "inputs": [
        {
          "internalType": "address",
          "name": "owner",
          "type": "address"
        },
        {
          "internalType": "address",
          "name": "spender",
          "type": "address"
        }
      ],
      "name": "allowanceCoupons",
      "outputs": [
        {
          "internalType": "uint256",
          "name": "",
          "type": "uint256"
        }
      ],
      "payable": false,
      "stateMutability": "view",
      "type": "function"
    },
    {
      "constant": false,
      "inputs": [
        {
          "internalType": "address",
          "name": "spender",
          "type": "address"
        },
        {
          "internalType": "uint256",
          "name": "amount",
          "type": "uint256"
        }
      ],
      "name": "approve",
      "outputs": [
        {
          "internalType": "bool",
          "name": "",
          "type": "bool"
        }
      ],
      "payable": false,
      "stateMutability": "nonpayable",
      "type": "function"
    },
    {
      "constant": true,
      "inputs": [
        {
          "internalType": "address",
          "name": "candidate",
          "type": "address"
        }
      ],
      "name": "approveFor",
      "outputs": [
        {
          "internalType": "uint256",
          "name": "",
          "type": "uint256"
        }
      ],
      "payable": false,
      "stateMutability": "view",
      "type": "function"
    },
    {
      "constant": true,
      "inputs": [
        {
          "internalType": "address",
          "name": "account",
          "type": "address"
        }
      ],
      "name": "balanceOf",
      "outputs": [
        {
          "internalType": "uint256",
          "name": "",
          "type": "uint256"
        }
      ],
      "payable": false,
      "stateMutability": "view",
      "type": "function"
    },
    {
      "constant": true,
      "inputs": [
        {
          "internalType": "address",
          "name": "account",
          "type": "address"
        }
      ],
      "name": "balanceOfBonded",
      "outputs": [
        {
          "internalType": "uint256",
          "name": "",
          "type": "uint256"
        }
      ],
      "payable": false,
      "stateMutability": "view",
      "type": "function"
    },
    {
      "constant": true,
      "inputs": [
        {
          "internalType": "address",
          "name": "account",
          "type": "address"
        },
        {
          "internalType": "uint256",
          "name": "epoch",
          "type": "uint256"
        }
      ],
      "name": "balanceOfCoupons",
      "outputs": [
        {
          "internalType": "uint256",
          "name": "",
          "type": "uint256"
        }
      ],
      "payable": false,
      "stateMutability": "view",
      "type": "function"
    },
    {
      "constant": true,
      "inputs": [
        {
          "internalType": "address",
          "name": "account",
          "type": "address"
        }
      ],
      "name": "balanceOfStaged",
      "outputs": [
        {
          "internalType": "uint256",
          "name": "",
          "type": "uint256"
        }
      ],
      "payable": false,
      "stateMutability": "view",
      "type": "function"
    },
    {
      "constant": false,
      "inputs": [
        {
          "internalType": "address",
          "name": "account",
          "type": "address"
        },
        {
          "internalType": "uint256",
          "name": "amount",
          "type": "uint256"
        }
      ],
      "name": "burnFromAccountE",
      "outputs": [],
      "payable": false,
      "stateMutability": "nonpayable",
      "type": "function"
    },
    {
      "constant": false,
      "inputs": [
        {
          "internalType": "uint256",
          "name": "amount",
          "type": "uint256"
        }
      ],
      "name": "burnRedeemableE",
      "outputs": [],
      "payable": false,
      "stateMutability": "nonpayable",
      "type": "function"
    },
    {
      "constant": true,
      "inputs": [
        {
          "internalType": "uint256",
          "name": "epoch",
          "type": "uint256"
        }
      ],
      "name": "couponsExpiration",
      "outputs": [
        {
          "internalType": "uint256",
          "name": "",
          "type": "uint256"
        }
      ],
      "payable": false,
      "stateMutability": "view",
      "type": "function"
    },
    {
      "constant": false,
      "inputs": [
        {
          "internalType": "address",
          "name": "candidate",
          "type": "address"
        },
        {
          "internalType": "uint256",
          "name": "period",
          "type": "uint256"
        }
      ],
      "name": "createCandidateE",
      "outputs": [],
      "payable": false,
      "stateMutability": "nonpayable",
      "type": "function"
    },
    {
      "constant": true,
      "inputs": [],
      "name": "decimals",
      "outputs": [
        {
          "internalType": "uint8",
          "name": "",
          "type": "uint8"
        }
      ],
      "payable": false,
      "stateMutability": "view",
      "type": "function"
    },
    {
      "constant": false,
      "inputs": [
        {
          "internalType": "uint256",
          "name": "amount",
          "type": "uint256"
        }
      ],
      "name": "decreaseDebtE",
      "outputs": [],
      "payable": false,
      "stateMutability": "nonpayable",
      "type": "function"
    },
    {
      "constant": false,
      "inputs": [
        {
          "internalType": "address",
          "name": "owner",
          "type": "address"
        },
        {
          "internalType": "address",
          "name": "spender",
          "type": "address"
        },
        {
          "internalType": "uint256",
          "name": "amount",
          "type": "uint256"
        },
        {
          "internalType": "string",
          "name": "reason",
          "type": "string"
        }
      ],
      "name": "decrementAllowanceCouponsE",
      "outputs": [],
      "payable": false,
      "stateMutability": "nonpayable",
      "type": "function"
    },
    {
      "constant": false,
      "inputs": [
        {
          "internalType": "address",
          "name": "candidate",
          "type": "address"
        },
        {
          "internalType": "uint256",
          "name": "amount",
          "type": "uint256"
        },
        {
          "internalType": "string",
          "name": "reason",
          "type": "string"
        }
      ],
      "name": "decrementApproveForE",
      "outputs": [],
      "payable": false,
      "stateMutability": "nonpayable",
      "type": "function"
    },
    {
      "constant": false,
      "inputs": [
        {
          "internalType": "address",
          "name": "account",
          "type": "address"
        },
        {
          "internalType": "uint256",
          "name": "epoch",
          "type": "uint256"
        },
        {
          "internalType": "uint256",
          "name": "amount",
          "type": "uint256"
        },
        {
          "internalType": "string",
          "name": "reason",
          "type": "string"
        }
      ],
      "name": "decrementBalanceOfCouponsE",
      "outputs": [],
      "payable": false,
      "stateMutability": "nonpayable",
      "type": "function"
    },
    {
      "constant": false,
      "inputs": [
        {
          "internalType": "address",
          "name": "account",
          "type": "address"
        },
        {
          "internalType": "uint256",
          "name": "amount",
          "type": "uint256"
        },
        {
          "internalType": "string",
          "name": "reason",
          "type": "string"
        }
      ],
      "name": "decrementBalanceOfE",
      "outputs": [],
      "payable": false,
      "stateMutability": "nonpayable",
      "type": "function"
    },
    {
      "constant": false,
      "inputs": [
        {
          "internalType": "address",
          "name": "account",
          "type": "address"
        },
        {
          "internalType": "uint256",
          "name": "amount",
          "type": "uint256"
        },
        {
          "internalType": "string",
          "name": "reason",
          "type": "string"
        }
      ],
      "name": "decrementBalanceOfStagedE",
      "outputs": [],
      "payable": false,
      "stateMutability": "nonpayable",
      "type": "function"
    },
    {
      "constant": false,
      "inputs": [
        {
          "internalType": "address",
          "name": "candidate",
          "type": "address"
        },
        {
          "internalType": "uint256",
          "name": "amount",
          "type": "uint256"
        },
        {
          "internalType": "string",
          "name": "reason",
          "type": "string"
        }
      ],
      "name": "decrementRejectForE",
      "outputs": [],
      "payable": false,
      "stateMutability": "nonpayable",
      "type": "function"
    },
    {
      "constant": false,
      "inputs": [
        {
          "internalType": "uint256",
          "name": "amount",
          "type": "uint256"
        },
        {
          "internalType": "string",
          "name": "reason",
          "type": "string"
        }
      ],
      "name": "decrementTotalBondedE",
      "outputs": [],
      "payable": false,
      "stateMutability": "nonpayable",
      "type": "function"
    },
    {
      "constant": false,
      "inputs": [
        {
          "internalType": "uint256",
          "name": "amount",
          "type": "uint256"
        },
        {
          "internalType": "string",
          "name": "reason",
          "type": "string"
        }
      ],
      "name": "decrementTotalDebtE",
      "outputs": [],
      "payable": false,
      "stateMutability": "nonpayable",
      "type": "function"
    },
    {
      "constant": false,
      "inputs": [
        {
          "internalType": "uint256",
          "name": "amount",
          "type": "uint256"
        },
        {
          "internalType": "string",
          "name": "reason",
          "type": "string"
        }
      ],
      "name": "decrementTotalRedeemableE",
      "outputs": [],
      "payable": false,
      "stateMutability": "nonpayable",
      "type": "function"
    },
    {
      "constant": true,
      "inputs": [],
      "name": "dollar",
      "outputs": [
        {
          "internalType": "contract IDollar",
          "name": "",
          "type": "address"
        }
      ],
      "payable": false,
      "stateMutability": "view",
      "type": "function"
    },
    {
      "constant": false,
      "inputs": [
        {
          "internalType": "uint256",
          "name": "epoch",
          "type": "uint256"
        }
      ],
      "name": "eliminateOutstandingCouponsE",
      "outputs": [],
      "payable": false,
      "stateMutability": "nonpayable",
      "type": "function"
    },
    {
      "constant": true,
      "inputs": [],
      "name": "epoch",
      "outputs": [
        {
          "internalType": "uint256",
          "name": "",
          "type": "uint256"
        }
      ],
      "payable": false,
      "stateMutability": "view",
      "type": "function"
    },
    {
      "constant": true,
      "inputs": [],
      "name": "epochTime",
      "outputs": [
        {
          "internalType": "uint256",
          "name": "",
          "type": "uint256"
        }
      ],
      "payable": false,
      "stateMutability": "view",
      "type": "function"
    },
    {
      "constant": true,
      "inputs": [
        {
          "internalType": "uint256",
          "name": "epoch",
          "type": "uint256"
        }
      ],
      "name": "expiringCoupons",
      "outputs": [
        {
          "internalType": "uint256",
          "name": "",
          "type": "uint256"
        }
      ],
      "payable": false,
      "stateMutability": "view",
      "type": "function"
    },
    {
      "constant": true,
      "inputs": [
        {
          "internalType": "uint256",
          "name": "epoch",
          "type": "uint256"
        },
        {
          "internalType": "uint256",
          "name": "i",
          "type": "uint256"
        }
      ],
      "name": "expiringCouponsAtIndex",
      "outputs": [
        {
          "internalType": "uint256",
          "name": "",
          "type": "uint256"
        }
      ],
      "payable": false,
      "stateMutability": "view",
      "type": "function"
    },
    {
      "constant": true,
      "inputs": [],
      "name": "implementation",
      "outputs": [
        {
          "internalType": "address",
          "name": "impl",
          "type": "address"
        }
      ],
      "payable": false,
      "stateMutability": "view",
      "type": "function"
    },
    {
      "constant": false,
      "inputs": [
        {
          "internalType": "uint256",
          "name": "amount",
          "type": "uint256"
        }
      ],
      "name": "increaseDebtE",
      "outputs": [],
      "payable": false,
      "stateMutability": "nonpayable",
      "type": "function"
    },
    {
      "constant": false,
      "inputs": [
        {
          "internalType": "address",
          "name": "candidate",
          "type": "address"
        },
        {
          "internalType": "uint256",
          "name": "amount",
          "type": "uint256"
        }
      ],
      "name": "incrementApproveForE",
      "outputs": [],
      "payable": false,
      "stateMutability": "nonpayable",
      "type": "function"
    },
    {
      "constant": false,
      "inputs": [
        {
          "internalType": "address",
          "name": "account",
          "type": "address"
        },
        {
          "internalType": "uint256",
          "name": "epoch",
          "type": "uint256"
        },
        {
          "internalType": "uint256",
          "name": "amount",
          "type": "uint256"
        }
      ],
      "name": "incrementBalanceOfCouponsE",
      "outputs": [],
      "payable": false,
      "stateMutability": "nonpayable",
      "type": "function"
    },
    {
      "constant": false,
      "inputs": [
        {
          "internalType": "address",
          "name": "account",
          "type": "address"
        },
        {
          "internalType": "uint256",
          "name": "amount",
          "type": "uint256"
        }
      ],
      "name": "incrementBalanceOfE",
      "outputs": [],
      "payable": false,
      "stateMutability": "nonpayable",
      "type": "function"
    },
    {
      "constant": false,
      "inputs": [
        {
          "internalType": "address",
          "name": "account",
          "type": "address"
        },
        {
          "internalType": "uint256",
          "name": "amount",
          "type": "uint256"
        }
      ],
      "name": "incrementBalanceOfStagedE",
      "outputs": [],
      "payable": false,
      "stateMutability": "nonpayable",
      "type": "function"
    },
    {
      "constant": false,
      "inputs": [],
      "name": "incrementEpochE",
      "outputs": [],
      "payable": false,
      "stateMutability": "nonpayable",
      "type": "function"
    },
    {
      "constant": false,
      "inputs": [
        {
          "internalType": "address",
          "name": "candidate",
          "type": "address"
        },
        {
          "internalType": "uint256",
          "name": "amount",
          "type": "uint256"
        }
      ],
      "name": "incrementRejectForE",
      "outputs": [],
      "payable": false,
      "stateMutability": "nonpayable",
      "type": "function"
    },
    {
      "constant": false,
      "inputs": [
        {
          "internalType": "uint256",
          "name": "amount",
          "type": "uint256"
        }
      ],
      "name": "incrementTotalBondedE",
      "outputs": [],
      "payable": false,
      "stateMutability": "nonpayable",
      "type": "function"
    },
    {
      "constant": false,
      "inputs": [
        {
          "internalType": "uint256",
          "name": "amount",
          "type": "uint256"
        }
      ],
      "name": "incrementTotalDebtE",
      "outputs": [],
      "payable": false,
      "stateMutability": "nonpayable",
      "type": "function"
    },
    {
      "constant": false,
      "inputs": [
        {
          "internalType": "uint256",
          "name": "amount",
          "type": "uint256"
        }
      ],
      "name": "incrementTotalRedeemableE",
      "outputs": [],
      "payable": false,
      "stateMutability": "nonpayable",
      "type": "function"
    },
    {
      "constant": false,
      "inputs": [
        {
          "internalType": "uint256",
          "name": "epoch",
          "type": "uint256"
        },
        {
          "internalType": "uint256",
          "name": "expiration",
          "type": "uint256"
        }
      ],
      "name": "initializeCouponsExpirationE",
      "outputs": [],
      "payable": false,
      "stateMutability": "nonpayable",
      "type": "function"
    },
    {
      "constant": false,
      "inputs": [
        {
          "internalType": "address",
          "name": "candidate",
          "type": "address"
        }
      ],
      "name": "initializedE",
      "outputs": [],
      "payable": false,
      "stateMutability": "nonpayable",
      "type": "function"
    },
    {
      "constant": true,
      "inputs": [
        {
          "internalType": "address",
          "name": "candidate",
          "type": "address"
        }
      ],
      "name": "isInitialized",
      "outputs": [
        {
          "internalType": "bool",
          "name": "",
          "type": "bool"
        }
      ],
      "payable": false,
      "stateMutability": "view",
      "type": "function"
    },
    {
      "constant": true,
      "inputs": [
        {
          "internalType": "address",
          "name": "candidate",
          "type": "address"
        }
      ],
      "name": "isNominated",
      "outputs": [
        {
          "internalType": "bool",
          "name": "",
          "type": "bool"
        }
      ],
      "payable": false,
      "stateMutability": "view",
      "type": "function"
    },
    {
      "constant": false,
      "inputs": [
        {
          "internalType": "address",
          "name": "account",
          "type": "address"
        },
        {
          "internalType": "uint256",
          "name": "amount",
          "type": "uint256"
        }
      ],
      "name": "mintToAccountE",
      "outputs": [],
      "payable": false,
      "stateMutability": "nonpayable",
      "type": "function"
    },
    {
      "constant": false,
      "inputs": [
        {
          "internalType": "address",
          "name": "account",
          "type": "address"
        },
        {
          "internalType": "uint256",
          "name": "amount",
          "type": "uint256"
        }
      ],
      "name": "mintToE",
      "outputs": [],
      "payable": false,
      "stateMutability": "nonpayable",
      "type": "function"
    },
    {
      "constant": true,
      "inputs": [],
      "name": "name",
      "outputs": [
        {
          "internalType": "string",
          "name": "",
          "type": "string"
        }
      ],
      "payable": false,
      "stateMutability": "view",
      "type": "function"
    },
    {
      "constant": true,
      "inputs": [],
      "name": "oracle",
      "outputs": [
        {
          "internalType": "contract IOracle",
          "name": "",
          "type": "address"
        }
      ],
      "payable": false,
      "stateMutability": "view",
      "type": "function"
    },
    {
      "constant": true,
      "inputs": [
        {
          "internalType": "uint256",
          "name": "epoch",
          "type": "uint256"
        }
      ],
      "name": "outstandingCoupons",
      "outputs": [
        {
          "internalType": "uint256",
          "name": "",
          "type": "uint256"
        }
      ],
      "payable": false,
      "stateMutability": "view",
      "type": "function"
    },
    {
      "constant": true,
      "inputs": [
        {
          "internalType": "address",
          "name": "candidate",
          "type": "address"
        }
      ],
      "name": "periodFor",
      "outputs": [
        {
          "internalType": "uint256",
          "name": "",
          "type": "uint256"
        }
      ],
      "payable": false,
      "stateMutability": "view",
      "type": "function"
    },
    {
      "constant": false,
      "inputs": [
        {
          "internalType": "address",
          "name": "account",
          "type": "address"
        },
        {
          "internalType": "address",
          "name": "candidate",
          "type": "address"
        }
      ],
      "name": "placeLockE",
      "outputs": [],
      "payable": false,
      "stateMutability": "nonpayable",
      "type": "function"
    },
    {
      "constant": true,
      "inputs": [],
      "name": "pool",
      "outputs": [
        {
          "internalType": "address",
          "name": "",
          "type": "address"
        }
      ],
      "payable": false,
      "stateMutability": "view",
      "type": "function"
    },
    {
      "constant": false,
      "inputs": [
        {
          "internalType": "address",
          "name": "account",
          "type": "address"
        },
        {
          "internalType": "address",
          "name": "candidate",
          "type": "address"
        },
        {
          "internalType": "enum Candidate.Vote",
          "name": "vote",
          "type": "uint8"
        }
      ],
      "name": "recordVoteE",
      "outputs": [],
      "payable": false,
      "stateMutability": "nonpayable",
      "type": "function"
    },
    {
      "constant": true,
      "inputs": [
        {
          "internalType": "address",
          "name": "account",
          "type": "address"
        },
        {
          "internalType": "address",
          "name": "candidate",
          "type": "address"
        }
      ],
      "name": "recordedVote",
      "outputs": [
        {
          "internalType": "enum Candidate.Vote",
          "name": "",
          "type": "uint8"
        }
      ],
      "payable": false,
      "stateMutability": "view",
      "type": "function"
    },
    {
      "constant": false,
      "inputs": [
        {
          "internalType": "address",
          "name": "account",
          "type": "address"
        },
        {
          "internalType": "uint256",
          "name": "amount",
          "type": "uint256"
        }
      ],
      "name": "redeemToAccountE",
      "outputs": [],
      "payable": false,
      "stateMutability": "nonpayable",
      "type": "function"
    },
    {
      "constant": true,
      "inputs": [
        {
          "internalType": "address",
          "name": "candidate",
          "type": "address"
        }
      ],
      "name": "rejectFor",
      "outputs": [
        {
          "internalType": "uint256",
          "name": "",
          "type": "uint256"
        }
      ],
      "payable": false,
      "stateMutability": "view",
      "type": "function"
    },
    {
      "constant": false,
      "inputs": [
        {
          "internalType": "uint256",
          "name": "percent",
          "type": "uint256"
        }
      ],
      "name": "resetDebtE",
      "outputs": [],
      "payable": false,
      "stateMutability": "nonpayable",
      "type": "function"
    },
    {
      "constant": false,
      "inputs": [
        {
          "internalType": "uint256",
          "name": "timestamp",
          "type": "uint256"
        }
      ],
      "name": "setBlockTimestamp",
      "outputs": [],
      "payable": false,
      "stateMutability": "nonpayable",
      "type": "function"
    },
    {
      "constant": false,
      "inputs": [
        {
          "internalType": "uint256",
          "name": "start",
          "type": "uint256"
        },
        {
          "internalType": "uint256",
          "name": "period",
          "type": "uint256"
        }
      ],
      "name": "setEpochParamsE",
      "outputs": [],
      "payable": false,
      "stateMutability": "nonpayable",
      "type": "function"
    },
    {
      "constant": false,
      "inputs": [],
      "name": "snapshotTotalBondedE",
      "outputs": [],
      "payable": false,
      "stateMutability": "nonpayable",
      "type": "function"
    },
    {
      "constant": true,
      "inputs": [
        {
          "internalType": "address",
          "name": "candidate",
          "type": "address"
        }
      ],
      "name": "startFor",
      "outputs": [
        {
          "internalType": "uint256",
          "name": "",
          "type": "uint256"
        }
      ],
      "payable": false,
      "stateMutability": "view",
      "type": "function"
    },
    {
      "constant": true,
      "inputs": [
        {
          "internalType": "address",
          "name": "account",
          "type": "address"
        }
      ],
      "name": "statusOf",
      "outputs": [
        {
          "internalType": "enum Account.Status",
          "name": "",
          "type": "uint8"
        }
      ],
      "payable": false,
      "stateMutability": "view",
      "type": "function"
    },
    {
      "constant": true,
      "inputs": [],
      "name": "symbol",
      "outputs": [
        {
          "internalType": "string",
          "name": "",
          "type": "string"
        }
      ],
      "payable": false,
      "stateMutability": "view",
      "type": "function"
    },
    {
      "constant": true,
      "inputs": [],
      "name": "totalBonded",
      "outputs": [
        {
          "internalType": "uint256",
          "name": "",
          "type": "uint256"
        }
      ],
      "payable": false,
      "stateMutability": "view",
      "type": "function"
    },
    {
      "constant": true,
      "inputs": [
        {
          "internalType": "uint256",
          "name": "epoch",
          "type": "uint256"
        }
      ],
      "name": "totalBondedAt",
      "outputs": [
        {
          "internalType": "uint256",
          "name": "",
          "type": "uint256"
        }
      ],
      "payable": false,
      "stateMutability": "view",
      "type": "function"
    },
    {
      "constant": true,
      "inputs": [],
      "name": "totalCoupons",
      "outputs": [
        {
          "internalType": "uint256",
          "name": "",
          "type": "uint256"
        }
      ],
      "payable": false,
      "stateMutability": "view",
      "type": "function"
    },
    {
      "constant": true,
      "inputs": [],
      "name": "totalDebt",
      "outputs": [
        {
          "internalType": "uint256",
          "name": "",
          "type": "uint256"
        }
      ],
      "payable": false,
      "stateMutability": "view",
      "type": "function"
    },
    {
      "constant": true,
      "inputs": [],
      "name": "totalNet",
      "outputs": [
        {
          "internalType": "uint256",
          "name": "",
          "type": "uint256"
        }
      ],
      "payable": false,
      "stateMutability": "view",
      "type": "function"
    },
    {
      "constant": true,
      "inputs": [],
      "name": "totalRedeemable",
      "outputs": [
        {
          "internalType": "uint256",
          "name": "",
          "type": "uint256"
        }
      ],
      "payable": false,
      "stateMutability": "view",
      "type": "function"
    },
    {
      "constant": true,
      "inputs": [],
      "name": "totalStaged",
      "outputs": [
        {
          "internalType": "uint256",
          "name": "",
          "type": "uint256"
        }
      ],
      "payable": false,
      "stateMutability": "view",
      "type": "function"
    },
    {
      "constant": true,
      "inputs": [],
      "name": "totalSupply",
      "outputs": [
        {
          "internalType": "uint256",
          "name": "",
          "type": "uint256"
        }
      ],
      "payable": false,
      "stateMutability": "view",
      "type": "function"
    },
    {
      "constant": false,
      "inputs": [
        {
          "internalType": "address",
          "name": "recipient",
          "type": "address"
        },
        {
          "internalType": "uint256",
          "name": "amount",
          "type": "uint256"
        }
      ],
      "name": "transfer",
      "outputs": [
        {
          "internalType": "bool",
          "name": "",
          "type": "bool"
        }
      ],
      "payable": false,
      "stateMutability": "nonpayable",
      "type": "function"
    },
    {
      "constant": false,
      "inputs": [
        {
          "internalType": "address",
          "name": "sender",
          "type": "address"
        },
        {
          "internalType": "address",
          "name": "recipient",
          "type": "address"
        },
        {
          "internalType": "uint256",
          "name": "amount",
          "type": "uint256"
        }
      ],
      "name": "transferFrom",
      "outputs": [
        {
          "internalType": "bool",
          "name": "",
          "type": "bool"
        }
      ],
      "payable": false,
      "stateMutability": "nonpayable",
      "type": "function"
    },
    {
      "constant": false,
      "inputs": [
        {
          "internalType": "address",
          "name": "account",
          "type": "address"
        }
      ],
      "name": "unfreezeE",
      "outputs": [],
      "payable": false,
      "stateMutability": "nonpayable",
      "type": "function"
    },
    {
      "constant": false,
      "inputs": [
        {
          "internalType": "address",
          "name": "owner",
          "type": "address"
        },
        {
          "internalType": "address",
          "name": "spender",
          "type": "address"
        },
        {
          "internalType": "uint256",
          "name": "amount",
          "type": "uint256"
        }
      ],
      "name": "updateAllowanceCouponsE",
      "outputs": [],
      "payable": false,
      "stateMutability": "nonpayable",
      "type": "function"
    },
    {
      "constant": true,
      "inputs": [
        {
          "internalType": "address",
          "name": "candidate",
          "type": "address"
        }
      ],
      "name": "votesFor",
      "outputs": [
        {
          "internalType": "uint256",
          "name": "",
          "type": "uint256"
        }
      ],
      "payable": false,
      "stateMutability": "view",
      "type": "function"
    },
    {
      "constant": false,
      "inputs": [],
      "name": "stepE",
      "outputs": [],
      "payable": false,
      "stateMutability": "nonpayable",
      "type": "function"
    },
    {
      "constant": true,
      "inputs": [
        {
          "internalType": "uint256",
          "name": "epoch",
          "type": "uint256"
        }
      ],
      "name": "bootstrappingAt",
      "outputs": [
        {
          "internalType": "bool",
          "name": "",
          "type": "bool"
        }
      ],
      "payable": false,
      "stateMutability": "view",
      "type": "function"
    }
  ],
  "bytecode": "0x60806040523480156200001157600080fd5b5060405162004fae38038062004fae8339810160408190526200003491620000cd565b42600f5560405181906200004890620000ac565b604051809103906000f08015801562000065573d6000803e3d6000fd5b50600980546001600160a01b03199081166001600160a01b0393841617909155600b8054821693831693909317909255600a80549092169316929092179091555062000138565b611c0680620033a883390190565b8051620000c7816200011e565b92915050565b60008060408385031215620000e157600080fd5b6000620000ef8585620000ba565b92505060206200010285828601620000ba565b9150509250929050565b60006001600160a01b038216620000c7565b62000129816200010c565b81146200013557600080fd5b50565b61326080620001486000396000f3fe608060405234801561001057600080fd5b506004361061046a5760003560e01c8063825ad6071161024c578063b11ee0e311610146578063d60b347f116100c3578063f1b7cf4911610087578063f1b7cf491461096d578063f35adf7e14610980578063f7a3181814610988578063fc7b9c181461099b578063ffbe3b73146109a35761046a565b8063d60b347f14610913578063d6d8816d14610926578063d83d3ed514610939578063dd62ed3e1461094c578063e0abdf661461095a5761046a565b8063c2aeb5fe1161010a578063c2aeb5fe146108bf578063c45a3e0a146108d2578063c9aff70c146108e5578063cc8d823c146108f8578063cf0237791461090b5761046a565b8063b11ee0e314610860578063b16144a314610873578063b32a2f9014610886578063bc7513e214610899578063c1410c02146108ac5761046a565b80639be46493116101d4578063a6f37b5311610198578063a6f37b5314610814578063a9059cbb1461048d578063a9b3cf1514610827578063adbff2be1461083a578063ae5c23811461084d5761046a565b80639be46493146107c05780639f6e1b26146107d3578063a00e14d1146107e6578063a50cd8e7146107f9578063a6c409f11461080c5761046a565b8063900cf0cf1161021b578063900cf0cf1461078257806395d89b411461078a57806397a5d5b5146107925780639a649edc146107a55780639b82b49b146107ad5761046a565b8063825ad607146107365780638413e52a1461074957806386cf9f141461075c5780638de2e5731461076f5761046a565b80633fbba9a6116103685780635f14fec8116102e557806371c511eb116102a957806371c511eb146106ed57806372924d2a146106f557806375d5024b146107085780637cb95a321461071b5780637dc0d1d01461072e5761046a565b80635f14fec81461068e57806364668022146106a15780636a39e328146106b45780636b862d66146106c757806370a08231146106da5761046a565b80634c7360991161032c5780634c736099146106435780635053e4611461065657806351adeb571461065e5780635c60da1b146106735780635dbf800a1461067b5761046a565b80633fbba9a6146105ed5780633fd4973c1461060d578063416a23cc14610620578063438735261461062857806344d96e951461063b5761046a565b80631fac9732116103f6578063313ce567116103ba578063313ce5671461058c57806332347422146105a1578063353a420c146105b45780633a3e6c81146105c75780633f7bcaf3146105da5761046a565b80631fac97321461052d57806320f6bc901461054057806323b872dd14610553578063259f7adf14610566578063277805a9146105795761046a565b806315e14bf61161043d57806315e14bf6146104e257806316f0115b146104f557806318160ddd1461050a5780631a08e22a146105125780631edbcf6c146105255761046a565b806306fdde031461046f578063095ea7b31461048d5780630dc6d3a3146104ad57806310e95b6c146104c2575b600080fd5b6104776109b6565b6040516104849190613045565b60405180910390f35b6104a061049b366004612c4a565b6109ee565b604051610484919061301b565b6104c06104bb366004612bcc565b6109f7565b005b6104d56104d0366004612d97565b610a40565b6040516104849190613076565b6104d56104f0366004612ae4565b610a58565b6104fd610a76565b6040516104849190612fca565b6104d5610a85565b6104c0610520366004612e29565b610a8b565b6104d5610a99565b6104c061053b366004612d97565b610a9f565b6104c061054e366004612c4a565b610aab565b6104a0610561366004612b89565b610ab5565b6104c0610574366004612d97565b610abf565b6104c0610587366004612c4a565b610ac8565b610594610b54565b60405161048491906130c7565b6104c06105af366004612dd3565b610b59565b6104d56105c2366004612ae4565b610b99565b6104a06105d5366004612ae4565b610bb7565b6104c06105e8366004612b89565b610bd4565b6106006105fb366004612b02565b610bdf565b6040516104849190613037565b6104c061061b366004612c7a565b610c12565b6104c0610c59565b6104c0610636366004612d97565b610c63565b6104d5610c6c565b6104d5610651366004612e29565b610c72565b6104d5610ca2565b610666610cc5565b6040516104849190613029565b6104fd610cd4565b6104c0610689366004612d97565b610cf9565b6104c061069c366004612c4a565b610d02565b6104d56106af366004612ae4565b610d0c565b6104d56106c2366004612d97565b610d2a565b6104c06106d5366004612ce2565b610d3f565b6104d56106e8366004612ae4565b610d4a565b6104c0610d68565b6104c0610703366004612dd3565b610d70565b6104a0610716366004612d97565b610db0565b6104c0610729366004612c7a565b610db7565b610666610df8565b6104d5610744366004612ae4565b610e07565b6104c0610757366004612b3c565b610e53565b6104d561076a366004612ae4565b610e5e565b6104c061077d366004612d97565b610e79565b6104d5610e82565b610477610e88565b6106006107a0366004612ae4565b610ea6565b6104d5610f0b565b6104c06107bb366004612dd3565b610f11565b6104c06107ce366004612ae4565b610f51565b6104d56107e1366004612b02565b610f5a565b6104c06107f4366004612e29565b610f89565b6104d5610807366004612ae4565b610f94565b6104d5610fb7565b6104c0610822366004612ae4565b61104d565b6104c0610835366004612d97565b611056565b6104c0610848366004612c7a565b61105f565b6104c061085b366004612c4a565b6110a0565b6104c061086e366004612c4a565b6110aa565b6104c0610881366004612d97565b6110b4565b6104c0610894366004612c7a565b6110c7565b6104d56108a7366004612c4a565b611108565b6104c06108ba366004612b02565b61114c565b6104c06108cd366004612d14565b611156565b6104c06108e0366004612c4a565b611198565b6104d56108f3366004612d97565b6111a2565b6104c0610906366004612c4a565b6111b7565b6104d56111c1565b6104a0610921366004612ae4565b6111c7565b6104c0610934366004612d97565b6111e8565b6104c0610947366004612c4a565b6111f1565b6104d561049b366004612b02565b6104c0610968366004612d97565b6111fb565b6104d561097b366004612ae4565b611200565b6104c061121b565b6104c0610996366004612c4a565b611223565b6104d561122d565b6104d56109b1366004612d97565b611233565b60408051808201909152601881527f44796e616d69632053657420446f6c6c6172205374616b65000000000000000060208201525b90565b60005b92915050565b610a3985858585858080601f01602080910402602001604051908101604052809392919081815260200183838082843760009201919091525061124592505050565b5050505050565b6000818152600d60205260409020600201545b919050565b6001600160a01b03166000908152600e602052604090206001015490565b600b546001600160a01b031690565b60035490565b610a9582826112b6565b5050565b60065490565b610aa8816112e8565b50565b610a95828261132f565b60005b9392505050565b610aa8816113d7565b610ad0610cc5565b6001600160a01b03166340c10f1983836040518363ffffffff1660e01b8152600401610afd929190613000565b602060405180830381600087803b158015610b1757600080fd5b505af1158015610b2b573d6000803e3d6000fd5b505050506040513d601f19601f82011682018060405250610b4f9190810190612d49565b505050565b601290565b610b4f8383838080601f0160208091040260200160405190810160405280939291908181526020018383808284376000920191909152506113f092505050565b6001600160a01b03166000908152600e602052604090206003015490565b6001600160a01b03166000908152600e6020526040902054151590565b610b4f83838361140b565b6001600160a01b038082166000908152600e60209081526040808320938616835260049093019052205460ff1692915050565b610c53848484848080601f01602080910402602001604051908101604052809392919081815260200183838082843760009201919091525061143b92505050565b50505050565b610c6161148c565b565b610aa88161152c565b60045490565b6000828152600d60205260408120600301805483908110610c8f57fe5b9060005260206000200154905092915050565b6000610cac6129fd565b610cb4611540565b9050610cbf8161156f565b91505090565b6009546001600160a01b031690565b7f360894a13ba1a3210667c828492db98dca3e2076cc3735a920a3ca505d382bbc5490565b610aa881611591565b610a958282611618565b6001600160a01b03166000908152600e602052604090206002015490565b6000908152600d602052604090206003015490565b610b4f838383611729565b6001600160a01b03166000908152600c602052604090206001015490565b610c616117d0565b610b4f8383838080601f0160208091040260200160405190810160405280939291908181526020018383808284376000920191909152506117f792505050565b6005101590565b610c53848484848080601f01602080910402602001604051908101604052809392919081815260200183838082843760009201919091525061181292505050565b600a546001600160a01b031690565b600080610e12610a85565b905080610e23576000915050610a53565b610ab881610e47610e3386610d4a565b610e3b610c6c565b9063ffffffff61186316565b9063ffffffff6118a616565b610b4f8383836118e8565b6001600160a01b03166000908152600c602052604090205490565b610aa881611932565b60025490565b6040805180820190915260048152634453445360e01b602082015290565b6000610eb0610e82565b6001600160a01b0383166000908152600c60205260409020600501541115610eda57506002610a53565b6001600160a01b0382166000908152600c6020526040902060040154610efe610e82565b10156109ee5760016109f1565b60085490565b610b4f8383838080601f01602080910402602001604051908101604052809392919081815260200183838082843760009201919091525061194b92505050565b610aa881611966565b6001600160a01b039182166000908152600c602090815260408083209390941682526003909201909152205490565b600091909155600155565b60006109f1610fa283610b99565b610fab84610d0c565b9063ffffffff61199816565b6000611048610fc461122d565b610fcc610cc5565b6001600160a01b03166318160ddd6040518163ffffffff1660e01b815260040160206040518083038186803b15801561100457600080fd5b505afa158015611018573d6000803e3d6000fd5b505050506040513d601f19601f8201168201806040525061103c9190810190612db5565b9063ffffffff6119bd16565b905090565b610aa8816119ff565b610aa881611a26565b610c53848484848080601f016020809104026020016040519081016040528093929190818152602001838380828437600092019190915250611a6992505050565b610a958282611b14565b610a958282611bbc565b610aa86110c2826064611c18565b611c47565b610c53848484848080601f016020809104026020016040519081016040528093929190818152602001838380828437600092019190915250611d0c92505050565b6000611113826111a2565b61111f575060006109f1565b506001600160a01b03919091166000908152600c6020908152604080832093835260029093019052205490565b610a958282611d6b565b610a3985858585858080601f016020809104026020016040519081016040528093929190818152602001838380828437600092019190915250611dcb92505050565b610a958282611e76565b6000908152600d602052604090206001015490565b610a958282611f20565b60055490565b6001600160a01b03166000908152600e602052604090206005015460ff1690565b610aa881611f6f565b610a958282611f88565b600f55565b6001600160a01b03166000908152600e602052604090205490565b610c61611fb4565b610a958282611fcd565b60075490565b6000908152600d602052604090205490565b6001600160a01b038085166000908152600c60209081526040808320938716835260039093019052205461128090838363ffffffff61201c16565b6001600160a01b039485166000908152600c60209081526040808320969097168252600390950190945293909220929092555050565b6000828152600d6020908152604080832060020184905592825291812060030180546001810182559082529190200155565b611327816040518060400160405280601c81526020017f436f6d7074726f6c6c65723a206e6f7420656e6f7567682064656274000000008152506117f7565b610aa8612048565b611337610cc5565b6001600160a01b03166340c10f1983836040518363ffffffff1660e01b8152600401611364929190613000565b602060405180830381600087803b15801561137e57600080fd5b505af1158015611392573d6000803e3d6000fd5b505050506040513d601f19601f820116820180604052506113b69190810190612d49565b506113c2610716610e82565b6113cf576113cf8161152c565b610a95612048565b6004546113ea908263ffffffff61199816565b60045550565b60065461140490838363ffffffff61201c16565b6006555050565b6001600160a01b039283166000908152600c60209081526040808320949095168252600390930190925291902055565b6001600160a01b0383166000908152600e602052604090206003015461146890838363ffffffff61201c16565b6001600160a01b039093166000908152600e60205260409020600301929092555050565b611494612a1e565b61149c61211b565b90506114b66114a96121e3565b829063ffffffff61220516565b156114d2576114c361221b565b6114cc81612222565b50610c61565b6114ea6114dd6121e3565b829063ffffffff6122d716565b156114f8576114cc816122eb565b611500610e82565b6040517fff7db5a0dc69b02c191ba632db46961b7d0daa1bd30709ddba9b80ad0a15d2c090600090a250565b61153581611932565b6113276110c2612372565b6115486129fd565b604051806060016040528060008152602001635fbef0008152602001611c20815250905090565b60006109f18260000151610fab8460400151610e47866020015161103c612394565b611599610cc5565b6001600160a01b03166342966c68826040518263ffffffff1660e01b81526004016115c49190613076565b600060405180830381600087803b1580156115de57600080fd5b505af11580156115f2573d6000803e3d6000fd5b50505050611327816040518060600160405280602a81526020016131f4602a91396113f0565b611620610cc5565b6001600160a01b03166323b872dd8330846040518463ffffffff1660e01b815260040161164f93929190612fd8565b602060405180830381600087803b15801561166957600080fd5b505af115801561167d573d6000803e3d6000fd5b505050506040513d601f19601f820116820180604052506116a19190810190612d49565b506116aa610cc5565b6001600160a01b03166342966c68826040518263ffffffff1660e01b81526004016116d59190613076565b600060405180830381600087803b1580156116ef57600080fd5b505af1158015611703573d6000803e3d6000fd5b505050506113cf816040518060600160405280602881526020016131cc602891396117f7565b6001600160a01b0383166000908152600c60209081526040808320858452600201909152902054611760908263ffffffff61199816565b6001600160a01b0384166000908152600c60209081526040808320868452600201825280832093909355600d905220600101546117a3908263ffffffff61199816565b6000838152600d60205260409020600101556008546117c8908263ffffffff61199816565b600855505050565b6117d8610a85565b600d60006117e4610e82565b8152602081019190915260400160002055565b60075461180b90838363ffffffff61201c16565b6007555050565b6001600160a01b0383166000908152600e602052604090206002015461183f90838363ffffffff61201c16565b6001600160a01b039093166000908152600e60205260409020600201929092555050565b600082611872575060006109f1565b8282028284828161187f57fe5b0414610ab85760405162461bcd60e51b815260040161189d90613066565b60405180910390fd5b6000610ab883836040518060400160405280601a81526020017f536166654d6174683a206469766973696f6e206279207a65726f00000000000081525061239a565b6001600160a01b038083166000908152600e6020908152604080832093871683526004909301905220805482919060ff1916600183600281111561192857fe5b0217905550505050565b600754611945908263ffffffff61199816565b60075550565b60045461195f90838363ffffffff61201c16565b6004555050565b6119796119716123d1565b610fab610e82565b6001600160a01b039091166000908152600c6020526040902060040155565b600082820183811015610ab85760405162461bcd60e51b815260040161189d90613056565b6000610ab883836040518060400160405280601e81526020017f536166654d6174683a207375627472616374696f6e206f766572666c6f77000081525061201c565b6001600160a01b03166000908152600e60205260409020600501805460ff19166001179055565b6000611a31826111a2565b905080611a3e5750610aa8565b600854611a51908263ffffffff6119bd16565b600855506000908152600d6020526040812060010155565b6001600160a01b0383166000908152600c6020526040902060010154611a9690838363ffffffff61201c16565b6001600160a01b0384166000908152600c6020526040902060010155600354611ac690838363ffffffff61201c16565b6003556040516000906001600160a01b038516907fddf252ad1be2c89b69c2b068fc378daa952ba7f163c4a11628f55a4df523b3ef90611b07908690613076565b60405180910390a3505050565b6001600160a01b0382166000908152600c6020526040902060010154611b40908263ffffffff61199816565b6001600160a01b0383166000908152600c6020526040902060010155600354611b6f908263ffffffff61199816565b6003556040516001600160a01b038316906000907fddf252ad1be2c89b69c2b068fc378daa952ba7f163c4a11628f55a4df523b3ef90611bb0908590613076565b60405180910390a35050565b6001600160a01b0382166000908152600c6020526040902054611be5908263ffffffff61199816565b6001600160a01b0383166000908152600c6020526040902055600554611c11908263ffffffff61199816565b6005555050565b611c20612a1e565b6040518060200160405280611c3e85670de0b6b3a7640000866123d6565b90529392505050565b6000611cd9611cd4611c57610cc5565b6001600160a01b03166318160ddd6040518163ffffffff1660e01b815260040160206040518083038186803b158015611c8f57600080fd5b505afa158015611ca3573d6000803e3d6000fd5b505050506040513d601f19601f82011682018060405250611cc79190810190612db5565b849063ffffffff6123f416565b61241b565b90506000611ce561122d565b905081811115610b4f576000611d01828463ffffffff6119bd16565b9050610c53816112e8565b6001600160a01b0383166000908152600c6020526040902054611d3690838363ffffffff61201c16565b6001600160a01b0384166000908152600c6020526040902055600554611d6390838363ffffffff61201c16565b600555505050565b6001600160a01b0382166000908152600c602052604081206005015490611d9d611d9484610a58565b610fab85611200565b905081811115610c53576001600160a01b0384166000908152600c6020526040902060050181905550505050565b6001600160a01b0384166000908152600c60209081526040808320868452600201909152902054611e0390838363ffffffff61201c16565b6001600160a01b0385166000908152600c60209081526040808320878452600201825280832093909355600d90522060010154611e4790838363ffffffff61201c16565b6000848152600d6020526040902060010155600854611e6d90838363ffffffff61201c16565b60085550505050565b611e7e610cc5565b6001600160a01b031663a9059cbb83836040518363ffffffff1660e01b8152600401611eab929190613000565b602060405180830381600087803b158015611ec557600080fd5b505af1158015611ed9573d6000803e3d6000fd5b505050506040513d601f19601f82011682018060405250611efd9190810190612d49565b506113cf816040518060600160405280602a81526020016131f4602a91396113f0565b6001600160a01b0382166000908152600e6020526040902060030154611f4c908263ffffffff61199816565b6001600160a01b039092166000908152600e602052604090206003019190915550565b600654611f82908263ffffffff61199816565b60065550565b611f90610e82565b6001600160a01b039092166000908152600e60205260409020918255600190910155565b600254611fc890600163ffffffff61199816565b600255565b6001600160a01b0382166000908152600e6020526040902060020154611ff9908263ffffffff61199816565b6001600160a01b039092166000908152600e602052604090206002019190915550565b600081848411156120405760405162461bcd60e51b815260040161189d9190613045565b505050900390565b610c61612069612056610a99565b610fab6120616111c1565b610fab610c6c565b612071610cc5565b6001600160a01b03166370a08231306040518263ffffffff1660e01b815260040161209c9190612fca565b60206040518083038186803b1580156120b457600080fd5b505afa1580156120c8573d6000803e3d6000fd5b505050506040513d601f19601f820116820180604052506120ec9190810190612db5565b10156a21b7b6b83a3937b63632b960a91b74496e636f6e73697374656e742062616c616e63657360581b612438565b612123612a1e565b61212b612a1e565b6000612135610df8565b6001600160a01b031663d4a3e9d76040518163ffffffff1660e01b81526004016040805180830381600087803b15801561216e57600080fd5b505af1158015612182573d6000803e3d6000fd5b505050506040513d601f19601f820116820180604052506121a69190810190612d67565b915091506121ba610716600161103c610e82565b156121d0576121c761248d565b925050506109eb565b806121dd576121c76121e3565b50905090565b6121eb612a1e565b506040805160208101909152670de0b6b3a7640000815290565b600061221183836124af565b6002149392505050565b6000600755565b61222a612a1e565b61226161225c6122386124e1565b6122506122436121e3565b869063ffffffff61250316565b9063ffffffff61252c16565b61255a565b90506000612273611cd4611cc7610fb7565b905060008060006122838461258e565b925092509250612291610e82565b86516040517f32fcaa1e76ed9517f4749d8ec9a77dd5e7329456d740b9bf9665d900eef5e283916122c791879087908790613092565b60405180910390a2505050505050565b60006122e383836124af565b159392505050565b6122f3612a1e565b61230e61225c836123026121e3565b9063ffffffff61250316565b90506000612320611cd4611cc7610fb7565b905061232b8161152c565b612333610e82565b83516040517f5e139d4b8080a4a00dcc151e8217694aeebae893936326aa22096924a990667791612365918590613084565b60405180910390a2505050565b61237a612a1e565b5060408051602081019091526704db732547630000815290565b600f5490565b600081836123bb5760405162461bcd60e51b815260040161189d9190613045565b5060008385816123c757fe5b0495945050505050565b602490565b60006123ec82610e47868663ffffffff61186316565b949350505050565b6123fc612a1e565b604080516020810190915283518190611c3e908563ffffffff61186316565b80516000906109f190670de0b6b3a764000063ffffffff6118a616565b82610b4f57612446826126fa565b6101d160f51b612455836126fa565b60405160200161246793929190612f99565b60408051601f198184030181529082905262461bcd60e51b825261189d91600401613045565b612495612a1e565b50604080516020810190915267155f2dd73a1a0000815290565b8051825160009114156124c4575060016109f1565b81518351116124d45760006124d7565b60025b60ff169392505050565b6124e9612a1e565b50604080516020810190915267a688906bd8b00000815290565b61250b612a1e565b6040805160208101909152825184518291611c3e919063ffffffff6119bd16565b612534612a1e565b6040518060200160405280611c3e8560000151670de0b6b3a764000086600001516123d6565b612562612a1e565b61256a612a1e565b61257261277a565b9050612584838263ffffffff61220516565b6109f15782610ab8565b600080808080808061259e610a99565b905060006125aa610f0b565b905080821015612667576125c4818363ffffffff6119bd16565b94506125ec6125db60646125d661279c565b6119bd565b610e4787606463ffffffff61186316565b94508885116125fb57846125fd565b885b945061261c6064610e4761260f61279c565b889063ffffffff61186316565b925061262e858463ffffffff6119bd16565b9450612639836127a1565b61264285612835565b612652898463ffffffff6119bd16565b9850612664898663ffffffff6119bd16565b98505b600061267161122d565b905060008a1180156126835750600081115b156126b5578981116126955780612697565b895b94506126a2856112e8565b6126b28a8663ffffffff6119bd16565b99505b6126bd610c6c565b6126c657600099505b89156126d5576126d58a6128c6565b85856126e78c8763ffffffff61199816565b9850985098505050505050509193909250565b6060808260405160200161270e9190612f84565b60408051601f19818403018152919052905060205b80156127635781516000199091019082908290811061273e57fe5b01602001516001600160f81b0319161561275e5760010181529050610a53565b612723565b505060408051600081526020810190915292915050565b612782612a1e565b50604080516020810190915267016345785d8a0000815290565b602890565b8015610aa8576127af610cc5565b6001600160a01b03166340c10f196127c5610a76565b836040518363ffffffff1660e01b81526004016127e3929190613000565b602060405180830381600087803b1580156127fd57600080fd5b505af1158015612811573d6000803e3d6000fd5b505050506040513d601f19601f82011682018060405250610a959190810190612d49565b61283d610cc5565b6001600160a01b03166340c10f1930836040518363ffffffff1660e01b815260040161286a929190613000565b602060405180830381600087803b15801561288457600080fd5b505af1158015612898573d6000803e3d6000fd5b505050506040513d601f19601f820116820180604052506128bc9190810190612d49565b5061132781611f6f565b61290960006128d3610c6c565b116a21b7b6b83a3937b63632b960a91b7f43616e74206d696e7420746f20656d70747920706f6f6c000000000000000000612438565b60006129286064610e4761291b61279c565b859063ffffffff61186316565b9050600081831161293a57600061294a565b61294a838363ffffffff6119bd16565b9050612955826127a1565b61295e81612966565b610b4f612048565b8015610aa857612974610cc5565b6001600160a01b03166340c10f1930836040518363ffffffff1660e01b81526004016129a1929190613000565b602060405180830381600087803b1580156129bb57600080fd5b505af11580156129cf573d6000803e3d6000fd5b505050506040513d601f19601f820116820180604052506129f39190810190612d49565b50610aa8816113d7565b60405180606001604052806000815260200160008152602001600081525090565b6040518060200160405280600081525090565b80356109f181613198565b80516109f1816131ac565b80356109f1816131b5565b60008083601f840112612a6457600080fd5b50813567ffffffffffffffff811115612a7c57600080fd5b602083019150836001820283011115612a9457600080fd5b9250929050565b600060208284031215612aad57600080fd5b612ab760206130d5565b90506000612ac58484612ad9565b82525092915050565b80356109f1816131c2565b80516109f1816131c2565b600060208284031215612af657600080fd5b60006123ec8484612a31565b60008060408385031215612b1557600080fd5b6000612b218585612a31565b9250506020612b3285828601612a31565b9150509250929050565b600080600060608486031215612b5157600080fd5b6000612b5d8686612a31565b9350506020612b6e86828701612a31565b9250506040612b7f86828701612a47565b9150509250925092565b600080600060608486031215612b9e57600080fd5b6000612baa8686612a31565b9350506020612bbb86828701612a31565b9250506040612b7f86828701612ace565b600080600080600060808688031215612be457600080fd5b6000612bf08888612a31565b9550506020612c0188828901612a31565b9450506040612c1288828901612ace565b935050606086013567ffffffffffffffff811115612c2f57600080fd5b612c3b88828901612a52565b92509250509295509295909350565b60008060408385031215612c5d57600080fd5b6000612c698585612a31565b9250506020612b3285828601612ace565b60008060008060608587031215612c9057600080fd5b6000612c9c8787612a31565b9450506020612cad87828801612ace565b935050604085013567ffffffffffffffff811115612cca57600080fd5b612cd687828801612a52565b95989497509550505050565b600080600060608486031215612cf757600080fd5b6000612d038686612a31565b9350506020612bbb86828701612ace565b600080600080600060808688031215612d2c57600080fd5b6000612d388888612a31565b9550506020612c0188828901612ace565b600060208284031215612d5b57600080fd5b60006123ec8484612a3c565b60008060408385031215612d7a57600080fd5b6000612d868585612a9b565b9250506020612b3285828601612a3c565b600060208284031215612da957600080fd5b60006123ec8484612ace565b600060208284031215612dc757600080fd5b60006123ec8484612ad9565b600080600060408486031215612de857600080fd5b6000612df48686612ace565b935050602084013567ffffffffffffffff811115612e1157600080fd5b612e1d86828701612a52565b92509250509250925092565b60008060408385031215612e3c57600080fd5b6000612c698585612ace565b612e5181613109565b82525050565b612e5181613114565b612e51612e6c82613119565b6109eb565b612e51612e6c826109eb565b6000612e88826130fc565b612e928185610a53565b9350612ea2818560208601613158565b9290920192915050565b612e5181613142565b612e518161314d565b6000612ec9826130fc565b612ed38185613100565b9350612ee3818560208601613158565b612eec81613184565b9093019392505050565b6000612f03601b83613100565b7f536166654d6174683a206164646974696f6e206f766572666c6f770000000000815260200192915050565b6000612f3c602183613100565b7f536166654d6174683a206d756c7469706c69636174696f6e206f766572666c6f8152607760f81b602082015260400192915050565b612e51816109eb565b612e518161313c565b6000612f908284612e71565b50602001919050565b6000612fa58286612e7d565b9150612fb18285612e60565b600282019150612fc18284612e7d565b95945050505050565b602081016109f18284612e48565b60608101612fe68286612e48565b612ff36020830185612e48565b6123ec6040830184612f72565b6040810161300e8285612e48565b610ab86020830184612f72565b602081016109f18284612e57565b602081016109f18284612eac565b602081016109f18284612eb5565b60208082528101610ab88184612ebe565b602080825281016109f181612ef6565b602080825281016109f181612f2f565b602081016109f18284612f72565b6040810161300e8285612f72565b608081016130a08287612f72565b6130ad6020830186612f72565b6130ba6040830185612f72565b612fc16060830184612f72565b602081016109f18284612f7b565b60405181810167ffffffffffffffff811182821017156130f457600080fd5b604052919050565b5190565b90815260200190565b60006109f182613130565b151590565b6001600160f01b03191690565b80610a538161318e565b6001600160a01b031690565b60ff1690565b60006109f182613109565b60006109f182613126565b60005b8381101561317357818101518382015260200161315b565b83811115610c535750506000910152565b601f01601f191690565b60038110610aa857fe5b6131a181613109565b8114610aa857600080fd5b6131a181613114565b60038110610aa857600080fd5b6131a1816109eb56fe436f6d7074726f6c6c65723a206e6f7420656e6f756768206f75747374616e64696e672064656274436f6d7074726f6c6c65723a206e6f7420656e6f7567682072656465656d61626c652062616c616e6365a365627a7a723158209ba181224910ef75579d4bae9f38dd1b47a2366003c92d8f1e9632722da381266c6578706572696d656e74616cf564736f6c6343000511004060806040523480156200001157600080fd5b5060405180604001604052806012815260200171223cb730b6b4b19029b2ba102237b63630b960711b815250604051806040016040528060038152602001621114d160ea1b81525060126200007e6200006f6200011960201b60201c565b6001600160e01b036200011e16565b82516200009390600190602086019062000313565b508151620000a990600290602085019062000313565b506003805460ff191660ff9290921691909117905550620001109050620000cf62000170565b604051806040016040528060018152602001603160f81b815250620000fe6200020960201b620016341760201c565b306200020e60201b620016391760201c565b60075562000469565b335b90565b620001398160006200026560201b62000d7e1790919060201c565b6040516001600160a01b038216907f6ae172837ea30b801fbfcdd4108aa1d5bf8ff775444fd70256b44e6bf3dfc3f690600090a250565b60018054604080516020601f60026000196101008789161502019095169490940493840181900481028201810190925282815260609390929091830182828015620001ff5780601f10620001d357610100808354040283529160200191620001ff565b820191906000526020600020905b815481529060010190602001808311620001e157829003601f168201915b5050505050905090565b600190565b8351602094850120835193850193909320604080517f8b73c3c69bb8fe3d512ecc4cf759cc79239f7b179b0ffacaa9a75d522b39400f815295860194909452928401929092526060830152608082015260a0902090565b6200027a82826001600160e01b03620002c816565b15620002a35760405162461bcd60e51b81526004016200029a9062000436565b60405180910390fd5b6001600160a01b0316600090815260209190915260409020805460ff19166001179055565b60006001600160a01b038216620002f35760405162461bcd60e51b81526004016200029a906200044e565b506001600160a01b03166000908152602091909152604090205460ff1690565b828054600181600116156101000203166002900490600052602060002090601f016020900481019282601f106200035657805160ff191683800117855562000386565b8280016001018555821562000386579182015b828111156200038657825182559160200191906001019062000369565b506200039492915062000398565b5090565b6200011b91905b808211156200039457600081556001016200039f565b6000620003c4601f8362000460565b7f526f6c65733a206163636f756e7420616c72656164792068617320726f6c6500815260200192915050565b6000620003ff60228362000460565b7f526f6c65733a206163636f756e7420697320746865207a65726f206164647265815261737360f01b602082015260400192915050565b602080825281016200044881620003b5565b92915050565b602080825281016200044881620003f0565b90815260200190565b61178d80620004796000396000f3fe608060405234801561001057600080fd5b506004361061012c5760003560e01c806395d89b41116100ad578063aa271e1a11610071578063aa271e1a14610256578063d505accf14610269578063dab400f31461027c578063dd62ed3e14610284578063e879c19f146102975761012c565b806395d89b411461020d578063983b2d56146102155780639865027514610228578063a457c2d714610230578063a9059cbb146102435761012c565b806339509351116100f457806339509351146101ac57806340c10f19146101bf57806342966c68146101d257806370a08231146101e757806379cc6790146101fa5761012c565b806306fdde0314610131578063095ea7b31461014f57806318160ddd1461016f57806323b872dd14610184578063313ce56714610197575b600080fd5b61013961029f565b60405161014691906114c6565b60405180910390f35b61016261015d366004610ffc565b610334565b604051610146919061141b565b610177610352565b6040516101469190611429565b610162610192366004610f13565b610358565b61019f6103ca565b6040516101469190611587565b6101626101ba366004610ffc565b6103d3565b6101626101cd366004610ffc565b610427565b6101e56101e036600461102c565b610463565b005b6101776101f5366004610eb3565b610477565b6101e5610208366004610ffc565b610496565b6101396104a4565b6101e5610223366004610eb3565b610502565b6101e5610532565b61016261023e366004610ffc565b610544565b610162610251366004610ffc565b6105b2565b610162610264366004610eb3565b6105c6565b6101e5610277366004610f60565b6105d8565b61017761075f565b610177610292366004610ed9565b610765565b610177610790565b60018054604080516020601f6002600019610100878916150201909516949094049384018190048102820181019092528281526060939092909183018282801561032a5780601f106102ff5761010080835404028352916020019161032a565b820191906000526020600020905b81548152906001019060200180831161030d57829003601f168201915b5050505050905090565b60006103486103416107b4565b84846107b8565b5060015b92915050565b60065490565b600061036584848461086c565b600019610374856102926107b4565b146103c0576103c0846103856107b4565b6103bb856040518060600160405280602981526020016116fd602991396103ae8a6102926107b4565b919063ffffffff61098216565b6107b8565b5060019392505050565b60035460ff1690565b60006103486103e06107b4565b846103bb85600560006103f16107b4565b6001600160a01b03908116825260208083019390935260409182016000908120918c16815292529020549063ffffffff6109ae16565b60006104346102646107b4565b6104595760405162461bcd60e51b815260040161045090611517565b60405180910390fd5b61034883836109da565b61047461046e6107b4565b82610a9a565b50565b6001600160a01b0381166000908152600460205260409020545b919050565b6104a08282610b70565b5050565b60028054604080516020601f600019610100600187161502019094168590049384018190048102820181019092528281526060939092909183018282801561032a5780601f106102ff5761010080835404028352916020019161032a565b61050d6102646107b4565b6105295760405162461bcd60e51b815260040161045090611517565b61047481610beb565b61054261053d6107b4565b610c33565b565b60006103486105516107b4565b846103bb85604051806060016040528060258152602001611726602591396005600061057b6107b4565b6001600160a01b03908116825260208083019390935260409182016000908120918d1681529252902054919063ffffffff61098216565b60006103486105bf6107b4565b848461086c565b600061034c818363ffffffff610c7b16565b6007546001600160a01b03881660009081526008602090815260408083208054600181019091559051929361065a93909261063f927f6e71edae12b1b97f4d1f60370fef10105fa2faae0126114a169c64845d6126c9928e928e928e9290918e9101611437565b60405160208183030381529060405280519060200120610cc3565b90506000600182868686604051600081526020016040526040516106819493929190611491565b6020604051602081039080840390855afa1580156106a3573d6000803e3d6000fd5b5050506020604051035190506106f0896001600160a01b0316826001600160a01b0316146a5065726d69747461626c6560a81b70496e76616c6964207369676e617475726560781b610ce2565b6107236001600160a01b03821615156a5065726d69747461626c6560a81b6b5a65726f206164647265737360a01b610ce2565b610749864211156a5065726d69747461626c6560a81b66115e1c1a5c995960ca1b610ce2565b6107548989896107b8565b505050505050505050565b60075481565b6001600160a01b03918216600090815260056020908152604080832093909416825291909152205490565b7f6e71edae12b1b97f4d1f60370fef10105fa2faae0126114a169c64845d6126c981565b3390565b6001600160a01b0383166107de5760405162461bcd60e51b815260040161045090611567565b6001600160a01b0382166108045760405162461bcd60e51b8152600401610450906114f7565b6001600160a01b0380841660008181526005602090815260408083209487168084529490915290819020849055517f8c5be1e5ebec7d5bd14f71427d1e84f3dd0314c0f7b2291e5b200ac8c7c3b9259061085f908590611429565b60405180910390a3505050565b6001600160a01b0383166108925760405162461bcd60e51b815260040161045090611557565b6001600160a01b0382166108b85760405162461bcd60e51b8152600401610450906114d7565b6108fb816040518060600160405280602681526020016116b3602691396001600160a01b038616600090815260046020526040902054919063ffffffff61098216565b6001600160a01b038085166000908152600460205260408082209390935590841681522054610930908263ffffffff6109ae16565b6001600160a01b0380841660008181526004602052604090819020939093559151908516907fddf252ad1be2c89b69c2b068fc378daa952ba7f163c4a11628f55a4df523b3ef9061085f908590611429565b600081848411156109a65760405162461bcd60e51b815260040161045091906114c6565b505050900390565b6000828201838110156109d35760405162461bcd60e51b815260040161045090611507565b9392505050565b6001600160a01b038216610a005760405162461bcd60e51b815260040161045090611577565b600654610a13908263ffffffff6109ae16565b6006556001600160a01b038216600090815260046020526040902054610a3f908263ffffffff6109ae16565b6001600160a01b0383166000818152600460205260408082209390935591519091907fddf252ad1be2c89b69c2b068fc378daa952ba7f163c4a11628f55a4df523b3ef90610a8e908590611429565b60405180910390a35050565b6001600160a01b038216610ac05760405162461bcd60e51b815260040161045090611547565b610b0381604051806060016040528060228152602001611691602291396001600160a01b038516600090815260046020526040902054919063ffffffff61098216565b6001600160a01b038316600090815260046020526040902055600654610b2f908263ffffffff610d3c16565b6006556040516000906001600160a01b038416907fddf252ad1be2c89b69c2b068fc378daa952ba7f163c4a11628f55a4df523b3ef90610a8e908590611429565b610b7a8282610a9a565b6104a082610b866107b4565b6103bb846040518060600160405280602481526020016116d9602491396001600160a01b038816600090815260056020526040812090610bc46107b4565b6001600160a01b03168152602081019190915260400160002054919063ffffffff61098216565b610bfc60008263ffffffff610d7e16565b6040516001600160a01b038216907f6ae172837ea30b801fbfcdd4108aa1d5bf8ff775444fd70256b44e6bf3dfc3f690600090a250565b610c4460008263ffffffff610dca16565b6040516001600160a01b038216907fe94479a9f7e1952cc78f2d6baab678adc1b772d936c6583def489e524cb6669290600090a250565b60006001600160a01b038216610ca35760405162461bcd60e51b815260040161045090611537565b506001600160a01b03166000908152602091909152604090205460ff1690565b60405161190160f01b8152600281019290925260228201526042902090565b82610d3757610cf082610e12565b6101d160f51b610cff83610e12565b604051602001610d11939291906113ea565b60408051601f198184030181529082905262461bcd60e51b8252610450916004016114c6565b505050565b60006109d383836040518060400160405280601e81526020017f536166654d6174683a207375627472616374696f6e206f766572666c6f770000815250610982565b610d888282610c7b565b15610da55760405162461bcd60e51b8152600401610450906114e7565b6001600160a01b0316600090815260209190915260409020805460ff19166001179055565b610dd48282610c7b565b610df05760405162461bcd60e51b815260040161045090611527565b6001600160a01b0316600090815260209190915260409020805460ff19169055565b60608082604051602001610e2691906113d5565b60408051601f19818403018152919052905060205b8015610e7b57815160001990910190829082908110610e5657fe5b01602001516001600160f81b03191615610e765760010181529050610491565b610e3b565b505060408051600081526020810190915292915050565b803561034c8161160e565b803561034c81611622565b803561034c8161162b565b600060208284031215610ec557600080fd5b6000610ed18484610e92565b949350505050565b60008060408385031215610eec57600080fd5b6000610ef88585610e92565b9250506020610f0985828601610e92565b9150509250929050565b600080600060608486031215610f2857600080fd5b6000610f348686610e92565b9350506020610f4586828701610e92565b9250506040610f5686828701610e9d565b9150509250925092565b600080600080600080600060e0888a031215610f7b57600080fd5b6000610f878a8a610e92565b9750506020610f988a828b01610e92565b9650506040610fa98a828b01610e9d565b9550506060610fba8a828b01610e9d565b9450506080610fcb8a828b01610ea8565b93505060a0610fdc8a828b01610e9d565b92505060c0610fed8a828b01610e9d565b91505092959891949750929550565b6000806040838503121561100f57600080fd5b600061101b8585610e92565b9250506020610f0985828601610e9d565b60006020828403121561103e57600080fd5b6000610ed18484610e9d565b611053816115a2565b82525050565b611053816115ad565b61105361106e826115b2565b6115bf565b611053816115bf565b61105361106e826115bf565b600061109382611595565b61109d8185610491565b93506110ad8185602086016115d4565b9290920192915050565b60006110c282611595565b6110cc8185611599565b93506110dc8185602086016115d4565b6110e581611604565b9093019392505050565b60006110fc602383611599565b7f45524332303a207472616e7366657220746f20746865207a65726f206164647281526265737360e81b602082015260400192915050565b6000611141601f83611599565b7f526f6c65733a206163636f756e7420616c72656164792068617320726f6c6500815260200192915050565b600061117a602283611599565b7f45524332303a20617070726f766520746f20746865207a65726f206164647265815261737360f01b602082015260400192915050565b60006111be601b83611599565b7f536166654d6174683a206164646974696f6e206f766572666c6f770000000000815260200192915050565b60006111f7603083611599565b7f4d696e746572526f6c653a2063616c6c657220646f6573206e6f74206861766581526f20746865204d696e74657220726f6c6560801b602082015260400192915050565b6000611249602183611599565b7f526f6c65733a206163636f756e7420646f6573206e6f74206861766520726f6c8152606560f81b602082015260400192915050565b600061128c602283611599565b7f526f6c65733a206163636f756e7420697320746865207a65726f206164647265815261737360f01b602082015260400192915050565b60006112d0602183611599565b7f45524332303a206275726e2066726f6d20746865207a65726f206164647265738152607360f81b602082015260400192915050565b6000611313602583611599565b7f45524332303a207472616e736665722066726f6d20746865207a65726f206164815264647265737360d81b602082015260400192915050565b600061135a602483611599565b7f45524332303a20617070726f76652066726f6d20746865207a65726f206164648152637265737360e01b602082015260400192915050565b60006113a0601f83611599565b7f45524332303a206d696e7420746f20746865207a65726f206164647265737300815260200192915050565b611053816115ce565b60006113e1828461107c565b50602001919050565b60006113f68286611088565b91506114028285611062565b6002820191506114128284611088565b95945050505050565b6020810161034c8284611059565b6020810161034c8284611073565b60c081016114458289611073565b611452602083018861104a565b61145f604083018761104a565b61146c6060830186611073565b6114796080830185611073565b61148660a0830184611073565b979650505050505050565b6080810161149f8287611073565b6114ac60208301866113cc565b6114b96040830185611073565b6114126060830184611073565b602080825281016109d381846110b7565b6020808252810161034c816110ef565b6020808252810161034c81611134565b6020808252810161034c8161116d565b6020808252810161034c816111b1565b6020808252810161034c816111ea565b6020808252810161034c8161123c565b6020808252810161034c8161127f565b6020808252810161034c816112c3565b6020808252810161034c81611306565b6020808252810161034c8161134d565b6020808252810161034c81611393565b6020810161034c82846113cc565b5190565b90815260200190565b600061034c826115c2565b151590565b6001600160f01b03191690565b90565b6001600160a01b031690565b60ff1690565b60005b838110156115ef5781810151838201526020016115d7565b838111156115fe576000848401525b50505050565b601f01601f191690565b611617816115a2565b811461047457600080fd5b611617816115bf565b611617816115ce565b600190565b8351602094850120835193850193909320604080517f8b73c3c69bb8fe3d512ecc4cf759cc79239f7b179b0ffacaa9a75d522b39400f815295860194909452928401929092526060830152608082015260a090209056fe45524332303a206275726e20616d6f756e7420657863656564732062616c616e636545524332303a207472616e7366657220616d6f756e7420657863656564732062616c616e636545524332303a206275726e20616d6f756e74206578636565647320616c6c6f77616e6365446f6c6c61723a207472616e7366657220616d6f756e74206578636565647320616c6c6f77616e636545524332303a2064656372656173656420616c6c6f77616e63652062656c6f77207a65726fa365627a7a723158203e95e3d3fa85fd718716875e661179418ecad6cb835113952f812d6ca66506066c6578706572696d656e74616cf564736f6c63430005110040",
  "source": "/*\n    Copyright 2020 Dynamic Dollar Devs, based on the works of the Empty Set Squad\n\n    Licensed under the Apache License, Version 2.0 (the \"License\");\n    you may not use this file except in compliance with the License.\n    You may obtain a copy of the License at\n\n    http://www.apache.org/licenses/LICENSE-2.0\n\n    Unless required by applicable law or agreed to in writing, software\n    distributed under the License is distributed on an \"AS IS\" BASIS,\n    WITHOUT WARRANTIES OR CONDITIONS OF ANY KIND, either express or implied.\n    See the License for the specific language governing permissions and\n    limitations under the License.\n*/\n\npragma solidity ^0.5.17;\npragma experimental ABIEncoderV2;\n\nimport \"../dao/Regulator.sol\";\nimport \"../oracle/IOracle.sol\";\nimport \"./MockComptroller.sol\";\nimport \"./MockState.sol\";\n\ncontract MockRegulator is MockComptroller, Regulator {\n    constructor (address oracle, address pool) MockComptroller(pool) public {\n        _state.provider.oracle = IOracle(oracle);\n    }\n\n    function stepE() external {\n        super.step();\n    }\n\n    function bootstrappingAt(uint256 epoch) public view returns (bool) {\n        return epoch <= 5;\n    }\n}\n",
  "sourcePath": "/home/name/Desktop/Files/projects/dynamic/dollar/protocol/contracts/mock/MockRegulator.sol",
  "compiler": {
    "name": "solc",
    "version": "0.5.17+commit.d19bba13.Emscripten.clang"
  },
  "schemaVersion": "3.3.1",
  "updatedAt": "2020-11-25T22:34:45.267Z",
  "devdoc": {
    "methods": {}
  },
  "userdoc": {
    "methods": {
      "balanceOfStaged(address)": {
        "notice": "Account"
      },
      "createCandidateE(address,uint256)": {
        "notice": "Governance"
      },
      "dollar()": {
        "notice": "Global"
      },
      "epoch()": {
        "notice": "Epoch"
      },
      "incrementBalanceOfE(address,uint256)": {
        "notice": "Account"
      },
      "incrementTotalBondedE(uint256)": {
        "notice": "Global"
      },
      "name()": {
        "notice": "ERC20 Interface"
      },
      "recordedVote(address,address)": {
        "notice": "Governance"
      },
      "setBlockTimestamp(uint256)": {
        "notice": "Mock"
      },
      "setEpochParamsE(uint256,uint256)": {
        "notice": "Epoch"
      },
      "transfer(address,uint256)": {
        "notice": "ERC20 Interface"
      }
    }
  }
}