{
  "contractName": "MockComptroller",
  "abi": [
    {
      "inputs": [
        {
          "internalType": "address",
          "name": "pool",
          "type": "address"
        }
      ],
      "payable": false,
      "stateMutability": "nonpayable",
      "type": "constructor"
    },
    {
      "anonymous": false,
      "inputs": [
        {
          "indexed": true,
          "internalType": "address",
          "name": "from",
          "type": "address"
        },
        {
          "indexed": true,
          "internalType": "address",
          "name": "to",
          "type": "address"
        },
        {
          "indexed": false,
          "internalType": "uint256",
          "name": "value",
          "type": "uint256"
        }
      ],
      "name": "Transfer",
      "type": "event"
    },
    {
      "constant": true,
      "inputs": [
        {
          "internalType": "address",
          "name": "owner",
          "type": "address"
        },
        {
          "internalType": "address",
          "name": "spender",
          "type": "address"
        }
      ],
      "name": "allowance",
      "outputs": [
        {
          "internalType": "uint256",
          "name": "",
          "type": "uint256"
        }
      ],
      "payable": false,
      "stateMutability": "view",
      "type": "function"
    },
    {
      "constant": true,
      "inputs": [
        {
          "internalType": "address",
          "name": "owner",
          "type": "address"
        },
        {
          "internalType": "address",
          "name": "spender",
          "type": "address"
        }
      ],
      "name": "allowanceCoupons",
      "outputs": [
        {
          "internalType": "uint256",
          "name": "",
          "type": "uint256"
        }
      ],
      "payable": false,
      "stateMutability": "view",
      "type": "function"
    },
    {
      "constant": false,
      "inputs": [
        {
          "internalType": "address",
          "name": "spender",
          "type": "address"
        },
        {
          "internalType": "uint256",
          "name": "amount",
          "type": "uint256"
        }
      ],
      "name": "approve",
      "outputs": [
        {
          "internalType": "bool",
          "name": "",
          "type": "bool"
        }
      ],
      "payable": false,
      "stateMutability": "nonpayable",
      "type": "function"
    },
    {
      "constant": true,
      "inputs": [
        {
          "internalType": "address",
          "name": "candidate",
          "type": "address"
        }
      ],
      "name": "approveFor",
      "outputs": [
        {
          "internalType": "uint256",
          "name": "",
          "type": "uint256"
        }
      ],
      "payable": false,
      "stateMutability": "view",
      "type": "function"
    },
    {
      "constant": true,
      "inputs": [
        {
          "internalType": "address",
          "name": "account",
          "type": "address"
        }
      ],
      "name": "balanceOf",
      "outputs": [
        {
          "internalType": "uint256",
          "name": "",
          "type": "uint256"
        }
      ],
      "payable": false,
      "stateMutability": "view",
      "type": "function"
    },
    {
      "constant": true,
      "inputs": [
        {
          "internalType": "address",
          "name": "account",
          "type": "address"
        }
      ],
      "name": "balanceOfBonded",
      "outputs": [
        {
          "internalType": "uint256",
          "name": "",
          "type": "uint256"
        }
      ],
      "payable": false,
      "stateMutability": "view",
      "type": "function"
    },
    {
      "constant": true,
      "inputs": [
        {
          "internalType": "address",
          "name": "account",
          "type": "address"
        },
        {
          "internalType": "uint256",
          "name": "epoch",
          "type": "uint256"
        }
      ],
      "name": "balanceOfCoupons",
      "outputs": [
        {
          "internalType": "uint256",
          "name": "",
          "type": "uint256"
        }
      ],
      "payable": false,
      "stateMutability": "view",
      "type": "function"
    },
    {
      "constant": true,
      "inputs": [
        {
          "internalType": "address",
          "name": "account",
          "type": "address"
        }
      ],
      "name": "balanceOfStaged",
      "outputs": [
        {
          "internalType": "uint256",
          "name": "",
          "type": "uint256"
        }
      ],
      "payable": false,
      "stateMutability": "view",
      "type": "function"
    },
    {
      "constant": true,
      "inputs": [
        {
          "internalType": "uint256",
          "name": "epoch",
          "type": "uint256"
        }
      ],
      "name": "bootstrappingAt",
      "outputs": [
        {
          "internalType": "bool",
          "name": "",
          "type": "bool"
        }
      ],
      "payable": false,
      "stateMutability": "view",
      "type": "function"
    },
    {
      "constant": true,
      "inputs": [
        {
          "internalType": "uint256",
          "name": "epoch",
          "type": "uint256"
        }
      ],
      "name": "couponsExpiration",
      "outputs": [
        {
          "internalType": "uint256",
          "name": "",
          "type": "uint256"
        }
      ],
      "payable": false,
      "stateMutability": "view",
      "type": "function"
    },
    {
      "constant": false,
      "inputs": [
        {
          "internalType": "address",
          "name": "candidate",
          "type": "address"
        },
        {
          "internalType": "uint256",
          "name": "period",
          "type": "uint256"
        }
      ],
      "name": "createCandidateE",
      "outputs": [],
      "payable": false,
      "stateMutability": "nonpayable",
      "type": "function"
    },
    {
      "constant": true,
      "inputs": [],
      "name": "decimals",
      "outputs": [
        {
          "internalType": "uint8",
          "name": "",
          "type": "uint8"
        }
      ],
      "payable": false,
      "stateMutability": "view",
      "type": "function"
    },
    {
      "constant": false,
      "inputs": [
        {
          "internalType": "address",
          "name": "owner",
          "type": "address"
        },
        {
          "internalType": "address",
          "name": "spender",
          "type": "address"
        },
        {
          "internalType": "uint256",
          "name": "amount",
          "type": "uint256"
        },
        {
          "internalType": "string",
          "name": "reason",
          "type": "string"
        }
      ],
      "name": "decrementAllowanceCouponsE",
      "outputs": [],
      "payable": false,
      "stateMutability": "nonpayable",
      "type": "function"
    },
    {
      "constant": false,
      "inputs": [
        {
          "internalType": "address",
          "name": "candidate",
          "type": "address"
        },
        {
          "internalType": "uint256",
          "name": "amount",
          "type": "uint256"
        },
        {
          "internalType": "string",
          "name": "reason",
          "type": "string"
        }
      ],
      "name": "decrementApproveForE",
      "outputs": [],
      "payable": false,
      "stateMutability": "nonpayable",
      "type": "function"
    },
    {
      "constant": false,
      "inputs": [
        {
          "internalType": "address",
          "name": "account",
          "type": "address"
        },
        {
          "internalType": "uint256",
          "name": "epoch",
          "type": "uint256"
        },
        {
          "internalType": "uint256",
          "name": "amount",
          "type": "uint256"
        },
        {
          "internalType": "string",
          "name": "reason",
          "type": "string"
        }
      ],
      "name": "decrementBalanceOfCouponsE",
      "outputs": [],
      "payable": false,
      "stateMutability": "nonpayable",
      "type": "function"
    },
    {
      "constant": false,
      "inputs": [
        {
          "internalType": "address",
          "name": "account",
          "type": "address"
        },
        {
          "internalType": "uint256",
          "name": "amount",
          "type": "uint256"
        },
        {
          "internalType": "string",
          "name": "reason",
          "type": "string"
        }
      ],
      "name": "decrementBalanceOfE",
      "outputs": [],
      "payable": false,
      "stateMutability": "nonpayable",
      "type": "function"
    },
    {
      "constant": false,
      "inputs": [
        {
          "internalType": "address",
          "name": "account",
          "type": "address"
        },
        {
          "internalType": "uint256",
          "name": "amount",
          "type": "uint256"
        },
        {
          "internalType": "string",
          "name": "reason",
          "type": "string"
        }
      ],
      "name": "decrementBalanceOfStagedE",
      "outputs": [],
      "payable": false,
      "stateMutability": "nonpayable",
      "type": "function"
    },
    {
      "constant": false,
      "inputs": [
        {
          "internalType": "address",
          "name": "candidate",
          "type": "address"
        },
        {
          "internalType": "uint256",
          "name": "amount",
          "type": "uint256"
        },
        {
          "internalType": "string",
          "name": "reason",
          "type": "string"
        }
      ],
      "name": "decrementRejectForE",
      "outputs": [],
      "payable": false,
      "stateMutability": "nonpayable",
      "type": "function"
    },
    {
      "constant": false,
      "inputs": [
        {
          "internalType": "uint256",
          "name": "amount",
          "type": "uint256"
        },
        {
          "internalType": "string",
          "name": "reason",
          "type": "string"
        }
      ],
      "name": "decrementTotalBondedE",
      "outputs": [],
      "payable": false,
      "stateMutability": "nonpayable",
      "type": "function"
    },
    {
      "constant": false,
      "inputs": [
        {
          "internalType": "uint256",
          "name": "amount",
          "type": "uint256"
        },
        {
          "internalType": "string",
          "name": "reason",
          "type": "string"
        }
      ],
      "name": "decrementTotalDebtE",
      "outputs": [],
      "payable": false,
      "stateMutability": "nonpayable",
      "type": "function"
    },
    {
      "constant": false,
      "inputs": [
        {
          "internalType": "uint256",
          "name": "amount",
          "type": "uint256"
        },
        {
          "internalType": "string",
          "name": "reason",
          "type": "string"
        }
      ],
      "name": "decrementTotalRedeemableE",
      "outputs": [],
      "payable": false,
      "stateMutability": "nonpayable",
      "type": "function"
    },
    {
      "constant": true,
      "inputs": [],
      "name": "dollar",
      "outputs": [
        {
          "internalType": "contract IDollar",
          "name": "",
          "type": "address"
        }
      ],
      "payable": false,
      "stateMutability": "view",
      "type": "function"
    },
    {
      "constant": false,
      "inputs": [
        {
          "internalType": "uint256",
          "name": "epoch",
          "type": "uint256"
        }
      ],
      "name": "eliminateOutstandingCouponsE",
      "outputs": [],
      "payable": false,
      "stateMutability": "nonpayable",
      "type": "function"
    },
    {
      "constant": true,
      "inputs": [],
      "name": "epoch",
      "outputs": [
        {
          "internalType": "uint256",
          "name": "",
          "type": "uint256"
        }
      ],
      "payable": false,
      "stateMutability": "view",
      "type": "function"
    },
    {
      "constant": true,
      "inputs": [],
      "name": "epochTime",
      "outputs": [
        {
          "internalType": "uint256",
          "name": "",
          "type": "uint256"
        }
      ],
      "payable": false,
      "stateMutability": "view",
      "type": "function"
    },
    {
      "constant": true,
      "inputs": [
        {
          "internalType": "uint256",
          "name": "epoch",
          "type": "uint256"
        }
      ],
      "name": "expiringCoupons",
      "outputs": [
        {
          "internalType": "uint256",
          "name": "",
          "type": "uint256"
        }
      ],
      "payable": false,
      "stateMutability": "view",
      "type": "function"
    },
    {
      "constant": true,
      "inputs": [
        {
          "internalType": "uint256",
          "name": "epoch",
          "type": "uint256"
        },
        {
          "internalType": "uint256",
          "name": "i",
          "type": "uint256"
        }
      ],
      "name": "expiringCouponsAtIndex",
      "outputs": [
        {
          "internalType": "uint256",
          "name": "",
          "type": "uint256"
        }
      ],
      "payable": false,
      "stateMutability": "view",
      "type": "function"
    },
    {
      "constant": true,
      "inputs": [
        {
          "internalType": "address",
          "name": "account",
          "type": "address"
        }
      ],
      "name": "fluidUntil",
      "outputs": [
        {
          "internalType": "uint256",
          "name": "",
          "type": "uint256"
        }
      ],
      "payable": false,
      "stateMutability": "view",
      "type": "function"
    },
    {
      "constant": true,
      "inputs": [
        {
          "internalType": "uint256",
          "name": "epoch",
          "type": "uint256"
        }
      ],
      "name": "getAvgExpiryFilled",
      "outputs": [
        {
          "internalType": "uint256",
          "name": "",
          "type": "uint256"
        }
      ],
      "payable": false,
      "stateMutability": "view",
      "type": "function"
    },
    {
      "constant": true,
      "inputs": [
        {
          "internalType": "uint256",
          "name": "epoch",
          "type": "uint256"
        }
      ],
      "name": "getAvgYieldFilled",
      "outputs": [
        {
          "internalType": "uint256",
          "name": "",
          "type": "uint256"
        }
      ],
      "payable": false,
      "stateMutability": "view",
      "type": "function"
    },
    {
      "constant": true,
      "inputs": [
        {
          "internalType": "uint256",
          "name": "epoch",
          "type": "uint256"
        }
      ],
      "name": "getBidToCover",
      "outputs": [
        {
          "internalType": "uint256",
          "name": "",
          "type": "uint256"
        }
      ],
      "payable": false,
      "stateMutability": "view",
      "type": "function"
    },
    {
      "constant": true,
      "inputs": [],
      "name": "getLatestDeadAuctionEpoch",
      "outputs": [
        {
          "internalType": "uint256",
          "name": "",
          "type": "uint256"
        }
      ],
      "payable": false,
      "stateMutability": "view",
      "type": "function"
    },
    {
      "constant": true,
      "inputs": [
        {
          "internalType": "uint256",
          "name": "epoch",
          "type": "uint256"
        }
      ],
      "name": "getMaxExpiryFilled",
      "outputs": [
        {
          "internalType": "uint256",
          "name": "",
          "type": "uint256"
        }
      ],
      "payable": false,
      "stateMutability": "view",
      "type": "function"
    },
    {
      "constant": true,
      "inputs": [
        {
          "internalType": "uint256",
          "name": "epoch",
          "type": "uint256"
        }
      ],
      "name": "getMaxYieldFilled",
      "outputs": [
        {
          "internalType": "uint256",
          "name": "",
          "type": "uint256"
        }
      ],
      "payable": false,
      "stateMutability": "view",
      "type": "function"
    },
    {
      "constant": true,
      "inputs": [
        {
          "internalType": "uint256",
          "name": "epoch",
          "type": "uint256"
        }
      ],
      "name": "getMinExpiryFilled",
      "outputs": [
        {
          "internalType": "uint256",
          "name": "",
          "type": "uint256"
        }
      ],
      "payable": false,
      "stateMutability": "view",
      "type": "function"
    },
    {
      "constant": true,
      "inputs": [
        {
          "internalType": "uint256",
          "name": "epoch",
          "type": "uint256"
        }
      ],
      "name": "getMinYieldFilled",
      "outputs": [
        {
          "internalType": "uint256",
          "name": "",
          "type": "uint256"
        }
      ],
      "payable": false,
      "stateMutability": "view",
      "type": "function"
    },
    {
      "constant": true,
      "inputs": [
        {
          "internalType": "uint256",
          "name": "epoch",
          "type": "uint256"
        }
      ],
      "name": "getTotalAuctioned",
      "outputs": [
        {
          "internalType": "uint256",
          "name": "",
          "type": "uint256"
        }
      ],
      "payable": false,
      "stateMutability": "view",
      "type": "function"
    },
    {
      "constant": true,
      "inputs": [
        {
          "internalType": "uint256",
          "name": "epoch",
          "type": "uint256"
        }
      ],
      "name": "getTotalBurned",
      "outputs": [
        {
          "internalType": "uint256",
          "name": "",
          "type": "uint256"
        }
      ],
      "payable": false,
      "stateMutability": "view",
      "type": "function"
    },
    {
      "constant": true,
      "inputs": [
        {
          "internalType": "uint256",
          "name": "epoch",
          "type": "uint256"
        }
      ],
      "name": "getTotalFilled",
      "outputs": [
        {
          "internalType": "uint256",
          "name": "",
          "type": "uint256"
        }
      ],
      "payable": false,
      "stateMutability": "view",
      "type": "function"
    },
    {
      "constant": true,
      "inputs": [],
      "name": "implementation",
      "outputs": [
        {
          "internalType": "address",
          "name": "impl",
          "type": "address"
        }
      ],
      "payable": false,
      "stateMutability": "view",
      "type": "function"
    },
    {
      "constant": false,
      "inputs": [
        {
          "internalType": "address",
          "name": "candidate",
          "type": "address"
        },
        {
          "internalType": "uint256",
          "name": "amount",
          "type": "uint256"
        }
      ],
      "name": "incrementApproveForE",
      "outputs": [],
      "payable": false,
      "stateMutability": "nonpayable",
      "type": "function"
    },
    {
      "constant": false,
      "inputs": [
        {
          "internalType": "address",
          "name": "account",
          "type": "address"
        },
        {
          "internalType": "uint256",
          "name": "epoch",
          "type": "uint256"
        },
        {
          "internalType": "uint256",
          "name": "amount",
          "type": "uint256"
        }
      ],
      "name": "incrementBalanceOfCouponsE",
      "outputs": [],
      "payable": false,
      "stateMutability": "nonpayable",
      "type": "function"
    },
    {
      "constant": false,
      "inputs": [
        {
          "internalType": "address",
          "name": "account",
          "type": "address"
        },
        {
          "internalType": "uint256",
          "name": "amount",
          "type": "uint256"
        }
      ],
      "name": "incrementBalanceOfE",
      "outputs": [],
      "payable": false,
      "stateMutability": "nonpayable",
      "type": "function"
    },
    {
      "constant": false,
      "inputs": [
        {
          "internalType": "address",
          "name": "account",
          "type": "address"
        },
        {
          "internalType": "uint256",
          "name": "amount",
          "type": "uint256"
        }
      ],
      "name": "incrementBalanceOfStagedE",
      "outputs": [],
      "payable": false,
      "stateMutability": "nonpayable",
      "type": "function"
    },
    {
      "constant": false,
      "inputs": [],
      "name": "incrementEpochE",
      "outputs": [],
      "payable": false,
      "stateMutability": "nonpayable",
      "type": "function"
    },
    {
      "constant": false,
      "inputs": [
        {
          "internalType": "address",
          "name": "candidate",
          "type": "address"
        },
        {
          "internalType": "uint256",
          "name": "amount",
          "type": "uint256"
        }
      ],
      "name": "incrementRejectForE",
      "outputs": [],
      "payable": false,
      "stateMutability": "nonpayable",
      "type": "function"
    },
    {
      "constant": false,
      "inputs": [
        {
          "internalType": "uint256",
          "name": "amount",
          "type": "uint256"
        }
      ],
      "name": "incrementTotalBondedE",
      "outputs": [],
      "payable": false,
      "stateMutability": "nonpayable",
      "type": "function"
    },
    {
      "constant": false,
      "inputs": [
        {
          "internalType": "uint256",
          "name": "amount",
          "type": "uint256"
        }
      ],
      "name": "incrementTotalDebtE",
      "outputs": [],
      "payable": false,
      "stateMutability": "nonpayable",
      "type": "function"
    },
    {
      "constant": false,
      "inputs": [
        {
          "internalType": "uint256",
          "name": "amount",
          "type": "uint256"
        }
      ],
      "name": "incrementTotalRedeemableE",
      "outputs": [],
      "payable": false,
      "stateMutability": "nonpayable",
      "type": "function"
    },
    {
      "constant": false,
      "inputs": [
        {
          "internalType": "uint256",
          "name": "epoch",
          "type": "uint256"
        },
        {
          "internalType": "uint256",
          "name": "expiration",
          "type": "uint256"
        }
      ],
      "name": "initializeCouponsExpirationE",
      "outputs": [],
      "payable": false,
      "stateMutability": "nonpayable",
      "type": "function"
    },
    {
      "constant": false,
      "inputs": [
        {
          "internalType": "address",
          "name": "candidate",
          "type": "address"
        }
      ],
      "name": "initializedE",
      "outputs": [],
      "payable": false,
      "stateMutability": "nonpayable",
      "type": "function"
    },
    {
      "constant": false,
      "inputs": [
        {
          "internalType": "uint256",
          "name": "epoch",
          "type": "uint256"
        }
      ],
      "name": "isCouponAuctionInitAtEpochE",
      "outputs": [
        {
          "internalType": "bool",
          "name": "",
          "type": "bool"
        }
      ],
      "payable": false,
      "stateMutability": "nonpayable",
      "type": "function"
    },
    {
      "constant": true,
      "inputs": [
        {
          "internalType": "address",
          "name": "candidate",
          "type": "address"
        }
      ],
      "name": "isInitialized",
      "outputs": [
        {
          "internalType": "bool",
          "name": "",
          "type": "bool"
        }
      ],
      "payable": false,
      "stateMutability": "view",
      "type": "function"
    },
    {
      "constant": true,
      "inputs": [
        {
          "internalType": "address",
          "name": "candidate",
          "type": "address"
        }
      ],
      "name": "isNominated",
      "outputs": [
        {
          "internalType": "bool",
          "name": "",
          "type": "bool"
        }
      ],
      "payable": false,
      "stateMutability": "view",
      "type": "function"
    },
    {
      "constant": true,
      "inputs": [
        {
          "internalType": "address",
          "name": "account",
          "type": "address"
        }
      ],
      "name": "lockedUntil",
      "outputs": [
        {
          "internalType": "uint256",
          "name": "",
          "type": "uint256"
        }
      ],
      "payable": false,
      "stateMutability": "view",
      "type": "function"
    },
    {
      "constant": true,
      "inputs": [],
      "name": "name",
      "outputs": [
        {
          "internalType": "string",
          "name": "",
          "type": "string"
        }
      ],
      "payable": false,
      "stateMutability": "view",
      "type": "function"
    },
    {
      "constant": true,
      "inputs": [],
      "name": "oracle",
      "outputs": [
        {
          "internalType": "contract IOracle",
          "name": "",
          "type": "address"
        }
      ],
      "payable": false,
      "stateMutability": "view",
      "type": "function"
    },
    {
      "constant": true,
      "inputs": [
        {
          "internalType": "uint256",
          "name": "epoch",
          "type": "uint256"
        }
      ],
      "name": "outstandingCoupons",
      "outputs": [
        {
          "internalType": "uint256",
          "name": "",
          "type": "uint256"
        }
      ],
      "payable": false,
      "stateMutability": "view",
      "type": "function"
    },
    {
      "constant": true,
      "inputs": [
        {
          "internalType": "address",
          "name": "candidate",
          "type": "address"
        }
      ],
      "name": "periodFor",
      "outputs": [
        {
          "internalType": "uint256",
          "name": "",
          "type": "uint256"
        }
      ],
      "payable": false,
      "stateMutability": "view",
      "type": "function"
    },
    {
      "constant": false,
      "inputs": [
        {
          "internalType": "address",
          "name": "account",
          "type": "address"
        },
        {
          "internalType": "address",
          "name": "candidate",
          "type": "address"
        }
      ],
      "name": "placeLockE",
      "outputs": [],
      "payable": false,
      "stateMutability": "nonpayable",
      "type": "function"
    },
    {
      "constant": true,
      "inputs": [],
      "name": "pool",
      "outputs": [
        {
          "internalType": "address",
          "name": "",
          "type": "address"
        }
      ],
      "payable": false,
      "stateMutability": "view",
      "type": "function"
    },
    {
      "constant": false,
      "inputs": [
        {
          "internalType": "address",
          "name": "account",
          "type": "address"
        },
        {
          "internalType": "address",
          "name": "candidate",
          "type": "address"
        },
        {
          "internalType": "enum Candidate.Vote",
          "name": "vote",
          "type": "uint8"
        }
      ],
      "name": "recordVoteE",
      "outputs": [],
      "payable": false,
      "stateMutability": "nonpayable",
      "type": "function"
    },
    {
      "constant": true,
      "inputs": [
        {
          "internalType": "address",
          "name": "account",
          "type": "address"
        },
        {
          "internalType": "address",
          "name": "candidate",
          "type": "address"
        }
      ],
      "name": "recordedVote",
      "outputs": [
        {
          "internalType": "enum Candidate.Vote",
          "name": "",
          "type": "uint8"
        }
      ],
      "payable": false,
      "stateMutability": "view",
      "type": "function"
    },
    {
      "constant": true,
      "inputs": [
        {
          "internalType": "address",
          "name": "candidate",
          "type": "address"
        }
      ],
      "name": "rejectFor",
      "outputs": [
        {
          "internalType": "uint256",
          "name": "",
          "type": "uint256"
        }
      ],
      "payable": false,
      "stateMutability": "view",
      "type": "function"
    },
    {
      "constant": false,
      "inputs": [
        {
          "internalType": "uint256",
          "name": "timestamp",
          "type": "uint256"
        }
      ],
      "name": "setBlockTimestamp",
      "outputs": [],
      "payable": false,
      "stateMutability": "nonpayable",
      "type": "function"
    },
    {
      "constant": false,
      "inputs": [
        {
          "internalType": "uint256",
          "name": "start",
          "type": "uint256"
        },
        {
          "internalType": "uint256",
          "name": "period",
          "type": "uint256"
        }
      ],
      "name": "setEpochParamsE",
      "outputs": [],
      "payable": false,
      "stateMutability": "nonpayable",
      "type": "function"
    },
    {
      "constant": false,
      "inputs": [],
      "name": "snapshotTotalBondedE",
      "outputs": [],
      "payable": false,
      "stateMutability": "nonpayable",
      "type": "function"
    },
    {
      "constant": true,
      "inputs": [
        {
          "internalType": "address",
          "name": "candidate",
          "type": "address"
        }
      ],
      "name": "startFor",
      "outputs": [
        {
          "internalType": "uint256",
          "name": "",
          "type": "uint256"
        }
      ],
      "payable": false,
      "stateMutability": "view",
      "type": "function"
    },
    {
      "constant": true,
      "inputs": [
        {
          "internalType": "address",
          "name": "account",
          "type": "address"
        }
      ],
      "name": "statusOf",
      "outputs": [
        {
          "internalType": "enum Account.Status",
          "name": "",
          "type": "uint8"
        }
      ],
      "payable": false,
      "stateMutability": "view",
      "type": "function"
    },
    {
      "constant": true,
      "inputs": [],
      "name": "symbol",
      "outputs": [
        {
          "internalType": "string",
          "name": "",
          "type": "string"
        }
      ],
      "payable": false,
      "stateMutability": "view",
      "type": "function"
    },
    {
      "constant": true,
      "inputs": [],
      "name": "totalBonded",
      "outputs": [
        {
          "internalType": "uint256",
          "name": "",
          "type": "uint256"
        }
      ],
      "payable": false,
      "stateMutability": "view",
      "type": "function"
    },
    {
      "constant": true,
      "inputs": [
        {
          "internalType": "uint256",
          "name": "epoch",
          "type": "uint256"
        }
      ],
      "name": "totalBondedAt",
      "outputs": [
        {
          "internalType": "uint256",
          "name": "",
          "type": "uint256"
        }
      ],
      "payable": false,
      "stateMutability": "view",
      "type": "function"
    },
    {
      "constant": true,
      "inputs": [],
      "name": "totalCoupons",
      "outputs": [
        {
          "internalType": "uint256",
          "name": "",
          "type": "uint256"
        }
      ],
      "payable": false,
      "stateMutability": "view",
      "type": "function"
    },
    {
      "constant": true,
      "inputs": [],
      "name": "totalDebt",
      "outputs": [
        {
          "internalType": "uint256",
          "name": "",
          "type": "uint256"
        }
      ],
      "payable": false,
      "stateMutability": "view",
      "type": "function"
    },
    {
      "constant": true,
      "inputs": [],
      "name": "totalNet",
      "outputs": [
        {
          "internalType": "uint256",
          "name": "",
          "type": "uint256"
        }
      ],
      "payable": false,
      "stateMutability": "view",
      "type": "function"
    },
    {
      "constant": true,
      "inputs": [],
      "name": "totalRedeemable",
      "outputs": [
        {
          "internalType": "uint256",
          "name": "",
          "type": "uint256"
        }
      ],
      "payable": false,
      "stateMutability": "view",
      "type": "function"
    },
    {
      "constant": true,
      "inputs": [],
      "name": "totalStaged",
      "outputs": [
        {
          "internalType": "uint256",
          "name": "",
          "type": "uint256"
        }
      ],
      "payable": false,
      "stateMutability": "view",
      "type": "function"
    },
    {
      "constant": true,
      "inputs": [],
      "name": "totalSupply",
      "outputs": [
        {
          "internalType": "uint256",
          "name": "",
          "type": "uint256"
        }
      ],
      "payable": false,
      "stateMutability": "view",
      "type": "function"
    },
    {
      "constant": false,
      "inputs": [
        {
          "internalType": "address",
          "name": "recipient",
          "type": "address"
        },
        {
          "internalType": "uint256",
          "name": "amount",
          "type": "uint256"
        }
      ],
      "name": "transfer",
      "outputs": [
        {
          "internalType": "bool",
          "name": "",
          "type": "bool"
        }
      ],
      "payable": false,
      "stateMutability": "nonpayable",
      "type": "function"
    },
    {
      "constant": false,
      "inputs": [
        {
          "internalType": "address",
          "name": "sender",
          "type": "address"
        },
        {
          "internalType": "address",
          "name": "recipient",
          "type": "address"
        },
        {
          "internalType": "uint256",
          "name": "amount",
          "type": "uint256"
        }
      ],
      "name": "transferFrom",
      "outputs": [
        {
          "internalType": "bool",
          "name": "",
          "type": "bool"
        }
      ],
      "payable": false,
      "stateMutability": "nonpayable",
      "type": "function"
    },
    {
      "constant": false,
      "inputs": [
        {
          "internalType": "address",
          "name": "account",
          "type": "address"
        }
      ],
      "name": "unfreezeE",
      "outputs": [],
      "payable": false,
      "stateMutability": "nonpayable",
      "type": "function"
    },
    {
      "constant": false,
      "inputs": [
        {
          "internalType": "address",
          "name": "owner",
          "type": "address"
        },
        {
          "internalType": "address",
          "name": "spender",
          "type": "address"
        },
        {
          "internalType": "uint256",
          "name": "amount",
          "type": "uint256"
        }
      ],
      "name": "updateAllowanceCouponsE",
      "outputs": [],
      "payable": false,
      "stateMutability": "nonpayable",
      "type": "function"
    },
    {
      "constant": true,
      "inputs": [
        {
          "internalType": "address",
          "name": "candidate",
          "type": "address"
        }
      ],
      "name": "votesFor",
      "outputs": [
        {
          "internalType": "uint256",
          "name": "",
          "type": "uint256"
        }
      ],
      "payable": false,
      "stateMutability": "view",
      "type": "function"
    },
    {
      "constant": false,
      "inputs": [
        {
          "internalType": "address",
          "name": "account",
          "type": "address"
        },
        {
          "internalType": "uint256",
          "name": "amount",
          "type": "uint256"
        }
      ],
      "name": "mintToAccountE",
      "outputs": [],
      "payable": false,
      "stateMutability": "nonpayable",
      "type": "function"
    },
    {
      "constant": false,
      "inputs": [
        {
          "internalType": "address",
          "name": "account",
          "type": "address"
        },
        {
          "internalType": "uint256",
          "name": "amount",
          "type": "uint256"
        }
      ],
      "name": "burnFromAccountE",
      "outputs": [],
      "payable": false,
      "stateMutability": "nonpayable",
      "type": "function"
    },
    {
      "constant": false,
      "inputs": [
        {
          "internalType": "address",
          "name": "account",
          "type": "address"
        },
        {
          "internalType": "uint256",
          "name": "amount",
          "type": "uint256"
        }
      ],
      "name": "redeemToAccountE",
      "outputs": [],
      "payable": false,
      "stateMutability": "nonpayable",
      "type": "function"
    },
    {
      "constant": false,
      "inputs": [
        {
          "internalType": "uint256",
          "name": "amount",
          "type": "uint256"
        }
      ],
      "name": "burnRedeemableE",
      "outputs": [],
      "payable": false,
      "stateMutability": "nonpayable",
      "type": "function"
    },
    {
      "constant": false,
      "inputs": [
        {
          "internalType": "uint256",
          "name": "amount",
          "type": "uint256"
        }
      ],
      "name": "increaseDebtE",
      "outputs": [],
      "payable": false,
      "stateMutability": "nonpayable",
      "type": "function"
    },
    {
      "constant": false,
      "inputs": [
        {
          "internalType": "uint256",
          "name": "amount",
          "type": "uint256"
        }
      ],
      "name": "decreaseDebtE",
      "outputs": [],
      "payable": false,
      "stateMutability": "nonpayable",
      "type": "function"
    },
    {
      "constant": false,
      "inputs": [
        {
          "internalType": "uint256",
          "name": "percent",
          "type": "uint256"
        }
      ],
      "name": "resetDebtE",
      "outputs": [],
      "payable": false,
      "stateMutability": "nonpayable",
      "type": "function"
    },
    {
      "constant": false,
      "inputs": [
        {
          "internalType": "address",
          "name": "account",
          "type": "address"
        },
        {
          "internalType": "uint256",
          "name": "amount",
          "type": "uint256"
        }
      ],
      "name": "mintToE",
      "outputs": [],
      "payable": false,
      "stateMutability": "nonpayable",
      "type": "function"
    }
  ],
  "bytecode": "0x60806040523480156200001157600080fd5b50604051620049a5380380620049a58339810160408190526200003491620000ba565b42601055604051620000469062000099565b604051809103906000f08015801562000063573d6000803e3d6000fd5b50600a80546001600160a01b039283166001600160a01b031991821617909155600c80549390921692169190911790556200010f565b611c068062002d9f83390190565b8051620000b481620000f5565b92915050565b600060208284031215620000cd57600080fd5b6000620000db8484620000a7565b949350505050565b60006001600160a01b038216620000b4565b6200010081620000e3565b81146200010c57600080fd5b50565b612c80806200011f6000396000f3fe608060405234801561001057600080fd5b50600436106104f95760003560e01c80638413e52a11610299578063b32a2f9011610167578063d60b347f116100d9578063eeaca09b11610092578063eeaca09b14610ae0578063f1b7cf4914610af3578063f35adf7e14610b06578063f7a3181814610b0e578063fc7b9c1814610b21578063ffbe3b7314610b29576104f9565b8063d60b347f14610a73578063d6d8816d14610a86578063d83d3ed514610a99578063dd62ed3e14610aac578063dde74dc314610aba578063e0abdf6614610acd576104f9565b8063c45a3e0a1161012b578063c45a3e0a14610a0c578063c9aff70c14610a1f578063cb0fbc7114610a32578063cc8d823c14610a45578063cf02377914610a58578063d53c6f5f14610a60576104f9565b8063b32a2f90146109ad578063bc7513e2146109c0578063c1410c02146109d3578063c2aeb5fe146109e6578063c34eee65146109f9576104f9565b80639f1a09291161020b578063a9059cbb116101c4578063a9059cbb1461051c578063a9b3cf151461094e578063adbff2be14610961578063ae5c238114610974578063b11ee0e314610987578063b16144a31461099a576104f9565b80639f1a0929146108e75780639f6e1b26146108fa578063a00e14d11461090d578063a50cd8e714610920578063a6c409f114610933578063a6f37b531461093b576104f9565b806395d89b411161025d57806395d89b411461088b57806397a5d5b5146108935780639a649edc146108a65780639b82b49b146108ae5780639bc289f1146108c15780639be46493146108d4576104f9565b80638413e52a1461084257806386cf9f14146108555780638de2e573146108685780638e8253881461087b578063900cf0cf14610883576104f9565b80633fbba9a6116103d65780635f14fec81161034857806372924d2a1161030157806372924d2a146107db57806375d5024b146107ee5780637cb95a32146108015780637d8bb869146108145780637dc0d1d014610827578063825ad6071461082f576104f9565b80635f14fec81461077457806364668022146107875780636a39e3281461079a5780636b862d66146107ad57806370a08231146107c057806371c511eb146107d3576104f9565b80635053e4611161039a5780635053e4611461071657806351adeb571461071e57806351bf21d814610733578063520acb76146107465780635c60da1b146107595780635dbf800a14610761576104f9565b80633fbba9a6146106b55780633fd4973c146106d557806343873526146106e857806344d96e95146106fb5780634c73609914610703576104f9565b806320f6bc901161046f578063313ce56711610433578063313ce567146106415780633234742214610656578063353a420c146106695780633a3e6c811461067c5780633dc905c71461068f5780633f7bcaf3146106a2576104f9565b806320f6bc90146105e257806323b872dd146105f5578063259f7adf14610608578063277805a91461061b5780632d7f23b31461062e576104f9565b806315e14bf6116104c157806315e14bf61461058457806316f0115b1461059757806318160ddd146105ac5780631a08e22a146105b45780631edbcf6c146105c75780631fac9732146105cf576104f9565b806306fdde03146104fe578063095ea7b31461051c5780630dc6d3a31461053c57806310e95b6c146105515780631550ec2414610571575b600080fd5b610506610b3c565b6040516105139190612acc565b60405180910390f35b61052f61052a366004612701565b610b73565b6040516105139190612aa2565b61054f61054a366004612683565b610b7c565b005b61056461055f36600461281e565b610bc5565b6040516105139190612afd565b61052f61057f36600461281e565b610bdd565b61056461059236600461259b565b610bf7565b61059f610c15565b6040516105139190612a51565b610564610c24565b61054f6105c23660046128b0565b610c2a565b610564610c38565b61054f6105dd36600461281e565b610c3e565b61054f6105f0366004612701565b610c4a565b61052f610603366004612640565b610c54565b61054f61061636600461281e565b610c5e565b61054f610629366004612701565b610c67565b61056461063c36600461281e565b610cf3565b610649610d08565b6040516105139190612b0b565b61054f61066436600461285a565b610d0d565b61056461067736600461259b565b610d4d565b61052f61068a36600461259b565b610d6b565b61056461069d36600461281e565b610d88565b61054f6106b0366004612640565b610d9e565b6106c86106c33660046125b9565b610da9565b6040516105139190612abe565b61054f6106e3366004612731565b610ddc565b61054f6106f636600461281e565b610e23565b610564610e2c565b6105646107113660046128b0565b610e32565b610564610e62565b610726610e85565b6040516105139190612ab0565b61056461074136600461259b565b610e94565b61056461075436600461281e565b610eb2565b61059f610ec7565b61054f61076f36600461281e565b610eec565b61054f610782366004612701565b610ef5565b61056461079536600461259b565b610eff565b6105646107a836600461281e565b610f1d565b61054f6107bb366004612799565b610f32565b6105646107ce36600461259b565b610f3d565b61054f610f5b565b61054f6107e936600461285a565b610f65565b61052f6107fc36600461281e565b610fa5565b61054f61080f366004612731565b610fb8565b61056461082236600461281e565b610ff9565b61072661100e565b61056461083d36600461259b565b61101d565b61054f6108503660046125f3565b611069565b61056461086336600461259b565b611074565b61054f61087636600461281e565b61108f565b610564611098565b61056461109e565b6105066110a4565b6106c86108a136600461259b565b6110c2565b610564611127565b61054f6108bc36600461285a565b61112d565b6105646108cf36600461259b565b61116d565b61054f6108e236600461259b565b61118b565b6105646108f536600461281e565b611194565b6105646109083660046125b9565b6111a9565b61054f61091b3660046128b0565b6111d8565b61056461092e36600461259b565b6111e3565b610564611206565b61054f61094936600461259b565b61129c565b61054f61095c36600461281e565b6112a5565b61054f61096f366004612731565b6112ae565b61054f610982366004612701565b6112ef565b61054f610995366004612701565b6112f9565b61054f6109a836600461281e565b611303565b61054f6109bb366004612731565b611316565b6105646109ce366004612701565b611357565b61054f6109e13660046125b9565b61139b565b61054f6109f43660046127cb565b6113a5565b610564610a0736600461281e565b6113e7565b61054f610a1a366004612701565b6113fc565b610564610a2d36600461281e565b611406565b610564610a4036600461281e565b61141b565b61054f610a53366004612701565b611430565b61056461143a565b610564610a6e36600461281e565b611440565b61052f610a8136600461259b565b611455565b61054f610a9436600461281e565b611476565b61054f610aa7366004612701565b61147f565b61056461052a3660046125b9565b610564610ac836600461281e565b611489565b61054f610adb36600461281e565b61149e565b610564610aee36600461281e565b6114a3565b610564610b0136600461259b565b6114b8565b61054f6114d3565b61054f610b1c366004612701565b6114db565b6105646114e5565b610564610b3736600461281e565b6114eb565b60408051808201909152601881527f44796e616d69632053657420446f6c6c6172205374616b650000000000000000602082015290565b60005b92915050565b610bbe85858585858080601f0160208091040260200160405190810160405280939291908181526020018383808284376000920191909152506114fd92505050565b5050505050565b6000818152600e60205260409020600201545b919050565b6000610be88261156e565b54610100900460ff1692915050565b6001600160a01b03166000908152600f602052604090206001015490565b600c546001600160a01b031690565b60045490565b610c348282611582565b5050565b60075490565b610c47816115b4565b50565b610c3482826115fb565b60005b9392505050565b610c47816116a3565b610c6f610e85565b6001600160a01b03166340c10f1983836040518363ffffffff1660e01b8152600401610c9c929190612a87565b602060405180830381600087803b158015610cb657600080fd5b505af1158015610cca573d6000803e3d6000fd5b505050506040513d601f19601f82011682018060405250610cee9190810190612800565b505050565b6000908152600e60205260409020600a015490565b601290565b610cee8383838080601f0160208091040260200160405190810160405280939291908181526020018383808284376000920191909152506116bc92505050565b6001600160a01b03166000908152600f602052604090206003015490565b6001600160a01b03166000908152600f6020526040902054151590565b6000908152600e60208190526040909120015490565b610cee8383836116d7565b6001600160a01b038082166000908152600f60209081526040808320938616835260049093019052205460ff1692915050565b610e1d848484848080601f01602080910402602001604051908101604052809392919081815260200183838082843760009201919091525061170792505050565b50505050565b610c4781611758565b60055490565b6000828152600e60205260408120600301805483908110610e4f57fe5b9060005260206000200154905092915050565b6000610e6c6124e7565b610e7461176c565b9050610e7f8161179b565b91505090565b600a546001600160a01b031690565b6001600160a01b03166000908152600d602052604090206004015490565b6000908152600e602052604090206010015490565b7f360894a13ba1a3210667c828492db98dca3e2076cc3735a920a3ca505d382bbc5490565b610c47816117bd565b610c348282611844565b6001600160a01b03166000908152600f602052604090206002015490565b6000908152600e602052604090206003015490565b610cee838383611955565b6001600160a01b03166000908152600d602052604090206001015490565b610f636119fc565b565b610cee8383838080601f016020809104026020016040519081016040528093929190818152602001838380828437600092019190915250611a2392505050565b6000610faf611a3e565b90911115919050565b610e1d848484848080601f016020809104026020016040519081016040528093929190818152602001838380828437600092019190915250611a4392505050565b6000908152600e602052604090206012015490565b600b546001600160a01b031690565b600080611028610c24565b905080611039576000915050610bd8565b610c578161105d61104986610f3d565b611051610e2c565b9063ffffffff611a9416565b9063ffffffff611ad716565b610cee838383611b19565b6001600160a01b03166000908152600d602052604090205490565b610c4781611b63565b60035490565b60025490565b6040805180820190915260048152634453445360e01b602082015290565b60006110cc61109e565b6001600160a01b0383166000908152600d602052604090206005015411156110f657506002610bd8565b6001600160a01b0382166000908152600d602052604090206004015461111a61109e565b1015610b73576001610b76565b60095490565b610cee8383838080601f016020809104026020016040519081016040528093929190818152602001838380828437600092019190915250611b7c92505050565b6001600160a01b03166000908152600d602052604090206005015490565b610c4781611b97565b6000908152600e60205260409020600d015490565b6001600160a01b039182166000908152600d602090815260408083209390941682526003909201909152205490565b600091909155600155565b6000610b766111f183610d4d565b6111fa84610eff565b9063ffffffff611bc916565b60006112976112136114e5565b61121b610e85565b6001600160a01b03166318160ddd6040518163ffffffff1660e01b815260040160206040518083038186803b15801561125357600080fd5b505afa158015611267573d6000803e3d6000fd5b505050506040513d601f19601f8201168201806040525061128b919081019061283c565b9063ffffffff611bee16565b905090565b610c4781611c30565b610c4781611c57565b610e1d848484848080601f016020809104026020016040519081016040528093929190818152602001838380828437600092019190915250611c9a92505050565b610c348282611d45565b610c348282611ded565b610c47611311826064611e49565b611e78565b610e1d848484848080601f016020809104026020016040519081016040528093929190818152602001838380828437600092019190915250611f3d92505050565b600061136282611406565b61136e57506000610b76565b506001600160a01b03919091166000908152600d6020908152604080832093835260029093019052205490565b610c348282611f9c565b610bbe85858585858080601f016020809104026020016040519081016040528093929190818152602001838380828437600092019190915250611ffc92505050565b6000908152600e602052604090206011015490565b610c3482826120a7565b6000908152600e602052604090206001015490565b6000908152600e602052604090206013015490565b610c348282612151565b60065490565b6000908152600e60205260409020600f015490565b6001600160a01b03166000908152600f602052604090206005015460ff1690565b610c47816121a0565b610c3482826121b9565b6000908152600e60205260409020600c015490565b601055565b6000908152600e60205260409020600b015490565b6001600160a01b03166000908152600f602052604090205490565b610f636121e5565b610c3482826121fe565b60085490565b6000908152600e602052604090205490565b6001600160a01b038085166000908152600d60209081526040808320938716835260039093019052205461153890838363ffffffff61224d16565b6001600160a01b039485166000908152600d60209081526040808320969097168252600390950190945293909220929092555050565b6000908152600e6020526040902060040190565b6000828152600e6020908152604080832060020184905592825291812060030180546001810182559082529190200155565b6115f3816040518060400160405280601c81526020017f436f6d7074726f6c6c65723a206e6f7420656e6f756768206465627400000000815250611a23565b610c47612279565b611603610e85565b6001600160a01b03166340c10f1983836040518363ffffffff1660e01b8152600401611630929190612a87565b602060405180830381600087803b15801561164a57600080fd5b505af115801561165e573d6000803e3d6000fd5b505050506040513d601f19601f820116820180604052506116829190810190612800565b5061168e6107fc61109e565b61169b5761169b81611758565b610c34612279565b6005546116b6908263ffffffff611bc916565b60055550565b6007546116d090838363ffffffff61224d16565b6007555050565b6001600160a01b039283166000908152600d60209081526040808320949095168252600390930190925291902055565b6001600160a01b0383166000908152600f602052604090206003015461173490838363ffffffff61224d16565b6001600160a01b039093166000908152600f60205260409020600301929092555050565b61176181611b63565b6115f361131161234c565b6117746124e7565b604051806060016040528060008152602001635fbef0008152602001611c20815250905090565b6000610b7682600001516111fa846040015161105d866020015161128b61236e565b6117c5610e85565b6001600160a01b03166342966c68826040518263ffffffff1660e01b81526004016117f09190612afd565b600060405180830381600087803b15801561180a57600080fd5b505af115801561181e573d6000803e3d6000fd5b505050506115f3816040518060600160405280602a8152602001612c14602a91396116bc565b61184c610e85565b6001600160a01b03166323b872dd8330846040518463ffffffff1660e01b815260040161187b93929190612a5f565b602060405180830381600087803b15801561189557600080fd5b505af11580156118a9573d6000803e3d6000fd5b505050506040513d601f19601f820116820180604052506118cd9190810190612800565b506118d6610e85565b6001600160a01b03166342966c68826040518263ffffffff1660e01b81526004016119019190612afd565b600060405180830381600087803b15801561191b57600080fd5b505af115801561192f573d6000803e3d6000fd5b5050505061169b81604051806060016040528060288152602001612bec60289139611a23565b6001600160a01b0383166000908152600d6020908152604080832085845260020190915290205461198c908263ffffffff611bc916565b6001600160a01b0384166000908152600d60209081526040808320868452600201825280832093909355600e905220600101546119cf908263ffffffff611bc916565b6000838152600e60205260409020600101556009546119f4908263ffffffff611bc916565b600955505050565b611a04610c24565b600e6000611a1061109e565b8152602081019190915260400160002055565b600854611a3790838363ffffffff61224d16565b6008555050565b609690565b6001600160a01b0383166000908152600f6020526040902060020154611a7090838363ffffffff61224d16565b6001600160a01b039093166000908152600f60205260409020600201929092555050565b600082611aa357506000610b76565b82820282848281611ab057fe5b0414610c575760405162461bcd60e51b8152600401611ace90612aed565b60405180910390fd5b6000610c5783836040518060400160405280601a81526020017f536166654d6174683a206469766973696f6e206279207a65726f000000000000815250612374565b6001600160a01b038083166000908152600f6020908152604080832093871683526004909301905220805482919060ff19166001836002811115611b5957fe5b0217905550505050565b600854611b76908263ffffffff611bc916565b60085550565b600554611b9090838363ffffffff61224d16565b6005555050565b611baa611ba26123ab565b6111fa61109e565b6001600160a01b039091166000908152600d6020526040902060040155565b600082820183811015610c575760405162461bcd60e51b8152600401611ace90612add565b6000610c5783836040518060400160405280601e81526020017f536166654d6174683a207375627472616374696f6e206f766572666c6f77000081525061224d565b6001600160a01b03166000908152600f60205260409020600501805460ff19166001179055565b6000611c6282611406565b905080611c6f5750610c47565b600954611c82908263ffffffff611bee16565b600955506000908152600e6020526040812060010155565b6001600160a01b0383166000908152600d6020526040902060010154611cc790838363ffffffff61224d16565b6001600160a01b0384166000908152600d6020526040902060010155600454611cf790838363ffffffff61224d16565b6004556040516000906001600160a01b038516907fddf252ad1be2c89b69c2b068fc378daa952ba7f163c4a11628f55a4df523b3ef90611d38908690612afd565b60405180910390a3505050565b6001600160a01b0382166000908152600d6020526040902060010154611d71908263ffffffff611bc916565b6001600160a01b0383166000908152600d6020526040902060010155600454611da0908263ffffffff611bc916565b6004556040516001600160a01b038316906000907fddf252ad1be2c89b69c2b068fc378daa952ba7f163c4a11628f55a4df523b3ef90611de1908590612afd565b60405180910390a35050565b6001600160a01b0382166000908152600d6020526040902054611e16908263ffffffff611bc916565b6001600160a01b0383166000908152600d6020526040902055600654611e42908263ffffffff611bc916565b6006555050565b611e51612508565b6040518060200160405280611e6f85670de0b6b3a7640000866123b0565b90529392505050565b6000611f0a611f05611e88610e85565b6001600160a01b03166318160ddd6040518163ffffffff1660e01b815260040160206040518083038186803b158015611ec057600080fd5b505afa158015611ed4573d6000803e3d6000fd5b505050506040513d601f19601f82011682018060405250611ef8919081019061283c565b849063ffffffff6123ce16565b6123f5565b90506000611f166114e5565b905081811115610cee576000611f32828463ffffffff611bee16565b9050610e1d816115b4565b6001600160a01b0383166000908152600d6020526040902054611f6790838363ffffffff61224d16565b6001600160a01b0384166000908152600d6020526040902055600654611f9490838363ffffffff61224d16565b600655505050565b6001600160a01b0382166000908152600d602052604081206005015490611fce611fc584610bf7565b6111fa856114b8565b905081811115610e1d576001600160a01b0384166000908152600d6020526040902060050181905550505050565b6001600160a01b0384166000908152600d6020908152604080832086845260020190915290205461203490838363ffffffff61224d16565b6001600160a01b0385166000908152600d60209081526040808320878452600201825280832093909355600e9052206001015461207890838363ffffffff61224d16565b6000848152600e602052604090206001015560095461209e90838363ffffffff61224d16565b60095550505050565b6120af610e85565b6001600160a01b031663a9059cbb83836040518363ffffffff1660e01b81526004016120dc929190612a87565b602060405180830381600087803b1580156120f657600080fd5b505af115801561210a573d6000803e3d6000fd5b505050506040513d601f19601f8201168201806040525061212e9190810190612800565b5061169b816040518060600160405280602a8152602001612c14602a91396116bc565b6001600160a01b0382166000908152600f602052604090206003015461217d908263ffffffff611bc916565b6001600160a01b039092166000908152600f602052604090206003019190915550565b6007546121b3908263ffffffff611bc916565b60075550565b6121c161109e565b6001600160a01b039092166000908152600f60205260409020918255600190910155565b6002546121f990600163ffffffff611bc916565b600255565b6001600160a01b0382166000908152600f602052604090206002015461222a908263ffffffff611bc916565b6001600160a01b039092166000908152600f602052604090206002019190915550565b600081848411156122715760405162461bcd60e51b8152600401611ace9190612acc565b505050900390565b610f6361229a612287610c38565b6111fa61229261143a565b6111fa610e2c565b6122a2610e85565b6001600160a01b03166370a08231306040518263ffffffff1660e01b81526004016122cd9190612a51565b60206040518083038186803b1580156122e557600080fd5b505afa1580156122f9573d6000803e3d6000fd5b505050506040513d601f19601f8201168201806040525061231d919081019061283c565b10156a21b7b6b83a3937b63632b960a91b74496e636f6e73697374656e742062616c616e63657360581b612412565b612354612508565b5060408051602081019091526704db732547630000815290565b60105490565b600081836123955760405162461bcd60e51b8152600401611ace9190612acc565b5060008385816123a157fe5b0495945050505050565b602490565b60006123c68261105d868663ffffffff611a9416565b949350505050565b6123d6612508565b604080516020810190915283518190611e6f908563ffffffff611a9416565b8051600090610b7690670de0b6b3a764000063ffffffff611ad716565b82610cee5761242082612467565b6101d160f51b61242f83612467565b60405160200161244193929190612a20565b60408051601f198184030181529082905262461bcd60e51b8252611ace91600401612acc565b6060808260405160200161247b9190612a0b565b60408051601f19818403018152919052905060205b80156124d0578151600019909101908290829081106124ab57fe5b01602001516001600160f81b031916156124cb5760010181529050610bd8565b612490565b505060408051600081526020810190915292915050565b60405180606001604052806000815260200160008152602001600081525090565b6040518060200160405280600081525090565b8035610b7681612bb8565b8051610b7681612bcc565b8035610b7681612bd5565b60008083601f84011261254e57600080fd5b50813567ffffffffffffffff81111561256657600080fd5b60208301915083600182028301111561257e57600080fd5b9250929050565b8035610b7681612be2565b8051610b7681612be2565b6000602082840312156125ad57600080fd5b60006123c6848461251b565b600080604083850312156125cc57600080fd5b60006125d8858561251b565b92505060206125e98582860161251b565b9150509250929050565b60008060006060848603121561260857600080fd5b6000612614868661251b565b93505060206126258682870161251b565b925050604061263686828701612531565b9150509250925092565b60008060006060848603121561265557600080fd5b6000612661868661251b565b93505060206126728682870161251b565b925050604061263686828701612585565b60008060008060006080868803121561269b57600080fd5b60006126a7888861251b565b95505060206126b88882890161251b565b94505060406126c988828901612585565b935050606086013567ffffffffffffffff8111156126e657600080fd5b6126f28882890161253c565b92509250509295509295909350565b6000806040838503121561271457600080fd5b6000612720858561251b565b92505060206125e985828601612585565b6000806000806060858703121561274757600080fd5b6000612753878761251b565b945050602061276487828801612585565b935050604085013567ffffffffffffffff81111561278157600080fd5b61278d8782880161253c565b95989497509550505050565b6000806000606084860312156127ae57600080fd5b60006127ba868661251b565b935050602061267286828701612585565b6000806000806000608086880312156127e357600080fd5b60006127ef888861251b565b95505060206126b888828901612585565b60006020828403121561281257600080fd5b60006123c68484612526565b60006020828403121561283057600080fd5b60006123c68484612585565b60006020828403121561284e57600080fd5b60006123c68484612590565b60008060006040848603121561286f57600080fd5b600061287b8686612585565b935050602084013567ffffffffffffffff81111561289857600080fd5b6128a48682870161253c565b92509250509250925092565b600080604083850312156128c357600080fd5b60006127208585612585565b6128d881612b26565b82525050565b6128d881612b31565b6128d86128f382612b36565b612b43565b6128d86128f382612b43565b600061290f82612b19565b6129198185610bd8565b9350612929818560208601612b78565b9290920192915050565b6128d881612b62565b6128d881612b6d565b600061295082612b19565b61295a8185612b1d565b935061296a818560208601612b78565b61297381612ba4565b9093019392505050565b600061298a601b83612b1d565b7f536166654d6174683a206164646974696f6e206f766572666c6f770000000000815260200192915050565b60006129c3602183612b1d565b7f536166654d6174683a206d756c7469706c69636174696f6e206f766572666c6f8152607760f81b602082015260400192915050565b6128d881612b43565b6128d881612b5c565b6000612a1782846128f8565b50602001919050565b6000612a2c8286612904565b9150612a3882856128e7565b600282019150612a488284612904565b95945050505050565b60208101610b7682846128cf565b60608101612a6d82866128cf565b612a7a60208301856128cf565b6123c660408301846129f9565b60408101612a9582856128cf565b610c5760208301846129f9565b60208101610b7682846128de565b60208101610b768284612933565b60208101610b76828461293c565b60208082528101610c578184612945565b60208082528101610b768161297d565b60208082528101610b76816129b6565b60208101610b7682846129f9565b60208101610b768284612a02565b5190565b90815260200190565b6000610b7682612b50565b151590565b6001600160f01b03191690565b90565b80610bd881612bae565b6001600160a01b031690565b60ff1690565b6000610b7682612b26565b6000610b7682612b46565b60005b83811015612b93578181015183820152602001612b7b565b83811115610e1d5750506000910152565b601f01601f191690565b60038110610c4757fe5b612bc181612b26565b8114610c4757600080fd5b612bc181612b31565b60038110610c4757600080fd5b612bc181612b4356fe436f6d7074726f6c6c65723a206e6f7420656e6f756768206f75747374616e64696e672064656274436f6d7074726f6c6c65723a206e6f7420656e6f7567682072656465656d61626c652062616c616e6365a365627a7a72315820fcf14248cc80091b205eb4ef4280db81398201102b821d880266e6a6e99cace46c6578706572696d656e74616cf564736f6c6343000511004060806040523480156200001157600080fd5b5060405180604001604052806012815260200171223cb730b6b4b19029b2ba102237b63630b960711b815250604051806040016040528060038152602001621114d160ea1b81525060126200007e6200006f6200011960201b60201c565b6001600160e01b036200011e16565b82516200009390600190602086019062000313565b508151620000a990600290602085019062000313565b506003805460ff191660ff9290921691909117905550620001109050620000cf62000170565b604051806040016040528060018152602001603160f81b815250620000fe6200020960201b620016341760201c565b306200020e60201b620016391760201c565b60075562000469565b335b90565b620001398160006200026560201b62000d7e1790919060201c565b6040516001600160a01b038216907f6ae172837ea30b801fbfcdd4108aa1d5bf8ff775444fd70256b44e6bf3dfc3f690600090a250565b60018054604080516020601f60026000196101008789161502019095169490940493840181900481028201810190925282815260609390929091830182828015620001ff5780601f10620001d357610100808354040283529160200191620001ff565b820191906000526020600020905b815481529060010190602001808311620001e157829003601f168201915b5050505050905090565b600190565b8351602094850120835193850193909320604080517f8b73c3c69bb8fe3d512ecc4cf759cc79239f7b179b0ffacaa9a75d522b39400f815295860194909452928401929092526060830152608082015260a0902090565b6200027a82826001600160e01b03620002c816565b15620002a35760405162461bcd60e51b81526004016200029a9062000436565b60405180910390fd5b6001600160a01b0316600090815260209190915260409020805460ff19166001179055565b60006001600160a01b038216620002f35760405162461bcd60e51b81526004016200029a906200044e565b506001600160a01b03166000908152602091909152604090205460ff1690565b828054600181600116156101000203166002900490600052602060002090601f016020900481019282601f106200035657805160ff191683800117855562000386565b8280016001018555821562000386579182015b828111156200038657825182559160200191906001019062000369565b506200039492915062000398565b5090565b6200011b91905b808211156200039457600081556001016200039f565b6000620003c4601f8362000460565b7f526f6c65733a206163636f756e7420616c72656164792068617320726f6c6500815260200192915050565b6000620003ff60228362000460565b7f526f6c65733a206163636f756e7420697320746865207a65726f206164647265815261737360f01b602082015260400192915050565b602080825281016200044881620003b5565b92915050565b602080825281016200044881620003f0565b90815260200190565b61178d80620004796000396000f3fe608060405234801561001057600080fd5b506004361061012c5760003560e01c806395d89b41116100ad578063aa271e1a11610071578063aa271e1a14610256578063d505accf14610269578063dab400f31461027c578063dd62ed3e14610284578063e879c19f146102975761012c565b806395d89b411461020d578063983b2d56146102155780639865027514610228578063a457c2d714610230578063a9059cbb146102435761012c565b806339509351116100f457806339509351146101ac57806340c10f19146101bf57806342966c68146101d257806370a08231146101e757806379cc6790146101fa5761012c565b806306fdde0314610131578063095ea7b31461014f57806318160ddd1461016f57806323b872dd14610184578063313ce56714610197575b600080fd5b61013961029f565b60405161014691906114c6565b60405180910390f35b61016261015d366004610ffc565b610334565b604051610146919061141b565b610177610352565b6040516101469190611429565b610162610192366004610f13565b610358565b61019f6103ca565b6040516101469190611587565b6101626101ba366004610ffc565b6103d3565b6101626101cd366004610ffc565b610427565b6101e56101e036600461102c565b610463565b005b6101776101f5366004610eb3565b610477565b6101e5610208366004610ffc565b610496565b6101396104a4565b6101e5610223366004610eb3565b610502565b6101e5610532565b61016261023e366004610ffc565b610544565b610162610251366004610ffc565b6105b2565b610162610264366004610eb3565b6105c6565b6101e5610277366004610f60565b6105d8565b61017761075f565b610177610292366004610ed9565b610765565b610177610790565b60018054604080516020601f6002600019610100878916150201909516949094049384018190048102820181019092528281526060939092909183018282801561032a5780601f106102ff5761010080835404028352916020019161032a565b820191906000526020600020905b81548152906001019060200180831161030d57829003601f168201915b5050505050905090565b60006103486103416107b4565b84846107b8565b5060015b92915050565b60065490565b600061036584848461086c565b600019610374856102926107b4565b146103c0576103c0846103856107b4565b6103bb856040518060600160405280602981526020016116fd602991396103ae8a6102926107b4565b919063ffffffff61098216565b6107b8565b5060019392505050565b60035460ff1690565b60006103486103e06107b4565b846103bb85600560006103f16107b4565b6001600160a01b03908116825260208083019390935260409182016000908120918c16815292529020549063ffffffff6109ae16565b60006104346102646107b4565b6104595760405162461bcd60e51b815260040161045090611517565b60405180910390fd5b61034883836109da565b61047461046e6107b4565b82610a9a565b50565b6001600160a01b0381166000908152600460205260409020545b919050565b6104a08282610b70565b5050565b60028054604080516020601f600019610100600187161502019094168590049384018190048102820181019092528281526060939092909183018282801561032a5780601f106102ff5761010080835404028352916020019161032a565b61050d6102646107b4565b6105295760405162461bcd60e51b815260040161045090611517565b61047481610beb565b61054261053d6107b4565b610c33565b565b60006103486105516107b4565b846103bb85604051806060016040528060258152602001611726602591396005600061057b6107b4565b6001600160a01b03908116825260208083019390935260409182016000908120918d1681529252902054919063ffffffff61098216565b60006103486105bf6107b4565b848461086c565b600061034c818363ffffffff610c7b16565b6007546001600160a01b03881660009081526008602090815260408083208054600181019091559051929361065a93909261063f927f6e71edae12b1b97f4d1f60370fef10105fa2faae0126114a169c64845d6126c9928e928e928e9290918e9101611437565b60405160208183030381529060405280519060200120610cc3565b90506000600182868686604051600081526020016040526040516106819493929190611491565b6020604051602081039080840390855afa1580156106a3573d6000803e3d6000fd5b5050506020604051035190506106f0896001600160a01b0316826001600160a01b0316146a5065726d69747461626c6560a81b70496e76616c6964207369676e617475726560781b610ce2565b6107236001600160a01b03821615156a5065726d69747461626c6560a81b6b5a65726f206164647265737360a01b610ce2565b610749864211156a5065726d69747461626c6560a81b66115e1c1a5c995960ca1b610ce2565b6107548989896107b8565b505050505050505050565b60075481565b6001600160a01b03918216600090815260056020908152604080832093909416825291909152205490565b7f6e71edae12b1b97f4d1f60370fef10105fa2faae0126114a169c64845d6126c981565b3390565b6001600160a01b0383166107de5760405162461bcd60e51b815260040161045090611567565b6001600160a01b0382166108045760405162461bcd60e51b8152600401610450906114f7565b6001600160a01b0380841660008181526005602090815260408083209487168084529490915290819020849055517f8c5be1e5ebec7d5bd14f71427d1e84f3dd0314c0f7b2291e5b200ac8c7c3b9259061085f908590611429565b60405180910390a3505050565b6001600160a01b0383166108925760405162461bcd60e51b815260040161045090611557565b6001600160a01b0382166108b85760405162461bcd60e51b8152600401610450906114d7565b6108fb816040518060600160405280602681526020016116b3602691396001600160a01b038616600090815260046020526040902054919063ffffffff61098216565b6001600160a01b038085166000908152600460205260408082209390935590841681522054610930908263ffffffff6109ae16565b6001600160a01b0380841660008181526004602052604090819020939093559151908516907fddf252ad1be2c89b69c2b068fc378daa952ba7f163c4a11628f55a4df523b3ef9061085f908590611429565b600081848411156109a65760405162461bcd60e51b815260040161045091906114c6565b505050900390565b6000828201838110156109d35760405162461bcd60e51b815260040161045090611507565b9392505050565b6001600160a01b038216610a005760405162461bcd60e51b815260040161045090611577565b600654610a13908263ffffffff6109ae16565b6006556001600160a01b038216600090815260046020526040902054610a3f908263ffffffff6109ae16565b6001600160a01b0383166000818152600460205260408082209390935591519091907fddf252ad1be2c89b69c2b068fc378daa952ba7f163c4a11628f55a4df523b3ef90610a8e908590611429565b60405180910390a35050565b6001600160a01b038216610ac05760405162461bcd60e51b815260040161045090611547565b610b0381604051806060016040528060228152602001611691602291396001600160a01b038516600090815260046020526040902054919063ffffffff61098216565b6001600160a01b038316600090815260046020526040902055600654610b2f908263ffffffff610d3c16565b6006556040516000906001600160a01b038416907fddf252ad1be2c89b69c2b068fc378daa952ba7f163c4a11628f55a4df523b3ef90610a8e908590611429565b610b7a8282610a9a565b6104a082610b866107b4565b6103bb846040518060600160405280602481526020016116d9602491396001600160a01b038816600090815260056020526040812090610bc46107b4565b6001600160a01b03168152602081019190915260400160002054919063ffffffff61098216565b610bfc60008263ffffffff610d7e16565b6040516001600160a01b038216907f6ae172837ea30b801fbfcdd4108aa1d5bf8ff775444fd70256b44e6bf3dfc3f690600090a250565b610c4460008263ffffffff610dca16565b6040516001600160a01b038216907fe94479a9f7e1952cc78f2d6baab678adc1b772d936c6583def489e524cb6669290600090a250565b60006001600160a01b038216610ca35760405162461bcd60e51b815260040161045090611537565b506001600160a01b03166000908152602091909152604090205460ff1690565b60405161190160f01b8152600281019290925260228201526042902090565b82610d3757610cf082610e12565b6101d160f51b610cff83610e12565b604051602001610d11939291906113ea565b60408051601f198184030181529082905262461bcd60e51b8252610450916004016114c6565b505050565b60006109d383836040518060400160405280601e81526020017f536166654d6174683a207375627472616374696f6e206f766572666c6f770000815250610982565b610d888282610c7b565b15610da55760405162461bcd60e51b8152600401610450906114e7565b6001600160a01b0316600090815260209190915260409020805460ff19166001179055565b610dd48282610c7b565b610df05760405162461bcd60e51b815260040161045090611527565b6001600160a01b0316600090815260209190915260409020805460ff19169055565b60608082604051602001610e2691906113d5565b60408051601f19818403018152919052905060205b8015610e7b57815160001990910190829082908110610e5657fe5b01602001516001600160f81b03191615610e765760010181529050610491565b610e3b565b505060408051600081526020810190915292915050565b803561034c8161160e565b803561034c81611622565b803561034c8161162b565b600060208284031215610ec557600080fd5b6000610ed18484610e92565b949350505050565b60008060408385031215610eec57600080fd5b6000610ef88585610e92565b9250506020610f0985828601610e92565b9150509250929050565b600080600060608486031215610f2857600080fd5b6000610f348686610e92565b9350506020610f4586828701610e92565b9250506040610f5686828701610e9d565b9150509250925092565b600080600080600080600060e0888a031215610f7b57600080fd5b6000610f878a8a610e92565b9750506020610f988a828b01610e92565b9650506040610fa98a828b01610e9d565b9550506060610fba8a828b01610e9d565b9450506080610fcb8a828b01610ea8565b93505060a0610fdc8a828b01610e9d565b92505060c0610fed8a828b01610e9d565b91505092959891949750929550565b6000806040838503121561100f57600080fd5b600061101b8585610e92565b9250506020610f0985828601610e9d565b60006020828403121561103e57600080fd5b6000610ed18484610e9d565b611053816115a2565b82525050565b611053816115ad565b61105361106e826115b2565b6115bf565b611053816115bf565b61105361106e826115bf565b600061109382611595565b61109d8185610491565b93506110ad8185602086016115d4565b9290920192915050565b60006110c282611595565b6110cc8185611599565b93506110dc8185602086016115d4565b6110e581611604565b9093019392505050565b60006110fc602383611599565b7f45524332303a207472616e7366657220746f20746865207a65726f206164647281526265737360e81b602082015260400192915050565b6000611141601f83611599565b7f526f6c65733a206163636f756e7420616c72656164792068617320726f6c6500815260200192915050565b600061117a602283611599565b7f45524332303a20617070726f766520746f20746865207a65726f206164647265815261737360f01b602082015260400192915050565b60006111be601b83611599565b7f536166654d6174683a206164646974696f6e206f766572666c6f770000000000815260200192915050565b60006111f7603083611599565b7f4d696e746572526f6c653a2063616c6c657220646f6573206e6f74206861766581526f20746865204d696e74657220726f6c6560801b602082015260400192915050565b6000611249602183611599565b7f526f6c65733a206163636f756e7420646f6573206e6f74206861766520726f6c8152606560f81b602082015260400192915050565b600061128c602283611599565b7f526f6c65733a206163636f756e7420697320746865207a65726f206164647265815261737360f01b602082015260400192915050565b60006112d0602183611599565b7f45524332303a206275726e2066726f6d20746865207a65726f206164647265738152607360f81b602082015260400192915050565b6000611313602583611599565b7f45524332303a207472616e736665722066726f6d20746865207a65726f206164815264647265737360d81b602082015260400192915050565b600061135a602483611599565b7f45524332303a20617070726f76652066726f6d20746865207a65726f206164648152637265737360e01b602082015260400192915050565b60006113a0601f83611599565b7f45524332303a206d696e7420746f20746865207a65726f206164647265737300815260200192915050565b611053816115ce565b60006113e1828461107c565b50602001919050565b60006113f68286611088565b91506114028285611062565b6002820191506114128284611088565b95945050505050565b6020810161034c8284611059565b6020810161034c8284611073565b60c081016114458289611073565b611452602083018861104a565b61145f604083018761104a565b61146c6060830186611073565b6114796080830185611073565b61148660a0830184611073565b979650505050505050565b6080810161149f8287611073565b6114ac60208301866113cc565b6114b96040830185611073565b6114126060830184611073565b602080825281016109d381846110b7565b6020808252810161034c816110ef565b6020808252810161034c81611134565b6020808252810161034c8161116d565b6020808252810161034c816111b1565b6020808252810161034c816111ea565b6020808252810161034c8161123c565b6020808252810161034c8161127f565b6020808252810161034c816112c3565b6020808252810161034c81611306565b6020808252810161034c8161134d565b6020808252810161034c81611393565b6020810161034c82846113cc565b5190565b90815260200190565b600061034c826115c2565b151590565b6001600160f01b03191690565b90565b6001600160a01b031690565b60ff1690565b60005b838110156115ef5781810151838201526020016115d7565b838111156115fe576000848401525b50505050565b601f01601f191690565b611617816115a2565b811461047457600080fd5b611617816115bf565b611617816115ce565b600190565b8351602094850120835193850193909320604080517f8b73c3c69bb8fe3d512ecc4cf759cc79239f7b179b0ffacaa9a75d522b39400f815295860194909452928401929092526060830152608082015260a090209056fe45524332303a206275726e20616d6f756e7420657863656564732062616c616e636545524332303a207472616e7366657220616d6f756e7420657863656564732062616c616e636545524332303a206275726e20616d6f756e74206578636565647320616c6c6f77616e6365446f6c6c61723a207472616e7366657220616d6f756e74206578636565647320616c6c6f77616e636545524332303a2064656372656173656420616c6c6f77616e63652062656c6f77207a65726fa365627a7a723158201e779b4e1c38b13b186b8e27c872bf8f4ddde2582bb51d94dee84b0ab79123046c6578706572696d656e74616cf564736f6c63430005110040",
  "source": "/*\n    Copyright 2020 Dynamic Dollar Devs, based on the works of the Empty Set Squad\n\n    Licensed under the Apache License, Version 2.0 (the \"License\");\n    you may not use this file except in compliance with the License.\n    You may obtain a copy of the License at\n\n    http://www.apache.org/licenses/LICENSE-2.0\n\n    Unless required by applicable law or agreed to in writing, software\n    distributed under the License is distributed on an \"AS IS\" BASIS,\n    WITHOUT WARRANTIES OR CONDITIONS OF ANY KIND, either express or implied.\n    See the License for the specific language governing permissions and\n    limitations under the License.\n*/\n\npragma solidity ^0.5.17;\npragma experimental ABIEncoderV2;\n\nimport \"../dao/Comptroller.sol\";\nimport \"../token/Dollar.sol\";\nimport \"./MockState.sol\";\n\ncontract MockComptroller is Comptroller, MockState {\n    constructor(address pool) public {\n        _state.provider.dollar = new Dollar();\n        _state.provider.pool = pool;\n    }\n\n    function mintToAccountE(address account, uint256 amount) external {\n        super.mintToAccount(account, amount);\n    }\n\n    function burnFromAccountE(address account, uint256 amount) external {\n        super.burnFromAccount(account, amount);\n    }\n\n    function redeemToAccountE(address account, uint256 amount) external {\n        super.redeemToAccount(account, amount);\n    }\n\n    function burnRedeemableE(uint256 amount) external {\n        super.burnRedeemable(amount);\n    }\n\n    function increaseDebtE(uint256 amount) external {\n        super.increaseDebt(amount);\n    }\n\n    function decreaseDebtE(uint256 amount) external {\n        super.decreaseDebt(amount);\n    }\n\n    function resetDebtE(uint256 percent) external {\n        super.resetDebt(Decimal.ratio(percent, 100));\n    }\n\n    /* For testing only */\n    function mintToE(address account, uint256 amount) external {\n        dollar().mint(account, amount);\n    }\n}\n",
  "sourcePath": "/Users/cinquemb/Documents/Startups/crypto/dollar/protocol/contracts/mock/MockComptroller.sol",
  "compiler": {
    "name": "solc",
    "version": "0.5.17+commit.d19bba13.Emscripten.clang"
  },
  "schemaVersion": "3.3.3",
  "updatedAt": "2021-01-15T13:15:56.546Z",
  "devdoc": {
    "methods": {}
  },
  "userdoc": {
    "methods": {
      "balanceOfStaged(address)": {
        "notice": "Account"
      },
      "createCandidateE(address,uint256)": {
        "notice": "Governance"
      },
      "dollar()": {
        "notice": "Global"
      },
      "epoch()": {
        "notice": "Epoch"
      },
      "incrementBalanceOfE(address,uint256)": {
        "notice": "Account"
      },
      "incrementTotalBondedE(uint256)": {
        "notice": "Global"
      },
      "name()": {
        "notice": "ERC20 Interface"
      },
      "recordedVote(address,address)": {
        "notice": "Governance"
      },
      "setBlockTimestamp(uint256)": {
        "notice": "Mock"
      },
      "setEpochParamsE(uint256,uint256)": {
        "notice": "Epoch"
      },
      "transfer(address,uint256)": {
        "notice": "ERC20 Interface"
      }
    }
  }
}