{
  "contractName": "MockMarket",
  "abi": [
    {
      "inputs": [
        {
          "internalType": "address",
          "name": "pool",
          "type": "address"
        }
      ],
      "payable": false,
      "stateMutability": "nonpayable",
      "type": "constructor"
    },
    {
      "anonymous": false,
      "inputs": [
        {
          "indexed": true,
          "internalType": "address",
          "name": "owner",
          "type": "address"
        },
        {
          "indexed": true,
          "internalType": "address",
          "name": "spender",
          "type": "address"
        },
        {
          "indexed": false,
          "internalType": "uint256",
          "name": "value",
          "type": "uint256"
        }
      ],
      "name": "CouponApproval",
      "type": "event"
    },
    {
      "anonymous": false,
      "inputs": [
        {
          "indexed": true,
          "internalType": "address",
          "name": "account",
          "type": "address"
        },
        {
          "indexed": true,
          "internalType": "uint256",
          "name": "epoch",
          "type": "uint256"
        },
        {
          "indexed": false,
          "internalType": "uint256",
          "name": "dollarAmount",
          "type": "uint256"
        },
        {
          "indexed": false,
          "internalType": "uint256",
          "name": "maxCouponAmount",
          "type": "uint256"
        }
      ],
      "name": "CouponBidPlaced",
      "type": "event"
    },
    {
      "anonymous": false,
      "inputs": [
        {
          "indexed": true,
          "internalType": "address",
          "name": "account",
          "type": "address"
        },
        {
          "indexed": true,
          "internalType": "uint256",
          "name": "epoch",
          "type": "uint256"
        },
        {
          "indexed": false,
          "internalType": "uint256",
          "name": "couponAmount",
          "type": "uint256"
        }
      ],
      "name": "CouponBurn",
      "type": "event"
    },
    {
      "anonymous": false,
      "inputs": [
        {
          "indexed": true,
          "internalType": "uint256",
          "name": "epoch",
          "type": "uint256"
        },
        {
          "indexed": false,
          "internalType": "uint256",
          "name": "couponsExpired",
          "type": "uint256"
        },
        {
          "indexed": false,
          "internalType": "uint256",
          "name": "lessRedeemable",
          "type": "uint256"
        },
        {
          "indexed": false,
          "internalType": "uint256",
          "name": "lessDebt",
          "type": "uint256"
        },
        {
          "indexed": false,
          "internalType": "uint256",
          "name": "newBonded",
          "type": "uint256"
        }
      ],
      "name": "CouponExpiration",
      "type": "event"
    },
    {
      "anonymous": false,
      "inputs": [
        {
          "indexed": true,
          "internalType": "address",
          "name": "account",
          "type": "address"
        },
        {
          "indexed": true,
          "internalType": "uint256",
          "name": "epoch",
          "type": "uint256"
        },
        {
          "indexed": false,
          "internalType": "uint256",
          "name": "dollarAmount",
          "type": "uint256"
        },
        {
          "indexed": false,
          "internalType": "uint256",
          "name": "couponAmount",
          "type": "uint256"
        }
      ],
      "name": "CouponPurchase",
      "type": "event"
    },
    {
      "anonymous": false,
      "inputs": [
        {
          "indexed": true,
          "internalType": "address",
          "name": "account",
          "type": "address"
        },
        {
          "indexed": true,
          "internalType": "uint256",
          "name": "epoch",
          "type": "uint256"
        },
        {
          "indexed": false,
          "internalType": "uint256",
          "name": "couponAmount",
          "type": "uint256"
        }
      ],
      "name": "CouponRedemption",
      "type": "event"
    },
    {
      "anonymous": false,
      "inputs": [
        {
          "indexed": true,
          "internalType": "address",
          "name": "from",
          "type": "address"
        },
        {
          "indexed": true,
          "internalType": "address",
          "name": "to",
          "type": "address"
        },
        {
          "indexed": true,
          "internalType": "uint256",
          "name": "epoch",
          "type": "uint256"
        },
        {
          "indexed": false,
          "internalType": "uint256",
          "name": "value",
          "type": "uint256"
        }
      ],
      "name": "CouponTransfer",
      "type": "event"
    },
    {
      "anonymous": false,
      "inputs": [
        {
          "indexed": true,
          "internalType": "address",
          "name": "from",
          "type": "address"
        },
        {
          "indexed": true,
          "internalType": "address",
          "name": "to",
          "type": "address"
        },
        {
          "indexed": false,
          "internalType": "uint256",
          "name": "value",
          "type": "uint256"
        }
      ],
      "name": "Transfer",
      "type": "event"
    },
    {
      "constant": true,
      "inputs": [
        {
          "internalType": "address",
          "name": "owner",
          "type": "address"
        },
        {
          "internalType": "address",
          "name": "spender",
          "type": "address"
        }
      ],
      "name": "allowance",
      "outputs": [
        {
          "internalType": "uint256",
          "name": "",
          "type": "uint256"
        }
      ],
      "payable": false,
      "stateMutability": "view",
      "type": "function"
    },
    {
      "constant": true,
      "inputs": [
        {
          "internalType": "address",
          "name": "owner",
          "type": "address"
        },
        {
          "internalType": "address",
          "name": "spender",
          "type": "address"
        }
      ],
      "name": "allowanceCoupons",
      "outputs": [
        {
          "internalType": "uint256",
          "name": "",
          "type": "uint256"
        }
      ],
      "payable": false,
      "stateMutability": "view",
      "type": "function"
    },
    {
      "constant": false,
      "inputs": [
        {
          "internalType": "address",
          "name": "spender",
          "type": "address"
        },
        {
          "internalType": "uint256",
          "name": "amount",
          "type": "uint256"
        }
      ],
      "name": "approve",
      "outputs": [
        {
          "internalType": "bool",
          "name": "",
          "type": "bool"
        }
      ],
      "payable": false,
      "stateMutability": "nonpayable",
      "type": "function"
    },
    {
      "constant": false,
      "inputs": [
        {
          "internalType": "address",
          "name": "spender",
          "type": "address"
        },
        {
          "internalType": "uint256",
          "name": "amount",
          "type": "uint256"
        }
      ],
      "name": "approveCoupons",
      "outputs": [],
      "payable": false,
      "stateMutability": "nonpayable",
      "type": "function"
    },
    {
      "constant": true,
      "inputs": [
        {
          "internalType": "address",
          "name": "candidate",
          "type": "address"
        }
      ],
      "name": "approveFor",
      "outputs": [
        {
          "internalType": "uint256",
          "name": "",
          "type": "uint256"
        }
      ],
      "payable": false,
      "stateMutability": "view",
      "type": "function"
    },
    {
      "constant": true,
      "inputs": [
        {
          "internalType": "address",
          "name": "account",
          "type": "address"
        }
      ],
      "name": "balanceOf",
      "outputs": [
        {
          "internalType": "uint256",
          "name": "",
          "type": "uint256"
        }
      ],
      "payable": false,
      "stateMutability": "view",
      "type": "function"
    },
    {
      "constant": true,
      "inputs": [
        {
          "internalType": "address",
          "name": "account",
          "type": "address"
        }
      ],
      "name": "balanceOfBonded",
      "outputs": [
        {
          "internalType": "uint256",
          "name": "",
          "type": "uint256"
        }
      ],
      "payable": false,
      "stateMutability": "view",
      "type": "function"
    },
    {
      "constant": true,
      "inputs": [
        {
          "internalType": "address",
          "name": "account",
          "type": "address"
        },
        {
          "internalType": "uint256",
          "name": "epoch",
          "type": "uint256"
        }
      ],
      "name": "balanceOfCoupons",
      "outputs": [
        {
          "internalType": "uint256",
          "name": "",
          "type": "uint256"
        }
      ],
      "payable": false,
      "stateMutability": "view",
      "type": "function"
    },
    {
      "constant": true,
      "inputs": [
        {
          "internalType": "address",
          "name": "account",
          "type": "address"
        }
      ],
      "name": "balanceOfStaged",
      "outputs": [
        {
          "internalType": "uint256",
          "name": "",
          "type": "uint256"
        }
      ],
      "payable": false,
      "stateMutability": "view",
      "type": "function"
    },
    {
      "constant": true,
      "inputs": [
        {
          "internalType": "uint256",
          "name": "epoch",
          "type": "uint256"
        }
      ],
      "name": "bootstrappingAt",
      "outputs": [
        {
          "internalType": "bool",
          "name": "",
          "type": "bool"
        }
      ],
      "payable": false,
      "stateMutability": "view",
      "type": "function"
    },
    {
      "constant": false,
      "inputs": [
        {
          "internalType": "address",
          "name": "account",
          "type": "address"
        },
        {
          "internalType": "uint256",
          "name": "amount",
          "type": "uint256"
        }
      ],
      "name": "burnFromAccountE",
      "outputs": [],
      "payable": false,
      "stateMutability": "nonpayable",
      "type": "function"
    },
    {
      "constant": false,
      "inputs": [
        {
          "internalType": "uint256",
          "name": "amount",
          "type": "uint256"
        }
      ],
      "name": "burnRedeemableE",
      "outputs": [],
      "payable": false,
      "stateMutability": "nonpayable",
      "type": "function"
    },
    {
      "constant": true,
      "inputs": [
        {
          "internalType": "uint256",
          "name": "amount",
          "type": "uint256"
        }
      ],
      "name": "couponPremium",
      "outputs": [
        {
          "internalType": "uint256",
          "name": "",
          "type": "uint256"
        }
      ],
      "payable": false,
      "stateMutability": "view",
      "type": "function"
    },
    {
      "constant": true,
      "inputs": [
        {
          "internalType": "uint256",
          "name": "couponEpoch",
          "type": "uint256"
        },
        {
          "internalType": "uint256",
          "name": "couponAmount",
          "type": "uint256"
        }
      ],
      "name": "couponRedemptionPenalty",
      "outputs": [
        {
          "internalType": "uint256",
          "name": "",
          "type": "uint256"
        }
      ],
      "payable": false,
      "stateMutability": "view",
      "type": "function"
    },
    {
      "constant": true,
      "inputs": [
        {
          "internalType": "uint256",
          "name": "epoch",
          "type": "uint256"
        }
      ],
      "name": "couponsExpiration",
      "outputs": [
        {
          "internalType": "uint256",
          "name": "",
          "type": "uint256"
        }
      ],
      "payable": false,
      "stateMutability": "view",
      "type": "function"
    },
    {
      "constant": false,
      "inputs": [
        {
          "internalType": "address",
          "name": "candidate",
          "type": "address"
        },
        {
          "internalType": "uint256",
          "name": "period",
          "type": "uint256"
        }
      ],
      "name": "createCandidateE",
      "outputs": [],
      "payable": false,
      "stateMutability": "nonpayable",
      "type": "function"
    },
    {
      "constant": true,
      "inputs": [],
      "name": "decimals",
      "outputs": [
        {
          "internalType": "uint8",
          "name": "",
          "type": "uint8"
        }
      ],
      "payable": false,
      "stateMutability": "view",
      "type": "function"
    },
    {
      "constant": false,
      "inputs": [
        {
          "internalType": "uint256",
          "name": "amount",
          "type": "uint256"
        }
      ],
      "name": "decreaseDebtE",
      "outputs": [],
      "payable": false,
      "stateMutability": "nonpayable",
      "type": "function"
    },
    {
      "constant": false,
      "inputs": [
        {
          "internalType": "address",
          "name": "owner",
          "type": "address"
        },
        {
          "internalType": "address",
          "name": "spender",
          "type": "address"
        },
        {
          "internalType": "uint256",
          "name": "amount",
          "type": "uint256"
        },
        {
          "internalType": "string",
          "name": "reason",
          "type": "string"
        }
      ],
      "name": "decrementAllowanceCouponsE",
      "outputs": [],
      "payable": false,
      "stateMutability": "nonpayable",
      "type": "function"
    },
    {
      "constant": false,
      "inputs": [
        {
          "internalType": "address",
          "name": "candidate",
          "type": "address"
        },
        {
          "internalType": "uint256",
          "name": "amount",
          "type": "uint256"
        },
        {
          "internalType": "string",
          "name": "reason",
          "type": "string"
        }
      ],
      "name": "decrementApproveForE",
      "outputs": [],
      "payable": false,
      "stateMutability": "nonpayable",
      "type": "function"
    },
    {
      "constant": false,
      "inputs": [
        {
          "internalType": "address",
          "name": "account",
          "type": "address"
        },
        {
          "internalType": "uint256",
          "name": "epoch",
          "type": "uint256"
        },
        {
          "internalType": "uint256",
          "name": "amount",
          "type": "uint256"
        },
        {
          "internalType": "string",
          "name": "reason",
          "type": "string"
        }
      ],
      "name": "decrementBalanceOfCouponsE",
      "outputs": [],
      "payable": false,
      "stateMutability": "nonpayable",
      "type": "function"
    },
    {
      "constant": false,
      "inputs": [
        {
          "internalType": "address",
          "name": "account",
          "type": "address"
        },
        {
          "internalType": "uint256",
          "name": "amount",
          "type": "uint256"
        },
        {
          "internalType": "string",
          "name": "reason",
          "type": "string"
        }
      ],
      "name": "decrementBalanceOfE",
      "outputs": [],
      "payable": false,
      "stateMutability": "nonpayable",
      "type": "function"
    },
    {
      "constant": false,
      "inputs": [
        {
          "internalType": "address",
          "name": "account",
          "type": "address"
        },
        {
          "internalType": "uint256",
          "name": "amount",
          "type": "uint256"
        },
        {
          "internalType": "string",
          "name": "reason",
          "type": "string"
        }
      ],
      "name": "decrementBalanceOfStagedE",
      "outputs": [],
      "payable": false,
      "stateMutability": "nonpayable",
      "type": "function"
    },
    {
      "constant": false,
      "inputs": [
        {
          "internalType": "address",
          "name": "candidate",
          "type": "address"
        },
        {
          "internalType": "uint256",
          "name": "amount",
          "type": "uint256"
        },
        {
          "internalType": "string",
          "name": "reason",
          "type": "string"
        }
      ],
      "name": "decrementRejectForE",
      "outputs": [],
      "payable": false,
      "stateMutability": "nonpayable",
      "type": "function"
    },
    {
      "constant": false,
      "inputs": [
        {
          "internalType": "uint256",
          "name": "amount",
          "type": "uint256"
        },
        {
          "internalType": "string",
          "name": "reason",
          "type": "string"
        }
      ],
      "name": "decrementTotalBondedE",
      "outputs": [],
      "payable": false,
      "stateMutability": "nonpayable",
      "type": "function"
    },
    {
      "constant": false,
      "inputs": [
        {
          "internalType": "uint256",
          "name": "amount",
          "type": "uint256"
        },
        {
          "internalType": "string",
          "name": "reason",
          "type": "string"
        }
      ],
      "name": "decrementTotalDebtE",
      "outputs": [],
      "payable": false,
      "stateMutability": "nonpayable",
      "type": "function"
    },
    {
      "constant": false,
      "inputs": [
        {
          "internalType": "uint256",
          "name": "amount",
          "type": "uint256"
        },
        {
          "internalType": "string",
          "name": "reason",
          "type": "string"
        }
      ],
      "name": "decrementTotalRedeemableE",
      "outputs": [],
      "payable": false,
      "stateMutability": "nonpayable",
      "type": "function"
    },
    {
      "constant": true,
      "inputs": [],
      "name": "dollar",
      "outputs": [
        {
          "internalType": "contract IDollar",
          "name": "",
          "type": "address"
        }
      ],
      "payable": false,
      "stateMutability": "view",
      "type": "function"
    },
    {
      "constant": false,
      "inputs": [
        {
          "internalType": "uint256",
          "name": "epoch",
          "type": "uint256"
        }
      ],
      "name": "eliminateOutstandingCouponsE",
      "outputs": [],
      "payable": false,
      "stateMutability": "nonpayable",
      "type": "function"
    },
    {
      "constant": true,
      "inputs": [],
      "name": "epoch",
      "outputs": [
        {
          "internalType": "uint256",
          "name": "",
          "type": "uint256"
        }
      ],
      "payable": false,
      "stateMutability": "view",
      "type": "function"
    },
    {
      "constant": true,
      "inputs": [],
      "name": "epochTime",
      "outputs": [
        {
          "internalType": "uint256",
          "name": "",
          "type": "uint256"
        }
      ],
      "payable": false,
      "stateMutability": "view",
      "type": "function"
    },
    {
      "constant": true,
      "inputs": [
        {
          "internalType": "uint256",
          "name": "epoch",
          "type": "uint256"
        }
      ],
      "name": "expiringCoupons",
      "outputs": [
        {
          "internalType": "uint256",
          "name": "",
          "type": "uint256"
        }
      ],
      "payable": false,
      "stateMutability": "view",
      "type": "function"
    },
    {
      "constant": true,
      "inputs": [
        {
          "internalType": "uint256",
          "name": "epoch",
          "type": "uint256"
        },
        {
          "internalType": "uint256",
          "name": "i",
          "type": "uint256"
        }
      ],
      "name": "expiringCouponsAtIndex",
      "outputs": [
        {
          "internalType": "uint256",
          "name": "",
          "type": "uint256"
        }
      ],
      "payable": false,
      "stateMutability": "view",
      "type": "function"
    },
    {
      "constant": true,
      "inputs": [
        {
          "internalType": "address",
          "name": "account",
          "type": "address"
        }
      ],
      "name": "fluidUntil",
      "outputs": [
        {
          "internalType": "uint256",
          "name": "",
          "type": "uint256"
        }
      ],
      "payable": false,
      "stateMutability": "view",
      "type": "function"
    },
    {
      "constant": true,
      "inputs": [
        {
          "internalType": "uint256",
          "name": "epoch",
          "type": "uint256"
        }
      ],
      "name": "getAvgExpiryFilled",
      "outputs": [
        {
          "internalType": "uint256",
          "name": "",
          "type": "uint256"
        }
      ],
      "payable": false,
      "stateMutability": "view",
      "type": "function"
    },
    {
      "constant": true,
      "inputs": [
        {
          "internalType": "uint256",
          "name": "epoch",
          "type": "uint256"
        }
      ],
      "name": "getAvgYieldFilled",
      "outputs": [
        {
          "internalType": "uint256",
          "name": "",
          "type": "uint256"
        }
      ],
      "payable": false,
      "stateMutability": "view",
      "type": "function"
    },
    {
      "constant": true,
      "inputs": [
        {
          "internalType": "uint256",
          "name": "epoch",
          "type": "uint256"
        }
      ],
      "name": "getBidToCover",
      "outputs": [
        {
          "internalType": "uint256",
          "name": "",
          "type": "uint256"
        }
      ],
      "payable": false,
      "stateMutability": "view",
      "type": "function"
    },
    {
      "constant": true,
      "inputs": [],
      "name": "getLatestDeadAuctionEpoch",
      "outputs": [
        {
          "internalType": "uint256",
          "name": "",
          "type": "uint256"
        }
      ],
      "payable": false,
      "stateMutability": "view",
      "type": "function"
    },
    {
      "constant": true,
      "inputs": [
        {
          "internalType": "uint256",
          "name": "epoch",
          "type": "uint256"
        }
      ],
      "name": "getMaxExpiryFilled",
      "outputs": [
        {
          "internalType": "uint256",
          "name": "",
          "type": "uint256"
        }
      ],
      "payable": false,
      "stateMutability": "view",
      "type": "function"
    },
    {
      "constant": true,
      "inputs": [
        {
          "internalType": "uint256",
          "name": "epoch",
          "type": "uint256"
        }
      ],
      "name": "getMaxYieldFilled",
      "outputs": [
        {
          "internalType": "uint256",
          "name": "",
          "type": "uint256"
        }
      ],
      "payable": false,
      "stateMutability": "view",
      "type": "function"
    },
    {
      "constant": true,
      "inputs": [
        {
          "internalType": "uint256",
          "name": "epoch",
          "type": "uint256"
        }
      ],
      "name": "getMinExpiryFilled",
      "outputs": [
        {
          "internalType": "uint256",
          "name": "",
          "type": "uint256"
        }
      ],
      "payable": false,
      "stateMutability": "view",
      "type": "function"
    },
    {
      "constant": true,
      "inputs": [
        {
          "internalType": "uint256",
          "name": "epoch",
          "type": "uint256"
        }
      ],
      "name": "getMinYieldFilled",
      "outputs": [
        {
          "internalType": "uint256",
          "name": "",
          "type": "uint256"
        }
      ],
      "payable": false,
      "stateMutability": "view",
      "type": "function"
    },
    {
      "constant": true,
      "inputs": [
        {
          "internalType": "uint256",
          "name": "epoch",
          "type": "uint256"
        }
      ],
      "name": "getTotalAuctioned",
      "outputs": [
        {
          "internalType": "uint256",
          "name": "",
          "type": "uint256"
        }
      ],
      "payable": false,
      "stateMutability": "view",
      "type": "function"
    },
    {
      "constant": true,
      "inputs": [
        {
          "internalType": "uint256",
          "name": "epoch",
          "type": "uint256"
        }
      ],
      "name": "getTotalBurned",
      "outputs": [
        {
          "internalType": "uint256",
          "name": "",
          "type": "uint256"
        }
      ],
      "payable": false,
      "stateMutability": "view",
      "type": "function"
    },
    {
      "constant": true,
      "inputs": [
        {
          "internalType": "uint256",
          "name": "epoch",
          "type": "uint256"
        }
      ],
      "name": "getTotalFilled",
      "outputs": [
        {
          "internalType": "uint256",
          "name": "",
          "type": "uint256"
        }
      ],
      "payable": false,
      "stateMutability": "view",
      "type": "function"
    },
    {
      "constant": true,
      "inputs": [],
      "name": "implementation",
      "outputs": [
        {
          "internalType": "address",
          "name": "impl",
          "type": "address"
        }
      ],
      "payable": false,
      "stateMutability": "view",
      "type": "function"
    },
    {
      "constant": false,
      "inputs": [
        {
          "internalType": "uint256",
          "name": "amount",
          "type": "uint256"
        }
      ],
      "name": "increaseDebtE",
      "outputs": [],
      "payable": false,
      "stateMutability": "nonpayable",
      "type": "function"
    },
    {
      "constant": false,
      "inputs": [
        {
          "internalType": "address",
          "name": "candidate",
          "type": "address"
        },
        {
          "internalType": "uint256",
          "name": "amount",
          "type": "uint256"
        }
      ],
      "name": "incrementApproveForE",
      "outputs": [],
      "payable": false,
      "stateMutability": "nonpayable",
      "type": "function"
    },
    {
      "constant": false,
      "inputs": [
        {
          "internalType": "address",
          "name": "account",
          "type": "address"
        },
        {
          "internalType": "uint256",
          "name": "epoch",
          "type": "uint256"
        },
        {
          "internalType": "uint256",
          "name": "amount",
          "type": "uint256"
        }
      ],
      "name": "incrementBalanceOfCouponsE",
      "outputs": [],
      "payable": false,
      "stateMutability": "nonpayable",
      "type": "function"
    },
    {
      "constant": false,
      "inputs": [
        {
          "internalType": "address",
          "name": "account",
          "type": "address"
        },
        {
          "internalType": "uint256",
          "name": "amount",
          "type": "uint256"
        }
      ],
      "name": "incrementBalanceOfE",
      "outputs": [],
      "payable": false,
      "stateMutability": "nonpayable",
      "type": "function"
    },
    {
      "constant": false,
      "inputs": [
        {
          "internalType": "address",
          "name": "account",
          "type": "address"
        },
        {
          "internalType": "uint256",
          "name": "amount",
          "type": "uint256"
        }
      ],
      "name": "incrementBalanceOfStagedE",
      "outputs": [],
      "payable": false,
      "stateMutability": "nonpayable",
      "type": "function"
    },
    {
      "constant": false,
      "inputs": [],
      "name": "incrementEpochE",
      "outputs": [],
      "payable": false,
      "stateMutability": "nonpayable",
      "type": "function"
    },
    {
      "constant": false,
      "inputs": [
        {
          "internalType": "address",
          "name": "candidate",
          "type": "address"
        },
        {
          "internalType": "uint256",
          "name": "amount",
          "type": "uint256"
        }
      ],
      "name": "incrementRejectForE",
      "outputs": [],
      "payable": false,
      "stateMutability": "nonpayable",
      "type": "function"
    },
    {
      "constant": false,
      "inputs": [
        {
          "internalType": "uint256",
          "name": "amount",
          "type": "uint256"
        }
      ],
      "name": "incrementTotalBondedE",
      "outputs": [],
      "payable": false,
      "stateMutability": "nonpayable",
      "type": "function"
    },
    {
      "constant": false,
      "inputs": [
        {
          "internalType": "uint256",
          "name": "amount",
          "type": "uint256"
        }
      ],
      "name": "incrementTotalDebtE",
      "outputs": [],
      "payable": false,
      "stateMutability": "nonpayable",
      "type": "function"
    },
    {
      "constant": false,
      "inputs": [
        {
          "internalType": "uint256",
          "name": "amount",
          "type": "uint256"
        }
      ],
      "name": "incrementTotalRedeemableE",
      "outputs": [],
      "payable": false,
      "stateMutability": "nonpayable",
      "type": "function"
    },
    {
      "constant": false,
      "inputs": [
        {
          "internalType": "uint256",
          "name": "epoch",
          "type": "uint256"
        },
        {
          "internalType": "uint256",
          "name": "expiration",
          "type": "uint256"
        }
      ],
      "name": "initializeCouponsExpirationE",
      "outputs": [],
      "payable": false,
      "stateMutability": "nonpayable",
      "type": "function"
    },
    {
      "constant": false,
      "inputs": [
        {
          "internalType": "address",
          "name": "candidate",
          "type": "address"
        }
      ],
      "name": "initializedE",
      "outputs": [],
      "payable": false,
      "stateMutability": "nonpayable",
      "type": "function"
    },
    {
      "constant": false,
      "inputs": [
        {
          "internalType": "uint256",
          "name": "epoch",
          "type": "uint256"
        }
      ],
      "name": "isCouponAuctionInitAtEpochE",
      "outputs": [
        {
          "internalType": "bool",
          "name": "",
          "type": "bool"
        }
      ],
      "payable": false,
      "stateMutability": "nonpayable",
      "type": "function"
    },
    {
      "constant": true,
      "inputs": [
        {
          "internalType": "address",
          "name": "candidate",
          "type": "address"
        }
      ],
      "name": "isInitialized",
      "outputs": [
        {
          "internalType": "bool",
          "name": "",
          "type": "bool"
        }
      ],
      "payable": false,
      "stateMutability": "view",
      "type": "function"
    },
    {
      "constant": true,
      "inputs": [
        {
          "internalType": "address",
          "name": "candidate",
          "type": "address"
        }
      ],
      "name": "isNominated",
      "outputs": [
        {
          "internalType": "bool",
          "name": "",
          "type": "bool"
        }
      ],
      "payable": false,
      "stateMutability": "view",
      "type": "function"
    },
    {
      "constant": true,
      "inputs": [
        {
          "internalType": "address",
          "name": "account",
          "type": "address"
        }
      ],
      "name": "lockedUntil",
      "outputs": [
        {
          "internalType": "uint256",
          "name": "",
          "type": "uint256"
        }
      ],
      "payable": false,
      "stateMutability": "view",
      "type": "function"
    },
    {
      "constant": false,
      "inputs": [
        {
          "internalType": "address",
          "name": "account",
          "type": "address"
        },
        {
          "internalType": "uint256",
          "name": "amount",
          "type": "uint256"
        }
      ],
      "name": "mintToAccountE",
      "outputs": [],
      "payable": false,
      "stateMutability": "nonpayable",
      "type": "function"
    },
    {
      "constant": false,
      "inputs": [
        {
          "internalType": "address",
          "name": "account",
          "type": "address"
        },
        {
          "internalType": "uint256",
          "name": "amount",
          "type": "uint256"
        }
      ],
      "name": "mintToE",
      "outputs": [],
      "payable": false,
      "stateMutability": "nonpayable",
      "type": "function"
    },
    {
      "constant": true,
      "inputs": [],
      "name": "name",
      "outputs": [
        {
          "internalType": "string",
          "name": "",
          "type": "string"
        }
      ],
      "payable": false,
      "stateMutability": "view",
      "type": "function"
    },
    {
      "constant": true,
      "inputs": [],
      "name": "oracle",
      "outputs": [
        {
          "internalType": "contract IOracle",
          "name": "",
          "type": "address"
        }
      ],
      "payable": false,
      "stateMutability": "view",
      "type": "function"
    },
    {
      "constant": true,
      "inputs": [
        {
          "internalType": "uint256",
          "name": "epoch",
          "type": "uint256"
        }
      ],
      "name": "outstandingCoupons",
      "outputs": [
        {
          "internalType": "uint256",
          "name": "",
          "type": "uint256"
        }
      ],
      "payable": false,
      "stateMutability": "view",
      "type": "function"
    },
    {
      "constant": true,
      "inputs": [
        {
          "internalType": "address",
          "name": "candidate",
          "type": "address"
        }
      ],
      "name": "periodFor",
      "outputs": [
        {
          "internalType": "uint256",
          "name": "",
          "type": "uint256"
        }
      ],
      "payable": false,
      "stateMutability": "view",
      "type": "function"
    },
    {
      "constant": false,
      "inputs": [
        {
          "internalType": "uint256",
          "name": "couponEpochExpiry",
          "type": "uint256"
        },
        {
          "internalType": "uint256",
          "name": "dollarAmount",
          "type": "uint256"
        },
        {
          "internalType": "uint256",
          "name": "maxCouponAmount",
          "type": "uint256"
        }
      ],
      "name": "placeCouponAuctionBid",
      "outputs": [
        {
          "internalType": "bool",
          "name": "",
          "type": "bool"
        }
      ],
      "payable": false,
      "stateMutability": "nonpayable",
      "type": "function"
    },
    {
      "constant": false,
      "inputs": [
        {
          "internalType": "address",
          "name": "account",
          "type": "address"
        },
        {
          "internalType": "address",
          "name": "candidate",
          "type": "address"
        }
      ],
      "name": "placeLockE",
      "outputs": [],
      "payable": false,
      "stateMutability": "nonpayable",
      "type": "function"
    },
    {
      "constant": true,
      "inputs": [],
      "name": "pool",
      "outputs": [
        {
          "internalType": "address",
          "name": "",
          "type": "address"
        }
      ],
      "payable": false,
      "stateMutability": "view",
      "type": "function"
    },
    {
      "constant": false,
      "inputs": [
        {
          "internalType": "uint256",
          "name": "dollarAmount",
          "type": "uint256"
        }
      ],
      "name": "purchaseCoupons",
      "outputs": [
        {
          "internalType": "uint256",
          "name": "",
          "type": "uint256"
        }
      ],
      "payable": false,
      "stateMutability": "nonpayable",
      "type": "function"
    },
    {
      "constant": false,
      "inputs": [
        {
          "internalType": "address",
          "name": "account",
          "type": "address"
        },
        {
          "internalType": "address",
          "name": "candidate",
          "type": "address"
        },
        {
          "internalType": "enum Candidate.Vote",
          "name": "vote",
          "type": "uint8"
        }
      ],
      "name": "recordVoteE",
      "outputs": [],
      "payable": false,
      "stateMutability": "nonpayable",
      "type": "function"
    },
    {
      "constant": true,
      "inputs": [
        {
          "internalType": "address",
          "name": "account",
          "type": "address"
        },
        {
          "internalType": "address",
          "name": "candidate",
          "type": "address"
        }
      ],
      "name": "recordedVote",
      "outputs": [
        {
          "internalType": "enum Candidate.Vote",
          "name": "",
          "type": "uint8"
        }
      ],
      "payable": false,
      "stateMutability": "view",
      "type": "function"
    },
    {
      "constant": false,
      "inputs": [
        {
          "internalType": "uint256",
          "name": "couponEpoch",
          "type": "uint256"
        },
        {
          "internalType": "uint256",
          "name": "couponAmount",
          "type": "uint256"
        },
        {
          "internalType": "uint256",
          "name": "minOutput",
          "type": "uint256"
        }
      ],
      "name": "redeemCoupons",
      "outputs": [],
      "payable": false,
      "stateMutability": "nonpayable",
      "type": "function"
    },
    {
      "constant": false,
      "inputs": [
        {
          "internalType": "uint256",
          "name": "couponEpoch",
          "type": "uint256"
        },
        {
          "internalType": "uint256",
          "name": "couponAmount",
          "type": "uint256"
        }
      ],
      "name": "redeemCoupons",
      "outputs": [],
      "payable": false,
      "stateMutability": "nonpayable",
      "type": "function"
    },
    {
      "constant": false,
      "inputs": [
        {
          "internalType": "address",
          "name": "account",
          "type": "address"
        },
        {
          "internalType": "uint256",
          "name": "amount",
          "type": "uint256"
        }
      ],
      "name": "redeemToAccountE",
      "outputs": [],
      "payable": false,
      "stateMutability": "nonpayable",
      "type": "function"
    },
    {
      "constant": true,
      "inputs": [
        {
          "internalType": "address",
          "name": "candidate",
          "type": "address"
        }
      ],
      "name": "rejectFor",
      "outputs": [
        {
          "internalType": "uint256",
          "name": "",
          "type": "uint256"
        }
      ],
      "payable": false,
      "stateMutability": "view",
      "type": "function"
    },
    {
      "constant": false,
      "inputs": [
        {
          "internalType": "uint256",
          "name": "percent",
          "type": "uint256"
        }
      ],
      "name": "resetDebtE",
      "outputs": [],
      "payable": false,
      "stateMutability": "nonpayable",
      "type": "function"
    },
    {
      "constant": false,
      "inputs": [
        {
          "internalType": "uint256",
          "name": "timestamp",
          "type": "uint256"
        }
      ],
      "name": "setBlockTimestamp",
      "outputs": [],
      "payable": false,
      "stateMutability": "nonpayable",
      "type": "function"
    },
    {
      "constant": false,
      "inputs": [
        {
          "internalType": "uint256",
          "name": "start",
          "type": "uint256"
        },
        {
          "internalType": "uint256",
          "name": "period",
          "type": "uint256"
        }
      ],
      "name": "setEpochParamsE",
      "outputs": [],
      "payable": false,
      "stateMutability": "nonpayable",
      "type": "function"
    },
    {
      "constant": false,
      "inputs": [],
      "name": "snapshotTotalBondedE",
      "outputs": [],
      "payable": false,
      "stateMutability": "nonpayable",
      "type": "function"
    },
    {
      "constant": true,
      "inputs": [
        {
          "internalType": "address",
          "name": "candidate",
          "type": "address"
        }
      ],
      "name": "startFor",
      "outputs": [
        {
          "internalType": "uint256",
          "name": "",
          "type": "uint256"
        }
      ],
      "payable": false,
      "stateMutability": "view",
      "type": "function"
    },
    {
      "constant": true,
      "inputs": [
        {
          "internalType": "address",
          "name": "account",
          "type": "address"
        }
      ],
      "name": "statusOf",
      "outputs": [
        {
          "internalType": "enum Account.Status",
          "name": "",
          "type": "uint8"
        }
      ],
      "payable": false,
      "stateMutability": "view",
      "type": "function"
    },
    {
      "constant": true,
      "inputs": [],
      "name": "symbol",
      "outputs": [
        {
          "internalType": "string",
          "name": "",
          "type": "string"
        }
      ],
      "payable": false,
      "stateMutability": "view",
      "type": "function"
    },
    {
      "constant": true,
      "inputs": [],
      "name": "totalBonded",
      "outputs": [
        {
          "internalType": "uint256",
          "name": "",
          "type": "uint256"
        }
      ],
      "payable": false,
      "stateMutability": "view",
      "type": "function"
    },
    {
      "constant": true,
      "inputs": [
        {
          "internalType": "uint256",
          "name": "epoch",
          "type": "uint256"
        }
      ],
      "name": "totalBondedAt",
      "outputs": [
        {
          "internalType": "uint256",
          "name": "",
          "type": "uint256"
        }
      ],
      "payable": false,
      "stateMutability": "view",
      "type": "function"
    },
    {
      "constant": true,
      "inputs": [],
      "name": "totalCoupons",
      "outputs": [
        {
          "internalType": "uint256",
          "name": "",
          "type": "uint256"
        }
      ],
      "payable": false,
      "stateMutability": "view",
      "type": "function"
    },
    {
      "constant": true,
      "inputs": [],
      "name": "totalDebt",
      "outputs": [
        {
          "internalType": "uint256",
          "name": "",
          "type": "uint256"
        }
      ],
      "payable": false,
      "stateMutability": "view",
      "type": "function"
    },
    {
      "constant": true,
      "inputs": [],
      "name": "totalNet",
      "outputs": [
        {
          "internalType": "uint256",
          "name": "",
          "type": "uint256"
        }
      ],
      "payable": false,
      "stateMutability": "view",
      "type": "function"
    },
    {
      "constant": true,
      "inputs": [],
      "name": "totalRedeemable",
      "outputs": [
        {
          "internalType": "uint256",
          "name": "",
          "type": "uint256"
        }
      ],
      "payable": false,
      "stateMutability": "view",
      "type": "function"
    },
    {
      "constant": true,
      "inputs": [],
      "name": "totalStaged",
      "outputs": [
        {
          "internalType": "uint256",
          "name": "",
          "type": "uint256"
        }
      ],
      "payable": false,
      "stateMutability": "view",
      "type": "function"
    },
    {
      "constant": true,
      "inputs": [],
      "name": "totalSupply",
      "outputs": [
        {
          "internalType": "uint256",
          "name": "",
          "type": "uint256"
        }
      ],
      "payable": false,
      "stateMutability": "view",
      "type": "function"
    },
    {
      "constant": false,
      "inputs": [
        {
          "internalType": "address",
          "name": "recipient",
          "type": "address"
        },
        {
          "internalType": "uint256",
          "name": "amount",
          "type": "uint256"
        }
      ],
      "name": "transfer",
      "outputs": [
        {
          "internalType": "bool",
          "name": "",
          "type": "bool"
        }
      ],
      "payable": false,
      "stateMutability": "nonpayable",
      "type": "function"
    },
    {
      "constant": false,
      "inputs": [
        {
          "internalType": "address",
          "name": "sender",
          "type": "address"
        },
        {
          "internalType": "address",
          "name": "recipient",
          "type": "address"
        },
        {
          "internalType": "uint256",
          "name": "epoch",
          "type": "uint256"
        },
        {
          "internalType": "uint256",
          "name": "amount",
          "type": "uint256"
        }
      ],
      "name": "transferCoupons",
      "outputs": [],
      "payable": false,
      "stateMutability": "nonpayable",
      "type": "function"
    },
    {
      "constant": false,
      "inputs": [
        {
          "internalType": "address",
          "name": "sender",
          "type": "address"
        },
        {
          "internalType": "address",
          "name": "recipient",
          "type": "address"
        },
        {
          "internalType": "uint256",
          "name": "amount",
          "type": "uint256"
        }
      ],
      "name": "transferFrom",
      "outputs": [
        {
          "internalType": "bool",
          "name": "",
          "type": "bool"
        }
      ],
      "payable": false,
      "stateMutability": "nonpayable",
      "type": "function"
    },
    {
      "constant": false,
      "inputs": [
        {
          "internalType": "address",
          "name": "account",
          "type": "address"
        }
      ],
      "name": "unfreezeE",
      "outputs": [],
      "payable": false,
      "stateMutability": "nonpayable",
      "type": "function"
    },
    {
      "constant": false,
      "inputs": [
        {
          "internalType": "address",
          "name": "owner",
          "type": "address"
        },
        {
          "internalType": "address",
          "name": "spender",
          "type": "address"
        },
        {
          "internalType": "uint256",
          "name": "amount",
          "type": "uint256"
        }
      ],
      "name": "updateAllowanceCouponsE",
      "outputs": [],
      "payable": false,
      "stateMutability": "nonpayable",
      "type": "function"
    },
    {
      "constant": true,
      "inputs": [
        {
          "internalType": "address",
          "name": "candidate",
          "type": "address"
        }
      ],
      "name": "votesFor",
      "outputs": [
        {
          "internalType": "uint256",
          "name": "",
          "type": "uint256"
        }
      ],
      "payable": false,
      "stateMutability": "view",
      "type": "function"
    },
    {
      "constant": false,
      "inputs": [],
      "name": "stepE",
      "outputs": [],
      "payable": false,
      "stateMutability": "nonpayable",
      "type": "function"
    }
  ],
  "bytecode": "0x60806040523480156200001157600080fd5b50604051620061eb380380620061eb8339810160408190526200003491620000bd565b42601055604051819062000048906200009c565b604051809103906000f08015801562000065573d6000803e3d6000fd5b50600a80546001600160a01b039283166001600160a01b031991821617909155600c80549390921692169190911790555062000112565b611c0680620045e583390190565b8051620000b781620000f8565b92915050565b600060208284031215620000d057600080fd5b6000620000de8484620000aa565b949350505050565b60006001600160a01b038216620000b7565b6200010381620000e6565b81146200010f57600080fd5b50565b6144c380620001226000396000f3fe608060405234801561001057600080fd5b506004361061059b5760003560e01c806386cf9f14116102e5578063bc7513e21161018d578063d6d8816d116100f4578063e5f55c7e116100ad578063f35adf7e11610087578063f35adf7e14610c48578063f7a3181814610c50578063fc7b9c1814610c63578063ffbe3b7314610c6b5761059b565b8063e5f55c7e14610c0f578063eeaca09b14610c22578063f1b7cf4914610c355761059b565b8063d6d8816d14610ba2578063d83d3ed514610bb5578063d8f5413814610bc8578063dd62ed3e14610bdb578063dde74dc314610be9578063e0abdf6614610bfc5761059b565b8063cb0fbc7111610146578063cb0fbc7114610b3b578063cc8d823c14610b4e578063cf02377914610b61578063d53c6f5f14610b69578063d60b347f14610b7c578063d6a9cf0814610b8f5761059b565b8063bc7513e214610ac9578063c1410c0214610adc578063c2aeb5fe14610aef578063c34eee6514610b02578063c45a3e0a14610b15578063c9aff70c14610b285761059b565b8063a00e14d11161024c578063a9b3cf1511610205578063b11ee0e3116101df578063b11ee0e314610a7d578063b16144a314610a90578063b32a2f9014610aa3578063bc0b1df614610ab65761059b565b8063a9b3cf1514610a44578063adbff2be14610a57578063ae5c238114610a6a5761059b565b8063a00e14d1146109f0578063a1eb31e814610a03578063a50cd8e714610a16578063a6c409f114610a29578063a6f37b5314610a31578063a9059cbb146105d35761059b565b80639a649edc1161029e5780639a649edc146109895780639b82b49b146109915780639bc289f1146109a45780639be46493146109b75780639f1a0929146109ca5780639f6e1b26146109dd5761059b565b806386cf9f14146109385780638de2e5731461094b5780638e8253881461095e578063900cf0cf1461096657806395d89b411461096e57806397a5d5b5146109765761059b565b80633fbba9a6116104485780635f14fec8116103af57806372924d2a116103685780637d8bb869116103425780637d8bb869146108f75780637dc0d1d01461090a578063825ad607146109125780638413e52a146109255761059b565b806372924d2a146108be57806375d5024b146108d15780637cb95a32146108e45761059b565b80635f14fec814610857578063646680221461086a5780636a39e3281461087d5780636b862d661461089057806370a08231146108a357806371c511eb146108b65761059b565b80635053e461116104015780635053e461146107f957806351adeb571461080157806351bf21d814610816578063520acb76146108295780635c60da1b1461083c5780635dbf800a146108445761059b565b80633fbba9a6146107905780633fd4973c146107b0578063416a23cc146107c357806343873526146107cb57806344d96e95146107de5780634c736099146107e65761059b565b806320f6bc90116105075780632f7f889e116104c0578063353a420c1161049a578063353a420c146107445780633a3e6c81146107575780633dc905c71461076a5780633f7bcaf31461077d5761059b565b80632f7f889e14610709578063313ce5671461071c57806332347422146107315761059b565b806320f6bc901461069757806323b872dd146106aa57806324772c04146106bd578063259f7adf146106d0578063277805a9146106e35780632d7f23b3146106f65761059b565b806315e14bf61161055957806315e14bf61461063957806316f0115b1461064c57806318160ddd146106615780631a08e22a146106695780631edbcf6c1461067c5780631fac9732146106845761059b565b80625edd37146105a057806306fdde03146105b5578063095ea7b3146105d35780630dc6d3a3146105f357806310e95b6c146106065780631550ec2414610626575b600080fd5b6105b36105ae366004613cd7565b610c7e565b005b6105bd610da1565b6040516105ca9190614245565b60405180910390f35b6105e66105e1366004613d38565b610dd8565b6040516105ca919061421b565b6105b3610601366004613c59565b610de1565b610619610614366004613e55565b610e2a565b6040516105ca91906142b6565b6105e6610634366004613e55565b610e42565b610619610647366004613b71565b610e5c565b610654610e7a565b6040516105ca91906141ca565b610619610e89565b6105b3610677366004613ee7565b610e8f565b610619610e9d565b6105b3610692366004613e55565b610ea3565b6105b36106a5366004613d38565b610eaf565b6105e66106b8366004613c16565b610eb9565b6105e66106cb366004613f06565b610ec3565b6105b36106de366004613e55565b6110fb565b6105b36106f1366004613d38565b611104565b610619610704366004613e55565b611190565b6105b3610717366004613d38565b6111a5565b610724611225565b6040516105ca9190614307565b6105b361073f366004613e91565b61122a565b610619610752366004613b71565b61126a565b6105e6610765366004613b71565b611288565b610619610778366004613e55565b6112a5565b6105b361078b366004613c16565b6112bb565b6107a361079e366004613b8f565b6112c6565b6040516105ca9190614237565b6105b36107be366004613d68565b6112f9565b6105b3611340565b6105b36107d9366004613e55565b61134a565b610619611353565b6106196107f4366004613ee7565b611359565b610619611389565b6108096113ac565b6040516105ca9190614229565b610619610824366004613b71565b6113bb565b610619610837366004613e55565b6113d9565b6106546113ee565b6105b3610852366004613e55565b611413565b6105b3610865366004613d38565b61141c565b610619610878366004613b71565b611426565b61061961088b366004613e55565b611444565b6105b361089e366004613dd0565b611459565b6106196108b1366004613b71565b611464565b6105b3611482565b6105b36108cc366004613e91565b61148a565b6105e66108df366004613e55565b6114ca565b6105b36108f2366004613d68565b6114dd565b610619610905366004613e55565b61151e565b610809611533565b610619610920366004613b71565b611542565b6105b3610933366004613bc9565b61158e565b610619610946366004613b71565b611599565b6105b3610959366004613e55565b6115b4565b6106196115bd565b6106196115c3565b6105bd6115c9565b6107a3610984366004613b71565b6115e7565b61061961164c565b6105b361099f366004613e91565b611652565b6106196109b2366004613b71565b611692565b6105b36109c5366004613b71565b6116b0565b6106196109d8366004613e55565b6116b9565b6106196109eb366004613b8f565b6116ce565b6105b36109fe366004613ee7565b6116fd565b610619610a11366004613ee7565b611708565b610619610a24366004613b71565b61182e565b610619611845565b6105b3610a3f366004613b71565b6118db565b6105b3610a52366004613e55565b6118e4565b6105b3610a65366004613d68565b6118ed565b6105b3610a78366004613d38565b61192e565b6105b3610a8b366004613d38565b611938565b6105b3610a9e366004613e55565b611942565b6105b3610ab1366004613d68565b611955565b6105b3610ac4366004613f06565b611996565b610619610ad7366004613d38565b611aca565b6105b3610aea366004613b8f565b611b0e565b6105b3610afd366004613e02565b611b18565b610619610b10366004613e55565b611b5a565b6105b3610b23366004613d38565b611b6f565b610619610b36366004613e55565b611b79565b610619610b49366004613e55565b611b8e565b6105b3610b5c366004613d38565b611ba3565b610619611bad565b610619610b77366004613e55565b611bb3565b6105e6610b8a366004613b71565b611bc8565b6105b3610b9d366004613ee7565b611be9565b6105b3610bb0366004613e55565b611ce5565b6105b3610bc3366004613d38565b611cee565b610619610bd6366004613e55565b611cf8565b6106196105e1366004613b8f565b610619610bf7366004613e55565b611d83565b6105b3610c0a366004613e55565b611d98565b610619610c1d366004613e55565b611d9d565b610619610c30366004613e55565b611e6b565b610619610c43366004613b71565b611e80565b6105b3611e9b565b6105b3610c5e366004613d38565b611ea3565b610619611ead565b610619610c79366004613e55565b611eb3565b6001600160a01b038416610cad5760405162461bcd60e51b8152600401610ca490614296565b60405180910390fd5b6001600160a01b038316610cd35760405162461bcd60e51b8152600401610ca490614266565b610cf78483836040518060600160405280602381526020016143e860239139611ec5565b610d02838383611f70565b336001600160a01b03851614801590610d265750600019610d2385336116ce565b14155b15610d4f57610d4f84338360405180606001604052806024815260200161440b60249139612017565b81836001600160a01b0316856001600160a01b03167f0f1dbb1ccbe57a1590c7baad7b01d581b730c9ebc535dcde4345e6db424063d884604051610d9391906142b6565b60405180910390a450505050565b60408051808201909152601881527f44796e616d69632053657420446f6c6c6172205374616b650000000000000000602082015290565b60005b92915050565b610e2385858585858080601f01602080910402602001604051908101604052809392919081815260200183838082843760009201919091525061201792505050565b5050505050565b6000818152600e60205260409020600201545b919050565b6000610e4d82612088565b54610100900460ff1692915050565b6001600160a01b03166000908152600f602052604090206001015490565b600c546001600160a01b031690565b60045490565b610e99828261209c565b5050565b60075490565b610eac816120ce565b50565b610e998282612115565b60005b9392505050565b6000610efc600085116513585c9ad95d60d21b7f4d7573742068617665206e6f6e2d7a65726f20657870697279000000000000006121bd565b610f33600084116513585c9ad95d60d21b7f4d75737420626964206e6f6e2d7a65726f20616d6f756e7400000000000000006121bd565b610f6a600083116513585c9ad95d60d21b7f4d75737420626964206f6e206e6f6e2d7a65726f20616d6f756e7400000000006121bd565b610f9a83610f76611ead565b10156513585c9ad95d60d21b6e139bdd08195b9bdd59da081919589d608a1b6121bd565b610fd7610fa73385612212565b6513585c9ad95d60d21b7f4d757374206861766520656e6f75676820696e206163636f756e7400000000006121bd565b6000610fe9838563ffffffff6122ad16565b90506000610ff56122ef565b9050611027828210156513585c9ad95d60d21b75135d5cdd081899481d5b99195c881b585e165a595b1960521b6121bd565b6000611041876110356115c3565b9063ffffffff6122f516565b905061105b611056868863ffffffff6122ad16565b61231a565b611064866123b0565b61106d81612446565b6110816110786115c3565b338989896124dc565b6110a261108c6115c3565b61109c6110976115c3565b61253a565b3361254f565b6110aa61258b565b80336001600160a01b03167f9f5acf79fa92396b7f3cb679d46ed617794dc8709703e9111f1092168203010288886040516110e69291906142c4565b60405180910390a35060019695505050505050565b610eac816125b3565b61110c6113ac565b6001600160a01b03166340c10f1983836040518363ffffffff1660e01b8152600401611139929190614200565b602060405180830381600087803b15801561115357600080fd5b505af1158015611167573d6000803e3d6000fd5b505050506040513d601f19601f8201168201806040525061118b9190810190613e37565b505050565b6000908152600e60205260409020600a015490565b6001600160a01b0382166111cb5760405162461bcd60e51b8152600401610ca490614286565b6111d63383836125cc565b816001600160a01b0316336001600160a01b03167f8ff27e6b95060c1ca851e7c2c28af8b413eb1a8bcb637b0290da9543a709cce38360405161121991906142b6565b60405180910390a35050565b601290565b61118b8383838080601f0160208091040260200160405190810160405280939291908181526020018383808284376000920191909152506125fc92505050565b6001600160a01b03166000908152600f602052604090206003015490565b6001600160a01b03166000908152600f6020526040902054151590565b6000908152600e60208190526040909120015490565b61118b8383836125cc565b6001600160a01b038082166000908152600f60209081526040808320938616835260049093019052205460ff1692915050565b61133a848484848080601f01602080910402602001604051908101604052809392919081815260200183838082843760009201919091525061261792505050565b50505050565b611348612668565b565b610eac816126c7565b60055490565b6000828152600e6020526040812060030180548390811061137657fe5b9060005260206000200154905092915050565b6000611393613abd565b61139b6126db565b90506113a68161270a565b91505090565b600a546001600160a01b031690565b6001600160a01b03166000908152600d602052604090206004015490565b6000908152600e602052604090206010015490565b7f360894a13ba1a3210667c828492db98dca3e2076cc3735a920a3ca505d382bbc5490565b610eac8161272c565b610e9982826127b3565b6001600160a01b03166000908152600f602052604090206002015490565b6000908152600e602052604090206003015490565b61118b838383611f70565b6001600160a01b03166000908152600d602052604090206001015490565b6113486128c4565b61118b8383838080601f0160208091040260200160405190810160405280939291908181526020018383808284376000920191909152506128eb92505050565b60006114d4612906565b90911115919050565b61133a848484848080601f01602080910402602001604051908101604052809392919081815260200183838082843760009201919091525061290b92505050565b6000908152600e602052604090206012015490565b600b546001600160a01b031690565b60008061154d610e89565b90508061155e576000915050610e3d565b610ebc8161158261156e86611464565b611576611353565b9063ffffffff61295c16565b9063ffffffff6122ad16565b61118b838383612996565b6001600160a01b03166000908152600d602052604090205490565b610eac816129e0565b60035490565b60025490565b6040805180820190915260048152634453445360e01b602082015290565b60006115f16115c3565b6001600160a01b0383166000908152600d6020526040902060050154111561161b57506002610e3d565b6001600160a01b0382166000908152600d602052604090206004015461163f6115c3565b1015610dd8576001610ddb565b60095490565b61118b8383838080601f0160208091040260200160405190810160405280939291908181526020018383808284376000920191909152506129f992505050565b6001600160a01b03166000908152600d602052604090206005015490565b610eac81612a14565b6000908152600e60205260409020600d015490565b6001600160a01b039182166000908152600d602090815260408083209390941682526003909201909152205490565b600091909155600155565b6000806117136126db565b60400151428161171f57fe5b06905060008461172d6115c3565b039050600061173a612a3e565b82611743612a3e565b0361174c612a44565b028161175457fe5b0490508083111561176b5760009350505050610ddb565b611773613ade565b6117c660405180602001604052808561178a612a3e565b038152506117ba60405180602001604052806117a4612a3e565b90526117ae612a4a565b9063ffffffff612a6c16565b9063ffffffff612aa316565b90506117d0613ade565b604080516020808201835287860382528251908101909252848252611800916117ba90859063ffffffff612a6c16565b6040805160208101909152888152909150611821908263ffffffff612aa316565b5198975050505050505050565b6000610ddb61183c8361126a565b61103584611426565b60006118d6611852611ead565b61185a6113ac565b6001600160a01b03166318160ddd6040518163ffffffff1660e01b815260040160206040518083038186803b15801561189257600080fd5b505afa1580156118a6573d6000803e3d6000fd5b505050506040513d601f19601f820116820180604052506118ca9190810190613e73565b9063ffffffff612ad116565b905090565b610eac81612b13565b610eac81612b3a565b61133a848484848080601f016020809104026020016040519081016040528093929190818152602001838380828437600092019190915250612b7d92505050565b610e998282612c28565b610e998282612cc4565b610eac611950826064612d20565b612d46565b61133a848484848080601f016020809104026020016040519081016040528093929190818152602001838380828437600092019190915250612e0b92505050565b60026119a4846118ca6115c3565b10156119c25760405162461bcd60e51b8152600401610ca4906142a6565b6119e63384846040518060600160405280602381526020016143e860239139611ec5565b60006119f28484611708565b9050808303611a2e838210156513585c9ad95d60d21b7f496e73756666696369656e74206f757470757420616d6f756e740000000000006121bd565b611a383382612e6a565b8115611a815784336001600160a01b03167f1cd1213d4276c260e84170b4a39025dc8398fbf744edee0709261769b456b94b84604051611a7891906142b6565b60405180910390a35b84336001600160a01b03167f46e9903ae8ac9e9f0c9bc321b05965c1c036e7d4783758703f5cdfc4133c51b683604051611abb91906142b6565b60405180910390a35050505050565b6000611ad582611b79565b611ae157506000610ddb565b506001600160a01b03919091166000908152600d6020908152604080832093835260029093019052205490565b610e998282612f14565b610e2385858585858080601f016020809104026020016040519081016040528093929190818152602001838380828437600092019190915250611ec592505050565b6000908152600e602052604090206011015490565b610e998282612e6a565b6000908152600e602052604090206001015490565b6000908152600e602052604090206013015490565b610e998282612f74565b60065490565b6000908152600e60205260409020600f015490565b6001600160a01b03166000908152600f602052604090206005015460ff1690565b6002611bf7836118ca6115c3565b1015611c155760405162461bcd60e51b8152600401610ca4906142a6565b611c393383836040518060600160405280602381526020016143e860239139611ec5565b6000611c458383611708565b9050808203611c543382612e6a565b8115611c9d5783336001600160a01b03167f1cd1213d4276c260e84170b4a39025dc8398fbf744edee0709261769b456b94b84604051611c9491906142b6565b60405180910390a35b83336001600160a01b03167f46e9903ae8ac9e9f0c9bc321b05965c1c036e7d4783758703f5cdfc4133c51b683604051611cd791906142b6565b60405180910390a350505050565b610eac81612fc3565b610e998282612fdc565b6000610ddb611d056113ac565b6001600160a01b03166318160ddd6040518163ffffffff1660e01b815260040160206040518083038186803b158015611d3d57600080fd5b505afa158015611d51573d6000803e3d6000fd5b505050506040513d601f19601f82011682018060405250611d759190810190613e73565b611d7d611ead565b84613008565b6000908152600e60205260409020600c015490565b601055565b6000611dd6600083116513585c9ad95d60d21b7f4d757374207075726368617365206e6f6e2d7a65726f20616d6f756e740000006121bd565b611de282610f76611ead565b6000611dec6115c3565b90506000611e09611dfc85611cf8565b859063ffffffff6122f516565b9050611e1533856127b3565b611e20338383611f70565b81336001600160a01b03167fbce252db29f761f815dc2e9ea60005af065efba6eb619d2a0b2a113fdeb614148684604051611e5c9291906142c4565b60405180910390a39392505050565b6000908152600e60205260409020600b015490565b6001600160a01b03166000908152600f602052604090205490565b611348613030565b610e998282613049565b60085490565b6000908152600e602052604090205490565b6001600160a01b0384166000908152600d60209081526040808320868452600201909152902054611efd90838363ffffffff61309816565b6001600160a01b0385166000908152600d60209081526040808320878452600201825280832093909355600e90522060010154611f4190838363ffffffff61309816565b6000848152600e6020526040902060010155600954611f6790838363ffffffff61309816565b60095550505050565b6001600160a01b0383166000908152600d60209081526040808320858452600201909152902054611fa7908263ffffffff6122f516565b6001600160a01b0384166000908152600d60209081526040808320868452600201825280832093909355600e90522060010154611fea908263ffffffff6122f516565b6000838152600e602052604090206001015560095461200f908263ffffffff6122f516565b600955505050565b6001600160a01b038085166000908152600d60209081526040808320938716835260039093019052205461205290838363ffffffff61309816565b6001600160a01b039485166000908152600d60209081526040808320969097168252600390950190945293909220929092555050565b6000908152600e6020526040902060040190565b6000828152600e6020908152604080832060020184905592825291812060030180546001810182559082529190200155565b61210d816040518060400160405280601c81526020017f436f6d7074726f6c6c65723a206e6f7420656e6f7567682064656274000000008152506128eb565b610eac6130c4565b61211d6113ac565b6001600160a01b03166340c10f1983836040518363ffffffff1660e01b815260040161214a929190614200565b602060405180830381600087803b15801561216457600080fd5b505af1158015612178573d6000803e3d6000fd5b505050506040513d601f19601f8201168201806040525061219c9190810190613e37565b506121a86108df6115c3565b6121b5576121b5816126c7565b610e996130c4565b8261118b576121cb82613197565b6101d160f51b6121da83613197565b6040516020016121ec93929190614199565b60408051601f198184030181529082905262461bcd60e51b8252610ca491600401614245565b60006122218261103585611542565b6122296113ac565b6001600160a01b03166370a08231856040518263ffffffff1660e01b815260040161225491906141ca565b60206040518083038186803b15801561226c57600080fd5b505afa158015612280573d6000803e3d6000fd5b505050506040513d601f19601f820116820180604052506122a49190810190613e73565b10159392505050565b6000610ebc83836040518060400160405280601a81526020017f536166654d6174683a206469766973696f6e206279207a65726f000000000000815250613217565b6107d090565b600082820183811015610ebc5760405162461bcd60e51b8152600401610ca490614256565b600e60006123266115c3565b8152602001908152602001600020600401600401548111156123645780600e600061234f6115c3565b81526020810191909152604001600020600801555b80600e60006123716115c3565b8152602001908152602001600020600401600301541115610eac5780600e60006123996115c3565b815260208101919091526040016000206007015550565b600e60006123bc6115c3565b8152602001908152602001600020600401601101548111156123fa5780600e60006123e56115c3565b81526020810191909152604001600020601501555b600e60006124066115c3565b815260200190815260200160002060040160100154811015610eac5780600e600061242f6115c3565b815260208101919091526040016000206014015550565b600e60006124526115c3565b8152602001908152602001600020600401600201548111156124905780600e600061247b6115c3565b81526020810191909152604001600020600601555b600e600061249c6115c3565b815260200190815260200160002060040160010154811015610eac5780600e60006124c56115c3565b815260208101919091526040016000206005015550565b6000948552600e602090815260408087206001600160a01b039690961680885260189096019091529094206004810192909255600182015560028101929092558154640100000000600160c01b031916640100000000909102179055565b6000908152600e602052604090206009015490565b6000928352600e6020908152604080852093855260169093019052912080546001600160a01b0319166001600160a01b03909216919091179055565b600e60006125976115c3565b8152602081019190915260400160002060090180546001019055565b6005546125c6908263ffffffff6122f516565b60055550565b6001600160a01b039283166000908152600d60209081526040808320949095168252600390930190925291902055565b60075461261090838363ffffffff61309816565b6007555050565b6001600160a01b0383166000908152600f602052604090206003015461264490838363ffffffff61309816565b6001600160a01b039093166000908152600f60205260409020600301929092555050565b60005b61267661088b6115c3565b81101561269e5761269661269161268b6115c3565b83611359565b61324e565b60010161266b565b5060006126b46126ac612a3e565b6110356115c3565b9050610eac6126c16115c3565b8261209c565b6126d0816129e0565b61210d6119506132fa565b6126e3613abd565b604051806060016040528060008152602001635fbef0008152602001611c20815250905090565b6000610ddb8260000151611035846040015161158286602001516118ca61331c565b6127346113ac565b6001600160a01b03166342966c68826040518263ffffffff1660e01b815260040161275f91906142b6565b600060405180830381600087803b15801561277957600080fd5b505af115801561278d573d6000803e3d6000fd5b5050505061210d816040518060600160405280602a8152602001614457602a91396125fc565b6127bb6113ac565b6001600160a01b03166323b872dd8330846040518463ffffffff1660e01b81526004016127ea939291906141d8565b602060405180830381600087803b15801561280457600080fd5b505af1158015612818573d6000803e3d6000fd5b505050506040513d601f19601f8201168201806040525061283c9190810190613e37565b506128456113ac565b6001600160a01b03166342966c68826040518263ffffffff1660e01b815260040161287091906142b6565b600060405180830381600087803b15801561288a57600080fd5b505af115801561289e573d6000803e3d6000fd5b505050506121b58160405180606001604052806028815260200161442f602891396128eb565b6128cc610e89565b600e60006128d86115c3565b8152602081019190915260400160002055565b6008546128ff90838363ffffffff61309816565b6008555050565b609690565b6001600160a01b0383166000908152600f602052604090206002015461293890838363ffffffff61309816565b6001600160a01b039093166000908152600f60205260409020600201929092555050565b60008261296b57506000610ddb565b8282028284828161297857fe5b0414610ebc5760405162461bcd60e51b8152600401610ca490614276565b6001600160a01b038083166000908152600f6020908152604080832093871683526004909301905220805482919060ff191660018360028111156129d657fe5b0217905550505050565b6008546129f3908263ffffffff6122f516565b60085550565b600554612a0d90838363ffffffff61309816565b6005555050565b612a1f6126ac613322565b6001600160a01b039091166000908152600d6020526040902060040155565b61016890565b610e1090565b612a52613ade565b5060408051602081019091526706f05b59d3b20000815290565b612a74613ade565b6040518060200160405280612a9a8560000151670de0b6b3a76400008660000151613327565b90529392505050565b612aab613ade565b6040518060200160405280612a9a85600001518560000151670de0b6b3a7640000613327565b6000610ebc83836040518060400160405280601e81526020017f536166654d6174683a207375627472616374696f6e206f766572666c6f770000815250613098565b6001600160a01b03166000908152600f60205260409020600501805460ff19166001179055565b6000612b4582611b79565b905080612b525750610eac565b600954612b65908263ffffffff612ad116565b600955506000908152600e6020526040812060010155565b6001600160a01b0383166000908152600d6020526040902060010154612baa90838363ffffffff61309816565b6001600160a01b0384166000908152600d6020526040902060010155600454612bda90838363ffffffff61309816565b6004556040516000906001600160a01b038516907fddf252ad1be2c89b69c2b068fc378daa952ba7f163c4a11628f55a4df523b3ef90612c1b9086906142b6565b60405180910390a3505050565b6001600160a01b0382166000908152600d6020526040902060010154612c54908263ffffffff6122f516565b6001600160a01b0383166000908152600d6020526040902060010155600454612c83908263ffffffff6122f516565b6004556040516001600160a01b038316906000907fddf252ad1be2c89b69c2b068fc378daa952ba7f163c4a11628f55a4df523b3ef906112199085906142b6565b6001600160a01b0382166000908152600d6020526040902054612ced908263ffffffff6122f516565b6001600160a01b0383166000908152600d6020526040902055600654612d19908263ffffffff6122f516565b6006555050565b612d28613ade565b6040518060200160405280612a9a85670de0b6b3a764000086613327565b6000612dd8612dd3612d566113ac565b6001600160a01b03166318160ddd6040518163ffffffff1660e01b815260040160206040518083038186803b158015612d8e57600080fd5b505afa158015612da2573d6000803e3d6000fd5b505050506040513d601f19601f82011682018060405250612dc69190810190613e73565b849063ffffffff61333d16565b613364565b90506000612de4611ead565b90508181111561118b576000612e00828463ffffffff612ad116565b905061133a816120ce565b6001600160a01b0383166000908152600d6020526040902054612e3590838363ffffffff61309816565b6001600160a01b0384166000908152600d6020526040902055600654612e6290838363ffffffff61309816565b600655505050565b612e726113ac565b6001600160a01b031663a9059cbb83836040518363ffffffff1660e01b8152600401612e9f929190614200565b602060405180830381600087803b158015612eb957600080fd5b505af1158015612ecd573d6000803e3d6000fd5b505050506040513d601f19601f82011682018060405250612ef19190810190613e37565b506121b5816040518060600160405280602a8152602001614457602a91396125fc565b6001600160a01b0382166000908152600d602052604081206005015490612f46612f3d84610e5c565b61103585611e80565b90508181111561133a576001600160a01b0384166000908152600d6020526040902060050181905550505050565b6001600160a01b0382166000908152600f6020526040902060030154612fa0908263ffffffff6122f516565b6001600160a01b039092166000908152600f602052604090206003019190915550565b600754612fd6908263ffffffff6122f516565b60075550565b612fe46115c3565b6001600160a01b039092166000908152600f60205260409020918255600190910155565b6000613028612dd38361301c878787613381565b9063ffffffff61333d16565b949350505050565b60025461304490600163ffffffff6122f516565b600255565b6001600160a01b0382166000908152600f6020526040902060020154613075908263ffffffff6122f516565b6001600160a01b039092166000908152600f602052604090206002019190915550565b600081848411156130bc5760405162461bcd60e51b8152600401610ca49190614245565b505050900390565b6113486130e56130d2610e9d565b6110356130dd611bad565b611035611353565b6130ed6113ac565b6001600160a01b03166370a08231306040518263ffffffff1660e01b815260040161311891906141ca565b60206040518083038186803b15801561313057600080fd5b505afa158015613144573d6000803e3d6000fd5b505050506040513d601f19601f820116820180604052506131689190810190613e73565b10156a21b7b6b83a3937b63632b960a91b74496e636f6e73697374656e742062616c616e63657360581b6121bd565b606080826040516020016131ab9190614184565b60408051601f19818403018152919052905060205b8015613200578151600019909101908290829081106131db57fe5b01602001516001600160f81b031916156131fb5760010181529050610e3d565b6131c0565b505060408051600081526020810190915292915050565b600081836132385760405162461bcd60e51b8152600401610ca49190614245565b50600083858161324457fe5b0495945050505050565b600061325982611b79565b90506000808061326885612b3a565b6000613272610e9d565b9050600061327e61164c565b9050808211156132b357613298828263ffffffff612ad116565b94506132a38561272c565b6132ac856134ee565b9095509350505b867f753df65b37159bf237ae1fca97ba1bd57cf83bc9498f271a514a4d7bafe87bda878787876040516132e994939291906142d2565b60405180910390a250505050505050565b613302613ade565b5060408051602081019091526704db732547630000815290565b60105490565b602490565b600061302882611582868663ffffffff61295c16565b613345613ade565b604080516020810190915283518190612a9a908563ffffffff61295c16565b8051600090610ddb90670de0b6b3a764000063ffffffff6122ad16565b613389613ade565b613391613ade565b61339b8486612d20565b90506133a5613ade565b6133ad6132fa565b905060006133c1878663ffffffff612ad116565b905060006133d5878763ffffffff612ad116565b90506133df613ade565b6133e98284612d20565b90506133fb858563ffffffff61365a16565b156134d757613410818563ffffffff61365a16565b1561342a5761341e84613670565b95505050505050610ebc565b613432613ade565b61343c82866136c8565b9050613446613ade565b613456868463ffffffff61372516565b9050613460613ade565b61346987613670565b9050613473613ade565b613483898963ffffffff61372516565b90506134c7613498848363ffffffff61374e16565b6117ae6134ab858563ffffffff612aa316565b6134bb888863ffffffff612aa316565b9063ffffffff61374e16565b9950505050505050505050610ebc565b6134e181866136c8565b9998505050505050505050565b60008080808080806134fe610e9d565b9050600061350a61164c565b9050808210156135c757613524818363ffffffff612ad116565b945061354c61353b6064613536613777565b612ad1565b61158287606463ffffffff61295c16565b945088851161355b578461355d565b885b945061357c606461158261356f613777565b889063ffffffff61295c16565b925061358e858463ffffffff612ad116565b94506135998361377c565b6135a285613810565b6135b2898463ffffffff612ad116565b98506135c4898663ffffffff612ad116565b98505b60006135d1611ead565b905060008a1180156135e35750600081115b15613615578981116135f557806135f7565b895b9450613602856120ce565b6136128a8663ffffffff612ad116565b99505b61361d611353565b61362657600099505b8915613635576136358a6138a1565b85856136478c8763ffffffff6122f516565b9850985098505050505050509193909250565b60006136668383613941565b6002149392505050565b613678613ade565b610ddb61368760016003612d20565b61369e6136c06136b660026136aa8861369e613973565b9063ffffffff61372516565b9063ffffffff61399516565b6117ba60036139eb565b6117ae613973565b6136d0613ade565b6136e0838363ffffffff613a1f16565b156136f5576136ee83613670565b9050610ddb565b610ebc61370460016003612d20565b61369e6136c06137168761369e613973565b6117ba6136b68861369e613973565b61372d613ade565b6040805160208101909152825184518291612a9a919063ffffffff612ad116565b613756613ade565b6040805160208101909152825184518291612a9a919063ffffffff6122f516565b602890565b8015610eac5761378a6113ac565b6001600160a01b03166340c10f196137a0610e7a565b836040518363ffffffff1660e01b81526004016137be929190614200565b602060405180830381600087803b1580156137d857600080fd5b505af11580156137ec573d6000803e3d6000fd5b505050506040513d601f19601f82011682018060405250610e999190810190613e37565b6138186113ac565b6001600160a01b03166340c10f1930836040518363ffffffff1660e01b8152600401613845929190614200565b602060405180830381600087803b15801561385f57600080fd5b505af1158015613873573d6000803e3d6000fd5b505050506040513d601f19601f820116820180604052506138979190810190613e37565b5061210d81612fc3565b6138e460006138ae611353565b116a21b7b6b83a3937b63632b960a91b7f43616e74206d696e7420746f20656d70747920706f6f6c0000000000000000006121bd565b600061390360646115826138f6613777565b859063ffffffff61295c16565b90506000818311613915576000613925565b613925838363ffffffff612ad116565b90506139308261377c565b61393981613a26565b61118b6130c4565b80518251600091141561395657506001610ddb565b8151835111613966576000613969565b60025b60ff169392505050565b61397b613ade565b506040805160208101909152670de0b6b3a7640000815290565b61399d613ade565b816139ac576136ee60016139eb565b6139b4613ade565b5060408051602081019091528351815260015b838110156139e3576139d98286612aa3565b91506001016139c7565b509392505050565b6139f3613ade565b604080516020810190915280613a1784670de0b6b3a764000063ffffffff61295c16565b905292915050565b5190511490565b8015610eac57613a346113ac565b6001600160a01b03166340c10f1930836040518363ffffffff1660e01b8152600401613a61929190614200565b602060405180830381600087803b158015613a7b57600080fd5b505af1158015613a8f573d6000803e3d6000fd5b505050506040513d601f19601f82011682018060405250613ab39190810190613e37565b50610eac816125b3565b60405180606001604052806000815260200160008152602001600081525090565b6040518060200160405280600081525090565b8035610ddb816143b4565b8051610ddb816143c8565b8035610ddb816143d1565b60008083601f840112613b2457600080fd5b50813567ffffffffffffffff811115613b3c57600080fd5b602083019150836001820283011115613b5457600080fd5b9250929050565b8035610ddb816143de565b8051610ddb816143de565b600060208284031215613b8357600080fd5b60006130288484613af1565b60008060408385031215613ba257600080fd5b6000613bae8585613af1565b9250506020613bbf85828601613af1565b9150509250929050565b600080600060608486031215613bde57600080fd5b6000613bea8686613af1565b9350506020613bfb86828701613af1565b9250506040613c0c86828701613b07565b9150509250925092565b600080600060608486031215613c2b57600080fd5b6000613c378686613af1565b9350506020613c4886828701613af1565b9250506040613c0c86828701613b5b565b600080600080600060808688031215613c7157600080fd5b6000613c7d8888613af1565b9550506020613c8e88828901613af1565b9450506040613c9f88828901613b5b565b935050606086013567ffffffffffffffff811115613cbc57600080fd5b613cc888828901613b12565b92509250509295509295909350565b60008060008060808587031215613ced57600080fd5b6000613cf98787613af1565b9450506020613d0a87828801613af1565b9350506040613d1b87828801613b5b565b9250506060613d2c87828801613b5b565b91505092959194509250565b60008060408385031215613d4b57600080fd5b6000613d578585613af1565b9250506020613bbf85828601613b5b565b60008060008060608587031215613d7e57600080fd5b6000613d8a8787613af1565b9450506020613d9b87828801613b5b565b935050604085013567ffffffffffffffff811115613db857600080fd5b613dc487828801613b12565b95989497509550505050565b600080600060608486031215613de557600080fd5b6000613df18686613af1565b9350506020613c4886828701613b5b565b600080600080600060808688031215613e1a57600080fd5b6000613e268888613af1565b9550506020613c8e88828901613b5b565b600060208284031215613e4957600080fd5b60006130288484613afc565b600060208284031215613e6757600080fd5b60006130288484613b5b565b600060208284031215613e8557600080fd5b60006130288484613b66565b600080600060408486031215613ea657600080fd5b6000613eb28686613b5b565b935050602084013567ffffffffffffffff811115613ecf57600080fd5b613edb86828701613b12565b92509250509250925092565b60008060408385031215613efa57600080fd5b6000613d578585613b5b565b600080600060608486031215613f1b57600080fd5b6000613df18686613b5b565b613f3081614322565b82525050565b613f308161432d565b613f30613f4b82614332565b61433f565b613f30613f4b8261433f565b6000613f6782614315565b613f718185610e3d565b9350613f81818560208601614374565b9290920192915050565b613f308161435e565b613f3081614369565b6000613fa882614315565b613fb28185614319565b9350613fc2818560208601614374565b613fcb816143a0565b9093019392505050565b6000613fe2601b83614319565b7f536166654d6174683a206164646974696f6e206f766572666c6f770000000000815260200192915050565b600061401b602b83614319565b7f4d61726b65743a20436f75706f6e207472616e7366657220746f20746865207a81526a65726f206164647265737360a81b602082015260400192915050565b6000614068602183614319565b7f536166654d6174683a206d756c7469706c69636174696f6e206f766572666c6f8152607760f81b602082015260400192915050565b60006140ab602a83614319565b7f4d61726b65743a20436f75706f6e20617070726f766520746f20746865207a65815269726f206164647265737360b01b602082015260400192915050565b60006140f7602d83614319565b7f4d61726b65743a20436f75706f6e207472616e736665722066726f6d2074686581526c207a65726f206164647265737360981b602082015260400192915050565b6000614146601b83614319565b7f4d61726b65743a20546f6f206561726c7920746f2072656465656d0000000000815260200192915050565b613f308161433f565b613f3081614358565b60006141908284613f50565b50602001919050565b60006141a58286613f5c565b91506141b18285613f3f565b6002820191506141c18284613f5c565b95945050505050565b60208101610ddb8284613f27565b606081016141e68286613f27565b6141f36020830185613f27565b6130286040830184614172565b6040810161420e8285613f27565b610ebc6020830184614172565b60208101610ddb8284613f36565b60208101610ddb8284613f8b565b60208101610ddb8284613f94565b60208082528101610ebc8184613f9d565b60208082528101610ddb81613fd5565b60208082528101610ddb8161400e565b60208082528101610ddb8161405b565b60208082528101610ddb8161409e565b60208082528101610ddb816140ea565b60208082528101610ddb81614139565b60208101610ddb8284614172565b6040810161420e8285614172565b608081016142e08287614172565b6142ed6020830186614172565b6142fa6040830185614172565b6141c16060830184614172565b60208101610ddb828461417b565b5190565b90815260200190565b6000610ddb8261434c565b151590565b6001600160f01b03191690565b90565b80610e3d816143aa565b6001600160a01b031690565b60ff1690565b6000610ddb82614322565b6000610ddb82614342565b60005b8381101561438f578181015183820152602001614377565b8381111561133a5750506000910152565b601f01601f191690565b60038110610eac57fe5b6143bd81614322565b8114610eac57600080fd5b6143bd8161432d565b60038110610eac57600080fd5b6143bd8161433f56fe4d61726b65743a20496e73756666696369656e7420636f75706f6e2062616c616e63654d61726b65743a20496e73756666696369656e7420636f75706f6e20617070726f76616c436f6d7074726f6c6c65723a206e6f7420656e6f756768206f75747374616e64696e672064656274436f6d7074726f6c6c65723a206e6f7420656e6f7567682072656465656d61626c652062616c616e6365a365627a7a72315820bfe357225315542b2dab997fb3c5849a6935a1bd0e96f6c398a4056d4bd4378e6c6578706572696d656e74616cf564736f6c6343000511004060806040523480156200001157600080fd5b5060405180604001604052806012815260200171223cb730b6b4b19029b2ba102237b63630b960711b815250604051806040016040528060038152602001621114d160ea1b81525060126200007e6200006f6200011960201b60201c565b6001600160e01b036200011e16565b82516200009390600190602086019062000313565b508151620000a990600290602085019062000313565b506003805460ff191660ff9290921691909117905550620001109050620000cf62000170565b604051806040016040528060018152602001603160f81b815250620000fe6200020960201b620016341760201c565b306200020e60201b620016391760201c565b60075562000469565b335b90565b620001398160006200026560201b62000d7e1790919060201c565b6040516001600160a01b038216907f6ae172837ea30b801fbfcdd4108aa1d5bf8ff775444fd70256b44e6bf3dfc3f690600090a250565b60018054604080516020601f60026000196101008789161502019095169490940493840181900481028201810190925282815260609390929091830182828015620001ff5780601f10620001d357610100808354040283529160200191620001ff565b820191906000526020600020905b815481529060010190602001808311620001e157829003601f168201915b5050505050905090565b600190565b8351602094850120835193850193909320604080517f8b73c3c69bb8fe3d512ecc4cf759cc79239f7b179b0ffacaa9a75d522b39400f815295860194909452928401929092526060830152608082015260a0902090565b6200027a82826001600160e01b03620002c816565b15620002a35760405162461bcd60e51b81526004016200029a9062000436565b60405180910390fd5b6001600160a01b0316600090815260209190915260409020805460ff19166001179055565b60006001600160a01b038216620002f35760405162461bcd60e51b81526004016200029a906200044e565b506001600160a01b03166000908152602091909152604090205460ff1690565b828054600181600116156101000203166002900490600052602060002090601f016020900481019282601f106200035657805160ff191683800117855562000386565b8280016001018555821562000386579182015b828111156200038657825182559160200191906001019062000369565b506200039492915062000398565b5090565b6200011b91905b808211156200039457600081556001016200039f565b6000620003c4601f8362000460565b7f526f6c65733a206163636f756e7420616c72656164792068617320726f6c6500815260200192915050565b6000620003ff60228362000460565b7f526f6c65733a206163636f756e7420697320746865207a65726f206164647265815261737360f01b602082015260400192915050565b602080825281016200044881620003b5565b92915050565b602080825281016200044881620003f0565b90815260200190565b61178d80620004796000396000f3fe608060405234801561001057600080fd5b506004361061012c5760003560e01c806395d89b41116100ad578063aa271e1a11610071578063aa271e1a14610256578063d505accf14610269578063dab400f31461027c578063dd62ed3e14610284578063e879c19f146102975761012c565b806395d89b411461020d578063983b2d56146102155780639865027514610228578063a457c2d714610230578063a9059cbb146102435761012c565b806339509351116100f457806339509351146101ac57806340c10f19146101bf57806342966c68146101d257806370a08231146101e757806379cc6790146101fa5761012c565b806306fdde0314610131578063095ea7b31461014f57806318160ddd1461016f57806323b872dd14610184578063313ce56714610197575b600080fd5b61013961029f565b60405161014691906114c6565b60405180910390f35b61016261015d366004610ffc565b610334565b604051610146919061141b565b610177610352565b6040516101469190611429565b610162610192366004610f13565b610358565b61019f6103ca565b6040516101469190611587565b6101626101ba366004610ffc565b6103d3565b6101626101cd366004610ffc565b610427565b6101e56101e036600461102c565b610463565b005b6101776101f5366004610eb3565b610477565b6101e5610208366004610ffc565b610496565b6101396104a4565b6101e5610223366004610eb3565b610502565b6101e5610532565b61016261023e366004610ffc565b610544565b610162610251366004610ffc565b6105b2565b610162610264366004610eb3565b6105c6565b6101e5610277366004610f60565b6105d8565b61017761075f565b610177610292366004610ed9565b610765565b610177610790565b60018054604080516020601f6002600019610100878916150201909516949094049384018190048102820181019092528281526060939092909183018282801561032a5780601f106102ff5761010080835404028352916020019161032a565b820191906000526020600020905b81548152906001019060200180831161030d57829003601f168201915b5050505050905090565b60006103486103416107b4565b84846107b8565b5060015b92915050565b60065490565b600061036584848461086c565b600019610374856102926107b4565b146103c0576103c0846103856107b4565b6103bb856040518060600160405280602981526020016116fd602991396103ae8a6102926107b4565b919063ffffffff61098216565b6107b8565b5060019392505050565b60035460ff1690565b60006103486103e06107b4565b846103bb85600560006103f16107b4565b6001600160a01b03908116825260208083019390935260409182016000908120918c16815292529020549063ffffffff6109ae16565b60006104346102646107b4565b6104595760405162461bcd60e51b815260040161045090611517565b60405180910390fd5b61034883836109da565b61047461046e6107b4565b82610a9a565b50565b6001600160a01b0381166000908152600460205260409020545b919050565b6104a08282610b70565b5050565b60028054604080516020601f600019610100600187161502019094168590049384018190048102820181019092528281526060939092909183018282801561032a5780601f106102ff5761010080835404028352916020019161032a565b61050d6102646107b4565b6105295760405162461bcd60e51b815260040161045090611517565b61047481610beb565b61054261053d6107b4565b610c33565b565b60006103486105516107b4565b846103bb85604051806060016040528060258152602001611726602591396005600061057b6107b4565b6001600160a01b03908116825260208083019390935260409182016000908120918d1681529252902054919063ffffffff61098216565b60006103486105bf6107b4565b848461086c565b600061034c818363ffffffff610c7b16565b6007546001600160a01b03881660009081526008602090815260408083208054600181019091559051929361065a93909261063f927f6e71edae12b1b97f4d1f60370fef10105fa2faae0126114a169c64845d6126c9928e928e928e9290918e9101611437565b60405160208183030381529060405280519060200120610cc3565b90506000600182868686604051600081526020016040526040516106819493929190611491565b6020604051602081039080840390855afa1580156106a3573d6000803e3d6000fd5b5050506020604051035190506106f0896001600160a01b0316826001600160a01b0316146a5065726d69747461626c6560a81b70496e76616c6964207369676e617475726560781b610ce2565b6107236001600160a01b03821615156a5065726d69747461626c6560a81b6b5a65726f206164647265737360a01b610ce2565b610749864211156a5065726d69747461626c6560a81b66115e1c1a5c995960ca1b610ce2565b6107548989896107b8565b505050505050505050565b60075481565b6001600160a01b03918216600090815260056020908152604080832093909416825291909152205490565b7f6e71edae12b1b97f4d1f60370fef10105fa2faae0126114a169c64845d6126c981565b3390565b6001600160a01b0383166107de5760405162461bcd60e51b815260040161045090611567565b6001600160a01b0382166108045760405162461bcd60e51b8152600401610450906114f7565b6001600160a01b0380841660008181526005602090815260408083209487168084529490915290819020849055517f8c5be1e5ebec7d5bd14f71427d1e84f3dd0314c0f7b2291e5b200ac8c7c3b9259061085f908590611429565b60405180910390a3505050565b6001600160a01b0383166108925760405162461bcd60e51b815260040161045090611557565b6001600160a01b0382166108b85760405162461bcd60e51b8152600401610450906114d7565b6108fb816040518060600160405280602681526020016116b3602691396001600160a01b038616600090815260046020526040902054919063ffffffff61098216565b6001600160a01b038085166000908152600460205260408082209390935590841681522054610930908263ffffffff6109ae16565b6001600160a01b0380841660008181526004602052604090819020939093559151908516907fddf252ad1be2c89b69c2b068fc378daa952ba7f163c4a11628f55a4df523b3ef9061085f908590611429565b600081848411156109a65760405162461bcd60e51b815260040161045091906114c6565b505050900390565b6000828201838110156109d35760405162461bcd60e51b815260040161045090611507565b9392505050565b6001600160a01b038216610a005760405162461bcd60e51b815260040161045090611577565b600654610a13908263ffffffff6109ae16565b6006556001600160a01b038216600090815260046020526040902054610a3f908263ffffffff6109ae16565b6001600160a01b0383166000818152600460205260408082209390935591519091907fddf252ad1be2c89b69c2b068fc378daa952ba7f163c4a11628f55a4df523b3ef90610a8e908590611429565b60405180910390a35050565b6001600160a01b038216610ac05760405162461bcd60e51b815260040161045090611547565b610b0381604051806060016040528060228152602001611691602291396001600160a01b038516600090815260046020526040902054919063ffffffff61098216565b6001600160a01b038316600090815260046020526040902055600654610b2f908263ffffffff610d3c16565b6006556040516000906001600160a01b038416907fddf252ad1be2c89b69c2b068fc378daa952ba7f163c4a11628f55a4df523b3ef90610a8e908590611429565b610b7a8282610a9a565b6104a082610b866107b4565b6103bb846040518060600160405280602481526020016116d9602491396001600160a01b038816600090815260056020526040812090610bc46107b4565b6001600160a01b03168152602081019190915260400160002054919063ffffffff61098216565b610bfc60008263ffffffff610d7e16565b6040516001600160a01b038216907f6ae172837ea30b801fbfcdd4108aa1d5bf8ff775444fd70256b44e6bf3dfc3f690600090a250565b610c4460008263ffffffff610dca16565b6040516001600160a01b038216907fe94479a9f7e1952cc78f2d6baab678adc1b772d936c6583def489e524cb6669290600090a250565b60006001600160a01b038216610ca35760405162461bcd60e51b815260040161045090611537565b506001600160a01b03166000908152602091909152604090205460ff1690565b60405161190160f01b8152600281019290925260228201526042902090565b82610d3757610cf082610e12565b6101d160f51b610cff83610e12565b604051602001610d11939291906113ea565b60408051601f198184030181529082905262461bcd60e51b8252610450916004016114c6565b505050565b60006109d383836040518060400160405280601e81526020017f536166654d6174683a207375627472616374696f6e206f766572666c6f770000815250610982565b610d888282610c7b565b15610da55760405162461bcd60e51b8152600401610450906114e7565b6001600160a01b0316600090815260209190915260409020805460ff19166001179055565b610dd48282610c7b565b610df05760405162461bcd60e51b815260040161045090611527565b6001600160a01b0316600090815260209190915260409020805460ff19169055565b60608082604051602001610e2691906113d5565b60408051601f19818403018152919052905060205b8015610e7b57815160001990910190829082908110610e5657fe5b01602001516001600160f81b03191615610e765760010181529050610491565b610e3b565b505060408051600081526020810190915292915050565b803561034c8161160e565b803561034c81611622565b803561034c8161162b565b600060208284031215610ec557600080fd5b6000610ed18484610e92565b949350505050565b60008060408385031215610eec57600080fd5b6000610ef88585610e92565b9250506020610f0985828601610e92565b9150509250929050565b600080600060608486031215610f2857600080fd5b6000610f348686610e92565b9350506020610f4586828701610e92565b9250506040610f5686828701610e9d565b9150509250925092565b600080600080600080600060e0888a031215610f7b57600080fd5b6000610f878a8a610e92565b9750506020610f988a828b01610e92565b9650506040610fa98a828b01610e9d565b9550506060610fba8a828b01610e9d565b9450506080610fcb8a828b01610ea8565b93505060a0610fdc8a828b01610e9d565b92505060c0610fed8a828b01610e9d565b91505092959891949750929550565b6000806040838503121561100f57600080fd5b600061101b8585610e92565b9250506020610f0985828601610e9d565b60006020828403121561103e57600080fd5b6000610ed18484610e9d565b611053816115a2565b82525050565b611053816115ad565b61105361106e826115b2565b6115bf565b611053816115bf565b61105361106e826115bf565b600061109382611595565b61109d8185610491565b93506110ad8185602086016115d4565b9290920192915050565b60006110c282611595565b6110cc8185611599565b93506110dc8185602086016115d4565b6110e581611604565b9093019392505050565b60006110fc602383611599565b7f45524332303a207472616e7366657220746f20746865207a65726f206164647281526265737360e81b602082015260400192915050565b6000611141601f83611599565b7f526f6c65733a206163636f756e7420616c72656164792068617320726f6c6500815260200192915050565b600061117a602283611599565b7f45524332303a20617070726f766520746f20746865207a65726f206164647265815261737360f01b602082015260400192915050565b60006111be601b83611599565b7f536166654d6174683a206164646974696f6e206f766572666c6f770000000000815260200192915050565b60006111f7603083611599565b7f4d696e746572526f6c653a2063616c6c657220646f6573206e6f74206861766581526f20746865204d696e74657220726f6c6560801b602082015260400192915050565b6000611249602183611599565b7f526f6c65733a206163636f756e7420646f6573206e6f74206861766520726f6c8152606560f81b602082015260400192915050565b600061128c602283611599565b7f526f6c65733a206163636f756e7420697320746865207a65726f206164647265815261737360f01b602082015260400192915050565b60006112d0602183611599565b7f45524332303a206275726e2066726f6d20746865207a65726f206164647265738152607360f81b602082015260400192915050565b6000611313602583611599565b7f45524332303a207472616e736665722066726f6d20746865207a65726f206164815264647265737360d81b602082015260400192915050565b600061135a602483611599565b7f45524332303a20617070726f76652066726f6d20746865207a65726f206164648152637265737360e01b602082015260400192915050565b60006113a0601f83611599565b7f45524332303a206d696e7420746f20746865207a65726f206164647265737300815260200192915050565b611053816115ce565b60006113e1828461107c565b50602001919050565b60006113f68286611088565b91506114028285611062565b6002820191506114128284611088565b95945050505050565b6020810161034c8284611059565b6020810161034c8284611073565b60c081016114458289611073565b611452602083018861104a565b61145f604083018761104a565b61146c6060830186611073565b6114796080830185611073565b61148660a0830184611073565b979650505050505050565b6080810161149f8287611073565b6114ac60208301866113cc565b6114b96040830185611073565b6114126060830184611073565b602080825281016109d381846110b7565b6020808252810161034c816110ef565b6020808252810161034c81611134565b6020808252810161034c8161116d565b6020808252810161034c816111b1565b6020808252810161034c816111ea565b6020808252810161034c8161123c565b6020808252810161034c8161127f565b6020808252810161034c816112c3565b6020808252810161034c81611306565b6020808252810161034c8161134d565b6020808252810161034c81611393565b6020810161034c82846113cc565b5190565b90815260200190565b600061034c826115c2565b151590565b6001600160f01b03191690565b90565b6001600160a01b031690565b60ff1690565b60005b838110156115ef5781810151838201526020016115d7565b838111156115fe576000848401525b50505050565b601f01601f191690565b611617816115a2565b811461047457600080fd5b611617816115bf565b611617816115ce565b600190565b8351602094850120835193850193909320604080517f8b73c3c69bb8fe3d512ecc4cf759cc79239f7b179b0ffacaa9a75d522b39400f815295860194909452928401929092526060830152608082015260a090209056fe45524332303a206275726e20616d6f756e7420657863656564732062616c616e636545524332303a207472616e7366657220616d6f756e7420657863656564732062616c616e636545524332303a206275726e20616d6f756e74206578636565647320616c6c6f77616e6365446f6c6c61723a207472616e7366657220616d6f756e74206578636565647320616c6c6f77616e636545524332303a2064656372656173656420616c6c6f77616e63652062656c6f77207a65726fa365627a7a723158201e779b4e1c38b13b186b8e27c872bf8f4ddde2582bb51d94dee84b0ab79123046c6578706572696d656e74616cf564736f6c63430005110040",
  "source": "/*\n    Copyright 2020 Dynamic Dollar Devs, based on the works of the Empty Set Squad\n\n    Licensed under the Apache License, Version 2.0 (the \"License\");\n    you may not use this file except in compliance with the License.\n    You may obtain a copy of the License at\n\n    http://www.apache.org/licenses/LICENSE-2.0\n\n    Unless required by applicable law or agreed to in writing, software\n    distributed under the License is distributed on an \"AS IS\" BASIS,\n    WITHOUT WARRANTIES OR CONDITIONS OF ANY KIND, either express or implied.\n    See the License for the specific language governing permissions and\n    limitations under the License.\n*/\n\npragma solidity ^0.5.17;\npragma experimental ABIEncoderV2;\n\nimport \"../dao/Market.sol\";\nimport \"./MockState.sol\";\nimport \"./MockComptroller.sol\";\n\ncontract MockMarket is MockState, MockComptroller, Market {\n    constructor(address pool) MockComptroller(pool) public { }\n\n    function stepE() external {\n        Market.step();\n    }\n}\n",
  "sourcePath": "/Users/cinquemb/Documents/Startups/crypto/dollar/protocol/contracts/mock/MockMarket.sol",
  "compiler": {
    "name": "solc",
    "version": "0.5.17+commit.d19bba13.Emscripten.clang"
  },
  "schemaVersion": "3.3.3",
  "updatedAt": "2021-01-15T13:20:51.447Z",
  "devdoc": {
    "methods": {}
  },
  "userdoc": {
    "methods": {
      "balanceOfStaged(address)": {
        "notice": "Account"
      },
      "createCandidateE(address,uint256)": {
        "notice": "Governance"
      },
      "dollar()": {
        "notice": "Global"
      },
      "epoch()": {
        "notice": "Epoch"
      },
      "incrementBalanceOfE(address,uint256)": {
        "notice": "Account"
      },
      "incrementTotalBondedE(uint256)": {
        "notice": "Global"
      },
      "name()": {
        "notice": "ERC20 Interface"
      },
      "recordedVote(address,address)": {
        "notice": "Governance"
      },
      "setBlockTimestamp(uint256)": {
        "notice": "Mock"
      },
      "setEpochParamsE(uint256,uint256)": {
        "notice": "Epoch"
      },
      "transfer(address,uint256)": {
        "notice": "ERC20 Interface"
      }
    }
  }
}