{
  "contractName": "MockBonding",
  "abi": [
    {
      "inputs": [],
      "payable": false,
      "stateMutability": "nonpayable",
      "type": "constructor"
    },
    {
      "anonymous": false,
      "inputs": [
        {
          "indexed": true,
          "internalType": "address",
          "name": "account",
          "type": "address"
        },
        {
          "indexed": false,
          "internalType": "uint256",
          "name": "start",
          "type": "uint256"
        },
        {
          "indexed": false,
          "internalType": "uint256",
          "name": "value",
          "type": "uint256"
        },
        {
          "indexed": false,
          "internalType": "uint256",
          "name": "valueUnderlying",
          "type": "uint256"
        }
      ],
      "name": "Bond",
      "type": "event"
    },
    {
      "anonymous": false,
      "inputs": [
        {
          "indexed": true,
          "internalType": "address",
          "name": "account",
          "type": "address"
        },
        {
          "indexed": false,
          "internalType": "uint256",
          "name": "value",
          "type": "uint256"
        }
      ],
      "name": "Deposit",
      "type": "event"
    },
    {
      "anonymous": false,
      "inputs": [
        {
          "indexed": true,
          "internalType": "address",
          "name": "from",
          "type": "address"
        },
        {
          "indexed": true,
          "internalType": "address",
          "name": "to",
          "type": "address"
        },
        {
          "indexed": false,
          "internalType": "uint256",
          "name": "value",
          "type": "uint256"
        }
      ],
      "name": "Transfer",
      "type": "event"
    },
    {
      "anonymous": false,
      "inputs": [
        {
          "indexed": true,
          "internalType": "address",
          "name": "account",
          "type": "address"
        },
        {
          "indexed": false,
          "internalType": "uint256",
          "name": "start",
          "type": "uint256"
        },
        {
          "indexed": false,
          "internalType": "uint256",
          "name": "value",
          "type": "uint256"
        },
        {
          "indexed": false,
          "internalType": "uint256",
          "name": "valueUnderlying",
          "type": "uint256"
        }
      ],
      "name": "Unbond",
      "type": "event"
    },
    {
      "anonymous": false,
      "inputs": [
        {
          "indexed": true,
          "internalType": "address",
          "name": "account",
          "type": "address"
        },
        {
          "indexed": false,
          "internalType": "uint256",
          "name": "value",
          "type": "uint256"
        }
      ],
      "name": "Withdraw",
      "type": "event"
    },
    {
      "constant": true,
      "inputs": [
        {
          "internalType": "address",
          "name": "owner",
          "type": "address"
        },
        {
          "internalType": "address",
          "name": "spender",
          "type": "address"
        }
      ],
      "name": "allowance",
      "outputs": [
        {
          "internalType": "uint256",
          "name": "",
          "type": "uint256"
        }
      ],
      "payable": false,
      "stateMutability": "view",
      "type": "function"
    },
    {
      "constant": true,
      "inputs": [
        {
          "internalType": "address",
          "name": "owner",
          "type": "address"
        },
        {
          "internalType": "address",
          "name": "spender",
          "type": "address"
        }
      ],
      "name": "allowanceCoupons",
      "outputs": [
        {
          "internalType": "uint256",
          "name": "",
          "type": "uint256"
        }
      ],
      "payable": false,
      "stateMutability": "view",
      "type": "function"
    },
    {
      "constant": false,
      "inputs": [
        {
          "internalType": "address",
          "name": "spender",
          "type": "address"
        },
        {
          "internalType": "uint256",
          "name": "amount",
          "type": "uint256"
        }
      ],
      "name": "approve",
      "outputs": [
        {
          "internalType": "bool",
          "name": "",
          "type": "bool"
        }
      ],
      "payable": false,
      "stateMutability": "nonpayable",
      "type": "function"
    },
    {
      "constant": true,
      "inputs": [
        {
          "internalType": "address",
          "name": "candidate",
          "type": "address"
        }
      ],
      "name": "approveFor",
      "outputs": [
        {
          "internalType": "uint256",
          "name": "",
          "type": "uint256"
        }
      ],
      "payable": false,
      "stateMutability": "view",
      "type": "function"
    },
    {
      "constant": true,
      "inputs": [
        {
          "internalType": "address",
          "name": "account",
          "type": "address"
        }
      ],
      "name": "balanceOf",
      "outputs": [
        {
          "internalType": "uint256",
          "name": "",
          "type": "uint256"
        }
      ],
      "payable": false,
      "stateMutability": "view",
      "type": "function"
    },
    {
      "constant": true,
      "inputs": [
        {
          "internalType": "address",
          "name": "account",
          "type": "address"
        }
      ],
      "name": "balanceOfBonded",
      "outputs": [
        {
          "internalType": "uint256",
          "name": "",
          "type": "uint256"
        }
      ],
      "payable": false,
      "stateMutability": "view",
      "type": "function"
    },
    {
      "constant": true,
      "inputs": [
        {
          "internalType": "address",
          "name": "account",
          "type": "address"
        },
        {
          "internalType": "uint256",
          "name": "epoch",
          "type": "uint256"
        }
      ],
      "name": "balanceOfCoupons",
      "outputs": [
        {
          "internalType": "uint256",
          "name": "",
          "type": "uint256"
        }
      ],
      "payable": false,
      "stateMutability": "view",
      "type": "function"
    },
    {
      "constant": true,
      "inputs": [
        {
          "internalType": "address",
          "name": "account",
          "type": "address"
        }
      ],
      "name": "balanceOfStaged",
      "outputs": [
        {
          "internalType": "uint256",
          "name": "",
          "type": "uint256"
        }
      ],
      "payable": false,
      "stateMutability": "view",
      "type": "function"
    },
    {
      "constant": false,
      "inputs": [
        {
          "internalType": "uint256",
          "name": "value",
          "type": "uint256"
        }
      ],
      "name": "bond",
      "outputs": [],
      "payable": false,
      "stateMutability": "nonpayable",
      "type": "function"
    },
    {
      "constant": true,
      "inputs": [
        {
          "internalType": "uint256",
          "name": "epoch",
          "type": "uint256"
        }
      ],
      "name": "bootstrappingAt",
      "outputs": [
        {
          "internalType": "bool",
          "name": "",
          "type": "bool"
        }
      ],
      "payable": false,
      "stateMutability": "view",
      "type": "function"
    },
    {
      "constant": false,
      "inputs": [
        {
          "internalType": "address",
          "name": "account",
          "type": "address"
        },
        {
          "internalType": "uint256",
          "name": "amount",
          "type": "uint256"
        }
      ],
      "name": "burnFromAccountE",
      "outputs": [],
      "payable": false,
      "stateMutability": "nonpayable",
      "type": "function"
    },
    {
      "constant": false,
      "inputs": [
        {
          "internalType": "uint256",
          "name": "amount",
          "type": "uint256"
        }
      ],
      "name": "burnRedeemableE",
      "outputs": [],
      "payable": false,
      "stateMutability": "nonpayable",
      "type": "function"
    },
    {
      "constant": true,
      "inputs": [
        {
          "internalType": "uint256",
          "name": "epoch",
          "type": "uint256"
        }
      ],
      "name": "couponsExpiration",
      "outputs": [
        {
          "internalType": "uint256",
          "name": "",
          "type": "uint256"
        }
      ],
      "payable": false,
      "stateMutability": "view",
      "type": "function"
    },
    {
      "constant": false,
      "inputs": [
        {
          "internalType": "address",
          "name": "candidate",
          "type": "address"
        },
        {
          "internalType": "uint256",
          "name": "period",
          "type": "uint256"
        }
      ],
      "name": "createCandidateE",
      "outputs": [],
      "payable": false,
      "stateMutability": "nonpayable",
      "type": "function"
    },
    {
      "constant": true,
      "inputs": [],
      "name": "decimals",
      "outputs": [
        {
          "internalType": "uint8",
          "name": "",
          "type": "uint8"
        }
      ],
      "payable": false,
      "stateMutability": "view",
      "type": "function"
    },
    {
      "constant": false,
      "inputs": [
        {
          "internalType": "uint256",
          "name": "amount",
          "type": "uint256"
        }
      ],
      "name": "decreaseDebtE",
      "outputs": [],
      "payable": false,
      "stateMutability": "nonpayable",
      "type": "function"
    },
    {
      "constant": false,
      "inputs": [
        {
          "internalType": "address",
          "name": "owner",
          "type": "address"
        },
        {
          "internalType": "address",
          "name": "spender",
          "type": "address"
        },
        {
          "internalType": "uint256",
          "name": "amount",
          "type": "uint256"
        },
        {
          "internalType": "string",
          "name": "reason",
          "type": "string"
        }
      ],
      "name": "decrementAllowanceCouponsE",
      "outputs": [],
      "payable": false,
      "stateMutability": "nonpayable",
      "type": "function"
    },
    {
      "constant": false,
      "inputs": [
        {
          "internalType": "address",
          "name": "candidate",
          "type": "address"
        },
        {
          "internalType": "uint256",
          "name": "amount",
          "type": "uint256"
        },
        {
          "internalType": "string",
          "name": "reason",
          "type": "string"
        }
      ],
      "name": "decrementApproveForE",
      "outputs": [],
      "payable": false,
      "stateMutability": "nonpayable",
      "type": "function"
    },
    {
      "constant": false,
      "inputs": [
        {
          "internalType": "address",
          "name": "account",
          "type": "address"
        },
        {
          "internalType": "uint256",
          "name": "epoch",
          "type": "uint256"
        },
        {
          "internalType": "uint256",
          "name": "amount",
          "type": "uint256"
        },
        {
          "internalType": "string",
          "name": "reason",
          "type": "string"
        }
      ],
      "name": "decrementBalanceOfCouponsE",
      "outputs": [],
      "payable": false,
      "stateMutability": "nonpayable",
      "type": "function"
    },
    {
      "constant": false,
      "inputs": [
        {
          "internalType": "address",
          "name": "account",
          "type": "address"
        },
        {
          "internalType": "uint256",
          "name": "amount",
          "type": "uint256"
        },
        {
          "internalType": "string",
          "name": "reason",
          "type": "string"
        }
      ],
      "name": "decrementBalanceOfE",
      "outputs": [],
      "payable": false,
      "stateMutability": "nonpayable",
      "type": "function"
    },
    {
      "constant": false,
      "inputs": [
        {
          "internalType": "address",
          "name": "account",
          "type": "address"
        },
        {
          "internalType": "uint256",
          "name": "amount",
          "type": "uint256"
        },
        {
          "internalType": "string",
          "name": "reason",
          "type": "string"
        }
      ],
      "name": "decrementBalanceOfStagedE",
      "outputs": [],
      "payable": false,
      "stateMutability": "nonpayable",
      "type": "function"
    },
    {
      "constant": false,
      "inputs": [
        {
          "internalType": "address",
          "name": "candidate",
          "type": "address"
        },
        {
          "internalType": "uint256",
          "name": "amount",
          "type": "uint256"
        },
        {
          "internalType": "string",
          "name": "reason",
          "type": "string"
        }
      ],
      "name": "decrementRejectForE",
      "outputs": [],
      "payable": false,
      "stateMutability": "nonpayable",
      "type": "function"
    },
    {
      "constant": false,
      "inputs": [
        {
          "internalType": "uint256",
          "name": "amount",
          "type": "uint256"
        },
        {
          "internalType": "string",
          "name": "reason",
          "type": "string"
        }
      ],
      "name": "decrementTotalBondedE",
      "outputs": [],
      "payable": false,
      "stateMutability": "nonpayable",
      "type": "function"
    },
    {
      "constant": false,
      "inputs": [
        {
          "internalType": "uint256",
          "name": "amount",
          "type": "uint256"
        },
        {
          "internalType": "string",
          "name": "reason",
          "type": "string"
        }
      ],
      "name": "decrementTotalDebtE",
      "outputs": [],
      "payable": false,
      "stateMutability": "nonpayable",
      "type": "function"
    },
    {
      "constant": false,
      "inputs": [
        {
          "internalType": "uint256",
          "name": "amount",
          "type": "uint256"
        },
        {
          "internalType": "string",
          "name": "reason",
          "type": "string"
        }
      ],
      "name": "decrementTotalRedeemableE",
      "outputs": [],
      "payable": false,
      "stateMutability": "nonpayable",
      "type": "function"
    },
    {
      "constant": false,
      "inputs": [
        {
          "internalType": "uint256",
          "name": "value",
          "type": "uint256"
        }
      ],
      "name": "deposit",
      "outputs": [],
      "payable": false,
      "stateMutability": "nonpayable",
      "type": "function"
    },
    {
      "constant": true,
      "inputs": [],
      "name": "dollar",
      "outputs": [
        {
          "internalType": "contract IDollar",
          "name": "",
          "type": "address"
        }
      ],
      "payable": false,
      "stateMutability": "view",
      "type": "function"
    },
    {
      "constant": false,
      "inputs": [
        {
          "internalType": "uint256",
          "name": "epoch",
          "type": "uint256"
        }
      ],
      "name": "eliminateOutstandingCouponsE",
      "outputs": [],
      "payable": false,
      "stateMutability": "nonpayable",
      "type": "function"
    },
    {
      "constant": true,
      "inputs": [],
      "name": "epoch",
      "outputs": [
        {
          "internalType": "uint256",
          "name": "",
          "type": "uint256"
        }
      ],
      "payable": false,
      "stateMutability": "view",
      "type": "function"
    },
    {
      "constant": true,
      "inputs": [],
      "name": "epochTime",
      "outputs": [
        {
          "internalType": "uint256",
          "name": "",
          "type": "uint256"
        }
      ],
      "payable": false,
      "stateMutability": "view",
      "type": "function"
    },
    {
      "constant": true,
      "inputs": [
        {
          "internalType": "uint256",
          "name": "epoch",
          "type": "uint256"
        }
      ],
      "name": "expiringCoupons",
      "outputs": [
        {
          "internalType": "uint256",
          "name": "",
          "type": "uint256"
        }
      ],
      "payable": false,
      "stateMutability": "view",
      "type": "function"
    },
    {
      "constant": true,
      "inputs": [
        {
          "internalType": "uint256",
          "name": "epoch",
          "type": "uint256"
        },
        {
          "internalType": "uint256",
          "name": "i",
          "type": "uint256"
        }
      ],
      "name": "expiringCouponsAtIndex",
      "outputs": [
        {
          "internalType": "uint256",
          "name": "",
          "type": "uint256"
        }
      ],
      "payable": false,
      "stateMutability": "view",
      "type": "function"
    },
    {
      "constant": true,
      "inputs": [
        {
          "internalType": "address",
          "name": "account",
          "type": "address"
        }
      ],
      "name": "fluidUntil",
      "outputs": [
        {
          "internalType": "uint256",
          "name": "",
          "type": "uint256"
        }
      ],
      "payable": false,
      "stateMutability": "view",
      "type": "function"
    },
    {
      "constant": true,
      "inputs": [
        {
          "internalType": "uint256",
          "name": "epoch",
          "type": "uint256"
        }
      ],
      "name": "getAvgExpiryFilled",
      "outputs": [
        {
          "internalType": "uint256",
          "name": "",
          "type": "uint256"
        }
      ],
      "payable": false,
      "stateMutability": "view",
      "type": "function"
    },
    {
      "constant": true,
      "inputs": [
        {
          "internalType": "uint256",
          "name": "epoch",
          "type": "uint256"
        }
      ],
      "name": "getAvgYieldFilled",
      "outputs": [
        {
          "internalType": "uint256",
          "name": "",
          "type": "uint256"
        }
      ],
      "payable": false,
      "stateMutability": "view",
      "type": "function"
    },
    {
      "constant": true,
      "inputs": [
        {
          "internalType": "uint256",
          "name": "epoch",
          "type": "uint256"
        }
      ],
      "name": "getBidToCover",
      "outputs": [
        {
          "internalType": "uint256",
          "name": "",
          "type": "uint256"
        }
      ],
      "payable": false,
      "stateMutability": "view",
      "type": "function"
    },
    {
      "constant": true,
      "inputs": [
        {
          "internalType": "uint256",
          "name": "epoch",
          "type": "uint256"
        }
      ],
      "name": "getMaxExpiryFilled",
      "outputs": [
        {
          "internalType": "uint256",
          "name": "",
          "type": "uint256"
        }
      ],
      "payable": false,
      "stateMutability": "view",
      "type": "function"
    },
    {
      "constant": true,
      "inputs": [
        {
          "internalType": "uint256",
          "name": "epoch",
          "type": "uint256"
        }
      ],
      "name": "getMaxYieldFilled",
      "outputs": [
        {
          "internalType": "uint256",
          "name": "",
          "type": "uint256"
        }
      ],
      "payable": false,
      "stateMutability": "view",
      "type": "function"
    },
    {
      "constant": true,
      "inputs": [
        {
          "internalType": "uint256",
          "name": "epoch",
          "type": "uint256"
        }
      ],
      "name": "getMinExpiryFilled",
      "outputs": [
        {
          "internalType": "uint256",
          "name": "",
          "type": "uint256"
        }
      ],
      "payable": false,
      "stateMutability": "view",
      "type": "function"
    },
    {
      "constant": true,
      "inputs": [
        {
          "internalType": "uint256",
          "name": "epoch",
          "type": "uint256"
        }
      ],
      "name": "getMinYieldFilled",
      "outputs": [
        {
          "internalType": "uint256",
          "name": "",
          "type": "uint256"
        }
      ],
      "payable": false,
      "stateMutability": "view",
      "type": "function"
    },
    {
      "constant": true,
      "inputs": [
        {
          "internalType": "uint256",
          "name": "epoch",
          "type": "uint256"
        }
      ],
      "name": "getTotalFilled",
      "outputs": [
        {
          "internalType": "uint256",
          "name": "",
          "type": "uint256"
        }
      ],
      "payable": false,
      "stateMutability": "view",
      "type": "function"
    },
    {
      "constant": true,
      "inputs": [],
      "name": "implementation",
      "outputs": [
        {
          "internalType": "address",
          "name": "impl",
          "type": "address"
        }
      ],
      "payable": false,
      "stateMutability": "view",
      "type": "function"
    },
    {
      "constant": false,
      "inputs": [
        {
          "internalType": "uint256",
          "name": "amount",
          "type": "uint256"
        }
      ],
      "name": "increaseDebtE",
      "outputs": [],
      "payable": false,
      "stateMutability": "nonpayable",
      "type": "function"
    },
    {
      "constant": false,
      "inputs": [
        {
          "internalType": "address",
          "name": "candidate",
          "type": "address"
        },
        {
          "internalType": "uint256",
          "name": "amount",
          "type": "uint256"
        }
      ],
      "name": "incrementApproveForE",
      "outputs": [],
      "payable": false,
      "stateMutability": "nonpayable",
      "type": "function"
    },
    {
      "constant": false,
      "inputs": [
        {
          "internalType": "address",
          "name": "account",
          "type": "address"
        },
        {
          "internalType": "uint256",
          "name": "epoch",
          "type": "uint256"
        },
        {
          "internalType": "uint256",
          "name": "amount",
          "type": "uint256"
        }
      ],
      "name": "incrementBalanceOfCouponsE",
      "outputs": [],
      "payable": false,
      "stateMutability": "nonpayable",
      "type": "function"
    },
    {
      "constant": false,
      "inputs": [
        {
          "internalType": "address",
          "name": "account",
          "type": "address"
        },
        {
          "internalType": "uint256",
          "name": "amount",
          "type": "uint256"
        }
      ],
      "name": "incrementBalanceOfE",
      "outputs": [],
      "payable": false,
      "stateMutability": "nonpayable",
      "type": "function"
    },
    {
      "constant": false,
      "inputs": [
        {
          "internalType": "address",
          "name": "account",
          "type": "address"
        },
        {
          "internalType": "uint256",
          "name": "amount",
          "type": "uint256"
        }
      ],
      "name": "incrementBalanceOfStagedE",
      "outputs": [],
      "payable": false,
      "stateMutability": "nonpayable",
      "type": "function"
    },
    {
      "constant": false,
      "inputs": [],
      "name": "incrementEpochE",
      "outputs": [],
      "payable": false,
      "stateMutability": "nonpayable",
      "type": "function"
    },
    {
      "constant": false,
      "inputs": [
        {
          "internalType": "address",
          "name": "candidate",
          "type": "address"
        },
        {
          "internalType": "uint256",
          "name": "amount",
          "type": "uint256"
        }
      ],
      "name": "incrementRejectForE",
      "outputs": [],
      "payable": false,
      "stateMutability": "nonpayable",
      "type": "function"
    },
    {
      "constant": false,
      "inputs": [
        {
          "internalType": "uint256",
          "name": "amount",
          "type": "uint256"
        }
      ],
      "name": "incrementTotalBondedE",
      "outputs": [],
      "payable": false,
      "stateMutability": "nonpayable",
      "type": "function"
    },
    {
      "constant": false,
      "inputs": [
        {
          "internalType": "uint256",
          "name": "amount",
          "type": "uint256"
        }
      ],
      "name": "incrementTotalDebtE",
      "outputs": [],
      "payable": false,
      "stateMutability": "nonpayable",
      "type": "function"
    },
    {
      "constant": false,
      "inputs": [
        {
          "internalType": "uint256",
          "name": "amount",
          "type": "uint256"
        }
      ],
      "name": "incrementTotalRedeemableE",
      "outputs": [],
      "payable": false,
      "stateMutability": "nonpayable",
      "type": "function"
    },
    {
      "constant": false,
      "inputs": [
        {
          "internalType": "uint256",
          "name": "epoch",
          "type": "uint256"
        },
        {
          "internalType": "uint256",
          "name": "expiration",
          "type": "uint256"
        }
      ],
      "name": "initializeCouponsExpirationE",
      "outputs": [],
      "payable": false,
      "stateMutability": "nonpayable",
      "type": "function"
    },
    {
      "constant": false,
      "inputs": [
        {
          "internalType": "address",
          "name": "candidate",
          "type": "address"
        }
      ],
      "name": "initializedE",
      "outputs": [],
      "payable": false,
      "stateMutability": "nonpayable",
      "type": "function"
    },
    {
      "constant": false,
      "inputs": [
        {
          "internalType": "uint256",
          "name": "epoch",
          "type": "uint256"
        }
      ],
      "name": "isCouponAuctionInitAtEpochE",
      "outputs": [
        {
          "internalType": "bool",
          "name": "",
          "type": "bool"
        }
      ],
      "payable": false,
      "stateMutability": "nonpayable",
      "type": "function"
    },
    {
      "constant": true,
      "inputs": [
        {
          "internalType": "address",
          "name": "candidate",
          "type": "address"
        }
      ],
      "name": "isInitialized",
      "outputs": [
        {
          "internalType": "bool",
          "name": "",
          "type": "bool"
        }
      ],
      "payable": false,
      "stateMutability": "view",
      "type": "function"
    },
    {
      "constant": true,
      "inputs": [
        {
          "internalType": "address",
          "name": "candidate",
          "type": "address"
        }
      ],
      "name": "isNominated",
      "outputs": [
        {
          "internalType": "bool",
          "name": "",
          "type": "bool"
        }
      ],
      "payable": false,
      "stateMutability": "view",
      "type": "function"
    },
    {
      "constant": true,
      "inputs": [
        {
          "internalType": "address",
          "name": "account",
          "type": "address"
        }
      ],
      "name": "lockedUntil",
      "outputs": [
        {
          "internalType": "uint256",
          "name": "",
          "type": "uint256"
        }
      ],
      "payable": false,
      "stateMutability": "view",
      "type": "function"
    },
    {
      "constant": false,
      "inputs": [
        {
          "internalType": "address",
          "name": "account",
          "type": "address"
        },
        {
          "internalType": "uint256",
          "name": "amount",
          "type": "uint256"
        }
      ],
      "name": "mintToAccountE",
      "outputs": [],
      "payable": false,
      "stateMutability": "nonpayable",
      "type": "function"
    },
    {
      "constant": false,
      "inputs": [
        {
          "internalType": "address",
          "name": "account",
          "type": "address"
        },
        {
          "internalType": "uint256",
          "name": "amount",
          "type": "uint256"
        }
      ],
      "name": "mintToE",
      "outputs": [],
      "payable": false,
      "stateMutability": "nonpayable",
      "type": "function"
    },
    {
      "constant": true,
      "inputs": [],
      "name": "name",
      "outputs": [
        {
          "internalType": "string",
          "name": "",
          "type": "string"
        }
      ],
      "payable": false,
      "stateMutability": "view",
      "type": "function"
    },
    {
      "constant": true,
      "inputs": [],
      "name": "oracle",
      "outputs": [
        {
          "internalType": "contract IOracle",
          "name": "",
          "type": "address"
        }
      ],
      "payable": false,
      "stateMutability": "view",
      "type": "function"
    },
    {
      "constant": true,
      "inputs": [
        {
          "internalType": "uint256",
          "name": "epoch",
          "type": "uint256"
        }
      ],
      "name": "outstandingCoupons",
      "outputs": [
        {
          "internalType": "uint256",
          "name": "",
          "type": "uint256"
        }
      ],
      "payable": false,
      "stateMutability": "view",
      "type": "function"
    },
    {
      "constant": true,
      "inputs": [
        {
          "internalType": "address",
          "name": "candidate",
          "type": "address"
        }
      ],
      "name": "periodFor",
      "outputs": [
        {
          "internalType": "uint256",
          "name": "",
          "type": "uint256"
        }
      ],
      "payable": false,
      "stateMutability": "view",
      "type": "function"
    },
    {
      "constant": false,
      "inputs": [
        {
          "internalType": "address",
          "name": "account",
          "type": "address"
        },
        {
          "internalType": "address",
          "name": "candidate",
          "type": "address"
        }
      ],
      "name": "placeLockE",
      "outputs": [],
      "payable": false,
      "stateMutability": "nonpayable",
      "type": "function"
    },
    {
      "constant": true,
      "inputs": [],
      "name": "pool",
      "outputs": [
        {
          "internalType": "address",
          "name": "",
          "type": "address"
        }
      ],
      "payable": false,
      "stateMutability": "view",
      "type": "function"
    },
    {
      "constant": false,
      "inputs": [
        {
          "internalType": "address",
          "name": "account",
          "type": "address"
        },
        {
          "internalType": "address",
          "name": "candidate",
          "type": "address"
        },
        {
          "internalType": "enum Candidate.Vote",
          "name": "vote",
          "type": "uint8"
        }
      ],
      "name": "recordVoteE",
      "outputs": [],
      "payable": false,
      "stateMutability": "nonpayable",
      "type": "function"
    },
    {
      "constant": true,
      "inputs": [
        {
          "internalType": "address",
          "name": "account",
          "type": "address"
        },
        {
          "internalType": "address",
          "name": "candidate",
          "type": "address"
        }
      ],
      "name": "recordedVote",
      "outputs": [
        {
          "internalType": "enum Candidate.Vote",
          "name": "",
          "type": "uint8"
        }
      ],
      "payable": false,
      "stateMutability": "view",
      "type": "function"
    },
    {
      "constant": false,
      "inputs": [
        {
          "internalType": "address",
          "name": "account",
          "type": "address"
        },
        {
          "internalType": "uint256",
          "name": "amount",
          "type": "uint256"
        }
      ],
      "name": "redeemToAccountE",
      "outputs": [],
      "payable": false,
      "stateMutability": "nonpayable",
      "type": "function"
    },
    {
      "constant": true,
      "inputs": [
        {
          "internalType": "address",
          "name": "candidate",
          "type": "address"
        }
      ],
      "name": "rejectFor",
      "outputs": [
        {
          "internalType": "uint256",
          "name": "",
          "type": "uint256"
        }
      ],
      "payable": false,
      "stateMutability": "view",
      "type": "function"
    },
    {
      "constant": false,
      "inputs": [
        {
          "internalType": "uint256",
          "name": "percent",
          "type": "uint256"
        }
      ],
      "name": "resetDebtE",
      "outputs": [],
      "payable": false,
      "stateMutability": "nonpayable",
      "type": "function"
    },
    {
      "constant": false,
      "inputs": [
        {
          "internalType": "uint256",
          "name": "timestamp",
          "type": "uint256"
        }
      ],
      "name": "setBlockTimestamp",
      "outputs": [],
      "payable": false,
      "stateMutability": "nonpayable",
      "type": "function"
    },
    {
      "constant": false,
      "inputs": [
        {
          "internalType": "uint256",
          "name": "start",
          "type": "uint256"
        },
        {
          "internalType": "uint256",
          "name": "period",
          "type": "uint256"
        }
      ],
      "name": "setEpochParamsE",
      "outputs": [],
      "payable": false,
      "stateMutability": "nonpayable",
      "type": "function"
    },
    {
      "constant": false,
      "inputs": [],
      "name": "snapshotTotalBondedE",
      "outputs": [],
      "payable": false,
      "stateMutability": "nonpayable",
      "type": "function"
    },
    {
      "constant": true,
      "inputs": [
        {
          "internalType": "address",
          "name": "candidate",
          "type": "address"
        }
      ],
      "name": "startFor",
      "outputs": [
        {
          "internalType": "uint256",
          "name": "",
          "type": "uint256"
        }
      ],
      "payable": false,
      "stateMutability": "view",
      "type": "function"
    },
    {
      "constant": true,
      "inputs": [
        {
          "internalType": "address",
          "name": "account",
          "type": "address"
        }
      ],
      "name": "statusOf",
      "outputs": [
        {
          "internalType": "enum Account.Status",
          "name": "",
          "type": "uint8"
        }
      ],
      "payable": false,
      "stateMutability": "view",
      "type": "function"
    },
    {
      "constant": true,
      "inputs": [],
      "name": "symbol",
      "outputs": [
        {
          "internalType": "string",
          "name": "",
          "type": "string"
        }
      ],
      "payable": false,
      "stateMutability": "view",
      "type": "function"
    },
    {
      "constant": true,
      "inputs": [],
      "name": "totalBonded",
      "outputs": [
        {
          "internalType": "uint256",
          "name": "",
          "type": "uint256"
        }
      ],
      "payable": false,
      "stateMutability": "view",
      "type": "function"
    },
    {
      "constant": true,
      "inputs": [
        {
          "internalType": "uint256",
          "name": "epoch",
          "type": "uint256"
        }
      ],
      "name": "totalBondedAt",
      "outputs": [
        {
          "internalType": "uint256",
          "name": "",
          "type": "uint256"
        }
      ],
      "payable": false,
      "stateMutability": "view",
      "type": "function"
    },
    {
      "constant": true,
      "inputs": [],
      "name": "totalCoupons",
      "outputs": [
        {
          "internalType": "uint256",
          "name": "",
          "type": "uint256"
        }
      ],
      "payable": false,
      "stateMutability": "view",
      "type": "function"
    },
    {
      "constant": true,
      "inputs": [],
      "name": "totalDebt",
      "outputs": [
        {
          "internalType": "uint256",
          "name": "",
          "type": "uint256"
        }
      ],
      "payable": false,
      "stateMutability": "view",
      "type": "function"
    },
    {
      "constant": true,
      "inputs": [],
      "name": "totalNet",
      "outputs": [
        {
          "internalType": "uint256",
          "name": "",
          "type": "uint256"
        }
      ],
      "payable": false,
      "stateMutability": "view",
      "type": "function"
    },
    {
      "constant": true,
      "inputs": [],
      "name": "totalRedeemable",
      "outputs": [
        {
          "internalType": "uint256",
          "name": "",
          "type": "uint256"
        }
      ],
      "payable": false,
      "stateMutability": "view",
      "type": "function"
    },
    {
      "constant": true,
      "inputs": [],
      "name": "totalStaged",
      "outputs": [
        {
          "internalType": "uint256",
          "name": "",
          "type": "uint256"
        }
      ],
      "payable": false,
      "stateMutability": "view",
      "type": "function"
    },
    {
      "constant": true,
      "inputs": [],
      "name": "totalSupply",
      "outputs": [
        {
          "internalType": "uint256",
          "name": "",
          "type": "uint256"
        }
      ],
      "payable": false,
      "stateMutability": "view",
      "type": "function"
    },
    {
      "constant": false,
      "inputs": [
        {
          "internalType": "address",
          "name": "recipient",
          "type": "address"
        },
        {
          "internalType": "uint256",
          "name": "amount",
          "type": "uint256"
        }
      ],
      "name": "transfer",
      "outputs": [
        {
          "internalType": "bool",
          "name": "",
          "type": "bool"
        }
      ],
      "payable": false,
      "stateMutability": "nonpayable",
      "type": "function"
    },
    {
      "constant": false,
      "inputs": [
        {
          "internalType": "address",
          "name": "sender",
          "type": "address"
        },
        {
          "internalType": "address",
          "name": "recipient",
          "type": "address"
        },
        {
          "internalType": "uint256",
          "name": "amount",
          "type": "uint256"
        }
      ],
      "name": "transferFrom",
      "outputs": [
        {
          "internalType": "bool",
          "name": "",
          "type": "bool"
        }
      ],
      "payable": false,
      "stateMutability": "nonpayable",
      "type": "function"
    },
    {
      "constant": false,
      "inputs": [
        {
          "internalType": "uint256",
          "name": "value",
          "type": "uint256"
        }
      ],
      "name": "unbond",
      "outputs": [],
      "payable": false,
      "stateMutability": "nonpayable",
      "type": "function"
    },
    {
      "constant": false,
      "inputs": [
        {
          "internalType": "uint256",
          "name": "value",
          "type": "uint256"
        }
      ],
      "name": "unbondUnderlying",
      "outputs": [],
      "payable": false,
      "stateMutability": "nonpayable",
      "type": "function"
    },
    {
      "constant": false,
      "inputs": [
        {
          "internalType": "address",
          "name": "account",
          "type": "address"
        }
      ],
      "name": "unfreezeE",
      "outputs": [],
      "payable": false,
      "stateMutability": "nonpayable",
      "type": "function"
    },
    {
      "constant": false,
      "inputs": [
        {
          "internalType": "address",
          "name": "owner",
          "type": "address"
        },
        {
          "internalType": "address",
          "name": "spender",
          "type": "address"
        },
        {
          "internalType": "uint256",
          "name": "amount",
          "type": "uint256"
        }
      ],
      "name": "updateAllowanceCouponsE",
      "outputs": [],
      "payable": false,
      "stateMutability": "nonpayable",
      "type": "function"
    },
    {
      "constant": true,
      "inputs": [
        {
          "internalType": "address",
          "name": "candidate",
          "type": "address"
        }
      ],
      "name": "votesFor",
      "outputs": [
        {
          "internalType": "uint256",
          "name": "",
          "type": "uint256"
        }
      ],
      "payable": false,
      "stateMutability": "view",
      "type": "function"
    },
    {
      "constant": false,
      "inputs": [
        {
          "internalType": "uint256",
          "name": "value",
          "type": "uint256"
        }
      ],
      "name": "withdraw",
      "outputs": [],
      "payable": false,
      "stateMutability": "nonpayable",
      "type": "function"
    },
    {
      "constant": false,
      "inputs": [],
      "name": "stepE",
      "outputs": [],
      "payable": false,
      "stateMutability": "nonpayable",
      "type": "function"
    }
  ],
  "bytecode": "0x60806040523480156200001157600080fd5b5042600f5560405160009062000027906200007a565b604051809103906000f08015801562000044573d6000803e3d6000fd5b50600980546001600160a01b039283166001600160a01b031991821617909155600b805493909216921691909117905562000088565b611c0680620032e983390190565b61325180620000986000396000f3fe608060405234801561001057600080fd5b506004361061051a5760003560e01c8063825ad607116102a4578063b32a2f9011610172578063d60b347f116100d9578063eeaca09b11610092578063eeaca09b14610b3a578063f1b7cf4914610b4d578063f35adf7e14610b60578063f7a3181814610b68578063fc7b9c1814610b7b578063ffbe3b7314610b835761051a565b8063d60b347f14610acd578063d6d8816d14610ae0578063d83d3ed514610af3578063dd62ed3e14610b06578063df9a2b1c14610b14578063e0abdf6614610b275761051a565b8063c45a3e0a1161012b578063c45a3e0a14610a66578063c9aff70c14610a79578063cb0fbc7114610a8c578063cc8d823c14610a9f578063cf02377914610ab2578063d53c6f5f14610aba5761051a565b8063b32a2f90146109f4578063b6b55f2514610a07578063bc7513e214610a1a578063c1410c0214610a2d578063c2aeb5fe14610a40578063c34eee6514610a535761051a565b80639be4649311610216578063a9059cbb116101cf578063a9059cbb1461053d578063a9b3cf1514610995578063adbff2be146109a8578063ae5c2381146109bb578063b11ee0e3146109ce578063b16144a3146109e15761051a565b80639be464931461092e5780639f6e1b2614610941578063a00e14d114610954578063a50cd8e714610967578063a6c409f11461097a578063a6f37b53146109825761051a565b806395d89b411161026857806395d89b41146108d257806397a5d5b5146108da5780639940686e146108ed5780639a649edc146109005780639b82b49b146109085780639bc289f11461091b5761051a565b8063825ad6071461087e5780638413e52a1461089157806386cf9f14146108a45780638de2e573146108b7578063900cf0cf146108ca5761051a565b80633f7bcaf3116103ec5780635dbf800a1161035357806371c511eb1161030c57806371c511eb1461082257806372924d2a1461082a57806375d5024b1461083d5780637cb95a32146108505780637d8bb869146108635780637dc0d1d0146108765761051a565b80635dbf800a146107b05780635f14fec8146107c357806364668022146107d65780636a39e328146107e95780636b862d66146107fc57806370a082311461080f5761051a565b80634c736099116103a55780634c736099146107525780635053e4611461076557806351adeb571461076d57806351bf21d814610782578063520acb76146107955780635c60da1b146107a85761051a565b80633f7bcaf3146106e95780633fbba9a6146106fc5780633fd4973c1461071c578063416a23cc1461072f578063438735261461073757806344d96e951461074a5761051a565b806320f6bc90116104905780632e1a7d4d116104495780632e1a7d4d14610675578063313ce56714610688578063323474221461069d578063353a420c146106b05780633a3e6c81146106c35780633dc905c7146106d65761051a565b806320f6bc901461060357806323b872dd14610616578063259f7adf14610629578063277805a91461063c57806327de9e321461064f5780632d7f23b3146106625761051a565b806315e14bf6116104e257806315e14bf6146105a557806316f0115b146105b857806318160ddd146105cd5780631a08e22a146105d55780631edbcf6c146105e85780631fac9732146105f05761051a565b806306fdde031461051f578063095ea7b31461053d5780630dc6d3a31461055d57806310e95b6c146105725780631550ec2414610592575b600080fd5b610527610b96565b6040516105349190613035565b60405180910390f35b61055061054b366004612c45565b610bcd565b604051610534919061300b565b61057061056b366004612bc7565b610bd6565b005b610585610580366004612d62565b610c1f565b6040516105349190613066565b6105506105a0366004612d62565b610c37565b6105856105b3366004612adf565b610c4c565b6105c0610c6a565b6040516105349190612f9e565b610585610c79565b6105706105e3366004612df4565b610c7f565b610585610c8d565b6105706105fe366004612d62565b610c93565b610570610611366004612c45565b610c9f565b610550610624366004612b84565b610ca9565b610570610637366004612d62565b610cb3565b61057061064a366004612c45565b610cbc565b61057061065d366004612d62565b610d48565b610585610670366004612d62565b610e92565b610570610683366004612d62565b610ea7565b610690610fde565b604051610534919061308f565b6105706106ab366004612d9e565b610fe3565b6105856106be366004612adf565b611023565b6105506106d1366004612adf565b611041565b6105856106e4366004612d62565b61105e565b6105706106f7366004612b84565b611073565b61070f61070a366004612afd565b61107e565b6040516105349190613027565b61057061072a366004612c75565b6110b1565b6105706110f8565b610570610745366004612d62565b611102565b61058561110b565b610585610760366004612df4565b611111565b610585611141565b610775611164565b6040516105349190613019565b610585610790366004612adf565b611173565b6105856107a3366004612d62565b611191565b6105c06111a6565b6105706107be366004612d62565b6111cb565b6105706107d1366004612c45565b6111d4565b6105856107e4366004612adf565b6111de565b6105856107f7366004612d62565b6111fc565b61057061080a366004612cdd565b611211565b61058561081d366004612adf565b61121c565b61057061123a565b610570610838366004612d9e565b611242565b61055061084b366004612d62565b611282565b61057061085e366004612c75565b611295565b610585610871366004612d62565b6112d6565b6107756112eb565b61058561088c366004612adf565b6112fa565b61057061089f366004612b37565b61133a565b6105856108b2366004612adf565b611345565b6105706108c5366004612d62565b611360565b610585611369565b61052761136f565b61070f6108e8366004612adf565b61138d565b6105706108fb366004612d62565b6113f2565b6105856114c0565b610570610916366004612d9e565b6114c6565b610585610929366004612adf565b611506565b61057061093c366004612adf565b611524565b61058561094f366004612afd565b61152d565b610570610962366004612df4565b61155c565b610585610975366004612adf565b611567565b61058561157e565b610570610990366004612adf565b611614565b6105706109a3366004612d62565b61161d565b6105706109b6366004612c75565b611626565b6105706109c9366004612c45565b611667565b6105706109dc366004612c45565b611671565b6105706109ef366004612d62565b61167b565b610570610a02366004612c75565b61168e565b610570610a15366004612d62565b6116cf565b610585610a28366004612c45565b6117a7565b610570610a3b366004612afd565b6117eb565b610570610a4e366004612d0f565b6117f5565b610585610a61366004612d62565b611837565b610570610a74366004612c45565b61184c565b610585610a87366004612d62565b611856565b610585610a9a366004612d62565b61186b565b610570610aad366004612c45565b611880565b61058561188a565b610585610ac8366004612d62565b611890565b610550610adb366004612adf565b6118a6565b610570610aee366004612d62565b6118c7565b610570610b01366004612c45565b6118d0565b61058561054b366004612afd565b610570610b22366004612d62565b6118da565b610570610b35366004612d62565b611998565b610585610b48366004612d62565b61199d565b610585610b5b366004612adf565b6119b2565b6105706119cd565b610570610b76366004612c45565b6119d5565b6105856119df565b610585610b91366004612d62565b6119e5565b60408051808201909152601881527f44796e616d69632053657420446f6c6c6172205374616b650000000000000000602082015290565b60005b92915050565b610c1885858585858080601f0160208091040260200160405190810160405280939291908181526020018383808284376000920191909152506119f792505050565b5050505050565b6000818152600d60205260409020600201545b919050565b6000610c4282611a68565b5460ff1692915050565b6001600160a01b03166000908152600e602052604090206001015490565b600b546001600160a01b031690565b60035490565b610c898282611a7c565b5050565b60065490565b610c9c81611aae565b50565b610c898282611af5565b60005b9392505050565b610c9c81611b9d565b610cc4611164565b6001600160a01b03166340c10f1983836040518363ffffffff1660e01b8152600401610cf1929190612ffd565b602060405180830381600087803b158015610d0b57600080fd5b505af1158015610d1f573d6000803e3d6000fd5b505050506040513d601f19601f82011682018060405250610d439190810190612d44565b505050565b33610d8f60025b610d588361138d565b6002811115610d6357fe5b1415692832b936b4b9b9b4b7b760b11b72139bdd08199c9bde995b881bdc88199b1d5a59606a1b611bb6565b610d9833611c14565b6000610dcb610da63361121c565b610dbf610db2336112fa565b869063ffffffff611c4616565b9063ffffffff611c8016565b9050610dd73382611cc2565b610df98160405180606001604052806022815260200161319b60229139611d1e565b610e3933846040518060400160405280601d81526020017f426f6e64696e673a20696e73756666696369656e742062616c616e6365000000815250611d39565b337f93530ac0ee8c50e696e13c5ac62355d0c0ba4bd943620d5bda1eb08b64ae7512610e746001610e68611369565b9063ffffffff611de416565b8584604051610e8593929190613074565b60405180910390a2505050565b6000908152600d60205260409020600a015490565b33610eee6001610eb68361138d565b6002811115610ec157fe5b1415692832b936b4b9b9b4b7b760b11b73139bdd08199c9bde995b881bdc881b1bd8dad95960621b611bb6565b610ef6611164565b6001600160a01b031663a9059cbb33846040518363ffffffff1660e01b8152600401610f23929190612fd4565b602060405180830381600087803b158015610f3d57600080fd5b505af1158015610f51573d6000803e3d6000fd5b505050506040513d601f19601f82011682018060405250610f759190810190612d44565b50610f99338360405180606001604052806024815260200161317760249139611e09565b336001600160a01b03167f884edad9ce6fa2440d8a54cc123490eb96d2768479d49ff9c7366125a942436483604051610fd29190613066565b60405180910390a25050565b601290565b610d438383838080601f016020809104026020016040519081016040528093929190818152602001838380828437600092019190915250611e6892505050565b6001600160a01b03166000908152600e602052604090206003015490565b6001600160a01b03166000908152600e6020526040902054151590565b6000908152600d60205260409020600c015490565b610d43838383611e83565b6001600160a01b038082166000908152600e60209081526040808320938616835260049093019052205460ff1692915050565b6110f2848484848080601f016020809104026020016040519081016040528093929190818152602001838380828437600092019190915250611eb392505050565b50505050565b611100611f04565b565b610c9c81611f47565b60045490565b6000828152600d6020526040812060030180548390811061112e57fe5b9060005260206000200154905092915050565b600061114b612a2b565b611153611f5b565b905061115e81611f8a565b91505090565b6009546001600160a01b031690565b6001600160a01b03166000908152600c602052604090206004015490565b6000908152600d60205260409020600e015490565b7f360894a13ba1a3210667c828492db98dca3e2076cc3735a920a3ca505d382bbc5490565b610c9c81611fac565b610c898282612033565b6001600160a01b03166000908152600e602052604090206002015490565b6000908152600d602052604090206003015490565b610d43838383612144565b6001600160a01b03166000908152600c602052604090206001015490565b6111006121eb565b610d438383838080601f01602080910402602001604051908101604052809392919081815260200183838082843760009201919091525061221292505050565b600061128c61222d565b90911115919050565b6110f2848484848080601f01602080910402602001604051908101604052809392919081815260200183838082843760009201919091525061223292505050565b6000908152600d602052604090206010015490565b600a546001600160a01b031690565b600080611305610c79565b905080611316576000915050610c32565b610cac81610dbf6113268661121c565b61132e61110b565b9063ffffffff611c4616565b610d43838383612283565b6001600160a01b03166000908152600c602052604090205490565b610c9c816122cd565b60025490565b6040805180820190915260048152634453445360e01b602082015290565b6000611397611369565b6001600160a01b0383166000908152600c602052604090206005015411156113c157506002610c32565b6001600160a01b0382166000908152600c60205260409020600401546113e5611369565b1015610bcd576001610bd0565b336113fd6002610d4f565b61140633611c14565b600061141061110b565b156114305761142b61142061110b565b610dbf610db2610c79565b611448565b61144861143b6122e6565b849063ffffffff611c4616565b905061145433826122ed565b61145d83611b9d565b611480338460405180606001604052806024815260200161317760249139611e09565b337f44002fdef5a0c2d2e4e05572e9780b95aef97e0e93ffd7cc076b09fa78ff2b466114af6001610e68611369565b8386604051610e8593929190613074565b60085490565b610d438383838080601f016020809104026020016040519081016040528093929190818152602001838380828437600092019190915250611d1e92505050565b6001600160a01b03166000908152600c602052604090206005015490565b610c9c81611c14565b6001600160a01b039182166000908152600c602090815260408083209390941682526003909201909152205490565b600091909155600155565b6000610bd061157583611023565b610e68846111de565b600061160f61158b6119df565b611593611164565b6001600160a01b03166318160ddd6040518163ffffffff1660e01b815260040160206040518083038186803b1580156115cb57600080fd5b505afa1580156115df573d6000803e3d6000fd5b505050506040513d601f19601f820116820180604052506116039190810190612d80565b9063ffffffff61239516565b905090565b610c9c816123d7565b610c9c816123fe565b6110f2848484848080601f016020809104026020016040519081016040528093929190818152602001838380828437600092019190915250611d3992505050565b610c8982826122ed565b610c898282611cc2565b610c9c611689826064612441565b612470565b6110f2848484848080601f016020809104026020016040519081016040528093929190818152602001838380828437600092019190915250611e0992505050565b6116d7611164565b6001600160a01b03166323b872dd3330846040518463ffffffff1660e01b815260040161170693929190612fac565b602060405180830381600087803b15801561172057600080fd5b505af1158015611734573d6000803e3d6000fd5b505050506040513d601f19601f820116820180604052506117589190810190612d44565b506117633382611cc2565b336001600160a01b03167fe1fffcc4923d04b559f4d29a8bfc6cda04eb5b0d3c460751c2402c5c5cc9109c8260405161179c9190613066565b60405180910390a250565b60006117b282611856565b6117be57506000610bd0565b506001600160a01b03919091166000908152600c6020908152604080832093835260029093019052205490565b610c898282612535565b610c1885858585858080601f01602080910402602001604051908101604052809392919081815260200183838082843760009201919091525061259592505050565b6000908152600d60205260409020600f015490565b610c898282612640565b6000908152600d602052604090206001015490565b6000908152600d602052604090206011015490565b610c8982826126ea565b60055490565b6000908152600d60208190526040909120015490565b6001600160a01b03166000908152600e602052604090206005015460ff1690565b610c9c81612739565b610c898282612752565b336118e56002610d4f565b6118ee33611c14565b60006118fb61142061110b565b90506119073384611cc2565b6119298360405180606001604052806022815260200161319b60229139611d1e565b61196933826040518060400160405280601d81526020017f426f6e64696e673a20696e73756666696369656e742062616c616e6365000000815250611d39565b337f93530ac0ee8c50e696e13c5ac62355d0c0ba4bd943620d5bda1eb08b64ae75126114af6001610e68611369565b600f55565b6000908152600d60205260409020600b015490565b6001600160a01b03166000908152600e602052604090205490565b61110061277e565b610c898282612797565b60075490565b6000908152600d602052604090205490565b6001600160a01b038085166000908152600c602090815260408083209387168352600390930190522054611a3290838363ffffffff6127e616565b6001600160a01b039485166000908152600c60209081526040808320969097168252600390950190945293909220929092555050565b6000908152600d6020526040902060040190565b6000828152600d6020908152604080832060020184905592825291812060030180546001810182559082529190200155565b611aed816040518060400160405280601c81526020017f436f6d7074726f6c6c65723a206e6f7420656e6f756768206465627400000000815250612212565b610c9c612812565b611afd611164565b6001600160a01b03166340c10f1983836040518363ffffffff1660e01b8152600401611b2a929190612ffd565b602060405180830381600087803b158015611b4457600080fd5b505af1158015611b58573d6000803e3d6000fd5b505050506040513d601f19601f82011682018060405250611b7c9190810190612d44565b50611b8861084b611369565b611b9557611b9581611f47565b610c89612812565b600454611bb0908263ffffffff611de416565b60045550565b82610d4357611bc4826128e5565b6101d160f51b611bd3836128e5565b604051602001611be593929190612f6d565b60408051601f198184030181529082905262461bcd60e51b8252611c0b91600401613035565b60405180910390fd5b611c27611c1f612965565b610e68611369565b6001600160a01b039091166000908152600c6020526040902060040155565b600082611c5557506000610bd0565b82820282848281611c6257fe5b0414610cac5760405162461bcd60e51b8152600401611c0b90613056565b6000610cac83836040518060400160405280601a81526020017f536166654d6174683a206469766973696f6e206279207a65726f00000000000081525061296a565b6001600160a01b0382166000908152600c6020526040902054611ceb908263ffffffff611de416565b6001600160a01b0383166000908152600c6020526040902055600554611d17908263ffffffff611de416565b6005555050565b600454611d3290838363ffffffff6127e616565b6004555050565b6001600160a01b0383166000908152600c6020526040902060010154611d6690838363ffffffff6127e616565b6001600160a01b0384166000908152600c6020526040902060010155600354611d9690838363ffffffff6127e616565b6003556040516000906001600160a01b038516907fddf252ad1be2c89b69c2b068fc378daa952ba7f163c4a11628f55a4df523b3ef90611dd7908690613066565b60405180910390a3505050565b600082820183811015610cac5760405162461bcd60e51b8152600401611c0b90613046565b6001600160a01b0383166000908152600c6020526040902054611e3390838363ffffffff6127e616565b6001600160a01b0384166000908152600c6020526040902055600554611e6090838363ffffffff6127e616565b600555505050565b600654611e7c90838363ffffffff6127e616565b6006555050565b6001600160a01b039283166000908152600c60209081526040808320949095168252600390930190925291902055565b6001600160a01b0383166000908152600e6020526040902060030154611ee090838363ffffffff6127e616565b6001600160a01b039093166000908152600e60205260409020600301929092555050565b611f3f611f0f611369565b611f17611141565b1166426f6e64696e6760c81b720a6e8d2d8d840c6eae4e4cadce840cae0dec6d606b1b611bb6565b6119cd6121eb565b611f50816122cd565b611aed6116896129a1565b611f63612a2b565b604051806060016040528060008152602001635fbef0008152602001611c20815250905090565b6000610bd08260000151610e688460400151610dbf86602001516116036129c3565b611fb4611164565b6001600160a01b03166342966c68826040518263ffffffff1660e01b8152600401611fdf9190613066565b600060405180830381600087803b158015611ff957600080fd5b505af115801561200d573d6000803e3d6000fd5b50505050611aed816040518060600160405280602a81526020016131e5602a9139611e68565b61203b611164565b6001600160a01b03166323b872dd8330846040518463ffffffff1660e01b815260040161206a93929190612fef565b602060405180830381600087803b15801561208457600080fd5b505af1158015612098573d6000803e3d6000fd5b505050506040513d601f19601f820116820180604052506120bc9190810190612d44565b506120c5611164565b6001600160a01b03166342966c68826040518263ffffffff1660e01b81526004016120f09190613066565b600060405180830381600087803b15801561210a57600080fd5b505af115801561211e573d6000803e3d6000fd5b50505050611b95816040518060600160405280602881526020016131bd60289139612212565b6001600160a01b0383166000908152600c6020908152604080832085845260020190915290205461217b908263ffffffff611de416565b6001600160a01b0384166000908152600c60209081526040808320868452600201825280832093909355600d905220600101546121be908263ffffffff611de416565b6000838152600d60205260409020600101556008546121e3908263ffffffff611de416565b600855505050565b6121f3610c79565b600d60006121ff611369565b8152602081019190915260400160002055565b60075461222690838363ffffffff6127e616565b6007555050565b609690565b6001600160a01b0383166000908152600e602052604090206002015461225f90838363ffffffff6127e616565b6001600160a01b039093166000908152600e60205260409020600201929092555050565b6001600160a01b038083166000908152600e6020908152604080832093871683526004909301905220805482919060ff191660018360028111156122c357fe5b0217905550505050565b6007546122e0908263ffffffff611de416565b60075550565b620f424090565b6001600160a01b0382166000908152600c6020526040902060010154612319908263ffffffff611de416565b6001600160a01b0383166000908152600c6020526040902060010155600354612348908263ffffffff611de416565b6003556040516001600160a01b038316906000907fddf252ad1be2c89b69c2b068fc378daa952ba7f163c4a11628f55a4df523b3ef90612389908590613066565b60405180910390a35050565b6000610cac83836040518060400160405280601e81526020017f536166654d6174683a207375627472616374696f6e206f766572666c6f7700008152506127e6565b6001600160a01b03166000908152600e60205260409020600501805460ff19166001179055565b600061240982611856565b9050806124165750610c9c565b600854612429908263ffffffff61239516565b600855506000908152600d6020526040812060010155565b612449612a4c565b604051806020016040528061246785670de0b6b3a7640000866129c9565b90529392505050565b60006125026124fd612480611164565b6001600160a01b03166318160ddd6040518163ffffffff1660e01b815260040160206040518083038186803b1580156124b857600080fd5b505afa1580156124cc573d6000803e3d6000fd5b505050506040513d601f19601f820116820180604052506124f09190810190612d80565b849063ffffffff6129e716565b612a0e565b9050600061250e6119df565b905081811115610d4357600061252a828463ffffffff61239516565b90506110f281611aae565b6001600160a01b0382166000908152600c60205260408120600501549061256761255e84610c4c565b610e68856119b2565b9050818111156110f2576001600160a01b0384166000908152600c6020526040902060050181905550505050565b6001600160a01b0384166000908152600c602090815260408083208684526002019091529020546125cd90838363ffffffff6127e616565b6001600160a01b0385166000908152600c60209081526040808320878452600201825280832093909355600d9052206001015461261190838363ffffffff6127e616565b6000848152600d602052604090206001015560085461263790838363ffffffff6127e616565b60085550505050565b612648611164565b6001600160a01b031663a9059cbb83836040518363ffffffff1660e01b8152600401612675929190612ffd565b602060405180830381600087803b15801561268f57600080fd5b505af11580156126a3573d6000803e3d6000fd5b505050506040513d601f19601f820116820180604052506126c79190810190612d44565b50611b95816040518060600160405280602a81526020016131e5602a9139611e68565b6001600160a01b0382166000908152600e6020526040902060030154612716908263ffffffff611de416565b6001600160a01b039092166000908152600e602052604090206003019190915550565b60065461274c908263ffffffff611de416565b60065550565b61275a611369565b6001600160a01b039092166000908152600e60205260409020918255600190910155565b60025461279290600163ffffffff611de416565b600255565b6001600160a01b0382166000908152600e60205260409020600201546127c3908263ffffffff611de416565b6001600160a01b039092166000908152600e602052604090206002019190915550565b6000818484111561280a5760405162461bcd60e51b8152600401611c0b9190613035565b505050900390565b611100612833612820610c8d565b610e6861282b61188a565b610e6861110b565b61283b611164565b6001600160a01b03166370a08231306040518263ffffffff1660e01b81526004016128669190612f9e565b60206040518083038186803b15801561287e57600080fd5b505afa158015612892573d6000803e3d6000fd5b505050506040513d601f19601f820116820180604052506128b69190810190612d80565b10156a21b7b6b83a3937b63632b960a91b74496e636f6e73697374656e742062616c616e63657360581b611bb6565b606080826040516020016128f99190612f58565b60408051601f19818403018152919052905060205b801561294e5781516000199091019082908290811061292957fe5b01602001516001600160f81b031916156129495760010181529050610c32565b61290e565b505060408051600081526020810190915292915050565b602490565b6000818361298b5760405162461bcd60e51b8152600401611c0b9190613035565b50600083858161299757fe5b0495945050505050565b6129a9612a4c565b5060408051602081019091526704db732547630000815290565b600f5490565b60006129df82610dbf868663ffffffff611c4616565b949350505050565b6129ef612a4c565b604080516020810190915283518190612467908563ffffffff611c4616565b8051600090610bd090670de0b6b3a764000063ffffffff611c8016565b60405180606001604052806000815260200160008152602001600081525090565b6040518060200160405280600081525090565b8035610bd081613143565b8051610bd081613157565b8035610bd081613160565b60008083601f840112612a9257600080fd5b50813567ffffffffffffffff811115612aaa57600080fd5b602083019150836001820283011115612ac257600080fd5b9250929050565b8035610bd08161316d565b8051610bd08161316d565b600060208284031215612af157600080fd5b60006129df8484612a5f565b60008060408385031215612b1057600080fd5b6000612b1c8585612a5f565b9250506020612b2d85828601612a5f565b9150509250929050565b600080600060608486031215612b4c57600080fd5b6000612b588686612a5f565b9350506020612b6986828701612a5f565b9250506040612b7a86828701612a75565b9150509250925092565b600080600060608486031215612b9957600080fd5b6000612ba58686612a5f565b9350506020612bb686828701612a5f565b9250506040612b7a86828701612ac9565b600080600080600060808688031215612bdf57600080fd5b6000612beb8888612a5f565b9550506020612bfc88828901612a5f565b9450506040612c0d88828901612ac9565b935050606086013567ffffffffffffffff811115612c2a57600080fd5b612c3688828901612a80565b92509250509295509295909350565b60008060408385031215612c5857600080fd5b6000612c648585612a5f565b9250506020612b2d85828601612ac9565b60008060008060608587031215612c8b57600080fd5b6000612c978787612a5f565b9450506020612ca887828801612ac9565b935050604085013567ffffffffffffffff811115612cc557600080fd5b612cd187828801612a80565b95989497509550505050565b600080600060608486031215612cf257600080fd5b6000612cfe8686612a5f565b9350506020612bb686828701612ac9565b600080600080600060808688031215612d2757600080fd5b6000612d338888612a5f565b9550506020612bfc88828901612ac9565b600060208284031215612d5657600080fd5b60006129df8484612a6a565b600060208284031215612d7457600080fd5b60006129df8484612ac9565b600060208284031215612d9257600080fd5b60006129df8484612ad4565b600080600060408486031215612db357600080fd5b6000612dbf8686612ac9565b935050602084013567ffffffffffffffff811115612ddc57600080fd5b612de886828701612a80565b92509250509250925092565b60008060408385031215612e0757600080fd5b6000612c648585612ac9565b612e1c816130e6565b82525050565b612e1c816130aa565b612e1c816130b5565b612e1c612e40826130ba565b6130c7565b612e1c612e40826130c7565b6000612e5c8261309d565b612e668185610c32565b9350612e76818560208601613103565b9290920192915050565b612e1c816130ed565b612e1c816130f8565b6000612e9d8261309d565b612ea781856130a1565b9350612eb7818560208601613103565b612ec08161312f565b9093019392505050565b6000612ed7601b836130a1565b7f536166654d6174683a206164646974696f6e206f766572666c6f770000000000815260200192915050565b6000612f106021836130a1565b7f536166654d6174683a206d756c7469706c69636174696f6e206f766572666c6f8152607760f81b602082015260400192915050565b612e1c816130c7565b612e1c816130e0565b6000612f648284612e45565b50602001919050565b6000612f798286612e51565b9150612f858285612e34565b600282019150612f958284612e51565b95945050505050565b60208101610bd08284612e22565b60608101612fba8286612e13565b612fc76020830185612e22565b6129df6040830184612f46565b60408101612fe28285612e13565b610cac6020830184612f46565b60608101612fba8286612e22565b60408101612fe28285612e22565b60208101610bd08284612e2b565b60208101610bd08284612e80565b60208101610bd08284612e89565b60208082528101610cac8184612e92565b60208082528101610bd081612eca565b60208082528101610bd081612f03565b60208101610bd08284612f46565b606081016130828286612f46565b612fc76020830185612f46565b60208101610bd08284612f4f565b5190565b90815260200190565b6000610bd0826130d4565b151590565b6001600160f01b03191690565b90565b80610c3281613139565b6001600160a01b031690565b60ff1690565b6000610bd0825b6000610bd0826130aa565b6000610bd0826130ca565b60005b8381101561311e578181015183820152602001613106565b838111156110f25750506000910152565b601f01601f191690565b60038110610c9c57fe5b61314c816130aa565b8114610c9c57600080fd5b61314c816130b5565b60038110610c9c57600080fd5b61314c816130c756fe426f6e64696e673a20696e73756666696369656e74207374616765642062616c616e6365426f6e64696e673a20696e73756666696369656e7420746f74616c20626f6e646564436f6d7074726f6c6c65723a206e6f7420656e6f756768206f75747374616e64696e672064656274436f6d7074726f6c6c65723a206e6f7420656e6f7567682072656465656d61626c652062616c616e6365a365627a7a72315820025fb94cdeb16ebdbadb9e7becda49adf32d47a35a191af166ad5d5cc0e06ca46c6578706572696d656e74616cf564736f6c6343000511004060806040523480156200001157600080fd5b5060405180604001604052806012815260200171223cb730b6b4b19029b2ba102237b63630b960711b815250604051806040016040528060038152602001621114d160ea1b81525060126200007e6200006f6200011960201b60201c565b6001600160e01b036200011e16565b82516200009390600190602086019062000313565b508151620000a990600290602085019062000313565b506003805460ff191660ff9290921691909117905550620001109050620000cf62000170565b604051806040016040528060018152602001603160f81b815250620000fe6200020960201b620016341760201c565b306200020e60201b620016391760201c565b60075562000469565b335b90565b620001398160006200026560201b62000d7e1790919060201c565b6040516001600160a01b038216907f6ae172837ea30b801fbfcdd4108aa1d5bf8ff775444fd70256b44e6bf3dfc3f690600090a250565b60018054604080516020601f60026000196101008789161502019095169490940493840181900481028201810190925282815260609390929091830182828015620001ff5780601f10620001d357610100808354040283529160200191620001ff565b820191906000526020600020905b815481529060010190602001808311620001e157829003601f168201915b5050505050905090565b600190565b8351602094850120835193850193909320604080517f8b73c3c69bb8fe3d512ecc4cf759cc79239f7b179b0ffacaa9a75d522b39400f815295860194909452928401929092526060830152608082015260a0902090565b6200027a82826001600160e01b03620002c816565b15620002a35760405162461bcd60e51b81526004016200029a9062000436565b60405180910390fd5b6001600160a01b0316600090815260209190915260409020805460ff19166001179055565b60006001600160a01b038216620002f35760405162461bcd60e51b81526004016200029a906200044e565b506001600160a01b03166000908152602091909152604090205460ff1690565b828054600181600116156101000203166002900490600052602060002090601f016020900481019282601f106200035657805160ff191683800117855562000386565b8280016001018555821562000386579182015b828111156200038657825182559160200191906001019062000369565b506200039492915062000398565b5090565b6200011b91905b808211156200039457600081556001016200039f565b6000620003c4601f8362000460565b7f526f6c65733a206163636f756e7420616c72656164792068617320726f6c6500815260200192915050565b6000620003ff60228362000460565b7f526f6c65733a206163636f756e7420697320746865207a65726f206164647265815261737360f01b602082015260400192915050565b602080825281016200044881620003b5565b92915050565b602080825281016200044881620003f0565b90815260200190565b61178d80620004796000396000f3fe608060405234801561001057600080fd5b506004361061012c5760003560e01c806395d89b41116100ad578063aa271e1a11610071578063aa271e1a14610256578063d505accf14610269578063dab400f31461027c578063dd62ed3e14610284578063e879c19f146102975761012c565b806395d89b411461020d578063983b2d56146102155780639865027514610228578063a457c2d714610230578063a9059cbb146102435761012c565b806339509351116100f457806339509351146101ac57806340c10f19146101bf57806342966c68146101d257806370a08231146101e757806379cc6790146101fa5761012c565b806306fdde0314610131578063095ea7b31461014f57806318160ddd1461016f57806323b872dd14610184578063313ce56714610197575b600080fd5b61013961029f565b60405161014691906114c6565b60405180910390f35b61016261015d366004610ffc565b610334565b604051610146919061141b565b610177610352565b6040516101469190611429565b610162610192366004610f13565b610358565b61019f6103ca565b6040516101469190611587565b6101626101ba366004610ffc565b6103d3565b6101626101cd366004610ffc565b610427565b6101e56101e036600461102c565b610463565b005b6101776101f5366004610eb3565b610477565b6101e5610208366004610ffc565b610496565b6101396104a4565b6101e5610223366004610eb3565b610502565b6101e5610532565b61016261023e366004610ffc565b610544565b610162610251366004610ffc565b6105b2565b610162610264366004610eb3565b6105c6565b6101e5610277366004610f60565b6105d8565b61017761075f565b610177610292366004610ed9565b610765565b610177610790565b60018054604080516020601f6002600019610100878916150201909516949094049384018190048102820181019092528281526060939092909183018282801561032a5780601f106102ff5761010080835404028352916020019161032a565b820191906000526020600020905b81548152906001019060200180831161030d57829003601f168201915b5050505050905090565b60006103486103416107b4565b84846107b8565b5060015b92915050565b60065490565b600061036584848461086c565b600019610374856102926107b4565b146103c0576103c0846103856107b4565b6103bb856040518060600160405280602981526020016116fd602991396103ae8a6102926107b4565b919063ffffffff61098216565b6107b8565b5060019392505050565b60035460ff1690565b60006103486103e06107b4565b846103bb85600560006103f16107b4565b6001600160a01b03908116825260208083019390935260409182016000908120918c16815292529020549063ffffffff6109ae16565b60006104346102646107b4565b6104595760405162461bcd60e51b815260040161045090611517565b60405180910390fd5b61034883836109da565b61047461046e6107b4565b82610a9a565b50565b6001600160a01b0381166000908152600460205260409020545b919050565b6104a08282610b70565b5050565b60028054604080516020601f600019610100600187161502019094168590049384018190048102820181019092528281526060939092909183018282801561032a5780601f106102ff5761010080835404028352916020019161032a565b61050d6102646107b4565b6105295760405162461bcd60e51b815260040161045090611517565b61047481610beb565b61054261053d6107b4565b610c33565b565b60006103486105516107b4565b846103bb85604051806060016040528060258152602001611726602591396005600061057b6107b4565b6001600160a01b03908116825260208083019390935260409182016000908120918d1681529252902054919063ffffffff61098216565b60006103486105bf6107b4565b848461086c565b600061034c818363ffffffff610c7b16565b6007546001600160a01b03881660009081526008602090815260408083208054600181019091559051929361065a93909261063f927f6e71edae12b1b97f4d1f60370fef10105fa2faae0126114a169c64845d6126c9928e928e928e9290918e9101611437565b60405160208183030381529060405280519060200120610cc3565b90506000600182868686604051600081526020016040526040516106819493929190611491565b6020604051602081039080840390855afa1580156106a3573d6000803e3d6000fd5b5050506020604051035190506106f0896001600160a01b0316826001600160a01b0316146a5065726d69747461626c6560a81b70496e76616c6964207369676e617475726560781b610ce2565b6107236001600160a01b03821615156a5065726d69747461626c6560a81b6b5a65726f206164647265737360a01b610ce2565b610749864211156a5065726d69747461626c6560a81b66115e1c1a5c995960ca1b610ce2565b6107548989896107b8565b505050505050505050565b60075481565b6001600160a01b03918216600090815260056020908152604080832093909416825291909152205490565b7f6e71edae12b1b97f4d1f60370fef10105fa2faae0126114a169c64845d6126c981565b3390565b6001600160a01b0383166107de5760405162461bcd60e51b815260040161045090611567565b6001600160a01b0382166108045760405162461bcd60e51b8152600401610450906114f7565b6001600160a01b0380841660008181526005602090815260408083209487168084529490915290819020849055517f8c5be1e5ebec7d5bd14f71427d1e84f3dd0314c0f7b2291e5b200ac8c7c3b9259061085f908590611429565b60405180910390a3505050565b6001600160a01b0383166108925760405162461bcd60e51b815260040161045090611557565b6001600160a01b0382166108b85760405162461bcd60e51b8152600401610450906114d7565b6108fb816040518060600160405280602681526020016116b3602691396001600160a01b038616600090815260046020526040902054919063ffffffff61098216565b6001600160a01b038085166000908152600460205260408082209390935590841681522054610930908263ffffffff6109ae16565b6001600160a01b0380841660008181526004602052604090819020939093559151908516907fddf252ad1be2c89b69c2b068fc378daa952ba7f163c4a11628f55a4df523b3ef9061085f908590611429565b600081848411156109a65760405162461bcd60e51b815260040161045091906114c6565b505050900390565b6000828201838110156109d35760405162461bcd60e51b815260040161045090611507565b9392505050565b6001600160a01b038216610a005760405162461bcd60e51b815260040161045090611577565b600654610a13908263ffffffff6109ae16565b6006556001600160a01b038216600090815260046020526040902054610a3f908263ffffffff6109ae16565b6001600160a01b0383166000818152600460205260408082209390935591519091907fddf252ad1be2c89b69c2b068fc378daa952ba7f163c4a11628f55a4df523b3ef90610a8e908590611429565b60405180910390a35050565b6001600160a01b038216610ac05760405162461bcd60e51b815260040161045090611547565b610b0381604051806060016040528060228152602001611691602291396001600160a01b038516600090815260046020526040902054919063ffffffff61098216565b6001600160a01b038316600090815260046020526040902055600654610b2f908263ffffffff610d3c16565b6006556040516000906001600160a01b038416907fddf252ad1be2c89b69c2b068fc378daa952ba7f163c4a11628f55a4df523b3ef90610a8e908590611429565b610b7a8282610a9a565b6104a082610b866107b4565b6103bb846040518060600160405280602481526020016116d9602491396001600160a01b038816600090815260056020526040812090610bc46107b4565b6001600160a01b03168152602081019190915260400160002054919063ffffffff61098216565b610bfc60008263ffffffff610d7e16565b6040516001600160a01b038216907f6ae172837ea30b801fbfcdd4108aa1d5bf8ff775444fd70256b44e6bf3dfc3f690600090a250565b610c4460008263ffffffff610dca16565b6040516001600160a01b038216907fe94479a9f7e1952cc78f2d6baab678adc1b772d936c6583def489e524cb6669290600090a250565b60006001600160a01b038216610ca35760405162461bcd60e51b815260040161045090611537565b506001600160a01b03166000908152602091909152604090205460ff1690565b60405161190160f01b8152600281019290925260228201526042902090565b82610d3757610cf082610e12565b6101d160f51b610cff83610e12565b604051602001610d11939291906113ea565b60408051601f198184030181529082905262461bcd60e51b8252610450916004016114c6565b505050565b60006109d383836040518060400160405280601e81526020017f536166654d6174683a207375627472616374696f6e206f766572666c6f770000815250610982565b610d888282610c7b565b15610da55760405162461bcd60e51b8152600401610450906114e7565b6001600160a01b0316600090815260209190915260409020805460ff19166001179055565b610dd48282610c7b565b610df05760405162461bcd60e51b815260040161045090611527565b6001600160a01b0316600090815260209190915260409020805460ff19169055565b60608082604051602001610e2691906113d5565b60408051601f19818403018152919052905060205b8015610e7b57815160001990910190829082908110610e5657fe5b01602001516001600160f81b03191615610e765760010181529050610491565b610e3b565b505060408051600081526020810190915292915050565b803561034c8161160e565b803561034c81611622565b803561034c8161162b565b600060208284031215610ec557600080fd5b6000610ed18484610e92565b949350505050565b60008060408385031215610eec57600080fd5b6000610ef88585610e92565b9250506020610f0985828601610e92565b9150509250929050565b600080600060608486031215610f2857600080fd5b6000610f348686610e92565b9350506020610f4586828701610e92565b9250506040610f5686828701610e9d565b9150509250925092565b600080600080600080600060e0888a031215610f7b57600080fd5b6000610f878a8a610e92565b9750506020610f988a828b01610e92565b9650506040610fa98a828b01610e9d565b9550506060610fba8a828b01610e9d565b9450506080610fcb8a828b01610ea8565b93505060a0610fdc8a828b01610e9d565b92505060c0610fed8a828b01610e9d565b91505092959891949750929550565b6000806040838503121561100f57600080fd5b600061101b8585610e92565b9250506020610f0985828601610e9d565b60006020828403121561103e57600080fd5b6000610ed18484610e9d565b611053816115a2565b82525050565b611053816115ad565b61105361106e826115b2565b6115bf565b611053816115bf565b61105361106e826115bf565b600061109382611595565b61109d8185610491565b93506110ad8185602086016115d4565b9290920192915050565b60006110c282611595565b6110cc8185611599565b93506110dc8185602086016115d4565b6110e581611604565b9093019392505050565b60006110fc602383611599565b7f45524332303a207472616e7366657220746f20746865207a65726f206164647281526265737360e81b602082015260400192915050565b6000611141601f83611599565b7f526f6c65733a206163636f756e7420616c72656164792068617320726f6c6500815260200192915050565b600061117a602283611599565b7f45524332303a20617070726f766520746f20746865207a65726f206164647265815261737360f01b602082015260400192915050565b60006111be601b83611599565b7f536166654d6174683a206164646974696f6e206f766572666c6f770000000000815260200192915050565b60006111f7603083611599565b7f4d696e746572526f6c653a2063616c6c657220646f6573206e6f74206861766581526f20746865204d696e74657220726f6c6560801b602082015260400192915050565b6000611249602183611599565b7f526f6c65733a206163636f756e7420646f6573206e6f74206861766520726f6c8152606560f81b602082015260400192915050565b600061128c602283611599565b7f526f6c65733a206163636f756e7420697320746865207a65726f206164647265815261737360f01b602082015260400192915050565b60006112d0602183611599565b7f45524332303a206275726e2066726f6d20746865207a65726f206164647265738152607360f81b602082015260400192915050565b6000611313602583611599565b7f45524332303a207472616e736665722066726f6d20746865207a65726f206164815264647265737360d81b602082015260400192915050565b600061135a602483611599565b7f45524332303a20617070726f76652066726f6d20746865207a65726f206164648152637265737360e01b602082015260400192915050565b60006113a0601f83611599565b7f45524332303a206d696e7420746f20746865207a65726f206164647265737300815260200192915050565b611053816115ce565b60006113e1828461107c565b50602001919050565b60006113f68286611088565b91506114028285611062565b6002820191506114128284611088565b95945050505050565b6020810161034c8284611059565b6020810161034c8284611073565b60c081016114458289611073565b611452602083018861104a565b61145f604083018761104a565b61146c6060830186611073565b6114796080830185611073565b61148660a0830184611073565b979650505050505050565b6080810161149f8287611073565b6114ac60208301866113cc565b6114b96040830185611073565b6114126060830184611073565b602080825281016109d381846110b7565b6020808252810161034c816110ef565b6020808252810161034c81611134565b6020808252810161034c8161116d565b6020808252810161034c816111b1565b6020808252810161034c816111ea565b6020808252810161034c8161123c565b6020808252810161034c8161127f565b6020808252810161034c816112c3565b6020808252810161034c81611306565b6020808252810161034c8161134d565b6020808252810161034c81611393565b6020810161034c82846113cc565b5190565b90815260200190565b600061034c826115c2565b151590565b6001600160f01b03191690565b90565b6001600160a01b031690565b60ff1690565b60005b838110156115ef5781810151838201526020016115d7565b838111156115fe576000848401525b50505050565b601f01601f191690565b611617816115a2565b811461047457600080fd5b611617816115bf565b611617816115ce565b600190565b8351602094850120835193850193909320604080517f8b73c3c69bb8fe3d512ecc4cf759cc79239f7b179b0ffacaa9a75d522b39400f815295860194909452928401929092526060830152608082015260a090209056fe45524332303a206275726e20616d6f756e7420657863656564732062616c616e636545524332303a207472616e7366657220616d6f756e7420657863656564732062616c616e636545524332303a206275726e20616d6f756e74206578636565647320616c6c6f77616e6365446f6c6c61723a207472616e7366657220616d6f756e74206578636565647320616c6c6f77616e636545524332303a2064656372656173656420616c6c6f77616e63652062656c6f77207a65726fa365627a7a7231582021717f4bb76e445345cb7f360c6be702a59b3219eb6cebef899d276f27b2e4bb6c6578706572696d656e74616cf564736f6c63430005110040",
  "source": "/*\n    Copyright 2020 Dynamic Dollar Devs, based on the works of the Empty Set Squad\n\n    Licensed under the Apache License, Version 2.0 (the \"License\");\n    you may not use this file except in compliance with the License.\n    You may obtain a copy of the License at\n\n    http://www.apache.org/licenses/LICENSE-2.0\n\n    Unless required by applicable law or agreed to in writing, software\n    distributed under the License is distributed on an \"AS IS\" BASIS,\n    WITHOUT WARRANTIES OR CONDITIONS OF ANY KIND, either express or implied.\n    See the License for the specific language governing permissions and\n    limitations under the License.\n*/\n\npragma solidity ^0.5.17;\npragma experimental ABIEncoderV2;\n\nimport \"./MockState.sol\";\nimport \"../dao/Bonding.sol\";\nimport \"./MockComptroller.sol\";\n\ncontract MockBonding is MockComptroller, Bonding {\n    constructor() MockComptroller(address(0)) public { }\n\n    function stepE() external {\n        Bonding.step();\n    }\n}\n",
  "sourcePath": "/Users/cinquemb/Documents/Startups/crypto/dollar/protocol/contracts/mock/MockBonding.sol",
  "compiler": {
    "name": "solc",
    "version": "0.5.17+commit.d19bba13.Emscripten.clang"
  },
  "schemaVersion": "3.3.3",
  "updatedAt": "2021-01-12T08:04:49.665Z",
  "devdoc": {
    "methods": {}
  },
  "userdoc": {
    "methods": {
      "balanceOfStaged(address)": {
        "notice": "Account"
      },
      "createCandidateE(address,uint256)": {
        "notice": "Governance"
      },
      "dollar()": {
        "notice": "Global"
      },
      "epoch()": {
        "notice": "Epoch"
      },
      "incrementBalanceOfE(address,uint256)": {
        "notice": "Account"
      },
      "incrementTotalBondedE(uint256)": {
        "notice": "Global"
      },
      "name()": {
        "notice": "ERC20 Interface"
      },
      "recordedVote(address,address)": {
        "notice": "Governance"
      },
      "setBlockTimestamp(uint256)": {
        "notice": "Mock"
      },
      "setEpochParamsE(uint256,uint256)": {
        "notice": "Epoch"
      },
      "transfer(address,uint256)": {
        "notice": "ERC20 Interface"
      }
    }
  }
}