{
  "contractName": "MockRegulator",
  "abi": [
    {
      "inputs": [
        {
          "internalType": "address",
          "name": "oracle",
          "type": "address"
        },
        {
          "internalType": "address",
          "name": "pool",
          "type": "address"
        }
      ],
      "payable": false,
      "stateMutability": "nonpayable",
      "type": "constructor"
    },
    {
      "anonymous": false,
      "inputs": [
        {
          "indexed": true,
          "internalType": "uint256",
          "name": "epoch",
          "type": "uint256"
        },
        {
          "indexed": false,
          "internalType": "uint256",
          "name": "price",
          "type": "uint256"
        },
        {
          "indexed": false,
          "internalType": "uint256",
          "name": "newDebt",
          "type": "uint256"
        }
      ],
      "name": "SupplyDecrease",
      "type": "event"
    },
    {
      "anonymous": false,
      "inputs": [
        {
          "indexed": true,
          "internalType": "uint256",
          "name": "epoch",
          "type": "uint256"
        },
        {
          "indexed": false,
          "internalType": "uint256",
          "name": "price",
          "type": "uint256"
        },
        {
          "indexed": false,
          "internalType": "uint256",
          "name": "newRedeemable",
          "type": "uint256"
        },
        {
          "indexed": false,
          "internalType": "uint256",
          "name": "lessDebt",
          "type": "uint256"
        },
        {
          "indexed": false,
          "internalType": "uint256",
          "name": "newBonded",
          "type": "uint256"
        }
      ],
      "name": "SupplyIncrease",
      "type": "event"
    },
    {
      "anonymous": false,
      "inputs": [
        {
          "indexed": true,
          "internalType": "uint256",
          "name": "epoch",
          "type": "uint256"
        }
      ],
      "name": "SupplyNeutral",
      "type": "event"
    },
    {
      "anonymous": false,
      "inputs": [
        {
          "indexed": true,
          "internalType": "address",
          "name": "from",
          "type": "address"
        },
        {
          "indexed": true,
          "internalType": "address",
          "name": "to",
          "type": "address"
        },
        {
          "indexed": false,
          "internalType": "uint256",
          "name": "value",
          "type": "uint256"
        }
      ],
      "name": "Transfer",
      "type": "event"
    },
    {
      "constant": true,
      "inputs": [
        {
          "internalType": "address",
          "name": "owner",
          "type": "address"
        },
        {
          "internalType": "address",
          "name": "spender",
          "type": "address"
        }
      ],
      "name": "allowance",
      "outputs": [
        {
          "internalType": "uint256",
          "name": "",
          "type": "uint256"
        }
      ],
      "payable": false,
      "stateMutability": "view",
      "type": "function"
    },
    {
      "constant": true,
      "inputs": [
        {
          "internalType": "address",
          "name": "owner",
          "type": "address"
        },
        {
          "internalType": "address",
          "name": "spender",
          "type": "address"
        }
      ],
      "name": "allowanceCoupons",
      "outputs": [
        {
          "internalType": "uint256",
          "name": "",
          "type": "uint256"
        }
      ],
      "payable": false,
      "stateMutability": "view",
      "type": "function"
    },
    {
      "constant": false,
      "inputs": [
        {
          "internalType": "address",
          "name": "spender",
          "type": "address"
        },
        {
          "internalType": "uint256",
          "name": "amount",
          "type": "uint256"
        }
      ],
      "name": "approve",
      "outputs": [
        {
          "internalType": "bool",
          "name": "",
          "type": "bool"
        }
      ],
      "payable": false,
      "stateMutability": "nonpayable",
      "type": "function"
    },
    {
      "constant": true,
      "inputs": [
        {
          "internalType": "address",
          "name": "candidate",
          "type": "address"
        }
      ],
      "name": "approveFor",
      "outputs": [
        {
          "internalType": "uint256",
          "name": "",
          "type": "uint256"
        }
      ],
      "payable": false,
      "stateMutability": "view",
      "type": "function"
    },
    {
      "constant": true,
      "inputs": [
        {
          "internalType": "address",
          "name": "account",
          "type": "address"
        }
      ],
      "name": "balanceOf",
      "outputs": [
        {
          "internalType": "uint256",
          "name": "",
          "type": "uint256"
        }
      ],
      "payable": false,
      "stateMutability": "view",
      "type": "function"
    },
    {
      "constant": true,
      "inputs": [
        {
          "internalType": "address",
          "name": "account",
          "type": "address"
        }
      ],
      "name": "balanceOfBonded",
      "outputs": [
        {
          "internalType": "uint256",
          "name": "",
          "type": "uint256"
        }
      ],
      "payable": false,
      "stateMutability": "view",
      "type": "function"
    },
    {
      "constant": true,
      "inputs": [
        {
          "internalType": "address",
          "name": "account",
          "type": "address"
        },
        {
          "internalType": "uint256",
          "name": "epoch",
          "type": "uint256"
        }
      ],
      "name": "balanceOfCoupons",
      "outputs": [
        {
          "internalType": "uint256",
          "name": "",
          "type": "uint256"
        }
      ],
      "payable": false,
      "stateMutability": "view",
      "type": "function"
    },
    {
      "constant": true,
      "inputs": [
        {
          "internalType": "address",
          "name": "account",
          "type": "address"
        }
      ],
      "name": "balanceOfStaged",
      "outputs": [
        {
          "internalType": "uint256",
          "name": "",
          "type": "uint256"
        }
      ],
      "payable": false,
      "stateMutability": "view",
      "type": "function"
    },
    {
      "constant": false,
      "inputs": [
        {
          "internalType": "address",
          "name": "account",
          "type": "address"
        },
        {
          "internalType": "uint256",
          "name": "amount",
          "type": "uint256"
        }
      ],
      "name": "burnFromAccountE",
      "outputs": [],
      "payable": false,
      "stateMutability": "nonpayable",
      "type": "function"
    },
    {
      "constant": false,
      "inputs": [
        {
          "internalType": "uint256",
          "name": "amount",
          "type": "uint256"
        }
      ],
      "name": "burnRedeemableE",
      "outputs": [],
      "payable": false,
      "stateMutability": "nonpayable",
      "type": "function"
    },
    {
      "constant": true,
      "inputs": [
        {
          "internalType": "uint256",
          "name": "epoch",
          "type": "uint256"
        }
      ],
      "name": "couponsExpiration",
      "outputs": [
        {
          "internalType": "uint256",
          "name": "",
          "type": "uint256"
        }
      ],
      "payable": false,
      "stateMutability": "view",
      "type": "function"
    },
    {
      "constant": false,
      "inputs": [
        {
          "internalType": "address",
          "name": "candidate",
          "type": "address"
        },
        {
          "internalType": "uint256",
          "name": "period",
          "type": "uint256"
        }
      ],
      "name": "createCandidateE",
      "outputs": [],
      "payable": false,
      "stateMutability": "nonpayable",
      "type": "function"
    },
    {
      "constant": true,
      "inputs": [],
      "name": "decimals",
      "outputs": [
        {
          "internalType": "uint8",
          "name": "",
          "type": "uint8"
        }
      ],
      "payable": false,
      "stateMutability": "view",
      "type": "function"
    },
    {
      "constant": false,
      "inputs": [
        {
          "internalType": "uint256",
          "name": "amount",
          "type": "uint256"
        }
      ],
      "name": "decreaseDebtE",
      "outputs": [],
      "payable": false,
      "stateMutability": "nonpayable",
      "type": "function"
    },
    {
      "constant": false,
      "inputs": [
        {
          "internalType": "address",
          "name": "owner",
          "type": "address"
        },
        {
          "internalType": "address",
          "name": "spender",
          "type": "address"
        },
        {
          "internalType": "uint256",
          "name": "amount",
          "type": "uint256"
        },
        {
          "internalType": "string",
          "name": "reason",
          "type": "string"
        }
      ],
      "name": "decrementAllowanceCouponsE",
      "outputs": [],
      "payable": false,
      "stateMutability": "nonpayable",
      "type": "function"
    },
    {
      "constant": false,
      "inputs": [
        {
          "internalType": "address",
          "name": "candidate",
          "type": "address"
        },
        {
          "internalType": "uint256",
          "name": "amount",
          "type": "uint256"
        },
        {
          "internalType": "string",
          "name": "reason",
          "type": "string"
        }
      ],
      "name": "decrementApproveForE",
      "outputs": [],
      "payable": false,
      "stateMutability": "nonpayable",
      "type": "function"
    },
    {
      "constant": false,
      "inputs": [
        {
          "internalType": "address",
          "name": "account",
          "type": "address"
        },
        {
          "internalType": "uint256",
          "name": "epoch",
          "type": "uint256"
        },
        {
          "internalType": "uint256",
          "name": "amount",
          "type": "uint256"
        },
        {
          "internalType": "string",
          "name": "reason",
          "type": "string"
        }
      ],
      "name": "decrementBalanceOfCouponsE",
      "outputs": [],
      "payable": false,
      "stateMutability": "nonpayable",
      "type": "function"
    },
    {
      "constant": false,
      "inputs": [
        {
          "internalType": "address",
          "name": "account",
          "type": "address"
        },
        {
          "internalType": "uint256",
          "name": "amount",
          "type": "uint256"
        },
        {
          "internalType": "string",
          "name": "reason",
          "type": "string"
        }
      ],
      "name": "decrementBalanceOfE",
      "outputs": [],
      "payable": false,
      "stateMutability": "nonpayable",
      "type": "function"
    },
    {
      "constant": false,
      "inputs": [
        {
          "internalType": "address",
          "name": "account",
          "type": "address"
        },
        {
          "internalType": "uint256",
          "name": "amount",
          "type": "uint256"
        },
        {
          "internalType": "string",
          "name": "reason",
          "type": "string"
        }
      ],
      "name": "decrementBalanceOfStagedE",
      "outputs": [],
      "payable": false,
      "stateMutability": "nonpayable",
      "type": "function"
    },
    {
      "constant": false,
      "inputs": [
        {
          "internalType": "address",
          "name": "candidate",
          "type": "address"
        },
        {
          "internalType": "uint256",
          "name": "amount",
          "type": "uint256"
        },
        {
          "internalType": "string",
          "name": "reason",
          "type": "string"
        }
      ],
      "name": "decrementRejectForE",
      "outputs": [],
      "payable": false,
      "stateMutability": "nonpayable",
      "type": "function"
    },
    {
      "constant": false,
      "inputs": [
        {
          "internalType": "uint256",
          "name": "amount",
          "type": "uint256"
        },
        {
          "internalType": "string",
          "name": "reason",
          "type": "string"
        }
      ],
      "name": "decrementTotalBondedE",
      "outputs": [],
      "payable": false,
      "stateMutability": "nonpayable",
      "type": "function"
    },
    {
      "constant": false,
      "inputs": [
        {
          "internalType": "uint256",
          "name": "amount",
          "type": "uint256"
        },
        {
          "internalType": "string",
          "name": "reason",
          "type": "string"
        }
      ],
      "name": "decrementTotalDebtE",
      "outputs": [],
      "payable": false,
      "stateMutability": "nonpayable",
      "type": "function"
    },
    {
      "constant": false,
      "inputs": [
        {
          "internalType": "uint256",
          "name": "amount",
          "type": "uint256"
        },
        {
          "internalType": "string",
          "name": "reason",
          "type": "string"
        }
      ],
      "name": "decrementTotalRedeemableE",
      "outputs": [],
      "payable": false,
      "stateMutability": "nonpayable",
      "type": "function"
    },
    {
      "constant": true,
      "inputs": [],
      "name": "dollar",
      "outputs": [
        {
          "internalType": "contract IDollar",
          "name": "",
          "type": "address"
        }
      ],
      "payable": false,
      "stateMutability": "view",
      "type": "function"
    },
    {
      "constant": false,
      "inputs": [
        {
          "internalType": "uint256",
          "name": "epoch",
          "type": "uint256"
        }
      ],
      "name": "eliminateOutstandingCouponsE",
      "outputs": [],
      "payable": false,
      "stateMutability": "nonpayable",
      "type": "function"
    },
    {
      "constant": true,
      "inputs": [],
      "name": "epoch",
      "outputs": [
        {
          "internalType": "uint256",
          "name": "",
          "type": "uint256"
        }
      ],
      "payable": false,
      "stateMutability": "view",
      "type": "function"
    },
    {
      "constant": true,
      "inputs": [],
      "name": "epochTime",
      "outputs": [
        {
          "internalType": "uint256",
          "name": "",
          "type": "uint256"
        }
      ],
      "payable": false,
      "stateMutability": "view",
      "type": "function"
    },
    {
      "constant": true,
      "inputs": [
        {
          "internalType": "uint256",
          "name": "epoch",
          "type": "uint256"
        }
      ],
      "name": "expiringCoupons",
      "outputs": [
        {
          "internalType": "uint256",
          "name": "",
          "type": "uint256"
        }
      ],
      "payable": false,
      "stateMutability": "view",
      "type": "function"
    },
    {
      "constant": true,
      "inputs": [
        {
          "internalType": "uint256",
          "name": "epoch",
          "type": "uint256"
        },
        {
          "internalType": "uint256",
          "name": "i",
          "type": "uint256"
        }
      ],
      "name": "expiringCouponsAtIndex",
      "outputs": [
        {
          "internalType": "uint256",
          "name": "",
          "type": "uint256"
        }
      ],
      "payable": false,
      "stateMutability": "view",
      "type": "function"
    },
    {
      "constant": true,
      "inputs": [
        {
          "internalType": "address",
          "name": "account",
          "type": "address"
        }
      ],
      "name": "fluidUntil",
      "outputs": [
        {
          "internalType": "uint256",
          "name": "",
          "type": "uint256"
        }
      ],
      "payable": false,
      "stateMutability": "view",
      "type": "function"
    },
    {
      "constant": true,
      "inputs": [
        {
          "internalType": "uint256",
          "name": "epoch",
          "type": "uint256"
        }
      ],
      "name": "getAvgExpiryFilled",
      "outputs": [
        {
          "internalType": "uint256",
          "name": "",
          "type": "uint256"
        }
      ],
      "payable": false,
      "stateMutability": "view",
      "type": "function"
    },
    {
      "constant": true,
      "inputs": [
        {
          "internalType": "uint256",
          "name": "epoch",
          "type": "uint256"
        }
      ],
      "name": "getAvgYieldFilled",
      "outputs": [
        {
          "internalType": "uint256",
          "name": "",
          "type": "uint256"
        }
      ],
      "payable": false,
      "stateMutability": "view",
      "type": "function"
    },
    {
      "constant": true,
      "inputs": [
        {
          "internalType": "uint256",
          "name": "epoch",
          "type": "uint256"
        }
      ],
      "name": "getBidToCover",
      "outputs": [
        {
          "internalType": "uint256",
          "name": "",
          "type": "uint256"
        }
      ],
      "payable": false,
      "stateMutability": "view",
      "type": "function"
    },
    {
      "constant": true,
      "inputs": [
        {
          "internalType": "uint256",
          "name": "epoch",
          "type": "uint256"
        }
      ],
      "name": "getMaxExpiryFilled",
      "outputs": [
        {
          "internalType": "uint256",
          "name": "",
          "type": "uint256"
        }
      ],
      "payable": false,
      "stateMutability": "view",
      "type": "function"
    },
    {
      "constant": true,
      "inputs": [
        {
          "internalType": "uint256",
          "name": "epoch",
          "type": "uint256"
        }
      ],
      "name": "getMaxYieldFilled",
      "outputs": [
        {
          "internalType": "uint256",
          "name": "",
          "type": "uint256"
        }
      ],
      "payable": false,
      "stateMutability": "view",
      "type": "function"
    },
    {
      "constant": true,
      "inputs": [
        {
          "internalType": "uint256",
          "name": "epoch",
          "type": "uint256"
        }
      ],
      "name": "getMinExpiryFilled",
      "outputs": [
        {
          "internalType": "uint256",
          "name": "",
          "type": "uint256"
        }
      ],
      "payable": false,
      "stateMutability": "view",
      "type": "function"
    },
    {
      "constant": true,
      "inputs": [
        {
          "internalType": "uint256",
          "name": "epoch",
          "type": "uint256"
        }
      ],
      "name": "getMinYieldFilled",
      "outputs": [
        {
          "internalType": "uint256",
          "name": "",
          "type": "uint256"
        }
      ],
      "payable": false,
      "stateMutability": "view",
      "type": "function"
    },
    {
      "constant": true,
      "inputs": [
        {
          "internalType": "uint256",
          "name": "epoch",
          "type": "uint256"
        }
      ],
      "name": "getTotalAuctioned",
      "outputs": [
        {
          "internalType": "uint256",
          "name": "",
          "type": "uint256"
        }
      ],
      "payable": false,
      "stateMutability": "view",
      "type": "function"
    },
    {
      "constant": true,
      "inputs": [
        {
          "internalType": "uint256",
          "name": "epoch",
          "type": "uint256"
        }
      ],
      "name": "getTotalBurned",
      "outputs": [
        {
          "internalType": "uint256",
          "name": "",
          "type": "uint256"
        }
      ],
      "payable": false,
      "stateMutability": "view",
      "type": "function"
    },
    {
      "constant": true,
      "inputs": [
        {
          "internalType": "uint256",
          "name": "epoch",
          "type": "uint256"
        }
      ],
      "name": "getTotalFilled",
      "outputs": [
        {
          "internalType": "uint256",
          "name": "",
          "type": "uint256"
        }
      ],
      "payable": false,
      "stateMutability": "view",
      "type": "function"
    },
    {
      "constant": true,
      "inputs": [],
      "name": "implementation",
      "outputs": [
        {
          "internalType": "address",
          "name": "impl",
          "type": "address"
        }
      ],
      "payable": false,
      "stateMutability": "view",
      "type": "function"
    },
    {
      "constant": false,
      "inputs": [
        {
          "internalType": "uint256",
          "name": "amount",
          "type": "uint256"
        }
      ],
      "name": "increaseDebtE",
      "outputs": [],
      "payable": false,
      "stateMutability": "nonpayable",
      "type": "function"
    },
    {
      "constant": false,
      "inputs": [
        {
          "internalType": "address",
          "name": "candidate",
          "type": "address"
        },
        {
          "internalType": "uint256",
          "name": "amount",
          "type": "uint256"
        }
      ],
      "name": "incrementApproveForE",
      "outputs": [],
      "payable": false,
      "stateMutability": "nonpayable",
      "type": "function"
    },
    {
      "constant": false,
      "inputs": [
        {
          "internalType": "address",
          "name": "account",
          "type": "address"
        },
        {
          "internalType": "uint256",
          "name": "epoch",
          "type": "uint256"
        },
        {
          "internalType": "uint256",
          "name": "amount",
          "type": "uint256"
        }
      ],
      "name": "incrementBalanceOfCouponsE",
      "outputs": [],
      "payable": false,
      "stateMutability": "nonpayable",
      "type": "function"
    },
    {
      "constant": false,
      "inputs": [
        {
          "internalType": "address",
          "name": "account",
          "type": "address"
        },
        {
          "internalType": "uint256",
          "name": "amount",
          "type": "uint256"
        }
      ],
      "name": "incrementBalanceOfE",
      "outputs": [],
      "payable": false,
      "stateMutability": "nonpayable",
      "type": "function"
    },
    {
      "constant": false,
      "inputs": [
        {
          "internalType": "address",
          "name": "account",
          "type": "address"
        },
        {
          "internalType": "uint256",
          "name": "amount",
          "type": "uint256"
        }
      ],
      "name": "incrementBalanceOfStagedE",
      "outputs": [],
      "payable": false,
      "stateMutability": "nonpayable",
      "type": "function"
    },
    {
      "constant": false,
      "inputs": [],
      "name": "incrementEpochE",
      "outputs": [],
      "payable": false,
      "stateMutability": "nonpayable",
      "type": "function"
    },
    {
      "constant": false,
      "inputs": [
        {
          "internalType": "address",
          "name": "candidate",
          "type": "address"
        },
        {
          "internalType": "uint256",
          "name": "amount",
          "type": "uint256"
        }
      ],
      "name": "incrementRejectForE",
      "outputs": [],
      "payable": false,
      "stateMutability": "nonpayable",
      "type": "function"
    },
    {
      "constant": false,
      "inputs": [
        {
          "internalType": "uint256",
          "name": "amount",
          "type": "uint256"
        }
      ],
      "name": "incrementTotalBondedE",
      "outputs": [],
      "payable": false,
      "stateMutability": "nonpayable",
      "type": "function"
    },
    {
      "constant": false,
      "inputs": [
        {
          "internalType": "uint256",
          "name": "amount",
          "type": "uint256"
        }
      ],
      "name": "incrementTotalDebtE",
      "outputs": [],
      "payable": false,
      "stateMutability": "nonpayable",
      "type": "function"
    },
    {
      "constant": false,
      "inputs": [
        {
          "internalType": "uint256",
          "name": "amount",
          "type": "uint256"
        }
      ],
      "name": "incrementTotalRedeemableE",
      "outputs": [],
      "payable": false,
      "stateMutability": "nonpayable",
      "type": "function"
    },
    {
      "constant": false,
      "inputs": [
        {
          "internalType": "uint256",
          "name": "epoch",
          "type": "uint256"
        },
        {
          "internalType": "uint256",
          "name": "expiration",
          "type": "uint256"
        }
      ],
      "name": "initializeCouponsExpirationE",
      "outputs": [],
      "payable": false,
      "stateMutability": "nonpayable",
      "type": "function"
    },
    {
      "constant": false,
      "inputs": [
        {
          "internalType": "address",
          "name": "candidate",
          "type": "address"
        }
      ],
      "name": "initializedE",
      "outputs": [],
      "payable": false,
      "stateMutability": "nonpayable",
      "type": "function"
    },
    {
      "constant": false,
      "inputs": [
        {
          "internalType": "uint256",
          "name": "epoch",
          "type": "uint256"
        }
      ],
      "name": "isCouponAuctionInitAtEpochE",
      "outputs": [
        {
          "internalType": "bool",
          "name": "",
          "type": "bool"
        }
      ],
      "payable": false,
      "stateMutability": "nonpayable",
      "type": "function"
    },
    {
      "constant": true,
      "inputs": [
        {
          "internalType": "address",
          "name": "candidate",
          "type": "address"
        }
      ],
      "name": "isInitialized",
      "outputs": [
        {
          "internalType": "bool",
          "name": "",
          "type": "bool"
        }
      ],
      "payable": false,
      "stateMutability": "view",
      "type": "function"
    },
    {
      "constant": true,
      "inputs": [
        {
          "internalType": "address",
          "name": "candidate",
          "type": "address"
        }
      ],
      "name": "isNominated",
      "outputs": [
        {
          "internalType": "bool",
          "name": "",
          "type": "bool"
        }
      ],
      "payable": false,
      "stateMutability": "view",
      "type": "function"
    },
    {
      "constant": true,
      "inputs": [
        {
          "internalType": "address",
          "name": "account",
          "type": "address"
        }
      ],
      "name": "lockedUntil",
      "outputs": [
        {
          "internalType": "uint256",
          "name": "",
          "type": "uint256"
        }
      ],
      "payable": false,
      "stateMutability": "view",
      "type": "function"
    },
    {
      "constant": false,
      "inputs": [
        {
          "internalType": "address",
          "name": "account",
          "type": "address"
        },
        {
          "internalType": "uint256",
          "name": "amount",
          "type": "uint256"
        }
      ],
      "name": "mintToAccountE",
      "outputs": [],
      "payable": false,
      "stateMutability": "nonpayable",
      "type": "function"
    },
    {
      "constant": false,
      "inputs": [
        {
          "internalType": "address",
          "name": "account",
          "type": "address"
        },
        {
          "internalType": "uint256",
          "name": "amount",
          "type": "uint256"
        }
      ],
      "name": "mintToE",
      "outputs": [],
      "payable": false,
      "stateMutability": "nonpayable",
      "type": "function"
    },
    {
      "constant": true,
      "inputs": [],
      "name": "name",
      "outputs": [
        {
          "internalType": "string",
          "name": "",
          "type": "string"
        }
      ],
      "payable": false,
      "stateMutability": "view",
      "type": "function"
    },
    {
      "constant": true,
      "inputs": [],
      "name": "oracle",
      "outputs": [
        {
          "internalType": "contract IOracle",
          "name": "",
          "type": "address"
        }
      ],
      "payable": false,
      "stateMutability": "view",
      "type": "function"
    },
    {
      "constant": true,
      "inputs": [
        {
          "internalType": "uint256",
          "name": "epoch",
          "type": "uint256"
        }
      ],
      "name": "outstandingCoupons",
      "outputs": [
        {
          "internalType": "uint256",
          "name": "",
          "type": "uint256"
        }
      ],
      "payable": false,
      "stateMutability": "view",
      "type": "function"
    },
    {
      "constant": true,
      "inputs": [
        {
          "internalType": "address",
          "name": "candidate",
          "type": "address"
        }
      ],
      "name": "periodFor",
      "outputs": [
        {
          "internalType": "uint256",
          "name": "",
          "type": "uint256"
        }
      ],
      "payable": false,
      "stateMutability": "view",
      "type": "function"
    },
    {
      "constant": false,
      "inputs": [
        {
          "internalType": "address",
          "name": "account",
          "type": "address"
        },
        {
          "internalType": "address",
          "name": "candidate",
          "type": "address"
        }
      ],
      "name": "placeLockE",
      "outputs": [],
      "payable": false,
      "stateMutability": "nonpayable",
      "type": "function"
    },
    {
      "constant": true,
      "inputs": [],
      "name": "pool",
      "outputs": [
        {
          "internalType": "address",
          "name": "",
          "type": "address"
        }
      ],
      "payable": false,
      "stateMutability": "view",
      "type": "function"
    },
    {
      "constant": false,
      "inputs": [
        {
          "internalType": "address",
          "name": "account",
          "type": "address"
        },
        {
          "internalType": "address",
          "name": "candidate",
          "type": "address"
        },
        {
          "internalType": "enum Candidate.Vote",
          "name": "vote",
          "type": "uint8"
        }
      ],
      "name": "recordVoteE",
      "outputs": [],
      "payable": false,
      "stateMutability": "nonpayable",
      "type": "function"
    },
    {
      "constant": true,
      "inputs": [
        {
          "internalType": "address",
          "name": "account",
          "type": "address"
        },
        {
          "internalType": "address",
          "name": "candidate",
          "type": "address"
        }
      ],
      "name": "recordedVote",
      "outputs": [
        {
          "internalType": "enum Candidate.Vote",
          "name": "",
          "type": "uint8"
        }
      ],
      "payable": false,
      "stateMutability": "view",
      "type": "function"
    },
    {
      "constant": false,
      "inputs": [
        {
          "internalType": "address",
          "name": "account",
          "type": "address"
        },
        {
          "internalType": "uint256",
          "name": "amount",
          "type": "uint256"
        }
      ],
      "name": "redeemToAccountE",
      "outputs": [],
      "payable": false,
      "stateMutability": "nonpayable",
      "type": "function"
    },
    {
      "constant": true,
      "inputs": [
        {
          "internalType": "address",
          "name": "candidate",
          "type": "address"
        }
      ],
      "name": "rejectFor",
      "outputs": [
        {
          "internalType": "uint256",
          "name": "",
          "type": "uint256"
        }
      ],
      "payable": false,
      "stateMutability": "view",
      "type": "function"
    },
    {
      "constant": false,
      "inputs": [
        {
          "internalType": "uint256",
          "name": "percent",
          "type": "uint256"
        }
      ],
      "name": "resetDebtE",
      "outputs": [],
      "payable": false,
      "stateMutability": "nonpayable",
      "type": "function"
    },
    {
      "constant": false,
      "inputs": [
        {
          "internalType": "uint256",
          "name": "timestamp",
          "type": "uint256"
        }
      ],
      "name": "setBlockTimestamp",
      "outputs": [],
      "payable": false,
      "stateMutability": "nonpayable",
      "type": "function"
    },
    {
      "constant": false,
      "inputs": [
        {
          "internalType": "uint256",
          "name": "start",
          "type": "uint256"
        },
        {
          "internalType": "uint256",
          "name": "period",
          "type": "uint256"
        }
      ],
      "name": "setEpochParamsE",
      "outputs": [],
      "payable": false,
      "stateMutability": "nonpayable",
      "type": "function"
    },
    {
      "constant": false,
      "inputs": [],
      "name": "snapshotTotalBondedE",
      "outputs": [],
      "payable": false,
      "stateMutability": "nonpayable",
      "type": "function"
    },
    {
      "constant": true,
      "inputs": [
        {
          "internalType": "address",
          "name": "candidate",
          "type": "address"
        }
      ],
      "name": "startFor",
      "outputs": [
        {
          "internalType": "uint256",
          "name": "",
          "type": "uint256"
        }
      ],
      "payable": false,
      "stateMutability": "view",
      "type": "function"
    },
    {
      "constant": true,
      "inputs": [
        {
          "internalType": "address",
          "name": "account",
          "type": "address"
        }
      ],
      "name": "statusOf",
      "outputs": [
        {
          "internalType": "enum Account.Status",
          "name": "",
          "type": "uint8"
        }
      ],
      "payable": false,
      "stateMutability": "view",
      "type": "function"
    },
    {
      "constant": true,
      "inputs": [],
      "name": "symbol",
      "outputs": [
        {
          "internalType": "string",
          "name": "",
          "type": "string"
        }
      ],
      "payable": false,
      "stateMutability": "view",
      "type": "function"
    },
    {
      "constant": true,
      "inputs": [],
      "name": "totalBonded",
      "outputs": [
        {
          "internalType": "uint256",
          "name": "",
          "type": "uint256"
        }
      ],
      "payable": false,
      "stateMutability": "view",
      "type": "function"
    },
    {
      "constant": true,
      "inputs": [
        {
          "internalType": "uint256",
          "name": "epoch",
          "type": "uint256"
        }
      ],
      "name": "totalBondedAt",
      "outputs": [
        {
          "internalType": "uint256",
          "name": "",
          "type": "uint256"
        }
      ],
      "payable": false,
      "stateMutability": "view",
      "type": "function"
    },
    {
      "constant": true,
      "inputs": [],
      "name": "totalCoupons",
      "outputs": [
        {
          "internalType": "uint256",
          "name": "",
          "type": "uint256"
        }
      ],
      "payable": false,
      "stateMutability": "view",
      "type": "function"
    },
    {
      "constant": true,
      "inputs": [],
      "name": "totalDebt",
      "outputs": [
        {
          "internalType": "uint256",
          "name": "",
          "type": "uint256"
        }
      ],
      "payable": false,
      "stateMutability": "view",
      "type": "function"
    },
    {
      "constant": true,
      "inputs": [],
      "name": "totalNet",
      "outputs": [
        {
          "internalType": "uint256",
          "name": "",
          "type": "uint256"
        }
      ],
      "payable": false,
      "stateMutability": "view",
      "type": "function"
    },
    {
      "constant": true,
      "inputs": [],
      "name": "totalRedeemable",
      "outputs": [
        {
          "internalType": "uint256",
          "name": "",
          "type": "uint256"
        }
      ],
      "payable": false,
      "stateMutability": "view",
      "type": "function"
    },
    {
      "constant": true,
      "inputs": [],
      "name": "totalStaged",
      "outputs": [
        {
          "internalType": "uint256",
          "name": "",
          "type": "uint256"
        }
      ],
      "payable": false,
      "stateMutability": "view",
      "type": "function"
    },
    {
      "constant": true,
      "inputs": [],
      "name": "totalSupply",
      "outputs": [
        {
          "internalType": "uint256",
          "name": "",
          "type": "uint256"
        }
      ],
      "payable": false,
      "stateMutability": "view",
      "type": "function"
    },
    {
      "constant": false,
      "inputs": [
        {
          "internalType": "address",
          "name": "recipient",
          "type": "address"
        },
        {
          "internalType": "uint256",
          "name": "amount",
          "type": "uint256"
        }
      ],
      "name": "transfer",
      "outputs": [
        {
          "internalType": "bool",
          "name": "",
          "type": "bool"
        }
      ],
      "payable": false,
      "stateMutability": "nonpayable",
      "type": "function"
    },
    {
      "constant": false,
      "inputs": [
        {
          "internalType": "address",
          "name": "sender",
          "type": "address"
        },
        {
          "internalType": "address",
          "name": "recipient",
          "type": "address"
        },
        {
          "internalType": "uint256",
          "name": "amount",
          "type": "uint256"
        }
      ],
      "name": "transferFrom",
      "outputs": [
        {
          "internalType": "bool",
          "name": "",
          "type": "bool"
        }
      ],
      "payable": false,
      "stateMutability": "nonpayable",
      "type": "function"
    },
    {
      "constant": false,
      "inputs": [
        {
          "internalType": "address",
          "name": "account",
          "type": "address"
        }
      ],
      "name": "unfreezeE",
      "outputs": [],
      "payable": false,
      "stateMutability": "nonpayable",
      "type": "function"
    },
    {
      "constant": false,
      "inputs": [
        {
          "internalType": "address",
          "name": "owner",
          "type": "address"
        },
        {
          "internalType": "address",
          "name": "spender",
          "type": "address"
        },
        {
          "internalType": "uint256",
          "name": "amount",
          "type": "uint256"
        }
      ],
      "name": "updateAllowanceCouponsE",
      "outputs": [],
      "payable": false,
      "stateMutability": "nonpayable",
      "type": "function"
    },
    {
      "constant": true,
      "inputs": [
        {
          "internalType": "address",
          "name": "candidate",
          "type": "address"
        }
      ],
      "name": "votesFor",
      "outputs": [
        {
          "internalType": "uint256",
          "name": "",
          "type": "uint256"
        }
      ],
      "payable": false,
      "stateMutability": "view",
      "type": "function"
    },
    {
      "constant": false,
      "inputs": [],
      "name": "stepE",
      "outputs": [],
      "payable": false,
      "stateMutability": "nonpayable",
      "type": "function"
    },
    {
      "constant": true,
      "inputs": [
        {
          "internalType": "uint256",
          "name": "epoch",
          "type": "uint256"
        }
      ],
      "name": "bootstrappingAt",
      "outputs": [
        {
          "internalType": "bool",
          "name": "",
          "type": "bool"
        }
      ],
      "payable": false,
      "stateMutability": "view",
      "type": "function"
    },
    {
      "constant": false,
      "inputs": [],
      "name": "settleCouponAuctionE",
      "outputs": [],
      "payable": false,
      "stateMutability": "nonpayable",
      "type": "function"
    },
    {
      "constant": false,
      "inputs": [
        {
          "internalType": "uint256",
          "name": "epoch",
          "type": "uint256"
        }
      ],
      "name": "cancelCouponAuctionAtEpochE",
      "outputs": [],
      "payable": false,
      "stateMutability": "nonpayable",
      "type": "function"
    },
    {
      "constant": false,
      "inputs": [
        {
          "internalType": "uint256",
          "name": "epoch",
          "type": "uint256"
        }
      ],
      "name": "finishCouponAuctionAtEpochE",
      "outputs": [],
      "payable": false,
      "stateMutability": "nonpayable",
      "type": "function"
    },
    {
      "constant": false,
      "inputs": [],
      "name": "initCouponAuctionE",
      "outputs": [],
      "payable": false,
      "stateMutability": "nonpayable",
      "type": "function"
    },
    {
      "constant": false,
      "inputs": [],
      "name": "getCouponAuctionBidsE",
      "outputs": [
        {
          "internalType": "uint256",
          "name": "",
          "type": "uint256"
        }
      ],
      "payable": false,
      "stateMutability": "nonpayable",
      "type": "function"
    },
    {
      "constant": false,
      "inputs": [],
      "name": "getCouponAuctionMinExpiryE",
      "outputs": [
        {
          "internalType": "uint256",
          "name": "",
          "type": "uint256"
        }
      ],
      "payable": false,
      "stateMutability": "nonpayable",
      "type": "function"
    },
    {
      "constant": false,
      "inputs": [],
      "name": "getCouponAuctionMaxExpiryE",
      "outputs": [
        {
          "internalType": "uint256",
          "name": "",
          "type": "uint256"
        }
      ],
      "payable": false,
      "stateMutability": "nonpayable",
      "type": "function"
    },
    {
      "constant": false,
      "inputs": [],
      "name": "getCouponAuctionMinYieldE",
      "outputs": [
        {
          "internalType": "uint256",
          "name": "",
          "type": "uint256"
        }
      ],
      "payable": false,
      "stateMutability": "nonpayable",
      "type": "function"
    },
    {
      "constant": false,
      "inputs": [],
      "name": "getCouponAuctionMaxYieldE",
      "outputs": [
        {
          "internalType": "uint256",
          "name": "",
          "type": "uint256"
        }
      ],
      "payable": false,
      "stateMutability": "nonpayable",
      "type": "function"
    },
    {
      "constant": false,
      "inputs": [],
      "name": "getCouponAuctionMinDollarAmountE",
      "outputs": [
        {
          "internalType": "uint256",
          "name": "",
          "type": "uint256"
        }
      ],
      "payable": false,
      "stateMutability": "nonpayable",
      "type": "function"
    },
    {
      "constant": false,
      "inputs": [],
      "name": "getCouponAuctionMaxDollarAmountE",
      "outputs": [
        {
          "internalType": "uint256",
          "name": "",
          "type": "uint256"
        }
      ],
      "payable": false,
      "stateMutability": "nonpayable",
      "type": "function"
    },
    {
      "constant": false,
      "inputs": [
        {
          "internalType": "uint256",
          "name": "couponEpochExpiry",
          "type": "uint256"
        },
        {
          "internalType": "uint256",
          "name": "dollarAmount",
          "type": "uint256"
        },
        {
          "internalType": "uint256",
          "name": "maxCouponAmount",
          "type": "uint256"
        }
      ],
      "name": "placeCouponAuctionBid",
      "outputs": [
        {
          "internalType": "bool",
          "name": "",
          "type": "bool"
        }
      ],
      "payable": false,
      "stateMutability": "nonpayable",
      "type": "function"
    }
  ],
  "bytecode": "0x60806040526000601155600060125560006013556000601455600060155560006016556000196017556200003d620000fe60201b62003bcc1760201c565b516018556040805160208101909152600019908190526019553480156200006357600080fd5b5060405162006ff638038062006ff683398101604081905262000086916200014f565b42600f5560405181906200009a906200011b565b604051809103906000f080158015620000b7573d6000803e3d6000fd5b50600980546001600160a01b03199081166001600160a01b0393841617909155600b8054821693831693909317909255600a805490921693169290921790915550620001ba565b6200010862000129565b5060408051602081019091526000815290565b611c0680620053f083390190565b6040518060200160405280600081525090565b80516200014981620001a0565b92915050565b600080604083850312156200016357600080fd5b60006200017185856200013c565b925050602062000184858286016200013c565b9150509250929050565b60006001600160a01b03821662000149565b620001ab816200018e565b8114620001b757600080fd5b50565b61522680620001ca6000396000f3fe608060405234801561001057600080fd5b50600436106105ed5760003560e01c80638413e52a1161031b578063bad9206c116101a8578063d53c6f5f116100f4578063e0abdf66116100ad578063f35adf7e11610087578063f35adf7e14610c7b578063f7a3181814610c83578063fc7b9c1814610c96578063ffbe3b7314610c9e576105ed565b8063e0abdf6614610c42578063eeaca09b14610c55578063f1b7cf4914610c68576105ed565b8063d53c6f5f14610bd5578063d60b347f14610be8578063d6d8816d14610bfb578063d83d3ed514610c0e578063dd62ed3e14610c21578063dde74dc314610c2f576105ed565b8063c45a3e0a11610161578063c9aff70c1161013b578063c9aff70c14610b94578063cb0fbc7114610ba7578063cc8d823c14610bba578063cf02377914610bcd576105ed565b8063c45a3e0a14610b66578063c701277714610b79578063c72e4e3214610b81576105ed565b8063bad9206c14610b0a578063bc7513e214610b12578063beee0a5a14610b25578063c1410c0214610b2d578063c2aeb5fe14610b40578063c34eee6514610b53576105ed565b8063a00e14d111610267578063a9b3cf1511610220578063b11ee0e3116101fa578063b11ee0e314610ac9578063b16144a314610adc578063b32a2f9014610aef578063b650695514610b02576105ed565b8063a9b3cf1514610a90578063adbff2be14610aa3578063ae5c238114610ab6576105ed565b8063a00e14d114610a47578063a50cd8e714610a5a578063a6c409f114610a6d578063a6f37b5314610a75578063a81de34014610a88578063a9059cbb14610625576105ed565b806397a5d5b5116102d45780639bc289f1116102ae5780639bc289f1146109fb5780639be4649314610a0e5780639f1a092914610a215780639f6e1b2614610a34576105ed565b806397a5d5b5146109cd5780639a649edc146109e05780639b82b49b146109e8576105ed565b80638413e52a1461097c57806386cf9f141461098f5780638969cb11146109a25780638de2e573146109aa578063900cf0cf146109bd57806395d89b41146109c5576105ed565b80633fd4973c116104995780635f14fec8116103e557806372924d2a1161039e5780637cb95a32116103785780637cb95a321461093b5780637d8bb8691461094e5780637dc0d1d014610961578063825ad60714610969576105ed565b806372924d2a1461090257806375d5024b1461091557806379066f2c14610928576105ed565b80635f14fec81461089b57806364668022146108ae5780636a39e328146108c15780636b862d66146108d457806370a08231146108e757806371c511eb146108fa576105ed565b80635053e46111610452578063520acb761161042c578063520acb761461086557806359841299146108785780635c60da1b146108805780635dbf800a14610888576105ed565b80635053e4611461083557806351adeb571461083d57806351bf21d814610852576105ed565b80633fd4973c146107e4578063416a23cc146107f757806343873526146107ff57806344d96e951461081257806349d360bc1461081a5780634c73609914610822576105ed565b806320f6bc9011610558578063313ce567116105115780633a3e6c81116104eb5780633a3e6c811461078b5780633dc905c71461079e5780633f7bcaf3146107b15780633fbba9a6146107c4576105ed565b8063313ce567146107505780633234742214610765578063353a420c14610778576105ed565b806320f6bc90146106de57806323b872dd146106f157806324772c0414610704578063259f7adf14610717578063277805a91461072a5780632d7f23b31461073d576105ed565b806315e14bf6116105aa57806315e14bf61461068057806316f0115b1461069357806318160ddd146106a85780631a08e22a146106b05780631edbcf6c146106c35780631fac9732146106cb576105ed565b8063025812f6146105f257806306fdde0314610610578063095ea7b3146106255780630dc6d3a31461064557806310e95b6c1461065a5780631550ec241461066d575b600080fd5b6105fa610cb1565b604051610607919061503c565b60405180910390f35b610618610cc1565b604051610607919061500b565b610638610633366004614bef565b610cf8565b6040516106079190614fe1565b610658610653366004614b71565b610d01565b005b6105fa610668366004614d3c565b610d4a565b61063861067b366004614d3c565b610d62565b6105fa61068e366004614a89565b610d77565b61069b610d95565b6040516106079190614f90565b6105fa610da4565b6106586106be366004614dce565b610daa565b6105fa610db8565b6106586106d9366004614d3c565b610dbe565b6106586106ec366004614bef565b610dca565b6106386106ff366004614b2e565b610dd4565b610638610712366004614ded565b610dde565b610658610725366004614d3c565b610f47565b610658610738366004614bef565b610f50565b6105fa61074b366004614d3c565b610fdc565b610758610ff1565b604051610607919061508d565b610658610773366004614d78565b610ff6565b6105fa610786366004614a89565b611036565b610638610799366004614a89565b611054565b6105fa6107ac366004614d3c565b611071565b6106586107bf366004614b2e565b611086565b6107d76107d2366004614aa7565b611091565b6040516106079190614ffd565b6106586107f2366004614c1f565b6110c4565b61065861110b565b61065861080d366004614d3c565b611115565b6105fa61111e565b6105fa611124565b6105fa610830366004614dce565b61112e565b6105fa61115e565b610845611181565b6040516106079190614fef565b6105fa610860366004614a89565b611190565b6105fa610873366004614d3c565b6111ae565b6105fa6111c3565b61069b6111cd565b610658610896366004614d3c565b6111f2565b6106586108a9366004614bef565b6111fb565b6105fa6108bc366004614a89565b611205565b6105fa6108cf366004614d3c565b611223565b6106586108e2366004614c87565b611238565b6105fa6108f5366004614a89565b611243565b610658611261565b610658610910366004614d78565b611269565b610638610923366004614d3c565b6112a9565b610658610936366004614d3c565b6112b0565b610658610949366004614c1f565b6112b9565b6105fa61095c366004614d3c565b6112fa565b61084561130f565b6105fa610977366004614a89565b61131e565b61065861098a366004614ae1565b61136a565b6105fa61099d366004614a89565b611375565b6105fa611390565b6106586109b8366004614d3c565b61139a565b6105fa6113a3565b6106186113a9565b6107d76109db366004614a89565b6113c7565b6105fa61142c565b6106586109f6366004614d78565b611432565b6105fa610a09366004614a89565b611472565b610658610a1c366004614a89565b611490565b6105fa610a2f366004614d3c565b611499565b6105fa610a42366004614aa7565b6114af565b610658610a55366004614dce565b6114de565b6105fa610a68366004614a89565b6114e9565b6105fa611500565b610658610a83366004614a89565b611591565b6105fa61159a565b610658610a9e366004614d3c565b6115a4565b610658610ab1366004614c1f565b6115ad565b610658610ac4366004614bef565b6115ee565b610658610ad7366004614bef565b6115f8565b610658610aea366004614d3c565b611602565b610658610afd366004614c1f565b611615565b6105fa611656565b610658611660565b6105fa610b20366004614bef565b611668565b6106586116ac565b610658610b3b366004614aa7565b6116b4565b610658610b4e366004614cb9565b6116be565b6105fa610b61366004614d3c565b611700565b610658610b74366004614bef565b611715565b6105fa61171f565b610658610b8f366004614d3c565b611729565b6105fa610ba2366004614d3c565b611732565b6105fa610bb5366004614d3c565b611747565b610658610bc8366004614bef565b61175c565b6105fa611766565b6105fa610be3366004614d3c565b61176c565b610638610bf6366004614a89565b611781565b610658610c09366004614d3c565b6117a2565b610658610c1c366004614bef565b6117ab565b6105fa610633366004614aa7565b6105fa610c3d366004614d3c565b6117b5565b610658610c50366004614d3c565b6117ca565b6105fa610c63366004614d3c565b6117cf565b6105fa610c76366004614a89565b6117e4565b6106586117ff565b610658610c91366004614bef565b611807565b6105fa611811565b6105fa610cac366004614d3c565b611817565b6000610cbb611829565b90505b90565b60408051808201909152601881527f44796e616d69632053657420446f6c6c6172205374616b650000000000000000602082015290565b60005b92915050565b610d4385858585858080601f01602080910402602001604051908101604052809392919081815260200183838082843760009201919091525061185092505050565b5050505050565b6000818152600d60205260409020600201545b919050565b6000610d6d826118c1565b5460ff1692915050565b6001600160a01b03166000908152600e602052604090206001015490565b600b546001600160a01b031690565b60035490565b610db482826118d5565b5050565b60065490565b610dc781611907565b50565b610db4828261194e565b60005b9392505050565b6000610e1e600085116c26b7b1b5a932b3bab630ba37b960991b7f4d7573742068617665206e6f6e2d7a65726f20657870697279000000000000006119f6565b610e5c600084116c26b7b1b5a932b3bab630ba37b960991b7f4d75737420626964206e6f6e2d7a65726f20616d6f756e7400000000000000006119f6565b610e9a600083116c26b7b1b5a932b3bab630ba37b960991b7f4d75737420626964206f6e206e6f6e2d7a65726f20616d6f756e7400000000006119f6565b610ed183610ea6611811565b10156c26b7b1b5a932b3bab630ba37b960991b6e139bdd08195b9bdd59da081919589d608a1b6119f6565b6000610eeb85610edf6113a3565b9063ffffffff611a5416565b9050610f05610f00848663ffffffff611a7916565b611abb565b610f0e84611b51565b610f1781611be7565b610f2333828686611c7d565b610f34610f2e611ceb565b33611d12565b610f3c611d6c565b506001949350505050565b610dc781611d94565b610f58611181565b6001600160a01b03166340c10f1983836040518363ffffffff1660e01b8152600401610f85929190614fc6565b602060405180830381600087803b158015610f9f57600080fd5b505af1158015610fb3573d6000803e3d6000fd5b505050506040513d601f19601f82011682018060405250610fd79190810190614cee565b505050565b6000908152600d60205260409020600a015490565b601290565b610fd78383838080601f016020809104026020016040519081016040528093929190818152602001838380828437600092019190915250611dad92505050565b6001600160a01b03166000908152600e602052604090206003015490565b6001600160a01b03166000908152600e6020526040902054151590565b6000908152600d60205260409020600e015490565b610fd7838383611dc8565b6001600160a01b038082166000908152600e60209081526040808320938616835260049093019052205460ff1692915050565b611105848484848080601f016020809104026020016040519081016040528093929190818152602001838380828437600092019190915250611df892505050565b50505050565b611113611e49565b565b610dc781611f5c565b60045490565b6000610cbb611f70565b6000828152600d6020526040812060030180548390811061114b57fe5b9060005260206000200154905092915050565b600061116861486a565b611170611f97565b905061117b81611fc6565b91505090565b6009546001600160a01b031690565b6001600160a01b03166000908152600c602052604090206004015490565b6000908152600d602052604090206010015490565b6000610cbb611fe8565b7f360894a13ba1a3210667c828492db98dca3e2076cc3735a920a3ca505d382bbc5490565b610dc78161200f565b610db48282612096565b6001600160a01b03166000908152600e602052604090206002015490565b6000908152600d602052604090206003015490565b610fd78383836121a7565b6001600160a01b03166000908152600c602052604090206001015490565b61111361224e565b610fd78383838080601f01602080910402602001604051908101604052809392919081815260200183838082843760009201919091525061227592505050565b6005101590565b610dc781612290565b611105848484848080601f0160208091040260200160405190810160405280939291908181526020018383808284376000920191909152506122b292505050565b6000908152600d602052604090206012015490565b600a546001600160a01b031690565b600080611329610da4565b90508061133a576000915050610d5d565b610dd78161135e61134a86611243565b61135261111e565b9063ffffffff61230316565b9063ffffffff611a7916565b610fd783838361233d565b6001600160a01b03166000908152600c602052604090205490565b6000610cbb612387565b610dc7816123ae565b60025490565b6040805180820190915260048152634453445360e01b602082015290565b60006113d16113a3565b6001600160a01b0383166000908152600c602052604090206005015411156113fb57506002610d5d565b6001600160a01b0382166000908152600c602052604090206004015461141f6113a3565b1015610cf8576001610cfb565b60085490565b610fd78383838080601f0160208091040260200160405190810160405280939291908181526020018383808284376000920191909152506123c792505050565b6001600160a01b03166000908152600c602052604090206005015490565b610dc7816123e2565b6000908152600d60208190526040909120015490565b6001600160a01b039182166000908152600c602090815260408083209390941682526003909201909152205490565b600091909155600155565b6000610cfb6114f783611036565b610edf84611205565b6000610cbb61150d611811565b611515611181565b6001600160a01b03166318160ddd6040518163ffffffff1660e01b815260040160206040518083038186803b15801561154d57600080fd5b505afa158015611561573d6000803e3d6000fd5b505050506040513d601f19601f820116820180604052506115859190810190614d5a565b9063ffffffff61241416565b610dc781612456565b6000610cbb611ceb565b610dc78161247d565b611105848484848080601f0160208091040260200160405190810160405280939291908181526020018383808284376000920191909152506124c092505050565b610db4828261256b565b610db48282612613565b610dc761161082606461266f565b61269e565b611105848484848080601f01602080910402602001604051908101604052809392919081815260200183838082843760009201919091525061276392505050565b6000610cbb6127c2565b6111136127e9565b600061167382611732565b61167f57506000610cfb565b506001600160a01b03919091166000908152600c6020908152604080832093835260029093019052205490565b610dc7612954565b610db48282613272565b610d4385858585858080601f0160208091040260200160405190810160405280939291908181526020018383808284376000920191909152506132d292505050565b6000908152600d602052604090206011015490565b610db4828261337d565b6000610cbb613427565b610dc78161344e565b6000908152600d602052604090206001015490565b6000908152600d602052604090206013015490565b610db4828261346e565b60055490565b6000908152600d60205260409020600f015490565b6001600160a01b03166000908152600e602052604090206005015460ff1690565b610dc7816134bd565b610db482826134d6565b6000908152600d60205260409020600c015490565b600f55565b6000908152600d60205260409020600b015490565b6001600160a01b03166000908152600e602052604090205490565b611113613502565b610db4828261351b565b60075490565b6000908152600d602052604090205490565b6000600d816118366113a3565b815260200190815260200160002060040160030154905090565b6001600160a01b038085166000908152600c60209081526040808320938716835260039093019052205461188b90838363ffffffff61356a16565b6001600160a01b039485166000908152600c60209081526040808320969097168252600390950190945293909220929092555050565b6000908152600d6020526040902060040190565b6000828152600d6020908152604080832060020184905592825291812060030180546001810182559082529190200155565b611946816040518060400160405280601c81526020017f436f6d7074726f6c6c65723a206e6f7420656e6f756768206465627400000000815250612275565b610dc7613596565b611956611181565b6001600160a01b03166340c10f1983836040518363ffffffff1660e01b8152600401611983929190614fc6565b602060405180830381600087803b15801561199d57600080fd5b505af11580156119b1573d6000803e3d6000fd5b505050506040513d601f19601f820116820180604052506119d59190810190614cee565b506119e16109236113a3565b6119ee576119ee81611f5c565b610db4613596565b82610fd757611a0482613669565b6101d160f51b611a1383613669565b604051602001611a2593929190614f5f565b60408051601f198184030181529082905262461bcd60e51b8252611a4b9160040161500b565b60405180910390fd5b600082820183811015610dd75760405162461bcd60e51b8152600401611a4b9061501c565b6000610dd783836040518060400160405280601a81526020017f536166654d6174683a206469766973696f6e206279207a65726f0000000000008152506136e9565b600d6000611ac76113a3565b815260200190815260200160002060040160040154811115611b055780600d6000611af06113a3565b81526020810191909152604001600020600801555b80600d6000611b126113a3565b8152602001908152602001600020600401600301541115610dc75780600d6000611b3a6113a3565b815260208101919091526040016000206007015550565b600d6000611b5d6113a3565b815260200190815260200160002060040160110154811115611b9b5780600d6000611b866113a3565b81526020810191909152604001600020601501555b600d6000611ba76113a3565b815260200190815260200160002060040160100154811015610dc75780600d6000611bd06113a3565b815260208101919091526040016000206014015550565b600d6000611bf36113a3565b815260200190815260200160002060040160020154811115611c315780600d6000611c1c6113a3565b81526020810191909152604001600020600601555b600d6000611c3d6113a3565b815260200190815260200160002060040160010154811015610dc75780600d6000611c666113a3565b815260208101919091526040016000206005015550565b6000600d81611c8a6113a3565b8152602080820192909252604090810160009081206001600160a01b03989098168082526018909801909252902060048101949094555060018301919091556002820155805462010000600160b01b03191662010000909202919091179055565b6000600d81611cf86113a3565b815260200190815260200160002060040160050154905090565b80600d6000611d1f6113a3565b8152602001908152602001600020600401601201600084815260200190815260200160002060006101000a8154816001600160a01b0302191690836001600160a01b031602179055505050565b600d6000611d786113a3565b8152602081019190915260400160002060090180546001019055565b600454611da7908263ffffffff611a5416565b60045550565b600654611dc190838363ffffffff61356a16565b6006555050565b6001600160a01b039283166000908152600c60209081526040808320949095168252600390930190925291902055565b6001600160a01b0383166000908152600e6020526040902060030154611e2590838363ffffffff61356a16565b6001600160a01b039093166000908152600e60205260409020600301929092555050565b611e5161488b565b611e59613720565b90506000611e706001611e6a6113a3565b036118c1565b9050611e8a611e7d6137e8565b839063ffffffff61380a16565b15611ec957611e97613820565b805460ff16151560011415611eb957611eb96001611eb36113a3565b0361344e565b611ec282613827565b5050611113565b611ee1611ed46137e8565b839063ffffffff61391616565b15611f2757805460ff16151560011415611f16576000611eff612954565b9050611f146001611f0e6113a3565b03612290565b505b611f1e6127e9565b611ec28261392a565b611f2f6113a3565b6040517fff7db5a0dc69b02c191ba632db46961b7d0daa1bd30709ddba9b80ad0a15d2c090600090a25050565b611f65816123ae565b6119466116106139b6565b6000600d81611f7d6113a3565b815260200190815260200160002060040160020154905090565b611f9f61486a565b604051806060016040528060008152602001635fbef0008152602001611c20815250905090565b6000610cfb8260000151610edf846040015161135e86602001516115856139d8565b6000600d81611ff56113a3565b815260200190815260200160002060040160110154905090565b612017611181565b6001600160a01b03166342966c68826040518263ffffffff1660e01b8152600401612042919061503c565b600060405180830381600087803b15801561205c57600080fd5b505af1158015612070573d6000803e3d6000fd5b50505050611946816040518060600160405280602a81526020016151ba602a9139611dad565b61209e611181565b6001600160a01b03166323b872dd8330846040518463ffffffff1660e01b81526004016120cd93929190614f9e565b602060405180830381600087803b1580156120e757600080fd5b505af11580156120fb573d6000803e3d6000fd5b505050506040513d601f19601f8201168201806040525061211f9190810190614cee565b50612128611181565b6001600160a01b03166342966c68826040518263ffffffff1660e01b8152600401612153919061503c565b600060405180830381600087803b15801561216d57600080fd5b505af1158015612181573d6000803e3d6000fd5b505050506119ee8160405180606001604052806028815260200161519260289139612275565b6001600160a01b0383166000908152600c602090815260408083208584526002019091529020546121de908263ffffffff611a5416565b6001600160a01b0384166000908152600c60209081526040808320868452600201825280832093909355600d90522060010154612221908263ffffffff611a5416565b6000838152600d6020526040902060010155600854612246908263ffffffff611a5416565b600855505050565b612256610da4565b600d60006122626113a3565b8152602081019190915260400160002055565b60075461228990838363ffffffff61356a16565b6007555050565b6000908152600d60205260409020600401805462ff0000191662010000179055565b6001600160a01b0383166000908152600e60205260409020600201546122df90838363ffffffff61356a16565b6001600160a01b039093166000908152600e60205260409020600201929092555050565b60008261231257506000610cfb565b8282028284828161231f57fe5b0414610dd75760405162461bcd60e51b8152600401611a4b9061502c565b6001600160a01b038083166000908152600e6020908152604080832093871683526004909301905220805482919060ff1916600183600281111561237d57fe5b0217905550505050565b6000600d816123946113a3565b815260200190815260200160002060040160100154905090565b6007546123c1908263ffffffff611a5416565b60075550565b6004546123db90838363ffffffff61356a16565b6004555050565b6123f56123ed6139de565b610edf6113a3565b6001600160a01b039091166000908152600c6020526040902060040155565b6000610dd783836040518060400160405280601e81526020017f536166654d6174683a207375627472616374696f6e206f766572666c6f77000081525061356a565b6001600160a01b03166000908152600e60205260409020600501805460ff19166001179055565b600061248882611732565b9050806124955750610dc7565b6008546124a8908263ffffffff61241416565b600855506000908152600d6020526040812060010155565b6001600160a01b0383166000908152600c60205260409020600101546124ed90838363ffffffff61356a16565b6001600160a01b0384166000908152600c602052604090206001015560035461251d90838363ffffffff61356a16565b6003556040516000906001600160a01b038516907fddf252ad1be2c89b69c2b068fc378daa952ba7f163c4a11628f55a4df523b3ef9061255e90869061503c565b60405180910390a3505050565b6001600160a01b0382166000908152600c6020526040902060010154612597908263ffffffff611a5416565b6001600160a01b0383166000908152600c60205260409020600101556003546125c6908263ffffffff611a5416565b6003556040516001600160a01b038316906000907fddf252ad1be2c89b69c2b068fc378daa952ba7f163c4a11628f55a4df523b3ef9061260790859061503c565b60405180910390a35050565b6001600160a01b0382166000908152600c602052604090205461263c908263ffffffff611a5416565b6001600160a01b0383166000908152600c6020526040902055600554612668908263ffffffff611a5416565b6005555050565b61267761488b565b604051806020016040528061269585670de0b6b3a7640000866139e3565b90529392505050565b600061273061272b6126ae611181565b6001600160a01b03166318160ddd6040518163ffffffff1660e01b815260040160206040518083038186803b1580156126e657600080fd5b505afa1580156126fa573d6000803e3d6000fd5b505050506040513d601f19601f8201168201806040525061271e9190810190614d5a565b849063ffffffff613a0116565b613a28565b9050600061273c611811565b905081811115610fd7576000612758828463ffffffff61241416565b905061110581611907565b6001600160a01b0383166000908152600c602052604090205461278d90838363ffffffff61356a16565b6001600160a01b0384166000908152600c60205260409020556005546127ba90838363ffffffff61356a16565b600555505050565b6000600d816127cf6113a3565b815260200190815260200160002060040160040154905090565b600d60006127f56113a3565b815260208101919091526040016000206004015460ff16611113576000600d8161281d6113a3565b8152602001908152602001600020600401600501819055506000196000600d0160006128476113a3565b81526020810191909152604001600090812060050191909155600d8161286b6113a3565b8152602001908152602001600020600401600201819055506000196000600d0160006128956113a3565b81526020810191909152604001600090812060070191909155600d816128b96113a3565b8152602001908152602001600020600401600401819055506000196000600d0160006128e36113a3565b81526020810191909152604001600090812060140191909155600d816129076113a3565b81526020019081526020016000206004016011018190555060016000600d0160006129306113a3565b81526020810191909152604001600020600401805460ff1916911515919091179055565b600061295e613a45565b158015612970575061296e613a74565b155b1561326a57600061297f611829565b6129876127c2565b0390506000612994613427565b61299c611f70565b03905060006129a9612387565b6129b1611fe8565b03905060005b6129bf611ceb565b811015612ca35760006129d96129d483613aa2565b613ae0565b90506129e361488b565b612a016129fb61272b8460020154856001015461266f565b8761266f565b9050612a0b61488b565b612a1983600401548761266f565b9050612a2361488b565b612a3184600101548761266f565b9050612a3b61488b565b612a6a82612a5e612a4a6137e8565b612a526137e8565b9063ffffffff613b1d16565b9063ffffffff613b4616565b9050612a7461488b565b612a8585600263ffffffff613b6f16565b9050612a8f61488b565b612aa085600263ffffffff613b6f16565b9050612aaa61488b565b612abb84600263ffffffff613b6f16565b9050612ac561488b565b612ad982612a52868663ffffffff613b1d16565b9050612ae361488b565b612aee611e7d613bcc565b15612b0357612afc82613be7565b9050612b0e565b612b0b613bcc565b90505b612b20612b1a8c613aa2565b82613c69565b612b2c6129d48c613aa2565b601080546001808201835560009290925282547f1b6847dc741a1b0cd08d278845f9d819d87b734759afb55fe2de5cb82a9ae6726006909202918201805460ff191660ff928316151517808255855461ff00199091166101009182900490931615150291909117808255845462010000600160b01b031990911662010000918290046001600160a01b0316909102179055828201547f1b6847dc741a1b0cd08d278845f9d819d87b734759afb55fe2de5cb82a9ae67382015560028301547f1b6847dc741a1b0cd08d278845f9d819d87b734759afb55fe2de5cb82a9ae67482015560038301547f1b6847dc741a1b0cd08d278845f9d819d87b734759afb55fe2de5cb82a9ae67582015560048301547f1b6847dc741a1b0cd08d278845f9d819d87b734759afb55fe2de5cb82a9ae6768201556005909201547f1b6847dc741a1b0cd08d278845f9d819d87b734759afb55fe2de5cb82a9ae677909201919091559a909a0199506129b798505050505050505050565b50612cae6010613cb1565b8054612cbc9160109161489e565b5060005b6010548110156130f65760108181548110612cd757fe5b906000526020600020906006020160010154612cf1611811565b106130e957612d2b60108281548110612d0657fe5b60009182526020909120600690910201546201000090046001600160a01b0316613d8d565b158015612d455750612d4360108281548110612d0657fe5b155b156130e457612d5261488b565b612d9860108381548110612d6257fe5b90600052602060002090600602016002015460108481548110612d8157fe5b90600052602060002090600602016001015461266f565b9050612df360108381548110612daa57fe5b906000526020600020906006020160000160029054906101000a90046001600160a01b031660108481548110612ddc57fe5b906000526020600020906006020160010154613dd4565b156130ad5760408051602081019091526019548152612e1990829063ffffffff61391616565b15612e28578051601955612e54565b60408051602081019091526018548152612e4990829063ffffffff61380a16565b15612e545780516018555b60175460108381548110612e6457fe5b9060005260206000209060060201600401541015612ea65760108281548110612e8957fe5b906000526020600020906006020160040154601781905550612ef4565b60145460108381548110612eb657fe5b9060005260206000209060060201600401541115612ef45760108281548110612edb57fe5b9060005260206000209060060201600401546014819055505b612efd81613a28565b6016805490910190556010805483908110612f1457fe5b60009182526020909120600460069092020101546015805490910190556010805483908110612f3f57fe5b60009182526020909120600260069092020101546013805490910190556010805483908110612f6a57fe5b6000918252602082206001600690920201015460128054909101905560108054612fb3919085908110612f9957fe5b906000526020600020906006020160040154610edf6113a3565b905061300e60108481548110612fc557fe5b906000526020600020906006020160000160029054906101000a90046001600160a01b031660108581548110612ff757fe5b906000526020600020906006020160010154612096565b6130686010848154811061301e57fe5b906000526020600020906006020160000160029054906101000a90046001600160a01b0316826010868154811061305157fe5b9060005260206000209060060201600201546121a7565b61309e6010848154811061307857fe5b60009182526020909120600690910201546201000090046001600160a01b031684613e6f565b506011805460010190556130e2565b6130e2601083815481106130bd57fe5b60009182526020909120600690910201546201000090046001600160a01b0316613f10565b505b6130ee565b6130f6565b600101612cc0565b506011541561320d5761310761488b565b61311560165460115461266f565b905061311f61488b565b61312d60155460115461266f565b905061313761488b565b613159606461314d60108054905060115461266f565b9063ffffffff613a0116565b9050613166601754613f63565b613171601454613f87565b61318261317d83613a28565b613fab565b604080516020810190915260195481526131a49061319f90613a28565b613fcf565b604080516020810190915260185481526131c6906131c190613a28565b613ff3565b6131d76131d284613a28565b614017565b6131e86131e382613a28565b61403b565b6131f360115461405f565b6131fe601354614083565b6132096012546140a7565b5050505b61321960106000614972565b600060118190556012819055601381905560148190556015819055601655600019601755613245613bcc565b5160185550506040805160208101909152600019908190526019555060019050610cbe565b506000610cbe565b6001600160a01b0382166000908152600c6020526040812060050154906132a461329b84610d77565b610edf856117e4565b905081811115611105576001600160a01b0384166000908152600c6020526040902060050181905550505050565b6001600160a01b0384166000908152600c6020908152604080832086845260020190915290205461330a90838363ffffffff61356a16565b6001600160a01b0385166000908152600c60209081526040808320878452600201825280832093909355600d9052206001015461334e90838363ffffffff61356a16565b6000848152600d602052604090206001015560085461337490838363ffffffff61356a16565b60085550505050565b613385611181565b6001600160a01b031663a9059cbb83836040518363ffffffff1660e01b81526004016133b2929190614fc6565b602060405180830381600087803b1580156133cc57600080fd5b505af11580156133e0573d6000803e3d6000fd5b505050506040513d601f19601f820116820180604052506134049190810190614cee565b506119ee816040518060600160405280602a81526020016151ba602a9139611dad565b6000600d816134346113a3565b815260200190815260200160002060040160010154905090565b6000908152600d60205260409020600401805461ff001916610100179055565b6001600160a01b0382166000908152600e602052604090206003015461349a908263ffffffff611a5416565b6001600160a01b039092166000908152600e602052604090206003019190915550565b6006546134d0908263ffffffff611a5416565b60065550565b6134de6113a3565b6001600160a01b039092166000908152600e60205260409020918255600190910155565b60025461351690600163ffffffff611a5416565b600255565b6001600160a01b0382166000908152600e6020526040902060020154613547908263ffffffff611a5416565b6001600160a01b039092166000908152600e602052604090206002019190915550565b6000818484111561358e5760405162461bcd60e51b8152600401611a4b919061500b565b505050900390565b6111136135b76135a4610db8565b610edf6135af611766565b610edf61111e565b6135bf611181565b6001600160a01b03166370a08231306040518263ffffffff1660e01b81526004016135ea9190614f90565b60206040518083038186803b15801561360257600080fd5b505afa158015613616573d6000803e3d6000fd5b505050506040513d601f19601f8201168201806040525061363a9190810190614d5a565b10156a21b7b6b83a3937b63632b960a91b74496e636f6e73697374656e742062616c616e63657360581b6119f6565b6060808260405160200161367d9190614f4a565b60408051601f19818403018152919052905060205b80156136d2578151600019909101908290829081106136ad57fe5b01602001516001600160f81b031916156136cd5760010181529050610d5d565b613692565b505060408051600081526020810190915292915050565b6000818361370a5760405162461bcd60e51b8152600401611a4b919061500b565b50600083858161371657fe5b0495945050505050565b61372861488b565b61373061488b565b600061373a61130f565b6001600160a01b031663d4a3e9d76040518163ffffffff1660e01b81526004016040805180830381600087803b15801561377357600080fd5b505af1158015613787573d6000803e3d6000fd5b505050506040513d601f19601f820116820180604052506137ab9190810190614d0c565b915091506137bf61092360016115856113a3565b156137d5576137cc6140cb565b92505050610cbe565b806137e2576137cc6137e8565b50905090565b6137f061488b565b506040805160208101909152670de0b6b3a7640000815290565b600061381683836140ed565b6002149392505050565b6000600755565b61382f61488b565b61383761411f565b90506000613843610db8565b9050600061384f61142c565b90508082101561386457613861614142565b92505b61386c61488b565b61389d6138978561388b61387e6137e8565b899063ffffffff613b4616565b9063ffffffff61416416565b86614192565b905060006138af61272b61271e611500565b905060008060006138bf8461421d565b9250925092506138cd6113a3565b89516040517f32fcaa1e76ed9517f4749d8ec9a77dd5e7329456d740b9bf9665d900eef5e2839161390391879087908790615058565b60405180910390a2505050505050505050565b600061392283836140ed565b159392505050565b61393261488b565b61395261394c613940614389565b61388b85612a5e6137e8565b83614192565b9050600061396461272b61271e611500565b905061396f81611f5c565b6139776113a3565b83516040517f5e139d4b8080a4a00dcc151e8217694aeebae893936326aa22096924a9906677916139a991859061504a565b60405180910390a2505050565b6139be61488b565b5060408051602081019091526704db732547630000815290565b600f5490565b602490565b60006139f98261135e868663ffffffff61230316565b949350505050565b613a0961488b565b604080516020810190915283518190612695908563ffffffff61230316565b8051600090610cfb90670de0b6b3a764000063ffffffff611a7916565b6000600d81613a526113a3565b815260208101919091526040016000206004015462010000900460ff16919050565b6000600d81613a816113a3565b8152602081019190915260400160002060040154610100900460ff16919050565b6000600d81613aaf6113a3565b8152602080820192909252604090810160009081208582526016019092529020546001600160a01b03169050919050565b6000600d81613aed6113a3565b8152602080820192909252604090810160009081206001600160a01b038616825260180190925290209050919050565b613b2561488b565b6040805160208101909152825184518291612695919063ffffffff611a5416565b613b4e61488b565b6040805160208101909152825184518291612695919063ffffffff61241416565b613b7761488b565b81613b8d57613b8660016143ab565b9050610cfb565b613b9561488b565b5060408051602081019091528351815260015b83811015613bc457613bba82866143df565b9150600101613ba8565b509392505050565b613bd461488b565b5060408051602081019091526000815290565b613bef61488b565b613bf761488b565b613c196002613c0d85600163ffffffff61440d16565b9063ffffffff61444a16565b90508291505b613c2f818363ffffffff61391616565b15613c6357905080613c5c6002613c0d613c4f848063ffffffff613b1d16565b869063ffffffff61416416565b9050613c1f565b50919050565b80600d6000613c766113a3565b8152602080820192909252604090810160009081206001600160a01b0390961681526018909501909152909220915160039092019190915550565b6000613d8982805480602002602001604051908101604052809291908181526020016000905b82821015613d7657600084815260209081902060408051610100808201835260068702909301805460ff80821615158452948104909416151582860152620100009093046001600160a01b03168183015260018084015460608301526002840154608083015282518086019093526003840154835260a0820192909252600483015460c082015260059092015460e08301529083529092019101613cd7565b5050855460009250600019019050614471565b5090565b6000600d81613d9a6113a3565b8152602080820192909252604090810160009081206001600160a01b038616825260180190925290205460ff610100909104169050919050565b6000613de382610edf8561131e565b613deb611181565b6001600160a01b03166370a08231856040518263ffffffff1660e01b8152600401613e169190614f90565b60206040518083038186803b158015613e2e57600080fd5b505afa158015613e42573d6000803e3d6000fd5b505050506040513d601f19601f82011682018060405250613e669190810190614d5a565b10159392505050565b6001600d6000613e7d6113a3565b8152602080820192909252604090810160009081206001600160a01b03871682526018019092528120805460ff1916921515929092179091558290600d90613ec36113a3565b8152602001908152602001600020600401601301600083815260200190815260200160002060006101000a8154816001600160a01b0302191690836001600160a01b031602179055505050565b6001600d6000613f1e6113a3565b8152602080820192909252604090810160009081206001600160a01b039095168152601890940190915290912080549115156101000261ff0019909216919091179055565b80600d6000613f706113a3565b815260208101919091526040016000206011015550565b80600d6000613f946113a3565b815260208101919091526040016000206012015550565b80600d6000613fb86113a3565b815260208101919091526040016000206013015550565b80600d6000613fdc6113a3565b81526020810191909152604001600020600e015550565b80600d60006140006113a3565b81526020810191909152604001600020600f015550565b80600d60006140246113a3565b815260208101919091526040016000206010015550565b80600d60006140486113a3565b81526020810191909152604001600020600b015550565b80600d600061406c6113a3565b81526020810191909152604001600020600a015550565b80600d60006140906113a3565b81526020810191909152604001600020600c015550565b80600d60006140b46113a3565b81526020810191909152604001600020600d015550565b6140d361488b565b50604080516020810190915267155f2dd73a1a0000815290565b80518251600091141561410257506001610cfb565b8151835111614112576000614115565b60025b60ff169392505050565b61412761488b565b50604080516020810190915268015af1d78b58c40000815290565b61414a61488b565b50604080516020810190915267e73435bb46020000815290565b61416c61488b565b60405180602001604052806126958560000151670de0b6b3a764000086600001516139e3565b61419a61488b565b6141a261488b565b6141aa6145c7565b905060006141b6610db8565b905060006141c261142c565b90506141dc6141cf6137e8565b869063ffffffff61380a16565b80156141e757508082105b156141f7576141f46145e8565b92505b614207868463ffffffff61380a16565b6142115785614213565b825b9695505050505050565b600080808080808061422d610db8565b9050600061423961142c565b9050808210156142f657614253818363ffffffff61241416565b945061427b61426a6064614265614609565b612414565b61135e87606463ffffffff61230316565b945088851161428a578461428c565b885b94506142ab606461135e61429e614609565b889063ffffffff61230316565b92506142bd858463ffffffff61241416565b94506142c88361460e565b6142d1856146a2565b6142e1898463ffffffff61241416565b98506142f3898663ffffffff61241416565b98505b6000614300611811565b905060008a1180156143125750600081115b15614344578981116143245780614326565b895b945061433185611907565b6143418a8663ffffffff61241416565b99505b61434c61111e565b61435557600099505b8915614364576143648a614733565b85856143768c8763ffffffff611a5416565b9850985098505050505050509193909250565b61439161488b565b506040805160208101909152674563918244f40000815290565b6143b361488b565b6040805160208101909152806143d784670de0b6b3a764000063ffffffff61230316565b905292915050565b6143e761488b565b604051806020016040528061269585600001518560000151670de0b6b3a76400006139e3565b61441561488b565b60408051602081019091528061269561443c85670de0b6b3a764000063ffffffff61230316565b86519063ffffffff611a5416565b61445261488b565b604080516020810190915283518190612695908563ffffffff611a7916565b818180821415614482575050610fd7565b61448a61488b565b8560028686030586018151811061449d57fe5b602002602001015160a0015190505b818313614599575b6144de818785815181106144c457fe5b602002602001015160a0015161391690919063ffffffff16565b156144ee576001909201916144b4565b6145188683815181106144fd57fe5b602002602001015160a001518261391690919063ffffffff16565b1561452957600019909101906144ee565b8183136145945785828151811061453c57fe5b602002602001015186848151811061455057fe5b602002602001015187858151811061456457fe5b6020026020010188858151811061457757fe5b602090810291909101019190915252600190920191600019909101905b6144ac565b818512156145ac576145ac868684614471565b838312156145bf576145bf868486614471565b505050505050565b6145cf61488b565b50604080516020810190915266470de4df820000815290565b6145f061488b565b506040805160208101909152666a94d74f430000815290565b602890565b8015610dc75761461c611181565b6001600160a01b03166340c10f19614632610d95565b836040518363ffffffff1660e01b8152600401614650929190614fc6565b602060405180830381600087803b15801561466a57600080fd5b505af115801561467e573d6000803e3d6000fd5b505050506040513d601f19601f82011682018060405250610db49190810190614cee565b6146aa611181565b6001600160a01b03166340c10f1930836040518363ffffffff1660e01b81526004016146d7929190614fc6565b602060405180830381600087803b1580156146f157600080fd5b505af1158015614705573d6000803e3d6000fd5b505050506040513d601f19601f820116820180604052506147299190810190614cee565b50611946816134bd565b614776600061474061111e565b116a21b7b6b83a3937b63632b960a91b7f43616e74206d696e7420746f20656d70747920706f6f6c0000000000000000006119f6565b6000614795606461135e614788614609565b859063ffffffff61230316565b905060008183116147a75760006147b7565b6147b7838363ffffffff61241416565b90506147c28261460e565b6147cb816147d3565b610fd7613596565b8015610dc7576147e1611181565b6001600160a01b03166340c10f1930836040518363ffffffff1660e01b815260040161480e929190614fc6565b602060405180830381600087803b15801561482857600080fd5b505af115801561483c573d6000803e3d6000fd5b505050506040513d601f19601f820116820180604052506148609190810190614cee565b50610dc781611d94565b60405180606001604052806000815260200160008152602001600081525090565b6040518060200160405280600081525090565b8280548282559060005260206000209060060281019282156149665760005260206000209160060282015b82811115614966578254825460ff191660ff918216151517808455845461ff00199091166101009182900490921615150217808355835462010000600160b01b031990911662010000918290046001600160a01b03169091021782556001808401549083015560028084015490830155600380840154908301556004808401549083015560058084015490830155600692830192909101906148c9565b50613d8992915061498f565b5080546000825560060290600052602060002090810190610dc791905b610cbe91905b80821115613d895780546001600160b01b03191681556000600182018190556002820181905560038201819055600482018190556005820155600601614995565b8035610cfb8161515e565b8051610cfb81615172565b8035610cfb8161517b565b60008083601f840112614a0957600080fd5b50813567ffffffffffffffff811115614a2157600080fd5b602083019150836001820283011115614a3957600080fd5b9250929050565b600060208284031215614a5257600080fd5b614a5c602061509b565b90506000614a6a8484614a7e565b82525092915050565b8035610cfb81615188565b8051610cfb81615188565b600060208284031215614a9b57600080fd5b60006139f984846149d6565b60008060408385031215614aba57600080fd5b6000614ac685856149d6565b9250506020614ad7858286016149d6565b9150509250929050565b600080600060608486031215614af657600080fd5b6000614b0286866149d6565b9350506020614b13868287016149d6565b9250506040614b24868287016149ec565b9150509250925092565b600080600060608486031215614b4357600080fd5b6000614b4f86866149d6565b9350506020614b60868287016149d6565b9250506040614b2486828701614a73565b600080600080600060808688031215614b8957600080fd5b6000614b9588886149d6565b9550506020614ba6888289016149d6565b9450506040614bb788828901614a73565b935050606086013567ffffffffffffffff811115614bd457600080fd5b614be0888289016149f7565b92509250509295509295909350565b60008060408385031215614c0257600080fd5b6000614c0e85856149d6565b9250506020614ad785828601614a73565b60008060008060608587031215614c3557600080fd5b6000614c4187876149d6565b9450506020614c5287828801614a73565b935050604085013567ffffffffffffffff811115614c6f57600080fd5b614c7b878288016149f7565b95989497509550505050565b600080600060608486031215614c9c57600080fd5b6000614ca886866149d6565b9350506020614b6086828701614a73565b600080600080600060808688031215614cd157600080fd5b6000614cdd88886149d6565b9550506020614ba688828901614a73565b600060208284031215614d0057600080fd5b60006139f984846149e1565b60008060408385031215614d1f57600080fd5b6000614d2b8585614a40565b9250506020614ad7858286016149e1565b600060208284031215614d4e57600080fd5b60006139f98484614a73565b600060208284031215614d6c57600080fd5b60006139f98484614a7e565b600080600060408486031215614d8d57600080fd5b6000614d998686614a73565b935050602084013567ffffffffffffffff811115614db657600080fd5b614dc2868287016149f7565b92509250509250925092565b60008060408385031215614de157600080fd5b6000614c0e8585614a73565b600080600060608486031215614e0257600080fd5b6000614ca88686614a73565b614e17816150cf565b82525050565b614e17816150da565b614e17614e32826150df565b610cbe565b614e17614e3282610cbe565b6000614e4e826150c2565b614e588185610d5d565b9350614e6881856020860161511e565b9290920192915050565b614e1781615108565b614e1781615113565b6000614e8f826150c2565b614e9981856150c6565b9350614ea981856020860161511e565b614eb28161514a565b9093019392505050565b6000614ec9601b836150c6565b7f536166654d6174683a206164646974696f6e206f766572666c6f770000000000815260200192915050565b6000614f026021836150c6565b7f536166654d6174683a206d756c7469706c69636174696f6e206f766572666c6f8152607760f81b602082015260400192915050565b614e1781610cbe565b614e1781615102565b6000614f568284614e37565b50602001919050565b6000614f6b8286614e43565b9150614f778285614e26565b600282019150614f878284614e43565b95945050505050565b60208101610cfb8284614e0e565b60608101614fac8286614e0e565b614fb96020830185614e0e565b6139f96040830184614f38565b60408101614fd48285614e0e565b610dd76020830184614f38565b60208101610cfb8284614e1d565b60208101610cfb8284614e72565b60208101610cfb8284614e7b565b60208082528101610dd78184614e84565b60208082528101610cfb81614ebc565b60208082528101610cfb81614ef5565b60208101610cfb8284614f38565b60408101614fd48285614f38565b608081016150668287614f38565b6150736020830186614f38565b6150806040830185614f38565b614f876060830184614f38565b60208101610cfb8284614f41565b60405181810167ffffffffffffffff811182821017156150ba57600080fd5b604052919050565b5190565b90815260200190565b6000610cfb826150f6565b151590565b6001600160f01b03191690565b80610d5d81615154565b6001600160a01b031690565b60ff1690565b6000610cfb826150cf565b6000610cfb826150ec565b60005b83811015615139578181015183820152602001615121565b838111156111055750506000910152565b601f01601f191690565b60038110610dc757fe5b615167816150cf565b8114610dc757600080fd5b615167816150da565b60038110610dc757600080fd5b61516781610cbe56fe436f6d7074726f6c6c65723a206e6f7420656e6f756768206f75747374616e64696e672064656274436f6d7074726f6c6c65723a206e6f7420656e6f7567682072656465656d61626c652062616c616e6365a365627a7a72315820000db3c9949d2dd41e8b0f0842da90ed9f9ed5518b15c6fb2b5a2c3803fedc996c6578706572696d656e74616cf564736f6c6343000511004060806040523480156200001157600080fd5b5060405180604001604052806012815260200171223cb730b6b4b19029b2ba102237b63630b960711b815250604051806040016040528060038152602001621114d160ea1b81525060126200007e6200006f6200011960201b60201c565b6001600160e01b036200011e16565b82516200009390600190602086019062000313565b508151620000a990600290602085019062000313565b506003805460ff191660ff9290921691909117905550620001109050620000cf62000170565b604051806040016040528060018152602001603160f81b815250620000fe6200020960201b620016341760201c565b306200020e60201b620016391760201c565b60075562000469565b335b90565b620001398160006200026560201b62000d7e1790919060201c565b6040516001600160a01b038216907f6ae172837ea30b801fbfcdd4108aa1d5bf8ff775444fd70256b44e6bf3dfc3f690600090a250565b60018054604080516020601f60026000196101008789161502019095169490940493840181900481028201810190925282815260609390929091830182828015620001ff5780601f10620001d357610100808354040283529160200191620001ff565b820191906000526020600020905b815481529060010190602001808311620001e157829003601f168201915b5050505050905090565b600190565b8351602094850120835193850193909320604080517f8b73c3c69bb8fe3d512ecc4cf759cc79239f7b179b0ffacaa9a75d522b39400f815295860194909452928401929092526060830152608082015260a0902090565b6200027a82826001600160e01b03620002c816565b15620002a35760405162461bcd60e51b81526004016200029a9062000436565b60405180910390fd5b6001600160a01b0316600090815260209190915260409020805460ff19166001179055565b60006001600160a01b038216620002f35760405162461bcd60e51b81526004016200029a906200044e565b506001600160a01b03166000908152602091909152604090205460ff1690565b828054600181600116156101000203166002900490600052602060002090601f016020900481019282601f106200035657805160ff191683800117855562000386565b8280016001018555821562000386579182015b828111156200038657825182559160200191906001019062000369565b506200039492915062000398565b5090565b6200011b91905b808211156200039457600081556001016200039f565b6000620003c4601f8362000460565b7f526f6c65733a206163636f756e7420616c72656164792068617320726f6c6500815260200192915050565b6000620003ff60228362000460565b7f526f6c65733a206163636f756e7420697320746865207a65726f206164647265815261737360f01b602082015260400192915050565b602080825281016200044881620003b5565b92915050565b602080825281016200044881620003f0565b90815260200190565b61178d80620004796000396000f3fe608060405234801561001057600080fd5b506004361061012c5760003560e01c806395d89b41116100ad578063aa271e1a11610071578063aa271e1a14610256578063d505accf14610269578063dab400f31461027c578063dd62ed3e14610284578063e879c19f146102975761012c565b806395d89b411461020d578063983b2d56146102155780639865027514610228578063a457c2d714610230578063a9059cbb146102435761012c565b806339509351116100f457806339509351146101ac57806340c10f19146101bf57806342966c68146101d257806370a08231146101e757806379cc6790146101fa5761012c565b806306fdde0314610131578063095ea7b31461014f57806318160ddd1461016f57806323b872dd14610184578063313ce56714610197575b600080fd5b61013961029f565b60405161014691906114c6565b60405180910390f35b61016261015d366004610ffc565b610334565b604051610146919061141b565b610177610352565b6040516101469190611429565b610162610192366004610f13565b610358565b61019f6103ca565b6040516101469190611587565b6101626101ba366004610ffc565b6103d3565b6101626101cd366004610ffc565b610427565b6101e56101e036600461102c565b610463565b005b6101776101f5366004610eb3565b610477565b6101e5610208366004610ffc565b610496565b6101396104a4565b6101e5610223366004610eb3565b610502565b6101e5610532565b61016261023e366004610ffc565b610544565b610162610251366004610ffc565b6105b2565b610162610264366004610eb3565b6105c6565b6101e5610277366004610f60565b6105d8565b61017761075f565b610177610292366004610ed9565b610765565b610177610790565b60018054604080516020601f6002600019610100878916150201909516949094049384018190048102820181019092528281526060939092909183018282801561032a5780601f106102ff5761010080835404028352916020019161032a565b820191906000526020600020905b81548152906001019060200180831161030d57829003601f168201915b5050505050905090565b60006103486103416107b4565b84846107b8565b5060015b92915050565b60065490565b600061036584848461086c565b600019610374856102926107b4565b146103c0576103c0846103856107b4565b6103bb856040518060600160405280602981526020016116fd602991396103ae8a6102926107b4565b919063ffffffff61098216565b6107b8565b5060019392505050565b60035460ff1690565b60006103486103e06107b4565b846103bb85600560006103f16107b4565b6001600160a01b03908116825260208083019390935260409182016000908120918c16815292529020549063ffffffff6109ae16565b60006104346102646107b4565b6104595760405162461bcd60e51b815260040161045090611517565b60405180910390fd5b61034883836109da565b61047461046e6107b4565b82610a9a565b50565b6001600160a01b0381166000908152600460205260409020545b919050565b6104a08282610b70565b5050565b60028054604080516020601f600019610100600187161502019094168590049384018190048102820181019092528281526060939092909183018282801561032a5780601f106102ff5761010080835404028352916020019161032a565b61050d6102646107b4565b6105295760405162461bcd60e51b815260040161045090611517565b61047481610beb565b61054261053d6107b4565b610c33565b565b60006103486105516107b4565b846103bb85604051806060016040528060258152602001611726602591396005600061057b6107b4565b6001600160a01b03908116825260208083019390935260409182016000908120918d1681529252902054919063ffffffff61098216565b60006103486105bf6107b4565b848461086c565b600061034c818363ffffffff610c7b16565b6007546001600160a01b03881660009081526008602090815260408083208054600181019091559051929361065a93909261063f927f6e71edae12b1b97f4d1f60370fef10105fa2faae0126114a169c64845d6126c9928e928e928e9290918e9101611437565b60405160208183030381529060405280519060200120610cc3565b90506000600182868686604051600081526020016040526040516106819493929190611491565b6020604051602081039080840390855afa1580156106a3573d6000803e3d6000fd5b5050506020604051035190506106f0896001600160a01b0316826001600160a01b0316146a5065726d69747461626c6560a81b70496e76616c6964207369676e617475726560781b610ce2565b6107236001600160a01b03821615156a5065726d69747461626c6560a81b6b5a65726f206164647265737360a01b610ce2565b610749864211156a5065726d69747461626c6560a81b66115e1c1a5c995960ca1b610ce2565b6107548989896107b8565b505050505050505050565b60075481565b6001600160a01b03918216600090815260056020908152604080832093909416825291909152205490565b7f6e71edae12b1b97f4d1f60370fef10105fa2faae0126114a169c64845d6126c981565b3390565b6001600160a01b0383166107de5760405162461bcd60e51b815260040161045090611567565b6001600160a01b0382166108045760405162461bcd60e51b8152600401610450906114f7565b6001600160a01b0380841660008181526005602090815260408083209487168084529490915290819020849055517f8c5be1e5ebec7d5bd14f71427d1e84f3dd0314c0f7b2291e5b200ac8c7c3b9259061085f908590611429565b60405180910390a3505050565b6001600160a01b0383166108925760405162461bcd60e51b815260040161045090611557565b6001600160a01b0382166108b85760405162461bcd60e51b8152600401610450906114d7565b6108fb816040518060600160405280602681526020016116b3602691396001600160a01b038616600090815260046020526040902054919063ffffffff61098216565b6001600160a01b038085166000908152600460205260408082209390935590841681522054610930908263ffffffff6109ae16565b6001600160a01b0380841660008181526004602052604090819020939093559151908516907fddf252ad1be2c89b69c2b068fc378daa952ba7f163c4a11628f55a4df523b3ef9061085f908590611429565b600081848411156109a65760405162461bcd60e51b815260040161045091906114c6565b505050900390565b6000828201838110156109d35760405162461bcd60e51b815260040161045090611507565b9392505050565b6001600160a01b038216610a005760405162461bcd60e51b815260040161045090611577565b600654610a13908263ffffffff6109ae16565b6006556001600160a01b038216600090815260046020526040902054610a3f908263ffffffff6109ae16565b6001600160a01b0383166000818152600460205260408082209390935591519091907fddf252ad1be2c89b69c2b068fc378daa952ba7f163c4a11628f55a4df523b3ef90610a8e908590611429565b60405180910390a35050565b6001600160a01b038216610ac05760405162461bcd60e51b815260040161045090611547565b610b0381604051806060016040528060228152602001611691602291396001600160a01b038516600090815260046020526040902054919063ffffffff61098216565b6001600160a01b038316600090815260046020526040902055600654610b2f908263ffffffff610d3c16565b6006556040516000906001600160a01b038416907fddf252ad1be2c89b69c2b068fc378daa952ba7f163c4a11628f55a4df523b3ef90610a8e908590611429565b610b7a8282610a9a565b6104a082610b866107b4565b6103bb846040518060600160405280602481526020016116d9602491396001600160a01b038816600090815260056020526040812090610bc46107b4565b6001600160a01b03168152602081019190915260400160002054919063ffffffff61098216565b610bfc60008263ffffffff610d7e16565b6040516001600160a01b038216907f6ae172837ea30b801fbfcdd4108aa1d5bf8ff775444fd70256b44e6bf3dfc3f690600090a250565b610c4460008263ffffffff610dca16565b6040516001600160a01b038216907fe94479a9f7e1952cc78f2d6baab678adc1b772d936c6583def489e524cb6669290600090a250565b60006001600160a01b038216610ca35760405162461bcd60e51b815260040161045090611537565b506001600160a01b03166000908152602091909152604090205460ff1690565b60405161190160f01b8152600281019290925260228201526042902090565b82610d3757610cf082610e12565b6101d160f51b610cff83610e12565b604051602001610d11939291906113ea565b60408051601f198184030181529082905262461bcd60e51b8252610450916004016114c6565b505050565b60006109d383836040518060400160405280601e81526020017f536166654d6174683a207375627472616374696f6e206f766572666c6f770000815250610982565b610d888282610c7b565b15610da55760405162461bcd60e51b8152600401610450906114e7565b6001600160a01b0316600090815260209190915260409020805460ff19166001179055565b610dd48282610c7b565b610df05760405162461bcd60e51b815260040161045090611527565b6001600160a01b0316600090815260209190915260409020805460ff19169055565b60608082604051602001610e2691906113d5565b60408051601f19818403018152919052905060205b8015610e7b57815160001990910190829082908110610e5657fe5b01602001516001600160f81b03191615610e765760010181529050610491565b610e3b565b505060408051600081526020810190915292915050565b803561034c8161160e565b803561034c81611622565b803561034c8161162b565b600060208284031215610ec557600080fd5b6000610ed18484610e92565b949350505050565b60008060408385031215610eec57600080fd5b6000610ef88585610e92565b9250506020610f0985828601610e92565b9150509250929050565b600080600060608486031215610f2857600080fd5b6000610f348686610e92565b9350506020610f4586828701610e92565b9250506040610f5686828701610e9d565b9150509250925092565b600080600080600080600060e0888a031215610f7b57600080fd5b6000610f878a8a610e92565b9750506020610f988a828b01610e92565b9650506040610fa98a828b01610e9d565b9550506060610fba8a828b01610e9d565b9450506080610fcb8a828b01610ea8565b93505060a0610fdc8a828b01610e9d565b92505060c0610fed8a828b01610e9d565b91505092959891949750929550565b6000806040838503121561100f57600080fd5b600061101b8585610e92565b9250506020610f0985828601610e9d565b60006020828403121561103e57600080fd5b6000610ed18484610e9d565b611053816115a2565b82525050565b611053816115ad565b61105361106e826115b2565b6115bf565b611053816115bf565b61105361106e826115bf565b600061109382611595565b61109d8185610491565b93506110ad8185602086016115d4565b9290920192915050565b60006110c282611595565b6110cc8185611599565b93506110dc8185602086016115d4565b6110e581611604565b9093019392505050565b60006110fc602383611599565b7f45524332303a207472616e7366657220746f20746865207a65726f206164647281526265737360e81b602082015260400192915050565b6000611141601f83611599565b7f526f6c65733a206163636f756e7420616c72656164792068617320726f6c6500815260200192915050565b600061117a602283611599565b7f45524332303a20617070726f766520746f20746865207a65726f206164647265815261737360f01b602082015260400192915050565b60006111be601b83611599565b7f536166654d6174683a206164646974696f6e206f766572666c6f770000000000815260200192915050565b60006111f7603083611599565b7f4d696e746572526f6c653a2063616c6c657220646f6573206e6f74206861766581526f20746865204d696e74657220726f6c6560801b602082015260400192915050565b6000611249602183611599565b7f526f6c65733a206163636f756e7420646f6573206e6f74206861766520726f6c8152606560f81b602082015260400192915050565b600061128c602283611599565b7f526f6c65733a206163636f756e7420697320746865207a65726f206164647265815261737360f01b602082015260400192915050565b60006112d0602183611599565b7f45524332303a206275726e2066726f6d20746865207a65726f206164647265738152607360f81b602082015260400192915050565b6000611313602583611599565b7f45524332303a207472616e736665722066726f6d20746865207a65726f206164815264647265737360d81b602082015260400192915050565b600061135a602483611599565b7f45524332303a20617070726f76652066726f6d20746865207a65726f206164648152637265737360e01b602082015260400192915050565b60006113a0601f83611599565b7f45524332303a206d696e7420746f20746865207a65726f206164647265737300815260200192915050565b611053816115ce565b60006113e1828461107c565b50602001919050565b60006113f68286611088565b91506114028285611062565b6002820191506114128284611088565b95945050505050565b6020810161034c8284611059565b6020810161034c8284611073565b60c081016114458289611073565b611452602083018861104a565b61145f604083018761104a565b61146c6060830186611073565b6114796080830185611073565b61148660a0830184611073565b979650505050505050565b6080810161149f8287611073565b6114ac60208301866113cc565b6114b96040830185611073565b6114126060830184611073565b602080825281016109d381846110b7565b6020808252810161034c816110ef565b6020808252810161034c81611134565b6020808252810161034c8161116d565b6020808252810161034c816111b1565b6020808252810161034c816111ea565b6020808252810161034c8161123c565b6020808252810161034c8161127f565b6020808252810161034c816112c3565b6020808252810161034c81611306565b6020808252810161034c8161134d565b6020808252810161034c81611393565b6020810161034c82846113cc565b5190565b90815260200190565b600061034c826115c2565b151590565b6001600160f01b03191690565b90565b6001600160a01b031690565b60ff1690565b60005b838110156115ef5781810151838201526020016115d7565b838111156115fe576000848401525b50505050565b601f01601f191690565b611617816115a2565b811461047457600080fd5b611617816115bf565b611617816115ce565b600190565b8351602094850120835193850193909320604080517f8b73c3c69bb8fe3d512ecc4cf759cc79239f7b179b0ffacaa9a75d522b39400f815295860194909452928401929092526060830152608082015260a090209056fe45524332303a206275726e20616d6f756e7420657863656564732062616c616e636545524332303a207472616e7366657220616d6f756e7420657863656564732062616c616e636545524332303a206275726e20616d6f756e74206578636565647320616c6c6f77616e6365446f6c6c61723a207472616e7366657220616d6f756e74206578636565647320616c6c6f77616e636545524332303a2064656372656173656420616c6c6f77616e63652062656c6f77207a65726fa365627a7a7231582021717f4bb76e445345cb7f360c6be702a59b3219eb6cebef899d276f27b2e4bb6c6578706572696d656e74616cf564736f6c63430005110040",
  "source": "/*\n    Copyright 2020 Dynamic Dollar Devs, based on the works of the Empty Set Squad\n\n    Licensed under the Apache License, Version 2.0 (the \"License\");\n    you may not use this file except in compliance with the License.\n    You may obtain a copy of the License at\n\n    http://www.apache.org/licenses/LICENSE-2.0\n\n    Unless required by applicable law or agreed to in writing, software\n    distributed under the License is distributed on an \"AS IS\" BASIS,\n    WITHOUT WARRANTIES OR CONDITIONS OF ANY KIND, either express or implied.\n    See the License for the specific language governing permissions and\n    limitations under the License.\n*/\n\npragma solidity ^0.5.17;\npragma experimental ABIEncoderV2;\n\nimport \"../dao/Regulator.sol\";\nimport \"../dao/Market.sol\";\nimport \"../oracle/IOracle.sol\";\nimport \"./MockComptroller.sol\";\nimport \"./MockState.sol\";\n\ncontract MockRegulator is MockComptroller, Regulator {\n    bytes32 private constant FILE = \"MockRegulator\";\n\n    constructor (address oracle, address pool) MockComptroller(pool) public {\n        _state.provider.oracle = IOracle(oracle);\n    }\n\n    function stepE() external {\n        super.step();\n    }\n\n    function bootstrappingAt(uint256 epoch) public view returns (bool) {\n        return epoch <= 5;\n    }\n\n    function settleCouponAuctionE() external {\n        super.settleCouponAuction();\n    }\n\n    function cancelCouponAuctionAtEpochE(uint256 epoch) external {\n        super.cancelCouponAuctionAtEpoch(epoch);\n    }\n\n    function finishCouponAuctionAtEpochE(uint256 epoch) external {\n         super.finishCouponAuctionAtEpoch(epoch);\n    }\n\n    function initCouponAuctionE() external {\n        super.initCouponAuction();\n    }\n\n    function getCouponAuctionBidsE() external returns (uint256) {\n        return super.getCouponAuctionBids();\n    }\n\n    function getCouponAuctionMinExpiryE() external returns (uint256) {\n        return super.getCouponAuctionMinExpiry();\n    }\n\n    function getCouponAuctionMaxExpiryE() external returns (uint256) {\n        return super.getCouponAuctionMaxExpiry();\n    }\n\n    function getCouponAuctionMinYieldE() external returns (uint256) {\n        return super.getCouponAuctionMinYield();\n    }\n\n    function getCouponAuctionMaxYieldE() external returns (uint256) {\n        return super.getCouponAuctionMaxYield();\n    }\n\n    function getCouponAuctionMinDollarAmountE() external returns (uint256) {\n        return super.getCouponAuctionMinDollarAmount();\n    }\n\n    function getCouponAuctionMaxDollarAmountE() external returns (uint256) {\n        return super.getCouponAuctionMaxDollarAmount();\n    }\n\n    /* for testing only */\n\n    function placeCouponAuctionBid(uint256 couponEpochExpiry, uint256 dollarAmount, uint256 maxCouponAmount) external returns (bool) {\n        Require.that(\n            couponEpochExpiry > 0,\n            FILE,\n            \"Must have non-zero expiry\"\n        );\n        \n        Require.that(\n            dollarAmount > 0,\n            FILE,\n            \"Must bid non-zero amount\"\n        );\n        \n        Require.that(\n            maxCouponAmount > 0,\n            FILE,\n            \"Must bid on non-zero amount\"\n        );\n        \n        Require.that(\n            totalDebt() >= dollarAmount,\n            FILE,\n            \"Not enough debt\"\n        );\n\n        uint256 epoch = epoch().add(couponEpochExpiry);\n        setCouponAuctionRelYield(maxCouponAmount.div(dollarAmount));\n        setCouponAuctionRelDollarAmount(dollarAmount);\n        setCouponAuctionRelExpiry(epoch);\n        setCouponBidderState(msg.sender, epoch, dollarAmount, maxCouponAmount);\n        setCouponBidderStateIndex(getCouponAuctionBids(), msg.sender);\n        incrementCouponAuctionBids();\n        return true;\n    }\n}\n",
  "sourcePath": "/Users/cinquemb/Documents/Startups/crypto/dollar/protocol/contracts/mock/MockRegulator.sol",
  "compiler": {
    "name": "solc",
    "version": "0.5.17+commit.d19bba13.Emscripten.clang"
  },
  "schemaVersion": "3.3.3",
  "updatedAt": "2021-01-13T13:26:25.491Z",
  "devdoc": {
    "methods": {}
  },
  "userdoc": {
    "methods": {
      "balanceOfStaged(address)": {
        "notice": "Account"
      },
      "createCandidateE(address,uint256)": {
        "notice": "Governance"
      },
      "dollar()": {
        "notice": "Global"
      },
      "epoch()": {
        "notice": "Epoch"
      },
      "incrementBalanceOfE(address,uint256)": {
        "notice": "Account"
      },
      "incrementTotalBondedE(uint256)": {
        "notice": "Global"
      },
      "name()": {
        "notice": "ERC20 Interface"
      },
      "recordedVote(address,address)": {
        "notice": "Governance"
      },
      "setBlockTimestamp(uint256)": {
        "notice": "Mock"
      },
      "setEpochParamsE(uint256,uint256)": {
        "notice": "Epoch"
      },
      "transfer(address,uint256)": {
        "notice": "ERC20 Interface"
      }
    }
  }
}