{
  "contractName": "MockUpgradeable",
  "abi": [
    {
      "inputs": [],
      "payable": false,
      "stateMutability": "nonpayable",
      "type": "constructor"
    },
    {
      "anonymous": false,
      "inputs": [
        {
          "indexed": true,
          "internalType": "address",
          "name": "from",
          "type": "address"
        },
        {
          "indexed": true,
          "internalType": "address",
          "name": "to",
          "type": "address"
        },
        {
          "indexed": false,
          "internalType": "uint256",
          "name": "value",
          "type": "uint256"
        }
      ],
      "name": "Transfer",
      "type": "event"
    },
    {
      "anonymous": false,
      "inputs": [
        {
          "indexed": true,
          "internalType": "address",
          "name": "implementation",
          "type": "address"
        }
      ],
      "name": "Upgraded",
      "type": "event"
    },
    {
      "constant": true,
      "inputs": [
        {
          "internalType": "address",
          "name": "owner",
          "type": "address"
        },
        {
          "internalType": "address",
          "name": "spender",
          "type": "address"
        }
      ],
      "name": "allowance",
      "outputs": [
        {
          "internalType": "uint256",
          "name": "",
          "type": "uint256"
        }
      ],
      "payable": false,
      "stateMutability": "view",
      "type": "function"
    },
    {
      "constant": true,
      "inputs": [
        {
          "internalType": "address",
          "name": "owner",
          "type": "address"
        },
        {
          "internalType": "address",
          "name": "spender",
          "type": "address"
        }
      ],
      "name": "allowanceCoupons",
      "outputs": [
        {
          "internalType": "uint256",
          "name": "",
          "type": "uint256"
        }
      ],
      "payable": false,
      "stateMutability": "view",
      "type": "function"
    },
    {
      "constant": false,
      "inputs": [
        {
          "internalType": "address",
          "name": "spender",
          "type": "address"
        },
        {
          "internalType": "uint256",
          "name": "amount",
          "type": "uint256"
        }
      ],
      "name": "approve",
      "outputs": [
        {
          "internalType": "bool",
          "name": "",
          "type": "bool"
        }
      ],
      "payable": false,
      "stateMutability": "nonpayable",
      "type": "function"
    },
    {
      "constant": true,
      "inputs": [
        {
          "internalType": "address",
          "name": "candidate",
          "type": "address"
        }
      ],
      "name": "approveFor",
      "outputs": [
        {
          "internalType": "uint256",
          "name": "",
          "type": "uint256"
        }
      ],
      "payable": false,
      "stateMutability": "view",
      "type": "function"
    },
    {
      "constant": true,
      "inputs": [
        {
          "internalType": "address",
          "name": "account",
          "type": "address"
        }
      ],
      "name": "balanceOf",
      "outputs": [
        {
          "internalType": "uint256",
          "name": "",
          "type": "uint256"
        }
      ],
      "payable": false,
      "stateMutability": "view",
      "type": "function"
    },
    {
      "constant": true,
      "inputs": [
        {
          "internalType": "address",
          "name": "account",
          "type": "address"
        }
      ],
      "name": "balanceOfBonded",
      "outputs": [
        {
          "internalType": "uint256",
          "name": "",
          "type": "uint256"
        }
      ],
      "payable": false,
      "stateMutability": "view",
      "type": "function"
    },
    {
      "constant": true,
      "inputs": [
        {
          "internalType": "address",
          "name": "account",
          "type": "address"
        },
        {
          "internalType": "uint256",
          "name": "epoch",
          "type": "uint256"
        }
      ],
      "name": "balanceOfCoupons",
      "outputs": [
        {
          "internalType": "uint256",
          "name": "",
          "type": "uint256"
        }
      ],
      "payable": false,
      "stateMutability": "view",
      "type": "function"
    },
    {
      "constant": true,
      "inputs": [
        {
          "internalType": "address",
          "name": "account",
          "type": "address"
        }
      ],
      "name": "balanceOfStaged",
      "outputs": [
        {
          "internalType": "uint256",
          "name": "",
          "type": "uint256"
        }
      ],
      "payable": false,
      "stateMutability": "view",
      "type": "function"
    },
    {
      "constant": true,
      "inputs": [
        {
          "internalType": "uint256",
          "name": "epoch",
          "type": "uint256"
        }
      ],
      "name": "bootstrappingAt",
      "outputs": [
        {
          "internalType": "bool",
          "name": "",
          "type": "bool"
        }
      ],
      "payable": false,
      "stateMutability": "view",
      "type": "function"
    },
    {
      "constant": true,
      "inputs": [
        {
          "internalType": "uint256",
          "name": "epoch",
          "type": "uint256"
        }
      ],
      "name": "couponsExpiration",
      "outputs": [
        {
          "internalType": "uint256",
          "name": "",
          "type": "uint256"
        }
      ],
      "payable": false,
      "stateMutability": "view",
      "type": "function"
    },
    {
      "constant": true,
      "inputs": [],
      "name": "decimals",
      "outputs": [
        {
          "internalType": "uint8",
          "name": "",
          "type": "uint8"
        }
      ],
      "payable": false,
      "stateMutability": "view",
      "type": "function"
    },
    {
      "constant": true,
      "inputs": [],
      "name": "dollar",
      "outputs": [
        {
          "internalType": "contract IDollar",
          "name": "",
          "type": "address"
        }
      ],
      "payable": false,
      "stateMutability": "view",
      "type": "function"
    },
    {
      "constant": true,
      "inputs": [],
      "name": "epoch",
      "outputs": [
        {
          "internalType": "uint256",
          "name": "",
          "type": "uint256"
        }
      ],
      "payable": false,
      "stateMutability": "view",
      "type": "function"
    },
    {
      "constant": true,
      "inputs": [],
      "name": "epochTime",
      "outputs": [
        {
          "internalType": "uint256",
          "name": "",
          "type": "uint256"
        }
      ],
      "payable": false,
      "stateMutability": "view",
      "type": "function"
    },
    {
      "constant": true,
      "inputs": [
        {
          "internalType": "uint256",
          "name": "epoch",
          "type": "uint256"
        }
      ],
      "name": "expiringCoupons",
      "outputs": [
        {
          "internalType": "uint256",
          "name": "",
          "type": "uint256"
        }
      ],
      "payable": false,
      "stateMutability": "view",
      "type": "function"
    },
    {
      "constant": true,
      "inputs": [
        {
          "internalType": "uint256",
          "name": "epoch",
          "type": "uint256"
        },
        {
          "internalType": "uint256",
          "name": "i",
          "type": "uint256"
        }
      ],
      "name": "expiringCouponsAtIndex",
      "outputs": [
        {
          "internalType": "uint256",
          "name": "",
          "type": "uint256"
        }
      ],
      "payable": false,
      "stateMutability": "view",
      "type": "function"
    },
    {
      "constant": true,
      "inputs": [
        {
          "internalType": "address",
          "name": "account",
          "type": "address"
        }
      ],
      "name": "fluidUntil",
      "outputs": [
        {
          "internalType": "uint256",
          "name": "",
          "type": "uint256"
        }
      ],
      "payable": false,
      "stateMutability": "view",
      "type": "function"
    },
    {
      "constant": true,
      "inputs": [
        {
          "internalType": "uint256",
          "name": "epoch",
          "type": "uint256"
        }
      ],
      "name": "getAvgExpiryFilled",
      "outputs": [
        {
          "internalType": "uint256",
          "name": "",
          "type": "uint256"
        }
      ],
      "payable": false,
      "stateMutability": "view",
      "type": "function"
    },
    {
      "constant": true,
      "inputs": [
        {
          "internalType": "uint256",
          "name": "epoch",
          "type": "uint256"
        }
      ],
      "name": "getAvgYieldFilled",
      "outputs": [
        {
          "internalType": "uint256",
          "name": "",
          "type": "uint256"
        }
      ],
      "payable": false,
      "stateMutability": "view",
      "type": "function"
    },
    {
      "constant": true,
      "inputs": [
        {
          "internalType": "uint256",
          "name": "epoch",
          "type": "uint256"
        }
      ],
      "name": "getBidToCover",
      "outputs": [
        {
          "internalType": "uint256",
          "name": "",
          "type": "uint256"
        }
      ],
      "payable": false,
      "stateMutability": "view",
      "type": "function"
    },
    {
      "constant": true,
      "inputs": [
        {
          "internalType": "uint256",
          "name": "epoch",
          "type": "uint256"
        }
      ],
      "name": "getMaxExpiryFilled",
      "outputs": [
        {
          "internalType": "uint256",
          "name": "",
          "type": "uint256"
        }
      ],
      "payable": false,
      "stateMutability": "view",
      "type": "function"
    },
    {
      "constant": true,
      "inputs": [
        {
          "internalType": "uint256",
          "name": "epoch",
          "type": "uint256"
        }
      ],
      "name": "getMaxYieldFilled",
      "outputs": [
        {
          "internalType": "uint256",
          "name": "",
          "type": "uint256"
        }
      ],
      "payable": false,
      "stateMutability": "view",
      "type": "function"
    },
    {
      "constant": true,
      "inputs": [
        {
          "internalType": "uint256",
          "name": "epoch",
          "type": "uint256"
        }
      ],
      "name": "getMinExpiryFilled",
      "outputs": [
        {
          "internalType": "uint256",
          "name": "",
          "type": "uint256"
        }
      ],
      "payable": false,
      "stateMutability": "view",
      "type": "function"
    },
    {
      "constant": true,
      "inputs": [
        {
          "internalType": "uint256",
          "name": "epoch",
          "type": "uint256"
        }
      ],
      "name": "getMinYieldFilled",
      "outputs": [
        {
          "internalType": "uint256",
          "name": "",
          "type": "uint256"
        }
      ],
      "payable": false,
      "stateMutability": "view",
      "type": "function"
    },
    {
      "constant": true,
      "inputs": [
        {
          "internalType": "uint256",
          "name": "epoch",
          "type": "uint256"
        }
      ],
      "name": "getTotalAuctioned",
      "outputs": [
        {
          "internalType": "uint256",
          "name": "",
          "type": "uint256"
        }
      ],
      "payable": false,
      "stateMutability": "view",
      "type": "function"
    },
    {
      "constant": true,
      "inputs": [
        {
          "internalType": "uint256",
          "name": "epoch",
          "type": "uint256"
        }
      ],
      "name": "getTotalBurned",
      "outputs": [
        {
          "internalType": "uint256",
          "name": "",
          "type": "uint256"
        }
      ],
      "payable": false,
      "stateMutability": "view",
      "type": "function"
    },
    {
      "constant": true,
      "inputs": [
        {
          "internalType": "uint256",
          "name": "epoch",
          "type": "uint256"
        }
      ],
      "name": "getTotalFilled",
      "outputs": [
        {
          "internalType": "uint256",
          "name": "",
          "type": "uint256"
        }
      ],
      "payable": false,
      "stateMutability": "view",
      "type": "function"
    },
    {
      "constant": true,
      "inputs": [],
      "name": "implementation",
      "outputs": [
        {
          "internalType": "address",
          "name": "impl",
          "type": "address"
        }
      ],
      "payable": false,
      "stateMutability": "view",
      "type": "function"
    },
    {
      "constant": true,
      "inputs": [
        {
          "internalType": "address",
          "name": "candidate",
          "type": "address"
        }
      ],
      "name": "isInitialized",
      "outputs": [
        {
          "internalType": "bool",
          "name": "",
          "type": "bool"
        }
      ],
      "payable": false,
      "stateMutability": "view",
      "type": "function"
    },
    {
      "constant": true,
      "inputs": [
        {
          "internalType": "address",
          "name": "candidate",
          "type": "address"
        }
      ],
      "name": "isNominated",
      "outputs": [
        {
          "internalType": "bool",
          "name": "",
          "type": "bool"
        }
      ],
      "payable": false,
      "stateMutability": "view",
      "type": "function"
    },
    {
      "constant": true,
      "inputs": [
        {
          "internalType": "address",
          "name": "account",
          "type": "address"
        }
      ],
      "name": "lockedUntil",
      "outputs": [
        {
          "internalType": "uint256",
          "name": "",
          "type": "uint256"
        }
      ],
      "payable": false,
      "stateMutability": "view",
      "type": "function"
    },
    {
      "constant": true,
      "inputs": [],
      "name": "name",
      "outputs": [
        {
          "internalType": "string",
          "name": "",
          "type": "string"
        }
      ],
      "payable": false,
      "stateMutability": "view",
      "type": "function"
    },
    {
      "constant": true,
      "inputs": [],
      "name": "oracle",
      "outputs": [
        {
          "internalType": "contract IOracle",
          "name": "",
          "type": "address"
        }
      ],
      "payable": false,
      "stateMutability": "view",
      "type": "function"
    },
    {
      "constant": true,
      "inputs": [
        {
          "internalType": "uint256",
          "name": "epoch",
          "type": "uint256"
        }
      ],
      "name": "outstandingCoupons",
      "outputs": [
        {
          "internalType": "uint256",
          "name": "",
          "type": "uint256"
        }
      ],
      "payable": false,
      "stateMutability": "view",
      "type": "function"
    },
    {
      "constant": true,
      "inputs": [
        {
          "internalType": "address",
          "name": "candidate",
          "type": "address"
        }
      ],
      "name": "periodFor",
      "outputs": [
        {
          "internalType": "uint256",
          "name": "",
          "type": "uint256"
        }
      ],
      "payable": false,
      "stateMutability": "view",
      "type": "function"
    },
    {
      "constant": true,
      "inputs": [],
      "name": "pool",
      "outputs": [
        {
          "internalType": "address",
          "name": "",
          "type": "address"
        }
      ],
      "payable": false,
      "stateMutability": "view",
      "type": "function"
    },
    {
      "constant": true,
      "inputs": [
        {
          "internalType": "address",
          "name": "account",
          "type": "address"
        },
        {
          "internalType": "address",
          "name": "candidate",
          "type": "address"
        }
      ],
      "name": "recordedVote",
      "outputs": [
        {
          "internalType": "enum Candidate.Vote",
          "name": "",
          "type": "uint8"
        }
      ],
      "payable": false,
      "stateMutability": "view",
      "type": "function"
    },
    {
      "constant": true,
      "inputs": [
        {
          "internalType": "address",
          "name": "candidate",
          "type": "address"
        }
      ],
      "name": "rejectFor",
      "outputs": [
        {
          "internalType": "uint256",
          "name": "",
          "type": "uint256"
        }
      ],
      "payable": false,
      "stateMutability": "view",
      "type": "function"
    },
    {
      "constant": true,
      "inputs": [
        {
          "internalType": "address",
          "name": "candidate",
          "type": "address"
        }
      ],
      "name": "startFor",
      "outputs": [
        {
          "internalType": "uint256",
          "name": "",
          "type": "uint256"
        }
      ],
      "payable": false,
      "stateMutability": "view",
      "type": "function"
    },
    {
      "constant": true,
      "inputs": [
        {
          "internalType": "address",
          "name": "account",
          "type": "address"
        }
      ],
      "name": "statusOf",
      "outputs": [
        {
          "internalType": "enum Account.Status",
          "name": "",
          "type": "uint8"
        }
      ],
      "payable": false,
      "stateMutability": "view",
      "type": "function"
    },
    {
      "constant": true,
      "inputs": [],
      "name": "symbol",
      "outputs": [
        {
          "internalType": "string",
          "name": "",
          "type": "string"
        }
      ],
      "payable": false,
      "stateMutability": "view",
      "type": "function"
    },
    {
      "constant": true,
      "inputs": [],
      "name": "totalBonded",
      "outputs": [
        {
          "internalType": "uint256",
          "name": "",
          "type": "uint256"
        }
      ],
      "payable": false,
      "stateMutability": "view",
      "type": "function"
    },
    {
      "constant": true,
      "inputs": [
        {
          "internalType": "uint256",
          "name": "epoch",
          "type": "uint256"
        }
      ],
      "name": "totalBondedAt",
      "outputs": [
        {
          "internalType": "uint256",
          "name": "",
          "type": "uint256"
        }
      ],
      "payable": false,
      "stateMutability": "view",
      "type": "function"
    },
    {
      "constant": true,
      "inputs": [],
      "name": "totalCoupons",
      "outputs": [
        {
          "internalType": "uint256",
          "name": "",
          "type": "uint256"
        }
      ],
      "payable": false,
      "stateMutability": "view",
      "type": "function"
    },
    {
      "constant": true,
      "inputs": [],
      "name": "totalDebt",
      "outputs": [
        {
          "internalType": "uint256",
          "name": "",
          "type": "uint256"
        }
      ],
      "payable": false,
      "stateMutability": "view",
      "type": "function"
    },
    {
      "constant": true,
      "inputs": [],
      "name": "totalNet",
      "outputs": [
        {
          "internalType": "uint256",
          "name": "",
          "type": "uint256"
        }
      ],
      "payable": false,
      "stateMutability": "view",
      "type": "function"
    },
    {
      "constant": true,
      "inputs": [],
      "name": "totalRedeemable",
      "outputs": [
        {
          "internalType": "uint256",
          "name": "",
          "type": "uint256"
        }
      ],
      "payable": false,
      "stateMutability": "view",
      "type": "function"
    },
    {
      "constant": true,
      "inputs": [],
      "name": "totalStaged",
      "outputs": [
        {
          "internalType": "uint256",
          "name": "",
          "type": "uint256"
        }
      ],
      "payable": false,
      "stateMutability": "view",
      "type": "function"
    },
    {
      "constant": true,
      "inputs": [],
      "name": "totalSupply",
      "outputs": [
        {
          "internalType": "uint256",
          "name": "",
          "type": "uint256"
        }
      ],
      "payable": false,
      "stateMutability": "view",
      "type": "function"
    },
    {
      "constant": false,
      "inputs": [
        {
          "internalType": "address",
          "name": "recipient",
          "type": "address"
        },
        {
          "internalType": "uint256",
          "name": "amount",
          "type": "uint256"
        }
      ],
      "name": "transfer",
      "outputs": [
        {
          "internalType": "bool",
          "name": "",
          "type": "bool"
        }
      ],
      "payable": false,
      "stateMutability": "nonpayable",
      "type": "function"
    },
    {
      "constant": false,
      "inputs": [
        {
          "internalType": "address",
          "name": "sender",
          "type": "address"
        },
        {
          "internalType": "address",
          "name": "recipient",
          "type": "address"
        },
        {
          "internalType": "uint256",
          "name": "amount",
          "type": "uint256"
        }
      ],
      "name": "transferFrom",
      "outputs": [
        {
          "internalType": "bool",
          "name": "",
          "type": "bool"
        }
      ],
      "payable": false,
      "stateMutability": "nonpayable",
      "type": "function"
    },
    {
      "constant": true,
      "inputs": [
        {
          "internalType": "address",
          "name": "candidate",
          "type": "address"
        }
      ],
      "name": "votesFor",
      "outputs": [
        {
          "internalType": "uint256",
          "name": "",
          "type": "uint256"
        }
      ],
      "payable": false,
      "stateMutability": "view",
      "type": "function"
    },
    {
      "constant": false,
      "inputs": [],
      "name": "initialize",
      "outputs": [],
      "payable": false,
      "stateMutability": "nonpayable",
      "type": "function"
    },
    {
      "constant": false,
      "inputs": [
        {
          "internalType": "address",
          "name": "newImplementation",
          "type": "address"
        }
      ],
      "name": "upgradeToE",
      "outputs": [],
      "payable": false,
      "stateMutability": "nonpayable",
      "type": "function"
    }
  ],
  "bytecode": "0x608060405234801561001057600080fd5b50611462806100206000396000f3fe608060405234801561001057600080fd5b50600436106103425760003560e01c80638129fc1c116101b8578063a9059cbb11610104578063d60b347f116100a2578063eeaca09b1161007c578063eeaca09b1461069b578063f1b7cf49146106ae578063fc7b9c18146106c1578063ffbe3b73146106c957610342565b8063d60b347f14610667578063dd62ed3e1461067a578063dde74dc31461068857610342565b8063c9aff70c116100de578063c9aff70c14610626578063cb0fbc7114610639578063cf0237791461064c578063d53c6f5f1461065457610342565b8063a9059cbb14610365578063bc7513e214610600578063c34eee651461061357610342565b806397a5d5b5116101715780639f1a09291161014b5780639f1a0929146105bf5780639f6e1b26146105d2578063a50cd8e7146105e5578063a6c409f1146105f857610342565b806397a5d5b5146105915780639a649edc146105a45780639bc289f1146105ac57610342565b80638129fc1c1461053e578063825ad6071461054857806386cf9f141461055b5780638a558b041461056e578063900cf0cf1461058157806395d89b411461058957610342565b80633fbba9a6116102925780635c60da1b1161023057806370a082311161020a57806370a08231146104fd57806375d5024b146105105780637d8bb869146105235780637dc0d1d01461053657610342565b80635c60da1b146104cf57806364668022146104d75780636a39e328146104ea57610342565b80635053e4611161026c5780635053e4611461048c57806351adeb571461049457806351bf21d8146104a9578063520acb76146104bc57610342565b80633fbba9a61461045157806344d96e95146104715780634c7360991461047957610342565b80631edbcf6c116102ff578063313ce567116102d9578063313ce56714610403578063353a420c146104185780633a3e6c811461042b5780633dc905c71461043e57610342565b80631edbcf6c146103d557806323b872dd146103dd5780632d7f23b3146103f057610342565b806306fdde0314610347578063095ea7b31461036557806310e95b6c1461038557806315e14bf6146103a557806316f0115b146103b857806318160ddd146103cd575b600080fd5b61034f6106dc565b60405161035c91906112ff565b60405180910390f35b610378610373366004611087565b610713565b60405161035c91906112d5565b6103986103933660046110b7565b61071c565b60405161035c9190611350565b6103986103b3366004610fda565b610734565b6103c0610752565b60405161035c91906112c7565b610398610761565b610398610767565b6103786103eb36600461103a565b61076d565b6103986103fe3660046110b7565b610776565b61040b61078b565b60405161035c919061135e565b610398610426366004610fda565b610790565b610378610439366004610fda565b6107ae565b61039861044c3660046110b7565b6107cb565b61046461045f366004611000565b6107e0565b60405161035c91906112f1565b610398610813565b6103986104873660046110f3565b610819565b610398610849565b61049c61086c565b60405161035c91906112e3565b6103986104b7366004610fda565b61087b565b6103986104ca3660046110b7565b610899565b6103c06108ae565b6103986104e5366004610fda565b6108d3565b6103986104f83660046110b7565b6108f1565b61039861050b366004610fda565b610906565b61037861051e3660046110b7565b610924565b6103986105313660046110b7565b610937565b61049c61094c565b61054661095b565b005b610398610556366004610fda565b61097c565b610398610569366004610fda565b6109cf565b61054661057c366004610fda565b6109ea565b6103986109f6565b61034f6109fc565b61046461059f366004610fda565b610a1a565b610398610a7f565b6103986105ba366004610fda565b610a85565b6103986105cd3660046110b7565b610aa3565b6103986105e0366004611000565b610ab9565b6103986105f3366004610fda565b610ae8565b610398610b0b565b61039861060e366004611087565b610ba1565b6103986106213660046110b7565b610be5565b6103986106343660046110b7565b610bfa565b6103986106473660046110b7565b610c0f565b610398610c24565b6103986106623660046110b7565b610c2a565b610378610675366004610fda565b610c3f565b610398610373366004611000565b6103986106963660046110b7565b610c60565b6103986106a93660046110b7565b610c75565b6103986106bc366004610fda565b610c8a565b610398610ca5565b6103986106d73660046110b7565b610cab565b60408051808201909152601881527f44796e616d69632053657420446f6c6c6172205374616b650000000000000000602082015290565b60005b92915050565b6000818152600d60205260409020600201545b919050565b6001600160a01b03166000908152600e602052604090206001015490565b600b546001600160a01b031690565b60035490565b60065490565b60009392505050565b6000908152600d60205260409020600a015490565b601290565b6001600160a01b03166000908152600e602052604090206003015490565b6001600160a01b03166000908152600e6020526040902054151590565b6000908152600d60205260409020600e015490565b6001600160a01b038082166000908152600e60209081526040808320938616835260049093019052205460ff1692915050565b60045490565b6000828152600d6020526040812060030180548390811061083657fe5b9060005260206000200154905092915050565b6000610853610f98565b61085b610cbd565b905061086681610cec565b91505090565b6009546001600160a01b031690565b6001600160a01b03166000908152600c602052604090206004015490565b6000908152600d602052604090206010015490565b7f360894a13ba1a3210667c828492db98dca3e2076cc3735a920a3ca505d382bbc5490565b6001600160a01b03166000908152600e602052604090206002015490565b6000908152600d602052604090206003015490565b6001600160a01b03166000908152600c602052604090206001015490565b600061092e610d0e565b90911115919050565b6000908152600d602052604090206012015490565b600a546001600160a01b031690565b60405162461bcd60e51b815260040161097390611340565b60405180910390fd5b600080610987610761565b90508061099857600091505061072f565b6109c8816109bc6109a886610906565b6109b0610813565b9063ffffffff610d1316565b9063ffffffff610d4d16565b9392505050565b6001600160a01b03166000908152600c602052604090205490565b6109f381610d8f565b50565b60025490565b6040805180820190915260048152634453445360e01b602082015290565b6000610a246109f6565b6001600160a01b0383166000908152600c60205260409020600501541115610a4e5750600261072f565b6001600160a01b0382166000908152600c6020526040902060040154610a726109f6565b1015610713576001610716565b60085490565b6001600160a01b03166000908152600c602052604090206005015490565b6000908152600d60208190526040909120015490565b6001600160a01b039182166000908152600c602090815260408083209390941682526003909201909152205490565b6000610716610af683610790565b610aff846108d3565b9063ffffffff610e7b16565b6000610b9c610b18610ca5565b610b2061086c565b6001600160a01b03166318160ddd6040518163ffffffff1660e01b815260040160206040518083038186803b158015610b5857600080fd5b505afa158015610b6c573d6000803e3d6000fd5b505050506040513d601f19601f82011682018060405250610b9091908101906110d5565b9063ffffffff610ea016565b905090565b6000610bac82610bfa565b610bb857506000610716565b506001600160a01b03919091166000908152600c6020908152604080832093835260029093019052205490565b6000908152600d602052604090206011015490565b6000908152600d602052604090206001015490565b6000908152600d602052604090206013015490565b60055490565b6000908152600d60205260409020600f015490565b6001600160a01b03166000908152600e602052604090206005015460ff1690565b6000908152600d60205260409020600c015490565b6000908152600d60205260409020600b015490565b6001600160a01b03166000908152600e602052604090205490565b60075490565b6000908152600d602052604090205490565b610cc5610f98565b604051806060016040528060008152602001635fbef0008152602001611c20815250905090565b60006107168260000151610aff84604001516109bc8660200151610b90610ee2565b609690565b600082610d2257506000610716565b82820282848281610d2f57fe5b04146109c85760405162461bcd60e51b815260040161097390611320565b60006109c883836040518060400160405280601a81526020017f536166654d6174683a206469766973696f6e206279207a65726f000000000000815250610ee6565b610d9881610f1d565b60408051600481526024810182526020810180516001600160e01b031663204a7f0760e21b17905290516000916060916001600160a01b03851691610ddc916112bb565b600060405180830381855af49150503d8060008114610e17576040519150601f19603f3d011682016040523d82523d6000602084013e610e1c565b606091505b5091509150818190610e415760405162461bcd60e51b815260040161097391906112ff565b506040516001600160a01b038416907fbc7cd75a20ee27fd9adebab32041f755214dbc6bffa90cc0225b39da2e5c2d3b90600090a2505050565b6000828201838110156109c85760405162461bcd60e51b815260040161097390611310565b60006109c883836040518060400160405280601e81526020017f536166654d6174683a207375627472616374696f6e206f766572666c6f770000815250610f66565b4290565b60008183610f075760405162461bcd60e51b815260040161097391906112ff565b506000838581610f1357fe5b0495945050505050565b610f2681610f92565b610f425760405162461bcd60e51b815260040161097390611330565b7f360894a13ba1a3210667c828492db98dca3e2076cc3735a920a3ca505d382bbc55565b60008184841115610f8a5760405162461bcd60e51b815260040161097391906112ff565b505050900390565b3b151590565b60405180606001604052806000815260200160008152602001600081525090565b803561071681611402565b803561071681611416565b805161071681611416565b600060208284031215610fec57600080fd5b6000610ff88484610fb9565b949350505050565b6000806040838503121561101357600080fd5b600061101f8585610fb9565b925050602061103085828601610fb9565b9150509250929050565b60008060006060848603121561104f57600080fd5b600061105b8686610fb9565b935050602061106c86828701610fb9565b925050604061107d86828701610fc4565b9150509250925092565b6000806040838503121561109a57600080fd5b60006110a68585610fb9565b925050602061103085828601610fc4565b6000602082840312156110c957600080fd5b6000610ff88484610fc4565b6000602082840312156110e757600080fd5b6000610ff88484610fcf565b6000806040838503121561110657600080fd5b60006110a68585610fc4565b61111b81611379565b82525050565b61111b81611384565b60006111358261136c565b61113f818561072f565b935061114f8185602086016113be565b9290920192915050565b61111b816113a8565b61111b816113b3565b60006111768261136c565b6111808185611370565b93506111908185602086016113be565b611199816113ee565b9093019392505050565b60006111b0601b83611370565b7f536166654d6174683a206164646974696f6e206f766572666c6f770000000000815260200192915050565b60006111e9602183611370565b7f536166654d6174683a206d756c7469706c69636174696f6e206f766572666c6f8152607760f81b602082015260400192915050565b600061122c603b83611370565b7f43616e6e6f742073657420612070726f787920696d706c656d656e746174696f81527f6e20746f2061206e6f6e2d636f6e747261637420616464726573730000000000602082015260400192915050565b600061128b600f83611370565b6e14da1bdd5b19081b9bdd0818d85b1b608a1b815260200192915050565b61111b8161139f565b61111b816113a2565b60006109c8828461112a565b602081016107168284611112565b602081016107168284611121565b602081016107168284611159565b602081016107168284611162565b602080825281016109c8818461116b565b60208082528101610716816111a3565b60208082528101610716816111dc565b602080825281016107168161121f565b602080825281016107168161127e565b6020810161071682846112a9565b6020810161071682846112b2565b5190565b90815260200190565b600061071682611393565b151590565b8061072f816113f8565b6001600160a01b031690565b90565b60ff1690565b600061071682611379565b600061071682611389565b60005b838110156113d95781810151838201526020016113c1565b838111156113e8576000848401525b50505050565b601f01601f191690565b600381106109f357fe5b61140b81611379565b81146109f357600080fd5b61140b8161139f56fea365627a7a7231582079e85b98eb19347880ee29abec67ee6bfb06de916bcee3b161127d67c477b9416c6578706572696d656e74616cf564736f6c63430005110040",
  "source": "/*\n    Copyright 2020 Dynamic Dollar Devs, based on the works of the Empty Set Squad\n\n    Licensed under the Apache License, Version 2.0 (the \"License\");\n    you may not use this file except in compliance with the License.\n    You may obtain a copy of the License at\n\n    http://www.apache.org/licenses/LICENSE-2.0\n\n    Unless required by applicable law or agreed to in writing, software\n    distributed under the License is distributed on an \"AS IS\" BASIS,\n    WITHOUT WARRANTIES OR CONDITIONS OF ANY KIND, either express or implied.\n    See the License for the specific language governing permissions and\n    limitations under the License.\n*/\n\npragma solidity ^0.5.17;\npragma experimental ABIEncoderV2;\n\nimport \"../dao/Upgradeable.sol\";\nimport \"../dao/Permission.sol\";\n\ncontract MockUpgradeable is Upgradeable, Permission {\n    constructor () public { }\n\n    function initialize() public {\n        revert(\"Should not call\");\n    }\n\n    function upgradeToE(address newImplementation) external {\n        super.upgradeTo(newImplementation);\n    }\n}\n",
  "sourcePath": "/Users/cinquemb/Documents/Startups/crypto/dollar/protocol/contracts/mock/MockUpgradeable.sol",
  "compiler": {
    "name": "solc",
    "version": "0.5.17+commit.d19bba13.Emscripten.clang"
  },
  "schemaVersion": "3.3.3",
  "updatedAt": "2021-01-14T02:02:05.177Z",
  "devdoc": {
    "methods": {}
  },
  "userdoc": {
    "methods": {
      "balanceOfStaged(address)": {
        "notice": "Account"
      },
      "dollar()": {
        "notice": "Global"
      },
      "epoch()": {
        "notice": "Epoch"
      },
      "name()": {
        "notice": "ERC20 Interface"
      },
      "recordedVote(address,address)": {
        "notice": "Governance"
      },
      "transfer(address,uint256)": {
        "notice": "ERC20 Interface"
      }
    }
  }
}