{
  "contractName": "MockRegulator",
  "abi": [
    {
      "inputs": [
        {
          "internalType": "address",
          "name": "oracle",
          "type": "address"
        },
        {
          "internalType": "address",
          "name": "pool",
          "type": "address"
        }
      ],
      "payable": false,
      "stateMutability": "nonpayable",
      "type": "constructor"
    },
    {
      "anonymous": false,
      "inputs": [
        {
          "indexed": true,
          "internalType": "uint256",
          "name": "epoch",
          "type": "uint256"
        },
        {
          "indexed": false,
          "internalType": "uint256",
          "name": "price",
          "type": "uint256"
        },
        {
          "indexed": false,
          "internalType": "uint256",
          "name": "newDebt",
          "type": "uint256"
        }
      ],
      "name": "SupplyDecrease",
      "type": "event"
    },
    {
      "anonymous": false,
      "inputs": [
        {
          "indexed": true,
          "internalType": "uint256",
          "name": "epoch",
          "type": "uint256"
        },
        {
          "indexed": false,
          "internalType": "uint256",
          "name": "price",
          "type": "uint256"
        },
        {
          "indexed": false,
          "internalType": "uint256",
          "name": "newRedeemable",
          "type": "uint256"
        },
        {
          "indexed": false,
          "internalType": "uint256",
          "name": "lessDebt",
          "type": "uint256"
        },
        {
          "indexed": false,
          "internalType": "uint256",
          "name": "newBonded",
          "type": "uint256"
        }
      ],
      "name": "SupplyIncrease",
      "type": "event"
    },
    {
      "anonymous": false,
      "inputs": [
        {
          "indexed": true,
          "internalType": "uint256",
          "name": "epoch",
          "type": "uint256"
        }
      ],
      "name": "SupplyNeutral",
      "type": "event"
    },
    {
      "anonymous": false,
      "inputs": [
        {
          "indexed": true,
          "internalType": "address",
          "name": "from",
          "type": "address"
        },
        {
          "indexed": true,
          "internalType": "address",
          "name": "to",
          "type": "address"
        },
        {
          "indexed": false,
          "internalType": "uint256",
          "name": "value",
          "type": "uint256"
        }
      ],
      "name": "Transfer",
      "type": "event"
    },
    {
      "constant": true,
      "inputs": [
        {
          "internalType": "address",
          "name": "owner",
          "type": "address"
        },
        {
          "internalType": "address",
          "name": "spender",
          "type": "address"
        }
      ],
      "name": "allowance",
      "outputs": [
        {
          "internalType": "uint256",
          "name": "",
          "type": "uint256"
        }
      ],
      "payable": false,
      "stateMutability": "view",
      "type": "function"
    },
    {
      "constant": true,
      "inputs": [
        {
          "internalType": "address",
          "name": "owner",
          "type": "address"
        },
        {
          "internalType": "address",
          "name": "spender",
          "type": "address"
        }
      ],
      "name": "allowanceCoupons",
      "outputs": [
        {
          "internalType": "uint256",
          "name": "",
          "type": "uint256"
        }
      ],
      "payable": false,
      "stateMutability": "view",
      "type": "function"
    },
    {
      "constant": false,
      "inputs": [
        {
          "internalType": "address",
          "name": "spender",
          "type": "address"
        },
        {
          "internalType": "uint256",
          "name": "amount",
          "type": "uint256"
        }
      ],
      "name": "approve",
      "outputs": [
        {
          "internalType": "bool",
          "name": "",
          "type": "bool"
        }
      ],
      "payable": false,
      "stateMutability": "nonpayable",
      "type": "function"
    },
    {
      "constant": true,
      "inputs": [
        {
          "internalType": "address",
          "name": "candidate",
          "type": "address"
        }
      ],
      "name": "approveFor",
      "outputs": [
        {
          "internalType": "uint256",
          "name": "",
          "type": "uint256"
        }
      ],
      "payable": false,
      "stateMutability": "view",
      "type": "function"
    },
    {
      "constant": true,
      "inputs": [
        {
          "internalType": "address",
          "name": "account",
          "type": "address"
        }
      ],
      "name": "balanceOf",
      "outputs": [
        {
          "internalType": "uint256",
          "name": "",
          "type": "uint256"
        }
      ],
      "payable": false,
      "stateMutability": "view",
      "type": "function"
    },
    {
      "constant": true,
      "inputs": [
        {
          "internalType": "address",
          "name": "account",
          "type": "address"
        }
      ],
      "name": "balanceOfBonded",
      "outputs": [
        {
          "internalType": "uint256",
          "name": "",
          "type": "uint256"
        }
      ],
      "payable": false,
      "stateMutability": "view",
      "type": "function"
    },
    {
      "constant": true,
      "inputs": [
        {
          "internalType": "address",
          "name": "account",
          "type": "address"
        },
        {
          "internalType": "uint256",
          "name": "epoch",
          "type": "uint256"
        }
      ],
      "name": "balanceOfCoupons",
      "outputs": [
        {
          "internalType": "uint256",
          "name": "",
          "type": "uint256"
        }
      ],
      "payable": false,
      "stateMutability": "view",
      "type": "function"
    },
    {
      "constant": true,
      "inputs": [
        {
          "internalType": "address",
          "name": "account",
          "type": "address"
        }
      ],
      "name": "balanceOfStaged",
      "outputs": [
        {
          "internalType": "uint256",
          "name": "",
          "type": "uint256"
        }
      ],
      "payable": false,
      "stateMutability": "view",
      "type": "function"
    },
    {
      "constant": false,
      "inputs": [
        {
          "internalType": "address",
          "name": "account",
          "type": "address"
        },
        {
          "internalType": "uint256",
          "name": "amount",
          "type": "uint256"
        }
      ],
      "name": "burnFromAccountE",
      "outputs": [],
      "payable": false,
      "stateMutability": "nonpayable",
      "type": "function"
    },
    {
      "constant": false,
      "inputs": [
        {
          "internalType": "uint256",
          "name": "amount",
          "type": "uint256"
        }
      ],
      "name": "burnRedeemableE",
      "outputs": [],
      "payable": false,
      "stateMutability": "nonpayable",
      "type": "function"
    },
    {
      "constant": true,
      "inputs": [
        {
          "internalType": "uint256",
          "name": "epoch",
          "type": "uint256"
        }
      ],
      "name": "couponsExpiration",
      "outputs": [
        {
          "internalType": "uint256",
          "name": "",
          "type": "uint256"
        }
      ],
      "payable": false,
      "stateMutability": "view",
      "type": "function"
    },
    {
      "constant": false,
      "inputs": [
        {
          "internalType": "address",
          "name": "candidate",
          "type": "address"
        },
        {
          "internalType": "uint256",
          "name": "period",
          "type": "uint256"
        }
      ],
      "name": "createCandidateE",
      "outputs": [],
      "payable": false,
      "stateMutability": "nonpayable",
      "type": "function"
    },
    {
      "constant": true,
      "inputs": [],
      "name": "decimals",
      "outputs": [
        {
          "internalType": "uint8",
          "name": "",
          "type": "uint8"
        }
      ],
      "payable": false,
      "stateMutability": "view",
      "type": "function"
    },
    {
      "constant": false,
      "inputs": [
        {
          "internalType": "uint256",
          "name": "amount",
          "type": "uint256"
        }
      ],
      "name": "decreaseDebtE",
      "outputs": [],
      "payable": false,
      "stateMutability": "nonpayable",
      "type": "function"
    },
    {
      "constant": false,
      "inputs": [
        {
          "internalType": "address",
          "name": "owner",
          "type": "address"
        },
        {
          "internalType": "address",
          "name": "spender",
          "type": "address"
        },
        {
          "internalType": "uint256",
          "name": "amount",
          "type": "uint256"
        },
        {
          "internalType": "string",
          "name": "reason",
          "type": "string"
        }
      ],
      "name": "decrementAllowanceCouponsE",
      "outputs": [],
      "payable": false,
      "stateMutability": "nonpayable",
      "type": "function"
    },
    {
      "constant": false,
      "inputs": [
        {
          "internalType": "address",
          "name": "candidate",
          "type": "address"
        },
        {
          "internalType": "uint256",
          "name": "amount",
          "type": "uint256"
        },
        {
          "internalType": "string",
          "name": "reason",
          "type": "string"
        }
      ],
      "name": "decrementApproveForE",
      "outputs": [],
      "payable": false,
      "stateMutability": "nonpayable",
      "type": "function"
    },
    {
      "constant": false,
      "inputs": [
        {
          "internalType": "address",
          "name": "account",
          "type": "address"
        },
        {
          "internalType": "uint256",
          "name": "epoch",
          "type": "uint256"
        },
        {
          "internalType": "uint256",
          "name": "amount",
          "type": "uint256"
        },
        {
          "internalType": "string",
          "name": "reason",
          "type": "string"
        }
      ],
      "name": "decrementBalanceOfCouponsE",
      "outputs": [],
      "payable": false,
      "stateMutability": "nonpayable",
      "type": "function"
    },
    {
      "constant": false,
      "inputs": [
        {
          "internalType": "address",
          "name": "account",
          "type": "address"
        },
        {
          "internalType": "uint256",
          "name": "amount",
          "type": "uint256"
        },
        {
          "internalType": "string",
          "name": "reason",
          "type": "string"
        }
      ],
      "name": "decrementBalanceOfE",
      "outputs": [],
      "payable": false,
      "stateMutability": "nonpayable",
      "type": "function"
    },
    {
      "constant": false,
      "inputs": [
        {
          "internalType": "address",
          "name": "account",
          "type": "address"
        },
        {
          "internalType": "uint256",
          "name": "amount",
          "type": "uint256"
        },
        {
          "internalType": "string",
          "name": "reason",
          "type": "string"
        }
      ],
      "name": "decrementBalanceOfStagedE",
      "outputs": [],
      "payable": false,
      "stateMutability": "nonpayable",
      "type": "function"
    },
    {
      "constant": false,
      "inputs": [
        {
          "internalType": "address",
          "name": "candidate",
          "type": "address"
        },
        {
          "internalType": "uint256",
          "name": "amount",
          "type": "uint256"
        },
        {
          "internalType": "string",
          "name": "reason",
          "type": "string"
        }
      ],
      "name": "decrementRejectForE",
      "outputs": [],
      "payable": false,
      "stateMutability": "nonpayable",
      "type": "function"
    },
    {
      "constant": false,
      "inputs": [
        {
          "internalType": "uint256",
          "name": "amount",
          "type": "uint256"
        },
        {
          "internalType": "string",
          "name": "reason",
          "type": "string"
        }
      ],
      "name": "decrementTotalBondedE",
      "outputs": [],
      "payable": false,
      "stateMutability": "nonpayable",
      "type": "function"
    },
    {
      "constant": false,
      "inputs": [
        {
          "internalType": "uint256",
          "name": "amount",
          "type": "uint256"
        },
        {
          "internalType": "string",
          "name": "reason",
          "type": "string"
        }
      ],
      "name": "decrementTotalDebtE",
      "outputs": [],
      "payable": false,
      "stateMutability": "nonpayable",
      "type": "function"
    },
    {
      "constant": false,
      "inputs": [
        {
          "internalType": "uint256",
          "name": "amount",
          "type": "uint256"
        },
        {
          "internalType": "string",
          "name": "reason",
          "type": "string"
        }
      ],
      "name": "decrementTotalRedeemableE",
      "outputs": [],
      "payable": false,
      "stateMutability": "nonpayable",
      "type": "function"
    },
    {
      "constant": true,
      "inputs": [],
      "name": "dollar",
      "outputs": [
        {
          "internalType": "contract IDollar",
          "name": "",
          "type": "address"
        }
      ],
      "payable": false,
      "stateMutability": "view",
      "type": "function"
    },
    {
      "constant": false,
      "inputs": [
        {
          "internalType": "uint256",
          "name": "epoch",
          "type": "uint256"
        }
      ],
      "name": "eliminateOutstandingCouponsE",
      "outputs": [],
      "payable": false,
      "stateMutability": "nonpayable",
      "type": "function"
    },
    {
      "constant": true,
      "inputs": [],
      "name": "epoch",
      "outputs": [
        {
          "internalType": "uint256",
          "name": "",
          "type": "uint256"
        }
      ],
      "payable": false,
      "stateMutability": "view",
      "type": "function"
    },
    {
      "constant": true,
      "inputs": [],
      "name": "epochTime",
      "outputs": [
        {
          "internalType": "uint256",
          "name": "",
          "type": "uint256"
        }
      ],
      "payable": false,
      "stateMutability": "view",
      "type": "function"
    },
    {
      "constant": true,
      "inputs": [
        {
          "internalType": "uint256",
          "name": "epoch",
          "type": "uint256"
        }
      ],
      "name": "expiringCoupons",
      "outputs": [
        {
          "internalType": "uint256",
          "name": "",
          "type": "uint256"
        }
      ],
      "payable": false,
      "stateMutability": "view",
      "type": "function"
    },
    {
      "constant": true,
      "inputs": [
        {
          "internalType": "uint256",
          "name": "epoch",
          "type": "uint256"
        },
        {
          "internalType": "uint256",
          "name": "i",
          "type": "uint256"
        }
      ],
      "name": "expiringCouponsAtIndex",
      "outputs": [
        {
          "internalType": "uint256",
          "name": "",
          "type": "uint256"
        }
      ],
      "payable": false,
      "stateMutability": "view",
      "type": "function"
    },
    {
      "constant": true,
      "inputs": [
        {
          "internalType": "address",
          "name": "account",
          "type": "address"
        }
      ],
      "name": "fluidUntil",
      "outputs": [
        {
          "internalType": "uint256",
          "name": "",
          "type": "uint256"
        }
      ],
      "payable": false,
      "stateMutability": "view",
      "type": "function"
    },
    {
      "constant": true,
      "inputs": [
        {
          "internalType": "uint256",
          "name": "epoch",
          "type": "uint256"
        }
      ],
      "name": "getAvgExpiryFilled",
      "outputs": [
        {
          "internalType": "uint256",
          "name": "",
          "type": "uint256"
        }
      ],
      "payable": false,
      "stateMutability": "view",
      "type": "function"
    },
    {
      "constant": true,
      "inputs": [
        {
          "internalType": "uint256",
          "name": "epoch",
          "type": "uint256"
        }
      ],
      "name": "getAvgYieldFilled",
      "outputs": [
        {
          "internalType": "uint256",
          "name": "",
          "type": "uint256"
        }
      ],
      "payable": false,
      "stateMutability": "view",
      "type": "function"
    },
    {
      "constant": true,
      "inputs": [
        {
          "internalType": "uint256",
          "name": "epoch",
          "type": "uint256"
        }
      ],
      "name": "getBidToCover",
      "outputs": [
        {
          "internalType": "uint256",
          "name": "",
          "type": "uint256"
        }
      ],
      "payable": false,
      "stateMutability": "view",
      "type": "function"
    },
    {
      "constant": true,
      "inputs": [
        {
          "internalType": "uint256",
          "name": "epoch",
          "type": "uint256"
        }
      ],
      "name": "getMaxExpiryFilled",
      "outputs": [
        {
          "internalType": "uint256",
          "name": "",
          "type": "uint256"
        }
      ],
      "payable": false,
      "stateMutability": "view",
      "type": "function"
    },
    {
      "constant": true,
      "inputs": [
        {
          "internalType": "uint256",
          "name": "epoch",
          "type": "uint256"
        }
      ],
      "name": "getMaxYieldFilled",
      "outputs": [
        {
          "internalType": "uint256",
          "name": "",
          "type": "uint256"
        }
      ],
      "payable": false,
      "stateMutability": "view",
      "type": "function"
    },
    {
      "constant": true,
      "inputs": [
        {
          "internalType": "uint256",
          "name": "epoch",
          "type": "uint256"
        }
      ],
      "name": "getMinExpiryFilled",
      "outputs": [
        {
          "internalType": "uint256",
          "name": "",
          "type": "uint256"
        }
      ],
      "payable": false,
      "stateMutability": "view",
      "type": "function"
    },
    {
      "constant": true,
      "inputs": [
        {
          "internalType": "uint256",
          "name": "epoch",
          "type": "uint256"
        }
      ],
      "name": "getMinYieldFilled",
      "outputs": [
        {
          "internalType": "uint256",
          "name": "",
          "type": "uint256"
        }
      ],
      "payable": false,
      "stateMutability": "view",
      "type": "function"
    },
    {
      "constant": true,
      "inputs": [
        {
          "internalType": "uint256",
          "name": "epoch",
          "type": "uint256"
        }
      ],
      "name": "getTotalFilled",
      "outputs": [
        {
          "internalType": "uint256",
          "name": "",
          "type": "uint256"
        }
      ],
      "payable": false,
      "stateMutability": "view",
      "type": "function"
    },
    {
      "constant": true,
      "inputs": [],
      "name": "implementation",
      "outputs": [
        {
          "internalType": "address",
          "name": "impl",
          "type": "address"
        }
      ],
      "payable": false,
      "stateMutability": "view",
      "type": "function"
    },
    {
      "constant": false,
      "inputs": [
        {
          "internalType": "uint256",
          "name": "amount",
          "type": "uint256"
        }
      ],
      "name": "increaseDebtE",
      "outputs": [],
      "payable": false,
      "stateMutability": "nonpayable",
      "type": "function"
    },
    {
      "constant": false,
      "inputs": [
        {
          "internalType": "address",
          "name": "candidate",
          "type": "address"
        },
        {
          "internalType": "uint256",
          "name": "amount",
          "type": "uint256"
        }
      ],
      "name": "incrementApproveForE",
      "outputs": [],
      "payable": false,
      "stateMutability": "nonpayable",
      "type": "function"
    },
    {
      "constant": false,
      "inputs": [
        {
          "internalType": "address",
          "name": "account",
          "type": "address"
        },
        {
          "internalType": "uint256",
          "name": "epoch",
          "type": "uint256"
        },
        {
          "internalType": "uint256",
          "name": "amount",
          "type": "uint256"
        }
      ],
      "name": "incrementBalanceOfCouponsE",
      "outputs": [],
      "payable": false,
      "stateMutability": "nonpayable",
      "type": "function"
    },
    {
      "constant": false,
      "inputs": [
        {
          "internalType": "address",
          "name": "account",
          "type": "address"
        },
        {
          "internalType": "uint256",
          "name": "amount",
          "type": "uint256"
        }
      ],
      "name": "incrementBalanceOfE",
      "outputs": [],
      "payable": false,
      "stateMutability": "nonpayable",
      "type": "function"
    },
    {
      "constant": false,
      "inputs": [
        {
          "internalType": "address",
          "name": "account",
          "type": "address"
        },
        {
          "internalType": "uint256",
          "name": "amount",
          "type": "uint256"
        }
      ],
      "name": "incrementBalanceOfStagedE",
      "outputs": [],
      "payable": false,
      "stateMutability": "nonpayable",
      "type": "function"
    },
    {
      "constant": false,
      "inputs": [],
      "name": "incrementEpochE",
      "outputs": [],
      "payable": false,
      "stateMutability": "nonpayable",
      "type": "function"
    },
    {
      "constant": false,
      "inputs": [
        {
          "internalType": "address",
          "name": "candidate",
          "type": "address"
        },
        {
          "internalType": "uint256",
          "name": "amount",
          "type": "uint256"
        }
      ],
      "name": "incrementRejectForE",
      "outputs": [],
      "payable": false,
      "stateMutability": "nonpayable",
      "type": "function"
    },
    {
      "constant": false,
      "inputs": [
        {
          "internalType": "uint256",
          "name": "amount",
          "type": "uint256"
        }
      ],
      "name": "incrementTotalBondedE",
      "outputs": [],
      "payable": false,
      "stateMutability": "nonpayable",
      "type": "function"
    },
    {
      "constant": false,
      "inputs": [
        {
          "internalType": "uint256",
          "name": "amount",
          "type": "uint256"
        }
      ],
      "name": "incrementTotalDebtE",
      "outputs": [],
      "payable": false,
      "stateMutability": "nonpayable",
      "type": "function"
    },
    {
      "constant": false,
      "inputs": [
        {
          "internalType": "uint256",
          "name": "amount",
          "type": "uint256"
        }
      ],
      "name": "incrementTotalRedeemableE",
      "outputs": [],
      "payable": false,
      "stateMutability": "nonpayable",
      "type": "function"
    },
    {
      "constant": false,
      "inputs": [
        {
          "internalType": "uint256",
          "name": "epoch",
          "type": "uint256"
        },
        {
          "internalType": "uint256",
          "name": "expiration",
          "type": "uint256"
        }
      ],
      "name": "initializeCouponsExpirationE",
      "outputs": [],
      "payable": false,
      "stateMutability": "nonpayable",
      "type": "function"
    },
    {
      "constant": false,
      "inputs": [
        {
          "internalType": "address",
          "name": "candidate",
          "type": "address"
        }
      ],
      "name": "initializedE",
      "outputs": [],
      "payable": false,
      "stateMutability": "nonpayable",
      "type": "function"
    },
    {
      "constant": false,
      "inputs": [
        {
          "internalType": "uint256",
          "name": "epoch",
          "type": "uint256"
        }
      ],
      "name": "isCouponAuctionInitAtEpochE",
      "outputs": [
        {
          "internalType": "bool",
          "name": "",
          "type": "bool"
        }
      ],
      "payable": false,
      "stateMutability": "nonpayable",
      "type": "function"
    },
    {
      "constant": true,
      "inputs": [
        {
          "internalType": "address",
          "name": "candidate",
          "type": "address"
        }
      ],
      "name": "isInitialized",
      "outputs": [
        {
          "internalType": "bool",
          "name": "",
          "type": "bool"
        }
      ],
      "payable": false,
      "stateMutability": "view",
      "type": "function"
    },
    {
      "constant": true,
      "inputs": [
        {
          "internalType": "address",
          "name": "candidate",
          "type": "address"
        }
      ],
      "name": "isNominated",
      "outputs": [
        {
          "internalType": "bool",
          "name": "",
          "type": "bool"
        }
      ],
      "payable": false,
      "stateMutability": "view",
      "type": "function"
    },
    {
      "constant": true,
      "inputs": [
        {
          "internalType": "address",
          "name": "account",
          "type": "address"
        }
      ],
      "name": "lockedUntil",
      "outputs": [
        {
          "internalType": "uint256",
          "name": "",
          "type": "uint256"
        }
      ],
      "payable": false,
      "stateMutability": "view",
      "type": "function"
    },
    {
      "constant": false,
      "inputs": [
        {
          "internalType": "address",
          "name": "account",
          "type": "address"
        },
        {
          "internalType": "uint256",
          "name": "amount",
          "type": "uint256"
        }
      ],
      "name": "mintToAccountE",
      "outputs": [],
      "payable": false,
      "stateMutability": "nonpayable",
      "type": "function"
    },
    {
      "constant": false,
      "inputs": [
        {
          "internalType": "address",
          "name": "account",
          "type": "address"
        },
        {
          "internalType": "uint256",
          "name": "amount",
          "type": "uint256"
        }
      ],
      "name": "mintToE",
      "outputs": [],
      "payable": false,
      "stateMutability": "nonpayable",
      "type": "function"
    },
    {
      "constant": true,
      "inputs": [],
      "name": "name",
      "outputs": [
        {
          "internalType": "string",
          "name": "",
          "type": "string"
        }
      ],
      "payable": false,
      "stateMutability": "view",
      "type": "function"
    },
    {
      "constant": true,
      "inputs": [],
      "name": "oracle",
      "outputs": [
        {
          "internalType": "contract IOracle",
          "name": "",
          "type": "address"
        }
      ],
      "payable": false,
      "stateMutability": "view",
      "type": "function"
    },
    {
      "constant": true,
      "inputs": [
        {
          "internalType": "uint256",
          "name": "epoch",
          "type": "uint256"
        }
      ],
      "name": "outstandingCoupons",
      "outputs": [
        {
          "internalType": "uint256",
          "name": "",
          "type": "uint256"
        }
      ],
      "payable": false,
      "stateMutability": "view",
      "type": "function"
    },
    {
      "constant": true,
      "inputs": [
        {
          "internalType": "address",
          "name": "candidate",
          "type": "address"
        }
      ],
      "name": "periodFor",
      "outputs": [
        {
          "internalType": "uint256",
          "name": "",
          "type": "uint256"
        }
      ],
      "payable": false,
      "stateMutability": "view",
      "type": "function"
    },
    {
      "constant": false,
      "inputs": [
        {
          "internalType": "address",
          "name": "account",
          "type": "address"
        },
        {
          "internalType": "address",
          "name": "candidate",
          "type": "address"
        }
      ],
      "name": "placeLockE",
      "outputs": [],
      "payable": false,
      "stateMutability": "nonpayable",
      "type": "function"
    },
    {
      "constant": true,
      "inputs": [],
      "name": "pool",
      "outputs": [
        {
          "internalType": "address",
          "name": "",
          "type": "address"
        }
      ],
      "payable": false,
      "stateMutability": "view",
      "type": "function"
    },
    {
      "constant": false,
      "inputs": [
        {
          "internalType": "address",
          "name": "account",
          "type": "address"
        },
        {
          "internalType": "address",
          "name": "candidate",
          "type": "address"
        },
        {
          "internalType": "enum Candidate.Vote",
          "name": "vote",
          "type": "uint8"
        }
      ],
      "name": "recordVoteE",
      "outputs": [],
      "payable": false,
      "stateMutability": "nonpayable",
      "type": "function"
    },
    {
      "constant": true,
      "inputs": [
        {
          "internalType": "address",
          "name": "account",
          "type": "address"
        },
        {
          "internalType": "address",
          "name": "candidate",
          "type": "address"
        }
      ],
      "name": "recordedVote",
      "outputs": [
        {
          "internalType": "enum Candidate.Vote",
          "name": "",
          "type": "uint8"
        }
      ],
      "payable": false,
      "stateMutability": "view",
      "type": "function"
    },
    {
      "constant": false,
      "inputs": [
        {
          "internalType": "address",
          "name": "account",
          "type": "address"
        },
        {
          "internalType": "uint256",
          "name": "amount",
          "type": "uint256"
        }
      ],
      "name": "redeemToAccountE",
      "outputs": [],
      "payable": false,
      "stateMutability": "nonpayable",
      "type": "function"
    },
    {
      "constant": true,
      "inputs": [
        {
          "internalType": "address",
          "name": "candidate",
          "type": "address"
        }
      ],
      "name": "rejectFor",
      "outputs": [
        {
          "internalType": "uint256",
          "name": "",
          "type": "uint256"
        }
      ],
      "payable": false,
      "stateMutability": "view",
      "type": "function"
    },
    {
      "constant": false,
      "inputs": [
        {
          "internalType": "uint256",
          "name": "percent",
          "type": "uint256"
        }
      ],
      "name": "resetDebtE",
      "outputs": [],
      "payable": false,
      "stateMutability": "nonpayable",
      "type": "function"
    },
    {
      "constant": false,
      "inputs": [
        {
          "internalType": "uint256",
          "name": "timestamp",
          "type": "uint256"
        }
      ],
      "name": "setBlockTimestamp",
      "outputs": [],
      "payable": false,
      "stateMutability": "nonpayable",
      "type": "function"
    },
    {
      "constant": false,
      "inputs": [
        {
          "internalType": "uint256",
          "name": "start",
          "type": "uint256"
        },
        {
          "internalType": "uint256",
          "name": "period",
          "type": "uint256"
        }
      ],
      "name": "setEpochParamsE",
      "outputs": [],
      "payable": false,
      "stateMutability": "nonpayable",
      "type": "function"
    },
    {
      "constant": false,
      "inputs": [],
      "name": "snapshotTotalBondedE",
      "outputs": [],
      "payable": false,
      "stateMutability": "nonpayable",
      "type": "function"
    },
    {
      "constant": true,
      "inputs": [
        {
          "internalType": "address",
          "name": "candidate",
          "type": "address"
        }
      ],
      "name": "startFor",
      "outputs": [
        {
          "internalType": "uint256",
          "name": "",
          "type": "uint256"
        }
      ],
      "payable": false,
      "stateMutability": "view",
      "type": "function"
    },
    {
      "constant": true,
      "inputs": [
        {
          "internalType": "address",
          "name": "account",
          "type": "address"
        }
      ],
      "name": "statusOf",
      "outputs": [
        {
          "internalType": "enum Account.Status",
          "name": "",
          "type": "uint8"
        }
      ],
      "payable": false,
      "stateMutability": "view",
      "type": "function"
    },
    {
      "constant": true,
      "inputs": [],
      "name": "symbol",
      "outputs": [
        {
          "internalType": "string",
          "name": "",
          "type": "string"
        }
      ],
      "payable": false,
      "stateMutability": "view",
      "type": "function"
    },
    {
      "constant": true,
      "inputs": [],
      "name": "totalBonded",
      "outputs": [
        {
          "internalType": "uint256",
          "name": "",
          "type": "uint256"
        }
      ],
      "payable": false,
      "stateMutability": "view",
      "type": "function"
    },
    {
      "constant": true,
      "inputs": [
        {
          "internalType": "uint256",
          "name": "epoch",
          "type": "uint256"
        }
      ],
      "name": "totalBondedAt",
      "outputs": [
        {
          "internalType": "uint256",
          "name": "",
          "type": "uint256"
        }
      ],
      "payable": false,
      "stateMutability": "view",
      "type": "function"
    },
    {
      "constant": true,
      "inputs": [],
      "name": "totalCoupons",
      "outputs": [
        {
          "internalType": "uint256",
          "name": "",
          "type": "uint256"
        }
      ],
      "payable": false,
      "stateMutability": "view",
      "type": "function"
    },
    {
      "constant": true,
      "inputs": [],
      "name": "totalDebt",
      "outputs": [
        {
          "internalType": "uint256",
          "name": "",
          "type": "uint256"
        }
      ],
      "payable": false,
      "stateMutability": "view",
      "type": "function"
    },
    {
      "constant": true,
      "inputs": [],
      "name": "totalNet",
      "outputs": [
        {
          "internalType": "uint256",
          "name": "",
          "type": "uint256"
        }
      ],
      "payable": false,
      "stateMutability": "view",
      "type": "function"
    },
    {
      "constant": true,
      "inputs": [],
      "name": "totalRedeemable",
      "outputs": [
        {
          "internalType": "uint256",
          "name": "",
          "type": "uint256"
        }
      ],
      "payable": false,
      "stateMutability": "view",
      "type": "function"
    },
    {
      "constant": true,
      "inputs": [],
      "name": "totalStaged",
      "outputs": [
        {
          "internalType": "uint256",
          "name": "",
          "type": "uint256"
        }
      ],
      "payable": false,
      "stateMutability": "view",
      "type": "function"
    },
    {
      "constant": true,
      "inputs": [],
      "name": "totalSupply",
      "outputs": [
        {
          "internalType": "uint256",
          "name": "",
          "type": "uint256"
        }
      ],
      "payable": false,
      "stateMutability": "view",
      "type": "function"
    },
    {
      "constant": false,
      "inputs": [
        {
          "internalType": "address",
          "name": "recipient",
          "type": "address"
        },
        {
          "internalType": "uint256",
          "name": "amount",
          "type": "uint256"
        }
      ],
      "name": "transfer",
      "outputs": [
        {
          "internalType": "bool",
          "name": "",
          "type": "bool"
        }
      ],
      "payable": false,
      "stateMutability": "nonpayable",
      "type": "function"
    },
    {
      "constant": false,
      "inputs": [
        {
          "internalType": "address",
          "name": "sender",
          "type": "address"
        },
        {
          "internalType": "address",
          "name": "recipient",
          "type": "address"
        },
        {
          "internalType": "uint256",
          "name": "amount",
          "type": "uint256"
        }
      ],
      "name": "transferFrom",
      "outputs": [
        {
          "internalType": "bool",
          "name": "",
          "type": "bool"
        }
      ],
      "payable": false,
      "stateMutability": "nonpayable",
      "type": "function"
    },
    {
      "constant": false,
      "inputs": [
        {
          "internalType": "address",
          "name": "account",
          "type": "address"
        }
      ],
      "name": "unfreezeE",
      "outputs": [],
      "payable": false,
      "stateMutability": "nonpayable",
      "type": "function"
    },
    {
      "constant": false,
      "inputs": [
        {
          "internalType": "address",
          "name": "owner",
          "type": "address"
        },
        {
          "internalType": "address",
          "name": "spender",
          "type": "address"
        },
        {
          "internalType": "uint256",
          "name": "amount",
          "type": "uint256"
        }
      ],
      "name": "updateAllowanceCouponsE",
      "outputs": [],
      "payable": false,
      "stateMutability": "nonpayable",
      "type": "function"
    },
    {
      "constant": true,
      "inputs": [
        {
          "internalType": "address",
          "name": "candidate",
          "type": "address"
        }
      ],
      "name": "votesFor",
      "outputs": [
        {
          "internalType": "uint256",
          "name": "",
          "type": "uint256"
        }
      ],
      "payable": false,
      "stateMutability": "view",
      "type": "function"
    },
    {
      "constant": false,
      "inputs": [],
      "name": "stepE",
      "outputs": [],
      "payable": false,
      "stateMutability": "nonpayable",
      "type": "function"
    },
    {
      "constant": true,
      "inputs": [
        {
          "internalType": "uint256",
          "name": "epoch",
          "type": "uint256"
        }
      ],
      "name": "bootstrappingAt",
      "outputs": [
        {
          "internalType": "bool",
          "name": "",
          "type": "bool"
        }
      ],
      "payable": false,
      "stateMutability": "view",
      "type": "function"
    },
    {
      "constant": false,
      "inputs": [],
      "name": "settleCouponAuctionE",
      "outputs": [],
      "payable": false,
      "stateMutability": "nonpayable",
      "type": "function"
    },
    {
      "constant": false,
      "inputs": [
        {
          "internalType": "uint256",
          "name": "epoch",
          "type": "uint256"
        }
      ],
      "name": "cancelCouponAuctionAtEpochE",
      "outputs": [],
      "payable": false,
      "stateMutability": "nonpayable",
      "type": "function"
    },
    {
      "constant": false,
      "inputs": [
        {
          "internalType": "uint256",
          "name": "epoch",
          "type": "uint256"
        }
      ],
      "name": "finishCouponAuctionAtEpochE",
      "outputs": [],
      "payable": false,
      "stateMutability": "nonpayable",
      "type": "function"
    },
    {
      "constant": false,
      "inputs": [],
      "name": "initCouponAuctionE",
      "outputs": [],
      "payable": false,
      "stateMutability": "nonpayable",
      "type": "function"
    },
    {
      "constant": false,
      "inputs": [],
      "name": "getCouponAuctionBidsE",
      "outputs": [
        {
          "internalType": "uint256",
          "name": "",
          "type": "uint256"
        }
      ],
      "payable": false,
      "stateMutability": "nonpayable",
      "type": "function"
    },
    {
      "constant": false,
      "inputs": [],
      "name": "getCouponAuctionMinExpiryE",
      "outputs": [
        {
          "internalType": "uint256",
          "name": "",
          "type": "uint256"
        }
      ],
      "payable": false,
      "stateMutability": "nonpayable",
      "type": "function"
    },
    {
      "constant": false,
      "inputs": [],
      "name": "getCouponAuctionMaxExpiryE",
      "outputs": [
        {
          "internalType": "uint256",
          "name": "",
          "type": "uint256"
        }
      ],
      "payable": false,
      "stateMutability": "nonpayable",
      "type": "function"
    },
    {
      "constant": false,
      "inputs": [],
      "name": "getCouponAuctionMinYieldE",
      "outputs": [
        {
          "internalType": "uint256",
          "name": "",
          "type": "uint256"
        }
      ],
      "payable": false,
      "stateMutability": "nonpayable",
      "type": "function"
    },
    {
      "constant": false,
      "inputs": [],
      "name": "getCouponAuctionMaxYieldE",
      "outputs": [
        {
          "internalType": "uint256",
          "name": "",
          "type": "uint256"
        }
      ],
      "payable": false,
      "stateMutability": "nonpayable",
      "type": "function"
    },
    {
      "constant": false,
      "inputs": [],
      "name": "getCouponAuctionMinDollarAmountE",
      "outputs": [
        {
          "internalType": "uint256",
          "name": "",
          "type": "uint256"
        }
      ],
      "payable": false,
      "stateMutability": "nonpayable",
      "type": "function"
    },
    {
      "constant": false,
      "inputs": [],
      "name": "getCouponAuctionMaxDollarAmountE",
      "outputs": [
        {
          "internalType": "uint256",
          "name": "",
          "type": "uint256"
        }
      ],
      "payable": false,
      "stateMutability": "nonpayable",
      "type": "function"
    },
    {
      "constant": false,
      "inputs": [
        {
          "internalType": "uint256",
          "name": "couponEpochExpiry",
          "type": "uint256"
        },
        {
          "internalType": "uint256",
          "name": "dollarAmount",
          "type": "uint256"
        },
        {
          "internalType": "uint256",
          "name": "maxCouponAmount",
          "type": "uint256"
        }
      ],
      "name": "placeCouponAuctionBid",
      "outputs": [
        {
          "internalType": "bool",
          "name": "",
          "type": "bool"
        }
      ],
      "payable": false,
      "stateMutability": "nonpayable",
      "type": "function"
    }
  ],
  "bytecode": "0x6080604052600060115560006012556000601355600060145560001960155562000033620000f460201b62003a0f1760201c565b516016556040805160208101909152600019908190526017553480156200005957600080fd5b5060405162006c8538038062006c858339810160408190526200007c9162000145565b42600f556040518190620000909062000111565b604051809103906000f080158015620000ad573d6000803e3d6000fd5b50600980546001600160a01b03199081166001600160a01b0393841617909155600b8054821693831693909317909255600a805490921693169290921790915550620001b0565b620000fe6200011f565b5060408051602081019091526000815290565b611c06806200507f83390190565b6040518060200160405280600081525090565b80516200013f8162000196565b92915050565b600080604083850312156200015957600080fd5b600062000167858562000132565b92505060206200017a8582860162000132565b9150509250929050565b60006001600160a01b0382166200013f565b620001a18162000184565b8114620001ad57600080fd5b50565b614ebf80620001c06000396000f3fe608060405234801561001057600080fd5b50600436106105b75760003560e01c8063825ad60711610300578063b6506955116101a8578063cf023779116100f4578063e0abdf66116100ad578063f35adf7e11610087578063f35adf7e14610c1f578063f7a3181814610c27578063fc7b9c1814610c3a578063ffbe3b7314610c42576105b7565b8063e0abdf6614610be6578063eeaca09b14610bf9578063f1b7cf4914610c0c576105b7565b8063cf02377914610b84578063d53c6f5f14610b8c578063d60b347f14610b9f578063d6d8816d14610bb2578063d83d3ed514610bc5578063dd62ed3e14610bd8576105b7565b8063c34eee6511610161578063c72e4e321161013b578063c72e4e3214610b38578063c9aff70c14610b4b578063cb0fbc7114610b5e578063cc8d823c14610b71576105b7565b8063c34eee6514610b0a578063c45a3e0a14610b1d578063c701277714610b30576105b7565b8063b650695514610ab9578063bad9206c14610ac1578063bc7513e214610ac9578063beee0a5a14610adc578063c1410c0214610ae4578063c2aeb5fe14610af7576105b7565b80639f6e1b2611610267578063a9059cbb11610220578063ae5c2381116101fa578063ae5c238114610a6d578063b11ee0e314610a80578063b16144a314610a93578063b32a2f9014610aa6576105b7565b8063a9059cbb146105ef578063a9b3cf1514610a47578063adbff2be14610a5a576105b7565b80639f6e1b26146109eb578063a00e14d1146109fe578063a50cd8e714610a11578063a6c409f114610a24578063a6f37b5314610a2c578063a81de34014610a3f576105b7565b806395d89b41116102b957806395d89b411461098f57806397a5d5b5146109975780639a649edc146109aa5780639b82b49b146109b25780639bc289f1146109c55780639be46493146109d8576105b7565b8063825ad607146109335780638413e52a1461094657806386cf9f14146109595780638969cb111461096c5780638de2e57314610974578063900cf0cf14610987576105b7565b80633fd4973c116104635780635dbf800a116103ca57806371c511eb1161038357806379066f2c1161035d57806379066f2c146108f25780637cb95a32146109055780637d8bb869146109185780637dc0d1d01461092b576105b7565b806371c511eb146108c457806372924d2a146108cc57806375d5024b146108df576105b7565b80635dbf800a146108525780635f14fec81461086557806364668022146108785780636a39e3281461088b5780636b862d661461089e57806370a08231146108b1576105b7565b80635053e4611161041c5780635053e461146107ff57806351adeb571461080757806351bf21d81461081c578063520acb761461082f57806359841299146108425780635c60da1b1461084a576105b7565b80633fd4973c146107ae578063416a23cc146107c157806343873526146107c957806344d96e95146107dc57806349d360bc146107e45780634c736099146107ec576105b7565b806320f6bc9011610522578063313ce567116104db5780633a3e6c81116104b55780633a3e6c81146107555780633dc905c7146107685780633f7bcaf31461077b5780633fbba9a61461078e576105b7565b8063313ce5671461071a578063323474221461072f578063353a420c14610742576105b7565b806320f6bc90146106a857806323b872dd146106bb57806324772c04146106ce578063259f7adf146106e1578063277805a9146106f45780632d7f23b314610707576105b7565b806315e14bf61161057457806315e14bf61461064a57806316f0115b1461065d57806318160ddd146106725780631a08e22a1461067a5780631edbcf6c1461068d5780631fac973214610695576105b7565b8063025812f6146105bc57806306fdde03146105da578063095ea7b3146105ef5780630dc6d3a31461060f57806310e95b6c146106245780631550ec2414610637575b600080fd5b6105c4610c55565b6040516105d19190614cd5565b60405180910390f35b6105e2610c65565b6040516105d19190614ca4565b6106026105fd366004614888565b610c9c565b6040516105d19190614c7a565b61062261061d36600461480a565b610ca5565b005b6105c46106323660046149d5565b610cee565b6106026106453660046149d5565b610d06565b6105c4610658366004614722565b610d1b565b610665610d39565b6040516105d19190614c29565b6105c4610d48565b610622610688366004614a67565b610d4e565b6105c4610d5c565b6106226106a33660046149d5565b610d62565b6106226106b6366004614888565b610d6e565b6106026106c93660046147c7565b610d78565b6106026106dc366004614a86565b610d82565b6106226106ef3660046149d5565b610eeb565b610622610702366004614888565b610ef4565b6105c46107153660046149d5565b610f80565b610722610f95565b6040516105d19190614d26565b61062261073d366004614a11565b610f9a565b6105c4610750366004614722565b610fda565b610602610763366004614722565b610ff8565b6105c46107763660046149d5565b611015565b6106226107893660046147c7565b61102a565b6107a161079c366004614740565b611035565b6040516105d19190614c96565b6106226107bc3660046148b8565b611068565b6106226110af565b6106226107d73660046149d5565b6110b9565b6105c46110c2565b6105c46110c8565b6105c46107fa366004614a67565b6110d2565b6105c4611102565b61080f611125565b6040516105d19190614c88565b6105c461082a366004614722565b611134565b6105c461083d3660046149d5565b611152565b6105c4611167565b610665611171565b6106226108603660046149d5565b611196565b610622610873366004614888565b61119f565b6105c4610886366004614722565b6111a9565b6105c46108993660046149d5565b6111c7565b6106226108ac366004614920565b6111dc565b6105c46108bf366004614722565b6111e7565b610622611205565b6106226108da366004614a11565b61120d565b6106026108ed3660046149d5565b61124d565b6106226109003660046149d5565b611254565b6106226109133660046148b8565b61125d565b6105c46109263660046149d5565b61129e565b61080f6112b3565b6105c4610941366004614722565b6112c2565b61062261095436600461477a565b61130e565b6105c4610967366004614722565b611319565b6105c4611334565b6106226109823660046149d5565b61133e565b6105c4611347565b6105e261134d565b6107a16109a5366004614722565b61136b565b6105c46113d0565b6106226109c0366004614a11565b6113d6565b6105c46109d3366004614722565b611416565b6106226109e6366004614722565b611434565b6105c46109f9366004614740565b61143d565b610622610a0c366004614a67565b61146c565b6105c4610a1f366004614722565b611477565b6105c461148e565b610622610a3a366004614722565b61151f565b6105c4611528565b610622610a553660046149d5565b611532565b610622610a683660046148b8565b61153b565b610622610a7b366004614888565b61157c565b610622610a8e366004614888565b611586565b610622610aa13660046149d5565b611590565b610622610ab43660046148b8565b6115a3565b6105c46115e4565b6106226115ee565b6105c4610ad7366004614888565b6115f6565b61062261163a565b610622610af2366004614740565b611642565b610622610b05366004614952565b61164c565b6105c4610b183660046149d5565b61168e565b610622610b2b366004614888565b6116a3565b6105c46116ad565b610622610b463660046149d5565b6116b7565b6105c4610b593660046149d5565b6116c0565b6105c4610b6c3660046149d5565b6116d5565b610622610b7f366004614888565b6116ea565b6105c46116f4565b6105c4610b9a3660046149d5565b6116fa565b610602610bad366004614722565b611710565b610622610bc03660046149d5565b611731565b610622610bd3366004614888565b61173a565b6105c46105fd366004614740565b610622610bf43660046149d5565b611744565b6105c4610c073660046149d5565b611749565b6105c4610c1a366004614722565b61175e565b610622611779565b610622610c35366004614888565b611781565b6105c461178b565b6105c4610c503660046149d5565b611791565b6000610c5f6117a3565b90505b90565b60408051808201909152601881527f44796e616d69632053657420446f6c6c6172205374616b650000000000000000602082015290565b60005b92915050565b610ce785858585858080601f0160208091040260200160405190810160405280939291908181526020018383808284376000920191909152506117ca92505050565b5050505050565b6000818152600d60205260409020600201545b919050565b6000610d118261183b565b5460ff1692915050565b6001600160a01b03166000908152600e602052604090206001015490565b600b546001600160a01b031690565b60035490565b610d58828261184f565b5050565b60065490565b610d6b81611881565b50565b610d5882826118c8565b60005b9392505050565b6000610dc2600085116c26b7b1b5a932b3bab630ba37b960991b7f4d7573742068617665206e6f6e2d7a65726f2065787069727900000000000000611970565b610e00600084116c26b7b1b5a932b3bab630ba37b960991b7f4d75737420626964206e6f6e2d7a65726f20616d6f756e740000000000000000611970565b610e3e600083116c26b7b1b5a932b3bab630ba37b960991b7f4d75737420626964206f6e206e6f6e2d7a65726f20616d6f756e740000000000611970565b610e7583610e4a61178b565b10156c26b7b1b5a932b3bab630ba37b960991b6e139bdd08195b9bdd59da081919589d608a1b611970565b6000610e8f85610e83611347565b9063ffffffff6119ce16565b9050610ea9610ea4848663ffffffff6119f316565b611a35565b610eb284611acb565b610ebb81611b61565b610ec733828686611bf7565b610ed8610ed2611c65565b33611c8c565b610ee0611ce6565b506001949350505050565b610d6b81611d0e565b610efc611125565b6001600160a01b03166340c10f1983836040518363ffffffff1660e01b8152600401610f29929190614c5f565b602060405180830381600087803b158015610f4357600080fd5b505af1158015610f57573d6000803e3d6000fd5b505050506040513d601f19601f82011682018060405250610f7b9190810190614987565b505050565b6000908152600d60205260409020600a015490565b601290565b610f7b8383838080601f016020809104026020016040519081016040528093929190818152602001838380828437600092019190915250611d2792505050565b6001600160a01b03166000908152600e602052604090206003015490565b6001600160a01b03166000908152600e6020526040902054151590565b6000908152600d60205260409020600c015490565b610f7b838383611d42565b6001600160a01b038082166000908152600e60209081526040808320938616835260049093019052205460ff1692915050565b6110a9848484848080601f016020809104026020016040519081016040528093929190818152602001838380828437600092019190915250611d7292505050565b50505050565b6110b7611dc3565b565b610d6b81611ed6565b60045490565b6000610c5f611eea565b6000828152600d602052604081206003018054839081106110ef57fe5b9060005260206000200154905092915050565b600061110c614514565b611114611f11565b905061111f81611f40565b91505090565b6009546001600160a01b031690565b6001600160a01b03166000908152600c602052604090206004015490565b6000908152600d60205260409020600e015490565b6000610c5f611f62565b7f360894a13ba1a3210667c828492db98dca3e2076cc3735a920a3ca505d382bbc5490565b610d6b81611f89565b610d588282612010565b6001600160a01b03166000908152600e602052604090206002015490565b6000908152600d602052604090206003015490565b610f7b838383612121565b6001600160a01b03166000908152600c602052604090206001015490565b6110b76121c8565b610f7b8383838080601f0160208091040260200160405190810160405280939291908181526020018383808284376000920191909152506121ef92505050565b6005101590565b610d6b8161220a565b6110a9848484848080601f01602080910402602001604051908101604052809392919081815260200183838082843760009201919091525061222c92505050565b6000908152600d602052604090206010015490565b600a546001600160a01b031690565b6000806112cd610d48565b9050806112de576000915050610d01565b610d7b816113026112ee866111e7565b6112f66110c2565b9063ffffffff61227d16565b9063ffffffff6119f316565b610f7b8383836122b7565b6001600160a01b03166000908152600c602052604090205490565b6000610c5f612301565b610d6b81612328565b60025490565b6040805180820190915260048152634453445360e01b602082015290565b6000611375611347565b6001600160a01b0383166000908152600c6020526040902060050154111561139f57506002610d01565b6001600160a01b0382166000908152600c60205260409020600401546113c3611347565b1015610c9c576001610c9f565b60085490565b610f7b8383838080601f01602080910402602001604051908101604052809392919081815260200183838082843760009201919091525061234192505050565b6001600160a01b03166000908152600c602052604090206005015490565b610d6b8161235c565b6001600160a01b039182166000908152600c602090815260408083209390941682526003909201909152205490565b600091909155600155565b6000610c9f61148583610fda565b610e83846111a9565b6000610c5f61149b61178b565b6114a3611125565b6001600160a01b03166318160ddd6040518163ffffffff1660e01b815260040160206040518083038186803b1580156114db57600080fd5b505afa1580156114ef573d6000803e3d6000fd5b505050506040513d601f19601f8201168201806040525061151391908101906149f3565b9063ffffffff61238e16565b610d6b816123d0565b6000610c5f611c65565b610d6b816123f7565b6110a9848484848080601f01602080910402602001604051908101604052809392919081815260200183838082843760009201919091525061243a92505050565b610d5882826124e5565b610d58828261258d565b610d6b61159e8260646125e9565b612618565b6110a9848484848080601f0160208091040260200160405190810160405280939291908181526020018383808284376000920191909152506126dd92505050565b6000610c5f61273c565b6110b7612763565b6000611601826116c0565b61160d57506000610c9f565b506001600160a01b03919091166000908152600c6020908152604080832093835260029093019052205490565b610d6b6128ce565b610d5882826130b5565b610ce785858585858080601f01602080910402602001604051908101604052809392919081815260200183838082843760009201919091525061311592505050565b6000908152600d60205260409020600f015490565b610d5882826131c0565b6000610c5f61326a565b610d6b81613291565b6000908152600d602052604090206001015490565b6000908152600d602052604090206011015490565b610d5882826132b1565b60055490565b6000908152600d60208190526040909120015490565b6001600160a01b03166000908152600e602052604090206005015460ff1690565b610d6b81613300565b610d588282613319565b600f55565b6000908152600d60205260409020600b015490565b6001600160a01b03166000908152600e602052604090205490565b6110b7613345565b610d58828261335e565b60075490565b6000908152600d602052604090205490565b6000600d816117b0611347565b815260200190815260200160002060040160030154905090565b6001600160a01b038085166000908152600c60209081526040808320938716835260039093019052205461180590838363ffffffff6133ad16565b6001600160a01b039485166000908152600c60209081526040808320969097168252600390950190945293909220929092555050565b6000908152600d6020526040902060040190565b6000828152600d6020908152604080832060020184905592825291812060030180546001810182559082529190200155565b6118c0816040518060400160405280601c81526020017f436f6d7074726f6c6c65723a206e6f7420656e6f7567682064656274000000008152506121ef565b610d6b6133d9565b6118d0611125565b6001600160a01b03166340c10f1983836040518363ffffffff1660e01b81526004016118fd929190614c5f565b602060405180830381600087803b15801561191757600080fd5b505af115801561192b573d6000803e3d6000fd5b505050506040513d601f19601f8201168201806040525061194f9190810190614987565b5061195b6108ed611347565b6119685761196881611ed6565b610d586133d9565b82610f7b5761197e826134ac565b6101d160f51b61198d836134ac565b60405160200161199f93929190614bf8565b60408051601f198184030181529082905262461bcd60e51b82526119c591600401614ca4565b60405180910390fd5b600082820183811015610d7b5760405162461bcd60e51b81526004016119c590614cb5565b6000610d7b83836040518060400160405280601a81526020017f536166654d6174683a206469766973696f6e206279207a65726f00000000000081525061352c565b600d6000611a41611347565b815260200190815260200160002060040160040154811115611a7f5780600d6000611a6a611347565b81526020810191909152604001600020600801555b80600d6000611a8c611347565b8152602001908152602001600020600401600301541115610d6b5780600d6000611ab4611347565b815260208101919091526040016000206007015550565b600d6000611ad7611347565b8152602001908152602001600020600401600f0154811115611b155780600d6000611b00611347565b81526020810191909152604001600020601301555b600d6000611b21611347565b8152602001908152602001600020600401600e0154811015610d6b5780600d6000611b4a611347565b815260208101919091526040016000206012015550565b600d6000611b6d611347565b815260200190815260200160002060040160020154811115611bab5780600d6000611b96611347565b81526020810191909152604001600020600601555b600d6000611bb7611347565b815260200190815260200160002060040160010154811015610d6b5780600d6000611be0611347565b815260208101919091526040016000206005015550565b6000600d81611c04611347565b8152602080820192909252604090810160009081206001600160a01b03989098168082526016909801909252902060048101949094555060018301919091556002820155805462010000600160b01b03191662010000909202919091179055565b6000600d81611c72611347565b815260200190815260200160002060040160050154905090565b80600d6000611c99611347565b8152602001908152602001600020600401601101600084815260200190815260200160002060006101000a8154816001600160a01b0302191690836001600160a01b031602179055505050565b600d6000611cf2611347565b8152602081019190915260400160002060090180546001019055565b600454611d21908263ffffffff6119ce16565b60045550565b600654611d3b90838363ffffffff6133ad16565b6006555050565b6001600160a01b039283166000908152600c60209081526040808320949095168252600390930190925291902055565b6001600160a01b0383166000908152600e6020526040902060030154611d9f90838363ffffffff6133ad16565b6001600160a01b039093166000908152600e60205260409020600301929092555050565b611dcb614535565b611dd3613563565b90506000611dea6001611de4611347565b0361183b565b9050611e04611df761362b565b839063ffffffff61364d16565b15611e4357611e11613663565b805460ff16151560011415611e3357611e336001611e2d611347565b03613291565b611e3c8261366a565b50506110b7565b611e5b611e4e61362b565b839063ffffffff61375916565b15611ea157805460ff16151560011415611e90576000611e796128ce565b9050611e8e6001611e88611347565b0361220a565b505b611e98612763565b611e3c8261376d565b611ea9611347565b6040517fff7db5a0dc69b02c191ba632db46961b7d0daa1bd30709ddba9b80ad0a15d2c090600090a25050565b611edf81612328565b6118c061159e6137f9565b6000600d81611ef7611347565b815260200190815260200160002060040160020154905090565b611f19614514565b604051806060016040528060008152602001635fbef0008152602001611c20815250905090565b6000610c9f8260000151610e838460400151611302866020015161151361381b565b6000600d81611f6f611347565b8152602001908152602001600020600401600f0154905090565b611f91611125565b6001600160a01b03166342966c68826040518263ffffffff1660e01b8152600401611fbc9190614cd5565b600060405180830381600087803b158015611fd657600080fd5b505af1158015611fea573d6000803e3d6000fd5b505050506118c0816040518060600160405280602a8152602001614e53602a9139611d27565b612018611125565b6001600160a01b03166323b872dd8330846040518463ffffffff1660e01b815260040161204793929190614c37565b602060405180830381600087803b15801561206157600080fd5b505af1158015612075573d6000803e3d6000fd5b505050506040513d601f19601f820116820180604052506120999190810190614987565b506120a2611125565b6001600160a01b03166342966c68826040518263ffffffff1660e01b81526004016120cd9190614cd5565b600060405180830381600087803b1580156120e757600080fd5b505af11580156120fb573d6000803e3d6000fd5b5050505061196881604051806060016040528060288152602001614e2b602891396121ef565b6001600160a01b0383166000908152600c60209081526040808320858452600201909152902054612158908263ffffffff6119ce16565b6001600160a01b0384166000908152600c60209081526040808320868452600201825280832093909355600d9052206001015461219b908263ffffffff6119ce16565b6000838152600d60205260409020600101556008546121c0908263ffffffff6119ce16565b600855505050565b6121d0610d48565b600d60006121dc611347565b8152602081019190915260400160002055565b60075461220390838363ffffffff6133ad16565b6007555050565b6000908152600d60205260409020600401805462ff0000191662010000179055565b6001600160a01b0383166000908152600e602052604090206002015461225990838363ffffffff6133ad16565b6001600160a01b039093166000908152600e60205260409020600201929092555050565b60008261228c57506000610c9f565b8282028284828161229957fe5b0414610d7b5760405162461bcd60e51b81526004016119c590614cc5565b6001600160a01b038083166000908152600e6020908152604080832093871683526004909301905220805482919060ff191660018360028111156122f757fe5b0217905550505050565b6000600d8161230e611347565b8152602001908152602001600020600401600e0154905090565b60075461233b908263ffffffff6119ce16565b60075550565b60045461235590838363ffffffff6133ad16565b6004555050565b61236f612367613821565b610e83611347565b6001600160a01b039091166000908152600c6020526040902060040155565b6000610d7b83836040518060400160405280601e81526020017f536166654d6174683a207375627472616374696f6e206f766572666c6f7700008152506133ad565b6001600160a01b03166000908152600e60205260409020600501805460ff19166001179055565b6000612402826116c0565b90508061240f5750610d6b565b600854612422908263ffffffff61238e16565b600855506000908152600d6020526040812060010155565b6001600160a01b0383166000908152600c602052604090206001015461246790838363ffffffff6133ad16565b6001600160a01b0384166000908152600c602052604090206001015560035461249790838363ffffffff6133ad16565b6003556040516000906001600160a01b038516907fddf252ad1be2c89b69c2b068fc378daa952ba7f163c4a11628f55a4df523b3ef906124d8908690614cd5565b60405180910390a3505050565b6001600160a01b0382166000908152600c6020526040902060010154612511908263ffffffff6119ce16565b6001600160a01b0383166000908152600c6020526040902060010155600354612540908263ffffffff6119ce16565b6003556040516001600160a01b038316906000907fddf252ad1be2c89b69c2b068fc378daa952ba7f163c4a11628f55a4df523b3ef90612581908590614cd5565b60405180910390a35050565b6001600160a01b0382166000908152600c60205260409020546125b6908263ffffffff6119ce16565b6001600160a01b0383166000908152600c60205260409020556005546125e2908263ffffffff6119ce16565b6005555050565b6125f1614535565b604051806020016040528061260f85670de0b6b3a764000086613826565b90529392505050565b60006126aa6126a5612628611125565b6001600160a01b03166318160ddd6040518163ffffffff1660e01b815260040160206040518083038186803b15801561266057600080fd5b505afa158015612674573d6000803e3d6000fd5b505050506040513d601f19601f8201168201806040525061269891908101906149f3565b849063ffffffff61384416565b61386b565b905060006126b661178b565b905081811115610f7b5760006126d2828463ffffffff61238e16565b90506110a981611881565b6001600160a01b0383166000908152600c602052604090205461270790838363ffffffff6133ad16565b6001600160a01b0384166000908152600c602052604090205560055461273490838363ffffffff6133ad16565b600555505050565b6000600d81612749611347565b815260200190815260200160002060040160040154905090565b600d600061276f611347565b815260208101919091526040016000206004015460ff166110b7576000600d81612797611347565b8152602001908152602001600020600401600501819055506000196000600d0160006127c1611347565b81526020810191909152604001600090812060050191909155600d816127e5611347565b8152602001908152602001600020600401600201819055506000196000600d01600061280f611347565b81526020810191909152604001600090812060070191909155600d81612833611347565b8152602001908152602001600020600401600401819055506000196000600d01600061285d611347565b81526020810191909152604001600090812060120191909155600d81612881611347565b8152602001908152602001600020600401600f018190555060016000600d0160006128aa611347565b81526020810191909152604001600020600401805460ff1916911515919091179055565b60006128d8613888565b1580156128ea57506128e86138b7565b155b156130ad5760006128f96117a3565b61290161273c565b039050600061290e61326a565b612916611eea565b0390506000612923612301565b61292b611f62565b03905060005b612939611c65565b811015612bf457600061295361294e836138e5565b613923565b905061295d614535565b61297b6129756126a5846002015485600101546125e9565b876125e9565b9050612985614535565b6129938360040154876125e9565b905061299d614535565b6129ab8460010154876125e9565b90506129b5614535565b6129e4826129d86129c461362b565b6129cc61362b565b9063ffffffff61396016565b9063ffffffff61398916565b90506129ee614535565b6129ff85600263ffffffff6139b216565b9050612a09614535565b612a1a85600263ffffffff6139b216565b9050612a24614535565b612a3584600263ffffffff6139b216565b9050612a3f614535565b612a53826129cc868663ffffffff61396016565b9050612a5d614535565b612a68611df7613a0f565b15612a7d57612a7682613a2a565b9050612a88565b612a85613a0f565b90505b612a9a612a948c6138e5565b82613aac565b612aa661294e8c6138e5565b601080546001808201835560009290925282547f1b6847dc741a1b0cd08d278845f9d819d87b734759afb55fe2de5cb82a9ae6726005909202918201805460ff191660ff928316151517808255855461ff00199091166101009182900490931615150291909117808255845462010000600160b01b031990911662010000918290046001600160a01b0316909102179055828201547f1b6847dc741a1b0cd08d278845f9d819d87b734759afb55fe2de5cb82a9ae67382015560028301547f1b6847dc741a1b0cd08d278845f9d819d87b734759afb55fe2de5cb82a9ae67482015560038301547f1b6847dc741a1b0cd08d278845f9d819d87b734759afb55fe2de5cb82a9ae6758201556004909201547f1b6847dc741a1b0cd08d278845f9d819d87b734759afb55fe2de5cb82a9ae676909201919091559a909a01995061293198505050505050505050565b50612bff6010613af4565b8054612c0d91601091614548565b5060005b601054811015612f595760108181548110612c2857fe5b906000526020600020906005020160010154612c4261178b565b10612f4c57612c7c60108281548110612c5757fe5b60009182526020909120600590910201546201000090046001600160a01b0316613bc1565b158015612c965750612c9460108281548110612c5757fe5b155b15612f4757612ca3614535565b612ce960108381548110612cb357fe5b90600052602060002090600502016002015460108481548110612cd257fe5b9060005260206000209060050201600101546125e9565b60408051602081019091526017548152909150612d0d90829063ffffffff61375916565b15612d1c578051601755612d48565b60408051602081019091526016548152612d3d90829063ffffffff61364d16565b15612d485780516016555b60155460108381548110612d5857fe5b9060005260206000209060050201600401541015612d9a5760108281548110612d7d57fe5b906000526020600020906005020160040154601581905550612de8565b60125460108381548110612daa57fe5b9060005260206000209060050201600401541115612de85760108281548110612dcf57fe5b9060005260206000209060050201600401546012819055505b612df18161386b565b6014805490910190556010805483908110612e0857fe5b6000918252602082206004600590920201015460138054909101905560108054612e51919085908110612e3757fe5b906000526020600020906005020160040154610e83611347565b9050612eac60108481548110612e6357fe5b906000526020600020906005020160000160029054906101000a90046001600160a01b031660108581548110612e9557fe5b906000526020600020906005020160010154612010565b612f0660108481548110612ebc57fe5b906000526020600020906005020160000160029054906101000a90046001600160a01b03168260108681548110612eef57fe5b906000526020600020906005020160020154612121565b612f3b60108481548110612f1657fe5b60009182526020909120600590910201546201000090046001600160a01b0316613c08565b50506011805460010190555b612f51565b612f59565b600101612c11565b506011541561305a57612f6a614535565b612f786014546011546125e9565b9050612f82614535565b612f906013546011546125e9565b9050612f9a614535565b612fbc6064612fb06010805490506011546125e9565b9063ffffffff61384416565b9050612fc9601554613c55565b612fd4601254613c79565b612fe5612fe08361386b565b613c9d565b60408051602081019091526017548152613007906130029061386b565b613cc1565b60408051602081019091526016548152613029906130249061386b565b613ce5565b61303a6130358461386b565b613d09565b61304b6130468261386b565b613d2d565b613056601154613d51565b5050505b61306660106000614612565b6000601181905560128190556013819055601455600019601555613088613a0f565b5160165550506040805160208101909152600019908190526017555060019050610c62565b506000610c62565b6001600160a01b0382166000908152600c6020526040812060050154906130e76130de84610d1b565b610e838561175e565b9050818111156110a9576001600160a01b0384166000908152600c6020526040902060050181905550505050565b6001600160a01b0384166000908152600c6020908152604080832086845260020190915290205461314d90838363ffffffff6133ad16565b6001600160a01b0385166000908152600c60209081526040808320878452600201825280832093909355600d9052206001015461319190838363ffffffff6133ad16565b6000848152600d60205260409020600101556008546131b790838363ffffffff6133ad16565b60085550505050565b6131c8611125565b6001600160a01b031663a9059cbb83836040518363ffffffff1660e01b81526004016131f5929190614c5f565b602060405180830381600087803b15801561320f57600080fd5b505af1158015613223573d6000803e3d6000fd5b505050506040513d601f19601f820116820180604052506132479190810190614987565b50611968816040518060600160405280602a8152602001614e53602a9139611d27565b6000600d81613277611347565b815260200190815260200160002060040160010154905090565b6000908152600d60205260409020600401805461ff001916610100179055565b6001600160a01b0382166000908152600e60205260409020600301546132dd908263ffffffff6119ce16565b6001600160a01b039092166000908152600e602052604090206003019190915550565b600654613313908263ffffffff6119ce16565b60065550565b613321611347565b6001600160a01b039092166000908152600e60205260409020918255600190910155565b60025461335990600163ffffffff6119ce16565b600255565b6001600160a01b0382166000908152600e602052604090206002015461338a908263ffffffff6119ce16565b6001600160a01b039092166000908152600e602052604090206002019190915550565b600081848411156133d15760405162461bcd60e51b81526004016119c59190614ca4565b505050900390565b6110b76133fa6133e7610d5c565b610e836133f26116f4565b610e836110c2565b613402611125565b6001600160a01b03166370a08231306040518263ffffffff1660e01b815260040161342d9190614c29565b60206040518083038186803b15801561344557600080fd5b505afa158015613459573d6000803e3d6000fd5b505050506040513d601f19601f8201168201806040525061347d91908101906149f3565b10156a21b7b6b83a3937b63632b960a91b74496e636f6e73697374656e742062616c616e63657360581b611970565b606080826040516020016134c09190614be3565b60408051601f19818403018152919052905060205b8015613515578151600019909101908290829081106134f057fe5b01602001516001600160f81b031916156135105760010181529050610d01565b6134d5565b505060408051600081526020810190915292915050565b6000818361354d5760405162461bcd60e51b81526004016119c59190614ca4565b50600083858161355957fe5b0495945050505050565b61356b614535565b613573614535565b600061357d6112b3565b6001600160a01b031663d4a3e9d76040518163ffffffff1660e01b81526004016040805180830381600087803b1580156135b657600080fd5b505af11580156135ca573d6000803e3d6000fd5b505050506040513d601f19601f820116820180604052506135ee91908101906149a5565b915091506136026108ed6001611513611347565b156136185761360f613d75565b92505050610c62565b806136255761360f61362b565b50905090565b613633614535565b506040805160208101909152670de0b6b3a7640000815290565b60006136598383613d97565b6002149392505050565b6000600755565b613672614535565b61367a613dc9565b90506000613686610d5c565b905060006136926113d0565b9050808210156136a7576136a4613dec565b92505b6136af614535565b6136e06136da856136ce6136c161362b565b899063ffffffff61398916565b9063ffffffff613e0e16565b86613e3c565b905060006136f26126a561269861148e565b9050600080600061370284613ec7565b925092509250613710611347565b89516040517f32fcaa1e76ed9517f4749d8ec9a77dd5e7329456d740b9bf9665d900eef5e2839161374691879087908790614cf1565b60405180910390a2505050505050505050565b60006137658383613d97565b159392505050565b613775614535565b61379561378f613783614033565b6136ce856129d861362b565b83613e3c565b905060006137a76126a561269861148e565b90506137b281611ed6565b6137ba611347565b83516040517f5e139d4b8080a4a00dcc151e8217694aeebae893936326aa22096924a9906677916137ec918590614ce3565b60405180910390a2505050565b613801614535565b5060408051602081019091526704db732547630000815290565b600f5490565b602490565b600061383c82611302868663ffffffff61227d16565b949350505050565b61384c614535565b60408051602081019091528351819061260f908563ffffffff61227d16565b8051600090610c9f90670de0b6b3a764000063ffffffff6119f316565b6000600d81613895611347565b815260208101919091526040016000206004015462010000900460ff16919050565b6000600d816138c4611347565b8152602081019190915260400160002060040154610100900460ff16919050565b6000600d816138f2611347565b8152602080820192909252604090810160009081208582526015019092529020546001600160a01b03169050919050565b6000600d81613930611347565b8152602080820192909252604090810160009081206001600160a01b038616825260160190925290209050919050565b613968614535565b604080516020810190915282518451829161260f919063ffffffff6119ce16565b613991614535565b604080516020810190915282518451829161260f919063ffffffff61238e16565b6139ba614535565b816139d0576139c96001614055565b9050610c9f565b6139d8614535565b5060408051602081019091528351815260015b83811015613a07576139fd8286614089565b91506001016139eb565b509392505050565b613a17614535565b5060408051602081019091526000815290565b613a32614535565b613a3a614535565b613a5c6002613a5085600163ffffffff6140b716565b9063ffffffff6140f416565b90508291505b613a72818363ffffffff61375916565b15613aa657905080613a9f6002613a50613a92848063ffffffff61396016565b869063ffffffff613e0e16565b9050613a62565b50919050565b80600d6000613ab9611347565b8152602080820192909252604090810160009081206001600160a01b0390961681526016909501909152909220915160039092019190915550565b6000613bbd82805480602002602001604051908101604052809291908181526020016000905b82821015613baa5760008481526020908190206040805160e08101825260058602909201805460ff808216151585526101008204161515848601526201000090046001600160a01b03168383015260018082015460608501526002820154608085015282518086019093526003820154835260a08401929092526004015460c08301529083529092019101613b1a565b505085546000925060001901905061411b565b5090565b6000600d81613bce611347565b8152602080820192909252604090810160009081206001600160a01b038616825260160190925290205460ff610100909104169050919050565b6001600d6000613c16611347565b8152602080820192909252604090810160009081206001600160a01b039590951681526016909401909152909120805460ff1916911515919091179055565b80600d6000613c62611347565b81526020810191909152604001600020600f015550565b80600d6000613c86611347565b815260208101919091526040016000206010015550565b80600d6000613caa611347565b815260208101919091526040016000206011015550565b80600d6000613cce611347565b81526020810191909152604001600020600c015550565b80600d6000613cf2611347565b81526020810191909152604001600020600d015550565b80600d6000613d16611347565b81526020810191909152604001600020600e015550565b80600d6000613d3a611347565b81526020810191909152604001600020600b015550565b80600d6000613d5e611347565b81526020810191909152604001600020600a015550565b613d7d614535565b50604080516020810190915267155f2dd73a1a0000815290565b805182516000911415613dac57506001610c9f565b8151835111613dbc576000613dbf565b60025b60ff169392505050565b613dd1614535565b50604080516020810190915268015af1d78b58c40000815290565b613df4614535565b50604080516020810190915267e73435bb46020000815290565b613e16614535565b604051806020016040528061260f8560000151670de0b6b3a76400008660000151613826565b613e44614535565b613e4c614535565b613e54614271565b90506000613e60610d5c565b90506000613e6c6113d0565b9050613e86613e7961362b565b869063ffffffff61364d16565b8015613e9157508082105b15613ea157613e9e614292565b92505b613eb1868463ffffffff61364d16565b613ebb5785613ebd565b825b9695505050505050565b6000808080808080613ed7610d5c565b90506000613ee36113d0565b905080821015613fa057613efd818363ffffffff61238e16565b9450613f25613f146064613f0f6142b3565b61238e565b61130287606463ffffffff61227d16565b9450888511613f345784613f36565b885b9450613f556064611302613f486142b3565b889063ffffffff61227d16565b9250613f67858463ffffffff61238e16565b9450613f72836142b8565b613f7b8561434c565b613f8b898463ffffffff61238e16565b9850613f9d898663ffffffff61238e16565b98505b6000613faa61178b565b905060008a118015613fbc5750600081115b15613fee57898111613fce5780613fd0565b895b9450613fdb85611881565b613feb8a8663ffffffff61238e16565b99505b613ff66110c2565b613fff57600099505b891561400e5761400e8a6143dd565b85856140208c8763ffffffff6119ce16565b9850985098505050505050509193909250565b61403b614535565b506040805160208101909152674563918244f40000815290565b61405d614535565b60408051602081019091528061408184670de0b6b3a764000063ffffffff61227d16565b905292915050565b614091614535565b604051806020016040528061260f85600001518560000151670de0b6b3a7640000613826565b6140bf614535565b60408051602081019091528061260f6140e685670de0b6b3a764000063ffffffff61227d16565b86519063ffffffff6119ce16565b6140fc614535565b60408051602081019091528351819061260f908563ffffffff6119f316565b81818082141561412c575050610f7b565b614134614535565b8560028686030586018151811061414757fe5b602002602001015160a0015190505b818313614243575b6141888187858151811061416e57fe5b602002602001015160a0015161375990919063ffffffff16565b156141985760019092019161415e565b6141c28683815181106141a757fe5b602002602001015160a001518261375990919063ffffffff16565b156141d35760001990910190614198565b81831361423e578582815181106141e657fe5b60200260200101518684815181106141fa57fe5b602002602001015187858151811061420e57fe5b6020026020010188858151811061422157fe5b602090810291909101019190915252600190920191600019909101905b614156565b818512156142565761425686868461411b565b838312156142695761426986848661411b565b505050505050565b614279614535565b50604080516020810190915266470de4df820000815290565b61429a614535565b506040805160208101909152666a94d74f430000815290565b602890565b8015610d6b576142c6611125565b6001600160a01b03166340c10f196142dc610d39565b836040518363ffffffff1660e01b81526004016142fa929190614c5f565b602060405180830381600087803b15801561431457600080fd5b505af1158015614328573d6000803e3d6000fd5b505050506040513d601f19601f82011682018060405250610d589190810190614987565b614354611125565b6001600160a01b03166340c10f1930836040518363ffffffff1660e01b8152600401614381929190614c5f565b602060405180830381600087803b15801561439b57600080fd5b505af11580156143af573d6000803e3d6000fd5b505050506040513d601f19601f820116820180604052506143d39190810190614987565b506118c081613300565b61442060006143ea6110c2565b116a21b7b6b83a3937b63632b960a91b7f43616e74206d696e7420746f20656d70747920706f6f6c000000000000000000611970565b600061443f60646113026144326142b3565b859063ffffffff61227d16565b90506000818311614451576000614461565b614461838363ffffffff61238e16565b905061446c826142b8565b6144758161447d565b610f7b6133d9565b8015610d6b5761448b611125565b6001600160a01b03166340c10f1930836040518363ffffffff1660e01b81526004016144b8929190614c5f565b602060405180830381600087803b1580156144d257600080fd5b505af11580156144e6573d6000803e3d6000fd5b505050506040513d601f19601f8201168201806040525061450a9190810190614987565b50610d6b81611d0e565b60405180606001604052806000815260200160008152602001600081525090565b6040518060200160405280600081525090565b8280548282559060005260206000209060050281019282156146065760005260206000209160050282015b82811115614606578254825460ff191660ff918216151517808455845461ff00199091166101009182900490921615150217808355835462010000600160b01b031990911662010000918290046001600160a01b03169091021782556001808401549083015560028084015490830155600380840154908301556004808401549083015560059283019290910190614573565b50613bbd92915061462f565b5080546000825560050290600052602060002090810190610d6b91905b610c6291905b80821115613bbd5780546001600160b01b031916815560006001820181905560028201819055600382018190556004820155600501614635565b8035610c9f81614df7565b8051610c9f81614e0b565b8035610c9f81614e14565b60008083601f8401126146a257600080fd5b50813567ffffffffffffffff8111156146ba57600080fd5b6020830191508360018202830111156146d257600080fd5b9250929050565b6000602082840312156146eb57600080fd5b6146f56020614d34565b905060006147038484614717565b82525092915050565b8035610c9f81614e21565b8051610c9f81614e21565b60006020828403121561473457600080fd5b600061383c848461466f565b6000806040838503121561475357600080fd5b600061475f858561466f565b92505060206147708582860161466f565b9150509250929050565b60008060006060848603121561478f57600080fd5b600061479b868661466f565b93505060206147ac8682870161466f565b92505060406147bd86828701614685565b9150509250925092565b6000806000606084860312156147dc57600080fd5b60006147e8868661466f565b93505060206147f98682870161466f565b92505060406147bd8682870161470c565b60008060008060006080868803121561482257600080fd5b600061482e888861466f565b955050602061483f8882890161466f565b94505060406148508882890161470c565b935050606086013567ffffffffffffffff81111561486d57600080fd5b61487988828901614690565b92509250509295509295909350565b6000806040838503121561489b57600080fd5b60006148a7858561466f565b92505060206147708582860161470c565b600080600080606085870312156148ce57600080fd5b60006148da878761466f565b94505060206148eb8782880161470c565b935050604085013567ffffffffffffffff81111561490857600080fd5b61491487828801614690565b95989497509550505050565b60008060006060848603121561493557600080fd5b6000614941868661466f565b93505060206147f98682870161470c565b60008060008060006080868803121561496a57600080fd5b6000614976888861466f565b955050602061483f8882890161470c565b60006020828403121561499957600080fd5b600061383c848461467a565b600080604083850312156149b857600080fd5b60006149c485856146d9565b92505060206147708582860161467a565b6000602082840312156149e757600080fd5b600061383c848461470c565b600060208284031215614a0557600080fd5b600061383c8484614717565b600080600060408486031215614a2657600080fd5b6000614a32868661470c565b935050602084013567ffffffffffffffff811115614a4f57600080fd5b614a5b86828701614690565b92509250509250925092565b60008060408385031215614a7a57600080fd5b60006148a7858561470c565b600080600060608486031215614a9b57600080fd5b6000614941868661470c565b614ab081614d68565b82525050565b614ab081614d73565b614ab0614acb82614d78565b610c62565b614ab0614acb82610c62565b6000614ae782614d5b565b614af18185610d01565b9350614b01818560208601614db7565b9290920192915050565b614ab081614da1565b614ab081614dac565b6000614b2882614d5b565b614b328185614d5f565b9350614b42818560208601614db7565b614b4b81614de3565b9093019392505050565b6000614b62601b83614d5f565b7f536166654d6174683a206164646974696f6e206f766572666c6f770000000000815260200192915050565b6000614b9b602183614d5f565b7f536166654d6174683a206d756c7469706c69636174696f6e206f766572666c6f8152607760f81b602082015260400192915050565b614ab081610c62565b614ab081614d9b565b6000614bef8284614ad0565b50602001919050565b6000614c048286614adc565b9150614c108285614abf565b600282019150614c208284614adc565b95945050505050565b60208101610c9f8284614aa7565b60608101614c458286614aa7565b614c526020830185614aa7565b61383c6040830184614bd1565b60408101614c6d8285614aa7565b610d7b6020830184614bd1565b60208101610c9f8284614ab6565b60208101610c9f8284614b0b565b60208101610c9f8284614b14565b60208082528101610d7b8184614b1d565b60208082528101610c9f81614b55565b60208082528101610c9f81614b8e565b60208101610c9f8284614bd1565b60408101614c6d8285614bd1565b60808101614cff8287614bd1565b614d0c6020830186614bd1565b614d196040830185614bd1565b614c206060830184614bd1565b60208101610c9f8284614bda565b60405181810167ffffffffffffffff81118282101715614d5357600080fd5b604052919050565b5190565b90815260200190565b6000610c9f82614d8f565b151590565b6001600160f01b03191690565b80610d0181614ded565b6001600160a01b031690565b60ff1690565b6000610c9f82614d68565b6000610c9f82614d85565b60005b83811015614dd2578181015183820152602001614dba565b838111156110a95750506000910152565b601f01601f191690565b60038110610d6b57fe5b614e0081614d68565b8114610d6b57600080fd5b614e0081614d73565b60038110610d6b57600080fd5b614e0081610c6256fe436f6d7074726f6c6c65723a206e6f7420656e6f756768206f75747374616e64696e672064656274436f6d7074726f6c6c65723a206e6f7420656e6f7567682072656465656d61626c652062616c616e6365a365627a7a72315820492b550f3d57725407207729ca6530778c3d8f05abe0c1ce2ae23c34c902d6c86c6578706572696d656e74616cf564736f6c6343000511004060806040523480156200001157600080fd5b5060405180604001604052806012815260200171223cb730b6b4b19029b2ba102237b63630b960711b815250604051806040016040528060038152602001621114d160ea1b81525060126200007e6200006f6200011960201b60201c565b6001600160e01b036200011e16565b82516200009390600190602086019062000313565b508151620000a990600290602085019062000313565b506003805460ff191660ff9290921691909117905550620001109050620000cf62000170565b604051806040016040528060018152602001603160f81b815250620000fe6200020960201b620016341760201c565b306200020e60201b620016391760201c565b60075562000469565b335b90565b620001398160006200026560201b62000d7e1790919060201c565b6040516001600160a01b038216907f6ae172837ea30b801fbfcdd4108aa1d5bf8ff775444fd70256b44e6bf3dfc3f690600090a250565b60018054604080516020601f60026000196101008789161502019095169490940493840181900481028201810190925282815260609390929091830182828015620001ff5780601f10620001d357610100808354040283529160200191620001ff565b820191906000526020600020905b815481529060010190602001808311620001e157829003601f168201915b5050505050905090565b600190565b8351602094850120835193850193909320604080517f8b73c3c69bb8fe3d512ecc4cf759cc79239f7b179b0ffacaa9a75d522b39400f815295860194909452928401929092526060830152608082015260a0902090565b6200027a82826001600160e01b03620002c816565b15620002a35760405162461bcd60e51b81526004016200029a9062000436565b60405180910390fd5b6001600160a01b0316600090815260209190915260409020805460ff19166001179055565b60006001600160a01b038216620002f35760405162461bcd60e51b81526004016200029a906200044e565b506001600160a01b03166000908152602091909152604090205460ff1690565b828054600181600116156101000203166002900490600052602060002090601f016020900481019282601f106200035657805160ff191683800117855562000386565b8280016001018555821562000386579182015b828111156200038657825182559160200191906001019062000369565b506200039492915062000398565b5090565b6200011b91905b808211156200039457600081556001016200039f565b6000620003c4601f8362000460565b7f526f6c65733a206163636f756e7420616c72656164792068617320726f6c6500815260200192915050565b6000620003ff60228362000460565b7f526f6c65733a206163636f756e7420697320746865207a65726f206164647265815261737360f01b602082015260400192915050565b602080825281016200044881620003b5565b92915050565b602080825281016200044881620003f0565b90815260200190565b61178d80620004796000396000f3fe608060405234801561001057600080fd5b506004361061012c5760003560e01c806395d89b41116100ad578063aa271e1a11610071578063aa271e1a14610256578063d505accf14610269578063dab400f31461027c578063dd62ed3e14610284578063e879c19f146102975761012c565b806395d89b411461020d578063983b2d56146102155780639865027514610228578063a457c2d714610230578063a9059cbb146102435761012c565b806339509351116100f457806339509351146101ac57806340c10f19146101bf57806342966c68146101d257806370a08231146101e757806379cc6790146101fa5761012c565b806306fdde0314610131578063095ea7b31461014f57806318160ddd1461016f57806323b872dd14610184578063313ce56714610197575b600080fd5b61013961029f565b60405161014691906114c6565b60405180910390f35b61016261015d366004610ffc565b610334565b604051610146919061141b565b610177610352565b6040516101469190611429565b610162610192366004610f13565b610358565b61019f6103ca565b6040516101469190611587565b6101626101ba366004610ffc565b6103d3565b6101626101cd366004610ffc565b610427565b6101e56101e036600461102c565b610463565b005b6101776101f5366004610eb3565b610477565b6101e5610208366004610ffc565b610496565b6101396104a4565b6101e5610223366004610eb3565b610502565b6101e5610532565b61016261023e366004610ffc565b610544565b610162610251366004610ffc565b6105b2565b610162610264366004610eb3565b6105c6565b6101e5610277366004610f60565b6105d8565b61017761075f565b610177610292366004610ed9565b610765565b610177610790565b60018054604080516020601f6002600019610100878916150201909516949094049384018190048102820181019092528281526060939092909183018282801561032a5780601f106102ff5761010080835404028352916020019161032a565b820191906000526020600020905b81548152906001019060200180831161030d57829003601f168201915b5050505050905090565b60006103486103416107b4565b84846107b8565b5060015b92915050565b60065490565b600061036584848461086c565b600019610374856102926107b4565b146103c0576103c0846103856107b4565b6103bb856040518060600160405280602981526020016116fd602991396103ae8a6102926107b4565b919063ffffffff61098216565b6107b8565b5060019392505050565b60035460ff1690565b60006103486103e06107b4565b846103bb85600560006103f16107b4565b6001600160a01b03908116825260208083019390935260409182016000908120918c16815292529020549063ffffffff6109ae16565b60006104346102646107b4565b6104595760405162461bcd60e51b815260040161045090611517565b60405180910390fd5b61034883836109da565b61047461046e6107b4565b82610a9a565b50565b6001600160a01b0381166000908152600460205260409020545b919050565b6104a08282610b70565b5050565b60028054604080516020601f600019610100600187161502019094168590049384018190048102820181019092528281526060939092909183018282801561032a5780601f106102ff5761010080835404028352916020019161032a565b61050d6102646107b4565b6105295760405162461bcd60e51b815260040161045090611517565b61047481610beb565b61054261053d6107b4565b610c33565b565b60006103486105516107b4565b846103bb85604051806060016040528060258152602001611726602591396005600061057b6107b4565b6001600160a01b03908116825260208083019390935260409182016000908120918d1681529252902054919063ffffffff61098216565b60006103486105bf6107b4565b848461086c565b600061034c818363ffffffff610c7b16565b6007546001600160a01b03881660009081526008602090815260408083208054600181019091559051929361065a93909261063f927f6e71edae12b1b97f4d1f60370fef10105fa2faae0126114a169c64845d6126c9928e928e928e9290918e9101611437565b60405160208183030381529060405280519060200120610cc3565b90506000600182868686604051600081526020016040526040516106819493929190611491565b6020604051602081039080840390855afa1580156106a3573d6000803e3d6000fd5b5050506020604051035190506106f0896001600160a01b0316826001600160a01b0316146a5065726d69747461626c6560a81b70496e76616c6964207369676e617475726560781b610ce2565b6107236001600160a01b03821615156a5065726d69747461626c6560a81b6b5a65726f206164647265737360a01b610ce2565b610749864211156a5065726d69747461626c6560a81b66115e1c1a5c995960ca1b610ce2565b6107548989896107b8565b505050505050505050565b60075481565b6001600160a01b03918216600090815260056020908152604080832093909416825291909152205490565b7f6e71edae12b1b97f4d1f60370fef10105fa2faae0126114a169c64845d6126c981565b3390565b6001600160a01b0383166107de5760405162461bcd60e51b815260040161045090611567565b6001600160a01b0382166108045760405162461bcd60e51b8152600401610450906114f7565b6001600160a01b0380841660008181526005602090815260408083209487168084529490915290819020849055517f8c5be1e5ebec7d5bd14f71427d1e84f3dd0314c0f7b2291e5b200ac8c7c3b9259061085f908590611429565b60405180910390a3505050565b6001600160a01b0383166108925760405162461bcd60e51b815260040161045090611557565b6001600160a01b0382166108b85760405162461bcd60e51b8152600401610450906114d7565b6108fb816040518060600160405280602681526020016116b3602691396001600160a01b038616600090815260046020526040902054919063ffffffff61098216565b6001600160a01b038085166000908152600460205260408082209390935590841681522054610930908263ffffffff6109ae16565b6001600160a01b0380841660008181526004602052604090819020939093559151908516907fddf252ad1be2c89b69c2b068fc378daa952ba7f163c4a11628f55a4df523b3ef9061085f908590611429565b600081848411156109a65760405162461bcd60e51b815260040161045091906114c6565b505050900390565b6000828201838110156109d35760405162461bcd60e51b815260040161045090611507565b9392505050565b6001600160a01b038216610a005760405162461bcd60e51b815260040161045090611577565b600654610a13908263ffffffff6109ae16565b6006556001600160a01b038216600090815260046020526040902054610a3f908263ffffffff6109ae16565b6001600160a01b0383166000818152600460205260408082209390935591519091907fddf252ad1be2c89b69c2b068fc378daa952ba7f163c4a11628f55a4df523b3ef90610a8e908590611429565b60405180910390a35050565b6001600160a01b038216610ac05760405162461bcd60e51b815260040161045090611547565b610b0381604051806060016040528060228152602001611691602291396001600160a01b038516600090815260046020526040902054919063ffffffff61098216565b6001600160a01b038316600090815260046020526040902055600654610b2f908263ffffffff610d3c16565b6006556040516000906001600160a01b038416907fddf252ad1be2c89b69c2b068fc378daa952ba7f163c4a11628f55a4df523b3ef90610a8e908590611429565b610b7a8282610a9a565b6104a082610b866107b4565b6103bb846040518060600160405280602481526020016116d9602491396001600160a01b038816600090815260056020526040812090610bc46107b4565b6001600160a01b03168152602081019190915260400160002054919063ffffffff61098216565b610bfc60008263ffffffff610d7e16565b6040516001600160a01b038216907f6ae172837ea30b801fbfcdd4108aa1d5bf8ff775444fd70256b44e6bf3dfc3f690600090a250565b610c4460008263ffffffff610dca16565b6040516001600160a01b038216907fe94479a9f7e1952cc78f2d6baab678adc1b772d936c6583def489e524cb6669290600090a250565b60006001600160a01b038216610ca35760405162461bcd60e51b815260040161045090611537565b506001600160a01b03166000908152602091909152604090205460ff1690565b60405161190160f01b8152600281019290925260228201526042902090565b82610d3757610cf082610e12565b6101d160f51b610cff83610e12565b604051602001610d11939291906113ea565b60408051601f198184030181529082905262461bcd60e51b8252610450916004016114c6565b505050565b60006109d383836040518060400160405280601e81526020017f536166654d6174683a207375627472616374696f6e206f766572666c6f770000815250610982565b610d888282610c7b565b15610da55760405162461bcd60e51b8152600401610450906114e7565b6001600160a01b0316600090815260209190915260409020805460ff19166001179055565b610dd48282610c7b565b610df05760405162461bcd60e51b815260040161045090611527565b6001600160a01b0316600090815260209190915260409020805460ff19169055565b60608082604051602001610e2691906113d5565b60408051601f19818403018152919052905060205b8015610e7b57815160001990910190829082908110610e5657fe5b01602001516001600160f81b03191615610e765760010181529050610491565b610e3b565b505060408051600081526020810190915292915050565b803561034c8161160e565b803561034c81611622565b803561034c8161162b565b600060208284031215610ec557600080fd5b6000610ed18484610e92565b949350505050565b60008060408385031215610eec57600080fd5b6000610ef88585610e92565b9250506020610f0985828601610e92565b9150509250929050565b600080600060608486031215610f2857600080fd5b6000610f348686610e92565b9350506020610f4586828701610e92565b9250506040610f5686828701610e9d565b9150509250925092565b600080600080600080600060e0888a031215610f7b57600080fd5b6000610f878a8a610e92565b9750506020610f988a828b01610e92565b9650506040610fa98a828b01610e9d565b9550506060610fba8a828b01610e9d565b9450506080610fcb8a828b01610ea8565b93505060a0610fdc8a828b01610e9d565b92505060c0610fed8a828b01610e9d565b91505092959891949750929550565b6000806040838503121561100f57600080fd5b600061101b8585610e92565b9250506020610f0985828601610e9d565b60006020828403121561103e57600080fd5b6000610ed18484610e9d565b611053816115a2565b82525050565b611053816115ad565b61105361106e826115b2565b6115bf565b611053816115bf565b61105361106e826115bf565b600061109382611595565b61109d8185610491565b93506110ad8185602086016115d4565b9290920192915050565b60006110c282611595565b6110cc8185611599565b93506110dc8185602086016115d4565b6110e581611604565b9093019392505050565b60006110fc602383611599565b7f45524332303a207472616e7366657220746f20746865207a65726f206164647281526265737360e81b602082015260400192915050565b6000611141601f83611599565b7f526f6c65733a206163636f756e7420616c72656164792068617320726f6c6500815260200192915050565b600061117a602283611599565b7f45524332303a20617070726f766520746f20746865207a65726f206164647265815261737360f01b602082015260400192915050565b60006111be601b83611599565b7f536166654d6174683a206164646974696f6e206f766572666c6f770000000000815260200192915050565b60006111f7603083611599565b7f4d696e746572526f6c653a2063616c6c657220646f6573206e6f74206861766581526f20746865204d696e74657220726f6c6560801b602082015260400192915050565b6000611249602183611599565b7f526f6c65733a206163636f756e7420646f6573206e6f74206861766520726f6c8152606560f81b602082015260400192915050565b600061128c602283611599565b7f526f6c65733a206163636f756e7420697320746865207a65726f206164647265815261737360f01b602082015260400192915050565b60006112d0602183611599565b7f45524332303a206275726e2066726f6d20746865207a65726f206164647265738152607360f81b602082015260400192915050565b6000611313602583611599565b7f45524332303a207472616e736665722066726f6d20746865207a65726f206164815264647265737360d81b602082015260400192915050565b600061135a602483611599565b7f45524332303a20617070726f76652066726f6d20746865207a65726f206164648152637265737360e01b602082015260400192915050565b60006113a0601f83611599565b7f45524332303a206d696e7420746f20746865207a65726f206164647265737300815260200192915050565b611053816115ce565b60006113e1828461107c565b50602001919050565b60006113f68286611088565b91506114028285611062565b6002820191506114128284611088565b95945050505050565b6020810161034c8284611059565b6020810161034c8284611073565b60c081016114458289611073565b611452602083018861104a565b61145f604083018761104a565b61146c6060830186611073565b6114796080830185611073565b61148660a0830184611073565b979650505050505050565b6080810161149f8287611073565b6114ac60208301866113cc565b6114b96040830185611073565b6114126060830184611073565b602080825281016109d381846110b7565b6020808252810161034c816110ef565b6020808252810161034c81611134565b6020808252810161034c8161116d565b6020808252810161034c816111b1565b6020808252810161034c816111ea565b6020808252810161034c8161123c565b6020808252810161034c8161127f565b6020808252810161034c816112c3565b6020808252810161034c81611306565b6020808252810161034c8161134d565b6020808252810161034c81611393565b6020810161034c82846113cc565b5190565b90815260200190565b600061034c826115c2565b151590565b6001600160f01b03191690565b90565b6001600160a01b031690565b60ff1690565b60005b838110156115ef5781810151838201526020016115d7565b838111156115fe576000848401525b50505050565b601f01601f191690565b611617816115a2565b811461047457600080fd5b611617816115bf565b611617816115ce565b600190565b8351602094850120835193850193909320604080517f8b73c3c69bb8fe3d512ecc4cf759cc79239f7b179b0ffacaa9a75d522b39400f815295860194909452928401929092526060830152608082015260a090209056fe45524332303a206275726e20616d6f756e7420657863656564732062616c616e636545524332303a207472616e7366657220616d6f756e7420657863656564732062616c616e636545524332303a206275726e20616d6f756e74206578636565647320616c6c6f77616e6365446f6c6c61723a207472616e7366657220616d6f756e74206578636565647320616c6c6f77616e636545524332303a2064656372656173656420616c6c6f77616e63652062656c6f77207a65726fa365627a7a7231582021717f4bb76e445345cb7f360c6be702a59b3219eb6cebef899d276f27b2e4bb6c6578706572696d656e74616cf564736f6c63430005110040",
  "source": "/*\n    Copyright 2020 Dynamic Dollar Devs, based on the works of the Empty Set Squad\n\n    Licensed under the Apache License, Version 2.0 (the \"License\");\n    you may not use this file except in compliance with the License.\n    You may obtain a copy of the License at\n\n    http://www.apache.org/licenses/LICENSE-2.0\n\n    Unless required by applicable law or agreed to in writing, software\n    distributed under the License is distributed on an \"AS IS\" BASIS,\n    WITHOUT WARRANTIES OR CONDITIONS OF ANY KIND, either express or implied.\n    See the License for the specific language governing permissions and\n    limitations under the License.\n*/\n\npragma solidity ^0.5.17;\npragma experimental ABIEncoderV2;\n\nimport \"../dao/Regulator.sol\";\nimport \"../dao/Market.sol\";\nimport \"../oracle/IOracle.sol\";\nimport \"./MockComptroller.sol\";\nimport \"./MockState.sol\";\n\ncontract MockRegulator is MockComptroller, Regulator {\n    bytes32 private constant FILE = \"MockRegulator\";\n\n    constructor (address oracle, address pool) MockComptroller(pool) public {\n        _state.provider.oracle = IOracle(oracle);\n    }\n\n    function stepE() external {\n        super.step();\n    }\n\n    function bootstrappingAt(uint256 epoch) public view returns (bool) {\n        return epoch <= 5;\n    }\n\n    function settleCouponAuctionE() external {\n        super.settleCouponAuction();\n    }\n\n    function cancelCouponAuctionAtEpochE(uint256 epoch) external {\n        super.cancelCouponAuctionAtEpoch(epoch);\n    }\n\n    function finishCouponAuctionAtEpochE(uint256 epoch) external {\n         super.finishCouponAuctionAtEpoch(epoch);\n    }\n\n    function initCouponAuctionE() external {\n        super.initCouponAuction();\n    }\n\n    function getCouponAuctionBidsE() external returns (uint256) {\n        return super.getCouponAuctionBids();\n    }\n\n    function getCouponAuctionMinExpiryE() external returns (uint256) {\n        return super.getCouponAuctionMinExpiry();\n    }\n\n    function getCouponAuctionMaxExpiryE() external returns (uint256) {\n        return super.getCouponAuctionMaxExpiry();\n    }\n\n    function getCouponAuctionMinYieldE() external returns (uint256) {\n        return super.getCouponAuctionMinYield();\n    }\n\n    function getCouponAuctionMaxYieldE() external returns (uint256) {\n        return super.getCouponAuctionMaxYield();\n    }\n\n    function getCouponAuctionMinDollarAmountE() external returns (uint256) {\n        return super.getCouponAuctionMinDollarAmount();\n    }\n\n    function getCouponAuctionMaxDollarAmountE() external returns (uint256) {\n        return super.getCouponAuctionMaxDollarAmount();\n    }\n\n    /* for testing only */\n\n    function placeCouponAuctionBid(uint256 couponEpochExpiry, uint256 dollarAmount, uint256 maxCouponAmount) external returns (bool) {\n        Require.that(\n            couponEpochExpiry > 0,\n            FILE,\n            \"Must have non-zero expiry\"\n        );\n        \n        Require.that(\n            dollarAmount > 0,\n            FILE,\n            \"Must bid non-zero amount\"\n        );\n        \n        Require.that(\n            maxCouponAmount > 0,\n            FILE,\n            \"Must bid on non-zero amount\"\n        );\n        \n        Require.that(\n            totalDebt() >= dollarAmount,\n            FILE,\n            \"Not enough debt\"\n        );\n\n        uint256 epoch = epoch().add(couponEpochExpiry);\n        setCouponAuctionRelYield(maxCouponAmount.div(dollarAmount));\n        setCouponAuctionRelDollarAmount(dollarAmount);\n        setCouponAuctionRelExpiry(epoch);\n        setCouponBidderState(msg.sender, epoch, dollarAmount, maxCouponAmount);\n        setCouponBidderStateIndex(getCouponAuctionBids(), msg.sender);\n        incrementCouponAuctionBids();\n        return true;\n    }\n}\n",
  "sourcePath": "/Users/cinquemb/Documents/Startups/crypto/dollar/protocol/contracts/mock/MockRegulator.sol",
  "compiler": {
    "name": "solc",
    "version": "0.5.17+commit.d19bba13.Emscripten.clang"
  },
  "schemaVersion": "3.3.3",
  "updatedAt": "2021-01-12T08:04:49.882Z",
  "devdoc": {
    "methods": {}
  },
  "userdoc": {
    "methods": {
      "balanceOfStaged(address)": {
        "notice": "Account"
      },
      "createCandidateE(address,uint256)": {
        "notice": "Governance"
      },
      "dollar()": {
        "notice": "Global"
      },
      "epoch()": {
        "notice": "Epoch"
      },
      "incrementBalanceOfE(address,uint256)": {
        "notice": "Account"
      },
      "incrementTotalBondedE(uint256)": {
        "notice": "Global"
      },
      "name()": {
        "notice": "ERC20 Interface"
      },
      "recordedVote(address,address)": {
        "notice": "Governance"
      },
      "setBlockTimestamp(uint256)": {
        "notice": "Mock"
      },
      "setEpochParamsE(uint256,uint256)": {
        "notice": "Epoch"
      },
      "transfer(address,uint256)": {
        "notice": "ERC20 Interface"
      }
    }
  }
}