{
  "contractName": "MockToken",
  "abi": [
    {
      "inputs": [
        {
          "internalType": "string",
          "name": "name",
          "type": "string"
        },
        {
          "internalType": "string",
          "name": "symbol",
          "type": "string"
        },
        {
          "internalType": "uint8",
          "name": "decimals",
          "type": "uint8"
        }
      ],
      "payable": false,
      "stateMutability": "nonpayable",
      "type": "constructor"
    },
    {
      "anonymous": false,
      "inputs": [
        {
          "indexed": true,
          "internalType": "address",
          "name": "owner",
          "type": "address"
        },
        {
          "indexed": true,
          "internalType": "address",
          "name": "spender",
          "type": "address"
        },
        {
          "indexed": false,
          "internalType": "uint256",
          "name": "value",
          "type": "uint256"
        }
      ],
      "name": "Approval",
      "type": "event"
    },
    {
      "anonymous": false,
      "inputs": [
        {
          "indexed": true,
          "internalType": "address",
          "name": "from",
          "type": "address"
        },
        {
          "indexed": true,
          "internalType": "address",
          "name": "to",
          "type": "address"
        },
        {
          "indexed": false,
          "internalType": "uint256",
          "name": "value",
          "type": "uint256"
        }
      ],
      "name": "Transfer",
      "type": "event"
    },
    {
      "constant": true,
      "inputs": [
        {
          "internalType": "address",
          "name": "owner",
          "type": "address"
        },
        {
          "internalType": "address",
          "name": "spender",
          "type": "address"
        }
      ],
      "name": "allowance",
      "outputs": [
        {
          "internalType": "uint256",
          "name": "",
          "type": "uint256"
        }
      ],
      "payable": false,
      "stateMutability": "view",
      "type": "function"
    },
    {
      "constant": false,
      "inputs": [
        {
          "internalType": "address",
          "name": "spender",
          "type": "address"
        },
        {
          "internalType": "uint256",
          "name": "amount",
          "type": "uint256"
        }
      ],
      "name": "approve",
      "outputs": [
        {
          "internalType": "bool",
          "name": "",
          "type": "bool"
        }
      ],
      "payable": false,
      "stateMutability": "nonpayable",
      "type": "function"
    },
    {
      "constant": true,
      "inputs": [
        {
          "internalType": "address",
          "name": "account",
          "type": "address"
        }
      ],
      "name": "balanceOf",
      "outputs": [
        {
          "internalType": "uint256",
          "name": "",
          "type": "uint256"
        }
      ],
      "payable": false,
      "stateMutability": "view",
      "type": "function"
    },
    {
      "constant": false,
      "inputs": [
        {
          "internalType": "uint256",
          "name": "amount",
          "type": "uint256"
        }
      ],
      "name": "burn",
      "outputs": [],
      "payable": false,
      "stateMutability": "nonpayable",
      "type": "function"
    },
    {
      "constant": false,
      "inputs": [
        {
          "internalType": "address",
          "name": "account",
          "type": "address"
        },
        {
          "internalType": "uint256",
          "name": "amount",
          "type": "uint256"
        }
      ],
      "name": "burnFrom",
      "outputs": [],
      "payable": false,
      "stateMutability": "nonpayable",
      "type": "function"
    },
    {
      "constant": true,
      "inputs": [],
      "name": "decimals",
      "outputs": [
        {
          "internalType": "uint8",
          "name": "",
          "type": "uint8"
        }
      ],
      "payable": false,
      "stateMutability": "view",
      "type": "function"
    },
    {
      "constant": false,
      "inputs": [
        {
          "internalType": "address",
          "name": "spender",
          "type": "address"
        },
        {
          "internalType": "uint256",
          "name": "subtractedValue",
          "type": "uint256"
        }
      ],
      "name": "decreaseAllowance",
      "outputs": [
        {
          "internalType": "bool",
          "name": "",
          "type": "bool"
        }
      ],
      "payable": false,
      "stateMutability": "nonpayable",
      "type": "function"
    },
    {
      "constant": false,
      "inputs": [
        {
          "internalType": "address",
          "name": "spender",
          "type": "address"
        },
        {
          "internalType": "uint256",
          "name": "addedValue",
          "type": "uint256"
        }
      ],
      "name": "increaseAllowance",
      "outputs": [
        {
          "internalType": "bool",
          "name": "",
          "type": "bool"
        }
      ],
      "payable": false,
      "stateMutability": "nonpayable",
      "type": "function"
    },
    {
      "constant": true,
      "inputs": [],
      "name": "name",
      "outputs": [
        {
          "internalType": "string",
          "name": "",
          "type": "string"
        }
      ],
      "payable": false,
      "stateMutability": "view",
      "type": "function"
    },
    {
      "constant": true,
      "inputs": [],
      "name": "symbol",
      "outputs": [
        {
          "internalType": "string",
          "name": "",
          "type": "string"
        }
      ],
      "payable": false,
      "stateMutability": "view",
      "type": "function"
    },
    {
      "constant": true,
      "inputs": [],
      "name": "totalSupply",
      "outputs": [
        {
          "internalType": "uint256",
          "name": "",
          "type": "uint256"
        }
      ],
      "payable": false,
      "stateMutability": "view",
      "type": "function"
    },
    {
      "constant": false,
      "inputs": [
        {
          "internalType": "address",
          "name": "recipient",
          "type": "address"
        },
        {
          "internalType": "uint256",
          "name": "amount",
          "type": "uint256"
        }
      ],
      "name": "transfer",
      "outputs": [
        {
          "internalType": "bool",
          "name": "",
          "type": "bool"
        }
      ],
      "payable": false,
      "stateMutability": "nonpayable",
      "type": "function"
    },
    {
      "constant": false,
      "inputs": [
        {
          "internalType": "address",
          "name": "sender",
          "type": "address"
        },
        {
          "internalType": "address",
          "name": "recipient",
          "type": "address"
        },
        {
          "internalType": "uint256",
          "name": "amount",
          "type": "uint256"
        }
      ],
      "name": "transferFrom",
      "outputs": [
        {
          "internalType": "bool",
          "name": "",
          "type": "bool"
        }
      ],
      "payable": false,
      "stateMutability": "nonpayable",
      "type": "function"
    },
    {
      "constant": false,
      "inputs": [
        {
          "internalType": "address",
          "name": "account",
          "type": "address"
        },
        {
          "internalType": "uint256",
          "name": "amount",
          "type": "uint256"
        }
      ],
      "name": "mint",
      "outputs": [
        {
          "internalType": "bool",
          "name": "",
          "type": "bool"
        }
      ],
      "payable": false,
      "stateMutability": "nonpayable",
      "type": "function"
    }
  ],
  "bytecode": "0x60806040523480156200001157600080fd5b50604051620011953803806200119583398101604081905262000034916200019a565b82828282600090805190602001906200004f92919062000086565b5081516200006590600190602085019062000086565b506002805460ff191660ff9290921691909117905550620002bf9350505050565b828054600181600116156101000203166002900490600052602060002090601f016020900481019282601f10620000c957805160ff1916838001178555620000f9565b82800160010185558215620000f9579182015b82811115620000f9578251825591602001919060010190620000dc565b50620001079291506200010b565b5090565b6200012891905b8082111562000107576000815560010162000112565b90565b600082601f8301126200013d57600080fd5b8151620001546200014e8262000244565b6200021d565b915080825260208301602083018583830111156200017157600080fd5b6200017e83828462000272565b50505092915050565b80516200019481620002a5565b92915050565b600080600060608486031215620001b057600080fd5b83516001600160401b03811115620001c757600080fd5b620001d5868287016200012b565b93505060208401516001600160401b03811115620001f257600080fd5b62000200868287016200012b565b9250506040620002138682870162000187565b9150509250925092565b6040518181016001600160401b03811182821017156200023c57600080fd5b604052919050565b60006001600160401b038211156200025b57600080fd5b506020601f91909101601f19160190565b60ff1690565b60005b838110156200028f57818101518382015260200162000275565b838111156200029f576000848401525b50505050565b620002b0816200026c565b8114620002bc57600080fd5b50565b610ec680620002cf6000396000f3fe608060405234801561001057600080fd5b50600436106100ea5760003560e01c806342966c681161008c57806395d89b411161006657806395d89b41146101cb578063a457c2d7146101d3578063a9059cbb146101e6578063dd62ed3e146101f9576100ea565b806342966c681461019057806370a08231146101a557806379cc6790146101b8576100ea565b806323b872dd116100c857806323b872dd14610142578063313ce56714610155578063395093511461016a57806340c10f191461017d576100ea565b806306fdde03146100ef578063095ea7b31461010d57806318160ddd1461012d575b600080fd5b6100f761020c565b6040516101049190610ca4565b60405180910390f35b61012061011b366004610a24565b6102a2565b6040516101049190610c96565b6101356102c0565b6040516101049190610d25565b6101206101503660046109d7565b6102c6565b61015d610353565b6040516101049190610d33565b610120610178366004610a24565b61035c565b61012061018b366004610a24565b6103b0565b6101a361019e366004610a54565b6103bc565b005b6101356101b3366004610977565b6103d0565b6101a36101c6366004610a24565b6103eb565b6100f76103f9565b6101206101e1366004610a24565b610459565b6101206101f4366004610a24565b6104c7565b61013561020736600461099d565b6104db565b60008054604080516020601f60026000196101006001881615020190951694909404938401819004810282018101909252828152606093909290918301828280156102985780601f1061026d57610100808354040283529160200191610298565b820191906000526020600020905b81548152906001019060200180831161027b57829003601f168201915b5050505050905090565b60006102b66102af610506565b848461050a565b5060015b92915050565b60055490565b60006102d38484846105c7565b610349846102df610506565b61034485604051806060016040528060288152602001610e13602891396001600160a01b038a1660009081526004602052604081209061031d610506565b6001600160a01b03168152602081019190915260400160002054919063ffffffff6106dd16565b61050a565b5060019392505050565b60025460ff1690565b60006102b6610369610506565b84610344856004600061037a610506565b6001600160a01b03908116825260208083019390935260409182016000908120918c16815292529020549063ffffffff61070916565b60006102b68383610735565b6103cd6103c7610506565b826107f5565b50565b6001600160a01b031660009081526003602052604090205490565b6103f582826108cb565b5050565b60018054604080516020601f600260001961010087891615020190951694909404938401819004810282018101909252828152606093909290918301828280156102985780601f1061026d57610100808354040283529160200191610298565b60006102b6610466610506565b8461034485604051806060016040528060258152602001610e5f6025913960046000610490610506565b6001600160a01b03908116825260208083019390935260409182016000908120918d1681529252902054919063ffffffff6106dd16565b60006102b66104d4610506565b84846105c7565b6001600160a01b03918216600090815260046020908152604080832093909416825291909152205490565b3390565b6001600160a01b0383166105395760405162461bcd60e51b815260040161053090610d05565b60405180910390fd5b6001600160a01b03821661055f5760405162461bcd60e51b815260040161053090610cc5565b6001600160a01b0380841660008181526004602090815260408083209487168084529490915290819020849055517f8c5be1e5ebec7d5bd14f71427d1e84f3dd0314c0f7b2291e5b200ac8c7c3b925906105ba908590610d25565b60405180910390a3505050565b6001600160a01b0383166105ed5760405162461bcd60e51b815260040161053090610cf5565b6001600160a01b0382166106135760405162461bcd60e51b815260040161053090610cb5565b61065681604051806060016040528060268152602001610ded602691396001600160a01b038616600090815260036020526040902054919063ffffffff6106dd16565b6001600160a01b03808516600090815260036020526040808220939093559084168152205461068b908263ffffffff61070916565b6001600160a01b0380841660008181526003602052604090819020939093559151908516907fddf252ad1be2c89b69c2b068fc378daa952ba7f163c4a11628f55a4df523b3ef906105ba908590610d25565b600081848411156107015760405162461bcd60e51b81526004016105309190610ca4565b505050900390565b60008282018381101561072e5760405162461bcd60e51b815260040161053090610cd5565b9392505050565b6001600160a01b03821661075b5760405162461bcd60e51b815260040161053090610d15565b60055461076e908263ffffffff61070916565b6005556001600160a01b03821660009081526003602052604090205461079a908263ffffffff61070916565b6001600160a01b0383166000818152600360205260408082209390935591519091907fddf252ad1be2c89b69c2b068fc378daa952ba7f163c4a11628f55a4df523b3ef906107e9908590610d25565b60405180910390a35050565b6001600160a01b03821661081b5760405162461bcd60e51b815260040161053090610ce5565b61085e81604051806060016040528060228152602001610dcb602291396001600160a01b038516600090815260036020526040902054919063ffffffff6106dd16565b6001600160a01b03831660009081526003602052604090205560055461088a908263ffffffff61091f16565b6005556040516000906001600160a01b038416907fddf252ad1be2c89b69c2b068fc378daa952ba7f163c4a11628f55a4df523b3ef906107e9908590610d25565b6108d582826107f5565b6103f5826108e1610506565b61034484604051806060016040528060248152602001610e3b602491396001600160a01b03881660009081526004602052604081209061031d610506565b600061072e83836040518060400160405280601e81526020017f536166654d6174683a207375627472616374696f6e206f766572666c6f7700008152506106dd565b80356102ba81610dad565b80356102ba81610dc1565b60006020828403121561098957600080fd5b60006109958484610961565b949350505050565b600080604083850312156109b057600080fd5b60006109bc8585610961565b92505060206109cd85828601610961565b9150509250929050565b6000806000606084860312156109ec57600080fd5b60006109f88686610961565b9350506020610a0986828701610961565b9250506040610a1a8682870161096c565b9150509250925092565b60008060408385031215610a3757600080fd5b6000610a438585610961565b92505060206109cd8582860161096c565b600060208284031215610a6657600080fd5b6000610995848461096c565b610a7b81610d59565b82525050565b6000610a8c82610d41565b610a968185610d45565b9350610aa6818560208601610d73565b610aaf81610da3565b9093019392505050565b6000610ac6602383610d45565b7f45524332303a207472616e7366657220746f20746865207a65726f206164647281526265737360e81b602082015260400192915050565b6000610b0b602283610d45565b7f45524332303a20617070726f766520746f20746865207a65726f206164647265815261737360f01b602082015260400192915050565b6000610b4f601b83610d45565b7f536166654d6174683a206164646974696f6e206f766572666c6f770000000000815260200192915050565b6000610b88602183610d45565b7f45524332303a206275726e2066726f6d20746865207a65726f206164647265738152607360f81b602082015260400192915050565b6000610bcb602583610d45565b7f45524332303a207472616e736665722066726f6d20746865207a65726f206164815264647265737360d81b602082015260400192915050565b6000610c12602483610d45565b7f45524332303a20617070726f76652066726f6d20746865207a65726f206164648152637265737360e01b602082015260400192915050565b6000610c58601f83610d45565b7f45524332303a206d696e7420746f20746865207a65726f206164647265737300815260200192915050565b610a7b81610d6a565b610a7b81610d6d565b602081016102ba8284610a72565b6020808252810161072e8184610a81565b602080825281016102ba81610ab9565b602080825281016102ba81610afe565b602080825281016102ba81610b42565b602080825281016102ba81610b7b565b602080825281016102ba81610bbe565b602080825281016102ba81610c05565b602080825281016102ba81610c4b565b602081016102ba8284610c84565b602081016102ba8284610c8d565b5190565b90815260200190565b60006102ba82610d5e565b151590565b6001600160a01b031690565b90565b60ff1690565b60005b83811015610d8e578181015183820152602001610d76565b83811115610d9d576000848401525b50505050565b601f01601f191690565b610db681610d4e565b81146103cd57600080fd5b610db681610d6a56fe45524332303a206275726e20616d6f756e7420657863656564732062616c616e636545524332303a207472616e7366657220616d6f756e7420657863656564732062616c616e636545524332303a207472616e7366657220616d6f756e74206578636565647320616c6c6f77616e636545524332303a206275726e20616d6f756e74206578636565647320616c6c6f77616e636545524332303a2064656372656173656420616c6c6f77616e63652062656c6f77207a65726fa365627a7a723158208b0accc853e8a965ba4efadde48ee7e78e47b59c6c59679b8087951d5c61b16e6c6578706572696d656e74616cf564736f6c63430005110040",
  "source": "/*\n    Copyright 2020 Dynamic Dollar Devs, based on the works of the Empty Set Squad\n\n    Licensed under the Apache License, Version 2.0 (the \"License\");\n    you may not use this file except in compliance with the License.\n    You may obtain a copy of the License at\n\n    http://www.apache.org/licenses/LICENSE-2.0\n\n    Unless required by applicable law or agreed to in writing, software\n    distributed under the License is distributed on an \"AS IS\" BASIS,\n    WITHOUT WARRANTIES OR CONDITIONS OF ANY KIND, either express or implied.\n    See the License for the specific language governing permissions and\n    limitations under the License.\n*/\n\npragma solidity ^0.5.17;\npragma experimental ABIEncoderV2;\n\nimport \"@openzeppelin/contracts/token/ERC20/ERC20Burnable.sol\";\nimport \"@openzeppelin/contracts/token/ERC20/ERC20Detailed.sol\";\n\ncontract MockToken is ERC20Detailed, ERC20Burnable {\n    constructor(string memory name, string memory symbol, uint8 decimals)\n    ERC20Detailed(name, symbol, decimals)\n    public\n    { }\n\n    function mint(address account, uint256 amount) external returns (bool) {\n        _mint(account, amount);\n        return true;\n    }\n}\n",
  "sourcePath": "/home/name/Desktop/Files/projects/dynamic/dollar/protocol/contracts/mock/MockToken.sol",
  "compiler": {
    "name": "solc",
    "version": "0.5.17+commit.d19bba13.Emscripten.clang"
  },
  "schemaVersion": "3.3.1",
  "updatedAt": "2020-11-25T22:34:45.277Z",
  "devdoc": {
    "methods": {
      "allowance(address,address)": {
        "details": "See {IERC20-allowance}."
      },
      "approve(address,uint256)": {
        "details": "See {IERC20-approve}.     * Requirements:     * - `spender` cannot be the zero address."
      },
      "balanceOf(address)": {
        "details": "See {IERC20-balanceOf}."
      },
      "burn(uint256)": {
        "details": "Destroys `amount` tokens from the caller.     * See {ERC20-_burn}."
      },
      "burnFrom(address,uint256)": {
        "details": "See {ERC20-_burnFrom}."
      },
      "decimals()": {
        "details": "Returns the number of decimals used to get its user representation. For example, if `decimals` equals `2`, a balance of `505` tokens should be displayed to a user as `5,05` (`505 / 10 ** 2`).     * Tokens usually opt for a value of 18, imitating the relationship between Ether and Wei.     * NOTE: This information is only used for _display_ purposes: it in no way affects any of the arithmetic of the contract, including {IERC20-balanceOf} and {IERC20-transfer}."
      },
      "decreaseAllowance(address,uint256)": {
        "details": "Atomically decreases the allowance granted to `spender` by the caller.     * This is an alternative to {approve} that can be used as a mitigation for problems described in {IERC20-approve}.     * Emits an {Approval} event indicating the updated allowance.     * Requirements:     * - `spender` cannot be the zero address. - `spender` must have allowance for the caller of at least `subtractedValue`."
      },
      "increaseAllowance(address,uint256)": {
        "details": "Atomically increases the allowance granted to `spender` by the caller.     * This is an alternative to {approve} that can be used as a mitigation for problems described in {IERC20-approve}.     * Emits an {Approval} event indicating the updated allowance.     * Requirements:     * - `spender` cannot be the zero address."
      },
      "name()": {
        "details": "Returns the name of the token."
      },
      "symbol()": {
        "details": "Returns the symbol of the token, usually a shorter version of the name."
      },
      "totalSupply()": {
        "details": "See {IERC20-totalSupply}."
      },
      "transfer(address,uint256)": {
        "details": "See {IERC20-transfer}.     * Requirements:     * - `recipient` cannot be the zero address. - the caller must have a balance of at least `amount`."
      },
      "transferFrom(address,address,uint256)": {
        "details": "See {IERC20-transferFrom}.     * Emits an {Approval} event indicating the updated allowance. This is not required by the EIP. See the note at the beginning of {ERC20};     * Requirements: - `sender` and `recipient` cannot be the zero address. - `sender` must have a balance of at least `amount`. - the caller must have allowance for `sender`'s tokens of at least `amount`."
      }
    }
  },
  "userdoc": {
    "methods": {}
  }
}