{
  "contractName": "MockMarket",
  "abi": [
    {
      "inputs": [
        {
          "internalType": "address",
          "name": "pool",
          "type": "address"
        }
      ],
      "payable": false,
      "stateMutability": "nonpayable",
      "type": "constructor"
    },
    {
      "anonymous": false,
      "inputs": [
        {
          "indexed": true,
          "internalType": "address",
          "name": "owner",
          "type": "address"
        },
        {
          "indexed": true,
          "internalType": "address",
          "name": "spender",
          "type": "address"
        },
        {
          "indexed": false,
          "internalType": "uint256",
          "name": "value",
          "type": "uint256"
        }
      ],
      "name": "CouponApproval",
      "type": "event"
    },
    {
      "anonymous": false,
      "inputs": [
        {
          "indexed": true,
          "internalType": "address",
          "name": "account",
          "type": "address"
        },
        {
          "indexed": true,
          "internalType": "uint256",
          "name": "epoch",
          "type": "uint256"
        },
        {
          "indexed": false,
          "internalType": "uint256",
          "name": "dollarAmount",
          "type": "uint256"
        },
        {
          "indexed": false,
          "internalType": "uint256",
          "name": "maxCouponAmount",
          "type": "uint256"
        }
      ],
      "name": "CouponBidPlaced",
      "type": "event"
    },
    {
      "anonymous": false,
      "inputs": [
        {
          "indexed": true,
          "internalType": "address",
          "name": "account",
          "type": "address"
        },
        {
          "indexed": true,
          "internalType": "uint256",
          "name": "epoch",
          "type": "uint256"
        },
        {
          "indexed": false,
          "internalType": "uint256",
          "name": "couponAmount",
          "type": "uint256"
        }
      ],
      "name": "CouponBurn",
      "type": "event"
    },
    {
      "anonymous": false,
      "inputs": [
        {
          "indexed": true,
          "internalType": "uint256",
          "name": "epoch",
          "type": "uint256"
        },
        {
          "indexed": false,
          "internalType": "uint256",
          "name": "couponsExpired",
          "type": "uint256"
        },
        {
          "indexed": false,
          "internalType": "uint256",
          "name": "lessRedeemable",
          "type": "uint256"
        },
        {
          "indexed": false,
          "internalType": "uint256",
          "name": "lessDebt",
          "type": "uint256"
        },
        {
          "indexed": false,
          "internalType": "uint256",
          "name": "newBonded",
          "type": "uint256"
        }
      ],
      "name": "CouponExpiration",
      "type": "event"
    },
    {
      "anonymous": false,
      "inputs": [
        {
          "indexed": true,
          "internalType": "address",
          "name": "account",
          "type": "address"
        },
        {
          "indexed": true,
          "internalType": "uint256",
          "name": "epoch",
          "type": "uint256"
        },
        {
          "indexed": false,
          "internalType": "uint256",
          "name": "dollarAmount",
          "type": "uint256"
        },
        {
          "indexed": false,
          "internalType": "uint256",
          "name": "couponAmount",
          "type": "uint256"
        }
      ],
      "name": "CouponPurchase",
      "type": "event"
    },
    {
      "anonymous": false,
      "inputs": [
        {
          "indexed": true,
          "internalType": "address",
          "name": "account",
          "type": "address"
        },
        {
          "indexed": true,
          "internalType": "uint256",
          "name": "epoch",
          "type": "uint256"
        },
        {
          "indexed": false,
          "internalType": "uint256",
          "name": "couponAmount",
          "type": "uint256"
        }
      ],
      "name": "CouponRedemption",
      "type": "event"
    },
    {
      "anonymous": false,
      "inputs": [
        {
          "indexed": true,
          "internalType": "address",
          "name": "from",
          "type": "address"
        },
        {
          "indexed": true,
          "internalType": "address",
          "name": "to",
          "type": "address"
        },
        {
          "indexed": true,
          "internalType": "uint256",
          "name": "epoch",
          "type": "uint256"
        },
        {
          "indexed": false,
          "internalType": "uint256",
          "name": "value",
          "type": "uint256"
        }
      ],
      "name": "CouponTransfer",
      "type": "event"
    },
    {
      "anonymous": false,
      "inputs": [
        {
          "indexed": true,
          "internalType": "address",
          "name": "from",
          "type": "address"
        },
        {
          "indexed": true,
          "internalType": "address",
          "name": "to",
          "type": "address"
        },
        {
          "indexed": false,
          "internalType": "uint256",
          "name": "value",
          "type": "uint256"
        }
      ],
      "name": "Transfer",
      "type": "event"
    },
    {
      "constant": true,
      "inputs": [
        {
          "internalType": "address",
          "name": "owner",
          "type": "address"
        },
        {
          "internalType": "address",
          "name": "spender",
          "type": "address"
        }
      ],
      "name": "allowance",
      "outputs": [
        {
          "internalType": "uint256",
          "name": "",
          "type": "uint256"
        }
      ],
      "payable": false,
      "stateMutability": "view",
      "type": "function"
    },
    {
      "constant": true,
      "inputs": [
        {
          "internalType": "address",
          "name": "owner",
          "type": "address"
        },
        {
          "internalType": "address",
          "name": "spender",
          "type": "address"
        }
      ],
      "name": "allowanceCoupons",
      "outputs": [
        {
          "internalType": "uint256",
          "name": "",
          "type": "uint256"
        }
      ],
      "payable": false,
      "stateMutability": "view",
      "type": "function"
    },
    {
      "constant": false,
      "inputs": [
        {
          "internalType": "address",
          "name": "spender",
          "type": "address"
        },
        {
          "internalType": "uint256",
          "name": "amount",
          "type": "uint256"
        }
      ],
      "name": "approve",
      "outputs": [
        {
          "internalType": "bool",
          "name": "",
          "type": "bool"
        }
      ],
      "payable": false,
      "stateMutability": "nonpayable",
      "type": "function"
    },
    {
      "constant": false,
      "inputs": [
        {
          "internalType": "address",
          "name": "spender",
          "type": "address"
        },
        {
          "internalType": "uint256",
          "name": "amount",
          "type": "uint256"
        }
      ],
      "name": "approveCoupons",
      "outputs": [],
      "payable": false,
      "stateMutability": "nonpayable",
      "type": "function"
    },
    {
      "constant": true,
      "inputs": [
        {
          "internalType": "address",
          "name": "candidate",
          "type": "address"
        }
      ],
      "name": "approveFor",
      "outputs": [
        {
          "internalType": "uint256",
          "name": "",
          "type": "uint256"
        }
      ],
      "payable": false,
      "stateMutability": "view",
      "type": "function"
    },
    {
      "constant": true,
      "inputs": [
        {
          "internalType": "address",
          "name": "account",
          "type": "address"
        }
      ],
      "name": "balanceOf",
      "outputs": [
        {
          "internalType": "uint256",
          "name": "",
          "type": "uint256"
        }
      ],
      "payable": false,
      "stateMutability": "view",
      "type": "function"
    },
    {
      "constant": true,
      "inputs": [
        {
          "internalType": "address",
          "name": "account",
          "type": "address"
        }
      ],
      "name": "balanceOfBonded",
      "outputs": [
        {
          "internalType": "uint256",
          "name": "",
          "type": "uint256"
        }
      ],
      "payable": false,
      "stateMutability": "view",
      "type": "function"
    },
    {
      "constant": true,
      "inputs": [
        {
          "internalType": "address",
          "name": "account",
          "type": "address"
        },
        {
          "internalType": "uint256",
          "name": "epoch",
          "type": "uint256"
        }
      ],
      "name": "balanceOfCoupons",
      "outputs": [
        {
          "internalType": "uint256",
          "name": "",
          "type": "uint256"
        }
      ],
      "payable": false,
      "stateMutability": "view",
      "type": "function"
    },
    {
      "constant": true,
      "inputs": [
        {
          "internalType": "address",
          "name": "account",
          "type": "address"
        }
      ],
      "name": "balanceOfStaged",
      "outputs": [
        {
          "internalType": "uint256",
          "name": "",
          "type": "uint256"
        }
      ],
      "payable": false,
      "stateMutability": "view",
      "type": "function"
    },
    {
      "constant": true,
      "inputs": [
        {
          "internalType": "uint256",
          "name": "epoch",
          "type": "uint256"
        }
      ],
      "name": "bootstrappingAt",
      "outputs": [
        {
          "internalType": "bool",
          "name": "",
          "type": "bool"
        }
      ],
      "payable": false,
      "stateMutability": "view",
      "type": "function"
    },
    {
      "constant": false,
      "inputs": [
        {
          "internalType": "address",
          "name": "account",
          "type": "address"
        },
        {
          "internalType": "uint256",
          "name": "amount",
          "type": "uint256"
        }
      ],
      "name": "burnFromAccountE",
      "outputs": [],
      "payable": false,
      "stateMutability": "nonpayable",
      "type": "function"
    },
    {
      "constant": false,
      "inputs": [
        {
          "internalType": "uint256",
          "name": "amount",
          "type": "uint256"
        }
      ],
      "name": "burnRedeemableE",
      "outputs": [],
      "payable": false,
      "stateMutability": "nonpayable",
      "type": "function"
    },
    {
      "constant": true,
      "inputs": [
        {
          "internalType": "uint256",
          "name": "amount",
          "type": "uint256"
        }
      ],
      "name": "couponPremium",
      "outputs": [
        {
          "internalType": "uint256",
          "name": "",
          "type": "uint256"
        }
      ],
      "payable": false,
      "stateMutability": "view",
      "type": "function"
    },
    {
      "constant": true,
      "inputs": [
        {
          "internalType": "uint256",
          "name": "couponEpoch",
          "type": "uint256"
        },
        {
          "internalType": "uint256",
          "name": "couponAmount",
          "type": "uint256"
        }
      ],
      "name": "couponRedemptionPenalty",
      "outputs": [
        {
          "internalType": "uint256",
          "name": "",
          "type": "uint256"
        }
      ],
      "payable": false,
      "stateMutability": "view",
      "type": "function"
    },
    {
      "constant": true,
      "inputs": [
        {
          "internalType": "uint256",
          "name": "epoch",
          "type": "uint256"
        }
      ],
      "name": "couponsExpiration",
      "outputs": [
        {
          "internalType": "uint256",
          "name": "",
          "type": "uint256"
        }
      ],
      "payable": false,
      "stateMutability": "view",
      "type": "function"
    },
    {
      "constant": false,
      "inputs": [
        {
          "internalType": "address",
          "name": "candidate",
          "type": "address"
        },
        {
          "internalType": "uint256",
          "name": "period",
          "type": "uint256"
        }
      ],
      "name": "createCandidateE",
      "outputs": [],
      "payable": false,
      "stateMutability": "nonpayable",
      "type": "function"
    },
    {
      "constant": true,
      "inputs": [],
      "name": "decimals",
      "outputs": [
        {
          "internalType": "uint8",
          "name": "",
          "type": "uint8"
        }
      ],
      "payable": false,
      "stateMutability": "view",
      "type": "function"
    },
    {
      "constant": false,
      "inputs": [
        {
          "internalType": "uint256",
          "name": "amount",
          "type": "uint256"
        }
      ],
      "name": "decreaseDebtE",
      "outputs": [],
      "payable": false,
      "stateMutability": "nonpayable",
      "type": "function"
    },
    {
      "constant": false,
      "inputs": [
        {
          "internalType": "address",
          "name": "owner",
          "type": "address"
        },
        {
          "internalType": "address",
          "name": "spender",
          "type": "address"
        },
        {
          "internalType": "uint256",
          "name": "amount",
          "type": "uint256"
        },
        {
          "internalType": "string",
          "name": "reason",
          "type": "string"
        }
      ],
      "name": "decrementAllowanceCouponsE",
      "outputs": [],
      "payable": false,
      "stateMutability": "nonpayable",
      "type": "function"
    },
    {
      "constant": false,
      "inputs": [
        {
          "internalType": "address",
          "name": "candidate",
          "type": "address"
        },
        {
          "internalType": "uint256",
          "name": "amount",
          "type": "uint256"
        },
        {
          "internalType": "string",
          "name": "reason",
          "type": "string"
        }
      ],
      "name": "decrementApproveForE",
      "outputs": [],
      "payable": false,
      "stateMutability": "nonpayable",
      "type": "function"
    },
    {
      "constant": false,
      "inputs": [
        {
          "internalType": "address",
          "name": "account",
          "type": "address"
        },
        {
          "internalType": "uint256",
          "name": "epoch",
          "type": "uint256"
        },
        {
          "internalType": "uint256",
          "name": "amount",
          "type": "uint256"
        },
        {
          "internalType": "string",
          "name": "reason",
          "type": "string"
        }
      ],
      "name": "decrementBalanceOfCouponsE",
      "outputs": [],
      "payable": false,
      "stateMutability": "nonpayable",
      "type": "function"
    },
    {
      "constant": false,
      "inputs": [
        {
          "internalType": "address",
          "name": "account",
          "type": "address"
        },
        {
          "internalType": "uint256",
          "name": "amount",
          "type": "uint256"
        },
        {
          "internalType": "string",
          "name": "reason",
          "type": "string"
        }
      ],
      "name": "decrementBalanceOfE",
      "outputs": [],
      "payable": false,
      "stateMutability": "nonpayable",
      "type": "function"
    },
    {
      "constant": false,
      "inputs": [
        {
          "internalType": "address",
          "name": "account",
          "type": "address"
        },
        {
          "internalType": "uint256",
          "name": "amount",
          "type": "uint256"
        },
        {
          "internalType": "string",
          "name": "reason",
          "type": "string"
        }
      ],
      "name": "decrementBalanceOfStagedE",
      "outputs": [],
      "payable": false,
      "stateMutability": "nonpayable",
      "type": "function"
    },
    {
      "constant": false,
      "inputs": [
        {
          "internalType": "address",
          "name": "candidate",
          "type": "address"
        },
        {
          "internalType": "uint256",
          "name": "amount",
          "type": "uint256"
        },
        {
          "internalType": "string",
          "name": "reason",
          "type": "string"
        }
      ],
      "name": "decrementRejectForE",
      "outputs": [],
      "payable": false,
      "stateMutability": "nonpayable",
      "type": "function"
    },
    {
      "constant": false,
      "inputs": [
        {
          "internalType": "uint256",
          "name": "amount",
          "type": "uint256"
        },
        {
          "internalType": "string",
          "name": "reason",
          "type": "string"
        }
      ],
      "name": "decrementTotalBondedE",
      "outputs": [],
      "payable": false,
      "stateMutability": "nonpayable",
      "type": "function"
    },
    {
      "constant": false,
      "inputs": [
        {
          "internalType": "uint256",
          "name": "amount",
          "type": "uint256"
        },
        {
          "internalType": "string",
          "name": "reason",
          "type": "string"
        }
      ],
      "name": "decrementTotalDebtE",
      "outputs": [],
      "payable": false,
      "stateMutability": "nonpayable",
      "type": "function"
    },
    {
      "constant": false,
      "inputs": [
        {
          "internalType": "uint256",
          "name": "amount",
          "type": "uint256"
        },
        {
          "internalType": "string",
          "name": "reason",
          "type": "string"
        }
      ],
      "name": "decrementTotalRedeemableE",
      "outputs": [],
      "payable": false,
      "stateMutability": "nonpayable",
      "type": "function"
    },
    {
      "constant": true,
      "inputs": [],
      "name": "dollar",
      "outputs": [
        {
          "internalType": "contract IDollar",
          "name": "",
          "type": "address"
        }
      ],
      "payable": false,
      "stateMutability": "view",
      "type": "function"
    },
    {
      "constant": false,
      "inputs": [
        {
          "internalType": "uint256",
          "name": "epoch",
          "type": "uint256"
        }
      ],
      "name": "eliminateOutstandingCouponsE",
      "outputs": [],
      "payable": false,
      "stateMutability": "nonpayable",
      "type": "function"
    },
    {
      "constant": true,
      "inputs": [],
      "name": "epoch",
      "outputs": [
        {
          "internalType": "uint256",
          "name": "",
          "type": "uint256"
        }
      ],
      "payable": false,
      "stateMutability": "view",
      "type": "function"
    },
    {
      "constant": true,
      "inputs": [],
      "name": "epochTime",
      "outputs": [
        {
          "internalType": "uint256",
          "name": "",
          "type": "uint256"
        }
      ],
      "payable": false,
      "stateMutability": "view",
      "type": "function"
    },
    {
      "constant": true,
      "inputs": [
        {
          "internalType": "uint256",
          "name": "epoch",
          "type": "uint256"
        }
      ],
      "name": "expiringCoupons",
      "outputs": [
        {
          "internalType": "uint256",
          "name": "",
          "type": "uint256"
        }
      ],
      "payable": false,
      "stateMutability": "view",
      "type": "function"
    },
    {
      "constant": true,
      "inputs": [
        {
          "internalType": "uint256",
          "name": "epoch",
          "type": "uint256"
        },
        {
          "internalType": "uint256",
          "name": "i",
          "type": "uint256"
        }
      ],
      "name": "expiringCouponsAtIndex",
      "outputs": [
        {
          "internalType": "uint256",
          "name": "",
          "type": "uint256"
        }
      ],
      "payable": false,
      "stateMutability": "view",
      "type": "function"
    },
    {
      "constant": true,
      "inputs": [
        {
          "internalType": "address",
          "name": "account",
          "type": "address"
        }
      ],
      "name": "fluidUntil",
      "outputs": [
        {
          "internalType": "uint256",
          "name": "",
          "type": "uint256"
        }
      ],
      "payable": false,
      "stateMutability": "view",
      "type": "function"
    },
    {
      "constant": true,
      "inputs": [
        {
          "internalType": "uint256",
          "name": "epoch",
          "type": "uint256"
        }
      ],
      "name": "getAvgExpiryFilled",
      "outputs": [
        {
          "internalType": "uint256",
          "name": "",
          "type": "uint256"
        }
      ],
      "payable": false,
      "stateMutability": "view",
      "type": "function"
    },
    {
      "constant": true,
      "inputs": [
        {
          "internalType": "uint256",
          "name": "epoch",
          "type": "uint256"
        }
      ],
      "name": "getAvgYieldFilled",
      "outputs": [
        {
          "internalType": "uint256",
          "name": "",
          "type": "uint256"
        }
      ],
      "payable": false,
      "stateMutability": "view",
      "type": "function"
    },
    {
      "constant": true,
      "inputs": [
        {
          "internalType": "uint256",
          "name": "epoch",
          "type": "uint256"
        }
      ],
      "name": "getBidToCover",
      "outputs": [
        {
          "internalType": "uint256",
          "name": "",
          "type": "uint256"
        }
      ],
      "payable": false,
      "stateMutability": "view",
      "type": "function"
    },
    {
      "constant": true,
      "inputs": [
        {
          "internalType": "uint256",
          "name": "epoch",
          "type": "uint256"
        }
      ],
      "name": "getMaxExpiryFilled",
      "outputs": [
        {
          "internalType": "uint256",
          "name": "",
          "type": "uint256"
        }
      ],
      "payable": false,
      "stateMutability": "view",
      "type": "function"
    },
    {
      "constant": true,
      "inputs": [
        {
          "internalType": "uint256",
          "name": "epoch",
          "type": "uint256"
        }
      ],
      "name": "getMaxYieldFilled",
      "outputs": [
        {
          "internalType": "uint256",
          "name": "",
          "type": "uint256"
        }
      ],
      "payable": false,
      "stateMutability": "view",
      "type": "function"
    },
    {
      "constant": true,
      "inputs": [
        {
          "internalType": "uint256",
          "name": "epoch",
          "type": "uint256"
        }
      ],
      "name": "getMinExpiryFilled",
      "outputs": [
        {
          "internalType": "uint256",
          "name": "",
          "type": "uint256"
        }
      ],
      "payable": false,
      "stateMutability": "view",
      "type": "function"
    },
    {
      "constant": true,
      "inputs": [
        {
          "internalType": "uint256",
          "name": "epoch",
          "type": "uint256"
        }
      ],
      "name": "getMinYieldFilled",
      "outputs": [
        {
          "internalType": "uint256",
          "name": "",
          "type": "uint256"
        }
      ],
      "payable": false,
      "stateMutability": "view",
      "type": "function"
    },
    {
      "constant": true,
      "inputs": [
        {
          "internalType": "uint256",
          "name": "epoch",
          "type": "uint256"
        }
      ],
      "name": "getTotalAuctioned",
      "outputs": [
        {
          "internalType": "uint256",
          "name": "",
          "type": "uint256"
        }
      ],
      "payable": false,
      "stateMutability": "view",
      "type": "function"
    },
    {
      "constant": true,
      "inputs": [
        {
          "internalType": "uint256",
          "name": "epoch",
          "type": "uint256"
        }
      ],
      "name": "getTotalBurned",
      "outputs": [
        {
          "internalType": "uint256",
          "name": "",
          "type": "uint256"
        }
      ],
      "payable": false,
      "stateMutability": "view",
      "type": "function"
    },
    {
      "constant": true,
      "inputs": [
        {
          "internalType": "uint256",
          "name": "epoch",
          "type": "uint256"
        }
      ],
      "name": "getTotalFilled",
      "outputs": [
        {
          "internalType": "uint256",
          "name": "",
          "type": "uint256"
        }
      ],
      "payable": false,
      "stateMutability": "view",
      "type": "function"
    },
    {
      "constant": true,
      "inputs": [],
      "name": "implementation",
      "outputs": [
        {
          "internalType": "address",
          "name": "impl",
          "type": "address"
        }
      ],
      "payable": false,
      "stateMutability": "view",
      "type": "function"
    },
    {
      "constant": false,
      "inputs": [
        {
          "internalType": "uint256",
          "name": "amount",
          "type": "uint256"
        }
      ],
      "name": "increaseDebtE",
      "outputs": [],
      "payable": false,
      "stateMutability": "nonpayable",
      "type": "function"
    },
    {
      "constant": false,
      "inputs": [
        {
          "internalType": "address",
          "name": "candidate",
          "type": "address"
        },
        {
          "internalType": "uint256",
          "name": "amount",
          "type": "uint256"
        }
      ],
      "name": "incrementApproveForE",
      "outputs": [],
      "payable": false,
      "stateMutability": "nonpayable",
      "type": "function"
    },
    {
      "constant": false,
      "inputs": [
        {
          "internalType": "address",
          "name": "account",
          "type": "address"
        },
        {
          "internalType": "uint256",
          "name": "epoch",
          "type": "uint256"
        },
        {
          "internalType": "uint256",
          "name": "amount",
          "type": "uint256"
        }
      ],
      "name": "incrementBalanceOfCouponsE",
      "outputs": [],
      "payable": false,
      "stateMutability": "nonpayable",
      "type": "function"
    },
    {
      "constant": false,
      "inputs": [
        {
          "internalType": "address",
          "name": "account",
          "type": "address"
        },
        {
          "internalType": "uint256",
          "name": "amount",
          "type": "uint256"
        }
      ],
      "name": "incrementBalanceOfE",
      "outputs": [],
      "payable": false,
      "stateMutability": "nonpayable",
      "type": "function"
    },
    {
      "constant": false,
      "inputs": [
        {
          "internalType": "address",
          "name": "account",
          "type": "address"
        },
        {
          "internalType": "uint256",
          "name": "amount",
          "type": "uint256"
        }
      ],
      "name": "incrementBalanceOfStagedE",
      "outputs": [],
      "payable": false,
      "stateMutability": "nonpayable",
      "type": "function"
    },
    {
      "constant": false,
      "inputs": [],
      "name": "incrementEpochE",
      "outputs": [],
      "payable": false,
      "stateMutability": "nonpayable",
      "type": "function"
    },
    {
      "constant": false,
      "inputs": [
        {
          "internalType": "address",
          "name": "candidate",
          "type": "address"
        },
        {
          "internalType": "uint256",
          "name": "amount",
          "type": "uint256"
        }
      ],
      "name": "incrementRejectForE",
      "outputs": [],
      "payable": false,
      "stateMutability": "nonpayable",
      "type": "function"
    },
    {
      "constant": false,
      "inputs": [
        {
          "internalType": "uint256",
          "name": "amount",
          "type": "uint256"
        }
      ],
      "name": "incrementTotalBondedE",
      "outputs": [],
      "payable": false,
      "stateMutability": "nonpayable",
      "type": "function"
    },
    {
      "constant": false,
      "inputs": [
        {
          "internalType": "uint256",
          "name": "amount",
          "type": "uint256"
        }
      ],
      "name": "incrementTotalDebtE",
      "outputs": [],
      "payable": false,
      "stateMutability": "nonpayable",
      "type": "function"
    },
    {
      "constant": false,
      "inputs": [
        {
          "internalType": "uint256",
          "name": "amount",
          "type": "uint256"
        }
      ],
      "name": "incrementTotalRedeemableE",
      "outputs": [],
      "payable": false,
      "stateMutability": "nonpayable",
      "type": "function"
    },
    {
      "constant": false,
      "inputs": [
        {
          "internalType": "uint256",
          "name": "epoch",
          "type": "uint256"
        },
        {
          "internalType": "uint256",
          "name": "expiration",
          "type": "uint256"
        }
      ],
      "name": "initializeCouponsExpirationE",
      "outputs": [],
      "payable": false,
      "stateMutability": "nonpayable",
      "type": "function"
    },
    {
      "constant": false,
      "inputs": [
        {
          "internalType": "address",
          "name": "candidate",
          "type": "address"
        }
      ],
      "name": "initializedE",
      "outputs": [],
      "payable": false,
      "stateMutability": "nonpayable",
      "type": "function"
    },
    {
      "constant": false,
      "inputs": [
        {
          "internalType": "uint256",
          "name": "epoch",
          "type": "uint256"
        }
      ],
      "name": "isCouponAuctionInitAtEpochE",
      "outputs": [
        {
          "internalType": "bool",
          "name": "",
          "type": "bool"
        }
      ],
      "payable": false,
      "stateMutability": "nonpayable",
      "type": "function"
    },
    {
      "constant": true,
      "inputs": [
        {
          "internalType": "address",
          "name": "candidate",
          "type": "address"
        }
      ],
      "name": "isInitialized",
      "outputs": [
        {
          "internalType": "bool",
          "name": "",
          "type": "bool"
        }
      ],
      "payable": false,
      "stateMutability": "view",
      "type": "function"
    },
    {
      "constant": true,
      "inputs": [
        {
          "internalType": "address",
          "name": "candidate",
          "type": "address"
        }
      ],
      "name": "isNominated",
      "outputs": [
        {
          "internalType": "bool",
          "name": "",
          "type": "bool"
        }
      ],
      "payable": false,
      "stateMutability": "view",
      "type": "function"
    },
    {
      "constant": true,
      "inputs": [
        {
          "internalType": "address",
          "name": "account",
          "type": "address"
        }
      ],
      "name": "lockedUntil",
      "outputs": [
        {
          "internalType": "uint256",
          "name": "",
          "type": "uint256"
        }
      ],
      "payable": false,
      "stateMutability": "view",
      "type": "function"
    },
    {
      "constant": false,
      "inputs": [
        {
          "internalType": "address",
          "name": "account",
          "type": "address"
        },
        {
          "internalType": "uint256",
          "name": "amount",
          "type": "uint256"
        }
      ],
      "name": "mintToAccountE",
      "outputs": [],
      "payable": false,
      "stateMutability": "nonpayable",
      "type": "function"
    },
    {
      "constant": false,
      "inputs": [
        {
          "internalType": "address",
          "name": "account",
          "type": "address"
        },
        {
          "internalType": "uint256",
          "name": "amount",
          "type": "uint256"
        }
      ],
      "name": "mintToE",
      "outputs": [],
      "payable": false,
      "stateMutability": "nonpayable",
      "type": "function"
    },
    {
      "constant": true,
      "inputs": [],
      "name": "name",
      "outputs": [
        {
          "internalType": "string",
          "name": "",
          "type": "string"
        }
      ],
      "payable": false,
      "stateMutability": "view",
      "type": "function"
    },
    {
      "constant": true,
      "inputs": [],
      "name": "oracle",
      "outputs": [
        {
          "internalType": "contract IOracle",
          "name": "",
          "type": "address"
        }
      ],
      "payable": false,
      "stateMutability": "view",
      "type": "function"
    },
    {
      "constant": true,
      "inputs": [
        {
          "internalType": "uint256",
          "name": "epoch",
          "type": "uint256"
        }
      ],
      "name": "outstandingCoupons",
      "outputs": [
        {
          "internalType": "uint256",
          "name": "",
          "type": "uint256"
        }
      ],
      "payable": false,
      "stateMutability": "view",
      "type": "function"
    },
    {
      "constant": true,
      "inputs": [
        {
          "internalType": "address",
          "name": "candidate",
          "type": "address"
        }
      ],
      "name": "periodFor",
      "outputs": [
        {
          "internalType": "uint256",
          "name": "",
          "type": "uint256"
        }
      ],
      "payable": false,
      "stateMutability": "view",
      "type": "function"
    },
    {
      "constant": false,
      "inputs": [
        {
          "internalType": "uint256",
          "name": "couponEpochExpiry",
          "type": "uint256"
        },
        {
          "internalType": "uint256",
          "name": "dollarAmount",
          "type": "uint256"
        },
        {
          "internalType": "uint256",
          "name": "maxCouponAmount",
          "type": "uint256"
        }
      ],
      "name": "placeCouponAuctionBid",
      "outputs": [
        {
          "internalType": "bool",
          "name": "",
          "type": "bool"
        }
      ],
      "payable": false,
      "stateMutability": "nonpayable",
      "type": "function"
    },
    {
      "constant": false,
      "inputs": [
        {
          "internalType": "address",
          "name": "account",
          "type": "address"
        },
        {
          "internalType": "address",
          "name": "candidate",
          "type": "address"
        }
      ],
      "name": "placeLockE",
      "outputs": [],
      "payable": false,
      "stateMutability": "nonpayable",
      "type": "function"
    },
    {
      "constant": true,
      "inputs": [],
      "name": "pool",
      "outputs": [
        {
          "internalType": "address",
          "name": "",
          "type": "address"
        }
      ],
      "payable": false,
      "stateMutability": "view",
      "type": "function"
    },
    {
      "constant": false,
      "inputs": [
        {
          "internalType": "uint256",
          "name": "dollarAmount",
          "type": "uint256"
        }
      ],
      "name": "purchaseCoupons",
      "outputs": [
        {
          "internalType": "uint256",
          "name": "",
          "type": "uint256"
        }
      ],
      "payable": false,
      "stateMutability": "nonpayable",
      "type": "function"
    },
    {
      "constant": false,
      "inputs": [
        {
          "internalType": "address",
          "name": "account",
          "type": "address"
        },
        {
          "internalType": "address",
          "name": "candidate",
          "type": "address"
        },
        {
          "internalType": "enum Candidate.Vote",
          "name": "vote",
          "type": "uint8"
        }
      ],
      "name": "recordVoteE",
      "outputs": [],
      "payable": false,
      "stateMutability": "nonpayable",
      "type": "function"
    },
    {
      "constant": true,
      "inputs": [
        {
          "internalType": "address",
          "name": "account",
          "type": "address"
        },
        {
          "internalType": "address",
          "name": "candidate",
          "type": "address"
        }
      ],
      "name": "recordedVote",
      "outputs": [
        {
          "internalType": "enum Candidate.Vote",
          "name": "",
          "type": "uint8"
        }
      ],
      "payable": false,
      "stateMutability": "view",
      "type": "function"
    },
    {
      "constant": false,
      "inputs": [
        {
          "internalType": "uint256",
          "name": "couponEpoch",
          "type": "uint256"
        },
        {
          "internalType": "uint256",
          "name": "couponAmount",
          "type": "uint256"
        },
        {
          "internalType": "uint256",
          "name": "minOutput",
          "type": "uint256"
        }
      ],
      "name": "redeemCoupons",
      "outputs": [],
      "payable": false,
      "stateMutability": "nonpayable",
      "type": "function"
    },
    {
      "constant": false,
      "inputs": [
        {
          "internalType": "uint256",
          "name": "couponEpoch",
          "type": "uint256"
        },
        {
          "internalType": "uint256",
          "name": "couponAmount",
          "type": "uint256"
        }
      ],
      "name": "redeemCoupons",
      "outputs": [],
      "payable": false,
      "stateMutability": "nonpayable",
      "type": "function"
    },
    {
      "constant": false,
      "inputs": [
        {
          "internalType": "address",
          "name": "account",
          "type": "address"
        },
        {
          "internalType": "uint256",
          "name": "amount",
          "type": "uint256"
        }
      ],
      "name": "redeemToAccountE",
      "outputs": [],
      "payable": false,
      "stateMutability": "nonpayable",
      "type": "function"
    },
    {
      "constant": true,
      "inputs": [
        {
          "internalType": "address",
          "name": "candidate",
          "type": "address"
        }
      ],
      "name": "rejectFor",
      "outputs": [
        {
          "internalType": "uint256",
          "name": "",
          "type": "uint256"
        }
      ],
      "payable": false,
      "stateMutability": "view",
      "type": "function"
    },
    {
      "constant": false,
      "inputs": [
        {
          "internalType": "uint256",
          "name": "percent",
          "type": "uint256"
        }
      ],
      "name": "resetDebtE",
      "outputs": [],
      "payable": false,
      "stateMutability": "nonpayable",
      "type": "function"
    },
    {
      "constant": false,
      "inputs": [
        {
          "internalType": "uint256",
          "name": "timestamp",
          "type": "uint256"
        }
      ],
      "name": "setBlockTimestamp",
      "outputs": [],
      "payable": false,
      "stateMutability": "nonpayable",
      "type": "function"
    },
    {
      "constant": false,
      "inputs": [
        {
          "internalType": "uint256",
          "name": "start",
          "type": "uint256"
        },
        {
          "internalType": "uint256",
          "name": "period",
          "type": "uint256"
        }
      ],
      "name": "setEpochParamsE",
      "outputs": [],
      "payable": false,
      "stateMutability": "nonpayable",
      "type": "function"
    },
    {
      "constant": false,
      "inputs": [],
      "name": "snapshotTotalBondedE",
      "outputs": [],
      "payable": false,
      "stateMutability": "nonpayable",
      "type": "function"
    },
    {
      "constant": true,
      "inputs": [
        {
          "internalType": "address",
          "name": "candidate",
          "type": "address"
        }
      ],
      "name": "startFor",
      "outputs": [
        {
          "internalType": "uint256",
          "name": "",
          "type": "uint256"
        }
      ],
      "payable": false,
      "stateMutability": "view",
      "type": "function"
    },
    {
      "constant": true,
      "inputs": [
        {
          "internalType": "address",
          "name": "account",
          "type": "address"
        }
      ],
      "name": "statusOf",
      "outputs": [
        {
          "internalType": "enum Account.Status",
          "name": "",
          "type": "uint8"
        }
      ],
      "payable": false,
      "stateMutability": "view",
      "type": "function"
    },
    {
      "constant": true,
      "inputs": [],
      "name": "symbol",
      "outputs": [
        {
          "internalType": "string",
          "name": "",
          "type": "string"
        }
      ],
      "payable": false,
      "stateMutability": "view",
      "type": "function"
    },
    {
      "constant": true,
      "inputs": [],
      "name": "totalBonded",
      "outputs": [
        {
          "internalType": "uint256",
          "name": "",
          "type": "uint256"
        }
      ],
      "payable": false,
      "stateMutability": "view",
      "type": "function"
    },
    {
      "constant": true,
      "inputs": [
        {
          "internalType": "uint256",
          "name": "epoch",
          "type": "uint256"
        }
      ],
      "name": "totalBondedAt",
      "outputs": [
        {
          "internalType": "uint256",
          "name": "",
          "type": "uint256"
        }
      ],
      "payable": false,
      "stateMutability": "view",
      "type": "function"
    },
    {
      "constant": true,
      "inputs": [],
      "name": "totalCoupons",
      "outputs": [
        {
          "internalType": "uint256",
          "name": "",
          "type": "uint256"
        }
      ],
      "payable": false,
      "stateMutability": "view",
      "type": "function"
    },
    {
      "constant": true,
      "inputs": [],
      "name": "totalDebt",
      "outputs": [
        {
          "internalType": "uint256",
          "name": "",
          "type": "uint256"
        }
      ],
      "payable": false,
      "stateMutability": "view",
      "type": "function"
    },
    {
      "constant": true,
      "inputs": [],
      "name": "totalNet",
      "outputs": [
        {
          "internalType": "uint256",
          "name": "",
          "type": "uint256"
        }
      ],
      "payable": false,
      "stateMutability": "view",
      "type": "function"
    },
    {
      "constant": true,
      "inputs": [],
      "name": "totalRedeemable",
      "outputs": [
        {
          "internalType": "uint256",
          "name": "",
          "type": "uint256"
        }
      ],
      "payable": false,
      "stateMutability": "view",
      "type": "function"
    },
    {
      "constant": true,
      "inputs": [],
      "name": "totalStaged",
      "outputs": [
        {
          "internalType": "uint256",
          "name": "",
          "type": "uint256"
        }
      ],
      "payable": false,
      "stateMutability": "view",
      "type": "function"
    },
    {
      "constant": true,
      "inputs": [],
      "name": "totalSupply",
      "outputs": [
        {
          "internalType": "uint256",
          "name": "",
          "type": "uint256"
        }
      ],
      "payable": false,
      "stateMutability": "view",
      "type": "function"
    },
    {
      "constant": false,
      "inputs": [
        {
          "internalType": "address",
          "name": "recipient",
          "type": "address"
        },
        {
          "internalType": "uint256",
          "name": "amount",
          "type": "uint256"
        }
      ],
      "name": "transfer",
      "outputs": [
        {
          "internalType": "bool",
          "name": "",
          "type": "bool"
        }
      ],
      "payable": false,
      "stateMutability": "nonpayable",
      "type": "function"
    },
    {
      "constant": false,
      "inputs": [
        {
          "internalType": "address",
          "name": "sender",
          "type": "address"
        },
        {
          "internalType": "address",
          "name": "recipient",
          "type": "address"
        },
        {
          "internalType": "uint256",
          "name": "epoch",
          "type": "uint256"
        },
        {
          "internalType": "uint256",
          "name": "amount",
          "type": "uint256"
        }
      ],
      "name": "transferCoupons",
      "outputs": [],
      "payable": false,
      "stateMutability": "nonpayable",
      "type": "function"
    },
    {
      "constant": false,
      "inputs": [
        {
          "internalType": "address",
          "name": "sender",
          "type": "address"
        },
        {
          "internalType": "address",
          "name": "recipient",
          "type": "address"
        },
        {
          "internalType": "uint256",
          "name": "amount",
          "type": "uint256"
        }
      ],
      "name": "transferFrom",
      "outputs": [
        {
          "internalType": "bool",
          "name": "",
          "type": "bool"
        }
      ],
      "payable": false,
      "stateMutability": "nonpayable",
      "type": "function"
    },
    {
      "constant": false,
      "inputs": [
        {
          "internalType": "address",
          "name": "account",
          "type": "address"
        }
      ],
      "name": "unfreezeE",
      "outputs": [],
      "payable": false,
      "stateMutability": "nonpayable",
      "type": "function"
    },
    {
      "constant": false,
      "inputs": [
        {
          "internalType": "address",
          "name": "owner",
          "type": "address"
        },
        {
          "internalType": "address",
          "name": "spender",
          "type": "address"
        },
        {
          "internalType": "uint256",
          "name": "amount",
          "type": "uint256"
        }
      ],
      "name": "updateAllowanceCouponsE",
      "outputs": [],
      "payable": false,
      "stateMutability": "nonpayable",
      "type": "function"
    },
    {
      "constant": true,
      "inputs": [
        {
          "internalType": "address",
          "name": "candidate",
          "type": "address"
        }
      ],
      "name": "votesFor",
      "outputs": [
        {
          "internalType": "uint256",
          "name": "",
          "type": "uint256"
        }
      ],
      "payable": false,
      "stateMutability": "view",
      "type": "function"
    },
    {
      "constant": false,
      "inputs": [],
      "name": "stepE",
      "outputs": [],
      "payable": false,
      "stateMutability": "nonpayable",
      "type": "function"
    }
  ],
  "bytecode": "0x60806040523480156200001157600080fd5b506040516200618d3803806200618d8339810160408190526200003491620000bd565b42600f55604051819062000048906200009c565b604051809103906000f08015801562000065573d6000803e3d6000fd5b50600980546001600160a01b039283166001600160a01b031991821617909155600b80549390921692169190911790555062000112565b611c06806200458783390190565b8051620000b781620000f8565b92915050565b600060208284031215620000d057600080fd5b6000620000de8484620000aa565b949350505050565b60006001600160a01b038216620000b7565b6200010381620000e6565b81146200010f57600080fd5b50565b61446580620001226000396000f3fe608060405234801561001057600080fd5b50600436106105805760003560e01c80638413e52a116102e5578063bc7513e21161018d578063d6d8816d116100f4578063e5f55c7e116100ad578063f35adf7e11610087578063f35adf7e14610c25578063f7a3181814610c2d578063fc7b9c1814610c40578063ffbe3b7314610c4857610580565b8063e5f55c7e14610bec578063eeaca09b14610bff578063f1b7cf4914610c1257610580565b8063d6d8816d14610b7f578063d83d3ed514610b92578063d8f5413814610ba5578063dd62ed3e14610bb8578063dde74dc314610bc6578063e0abdf6614610bd957610580565b8063cb0fbc7111610146578063cb0fbc7114610b18578063cc8d823c14610b2b578063cf02377914610b3e578063d53c6f5f14610b46578063d60b347f14610b59578063d6a9cf0814610b6c57610580565b8063bc7513e214610aa6578063c1410c0214610ab9578063c2aeb5fe14610acc578063c34eee6514610adf578063c45a3e0a14610af2578063c9aff70c14610b0557610580565b8063a00e14d11161024c578063a9b3cf1511610205578063b11ee0e3116101df578063b11ee0e314610a5a578063b16144a314610a6d578063b32a2f9014610a80578063bc0b1df614610a9357610580565b8063a9b3cf1514610a21578063adbff2be14610a34578063ae5c238114610a4757610580565b8063a00e14d1146109cd578063a1eb31e8146109e0578063a50cd8e7146109f3578063a6c409f114610a06578063a6f37b5314610a0e578063a9059cbb146105b857610580565b80639a649edc1161029e5780639a649edc146109665780639b82b49b1461096e5780639bc289f1146109815780639be46493146109945780639f1a0929146109a75780639f6e1b26146109ba57610580565b80638413e52a1461090a57806386cf9f141461091d5780638de2e57314610930578063900cf0cf1461094357806395d89b411461094b57806397a5d5b51461095357610580565b80633f7bcaf3116104485780635dbf800a116103af57806371c511eb116103685780637cb95a32116103425780637cb95a32146108c95780637d8bb869146108dc5780637dc0d1d0146108ef578063825ad607146108f757610580565b806371c511eb1461089b57806372924d2a146108a357806375d5024b146108b657610580565b80635dbf800a146108295780635f14fec81461083c578063646680221461084f5780636a39e328146108625780636b862d661461087557806370a082311461088857610580565b80634c736099116104015780634c736099146107cb5780635053e461146107de57806351adeb57146107e657806351bf21d8146107fb578063520acb761461080e5780635c60da1b1461082157610580565b80633f7bcaf3146107625780633fbba9a6146107755780633fd4973c14610795578063416a23cc146107a857806343873526146107b057806344d96e95146107c357610580565b806320f6bc90116104ec5780632f7f889e116104a55780632f7f889e146106ee578063313ce567146107015780633234742214610716578063353a420c146107295780633a3e6c811461073c5780633dc905c71461074f57610580565b806320f6bc901461067c57806323b872dd1461068f57806324772c04146106a2578063259f7adf146106b5578063277805a9146106c85780632d7f23b3146106db57610580565b806315e14bf61161053e57806315e14bf61461061e57806316f0115b1461063157806318160ddd146106465780631a08e22a1461064e5780631edbcf6c146106615780631fac97321461066957610580565b80625edd371461058557806306fdde031461059a578063095ea7b3146105b85780630dc6d3a3146105d857806310e95b6c146105eb5780631550ec241461060b575b600080fd5b610598610593366004613c79565b610c5b565b005b6105a2610d7e565b6040516105af91906141e7565b60405180910390f35b6105cb6105c6366004613cda565b610db5565b6040516105af91906141bd565b6105986105e6366004613bfb565b610dbe565b6105fe6105f9366004613df7565b610e07565b6040516105af9190614258565b6105cb610619366004613df7565b610e1f565b6105fe61062c366004613b13565b610e34565b610639610e52565b6040516105af919061416c565b6105fe610e61565b61059861065c366004613e89565b610e67565b6105fe610e75565b610598610677366004613df7565b610e7b565b61059861068a366004613cda565b610e87565b6105cb61069d366004613bb8565b610e91565b6105cb6106b0366004613ea8565b610e9b565b6105986106c3366004613df7565b611069565b6105986106d6366004613cda565b611072565b6105fe6106e9366004613df7565b6110fe565b6105986106fc366004613cda565b611113565b610709611193565b6040516105af91906142a9565b610598610724366004613e33565b611198565b6105fe610737366004613b13565b6111d8565b6105cb61074a366004613b13565b6111f6565b6105fe61075d366004613df7565b611213565b610598610770366004613bb8565b611228565b610788610783366004613b31565b611233565b6040516105af91906141d9565b6105986107a3366004613d0a565b611266565b6105986112ad565b6105986107be366004613df7565b6112b7565b6105fe6112c0565b6105fe6107d9366004613e89565b6112c6565b6105fe6112f6565b6107ee611319565b6040516105af91906141cb565b6105fe610809366004613b13565b611328565b6105fe61081c366004613df7565b611346565b61063961135b565b610598610837366004613df7565b611380565b61059861084a366004613cda565b611389565b6105fe61085d366004613b13565b611393565b6105fe610870366004613df7565b6113b1565b610598610883366004613d72565b6113c6565b6105fe610896366004613b13565b6113d1565b6105986113ef565b6105986108b1366004613e33565b6113f7565b6105cb6108c4366004613df7565b611437565b6105986108d7366004613d0a565b61144a565b6105fe6108ea366004613df7565b61148b565b6107ee6114a0565b6105fe610905366004613b13565b6114af565b610598610918366004613b6b565b6114fb565b6105fe61092b366004613b13565b611506565b61059861093e366004613df7565b611521565b6105fe61152a565b6105a2611530565b610788610961366004613b13565b61154e565b6105fe6115b3565b61059861097c366004613e33565b6115b9565b6105fe61098f366004613b13565b6115f9565b6105986109a2366004613b13565b611617565b6105fe6109b5366004613df7565b611620565b6105fe6109c8366004613b31565b611636565b6105986109db366004613e89565b611665565b6105fe6109ee366004613e89565b611670565b6105fe610a01366004613b13565b611796565b6105fe6117ad565b610598610a1c366004613b13565b611843565b610598610a2f366004613df7565b61184c565b610598610a42366004613d0a565b611855565b610598610a55366004613cda565b611896565b610598610a68366004613cda565b6118a0565b610598610a7b366004613df7565b6118aa565b610598610a8e366004613d0a565b6118bd565b610598610aa1366004613ea8565b6118fe565b6105fe610ab4366004613cda565b611a32565b610598610ac7366004613b31565b611a76565b610598610ada366004613da4565b611a80565b6105fe610aed366004613df7565b611ac2565b610598610b00366004613cda565b611ad7565b6105fe610b13366004613df7565b611ae1565b6105fe610b26366004613df7565b611af6565b610598610b39366004613cda565b611b0b565b6105fe611b15565b6105fe610b54366004613df7565b611b1b565b6105cb610b67366004613b13565b611b30565b610598610b7a366004613e89565b611b51565b610598610b8d366004613df7565b611c4d565b610598610ba0366004613cda565b611c56565b6105fe610bb3366004613df7565b611c60565b6105fe6105c6366004613b31565b6105fe610bd4366004613df7565b611ceb565b610598610be7366004613df7565b611d00565b6105fe610bfa366004613df7565b611d05565b6105fe610c0d366004613df7565b611dd3565b6105fe610c20366004613b13565b611de8565b610598611e03565b610598610c3b366004613cda565b611e0b565b6105fe611e15565b6105fe610c56366004613df7565b611e1b565b6001600160a01b038416610c8a5760405162461bcd60e51b8152600401610c8190614238565b60405180910390fd5b6001600160a01b038316610cb05760405162461bcd60e51b8152600401610c8190614208565b610cd484838360405180606001604052806023815260200161438a60239139611e2d565b610cdf838383611ed8565b336001600160a01b03851614801590610d035750600019610d008533611636565b14155b15610d2c57610d2c8433836040518060600160405280602481526020016143ad60249139611f7f565b81836001600160a01b0316856001600160a01b03167f0f1dbb1ccbe57a1590c7baad7b01d581b730c9ebc535dcde4345e6db424063d884604051610d709190614258565b60405180910390a450505050565b60408051808201909152601881527f44796e616d69632053657420446f6c6c6172205374616b650000000000000000602082015290565b60005b92915050565b610e0085858585858080601f016020809104026020016040519081016040528093929190818152602001838380828437600092019190915250611f7f92505050565b5050505050565b6000818152600d60205260409020600201545b919050565b6000610e2a82611ff0565b5460ff1692915050565b6001600160a01b03166000908152600e602052604090206001015490565b600b546001600160a01b031690565b60035490565b610e718282612004565b5050565b60065490565b610e8481612036565b50565b610e71828261207d565b60005b9392505050565b6000610ed4600085116513585c9ad95d60d21b7f4d7573742068617665206e6f6e2d7a65726f2065787069727900000000000000612125565b610f0b600084116513585c9ad95d60d21b7f4d75737420626964206e6f6e2d7a65726f20616d6f756e740000000000000000612125565b610f42600083116513585c9ad95d60d21b7f4d75737420626964206f6e206e6f6e2d7a65726f20616d6f756e740000000000612125565b610f7283610f4e611e15565b10156513585c9ad95d60d21b6e139bdd08195b9bdd59da081919589d608a1b612125565b610faf610f7f338561217a565b6513585c9ad95d60d21b7f4d757374206861766520656e6f75676820696e206163636f756e740000000000612125565b6000610fc985610fbd61152a565b9063ffffffff61221516565b9050610fe3610fde848663ffffffff61223a16565b61227c565b610fec84612312565b610ff5816123a8565b6110013382868661243e565b61101261100c6124ac565b336124d3565b61101a61252d565b80336001600160a01b03167f9f5acf79fa92396b7f3cb679d46ed617794dc8709703e9111f109216820301028686604051611056929190614266565b60405180910390a3506001949350505050565b610e8481612555565b61107a611319565b6001600160a01b03166340c10f1983836040518363ffffffff1660e01b81526004016110a79291906141a2565b602060405180830381600087803b1580156110c157600080fd5b505af11580156110d5573d6000803e3d6000fd5b505050506040513d601f19601f820116820180604052506110f99190810190613dd9565b505050565b6000908152600d60205260409020600a015490565b6001600160a01b0382166111395760405162461bcd60e51b8152600401610c8190614228565b61114433838361256e565b816001600160a01b0316336001600160a01b03167f8ff27e6b95060c1ca851e7c2c28af8b413eb1a8bcb637b0290da9543a709cce3836040516111879190614258565b60405180910390a35050565b601290565b6110f98383838080601f01602080910402602001604051908101604052809392919081815260200183838082843760009201919091525061259e92505050565b6001600160a01b03166000908152600e602052604090206003015490565b6001600160a01b03166000908152600e6020526040902054151590565b6000908152600d60205260409020600e015490565b6110f983838361256e565b6001600160a01b038082166000908152600e60209081526040808320938616835260049093019052205460ff1692915050565b6112a7848484848080601f0160208091040260200160405190810160405280939291908181526020018383808284376000920191909152506125b992505050565b50505050565b6112b561260a565b565b610e8481612669565b60045490565b6000828152600d602052604081206003018054839081106112e357fe5b9060005260206000200154905092915050565b6000611300613a5f565b61130861267d565b9050611313816126ac565b91505090565b6009546001600160a01b031690565b6001600160a01b03166000908152600c602052604090206004015490565b6000908152600d602052604090206010015490565b7f360894a13ba1a3210667c828492db98dca3e2076cc3735a920a3ca505d382bbc5490565b610e84816126ce565b610e718282612755565b6001600160a01b03166000908152600e602052604090206002015490565b6000908152600d602052604090206003015490565b6110f9838383611ed8565b6001600160a01b03166000908152600c602052604090206001015490565b6112b5612866565b6110f98383838080601f01602080910402602001604051908101604052809392919081815260200183838082843760009201919091525061288d92505050565b60006114416128a8565b90911115919050565b6112a7848484848080601f0160208091040260200160405190810160405280939291908181526020018383808284376000920191909152506128ad92505050565b6000908152600d602052604090206012015490565b600a546001600160a01b031690565b6000806114ba610e61565b9050806114cb576000915050610e1a565b610e94816114ef6114db866113d1565b6114e36112c0565b9063ffffffff6128fe16565b9063ffffffff61223a16565b6110f9838383612938565b6001600160a01b03166000908152600c602052604090205490565b610e8481612982565b60025490565b6040805180820190915260048152634453445360e01b602082015290565b600061155861152a565b6001600160a01b0383166000908152600c6020526040902060050154111561158257506002610e1a565b6001600160a01b0382166000908152600c60205260409020600401546115a661152a565b1015610db5576001610db8565b60085490565b6110f98383838080601f01602080910402602001604051908101604052809392919081815260200183838082843760009201919091525061299b92505050565b6001600160a01b03166000908152600c602052604090206005015490565b610e84816129b6565b6000908152600d60208190526040909120015490565b6001600160a01b039182166000908152600c602090815260408083209390941682526003909201909152205490565b600091909155600155565b60008061167b61267d565b60400151428161168757fe5b06905060008461169561152a565b03905060006116a26129e0565b826116ab6129e0565b036116b46129e6565b02816116bc57fe5b049050808311156116d35760009350505050610db8565b6116db613a80565b61172e6040518060200160405280856116f26129e0565b03815250611722604051806020016040528061170c6129e0565b90526117166129ec565b9063ffffffff612a0e16565b9063ffffffff612a4516565b9050611738613a80565b6040805160208082018352878603825282519081019092528482526117689161172290859063ffffffff612a0e16565b6040805160208101909152888152909150611789908263ffffffff612a4516565b5198975050505050505050565b6000610db86117a4836111d8565b610fbd84611393565b600061183e6117ba611e15565b6117c2611319565b6001600160a01b03166318160ddd6040518163ffffffff1660e01b815260040160206040518083038186803b1580156117fa57600080fd5b505afa15801561180e573d6000803e3d6000fd5b505050506040513d601f19601f820116820180604052506118329190810190613e15565b9063ffffffff612a7316565b905090565b610e8481612ab5565b610e8481612adc565b6112a7848484848080601f016020809104026020016040519081016040528093929190818152602001838380828437600092019190915250612b1f92505050565b610e718282612bca565b610e718282612c66565b610e846118b8826064612cc2565b612ce8565b6112a7848484848080601f016020809104026020016040519081016040528093929190818152602001838380828437600092019190915250612dad92505050565b600261190c8461183261152a565b101561192a5760405162461bcd60e51b8152600401610c8190614248565b61194e33848460405180606001604052806023815260200161438a60239139611e2d565b600061195a8484611670565b9050808303611996838210156513585c9ad95d60d21b7f496e73756666696369656e74206f757470757420616d6f756e74000000000000612125565b6119a03382612e0c565b81156119e95784336001600160a01b03167f1cd1213d4276c260e84170b4a39025dc8398fbf744edee0709261769b456b94b846040516119e09190614258565b60405180910390a35b84336001600160a01b03167f46e9903ae8ac9e9f0c9bc321b05965c1c036e7d4783758703f5cdfc4133c51b683604051611a239190614258565b60405180910390a35050505050565b6000611a3d82611ae1565b611a4957506000610db8565b506001600160a01b03919091166000908152600c6020908152604080832093835260029093019052205490565b610e718282612eb6565b610e0085858585858080601f016020809104026020016040519081016040528093929190818152602001838380828437600092019190915250611e2d92505050565b6000908152600d602052604090206011015490565b610e718282612e0c565b6000908152600d602052604090206001015490565b6000908152600d602052604090206013015490565b610e718282612f16565b60055490565b6000908152600d60205260409020600f015490565b6001600160a01b03166000908152600e602052604090206005015460ff1690565b6002611b5f8361183261152a565b1015611b7d5760405162461bcd60e51b8152600401610c8190614248565b611ba133838360405180606001604052806023815260200161438a60239139611e2d565b6000611bad8383611670565b9050808203611bbc3382612e0c565b8115611c055783336001600160a01b03167f1cd1213d4276c260e84170b4a39025dc8398fbf744edee0709261769b456b94b84604051611bfc9190614258565b60405180910390a35b83336001600160a01b03167f46e9903ae8ac9e9f0c9bc321b05965c1c036e7d4783758703f5cdfc4133c51b683604051611c3f9190614258565b60405180910390a350505050565b610e8481612f65565b610e718282612f7e565b6000610db8611c6d611319565b6001600160a01b03166318160ddd6040518163ffffffff1660e01b815260040160206040518083038186803b158015611ca557600080fd5b505afa158015611cb9573d6000803e3d6000fd5b505050506040513d601f19601f82011682018060405250611cdd9190810190613e15565b611ce5611e15565b84612faa565b6000908152600d60205260409020600c015490565b600f55565b6000611d3e600083116513585c9ad95d60d21b7f4d757374207075726368617365206e6f6e2d7a65726f20616d6f756e74000000612125565b611d4a82610f4e611e15565b6000611d5461152a565b90506000611d71611d6485611c60565b859063ffffffff61221516565b9050611d7d3385612755565b611d88338383611ed8565b81336001600160a01b03167fbce252db29f761f815dc2e9ea60005af065efba6eb619d2a0b2a113fdeb614148684604051611dc4929190614266565b60405180910390a39392505050565b6000908152600d60205260409020600b015490565b6001600160a01b03166000908152600e602052604090205490565b6112b5612fd2565b610e718282612feb565b60075490565b6000908152600d602052604090205490565b6001600160a01b0384166000908152600c60209081526040808320868452600201909152902054611e6590838363ffffffff61303a16565b6001600160a01b0385166000908152600c60209081526040808320878452600201825280832093909355600d90522060010154611ea990838363ffffffff61303a16565b6000848152600d6020526040902060010155600854611ecf90838363ffffffff61303a16565b60085550505050565b6001600160a01b0383166000908152600c60209081526040808320858452600201909152902054611f0f908263ffffffff61221516565b6001600160a01b0384166000908152600c60209081526040808320868452600201825280832093909355600d90522060010154611f52908263ffffffff61221516565b6000838152600d6020526040902060010155600854611f77908263ffffffff61221516565b600855505050565b6001600160a01b038085166000908152600c602090815260408083209387168352600390930190522054611fba90838363ffffffff61303a16565b6001600160a01b039485166000908152600c60209081526040808320969097168252600390950190945293909220929092555050565b6000908152600d6020526040902060040190565b6000828152600d6020908152604080832060020184905592825291812060030180546001810182559082529190200155565b612075816040518060400160405280601c81526020017f436f6d7074726f6c6c65723a206e6f7420656e6f75676820646562740000000081525061288d565b610e84613066565b612085611319565b6001600160a01b03166340c10f1983836040518363ffffffff1660e01b81526004016120b29291906141a2565b602060405180830381600087803b1580156120cc57600080fd5b505af11580156120e0573d6000803e3d6000fd5b505050506040513d601f19601f820116820180604052506121049190810190613dd9565b506121106108c461152a565b61211d5761211d81612669565b610e71613066565b826110f95761213382613139565b6101d160f51b61214283613139565b6040516020016121549392919061413b565b60408051601f198184030181529082905262461bcd60e51b8252610c81916004016141e7565b600061218982610fbd856114af565b612191611319565b6001600160a01b03166370a08231856040518263ffffffff1660e01b81526004016121bc919061416c565b60206040518083038186803b1580156121d457600080fd5b505afa1580156121e8573d6000803e3d6000fd5b505050506040513d601f19601f8201168201806040525061220c9190810190613e15565b10159392505050565b600082820183811015610e945760405162461bcd60e51b8152600401610c81906141f8565b6000610e9483836040518060400160405280601a81526020017f536166654d6174683a206469766973696f6e206279207a65726f0000000000008152506131b9565b600d600061228861152a565b8152602001908152602001600020600401600401548111156122c65780600d60006122b161152a565b81526020810191909152604001600020600801555b80600d60006122d361152a565b8152602001908152602001600020600401600301541115610e845780600d60006122fb61152a565b815260208101919091526040016000206007015550565b600d600061231e61152a565b81526020019081526020016000206004016011015481111561235c5780600d600061234761152a565b81526020810191909152604001600020601501555b600d600061236861152a565b815260200190815260200160002060040160100154811015610e845780600d600061239161152a565b815260208101919091526040016000206014015550565b600d60006123b461152a565b8152602001908152602001600020600401600201548111156123f25780600d60006123dd61152a565b81526020810191909152604001600020600601555b600d60006123fe61152a565b815260200190815260200160002060040160010154811015610e845780600d600061242761152a565b815260208101919091526040016000206005015550565b6000600d8161244b61152a565b8152602080820192909252604090810160009081206001600160a01b03989098168082526018909801909252902060048101949094555060018301919091556002820155805462010000600160b01b03191662010000909202919091179055565b6000600d816124b961152a565b815260200190815260200160002060040160050154905090565b80600d60006124e061152a565b8152602001908152602001600020600401601201600084815260200190815260200160002060006101000a8154816001600160a01b0302191690836001600160a01b031602179055505050565b600d600061253961152a565b8152602081019190915260400160002060090180546001019055565b600454612568908263ffffffff61221516565b60045550565b6001600160a01b039283166000908152600c60209081526040808320949095168252600390930190925291902055565b6006546125b290838363ffffffff61303a16565b6006555050565b6001600160a01b0383166000908152600e60205260409020600301546125e690838363ffffffff61303a16565b6001600160a01b039093166000908152600e60205260409020600301929092555050565b60005b61261861087061152a565b8110156126405761263861263361262d61152a565b836112c6565b6131f0565b60010161260d565b50600061265661264e6129e0565b610fbd61152a565b9050610e8461266361152a565b82612004565b61267281612982565b6120756118b861329c565b612685613a5f565b604051806060016040528060008152602001635fbef0008152602001611c20815250905090565b6000610db88260000151610fbd84604001516114ef86602001516118326132be565b6126d6611319565b6001600160a01b03166342966c68826040518263ffffffff1660e01b81526004016127019190614258565b600060405180830381600087803b15801561271b57600080fd5b505af115801561272f573d6000803e3d6000fd5b50505050612075816040518060600160405280602a81526020016143f9602a913961259e565b61275d611319565b6001600160a01b03166323b872dd8330846040518463ffffffff1660e01b815260040161278c9392919061417a565b602060405180830381600087803b1580156127a657600080fd5b505af11580156127ba573d6000803e3d6000fd5b505050506040513d601f19601f820116820180604052506127de9190810190613dd9565b506127e7611319565b6001600160a01b03166342966c68826040518263ffffffff1660e01b81526004016128129190614258565b600060405180830381600087803b15801561282c57600080fd5b505af1158015612840573d6000803e3d6000fd5b5050505061211d816040518060600160405280602881526020016143d16028913961288d565b61286e610e61565b600d600061287a61152a565b8152602081019190915260400160002055565b6007546128a190838363ffffffff61303a16565b6007555050565b609690565b6001600160a01b0383166000908152600e60205260409020600201546128da90838363ffffffff61303a16565b6001600160a01b039093166000908152600e60205260409020600201929092555050565b60008261290d57506000610db8565b8282028284828161291a57fe5b0414610e945760405162461bcd60e51b8152600401610c8190614218565b6001600160a01b038083166000908152600e6020908152604080832093871683526004909301905220805482919060ff1916600183600281111561297857fe5b0217905550505050565b600754612995908263ffffffff61221516565b60075550565b6004546129af90838363ffffffff61303a16565b6004555050565b6129c161264e6132c4565b6001600160a01b039091166000908152600c6020526040902060040155565b61016890565b610e1090565b6129f4613a80565b5060408051602081019091526706f05b59d3b20000815290565b612a16613a80565b6040518060200160405280612a3c8560000151670de0b6b3a764000086600001516132c9565b90529392505050565b612a4d613a80565b6040518060200160405280612a3c85600001518560000151670de0b6b3a76400006132c9565b6000610e9483836040518060400160405280601e81526020017f536166654d6174683a207375627472616374696f6e206f766572666c6f77000081525061303a565b6001600160a01b03166000908152600e60205260409020600501805460ff19166001179055565b6000612ae782611ae1565b905080612af45750610e84565b600854612b07908263ffffffff612a7316565b600855506000908152600d6020526040812060010155565b6001600160a01b0383166000908152600c6020526040902060010154612b4c90838363ffffffff61303a16565b6001600160a01b0384166000908152600c6020526040902060010155600354612b7c90838363ffffffff61303a16565b6003556040516000906001600160a01b038516907fddf252ad1be2c89b69c2b068fc378daa952ba7f163c4a11628f55a4df523b3ef90612bbd908690614258565b60405180910390a3505050565b6001600160a01b0382166000908152600c6020526040902060010154612bf6908263ffffffff61221516565b6001600160a01b0383166000908152600c6020526040902060010155600354612c25908263ffffffff61221516565b6003556040516001600160a01b038316906000907fddf252ad1be2c89b69c2b068fc378daa952ba7f163c4a11628f55a4df523b3ef90611187908590614258565b6001600160a01b0382166000908152600c6020526040902054612c8f908263ffffffff61221516565b6001600160a01b0383166000908152600c6020526040902055600554612cbb908263ffffffff61221516565b6005555050565b612cca613a80565b6040518060200160405280612a3c85670de0b6b3a7640000866132c9565b6000612d7a612d75612cf8611319565b6001600160a01b03166318160ddd6040518163ffffffff1660e01b815260040160206040518083038186803b158015612d3057600080fd5b505afa158015612d44573d6000803e3d6000fd5b505050506040513d601f19601f82011682018060405250612d689190810190613e15565b849063ffffffff6132df16565b613306565b90506000612d86611e15565b9050818111156110f9576000612da2828463ffffffff612a7316565b90506112a781612036565b6001600160a01b0383166000908152600c6020526040902054612dd790838363ffffffff61303a16565b6001600160a01b0384166000908152600c6020526040902055600554612e0490838363ffffffff61303a16565b600555505050565b612e14611319565b6001600160a01b031663a9059cbb83836040518363ffffffff1660e01b8152600401612e419291906141a2565b602060405180830381600087803b158015612e5b57600080fd5b505af1158015612e6f573d6000803e3d6000fd5b505050506040513d601f19601f82011682018060405250612e939190810190613dd9565b5061211d816040518060600160405280602a81526020016143f9602a913961259e565b6001600160a01b0382166000908152600c602052604081206005015490612ee8612edf84610e34565b610fbd85611de8565b9050818111156112a7576001600160a01b0384166000908152600c6020526040902060050181905550505050565b6001600160a01b0382166000908152600e6020526040902060030154612f42908263ffffffff61221516565b6001600160a01b039092166000908152600e602052604090206003019190915550565b600654612f78908263ffffffff61221516565b60065550565b612f8661152a565b6001600160a01b039092166000908152600e60205260409020918255600190910155565b6000612fca612d7583612fbe878787613323565b9063ffffffff6132df16565b949350505050565b600254612fe690600163ffffffff61221516565b600255565b6001600160a01b0382166000908152600e6020526040902060020154613017908263ffffffff61221516565b6001600160a01b039092166000908152600e602052604090206002019190915550565b6000818484111561305e5760405162461bcd60e51b8152600401610c8191906141e7565b505050900390565b6112b5613087613074610e75565b610fbd61307f611b15565b610fbd6112c0565b61308f611319565b6001600160a01b03166370a08231306040518263ffffffff1660e01b81526004016130ba919061416c565b60206040518083038186803b1580156130d257600080fd5b505afa1580156130e6573d6000803e3d6000fd5b505050506040513d601f19601f8201168201806040525061310a9190810190613e15565b10156a21b7b6b83a3937b63632b960a91b74496e636f6e73697374656e742062616c616e63657360581b612125565b6060808260405160200161314d9190614126565b60408051601f19818403018152919052905060205b80156131a25781516000199091019082908290811061317d57fe5b01602001516001600160f81b0319161561319d5760010181529050610e1a565b613162565b505060408051600081526020810190915292915050565b600081836131da5760405162461bcd60e51b8152600401610c8191906141e7565b5060008385816131e657fe5b0495945050505050565b60006131fb82611ae1565b90506000808061320a85612adc565b6000613214610e75565b905060006132206115b3565b9050808211156132555761323a828263ffffffff612a7316565b9450613245856126ce565b61324e85613490565b9095509350505b867f753df65b37159bf237ae1fca97ba1bd57cf83bc9498f271a514a4d7bafe87bda8787878760405161328b9493929190614274565b60405180910390a250505050505050565b6132a4613a80565b5060408051602081019091526704db732547630000815290565b600f5490565b602490565b6000612fca826114ef868663ffffffff6128fe16565b6132e7613a80565b604080516020810190915283518190612a3c908563ffffffff6128fe16565b8051600090610db890670de0b6b3a764000063ffffffff61223a16565b61332b613a80565b613333613a80565b61333d8486612cc2565b9050613347613a80565b61334f61329c565b90506000613363878663ffffffff612a7316565b90506000613377878763ffffffff612a7316565b9050613381613a80565b61338b8284612cc2565b905061339d858563ffffffff6135fc16565b15613479576133b2818563ffffffff6135fc16565b156133cc576133c084613612565b95505050505050610e94565b6133d4613a80565b6133de828661366a565b90506133e8613a80565b6133f8868463ffffffff6136c716565b9050613402613a80565b61340b87613612565b9050613415613a80565b613425898963ffffffff6136c716565b905061346961343a848363ffffffff6136f016565b61171661344d858563ffffffff612a4516565b61345d888863ffffffff612a4516565b9063ffffffff6136f016565b9950505050505050505050610e94565b613483818661366a565b9998505050505050505050565b60008080808080806134a0610e75565b905060006134ac6115b3565b905080821015613569576134c6818363ffffffff612a7316565b94506134ee6134dd60646134d8613719565b612a73565b6114ef87606463ffffffff6128fe16565b94508885116134fd57846134ff565b885b945061351e60646114ef613511613719565b889063ffffffff6128fe16565b9250613530858463ffffffff612a7316565b945061353b8361371e565b613544856137b2565b613554898463ffffffff612a7316565b9850613566898663ffffffff612a7316565b98505b6000613573611e15565b905060008a1180156135855750600081115b156135b7578981116135975780613599565b895b94506135a485612036565b6135b48a8663ffffffff612a7316565b99505b6135bf6112c0565b6135c857600099505b89156135d7576135d78a613843565b85856135e98c8763ffffffff61221516565b9850985098505050505050509193909250565b600061360883836138e3565b6002149392505050565b61361a613a80565b610db861362960016003612cc2565b613640613662613658600261364c88613640613915565b9063ffffffff6136c716565b9063ffffffff61393716565b611722600361398d565b611716613915565b613672613a80565b613682838363ffffffff6139c116565b156136975761369083613612565b9050610db8565b610e946136a660016003612cc2565b6136406136626136b887613640613915565b61172261365888613640613915565b6136cf613a80565b6040805160208101909152825184518291612a3c919063ffffffff612a7316565b6136f8613a80565b6040805160208101909152825184518291612a3c919063ffffffff61221516565b602890565b8015610e845761372c611319565b6001600160a01b03166340c10f19613742610e52565b836040518363ffffffff1660e01b81526004016137609291906141a2565b602060405180830381600087803b15801561377a57600080fd5b505af115801561378e573d6000803e3d6000fd5b505050506040513d601f19601f82011682018060405250610e719190810190613dd9565b6137ba611319565b6001600160a01b03166340c10f1930836040518363ffffffff1660e01b81526004016137e79291906141a2565b602060405180830381600087803b15801561380157600080fd5b505af1158015613815573d6000803e3d6000fd5b505050506040513d601f19601f820116820180604052506138399190810190613dd9565b5061207581612f65565b61388660006138506112c0565b116a21b7b6b83a3937b63632b960a91b7f43616e74206d696e7420746f20656d70747920706f6f6c000000000000000000612125565b60006138a560646114ef613898613719565b859063ffffffff6128fe16565b905060008183116138b75760006138c7565b6138c7838363ffffffff612a7316565b90506138d28261371e565b6138db816139c8565b6110f9613066565b8051825160009114156138f857506001610db8565b815183511161390857600061390b565b60025b60ff169392505050565b61391d613a80565b506040805160208101909152670de0b6b3a7640000815290565b61393f613a80565b8161394e57613690600161398d565b613956613a80565b5060408051602081019091528351815260015b838110156139855761397b8286612a45565b9150600101613969565b509392505050565b613995613a80565b6040805160208101909152806139b984670de0b6b3a764000063ffffffff6128fe16565b905292915050565b5190511490565b8015610e84576139d6611319565b6001600160a01b03166340c10f1930836040518363ffffffff1660e01b8152600401613a039291906141a2565b602060405180830381600087803b158015613a1d57600080fd5b505af1158015613a31573d6000803e3d6000fd5b505050506040513d601f19601f82011682018060405250613a559190810190613dd9565b50610e8481612555565b60405180606001604052806000815260200160008152602001600081525090565b6040518060200160405280600081525090565b8035610db881614356565b8051610db88161436a565b8035610db881614373565b60008083601f840112613ac657600080fd5b50813567ffffffffffffffff811115613ade57600080fd5b602083019150836001820283011115613af657600080fd5b9250929050565b8035610db881614380565b8051610db881614380565b600060208284031215613b2557600080fd5b6000612fca8484613a93565b60008060408385031215613b4457600080fd5b6000613b508585613a93565b9250506020613b6185828601613a93565b9150509250929050565b600080600060608486031215613b8057600080fd5b6000613b8c8686613a93565b9350506020613b9d86828701613a93565b9250506040613bae86828701613aa9565b9150509250925092565b600080600060608486031215613bcd57600080fd5b6000613bd98686613a93565b9350506020613bea86828701613a93565b9250506040613bae86828701613afd565b600080600080600060808688031215613c1357600080fd5b6000613c1f8888613a93565b9550506020613c3088828901613a93565b9450506040613c4188828901613afd565b935050606086013567ffffffffffffffff811115613c5e57600080fd5b613c6a88828901613ab4565b92509250509295509295909350565b60008060008060808587031215613c8f57600080fd5b6000613c9b8787613a93565b9450506020613cac87828801613a93565b9350506040613cbd87828801613afd565b9250506060613cce87828801613afd565b91505092959194509250565b60008060408385031215613ced57600080fd5b6000613cf98585613a93565b9250506020613b6185828601613afd565b60008060008060608587031215613d2057600080fd5b6000613d2c8787613a93565b9450506020613d3d87828801613afd565b935050604085013567ffffffffffffffff811115613d5a57600080fd5b613d6687828801613ab4565b95989497509550505050565b600080600060608486031215613d8757600080fd5b6000613d938686613a93565b9350506020613bea86828701613afd565b600080600080600060808688031215613dbc57600080fd5b6000613dc88888613a93565b9550506020613c3088828901613afd565b600060208284031215613deb57600080fd5b6000612fca8484613a9e565b600060208284031215613e0957600080fd5b6000612fca8484613afd565b600060208284031215613e2757600080fd5b6000612fca8484613b08565b600080600060408486031215613e4857600080fd5b6000613e548686613afd565b935050602084013567ffffffffffffffff811115613e7157600080fd5b613e7d86828701613ab4565b92509250509250925092565b60008060408385031215613e9c57600080fd5b6000613cf98585613afd565b600080600060608486031215613ebd57600080fd5b6000613d938686613afd565b613ed2816142c4565b82525050565b613ed2816142cf565b613ed2613eed826142d4565b6142e1565b613ed2613eed826142e1565b6000613f09826142b7565b613f138185610e1a565b9350613f23818560208601614316565b9290920192915050565b613ed281614300565b613ed28161430b565b6000613f4a826142b7565b613f5481856142bb565b9350613f64818560208601614316565b613f6d81614342565b9093019392505050565b6000613f84601b836142bb565b7f536166654d6174683a206164646974696f6e206f766572666c6f770000000000815260200192915050565b6000613fbd602b836142bb565b7f4d61726b65743a20436f75706f6e207472616e7366657220746f20746865207a81526a65726f206164647265737360a81b602082015260400192915050565b600061400a6021836142bb565b7f536166654d6174683a206d756c7469706c69636174696f6e206f766572666c6f8152607760f81b602082015260400192915050565b600061404d602a836142bb565b7f4d61726b65743a20436f75706f6e20617070726f766520746f20746865207a65815269726f206164647265737360b01b602082015260400192915050565b6000614099602d836142bb565b7f4d61726b65743a20436f75706f6e207472616e736665722066726f6d2074686581526c207a65726f206164647265737360981b602082015260400192915050565b60006140e8601b836142bb565b7f4d61726b65743a20546f6f206561726c7920746f2072656465656d0000000000815260200192915050565b613ed2816142e1565b613ed2816142fa565b60006141328284613ef2565b50602001919050565b60006141478286613efe565b91506141538285613ee1565b6002820191506141638284613efe565b95945050505050565b60208101610db88284613ec9565b606081016141888286613ec9565b6141956020830185613ec9565b612fca6040830184614114565b604081016141b08285613ec9565b610e946020830184614114565b60208101610db88284613ed8565b60208101610db88284613f2d565b60208101610db88284613f36565b60208082528101610e948184613f3f565b60208082528101610db881613f77565b60208082528101610db881613fb0565b60208082528101610db881613ffd565b60208082528101610db881614040565b60208082528101610db88161408c565b60208082528101610db8816140db565b60208101610db88284614114565b604081016141b08285614114565b608081016142828287614114565b61428f6020830186614114565b61429c6040830185614114565b6141636060830184614114565b60208101610db8828461411d565b5190565b90815260200190565b6000610db8826142ee565b151590565b6001600160f01b03191690565b90565b80610e1a8161434c565b6001600160a01b031690565b60ff1690565b6000610db8826142c4565b6000610db8826142e4565b60005b83811015614331578181015183820152602001614319565b838111156112a75750506000910152565b601f01601f191690565b60038110610e8457fe5b61435f816142c4565b8114610e8457600080fd5b61435f816142cf565b60038110610e8457600080fd5b61435f816142e156fe4d61726b65743a20496e73756666696369656e7420636f75706f6e2062616c616e63654d61726b65743a20496e73756666696369656e7420636f75706f6e20617070726f76616c436f6d7074726f6c6c65723a206e6f7420656e6f756768206f75747374616e64696e672064656274436f6d7074726f6c6c65723a206e6f7420656e6f7567682072656465656d61626c652062616c616e6365a365627a7a723158200c4d9eda5605244da6c40e0707a4481dc46b7d961b9517a8967054c0a4c195606c6578706572696d656e74616cf564736f6c6343000511004060806040523480156200001157600080fd5b5060405180604001604052806012815260200171223cb730b6b4b19029b2ba102237b63630b960711b815250604051806040016040528060038152602001621114d160ea1b81525060126200007e6200006f6200011960201b60201c565b6001600160e01b036200011e16565b82516200009390600190602086019062000313565b508151620000a990600290602085019062000313565b506003805460ff191660ff9290921691909117905550620001109050620000cf62000170565b604051806040016040528060018152602001603160f81b815250620000fe6200020960201b620016341760201c565b306200020e60201b620016391760201c565b60075562000469565b335b90565b620001398160006200026560201b62000d7e1790919060201c565b6040516001600160a01b038216907f6ae172837ea30b801fbfcdd4108aa1d5bf8ff775444fd70256b44e6bf3dfc3f690600090a250565b60018054604080516020601f60026000196101008789161502019095169490940493840181900481028201810190925282815260609390929091830182828015620001ff5780601f10620001d357610100808354040283529160200191620001ff565b820191906000526020600020905b815481529060010190602001808311620001e157829003601f168201915b5050505050905090565b600190565b8351602094850120835193850193909320604080517f8b73c3c69bb8fe3d512ecc4cf759cc79239f7b179b0ffacaa9a75d522b39400f815295860194909452928401929092526060830152608082015260a0902090565b6200027a82826001600160e01b03620002c816565b15620002a35760405162461bcd60e51b81526004016200029a9062000436565b60405180910390fd5b6001600160a01b0316600090815260209190915260409020805460ff19166001179055565b60006001600160a01b038216620002f35760405162461bcd60e51b81526004016200029a906200044e565b506001600160a01b03166000908152602091909152604090205460ff1690565b828054600181600116156101000203166002900490600052602060002090601f016020900481019282601f106200035657805160ff191683800117855562000386565b8280016001018555821562000386579182015b828111156200038657825182559160200191906001019062000369565b506200039492915062000398565b5090565b6200011b91905b808211156200039457600081556001016200039f565b6000620003c4601f8362000460565b7f526f6c65733a206163636f756e7420616c72656164792068617320726f6c6500815260200192915050565b6000620003ff60228362000460565b7f526f6c65733a206163636f756e7420697320746865207a65726f206164647265815261737360f01b602082015260400192915050565b602080825281016200044881620003b5565b92915050565b602080825281016200044881620003f0565b90815260200190565b61178d80620004796000396000f3fe608060405234801561001057600080fd5b506004361061012c5760003560e01c806395d89b41116100ad578063aa271e1a11610071578063aa271e1a14610256578063d505accf14610269578063dab400f31461027c578063dd62ed3e14610284578063e879c19f146102975761012c565b806395d89b411461020d578063983b2d56146102155780639865027514610228578063a457c2d714610230578063a9059cbb146102435761012c565b806339509351116100f457806339509351146101ac57806340c10f19146101bf57806342966c68146101d257806370a08231146101e757806379cc6790146101fa5761012c565b806306fdde0314610131578063095ea7b31461014f57806318160ddd1461016f57806323b872dd14610184578063313ce56714610197575b600080fd5b61013961029f565b60405161014691906114c6565b60405180910390f35b61016261015d366004610ffc565b610334565b604051610146919061141b565b610177610352565b6040516101469190611429565b610162610192366004610f13565b610358565b61019f6103ca565b6040516101469190611587565b6101626101ba366004610ffc565b6103d3565b6101626101cd366004610ffc565b610427565b6101e56101e036600461102c565b610463565b005b6101776101f5366004610eb3565b610477565b6101e5610208366004610ffc565b610496565b6101396104a4565b6101e5610223366004610eb3565b610502565b6101e5610532565b61016261023e366004610ffc565b610544565b610162610251366004610ffc565b6105b2565b610162610264366004610eb3565b6105c6565b6101e5610277366004610f60565b6105d8565b61017761075f565b610177610292366004610ed9565b610765565b610177610790565b60018054604080516020601f6002600019610100878916150201909516949094049384018190048102820181019092528281526060939092909183018282801561032a5780601f106102ff5761010080835404028352916020019161032a565b820191906000526020600020905b81548152906001019060200180831161030d57829003601f168201915b5050505050905090565b60006103486103416107b4565b84846107b8565b5060015b92915050565b60065490565b600061036584848461086c565b600019610374856102926107b4565b146103c0576103c0846103856107b4565b6103bb856040518060600160405280602981526020016116fd602991396103ae8a6102926107b4565b919063ffffffff61098216565b6107b8565b5060019392505050565b60035460ff1690565b60006103486103e06107b4565b846103bb85600560006103f16107b4565b6001600160a01b03908116825260208083019390935260409182016000908120918c16815292529020549063ffffffff6109ae16565b60006104346102646107b4565b6104595760405162461bcd60e51b815260040161045090611517565b60405180910390fd5b61034883836109da565b61047461046e6107b4565b82610a9a565b50565b6001600160a01b0381166000908152600460205260409020545b919050565b6104a08282610b70565b5050565b60028054604080516020601f600019610100600187161502019094168590049384018190048102820181019092528281526060939092909183018282801561032a5780601f106102ff5761010080835404028352916020019161032a565b61050d6102646107b4565b6105295760405162461bcd60e51b815260040161045090611517565b61047481610beb565b61054261053d6107b4565b610c33565b565b60006103486105516107b4565b846103bb85604051806060016040528060258152602001611726602591396005600061057b6107b4565b6001600160a01b03908116825260208083019390935260409182016000908120918d1681529252902054919063ffffffff61098216565b60006103486105bf6107b4565b848461086c565b600061034c818363ffffffff610c7b16565b6007546001600160a01b03881660009081526008602090815260408083208054600181019091559051929361065a93909261063f927f6e71edae12b1b97f4d1f60370fef10105fa2faae0126114a169c64845d6126c9928e928e928e9290918e9101611437565b60405160208183030381529060405280519060200120610cc3565b90506000600182868686604051600081526020016040526040516106819493929190611491565b6020604051602081039080840390855afa1580156106a3573d6000803e3d6000fd5b5050506020604051035190506106f0896001600160a01b0316826001600160a01b0316146a5065726d69747461626c6560a81b70496e76616c6964207369676e617475726560781b610ce2565b6107236001600160a01b03821615156a5065726d69747461626c6560a81b6b5a65726f206164647265737360a01b610ce2565b610749864211156a5065726d69747461626c6560a81b66115e1c1a5c995960ca1b610ce2565b6107548989896107b8565b505050505050505050565b60075481565b6001600160a01b03918216600090815260056020908152604080832093909416825291909152205490565b7f6e71edae12b1b97f4d1f60370fef10105fa2faae0126114a169c64845d6126c981565b3390565b6001600160a01b0383166107de5760405162461bcd60e51b815260040161045090611567565b6001600160a01b0382166108045760405162461bcd60e51b8152600401610450906114f7565b6001600160a01b0380841660008181526005602090815260408083209487168084529490915290819020849055517f8c5be1e5ebec7d5bd14f71427d1e84f3dd0314c0f7b2291e5b200ac8c7c3b9259061085f908590611429565b60405180910390a3505050565b6001600160a01b0383166108925760405162461bcd60e51b815260040161045090611557565b6001600160a01b0382166108b85760405162461bcd60e51b8152600401610450906114d7565b6108fb816040518060600160405280602681526020016116b3602691396001600160a01b038616600090815260046020526040902054919063ffffffff61098216565b6001600160a01b038085166000908152600460205260408082209390935590841681522054610930908263ffffffff6109ae16565b6001600160a01b0380841660008181526004602052604090819020939093559151908516907fddf252ad1be2c89b69c2b068fc378daa952ba7f163c4a11628f55a4df523b3ef9061085f908590611429565b600081848411156109a65760405162461bcd60e51b815260040161045091906114c6565b505050900390565b6000828201838110156109d35760405162461bcd60e51b815260040161045090611507565b9392505050565b6001600160a01b038216610a005760405162461bcd60e51b815260040161045090611577565b600654610a13908263ffffffff6109ae16565b6006556001600160a01b038216600090815260046020526040902054610a3f908263ffffffff6109ae16565b6001600160a01b0383166000818152600460205260408082209390935591519091907fddf252ad1be2c89b69c2b068fc378daa952ba7f163c4a11628f55a4df523b3ef90610a8e908590611429565b60405180910390a35050565b6001600160a01b038216610ac05760405162461bcd60e51b815260040161045090611547565b610b0381604051806060016040528060228152602001611691602291396001600160a01b038516600090815260046020526040902054919063ffffffff61098216565b6001600160a01b038316600090815260046020526040902055600654610b2f908263ffffffff610d3c16565b6006556040516000906001600160a01b038416907fddf252ad1be2c89b69c2b068fc378daa952ba7f163c4a11628f55a4df523b3ef90610a8e908590611429565b610b7a8282610a9a565b6104a082610b866107b4565b6103bb846040518060600160405280602481526020016116d9602491396001600160a01b038816600090815260056020526040812090610bc46107b4565b6001600160a01b03168152602081019190915260400160002054919063ffffffff61098216565b610bfc60008263ffffffff610d7e16565b6040516001600160a01b038216907f6ae172837ea30b801fbfcdd4108aa1d5bf8ff775444fd70256b44e6bf3dfc3f690600090a250565b610c4460008263ffffffff610dca16565b6040516001600160a01b038216907fe94479a9f7e1952cc78f2d6baab678adc1b772d936c6583def489e524cb6669290600090a250565b60006001600160a01b038216610ca35760405162461bcd60e51b815260040161045090611537565b506001600160a01b03166000908152602091909152604090205460ff1690565b60405161190160f01b8152600281019290925260228201526042902090565b82610d3757610cf082610e12565b6101d160f51b610cff83610e12565b604051602001610d11939291906113ea565b60408051601f198184030181529082905262461bcd60e51b8252610450916004016114c6565b505050565b60006109d383836040518060400160405280601e81526020017f536166654d6174683a207375627472616374696f6e206f766572666c6f770000815250610982565b610d888282610c7b565b15610da55760405162461bcd60e51b8152600401610450906114e7565b6001600160a01b0316600090815260209190915260409020805460ff19166001179055565b610dd48282610c7b565b610df05760405162461bcd60e51b815260040161045090611527565b6001600160a01b0316600090815260209190915260409020805460ff19169055565b60608082604051602001610e2691906113d5565b60408051601f19818403018152919052905060205b8015610e7b57815160001990910190829082908110610e5657fe5b01602001516001600160f81b03191615610e765760010181529050610491565b610e3b565b505060408051600081526020810190915292915050565b803561034c8161160e565b803561034c81611622565b803561034c8161162b565b600060208284031215610ec557600080fd5b6000610ed18484610e92565b949350505050565b60008060408385031215610eec57600080fd5b6000610ef88585610e92565b9250506020610f0985828601610e92565b9150509250929050565b600080600060608486031215610f2857600080fd5b6000610f348686610e92565b9350506020610f4586828701610e92565b9250506040610f5686828701610e9d565b9150509250925092565b600080600080600080600060e0888a031215610f7b57600080fd5b6000610f878a8a610e92565b9750506020610f988a828b01610e92565b9650506040610fa98a828b01610e9d565b9550506060610fba8a828b01610e9d565b9450506080610fcb8a828b01610ea8565b93505060a0610fdc8a828b01610e9d565b92505060c0610fed8a828b01610e9d565b91505092959891949750929550565b6000806040838503121561100f57600080fd5b600061101b8585610e92565b9250506020610f0985828601610e9d565b60006020828403121561103e57600080fd5b6000610ed18484610e9d565b611053816115a2565b82525050565b611053816115ad565b61105361106e826115b2565b6115bf565b611053816115bf565b61105361106e826115bf565b600061109382611595565b61109d8185610491565b93506110ad8185602086016115d4565b9290920192915050565b60006110c282611595565b6110cc8185611599565b93506110dc8185602086016115d4565b6110e581611604565b9093019392505050565b60006110fc602383611599565b7f45524332303a207472616e7366657220746f20746865207a65726f206164647281526265737360e81b602082015260400192915050565b6000611141601f83611599565b7f526f6c65733a206163636f756e7420616c72656164792068617320726f6c6500815260200192915050565b600061117a602283611599565b7f45524332303a20617070726f766520746f20746865207a65726f206164647265815261737360f01b602082015260400192915050565b60006111be601b83611599565b7f536166654d6174683a206164646974696f6e206f766572666c6f770000000000815260200192915050565b60006111f7603083611599565b7f4d696e746572526f6c653a2063616c6c657220646f6573206e6f74206861766581526f20746865204d696e74657220726f6c6560801b602082015260400192915050565b6000611249602183611599565b7f526f6c65733a206163636f756e7420646f6573206e6f74206861766520726f6c8152606560f81b602082015260400192915050565b600061128c602283611599565b7f526f6c65733a206163636f756e7420697320746865207a65726f206164647265815261737360f01b602082015260400192915050565b60006112d0602183611599565b7f45524332303a206275726e2066726f6d20746865207a65726f206164647265738152607360f81b602082015260400192915050565b6000611313602583611599565b7f45524332303a207472616e736665722066726f6d20746865207a65726f206164815264647265737360d81b602082015260400192915050565b600061135a602483611599565b7f45524332303a20617070726f76652066726f6d20746865207a65726f206164648152637265737360e01b602082015260400192915050565b60006113a0601f83611599565b7f45524332303a206d696e7420746f20746865207a65726f206164647265737300815260200192915050565b611053816115ce565b60006113e1828461107c565b50602001919050565b60006113f68286611088565b91506114028285611062565b6002820191506114128284611088565b95945050505050565b6020810161034c8284611059565b6020810161034c8284611073565b60c081016114458289611073565b611452602083018861104a565b61145f604083018761104a565b61146c6060830186611073565b6114796080830185611073565b61148660a0830184611073565b979650505050505050565b6080810161149f8287611073565b6114ac60208301866113cc565b6114b96040830185611073565b6114126060830184611073565b602080825281016109d381846110b7565b6020808252810161034c816110ef565b6020808252810161034c81611134565b6020808252810161034c8161116d565b6020808252810161034c816111b1565b6020808252810161034c816111ea565b6020808252810161034c8161123c565b6020808252810161034c8161127f565b6020808252810161034c816112c3565b6020808252810161034c81611306565b6020808252810161034c8161134d565b6020808252810161034c81611393565b6020810161034c82846113cc565b5190565b90815260200190565b600061034c826115c2565b151590565b6001600160f01b03191690565b90565b6001600160a01b031690565b60ff1690565b60005b838110156115ef5781810151838201526020016115d7565b838111156115fe576000848401525b50505050565b601f01601f191690565b611617816115a2565b811461047457600080fd5b611617816115bf565b611617816115ce565b600190565b8351602094850120835193850193909320604080517f8b73c3c69bb8fe3d512ecc4cf759cc79239f7b179b0ffacaa9a75d522b39400f815295860194909452928401929092526060830152608082015260a090209056fe45524332303a206275726e20616d6f756e7420657863656564732062616c616e636545524332303a207472616e7366657220616d6f756e7420657863656564732062616c616e636545524332303a206275726e20616d6f756e74206578636565647320616c6c6f77616e6365446f6c6c61723a207472616e7366657220616d6f756e74206578636565647320616c6c6f77616e636545524332303a2064656372656173656420616c6c6f77616e63652062656c6f77207a65726fa365627a7a7231582021717f4bb76e445345cb7f360c6be702a59b3219eb6cebef899d276f27b2e4bb6c6578706572696d656e74616cf564736f6c63430005110040",
  "source": "/*\n    Copyright 2020 Dynamic Dollar Devs, based on the works of the Empty Set Squad\n\n    Licensed under the Apache License, Version 2.0 (the \"License\");\n    you may not use this file except in compliance with the License.\n    You may obtain a copy of the License at\n\n    http://www.apache.org/licenses/LICENSE-2.0\n\n    Unless required by applicable law or agreed to in writing, software\n    distributed under the License is distributed on an \"AS IS\" BASIS,\n    WITHOUT WARRANTIES OR CONDITIONS OF ANY KIND, either express or implied.\n    See the License for the specific language governing permissions and\n    limitations under the License.\n*/\n\npragma solidity ^0.5.17;\npragma experimental ABIEncoderV2;\n\nimport \"../dao/Market.sol\";\nimport \"./MockState.sol\";\nimport \"./MockComptroller.sol\";\n\ncontract MockMarket is MockState, MockComptroller, Market {\n    constructor(address pool) MockComptroller(pool) public { }\n\n    function stepE() external {\n        Market.step();\n    }\n}\n",
  "sourcePath": "/Users/cinquemb/Documents/Startups/crypto/dollar/protocol/contracts/mock/MockMarket.sol",
  "compiler": {
    "name": "solc",
    "version": "0.5.17+commit.d19bba13.Emscripten.clang"
  },
  "schemaVersion": "3.3.3",
  "updatedAt": "2021-01-13T13:26:25.481Z",
  "devdoc": {
    "methods": {}
  },
  "userdoc": {
    "methods": {
      "balanceOfStaged(address)": {
        "notice": "Account"
      },
      "createCandidateE(address,uint256)": {
        "notice": "Governance"
      },
      "dollar()": {
        "notice": "Global"
      },
      "epoch()": {
        "notice": "Epoch"
      },
      "incrementBalanceOfE(address,uint256)": {
        "notice": "Account"
      },
      "incrementTotalBondedE(uint256)": {
        "notice": "Global"
      },
      "name()": {
        "notice": "ERC20 Interface"
      },
      "recordedVote(address,address)": {
        "notice": "Governance"
      },
      "setBlockTimestamp(uint256)": {
        "notice": "Mock"
      },
      "setEpochParamsE(uint256,uint256)": {
        "notice": "Epoch"
      },
      "transfer(address,uint256)": {
        "notice": "ERC20 Interface"
      }
    }
  }
}