{
  "contractName": "MockGovern",
  "abi": [
    {
      "inputs": [],
      "payable": false,
      "stateMutability": "nonpayable",
      "type": "constructor"
    },
    {
      "anonymous": false,
      "inputs": [
        {
          "indexed": true,
          "internalType": "address",
          "name": "account",
          "type": "address"
        },
        {
          "indexed": true,
          "internalType": "address",
          "name": "candidate",
          "type": "address"
        }
      ],
      "name": "Commit",
      "type": "event"
    },
    {
      "anonymous": false,
      "inputs": [
        {
          "indexed": true,
          "internalType": "address",
          "name": "candidate",
          "type": "address"
        },
        {
          "indexed": true,
          "internalType": "address",
          "name": "account",
          "type": "address"
        },
        {
          "indexed": true,
          "internalType": "uint256",
          "name": "start",
          "type": "uint256"
        },
        {
          "indexed": false,
          "internalType": "uint256",
          "name": "period",
          "type": "uint256"
        }
      ],
      "name": "Proposal",
      "type": "event"
    },
    {
      "anonymous": false,
      "inputs": [
        {
          "indexed": true,
          "internalType": "address",
          "name": "from",
          "type": "address"
        },
        {
          "indexed": true,
          "internalType": "address",
          "name": "to",
          "type": "address"
        },
        {
          "indexed": false,
          "internalType": "uint256",
          "name": "value",
          "type": "uint256"
        }
      ],
      "name": "Transfer",
      "type": "event"
    },
    {
      "anonymous": false,
      "inputs": [
        {
          "indexed": true,
          "internalType": "address",
          "name": "implementation",
          "type": "address"
        }
      ],
      "name": "Upgraded",
      "type": "event"
    },
    {
      "anonymous": false,
      "inputs": [
        {
          "indexed": true,
          "internalType": "address",
          "name": "account",
          "type": "address"
        },
        {
          "indexed": true,
          "internalType": "address",
          "name": "candidate",
          "type": "address"
        },
        {
          "indexed": false,
          "internalType": "enum Candidate.Vote",
          "name": "vote",
          "type": "uint8"
        },
        {
          "indexed": false,
          "internalType": "uint256",
          "name": "bonded",
          "type": "uint256"
        }
      ],
      "name": "Vote",
      "type": "event"
    },
    {
      "constant": true,
      "inputs": [
        {
          "internalType": "address",
          "name": "owner",
          "type": "address"
        },
        {
          "internalType": "address",
          "name": "spender",
          "type": "address"
        }
      ],
      "name": "allowance",
      "outputs": [
        {
          "internalType": "uint256",
          "name": "",
          "type": "uint256"
        }
      ],
      "payable": false,
      "stateMutability": "view",
      "type": "function"
    },
    {
      "constant": true,
      "inputs": [
        {
          "internalType": "address",
          "name": "owner",
          "type": "address"
        },
        {
          "internalType": "address",
          "name": "spender",
          "type": "address"
        }
      ],
      "name": "allowanceCoupons",
      "outputs": [
        {
          "internalType": "uint256",
          "name": "",
          "type": "uint256"
        }
      ],
      "payable": false,
      "stateMutability": "view",
      "type": "function"
    },
    {
      "constant": false,
      "inputs": [
        {
          "internalType": "address",
          "name": "spender",
          "type": "address"
        },
        {
          "internalType": "uint256",
          "name": "amount",
          "type": "uint256"
        }
      ],
      "name": "approve",
      "outputs": [
        {
          "internalType": "bool",
          "name": "",
          "type": "bool"
        }
      ],
      "payable": false,
      "stateMutability": "nonpayable",
      "type": "function"
    },
    {
      "constant": true,
      "inputs": [
        {
          "internalType": "address",
          "name": "candidate",
          "type": "address"
        }
      ],
      "name": "approveFor",
      "outputs": [
        {
          "internalType": "uint256",
          "name": "",
          "type": "uint256"
        }
      ],
      "payable": false,
      "stateMutability": "view",
      "type": "function"
    },
    {
      "constant": true,
      "inputs": [
        {
          "internalType": "address",
          "name": "account",
          "type": "address"
        }
      ],
      "name": "balanceOf",
      "outputs": [
        {
          "internalType": "uint256",
          "name": "",
          "type": "uint256"
        }
      ],
      "payable": false,
      "stateMutability": "view",
      "type": "function"
    },
    {
      "constant": true,
      "inputs": [
        {
          "internalType": "address",
          "name": "account",
          "type": "address"
        }
      ],
      "name": "balanceOfBonded",
      "outputs": [
        {
          "internalType": "uint256",
          "name": "",
          "type": "uint256"
        }
      ],
      "payable": false,
      "stateMutability": "view",
      "type": "function"
    },
    {
      "constant": true,
      "inputs": [
        {
          "internalType": "address",
          "name": "account",
          "type": "address"
        },
        {
          "internalType": "uint256",
          "name": "epoch",
          "type": "uint256"
        }
      ],
      "name": "balanceOfCoupons",
      "outputs": [
        {
          "internalType": "uint256",
          "name": "",
          "type": "uint256"
        }
      ],
      "payable": false,
      "stateMutability": "view",
      "type": "function"
    },
    {
      "constant": true,
      "inputs": [
        {
          "internalType": "address",
          "name": "account",
          "type": "address"
        }
      ],
      "name": "balanceOfStaged",
      "outputs": [
        {
          "internalType": "uint256",
          "name": "",
          "type": "uint256"
        }
      ],
      "payable": false,
      "stateMutability": "view",
      "type": "function"
    },
    {
      "constant": true,
      "inputs": [
        {
          "internalType": "uint256",
          "name": "epoch",
          "type": "uint256"
        }
      ],
      "name": "bootstrappingAt",
      "outputs": [
        {
          "internalType": "bool",
          "name": "",
          "type": "bool"
        }
      ],
      "payable": false,
      "stateMutability": "view",
      "type": "function"
    },
    {
      "constant": false,
      "inputs": [
        {
          "internalType": "address",
          "name": "account",
          "type": "address"
        },
        {
          "internalType": "uint256",
          "name": "amount",
          "type": "uint256"
        }
      ],
      "name": "burnFromAccountE",
      "outputs": [],
      "payable": false,
      "stateMutability": "nonpayable",
      "type": "function"
    },
    {
      "constant": false,
      "inputs": [
        {
          "internalType": "uint256",
          "name": "amount",
          "type": "uint256"
        }
      ],
      "name": "burnRedeemableE",
      "outputs": [],
      "payable": false,
      "stateMutability": "nonpayable",
      "type": "function"
    },
    {
      "constant": false,
      "inputs": [
        {
          "internalType": "address",
          "name": "candidate",
          "type": "address"
        }
      ],
      "name": "commit",
      "outputs": [],
      "payable": false,
      "stateMutability": "nonpayable",
      "type": "function"
    },
    {
      "constant": true,
      "inputs": [
        {
          "internalType": "uint256",
          "name": "epoch",
          "type": "uint256"
        }
      ],
      "name": "couponsExpiration",
      "outputs": [
        {
          "internalType": "uint256",
          "name": "",
          "type": "uint256"
        }
      ],
      "payable": false,
      "stateMutability": "view",
      "type": "function"
    },
    {
      "constant": false,
      "inputs": [
        {
          "internalType": "address",
          "name": "candidate",
          "type": "address"
        },
        {
          "internalType": "uint256",
          "name": "period",
          "type": "uint256"
        }
      ],
      "name": "createCandidateE",
      "outputs": [],
      "payable": false,
      "stateMutability": "nonpayable",
      "type": "function"
    },
    {
      "constant": true,
      "inputs": [],
      "name": "decimals",
      "outputs": [
        {
          "internalType": "uint8",
          "name": "",
          "type": "uint8"
        }
      ],
      "payable": false,
      "stateMutability": "view",
      "type": "function"
    },
    {
      "constant": false,
      "inputs": [
        {
          "internalType": "uint256",
          "name": "amount",
          "type": "uint256"
        }
      ],
      "name": "decreaseDebtE",
      "outputs": [],
      "payable": false,
      "stateMutability": "nonpayable",
      "type": "function"
    },
    {
      "constant": false,
      "inputs": [
        {
          "internalType": "address",
          "name": "owner",
          "type": "address"
        },
        {
          "internalType": "address",
          "name": "spender",
          "type": "address"
        },
        {
          "internalType": "uint256",
          "name": "amount",
          "type": "uint256"
        },
        {
          "internalType": "string",
          "name": "reason",
          "type": "string"
        }
      ],
      "name": "decrementAllowanceCouponsE",
      "outputs": [],
      "payable": false,
      "stateMutability": "nonpayable",
      "type": "function"
    },
    {
      "constant": false,
      "inputs": [
        {
          "internalType": "address",
          "name": "candidate",
          "type": "address"
        },
        {
          "internalType": "uint256",
          "name": "amount",
          "type": "uint256"
        },
        {
          "internalType": "string",
          "name": "reason",
          "type": "string"
        }
      ],
      "name": "decrementApproveForE",
      "outputs": [],
      "payable": false,
      "stateMutability": "nonpayable",
      "type": "function"
    },
    {
      "constant": false,
      "inputs": [
        {
          "internalType": "address",
          "name": "account",
          "type": "address"
        },
        {
          "internalType": "uint256",
          "name": "epoch",
          "type": "uint256"
        },
        {
          "internalType": "uint256",
          "name": "amount",
          "type": "uint256"
        },
        {
          "internalType": "string",
          "name": "reason",
          "type": "string"
        }
      ],
      "name": "decrementBalanceOfCouponsE",
      "outputs": [],
      "payable": false,
      "stateMutability": "nonpayable",
      "type": "function"
    },
    {
      "constant": false,
      "inputs": [
        {
          "internalType": "address",
          "name": "account",
          "type": "address"
        },
        {
          "internalType": "uint256",
          "name": "amount",
          "type": "uint256"
        },
        {
          "internalType": "string",
          "name": "reason",
          "type": "string"
        }
      ],
      "name": "decrementBalanceOfE",
      "outputs": [],
      "payable": false,
      "stateMutability": "nonpayable",
      "type": "function"
    },
    {
      "constant": false,
      "inputs": [
        {
          "internalType": "address",
          "name": "account",
          "type": "address"
        },
        {
          "internalType": "uint256",
          "name": "amount",
          "type": "uint256"
        },
        {
          "internalType": "string",
          "name": "reason",
          "type": "string"
        }
      ],
      "name": "decrementBalanceOfStagedE",
      "outputs": [],
      "payable": false,
      "stateMutability": "nonpayable",
      "type": "function"
    },
    {
      "constant": false,
      "inputs": [
        {
          "internalType": "address",
          "name": "candidate",
          "type": "address"
        },
        {
          "internalType": "uint256",
          "name": "amount",
          "type": "uint256"
        },
        {
          "internalType": "string",
          "name": "reason",
          "type": "string"
        }
      ],
      "name": "decrementRejectForE",
      "outputs": [],
      "payable": false,
      "stateMutability": "nonpayable",
      "type": "function"
    },
    {
      "constant": false,
      "inputs": [
        {
          "internalType": "uint256",
          "name": "amount",
          "type": "uint256"
        },
        {
          "internalType": "string",
          "name": "reason",
          "type": "string"
        }
      ],
      "name": "decrementTotalBondedE",
      "outputs": [],
      "payable": false,
      "stateMutability": "nonpayable",
      "type": "function"
    },
    {
      "constant": false,
      "inputs": [
        {
          "internalType": "uint256",
          "name": "amount",
          "type": "uint256"
        },
        {
          "internalType": "string",
          "name": "reason",
          "type": "string"
        }
      ],
      "name": "decrementTotalDebtE",
      "outputs": [],
      "payable": false,
      "stateMutability": "nonpayable",
      "type": "function"
    },
    {
      "constant": false,
      "inputs": [
        {
          "internalType": "uint256",
          "name": "amount",
          "type": "uint256"
        },
        {
          "internalType": "string",
          "name": "reason",
          "type": "string"
        }
      ],
      "name": "decrementTotalRedeemableE",
      "outputs": [],
      "payable": false,
      "stateMutability": "nonpayable",
      "type": "function"
    },
    {
      "constant": true,
      "inputs": [],
      "name": "dollar",
      "outputs": [
        {
          "internalType": "contract IDollar",
          "name": "",
          "type": "address"
        }
      ],
      "payable": false,
      "stateMutability": "view",
      "type": "function"
    },
    {
      "constant": false,
      "inputs": [
        {
          "internalType": "uint256",
          "name": "epoch",
          "type": "uint256"
        }
      ],
      "name": "eliminateOutstandingCouponsE",
      "outputs": [],
      "payable": false,
      "stateMutability": "nonpayable",
      "type": "function"
    },
    {
      "constant": false,
      "inputs": [
        {
          "internalType": "address",
          "name": "candidate",
          "type": "address"
        }
      ],
      "name": "emergencyCommit",
      "outputs": [],
      "payable": false,
      "stateMutability": "nonpayable",
      "type": "function"
    },
    {
      "constant": true,
      "inputs": [],
      "name": "epoch",
      "outputs": [
        {
          "internalType": "uint256",
          "name": "",
          "type": "uint256"
        }
      ],
      "payable": false,
      "stateMutability": "view",
      "type": "function"
    },
    {
      "constant": true,
      "inputs": [
        {
          "internalType": "uint256",
          "name": "epoch",
          "type": "uint256"
        }
      ],
      "name": "expiringCoupons",
      "outputs": [
        {
          "internalType": "uint256",
          "name": "",
          "type": "uint256"
        }
      ],
      "payable": false,
      "stateMutability": "view",
      "type": "function"
    },
    {
      "constant": true,
      "inputs": [
        {
          "internalType": "uint256",
          "name": "epoch",
          "type": "uint256"
        },
        {
          "internalType": "uint256",
          "name": "i",
          "type": "uint256"
        }
      ],
      "name": "expiringCouponsAtIndex",
      "outputs": [
        {
          "internalType": "uint256",
          "name": "",
          "type": "uint256"
        }
      ],
      "payable": false,
      "stateMutability": "view",
      "type": "function"
    },
    {
      "constant": true,
      "inputs": [
        {
          "internalType": "address",
          "name": "account",
          "type": "address"
        }
      ],
      "name": "fluidUntil",
      "outputs": [
        {
          "internalType": "uint256",
          "name": "",
          "type": "uint256"
        }
      ],
      "payable": false,
      "stateMutability": "view",
      "type": "function"
    },
    {
      "constant": true,
      "inputs": [
        {
          "internalType": "uint256",
          "name": "epoch",
          "type": "uint256"
        }
      ],
      "name": "getAvgExpiryFilled",
      "outputs": [
        {
          "internalType": "uint256",
          "name": "",
          "type": "uint256"
        }
      ],
      "payable": false,
      "stateMutability": "view",
      "type": "function"
    },
    {
      "constant": true,
      "inputs": [
        {
          "internalType": "uint256",
          "name": "epoch",
          "type": "uint256"
        }
      ],
      "name": "getAvgYieldFilled",
      "outputs": [
        {
          "internalType": "uint256",
          "name": "",
          "type": "uint256"
        }
      ],
      "payable": false,
      "stateMutability": "view",
      "type": "function"
    },
    {
      "constant": true,
      "inputs": [
        {
          "internalType": "uint256",
          "name": "epoch",
          "type": "uint256"
        }
      ],
      "name": "getBidToCover",
      "outputs": [
        {
          "internalType": "uint256",
          "name": "",
          "type": "uint256"
        }
      ],
      "payable": false,
      "stateMutability": "view",
      "type": "function"
    },
    {
      "constant": true,
      "inputs": [],
      "name": "getLatestDeadAuctionEpoch",
      "outputs": [
        {
          "internalType": "uint256",
          "name": "",
          "type": "uint256"
        }
      ],
      "payable": false,
      "stateMutability": "view",
      "type": "function"
    },
    {
      "constant": true,
      "inputs": [
        {
          "internalType": "uint256",
          "name": "epoch",
          "type": "uint256"
        }
      ],
      "name": "getMaxExpiryFilled",
      "outputs": [
        {
          "internalType": "uint256",
          "name": "",
          "type": "uint256"
        }
      ],
      "payable": false,
      "stateMutability": "view",
      "type": "function"
    },
    {
      "constant": true,
      "inputs": [
        {
          "internalType": "uint256",
          "name": "epoch",
          "type": "uint256"
        }
      ],
      "name": "getMaxYieldFilled",
      "outputs": [
        {
          "internalType": "uint256",
          "name": "",
          "type": "uint256"
        }
      ],
      "payable": false,
      "stateMutability": "view",
      "type": "function"
    },
    {
      "constant": true,
      "inputs": [
        {
          "internalType": "uint256",
          "name": "epoch",
          "type": "uint256"
        }
      ],
      "name": "getMinExpiryFilled",
      "outputs": [
        {
          "internalType": "uint256",
          "name": "",
          "type": "uint256"
        }
      ],
      "payable": false,
      "stateMutability": "view",
      "type": "function"
    },
    {
      "constant": true,
      "inputs": [
        {
          "internalType": "uint256",
          "name": "epoch",
          "type": "uint256"
        }
      ],
      "name": "getMinYieldFilled",
      "outputs": [
        {
          "internalType": "uint256",
          "name": "",
          "type": "uint256"
        }
      ],
      "payable": false,
      "stateMutability": "view",
      "type": "function"
    },
    {
      "constant": true,
      "inputs": [
        {
          "internalType": "uint256",
          "name": "epoch",
          "type": "uint256"
        }
      ],
      "name": "getTotalAuctioned",
      "outputs": [
        {
          "internalType": "uint256",
          "name": "",
          "type": "uint256"
        }
      ],
      "payable": false,
      "stateMutability": "view",
      "type": "function"
    },
    {
      "constant": true,
      "inputs": [
        {
          "internalType": "uint256",
          "name": "epoch",
          "type": "uint256"
        }
      ],
      "name": "getTotalBurned",
      "outputs": [
        {
          "internalType": "uint256",
          "name": "",
          "type": "uint256"
        }
      ],
      "payable": false,
      "stateMutability": "view",
      "type": "function"
    },
    {
      "constant": true,
      "inputs": [
        {
          "internalType": "uint256",
          "name": "epoch",
          "type": "uint256"
        }
      ],
      "name": "getTotalFilled",
      "outputs": [
        {
          "internalType": "uint256",
          "name": "",
          "type": "uint256"
        }
      ],
      "payable": false,
      "stateMutability": "view",
      "type": "function"
    },
    {
      "constant": true,
      "inputs": [],
      "name": "implementation",
      "outputs": [
        {
          "internalType": "address",
          "name": "impl",
          "type": "address"
        }
      ],
      "payable": false,
      "stateMutability": "view",
      "type": "function"
    },
    {
      "constant": false,
      "inputs": [
        {
          "internalType": "uint256",
          "name": "amount",
          "type": "uint256"
        }
      ],
      "name": "increaseDebtE",
      "outputs": [],
      "payable": false,
      "stateMutability": "nonpayable",
      "type": "function"
    },
    {
      "constant": false,
      "inputs": [
        {
          "internalType": "address",
          "name": "candidate",
          "type": "address"
        },
        {
          "internalType": "uint256",
          "name": "amount",
          "type": "uint256"
        }
      ],
      "name": "incrementApproveForE",
      "outputs": [],
      "payable": false,
      "stateMutability": "nonpayable",
      "type": "function"
    },
    {
      "constant": false,
      "inputs": [
        {
          "internalType": "address",
          "name": "account",
          "type": "address"
        },
        {
          "internalType": "uint256",
          "name": "epoch",
          "type": "uint256"
        },
        {
          "internalType": "uint256",
          "name": "amount",
          "type": "uint256"
        }
      ],
      "name": "incrementBalanceOfCouponsE",
      "outputs": [],
      "payable": false,
      "stateMutability": "nonpayable",
      "type": "function"
    },
    {
      "constant": false,
      "inputs": [
        {
          "internalType": "address",
          "name": "account",
          "type": "address"
        },
        {
          "internalType": "uint256",
          "name": "amount",
          "type": "uint256"
        }
      ],
      "name": "incrementBalanceOfE",
      "outputs": [],
      "payable": false,
      "stateMutability": "nonpayable",
      "type": "function"
    },
    {
      "constant": false,
      "inputs": [
        {
          "internalType": "address",
          "name": "account",
          "type": "address"
        },
        {
          "internalType": "uint256",
          "name": "amount",
          "type": "uint256"
        }
      ],
      "name": "incrementBalanceOfStagedE",
      "outputs": [],
      "payable": false,
      "stateMutability": "nonpayable",
      "type": "function"
    },
    {
      "constant": false,
      "inputs": [],
      "name": "incrementEpochE",
      "outputs": [],
      "payable": false,
      "stateMutability": "nonpayable",
      "type": "function"
    },
    {
      "constant": false,
      "inputs": [
        {
          "internalType": "address",
          "name": "candidate",
          "type": "address"
        },
        {
          "internalType": "uint256",
          "name": "amount",
          "type": "uint256"
        }
      ],
      "name": "incrementRejectForE",
      "outputs": [],
      "payable": false,
      "stateMutability": "nonpayable",
      "type": "function"
    },
    {
      "constant": false,
      "inputs": [
        {
          "internalType": "uint256",
          "name": "amount",
          "type": "uint256"
        }
      ],
      "name": "incrementTotalBondedE",
      "outputs": [],
      "payable": false,
      "stateMutability": "nonpayable",
      "type": "function"
    },
    {
      "constant": false,
      "inputs": [
        {
          "internalType": "uint256",
          "name": "amount",
          "type": "uint256"
        }
      ],
      "name": "incrementTotalDebtE",
      "outputs": [],
      "payable": false,
      "stateMutability": "nonpayable",
      "type": "function"
    },
    {
      "constant": false,
      "inputs": [
        {
          "internalType": "uint256",
          "name": "amount",
          "type": "uint256"
        }
      ],
      "name": "incrementTotalRedeemableE",
      "outputs": [],
      "payable": false,
      "stateMutability": "nonpayable",
      "type": "function"
    },
    {
      "constant": false,
      "inputs": [
        {
          "internalType": "uint256",
          "name": "epoch",
          "type": "uint256"
        },
        {
          "internalType": "uint256",
          "name": "expiration",
          "type": "uint256"
        }
      ],
      "name": "initializeCouponsExpirationE",
      "outputs": [],
      "payable": false,
      "stateMutability": "nonpayable",
      "type": "function"
    },
    {
      "constant": false,
      "inputs": [
        {
          "internalType": "address",
          "name": "candidate",
          "type": "address"
        }
      ],
      "name": "initializedE",
      "outputs": [],
      "payable": false,
      "stateMutability": "nonpayable",
      "type": "function"
    },
    {
      "constant": false,
      "inputs": [
        {
          "internalType": "uint256",
          "name": "epoch",
          "type": "uint256"
        }
      ],
      "name": "isCouponAuctionInitAtEpochE",
      "outputs": [
        {
          "internalType": "bool",
          "name": "",
          "type": "bool"
        }
      ],
      "payable": false,
      "stateMutability": "nonpayable",
      "type": "function"
    },
    {
      "constant": true,
      "inputs": [
        {
          "internalType": "address",
          "name": "candidate",
          "type": "address"
        }
      ],
      "name": "isInitialized",
      "outputs": [
        {
          "internalType": "bool",
          "name": "",
          "type": "bool"
        }
      ],
      "payable": false,
      "stateMutability": "view",
      "type": "function"
    },
    {
      "constant": true,
      "inputs": [
        {
          "internalType": "address",
          "name": "candidate",
          "type": "address"
        }
      ],
      "name": "isNominated",
      "outputs": [
        {
          "internalType": "bool",
          "name": "",
          "type": "bool"
        }
      ],
      "payable": false,
      "stateMutability": "view",
      "type": "function"
    },
    {
      "constant": true,
      "inputs": [
        {
          "internalType": "address",
          "name": "account",
          "type": "address"
        }
      ],
      "name": "lockedUntil",
      "outputs": [
        {
          "internalType": "uint256",
          "name": "",
          "type": "uint256"
        }
      ],
      "payable": false,
      "stateMutability": "view",
      "type": "function"
    },
    {
      "constant": false,
      "inputs": [
        {
          "internalType": "address",
          "name": "account",
          "type": "address"
        },
        {
          "internalType": "uint256",
          "name": "amount",
          "type": "uint256"
        }
      ],
      "name": "mintToAccountE",
      "outputs": [],
      "payable": false,
      "stateMutability": "nonpayable",
      "type": "function"
    },
    {
      "constant": false,
      "inputs": [
        {
          "internalType": "address",
          "name": "account",
          "type": "address"
        },
        {
          "internalType": "uint256",
          "name": "amount",
          "type": "uint256"
        }
      ],
      "name": "mintToE",
      "outputs": [],
      "payable": false,
      "stateMutability": "nonpayable",
      "type": "function"
    },
    {
      "constant": true,
      "inputs": [],
      "name": "name",
      "outputs": [
        {
          "internalType": "string",
          "name": "",
          "type": "string"
        }
      ],
      "payable": false,
      "stateMutability": "view",
      "type": "function"
    },
    {
      "constant": true,
      "inputs": [],
      "name": "oracle",
      "outputs": [
        {
          "internalType": "contract IOracle",
          "name": "",
          "type": "address"
        }
      ],
      "payable": false,
      "stateMutability": "view",
      "type": "function"
    },
    {
      "constant": true,
      "inputs": [
        {
          "internalType": "uint256",
          "name": "epoch",
          "type": "uint256"
        }
      ],
      "name": "outstandingCoupons",
      "outputs": [
        {
          "internalType": "uint256",
          "name": "",
          "type": "uint256"
        }
      ],
      "payable": false,
      "stateMutability": "view",
      "type": "function"
    },
    {
      "constant": true,
      "inputs": [
        {
          "internalType": "address",
          "name": "candidate",
          "type": "address"
        }
      ],
      "name": "periodFor",
      "outputs": [
        {
          "internalType": "uint256",
          "name": "",
          "type": "uint256"
        }
      ],
      "payable": false,
      "stateMutability": "view",
      "type": "function"
    },
    {
      "constant": false,
      "inputs": [
        {
          "internalType": "address",
          "name": "account",
          "type": "address"
        },
        {
          "internalType": "address",
          "name": "candidate",
          "type": "address"
        }
      ],
      "name": "placeLockE",
      "outputs": [],
      "payable": false,
      "stateMutability": "nonpayable",
      "type": "function"
    },
    {
      "constant": true,
      "inputs": [],
      "name": "pool",
      "outputs": [
        {
          "internalType": "address",
          "name": "",
          "type": "address"
        }
      ],
      "payable": false,
      "stateMutability": "view",
      "type": "function"
    },
    {
      "constant": false,
      "inputs": [
        {
          "internalType": "address",
          "name": "account",
          "type": "address"
        },
        {
          "internalType": "address",
          "name": "candidate",
          "type": "address"
        },
        {
          "internalType": "enum Candidate.Vote",
          "name": "vote",
          "type": "uint8"
        }
      ],
      "name": "recordVoteE",
      "outputs": [],
      "payable": false,
      "stateMutability": "nonpayable",
      "type": "function"
    },
    {
      "constant": true,
      "inputs": [
        {
          "internalType": "address",
          "name": "account",
          "type": "address"
        },
        {
          "internalType": "address",
          "name": "candidate",
          "type": "address"
        }
      ],
      "name": "recordedVote",
      "outputs": [
        {
          "internalType": "enum Candidate.Vote",
          "name": "",
          "type": "uint8"
        }
      ],
      "payable": false,
      "stateMutability": "view",
      "type": "function"
    },
    {
      "constant": false,
      "inputs": [
        {
          "internalType": "address",
          "name": "account",
          "type": "address"
        },
        {
          "internalType": "uint256",
          "name": "amount",
          "type": "uint256"
        }
      ],
      "name": "redeemToAccountE",
      "outputs": [],
      "payable": false,
      "stateMutability": "nonpayable",
      "type": "function"
    },
    {
      "constant": true,
      "inputs": [
        {
          "internalType": "address",
          "name": "candidate",
          "type": "address"
        }
      ],
      "name": "rejectFor",
      "outputs": [
        {
          "internalType": "uint256",
          "name": "",
          "type": "uint256"
        }
      ],
      "payable": false,
      "stateMutability": "view",
      "type": "function"
    },
    {
      "constant": false,
      "inputs": [
        {
          "internalType": "uint256",
          "name": "percent",
          "type": "uint256"
        }
      ],
      "name": "resetDebtE",
      "outputs": [],
      "payable": false,
      "stateMutability": "nonpayable",
      "type": "function"
    },
    {
      "constant": false,
      "inputs": [
        {
          "internalType": "uint256",
          "name": "timestamp",
          "type": "uint256"
        }
      ],
      "name": "setBlockTimestamp",
      "outputs": [],
      "payable": false,
      "stateMutability": "nonpayable",
      "type": "function"
    },
    {
      "constant": false,
      "inputs": [
        {
          "internalType": "uint256",
          "name": "start",
          "type": "uint256"
        },
        {
          "internalType": "uint256",
          "name": "period",
          "type": "uint256"
        }
      ],
      "name": "setEpochParamsE",
      "outputs": [],
      "payable": false,
      "stateMutability": "nonpayable",
      "type": "function"
    },
    {
      "constant": false,
      "inputs": [],
      "name": "snapshotTotalBondedE",
      "outputs": [],
      "payable": false,
      "stateMutability": "nonpayable",
      "type": "function"
    },
    {
      "constant": true,
      "inputs": [
        {
          "internalType": "address",
          "name": "candidate",
          "type": "address"
        }
      ],
      "name": "startFor",
      "outputs": [
        {
          "internalType": "uint256",
          "name": "",
          "type": "uint256"
        }
      ],
      "payable": false,
      "stateMutability": "view",
      "type": "function"
    },
    {
      "constant": true,
      "inputs": [
        {
          "internalType": "address",
          "name": "account",
          "type": "address"
        }
      ],
      "name": "statusOf",
      "outputs": [
        {
          "internalType": "enum Account.Status",
          "name": "",
          "type": "uint8"
        }
      ],
      "payable": false,
      "stateMutability": "view",
      "type": "function"
    },
    {
      "constant": true,
      "inputs": [],
      "name": "symbol",
      "outputs": [
        {
          "internalType": "string",
          "name": "",
          "type": "string"
        }
      ],
      "payable": false,
      "stateMutability": "view",
      "type": "function"
    },
    {
      "constant": true,
      "inputs": [],
      "name": "totalBonded",
      "outputs": [
        {
          "internalType": "uint256",
          "name": "",
          "type": "uint256"
        }
      ],
      "payable": false,
      "stateMutability": "view",
      "type": "function"
    },
    {
      "constant": true,
      "inputs": [
        {
          "internalType": "uint256",
          "name": "epoch",
          "type": "uint256"
        }
      ],
      "name": "totalBondedAt",
      "outputs": [
        {
          "internalType": "uint256",
          "name": "",
          "type": "uint256"
        }
      ],
      "payable": false,
      "stateMutability": "view",
      "type": "function"
    },
    {
      "constant": true,
      "inputs": [],
      "name": "totalCoupons",
      "outputs": [
        {
          "internalType": "uint256",
          "name": "",
          "type": "uint256"
        }
      ],
      "payable": false,
      "stateMutability": "view",
      "type": "function"
    },
    {
      "constant": true,
      "inputs": [],
      "name": "totalDebt",
      "outputs": [
        {
          "internalType": "uint256",
          "name": "",
          "type": "uint256"
        }
      ],
      "payable": false,
      "stateMutability": "view",
      "type": "function"
    },
    {
      "constant": true,
      "inputs": [],
      "name": "totalNet",
      "outputs": [
        {
          "internalType": "uint256",
          "name": "",
          "type": "uint256"
        }
      ],
      "payable": false,
      "stateMutability": "view",
      "type": "function"
    },
    {
      "constant": true,
      "inputs": [],
      "name": "totalRedeemable",
      "outputs": [
        {
          "internalType": "uint256",
          "name": "",
          "type": "uint256"
        }
      ],
      "payable": false,
      "stateMutability": "view",
      "type": "function"
    },
    {
      "constant": true,
      "inputs": [],
      "name": "totalStaged",
      "outputs": [
        {
          "internalType": "uint256",
          "name": "",
          "type": "uint256"
        }
      ],
      "payable": false,
      "stateMutability": "view",
      "type": "function"
    },
    {
      "constant": true,
      "inputs": [],
      "name": "totalSupply",
      "outputs": [
        {
          "internalType": "uint256",
          "name": "",
          "type": "uint256"
        }
      ],
      "payable": false,
      "stateMutability": "view",
      "type": "function"
    },
    {
      "constant": false,
      "inputs": [
        {
          "internalType": "address",
          "name": "recipient",
          "type": "address"
        },
        {
          "internalType": "uint256",
          "name": "amount",
          "type": "uint256"
        }
      ],
      "name": "transfer",
      "outputs": [
        {
          "internalType": "bool",
          "name": "",
          "type": "bool"
        }
      ],
      "payable": false,
      "stateMutability": "nonpayable",
      "type": "function"
    },
    {
      "constant": false,
      "inputs": [
        {
          "internalType": "address",
          "name": "sender",
          "type": "address"
        },
        {
          "internalType": "address",
          "name": "recipient",
          "type": "address"
        },
        {
          "internalType": "uint256",
          "name": "amount",
          "type": "uint256"
        }
      ],
      "name": "transferFrom",
      "outputs": [
        {
          "internalType": "bool",
          "name": "",
          "type": "bool"
        }
      ],
      "payable": false,
      "stateMutability": "nonpayable",
      "type": "function"
    },
    {
      "constant": false,
      "inputs": [
        {
          "internalType": "address",
          "name": "account",
          "type": "address"
        }
      ],
      "name": "unfreezeE",
      "outputs": [],
      "payable": false,
      "stateMutability": "nonpayable",
      "type": "function"
    },
    {
      "constant": false,
      "inputs": [
        {
          "internalType": "address",
          "name": "owner",
          "type": "address"
        },
        {
          "internalType": "address",
          "name": "spender",
          "type": "address"
        },
        {
          "internalType": "uint256",
          "name": "amount",
          "type": "uint256"
        }
      ],
      "name": "updateAllowanceCouponsE",
      "outputs": [],
      "payable": false,
      "stateMutability": "nonpayable",
      "type": "function"
    },
    {
      "constant": false,
      "inputs": [
        {
          "internalType": "address",
          "name": "candidate",
          "type": "address"
        },
        {
          "internalType": "enum Candidate.Vote",
          "name": "vote",
          "type": "uint8"
        }
      ],
      "name": "vote",
      "outputs": [],
      "payable": false,
      "stateMutability": "nonpayable",
      "type": "function"
    },
    {
      "constant": true,
      "inputs": [
        {
          "internalType": "address",
          "name": "candidate",
          "type": "address"
        }
      ],
      "name": "votesFor",
      "outputs": [
        {
          "internalType": "uint256",
          "name": "",
          "type": "uint256"
        }
      ],
      "payable": false,
      "stateMutability": "view",
      "type": "function"
    },
    {
      "constant": false,
      "inputs": [],
      "name": "initialize",
      "outputs": [],
      "payable": false,
      "stateMutability": "nonpayable",
      "type": "function"
    },
    {
      "constant": false,
      "inputs": [
        {
          "internalType": "address",
          "name": "newImplementation",
          "type": "address"
        }
      ],
      "name": "upgradeToE",
      "outputs": [],
      "payable": false,
      "stateMutability": "nonpayable",
      "type": "function"
    },
    {
      "constant": false,
      "inputs": [
        {
          "internalType": "uint256",
          "name": "epochTime",
          "type": "uint256"
        }
      ],
      "name": "setEpochTime",
      "outputs": [],
      "payable": false,
      "stateMutability": "nonpayable",
      "type": "function"
    },
    {
      "constant": true,
      "inputs": [],
      "name": "epochTime",
      "outputs": [
        {
          "internalType": "uint256",
          "name": "",
          "type": "uint256"
        }
      ],
      "payable": false,
      "stateMutability": "view",
      "type": "function"
    }
  ],
  "bytecode": "0x60806040523480156200001157600080fd5b504260105560405160009062000027906200007a565b604051809103906000f08015801562000044573d6000803e3d6000fd5b50600a80546001600160a01b039283166001600160a01b031991821617909155600c805493909216921691909117905562000088565b611c06806200359583390190565b6134fd80620000986000396000f3fe608060405234801561001057600080fd5b506004361061054b5760003560e01c8063825ad607116102ca578063b16144a31161018d578063d53c6f5f116100f4578063e0abdf66116100ad578063f35adf7e11610087578063f35adf7e14610bbf578063f7a3181814610bc7578063fc7b9c1814610bda578063ffbe3b7314610be25761054b565b8063e0abdf6614610b86578063eeaca09b14610b99578063f1b7cf4914610bac5761054b565b8063d53c6f5f14610b19578063d60b347f14610b2c578063d6d8816d14610b3f578063d83d3ed514610b52578063dd62ed3e14610b65578063dde74dc314610b735761054b565b8063c34eee6511610146578063c34eee6514610ab2578063c45a3e0a14610ac5578063c9aff70c14610ad8578063cb0fbc7114610aeb578063cc8d823c14610afe578063cf02377914610b115761054b565b8063b16144a314610a40578063b32a2f9014610a53578063bc7513e214610a66578063bceb514d14610a79578063c1410c0214610a8c578063c2aeb5fe14610a9f5761054b565b80639be4649311610231578063a6f37b53116101ea578063a6f37b53146109e1578063a9059cbb1461056e578063a9b3cf15146109f4578063adbff2be14610a07578063ae5c238114610a1a578063b11ee0e314610a2d5761054b565b80639be464931461097a5780639f1a09291461098d5780639f6e1b26146109a0578063a00e14d1146109b3578063a50cd8e7146109c6578063a6c409f1146109d95761054b565b8063900cf0cf11610283578063900cf0cf1461092957806395d89b411461093157806397a5d5b5146109395780639a649edc1461094c5780639b82b49b146109545780639bc289f1146109675761054b565b8063825ad607146108c25780638413e52a146108d557806386cf9f14146108e85780638a558b04146108fb5780638de2e5731461090e5780638e825388146109215761054b565b80633fd4973c11610412578063646680221161037957806375d5024b1161033257806375d5024b146108665780637a26ec28146108795780637cb95a321461088c5780637d8bb8691461089f5780637dc0d1d0146108b25780638129fc1c146108ba5761054b565b806364668022146107ff5780636a39e328146108125780636b862d661461082557806370a082311461083857806371c511eb1461084b57806372924d2a146108535761054b565b806351adeb57116103cb57806351adeb571461079657806351bf21d8146107ab578063520acb76146107be5780635c60da1b146107d15780635dbf800a146107d95780635f14fec8146107ec5761054b565b80633fd4973c1461073a578063438735261461074d57806344d96e951461076057806347c05069146107685780634c7360991461077b5780635053e4611461078e5761054b565b806323b872dd116104b6578063353a420c1161046f578063353a420c146106bb578063369e8c1d146106ce5780633a3e6c81146106e15780633dc905c7146106f45780633f7bcaf3146107075780633fbba9a61461071a5761054b565b806323b872dd14610647578063259f7adf1461065a578063277805a91461066d5780632d7f23b314610680578063313ce5671461069357806332347422146106a85761054b565b806316f0115b1161050857806316f0115b146105e957806318160ddd146105fe5780631a08e22a146106065780631edbcf6c146106195780631fac97321461062157806320f6bc90146106345761054b565b806306fdde0314610550578063095ea7b31461056e5780630dc6d3a31461058e57806310e95b6c146105a35780631550ec24146105c357806315e14bf6146105d6575b600080fd5b610558610bf5565b6040516105659190613329565b60405180910390f35b61058161057c366004612eba565b610c2c565b60405161056591906132f1565b6105a161059c366004612e0c565b610c35565b005b6105b66105b1366004612fd7565b610c7e565b604051610565919061337a565b6105816105d1366004612fd7565b610c96565b6105b66105e4366004612d24565b610cb0565b6105f1610cce565b60405161056591906132a0565b6105b6610cdd565b6105a1610614366004613069565b610ce3565b6105b6610cf1565b6105a161062f366004612fd7565b610cf7565b6105a1610642366004612eba565b610d03565b610581610655366004612dc9565b610d0d565b6105a1610668366004612fd7565b610d17565b6105a161067b366004612eba565b610d20565b6105b661068e366004612fd7565b610dac565b61069b610dc1565b6040516105659190613388565b6105a16106b6366004613013565b610dc6565b6105b66106c9366004612d24565b610e06565b6105a16106dc366004612d24565b610e24565b6105816106ef366004612d24565b610f7e565b6105b6610702366004612fd7565b610f9b565b6105a1610715366004612dc9565b610fb1565b61072d610728366004612d42565b610fbc565b604051610565919061330d565b6105a1610748366004612eea565b610fef565b6105a161075b366004612fd7565b611036565b6105b661103f565b6105a1610776366004612d24565b611045565b6105b6610789366004613069565b611138565b6105b6611168565b61079e61116e565b60405161056591906132ff565b6105b66107b9366004612d24565b61117d565b6105b66107cc366004612fd7565b61119b565b6105f16111b0565b6105a16107e7366004612fd7565b6111d5565b6105a16107fa366004612eba565b6111de565b6105b661080d366004612d24565b6111e8565b6105b6610820366004612fd7565b611206565b6105a1610833366004612f52565b61121b565b6105b6610846366004612d24565b611226565b6105a1611244565b6105a1610861366004613013565b61124e565b610581610874366004612fd7565b61128e565b6105a1610887366004612fd7565b6112a1565b6105a161089a366004612eea565b6112a6565b6105b66108ad366004612fd7565b6112e7565b61079e6112fc565b6105a161130b565b6105b66108d0366004612d24565b61132c565b6105a16108e3366004612d7c565b611378565b6105b66108f6366004612d24565b611383565b6105a1610909366004612d24565b61139e565b6105a161091c366004612fd7565b6113a7565b6105b66113b0565b6105b66113b6565b6105586113bc565b61072d610947366004612d24565b6113da565b6105b661143f565b6105a1610962366004613013565b611445565b6105b6610975366004612d24565b611485565b6105a1610988366004612d24565b6114a3565b6105b661099b366004612fd7565b6114ac565b6105b66109ae366004612d42565b6114c1565b6105a16109c1366004613069565b6114f0565b6105b66109d4366004612d24565b6114fb565b6105b6611512565b6105a16109ef366004612d24565b61159c565b6105a1610a02366004612fd7565b6115a5565b6105a1610a15366004612eea565b6115ae565b6105a1610a28366004612eba565b6115ef565b6105a1610a3b366004612eba565b6115f9565b6105a1610a4e366004612fd7565b611603565b6105a1610a61366004612eea565b611616565b6105b6610a74366004612eba565b611657565b6105a1610a87366004612e8a565b61169b565b6105a1610a9a366004612d42565b61197c565b6105a1610aad366004612f84565b611986565b6105b6610ac0366004612fd7565b6119c8565b6105a1610ad3366004612eba565b6119dd565b6105b6610ae6366004612fd7565b6119e7565b6105b6610af9366004612fd7565b6119fc565b6105a1610b0c366004612eba565b611a11565b6105b6611a1b565b6105b6610b27366004612fd7565b611a21565b610581610b3a366004612d24565b611a36565b6105a1610b4d366004612fd7565b611a57565b6105a1610b60366004612eba565b611a60565b6105b661057c366004612d42565b6105b6610b81366004612fd7565b611a6a565b6105a1610b94366004612fd7565b611a7f565b6105b6610ba7366004612fd7565b611a84565b6105b6610bba366004612d24565b611a99565b6105a1611ab4565b6105a1610bd5366004612eba565b611abc565b6105b6611ac6565b6105b6610bf0366004612fd7565b611acc565b60408051808201909152601881527f44796e616d69632053657420446f6c6c6172205374616b650000000000000000602082015290565b60005b92915050565b610c7785858585858080601f016020809104026020016040519081016040528093929190818152602001838380828437600092019190915250611ade92505050565b5050505050565b6000818152600e60205260409020600201545b919050565b6000610ca182611b4f565b54610100900460ff1692915050565b6001600160a01b03166000908152600f602052604090206001015490565b600c546001600160a01b031690565b60045490565b610ced8282611b63565b5050565b60075490565b610d0081611b95565b50565b610ced8282611bdc565b60005b9392505050565b610d0081611c84565b610d2861116e565b6001600160a01b03166340c10f1983836040518363ffffffff1660e01b8152600401610d559291906132d6565b602060405180830381600087803b158015610d6f57600080fd5b505af1158015610d83573d6000803e3d6000fd5b505050506040513d601f19601f82011682018060405250610da79190810190612fb9565b505050565b6000908152600e60205260409020600a015490565b601290565b610da78383838080601f016020809104026020016040519081016040528093929190818152602001838380828437600092019190915250611c9d92505050565b6001600160a01b03166000908152600f602052604090206003015490565b610e50610e3082610f7e565b6523b7bb32b93760d11b6c139bdd081b9bdb5a5b985d1959609a1b611cb8565b6000610e846001610e78610e6385610cb0565b610e6c86611a99565b9063ffffffff611d0d16565b9063ffffffff611d3216565b9050610eaf81610e926113b6565b116523b7bb32b93760d11b68139bdd08195b99195960ba1b611cb8565b610f06610ee3610ebd611d74565b610ed7610ec9866114fb565b610ed286611acc565b611d96565b9063ffffffff611dc516565b6523b7bb32b93760d11b6f4d75737420686176652071756f726f6d60801b611cb8565b610f3b610f1283610e06565b610f1b846111e8565b116523b7bb32b93760d11b6b139bdd08185c1c1c9bdd995960a21b611cb8565b610f4482611ddb565b6040516001600160a01b0383169033907f815ca4497ab9fc80c76f210e6e842a5e198e195aa136034557eee144f790e7bb90600090a35050565b6001600160a01b03166000908152600f6020526040902054151590565b6000908152600e60208190526040909120015490565b610da7838383611ec7565b6001600160a01b038082166000908152600f60209081526040808320938616835260049093019052205460ff1692915050565b611030848484848080601f016020809104026020016040519081016040528093929190818152602001838380828437600092019190915250611ef792505050565b50505050565b610d0081611f48565b60055490565b611051610e3082610f7e565b61108f61106761105f611f5c565b610e6c6113b6565b61106f611168565b116523b7bb32b93760d11b6b115c1bd8da081cde5b98d95960a21b611cb8565b6110e16110b161109d611f61565b610ed76110a9856111e8565b610ed2610cdd565b6523b7bb32b93760d11b7f4d7573742068617665207375706572206d616a6f726974790000000000000000611cb8565b6110f66110ed82610e06565b610f1b836111e8565b6110ff81611ddb565b6040516001600160a01b0382169033907f815ca4497ab9fc80c76f210e6e842a5e198e195aa136034557eee144f790e7bb90600090a350565b6000828152600e6020526040812060030180548390811061115557fe5b9060005260206000200154905092915050565b60115490565b600a546001600160a01b031690565b6001600160a01b03166000908152600d602052604090206004015490565b6000908152600e602052604090206010015490565b7f360894a13ba1a3210667c828492db98dca3e2076cc3735a920a3ca505d382bbc5490565b610d0081611f83565b610ced828261200a565b6001600160a01b03166000908152600f602052604090206002015490565b6000908152600e602052604090206003015490565b610da783838361211b565b6001600160a01b03166000908152600d602052604090206001015490565b61124c6121c2565b565b610da78383838080601f0160208091040260200160405190810160405280939291908181526020018383808284376000920191909152506121e992505050565b6000611298612204565b90911115919050565b601155565b611030848484848080601f01602080910402602001604051908101604052809392919081815260200183838082843760009201919091525061220992505050565b6000908152600e602052604090206012015490565b600b546001600160a01b031690565b60405162461bcd60e51b81526004016113239061336a565b60405180910390fd5b600080611337610cdd565b905080611348576000915050610c91565b610d108161136c61135886611226565b61136061103f565b9063ffffffff61225a16565b9063ffffffff61229416565b610da78383836122d6565b6001600160a01b03166000908152600d602052604090205490565b610d0081611ddb565b610d0081612320565b60035490565b60025490565b6040805180820190915260048152634453445360e01b602082015290565b60006113e46113b6565b6001600160a01b0383166000908152600d6020526040902060050154111561140e57506002610c91565b6001600160a01b0382166000908152600d60205260409020600401546114326113b6565b1015610c2c576001610c2f565b60095490565b610da78383838080601f01602080910402602001604051908101604052809392919081815260200183838082843760009201919091525061233992505050565b6001600160a01b03166000908152600d602052604090206005015490565b610d0081612354565b6000908152600e60205260409020600d015490565b6001600160a01b039182166000908152600d602090815260408083209390941682526003909201909152205490565b600091909155600155565b6000610c2f61150983610e06565b610e6c846111e8565b600061159761151f611ac6565b61152761116e565b6001600160a01b03166318160ddd6040518163ffffffff1660e01b815260040160206040518083038186803b15801561155f57600080fd5b505afa158015611573573d6000803e3d6000fd5b505050506040513d601f19601f82011682018060405250610e789190810190612ff5565b905090565b610d008161237e565b610d00816123a5565b611030848484848080601f0160208091040260200160405190810160405280939291908181526020018383808284376000920191909152506123e892505050565b610ced8282612493565b610ced828261253b565b610d00611611826064611d96565b612597565b611030848484848080601f01602080910402602001604051908101604052809392919081815260200183838082843760009201919091525061265c92505050565b6000611662826119e7565b61166e57506000610c2f565b506001600160a01b03919091166000908152600d6020908152604080832093835260029093019052205490565b336116e260016116aa836113da565b60028111156116b557fe5b1415692832b936b4b9b9b4b7b760b11b73139bdd08199c9bde995b881bdc881b1bd8dad95960621b611cb8565b61171360006116f033611226565b116523b7bb32b93760d11b6e4d7573742068617665207374616b6560881b611cb8565b61171c83610f7e565b6117bf5761175c61172c336126bb565b6523b7bb32b93760d11b7f4e6f7420656e6f756768207374616b6520746f2070726f706f73650000000000611cb8565b61176d836117686126ff565b612704565b6117756113b6565b336001600160a01b0385167fd15e38a680a427478883cd2d32eb664cb6bb2090b0126a23ebaf3e3784b8c56b6117a96126ff565b6040516117b6919061337a565b60405180910390a45b6117ef6117ce610e6385610cb0565b6117d66113b6565b106523b7bb32b93760d11b64115b99195960da1b611cb8565b60006117fa33611226565b905060006118083386610fbc565b905080600281111561181657fe5b84600281111561182257fe5b141561182f575050610da7565b600281600281111561183d57fe5b14156118835761188385836040518060400160405280601b81526020017f476f7665726e3a20496e73756666696369656e742072656a6563740000000000815250611ef7565b600181600281111561189157fe5b14156118d7576118d785836040518060400160405280601c81526020017f476f7665726e3a20496e73756666696369656e7420617070726f766500000000815250612209565b60028460028111156118e557fe5b14156118f5576118f58583612730565b600184600281111561190357fe5b141561191357611913858361277f565b61191e3386866122d6565b61192833866127ce565b846001600160a01b0316336001600160a01b03167fbe50c78cbc15b0864819aadea36c6499da421b33c38e2ef19bebda583c708c78868560405161196d92919061331b565b60405180910390a35050505050565b610ced82826127ce565b610c7785858585858080601f01602080910402602001604051908101604052809392919081815260200183838082843760009201919091525061282e92505050565b6000908152600e602052604090206011015490565b610ced82826128d9565b6000908152600e602052604090206001015490565b6000908152600e602052604090206013015490565b610ced8282612730565b60065490565b6000908152600e60205260409020600f015490565b6001600160a01b03166000908152600f602052604090206005015460ff1690565b610d0081612983565b610ced8282612704565b6000908152600e60205260409020600c015490565b601055565b6000908152600e60205260409020600b015490565b6001600160a01b03166000908152600f602052604090205490565b61124c61299c565b610ced828261277f565b60085490565b6000908152600e602052604090205490565b6001600160a01b038085166000908152600d602090815260408083209387168352600390930190522054611b1990838363ffffffff6129b516565b6001600160a01b039485166000908152600d60209081526040808320969097168252600390950190945293909220929092555050565b6000908152600e6020526040902060040190565b6000828152600e6020908152604080832060020184905592825291812060030180546001810182559082529190200155565b611bd4816040518060400160405280601c81526020017f436f6d7074726f6c6c65723a206e6f7420656e6f7567682064656274000000008152506121e9565b610d006129e1565b611be461116e565b6001600160a01b03166340c10f1983836040518363ffffffff1660e01b8152600401611c119291906132d6565b602060405180830381600087803b158015611c2b57600080fd5b505af1158015611c3f573d6000803e3d6000fd5b505050506040513d601f19601f82011682018060405250611c639190810190612fb9565b50611c6f6108746113b6565b611c7c57611c7c81611f48565b610ced6129e1565b600554611c97908263ffffffff611d0d16565b60055550565b600754611cb190838363ffffffff6129b516565b6007555050565b82610da757611cc682612ab4565b6101d160f51b611cd583612ab4565b604051602001611ce79392919061326f565b60408051601f198184030181529082905262461bcd60e51b825261132391600401613329565b600082820183811015610d105760405162461bcd60e51b81526004016113239061333a565b6000610d1083836040518060400160405280601e81526020017f536166654d6174683a207375627472616374696f6e206f766572666c6f7700008152506129b5565b611d7c612c91565b5060408051602081019091526702c68af0bb140000815290565b611d9e612c91565b6040518060200160405280611dbc85670de0b6b3a764000086612b34565b90529392505050565b6000611dd18383612b52565b6002149392505050565b611de481612b84565b60408051600481526024810182526020810180516001600160e01b031663204a7f0760e21b17905290516000916060916001600160a01b03851691611e2891613263565b600060405180830381855af49150503d8060008114611e63576040519150601f19603f3d011682016040523d82523d6000602084013e611e68565b606091505b5091509150818190611e8d5760405162461bcd60e51b81526004016113239190613329565b506040516001600160a01b038416907fbc7cd75a20ee27fd9adebab32041f755214dbc6bffa90cc0225b39da2e5c2d3b90600090a2505050565b6001600160a01b039283166000908152600d60209081526040808320949095168252600390930190925291902055565b6001600160a01b0383166000908152600f6020526040902060030154611f2490838363ffffffff6129b516565b6001600160a01b039093166000908152600f60205260409020600301929092555050565b611f5181612320565b611bd4611611612bcd565b600690565b611f69612c91565b506040805160208101909152670928ca80cfc20000815290565b611f8b61116e565b6001600160a01b03166342966c68826040518263ffffffff1660e01b8152600401611fb6919061337a565b600060405180830381600087803b158015611fd057600080fd5b505af1158015611fe4573d6000803e3d6000fd5b50505050611bd4816040518060600160405280602a8152602001613491602a9139611c9d565b61201261116e565b6001600160a01b03166323b872dd8330846040518463ffffffff1660e01b8152600401612041939291906132ae565b602060405180830381600087803b15801561205b57600080fd5b505af115801561206f573d6000803e3d6000fd5b505050506040513d601f19601f820116820180604052506120939190810190612fb9565b5061209c61116e565b6001600160a01b03166342966c68826040518263ffffffff1660e01b81526004016120c7919061337a565b600060405180830381600087803b1580156120e157600080fd5b505af11580156120f5573d6000803e3d6000fd5b50505050611c7c81604051806060016040528060288152602001613469602891396121e9565b6001600160a01b0383166000908152600d60209081526040808320858452600201909152902054612152908263ffffffff611d0d16565b6001600160a01b0384166000908152600d60209081526040808320868452600201825280832093909355600e90522060010154612195908263ffffffff611d0d16565b6000838152600e60205260409020600101556009546121ba908263ffffffff611d0d16565b600955505050565b6121ca610cdd565b600e60006121d66113b6565b8152602081019190915260400160002055565b6008546121fd90838363ffffffff6129b516565b6008555050565b609690565b6001600160a01b0383166000908152600f602052604090206002015461223690838363ffffffff6129b516565b6001600160a01b039093166000908152600f60205260409020600201929092555050565b60008261226957506000610c2f565b8282028284828161227657fe5b0414610d105760405162461bcd60e51b81526004016113239061334a565b6000610d1083836040518060400160405280601a81526020017f536166654d6174683a206469766973696f6e206279207a65726f000000000000815250612bef565b6001600160a01b038083166000908152600f6020908152604080832093871683526004909301905220805482919060ff1916600183600281111561231657fe5b0217905550505050565b600854612333908263ffffffff611d0d16565b60085550565b60055461234d90838363ffffffff6129b516565b6005555050565b61235f61105f6126ff565b6001600160a01b039091166000908152600d6020526040902060040155565b6001600160a01b03166000908152600f60205260409020600501805460ff19166001179055565b60006123b0826119e7565b9050806123bd5750610d00565b6009546123d0908263ffffffff611d3216565b600955506000908152600e6020526040812060010155565b6001600160a01b0383166000908152600d602052604090206001015461241590838363ffffffff6129b516565b6001600160a01b0384166000908152600d602052604090206001015560045461244590838363ffffffff6129b516565b6004556040516000906001600160a01b038516907fddf252ad1be2c89b69c2b068fc378daa952ba7f163c4a11628f55a4df523b3ef9061248690869061337a565b60405180910390a3505050565b6001600160a01b0382166000908152600d60205260409020600101546124bf908263ffffffff611d0d16565b6001600160a01b0383166000908152600d60205260409020600101556004546124ee908263ffffffff611d0d16565b6004556040516001600160a01b038316906000907fddf252ad1be2c89b69c2b068fc378daa952ba7f163c4a11628f55a4df523b3ef9061252f90859061337a565b60405180910390a35050565b6001600160a01b0382166000908152600d6020526040902054612564908263ffffffff611d0d16565b6001600160a01b0383166000908152600d6020526040902055600654612590908263ffffffff611d0d16565b6006555050565b60006126296126246125a761116e565b6001600160a01b03166318160ddd6040518163ffffffff1660e01b815260040160206040518083038186803b1580156125df57600080fd5b505afa1580156125f3573d6000803e3d6000fd5b505050506040513d601f19601f820116820180604052506126179190810190612ff5565b849063ffffffff612c2616565b612c4d565b90506000612635611ac6565b905081811115610da7576000612651828463ffffffff611d3216565b905061103081611b95565b6001600160a01b0383166000908152600d602052604090205461268690838363ffffffff6129b516565b6001600160a01b0384166000908152600d60205260409020556006546126b390838363ffffffff6129b516565b600655505050565b60006126c561103f565b6126d157506000610c91565b6126d9612c91565b6126e56110a984611226565b9050610d106126f2612c6a565b829063ffffffff611dc516565b602490565b61270c6113b6565b6001600160a01b039092166000908152600f60205260409020918255600190910155565b6001600160a01b0382166000908152600f602052604090206003015461275c908263ffffffff611d0d16565b6001600160a01b039092166000908152600f602052604090206003019190915550565b6001600160a01b0382166000908152600f60205260409020600201546127ab908263ffffffff611d0d16565b6001600160a01b039092166000908152600f602052604090206002019190915550565b6001600160a01b0382166000908152600d6020526040812060050154906128006127f784610cb0565b610e6c85611a99565b905081811115611030576001600160a01b0384166000908152600d6020526040902060050181905550505050565b6001600160a01b0384166000908152600d6020908152604080832086845260020190915290205461286690838363ffffffff6129b516565b6001600160a01b0385166000908152600d60209081526040808320878452600201825280832093909355600e905220600101546128aa90838363ffffffff6129b516565b6000848152600e60205260409020600101556009546128d090838363ffffffff6129b516565b60095550505050565b6128e161116e565b6001600160a01b031663a9059cbb83836040518363ffffffff1660e01b815260040161290e9291906132d6565b602060405180830381600087803b15801561292857600080fd5b505af115801561293c573d6000803e3d6000fd5b505050506040513d601f19601f820116820180604052506129609190810190612fb9565b50611c7c816040518060600160405280602a8152602001613491602a9139611c9d565b600754612996908263ffffffff611d0d16565b60075550565b6002546129b090600163ffffffff611d0d16565b600255565b600081848411156129d95760405162461bcd60e51b81526004016113239190613329565b505050900390565b61124c612a026129ef610cf1565b610e6c6129fa611a1b565b610e6c61103f565b612a0a61116e565b6001600160a01b03166370a08231306040518263ffffffff1660e01b8152600401612a3591906132a0565b60206040518083038186803b158015612a4d57600080fd5b505afa158015612a61573d6000803e3d6000fd5b505050506040513d601f19601f82011682018060405250612a859190810190612ff5565b10156a21b7b6b83a3937b63632b960a91b74496e636f6e73697374656e742062616c616e63657360581b611cb8565b60608082604051602001612ac8919061324e565b60408051601f19818403018152919052905060205b8015612b1d57815160001990910190829082908110612af857fe5b01602001516001600160f81b03191615612b185760010181529050610c91565b612add565b505060408051600081526020810190915292915050565b6000612b4a8261136c868663ffffffff61225a16565b949350505050565b805182516000911415612b6757506001610c2f565b8151835111612b77576000612b7a565b60025b60ff169392505050565b612b8d81612c8b565b612ba95760405162461bcd60e51b81526004016113239061335a565b7f360894a13ba1a3210667c828492db98dca3e2076cc3735a920a3ca505d382bbc55565b612bd5612c91565b5060408051602081019091526704db732547630000815290565b60008183612c105760405162461bcd60e51b81526004016113239190613329565b506000838581612c1c57fe5b0495945050505050565b612c2e612c91565b604080516020810190915283518190611dbc908563ffffffff61225a16565b8051600090610c2f90670de0b6b3a764000063ffffffff61229416565b612c72612c91565b5060408051602081019091526611c37937e08000815290565b3b151590565b6040518060200160405280600081525090565b8035610c2f81613435565b8051610c2f81613449565b8035610c2f81613452565b60008083601f840112612cd757600080fd5b50813567ffffffffffffffff811115612cef57600080fd5b602083019150836001820283011115612d0757600080fd5b9250929050565b8035610c2f8161345f565b8051610c2f8161345f565b600060208284031215612d3657600080fd5b6000612b4a8484612ca4565b60008060408385031215612d5557600080fd5b6000612d618585612ca4565b9250506020612d7285828601612ca4565b9150509250929050565b600080600060608486031215612d9157600080fd5b6000612d9d8686612ca4565b9350506020612dae86828701612ca4565b9250506040612dbf86828701612cba565b9150509250925092565b600080600060608486031215612dde57600080fd5b6000612dea8686612ca4565b9350506020612dfb86828701612ca4565b9250506040612dbf86828701612d0e565b600080600080600060808688031215612e2457600080fd5b6000612e308888612ca4565b9550506020612e4188828901612ca4565b9450506040612e5288828901612d0e565b935050606086013567ffffffffffffffff811115612e6f57600080fd5b612e7b88828901612cc5565b92509250509295509295909350565b60008060408385031215612e9d57600080fd5b6000612ea98585612ca4565b9250506020612d7285828601612cba565b60008060408385031215612ecd57600080fd5b6000612ed98585612ca4565b9250506020612d7285828601612d0e565b60008060008060608587031215612f0057600080fd5b6000612f0c8787612ca4565b9450506020612f1d87828801612d0e565b935050604085013567ffffffffffffffff811115612f3a57600080fd5b612f4687828801612cc5565b95989497509550505050565b600080600060608486031215612f6757600080fd5b6000612f738686612ca4565b9350506020612dfb86828701612d0e565b600080600080600060808688031215612f9c57600080fd5b6000612fa88888612ca4565b9550506020612e4188828901612d0e565b600060208284031215612fcb57600080fd5b6000612b4a8484612caf565b600060208284031215612fe957600080fd5b6000612b4a8484612d0e565b60006020828403121561300757600080fd5b6000612b4a8484612d19565b60008060006040848603121561302857600080fd5b60006130348686612d0e565b935050602084013567ffffffffffffffff81111561305157600080fd5b61305d86828701612cc5565b92509250509250925092565b6000806040838503121561307c57600080fd5b6000612ed98585612d0e565b613091816133a3565b82525050565b613091816133ae565b6130916130ac826133b3565b6133c0565b6130916130ac826133c0565b60006130c882613396565b6130d28185610c91565b93506130e28185602086016133f5565b9290920192915050565b613091816133df565b613091816133ea565b600061310982613396565b613113818561339a565b93506131238185602086016133f5565b61312c81613421565b9093019392505050565b6000613143601b8361339a565b7f536166654d6174683a206164646974696f6e206f766572666c6f770000000000815260200192915050565b600061317c60218361339a565b7f536166654d6174683a206d756c7469706c69636174696f6e206f766572666c6f8152607760f81b602082015260400192915050565b60006131bf603b8361339a565b7f43616e6e6f742073657420612070726f787920696d706c656d656e746174696f81527f6e20746f2061206e6f6e2d636f6e747261637420616464726573730000000000602082015260400192915050565b600061321e600f8361339a565b6e14da1bdd5b19081b9bdd0818d85b1b608a1b815260200192915050565b613091816133c0565b613091816133d9565b600061325a82846130b1565b50602001919050565b6000610d1082846130bd565b600061327b82866130bd565b915061328782856130a0565b60028201915061329782846130bd565b95945050505050565b60208101610c2f8284613088565b606081016132bc8286613088565b6132c96020830185613088565b612b4a604083018461323c565b604081016132e48285613088565b610d10602083018461323c565b60208101610c2f8284613097565b60208101610c2f82846130ec565b60208101610c2f82846130f5565b604081016132e482856130f5565b60208082528101610d1081846130fe565b60208082528101610c2f81613136565b60208082528101610c2f8161316f565b60208082528101610c2f816131b2565b60208082528101610c2f81613211565b60208101610c2f828461323c565b60208101610c2f8284613245565b5190565b90815260200190565b6000610c2f826133cd565b151590565b6001600160f01b03191690565b90565b80610c918161342b565b6001600160a01b031690565b60ff1690565b6000610c2f826133a3565b6000610c2f826133c3565b60005b838110156134105781810151838201526020016133f8565b838111156110305750506000910152565b601f01601f191690565b60038110610d0057fe5b61343e816133a3565b8114610d0057600080fd5b61343e816133ae565b60038110610d0057600080fd5b61343e816133c056fe436f6d7074726f6c6c65723a206e6f7420656e6f756768206f75747374616e64696e672064656274436f6d7074726f6c6c65723a206e6f7420656e6f7567682072656465656d61626c652062616c616e6365a365627a7a7231582049bc5bf1c9a215243332a80abbd1972a71e57b90f1122ff49025003af3d372c96c6578706572696d656e74616cf564736f6c6343000511004060806040523480156200001157600080fd5b5060405180604001604052806012815260200171223cb730b6b4b19029b2ba102237b63630b960711b815250604051806040016040528060038152602001621114d160ea1b81525060126200007e6200006f6200011960201b60201c565b6001600160e01b036200011e16565b82516200009390600190602086019062000313565b508151620000a990600290602085019062000313565b506003805460ff191660ff9290921691909117905550620001109050620000cf62000170565b604051806040016040528060018152602001603160f81b815250620000fe6200020960201b620016341760201c565b306200020e60201b620016391760201c565b60075562000469565b335b90565b620001398160006200026560201b62000d7e1790919060201c565b6040516001600160a01b038216907f6ae172837ea30b801fbfcdd4108aa1d5bf8ff775444fd70256b44e6bf3dfc3f690600090a250565b60018054604080516020601f60026000196101008789161502019095169490940493840181900481028201810190925282815260609390929091830182828015620001ff5780601f10620001d357610100808354040283529160200191620001ff565b820191906000526020600020905b815481529060010190602001808311620001e157829003601f168201915b5050505050905090565b600190565b8351602094850120835193850193909320604080517f8b73c3c69bb8fe3d512ecc4cf759cc79239f7b179b0ffacaa9a75d522b39400f815295860194909452928401929092526060830152608082015260a0902090565b6200027a82826001600160e01b03620002c816565b15620002a35760405162461bcd60e51b81526004016200029a9062000436565b60405180910390fd5b6001600160a01b0316600090815260209190915260409020805460ff19166001179055565b60006001600160a01b038216620002f35760405162461bcd60e51b81526004016200029a906200044e565b506001600160a01b03166000908152602091909152604090205460ff1690565b828054600181600116156101000203166002900490600052602060002090601f016020900481019282601f106200035657805160ff191683800117855562000386565b8280016001018555821562000386579182015b828111156200038657825182559160200191906001019062000369565b506200039492915062000398565b5090565b6200011b91905b808211156200039457600081556001016200039f565b6000620003c4601f8362000460565b7f526f6c65733a206163636f756e7420616c72656164792068617320726f6c6500815260200192915050565b6000620003ff60228362000460565b7f526f6c65733a206163636f756e7420697320746865207a65726f206164647265815261737360f01b602082015260400192915050565b602080825281016200044881620003b5565b92915050565b602080825281016200044881620003f0565b90815260200190565b61178d80620004796000396000f3fe608060405234801561001057600080fd5b506004361061012c5760003560e01c806395d89b41116100ad578063aa271e1a11610071578063aa271e1a14610256578063d505accf14610269578063dab400f31461027c578063dd62ed3e14610284578063e879c19f146102975761012c565b806395d89b411461020d578063983b2d56146102155780639865027514610228578063a457c2d714610230578063a9059cbb146102435761012c565b806339509351116100f457806339509351146101ac57806340c10f19146101bf57806342966c68146101d257806370a08231146101e757806379cc6790146101fa5761012c565b806306fdde0314610131578063095ea7b31461014f57806318160ddd1461016f57806323b872dd14610184578063313ce56714610197575b600080fd5b61013961029f565b60405161014691906114c6565b60405180910390f35b61016261015d366004610ffc565b610334565b604051610146919061141b565b610177610352565b6040516101469190611429565b610162610192366004610f13565b610358565b61019f6103ca565b6040516101469190611587565b6101626101ba366004610ffc565b6103d3565b6101626101cd366004610ffc565b610427565b6101e56101e036600461102c565b610463565b005b6101776101f5366004610eb3565b610477565b6101e5610208366004610ffc565b610496565b6101396104a4565b6101e5610223366004610eb3565b610502565b6101e5610532565b61016261023e366004610ffc565b610544565b610162610251366004610ffc565b6105b2565b610162610264366004610eb3565b6105c6565b6101e5610277366004610f60565b6105d8565b61017761075f565b610177610292366004610ed9565b610765565b610177610790565b60018054604080516020601f6002600019610100878916150201909516949094049384018190048102820181019092528281526060939092909183018282801561032a5780601f106102ff5761010080835404028352916020019161032a565b820191906000526020600020905b81548152906001019060200180831161030d57829003601f168201915b5050505050905090565b60006103486103416107b4565b84846107b8565b5060015b92915050565b60065490565b600061036584848461086c565b600019610374856102926107b4565b146103c0576103c0846103856107b4565b6103bb856040518060600160405280602981526020016116fd602991396103ae8a6102926107b4565b919063ffffffff61098216565b6107b8565b5060019392505050565b60035460ff1690565b60006103486103e06107b4565b846103bb85600560006103f16107b4565b6001600160a01b03908116825260208083019390935260409182016000908120918c16815292529020549063ffffffff6109ae16565b60006104346102646107b4565b6104595760405162461bcd60e51b815260040161045090611517565b60405180910390fd5b61034883836109da565b61047461046e6107b4565b82610a9a565b50565b6001600160a01b0381166000908152600460205260409020545b919050565b6104a08282610b70565b5050565b60028054604080516020601f600019610100600187161502019094168590049384018190048102820181019092528281526060939092909183018282801561032a5780601f106102ff5761010080835404028352916020019161032a565b61050d6102646107b4565b6105295760405162461bcd60e51b815260040161045090611517565b61047481610beb565b61054261053d6107b4565b610c33565b565b60006103486105516107b4565b846103bb85604051806060016040528060258152602001611726602591396005600061057b6107b4565b6001600160a01b03908116825260208083019390935260409182016000908120918d1681529252902054919063ffffffff61098216565b60006103486105bf6107b4565b848461086c565b600061034c818363ffffffff610c7b16565b6007546001600160a01b03881660009081526008602090815260408083208054600181019091559051929361065a93909261063f927f6e71edae12b1b97f4d1f60370fef10105fa2faae0126114a169c64845d6126c9928e928e928e9290918e9101611437565b60405160208183030381529060405280519060200120610cc3565b90506000600182868686604051600081526020016040526040516106819493929190611491565b6020604051602081039080840390855afa1580156106a3573d6000803e3d6000fd5b5050506020604051035190506106f0896001600160a01b0316826001600160a01b0316146a5065726d69747461626c6560a81b70496e76616c6964207369676e617475726560781b610ce2565b6107236001600160a01b03821615156a5065726d69747461626c6560a81b6b5a65726f206164647265737360a01b610ce2565b610749864211156a5065726d69747461626c6560a81b66115e1c1a5c995960ca1b610ce2565b6107548989896107b8565b505050505050505050565b60075481565b6001600160a01b03918216600090815260056020908152604080832093909416825291909152205490565b7f6e71edae12b1b97f4d1f60370fef10105fa2faae0126114a169c64845d6126c981565b3390565b6001600160a01b0383166107de5760405162461bcd60e51b815260040161045090611567565b6001600160a01b0382166108045760405162461bcd60e51b8152600401610450906114f7565b6001600160a01b0380841660008181526005602090815260408083209487168084529490915290819020849055517f8c5be1e5ebec7d5bd14f71427d1e84f3dd0314c0f7b2291e5b200ac8c7c3b9259061085f908590611429565b60405180910390a3505050565b6001600160a01b0383166108925760405162461bcd60e51b815260040161045090611557565b6001600160a01b0382166108b85760405162461bcd60e51b8152600401610450906114d7565b6108fb816040518060600160405280602681526020016116b3602691396001600160a01b038616600090815260046020526040902054919063ffffffff61098216565b6001600160a01b038085166000908152600460205260408082209390935590841681522054610930908263ffffffff6109ae16565b6001600160a01b0380841660008181526004602052604090819020939093559151908516907fddf252ad1be2c89b69c2b068fc378daa952ba7f163c4a11628f55a4df523b3ef9061085f908590611429565b600081848411156109a65760405162461bcd60e51b815260040161045091906114c6565b505050900390565b6000828201838110156109d35760405162461bcd60e51b815260040161045090611507565b9392505050565b6001600160a01b038216610a005760405162461bcd60e51b815260040161045090611577565b600654610a13908263ffffffff6109ae16565b6006556001600160a01b038216600090815260046020526040902054610a3f908263ffffffff6109ae16565b6001600160a01b0383166000818152600460205260408082209390935591519091907fddf252ad1be2c89b69c2b068fc378daa952ba7f163c4a11628f55a4df523b3ef90610a8e908590611429565b60405180910390a35050565b6001600160a01b038216610ac05760405162461bcd60e51b815260040161045090611547565b610b0381604051806060016040528060228152602001611691602291396001600160a01b038516600090815260046020526040902054919063ffffffff61098216565b6001600160a01b038316600090815260046020526040902055600654610b2f908263ffffffff610d3c16565b6006556040516000906001600160a01b038416907fddf252ad1be2c89b69c2b068fc378daa952ba7f163c4a11628f55a4df523b3ef90610a8e908590611429565b610b7a8282610a9a565b6104a082610b866107b4565b6103bb846040518060600160405280602481526020016116d9602491396001600160a01b038816600090815260056020526040812090610bc46107b4565b6001600160a01b03168152602081019190915260400160002054919063ffffffff61098216565b610bfc60008263ffffffff610d7e16565b6040516001600160a01b038216907f6ae172837ea30b801fbfcdd4108aa1d5bf8ff775444fd70256b44e6bf3dfc3f690600090a250565b610c4460008263ffffffff610dca16565b6040516001600160a01b038216907fe94479a9f7e1952cc78f2d6baab678adc1b772d936c6583def489e524cb6669290600090a250565b60006001600160a01b038216610ca35760405162461bcd60e51b815260040161045090611537565b506001600160a01b03166000908152602091909152604090205460ff1690565b60405161190160f01b8152600281019290925260228201526042902090565b82610d3757610cf082610e12565b6101d160f51b610cff83610e12565b604051602001610d11939291906113ea565b60408051601f198184030181529082905262461bcd60e51b8252610450916004016114c6565b505050565b60006109d383836040518060400160405280601e81526020017f536166654d6174683a207375627472616374696f6e206f766572666c6f770000815250610982565b610d888282610c7b565b15610da55760405162461bcd60e51b8152600401610450906114e7565b6001600160a01b0316600090815260209190915260409020805460ff19166001179055565b610dd48282610c7b565b610df05760405162461bcd60e51b815260040161045090611527565b6001600160a01b0316600090815260209190915260409020805460ff19169055565b60608082604051602001610e2691906113d5565b60408051601f19818403018152919052905060205b8015610e7b57815160001990910190829082908110610e5657fe5b01602001516001600160f81b03191615610e765760010181529050610491565b610e3b565b505060408051600081526020810190915292915050565b803561034c8161160e565b803561034c81611622565b803561034c8161162b565b600060208284031215610ec557600080fd5b6000610ed18484610e92565b949350505050565b60008060408385031215610eec57600080fd5b6000610ef88585610e92565b9250506020610f0985828601610e92565b9150509250929050565b600080600060608486031215610f2857600080fd5b6000610f348686610e92565b9350506020610f4586828701610e92565b9250506040610f5686828701610e9d565b9150509250925092565b600080600080600080600060e0888a031215610f7b57600080fd5b6000610f878a8a610e92565b9750506020610f988a828b01610e92565b9650506040610fa98a828b01610e9d565b9550506060610fba8a828b01610e9d565b9450506080610fcb8a828b01610ea8565b93505060a0610fdc8a828b01610e9d565b92505060c0610fed8a828b01610e9d565b91505092959891949750929550565b6000806040838503121561100f57600080fd5b600061101b8585610e92565b9250506020610f0985828601610e9d565b60006020828403121561103e57600080fd5b6000610ed18484610e9d565b611053816115a2565b82525050565b611053816115ad565b61105361106e826115b2565b6115bf565b611053816115bf565b61105361106e826115bf565b600061109382611595565b61109d8185610491565b93506110ad8185602086016115d4565b9290920192915050565b60006110c282611595565b6110cc8185611599565b93506110dc8185602086016115d4565b6110e581611604565b9093019392505050565b60006110fc602383611599565b7f45524332303a207472616e7366657220746f20746865207a65726f206164647281526265737360e81b602082015260400192915050565b6000611141601f83611599565b7f526f6c65733a206163636f756e7420616c72656164792068617320726f6c6500815260200192915050565b600061117a602283611599565b7f45524332303a20617070726f766520746f20746865207a65726f206164647265815261737360f01b602082015260400192915050565b60006111be601b83611599565b7f536166654d6174683a206164646974696f6e206f766572666c6f770000000000815260200192915050565b60006111f7603083611599565b7f4d696e746572526f6c653a2063616c6c657220646f6573206e6f74206861766581526f20746865204d696e74657220726f6c6560801b602082015260400192915050565b6000611249602183611599565b7f526f6c65733a206163636f756e7420646f6573206e6f74206861766520726f6c8152606560f81b602082015260400192915050565b600061128c602283611599565b7f526f6c65733a206163636f756e7420697320746865207a65726f206164647265815261737360f01b602082015260400192915050565b60006112d0602183611599565b7f45524332303a206275726e2066726f6d20746865207a65726f206164647265738152607360f81b602082015260400192915050565b6000611313602583611599565b7f45524332303a207472616e736665722066726f6d20746865207a65726f206164815264647265737360d81b602082015260400192915050565b600061135a602483611599565b7f45524332303a20617070726f76652066726f6d20746865207a65726f206164648152637265737360e01b602082015260400192915050565b60006113a0601f83611599565b7f45524332303a206d696e7420746f20746865207a65726f206164647265737300815260200192915050565b611053816115ce565b60006113e1828461107c565b50602001919050565b60006113f68286611088565b91506114028285611062565b6002820191506114128284611088565b95945050505050565b6020810161034c8284611059565b6020810161034c8284611073565b60c081016114458289611073565b611452602083018861104a565b61145f604083018761104a565b61146c6060830186611073565b6114796080830185611073565b61148660a0830184611073565b979650505050505050565b6080810161149f8287611073565b6114ac60208301866113cc565b6114b96040830185611073565b6114126060830184611073565b602080825281016109d381846110b7565b6020808252810161034c816110ef565b6020808252810161034c81611134565b6020808252810161034c8161116d565b6020808252810161034c816111b1565b6020808252810161034c816111ea565b6020808252810161034c8161123c565b6020808252810161034c8161127f565b6020808252810161034c816112c3565b6020808252810161034c81611306565b6020808252810161034c8161134d565b6020808252810161034c81611393565b6020810161034c82846113cc565b5190565b90815260200190565b600061034c826115c2565b151590565b6001600160f01b03191690565b90565b6001600160a01b031690565b60ff1690565b60005b838110156115ef5781810151838201526020016115d7565b838111156115fe576000848401525b50505050565b601f01601f191690565b611617816115a2565b811461047457600080fd5b611617816115bf565b611617816115ce565b600190565b8351602094850120835193850193909320604080517f8b73c3c69bb8fe3d512ecc4cf759cc79239f7b179b0ffacaa9a75d522b39400f815295860194909452928401929092526060830152608082015260a090209056fe45524332303a206275726e20616d6f756e7420657863656564732062616c616e636545524332303a207472616e7366657220616d6f756e7420657863656564732062616c616e636545524332303a206275726e20616d6f756e74206578636565647320616c6c6f77616e6365446f6c6c61723a207472616e7366657220616d6f756e74206578636565647320616c6c6f77616e636545524332303a2064656372656173656420616c6c6f77616e63652062656c6f77207a65726fa365627a7a723158201e779b4e1c38b13b186b8e27c872bf8f4ddde2582bb51d94dee84b0ab79123046c6578706572696d656e74616cf564736f6c63430005110040",
  "source": "/*\n    Copyright 2020 Dynamic Dollar Devs, based on the works of the Empty Set Squad\n\n    Licensed under the Apache License, Version 2.0 (the \"License\");\n    you may not use this file except in compliance with the License.\n    You may obtain a copy of the License at\n\n    http://www.apache.org/licenses/LICENSE-2.0\n\n    Unless required by applicable law or agreed to in writing, software\n    distributed under the License is distributed on an \"AS IS\" BASIS,\n    WITHOUT WARRANTIES OR CONDITIONS OF ANY KIND, either express or implied.\n    See the License for the specific language governing permissions and\n    limitations under the License.\n*/\n\npragma solidity ^0.5.17;\npragma experimental ABIEncoderV2;\n\nimport \"../dao/Govern.sol\";\nimport \"./MockUpgradeable.sol\";\nimport \"./MockComptroller.sol\";\n\ncontract MockGovern is Govern, MockComptroller {\n    uint256 internal _epochTime;\n\n    constructor() MockComptroller(address(0)) public { }\n\n    function initialize() public {\n        revert(\"Should not call\");\n    }\n\n    function upgradeToE(address newImplementation) external {\n        super.upgradeTo(newImplementation);\n    }\n\n    function setEpochTime(uint256 epochTime) external {\n        _epochTime = epochTime;\n    }\n\n    function epochTime() public view returns (uint256) {\n        return _epochTime;\n    }\n}\n",
  "sourcePath": "/Users/cinquemb/Documents/Startups/crypto/dollar/protocol/contracts/mock/MockGovern.sol",
  "compiler": {
    "name": "solc",
    "version": "0.5.17+commit.d19bba13.Emscripten.clang"
  },
  "schemaVersion": "3.3.3",
  "updatedAt": "2021-01-15T13:15:57.130Z",
  "devdoc": {
    "methods": {}
  },
  "userdoc": {
    "methods": {
      "balanceOfStaged(address)": {
        "notice": "Account"
      },
      "createCandidateE(address,uint256)": {
        "notice": "Governance"
      },
      "dollar()": {
        "notice": "Global"
      },
      "epoch()": {
        "notice": "Epoch"
      },
      "incrementBalanceOfE(address,uint256)": {
        "notice": "Account"
      },
      "incrementTotalBondedE(uint256)": {
        "notice": "Global"
      },
      "name()": {
        "notice": "ERC20 Interface"
      },
      "recordedVote(address,address)": {
        "notice": "Governance"
      },
      "setBlockTimestamp(uint256)": {
        "notice": "Mock"
      },
      "setEpochParamsE(uint256,uint256)": {
        "notice": "Epoch"
      },
      "transfer(address,uint256)": {
        "notice": "ERC20 Interface"
      }
    }
  }
}