{
  "contractName": "MockGovern",
  "abi": [
    {
      "inputs": [],
      "payable": false,
      "stateMutability": "nonpayable",
      "type": "constructor"
    },
    {
      "anonymous": false,
      "inputs": [
        {
          "indexed": true,
          "internalType": "address",
          "name": "account",
          "type": "address"
        },
        {
          "indexed": true,
          "internalType": "address",
          "name": "candidate",
          "type": "address"
        }
      ],
      "name": "Commit",
      "type": "event"
    },
    {
      "anonymous": false,
      "inputs": [
        {
          "indexed": true,
          "internalType": "address",
          "name": "candidate",
          "type": "address"
        },
        {
          "indexed": true,
          "internalType": "address",
          "name": "account",
          "type": "address"
        },
        {
          "indexed": true,
          "internalType": "uint256",
          "name": "start",
          "type": "uint256"
        },
        {
          "indexed": false,
          "internalType": "uint256",
          "name": "period",
          "type": "uint256"
        }
      ],
      "name": "Proposal",
      "type": "event"
    },
    {
      "anonymous": false,
      "inputs": [
        {
          "indexed": true,
          "internalType": "address",
          "name": "from",
          "type": "address"
        },
        {
          "indexed": true,
          "internalType": "address",
          "name": "to",
          "type": "address"
        },
        {
          "indexed": false,
          "internalType": "uint256",
          "name": "value",
          "type": "uint256"
        }
      ],
      "name": "Transfer",
      "type": "event"
    },
    {
      "anonymous": false,
      "inputs": [
        {
          "indexed": true,
          "internalType": "address",
          "name": "implementation",
          "type": "address"
        }
      ],
      "name": "Upgraded",
      "type": "event"
    },
    {
      "anonymous": false,
      "inputs": [
        {
          "indexed": true,
          "internalType": "address",
          "name": "account",
          "type": "address"
        },
        {
          "indexed": true,
          "internalType": "address",
          "name": "candidate",
          "type": "address"
        },
        {
          "indexed": false,
          "internalType": "enum Candidate.Vote",
          "name": "vote",
          "type": "uint8"
        },
        {
          "indexed": false,
          "internalType": "uint256",
          "name": "bonded",
          "type": "uint256"
        }
      ],
      "name": "Vote",
      "type": "event"
    },
    {
      "constant": true,
      "inputs": [
        {
          "internalType": "address",
          "name": "owner",
          "type": "address"
        },
        {
          "internalType": "address",
          "name": "spender",
          "type": "address"
        }
      ],
      "name": "allowance",
      "outputs": [
        {
          "internalType": "uint256",
          "name": "",
          "type": "uint256"
        }
      ],
      "payable": false,
      "stateMutability": "view",
      "type": "function"
    },
    {
      "constant": true,
      "inputs": [
        {
          "internalType": "address",
          "name": "owner",
          "type": "address"
        },
        {
          "internalType": "address",
          "name": "spender",
          "type": "address"
        }
      ],
      "name": "allowanceCoupons",
      "outputs": [
        {
          "internalType": "uint256",
          "name": "",
          "type": "uint256"
        }
      ],
      "payable": false,
      "stateMutability": "view",
      "type": "function"
    },
    {
      "constant": false,
      "inputs": [
        {
          "internalType": "address",
          "name": "spender",
          "type": "address"
        },
        {
          "internalType": "uint256",
          "name": "amount",
          "type": "uint256"
        }
      ],
      "name": "approve",
      "outputs": [
        {
          "internalType": "bool",
          "name": "",
          "type": "bool"
        }
      ],
      "payable": false,
      "stateMutability": "nonpayable",
      "type": "function"
    },
    {
      "constant": true,
      "inputs": [
        {
          "internalType": "address",
          "name": "candidate",
          "type": "address"
        }
      ],
      "name": "approveFor",
      "outputs": [
        {
          "internalType": "uint256",
          "name": "",
          "type": "uint256"
        }
      ],
      "payable": false,
      "stateMutability": "view",
      "type": "function"
    },
    {
      "constant": true,
      "inputs": [
        {
          "internalType": "address",
          "name": "account",
          "type": "address"
        }
      ],
      "name": "balanceOf",
      "outputs": [
        {
          "internalType": "uint256",
          "name": "",
          "type": "uint256"
        }
      ],
      "payable": false,
      "stateMutability": "view",
      "type": "function"
    },
    {
      "constant": true,
      "inputs": [
        {
          "internalType": "address",
          "name": "account",
          "type": "address"
        }
      ],
      "name": "balanceOfBonded",
      "outputs": [
        {
          "internalType": "uint256",
          "name": "",
          "type": "uint256"
        }
      ],
      "payable": false,
      "stateMutability": "view",
      "type": "function"
    },
    {
      "constant": true,
      "inputs": [
        {
          "internalType": "address",
          "name": "account",
          "type": "address"
        },
        {
          "internalType": "uint256",
          "name": "epoch",
          "type": "uint256"
        }
      ],
      "name": "balanceOfCoupons",
      "outputs": [
        {
          "internalType": "uint256",
          "name": "",
          "type": "uint256"
        }
      ],
      "payable": false,
      "stateMutability": "view",
      "type": "function"
    },
    {
      "constant": true,
      "inputs": [
        {
          "internalType": "address",
          "name": "account",
          "type": "address"
        }
      ],
      "name": "balanceOfStaged",
      "outputs": [
        {
          "internalType": "uint256",
          "name": "",
          "type": "uint256"
        }
      ],
      "payable": false,
      "stateMutability": "view",
      "type": "function"
    },
    {
      "constant": true,
      "inputs": [
        {
          "internalType": "uint256",
          "name": "epoch",
          "type": "uint256"
        }
      ],
      "name": "bootstrappingAt",
      "outputs": [
        {
          "internalType": "bool",
          "name": "",
          "type": "bool"
        }
      ],
      "payable": false,
      "stateMutability": "view",
      "type": "function"
    },
    {
      "constant": false,
      "inputs": [
        {
          "internalType": "address",
          "name": "account",
          "type": "address"
        },
        {
          "internalType": "uint256",
          "name": "amount",
          "type": "uint256"
        }
      ],
      "name": "burnFromAccountE",
      "outputs": [],
      "payable": false,
      "stateMutability": "nonpayable",
      "type": "function"
    },
    {
      "constant": false,
      "inputs": [
        {
          "internalType": "uint256",
          "name": "amount",
          "type": "uint256"
        }
      ],
      "name": "burnRedeemableE",
      "outputs": [],
      "payable": false,
      "stateMutability": "nonpayable",
      "type": "function"
    },
    {
      "constant": false,
      "inputs": [
        {
          "internalType": "address",
          "name": "candidate",
          "type": "address"
        }
      ],
      "name": "commit",
      "outputs": [],
      "payable": false,
      "stateMutability": "nonpayable",
      "type": "function"
    },
    {
      "constant": true,
      "inputs": [
        {
          "internalType": "uint256",
          "name": "epoch",
          "type": "uint256"
        }
      ],
      "name": "couponsExpiration",
      "outputs": [
        {
          "internalType": "uint256",
          "name": "",
          "type": "uint256"
        }
      ],
      "payable": false,
      "stateMutability": "view",
      "type": "function"
    },
    {
      "constant": false,
      "inputs": [
        {
          "internalType": "address",
          "name": "candidate",
          "type": "address"
        },
        {
          "internalType": "uint256",
          "name": "period",
          "type": "uint256"
        }
      ],
      "name": "createCandidateE",
      "outputs": [],
      "payable": false,
      "stateMutability": "nonpayable",
      "type": "function"
    },
    {
      "constant": true,
      "inputs": [],
      "name": "decimals",
      "outputs": [
        {
          "internalType": "uint8",
          "name": "",
          "type": "uint8"
        }
      ],
      "payable": false,
      "stateMutability": "view",
      "type": "function"
    },
    {
      "constant": false,
      "inputs": [
        {
          "internalType": "uint256",
          "name": "amount",
          "type": "uint256"
        }
      ],
      "name": "decreaseDebtE",
      "outputs": [],
      "payable": false,
      "stateMutability": "nonpayable",
      "type": "function"
    },
    {
      "constant": false,
      "inputs": [
        {
          "internalType": "address",
          "name": "owner",
          "type": "address"
        },
        {
          "internalType": "address",
          "name": "spender",
          "type": "address"
        },
        {
          "internalType": "uint256",
          "name": "amount",
          "type": "uint256"
        },
        {
          "internalType": "string",
          "name": "reason",
          "type": "string"
        }
      ],
      "name": "decrementAllowanceCouponsE",
      "outputs": [],
      "payable": false,
      "stateMutability": "nonpayable",
      "type": "function"
    },
    {
      "constant": false,
      "inputs": [
        {
          "internalType": "address",
          "name": "candidate",
          "type": "address"
        },
        {
          "internalType": "uint256",
          "name": "amount",
          "type": "uint256"
        },
        {
          "internalType": "string",
          "name": "reason",
          "type": "string"
        }
      ],
      "name": "decrementApproveForE",
      "outputs": [],
      "payable": false,
      "stateMutability": "nonpayable",
      "type": "function"
    },
    {
      "constant": false,
      "inputs": [
        {
          "internalType": "address",
          "name": "account",
          "type": "address"
        },
        {
          "internalType": "uint256",
          "name": "epoch",
          "type": "uint256"
        },
        {
          "internalType": "uint256",
          "name": "amount",
          "type": "uint256"
        },
        {
          "internalType": "string",
          "name": "reason",
          "type": "string"
        }
      ],
      "name": "decrementBalanceOfCouponsE",
      "outputs": [],
      "payable": false,
      "stateMutability": "nonpayable",
      "type": "function"
    },
    {
      "constant": false,
      "inputs": [
        {
          "internalType": "address",
          "name": "account",
          "type": "address"
        },
        {
          "internalType": "uint256",
          "name": "amount",
          "type": "uint256"
        },
        {
          "internalType": "string",
          "name": "reason",
          "type": "string"
        }
      ],
      "name": "decrementBalanceOfE",
      "outputs": [],
      "payable": false,
      "stateMutability": "nonpayable",
      "type": "function"
    },
    {
      "constant": false,
      "inputs": [
        {
          "internalType": "address",
          "name": "account",
          "type": "address"
        },
        {
          "internalType": "uint256",
          "name": "amount",
          "type": "uint256"
        },
        {
          "internalType": "string",
          "name": "reason",
          "type": "string"
        }
      ],
      "name": "decrementBalanceOfStagedE",
      "outputs": [],
      "payable": false,
      "stateMutability": "nonpayable",
      "type": "function"
    },
    {
      "constant": false,
      "inputs": [
        {
          "internalType": "address",
          "name": "candidate",
          "type": "address"
        },
        {
          "internalType": "uint256",
          "name": "amount",
          "type": "uint256"
        },
        {
          "internalType": "string",
          "name": "reason",
          "type": "string"
        }
      ],
      "name": "decrementRejectForE",
      "outputs": [],
      "payable": false,
      "stateMutability": "nonpayable",
      "type": "function"
    },
    {
      "constant": false,
      "inputs": [
        {
          "internalType": "uint256",
          "name": "amount",
          "type": "uint256"
        },
        {
          "internalType": "string",
          "name": "reason",
          "type": "string"
        }
      ],
      "name": "decrementTotalBondedE",
      "outputs": [],
      "payable": false,
      "stateMutability": "nonpayable",
      "type": "function"
    },
    {
      "constant": false,
      "inputs": [
        {
          "internalType": "uint256",
          "name": "amount",
          "type": "uint256"
        },
        {
          "internalType": "string",
          "name": "reason",
          "type": "string"
        }
      ],
      "name": "decrementTotalDebtE",
      "outputs": [],
      "payable": false,
      "stateMutability": "nonpayable",
      "type": "function"
    },
    {
      "constant": false,
      "inputs": [
        {
          "internalType": "uint256",
          "name": "amount",
          "type": "uint256"
        },
        {
          "internalType": "string",
          "name": "reason",
          "type": "string"
        }
      ],
      "name": "decrementTotalRedeemableE",
      "outputs": [],
      "payable": false,
      "stateMutability": "nonpayable",
      "type": "function"
    },
    {
      "constant": true,
      "inputs": [],
      "name": "dollar",
      "outputs": [
        {
          "internalType": "contract IDollar",
          "name": "",
          "type": "address"
        }
      ],
      "payable": false,
      "stateMutability": "view",
      "type": "function"
    },
    {
      "constant": false,
      "inputs": [
        {
          "internalType": "uint256",
          "name": "epoch",
          "type": "uint256"
        }
      ],
      "name": "eliminateOutstandingCouponsE",
      "outputs": [],
      "payable": false,
      "stateMutability": "nonpayable",
      "type": "function"
    },
    {
      "constant": false,
      "inputs": [
        {
          "internalType": "address",
          "name": "candidate",
          "type": "address"
        }
      ],
      "name": "emergencyCommit",
      "outputs": [],
      "payable": false,
      "stateMutability": "nonpayable",
      "type": "function"
    },
    {
      "constant": true,
      "inputs": [],
      "name": "epoch",
      "outputs": [
        {
          "internalType": "uint256",
          "name": "",
          "type": "uint256"
        }
      ],
      "payable": false,
      "stateMutability": "view",
      "type": "function"
    },
    {
      "constant": true,
      "inputs": [
        {
          "internalType": "uint256",
          "name": "epoch",
          "type": "uint256"
        }
      ],
      "name": "expiringCoupons",
      "outputs": [
        {
          "internalType": "uint256",
          "name": "",
          "type": "uint256"
        }
      ],
      "payable": false,
      "stateMutability": "view",
      "type": "function"
    },
    {
      "constant": true,
      "inputs": [
        {
          "internalType": "uint256",
          "name": "epoch",
          "type": "uint256"
        },
        {
          "internalType": "uint256",
          "name": "i",
          "type": "uint256"
        }
      ],
      "name": "expiringCouponsAtIndex",
      "outputs": [
        {
          "internalType": "uint256",
          "name": "",
          "type": "uint256"
        }
      ],
      "payable": false,
      "stateMutability": "view",
      "type": "function"
    },
    {
      "constant": true,
      "inputs": [
        {
          "internalType": "address",
          "name": "account",
          "type": "address"
        }
      ],
      "name": "fluidUntil",
      "outputs": [
        {
          "internalType": "uint256",
          "name": "",
          "type": "uint256"
        }
      ],
      "payable": false,
      "stateMutability": "view",
      "type": "function"
    },
    {
      "constant": true,
      "inputs": [
        {
          "internalType": "uint256",
          "name": "epoch",
          "type": "uint256"
        }
      ],
      "name": "getAvgExpiryFilled",
      "outputs": [
        {
          "internalType": "uint256",
          "name": "",
          "type": "uint256"
        }
      ],
      "payable": false,
      "stateMutability": "view",
      "type": "function"
    },
    {
      "constant": true,
      "inputs": [
        {
          "internalType": "uint256",
          "name": "epoch",
          "type": "uint256"
        }
      ],
      "name": "getAvgYieldFilled",
      "outputs": [
        {
          "internalType": "uint256",
          "name": "",
          "type": "uint256"
        }
      ],
      "payable": false,
      "stateMutability": "view",
      "type": "function"
    },
    {
      "constant": true,
      "inputs": [
        {
          "internalType": "uint256",
          "name": "epoch",
          "type": "uint256"
        }
      ],
      "name": "getBidToCover",
      "outputs": [
        {
          "internalType": "uint256",
          "name": "",
          "type": "uint256"
        }
      ],
      "payable": false,
      "stateMutability": "view",
      "type": "function"
    },
    {
      "constant": true,
      "inputs": [
        {
          "internalType": "uint256",
          "name": "epoch",
          "type": "uint256"
        }
      ],
      "name": "getMaxExpiryFilled",
      "outputs": [
        {
          "internalType": "uint256",
          "name": "",
          "type": "uint256"
        }
      ],
      "payable": false,
      "stateMutability": "view",
      "type": "function"
    },
    {
      "constant": true,
      "inputs": [
        {
          "internalType": "uint256",
          "name": "epoch",
          "type": "uint256"
        }
      ],
      "name": "getMaxYieldFilled",
      "outputs": [
        {
          "internalType": "uint256",
          "name": "",
          "type": "uint256"
        }
      ],
      "payable": false,
      "stateMutability": "view",
      "type": "function"
    },
    {
      "constant": true,
      "inputs": [
        {
          "internalType": "uint256",
          "name": "epoch",
          "type": "uint256"
        }
      ],
      "name": "getMinExpiryFilled",
      "outputs": [
        {
          "internalType": "uint256",
          "name": "",
          "type": "uint256"
        }
      ],
      "payable": false,
      "stateMutability": "view",
      "type": "function"
    },
    {
      "constant": true,
      "inputs": [
        {
          "internalType": "uint256",
          "name": "epoch",
          "type": "uint256"
        }
      ],
      "name": "getMinYieldFilled",
      "outputs": [
        {
          "internalType": "uint256",
          "name": "",
          "type": "uint256"
        }
      ],
      "payable": false,
      "stateMutability": "view",
      "type": "function"
    },
    {
      "constant": true,
      "inputs": [
        {
          "internalType": "uint256",
          "name": "epoch",
          "type": "uint256"
        }
      ],
      "name": "getTotalAuctioned",
      "outputs": [
        {
          "internalType": "uint256",
          "name": "",
          "type": "uint256"
        }
      ],
      "payable": false,
      "stateMutability": "view",
      "type": "function"
    },
    {
      "constant": true,
      "inputs": [
        {
          "internalType": "uint256",
          "name": "epoch",
          "type": "uint256"
        }
      ],
      "name": "getTotalBurned",
      "outputs": [
        {
          "internalType": "uint256",
          "name": "",
          "type": "uint256"
        }
      ],
      "payable": false,
      "stateMutability": "view",
      "type": "function"
    },
    {
      "constant": true,
      "inputs": [
        {
          "internalType": "uint256",
          "name": "epoch",
          "type": "uint256"
        }
      ],
      "name": "getTotalFilled",
      "outputs": [
        {
          "internalType": "uint256",
          "name": "",
          "type": "uint256"
        }
      ],
      "payable": false,
      "stateMutability": "view",
      "type": "function"
    },
    {
      "constant": true,
      "inputs": [],
      "name": "implementation",
      "outputs": [
        {
          "internalType": "address",
          "name": "impl",
          "type": "address"
        }
      ],
      "payable": false,
      "stateMutability": "view",
      "type": "function"
    },
    {
      "constant": false,
      "inputs": [
        {
          "internalType": "uint256",
          "name": "amount",
          "type": "uint256"
        }
      ],
      "name": "increaseDebtE",
      "outputs": [],
      "payable": false,
      "stateMutability": "nonpayable",
      "type": "function"
    },
    {
      "constant": false,
      "inputs": [
        {
          "internalType": "address",
          "name": "candidate",
          "type": "address"
        },
        {
          "internalType": "uint256",
          "name": "amount",
          "type": "uint256"
        }
      ],
      "name": "incrementApproveForE",
      "outputs": [],
      "payable": false,
      "stateMutability": "nonpayable",
      "type": "function"
    },
    {
      "constant": false,
      "inputs": [
        {
          "internalType": "address",
          "name": "account",
          "type": "address"
        },
        {
          "internalType": "uint256",
          "name": "epoch",
          "type": "uint256"
        },
        {
          "internalType": "uint256",
          "name": "amount",
          "type": "uint256"
        }
      ],
      "name": "incrementBalanceOfCouponsE",
      "outputs": [],
      "payable": false,
      "stateMutability": "nonpayable",
      "type": "function"
    },
    {
      "constant": false,
      "inputs": [
        {
          "internalType": "address",
          "name": "account",
          "type": "address"
        },
        {
          "internalType": "uint256",
          "name": "amount",
          "type": "uint256"
        }
      ],
      "name": "incrementBalanceOfE",
      "outputs": [],
      "payable": false,
      "stateMutability": "nonpayable",
      "type": "function"
    },
    {
      "constant": false,
      "inputs": [
        {
          "internalType": "address",
          "name": "account",
          "type": "address"
        },
        {
          "internalType": "uint256",
          "name": "amount",
          "type": "uint256"
        }
      ],
      "name": "incrementBalanceOfStagedE",
      "outputs": [],
      "payable": false,
      "stateMutability": "nonpayable",
      "type": "function"
    },
    {
      "constant": false,
      "inputs": [],
      "name": "incrementEpochE",
      "outputs": [],
      "payable": false,
      "stateMutability": "nonpayable",
      "type": "function"
    },
    {
      "constant": false,
      "inputs": [
        {
          "internalType": "address",
          "name": "candidate",
          "type": "address"
        },
        {
          "internalType": "uint256",
          "name": "amount",
          "type": "uint256"
        }
      ],
      "name": "incrementRejectForE",
      "outputs": [],
      "payable": false,
      "stateMutability": "nonpayable",
      "type": "function"
    },
    {
      "constant": false,
      "inputs": [
        {
          "internalType": "uint256",
          "name": "amount",
          "type": "uint256"
        }
      ],
      "name": "incrementTotalBondedE",
      "outputs": [],
      "payable": false,
      "stateMutability": "nonpayable",
      "type": "function"
    },
    {
      "constant": false,
      "inputs": [
        {
          "internalType": "uint256",
          "name": "amount",
          "type": "uint256"
        }
      ],
      "name": "incrementTotalDebtE",
      "outputs": [],
      "payable": false,
      "stateMutability": "nonpayable",
      "type": "function"
    },
    {
      "constant": false,
      "inputs": [
        {
          "internalType": "uint256",
          "name": "amount",
          "type": "uint256"
        }
      ],
      "name": "incrementTotalRedeemableE",
      "outputs": [],
      "payable": false,
      "stateMutability": "nonpayable",
      "type": "function"
    },
    {
      "constant": false,
      "inputs": [
        {
          "internalType": "uint256",
          "name": "epoch",
          "type": "uint256"
        },
        {
          "internalType": "uint256",
          "name": "expiration",
          "type": "uint256"
        }
      ],
      "name": "initializeCouponsExpirationE",
      "outputs": [],
      "payable": false,
      "stateMutability": "nonpayable",
      "type": "function"
    },
    {
      "constant": false,
      "inputs": [
        {
          "internalType": "address",
          "name": "candidate",
          "type": "address"
        }
      ],
      "name": "initializedE",
      "outputs": [],
      "payable": false,
      "stateMutability": "nonpayable",
      "type": "function"
    },
    {
      "constant": false,
      "inputs": [
        {
          "internalType": "uint256",
          "name": "epoch",
          "type": "uint256"
        }
      ],
      "name": "isCouponAuctionInitAtEpochE",
      "outputs": [
        {
          "internalType": "bool",
          "name": "",
          "type": "bool"
        }
      ],
      "payable": false,
      "stateMutability": "nonpayable",
      "type": "function"
    },
    {
      "constant": true,
      "inputs": [
        {
          "internalType": "address",
          "name": "candidate",
          "type": "address"
        }
      ],
      "name": "isInitialized",
      "outputs": [
        {
          "internalType": "bool",
          "name": "",
          "type": "bool"
        }
      ],
      "payable": false,
      "stateMutability": "view",
      "type": "function"
    },
    {
      "constant": true,
      "inputs": [
        {
          "internalType": "address",
          "name": "candidate",
          "type": "address"
        }
      ],
      "name": "isNominated",
      "outputs": [
        {
          "internalType": "bool",
          "name": "",
          "type": "bool"
        }
      ],
      "payable": false,
      "stateMutability": "view",
      "type": "function"
    },
    {
      "constant": true,
      "inputs": [
        {
          "internalType": "address",
          "name": "account",
          "type": "address"
        }
      ],
      "name": "lockedUntil",
      "outputs": [
        {
          "internalType": "uint256",
          "name": "",
          "type": "uint256"
        }
      ],
      "payable": false,
      "stateMutability": "view",
      "type": "function"
    },
    {
      "constant": false,
      "inputs": [
        {
          "internalType": "address",
          "name": "account",
          "type": "address"
        },
        {
          "internalType": "uint256",
          "name": "amount",
          "type": "uint256"
        }
      ],
      "name": "mintToAccountE",
      "outputs": [],
      "payable": false,
      "stateMutability": "nonpayable",
      "type": "function"
    },
    {
      "constant": false,
      "inputs": [
        {
          "internalType": "address",
          "name": "account",
          "type": "address"
        },
        {
          "internalType": "uint256",
          "name": "amount",
          "type": "uint256"
        }
      ],
      "name": "mintToE",
      "outputs": [],
      "payable": false,
      "stateMutability": "nonpayable",
      "type": "function"
    },
    {
      "constant": true,
      "inputs": [],
      "name": "name",
      "outputs": [
        {
          "internalType": "string",
          "name": "",
          "type": "string"
        }
      ],
      "payable": false,
      "stateMutability": "view",
      "type": "function"
    },
    {
      "constant": true,
      "inputs": [],
      "name": "oracle",
      "outputs": [
        {
          "internalType": "contract IOracle",
          "name": "",
          "type": "address"
        }
      ],
      "payable": false,
      "stateMutability": "view",
      "type": "function"
    },
    {
      "constant": true,
      "inputs": [
        {
          "internalType": "uint256",
          "name": "epoch",
          "type": "uint256"
        }
      ],
      "name": "outstandingCoupons",
      "outputs": [
        {
          "internalType": "uint256",
          "name": "",
          "type": "uint256"
        }
      ],
      "payable": false,
      "stateMutability": "view",
      "type": "function"
    },
    {
      "constant": true,
      "inputs": [
        {
          "internalType": "address",
          "name": "candidate",
          "type": "address"
        }
      ],
      "name": "periodFor",
      "outputs": [
        {
          "internalType": "uint256",
          "name": "",
          "type": "uint256"
        }
      ],
      "payable": false,
      "stateMutability": "view",
      "type": "function"
    },
    {
      "constant": false,
      "inputs": [
        {
          "internalType": "address",
          "name": "account",
          "type": "address"
        },
        {
          "internalType": "address",
          "name": "candidate",
          "type": "address"
        }
      ],
      "name": "placeLockE",
      "outputs": [],
      "payable": false,
      "stateMutability": "nonpayable",
      "type": "function"
    },
    {
      "constant": true,
      "inputs": [],
      "name": "pool",
      "outputs": [
        {
          "internalType": "address",
          "name": "",
          "type": "address"
        }
      ],
      "payable": false,
      "stateMutability": "view",
      "type": "function"
    },
    {
      "constant": false,
      "inputs": [
        {
          "internalType": "address",
          "name": "account",
          "type": "address"
        },
        {
          "internalType": "address",
          "name": "candidate",
          "type": "address"
        },
        {
          "internalType": "enum Candidate.Vote",
          "name": "vote",
          "type": "uint8"
        }
      ],
      "name": "recordVoteE",
      "outputs": [],
      "payable": false,
      "stateMutability": "nonpayable",
      "type": "function"
    },
    {
      "constant": true,
      "inputs": [
        {
          "internalType": "address",
          "name": "account",
          "type": "address"
        },
        {
          "internalType": "address",
          "name": "candidate",
          "type": "address"
        }
      ],
      "name": "recordedVote",
      "outputs": [
        {
          "internalType": "enum Candidate.Vote",
          "name": "",
          "type": "uint8"
        }
      ],
      "payable": false,
      "stateMutability": "view",
      "type": "function"
    },
    {
      "constant": false,
      "inputs": [
        {
          "internalType": "address",
          "name": "account",
          "type": "address"
        },
        {
          "internalType": "uint256",
          "name": "amount",
          "type": "uint256"
        }
      ],
      "name": "redeemToAccountE",
      "outputs": [],
      "payable": false,
      "stateMutability": "nonpayable",
      "type": "function"
    },
    {
      "constant": true,
      "inputs": [
        {
          "internalType": "address",
          "name": "candidate",
          "type": "address"
        }
      ],
      "name": "rejectFor",
      "outputs": [
        {
          "internalType": "uint256",
          "name": "",
          "type": "uint256"
        }
      ],
      "payable": false,
      "stateMutability": "view",
      "type": "function"
    },
    {
      "constant": false,
      "inputs": [
        {
          "internalType": "uint256",
          "name": "percent",
          "type": "uint256"
        }
      ],
      "name": "resetDebtE",
      "outputs": [],
      "payable": false,
      "stateMutability": "nonpayable",
      "type": "function"
    },
    {
      "constant": false,
      "inputs": [
        {
          "internalType": "uint256",
          "name": "timestamp",
          "type": "uint256"
        }
      ],
      "name": "setBlockTimestamp",
      "outputs": [],
      "payable": false,
      "stateMutability": "nonpayable",
      "type": "function"
    },
    {
      "constant": false,
      "inputs": [
        {
          "internalType": "uint256",
          "name": "start",
          "type": "uint256"
        },
        {
          "internalType": "uint256",
          "name": "period",
          "type": "uint256"
        }
      ],
      "name": "setEpochParamsE",
      "outputs": [],
      "payable": false,
      "stateMutability": "nonpayable",
      "type": "function"
    },
    {
      "constant": false,
      "inputs": [],
      "name": "snapshotTotalBondedE",
      "outputs": [],
      "payable": false,
      "stateMutability": "nonpayable",
      "type": "function"
    },
    {
      "constant": true,
      "inputs": [
        {
          "internalType": "address",
          "name": "candidate",
          "type": "address"
        }
      ],
      "name": "startFor",
      "outputs": [
        {
          "internalType": "uint256",
          "name": "",
          "type": "uint256"
        }
      ],
      "payable": false,
      "stateMutability": "view",
      "type": "function"
    },
    {
      "constant": true,
      "inputs": [
        {
          "internalType": "address",
          "name": "account",
          "type": "address"
        }
      ],
      "name": "statusOf",
      "outputs": [
        {
          "internalType": "enum Account.Status",
          "name": "",
          "type": "uint8"
        }
      ],
      "payable": false,
      "stateMutability": "view",
      "type": "function"
    },
    {
      "constant": true,
      "inputs": [],
      "name": "symbol",
      "outputs": [
        {
          "internalType": "string",
          "name": "",
          "type": "string"
        }
      ],
      "payable": false,
      "stateMutability": "view",
      "type": "function"
    },
    {
      "constant": true,
      "inputs": [],
      "name": "totalBonded",
      "outputs": [
        {
          "internalType": "uint256",
          "name": "",
          "type": "uint256"
        }
      ],
      "payable": false,
      "stateMutability": "view",
      "type": "function"
    },
    {
      "constant": true,
      "inputs": [
        {
          "internalType": "uint256",
          "name": "epoch",
          "type": "uint256"
        }
      ],
      "name": "totalBondedAt",
      "outputs": [
        {
          "internalType": "uint256",
          "name": "",
          "type": "uint256"
        }
      ],
      "payable": false,
      "stateMutability": "view",
      "type": "function"
    },
    {
      "constant": true,
      "inputs": [],
      "name": "totalCoupons",
      "outputs": [
        {
          "internalType": "uint256",
          "name": "",
          "type": "uint256"
        }
      ],
      "payable": false,
      "stateMutability": "view",
      "type": "function"
    },
    {
      "constant": true,
      "inputs": [],
      "name": "totalDebt",
      "outputs": [
        {
          "internalType": "uint256",
          "name": "",
          "type": "uint256"
        }
      ],
      "payable": false,
      "stateMutability": "view",
      "type": "function"
    },
    {
      "constant": true,
      "inputs": [],
      "name": "totalNet",
      "outputs": [
        {
          "internalType": "uint256",
          "name": "",
          "type": "uint256"
        }
      ],
      "payable": false,
      "stateMutability": "view",
      "type": "function"
    },
    {
      "constant": true,
      "inputs": [],
      "name": "totalRedeemable",
      "outputs": [
        {
          "internalType": "uint256",
          "name": "",
          "type": "uint256"
        }
      ],
      "payable": false,
      "stateMutability": "view",
      "type": "function"
    },
    {
      "constant": true,
      "inputs": [],
      "name": "totalStaged",
      "outputs": [
        {
          "internalType": "uint256",
          "name": "",
          "type": "uint256"
        }
      ],
      "payable": false,
      "stateMutability": "view",
      "type": "function"
    },
    {
      "constant": true,
      "inputs": [],
      "name": "totalSupply",
      "outputs": [
        {
          "internalType": "uint256",
          "name": "",
          "type": "uint256"
        }
      ],
      "payable": false,
      "stateMutability": "view",
      "type": "function"
    },
    {
      "constant": false,
      "inputs": [
        {
          "internalType": "address",
          "name": "recipient",
          "type": "address"
        },
        {
          "internalType": "uint256",
          "name": "amount",
          "type": "uint256"
        }
      ],
      "name": "transfer",
      "outputs": [
        {
          "internalType": "bool",
          "name": "",
          "type": "bool"
        }
      ],
      "payable": false,
      "stateMutability": "nonpayable",
      "type": "function"
    },
    {
      "constant": false,
      "inputs": [
        {
          "internalType": "address",
          "name": "sender",
          "type": "address"
        },
        {
          "internalType": "address",
          "name": "recipient",
          "type": "address"
        },
        {
          "internalType": "uint256",
          "name": "amount",
          "type": "uint256"
        }
      ],
      "name": "transferFrom",
      "outputs": [
        {
          "internalType": "bool",
          "name": "",
          "type": "bool"
        }
      ],
      "payable": false,
      "stateMutability": "nonpayable",
      "type": "function"
    },
    {
      "constant": false,
      "inputs": [
        {
          "internalType": "address",
          "name": "account",
          "type": "address"
        }
      ],
      "name": "unfreezeE",
      "outputs": [],
      "payable": false,
      "stateMutability": "nonpayable",
      "type": "function"
    },
    {
      "constant": false,
      "inputs": [
        {
          "internalType": "address",
          "name": "owner",
          "type": "address"
        },
        {
          "internalType": "address",
          "name": "spender",
          "type": "address"
        },
        {
          "internalType": "uint256",
          "name": "amount",
          "type": "uint256"
        }
      ],
      "name": "updateAllowanceCouponsE",
      "outputs": [],
      "payable": false,
      "stateMutability": "nonpayable",
      "type": "function"
    },
    {
      "constant": false,
      "inputs": [
        {
          "internalType": "address",
          "name": "candidate",
          "type": "address"
        },
        {
          "internalType": "enum Candidate.Vote",
          "name": "vote",
          "type": "uint8"
        }
      ],
      "name": "vote",
      "outputs": [],
      "payable": false,
      "stateMutability": "nonpayable",
      "type": "function"
    },
    {
      "constant": true,
      "inputs": [
        {
          "internalType": "address",
          "name": "candidate",
          "type": "address"
        }
      ],
      "name": "votesFor",
      "outputs": [
        {
          "internalType": "uint256",
          "name": "",
          "type": "uint256"
        }
      ],
      "payable": false,
      "stateMutability": "view",
      "type": "function"
    },
    {
      "constant": false,
      "inputs": [],
      "name": "initialize",
      "outputs": [],
      "payable": false,
      "stateMutability": "nonpayable",
      "type": "function"
    },
    {
      "constant": false,
      "inputs": [
        {
          "internalType": "address",
          "name": "newImplementation",
          "type": "address"
        }
      ],
      "name": "upgradeToE",
      "outputs": [],
      "payable": false,
      "stateMutability": "nonpayable",
      "type": "function"
    },
    {
      "constant": false,
      "inputs": [
        {
          "internalType": "uint256",
          "name": "epochTime",
          "type": "uint256"
        }
      ],
      "name": "setEpochTime",
      "outputs": [],
      "payable": false,
      "stateMutability": "nonpayable",
      "type": "function"
    },
    {
      "constant": true,
      "inputs": [],
      "name": "epochTime",
      "outputs": [
        {
          "internalType": "uint256",
          "name": "",
          "type": "uint256"
        }
      ],
      "payable": false,
      "stateMutability": "view",
      "type": "function"
    }
  ],
  "bytecode": "0x60806040523480156200001157600080fd5b5042600f5560405160009062000027906200007a565b604051809103906000f08015801562000044573d6000803e3d6000fd5b50600980546001600160a01b039283166001600160a01b031991821617909155600b805493909216921691909117905562000088565b611c06806200356783390190565b6134cf80620000986000396000f3fe608060405234801561001057600080fd5b50600436106105305760003560e01c8063825ad607116102af578063b32a2f9011610172578063d60b347f116100d9578063eeaca09b11610092578063eeaca09b14610b76578063f1b7cf4914610b89578063f35adf7e14610b9c578063f7a3181814610ba4578063fc7b9c1814610bb7578063ffbe3b7314610bbf57610530565b8063d60b347f14610b09578063d6d8816d14610b1c578063d83d3ed514610b2f578063dd62ed3e14610b42578063dde74dc314610b50578063e0abdf6614610b6357610530565b8063c45a3e0a1161012b578063c45a3e0a14610aa2578063c9aff70c14610ab5578063cb0fbc7114610ac8578063cc8d823c14610adb578063cf02377914610aee578063d53c6f5f14610af657610530565b8063b32a2f9014610a30578063bc7513e214610a43578063bceb514d14610a56578063c1410c0214610a69578063c2aeb5fe14610a7c578063c34eee6514610a8f57610530565b80639f1a092911610216578063a9059cbb116101cf578063a9059cbb14610553578063a9b3cf15146109d1578063adbff2be146109e4578063ae5c2381146109f7578063b11ee0e314610a0a578063b16144a314610a1d57610530565b80639f1a09291461096a5780639f6e1b261461097d578063a00e14d114610990578063a50cd8e7146109a3578063a6c409f1146109b6578063a6f37b53146109be57610530565b806395d89b411161026857806395d89b411461090e57806397a5d5b5146109165780639a649edc146109295780639b82b49b146109315780639bc289f1146109445780639be464931461095757610530565b8063825ad607146108a75780638413e52a146108ba57806386cf9f14146108cd5780638a558b04146108e05780638de2e573146108f3578063900cf0cf1461090657610530565b80633fd4973c116103f7578063646680221161035e57806375d5024b1161031757806375d5024b1461084b5780637a26ec281461085e5780637cb95a32146108715780637d8bb869146108845780637dc0d1d0146108975780638129fc1c1461089f57610530565b806364668022146107e45780636a39e328146107f75780636b862d661461080a57806370a082311461081d57806371c511eb1461083057806372924d2a1461083857610530565b806351adeb57116103b057806351adeb571461077b57806351bf21d814610790578063520acb76146107a35780635c60da1b146107b65780635dbf800a146107be5780635f14fec8146107d157610530565b80633fd4973c1461071f578063438735261461073257806344d96e951461074557806347c050691461074d5780634c736099146107605780635053e4611461077357610530565b806323b872dd1161049b578063353a420c11610454578063353a420c146106a0578063369e8c1d146106b35780633a3e6c81146106c65780633dc905c7146106d95780633f7bcaf3146106ec5780633fbba9a6146106ff57610530565b806323b872dd1461062c578063259f7adf1461063f578063277805a9146106525780632d7f23b314610665578063313ce56714610678578063323474221461068d57610530565b806316f0115b116104ed57806316f0115b146105ce57806318160ddd146105e35780631a08e22a146105eb5780631edbcf6c146105fe5780631fac97321461060657806320f6bc901461061957610530565b806306fdde0314610535578063095ea7b3146105535780630dc6d3a31461057357806310e95b6c146105885780631550ec24146105a857806315e14bf6146105bb575b600080fd5b61053d610bd2565b60405161054a91906132fb565b60405180910390f35b610566610561366004612e8c565b610c09565b60405161054a91906132c3565b610586610581366004612dde565b610c12565b005b61059b610596366004612fa9565b610c5b565b60405161054a919061334c565b6105666105b6366004612fa9565b610c73565b61059b6105c9366004612cf6565b610c88565b6105d6610ca6565b60405161054a9190613272565b61059b610cb5565b6105866105f936600461303b565b610cbb565b61059b610cc9565b610586610614366004612fa9565b610ccf565b610586610627366004612e8c565b610cdb565b61056661063a366004612d9b565b610ce5565b61058661064d366004612fa9565b610cef565b610586610660366004612e8c565b610cf8565b61059b610673366004612fa9565b610d84565b610680610d99565b60405161054a919061335a565b61058661069b366004612fe5565b610d9e565b61059b6106ae366004612cf6565b610dde565b6105866106c1366004612cf6565b610dfc565b6105666106d4366004612cf6565b610f56565b61059b6106e7366004612fa9565b610f73565b6105866106fa366004612d9b565b610f88565b61071261070d366004612d14565b610f93565b60405161054a91906132df565b61058661072d366004612ebc565b610fc6565b610586610740366004612fa9565b61100d565b61059b611016565b61058661075b366004612cf6565b61101c565b61059b61076e36600461303b565b61110f565b61059b61113f565b610783611145565b60405161054a91906132d1565b61059b61079e366004612cf6565b611154565b61059b6107b1366004612fa9565b611172565b6105d6611187565b6105866107cc366004612fa9565b6111ac565b6105866107df366004612e8c565b6111b5565b61059b6107f2366004612cf6565b6111bf565b61059b610805366004612fa9565b6111dd565b610586610818366004612f24565b6111f2565b61059b61082b366004612cf6565b6111fd565b61058661121b565b610586610846366004612fe5565b611225565b610566610859366004612fa9565b611265565b61058661086c366004612fa9565b611278565b61058661087f366004612ebc565b61127d565b61059b610892366004612fa9565b6112be565b6107836112d3565b6105866112e2565b61059b6108b5366004612cf6565b611303565b6105866108c8366004612d4e565b61134f565b61059b6108db366004612cf6565b61135a565b6105866108ee366004612cf6565b611375565b610586610901366004612fa9565b61137e565b61059b611387565b61053d61138d565b610712610924366004612cf6565b6113ab565b61059b611410565b61058661093f366004612fe5565b611416565b61059b610952366004612cf6565b611456565b610586610965366004612cf6565b611474565b61059b610978366004612fa9565b61147d565b61059b61098b366004612d14565b611493565b61058661099e36600461303b565b6114c2565b61059b6109b1366004612cf6565b6114cd565b61059b6114e4565b6105866109cc366004612cf6565b61156e565b6105866109df366004612fa9565b611577565b6105866109f2366004612ebc565b611580565b610586610a05366004612e8c565b6115c1565b610586610a18366004612e8c565b6115cb565b610586610a2b366004612fa9565b6115d5565b610586610a3e366004612ebc565b6115e8565b61059b610a51366004612e8c565b611629565b610586610a64366004612e5c565b61166d565b610586610a77366004612d14565b61194e565b610586610a8a366004612f56565b611958565b61059b610a9d366004612fa9565b61199a565b610586610ab0366004612e8c565b6119af565b61059b610ac3366004612fa9565b6119b9565b61059b610ad6366004612fa9565b6119ce565b610586610ae9366004612e8c565b6119e3565b61059b6119ed565b61059b610b04366004612fa9565b6119f3565b610566610b17366004612cf6565b611a08565b610586610b2a366004612fa9565b611a29565b610586610b3d366004612e8c565b611a32565b61059b610561366004612d14565b61059b610b5e366004612fa9565b611a3c565b610586610b71366004612fa9565b611a51565b61059b610b84366004612fa9565b611a56565b61059b610b97366004612cf6565b611a6b565b610586611a86565b610586610bb2366004612e8c565b611a8e565b61059b611a98565b61059b610bcd366004612fa9565b611a9e565b60408051808201909152601881527f44796e616d69632053657420446f6c6c6172205374616b650000000000000000602082015290565b60005b92915050565b610c5485858585858080601f016020809104026020016040519081016040528093929190818152602001838380828437600092019190915250611ab092505050565b5050505050565b6000818152600d60205260409020600201545b919050565b6000610c7e82611b21565b5460ff1692915050565b6001600160a01b03166000908152600e602052604090206001015490565b600b546001600160a01b031690565b60035490565b610cc58282611b35565b5050565b60065490565b610cd881611b67565b50565b610cc58282611bae565b60005b9392505050565b610cd881611c56565b610d00611145565b6001600160a01b03166340c10f1983836040518363ffffffff1660e01b8152600401610d2d9291906132a8565b602060405180830381600087803b158015610d4757600080fd5b505af1158015610d5b573d6000803e3d6000fd5b505050506040513d601f19601f82011682018060405250610d7f9190810190612f8b565b505050565b6000908152600d60205260409020600a015490565b601290565b610d7f8383838080601f016020809104026020016040519081016040528093929190818152602001838380828437600092019190915250611c6f92505050565b6001600160a01b03166000908152600e602052604090206003015490565b610e28610e0882610f56565b6523b7bb32b93760d11b6c139bdd081b9bdb5a5b985d1959609a1b611c8a565b6000610e5c6001610e50610e3b85610c88565b610e4486611a6b565b9063ffffffff611cdf16565b9063ffffffff611d0416565b9050610e8781610e6a611387565b116523b7bb32b93760d11b68139bdd08195b99195960ba1b611c8a565b610ede610ebb610e95611d46565b610eaf610ea1866114cd565b610eaa86611a9e565b611d68565b9063ffffffff611d9716565b6523b7bb32b93760d11b6f4d75737420686176652071756f726f6d60801b611c8a565b610f13610eea83610dde565b610ef3846111bf565b116523b7bb32b93760d11b6b139bdd08185c1c1c9bdd995960a21b611c8a565b610f1c82611dad565b6040516001600160a01b0383169033907f815ca4497ab9fc80c76f210e6e842a5e198e195aa136034557eee144f790e7bb90600090a35050565b6001600160a01b03166000908152600e6020526040902054151590565b6000908152600d60205260409020600e015490565b610d7f838383611e99565b6001600160a01b038082166000908152600e60209081526040808320938616835260049093019052205460ff1692915050565b611007848484848080601f016020809104026020016040519081016040528093929190818152602001838380828437600092019190915250611ec992505050565b50505050565b610cd881611f1a565b60045490565b611028610e0882610f56565b61106661103e611036611f2e565b610e44611387565b61104661113f565b116523b7bb32b93760d11b6b115c1bd8da081cde5b98d95960a21b611c8a565b6110b8611088611074611f33565b610eaf611080856111bf565b610eaa610cb5565b6523b7bb32b93760d11b7f4d7573742068617665207375706572206d616a6f726974790000000000000000611c8a565b6110cd6110c482610dde565b610ef3836111bf565b6110d681611dad565b6040516001600160a01b0382169033907f815ca4497ab9fc80c76f210e6e842a5e198e195aa136034557eee144f790e7bb90600090a350565b6000828152600d6020526040812060030180548390811061112c57fe5b9060005260206000200154905092915050565b60105490565b6009546001600160a01b031690565b6001600160a01b03166000908152600c602052604090206004015490565b6000908152600d602052604090206010015490565b7f360894a13ba1a3210667c828492db98dca3e2076cc3735a920a3ca505d382bbc5490565b610cd881611f55565b610cc58282611fdc565b6001600160a01b03166000908152600e602052604090206002015490565b6000908152600d602052604090206003015490565b610d7f8383836120ed565b6001600160a01b03166000908152600c602052604090206001015490565b611223612194565b565b610d7f8383838080601f0160208091040260200160405190810160405280939291908181526020018383808284376000920191909152506121bb92505050565b600061126f6121d6565b90911115919050565b601055565b611007848484848080601f0160208091040260200160405190810160405280939291908181526020018383808284376000920191909152506121db92505050565b6000908152600d602052604090206012015490565b600a546001600160a01b031690565b60405162461bcd60e51b81526004016112fa9061333c565b60405180910390fd5b60008061130e610cb5565b90508061131f576000915050610c6e565b610ce88161134361132f866111fd565b611337611016565b9063ffffffff61222c16565b9063ffffffff61226616565b610d7f8383836122a8565b6001600160a01b03166000908152600c602052604090205490565b610cd881611dad565b610cd8816122f2565b60025490565b6040805180820190915260048152634453445360e01b602082015290565b60006113b5611387565b6001600160a01b0383166000908152600c602052604090206005015411156113df57506002610c6e565b6001600160a01b0382166000908152600c6020526040902060040154611403611387565b1015610c09576001610c0c565b60085490565b610d7f8383838080601f01602080910402602001604051908101604052809392919081815260200183838082843760009201919091525061230b92505050565b6001600160a01b03166000908152600c602052604090206005015490565b610cd881612326565b6000908152600d60208190526040909120015490565b6001600160a01b039182166000908152600c602090815260408083209390941682526003909201909152205490565b600091909155600155565b6000610c0c6114db83610dde565b610e44846111bf565b60006115696114f1611a98565b6114f9611145565b6001600160a01b03166318160ddd6040518163ffffffff1660e01b815260040160206040518083038186803b15801561153157600080fd5b505afa158015611545573d6000803e3d6000fd5b505050506040513d601f19601f82011682018060405250610e509190810190612fc7565b905090565b610cd881612350565b610cd881612377565b611007848484848080601f0160208091040260200160405190810160405280939291908181526020018383808284376000920191909152506123ba92505050565b610cc58282612465565b610cc5828261250d565b610cd86115e3826064611d68565b612569565b611007848484848080601f01602080910402602001604051908101604052809392919081815260200183838082843760009201919091525061262e92505050565b6000611634826119b9565b61164057506000610c0c565b506001600160a01b03919091166000908152600c6020908152604080832093835260029093019052205490565b336116b4600161167c836113ab565b600281111561168757fe5b1415692832b936b4b9b9b4b7b760b11b73139bdd08199c9bde995b881bdc881b1bd8dad95960621b611c8a565b6116e560006116c2336111fd565b116523b7bb32b93760d11b6e4d7573742068617665207374616b6560881b611c8a565b6116ee83610f56565b6117915761172e6116fe3361268d565b6523b7bb32b93760d11b7f4e6f7420656e6f756768207374616b6520746f2070726f706f73650000000000611c8a565b61173f8361173a6126d1565b6126d6565b611747611387565b336001600160a01b0385167fd15e38a680a427478883cd2d32eb664cb6bb2090b0126a23ebaf3e3784b8c56b61177b6126d1565b604051611788919061334c565b60405180910390a45b6117c16117a0610e3b85610c88565b6117a8611387565b106523b7bb32b93760d11b64115b99195960da1b611c8a565b60006117cc336111fd565b905060006117da3386610f93565b90508060028111156117e857fe5b8460028111156117f457fe5b1415611801575050610d7f565b600281600281111561180f57fe5b14156118555761185585836040518060400160405280601b81526020017f476f7665726e3a20496e73756666696369656e742072656a6563740000000000815250611ec9565b600181600281111561186357fe5b14156118a9576118a985836040518060400160405280601c81526020017f476f7665726e3a20496e73756666696369656e7420617070726f7665000000008152506121db565b60028460028111156118b757fe5b14156118c7576118c78583612702565b60018460028111156118d557fe5b14156118e5576118e58583612751565b6118f03386866122a8565b6118fa33866127a0565b846001600160a01b0316336001600160a01b03167fbe50c78cbc15b0864819aadea36c6499da421b33c38e2ef19bebda583c708c78868560405161193f9291906132ed565b60405180910390a35050505050565b610cc582826127a0565b610c5485858585858080601f01602080910402602001604051908101604052809392919081815260200183838082843760009201919091525061280092505050565b6000908152600d602052604090206011015490565b610cc582826128ab565b6000908152600d602052604090206001015490565b6000908152600d602052604090206013015490565b610cc58282612702565b60055490565b6000908152600d60205260409020600f015490565b6001600160a01b03166000908152600e602052604090206005015460ff1690565b610cd881612955565b610cc582826126d6565b6000908152600d60205260409020600c015490565b600f55565b6000908152600d60205260409020600b015490565b6001600160a01b03166000908152600e602052604090205490565b61122361296e565b610cc58282612751565b60075490565b6000908152600d602052604090205490565b6001600160a01b038085166000908152600c602090815260408083209387168352600390930190522054611aeb90838363ffffffff61298716565b6001600160a01b039485166000908152600c60209081526040808320969097168252600390950190945293909220929092555050565b6000908152600d6020526040902060040190565b6000828152600d6020908152604080832060020184905592825291812060030180546001810182559082529190200155565b611ba6816040518060400160405280601c81526020017f436f6d7074726f6c6c65723a206e6f7420656e6f7567682064656274000000008152506121bb565b610cd86129b3565b611bb6611145565b6001600160a01b03166340c10f1983836040518363ffffffff1660e01b8152600401611be39291906132a8565b602060405180830381600087803b158015611bfd57600080fd5b505af1158015611c11573d6000803e3d6000fd5b505050506040513d601f19601f82011682018060405250611c359190810190612f8b565b50611c41610859611387565b611c4e57611c4e81611f1a565b610cc56129b3565b600454611c69908263ffffffff611cdf16565b60045550565b600654611c8390838363ffffffff61298716565b6006555050565b82610d7f57611c9882612a86565b6101d160f51b611ca783612a86565b604051602001611cb993929190613241565b60408051601f198184030181529082905262461bcd60e51b82526112fa916004016132fb565b600082820183811015610ce85760405162461bcd60e51b81526004016112fa9061330c565b6000610ce883836040518060400160405280601e81526020017f536166654d6174683a207375627472616374696f6e206f766572666c6f770000815250612987565b611d4e612c63565b5060408051602081019091526702c68af0bb140000815290565b611d70612c63565b6040518060200160405280611d8e85670de0b6b3a764000086612b06565b90529392505050565b6000611da38383612b24565b6002149392505050565b611db681612b56565b60408051600481526024810182526020810180516001600160e01b031663204a7f0760e21b17905290516000916060916001600160a01b03851691611dfa91613235565b600060405180830381855af49150503d8060008114611e35576040519150601f19603f3d011682016040523d82523d6000602084013e611e3a565b606091505b5091509150818190611e5f5760405162461bcd60e51b81526004016112fa91906132fb565b506040516001600160a01b038416907fbc7cd75a20ee27fd9adebab32041f755214dbc6bffa90cc0225b39da2e5c2d3b90600090a2505050565b6001600160a01b039283166000908152600c60209081526040808320949095168252600390930190925291902055565b6001600160a01b0383166000908152600e6020526040902060030154611ef690838363ffffffff61298716565b6001600160a01b039093166000908152600e60205260409020600301929092555050565b611f23816122f2565b611ba66115e3612b9f565b600690565b611f3b612c63565b506040805160208101909152670928ca80cfc20000815290565b611f5d611145565b6001600160a01b03166342966c68826040518263ffffffff1660e01b8152600401611f88919061334c565b600060405180830381600087803b158015611fa257600080fd5b505af1158015611fb6573d6000803e3d6000fd5b50505050611ba6816040518060600160405280602a8152602001613463602a9139611c6f565b611fe4611145565b6001600160a01b03166323b872dd8330846040518463ffffffff1660e01b815260040161201393929190613280565b602060405180830381600087803b15801561202d57600080fd5b505af1158015612041573d6000803e3d6000fd5b505050506040513d601f19601f820116820180604052506120659190810190612f8b565b5061206e611145565b6001600160a01b03166342966c68826040518263ffffffff1660e01b8152600401612099919061334c565b600060405180830381600087803b1580156120b357600080fd5b505af11580156120c7573d6000803e3d6000fd5b50505050611c4e8160405180606001604052806028815260200161343b602891396121bb565b6001600160a01b0383166000908152600c60209081526040808320858452600201909152902054612124908263ffffffff611cdf16565b6001600160a01b0384166000908152600c60209081526040808320868452600201825280832093909355600d90522060010154612167908263ffffffff611cdf16565b6000838152600d602052604090206001015560085461218c908263ffffffff611cdf16565b600855505050565b61219c610cb5565b600d60006121a8611387565b8152602081019190915260400160002055565b6007546121cf90838363ffffffff61298716565b6007555050565b609690565b6001600160a01b0383166000908152600e602052604090206002015461220890838363ffffffff61298716565b6001600160a01b039093166000908152600e60205260409020600201929092555050565b60008261223b57506000610c0c565b8282028284828161224857fe5b0414610ce85760405162461bcd60e51b81526004016112fa9061331c565b6000610ce883836040518060400160405280601a81526020017f536166654d6174683a206469766973696f6e206279207a65726f000000000000815250612bc1565b6001600160a01b038083166000908152600e6020908152604080832093871683526004909301905220805482919060ff191660018360028111156122e857fe5b0217905550505050565b600754612305908263ffffffff611cdf16565b60075550565b60045461231f90838363ffffffff61298716565b6004555050565b6123316110366126d1565b6001600160a01b039091166000908152600c6020526040902060040155565b6001600160a01b03166000908152600e60205260409020600501805460ff19166001179055565b6000612382826119b9565b90508061238f5750610cd8565b6008546123a2908263ffffffff611d0416565b600855506000908152600d6020526040812060010155565b6001600160a01b0383166000908152600c60205260409020600101546123e790838363ffffffff61298716565b6001600160a01b0384166000908152600c602052604090206001015560035461241790838363ffffffff61298716565b6003556040516000906001600160a01b038516907fddf252ad1be2c89b69c2b068fc378daa952ba7f163c4a11628f55a4df523b3ef9061245890869061334c565b60405180910390a3505050565b6001600160a01b0382166000908152600c6020526040902060010154612491908263ffffffff611cdf16565b6001600160a01b0383166000908152600c60205260409020600101556003546124c0908263ffffffff611cdf16565b6003556040516001600160a01b038316906000907fddf252ad1be2c89b69c2b068fc378daa952ba7f163c4a11628f55a4df523b3ef9061250190859061334c565b60405180910390a35050565b6001600160a01b0382166000908152600c6020526040902054612536908263ffffffff611cdf16565b6001600160a01b0383166000908152600c6020526040902055600554612562908263ffffffff611cdf16565b6005555050565b60006125fb6125f6612579611145565b6001600160a01b03166318160ddd6040518163ffffffff1660e01b815260040160206040518083038186803b1580156125b157600080fd5b505afa1580156125c5573d6000803e3d6000fd5b505050506040513d601f19601f820116820180604052506125e99190810190612fc7565b849063ffffffff612bf816565b612c1f565b90506000612607611a98565b905081811115610d7f576000612623828463ffffffff611d0416565b905061100781611b67565b6001600160a01b0383166000908152600c602052604090205461265890838363ffffffff61298716565b6001600160a01b0384166000908152600c602052604090205560055461268590838363ffffffff61298716565b600555505050565b6000612697611016565b6126a357506000610c6e565b6126ab612c63565b6126b7611080846111fd565b9050610ce86126c4612c3c565b829063ffffffff611d9716565b602490565b6126de611387565b6001600160a01b039092166000908152600e60205260409020918255600190910155565b6001600160a01b0382166000908152600e602052604090206003015461272e908263ffffffff611cdf16565b6001600160a01b039092166000908152600e602052604090206003019190915550565b6001600160a01b0382166000908152600e602052604090206002015461277d908263ffffffff611cdf16565b6001600160a01b039092166000908152600e602052604090206002019190915550565b6001600160a01b0382166000908152600c6020526040812060050154906127d26127c984610c88565b610e4485611a6b565b905081811115611007576001600160a01b0384166000908152600c6020526040902060050181905550505050565b6001600160a01b0384166000908152600c6020908152604080832086845260020190915290205461283890838363ffffffff61298716565b6001600160a01b0385166000908152600c60209081526040808320878452600201825280832093909355600d9052206001015461287c90838363ffffffff61298716565b6000848152600d60205260409020600101556008546128a290838363ffffffff61298716565b60085550505050565b6128b3611145565b6001600160a01b031663a9059cbb83836040518363ffffffff1660e01b81526004016128e09291906132a8565b602060405180830381600087803b1580156128fa57600080fd5b505af115801561290e573d6000803e3d6000fd5b505050506040513d601f19601f820116820180604052506129329190810190612f8b565b50611c4e816040518060600160405280602a8152602001613463602a9139611c6f565b600654612968908263ffffffff611cdf16565b60065550565b60025461298290600163ffffffff611cdf16565b600255565b600081848411156129ab5760405162461bcd60e51b81526004016112fa91906132fb565b505050900390565b6112236129d46129c1610cc9565b610e446129cc6119ed565b610e44611016565b6129dc611145565b6001600160a01b03166370a08231306040518263ffffffff1660e01b8152600401612a079190613272565b60206040518083038186803b158015612a1f57600080fd5b505afa158015612a33573d6000803e3d6000fd5b505050506040513d601f19601f82011682018060405250612a579190810190612fc7565b10156a21b7b6b83a3937b63632b960a91b74496e636f6e73697374656e742062616c616e63657360581b611c8a565b60608082604051602001612a9a9190613220565b60408051601f19818403018152919052905060205b8015612aef57815160001990910190829082908110612aca57fe5b01602001516001600160f81b03191615612aea5760010181529050610c6e565b612aaf565b505060408051600081526020810190915292915050565b6000612b1c82611343868663ffffffff61222c16565b949350505050565b805182516000911415612b3957506001610c0c565b8151835111612b49576000612b4c565b60025b60ff169392505050565b612b5f81612c5d565b612b7b5760405162461bcd60e51b81526004016112fa9061332c565b7f360894a13ba1a3210667c828492db98dca3e2076cc3735a920a3ca505d382bbc55565b612ba7612c63565b5060408051602081019091526704db732547630000815290565b60008183612be25760405162461bcd60e51b81526004016112fa91906132fb565b506000838581612bee57fe5b0495945050505050565b612c00612c63565b604080516020810190915283518190611d8e908563ffffffff61222c16565b8051600090610c0c90670de0b6b3a764000063ffffffff61226616565b612c44612c63565b5060408051602081019091526611c37937e08000815290565b3b151590565b6040518060200160405280600081525090565b8035610c0c81613407565b8051610c0c8161341b565b8035610c0c81613424565b60008083601f840112612ca957600080fd5b50813567ffffffffffffffff811115612cc157600080fd5b602083019150836001820283011115612cd957600080fd5b9250929050565b8035610c0c81613431565b8051610c0c81613431565b600060208284031215612d0857600080fd5b6000612b1c8484612c76565b60008060408385031215612d2757600080fd5b6000612d338585612c76565b9250506020612d4485828601612c76565b9150509250929050565b600080600060608486031215612d6357600080fd5b6000612d6f8686612c76565b9350506020612d8086828701612c76565b9250506040612d9186828701612c8c565b9150509250925092565b600080600060608486031215612db057600080fd5b6000612dbc8686612c76565b9350506020612dcd86828701612c76565b9250506040612d9186828701612ce0565b600080600080600060808688031215612df657600080fd5b6000612e028888612c76565b9550506020612e1388828901612c76565b9450506040612e2488828901612ce0565b935050606086013567ffffffffffffffff811115612e4157600080fd5b612e4d88828901612c97565b92509250509295509295909350565b60008060408385031215612e6f57600080fd5b6000612e7b8585612c76565b9250506020612d4485828601612c8c565b60008060408385031215612e9f57600080fd5b6000612eab8585612c76565b9250506020612d4485828601612ce0565b60008060008060608587031215612ed257600080fd5b6000612ede8787612c76565b9450506020612eef87828801612ce0565b935050604085013567ffffffffffffffff811115612f0c57600080fd5b612f1887828801612c97565b95989497509550505050565b600080600060608486031215612f3957600080fd5b6000612f458686612c76565b9350506020612dcd86828701612ce0565b600080600080600060808688031215612f6e57600080fd5b6000612f7a8888612c76565b9550506020612e1388828901612ce0565b600060208284031215612f9d57600080fd5b6000612b1c8484612c81565b600060208284031215612fbb57600080fd5b6000612b1c8484612ce0565b600060208284031215612fd957600080fd5b6000612b1c8484612ceb565b600080600060408486031215612ffa57600080fd5b60006130068686612ce0565b935050602084013567ffffffffffffffff81111561302357600080fd5b61302f86828701612c97565b92509250509250925092565b6000806040838503121561304e57600080fd5b6000612eab8585612ce0565b61306381613375565b82525050565b61306381613380565b61306361307e82613385565b613392565b61306361307e82613392565b600061309a82613368565b6130a48185610c6e565b93506130b48185602086016133c7565b9290920192915050565b613063816133b1565b613063816133bc565b60006130db82613368565b6130e5818561336c565b93506130f58185602086016133c7565b6130fe816133f3565b9093019392505050565b6000613115601b8361336c565b7f536166654d6174683a206164646974696f6e206f766572666c6f770000000000815260200192915050565b600061314e60218361336c565b7f536166654d6174683a206d756c7469706c69636174696f6e206f766572666c6f8152607760f81b602082015260400192915050565b6000613191603b8361336c565b7f43616e6e6f742073657420612070726f787920696d706c656d656e746174696f81527f6e20746f2061206e6f6e2d636f6e747261637420616464726573730000000000602082015260400192915050565b60006131f0600f8361336c565b6e14da1bdd5b19081b9bdd0818d85b1b608a1b815260200192915050565b61306381613392565b613063816133ab565b600061322c8284613083565b50602001919050565b6000610ce8828461308f565b600061324d828661308f565b91506132598285613072565b600282019150613269828461308f565b95945050505050565b60208101610c0c828461305a565b6060810161328e828661305a565b61329b602083018561305a565b612b1c604083018461320e565b604081016132b6828561305a565b610ce8602083018461320e565b60208101610c0c8284613069565b60208101610c0c82846130be565b60208101610c0c82846130c7565b604081016132b682856130c7565b60208082528101610ce881846130d0565b60208082528101610c0c81613108565b60208082528101610c0c81613141565b60208082528101610c0c81613184565b60208082528101610c0c816131e3565b60208101610c0c828461320e565b60208101610c0c8284613217565b5190565b90815260200190565b6000610c0c8261339f565b151590565b6001600160f01b03191690565b90565b80610c6e816133fd565b6001600160a01b031690565b60ff1690565b6000610c0c82613375565b6000610c0c82613395565b60005b838110156133e25781810151838201526020016133ca565b838111156110075750506000910152565b601f01601f191690565b60038110610cd857fe5b61341081613375565b8114610cd857600080fd5b61341081613380565b60038110610cd857600080fd5b6134108161339256fe436f6d7074726f6c6c65723a206e6f7420656e6f756768206f75747374616e64696e672064656274436f6d7074726f6c6c65723a206e6f7420656e6f7567682072656465656d61626c652062616c616e6365a365627a7a72315820b3211d40d5e3f3f9c18d8e7fa3b307e06d0298160bfb01373dc58d4eb30f5f546c6578706572696d656e74616cf564736f6c6343000511004060806040523480156200001157600080fd5b5060405180604001604052806012815260200171223cb730b6b4b19029b2ba102237b63630b960711b815250604051806040016040528060038152602001621114d160ea1b81525060126200007e6200006f6200011960201b60201c565b6001600160e01b036200011e16565b82516200009390600190602086019062000313565b508151620000a990600290602085019062000313565b506003805460ff191660ff9290921691909117905550620001109050620000cf62000170565b604051806040016040528060018152602001603160f81b815250620000fe6200020960201b620016341760201c565b306200020e60201b620016391760201c565b60075562000469565b335b90565b620001398160006200026560201b62000d7e1790919060201c565b6040516001600160a01b038216907f6ae172837ea30b801fbfcdd4108aa1d5bf8ff775444fd70256b44e6bf3dfc3f690600090a250565b60018054604080516020601f60026000196101008789161502019095169490940493840181900481028201810190925282815260609390929091830182828015620001ff5780601f10620001d357610100808354040283529160200191620001ff565b820191906000526020600020905b815481529060010190602001808311620001e157829003601f168201915b5050505050905090565b600190565b8351602094850120835193850193909320604080517f8b73c3c69bb8fe3d512ecc4cf759cc79239f7b179b0ffacaa9a75d522b39400f815295860194909452928401929092526060830152608082015260a0902090565b6200027a82826001600160e01b03620002c816565b15620002a35760405162461bcd60e51b81526004016200029a9062000436565b60405180910390fd5b6001600160a01b0316600090815260209190915260409020805460ff19166001179055565b60006001600160a01b038216620002f35760405162461bcd60e51b81526004016200029a906200044e565b506001600160a01b03166000908152602091909152604090205460ff1690565b828054600181600116156101000203166002900490600052602060002090601f016020900481019282601f106200035657805160ff191683800117855562000386565b8280016001018555821562000386579182015b828111156200038657825182559160200191906001019062000369565b506200039492915062000398565b5090565b6200011b91905b808211156200039457600081556001016200039f565b6000620003c4601f8362000460565b7f526f6c65733a206163636f756e7420616c72656164792068617320726f6c6500815260200192915050565b6000620003ff60228362000460565b7f526f6c65733a206163636f756e7420697320746865207a65726f206164647265815261737360f01b602082015260400192915050565b602080825281016200044881620003b5565b92915050565b602080825281016200044881620003f0565b90815260200190565b61178d80620004796000396000f3fe608060405234801561001057600080fd5b506004361061012c5760003560e01c806395d89b41116100ad578063aa271e1a11610071578063aa271e1a14610256578063d505accf14610269578063dab400f31461027c578063dd62ed3e14610284578063e879c19f146102975761012c565b806395d89b411461020d578063983b2d56146102155780639865027514610228578063a457c2d714610230578063a9059cbb146102435761012c565b806339509351116100f457806339509351146101ac57806340c10f19146101bf57806342966c68146101d257806370a08231146101e757806379cc6790146101fa5761012c565b806306fdde0314610131578063095ea7b31461014f57806318160ddd1461016f57806323b872dd14610184578063313ce56714610197575b600080fd5b61013961029f565b60405161014691906114c6565b60405180910390f35b61016261015d366004610ffc565b610334565b604051610146919061141b565b610177610352565b6040516101469190611429565b610162610192366004610f13565b610358565b61019f6103ca565b6040516101469190611587565b6101626101ba366004610ffc565b6103d3565b6101626101cd366004610ffc565b610427565b6101e56101e036600461102c565b610463565b005b6101776101f5366004610eb3565b610477565b6101e5610208366004610ffc565b610496565b6101396104a4565b6101e5610223366004610eb3565b610502565b6101e5610532565b61016261023e366004610ffc565b610544565b610162610251366004610ffc565b6105b2565b610162610264366004610eb3565b6105c6565b6101e5610277366004610f60565b6105d8565b61017761075f565b610177610292366004610ed9565b610765565b610177610790565b60018054604080516020601f6002600019610100878916150201909516949094049384018190048102820181019092528281526060939092909183018282801561032a5780601f106102ff5761010080835404028352916020019161032a565b820191906000526020600020905b81548152906001019060200180831161030d57829003601f168201915b5050505050905090565b60006103486103416107b4565b84846107b8565b5060015b92915050565b60065490565b600061036584848461086c565b600019610374856102926107b4565b146103c0576103c0846103856107b4565b6103bb856040518060600160405280602981526020016116fd602991396103ae8a6102926107b4565b919063ffffffff61098216565b6107b8565b5060019392505050565b60035460ff1690565b60006103486103e06107b4565b846103bb85600560006103f16107b4565b6001600160a01b03908116825260208083019390935260409182016000908120918c16815292529020549063ffffffff6109ae16565b60006104346102646107b4565b6104595760405162461bcd60e51b815260040161045090611517565b60405180910390fd5b61034883836109da565b61047461046e6107b4565b82610a9a565b50565b6001600160a01b0381166000908152600460205260409020545b919050565b6104a08282610b70565b5050565b60028054604080516020601f600019610100600187161502019094168590049384018190048102820181019092528281526060939092909183018282801561032a5780601f106102ff5761010080835404028352916020019161032a565b61050d6102646107b4565b6105295760405162461bcd60e51b815260040161045090611517565b61047481610beb565b61054261053d6107b4565b610c33565b565b60006103486105516107b4565b846103bb85604051806060016040528060258152602001611726602591396005600061057b6107b4565b6001600160a01b03908116825260208083019390935260409182016000908120918d1681529252902054919063ffffffff61098216565b60006103486105bf6107b4565b848461086c565b600061034c818363ffffffff610c7b16565b6007546001600160a01b03881660009081526008602090815260408083208054600181019091559051929361065a93909261063f927f6e71edae12b1b97f4d1f60370fef10105fa2faae0126114a169c64845d6126c9928e928e928e9290918e9101611437565b60405160208183030381529060405280519060200120610cc3565b90506000600182868686604051600081526020016040526040516106819493929190611491565b6020604051602081039080840390855afa1580156106a3573d6000803e3d6000fd5b5050506020604051035190506106f0896001600160a01b0316826001600160a01b0316146a5065726d69747461626c6560a81b70496e76616c6964207369676e617475726560781b610ce2565b6107236001600160a01b03821615156a5065726d69747461626c6560a81b6b5a65726f206164647265737360a01b610ce2565b610749864211156a5065726d69747461626c6560a81b66115e1c1a5c995960ca1b610ce2565b6107548989896107b8565b505050505050505050565b60075481565b6001600160a01b03918216600090815260056020908152604080832093909416825291909152205490565b7f6e71edae12b1b97f4d1f60370fef10105fa2faae0126114a169c64845d6126c981565b3390565b6001600160a01b0383166107de5760405162461bcd60e51b815260040161045090611567565b6001600160a01b0382166108045760405162461bcd60e51b8152600401610450906114f7565b6001600160a01b0380841660008181526005602090815260408083209487168084529490915290819020849055517f8c5be1e5ebec7d5bd14f71427d1e84f3dd0314c0f7b2291e5b200ac8c7c3b9259061085f908590611429565b60405180910390a3505050565b6001600160a01b0383166108925760405162461bcd60e51b815260040161045090611557565b6001600160a01b0382166108b85760405162461bcd60e51b8152600401610450906114d7565b6108fb816040518060600160405280602681526020016116b3602691396001600160a01b038616600090815260046020526040902054919063ffffffff61098216565b6001600160a01b038085166000908152600460205260408082209390935590841681522054610930908263ffffffff6109ae16565b6001600160a01b0380841660008181526004602052604090819020939093559151908516907fddf252ad1be2c89b69c2b068fc378daa952ba7f163c4a11628f55a4df523b3ef9061085f908590611429565b600081848411156109a65760405162461bcd60e51b815260040161045091906114c6565b505050900390565b6000828201838110156109d35760405162461bcd60e51b815260040161045090611507565b9392505050565b6001600160a01b038216610a005760405162461bcd60e51b815260040161045090611577565b600654610a13908263ffffffff6109ae16565b6006556001600160a01b038216600090815260046020526040902054610a3f908263ffffffff6109ae16565b6001600160a01b0383166000818152600460205260408082209390935591519091907fddf252ad1be2c89b69c2b068fc378daa952ba7f163c4a11628f55a4df523b3ef90610a8e908590611429565b60405180910390a35050565b6001600160a01b038216610ac05760405162461bcd60e51b815260040161045090611547565b610b0381604051806060016040528060228152602001611691602291396001600160a01b038516600090815260046020526040902054919063ffffffff61098216565b6001600160a01b038316600090815260046020526040902055600654610b2f908263ffffffff610d3c16565b6006556040516000906001600160a01b038416907fddf252ad1be2c89b69c2b068fc378daa952ba7f163c4a11628f55a4df523b3ef90610a8e908590611429565b610b7a8282610a9a565b6104a082610b866107b4565b6103bb846040518060600160405280602481526020016116d9602491396001600160a01b038816600090815260056020526040812090610bc46107b4565b6001600160a01b03168152602081019190915260400160002054919063ffffffff61098216565b610bfc60008263ffffffff610d7e16565b6040516001600160a01b038216907f6ae172837ea30b801fbfcdd4108aa1d5bf8ff775444fd70256b44e6bf3dfc3f690600090a250565b610c4460008263ffffffff610dca16565b6040516001600160a01b038216907fe94479a9f7e1952cc78f2d6baab678adc1b772d936c6583def489e524cb6669290600090a250565b60006001600160a01b038216610ca35760405162461bcd60e51b815260040161045090611537565b506001600160a01b03166000908152602091909152604090205460ff1690565b60405161190160f01b8152600281019290925260228201526042902090565b82610d3757610cf082610e12565b6101d160f51b610cff83610e12565b604051602001610d11939291906113ea565b60408051601f198184030181529082905262461bcd60e51b8252610450916004016114c6565b505050565b60006109d383836040518060400160405280601e81526020017f536166654d6174683a207375627472616374696f6e206f766572666c6f770000815250610982565b610d888282610c7b565b15610da55760405162461bcd60e51b8152600401610450906114e7565b6001600160a01b0316600090815260209190915260409020805460ff19166001179055565b610dd48282610c7b565b610df05760405162461bcd60e51b815260040161045090611527565b6001600160a01b0316600090815260209190915260409020805460ff19169055565b60608082604051602001610e2691906113d5565b60408051601f19818403018152919052905060205b8015610e7b57815160001990910190829082908110610e5657fe5b01602001516001600160f81b03191615610e765760010181529050610491565b610e3b565b505060408051600081526020810190915292915050565b803561034c8161160e565b803561034c81611622565b803561034c8161162b565b600060208284031215610ec557600080fd5b6000610ed18484610e92565b949350505050565b60008060408385031215610eec57600080fd5b6000610ef88585610e92565b9250506020610f0985828601610e92565b9150509250929050565b600080600060608486031215610f2857600080fd5b6000610f348686610e92565b9350506020610f4586828701610e92565b9250506040610f5686828701610e9d565b9150509250925092565b600080600080600080600060e0888a031215610f7b57600080fd5b6000610f878a8a610e92565b9750506020610f988a828b01610e92565b9650506040610fa98a828b01610e9d565b9550506060610fba8a828b01610e9d565b9450506080610fcb8a828b01610ea8565b93505060a0610fdc8a828b01610e9d565b92505060c0610fed8a828b01610e9d565b91505092959891949750929550565b6000806040838503121561100f57600080fd5b600061101b8585610e92565b9250506020610f0985828601610e9d565b60006020828403121561103e57600080fd5b6000610ed18484610e9d565b611053816115a2565b82525050565b611053816115ad565b61105361106e826115b2565b6115bf565b611053816115bf565b61105361106e826115bf565b600061109382611595565b61109d8185610491565b93506110ad8185602086016115d4565b9290920192915050565b60006110c282611595565b6110cc8185611599565b93506110dc8185602086016115d4565b6110e581611604565b9093019392505050565b60006110fc602383611599565b7f45524332303a207472616e7366657220746f20746865207a65726f206164647281526265737360e81b602082015260400192915050565b6000611141601f83611599565b7f526f6c65733a206163636f756e7420616c72656164792068617320726f6c6500815260200192915050565b600061117a602283611599565b7f45524332303a20617070726f766520746f20746865207a65726f206164647265815261737360f01b602082015260400192915050565b60006111be601b83611599565b7f536166654d6174683a206164646974696f6e206f766572666c6f770000000000815260200192915050565b60006111f7603083611599565b7f4d696e746572526f6c653a2063616c6c657220646f6573206e6f74206861766581526f20746865204d696e74657220726f6c6560801b602082015260400192915050565b6000611249602183611599565b7f526f6c65733a206163636f756e7420646f6573206e6f74206861766520726f6c8152606560f81b602082015260400192915050565b600061128c602283611599565b7f526f6c65733a206163636f756e7420697320746865207a65726f206164647265815261737360f01b602082015260400192915050565b60006112d0602183611599565b7f45524332303a206275726e2066726f6d20746865207a65726f206164647265738152607360f81b602082015260400192915050565b6000611313602583611599565b7f45524332303a207472616e736665722066726f6d20746865207a65726f206164815264647265737360d81b602082015260400192915050565b600061135a602483611599565b7f45524332303a20617070726f76652066726f6d20746865207a65726f206164648152637265737360e01b602082015260400192915050565b60006113a0601f83611599565b7f45524332303a206d696e7420746f20746865207a65726f206164647265737300815260200192915050565b611053816115ce565b60006113e1828461107c565b50602001919050565b60006113f68286611088565b91506114028285611062565b6002820191506114128284611088565b95945050505050565b6020810161034c8284611059565b6020810161034c8284611073565b60c081016114458289611073565b611452602083018861104a565b61145f604083018761104a565b61146c6060830186611073565b6114796080830185611073565b61148660a0830184611073565b979650505050505050565b6080810161149f8287611073565b6114ac60208301866113cc565b6114b96040830185611073565b6114126060830184611073565b602080825281016109d381846110b7565b6020808252810161034c816110ef565b6020808252810161034c81611134565b6020808252810161034c8161116d565b6020808252810161034c816111b1565b6020808252810161034c816111ea565b6020808252810161034c8161123c565b6020808252810161034c8161127f565b6020808252810161034c816112c3565b6020808252810161034c81611306565b6020808252810161034c8161134d565b6020808252810161034c81611393565b6020810161034c82846113cc565b5190565b90815260200190565b600061034c826115c2565b151590565b6001600160f01b03191690565b90565b6001600160a01b031690565b60ff1690565b60005b838110156115ef5781810151838201526020016115d7565b838111156115fe576000848401525b50505050565b601f01601f191690565b611617816115a2565b811461047457600080fd5b611617816115bf565b611617816115ce565b600190565b8351602094850120835193850193909320604080517f8b73c3c69bb8fe3d512ecc4cf759cc79239f7b179b0ffacaa9a75d522b39400f815295860194909452928401929092526060830152608082015260a090209056fe45524332303a206275726e20616d6f756e7420657863656564732062616c616e636545524332303a207472616e7366657220616d6f756e7420657863656564732062616c616e636545524332303a206275726e20616d6f756e74206578636565647320616c6c6f77616e6365446f6c6c61723a207472616e7366657220616d6f756e74206578636565647320616c6c6f77616e636545524332303a2064656372656173656420616c6c6f77616e63652062656c6f77207a65726fa365627a7a7231582021717f4bb76e445345cb7f360c6be702a59b3219eb6cebef899d276f27b2e4bb6c6578706572696d656e74616cf564736f6c63430005110040",
  "source": "/*\n    Copyright 2020 Dynamic Dollar Devs, based on the works of the Empty Set Squad\n\n    Licensed under the Apache License, Version 2.0 (the \"License\");\n    you may not use this file except in compliance with the License.\n    You may obtain a copy of the License at\n\n    http://www.apache.org/licenses/LICENSE-2.0\n\n    Unless required by applicable law or agreed to in writing, software\n    distributed under the License is distributed on an \"AS IS\" BASIS,\n    WITHOUT WARRANTIES OR CONDITIONS OF ANY KIND, either express or implied.\n    See the License for the specific language governing permissions and\n    limitations under the License.\n*/\n\npragma solidity ^0.5.17;\npragma experimental ABIEncoderV2;\n\nimport \"../dao/Govern.sol\";\nimport \"./MockUpgradeable.sol\";\nimport \"./MockComptroller.sol\";\n\ncontract MockGovern is Govern, MockComptroller {\n    uint256 internal _epochTime;\n\n    constructor() MockComptroller(address(0)) public { }\n\n    function initialize() public {\n        revert(\"Should not call\");\n    }\n\n    function upgradeToE(address newImplementation) external {\n        super.upgradeTo(newImplementation);\n    }\n\n    function setEpochTime(uint256 epochTime) external {\n        _epochTime = epochTime;\n    }\n\n    function epochTime() public view returns (uint256) {\n        return _epochTime;\n    }\n}\n",
  "sourcePath": "/Users/cinquemb/Documents/Startups/crypto/dollar/protocol/contracts/mock/MockGovern.sol",
  "compiler": {
    "name": "solc",
    "version": "0.5.17+commit.d19bba13.Emscripten.clang"
  },
  "schemaVersion": "3.3.3",
  "updatedAt": "2021-01-12T11:27:06.610Z",
  "devdoc": {
    "methods": {}
  },
  "userdoc": {
    "methods": {
      "balanceOfStaged(address)": {
        "notice": "Account"
      },
      "createCandidateE(address,uint256)": {
        "notice": "Governance"
      },
      "dollar()": {
        "notice": "Global"
      },
      "epoch()": {
        "notice": "Epoch"
      },
      "incrementBalanceOfE(address,uint256)": {
        "notice": "Account"
      },
      "incrementTotalBondedE(uint256)": {
        "notice": "Global"
      },
      "name()": {
        "notice": "ERC20 Interface"
      },
      "recordedVote(address,address)": {
        "notice": "Governance"
      },
      "setBlockTimestamp(uint256)": {
        "notice": "Mock"
      },
      "setEpochParamsE(uint256,uint256)": {
        "notice": "Epoch"
      },
      "transfer(address,uint256)": {
        "notice": "ERC20 Interface"
      }
    }
  }
}