{
  "contractName": "MockRegulator",
  "abi": [
    {
      "inputs": [
        {
          "internalType": "address",
          "name": "oracle",
          "type": "address"
        },
        {
          "internalType": "address",
          "name": "pool",
          "type": "address"
        }
      ],
      "payable": false,
      "stateMutability": "nonpayable",
      "type": "constructor"
    },
    {
      "anonymous": false,
      "inputs": [
        {
          "indexed": true,
          "internalType": "uint256",
          "name": "epoch",
          "type": "uint256"
        },
        {
          "indexed": false,
          "internalType": "uint256",
          "name": "price",
          "type": "uint256"
        },
        {
          "indexed": false,
          "internalType": "uint256",
          "name": "newDebt",
          "type": "uint256"
        }
      ],
      "name": "SupplyDecrease",
      "type": "event"
    },
    {
      "anonymous": false,
      "inputs": [
        {
          "indexed": true,
          "internalType": "uint256",
          "name": "epoch",
          "type": "uint256"
        },
        {
          "indexed": false,
          "internalType": "uint256",
          "name": "price",
          "type": "uint256"
        },
        {
          "indexed": false,
          "internalType": "uint256",
          "name": "newRedeemable",
          "type": "uint256"
        },
        {
          "indexed": false,
          "internalType": "uint256",
          "name": "lessDebt",
          "type": "uint256"
        },
        {
          "indexed": false,
          "internalType": "uint256",
          "name": "newBonded",
          "type": "uint256"
        }
      ],
      "name": "SupplyIncrease",
      "type": "event"
    },
    {
      "anonymous": false,
      "inputs": [
        {
          "indexed": true,
          "internalType": "uint256",
          "name": "epoch",
          "type": "uint256"
        }
      ],
      "name": "SupplyNeutral",
      "type": "event"
    },
    {
      "anonymous": false,
      "inputs": [
        {
          "indexed": true,
          "internalType": "address",
          "name": "from",
          "type": "address"
        },
        {
          "indexed": true,
          "internalType": "address",
          "name": "to",
          "type": "address"
        },
        {
          "indexed": false,
          "internalType": "uint256",
          "name": "value",
          "type": "uint256"
        }
      ],
      "name": "Transfer",
      "type": "event"
    },
    {
      "constant": true,
      "inputs": [
        {
          "internalType": "address",
          "name": "owner",
          "type": "address"
        },
        {
          "internalType": "address",
          "name": "spender",
          "type": "address"
        }
      ],
      "name": "allowance",
      "outputs": [
        {
          "internalType": "uint256",
          "name": "",
          "type": "uint256"
        }
      ],
      "payable": false,
      "stateMutability": "view",
      "type": "function"
    },
    {
      "constant": true,
      "inputs": [
        {
          "internalType": "address",
          "name": "owner",
          "type": "address"
        },
        {
          "internalType": "address",
          "name": "spender",
          "type": "address"
        }
      ],
      "name": "allowanceCoupons",
      "outputs": [
        {
          "internalType": "uint256",
          "name": "",
          "type": "uint256"
        }
      ],
      "payable": false,
      "stateMutability": "view",
      "type": "function"
    },
    {
      "constant": false,
      "inputs": [
        {
          "internalType": "address",
          "name": "spender",
          "type": "address"
        },
        {
          "internalType": "uint256",
          "name": "amount",
          "type": "uint256"
        }
      ],
      "name": "approve",
      "outputs": [
        {
          "internalType": "bool",
          "name": "",
          "type": "bool"
        }
      ],
      "payable": false,
      "stateMutability": "nonpayable",
      "type": "function"
    },
    {
      "constant": true,
      "inputs": [
        {
          "internalType": "address",
          "name": "candidate",
          "type": "address"
        }
      ],
      "name": "approveFor",
      "outputs": [
        {
          "internalType": "uint256",
          "name": "",
          "type": "uint256"
        }
      ],
      "payable": false,
      "stateMutability": "view",
      "type": "function"
    },
    {
      "constant": true,
      "inputs": [
        {
          "internalType": "address",
          "name": "account",
          "type": "address"
        }
      ],
      "name": "balanceOf",
      "outputs": [
        {
          "internalType": "uint256",
          "name": "",
          "type": "uint256"
        }
      ],
      "payable": false,
      "stateMutability": "view",
      "type": "function"
    },
    {
      "constant": true,
      "inputs": [
        {
          "internalType": "address",
          "name": "account",
          "type": "address"
        }
      ],
      "name": "balanceOfBonded",
      "outputs": [
        {
          "internalType": "uint256",
          "name": "",
          "type": "uint256"
        }
      ],
      "payable": false,
      "stateMutability": "view",
      "type": "function"
    },
    {
      "constant": true,
      "inputs": [
        {
          "internalType": "address",
          "name": "account",
          "type": "address"
        },
        {
          "internalType": "uint256",
          "name": "epoch",
          "type": "uint256"
        }
      ],
      "name": "balanceOfCoupons",
      "outputs": [
        {
          "internalType": "uint256",
          "name": "",
          "type": "uint256"
        }
      ],
      "payable": false,
      "stateMutability": "view",
      "type": "function"
    },
    {
      "constant": true,
      "inputs": [
        {
          "internalType": "address",
          "name": "account",
          "type": "address"
        }
      ],
      "name": "balanceOfStaged",
      "outputs": [
        {
          "internalType": "uint256",
          "name": "",
          "type": "uint256"
        }
      ],
      "payable": false,
      "stateMutability": "view",
      "type": "function"
    },
    {
      "constant": false,
      "inputs": [
        {
          "internalType": "address",
          "name": "account",
          "type": "address"
        },
        {
          "internalType": "uint256",
          "name": "amount",
          "type": "uint256"
        }
      ],
      "name": "burnFromAccountE",
      "outputs": [],
      "payable": false,
      "stateMutability": "nonpayable",
      "type": "function"
    },
    {
      "constant": false,
      "inputs": [
        {
          "internalType": "uint256",
          "name": "amount",
          "type": "uint256"
        }
      ],
      "name": "burnRedeemableE",
      "outputs": [],
      "payable": false,
      "stateMutability": "nonpayable",
      "type": "function"
    },
    {
      "constant": true,
      "inputs": [
        {
          "internalType": "uint256",
          "name": "epoch",
          "type": "uint256"
        }
      ],
      "name": "couponsExpiration",
      "outputs": [
        {
          "internalType": "uint256",
          "name": "",
          "type": "uint256"
        }
      ],
      "payable": false,
      "stateMutability": "view",
      "type": "function"
    },
    {
      "constant": false,
      "inputs": [
        {
          "internalType": "address",
          "name": "candidate",
          "type": "address"
        },
        {
          "internalType": "uint256",
          "name": "period",
          "type": "uint256"
        }
      ],
      "name": "createCandidateE",
      "outputs": [],
      "payable": false,
      "stateMutability": "nonpayable",
      "type": "function"
    },
    {
      "constant": true,
      "inputs": [],
      "name": "decimals",
      "outputs": [
        {
          "internalType": "uint8",
          "name": "",
          "type": "uint8"
        }
      ],
      "payable": false,
      "stateMutability": "view",
      "type": "function"
    },
    {
      "constant": false,
      "inputs": [
        {
          "internalType": "uint256",
          "name": "amount",
          "type": "uint256"
        }
      ],
      "name": "decreaseDebtE",
      "outputs": [],
      "payable": false,
      "stateMutability": "nonpayable",
      "type": "function"
    },
    {
      "constant": false,
      "inputs": [
        {
          "internalType": "address",
          "name": "owner",
          "type": "address"
        },
        {
          "internalType": "address",
          "name": "spender",
          "type": "address"
        },
        {
          "internalType": "uint256",
          "name": "amount",
          "type": "uint256"
        },
        {
          "internalType": "string",
          "name": "reason",
          "type": "string"
        }
      ],
      "name": "decrementAllowanceCouponsE",
      "outputs": [],
      "payable": false,
      "stateMutability": "nonpayable",
      "type": "function"
    },
    {
      "constant": false,
      "inputs": [
        {
          "internalType": "address",
          "name": "candidate",
          "type": "address"
        },
        {
          "internalType": "uint256",
          "name": "amount",
          "type": "uint256"
        },
        {
          "internalType": "string",
          "name": "reason",
          "type": "string"
        }
      ],
      "name": "decrementApproveForE",
      "outputs": [],
      "payable": false,
      "stateMutability": "nonpayable",
      "type": "function"
    },
    {
      "constant": false,
      "inputs": [
        {
          "internalType": "address",
          "name": "account",
          "type": "address"
        },
        {
          "internalType": "uint256",
          "name": "epoch",
          "type": "uint256"
        },
        {
          "internalType": "uint256",
          "name": "amount",
          "type": "uint256"
        },
        {
          "internalType": "string",
          "name": "reason",
          "type": "string"
        }
      ],
      "name": "decrementBalanceOfCouponsE",
      "outputs": [],
      "payable": false,
      "stateMutability": "nonpayable",
      "type": "function"
    },
    {
      "constant": false,
      "inputs": [
        {
          "internalType": "address",
          "name": "account",
          "type": "address"
        },
        {
          "internalType": "uint256",
          "name": "amount",
          "type": "uint256"
        },
        {
          "internalType": "string",
          "name": "reason",
          "type": "string"
        }
      ],
      "name": "decrementBalanceOfE",
      "outputs": [],
      "payable": false,
      "stateMutability": "nonpayable",
      "type": "function"
    },
    {
      "constant": false,
      "inputs": [
        {
          "internalType": "address",
          "name": "account",
          "type": "address"
        },
        {
          "internalType": "uint256",
          "name": "amount",
          "type": "uint256"
        },
        {
          "internalType": "string",
          "name": "reason",
          "type": "string"
        }
      ],
      "name": "decrementBalanceOfStagedE",
      "outputs": [],
      "payable": false,
      "stateMutability": "nonpayable",
      "type": "function"
    },
    {
      "constant": false,
      "inputs": [
        {
          "internalType": "address",
          "name": "candidate",
          "type": "address"
        },
        {
          "internalType": "uint256",
          "name": "amount",
          "type": "uint256"
        },
        {
          "internalType": "string",
          "name": "reason",
          "type": "string"
        }
      ],
      "name": "decrementRejectForE",
      "outputs": [],
      "payable": false,
      "stateMutability": "nonpayable",
      "type": "function"
    },
    {
      "constant": false,
      "inputs": [
        {
          "internalType": "uint256",
          "name": "amount",
          "type": "uint256"
        },
        {
          "internalType": "string",
          "name": "reason",
          "type": "string"
        }
      ],
      "name": "decrementTotalBondedE",
      "outputs": [],
      "payable": false,
      "stateMutability": "nonpayable",
      "type": "function"
    },
    {
      "constant": false,
      "inputs": [
        {
          "internalType": "uint256",
          "name": "amount",
          "type": "uint256"
        },
        {
          "internalType": "string",
          "name": "reason",
          "type": "string"
        }
      ],
      "name": "decrementTotalDebtE",
      "outputs": [],
      "payable": false,
      "stateMutability": "nonpayable",
      "type": "function"
    },
    {
      "constant": false,
      "inputs": [
        {
          "internalType": "uint256",
          "name": "amount",
          "type": "uint256"
        },
        {
          "internalType": "string",
          "name": "reason",
          "type": "string"
        }
      ],
      "name": "decrementTotalRedeemableE",
      "outputs": [],
      "payable": false,
      "stateMutability": "nonpayable",
      "type": "function"
    },
    {
      "constant": true,
      "inputs": [],
      "name": "dollar",
      "outputs": [
        {
          "internalType": "contract IDollar",
          "name": "",
          "type": "address"
        }
      ],
      "payable": false,
      "stateMutability": "view",
      "type": "function"
    },
    {
      "constant": false,
      "inputs": [
        {
          "internalType": "uint256",
          "name": "epoch",
          "type": "uint256"
        }
      ],
      "name": "eliminateOutstandingCouponsE",
      "outputs": [],
      "payable": false,
      "stateMutability": "nonpayable",
      "type": "function"
    },
    {
      "constant": true,
      "inputs": [],
      "name": "epoch",
      "outputs": [
        {
          "internalType": "uint256",
          "name": "",
          "type": "uint256"
        }
      ],
      "payable": false,
      "stateMutability": "view",
      "type": "function"
    },
    {
      "constant": true,
      "inputs": [],
      "name": "epochTime",
      "outputs": [
        {
          "internalType": "uint256",
          "name": "",
          "type": "uint256"
        }
      ],
      "payable": false,
      "stateMutability": "view",
      "type": "function"
    },
    {
      "constant": true,
      "inputs": [
        {
          "internalType": "uint256",
          "name": "epoch",
          "type": "uint256"
        }
      ],
      "name": "expiringCoupons",
      "outputs": [
        {
          "internalType": "uint256",
          "name": "",
          "type": "uint256"
        }
      ],
      "payable": false,
      "stateMutability": "view",
      "type": "function"
    },
    {
      "constant": true,
      "inputs": [
        {
          "internalType": "uint256",
          "name": "epoch",
          "type": "uint256"
        },
        {
          "internalType": "uint256",
          "name": "i",
          "type": "uint256"
        }
      ],
      "name": "expiringCouponsAtIndex",
      "outputs": [
        {
          "internalType": "uint256",
          "name": "",
          "type": "uint256"
        }
      ],
      "payable": false,
      "stateMutability": "view",
      "type": "function"
    },
    {
      "constant": true,
      "inputs": [
        {
          "internalType": "address",
          "name": "account",
          "type": "address"
        }
      ],
      "name": "fluidUntil",
      "outputs": [
        {
          "internalType": "uint256",
          "name": "",
          "type": "uint256"
        }
      ],
      "payable": false,
      "stateMutability": "view",
      "type": "function"
    },
    {
      "constant": true,
      "inputs": [
        {
          "internalType": "uint256",
          "name": "epoch",
          "type": "uint256"
        }
      ],
      "name": "getAvgExpiryFilled",
      "outputs": [
        {
          "internalType": "uint256",
          "name": "",
          "type": "uint256"
        }
      ],
      "payable": false,
      "stateMutability": "view",
      "type": "function"
    },
    {
      "constant": true,
      "inputs": [
        {
          "internalType": "uint256",
          "name": "epoch",
          "type": "uint256"
        }
      ],
      "name": "getAvgYieldFilled",
      "outputs": [
        {
          "internalType": "uint256",
          "name": "",
          "type": "uint256"
        }
      ],
      "payable": false,
      "stateMutability": "view",
      "type": "function"
    },
    {
      "constant": true,
      "inputs": [
        {
          "internalType": "uint256",
          "name": "epoch",
          "type": "uint256"
        }
      ],
      "name": "getBidToCover",
      "outputs": [
        {
          "internalType": "uint256",
          "name": "",
          "type": "uint256"
        }
      ],
      "payable": false,
      "stateMutability": "view",
      "type": "function"
    },
    {
      "constant": true,
      "inputs": [],
      "name": "getLatestDeadAuctionEpoch",
      "outputs": [
        {
          "internalType": "uint256",
          "name": "",
          "type": "uint256"
        }
      ],
      "payable": false,
      "stateMutability": "view",
      "type": "function"
    },
    {
      "constant": true,
      "inputs": [
        {
          "internalType": "uint256",
          "name": "epoch",
          "type": "uint256"
        }
      ],
      "name": "getMaxExpiryFilled",
      "outputs": [
        {
          "internalType": "uint256",
          "name": "",
          "type": "uint256"
        }
      ],
      "payable": false,
      "stateMutability": "view",
      "type": "function"
    },
    {
      "constant": true,
      "inputs": [
        {
          "internalType": "uint256",
          "name": "epoch",
          "type": "uint256"
        }
      ],
      "name": "getMaxYieldFilled",
      "outputs": [
        {
          "internalType": "uint256",
          "name": "",
          "type": "uint256"
        }
      ],
      "payable": false,
      "stateMutability": "view",
      "type": "function"
    },
    {
      "constant": true,
      "inputs": [
        {
          "internalType": "uint256",
          "name": "epoch",
          "type": "uint256"
        }
      ],
      "name": "getMinExpiryFilled",
      "outputs": [
        {
          "internalType": "uint256",
          "name": "",
          "type": "uint256"
        }
      ],
      "payable": false,
      "stateMutability": "view",
      "type": "function"
    },
    {
      "constant": true,
      "inputs": [
        {
          "internalType": "uint256",
          "name": "epoch",
          "type": "uint256"
        }
      ],
      "name": "getMinYieldFilled",
      "outputs": [
        {
          "internalType": "uint256",
          "name": "",
          "type": "uint256"
        }
      ],
      "payable": false,
      "stateMutability": "view",
      "type": "function"
    },
    {
      "constant": true,
      "inputs": [
        {
          "internalType": "uint256",
          "name": "epoch",
          "type": "uint256"
        }
      ],
      "name": "getTotalAuctioned",
      "outputs": [
        {
          "internalType": "uint256",
          "name": "",
          "type": "uint256"
        }
      ],
      "payable": false,
      "stateMutability": "view",
      "type": "function"
    },
    {
      "constant": true,
      "inputs": [
        {
          "internalType": "uint256",
          "name": "epoch",
          "type": "uint256"
        }
      ],
      "name": "getTotalBurned",
      "outputs": [
        {
          "internalType": "uint256",
          "name": "",
          "type": "uint256"
        }
      ],
      "payable": false,
      "stateMutability": "view",
      "type": "function"
    },
    {
      "constant": true,
      "inputs": [
        {
          "internalType": "uint256",
          "name": "epoch",
          "type": "uint256"
        }
      ],
      "name": "getTotalFilled",
      "outputs": [
        {
          "internalType": "uint256",
          "name": "",
          "type": "uint256"
        }
      ],
      "payable": false,
      "stateMutability": "view",
      "type": "function"
    },
    {
      "constant": true,
      "inputs": [],
      "name": "implementation",
      "outputs": [
        {
          "internalType": "address",
          "name": "impl",
          "type": "address"
        }
      ],
      "payable": false,
      "stateMutability": "view",
      "type": "function"
    },
    {
      "constant": false,
      "inputs": [
        {
          "internalType": "uint256",
          "name": "amount",
          "type": "uint256"
        }
      ],
      "name": "increaseDebtE",
      "outputs": [],
      "payable": false,
      "stateMutability": "nonpayable",
      "type": "function"
    },
    {
      "constant": false,
      "inputs": [
        {
          "internalType": "address",
          "name": "candidate",
          "type": "address"
        },
        {
          "internalType": "uint256",
          "name": "amount",
          "type": "uint256"
        }
      ],
      "name": "incrementApproveForE",
      "outputs": [],
      "payable": false,
      "stateMutability": "nonpayable",
      "type": "function"
    },
    {
      "constant": false,
      "inputs": [
        {
          "internalType": "address",
          "name": "account",
          "type": "address"
        },
        {
          "internalType": "uint256",
          "name": "epoch",
          "type": "uint256"
        },
        {
          "internalType": "uint256",
          "name": "amount",
          "type": "uint256"
        }
      ],
      "name": "incrementBalanceOfCouponsE",
      "outputs": [],
      "payable": false,
      "stateMutability": "nonpayable",
      "type": "function"
    },
    {
      "constant": false,
      "inputs": [
        {
          "internalType": "address",
          "name": "account",
          "type": "address"
        },
        {
          "internalType": "uint256",
          "name": "amount",
          "type": "uint256"
        }
      ],
      "name": "incrementBalanceOfE",
      "outputs": [],
      "payable": false,
      "stateMutability": "nonpayable",
      "type": "function"
    },
    {
      "constant": false,
      "inputs": [
        {
          "internalType": "address",
          "name": "account",
          "type": "address"
        },
        {
          "internalType": "uint256",
          "name": "amount",
          "type": "uint256"
        }
      ],
      "name": "incrementBalanceOfStagedE",
      "outputs": [],
      "payable": false,
      "stateMutability": "nonpayable",
      "type": "function"
    },
    {
      "constant": false,
      "inputs": [],
      "name": "incrementEpochE",
      "outputs": [],
      "payable": false,
      "stateMutability": "nonpayable",
      "type": "function"
    },
    {
      "constant": false,
      "inputs": [
        {
          "internalType": "address",
          "name": "candidate",
          "type": "address"
        },
        {
          "internalType": "uint256",
          "name": "amount",
          "type": "uint256"
        }
      ],
      "name": "incrementRejectForE",
      "outputs": [],
      "payable": false,
      "stateMutability": "nonpayable",
      "type": "function"
    },
    {
      "constant": false,
      "inputs": [
        {
          "internalType": "uint256",
          "name": "amount",
          "type": "uint256"
        }
      ],
      "name": "incrementTotalBondedE",
      "outputs": [],
      "payable": false,
      "stateMutability": "nonpayable",
      "type": "function"
    },
    {
      "constant": false,
      "inputs": [
        {
          "internalType": "uint256",
          "name": "amount",
          "type": "uint256"
        }
      ],
      "name": "incrementTotalDebtE",
      "outputs": [],
      "payable": false,
      "stateMutability": "nonpayable",
      "type": "function"
    },
    {
      "constant": false,
      "inputs": [
        {
          "internalType": "uint256",
          "name": "amount",
          "type": "uint256"
        }
      ],
      "name": "incrementTotalRedeemableE",
      "outputs": [],
      "payable": false,
      "stateMutability": "nonpayable",
      "type": "function"
    },
    {
      "constant": false,
      "inputs": [
        {
          "internalType": "uint256",
          "name": "epoch",
          "type": "uint256"
        },
        {
          "internalType": "uint256",
          "name": "expiration",
          "type": "uint256"
        }
      ],
      "name": "initializeCouponsExpirationE",
      "outputs": [],
      "payable": false,
      "stateMutability": "nonpayable",
      "type": "function"
    },
    {
      "constant": false,
      "inputs": [
        {
          "internalType": "address",
          "name": "candidate",
          "type": "address"
        }
      ],
      "name": "initializedE",
      "outputs": [],
      "payable": false,
      "stateMutability": "nonpayable",
      "type": "function"
    },
    {
      "constant": false,
      "inputs": [
        {
          "internalType": "uint256",
          "name": "epoch",
          "type": "uint256"
        }
      ],
      "name": "isCouponAuctionInitAtEpochE",
      "outputs": [
        {
          "internalType": "bool",
          "name": "",
          "type": "bool"
        }
      ],
      "payable": false,
      "stateMutability": "nonpayable",
      "type": "function"
    },
    {
      "constant": true,
      "inputs": [
        {
          "internalType": "address",
          "name": "candidate",
          "type": "address"
        }
      ],
      "name": "isInitialized",
      "outputs": [
        {
          "internalType": "bool",
          "name": "",
          "type": "bool"
        }
      ],
      "payable": false,
      "stateMutability": "view",
      "type": "function"
    },
    {
      "constant": true,
      "inputs": [
        {
          "internalType": "address",
          "name": "candidate",
          "type": "address"
        }
      ],
      "name": "isNominated",
      "outputs": [
        {
          "internalType": "bool",
          "name": "",
          "type": "bool"
        }
      ],
      "payable": false,
      "stateMutability": "view",
      "type": "function"
    },
    {
      "constant": true,
      "inputs": [
        {
          "internalType": "address",
          "name": "account",
          "type": "address"
        }
      ],
      "name": "lockedUntil",
      "outputs": [
        {
          "internalType": "uint256",
          "name": "",
          "type": "uint256"
        }
      ],
      "payable": false,
      "stateMutability": "view",
      "type": "function"
    },
    {
      "constant": false,
      "inputs": [
        {
          "internalType": "address",
          "name": "account",
          "type": "address"
        },
        {
          "internalType": "uint256",
          "name": "amount",
          "type": "uint256"
        }
      ],
      "name": "mintToAccountE",
      "outputs": [],
      "payable": false,
      "stateMutability": "nonpayable",
      "type": "function"
    },
    {
      "constant": false,
      "inputs": [
        {
          "internalType": "address",
          "name": "account",
          "type": "address"
        },
        {
          "internalType": "uint256",
          "name": "amount",
          "type": "uint256"
        }
      ],
      "name": "mintToE",
      "outputs": [],
      "payable": false,
      "stateMutability": "nonpayable",
      "type": "function"
    },
    {
      "constant": true,
      "inputs": [],
      "name": "name",
      "outputs": [
        {
          "internalType": "string",
          "name": "",
          "type": "string"
        }
      ],
      "payable": false,
      "stateMutability": "view",
      "type": "function"
    },
    {
      "constant": true,
      "inputs": [],
      "name": "oracle",
      "outputs": [
        {
          "internalType": "contract IOracle",
          "name": "",
          "type": "address"
        }
      ],
      "payable": false,
      "stateMutability": "view",
      "type": "function"
    },
    {
      "constant": true,
      "inputs": [
        {
          "internalType": "uint256",
          "name": "epoch",
          "type": "uint256"
        }
      ],
      "name": "outstandingCoupons",
      "outputs": [
        {
          "internalType": "uint256",
          "name": "",
          "type": "uint256"
        }
      ],
      "payable": false,
      "stateMutability": "view",
      "type": "function"
    },
    {
      "constant": true,
      "inputs": [
        {
          "internalType": "address",
          "name": "candidate",
          "type": "address"
        }
      ],
      "name": "periodFor",
      "outputs": [
        {
          "internalType": "uint256",
          "name": "",
          "type": "uint256"
        }
      ],
      "payable": false,
      "stateMutability": "view",
      "type": "function"
    },
    {
      "constant": false,
      "inputs": [
        {
          "internalType": "address",
          "name": "account",
          "type": "address"
        },
        {
          "internalType": "address",
          "name": "candidate",
          "type": "address"
        }
      ],
      "name": "placeLockE",
      "outputs": [],
      "payable": false,
      "stateMutability": "nonpayable",
      "type": "function"
    },
    {
      "constant": true,
      "inputs": [],
      "name": "pool",
      "outputs": [
        {
          "internalType": "address",
          "name": "",
          "type": "address"
        }
      ],
      "payable": false,
      "stateMutability": "view",
      "type": "function"
    },
    {
      "constant": false,
      "inputs": [
        {
          "internalType": "address",
          "name": "account",
          "type": "address"
        },
        {
          "internalType": "address",
          "name": "candidate",
          "type": "address"
        },
        {
          "internalType": "enum Candidate.Vote",
          "name": "vote",
          "type": "uint8"
        }
      ],
      "name": "recordVoteE",
      "outputs": [],
      "payable": false,
      "stateMutability": "nonpayable",
      "type": "function"
    },
    {
      "constant": true,
      "inputs": [
        {
          "internalType": "address",
          "name": "account",
          "type": "address"
        },
        {
          "internalType": "address",
          "name": "candidate",
          "type": "address"
        }
      ],
      "name": "recordedVote",
      "outputs": [
        {
          "internalType": "enum Candidate.Vote",
          "name": "",
          "type": "uint8"
        }
      ],
      "payable": false,
      "stateMutability": "view",
      "type": "function"
    },
    {
      "constant": false,
      "inputs": [
        {
          "internalType": "address",
          "name": "account",
          "type": "address"
        },
        {
          "internalType": "uint256",
          "name": "amount",
          "type": "uint256"
        }
      ],
      "name": "redeemToAccountE",
      "outputs": [],
      "payable": false,
      "stateMutability": "nonpayable",
      "type": "function"
    },
    {
      "constant": true,
      "inputs": [
        {
          "internalType": "address",
          "name": "candidate",
          "type": "address"
        }
      ],
      "name": "rejectFor",
      "outputs": [
        {
          "internalType": "uint256",
          "name": "",
          "type": "uint256"
        }
      ],
      "payable": false,
      "stateMutability": "view",
      "type": "function"
    },
    {
      "constant": false,
      "inputs": [
        {
          "internalType": "uint256",
          "name": "percent",
          "type": "uint256"
        }
      ],
      "name": "resetDebtE",
      "outputs": [],
      "payable": false,
      "stateMutability": "nonpayable",
      "type": "function"
    },
    {
      "constant": false,
      "inputs": [
        {
          "internalType": "uint256",
          "name": "timestamp",
          "type": "uint256"
        }
      ],
      "name": "setBlockTimestamp",
      "outputs": [],
      "payable": false,
      "stateMutability": "nonpayable",
      "type": "function"
    },
    {
      "constant": false,
      "inputs": [
        {
          "internalType": "uint256",
          "name": "start",
          "type": "uint256"
        },
        {
          "internalType": "uint256",
          "name": "period",
          "type": "uint256"
        }
      ],
      "name": "setEpochParamsE",
      "outputs": [],
      "payable": false,
      "stateMutability": "nonpayable",
      "type": "function"
    },
    {
      "constant": false,
      "inputs": [],
      "name": "snapshotTotalBondedE",
      "outputs": [],
      "payable": false,
      "stateMutability": "nonpayable",
      "type": "function"
    },
    {
      "constant": true,
      "inputs": [
        {
          "internalType": "address",
          "name": "candidate",
          "type": "address"
        }
      ],
      "name": "startFor",
      "outputs": [
        {
          "internalType": "uint256",
          "name": "",
          "type": "uint256"
        }
      ],
      "payable": false,
      "stateMutability": "view",
      "type": "function"
    },
    {
      "constant": true,
      "inputs": [
        {
          "internalType": "address",
          "name": "account",
          "type": "address"
        }
      ],
      "name": "statusOf",
      "outputs": [
        {
          "internalType": "enum Account.Status",
          "name": "",
          "type": "uint8"
        }
      ],
      "payable": false,
      "stateMutability": "view",
      "type": "function"
    },
    {
      "constant": true,
      "inputs": [],
      "name": "symbol",
      "outputs": [
        {
          "internalType": "string",
          "name": "",
          "type": "string"
        }
      ],
      "payable": false,
      "stateMutability": "view",
      "type": "function"
    },
    {
      "constant": true,
      "inputs": [],
      "name": "totalBonded",
      "outputs": [
        {
          "internalType": "uint256",
          "name": "",
          "type": "uint256"
        }
      ],
      "payable": false,
      "stateMutability": "view",
      "type": "function"
    },
    {
      "constant": true,
      "inputs": [
        {
          "internalType": "uint256",
          "name": "epoch",
          "type": "uint256"
        }
      ],
      "name": "totalBondedAt",
      "outputs": [
        {
          "internalType": "uint256",
          "name": "",
          "type": "uint256"
        }
      ],
      "payable": false,
      "stateMutability": "view",
      "type": "function"
    },
    {
      "constant": true,
      "inputs": [],
      "name": "totalCoupons",
      "outputs": [
        {
          "internalType": "uint256",
          "name": "",
          "type": "uint256"
        }
      ],
      "payable": false,
      "stateMutability": "view",
      "type": "function"
    },
    {
      "constant": true,
      "inputs": [],
      "name": "totalDebt",
      "outputs": [
        {
          "internalType": "uint256",
          "name": "",
          "type": "uint256"
        }
      ],
      "payable": false,
      "stateMutability": "view",
      "type": "function"
    },
    {
      "constant": true,
      "inputs": [],
      "name": "totalNet",
      "outputs": [
        {
          "internalType": "uint256",
          "name": "",
          "type": "uint256"
        }
      ],
      "payable": false,
      "stateMutability": "view",
      "type": "function"
    },
    {
      "constant": true,
      "inputs": [],
      "name": "totalRedeemable",
      "outputs": [
        {
          "internalType": "uint256",
          "name": "",
          "type": "uint256"
        }
      ],
      "payable": false,
      "stateMutability": "view",
      "type": "function"
    },
    {
      "constant": true,
      "inputs": [],
      "name": "totalStaged",
      "outputs": [
        {
          "internalType": "uint256",
          "name": "",
          "type": "uint256"
        }
      ],
      "payable": false,
      "stateMutability": "view",
      "type": "function"
    },
    {
      "constant": true,
      "inputs": [],
      "name": "totalSupply",
      "outputs": [
        {
          "internalType": "uint256",
          "name": "",
          "type": "uint256"
        }
      ],
      "payable": false,
      "stateMutability": "view",
      "type": "function"
    },
    {
      "constant": false,
      "inputs": [
        {
          "internalType": "address",
          "name": "recipient",
          "type": "address"
        },
        {
          "internalType": "uint256",
          "name": "amount",
          "type": "uint256"
        }
      ],
      "name": "transfer",
      "outputs": [
        {
          "internalType": "bool",
          "name": "",
          "type": "bool"
        }
      ],
      "payable": false,
      "stateMutability": "nonpayable",
      "type": "function"
    },
    {
      "constant": false,
      "inputs": [
        {
          "internalType": "address",
          "name": "sender",
          "type": "address"
        },
        {
          "internalType": "address",
          "name": "recipient",
          "type": "address"
        },
        {
          "internalType": "uint256",
          "name": "amount",
          "type": "uint256"
        }
      ],
      "name": "transferFrom",
      "outputs": [
        {
          "internalType": "bool",
          "name": "",
          "type": "bool"
        }
      ],
      "payable": false,
      "stateMutability": "nonpayable",
      "type": "function"
    },
    {
      "constant": false,
      "inputs": [
        {
          "internalType": "address",
          "name": "account",
          "type": "address"
        }
      ],
      "name": "unfreezeE",
      "outputs": [],
      "payable": false,
      "stateMutability": "nonpayable",
      "type": "function"
    },
    {
      "constant": false,
      "inputs": [
        {
          "internalType": "address",
          "name": "owner",
          "type": "address"
        },
        {
          "internalType": "address",
          "name": "spender",
          "type": "address"
        },
        {
          "internalType": "uint256",
          "name": "amount",
          "type": "uint256"
        }
      ],
      "name": "updateAllowanceCouponsE",
      "outputs": [],
      "payable": false,
      "stateMutability": "nonpayable",
      "type": "function"
    },
    {
      "constant": true,
      "inputs": [
        {
          "internalType": "address",
          "name": "candidate",
          "type": "address"
        }
      ],
      "name": "votesFor",
      "outputs": [
        {
          "internalType": "uint256",
          "name": "",
          "type": "uint256"
        }
      ],
      "payable": false,
      "stateMutability": "view",
      "type": "function"
    },
    {
      "constant": false,
      "inputs": [],
      "name": "stepE",
      "outputs": [],
      "payable": false,
      "stateMutability": "nonpayable",
      "type": "function"
    },
    {
      "constant": true,
      "inputs": [
        {
          "internalType": "uint256",
          "name": "epoch",
          "type": "uint256"
        }
      ],
      "name": "bootstrappingAt",
      "outputs": [
        {
          "internalType": "bool",
          "name": "",
          "type": "bool"
        }
      ],
      "payable": false,
      "stateMutability": "view",
      "type": "function"
    },
    {
      "constant": false,
      "inputs": [
        {
          "internalType": "uint256",
          "name": "epoch",
          "type": "uint256"
        }
      ],
      "name": "settleCouponAuctionE",
      "outputs": [],
      "payable": false,
      "stateMutability": "nonpayable",
      "type": "function"
    },
    {
      "constant": false,
      "inputs": [
        {
          "internalType": "uint256",
          "name": "epoch",
          "type": "uint256"
        }
      ],
      "name": "cancelCouponAuctionAtEpochE",
      "outputs": [],
      "payable": false,
      "stateMutability": "nonpayable",
      "type": "function"
    },
    {
      "constant": false,
      "inputs": [
        {
          "internalType": "uint256",
          "name": "epoch",
          "type": "uint256"
        }
      ],
      "name": "finishCouponAuctionAtEpochE",
      "outputs": [],
      "payable": false,
      "stateMutability": "nonpayable",
      "type": "function"
    },
    {
      "constant": false,
      "inputs": [],
      "name": "initCouponAuctionE",
      "outputs": [],
      "payable": false,
      "stateMutability": "nonpayable",
      "type": "function"
    },
    {
      "constant": false,
      "inputs": [
        {
          "internalType": "uint256",
          "name": "epoch",
          "type": "uint256"
        }
      ],
      "name": "getCouponAuctionBidsE",
      "outputs": [
        {
          "internalType": "uint256",
          "name": "",
          "type": "uint256"
        }
      ],
      "payable": false,
      "stateMutability": "nonpayable",
      "type": "function"
    },
    {
      "constant": false,
      "inputs": [
        {
          "internalType": "uint256",
          "name": "epoch",
          "type": "uint256"
        }
      ],
      "name": "getCouponAuctionMinExpiryE",
      "outputs": [
        {
          "internalType": "uint256",
          "name": "",
          "type": "uint256"
        }
      ],
      "payable": false,
      "stateMutability": "nonpayable",
      "type": "function"
    },
    {
      "constant": false,
      "inputs": [
        {
          "internalType": "uint256",
          "name": "epoch",
          "type": "uint256"
        }
      ],
      "name": "getCouponAuctionMaxExpiryE",
      "outputs": [
        {
          "internalType": "uint256",
          "name": "",
          "type": "uint256"
        }
      ],
      "payable": false,
      "stateMutability": "nonpayable",
      "type": "function"
    },
    {
      "constant": false,
      "inputs": [
        {
          "internalType": "uint256",
          "name": "epoch",
          "type": "uint256"
        }
      ],
      "name": "getCouponAuctionMinYieldE",
      "outputs": [
        {
          "internalType": "uint256",
          "name": "",
          "type": "uint256"
        }
      ],
      "payable": false,
      "stateMutability": "nonpayable",
      "type": "function"
    },
    {
      "constant": false,
      "inputs": [
        {
          "internalType": "uint256",
          "name": "epoch",
          "type": "uint256"
        }
      ],
      "name": "getCouponAuctionMaxYieldE",
      "outputs": [
        {
          "internalType": "uint256",
          "name": "",
          "type": "uint256"
        }
      ],
      "payable": false,
      "stateMutability": "nonpayable",
      "type": "function"
    },
    {
      "constant": false,
      "inputs": [
        {
          "internalType": "uint256",
          "name": "epoch",
          "type": "uint256"
        }
      ],
      "name": "getCouponAuctionMinDollarAmountE",
      "outputs": [
        {
          "internalType": "uint256",
          "name": "",
          "type": "uint256"
        }
      ],
      "payable": false,
      "stateMutability": "nonpayable",
      "type": "function"
    },
    {
      "constant": false,
      "inputs": [
        {
          "internalType": "uint256",
          "name": "epoch",
          "type": "uint256"
        }
      ],
      "name": "getCouponAuctionMaxDollarAmountE",
      "outputs": [
        {
          "internalType": "uint256",
          "name": "",
          "type": "uint256"
        }
      ],
      "payable": false,
      "stateMutability": "nonpayable",
      "type": "function"
    },
    {
      "constant": false,
      "inputs": [
        {
          "internalType": "uint256",
          "name": "couponEpochExpiry",
          "type": "uint256"
        },
        {
          "internalType": "uint256",
          "name": "dollarAmount",
          "type": "uint256"
        },
        {
          "internalType": "uint256",
          "name": "maxCouponAmount",
          "type": "uint256"
        }
      ],
      "name": "placeCouponAuctionBid",
      "outputs": [
        {
          "internalType": "bool",
          "name": "",
          "type": "bool"
        }
      ],
      "payable": false,
      "stateMutability": "nonpayable",
      "type": "function"
    }
  ],
  "bytecode": "0x6080604052600060125560006013556001601455600160155560016016556000601755600060185560006019556000601a55600019601b556200004c6200010d60201b62003a191760201c565b51601c55604080516020810190915260001990819052601d553480156200007257600080fd5b5060405162006fd538038062006fd583398101604081905262000095916200015e565b426010556040518190620000a9906200012a565b604051809103906000f080158015620000c6573d6000803e3d6000fd5b50600a80546001600160a01b03199081166001600160a01b0393841617909155600c8054821693831693909317909255600b805490921693169290921790915550620001c9565b6200011762000138565b5060408051602081019091526000815290565b611c0680620053cf83390190565b6040518060200160405280600081525090565b80516200015881620001af565b92915050565b600080604083850312156200017257600080fd5b60006200018085856200014b565b925050602062000193858286016200014b565b9150509250929050565b60006001600160a01b03821662000158565b620001ba816200019d565b8114620001c657600080fd5b50565b6151f680620001d96000396000f3fe608060405234801561001057600080fd5b50600436106106085760003560e01c80637dc0d1d01161031b578063b32a2f90116101a8578063d60b347f116100f4578063e0abdf66116100ad578063f35adf7e11610087578063f35adf7e14610cf6578063f7a3181814610cfe578063fc7b9c1814610d11578063ffbe3b7314610d1957610608565b8063e0abdf6614610cbd578063eeaca09b14610cd0578063f1b7cf4914610ce357610608565b8063d60b347f14610c50578063d6d8816d14610c63578063d83d3ed514610c76578063dca5386b14610c89578063dd62ed3e14610c9c578063dde74dc314610caa57610608565b8063c45a3e0a11610161578063cb0fbc711161013b578063cb0fbc7114610c0f578063cc8d823c14610c22578063cf02377914610c35578063d53c6f5f14610c3d57610608565b8063c45a3e0a14610bd6578063c72e4e3214610be9578063c9aff70c14610bfc57610608565b8063b32a2f9014610b6f578063bad9206c14610b82578063bc7513e214610b8a578063c1410c0214610b9d578063c2aeb5fe14610bb0578063c34eee6514610bc357610608565b80639be4649311610267578063a6f37b5311610220578063adbff2be116101fa578063adbff2be14610b23578063ae5c238114610b36578063b11ee0e314610b49578063b16144a314610b5c57610608565b8063a6f37b5314610afd578063a9059cbb1461064b578063a9b3cf1514610b1057610608565b80639be4649314610a965780639f1a092914610aa95780639f6e1b2614610abc578063a00e14d114610acf578063a50cd8e714610ae2578063a6c409f114610af557610608565b80638e825388116102d457806397a5d5b5116102ae57806397a5d5b514610a555780639a649edc14610a685780639b82b49b14610a705780639bc289f114610a8357610608565b80638e82538814610a3d578063900cf0cf14610a4557806395d89b4114610a4d57610608565b80637dc0d1d0146109d657806381a79414146109de578063825ad607146109f15780638413e52a14610a0457806386cf9f1414610a175780638de2e57314610a2a57610608565b80633fbba9a6116104995780635dbf800a116103e557806370a082311161039e57806375d5024b1161037857806375d5024b1461098a57806379066f2c1461099d5780637cb95a32146109b05780637d8bb869146109c357610608565b806370a082311461095c57806371c511eb1461096f57806372924d2a1461097757610608565b80635dbf800a146108ea5780635f14fec8146108fd57806364668022146109105780636a39e328146109235780636b862d66146109365780636f68b27b1461094957610608565b80634c7360991161045257806351adeb571161042c57806351adeb57146108a757806351bf21d8146108bc578063520acb76146108cf5780635c60da1b146108e257610608565b80634c736099146108795780634d64e4031461088c5780635053e4611461089f57610608565b80633fbba9a6146108105780633fd4973c14610830578063416a23cc14610843578063438735261461084b57806344d96e951461085e5780634ad690d71461086657610608565b806320f6bc90116105585780632d7f23b311610511578063353a420c116104eb578063353a420c146107c45780633a3e6c81146107d75780633dc905c7146107ea5780633f7bcaf3146107fd57610608565b80632d7f23b314610789578063313ce5671461079c57806332347422146107b157610608565b806320f6bc901461071757806323b872dd1461072a57806324772c041461073d578063259f7adf14610750578063277805a9146107635780632c97e9d51461077657610608565b806315e14bf6116105c557806318160ddd1161059f57806318160ddd146106e15780631a08e22a146106e95780631edbcf6c146106fc5780631fac97321461070457610608565b806315e14bf6146106a6578063169f6853146106b957806316f0115b146106cc57610608565b80630308bc981461060d57806306fdde0314610636578063095ea7b31461064b5780630dc6d3a31461066b57806310e95b6c146106805780631550ec2414610693575b600080fd5b61062061061b366004614d0c565b610d2c565b60405161062d919061500c565b60405180910390f35b61063e610d3f565b60405161062d9190614fdb565b61065e610659366004614bbf565b610d77565b60405161062d9190614fb1565b61067e610679366004614b41565b610d80565b005b61062061068e366004614d0c565b610dc9565b61065e6106a1366004614d0c565b610dde565b6106206106b4366004614a59565b610df8565b6106206106c7366004614d0c565b610e16565b6106d4610e21565b60405161062d9190614f60565b610620610e30565b61067e6106f7366004614d9e565b610e36565b610620610e44565b61067e610712366004614d0c565b610e4a565b61067e610725366004614bbf565b610e56565b61065e610738366004614afe565b610e60565b61065e61074b366004614dbd565b610e6a565b61067e61075e366004614d0c565b61102f565b61067e610771366004614bbf565b611038565b61067e610784366004614d0c565b6110c4565b610620610797366004614d0c565b6110cd565b6107a46110e2565b60405161062d919061505d565b61067e6107bf366004614d48565b6110e7565b6106206107d2366004614a59565b611127565b61065e6107e5366004614a59565b611145565b6106206107f8366004614d0c565b611162565b61067e61080b366004614afe565b611178565b61082361081e366004614a77565b611183565b60405161062d9190614fcd565b61067e61083e366004614bef565b6111b6565b61067e6111fd565b61067e610859366004614d0c565b611207565b610620611210565b610620610874366004614d0c565b611216565b610620610887366004614d9e565b611221565b61062061089a366004614d0c565b611251565b61062061125c565b6108af61127f565b60405161062d9190614fbf565b6106206108ca366004614a59565b61128e565b6106206108dd366004614d0c565b6112ac565b6106d46112c1565b61067e6108f8366004614d0c565b6112e6565b61067e61090b366004614bbf565b6112ef565b61062061091e366004614a59565b6112f9565b610620610931366004614d0c565b611317565b61067e610944366004614c57565b61132c565b610620610957366004614d0c565b611337565b61062061096a366004614a59565b611342565b61067e611360565b61067e610985366004614d48565b611368565b61065e610998366004614d0c565b6113a8565b61067e6109ab366004614d0c565b6113af565b61067e6109be366004614bef565b6113b8565b6106206109d1366004614d0c565b6113f9565b6108af61140e565b6106206109ec366004614d0c565b61141d565b6106206109ff366004614a59565b611428565b61067e610a12366004614ab1565b611474565b610620610a25366004614a59565b61147f565b61067e610a38366004614d0c565b61149a565b6106206114a3565b6106206114a9565b61063e6114af565b610823610a63366004614a59565b6114cd565b61062061153a565b61067e610a7e366004614d48565b611540565b610620610a91366004614a59565b611580565b61067e610aa4366004614a59565b61159e565b610620610ab7366004614d0c565b6115a7565b610620610aca366004614a77565b6115bc565b61067e610add366004614d9e565b6115eb565b610620610af0366004614a59565b6115f6565b61062061160d565b61067e610b0b366004614a59565b6116a3565b61067e610b1e366004614d0c565b6116ac565b61067e610b31366004614bef565b6116b5565b61067e610b44366004614bbf565b6116f6565b61067e610b57366004614bbf565b611700565b61067e610b6a366004614d0c565b61170a565b61067e610b7d366004614bef565b61171d565b61067e61175e565b610620610b98366004614bbf565b611766565b61067e610bab366004614a77565b6117aa565b61067e610bbe366004614c89565b6117b4565b610620610bd1366004614d0c565b6117f6565b61067e610be4366004614bbf565b61180b565b61067e610bf7366004614d0c565b611815565b610620610c0a366004614d0c565b61181e565b610620610c1d366004614d0c565b611833565b61067e610c30366004614bbf565b611848565b610620611852565b610620610c4b366004614d0c565b611858565b61065e610c5e366004614a59565b61186d565b61067e610c71366004614d0c565b61188e565b61067e610c84366004614bbf565b611897565b610620610c97366004614d0c565b6118a1565b610620610659366004614a77565b610620610cb8366004614d0c565b6118ac565b61067e610ccb366004614d0c565b6118c1565b610620610cde366004614d0c565b6118c6565b610620610cf1366004614a59565b6118db565b61067e6118f6565b61067e610d0c366004614bbf565b6118fe565b610620611908565b610620610d27366004614d0c565b61190e565b6000610d3782611920565b90505b919050565b60408051808201909152601881527f44796e616d69632053657420446f6c6c6172205374616b65000000000000000060208201525b90565b60005b92915050565b610dc285858585858080601f01602080910402602001604051908101604052809392919081815260200183838082843760009201919091525061193592505050565b5050505050565b6000908152600e602052604090206002015490565b6000610de9826119a6565b54610100900460ff1692915050565b6001600160a01b03166000908152600f602052604090206001015490565b6000610d37826119ba565b600c546001600160a01b031690565b60045490565b610e4082826119cf565b5050565b60075490565b610e5381611a01565b50565b610e408282611a48565b60005b9392505050565b6000610eaa600085116c26b7b1b5a932b3bab630ba37b960991b7f4d7573742068617665206e6f6e2d7a65726f2065787069727900000000000000611af0565b610ee8600084116c26b7b1b5a932b3bab630ba37b960991b7f4d75737420626964206e6f6e2d7a65726f20616d6f756e740000000000000000611af0565b610f26600083116c26b7b1b5a932b3bab630ba37b960991b7f4d75737420626964206f6e206e6f6e2d7a65726f20616d6f756e740000000000611af0565b610f5d83610f32611908565b10156c26b7b1b5a932b3bab630ba37b960991b6e139bdd08195b9bdd59da081919589d608a1b611af0565b610fa1610f6a3385611b4e565b6c26b7b1b5a932b3bab630ba37b960991b7f4d757374206861766520656e6f75676820696e206163636f756e740000000000611af0565b6000610fbb85610faf6114a9565b9063ffffffff611be916565b9050610fd5610fd0848663ffffffff611c0e16565b611c50565b610fde84611ce6565b610fe781611d7c565b610ffb610ff26114a9565b33878787611e12565b61101c6110066114a9565b6110166110116114a9565b611920565b33611e6f565b611024611eab565b506001949350505050565b610e5381611ed3565b61104061127f565b6001600160a01b03166340c10f1983836040518363ffffffff1660e01b815260040161106d929190614f96565b602060405180830381600087803b15801561108757600080fd5b505af115801561109b573d6000803e3d6000fd5b505050506040513d601f19601f820116820180604052506110bf9190810190614cbe565b505050565b610e4081611eec565b6000908152600e60205260409020600a015490565b601290565b6110bf8383838080601f01602080910402602001604051908101604052809392919081815260200183838082843760009201919091525061288992505050565b6001600160a01b03166000908152600f602052604090206003015490565b6001600160a01b03166000908152600f6020526040902054151590565b6000908152600e60208190526040909120015490565b6110bf8383836128a4565b6001600160a01b038082166000908152600f60209081526040808320938616835260049093019052205460ff1692915050565b6111f7848484848080601f0160208091040260200160405190810160405280939291908181526020018383808284376000920191909152506128d492505050565b50505050565b611205612925565b565b610e5381612a42565b60055490565b6000610d3782612a56565b6000828152600e6020526040812060030180548390811061123e57fe5b9060005260206000200154905092915050565b6000610d3782612a6b565b60006112666147fd565b61126e612a80565b905061127981612aaf565b91505090565b600a546001600160a01b031690565b6001600160a01b03166000908152600d602052604090206004015490565b6000908152600e602052604090206010015490565b7f360894a13ba1a3210667c828492db98dca3e2076cc3735a920a3ca505d382bbc5490565b610e5381612ad1565b610e408282612b58565b6001600160a01b03166000908152600f602052604090206002015490565b6000908152600e602052604090206003015490565b6110bf838383612c69565b6000610d3782612d10565b6001600160a01b03166000908152600d602052604090206001015490565b611205612d25565b6110bf8383838080601f016020809104026020016040519081016040528093929190818152602001838380828437600092019190915250612d4c92505050565b6005101590565b610e5381612d67565b6111f7848484848080601f016020809104026020016040519081016040528093929190818152602001838380828437600092019190915250612d8b92505050565b6000908152600e602052604090206012015490565b600b546001600160a01b031690565b6000610d3782612ddc565b600080611433610e30565b905080611444576000915050610d3a565b610e638161146861145486611342565b61145c611210565b9063ffffffff612df116565b9063ffffffff611c0e16565b6110bf838383612e2b565b6001600160a01b03166000908152600d602052604090205490565b610e5381612e75565b60035490565b60025490565b6040805180820190915260048152634453445360e01b602082015290565b60006114d76114a9565b6001600160a01b0383166000908152600d6020526040902060050154111561150157506002610d3a565b6001600160a01b0382166000908152600d60205260409020600401546115256114a9565b1015611532576001610d37565b506000919050565b60095490565b6110bf8383838080601f016020809104026020016040519081016040528093929190818152602001838380828437600092019190915250612e8e92505050565b6001600160a01b03166000908152600d602052604090206005015490565b610e5381612ea9565b6000908152600e60205260409020600d015490565b6001600160a01b039182166000908152600d602090815260408083209390941682526003909201909152205490565b600091909155600155565b6000610d3761160483611127565b610faf846112f9565b600061169e61161a611908565b61162261127f565b6001600160a01b03166318160ddd6040518163ffffffff1660e01b815260040160206040518083038186803b15801561165a57600080fd5b505afa15801561166e573d6000803e3d6000fd5b505050506040513d601f19601f820116820180604052506116929190810190614d2a565b9063ffffffff612edb16565b905090565b610e5381612f1d565b610e5381612f44565b6111f7848484848080601f016020809104026020016040519081016040528093929190818152602001838380828437600092019190915250612f8792505050565b610e408282613032565b610e4082826130da565b610e53611718826064613136565b613165565b6111f7848484848080601f01602080910402602001604051908101604052809392919081815260200183838082843760009201919091525061322592505050565b611205613284565b60006117718261181e565b61177d57506000610d7a565b506001600160a01b03919091166000908152600d6020908152604080832093835260029093019052205490565b610e4082826133fb565b610dc285858585858080601f01602080910402602001604051908101604052809392919081815260200183838082843760009201919091525061345b92505050565b6000908152600e602052604090206011015490565b610e408282613506565b610e53816135b0565b6000908152600e602052604090206001015490565b6000908152600e602052604090206013015490565b610e4082826135d2565b60065490565b6000908152600e60205260409020600f015490565b6001600160a01b03166000908152600f602052604090206005015460ff1690565b610e5381613621565b610e40828261363a565b6000610d3782613666565b6000908152600e60205260409020600c015490565b601055565b6000908152600e60205260409020600b015490565b6001600160a01b03166000908152600f602052604090205490565b61120561367b565b610e408282613694565b60085490565b6000908152600e602052604090205490565b6000908152600e602052604090206009015490565b6001600160a01b038085166000908152600d60209081526040808320938716835260039093019052205461197090838363ffffffff6136e316565b6001600160a01b039485166000908152600d60209081526040808320969097168252600390950190945293909220929092555050565b6000908152600e6020526040902060040190565b6000908152600e602052604090206007015490565b6000828152600e6020908152604080832060020184905592825291812060030180546001810182559082529190200155565b611a40816040518060400160405280601c81526020017f436f6d7074726f6c6c65723a206e6f7420656e6f756768206465627400000000815250612d4c565b610e5361370f565b611a5061127f565b6001600160a01b03166340c10f1983836040518363ffffffff1660e01b8152600401611a7d929190614f96565b602060405180830381600087803b158015611a9757600080fd5b505af1158015611aab573d6000803e3d6000fd5b505050506040513d601f19601f82011682018060405250611acf9190810190614cbe565b50611adb6109986114a9565b611ae857611ae881612a42565b610e4061370f565b826110bf57611afe826137e2565b6101d160f51b611b0d836137e2565b604051602001611b1f93929190614f2f565b60408051601f198184030181529082905262461bcd60e51b8252611b4591600401614fdb565b60405180910390fd5b6000611b5d82610faf85611428565b611b6561127f565b6001600160a01b03166370a08231856040518263ffffffff1660e01b8152600401611b909190614f60565b60206040518083038186803b158015611ba857600080fd5b505afa158015611bbc573d6000803e3d6000fd5b505050506040513d601f19601f82011682018060405250611be09190810190614d2a565b10159392505050565b600082820183811015610e635760405162461bcd60e51b8152600401611b4590614fec565b6000610e6383836040518060400160405280601a81526020017f536166654d6174683a206469766973696f6e206279207a65726f000000000000815250613862565b600e6000611c5c6114a9565b815260200190815260200160002060040160040154811115611c9a5780600e6000611c856114a9565b81526020810191909152604001600020600801555b80600e6000611ca76114a9565b8152602001908152602001600020600401600301541115610e535780600e6000611ccf6114a9565b815260208101919091526040016000206007015550565b600e6000611cf26114a9565b815260200190815260200160002060040160110154811115611d305780600e6000611d1b6114a9565b81526020810191909152604001600020601501555b600e6000611d3c6114a9565b815260200190815260200160002060040160100154811015610e535780600e6000611d656114a9565b815260208101919091526040016000206014015550565b600e6000611d886114a9565b815260200190815260200160002060040160020154811115611dc65780600e6000611db16114a9565b81526020810191909152604001600020600601555b600e6000611dd26114a9565b815260200190815260200160002060040160010154811015610e535780600e6000611dfb6114a9565b815260208101919091526040016000206005015550565b6000948552600e602090815260408087206001600160a01b039690961680885260189096019091529094206004810192909255600182015560028101929092558154640100000000600160c01b031916600160201b909102179055565b6000928352600e6020908152604080852093855260169093019052912080546001600160a01b0319166001600160a01b03909216919091179055565b600e6000611eb76114a9565b8152602081019190915260400160002060090180546001019055565b600554611ee6908263ffffffff611be916565b60055550565b6000611ef782613899565b158015611f0a5750611f08826138b8565b155b1561288157611f18826119ba565b611f2183613666565b03601455611f2e82612a56565b611f3783612a6b565b03601555611f4482612d10565b611f4d83612ddc565b0360165560005b611f5d83611920565b81101561229c576000611f7984611f7486856138d6565b613900565b9050611f8361481e565b611fa8611fa0611f9b84600201548560010154613136565b61392b565b601454613136565b9050611fb261481e565b611fc28360040154601554613136565b9050611fcc61481e565b611fdc8460010154601654613136565b9050611fe661481e565b61201582612009611ff5613948565b611ffd613948565b9063ffffffff61396a16565b9063ffffffff61399316565b905061201f61481e565b61203085600263ffffffff6139bc16565b905061203a61481e565b61204b85600263ffffffff6139bc16565b905061205561481e565b61206684600263ffffffff6139bc16565b905061207061481e565b61208482611ffd868663ffffffff61396a16565b905061208e61481e565b6120a6612099613a19565b839063ffffffff613a3416565b156120bb576120b482613a4a565b90506120c6565b6120c3613a19565b90505b6120da8d6120d48f8e6138d6565b83613acc565b6120e88d611f748f8e6138d6565b6011805460018181018355600092909252825460069091027f31ecc21a745e3968a04e9570e4425bc18fa8019c68028196b546d1669c200c688101805460ff938416151560ff1990911617808255855461010090819004851615150261ff00199091161780825585546201000090819004851615150262ff000019909116178082558554630100000090819004909416151590930263ff000000199093169290921780835584546001600160a01b03600160201b918290041602640100000000600160c01b031990911617909155818301547f31ecc21a745e3968a04e9570e4425bc18fa8019c68028196b546d1669c200c6982015560028301547f31ecc21a745e3968a04e9570e4425bc18fa8019c68028196b546d1669c200c6a82015560038301547f31ecc21a745e3968a04e9570e4425bc18fa8019c68028196b546d1669c200c6b82015560048301547f31ecc21a745e3968a04e9570e4425bc18fa8019c68028196b546d1669c200c6c8201556005909201547f31ecc21a745e3968a04e9570e4425bc18fa8019c68028196b546d1669c200c6d909201919091559a909a019950611f5498505050505050505050565b506122a76011613afd565b80546122b591601191614831565b5060005b6011548110156126f657601181815481106122d057fe5b9060005260206000209060060201600101546122ea611908565b106126e957612326836011838154811061230057fe5b6000918252602090912060069091020154600160201b90046001600160a01b0316613bf9565b158015612341575061233f836011838154811061230057fe5b155b156126e45761234e61481e565b6123946011838154811061235e57fe5b9060005260206000209060060201600201546011848154811061237d57fe5b906000526020600020906006020160010154613136565b90506123ef601183815481106123a657fe5b906000526020600020906006020160000160049054906101000a90046001600160a01b0316601184815481106123d857fe5b906000526020600020906006020160010154611b4e565b156126ab576040805160208101909152601d54815261241590829063ffffffff613c2e16565b15612424578051601d55612450565b6040805160208101909152601c54815261244590829063ffffffff613a3416565b15612450578051601c555b601b546011838154811061246057fe5b90600052602060002090600602016004015410156124a2576011828154811061248557fe5b906000526020600020906006020160040154601b819055506124f0565b601854601183815481106124b257fe5b90600052602060002090600602016004015411156124f057601182815481106124d757fe5b9060005260206000209060060201600401546018819055505b6124f98161392b565b601a80549091019055601180548390811061251057fe5b6000918252602090912060046006909202010154601980549091019055601180548390811061253b57fe5b6000918252602090912060026006909202010154601780549091019055601180548390811061256657fe5b60009182526020822060016006909202010154601380549091019055601180546125af91908590811061259557fe5b906000526020600020906006020160040154610faf6114a9565b905061260a601184815481106125c157fe5b906000526020600020906006020160000160049054906101000a90046001600160a01b0316601185815481106125f357fe5b906000526020600020906006020160010154612b58565b6126646011848154811061261a57fe5b906000526020600020906006020160000160049054906101000a90046001600160a01b0316826011868154811061264d57fe5b906000526020600020906006020160020154612c69565b61269c856011858154811061267557fe5b6000918252602090912060069091020154600160201b90046001600160a01b031685613c42565b506012805460010190556126e2565b6126e284601184815481106126bc57fe5b6000918252602090912060069091020154600160201b90046001600160a01b0316613c96565b505b6126ee565b6126f6565b6001016122b9565b50601254156128195761270761481e565b612715601a54601254613136565b905061271f61481e565b61272d601954601254613136565b905061273761481e565b612759606461274d601180549050601254613136565b9063ffffffff613cce16565b905061276785601b54613cf5565b61277385601854613d0a565b612785856127808461392b565b613d1f565b6040805160208101909152601d5481526127a99086906127a49061392b565b613d34565b6040805160208101909152601c5481526127cd9086906127c89061392b565b613d4b565b6127df856127da8561392b565b613d60565b6127f1856127ec8361392b565b613d75565b6127fd85601254613d8a565b61280985601754613d9f565b61281585601354613db4565b5050505b61282560116000614942565b600060128190556013819055600160148190556015819055601655601781905560188190556019819055601a55600019601b55612860613a19565b51601c5550604080516020810190915260001990819052601d556001610d3a565b506000610d3a565b60075461289d90838363ffffffff6136e316565b6007555050565b6001600160a01b039283166000908152600d60209081526040808320949095168252600390930190925291902055565b6001600160a01b0383166000908152600f602052604090206003015461290190838363ffffffff6136e316565b6001600160a01b039093166000908152600f60205260409020600301929092555050565b61292d61481e565b612935613dc9565b9050600061294c60016129466114a9565b036119a6565b9050612959612099613948565b1561299e57612966613e91565b805460ff6101009091041615156001141561298e5761298e60016129886114a9565b036135b0565b61299782613e98565b5050611205565b6129b66129a9613948565b839063ffffffff613c2e16565b15612a0d57805460ff610100909104161515600114156129fc5760006129e560016129df6114a9565b03611eec565b90506129fa60016129f46114a9565b03612d67565b505b612a04613284565b61299782613f87565b612a156114a9565b6040517fff7db5a0dc69b02c191ba632db46961b7d0daa1bd30709ddba9b80ad0a15d2c090600090a25050565b612a4b81612e75565b611a40611718614013565b6000908152600e602052604090206005015490565b6000908152600e602052604090206006015490565b612a886147fd565b604051806060016040528060008152602001635fbef0008152602001611c20815250905090565b6000610d378260000151610faf84604001516114688660200151611692614035565b612ad961127f565b6001600160a01b03166342966c68826040518263ffffffff1660e01b8152600401612b04919061500c565b600060405180830381600087803b158015612b1e57600080fd5b505af1158015612b32573d6000803e3d6000fd5b50505050611a40816040518060600160405280602a815260200161518a602a9139612889565b612b6061127f565b6001600160a01b03166323b872dd8330846040518463ffffffff1660e01b8152600401612b8f93929190614f6e565b602060405180830381600087803b158015612ba957600080fd5b505af1158015612bbd573d6000803e3d6000fd5b505050506040513d601f19601f82011682018060405250612be19190810190614cbe565b50612bea61127f565b6001600160a01b03166342966c68826040518263ffffffff1660e01b8152600401612c15919061500c565b600060405180830381600087803b158015612c2f57600080fd5b505af1158015612c43573d6000803e3d6000fd5b50505050611ae88160405180606001604052806028815260200161516260289139612d4c565b6001600160a01b0383166000908152600d60209081526040808320858452600201909152902054612ca0908263ffffffff611be916565b6001600160a01b0384166000908152600d60209081526040808320868452600201825280832093909355600e90522060010154612ce3908263ffffffff611be916565b6000838152600e6020526040902060010155600954612d08908263ffffffff611be916565b600955505050565b6000908152600e602052604090206014015490565b612d2d610e30565b600e6000612d396114a9565b8152602081019190915260400160002055565b600854612d6090838363ffffffff6136e316565b6008555050565b6000908152600e60205260409020600401805463ff00000019166301000000179055565b6001600160a01b0383166000908152600f6020526040902060020154612db890838363ffffffff6136e316565b6001600160a01b039093166000908152600f60205260409020600201929092555050565b6000908152600e602052604090206015015490565b600082612e0057506000610d7a565b82820282848281612e0d57fe5b0414610e635760405162461bcd60e51b8152600401611b4590614ffc565b6001600160a01b038083166000908152600f6020908152604080832093871683526004909301905220805482919060ff19166001836002811115612e6b57fe5b0217905550505050565b600854612e88908263ffffffff611be916565b60085550565b600554612ea290838363ffffffff6136e316565b6005555050565b612ebc612eb461403b565b610faf6114a9565b6001600160a01b039091166000908152600d6020526040902060040155565b6000610e6383836040518060400160405280601e81526020017f536166654d6174683a207375627472616374696f6e206f766572666c6f7700008152506136e3565b6001600160a01b03166000908152600f60205260409020600501805460ff19166001179055565b6000612f4f8261181e565b905080612f5c5750610e53565b600954612f6f908263ffffffff612edb16565b600955506000908152600e6020526040812060010155565b6001600160a01b0383166000908152600d6020526040902060010154612fb490838363ffffffff6136e316565b6001600160a01b0384166000908152600d6020526040902060010155600454612fe490838363ffffffff6136e316565b6004556040516000906001600160a01b038516907fddf252ad1be2c89b69c2b068fc378daa952ba7f163c4a11628f55a4df523b3ef9061302590869061500c565b60405180910390a3505050565b6001600160a01b0382166000908152600d602052604090206001015461305e908263ffffffff611be916565b6001600160a01b0383166000908152600d602052604090206001015560045461308d908263ffffffff611be916565b6004556040516001600160a01b038316906000907fddf252ad1be2c89b69c2b068fc378daa952ba7f163c4a11628f55a4df523b3ef906130ce90859061500c565b60405180910390a35050565b6001600160a01b0382166000908152600d6020526040902054613103908263ffffffff611be916565b6001600160a01b0383166000908152600d602052604090205560065461312f908263ffffffff611be916565b6006555050565b61313e61481e565b604051806020016040528061315c85670de0b6b3a764000086614040565b90529392505050565b60006131f2611f9b61317561127f565b6001600160a01b03166318160ddd6040518163ffffffff1660e01b815260040160206040518083038186803b1580156131ad57600080fd5b505afa1580156131c1573d6000803e3d6000fd5b505050506040513d601f19601f820116820180604052506131e59190810190614d2a565b849063ffffffff613cce16565b905060006131fe611908565b9050818111156110bf57600061321a828463ffffffff612edb16565b90506111f781611a01565b6001600160a01b0383166000908152600d602052604090205461324f90838363ffffffff6136e316565b6001600160a01b0384166000908152600d602052604090205560065461327c90838363ffffffff6136e316565b600655505050565b600e60006132906114a9565b8152602081019190915260400160002060040154610100900460ff16611205576000600e816132bd6114a9565b8152602001908152602001600020600401600501819055506000196000600e0160006132e76114a9565b81526020810191909152604001600090812060050191909155600e8161330b6114a9565b8152602001908152602001600020600401600201819055506000196000600e0160006133356114a9565b81526020810191909152604001600090812060070191909155600e816133596114a9565b8152602001908152602001600020600401600401819055506000196000600e0160006133836114a9565b81526020810191909152604001600090812060140191909155600e816133a76114a9565b81526020019081526020016000206004016011018190555060016000600e0160006133d06114a9565b8152602081019190915260400160002060040180549115156101000261ff0019909216919091179055565b6001600160a01b0382166000908152600d60205260408120600501549061342d61342484610df8565b610faf856118db565b9050818111156111f7576001600160a01b0384166000908152600d6020526040902060050181905550505050565b6001600160a01b0384166000908152600d6020908152604080832086845260020190915290205461349390838363ffffffff6136e316565b6001600160a01b0385166000908152600d60209081526040808320878452600201825280832093909355600e905220600101546134d790838363ffffffff6136e316565b6000848152600e60205260409020600101556009546134fd90838363ffffffff6136e316565b60095550505050565b61350e61127f565b6001600160a01b031663a9059cbb83836040518363ffffffff1660e01b815260040161353b929190614f96565b602060405180830381600087803b15801561355557600080fd5b505af1158015613569573d6000803e3d6000fd5b505050506040513d601f19601f8201168201806040525061358d9190810190614cbe565b50611ae8816040518060600160405280602a815260200161518a602a9139612889565b6000908152600e60205260409020600401805462ff0000191662010000179055565b6001600160a01b0382166000908152600f60205260409020600301546135fe908263ffffffff611be916565b6001600160a01b039092166000908152600f602052604090206003019190915550565b600754613634908263ffffffff611be916565b60075550565b6136426114a9565b6001600160a01b039092166000908152600f60205260409020918255600190910155565b6000908152600e602052604090206008015490565b60025461368f90600163ffffffff611be916565b600255565b6001600160a01b0382166000908152600f60205260409020600201546136c0908263ffffffff611be916565b6001600160a01b039092166000908152600f602052604090206002019190915550565b600081848411156137075760405162461bcd60e51b8152600401611b459190614fdb565b505050900390565b61120561373061371d610e44565b610faf613728611852565b610faf611210565b61373861127f565b6001600160a01b03166370a08231306040518263ffffffff1660e01b81526004016137639190614f60565b60206040518083038186803b15801561377b57600080fd5b505afa15801561378f573d6000803e3d6000fd5b505050506040513d601f19601f820116820180604052506137b39190810190614d2a565b10156a21b7b6b83a3937b63632b960a91b74496e636f6e73697374656e742062616c616e63657360581b611af0565b606080826040516020016137f69190614f1a565b60408051601f19818403018152919052905060205b801561384b5781516000199091019082908290811061382657fe5b01602001516001600160f81b031916156138465760010181529050610d3a565b61380b565b505060408051600081526020810190915292915050565b600081836138835760405162461bcd60e51b8152600401611b459190614fdb565b50600083858161388f57fe5b0495945050505050565b6000908152600e60205260409020600401546301000000900460ff1690565b6000908152600e602052604090206004015462010000900460ff1690565b6000918252600e60209081526040808420928452601690920190529020546001600160a01b031690565b6000828152600e602090815260408083206001600160a01b0385168452601801909152902092915050565b8051600090610d3790670de0b6b3a764000063ffffffff611c0e16565b61395061481e565b506040805160208101909152670de0b6b3a7640000815290565b61397261481e565b604080516020810190915282518451829161315c919063ffffffff611be916565b61399b61481e565b604080516020810190915282518451829161315c919063ffffffff612edb16565b6139c461481e565b816139da576139d3600161405e565b9050610d7a565b6139e261481e565b5060408051602081019091528351815260015b83811015613a1157613a078286614092565b91506001016139f5565b509392505050565b613a2161481e565b5060408051602081019091526000815290565b6000613a4083836140c0565b6002149392505050565b613a5261481e565b613a5a61481e565b613a7c6002613a7085600163ffffffff6140f216565b9063ffffffff61412f16565b90508291505b613a92818363ffffffff613c2e16565b15613ac657905080613abf6002613a70613ab2848063ffffffff61396a16565b869063ffffffff61415616565b9050613a82565b50919050565b6000928352600e602090815260408085206001600160a01b0390941685526018909301905291209051600390910155565b6000613bf582805480602002602001604051908101604052809291908181526020016000905b82821015613be2576000848152602090819020604080516101408101825260068602909201805460ff80821615158552610100808304821615158688015262010000830482161515868601526301000000830490911615156060860152600160201b9091046001600160a01b0316608085015260018083015460a0860152600283015460c086015283518087019094526003830154845260e0850193909352600482015490840152600501546101208301529083529092019101613b23565b5050855460009250600019019050614184565b5090565b6000918252600e602090815260408084206001600160a01b039390931684526018909201905290205462010000900460ff1690565b6000613c3a83836140c0565b159392505050565b6000928352600e602090815260408085206001600160a01b03909416808652601885018352818620805461ff00191661010017905592855260179093019052912080546001600160a01b0319169091179055565b6000918252600e602090815260408084206001600160a01b039093168452601890920190529020805462ff0000191662010000179055565b613cd661481e565b60408051602081019091528351819061315c908563ffffffff612df116565b6000918252600e602052604090912060110155565b6000918252600e602052604090912060120155565b6000918252600e602052604090912060130155565b6000918252600e6020819052604090922090910155565b6000918252600e6020526040909120600f0155565b6000918252600e602052604090912060100155565b6000918252600e6020526040909120600b0155565b6000918252600e6020526040909120600a0155565b6000918252600e6020526040909120600c0155565b6000918252600e6020526040909120600d0155565b613dd161481e565b613dd961481e565b6000613de361140e565b6001600160a01b031663d4a3e9d76040518163ffffffff1660e01b81526004016040805180830381600087803b158015613e1c57600080fd5b505af1158015613e30573d6000803e3d6000fd5b505050506040513d601f19601f82011682018060405250613e549190810190614cdc565b91509150613e6861099860016116926114a9565b15613e7e57613e756142da565b92505050610d74565b80613e8b57613e75613948565b50905090565b6000600855565b613ea061481e565b613ea86142fc565b90506000613eb4610e44565b90506000613ec061153a565b905080821015613ed557613ed261431f565b92505b613edd61481e565b613f0e613f0885613efc613eef613948565b899063ffffffff61399316565b9063ffffffff61415616565b86614341565b90506000613f20611f9b6131e561160d565b90506000806000613f30846143cc565b925092509250613f3e6114a9565b89516040517f32fcaa1e76ed9517f4749d8ec9a77dd5e7329456d740b9bf9665d900eef5e28391613f7491879087908790615028565b60405180910390a2505050505050505050565b613f8f61481e565b613faf613fa9613f9d614538565b613efc85612009613948565b83614341565b90506000613fc1611f9b6131e561160d565b9050613fcc81612a42565b613fd46114a9565b83516040517f5e139d4b8080a4a00dcc151e8217694aeebae893936326aa22096924a99066779161400691859061501a565b60405180910390a2505050565b61401b61481e565b5060408051602081019091526704db732547630000815290565b60105490565b602490565b600061405682611468868663ffffffff612df116565b949350505050565b61406661481e565b60408051602081019091528061408a84670de0b6b3a764000063ffffffff612df116565b905292915050565b61409a61481e565b604051806020016040528061315c85600001518560000151670de0b6b3a7640000614040565b8051825160009114156140d557506001610d7a565b81518351116140e55760006140e8565b60025b60ff169392505050565b6140fa61481e565b60408051602081019091528061315c61412185670de0b6b3a764000063ffffffff612df116565b86519063ffffffff611be916565b61413761481e565b60408051602081019091528351819061315c908563ffffffff611c0e16565b61415e61481e565b604051806020016040528061315c8560000151670de0b6b3a76400008660000151614040565b8181808214156141955750506110bf565b61419d61481e565b856002868603058601815181106141b057fe5b602002602001015160e0015190505b8183136142ac575b6141f1818785815181106141d757fe5b602002602001015160e00151613c2e90919063ffffffff16565b15614201576001909201916141c7565b61422b86838151811061421057fe5b602002602001015160e0015182613c2e90919063ffffffff16565b1561423c5760001990910190614201565b8183136142a75785828151811061424f57fe5b602002602001015186848151811061426357fe5b602002602001015187858151811061427757fe5b6020026020010188858151811061428a57fe5b602090810291909101019190915252600190920191600019909101905b6141bf565b818512156142bf576142bf868684614184565b838312156142d2576142d2868486614184565b505050505050565b6142e261481e565b50604080516020810190915267155f2dd73a1a0000815290565b61430461481e565b50604080516020810190915268015af1d78b58c40000815290565b61432761481e565b50604080516020810190915267e73435bb46020000815290565b61434961481e565b61435161481e565b61435961455a565b90506000614365610e44565b9050600061437161153a565b905061438b61437e613948565b869063ffffffff613a3416565b801561439657508082105b156143a6576143a361457b565b92505b6143b6868463ffffffff613a3416565b6143c057856143c2565b825b9695505050505050565b60008080808080806143dc610e44565b905060006143e861153a565b9050808210156144a557614402818363ffffffff612edb16565b945061442a614419606461441461459c565b612edb565b61146887606463ffffffff612df116565b9450888511614439578461443b565b885b945061445a606461146861444d61459c565b889063ffffffff612df116565b925061446c858463ffffffff612edb16565b9450614477836145a1565b61448085614635565b614490898463ffffffff612edb16565b98506144a2898663ffffffff612edb16565b98505b60006144af611908565b905060008a1180156144c15750600081115b156144f3578981116144d357806144d5565b895b94506144e085611a01565b6144f08a8663ffffffff612edb16565b99505b6144fb611210565b61450457600099505b8915614513576145138a6146c6565b85856145258c8763ffffffff611be916565b9850985098505050505050509193909250565b61454061481e565b506040805160208101909152674563918244f40000815290565b61456261481e565b50604080516020810190915266470de4df820000815290565b61458361481e565b506040805160208101909152666a94d74f430000815290565b602890565b8015610e53576145af61127f565b6001600160a01b03166340c10f196145c5610e21565b836040518363ffffffff1660e01b81526004016145e3929190614f96565b602060405180830381600087803b1580156145fd57600080fd5b505af1158015614611573d6000803e3d6000fd5b505050506040513d601f19601f82011682018060405250610e409190810190614cbe565b61463d61127f565b6001600160a01b03166340c10f1930836040518363ffffffff1660e01b815260040161466a929190614f96565b602060405180830381600087803b15801561468457600080fd5b505af1158015614698573d6000803e3d6000fd5b505050506040513d601f19601f820116820180604052506146bc9190810190614cbe565b50611a4081613621565b61470960006146d3611210565b116a21b7b6b83a3937b63632b960a91b7f43616e74206d696e7420746f20656d70747920706f6f6c000000000000000000611af0565b6000614728606461146861471b61459c565b859063ffffffff612df116565b9050600081831161473a57600061474a565b61474a838363ffffffff612edb16565b9050614755826145a1565b61475e81614766565b6110bf61370f565b8015610e535761477461127f565b6001600160a01b03166340c10f1930836040518363ffffffff1660e01b81526004016147a1929190614f96565b602060405180830381600087803b1580156147bb57600080fd5b505af11580156147cf573d6000803e3d6000fd5b505050506040513d601f19601f820116820180604052506147f39190810190614cbe565b50610e5381611ed3565b60405180606001604052806000815260200160008152602001600081525090565b6040518060200160405280600081525090565b8280548282559060005260206000209060060281019282156149365760005260206000209160060282015b82811115614936578254825460ff918216151560ff1990911617808455845461010090819004831615150261ff00199091161780845584546201000090819004831615150262ff000019909116178084558454630100000090819004909216151590910263ff000000199091161780835583546001600160a01b03600160201b918290041602640100000000600160c01b031990911617825560018084015490830155600280840154908301556003808401549083015560048084015490830155600580840154908301556006928301929091019061485c565b50613bf592915061495f565b5080546000825560060290600052602060002090810190610e5391905b610d7491905b80821115613bf55780546001600160c01b03191681556000600182018190556002820181905560038201819055600482018190556005820155600601614965565b8035610d7a8161512e565b8051610d7a81615142565b8035610d7a8161514b565b60008083601f8401126149d957600080fd5b50813567ffffffffffffffff8111156149f157600080fd5b602083019150836001820283011115614a0957600080fd5b9250929050565b600060208284031215614a2257600080fd5b614a2c602061506b565b90506000614a3a8484614a4e565b82525092915050565b8035610d7a81615158565b8051610d7a81615158565b600060208284031215614a6b57600080fd5b600061405684846149a6565b60008060408385031215614a8a57600080fd5b6000614a9685856149a6565b9250506020614aa7858286016149a6565b9150509250929050565b600080600060608486031215614ac657600080fd5b6000614ad286866149a6565b9350506020614ae3868287016149a6565b9250506040614af4868287016149bc565b9150509250925092565b600080600060608486031215614b1357600080fd5b6000614b1f86866149a6565b9350506020614b30868287016149a6565b9250506040614af486828701614a43565b600080600080600060808688031215614b5957600080fd5b6000614b6588886149a6565b9550506020614b76888289016149a6565b9450506040614b8788828901614a43565b935050606086013567ffffffffffffffff811115614ba457600080fd5b614bb0888289016149c7565b92509250509295509295909350565b60008060408385031215614bd257600080fd5b6000614bde85856149a6565b9250506020614aa785828601614a43565b60008060008060608587031215614c0557600080fd5b6000614c1187876149a6565b9450506020614c2287828801614a43565b935050604085013567ffffffffffffffff811115614c3f57600080fd5b614c4b878288016149c7565b95989497509550505050565b600080600060608486031215614c6c57600080fd5b6000614c7886866149a6565b9350506020614b3086828701614a43565b600080600080600060808688031215614ca157600080fd5b6000614cad88886149a6565b9550506020614b7688828901614a43565b600060208284031215614cd057600080fd5b600061405684846149b1565b60008060408385031215614cef57600080fd5b6000614cfb8585614a10565b9250506020614aa7858286016149b1565b600060208284031215614d1e57600080fd5b60006140568484614a43565b600060208284031215614d3c57600080fd5b60006140568484614a4e565b600080600060408486031215614d5d57600080fd5b6000614d698686614a43565b935050602084013567ffffffffffffffff811115614d8657600080fd5b614d92868287016149c7565b92509250509250925092565b60008060408385031215614db157600080fd5b6000614bde8585614a43565b600080600060608486031215614dd257600080fd5b6000614c788686614a43565b614de78161509f565b82525050565b614de7816150aa565b614de7614e02826150af565b610d74565b614de7614e0282610d74565b6000614e1e82615092565b614e288185610d3a565b9350614e388185602086016150ee565b9290920192915050565b614de7816150d8565b614de7816150e3565b6000614e5f82615092565b614e698185615096565b9350614e798185602086016150ee565b614e828161511a565b9093019392505050565b6000614e99601b83615096565b7f536166654d6174683a206164646974696f6e206f766572666c6f770000000000815260200192915050565b6000614ed2602183615096565b7f536166654d6174683a206d756c7469706c69636174696f6e206f766572666c6f8152607760f81b602082015260400192915050565b614de781610d74565b614de7816150d2565b6000614f268284614e07565b50602001919050565b6000614f3b8286614e13565b9150614f478285614df6565b600282019150614f578284614e13565b95945050505050565b60208101610d7a8284614dde565b60608101614f7c8286614dde565b614f896020830185614dde565b6140566040830184614f08565b60408101614fa48285614dde565b610e636020830184614f08565b60208101610d7a8284614ded565b60208101610d7a8284614e42565b60208101610d7a8284614e4b565b60208082528101610e638184614e54565b60208082528101610d3781614e8c565b60208082528101610d3781614ec5565b60208101610d7a8284614f08565b60408101614fa48285614f08565b608081016150368287614f08565b6150436020830186614f08565b6150506040830185614f08565b614f576060830184614f08565b60208101610d7a8284614f11565b60405181810167ffffffffffffffff8111828210171561508a57600080fd5b604052919050565b5190565b90815260200190565b6000610d37826150c6565b151590565b6001600160f01b03191690565b80610d3a81615124565b6001600160a01b031690565b60ff1690565b6000610d378261509f565b6000610d37826150bc565b60005b838110156151095781810151838201526020016150f1565b838111156111f75750506000910152565b601f01601f191690565b60038110610e5357fe5b6151378161509f565b8114610e5357600080fd5b615137816150aa565b60038110610e5357600080fd5b61513781610d7456fe436f6d7074726f6c6c65723a206e6f7420656e6f756768206f75747374616e64696e672064656274436f6d7074726f6c6c65723a206e6f7420656e6f7567682072656465656d61626c652062616c616e6365a365627a7a723158202793174928765d54b11580632097f72d9dbd89be70b671cf17d712e6341e03d86c6578706572696d656e74616cf564736f6c6343000511004060806040523480156200001157600080fd5b5060405180604001604052806012815260200171223cb730b6b4b19029b2ba102237b63630b960711b815250604051806040016040528060038152602001621114d160ea1b81525060126200007e6200006f6200011960201b60201c565b6001600160e01b036200011e16565b82516200009390600190602086019062000313565b508151620000a990600290602085019062000313565b506003805460ff191660ff9290921691909117905550620001109050620000cf62000170565b604051806040016040528060018152602001603160f81b815250620000fe6200020960201b620016341760201c565b306200020e60201b620016391760201c565b60075562000469565b335b90565b620001398160006200026560201b62000d7e1790919060201c565b6040516001600160a01b038216907f6ae172837ea30b801fbfcdd4108aa1d5bf8ff775444fd70256b44e6bf3dfc3f690600090a250565b60018054604080516020601f60026000196101008789161502019095169490940493840181900481028201810190925282815260609390929091830182828015620001ff5780601f10620001d357610100808354040283529160200191620001ff565b820191906000526020600020905b815481529060010190602001808311620001e157829003601f168201915b5050505050905090565b600190565b8351602094850120835193850193909320604080517f8b73c3c69bb8fe3d512ecc4cf759cc79239f7b179b0ffacaa9a75d522b39400f815295860194909452928401929092526060830152608082015260a0902090565b6200027a82826001600160e01b03620002c816565b15620002a35760405162461bcd60e51b81526004016200029a9062000436565b60405180910390fd5b6001600160a01b0316600090815260209190915260409020805460ff19166001179055565b60006001600160a01b038216620002f35760405162461bcd60e51b81526004016200029a906200044e565b506001600160a01b03166000908152602091909152604090205460ff1690565b828054600181600116156101000203166002900490600052602060002090601f016020900481019282601f106200035657805160ff191683800117855562000386565b8280016001018555821562000386579182015b828111156200038657825182559160200191906001019062000369565b506200039492915062000398565b5090565b6200011b91905b808211156200039457600081556001016200039f565b6000620003c4601f8362000460565b7f526f6c65733a206163636f756e7420616c72656164792068617320726f6c6500815260200192915050565b6000620003ff60228362000460565b7f526f6c65733a206163636f756e7420697320746865207a65726f206164647265815261737360f01b602082015260400192915050565b602080825281016200044881620003b5565b92915050565b602080825281016200044881620003f0565b90815260200190565b61178d80620004796000396000f3fe608060405234801561001057600080fd5b506004361061012c5760003560e01c806395d89b41116100ad578063aa271e1a11610071578063aa271e1a14610256578063d505accf14610269578063dab400f31461027c578063dd62ed3e14610284578063e879c19f146102975761012c565b806395d89b411461020d578063983b2d56146102155780639865027514610228578063a457c2d714610230578063a9059cbb146102435761012c565b806339509351116100f457806339509351146101ac57806340c10f19146101bf57806342966c68146101d257806370a08231146101e757806379cc6790146101fa5761012c565b806306fdde0314610131578063095ea7b31461014f57806318160ddd1461016f57806323b872dd14610184578063313ce56714610197575b600080fd5b61013961029f565b60405161014691906114c6565b60405180910390f35b61016261015d366004610ffc565b610334565b604051610146919061141b565b610177610352565b6040516101469190611429565b610162610192366004610f13565b610358565b61019f6103ca565b6040516101469190611587565b6101626101ba366004610ffc565b6103d3565b6101626101cd366004610ffc565b610427565b6101e56101e036600461102c565b610463565b005b6101776101f5366004610eb3565b610477565b6101e5610208366004610ffc565b610496565b6101396104a4565b6101e5610223366004610eb3565b610502565b6101e5610532565b61016261023e366004610ffc565b610544565b610162610251366004610ffc565b6105b2565b610162610264366004610eb3565b6105c6565b6101e5610277366004610f60565b6105d8565b61017761075f565b610177610292366004610ed9565b610765565b610177610790565b60018054604080516020601f6002600019610100878916150201909516949094049384018190048102820181019092528281526060939092909183018282801561032a5780601f106102ff5761010080835404028352916020019161032a565b820191906000526020600020905b81548152906001019060200180831161030d57829003601f168201915b5050505050905090565b60006103486103416107b4565b84846107b8565b5060015b92915050565b60065490565b600061036584848461086c565b600019610374856102926107b4565b146103c0576103c0846103856107b4565b6103bb856040518060600160405280602981526020016116fd602991396103ae8a6102926107b4565b919063ffffffff61098216565b6107b8565b5060019392505050565b60035460ff1690565b60006103486103e06107b4565b846103bb85600560006103f16107b4565b6001600160a01b03908116825260208083019390935260409182016000908120918c16815292529020549063ffffffff6109ae16565b60006104346102646107b4565b6104595760405162461bcd60e51b815260040161045090611517565b60405180910390fd5b61034883836109da565b61047461046e6107b4565b82610a9a565b50565b6001600160a01b0381166000908152600460205260409020545b919050565b6104a08282610b70565b5050565b60028054604080516020601f600019610100600187161502019094168590049384018190048102820181019092528281526060939092909183018282801561032a5780601f106102ff5761010080835404028352916020019161032a565b61050d6102646107b4565b6105295760405162461bcd60e51b815260040161045090611517565b61047481610beb565b61054261053d6107b4565b610c33565b565b60006103486105516107b4565b846103bb85604051806060016040528060258152602001611726602591396005600061057b6107b4565b6001600160a01b03908116825260208083019390935260409182016000908120918d1681529252902054919063ffffffff61098216565b60006103486105bf6107b4565b848461086c565b600061034c818363ffffffff610c7b16565b6007546001600160a01b03881660009081526008602090815260408083208054600181019091559051929361065a93909261063f927f6e71edae12b1b97f4d1f60370fef10105fa2faae0126114a169c64845d6126c9928e928e928e9290918e9101611437565b60405160208183030381529060405280519060200120610cc3565b90506000600182868686604051600081526020016040526040516106819493929190611491565b6020604051602081039080840390855afa1580156106a3573d6000803e3d6000fd5b5050506020604051035190506106f0896001600160a01b0316826001600160a01b0316146a5065726d69747461626c6560a81b70496e76616c6964207369676e617475726560781b610ce2565b6107236001600160a01b03821615156a5065726d69747461626c6560a81b6b5a65726f206164647265737360a01b610ce2565b610749864211156a5065726d69747461626c6560a81b66115e1c1a5c995960ca1b610ce2565b6107548989896107b8565b505050505050505050565b60075481565b6001600160a01b03918216600090815260056020908152604080832093909416825291909152205490565b7f6e71edae12b1b97f4d1f60370fef10105fa2faae0126114a169c64845d6126c981565b3390565b6001600160a01b0383166107de5760405162461bcd60e51b815260040161045090611567565b6001600160a01b0382166108045760405162461bcd60e51b8152600401610450906114f7565b6001600160a01b0380841660008181526005602090815260408083209487168084529490915290819020849055517f8c5be1e5ebec7d5bd14f71427d1e84f3dd0314c0f7b2291e5b200ac8c7c3b9259061085f908590611429565b60405180910390a3505050565b6001600160a01b0383166108925760405162461bcd60e51b815260040161045090611557565b6001600160a01b0382166108b85760405162461bcd60e51b8152600401610450906114d7565b6108fb816040518060600160405280602681526020016116b3602691396001600160a01b038616600090815260046020526040902054919063ffffffff61098216565b6001600160a01b038085166000908152600460205260408082209390935590841681522054610930908263ffffffff6109ae16565b6001600160a01b0380841660008181526004602052604090819020939093559151908516907fddf252ad1be2c89b69c2b068fc378daa952ba7f163c4a11628f55a4df523b3ef9061085f908590611429565b600081848411156109a65760405162461bcd60e51b815260040161045091906114c6565b505050900390565b6000828201838110156109d35760405162461bcd60e51b815260040161045090611507565b9392505050565b6001600160a01b038216610a005760405162461bcd60e51b815260040161045090611577565b600654610a13908263ffffffff6109ae16565b6006556001600160a01b038216600090815260046020526040902054610a3f908263ffffffff6109ae16565b6001600160a01b0383166000818152600460205260408082209390935591519091907fddf252ad1be2c89b69c2b068fc378daa952ba7f163c4a11628f55a4df523b3ef90610a8e908590611429565b60405180910390a35050565b6001600160a01b038216610ac05760405162461bcd60e51b815260040161045090611547565b610b0381604051806060016040528060228152602001611691602291396001600160a01b038516600090815260046020526040902054919063ffffffff61098216565b6001600160a01b038316600090815260046020526040902055600654610b2f908263ffffffff610d3c16565b6006556040516000906001600160a01b038416907fddf252ad1be2c89b69c2b068fc378daa952ba7f163c4a11628f55a4df523b3ef90610a8e908590611429565b610b7a8282610a9a565b6104a082610b866107b4565b6103bb846040518060600160405280602481526020016116d9602491396001600160a01b038816600090815260056020526040812090610bc46107b4565b6001600160a01b03168152602081019190915260400160002054919063ffffffff61098216565b610bfc60008263ffffffff610d7e16565b6040516001600160a01b038216907f6ae172837ea30b801fbfcdd4108aa1d5bf8ff775444fd70256b44e6bf3dfc3f690600090a250565b610c4460008263ffffffff610dca16565b6040516001600160a01b038216907fe94479a9f7e1952cc78f2d6baab678adc1b772d936c6583def489e524cb6669290600090a250565b60006001600160a01b038216610ca35760405162461bcd60e51b815260040161045090611537565b506001600160a01b03166000908152602091909152604090205460ff1690565b60405161190160f01b8152600281019290925260228201526042902090565b82610d3757610cf082610e12565b6101d160f51b610cff83610e12565b604051602001610d11939291906113ea565b60408051601f198184030181529082905262461bcd60e51b8252610450916004016114c6565b505050565b60006109d383836040518060400160405280601e81526020017f536166654d6174683a207375627472616374696f6e206f766572666c6f770000815250610982565b610d888282610c7b565b15610da55760405162461bcd60e51b8152600401610450906114e7565b6001600160a01b0316600090815260209190915260409020805460ff19166001179055565b610dd48282610c7b565b610df05760405162461bcd60e51b815260040161045090611527565b6001600160a01b0316600090815260209190915260409020805460ff19169055565b60608082604051602001610e2691906113d5565b60408051601f19818403018152919052905060205b8015610e7b57815160001990910190829082908110610e5657fe5b01602001516001600160f81b03191615610e765760010181529050610491565b610e3b565b505060408051600081526020810190915292915050565b803561034c8161160e565b803561034c81611622565b803561034c8161162b565b600060208284031215610ec557600080fd5b6000610ed18484610e92565b949350505050565b60008060408385031215610eec57600080fd5b6000610ef88585610e92565b9250506020610f0985828601610e92565b9150509250929050565b600080600060608486031215610f2857600080fd5b6000610f348686610e92565b9350506020610f4586828701610e92565b9250506040610f5686828701610e9d565b9150509250925092565b600080600080600080600060e0888a031215610f7b57600080fd5b6000610f878a8a610e92565b9750506020610f988a828b01610e92565b9650506040610fa98a828b01610e9d565b9550506060610fba8a828b01610e9d565b9450506080610fcb8a828b01610ea8565b93505060a0610fdc8a828b01610e9d565b92505060c0610fed8a828b01610e9d565b91505092959891949750929550565b6000806040838503121561100f57600080fd5b600061101b8585610e92565b9250506020610f0985828601610e9d565b60006020828403121561103e57600080fd5b6000610ed18484610e9d565b611053816115a2565b82525050565b611053816115ad565b61105361106e826115b2565b6115bf565b611053816115bf565b61105361106e826115bf565b600061109382611595565b61109d8185610491565b93506110ad8185602086016115d4565b9290920192915050565b60006110c282611595565b6110cc8185611599565b93506110dc8185602086016115d4565b6110e581611604565b9093019392505050565b60006110fc602383611599565b7f45524332303a207472616e7366657220746f20746865207a65726f206164647281526265737360e81b602082015260400192915050565b6000611141601f83611599565b7f526f6c65733a206163636f756e7420616c72656164792068617320726f6c6500815260200192915050565b600061117a602283611599565b7f45524332303a20617070726f766520746f20746865207a65726f206164647265815261737360f01b602082015260400192915050565b60006111be601b83611599565b7f536166654d6174683a206164646974696f6e206f766572666c6f770000000000815260200192915050565b60006111f7603083611599565b7f4d696e746572526f6c653a2063616c6c657220646f6573206e6f74206861766581526f20746865204d696e74657220726f6c6560801b602082015260400192915050565b6000611249602183611599565b7f526f6c65733a206163636f756e7420646f6573206e6f74206861766520726f6c8152606560f81b602082015260400192915050565b600061128c602283611599565b7f526f6c65733a206163636f756e7420697320746865207a65726f206164647265815261737360f01b602082015260400192915050565b60006112d0602183611599565b7f45524332303a206275726e2066726f6d20746865207a65726f206164647265738152607360f81b602082015260400192915050565b6000611313602583611599565b7f45524332303a207472616e736665722066726f6d20746865207a65726f206164815264647265737360d81b602082015260400192915050565b600061135a602483611599565b7f45524332303a20617070726f76652066726f6d20746865207a65726f206164648152637265737360e01b602082015260400192915050565b60006113a0601f83611599565b7f45524332303a206d696e7420746f20746865207a65726f206164647265737300815260200192915050565b611053816115ce565b60006113e1828461107c565b50602001919050565b60006113f68286611088565b91506114028285611062565b6002820191506114128284611088565b95945050505050565b6020810161034c8284611059565b6020810161034c8284611073565b60c081016114458289611073565b611452602083018861104a565b61145f604083018761104a565b61146c6060830186611073565b6114796080830185611073565b61148660a0830184611073565b979650505050505050565b6080810161149f8287611073565b6114ac60208301866113cc565b6114b96040830185611073565b6114126060830184611073565b602080825281016109d381846110b7565b6020808252810161034c816110ef565b6020808252810161034c81611134565b6020808252810161034c8161116d565b6020808252810161034c816111b1565b6020808252810161034c816111ea565b6020808252810161034c8161123c565b6020808252810161034c8161127f565b6020808252810161034c816112c3565b6020808252810161034c81611306565b6020808252810161034c8161134d565b6020808252810161034c81611393565b6020810161034c82846113cc565b5190565b90815260200190565b600061034c826115c2565b151590565b6001600160f01b03191690565b90565b6001600160a01b031690565b60ff1690565b60005b838110156115ef5781810151838201526020016115d7565b838111156115fe576000848401525b50505050565b601f01601f191690565b611617816115a2565b811461047457600080fd5b611617816115bf565b611617816115ce565b600190565b8351602094850120835193850193909320604080517f8b73c3c69bb8fe3d512ecc4cf759cc79239f7b179b0ffacaa9a75d522b39400f815295860194909452928401929092526060830152608082015260a090209056fe45524332303a206275726e20616d6f756e7420657863656564732062616c616e636545524332303a207472616e7366657220616d6f756e7420657863656564732062616c616e636545524332303a206275726e20616d6f756e74206578636565647320616c6c6f77616e6365446f6c6c61723a207472616e7366657220616d6f756e74206578636565647320616c6c6f77616e636545524332303a2064656372656173656420616c6c6f77616e63652062656c6f77207a65726fa365627a7a723158201e779b4e1c38b13b186b8e27c872bf8f4ddde2582bb51d94dee84b0ab79123046c6578706572696d656e74616cf564736f6c63430005110040",
  "source": "/*\n    Copyright 2020 Dynamic Dollar Devs, based on the works of the Empty Set Squad\n\n    Licensed under the Apache License, Version 2.0 (the \"License\");\n    you may not use this file except in compliance with the License.\n    You may obtain a copy of the License at\n\n    http://www.apache.org/licenses/LICENSE-2.0\n\n    Unless required by applicable law or agreed to in writing, software\n    distributed under the License is distributed on an \"AS IS\" BASIS,\n    WITHOUT WARRANTIES OR CONDITIONS OF ANY KIND, either express or implied.\n    See the License for the specific language governing permissions and\n    limitations under the License.\n*/\n\npragma solidity ^0.5.17;\npragma experimental ABIEncoderV2;\n\nimport \"../dao/Regulator.sol\";\nimport \"../dao/Market.sol\";\nimport \"../oracle/IOracle.sol\";\nimport \"./MockComptroller.sol\";\nimport \"./MockState.sol\";\n\ncontract MockRegulator is MockComptroller, Regulator {\n    bytes32 private constant FILE = \"MockRegulator\";\n\n    constructor (address oracle, address pool) MockComptroller(pool) public {\n        _state.provider.oracle = IOracle(oracle);\n    }\n\n    function stepE() external {\n        super.step();\n    }\n\n    function bootstrappingAt(uint256 epoch) public view returns (bool) {\n        return epoch <= 5;\n    }\n\n    function settleCouponAuctionE(uint256 epoch) external {\n        super.settleCouponAuction(epoch);\n    }\n\n    function cancelCouponAuctionAtEpochE(uint256 epoch) external {\n        super.cancelCouponAuctionAtEpoch(epoch);\n    }\n\n    function finishCouponAuctionAtEpochE(uint256 epoch) external {\n         super.finishCouponAuctionAtEpoch(epoch);\n    }\n\n    function initCouponAuctionE() external {\n        super.initCouponAuction();\n    }\n\n    function getCouponAuctionBidsE(uint256 epoch) external returns (uint256) {\n        return super.getCouponAuctionBids(epoch);\n    }\n\n    function getCouponAuctionMinExpiryE(uint256 epoch) external returns (uint256) {\n        return super.getCouponAuctionMinExpiry(epoch);\n    }\n\n    function getCouponAuctionMaxExpiryE(uint256 epoch) external returns (uint256) {\n        return super.getCouponAuctionMaxExpiry(epoch);\n    }\n\n    function getCouponAuctionMinYieldE(uint256 epoch) external returns (uint256) {\n        return super.getCouponAuctionMinYield(epoch);\n    }\n\n    function getCouponAuctionMaxYieldE(uint256 epoch) external returns (uint256) {\n        return super.getCouponAuctionMaxYield(epoch);\n    }\n\n    function getCouponAuctionMinDollarAmountE(uint256 epoch) external returns (uint256) {\n        return super.getCouponAuctionMinDollarAmount(epoch);\n    }\n\n    function getCouponAuctionMaxDollarAmountE(uint256 epoch) external returns (uint256) {\n        return super.getCouponAuctionMaxDollarAmount(epoch);\n    }\n\n    /* for testing only */\n\n    function placeCouponAuctionBid(uint256 couponEpochExpiry, uint256 dollarAmount, uint256 maxCouponAmount) external returns (bool) {\n        Require.that(\n            couponEpochExpiry > 0,\n            FILE,\n            \"Must have non-zero expiry\"\n        );\n        \n        Require.that(\n            dollarAmount > 0,\n            FILE,\n            \"Must bid non-zero amount\"\n        );\n        \n        Require.that(\n            maxCouponAmount > 0,\n            FILE,\n            \"Must bid on non-zero amount\"\n        );\n        \n        Require.that(\n            totalDebt() >= dollarAmount,\n            FILE,\n            \"Not enough debt\"\n        );\n\n        Require.that(\n            acceptableBidCheck(msg.sender, dollarAmount),\n            FILE,\n            \"Must have enough in account\"\n        );\n\n        /*Require.that(\n            maxCouponAmount.div(dollarAmount) <= Constants.getCouponMaxYieldToBurn(),\n            FILE,\n            \"Must be under MAX_COUPON_YIELD_MULT\"\n        );*/\n\n        uint256 epochExpiry = epoch().add(couponEpochExpiry);\n        setCouponAuctionRelYield(maxCouponAmount.div(dollarAmount));\n        setCouponAuctionRelDollarAmount(dollarAmount);\n        setCouponAuctionRelExpiry(epochExpiry);\n        setCouponBidderState(uint256(epoch()), msg.sender, couponEpochExpiry, dollarAmount, maxCouponAmount);\n        setCouponBidderStateIndex(uint256(epoch()), getCouponAuctionBids(uint256(epoch())), msg.sender);\n        incrementCouponAuctionBids();\n        return true;\n    }\n}\n",
  "sourcePath": "/Users/cinquemb/Documents/Startups/crypto/dollar/protocol/contracts/mock/MockRegulator.sol",
  "compiler": {
    "name": "solc",
    "version": "0.5.17+commit.d19bba13.Emscripten.clang"
  },
  "schemaVersion": "3.3.3",
  "updatedAt": "2021-01-15T13:20:51.536Z",
  "devdoc": {
    "methods": {}
  },
  "userdoc": {
    "methods": {
      "balanceOfStaged(address)": {
        "notice": "Account"
      },
      "createCandidateE(address,uint256)": {
        "notice": "Governance"
      },
      "dollar()": {
        "notice": "Global"
      },
      "epoch()": {
        "notice": "Epoch"
      },
      "incrementBalanceOfE(address,uint256)": {
        "notice": "Account"
      },
      "incrementTotalBondedE(uint256)": {
        "notice": "Global"
      },
      "name()": {
        "notice": "ERC20 Interface"
      },
      "recordedVote(address,address)": {
        "notice": "Governance"
      },
      "setBlockTimestamp(uint256)": {
        "notice": "Mock"
      },
      "setEpochParamsE(uint256,uint256)": {
        "notice": "Epoch"
      },
      "transfer(address,uint256)": {
        "notice": "ERC20 Interface"
      }
    }
  }
}