{
  "contractName": "Pool",
  "abi": [
    {
      "inputs": [
        {
          "internalType": "address",
          "name": "dollar",
          "type": "address"
        },
        {
          "internalType": "address",
          "name": "univ2",
          "type": "address"
        }
      ],
      "payable": false,
      "stateMutability": "nonpayable",
      "type": "constructor"
    },
    {
      "anonymous": false,
      "inputs": [
        {
          "indexed": true,
          "internalType": "address",
          "name": "account",
          "type": "address"
        },
        {
          "indexed": false,
          "internalType": "uint256",
          "name": "start",
          "type": "uint256"
        },
        {
          "indexed": false,
          "internalType": "uint256",
          "name": "value",
          "type": "uint256"
        }
      ],
      "name": "Bond",
      "type": "event"
    },
    {
      "anonymous": false,
      "inputs": [
        {
          "indexed": true,
          "internalType": "address",
          "name": "account",
          "type": "address"
        },
        {
          "indexed": false,
          "internalType": "uint256",
          "name": "value",
          "type": "uint256"
        }
      ],
      "name": "Claim",
      "type": "event"
    },
    {
      "anonymous": false,
      "inputs": [
        {
          "indexed": true,
          "internalType": "address",
          "name": "account",
          "type": "address"
        },
        {
          "indexed": false,
          "internalType": "uint256",
          "name": "value",
          "type": "uint256"
        }
      ],
      "name": "Deposit",
      "type": "event"
    },
    {
      "anonymous": false,
      "inputs": [
        {
          "indexed": true,
          "internalType": "address",
          "name": "account",
          "type": "address"
        },
        {
          "indexed": false,
          "internalType": "uint256",
          "name": "value",
          "type": "uint256"
        },
        {
          "indexed": false,
          "internalType": "uint256",
          "name": "lessUsdc",
          "type": "uint256"
        },
        {
          "indexed": false,
          "internalType": "uint256",
          "name": "newUniv2",
          "type": "uint256"
        }
      ],
      "name": "Provide",
      "type": "event"
    },
    {
      "anonymous": false,
      "inputs": [
        {
          "indexed": true,
          "internalType": "address",
          "name": "account",
          "type": "address"
        },
        {
          "indexed": false,
          "internalType": "uint256",
          "name": "start",
          "type": "uint256"
        },
        {
          "indexed": false,
          "internalType": "uint256",
          "name": "value",
          "type": "uint256"
        },
        {
          "indexed": false,
          "internalType": "uint256",
          "name": "newClaimable",
          "type": "uint256"
        }
      ],
      "name": "Unbond",
      "type": "event"
    },
    {
      "anonymous": false,
      "inputs": [
        {
          "indexed": true,
          "internalType": "address",
          "name": "account",
          "type": "address"
        },
        {
          "indexed": false,
          "internalType": "uint256",
          "name": "value",
          "type": "uint256"
        }
      ],
      "name": "Withdraw",
      "type": "event"
    },
    {
      "constant": true,
      "inputs": [
        {
          "internalType": "address",
          "name": "account",
          "type": "address"
        }
      ],
      "name": "balanceOfBonded",
      "outputs": [
        {
          "internalType": "uint256",
          "name": "",
          "type": "uint256"
        }
      ],
      "payable": false,
      "stateMutability": "view",
      "type": "function"
    },
    {
      "constant": true,
      "inputs": [
        {
          "internalType": "address",
          "name": "account",
          "type": "address"
        }
      ],
      "name": "balanceOfClaimable",
      "outputs": [
        {
          "internalType": "uint256",
          "name": "",
          "type": "uint256"
        }
      ],
      "payable": false,
      "stateMutability": "view",
      "type": "function"
    },
    {
      "constant": true,
      "inputs": [
        {
          "internalType": "address",
          "name": "account",
          "type": "address"
        }
      ],
      "name": "balanceOfPhantom",
      "outputs": [
        {
          "internalType": "uint256",
          "name": "",
          "type": "uint256"
        }
      ],
      "payable": false,
      "stateMutability": "view",
      "type": "function"
    },
    {
      "constant": true,
      "inputs": [
        {
          "internalType": "address",
          "name": "account",
          "type": "address"
        }
      ],
      "name": "balanceOfRewarded",
      "outputs": [
        {
          "internalType": "uint256",
          "name": "",
          "type": "uint256"
        }
      ],
      "payable": false,
      "stateMutability": "view",
      "type": "function"
    },
    {
      "constant": true,
      "inputs": [
        {
          "internalType": "address",
          "name": "account",
          "type": "address"
        }
      ],
      "name": "balanceOfStaged",
      "outputs": [
        {
          "internalType": "uint256",
          "name": "",
          "type": "uint256"
        }
      ],
      "payable": false,
      "stateMutability": "view",
      "type": "function"
    },
    {
      "constant": true,
      "inputs": [],
      "name": "dao",
      "outputs": [
        {
          "internalType": "contract IDAO",
          "name": "",
          "type": "address"
        }
      ],
      "payable": false,
      "stateMutability": "view",
      "type": "function"
    },
    {
      "constant": true,
      "inputs": [],
      "name": "dollar",
      "outputs": [
        {
          "internalType": "contract IDollar",
          "name": "",
          "type": "address"
        }
      ],
      "payable": false,
      "stateMutability": "view",
      "type": "function"
    },
    {
      "constant": true,
      "inputs": [
        {
          "internalType": "address",
          "name": "account",
          "type": "address"
        }
      ],
      "name": "fluidUntil",
      "outputs": [
        {
          "internalType": "uint256",
          "name": "",
          "type": "uint256"
        }
      ],
      "payable": false,
      "stateMutability": "view",
      "type": "function"
    },
    {
      "constant": true,
      "inputs": [],
      "name": "paused",
      "outputs": [
        {
          "internalType": "bool",
          "name": "",
          "type": "bool"
        }
      ],
      "payable": false,
      "stateMutability": "view",
      "type": "function"
    },
    {
      "constant": true,
      "inputs": [
        {
          "internalType": "address",
          "name": "account",
          "type": "address"
        }
      ],
      "name": "statusOf",
      "outputs": [
        {
          "internalType": "enum PoolAccount.Status",
          "name": "",
          "type": "uint8"
        }
      ],
      "payable": false,
      "stateMutability": "view",
      "type": "function"
    },
    {
      "constant": true,
      "inputs": [],
      "name": "totalBonded",
      "outputs": [
        {
          "internalType": "uint256",
          "name": "",
          "type": "uint256"
        }
      ],
      "payable": false,
      "stateMutability": "view",
      "type": "function"
    },
    {
      "constant": true,
      "inputs": [],
      "name": "totalClaimable",
      "outputs": [
        {
          "internalType": "uint256",
          "name": "",
          "type": "uint256"
        }
      ],
      "payable": false,
      "stateMutability": "view",
      "type": "function"
    },
    {
      "constant": true,
      "inputs": [],
      "name": "totalPhantom",
      "outputs": [
        {
          "internalType": "uint256",
          "name": "",
          "type": "uint256"
        }
      ],
      "payable": false,
      "stateMutability": "view",
      "type": "function"
    },
    {
      "constant": true,
      "inputs": [],
      "name": "totalRewarded",
      "outputs": [
        {
          "internalType": "uint256",
          "name": "",
          "type": "uint256"
        }
      ],
      "payable": false,
      "stateMutability": "view",
      "type": "function"
    },
    {
      "constant": true,
      "inputs": [],
      "name": "totalStaged",
      "outputs": [
        {
          "internalType": "uint256",
          "name": "",
          "type": "uint256"
        }
      ],
      "payable": false,
      "stateMutability": "view",
      "type": "function"
    },
    {
      "constant": true,
      "inputs": [],
      "name": "univ2",
      "outputs": [
        {
          "internalType": "contract IERC20",
          "name": "",
          "type": "address"
        }
      ],
      "payable": false,
      "stateMutability": "view",
      "type": "function"
    },
    {
      "constant": true,
      "inputs": [],
      "name": "usdc",
      "outputs": [
        {
          "internalType": "address",
          "name": "",
          "type": "address"
        }
      ],
      "payable": false,
      "stateMutability": "view",
      "type": "function"
    },
    {
      "constant": false,
      "inputs": [
        {
          "internalType": "uint256",
          "name": "value",
          "type": "uint256"
        }
      ],
      "name": "deposit",
      "outputs": [],
      "payable": false,
      "stateMutability": "nonpayable",
      "type": "function"
    },
    {
      "constant": false,
      "inputs": [
        {
          "internalType": "uint256",
          "name": "value",
          "type": "uint256"
        }
      ],
      "name": "withdraw",
      "outputs": [],
      "payable": false,
      "stateMutability": "nonpayable",
      "type": "function"
    },
    {
      "constant": false,
      "inputs": [
        {
          "internalType": "uint256",
          "name": "value",
          "type": "uint256"
        }
      ],
      "name": "claim",
      "outputs": [],
      "payable": false,
      "stateMutability": "nonpayable",
      "type": "function"
    },
    {
      "constant": false,
      "inputs": [
        {
          "internalType": "uint256",
          "name": "value",
          "type": "uint256"
        }
      ],
      "name": "bond",
      "outputs": [],
      "payable": false,
      "stateMutability": "nonpayable",
      "type": "function"
    },
    {
      "constant": false,
      "inputs": [
        {
          "internalType": "uint256",
          "name": "value",
          "type": "uint256"
        }
      ],
      "name": "unbond",
      "outputs": [],
      "payable": false,
      "stateMutability": "nonpayable",
      "type": "function"
    },
    {
      "constant": false,
      "inputs": [
        {
          "internalType": "uint256",
          "name": "value",
          "type": "uint256"
        }
      ],
      "name": "provide",
      "outputs": [],
      "payable": false,
      "stateMutability": "nonpayable",
      "type": "function"
    },
    {
      "constant": false,
      "inputs": [
        {
          "internalType": "address",
          "name": "token",
          "type": "address"
        },
        {
          "internalType": "uint256",
          "name": "value",
          "type": "uint256"
        }
      ],
      "name": "emergencyWithdraw",
      "outputs": [],
      "payable": false,
      "stateMutability": "nonpayable",
      "type": "function"
    },
    {
      "constant": false,
      "inputs": [],
      "name": "emergencyPause",
      "outputs": [],
      "payable": false,
      "stateMutability": "nonpayable",
      "type": "function"
    }
  ],
  "bytecode": "0x60806040523480156200001157600080fd5b506040516200212438038062002124833981016040819052620000349162000084565b600480546001600160a01b03199081163317909155600580546001600160a01b0394851690831617905560068054929093169116179055620000ef565b80516200007e81620000d5565b92915050565b600080604083850312156200009857600080fd5b6000620000a6858562000071565b9250506020620000b98582860162000071565b9150509250929050565b60006001600160a01b0382166200007e565b620000e081620000c3565b8114620000ec57600080fd5b50565b61202580620000ff6000396000f3fe608060405234801561001057600080fd5b50600436106101735760003560e01c806351bf21d8116100de57806397a5d5b511610097578063b6b55f2511610071578063b6b55f25146102f0578063c0d7a94f14610303578063cf02377914610316578063e0cf72851461031e57610173565b806397a5d5b5146102b55780639940686e146102d5578063aed29d07146102e857610173565b806351bf21d81461024c5780635c975abb1461025f5780637298d36e14610274578063825ad6071461027c57806386cf9f141461028f57806395ccea67146102a257610173565b80633e413bee116101305780633e413bee146102025780634162169f1461021757806344d96e951461022c5780634838ed191461023457806351858e271461023c57806351adeb571461024457610173565b80631667eb171461017857806327de9e32146101a157806329f32ed4146101b65780632e1a7d4d146101c95780632e2ebe06146101dc578063379607f5146101ef575b600080fd5b61018b6101863660046118bd565b610326565b6040516101989190611e18565b60405180910390f35b6101b46101af366004611988565b610348565b005b61018b6101c43660046118bd565b610491565b6101b46101d7366004611988565b6104af565b6101b46101ea366004611988565b6105de565b6101b46101fd366004611988565b610783565b61020a61087a565b6040516101989190611d1e565b61021f610889565b6040516101989190611d8b565b61018b610898565b61018b61089e565b6101b46108a4565b61021f6108e5565b61018b61025a3660046118bd565b6108f4565b610267610912565b6040516101989190611d7d565b61021f61091b565b61018b61028a3660046118bd565b61092a565b61018b61029d3660046118bd565b610948565b6101b46102b03660046118e3565b610963565b6102c86102c33660046118bd565b6109fa565b6040516101989190611d99565b6101b46102e3366004611988565b610a34565b61018b610b22565b6101b46102fe366004611988565b610bbe565b61018b6103113660046118bd565b610ca9565b61018b610d31565b61018b610d37565b6001600160a01b0381166000908152600860205260409020600101545b919050565b61035133610d3d565b600061035c3361092a565b90506103936000821163141bdbdb60e21b7f696e73756666696369656e7420626f6e6465642062616c616e63650000000000610d6f565b60006103be826103b2856103a633610ca9565b9063ffffffff610dcd16565b9063ffffffff610e0e16565b905060006103d3836103b2866103a633610491565b90506103df3385610e50565b6103e93383610ead565b61040c3385604051806060016040528060218152602001611fc260219139610f12565b61042f3382604051806060016040528060228152602001611f7f60229139610f7a565b610437610fe2565b337f93530ac0ee8c50e696e13c5ac62355d0c0ba4bd943620d5bda1eb08b64ae751261047260016104666110ab565b9063ffffffff61112516565b868560405161048393929190611e34565b60405180910390a250505050565b6001600160a01b031660009081526008602052604090206003015490565b336104e660005b6104bf836109fa565b60028111156104ca57fe5b1463141bdbdb60e21b692737ba10333937bd32b760b11b610d6f565b6104ee61091b565b6001600160a01b031663a9059cbb33846040518363ffffffff1660e01b815260040161051b929190611d54565b602060405180830381600087803b15801561053557600080fd5b505af1158015610549573d6000803e3d6000fd5b505050506040513d601f19601f8201168201806040525061056d919081019061191d565b506105913383604051806060016040528060218152602001611fa16021913961114a565b610599610fe2565b336001600160a01b03167f884edad9ce6fa2440d8a54cc123490eb96d2768479d49ff9c7366125a9424364836040516105d29190611e18565b60405180910390a25050565b336105e960006104b6565b61060c6105f4610912565b1563141bdbdb60e21b6514185d5cd95960d21b610d6f565b6106486000610619610898565b1163141bdbdb60e21b7f696e73756666696369656e7420746f74616c20626f6e64656400000000000000610d6f565b6106846000610655610b22565b1163141bdbdb60e21b7f696e73756666696369656e7420746f74616c2072657761726465640000000000610d6f565b6106c18261069133610ca9565b101563141bdbdb60e21b7f696e73756666696369656e742072657761726465642062616c616e6365000000610d6f565b6000806106cd846111aa565b9150915060006106ea856104666106e2610d37565b610466610b22565b905060006107096106f9610898565b6103b2848663ffffffff610dcd16565b9050610715338461139d565b61072e33610729888463ffffffff61112516565b611402565b610736610fe2565b336001600160a01b03167fbe9d8078818a53534ce225882a00e0c6f709b5296c8a08c3a1f23f9ffd44838087868660405161077393929190611e34565b60405180910390a2505050505050565b3361078e60006104b6565b6107966108e5565b6001600160a01b031663a9059cbb33846040518363ffffffff1660e01b81526004016107c3929190611d54565b602060405180830381600087803b1580156107dd57600080fd5b505af11580156107f1573d6000803e3d6000fd5b505050506040513d601f19601f82011682018060405250610815919081019061191d565b506108393383604051806060016040528060248152602001611f5b60249139611467565b610841610fe2565b336001600160a01b03167f47cee97cb7acd717b3c0aa1435d004cd5b3c8c57d70dbceb4e4458bbd60e39d4836040516105d29190611e18565b60006108846114cf565b905090565b6004546001600160a01b031690565b60025490565b60015490565b6108db6108af610889565b6001600160a01b0316336001600160a01b03161463141bdbdb60e21b664e6f742064616f60c81b610d6f565b6108e36114e7565b565b6005546001600160a01b031690565b6001600160a01b031660009081526008602052604090206004015490565b60075460ff1690565b6006546001600160a01b031690565b6001600160a01b031660009081526008602052604090206002015490565b6001600160a01b031660009081526008602052604090205490565b61096e6108af610889565b816001600160a01b031663a9059cbb610985610889565b836040518363ffffffff1660e01b81526004016109a3929190611d6f565b602060405180830381600087803b1580156109bd57600080fd5b505af11580156109d1573d6000803e3d6000fd5b505050506040513d601f19601f820116820180604052506109f5919081019061191d565b505050565b6001600160a01b038116600090815260086020526040812060040154610a1e6110ab565b1015610a2b576001610a2e565b60005b92915050565b610a3f6105f4610912565b610a4833610d3d565b6000610a556106e2610d37565b90506000610a61610898565b15610a7657610a716106f9610898565b610a96565b610a7e610b22565b15610a8a576000610a96565b610a96836103a66114f6565b9050610aa2338461139d565b610aac3382611402565b610acf3384604051806060016040528060218152602001611fa16021913961114a565b610ad7610fe2565b337f3ae9ad26d7d47616d306d7757b947fe7b0f9a7c61a5f0dc784b0ddb6c7c40b5a610b0660016104666110ab565b85604051610b15929190611e26565b60405180910390a2505050565b6000610884610b2f61089e565b610b376108e5565b6001600160a01b03166370a08231306040518263ffffffff1660e01b8152600401610b629190611d1e565b60206040518083038186803b158015610b7a57600080fd5b505afa158015610b8e573d6000803e3d6000fd5b505050506040513d601f19601f82011682018060405250610bb291908101906119a6565b9063ffffffff6114fd16565b33610bc960006104b6565b610bd46105f4610912565b610bdc61091b565b6001600160a01b03166323b872dd3330856040518463ffffffff1660e01b8152600401610c0b93929190611d2c565b602060405180830381600087803b158015610c2557600080fd5b505af1158015610c39573d6000803e3d6000fd5b505050506040513d601f19601f82011682018060405250610c5d919081019061191d565b50610c683383610e50565b610c70610fe2565b336001600160a01b03167fe1fffcc4923d04b559f4d29a8bfc6cda04eb5b0d3c460751c2402c5c5cc9109c836040516105d29190611e18565b600080610cb4610898565b905080610cc5576000915050610343565b6000610cd26106e2610d37565b90506000610cf3836103b2610ce68861092a565b859063ffffffff610dcd16565b90506000610d0086610491565b905080821115610d2557610d1a828263ffffffff6114fd16565b945050505050610343565b50600095945050505050565b60005490565b60035490565b610d50610d4861153f565b6104666110ab565b6001600160a01b03909116600090815260086020526040902060040155565b826109f557610d7d82611544565b6101d160f51b610d8c83611544565b604051602001610d9e93929190611cb7565b60408051601f198184030181529082905262461bcd60e51b8252610dc491600401611da7565b60405180910390fd5b600082610ddc57506000610a2e565b82820282848281610de957fe5b0414610e075760405162461bcd60e51b8152600401610dc490611de8565b9392505050565b6000610e0783836040518060400160405280601a81526020017f536166654d6174683a206469766973696f6e206279207a65726f0000000000008152506115c4565b6001600160a01b038216600090815260086020526040902054610e79908263ffffffff61112516565b6001600160a01b03831660009081526008602052604081209190915554610ea6908263ffffffff61112516565b6000555050565b6001600160a01b038216600090815260086020526040902060010154610ed9908263ffffffff61112516565b6001600160a01b038316600090815260086020526040902060019081019190915554610f0b908263ffffffff61112516565b6001555050565b6001600160a01b038316600090815260086020526040902060020154610f3f90838363ffffffff6115fb16565b6001600160a01b038416600090815260086020526040902060029081019190915554610f7290838363ffffffff6115fb16565b600255505050565b6001600160a01b038316600090815260086020526040902060030154610fa790838363ffffffff6115fb16565b6001600160a01b038416600090815260086020526040902060039081019190915554610fda90838363ffffffff6115fb16565b600355505050565b6108e3610ff8610ff0610898565b610466610d31565b61100061091b565b6001600160a01b03166370a08231306040518263ffffffff1660e01b815260040161102b9190611d1e565b60206040518083038186803b15801561104357600080fd5b505afa158015611057573d6000803e3d6000fd5b505050506040513d601f19601f8201168201806040525061107b91908101906119a6565b101563141bdbdb60e21b7f496e636f6e73697374656e7420554e492d56322062616c616e63657300000000610d6f565b60006110b5610889565b6001600160a01b031663900cf0cf6040518163ffffffff1660e01b815260040160206040518083038186803b1580156110ed57600080fd5b505afa158015611101573d6000803e3d6000fd5b505050506040513d601f19601f8201168201806040525061088491908101906119a6565b600082820183811015610e075760405162461bcd60e51b8152600401610dc490611db8565b6001600160a01b03831660009081526008602052604090205461117490838363ffffffff6115fb16565b6001600160a01b038416600090815260086020526040812091909155546111a290838363ffffffff6115fb16565b600055505050565b6000806000806111b86108e5565b6111c061087a565b915091506000806111d18484611627565b9150915060008260001480156111e5575081155b6111f9576111f4888484611713565b6111fb565b875b9050600061120761091b565b60405163a9059cbb60e01b81529091506001600160a01b0387169063a9059cbb906112389084908d90600401611d6f565b602060405180830381600087803b15801561125257600080fd5b505af1158015611266573d6000803e3d6000fd5b505050506040513d601f19601f8201168201806040525061128a919081019061191d565b506040516323b872dd60e01b81526001600160a01b038616906323b872dd906112bb90339085908790600401611d2c565b602060405180830381600087803b1580156112d557600080fd5b505af11580156112e9573d6000803e3d6000fd5b505050506040513d601f19601f8201168201806040525061130d919081019061191d565b506040516335313c2160e11b815282906001600160a01b03831690636a6278429061133c903090600401611d1e565b602060405180830381600087803b15801561135657600080fd5b505af115801561136a573d6000803e3d6000fd5b505050506040513d601f19601f8201168201806040525061138e91908101906119a6565b97509750505050505050915091565b6001600160a01b0382166000908152600860205260409020600201546113c9908263ffffffff61112516565b6001600160a01b0383166000908152600860205260409020600290810191909155546113fb908263ffffffff61112516565b6002555050565b6001600160a01b03821660009081526008602052604090206003015461142e908263ffffffff61112516565b6001600160a01b038316600090815260086020526040902060039081019190915554611460908263ffffffff61112516565b6003555050565b6001600160a01b03831660009081526008602052604090206001015461149490838363ffffffff6115fb16565b6001600160a01b0384166000908152600860205260409020600190810191909155546114c790838363ffffffff6115fb16565b600155505050565b73a0b86991c6218b36c1d19d4a2e9eb0ce3606eb4890565b6007805460ff19166001179055565b620f424090565b6000610e0783836040518060400160405280601e81526020017f536166654d6174683a207375627472616374696f6e206f766572666c6f7700008152506115fb565b600c90565b606080826040516020016115589190611ca2565b60408051601f19818403018152919052905060205b80156115ad5781516000199091019082908290811061158857fe5b01602001516001600160f81b031916156115a85760010181529050610343565b61156d565b505060408051600081526020810190915292915050565b600081836115e55760405162461bcd60e51b8152600401610dc49190611da7565b5060008385816115f157fe5b0495945050505050565b6000818484111561161f5760405162461bcd60e51b8152600401610dc49190611da7565b505050900390565b60008060006116368585611781565b50905060008061165b735c69bee701ef814a2b6a3edd4b1652cb9cc5aa6f888861180b565b6001600160a01b0316630902f1ac6040518163ffffffff1660e01b815260040160606040518083038186803b15801561169357600080fd5b505afa1580156116a7573d6000803e3d6000fd5b505050506040513d601f19601f820116820180604052506116cb919081019061193b565b506001600160701b031691506001600160701b03169150826001600160a01b0316876001600160a01b031614611702578082611705565b81815b909890975095505050505050565b60008084116117345760405162461bcd60e51b8152600401610dc490611df8565b6000831180156117445750600082115b6117605760405162461bcd60e51b8152600401610dc490611dd8565b82611771858463ffffffff610dcd16565b8161177857fe5b04949350505050565b600080826001600160a01b0316846001600160a01b031614156117b65760405162461bcd60e51b8152600401610dc490611dc8565b826001600160a01b0316846001600160a01b0316106117d65782846117d9565b83835b90925090506001600160a01b0382166118045760405162461bcd60e51b8152600401610dc490611e08565b9250929050565b600080600061181a8585611781565b91509150858282604051602001611832929190611c7c565b60405160208183030381529060405280519060200120604051602001611859929190611ce8565b60408051601f1981840301815291905280516020909101209695505050505050565b8035610a2e81611f22565b8051610a2e81611f36565b8051610a2e81611f3f565b8035610a2e81611f48565b8051610a2e81611f48565b8051610a2e81611f51565b6000602082840312156118cf57600080fd5b60006118db848461187b565b949350505050565b600080604083850312156118f657600080fd5b6000611902858561187b565b92505060206119138582860161189c565b9150509250929050565b60006020828403121561192f57600080fd5b60006118db8484611886565b60008060006060848603121561195057600080fd5b600061195c8686611891565b935050602061196d86828701611891565b925050604061197e868287016118b2565b9150509250925092565b60006020828403121561199a57600080fd5b60006118db848461189c565b6000602082840312156119b857600080fd5b60006118db84846118a7565b6119cd81611ea7565b82525050565b6119cd81611e5c565b6119cd6119e882611e5c565b611ef4565b6119cd81611e67565b6119cd611a0282611e6c565b611e79565b6119cd611a0282611e79565b6000611a1e82611e4f565b611a288185610343565b9350611a38818560208601611ec4565b9290920192915050565b6119cd81611eae565b6119cd81611eb9565b6000611a5f82611e4f565b611a698185611e53565b9350611a79818560208601611ec4565b611a8281611f05565b9093019392505050565b6000611a99601b83611e53565b7f536166654d6174683a206164646974696f6e206f766572666c6f770000000000815260200192915050565b6000611ad2602583611e53565b7f556e697377617056324c6962726172793a204944454e544943414c5f41444452815264455353455360d81b602082015260400192915050565b6000611b19602083610343565b7f96e8ac4277198ff8b6f785478aa9a39f403cb768dd02cbee326c3e7da348845f815260200192915050565b6000611b52602883611e53565b7f556e697377617056324c6962726172793a20494e53554646494349454e545f4c815267495155494449545960c01b602082015260400192915050565b6000611b9c600183610343565b6001600160f81b0319815260010192915050565b6000611bbd602183611e53565b7f536166654d6174683a206d756c7469706c69636174696f6e206f766572666c6f8152607760f81b602082015260400192915050565b6000611c00602583611e53565b7f556e697377617056324c6962726172793a20494e53554646494349454e545f418152641353d5539560da1b602082015260400192915050565b6000611c47601e83611e53565b7f556e697377617056324c6962726172793a205a45524f5f414444524553530000815260200192915050565b6119cd81611e79565b6000611c8882856119dc565b601482019150611c9882846119dc565b5060140192915050565b6000611cae8284611a07565b50602001919050565b6000611cc38286611a13565b9150611ccf82856119f6565b600282019150611cdf8284611a13565b95945050505050565b6000611cf382611b8f565b9150611cff82856119dc565b601482019150611d0f8284611a07565b6020820191506118db82611b0c565b60208101610a2e82846119d3565b60608101611d3a82866119c4565b611d4760208301856119d3565b6118db6040830184611c73565b60408101611d6282856119c4565b610e076020830184611c73565b60408101611d6282856119d3565b60208101610a2e82846119ed565b60208101610a2e8284611a42565b60208101610a2e8284611a4b565b60208082528101610e078184611a54565b60208082528101610a2e81611a8c565b60208082528101610a2e81611ac5565b60208082528101610a2e81611b45565b60208082528101610a2e81611bb0565b60208082528101610a2e81611bf3565b60208082528101610a2e81611c3a565b60208101610a2e8284611c73565b60408101611d628285611c73565b60608101611e428286611c73565b611d476020830185611c73565b5190565b90815260200190565b6000610a2e82611e92565b151590565b6001600160f01b03191690565b90565b8061034381611f15565b6001600160701b031690565b6001600160a01b031690565b63ffffffff1690565b6000610a2e825b6000610a2e82611e5c565b6000610a2e82611e7c565b60005b83811015611edf578181015183820152602001611ec7565b83811115611eee576000848401525b50505050565b6000610a2e826000610a2e82611f0f565b601f01601f191690565b60601b90565b60038110611f1f57fe5b50565b611f2b81611e5c565b8114611f1f57600080fd5b611f2b81611e67565b611f2b81611e86565b611f2b81611e79565b611f2b81611e9e56fe506f6f6c3a20696e73756666696369656e7420636c61696d61626c652062616c616e6365506f6f6c3a20696e73756666696369656e74207068616e746f6d2062616c616e6365506f6f6c3a20696e73756666696369656e74207374616765642062616c616e6365506f6f6c3a20696e73756666696369656e7420626f6e6465642062616c616e6365a365627a7a723158206ab73dca7a1998bb229959ea6e9c2dc228ec5ef457e2042fa0c9e9fa8e9f87836c6578706572696d656e74616cf564736f6c63430005110040",
  "source": "/*\n    Copyright 2020 Dynamic Dollar Devs, based on the works of the Empty Set Squad\n\n    Licensed under the Apache License, Version 2.0 (the \"License\");\n    you may not use this file except in compliance with the License.\n    You may obtain a copy of the License at\n\n    http://www.apache.org/licenses/LICENSE-2.0\n\n    Unless required by applicable law or agreed to in writing, software\n    distributed under the License is distributed on an \"AS IS\" BASIS,\n    WITHOUT WARRANTIES OR CONDITIONS OF ANY KIND, either express or implied.\n    See the License for the specific language governing permissions and\n    limitations under the License.\n*/\n\npragma solidity ^0.5.17;\npragma experimental ABIEncoderV2;\n\nimport \"@openzeppelin/contracts/math/SafeMath.sol\";\nimport \"@openzeppelin/contracts/token/ERC20/IERC20.sol\";\nimport \"../external/Require.sol\";\nimport \"../Constants.sol\";\nimport \"./PoolSetters.sol\";\nimport \"./Liquidity.sol\";\n\ncontract Pool is PoolSetters, Liquidity {\n    using SafeMath for uint256;\n\n    constructor(address dollar, address univ2) public {\n        _state.provider.dao = IDAO(msg.sender);\n        _state.provider.dollar = IDollar(dollar);\n        _state.provider.univ2 = IERC20(univ2);\n    }\n\n    bytes32 private constant FILE = \"Pool\";\n\n    event Deposit(address indexed account, uint256 value);\n    event Withdraw(address indexed account, uint256 value);\n    event Claim(address indexed account, uint256 value);\n    event Bond(address indexed account, uint256 start, uint256 value);\n    event Unbond(address indexed account, uint256 start, uint256 value, uint256 newClaimable);\n    event Provide(address indexed account, uint256 value, uint256 lessUsdc, uint256 newUniv2);\n\n    function deposit(uint256 value) external onlyFrozen(msg.sender) notPaused {\n        univ2().transferFrom(msg.sender, address(this), value);\n        incrementBalanceOfStaged(msg.sender, value);\n\n        balanceCheck();\n\n        emit Deposit(msg.sender, value);\n    }\n\n    function withdraw(uint256 value) external onlyFrozen(msg.sender) {\n        univ2().transfer(msg.sender, value);\n        decrementBalanceOfStaged(msg.sender, value, \"Pool: insufficient staged balance\");\n\n        balanceCheck();\n\n        emit Withdraw(msg.sender, value);\n    }\n\n    function claim(uint256 value) external onlyFrozen(msg.sender) {\n        dollar().transfer(msg.sender, value);\n        decrementBalanceOfClaimable(msg.sender, value, \"Pool: insufficient claimable balance\");\n\n        balanceCheck();\n\n        emit Claim(msg.sender, value);\n    }\n\n    function bond(uint256 value) external notPaused {\n        unfreeze(msg.sender);\n\n        uint256 totalRewardedWithPhantom = totalRewarded().add(totalPhantom());\n        uint256 newPhantom = totalBonded() == 0 ?\n            totalRewarded() == 0 ? Constants.getInitialStakeMultiple().mul(value) : 0 :\n            totalRewardedWithPhantom.mul(value).div(totalBonded());\n\n        incrementBalanceOfBonded(msg.sender, value);\n        incrementBalanceOfPhantom(msg.sender, newPhantom);\n        decrementBalanceOfStaged(msg.sender, value, \"Pool: insufficient staged balance\");\n\n        balanceCheck();\n\n        emit Bond(msg.sender, epoch().add(1), value);\n    }\n\n    function unbond(uint256 value) external {\n        unfreeze(msg.sender);\n\n        uint256 balanceOfBonded = balanceOfBonded(msg.sender);\n        Require.that(\n            balanceOfBonded > 0,\n            FILE,\n            \"insufficient bonded balance\"\n        );\n\n        uint256 newClaimable = balanceOfRewarded(msg.sender).mul(value).div(balanceOfBonded);\n        uint256 lessPhantom = balanceOfPhantom(msg.sender).mul(value).div(balanceOfBonded);\n\n        incrementBalanceOfStaged(msg.sender, value);\n        incrementBalanceOfClaimable(msg.sender, newClaimable);\n        decrementBalanceOfBonded(msg.sender, value, \"Pool: insufficient bonded balance\");\n        decrementBalanceOfPhantom(msg.sender, lessPhantom, \"Pool: insufficient phantom balance\");\n\n        balanceCheck();\n\n        emit Unbond(msg.sender, epoch().add(1), value, newClaimable);\n    }\n\n    function provide(uint256 value) external onlyFrozen(msg.sender) notPaused {\n        Require.that(\n            totalBonded() > 0,\n            FILE,\n            \"insufficient total bonded\"\n        );\n\n        Require.that(\n            totalRewarded() > 0,\n            FILE,\n            \"insufficient total rewarded\"\n        );\n\n        Require.that(\n            balanceOfRewarded(msg.sender) >= value,\n            FILE,\n            \"insufficient rewarded balance\"\n        );\n\n        (uint256 lessUsdc, uint256 newUniv2) = addLiquidity(value);\n\n        uint256 totalRewardedWithPhantom = totalRewarded().add(totalPhantom()).add(value);\n        uint256 newPhantomFromBonded = totalRewardedWithPhantom.mul(newUniv2).div(totalBonded());\n\n        incrementBalanceOfBonded(msg.sender, newUniv2);\n        incrementBalanceOfPhantom(msg.sender, value.add(newPhantomFromBonded));\n\n\n        balanceCheck();\n\n        emit Provide(msg.sender, value, lessUsdc, newUniv2);\n    }\n\n    function emergencyWithdraw(address token, uint256 value) external onlyDao {\n        IERC20(token).transfer(address(dao()), value);\n    }\n\n    function emergencyPause() external onlyDao {\n        pause();\n    }\n\n    function balanceCheck() private {\n        Require.that(\n            univ2().balanceOf(address(this)) >= totalStaged().add(totalBonded()),\n            FILE,\n            \"Inconsistent UNI-V2 balances\"\n        );\n    }\n\n    modifier onlyFrozen(address account) {\n        Require.that(\n            statusOf(account) == PoolAccount.Status.Frozen,\n            FILE,\n            \"Not frozen\"\n        );\n\n        _;\n    }\n\n    modifier onlyDao() {\n        Require.that(\n            msg.sender == address(dao()),\n            FILE,\n            \"Not dao\"\n        );\n\n        _;\n    }\n\n    modifier notPaused() {\n        Require.that(\n            !paused(),\n            FILE,\n            \"Paused\"\n        );\n\n        _;\n    }\n}\n",
  "sourcePath": "/Users/cinquemb/Documents/Startups/crypto/dollar/protocol/contracts/oracle/Pool.sol",
  "compiler": {
    "name": "solc",
    "version": "0.5.17+commit.d19bba13.Emscripten.clang"
  },
  "schemaVersion": "3.3.3",
  "updatedAt": "2021-01-12T08:04:50.641Z",
  "devdoc": {
    "methods": {}
  },
  "userdoc": {
    "methods": {
      "balanceOfStaged(address)": {
        "notice": "Account"
      },
      "usdc()": {
        "notice": "Global"
      }
    }
  }
}