{
  "contractName": "PoolGetters",
  "abi": [
    {
      "constant": true,
      "inputs": [],
      "name": "usdc",
      "outputs": [
        {
          "internalType": "address",
          "name": "",
          "type": "address"
        }
      ],
      "payable": false,
      "stateMutability": "view",
      "type": "function"
    },
    {
      "constant": true,
      "inputs": [],
      "name": "dao",
      "outputs": [
        {
          "internalType": "contract IDAO",
          "name": "",
          "type": "address"
        }
      ],
      "payable": false,
      "stateMutability": "view",
      "type": "function"
    },
    {
      "constant": true,
      "inputs": [],
      "name": "dollar",
      "outputs": [
        {
          "internalType": "contract IDollar",
          "name": "",
          "type": "address"
        }
      ],
      "payable": false,
      "stateMutability": "view",
      "type": "function"
    },
    {
      "constant": true,
      "inputs": [],
      "name": "univ2",
      "outputs": [
        {
          "internalType": "contract IERC20",
          "name": "",
          "type": "address"
        }
      ],
      "payable": false,
      "stateMutability": "view",
      "type": "function"
    },
    {
      "constant": true,
      "inputs": [],
      "name": "totalBonded",
      "outputs": [
        {
          "internalType": "uint256",
          "name": "",
          "type": "uint256"
        }
      ],
      "payable": false,
      "stateMutability": "view",
      "type": "function"
    },
    {
      "constant": true,
      "inputs": [],
      "name": "totalStaged",
      "outputs": [
        {
          "internalType": "uint256",
          "name": "",
          "type": "uint256"
        }
      ],
      "payable": false,
      "stateMutability": "view",
      "type": "function"
    },
    {
      "constant": true,
      "inputs": [],
      "name": "totalClaimable",
      "outputs": [
        {
          "internalType": "uint256",
          "name": "",
          "type": "uint256"
        }
      ],
      "payable": false,
      "stateMutability": "view",
      "type": "function"
    },
    {
      "constant": true,
      "inputs": [],
      "name": "totalPhantom",
      "outputs": [
        {
          "internalType": "uint256",
          "name": "",
          "type": "uint256"
        }
      ],
      "payable": false,
      "stateMutability": "view",
      "type": "function"
    },
    {
      "constant": true,
      "inputs": [],
      "name": "totalRewarded",
      "outputs": [
        {
          "internalType": "uint256",
          "name": "",
          "type": "uint256"
        }
      ],
      "payable": false,
      "stateMutability": "view",
      "type": "function"
    },
    {
      "constant": true,
      "inputs": [],
      "name": "paused",
      "outputs": [
        {
          "internalType": "bool",
          "name": "",
          "type": "bool"
        }
      ],
      "payable": false,
      "stateMutability": "view",
      "type": "function"
    },
    {
      "constant": true,
      "inputs": [
        {
          "internalType": "address",
          "name": "account",
          "type": "address"
        }
      ],
      "name": "balanceOfStaged",
      "outputs": [
        {
          "internalType": "uint256",
          "name": "",
          "type": "uint256"
        }
      ],
      "payable": false,
      "stateMutability": "view",
      "type": "function"
    },
    {
      "constant": true,
      "inputs": [
        {
          "internalType": "address",
          "name": "account",
          "type": "address"
        }
      ],
      "name": "balanceOfClaimable",
      "outputs": [
        {
          "internalType": "uint256",
          "name": "",
          "type": "uint256"
        }
      ],
      "payable": false,
      "stateMutability": "view",
      "type": "function"
    },
    {
      "constant": true,
      "inputs": [
        {
          "internalType": "address",
          "name": "account",
          "type": "address"
        }
      ],
      "name": "balanceOfBonded",
      "outputs": [
        {
          "internalType": "uint256",
          "name": "",
          "type": "uint256"
        }
      ],
      "payable": false,
      "stateMutability": "view",
      "type": "function"
    },
    {
      "constant": true,
      "inputs": [
        {
          "internalType": "address",
          "name": "account",
          "type": "address"
        }
      ],
      "name": "balanceOfPhantom",
      "outputs": [
        {
          "internalType": "uint256",
          "name": "",
          "type": "uint256"
        }
      ],
      "payable": false,
      "stateMutability": "view",
      "type": "function"
    },
    {
      "constant": true,
      "inputs": [
        {
          "internalType": "address",
          "name": "account",
          "type": "address"
        }
      ],
      "name": "balanceOfRewarded",
      "outputs": [
        {
          "internalType": "uint256",
          "name": "",
          "type": "uint256"
        }
      ],
      "payable": false,
      "stateMutability": "view",
      "type": "function"
    },
    {
      "constant": true,
      "inputs": [
        {
          "internalType": "address",
          "name": "account",
          "type": "address"
        }
      ],
      "name": "fluidUntil",
      "outputs": [
        {
          "internalType": "uint256",
          "name": "",
          "type": "uint256"
        }
      ],
      "payable": false,
      "stateMutability": "view",
      "type": "function"
    },
    {
      "constant": true,
      "inputs": [
        {
          "internalType": "address",
          "name": "account",
          "type": "address"
        }
      ],
      "name": "statusOf",
      "outputs": [
        {
          "internalType": "enum PoolAccount.Status",
          "name": "",
          "type": "uint8"
        }
      ],
      "payable": false,
      "stateMutability": "view",
      "type": "function"
    }
  ],
  "bytecode": "0x608060405234801561001057600080fd5b50610934806100206000396000f3fe608060405234801561001057600080fd5b506004361061010b5760003560e01c80635c975abb116100a257806397a5d5b51161007157806397a5d5b5146101e4578063aed29d0714610204578063c0d7a94f1461020c578063cf0237791461021f578063e0cf7285146102275761010b565b80635c975abb146101a15780637298d36e146101b6578063825ad607146101be57806386cf9f14146101d15761010b565b806344d96e95116100de57806344d96e95146101765780634838ed191461017e57806351adeb571461018657806351bf21d81461018e5761010b565b80631667eb171461011057806329f32ed4146101395780633e413bee1461014c5780634162169f14610161575b600080fd5b61012361011e36600461069f565b61022f565b6040516101309190610833565b60405180910390f35b61012361014736600461069f565b610251565b61015461026f565b60405161013091906107ca565b61016961027e565b60405161013091906107e6565b61012361028d565b610123610293565b610169610299565b61012361019c36600461069f565b6102a8565b6101a96102c6565b60405161013091906107d8565b6101696102cf565b6101236101cc36600461069f565b6102de565b6101236101df36600461069f565b6102fc565b6101f76101f236600461069f565b610317565b60405161013091906107f4565b610123610351565b61012361021a36600461069f565b6103ed565b610123610495565b61012361049b565b6001600160a01b0381166000908152600860205260409020600101545b919050565b6001600160a01b031660009081526008602052604090206003015490565b60006102796104a1565b905090565b6004546001600160a01b031690565b60025490565b60015490565b6005546001600160a01b031690565b6001600160a01b031660009081526008602052604090206004015490565b60075460ff1690565b6006546001600160a01b031690565b6001600160a01b031660009081526008602052604090206002015490565b6001600160a01b031660009081526008602052604090205490565b6001600160a01b03811660009081526008602052604081206004015461033b6104b9565b101561034857600161034b565b60005b92915050565b600061027961035e610293565b610366610299565b6001600160a01b03166370a08231306040518263ffffffff1660e01b815260040161039191906107ca565b60206040518083038186803b1580156103a957600080fd5b505afa1580156103bd573d6000803e3d6000fd5b505050506040513d601f19601f820116820180604052506103e191908101906106c5565b9063ffffffff61053316565b6000806103f861028d565b90508061040957600091505061024c565b600061042a61041661049b565b61041e610351565b9063ffffffff61057c16565b905060006104578361044b61043e886102de565b859063ffffffff6105aa16565b9063ffffffff6105e416565b9050600061046486610251565b9050808211156104895761047e828263ffffffff61053316565b94505050505061024c565b50600095945050505050565b60005490565b60035490565b73a0b86991c6218b36c1d19d4a2e9eb0ce3606eb4890565b60006104c361027e565b6001600160a01b031663900cf0cf6040518163ffffffff1660e01b815260040160206040518083038186803b1580156104fb57600080fd5b505afa15801561050f573d6000803e3d6000fd5b505050506040513d601f19601f8201168201806040525061027991908101906106c5565b600061057583836040518060400160405280601e81526020017f536166654d6174683a207375627472616374696f6e206f766572666c6f770000815250610626565b9392505050565b6000828201838110156105755760405162461bcd60e51b81526004016105a190610813565b60405180910390fd5b6000826105b95750600061034b565b828202828482816105c657fe5b04146105755760405162461bcd60e51b81526004016105a190610823565b600061057583836040518060400160405280601a81526020017f536166654d6174683a206469766973696f6e206279207a65726f000000000000815250610652565b6000818484111561064a5760405162461bcd60e51b81526004016105a19190610802565b505050900390565b600081836106735760405162461bcd60e51b81526004016105a19190610802565b50600083858161067f57fe5b0495945050505050565b803561034b816108d4565b805161034b816108e8565b6000602082840312156106b157600080fd5b60006106bd8484610689565b949350505050565b6000602082840312156106d757600080fd5b60006106bd8484610694565b6106ec8161084e565b82525050565b6106ec81610859565b6106ec81610877565b6106ec81610882565b600061071882610841565b6107228185610845565b935061073281856020860161088d565b61073b816108bd565b9093019392505050565b6000610752601b83610845565b7f536166654d6174683a206164646974696f6e206f766572666c6f770000000000815260200192915050565b600061078b602183610845565b7f536166654d6174683a206d756c7469706c69636174696f6e206f766572666c6f8152607760f81b602082015260400192915050565b6106ec81610874565b6020810161034b82846106e3565b6020810161034b82846106f2565b6020810161034b82846106fb565b6020810161034b8284610704565b60208082528101610575818461070d565b6020808252810161034b81610745565b6020808252810161034b8161077e565b6020810161034b82846107c1565b5190565b90815260200190565b600061034b82610868565b151590565b8061024c816108c7565b6001600160a01b031690565b90565b600061034b8261084e565b600061034b8261085e565b60005b838110156108a8578181015183820152602001610890565b838111156108b7576000848401525b50505050565b601f01601f191690565b600381106108d157fe5b50565b6108dd8161084e565b81146108d157600080fd5b6108dd8161087456fea365627a7a723158209a117d39beec9ac55e4318e8887990050be0026deee53b79da41b8f5f53484a36c6578706572696d656e74616cf564736f6c63430005110040",
  "source": "/*\n    Copyright 2020 Dynamic Dollar Devs, based on the works of the Empty Set Squad\n\n    Licensed under the Apache License, Version 2.0 (the \"License\");\n    you may not use this file except in compliance with the License.\n    You may obtain a copy of the License at\n\n    http://www.apache.org/licenses/LICENSE-2.0\n\n    Unless required by applicable law or agreed to in writing, software\n    distributed under the License is distributed on an \"AS IS\" BASIS,\n    WITHOUT WARRANTIES OR CONDITIONS OF ANY KIND, either express or implied.\n    See the License for the specific language governing permissions and\n    limitations under the License.\n*/\n\npragma solidity ^0.5.17;\npragma experimental ABIEncoderV2;\n\nimport \"@openzeppelin/contracts/math/SafeMath.sol\";\nimport \"./PoolState.sol\";\nimport \"../Constants.sol\";\n\ncontract PoolGetters is PoolState {\n    using SafeMath for uint256;\n\n    /**\n     * Global\n     */\n\n    function usdc() public view returns (address) {\n        return Constants.getUsdcAddress();\n    }\n\n    function dao() public view returns (IDAO) {\n        return _state.provider.dao;\n    }\n\n    function dollar() public view returns (IDollar) {\n        return _state.provider.dollar;\n    }\n\n    function univ2() public view returns (IERC20) {\n        return _state.provider.univ2;\n    }\n\n    function totalBonded() public view returns (uint256) {\n        return _state.balance.bonded;\n    }\n\n    function totalStaged() public view returns (uint256) {\n        return _state.balance.staged;\n    }\n\n    function totalClaimable() public view returns (uint256) {\n        return _state.balance.claimable;\n    }\n\n    function totalPhantom() public view returns (uint256) {\n        return _state.balance.phantom;\n    }\n\n    function totalRewarded() public view returns (uint256) {\n        return dollar().balanceOf(address(this)).sub(totalClaimable());\n    }\n\n    function paused() public view returns (bool) {\n        return _state.paused;\n    }\n\n    /**\n     * Account\n     */\n\n    function balanceOfStaged(address account) public view returns (uint256) {\n        return _state.accounts[account].staged;\n    }\n\n    function balanceOfClaimable(address account) public view returns (uint256) {\n        return _state.accounts[account].claimable;\n    }\n\n    function balanceOfBonded(address account) public view returns (uint256) {\n        return _state.accounts[account].bonded;\n    }\n\n    function balanceOfPhantom(address account) public view returns (uint256) {\n        return _state.accounts[account].phantom;\n    }\n\n    function balanceOfRewarded(address account) public view returns (uint256) {\n        uint256 totalBonded = totalBonded();\n        if (totalBonded == 0) {\n            return 0;\n        }\n\n        uint256 totalRewardedWithPhantom = totalRewarded().add(totalPhantom());\n        uint256 balanceOfRewardedWithPhantom = totalRewardedWithPhantom\n            .mul(balanceOfBonded(account))\n            .div(totalBonded);\n\n        uint256 balanceOfPhantom = balanceOfPhantom(account);\n        if (balanceOfRewardedWithPhantom > balanceOfPhantom) {\n            return balanceOfRewardedWithPhantom.sub(balanceOfPhantom);\n        }\n        return 0;\n    }\n\n    function fluidUntil(address account) public view returns (uint256) {\n        return _state.accounts[account].fluidUntil;\n    }\n\n    function statusOf(address account) public view returns (PoolAccount.Status) {\n        return epoch() >= _state.accounts[account].fluidUntil ?\n            PoolAccount.Status.Frozen :\n            PoolAccount.Status.Fluid;\n    }\n\n    /**\n     * Epoch\n     */\n\n    function epoch() internal view returns (uint256) {\n        return dao().epoch();\n    }\n}\n",
  "sourcePath": "/Users/cinquemb/Documents/Startups/crypto/dollar/protocol/contracts/oracle/PoolGetters.sol",
  "compiler": {
    "name": "solc",
    "version": "0.5.17+commit.d19bba13.Emscripten.clang"
  },
  "schemaVersion": "3.3.3",
  "updatedAt": "2021-01-12T08:04:50.727Z",
  "devdoc": {
    "methods": {}
  },
  "userdoc": {
    "methods": {
      "balanceOfStaged(address)": {
        "notice": "Account"
      },
      "usdc()": {
        "notice": "Global"
      }
    }
  }
}