{
  "contractName": "Regulator",
  "abi": [
    {
      "anonymous": false,
      "inputs": [
        {
          "indexed": true,
          "internalType": "uint256",
          "name": "epoch",
          "type": "uint256"
        },
        {
          "indexed": false,
          "internalType": "uint256",
          "name": "price",
          "type": "uint256"
        },
        {
          "indexed": false,
          "internalType": "uint256",
          "name": "newDebt",
          "type": "uint256"
        }
      ],
      "name": "SupplyDecrease",
      "type": "event"
    },
    {
      "anonymous": false,
      "inputs": [
        {
          "indexed": true,
          "internalType": "uint256",
          "name": "epoch",
          "type": "uint256"
        },
        {
          "indexed": false,
          "internalType": "uint256",
          "name": "price",
          "type": "uint256"
        },
        {
          "indexed": false,
          "internalType": "uint256",
          "name": "newRedeemable",
          "type": "uint256"
        },
        {
          "indexed": false,
          "internalType": "uint256",
          "name": "lessDebt",
          "type": "uint256"
        },
        {
          "indexed": false,
          "internalType": "uint256",
          "name": "newBonded",
          "type": "uint256"
        }
      ],
      "name": "SupplyIncrease",
      "type": "event"
    },
    {
      "anonymous": false,
      "inputs": [
        {
          "indexed": true,
          "internalType": "uint256",
          "name": "epoch",
          "type": "uint256"
        }
      ],
      "name": "SupplyNeutral",
      "type": "event"
    },
    {
      "anonymous": false,
      "inputs": [
        {
          "indexed": true,
          "internalType": "address",
          "name": "from",
          "type": "address"
        },
        {
          "indexed": true,
          "internalType": "address",
          "name": "to",
          "type": "address"
        },
        {
          "indexed": false,
          "internalType": "uint256",
          "name": "value",
          "type": "uint256"
        }
      ],
      "name": "Transfer",
      "type": "event"
    },
    {
      "constant": true,
      "inputs": [
        {
          "internalType": "address",
          "name": "owner",
          "type": "address"
        },
        {
          "internalType": "address",
          "name": "spender",
          "type": "address"
        }
      ],
      "name": "allowance",
      "outputs": [
        {
          "internalType": "uint256",
          "name": "",
          "type": "uint256"
        }
      ],
      "payable": false,
      "stateMutability": "view",
      "type": "function"
    },
    {
      "constant": true,
      "inputs": [
        {
          "internalType": "address",
          "name": "owner",
          "type": "address"
        },
        {
          "internalType": "address",
          "name": "spender",
          "type": "address"
        }
      ],
      "name": "allowanceCoupons",
      "outputs": [
        {
          "internalType": "uint256",
          "name": "",
          "type": "uint256"
        }
      ],
      "payable": false,
      "stateMutability": "view",
      "type": "function"
    },
    {
      "constant": false,
      "inputs": [
        {
          "internalType": "address",
          "name": "spender",
          "type": "address"
        },
        {
          "internalType": "uint256",
          "name": "amount",
          "type": "uint256"
        }
      ],
      "name": "approve",
      "outputs": [
        {
          "internalType": "bool",
          "name": "",
          "type": "bool"
        }
      ],
      "payable": false,
      "stateMutability": "nonpayable",
      "type": "function"
    },
    {
      "constant": true,
      "inputs": [
        {
          "internalType": "address",
          "name": "candidate",
          "type": "address"
        }
      ],
      "name": "approveFor",
      "outputs": [
        {
          "internalType": "uint256",
          "name": "",
          "type": "uint256"
        }
      ],
      "payable": false,
      "stateMutability": "view",
      "type": "function"
    },
    {
      "constant": true,
      "inputs": [
        {
          "internalType": "address",
          "name": "account",
          "type": "address"
        }
      ],
      "name": "balanceOf",
      "outputs": [
        {
          "internalType": "uint256",
          "name": "",
          "type": "uint256"
        }
      ],
      "payable": false,
      "stateMutability": "view",
      "type": "function"
    },
    {
      "constant": true,
      "inputs": [
        {
          "internalType": "address",
          "name": "account",
          "type": "address"
        }
      ],
      "name": "balanceOfBonded",
      "outputs": [
        {
          "internalType": "uint256",
          "name": "",
          "type": "uint256"
        }
      ],
      "payable": false,
      "stateMutability": "view",
      "type": "function"
    },
    {
      "constant": true,
      "inputs": [
        {
          "internalType": "address",
          "name": "account",
          "type": "address"
        },
        {
          "internalType": "uint256",
          "name": "epoch",
          "type": "uint256"
        }
      ],
      "name": "balanceOfCoupons",
      "outputs": [
        {
          "internalType": "uint256",
          "name": "",
          "type": "uint256"
        }
      ],
      "payable": false,
      "stateMutability": "view",
      "type": "function"
    },
    {
      "constant": true,
      "inputs": [
        {
          "internalType": "address",
          "name": "account",
          "type": "address"
        }
      ],
      "name": "balanceOfStaged",
      "outputs": [
        {
          "internalType": "uint256",
          "name": "",
          "type": "uint256"
        }
      ],
      "payable": false,
      "stateMutability": "view",
      "type": "function"
    },
    {
      "constant": true,
      "inputs": [
        {
          "internalType": "uint256",
          "name": "epoch",
          "type": "uint256"
        }
      ],
      "name": "bootstrappingAt",
      "outputs": [
        {
          "internalType": "bool",
          "name": "",
          "type": "bool"
        }
      ],
      "payable": false,
      "stateMutability": "view",
      "type": "function"
    },
    {
      "constant": true,
      "inputs": [
        {
          "internalType": "uint256",
          "name": "epoch",
          "type": "uint256"
        }
      ],
      "name": "couponsExpiration",
      "outputs": [
        {
          "internalType": "uint256",
          "name": "",
          "type": "uint256"
        }
      ],
      "payable": false,
      "stateMutability": "view",
      "type": "function"
    },
    {
      "constant": true,
      "inputs": [],
      "name": "decimals",
      "outputs": [
        {
          "internalType": "uint8",
          "name": "",
          "type": "uint8"
        }
      ],
      "payable": false,
      "stateMutability": "view",
      "type": "function"
    },
    {
      "constant": true,
      "inputs": [],
      "name": "dollar",
      "outputs": [
        {
          "internalType": "contract IDollar",
          "name": "",
          "type": "address"
        }
      ],
      "payable": false,
      "stateMutability": "view",
      "type": "function"
    },
    {
      "constant": true,
      "inputs": [],
      "name": "epoch",
      "outputs": [
        {
          "internalType": "uint256",
          "name": "",
          "type": "uint256"
        }
      ],
      "payable": false,
      "stateMutability": "view",
      "type": "function"
    },
    {
      "constant": true,
      "inputs": [],
      "name": "epochTime",
      "outputs": [
        {
          "internalType": "uint256",
          "name": "",
          "type": "uint256"
        }
      ],
      "payable": false,
      "stateMutability": "view",
      "type": "function"
    },
    {
      "constant": true,
      "inputs": [
        {
          "internalType": "uint256",
          "name": "epoch",
          "type": "uint256"
        }
      ],
      "name": "expiringCoupons",
      "outputs": [
        {
          "internalType": "uint256",
          "name": "",
          "type": "uint256"
        }
      ],
      "payable": false,
      "stateMutability": "view",
      "type": "function"
    },
    {
      "constant": true,
      "inputs": [
        {
          "internalType": "uint256",
          "name": "epoch",
          "type": "uint256"
        },
        {
          "internalType": "uint256",
          "name": "i",
          "type": "uint256"
        }
      ],
      "name": "expiringCouponsAtIndex",
      "outputs": [
        {
          "internalType": "uint256",
          "name": "",
          "type": "uint256"
        }
      ],
      "payable": false,
      "stateMutability": "view",
      "type": "function"
    },
    {
      "constant": true,
      "inputs": [
        {
          "internalType": "address",
          "name": "account",
          "type": "address"
        }
      ],
      "name": "fluidUntil",
      "outputs": [
        {
          "internalType": "uint256",
          "name": "",
          "type": "uint256"
        }
      ],
      "payable": false,
      "stateMutability": "view",
      "type": "function"
    },
    {
      "constant": true,
      "inputs": [
        {
          "internalType": "uint256",
          "name": "epoch",
          "type": "uint256"
        }
      ],
      "name": "getAvgExpiryFilled",
      "outputs": [
        {
          "internalType": "uint256",
          "name": "",
          "type": "uint256"
        }
      ],
      "payable": false,
      "stateMutability": "view",
      "type": "function"
    },
    {
      "constant": true,
      "inputs": [
        {
          "internalType": "uint256",
          "name": "epoch",
          "type": "uint256"
        }
      ],
      "name": "getAvgYieldFilled",
      "outputs": [
        {
          "internalType": "uint256",
          "name": "",
          "type": "uint256"
        }
      ],
      "payable": false,
      "stateMutability": "view",
      "type": "function"
    },
    {
      "constant": true,
      "inputs": [
        {
          "internalType": "uint256",
          "name": "epoch",
          "type": "uint256"
        }
      ],
      "name": "getBidToCover",
      "outputs": [
        {
          "internalType": "uint256",
          "name": "",
          "type": "uint256"
        }
      ],
      "payable": false,
      "stateMutability": "view",
      "type": "function"
    },
    {
      "constant": true,
      "inputs": [
        {
          "internalType": "uint256",
          "name": "epoch",
          "type": "uint256"
        }
      ],
      "name": "getMaxExpiryFilled",
      "outputs": [
        {
          "internalType": "uint256",
          "name": "",
          "type": "uint256"
        }
      ],
      "payable": false,
      "stateMutability": "view",
      "type": "function"
    },
    {
      "constant": true,
      "inputs": [
        {
          "internalType": "uint256",
          "name": "epoch",
          "type": "uint256"
        }
      ],
      "name": "getMaxYieldFilled",
      "outputs": [
        {
          "internalType": "uint256",
          "name": "",
          "type": "uint256"
        }
      ],
      "payable": false,
      "stateMutability": "view",
      "type": "function"
    },
    {
      "constant": true,
      "inputs": [
        {
          "internalType": "uint256",
          "name": "epoch",
          "type": "uint256"
        }
      ],
      "name": "getMinExpiryFilled",
      "outputs": [
        {
          "internalType": "uint256",
          "name": "",
          "type": "uint256"
        }
      ],
      "payable": false,
      "stateMutability": "view",
      "type": "function"
    },
    {
      "constant": true,
      "inputs": [
        {
          "internalType": "uint256",
          "name": "epoch",
          "type": "uint256"
        }
      ],
      "name": "getMinYieldFilled",
      "outputs": [
        {
          "internalType": "uint256",
          "name": "",
          "type": "uint256"
        }
      ],
      "payable": false,
      "stateMutability": "view",
      "type": "function"
    },
    {
      "constant": true,
      "inputs": [
        {
          "internalType": "uint256",
          "name": "epoch",
          "type": "uint256"
        }
      ],
      "name": "getTotalAuctioned",
      "outputs": [
        {
          "internalType": "uint256",
          "name": "",
          "type": "uint256"
        }
      ],
      "payable": false,
      "stateMutability": "view",
      "type": "function"
    },
    {
      "constant": true,
      "inputs": [
        {
          "internalType": "uint256",
          "name": "epoch",
          "type": "uint256"
        }
      ],
      "name": "getTotalBurned",
      "outputs": [
        {
          "internalType": "uint256",
          "name": "",
          "type": "uint256"
        }
      ],
      "payable": false,
      "stateMutability": "view",
      "type": "function"
    },
    {
      "constant": true,
      "inputs": [
        {
          "internalType": "uint256",
          "name": "epoch",
          "type": "uint256"
        }
      ],
      "name": "getTotalFilled",
      "outputs": [
        {
          "internalType": "uint256",
          "name": "",
          "type": "uint256"
        }
      ],
      "payable": false,
      "stateMutability": "view",
      "type": "function"
    },
    {
      "constant": true,
      "inputs": [],
      "name": "implementation",
      "outputs": [
        {
          "internalType": "address",
          "name": "impl",
          "type": "address"
        }
      ],
      "payable": false,
      "stateMutability": "view",
      "type": "function"
    },
    {
      "constant": true,
      "inputs": [
        {
          "internalType": "address",
          "name": "candidate",
          "type": "address"
        }
      ],
      "name": "isInitialized",
      "outputs": [
        {
          "internalType": "bool",
          "name": "",
          "type": "bool"
        }
      ],
      "payable": false,
      "stateMutability": "view",
      "type": "function"
    },
    {
      "constant": true,
      "inputs": [
        {
          "internalType": "address",
          "name": "candidate",
          "type": "address"
        }
      ],
      "name": "isNominated",
      "outputs": [
        {
          "internalType": "bool",
          "name": "",
          "type": "bool"
        }
      ],
      "payable": false,
      "stateMutability": "view",
      "type": "function"
    },
    {
      "constant": true,
      "inputs": [
        {
          "internalType": "address",
          "name": "account",
          "type": "address"
        }
      ],
      "name": "lockedUntil",
      "outputs": [
        {
          "internalType": "uint256",
          "name": "",
          "type": "uint256"
        }
      ],
      "payable": false,
      "stateMutability": "view",
      "type": "function"
    },
    {
      "constant": true,
      "inputs": [],
      "name": "name",
      "outputs": [
        {
          "internalType": "string",
          "name": "",
          "type": "string"
        }
      ],
      "payable": false,
      "stateMutability": "view",
      "type": "function"
    },
    {
      "constant": true,
      "inputs": [],
      "name": "oracle",
      "outputs": [
        {
          "internalType": "contract IOracle",
          "name": "",
          "type": "address"
        }
      ],
      "payable": false,
      "stateMutability": "view",
      "type": "function"
    },
    {
      "constant": true,
      "inputs": [
        {
          "internalType": "uint256",
          "name": "epoch",
          "type": "uint256"
        }
      ],
      "name": "outstandingCoupons",
      "outputs": [
        {
          "internalType": "uint256",
          "name": "",
          "type": "uint256"
        }
      ],
      "payable": false,
      "stateMutability": "view",
      "type": "function"
    },
    {
      "constant": true,
      "inputs": [
        {
          "internalType": "address",
          "name": "candidate",
          "type": "address"
        }
      ],
      "name": "periodFor",
      "outputs": [
        {
          "internalType": "uint256",
          "name": "",
          "type": "uint256"
        }
      ],
      "payable": false,
      "stateMutability": "view",
      "type": "function"
    },
    {
      "constant": true,
      "inputs": [],
      "name": "pool",
      "outputs": [
        {
          "internalType": "address",
          "name": "",
          "type": "address"
        }
      ],
      "payable": false,
      "stateMutability": "view",
      "type": "function"
    },
    {
      "constant": true,
      "inputs": [
        {
          "internalType": "address",
          "name": "account",
          "type": "address"
        },
        {
          "internalType": "address",
          "name": "candidate",
          "type": "address"
        }
      ],
      "name": "recordedVote",
      "outputs": [
        {
          "internalType": "enum Candidate.Vote",
          "name": "",
          "type": "uint8"
        }
      ],
      "payable": false,
      "stateMutability": "view",
      "type": "function"
    },
    {
      "constant": true,
      "inputs": [
        {
          "internalType": "address",
          "name": "candidate",
          "type": "address"
        }
      ],
      "name": "rejectFor",
      "outputs": [
        {
          "internalType": "uint256",
          "name": "",
          "type": "uint256"
        }
      ],
      "payable": false,
      "stateMutability": "view",
      "type": "function"
    },
    {
      "constant": true,
      "inputs": [
        {
          "internalType": "address",
          "name": "candidate",
          "type": "address"
        }
      ],
      "name": "startFor",
      "outputs": [
        {
          "internalType": "uint256",
          "name": "",
          "type": "uint256"
        }
      ],
      "payable": false,
      "stateMutability": "view",
      "type": "function"
    },
    {
      "constant": true,
      "inputs": [
        {
          "internalType": "address",
          "name": "account",
          "type": "address"
        }
      ],
      "name": "statusOf",
      "outputs": [
        {
          "internalType": "enum Account.Status",
          "name": "",
          "type": "uint8"
        }
      ],
      "payable": false,
      "stateMutability": "view",
      "type": "function"
    },
    {
      "constant": true,
      "inputs": [],
      "name": "symbol",
      "outputs": [
        {
          "internalType": "string",
          "name": "",
          "type": "string"
        }
      ],
      "payable": false,
      "stateMutability": "view",
      "type": "function"
    },
    {
      "constant": true,
      "inputs": [],
      "name": "totalBonded",
      "outputs": [
        {
          "internalType": "uint256",
          "name": "",
          "type": "uint256"
        }
      ],
      "payable": false,
      "stateMutability": "view",
      "type": "function"
    },
    {
      "constant": true,
      "inputs": [
        {
          "internalType": "uint256",
          "name": "epoch",
          "type": "uint256"
        }
      ],
      "name": "totalBondedAt",
      "outputs": [
        {
          "internalType": "uint256",
          "name": "",
          "type": "uint256"
        }
      ],
      "payable": false,
      "stateMutability": "view",
      "type": "function"
    },
    {
      "constant": true,
      "inputs": [],
      "name": "totalCoupons",
      "outputs": [
        {
          "internalType": "uint256",
          "name": "",
          "type": "uint256"
        }
      ],
      "payable": false,
      "stateMutability": "view",
      "type": "function"
    },
    {
      "constant": true,
      "inputs": [],
      "name": "totalDebt",
      "outputs": [
        {
          "internalType": "uint256",
          "name": "",
          "type": "uint256"
        }
      ],
      "payable": false,
      "stateMutability": "view",
      "type": "function"
    },
    {
      "constant": true,
      "inputs": [],
      "name": "totalNet",
      "outputs": [
        {
          "internalType": "uint256",
          "name": "",
          "type": "uint256"
        }
      ],
      "payable": false,
      "stateMutability": "view",
      "type": "function"
    },
    {
      "constant": true,
      "inputs": [],
      "name": "totalRedeemable",
      "outputs": [
        {
          "internalType": "uint256",
          "name": "",
          "type": "uint256"
        }
      ],
      "payable": false,
      "stateMutability": "view",
      "type": "function"
    },
    {
      "constant": true,
      "inputs": [],
      "name": "totalStaged",
      "outputs": [
        {
          "internalType": "uint256",
          "name": "",
          "type": "uint256"
        }
      ],
      "payable": false,
      "stateMutability": "view",
      "type": "function"
    },
    {
      "constant": true,
      "inputs": [],
      "name": "totalSupply",
      "outputs": [
        {
          "internalType": "uint256",
          "name": "",
          "type": "uint256"
        }
      ],
      "payable": false,
      "stateMutability": "view",
      "type": "function"
    },
    {
      "constant": false,
      "inputs": [
        {
          "internalType": "address",
          "name": "recipient",
          "type": "address"
        },
        {
          "internalType": "uint256",
          "name": "amount",
          "type": "uint256"
        }
      ],
      "name": "transfer",
      "outputs": [
        {
          "internalType": "bool",
          "name": "",
          "type": "bool"
        }
      ],
      "payable": false,
      "stateMutability": "nonpayable",
      "type": "function"
    },
    {
      "constant": false,
      "inputs": [
        {
          "internalType": "address",
          "name": "sender",
          "type": "address"
        },
        {
          "internalType": "address",
          "name": "recipient",
          "type": "address"
        },
        {
          "internalType": "uint256",
          "name": "amount",
          "type": "uint256"
        }
      ],
      "name": "transferFrom",
      "outputs": [
        {
          "internalType": "bool",
          "name": "",
          "type": "bool"
        }
      ],
      "payable": false,
      "stateMutability": "nonpayable",
      "type": "function"
    },
    {
      "constant": true,
      "inputs": [
        {
          "internalType": "address",
          "name": "candidate",
          "type": "address"
        }
      ],
      "name": "votesFor",
      "outputs": [
        {
          "internalType": "uint256",
          "name": "",
          "type": "uint256"
        }
      ],
      "payable": false,
      "stateMutability": "view",
      "type": "function"
    }
  ],
  "bytecode": "0x608060405260006010556000601155600060125560006013556000601455600060155560001960165561003a61006560201b61118b1760201c565b5160175560408051602081019091526000199081905260185534801561005f57600080fd5b50610093565b61006d610080565b5060408051602081019091526000815290565b6040518060200160405280600081525090565b6111fc806100a26000396000f3fe608060405234801561001057600080fd5b506004361061030c5760003560e01c80637dc0d1d01161019d578063bc7513e2116100e9578063d60b347f116100a2578063eeaca09b1161007c578063eeaca09b14610648578063f1b7cf491461065b578063fc7b9c181461066e578063ffbe3b73146106765761030c565b8063d60b347f14610614578063dd62ed3e14610627578063dde74dc3146106355761030c565b8063bc7513e2146105ad578063c34eee65146105c0578063c9aff70c146105d3578063cb0fbc71146105e6578063cf023779146105f9578063d53c6f5f146106015761030c565b80639a649edc116101565780639f6e1b26116101305780639f6e1b261461057f578063a50cd8e714610592578063a6c409f1146105a5578063a9059cbb1461032f5761030c565b80639a649edc146105515780639bc289f1146105595780639f1a09291461056c5761030c565b80637dc0d1d014610500578063825ad6071461050857806386cf9f141461051b578063900cf0cf1461052e57806395d89b411461053657806397a5d5b51461053e5761030c565b80633fbba9a61161025c578063520acb76116102155780636a39e328116101ef5780636a39e328146104b457806370a08231146104c757806375d5024b146104da5780637d8bb869146104ed5761030c565b8063520acb76146104865780635c60da1b1461049957806364668022146104a15761030c565b80633fbba9a61461041b57806344d96e951461043b5780634c736099146104435780635053e4611461045657806351adeb571461045e57806351bf21d8146104735761030c565b80631edbcf6c116102c9578063313ce567116102a3578063313ce567146103cd578063353a420c146103e25780633a3e6c81146103f55780633dc905c7146104085761030c565b80631edbcf6c1461039f57806323b872dd146103a75780632d7f23b3146103ba5761030c565b806306fdde0314610311578063095ea7b31461032f57806310e95b6c1461034f57806315e14bf61461036f57806316f0115b1461038257806318160ddd14610397575b600080fd5b610319610689565b6040516103269190611088565b60405180910390f35b61034261033d366004610ed5565b6106c0565b604051610326919061105e565b61036261035d366004610f05565b6106c9565b60405161032691906110b9565b61036261037d366004610e28565b6106e1565b61038a6106ff565b6040516103269190611050565b61036261070e565b610362610714565b6103426103b5366004610e88565b61071a565b6103626103c8366004610f05565b610723565b6103d5610738565b60405161032691906110c7565b6103626103f0366004610e28565b61073d565b610342610403366004610e28565b61075b565b610362610416366004610f05565b610778565b61042e610429366004610e4e565b61078d565b604051610326919061107a565b6103626107c0565b610362610451366004610f41565b6107c6565b6103626107f6565b610466610819565b604051610326919061106c565b610362610481366004610e28565b610828565b610362610494366004610f05565b610846565b61038a61085b565b6103626104af366004610e28565b610880565b6103626104c2366004610f05565b61089e565b6103626104d5366004610e28565b6108b3565b6103426104e8366004610f05565b6108d1565b6103626104fb366004610f05565b6108e4565b6104666108f9565b610362610516366004610e28565b610908565b610362610529366004610e28565b61095b565b610362610976565b61031961097c565b61042e61054c366004610e28565b61099a565b6103626109ff565b610362610567366004610e28565b610a05565b61036261057a366004610f05565b610a23565b61036261058d366004610e4e565b610a39565b6103626105a0366004610e28565b610a68565b610362610a8b565b6103626105bb366004610ed5565b610b21565b6103626105ce366004610f05565b610b65565b6103626105e1366004610f05565b610b7a565b6103626105f4366004610f05565b610b8f565b610362610ba4565b61036261060f366004610f05565b610baa565b610342610622366004610e28565b610bbf565b61036261033d366004610e4e565b610362610643366004610f05565b610be0565b610362610656366004610f05565b610bf5565b610362610669366004610e28565b610c0a565b610362610c25565b610362610684366004610f05565b610c2b565b60408051808201909152601881527f44796e616d69632053657420446f6c6c6172205374616b650000000000000000602082015290565b60005b92915050565b6000818152600d60205260409020600201545b919050565b6001600160a01b03166000908152600e602052604090206001015490565b600b546001600160a01b031690565b60035490565b60065490565b60009392505050565b6000908152600d60205260409020600a015490565b601290565b6001600160a01b03166000908152600e602052604090206003015490565b6001600160a01b03166000908152600e6020526040902054151590565b6000908152600d60205260409020600e015490565b6001600160a01b038082166000908152600e60209081526040808320938616835260049093019052205460ff1692915050565b60045490565b6000828152600d602052604081206003018054839081106107e357fe5b9060005260206000200154905092915050565b6000610800610de6565b610808610c3d565b905061081381610c6c565b91505090565b6009546001600160a01b031690565b6001600160a01b03166000908152600c602052604090206004015490565b6000908152600d602052604090206010015490565b7f360894a13ba1a3210667c828492db98dca3e2076cc3735a920a3ca505d382bbc5490565b6001600160a01b03166000908152600e602052604090206002015490565b6000908152600d602052604090206003015490565b6001600160a01b03166000908152600c602052604090206001015490565b60006108db610c8e565b90911115919050565b6000908152600d602052604090206012015490565b600a546001600160a01b031690565b60008061091361070e565b9050806109245760009150506106dc565b61095481610948610934866108b3565b61093c6107c0565b9063ffffffff610c9316565b9063ffffffff610cd616565b9392505050565b6001600160a01b03166000908152600c602052604090205490565b60025490565b6040805180820190915260048152634453445360e01b602082015290565b60006109a4610976565b6001600160a01b0383166000908152600c602052604090206005015411156109ce575060026106dc565b6001600160a01b0382166000908152600c60205260409020600401546109f2610976565b10156106c05760016106c3565b60085490565b6001600160a01b03166000908152600c602052604090206005015490565b6000908152600d60208190526040909120015490565b6001600160a01b039182166000908152600c602090815260408083209390941682526003909201909152205490565b60006106c3610a768361073d565b610a7f84610880565b9063ffffffff610d1816565b6000610b1c610a98610c25565b610aa0610819565b6001600160a01b03166318160ddd6040518163ffffffff1660e01b815260040160206040518083038186803b158015610ad857600080fd5b505afa158015610aec573d6000803e3d6000fd5b505050506040513d601f19601f82011682018060405250610b109190810190610f23565b9063ffffffff610d3d16565b905090565b6000610b2c82610b7a565b610b38575060006106c3565b506001600160a01b03919091166000908152600c6020908152604080832093835260029093019052205490565b6000908152600d602052604090206011015490565b6000908152600d602052604090206001015490565b6000908152600d602052604090206013015490565b60055490565b6000908152600d60205260409020600f015490565b6001600160a01b03166000908152600e602052604090206005015460ff1690565b6000908152600d60205260409020600c015490565b6000908152600d60205260409020600b015490565b6001600160a01b03166000908152600e602052604090205490565b60075490565b6000908152600d602052604090205490565b610c45610de6565b604051806060016040528060008152602001635fbef0008152602001611c20815250905090565b60006106c38260000151610a7f84604001516109488660200151610b10610d7f565b609690565b600082610ca2575060006106c3565b82820282848281610caf57fe5b04146109545760405162461bcd60e51b8152600401610ccd906110a9565b60405180910390fd5b600061095483836040518060400160405280601a81526020017f536166654d6174683a206469766973696f6e206279207a65726f000000000000815250610d83565b6000828201838110156109545760405162461bcd60e51b8152600401610ccd90611099565b600061095483836040518060400160405280601e81526020017f536166654d6174683a207375627472616374696f6e206f766572666c6f770000815250610dba565b4290565b60008183610da45760405162461bcd60e51b8152600401610ccd9190611088565b506000838581610db057fe5b0495945050505050565b60008184841115610dde5760405162461bcd60e51b8152600401610ccd9190611088565b505050900390565b60405180606001604052806000815260200160008152602001600081525090565b80356106c38161116e565b80356106c381611182565b80516106c381611182565b600060208284031215610e3a57600080fd5b6000610e468484610e07565b949350505050565b60008060408385031215610e6157600080fd5b6000610e6d8585610e07565b9250506020610e7e85828601610e07565b9150509250929050565b600080600060608486031215610e9d57600080fd5b6000610ea98686610e07565b9350506020610eba86828701610e07565b9250506040610ecb86828701610e12565b9150509250925092565b60008060408385031215610ee857600080fd5b6000610ef48585610e07565b9250506020610e7e85828601610e12565b600060208284031215610f1757600080fd5b6000610e468484610e12565b600060208284031215610f3557600080fd5b6000610e468484610e1d565b60008060408385031215610f5457600080fd5b6000610ef48585610e12565b610f69816110e2565b82525050565b610f69816110ed565b610f6981611111565b610f698161111c565b6000610f95826110d5565b610f9f81856110d9565b9350610faf818560208601611127565b610fb881611157565b9093019392505050565b6000610fcf601b836110d9565b7f536166654d6174683a206164646974696f6e206f766572666c6f770000000000815260200192915050565b60006110086021836110d9565b7f536166654d6174683a206d756c7469706c69636174696f6e206f766572666c6f8152607760f81b602082015260400192915050565b610f6981611108565b610f698161110b565b602081016106c38284610f60565b602081016106c38284610f6f565b602081016106c38284610f78565b602081016106c38284610f81565b602080825281016109548184610f8a565b602080825281016106c381610fc2565b602080825281016106c381610ffb565b602081016106c3828461103e565b602081016106c38284611047565b5190565b90815260200190565b60006106c3826110fc565b151590565b806106dc81611161565b6001600160a01b031690565b90565b60ff1690565b60006106c3826110e2565b60006106c3826110f2565b60005b8381101561114257818101518382015260200161112a565b83811115611151576000848401525b50505050565b601f01601f191690565b6003811061116b57fe5b50565b611177816110e2565b811461116b57600080fd5b61117781611108565b6111936111a6565b5060408051602081019091526000815290565b604051806020016040528060008152509056fea365627a7a72315820de50fb250e7fb600f64de235de2ca5b1873e42753a6e32f09f80dcc2ebece03e6c6578706572696d656e74616cf564736f6c63430005110040",
  "source": "/*\n    Copyright 2020 Dynamic Dollar Devs, based on the works of the Empty Set Squad\n\n    Licensed under the Apache License, Version 2.0 (the \"License\");\n    you may not use this file except in compliance with the License.\n    You may obtain a copy of the License at\n\n    http://www.apache.org/licenses/LICENSE-2.0\n\n    Unless required by applicable law or agreed to in writing, software\n    distributed under the License is distributed on an \"AS IS\" BASIS,\n    WITHOUT WARRANTIES OR CONDITIONS OF ANY KIND, either express or implied.\n    See the License for the specific language governing permissions and\n    limitations under the License.\n*/\n\npragma solidity ^0.5.17;\npragma experimental ABIEncoderV2;\n\nimport \"@openzeppelin/contracts/math/SafeMath.sol\";\nimport \"./Comptroller.sol\";\nimport \"../external/Decimal.sol\";\nimport \"../Constants.sol\";\n\ncontract Regulator is Comptroller {\n    using SafeMath for uint256;\n    using Decimal for Decimal.D256;\n\n    bytes32 private constant FILE = \"Regulator\";\n    Epoch.CouponBidderState[] private bids;\n    uint256 private totalFilled = 0;\n    uint256 private totalBurned = 0;\n    uint256 private totalAuctioned = 0;\n    uint256 private maxExpiryFilled = 0;\n    uint256 private sumExpiryFilled = 0;\n    uint256 private sumYieldFilled = 0;\n    uint256 private minExpiryFilled = 2**256 - 1;\n    Decimal.D256 private maxYieldFilled = Decimal.zero();\n    Decimal.D256 private minYieldFilled = Decimal.D256(2**256 - 1);\n\n    event SupplyIncrease(uint256 indexed epoch, uint256 price, uint256 newRedeemable, uint256 lessDebt, uint256 newBonded);\n    event SupplyDecrease(uint256 indexed epoch, uint256 price, uint256 newDebt);\n    event SupplyNeutral(uint256 indexed epoch);\n\n    function step() internal {\n        Decimal.D256 memory price = oracleCapture();\n\n        //need to check previous epoch because by the time the Regulator.step function is fired, Bonding.step may have already incremented the epoch\n        Epoch.AuctionState storage auction = getCouponAuctionAtEpoch(epoch() - 1);\n\n        if (price.greaterThan(Decimal.one())) {\n            setDebtToZero();\n\n            //check for outstanding auction, if exists cancel it\n            if (auction.isInit == true){\n                cancelCouponAuctionAtEpoch(epoch() - 1);\n            }\n\n            growSupply(price);\n            return;\n        }\n\n        if (price.lessThan(Decimal.one())) {\n            //check for outstanding auction, if exists settle it and start a new one\n            if (auction.isInit == true){\n                bool isAuctionSettled = settleCouponAuction();\n                finishCouponAuctionAtEpoch(epoch() - 1);\n            }\n            initCouponAuction();\n            \n            shrinkSupply(price);\n            return;\n        }\n\n        emit SupplyNeutral(epoch());\n    }\n\n    function shrinkSupply(Decimal.D256 memory price) private {\n        Decimal.D256 memory delta = limit(Decimal.one().sub(price).div(Constants.getNegativeSupplyChangeDivisor()), price);\n        uint256 newDebt = delta.mul(totalNet()).asUint256();\n        increaseDebt(newDebt);\n\n        emit SupplyDecrease(epoch(), price.value, newDebt);\n        return;\n    }\n\n    function growSupply(Decimal.D256 memory price) private {\n        Decimal.D256 memory supplyChangeDivisor = Constants.getSupplyChangeDivisor();\n\n        uint256 totalRedeemable = totalRedeemable();\n        uint256 totalCoupons = totalCoupons();\n        if (totalRedeemable < totalCoupons) {\n            supplyChangeDivisor = Constants.getCouponSupplyChangeDivisor();\n        }\n\n        Decimal.D256 memory delta = limit(price.sub(Decimal.one()).div(supplyChangeDivisor), price);\n        uint256 newSupply = delta.mul(totalNet()).asUint256();\n        (uint256 newRedeemable, uint256 lessDebt, uint256 newBonded) = increaseSupply(newSupply);\n        emit SupplyIncrease(epoch(), price.value, newRedeemable, lessDebt, newBonded);\n    }\n\n    function limit(Decimal.D256 memory delta, Decimal.D256 memory price) private view returns (Decimal.D256 memory) {\n        Decimal.D256 memory supplyChangeLimit = Constants.getSupplyChangeLimit();\n        \n        uint256 totalRedeemable = totalRedeemable();\n        uint256 totalCoupons = totalCoupons();\n        if (price.greaterThan(Decimal.one()) && (totalRedeemable < totalCoupons)) {\n            supplyChangeLimit = Constants.getCouponSupplyChangeLimit();\n        }\n\n        return delta.greaterThan(supplyChangeLimit) ? supplyChangeLimit : delta;\n    }\n\n    function oracleCapture() private returns (Decimal.D256 memory) {\n        (Decimal.D256 memory price, bool valid) = oracle().capture();\n\n        if (bootstrappingAt(epoch().sub(1))) {\n            return Constants.getBootstrappingPrice();\n        }\n        if (!valid) {\n            return Decimal.one();\n        }\n\n        return price;\n    }    \n\n    function sortBidsByDistance(Epoch.CouponBidderState[] storage bids) internal returns(Epoch.CouponBidderState[] storage) {\n       quickSort(bids, int(0), int(bids.length - 1));\n       return bids;\n    }\n    \n    function quickSort(Epoch.CouponBidderState[] memory arr, int left, int right) internal {\n        int i = left;\n        int j = right;\n        if(i==j) return;\n        Decimal.D256 memory pivot = arr[uint256(left + (right - left) / 2)].distance;\n        while (i <= j) {\n            while (arr[uint256(i)].distance.lessThan(pivot)) i++;\n            while (pivot.lessThan(arr[uint256(j)].distance)) j--;\n            if (i <= j) {\n                (arr[uint256(i)], arr[uint256(j)]) = (arr[uint256(j)], arr[uint256(i)]);\n                i++;\n                j--;\n            }\n        }\n        if (left < j)\n            quickSort(arr, left, j);\n        if (i < right)\n            quickSort(arr, i, right);\n    }\n\n    function sqrt(Decimal.D256 memory x) internal pure returns (Decimal.D256 memory y) {\n        Decimal.D256 memory z = x.add(1).div(2);\n        y = x;\n        while (z.lessThan(y)) {\n            y = z;\n            z = x.div(z.add(z)).div(2);\n        }\n        return y;\n    }\n\n    function settleCouponAuction() internal returns (bool success) {\n        if (!isCouponAuctionFinished() && !isCouponAuctionCanceled()) {\n            uint256 yieldRelNorm = getCouponAuctionMaxYield() - getCouponAuctionMinYield();\n            uint256 expiryRelNorm = getCouponAuctionMaxExpiry() - getCouponAuctionMinExpiry();    \n            uint256 dollarRelNorm = getCouponAuctionMaxDollarAmount() - getCouponAuctionMinDollarAmount();\n            \n            // loop over bids and compute distance\n            for (uint256 i = 0; i < getCouponAuctionBids(); i++) {\n                Epoch.CouponBidderState storage bidder = getCouponBidderState(getCouponBidderStateIndex(i));\n                Decimal.D256 memory yieldRel = Decimal.ratio(\n                    Decimal.ratio(\n                        bidder.couponAmount,\n                        bidder.dollarAmount\n                    ).asUint256(),\n                    yieldRelNorm\n                );\n                \n                Decimal.D256 memory expiryRel = Decimal.ratio(\n                    bidder.couponExpiryEpoch,\n                    expiryRelNorm\n                );\n                \n                Decimal.D256 memory dollarRelMax = Decimal.ratio(\n                    bidder.dollarAmount,\n                    dollarRelNorm\n                );\n                Decimal.D256 memory dollarRel = (Decimal.one().add(Decimal.one())).sub(dollarRelMax);\n\n                Decimal.D256 memory yieldRelSquared = yieldRel.pow(2);\n                Decimal.D256 memory expiryRelSquared = expiryRel.pow(2);\n                Decimal.D256 memory dollarRelSquared = dollarRel.pow(2);\n\n                Decimal.D256 memory sumOfSquared = yieldRelSquared.add(expiryRelSquared).add(dollarRelSquared);\n                Decimal.D256 memory distance;\n                if (sumOfSquared.greaterThan(Decimal.zero())) {\n                    distance = sqrt(sumOfSquared);\n                } else {\n                    distance = Decimal.zero();\n                }\n\n                setCouponBidderStateDistance(getCouponBidderStateIndex(i), distance);\n                bidder = getCouponBidderState(getCouponBidderStateIndex(i));\n                bids.push(bidder);\n            }\n\n            \n            // sort bids\n            bids = sortBidsByDistance(bids);\n\n            // assign coupons until totalDebt filled, reject the rest\n            for (uint256 i = 0; i < bids.length; i++) {\n                if (totalDebt() >= bids[i].dollarAmount) {\n                    if (!getCouponBidderStateRejected(bids[i].bidder) && !getCouponBidderStateRejected(bids[i].bidder)) {\n                        Decimal.D256 memory yield = Decimal.ratio(\n                            bids[i].couponAmount,\n                            bids[i].dollarAmount\n                        );\n\n                        //must check again if account is able to be assigned\n                        if (acceptableBidCheck(bids[i].bidder, bids[i].dollarAmount)){\n                            if (yield.lessThan(minYieldFilled)) {\n                                minYieldFilled = yield;\n                            } else if (yield.greaterThan(maxYieldFilled)) {\n                                maxYieldFilled = yield;\n                            }\n\n                            if (bids[i].couponExpiryEpoch < minExpiryFilled) {\n                                minExpiryFilled = bids[i].couponExpiryEpoch;\n                            } else if (bids[i].couponExpiryEpoch > maxExpiryFilled) {\n                                maxExpiryFilled = bids[i].couponExpiryEpoch;\n                            }\n                            \n                            sumYieldFilled += yield.asUint256();\n                            sumExpiryFilled += bids[i].couponExpiryEpoch;\n                            totalAuctioned += bids[i].couponAmount;\n                            totalBurned += bids[i].dollarAmount;\n                            \n                            uint256 epoch = epoch().add(bids[i].couponExpiryEpoch);\n                            burnFromAccount(bids[i].bidder, bids[i].dollarAmount);\n                            incrementBalanceOfCoupons(bids[i].bidder, epoch, bids[i].couponAmount);\n                            setCouponBidderStateSelected(bids[i].bidder, i);\n                            totalFilled++;\n                        } else {\n                            setCouponBidderStateRejected(bids[i].bidder);\n                        }\n                    }\n                } else {\n                    /* setCouponBidderStateRejected(bids[i].bidder); or just break and close the auction */\n                    break;\n                } \n            }\n\n            // set auction internals\n            if (totalFilled > 0) {\n                Decimal.D256 memory avgYieldFilled = Decimal.ratio(\n                    sumYieldFilled,\n                    totalFilled\n                );\n                Decimal.D256 memory avgExpiryFilled = Decimal.ratio(\n                    sumExpiryFilled,\n                    totalFilled\n                );\n\n                //mul(100) to avoid sub 0 results\n                Decimal.D256 memory bidToCover = Decimal.ratio(\n                    bids.length,\n                    totalFilled\n                ).mul(100);\n\n                setMinExpiryFilled(minExpiryFilled);\n                setMaxExpiryFilled(maxExpiryFilled);\n                setAvgExpiryFilled(avgExpiryFilled.asUint256());\n                setMinYieldFilled(minYieldFilled.asUint256());\n                setMaxYieldFilled(maxYieldFilled.asUint256());\n                setAvgYieldFilled(avgYieldFilled.asUint256());\n                setBidToCover(bidToCover.asUint256());\n                setTotalFilled(totalFilled);\n                setTotalAuctioned(totalAuctioned);\n                setTotalBurned(totalBurned);\n            }\n\n            //clear bids and reset vars\n            delete bids;\n            totalFilled = 0;\n            totalBurned = 0;\n            totalAuctioned = 0;\n            maxExpiryFilled = 0;\n            sumExpiryFilled = 0;\n            sumYieldFilled = 0;\n            minExpiryFilled = 2**256 - 1;\n            maxYieldFilled = Decimal.zero();\n            minYieldFilled = Decimal.D256(2**256 - 1);\n\n            return true;\n        } else {\n            return false;\n        }        \n    }\n}\n",
  "sourcePath": "/Users/cinquemb/Documents/Startups/crypto/dollar/protocol/contracts/dao/Regulator.sol",
  "compiler": {
    "name": "solc",
    "version": "0.5.17+commit.d19bba13.Emscripten.clang"
  },
  "schemaVersion": "3.3.3",
  "updatedAt": "2021-01-13T13:26:25.420Z",
  "devdoc": {
    "methods": {}
  },
  "userdoc": {
    "methods": {
      "balanceOfStaged(address)": {
        "notice": "Account"
      },
      "dollar()": {
        "notice": "Global"
      },
      "epoch()": {
        "notice": "Epoch"
      },
      "name()": {
        "notice": "ERC20 Interface"
      },
      "recordedVote(address,address)": {
        "notice": "Governance"
      },
      "transfer(address,uint256)": {
        "notice": "ERC20 Interface"
      }
    }
  }
}