{
  "contractName": "Regulator",
  "abi": [
    {
      "anonymous": false,
      "inputs": [
        {
          "indexed": true,
          "internalType": "uint256",
          "name": "epoch",
          "type": "uint256"
        },
        {
          "indexed": false,
          "internalType": "uint256",
          "name": "price",
          "type": "uint256"
        },
        {
          "indexed": false,
          "internalType": "uint256",
          "name": "newDebt",
          "type": "uint256"
        }
      ],
      "name": "SupplyDecrease",
      "type": "event"
    },
    {
      "anonymous": false,
      "inputs": [
        {
          "indexed": true,
          "internalType": "uint256",
          "name": "epoch",
          "type": "uint256"
        },
        {
          "indexed": false,
          "internalType": "uint256",
          "name": "price",
          "type": "uint256"
        },
        {
          "indexed": false,
          "internalType": "uint256",
          "name": "newRedeemable",
          "type": "uint256"
        },
        {
          "indexed": false,
          "internalType": "uint256",
          "name": "lessDebt",
          "type": "uint256"
        },
        {
          "indexed": false,
          "internalType": "uint256",
          "name": "newBonded",
          "type": "uint256"
        }
      ],
      "name": "SupplyIncrease",
      "type": "event"
    },
    {
      "anonymous": false,
      "inputs": [
        {
          "indexed": true,
          "internalType": "uint256",
          "name": "epoch",
          "type": "uint256"
        }
      ],
      "name": "SupplyNeutral",
      "type": "event"
    },
    {
      "anonymous": false,
      "inputs": [
        {
          "indexed": true,
          "internalType": "address",
          "name": "from",
          "type": "address"
        },
        {
          "indexed": true,
          "internalType": "address",
          "name": "to",
          "type": "address"
        },
        {
          "indexed": false,
          "internalType": "uint256",
          "name": "value",
          "type": "uint256"
        }
      ],
      "name": "Transfer",
      "type": "event"
    },
    {
      "constant": true,
      "inputs": [
        {
          "internalType": "address",
          "name": "owner",
          "type": "address"
        },
        {
          "internalType": "address",
          "name": "spender",
          "type": "address"
        }
      ],
      "name": "allowance",
      "outputs": [
        {
          "internalType": "uint256",
          "name": "",
          "type": "uint256"
        }
      ],
      "payable": false,
      "stateMutability": "view",
      "type": "function"
    },
    {
      "constant": true,
      "inputs": [
        {
          "internalType": "address",
          "name": "owner",
          "type": "address"
        },
        {
          "internalType": "address",
          "name": "spender",
          "type": "address"
        }
      ],
      "name": "allowanceCoupons",
      "outputs": [
        {
          "internalType": "uint256",
          "name": "",
          "type": "uint256"
        }
      ],
      "payable": false,
      "stateMutability": "view",
      "type": "function"
    },
    {
      "constant": false,
      "inputs": [
        {
          "internalType": "address",
          "name": "spender",
          "type": "address"
        },
        {
          "internalType": "uint256",
          "name": "amount",
          "type": "uint256"
        }
      ],
      "name": "approve",
      "outputs": [
        {
          "internalType": "bool",
          "name": "",
          "type": "bool"
        }
      ],
      "payable": false,
      "stateMutability": "nonpayable",
      "type": "function"
    },
    {
      "constant": true,
      "inputs": [
        {
          "internalType": "address",
          "name": "candidate",
          "type": "address"
        }
      ],
      "name": "approveFor",
      "outputs": [
        {
          "internalType": "uint256",
          "name": "",
          "type": "uint256"
        }
      ],
      "payable": false,
      "stateMutability": "view",
      "type": "function"
    },
    {
      "constant": true,
      "inputs": [
        {
          "internalType": "address",
          "name": "account",
          "type": "address"
        }
      ],
      "name": "balanceOf",
      "outputs": [
        {
          "internalType": "uint256",
          "name": "",
          "type": "uint256"
        }
      ],
      "payable": false,
      "stateMutability": "view",
      "type": "function"
    },
    {
      "constant": true,
      "inputs": [
        {
          "internalType": "address",
          "name": "account",
          "type": "address"
        }
      ],
      "name": "balanceOfBonded",
      "outputs": [
        {
          "internalType": "uint256",
          "name": "",
          "type": "uint256"
        }
      ],
      "payable": false,
      "stateMutability": "view",
      "type": "function"
    },
    {
      "constant": true,
      "inputs": [
        {
          "internalType": "address",
          "name": "account",
          "type": "address"
        },
        {
          "internalType": "uint256",
          "name": "epoch",
          "type": "uint256"
        }
      ],
      "name": "balanceOfCoupons",
      "outputs": [
        {
          "internalType": "uint256",
          "name": "",
          "type": "uint256"
        }
      ],
      "payable": false,
      "stateMutability": "view",
      "type": "function"
    },
    {
      "constant": true,
      "inputs": [
        {
          "internalType": "address",
          "name": "account",
          "type": "address"
        }
      ],
      "name": "balanceOfStaged",
      "outputs": [
        {
          "internalType": "uint256",
          "name": "",
          "type": "uint256"
        }
      ],
      "payable": false,
      "stateMutability": "view",
      "type": "function"
    },
    {
      "constant": true,
      "inputs": [
        {
          "internalType": "uint256",
          "name": "epoch",
          "type": "uint256"
        }
      ],
      "name": "bootstrappingAt",
      "outputs": [
        {
          "internalType": "bool",
          "name": "",
          "type": "bool"
        }
      ],
      "payable": false,
      "stateMutability": "view",
      "type": "function"
    },
    {
      "constant": true,
      "inputs": [
        {
          "internalType": "uint256",
          "name": "epoch",
          "type": "uint256"
        }
      ],
      "name": "couponsExpiration",
      "outputs": [
        {
          "internalType": "uint256",
          "name": "",
          "type": "uint256"
        }
      ],
      "payable": false,
      "stateMutability": "view",
      "type": "function"
    },
    {
      "constant": true,
      "inputs": [],
      "name": "decimals",
      "outputs": [
        {
          "internalType": "uint8",
          "name": "",
          "type": "uint8"
        }
      ],
      "payable": false,
      "stateMutability": "view",
      "type": "function"
    },
    {
      "constant": true,
      "inputs": [],
      "name": "dollar",
      "outputs": [
        {
          "internalType": "contract IDollar",
          "name": "",
          "type": "address"
        }
      ],
      "payable": false,
      "stateMutability": "view",
      "type": "function"
    },
    {
      "constant": true,
      "inputs": [],
      "name": "epoch",
      "outputs": [
        {
          "internalType": "uint256",
          "name": "",
          "type": "uint256"
        }
      ],
      "payable": false,
      "stateMutability": "view",
      "type": "function"
    },
    {
      "constant": true,
      "inputs": [],
      "name": "epochTime",
      "outputs": [
        {
          "internalType": "uint256",
          "name": "",
          "type": "uint256"
        }
      ],
      "payable": false,
      "stateMutability": "view",
      "type": "function"
    },
    {
      "constant": true,
      "inputs": [
        {
          "internalType": "uint256",
          "name": "epoch",
          "type": "uint256"
        }
      ],
      "name": "expiringCoupons",
      "outputs": [
        {
          "internalType": "uint256",
          "name": "",
          "type": "uint256"
        }
      ],
      "payable": false,
      "stateMutability": "view",
      "type": "function"
    },
    {
      "constant": true,
      "inputs": [
        {
          "internalType": "uint256",
          "name": "epoch",
          "type": "uint256"
        },
        {
          "internalType": "uint256",
          "name": "i",
          "type": "uint256"
        }
      ],
      "name": "expiringCouponsAtIndex",
      "outputs": [
        {
          "internalType": "uint256",
          "name": "",
          "type": "uint256"
        }
      ],
      "payable": false,
      "stateMutability": "view",
      "type": "function"
    },
    {
      "constant": true,
      "inputs": [
        {
          "internalType": "address",
          "name": "account",
          "type": "address"
        }
      ],
      "name": "fluidUntil",
      "outputs": [
        {
          "internalType": "uint256",
          "name": "",
          "type": "uint256"
        }
      ],
      "payable": false,
      "stateMutability": "view",
      "type": "function"
    },
    {
      "constant": true,
      "inputs": [
        {
          "internalType": "uint256",
          "name": "epoch",
          "type": "uint256"
        }
      ],
      "name": "getAvgExpiryFilled",
      "outputs": [
        {
          "internalType": "uint256",
          "name": "",
          "type": "uint256"
        }
      ],
      "payable": false,
      "stateMutability": "view",
      "type": "function"
    },
    {
      "constant": true,
      "inputs": [
        {
          "internalType": "uint256",
          "name": "epoch",
          "type": "uint256"
        }
      ],
      "name": "getAvgYieldFilled",
      "outputs": [
        {
          "internalType": "uint256",
          "name": "",
          "type": "uint256"
        }
      ],
      "payable": false,
      "stateMutability": "view",
      "type": "function"
    },
    {
      "constant": true,
      "inputs": [
        {
          "internalType": "uint256",
          "name": "epoch",
          "type": "uint256"
        }
      ],
      "name": "getBidToCover",
      "outputs": [
        {
          "internalType": "uint256",
          "name": "",
          "type": "uint256"
        }
      ],
      "payable": false,
      "stateMutability": "view",
      "type": "function"
    },
    {
      "constant": true,
      "inputs": [],
      "name": "getLatestDeadAuctionEpoch",
      "outputs": [
        {
          "internalType": "uint256",
          "name": "",
          "type": "uint256"
        }
      ],
      "payable": false,
      "stateMutability": "view",
      "type": "function"
    },
    {
      "constant": true,
      "inputs": [
        {
          "internalType": "uint256",
          "name": "epoch",
          "type": "uint256"
        }
      ],
      "name": "getMaxExpiryFilled",
      "outputs": [
        {
          "internalType": "uint256",
          "name": "",
          "type": "uint256"
        }
      ],
      "payable": false,
      "stateMutability": "view",
      "type": "function"
    },
    {
      "constant": true,
      "inputs": [
        {
          "internalType": "uint256",
          "name": "epoch",
          "type": "uint256"
        }
      ],
      "name": "getMaxYieldFilled",
      "outputs": [
        {
          "internalType": "uint256",
          "name": "",
          "type": "uint256"
        }
      ],
      "payable": false,
      "stateMutability": "view",
      "type": "function"
    },
    {
      "constant": true,
      "inputs": [
        {
          "internalType": "uint256",
          "name": "epoch",
          "type": "uint256"
        }
      ],
      "name": "getMinExpiryFilled",
      "outputs": [
        {
          "internalType": "uint256",
          "name": "",
          "type": "uint256"
        }
      ],
      "payable": false,
      "stateMutability": "view",
      "type": "function"
    },
    {
      "constant": true,
      "inputs": [
        {
          "internalType": "uint256",
          "name": "epoch",
          "type": "uint256"
        }
      ],
      "name": "getMinYieldFilled",
      "outputs": [
        {
          "internalType": "uint256",
          "name": "",
          "type": "uint256"
        }
      ],
      "payable": false,
      "stateMutability": "view",
      "type": "function"
    },
    {
      "constant": true,
      "inputs": [
        {
          "internalType": "uint256",
          "name": "epoch",
          "type": "uint256"
        }
      ],
      "name": "getTotalAuctioned",
      "outputs": [
        {
          "internalType": "uint256",
          "name": "",
          "type": "uint256"
        }
      ],
      "payable": false,
      "stateMutability": "view",
      "type": "function"
    },
    {
      "constant": true,
      "inputs": [
        {
          "internalType": "uint256",
          "name": "epoch",
          "type": "uint256"
        }
      ],
      "name": "getTotalBurned",
      "outputs": [
        {
          "internalType": "uint256",
          "name": "",
          "type": "uint256"
        }
      ],
      "payable": false,
      "stateMutability": "view",
      "type": "function"
    },
    {
      "constant": true,
      "inputs": [
        {
          "internalType": "uint256",
          "name": "epoch",
          "type": "uint256"
        }
      ],
      "name": "getTotalFilled",
      "outputs": [
        {
          "internalType": "uint256",
          "name": "",
          "type": "uint256"
        }
      ],
      "payable": false,
      "stateMutability": "view",
      "type": "function"
    },
    {
      "constant": true,
      "inputs": [],
      "name": "implementation",
      "outputs": [
        {
          "internalType": "address",
          "name": "impl",
          "type": "address"
        }
      ],
      "payable": false,
      "stateMutability": "view",
      "type": "function"
    },
    {
      "constant": true,
      "inputs": [
        {
          "internalType": "address",
          "name": "candidate",
          "type": "address"
        }
      ],
      "name": "isInitialized",
      "outputs": [
        {
          "internalType": "bool",
          "name": "",
          "type": "bool"
        }
      ],
      "payable": false,
      "stateMutability": "view",
      "type": "function"
    },
    {
      "constant": true,
      "inputs": [
        {
          "internalType": "address",
          "name": "candidate",
          "type": "address"
        }
      ],
      "name": "isNominated",
      "outputs": [
        {
          "internalType": "bool",
          "name": "",
          "type": "bool"
        }
      ],
      "payable": false,
      "stateMutability": "view",
      "type": "function"
    },
    {
      "constant": true,
      "inputs": [
        {
          "internalType": "address",
          "name": "account",
          "type": "address"
        }
      ],
      "name": "lockedUntil",
      "outputs": [
        {
          "internalType": "uint256",
          "name": "",
          "type": "uint256"
        }
      ],
      "payable": false,
      "stateMutability": "view",
      "type": "function"
    },
    {
      "constant": true,
      "inputs": [],
      "name": "name",
      "outputs": [
        {
          "internalType": "string",
          "name": "",
          "type": "string"
        }
      ],
      "payable": false,
      "stateMutability": "view",
      "type": "function"
    },
    {
      "constant": true,
      "inputs": [],
      "name": "oracle",
      "outputs": [
        {
          "internalType": "contract IOracle",
          "name": "",
          "type": "address"
        }
      ],
      "payable": false,
      "stateMutability": "view",
      "type": "function"
    },
    {
      "constant": true,
      "inputs": [
        {
          "internalType": "uint256",
          "name": "epoch",
          "type": "uint256"
        }
      ],
      "name": "outstandingCoupons",
      "outputs": [
        {
          "internalType": "uint256",
          "name": "",
          "type": "uint256"
        }
      ],
      "payable": false,
      "stateMutability": "view",
      "type": "function"
    },
    {
      "constant": true,
      "inputs": [
        {
          "internalType": "address",
          "name": "candidate",
          "type": "address"
        }
      ],
      "name": "periodFor",
      "outputs": [
        {
          "internalType": "uint256",
          "name": "",
          "type": "uint256"
        }
      ],
      "payable": false,
      "stateMutability": "view",
      "type": "function"
    },
    {
      "constant": true,
      "inputs": [],
      "name": "pool",
      "outputs": [
        {
          "internalType": "address",
          "name": "",
          "type": "address"
        }
      ],
      "payable": false,
      "stateMutability": "view",
      "type": "function"
    },
    {
      "constant": true,
      "inputs": [
        {
          "internalType": "address",
          "name": "account",
          "type": "address"
        },
        {
          "internalType": "address",
          "name": "candidate",
          "type": "address"
        }
      ],
      "name": "recordedVote",
      "outputs": [
        {
          "internalType": "enum Candidate.Vote",
          "name": "",
          "type": "uint8"
        }
      ],
      "payable": false,
      "stateMutability": "view",
      "type": "function"
    },
    {
      "constant": true,
      "inputs": [
        {
          "internalType": "address",
          "name": "candidate",
          "type": "address"
        }
      ],
      "name": "rejectFor",
      "outputs": [
        {
          "internalType": "uint256",
          "name": "",
          "type": "uint256"
        }
      ],
      "payable": false,
      "stateMutability": "view",
      "type": "function"
    },
    {
      "constant": true,
      "inputs": [
        {
          "internalType": "address",
          "name": "candidate",
          "type": "address"
        }
      ],
      "name": "startFor",
      "outputs": [
        {
          "internalType": "uint256",
          "name": "",
          "type": "uint256"
        }
      ],
      "payable": false,
      "stateMutability": "view",
      "type": "function"
    },
    {
      "constant": true,
      "inputs": [
        {
          "internalType": "address",
          "name": "account",
          "type": "address"
        }
      ],
      "name": "statusOf",
      "outputs": [
        {
          "internalType": "enum Account.Status",
          "name": "",
          "type": "uint8"
        }
      ],
      "payable": false,
      "stateMutability": "view",
      "type": "function"
    },
    {
      "constant": true,
      "inputs": [],
      "name": "symbol",
      "outputs": [
        {
          "internalType": "string",
          "name": "",
          "type": "string"
        }
      ],
      "payable": false,
      "stateMutability": "view",
      "type": "function"
    },
    {
      "constant": true,
      "inputs": [],
      "name": "totalBonded",
      "outputs": [
        {
          "internalType": "uint256",
          "name": "",
          "type": "uint256"
        }
      ],
      "payable": false,
      "stateMutability": "view",
      "type": "function"
    },
    {
      "constant": true,
      "inputs": [
        {
          "internalType": "uint256",
          "name": "epoch",
          "type": "uint256"
        }
      ],
      "name": "totalBondedAt",
      "outputs": [
        {
          "internalType": "uint256",
          "name": "",
          "type": "uint256"
        }
      ],
      "payable": false,
      "stateMutability": "view",
      "type": "function"
    },
    {
      "constant": true,
      "inputs": [],
      "name": "totalCoupons",
      "outputs": [
        {
          "internalType": "uint256",
          "name": "",
          "type": "uint256"
        }
      ],
      "payable": false,
      "stateMutability": "view",
      "type": "function"
    },
    {
      "constant": true,
      "inputs": [],
      "name": "totalDebt",
      "outputs": [
        {
          "internalType": "uint256",
          "name": "",
          "type": "uint256"
        }
      ],
      "payable": false,
      "stateMutability": "view",
      "type": "function"
    },
    {
      "constant": true,
      "inputs": [],
      "name": "totalNet",
      "outputs": [
        {
          "internalType": "uint256",
          "name": "",
          "type": "uint256"
        }
      ],
      "payable": false,
      "stateMutability": "view",
      "type": "function"
    },
    {
      "constant": true,
      "inputs": [],
      "name": "totalRedeemable",
      "outputs": [
        {
          "internalType": "uint256",
          "name": "",
          "type": "uint256"
        }
      ],
      "payable": false,
      "stateMutability": "view",
      "type": "function"
    },
    {
      "constant": true,
      "inputs": [],
      "name": "totalStaged",
      "outputs": [
        {
          "internalType": "uint256",
          "name": "",
          "type": "uint256"
        }
      ],
      "payable": false,
      "stateMutability": "view",
      "type": "function"
    },
    {
      "constant": true,
      "inputs": [],
      "name": "totalSupply",
      "outputs": [
        {
          "internalType": "uint256",
          "name": "",
          "type": "uint256"
        }
      ],
      "payable": false,
      "stateMutability": "view",
      "type": "function"
    },
    {
      "constant": false,
      "inputs": [
        {
          "internalType": "address",
          "name": "recipient",
          "type": "address"
        },
        {
          "internalType": "uint256",
          "name": "amount",
          "type": "uint256"
        }
      ],
      "name": "transfer",
      "outputs": [
        {
          "internalType": "bool",
          "name": "",
          "type": "bool"
        }
      ],
      "payable": false,
      "stateMutability": "nonpayable",
      "type": "function"
    },
    {
      "constant": false,
      "inputs": [
        {
          "internalType": "address",
          "name": "sender",
          "type": "address"
        },
        {
          "internalType": "address",
          "name": "recipient",
          "type": "address"
        },
        {
          "internalType": "uint256",
          "name": "amount",
          "type": "uint256"
        }
      ],
      "name": "transferFrom",
      "outputs": [
        {
          "internalType": "bool",
          "name": "",
          "type": "bool"
        }
      ],
      "payable": false,
      "stateMutability": "nonpayable",
      "type": "function"
    },
    {
      "constant": true,
      "inputs": [
        {
          "internalType": "address",
          "name": "candidate",
          "type": "address"
        }
      ],
      "name": "votesFor",
      "outputs": [
        {
          "internalType": "uint256",
          "name": "",
          "type": "uint256"
        }
      ],
      "payable": false,
      "stateMutability": "view",
      "type": "function"
    }
  ],
  "bytecode": "0x6080604052600060115560006012556001601355600160145560016015556000601655600060175560006018556000601955600019601a5561004961007460201b6111b41760201c565b51601b55604080516020810190915260001990819052601c5534801561006e57600080fd5b506100a2565b61007c61008f565b5060408051602081019091526000815290565b6040518060200160405280600081525090565b611225806100b16000396000f3fe608060405234801561001057600080fd5b50600436106103275760003560e01c80637dc0d1d0116101b8578063a9059cbb11610104578063d60b347f116100a2578063eeaca09b1161007c578063eeaca09b1461066b578063f1b7cf491461067e578063fc7b9c1814610691578063ffbe3b731461069957610327565b8063d60b347f14610637578063dd62ed3e1461064a578063dde74dc31461065857610327565b8063c9aff70c116100de578063c9aff70c146105f6578063cb0fbc7114610609578063cf0237791461061c578063d53c6f5f1461062457610327565b8063a9059cbb1461034a578063bc7513e2146105d0578063c34eee65146105e357610327565b806397a5d5b5116101715780639f1a09291161014b5780639f1a09291461058f5780639f6e1b26146105a2578063a50cd8e7146105b5578063a6c409f1146105c857610327565b806397a5d5b5146105615780639a649edc146105745780639bc289f11461057c57610327565b80637dc0d1d01461051b578063825ad6071461052357806386cf9f14146105365780638e82538814610549578063900cf0cf1461055157806395d89b411461055957610327565b80633fbba9a611610277578063520acb76116102305780636a39e3281161020a5780636a39e328146104cf57806370a08231146104e257806375d5024b146104f55780637d8bb8691461050857610327565b8063520acb76146104a15780635c60da1b146104b457806364668022146104bc57610327565b80633fbba9a61461043657806344d96e95146104565780634c7360991461045e5780635053e4611461047157806351adeb571461047957806351bf21d81461048e57610327565b80631edbcf6c116102e4578063313ce567116102be578063313ce567146103e8578063353a420c146103fd5780633a3e6c81146104105780633dc905c71461042357610327565b80631edbcf6c146103ba57806323b872dd146103c25780632d7f23b3146103d557610327565b806306fdde031461032c578063095ea7b31461034a57806310e95b6c1461036a57806315e14bf61461038a57806316f0115b1461039d57806318160ddd146103b2575b600080fd5b6103346106ac565b60405161034191906110b1565b60405180910390f35b61035d610358366004610efe565b6106e3565b6040516103419190611087565b61037d610378366004610f2e565b6106ec565b60405161034191906110e2565b61037d610398366004610e51565b610704565b6103a5610722565b6040516103419190611079565b61037d610731565b61037d610737565b61035d6103d0366004610eb1565b61073d565b61037d6103e3366004610f2e565b610746565b6103f061075b565b60405161034191906110f0565b61037d61040b366004610e51565b610760565b61035d61041e366004610e51565b61077e565b61037d610431366004610f2e565b61079b565b610449610444366004610e77565b6107b1565b60405161034191906110a3565b61037d6107e4565b61037d61046c366004610f6a565b6107ea565b61037d61081a565b61048161083d565b6040516103419190611095565b61037d61049c366004610e51565b61084c565b61037d6104af366004610f2e565b61086a565b6103a561087f565b61037d6104ca366004610e51565b6108a4565b61037d6104dd366004610f2e565b6108c2565b61037d6104f0366004610e51565b6108d7565b61035d610503366004610f2e565b6108f5565b61037d610516366004610f2e565b610908565b61048161091d565b61037d610531366004610e51565b61092c565b61037d610544366004610e51565b61097f565b61037d61099a565b61037d6109a0565b6103346109a6565b61044961056f366004610e51565b6109c4565b61037d610a29565b61037d61058a366004610e51565b610a2f565b61037d61059d366004610f2e565b610a4d565b61037d6105b0366004610e77565b610a62565b61037d6105c3366004610e51565b610a91565b61037d610ab4565b61037d6105de366004610efe565b610b4a565b61037d6105f1366004610f2e565b610b8e565b61037d610604366004610f2e565b610ba3565b61037d610617366004610f2e565b610bb8565b61037d610bcd565b61037d610632366004610f2e565b610bd3565b61035d610645366004610e51565b610be8565b61037d610358366004610e77565b61037d610666366004610f2e565b610c09565b61037d610679366004610f2e565b610c1e565b61037d61068c366004610e51565b610c33565b61037d610c4e565b61037d6106a7366004610f2e565b610c54565b60408051808201909152601881527f44796e616d69632053657420446f6c6c6172205374616b650000000000000000602082015290565b60005b92915050565b6000818152600e60205260409020600201545b919050565b6001600160a01b03166000908152600f602052604090206001015490565b600c546001600160a01b031690565b60045490565b60075490565b60009392505050565b6000908152600e60205260409020600a015490565b601290565b6001600160a01b03166000908152600f602052604090206003015490565b6001600160a01b03166000908152600f6020526040902054151590565b6000908152600e60208190526040909120015490565b6001600160a01b038082166000908152600f60209081526040808320938616835260049093019052205460ff1692915050565b60055490565b6000828152600e6020526040812060030180548390811061080757fe5b9060005260206000200154905092915050565b6000610824610e0f565b61082c610c66565b905061083781610c95565b91505090565b600a546001600160a01b031690565b6001600160a01b03166000908152600d602052604090206004015490565b6000908152600e602052604090206010015490565b7f360894a13ba1a3210667c828492db98dca3e2076cc3735a920a3ca505d382bbc5490565b6001600160a01b03166000908152600f602052604090206002015490565b6000908152600e602052604090206003015490565b6001600160a01b03166000908152600d602052604090206001015490565b60006108ff610cb7565b90911115919050565b6000908152600e602052604090206012015490565b600b546001600160a01b031690565b600080610937610731565b9050806109485760009150506106ff565b6109788161096c610958866108d7565b6109606107e4565b9063ffffffff610cbc16565b9063ffffffff610cff16565b9392505050565b6001600160a01b03166000908152600d602052604090205490565b60035490565b60025490565b6040805180820190915260048152634453445360e01b602082015290565b60006109ce6109a0565b6001600160a01b0383166000908152600d602052604090206005015411156109f8575060026106ff565b6001600160a01b0382166000908152600d6020526040902060040154610a1c6109a0565b10156106e35760016106e6565b60095490565b6001600160a01b03166000908152600d602052604090206005015490565b6000908152600e60205260409020600d015490565b6001600160a01b039182166000908152600d602090815260408083209390941682526003909201909152205490565b60006106e6610a9f83610760565b610aa8846108a4565b9063ffffffff610d4116565b6000610b45610ac1610c4e565b610ac961083d565b6001600160a01b03166318160ddd6040518163ffffffff1660e01b815260040160206040518083038186803b158015610b0157600080fd5b505afa158015610b15573d6000803e3d6000fd5b505050506040513d601f19601f82011682018060405250610b399190810190610f4c565b9063ffffffff610d6616565b905090565b6000610b5582610ba3565b610b61575060006106e6565b506001600160a01b03919091166000908152600d6020908152604080832093835260029093019052205490565b6000908152600e602052604090206011015490565b6000908152600e602052604090206001015490565b6000908152600e602052604090206013015490565b60065490565b6000908152600e60205260409020600f015490565b6001600160a01b03166000908152600f602052604090206005015460ff1690565b6000908152600e60205260409020600c015490565b6000908152600e60205260409020600b015490565b6001600160a01b03166000908152600f602052604090205490565b60085490565b6000908152600e602052604090205490565b610c6e610e0f565b604051806060016040528060008152602001635fbef0008152602001611c20815250905090565b60006106e68260000151610aa8846040015161096c8660200151610b39610da8565b609690565b600082610ccb575060006106e6565b82820282848281610cd857fe5b04146109785760405162461bcd60e51b8152600401610cf6906110d2565b60405180910390fd5b600061097883836040518060400160405280601a81526020017f536166654d6174683a206469766973696f6e206279207a65726f000000000000815250610dac565b6000828201838110156109785760405162461bcd60e51b8152600401610cf6906110c2565b600061097883836040518060400160405280601e81526020017f536166654d6174683a207375627472616374696f6e206f766572666c6f770000815250610de3565b4290565b60008183610dcd5760405162461bcd60e51b8152600401610cf691906110b1565b506000838581610dd957fe5b0495945050505050565b60008184841115610e075760405162461bcd60e51b8152600401610cf691906110b1565b505050900390565b60405180606001604052806000815260200160008152602001600081525090565b80356106e681611197565b80356106e6816111ab565b80516106e6816111ab565b600060208284031215610e6357600080fd5b6000610e6f8484610e30565b949350505050565b60008060408385031215610e8a57600080fd5b6000610e968585610e30565b9250506020610ea785828601610e30565b9150509250929050565b600080600060608486031215610ec657600080fd5b6000610ed28686610e30565b9350506020610ee386828701610e30565b9250506040610ef486828701610e3b565b9150509250925092565b60008060408385031215610f1157600080fd5b6000610f1d8585610e30565b9250506020610ea785828601610e3b565b600060208284031215610f4057600080fd5b6000610e6f8484610e3b565b600060208284031215610f5e57600080fd5b6000610e6f8484610e46565b60008060408385031215610f7d57600080fd5b6000610f1d8585610e3b565b610f928161110b565b82525050565b610f9281611116565b610f928161113a565b610f9281611145565b6000610fbe826110fe565b610fc88185611102565b9350610fd8818560208601611150565b610fe181611180565b9093019392505050565b6000610ff8601b83611102565b7f536166654d6174683a206164646974696f6e206f766572666c6f770000000000815260200192915050565b6000611031602183611102565b7f536166654d6174683a206d756c7469706c69636174696f6e206f766572666c6f8152607760f81b602082015260400192915050565b610f9281611131565b610f9281611134565b602081016106e68284610f89565b602081016106e68284610f98565b602081016106e68284610fa1565b602081016106e68284610faa565b602080825281016109788184610fb3565b602080825281016106e681610feb565b602080825281016106e681611024565b602081016106e68284611067565b602081016106e68284611070565b5190565b90815260200190565b60006106e682611125565b151590565b806106ff8161118a565b6001600160a01b031690565b90565b60ff1690565b60006106e68261110b565b60006106e68261111b565b60005b8381101561116b578181015183820152602001611153565b8381111561117a576000848401525b50505050565b601f01601f191690565b6003811061119457fe5b50565b6111a08161110b565b811461119457600080fd5b6111a081611131565b6111bc6111cf565b5060408051602081019091526000815290565b604051806020016040528060008152509056fea365627a7a7231582046ad9dc58c4cec9c8afc86b7d5c13e483738f0819836b1562950a624fd795c096c6578706572696d656e74616cf564736f6c63430005110040",
  "source": "/*\n    Copyright 2020 Dynamic Dollar Devs, based on the works of the Empty Set Squad\n\n    Licensed under the Apache License, Version 2.0 (the \"License\");\n    you may not use this file except in compliance with the License.\n    You may obtain a copy of the License at\n\n    http://www.apache.org/licenses/LICENSE-2.0\n\n    Unless required by applicable law or agreed to in writing, software\n    distributed under the License is distributed on an \"AS IS\" BASIS,\n    WITHOUT WARRANTIES OR CONDITIONS OF ANY KIND, either express or implied.\n    See the License for the specific language governing permissions and\n    limitations under the License.\n*/\n\npragma solidity ^0.5.17;\npragma experimental ABIEncoderV2;\n\nimport \"@openzeppelin/contracts/math/SafeMath.sol\";\nimport \"./Comptroller.sol\";\nimport \"./Market.sol\";\nimport \"../external/Decimal.sol\";\nimport \"../Constants.sol\";\n\ncontract Regulator is Comptroller {\n    using SafeMath for uint256;\n    using Decimal for Decimal.D256;\n\n    bytes32 private constant FILE = \"Regulator\";\n    Epoch.CouponBidderState[] private bids;\n    uint256 private totalFilled = 0;\n    uint256 private totalBurned = 0;\n    uint256 private yieldRelNorm = 1;\n    uint256 private expiryRelNorm = 1;\n    uint256 private dollarRelNorm = 1;\n    uint256 private totalAuctioned = 0;\n    uint256 private maxExpiryFilled = 0;\n    uint256 private sumExpiryFilled = 0;\n    uint256 private sumYieldFilled = 0;\n    uint256 private minExpiryFilled = 2**256 - 1;\n    Decimal.D256 private maxYieldFilled = Decimal.zero();\n    Decimal.D256 private minYieldFilled = Decimal.D256(2**256 - 1);\n\n    event SupplyIncrease(uint256 indexed epoch, uint256 price, uint256 newRedeemable, uint256 lessDebt, uint256 newBonded);\n    event SupplyDecrease(uint256 indexed epoch, uint256 price, uint256 newDebt);\n    event SupplyNeutral(uint256 indexed epoch);\n\n    function step() internal {\n        Decimal.D256 memory price = oracleCapture();\n\n        //need to check previous epoch because by the time the Regulator.step function is fired, Bonding.step may have already incremented the epoch\n        Epoch.AuctionState storage auction = getCouponAuctionAtEpoch(epoch() - 1);\n\n        if (price.greaterThan(Decimal.one())) {\n            setDebtToZero();\n\n            //check for outstanding auction, if exists cancel it\n            if (auction.isInit == true){\n                cancelCouponAuctionAtEpoch(epoch() - 1);\n            }\n\n            growSupply(price);\n            return;\n        }\n\n        if (price.lessThan(Decimal.one())) {\n            //check for outstanding auction, if exists settle it and start a new one\n            if (auction.isInit == true){\n                bool isAuctionSettled = settleCouponAuction(epoch() - 1);\n                finishCouponAuctionAtEpoch(epoch() - 1);\n            }\n            initCouponAuction();\n            \n            shrinkSupply(price);\n            return;\n        }\n\n        emit SupplyNeutral(epoch());\n    }\n\n    function shrinkSupply(Decimal.D256 memory price) private {\n        Decimal.D256 memory delta = limit(Decimal.one().sub(price).div(Constants.getNegativeSupplyChangeDivisor()), price);\n        uint256 newDebt = delta.mul(totalNet()).asUint256();\n        increaseDebt(newDebt);\n\n        emit SupplyDecrease(epoch(), price.value, newDebt);\n        return;\n    }\n\n    function growSupply(Decimal.D256 memory price) private {\n        Decimal.D256 memory supplyChangeDivisor = Constants.getSupplyChangeDivisor();\n\n        uint256 totalRedeemable = totalRedeemable();\n        uint256 totalCoupons = totalCoupons();\n        if (totalRedeemable < totalCoupons) {\n            supplyChangeDivisor = Constants.getCouponSupplyChangeDivisor();\n        }\n\n        Decimal.D256 memory delta = limit(price.sub(Decimal.one()).div(supplyChangeDivisor), price);\n        uint256 newSupply = delta.mul(totalNet()).asUint256();\n        (uint256 newRedeemable, uint256 lessDebt, uint256 newBonded) = increaseSupply(newSupply);\n        emit SupplyIncrease(epoch(), price.value, newRedeemable, lessDebt, newBonded);\n    }\n\n    function limit(Decimal.D256 memory delta, Decimal.D256 memory price) private view returns (Decimal.D256 memory) {\n        Decimal.D256 memory supplyChangeLimit = Constants.getSupplyChangeLimit();\n        \n        uint256 totalRedeemable = totalRedeemable();\n        uint256 totalCoupons = totalCoupons();\n        if (price.greaterThan(Decimal.one()) && (totalRedeemable < totalCoupons)) {\n            supplyChangeLimit = Constants.getCouponSupplyChangeLimit();\n        }\n\n        return delta.greaterThan(supplyChangeLimit) ? supplyChangeLimit : delta;\n    }\n\n    function oracleCapture() private returns (Decimal.D256 memory) {\n        (Decimal.D256 memory price, bool valid) = oracle().capture();\n\n        if (bootstrappingAt(epoch().sub(1))) {\n            return Constants.getBootstrappingPrice();\n        }\n        if (!valid) {\n            return Decimal.one();\n        }\n\n        return price;\n    }    \n\n    function sortBidsByDistance(Epoch.CouponBidderState[] storage bids) internal returns(Epoch.CouponBidderState[] storage) {\n       quickSort(bids, int(0), int(bids.length - 1));\n       return bids;\n    }\n    \n    function quickSort(Epoch.CouponBidderState[] memory arr, int left, int right) internal {\n        int i = left;\n        int j = right;\n        if(i==j) return;\n        Decimal.D256 memory pivot = arr[uint256(left + (right - left) / 2)].distance;\n        while (i <= j) {\n            while (arr[uint256(i)].distance.lessThan(pivot)) i++;\n            while (pivot.lessThan(arr[uint256(j)].distance)) j--;\n            if (i <= j) {\n                (arr[uint256(i)], arr[uint256(j)]) = (arr[uint256(j)], arr[uint256(i)]);\n                i++;\n                j--;\n            }\n        }\n        if (left < j)\n            quickSort(arr, left, j);\n        if (i < right)\n            quickSort(arr, i, right);\n    }\n\n    function sqrt(Decimal.D256 memory x) internal pure returns (Decimal.D256 memory y) {\n        Decimal.D256 memory z = x.add(1).div(2);\n        y = x;\n        while (z.lessThan(y)) {\n            y = z;\n            z = x.div(z.add(z)).div(2);\n        }\n        return y;\n    }\n\n    function settleCouponAuction(uint256 settlementEpoch) internal returns (bool success) {\n        if (!isCouponAuctionFinished(settlementEpoch) && !isCouponAuctionCanceled(settlementEpoch)) {\n            yieldRelNorm = getCouponAuctionMaxYield(settlementEpoch) - getCouponAuctionMinYield(settlementEpoch);\n            expiryRelNorm = getCouponAuctionMaxExpiry(settlementEpoch) - getCouponAuctionMinExpiry(settlementEpoch);    \n            dollarRelNorm = getCouponAuctionMaxDollarAmount(settlementEpoch) - getCouponAuctionMinDollarAmount(settlementEpoch);\n            \n            // loop over bids and compute distance\n            for (uint256 i = 0; i < getCouponAuctionBids(settlementEpoch); i++) {\n                Epoch.CouponBidderState storage bidder = getCouponBidderState(settlementEpoch, getCouponBidderStateIndex(settlementEpoch, i));\n                Decimal.D256 memory yieldRel = Decimal.ratio(\n                    Decimal.ratio(\n                        bidder.couponAmount,\n                        bidder.dollarAmount\n                    ).asUint256(),\n                    yieldRelNorm\n                );\n                \n                Decimal.D256 memory expiryRel = Decimal.ratio(\n                    bidder.couponExpiryEpoch,\n                    expiryRelNorm\n                );\n                \n                Decimal.D256 memory dollarRelMax = Decimal.ratio(\n                    bidder.dollarAmount,\n                    dollarRelNorm\n                );\n                Decimal.D256 memory dollarRel = (Decimal.one().add(Decimal.one())).sub(dollarRelMax);\n\n                Decimal.D256 memory yieldRelSquared = yieldRel.pow(2);\n                Decimal.D256 memory expiryRelSquared = expiryRel.pow(2);\n                Decimal.D256 memory dollarRelSquared = dollarRel.pow(2);\n\n                Decimal.D256 memory sumOfSquared = yieldRelSquared.add(expiryRelSquared).add(dollarRelSquared);\n                Decimal.D256 memory distance;\n                if (sumOfSquared.greaterThan(Decimal.zero())) {\n                    distance = sqrt(sumOfSquared);\n                } else {\n                    distance = Decimal.zero();\n                }\n\n                setCouponBidderStateDistance(settlementEpoch, getCouponBidderStateIndex(settlementEpoch, i), distance);\n                bidder = getCouponBidderState(settlementEpoch, getCouponBidderStateIndex(settlementEpoch, i));\n                bids.push(bidder);\n            }\n\n            \n            // sort bids\n            bids = sortBidsByDistance(bids);\n\n            // assign coupons until totalDebt filled, reject the rest\n            for (uint256 i = 0; i < bids.length; i++) {\n                if (totalDebt() >= bids[i].dollarAmount) {\n                    if (!getCouponBidderStateRejected(settlementEpoch, bids[i].bidder) && !getCouponBidderStateRejected(settlementEpoch, bids[i].bidder)) {\n                        Decimal.D256 memory yield = Decimal.ratio(\n                            bids[i].couponAmount,\n                            bids[i].dollarAmount\n                        );\n\n                        //must check again if account is able to be assigned\n                        if (acceptableBidCheck(bids[i].bidder, bids[i].dollarAmount)){\n                            if (yield.lessThan(minYieldFilled)) {\n                                minYieldFilled = yield;\n                            } else if (yield.greaterThan(maxYieldFilled)) {\n                                maxYieldFilled = yield;\n                            }\n\n                            if (bids[i].couponExpiryEpoch < minExpiryFilled) {\n                                minExpiryFilled = bids[i].couponExpiryEpoch;\n                            } else if (bids[i].couponExpiryEpoch > maxExpiryFilled) {\n                                maxExpiryFilled = bids[i].couponExpiryEpoch;\n                            }\n                            \n                            sumYieldFilled += yield.asUint256();\n                            sumExpiryFilled += bids[i].couponExpiryEpoch;\n                            totalAuctioned += bids[i].couponAmount;\n                            totalBurned += bids[i].dollarAmount;\n                            \n                            uint256 epochExpiry = epoch().add(bids[i].couponExpiryEpoch);\n                            burnFromAccount(bids[i].bidder, bids[i].dollarAmount);\n                            incrementBalanceOfCoupons(bids[i].bidder, epochExpiry, bids[i].couponAmount);\n                            setCouponBidderStateSelected(settlementEpoch, bids[i].bidder, i);\n                            totalFilled++;\n                        } else {\n                            setCouponBidderStateRejected(settlementEpoch, bids[i].bidder);\n                        }\n                    }\n                } else {\n                    /* setCouponBidderStateRejected(settlementEpoch, bids[i].bidder); or just break and close the auction */\n                    break;\n                } \n            }\n\n            // set auction internals\n            if (totalFilled > 0) {\n                Decimal.D256 memory avgYieldFilled = Decimal.ratio(\n                    sumYieldFilled,\n                    totalFilled\n                );\n                Decimal.D256 memory avgExpiryFilled = Decimal.ratio(\n                    sumExpiryFilled,\n                    totalFilled\n                );\n\n                //mul(100) to avoid sub 0 results\n                Decimal.D256 memory bidToCover = Decimal.ratio(\n                    bids.length,\n                    totalFilled\n                ).mul(100);\n\n                setMinExpiryFilled(settlementEpoch, minExpiryFilled);\n                setMaxExpiryFilled(settlementEpoch, maxExpiryFilled);\n                setAvgExpiryFilled(settlementEpoch, avgExpiryFilled.asUint256());\n                setMinYieldFilled(settlementEpoch, minYieldFilled.asUint256());\n                setMaxYieldFilled(settlementEpoch, maxYieldFilled.asUint256());\n                setAvgYieldFilled(settlementEpoch, avgYieldFilled.asUint256());\n                setBidToCover(settlementEpoch, bidToCover.asUint256());\n                setTotalFilled(settlementEpoch, totalFilled);\n                setTotalAuctioned(settlementEpoch, totalAuctioned);\n                setTotalBurned(settlementEpoch, totalBurned);\n            }\n\n            //clear bids and reset vars\n            delete bids;\n            totalFilled = 0;\n            totalBurned = 0;\n            yieldRelNorm = 1;\n            expiryRelNorm = 1;\n            dollarRelNorm = 1;\n            totalAuctioned = 0;\n            maxExpiryFilled = 0;\n            sumExpiryFilled = 0;\n            sumYieldFilled = 0;\n            minExpiryFilled = 2**256 - 1;\n            maxYieldFilled = Decimal.zero();\n            minYieldFilled = Decimal.D256(2**256 - 1);\n\n            return true;\n        } else {\n            return false;\n        }        \n    }\n}\n",
  "sourcePath": "/Users/cinquemb/Documents/Startups/crypto/dollar/protocol/contracts/dao/Regulator.sol",
  "compiler": {
    "name": "solc",
    "version": "0.5.17+commit.d19bba13.Emscripten.clang"
  },
  "schemaVersion": "3.3.3",
  "updatedAt": "2021-01-15T13:20:51.382Z",
  "devdoc": {
    "methods": {}
  },
  "userdoc": {
    "methods": {
      "balanceOfStaged(address)": {
        "notice": "Account"
      },
      "dollar()": {
        "notice": "Global"
      },
      "epoch()": {
        "notice": "Epoch"
      },
      "name()": {
        "notice": "ERC20 Interface"
      },
      "recordedVote(address,address)": {
        "notice": "Governance"
      },
      "transfer(address,uint256)": {
        "notice": "ERC20 Interface"
      }
    }
  }
}