{
  "contractName": "Setters",
  "abi": [
    {
      "anonymous": false,
      "inputs": [
        {
          "indexed": true,
          "internalType": "address",
          "name": "from",
          "type": "address"
        },
        {
          "indexed": true,
          "internalType": "address",
          "name": "to",
          "type": "address"
        },
        {
          "indexed": false,
          "internalType": "uint256",
          "name": "value",
          "type": "uint256"
        }
      ],
      "name": "Transfer",
      "type": "event"
    },
    {
      "constant": true,
      "inputs": [
        {
          "internalType": "address",
          "name": "owner",
          "type": "address"
        },
        {
          "internalType": "address",
          "name": "spender",
          "type": "address"
        }
      ],
      "name": "allowance",
      "outputs": [
        {
          "internalType": "uint256",
          "name": "",
          "type": "uint256"
        }
      ],
      "payable": false,
      "stateMutability": "view",
      "type": "function"
    },
    {
      "constant": true,
      "inputs": [
        {
          "internalType": "address",
          "name": "owner",
          "type": "address"
        },
        {
          "internalType": "address",
          "name": "spender",
          "type": "address"
        }
      ],
      "name": "allowanceCoupons",
      "outputs": [
        {
          "internalType": "uint256",
          "name": "",
          "type": "uint256"
        }
      ],
      "payable": false,
      "stateMutability": "view",
      "type": "function"
    },
    {
      "constant": true,
      "inputs": [
        {
          "internalType": "address",
          "name": "candidate",
          "type": "address"
        }
      ],
      "name": "approveFor",
      "outputs": [
        {
          "internalType": "uint256",
          "name": "",
          "type": "uint256"
        }
      ],
      "payable": false,
      "stateMutability": "view",
      "type": "function"
    },
    {
      "constant": true,
      "inputs": [
        {
          "internalType": "address",
          "name": "account",
          "type": "address"
        }
      ],
      "name": "balanceOf",
      "outputs": [
        {
          "internalType": "uint256",
          "name": "",
          "type": "uint256"
        }
      ],
      "payable": false,
      "stateMutability": "view",
      "type": "function"
    },
    {
      "constant": true,
      "inputs": [
        {
          "internalType": "address",
          "name": "account",
          "type": "address"
        }
      ],
      "name": "balanceOfBonded",
      "outputs": [
        {
          "internalType": "uint256",
          "name": "",
          "type": "uint256"
        }
      ],
      "payable": false,
      "stateMutability": "view",
      "type": "function"
    },
    {
      "constant": true,
      "inputs": [
        {
          "internalType": "address",
          "name": "account",
          "type": "address"
        },
        {
          "internalType": "uint256",
          "name": "epoch",
          "type": "uint256"
        }
      ],
      "name": "balanceOfCoupons",
      "outputs": [
        {
          "internalType": "uint256",
          "name": "",
          "type": "uint256"
        }
      ],
      "payable": false,
      "stateMutability": "view",
      "type": "function"
    },
    {
      "constant": true,
      "inputs": [
        {
          "internalType": "address",
          "name": "account",
          "type": "address"
        }
      ],
      "name": "balanceOfStaged",
      "outputs": [
        {
          "internalType": "uint256",
          "name": "",
          "type": "uint256"
        }
      ],
      "payable": false,
      "stateMutability": "view",
      "type": "function"
    },
    {
      "constant": true,
      "inputs": [
        {
          "internalType": "uint256",
          "name": "epoch",
          "type": "uint256"
        }
      ],
      "name": "bootstrappingAt",
      "outputs": [
        {
          "internalType": "bool",
          "name": "",
          "type": "bool"
        }
      ],
      "payable": false,
      "stateMutability": "view",
      "type": "function"
    },
    {
      "constant": true,
      "inputs": [
        {
          "internalType": "uint256",
          "name": "epoch",
          "type": "uint256"
        }
      ],
      "name": "couponsExpiration",
      "outputs": [
        {
          "internalType": "uint256",
          "name": "",
          "type": "uint256"
        }
      ],
      "payable": false,
      "stateMutability": "view",
      "type": "function"
    },
    {
      "constant": true,
      "inputs": [],
      "name": "decimals",
      "outputs": [
        {
          "internalType": "uint8",
          "name": "",
          "type": "uint8"
        }
      ],
      "payable": false,
      "stateMutability": "view",
      "type": "function"
    },
    {
      "constant": true,
      "inputs": [],
      "name": "dollar",
      "outputs": [
        {
          "internalType": "contract IDollar",
          "name": "",
          "type": "address"
        }
      ],
      "payable": false,
      "stateMutability": "view",
      "type": "function"
    },
    {
      "constant": true,
      "inputs": [],
      "name": "epoch",
      "outputs": [
        {
          "internalType": "uint256",
          "name": "",
          "type": "uint256"
        }
      ],
      "payable": false,
      "stateMutability": "view",
      "type": "function"
    },
    {
      "constant": true,
      "inputs": [],
      "name": "epochTime",
      "outputs": [
        {
          "internalType": "uint256",
          "name": "",
          "type": "uint256"
        }
      ],
      "payable": false,
      "stateMutability": "view",
      "type": "function"
    },
    {
      "constant": true,
      "inputs": [
        {
          "internalType": "uint256",
          "name": "epoch",
          "type": "uint256"
        }
      ],
      "name": "expiringCoupons",
      "outputs": [
        {
          "internalType": "uint256",
          "name": "",
          "type": "uint256"
        }
      ],
      "payable": false,
      "stateMutability": "view",
      "type": "function"
    },
    {
      "constant": true,
      "inputs": [
        {
          "internalType": "uint256",
          "name": "epoch",
          "type": "uint256"
        },
        {
          "internalType": "uint256",
          "name": "i",
          "type": "uint256"
        }
      ],
      "name": "expiringCouponsAtIndex",
      "outputs": [
        {
          "internalType": "uint256",
          "name": "",
          "type": "uint256"
        }
      ],
      "payable": false,
      "stateMutability": "view",
      "type": "function"
    },
    {
      "constant": true,
      "inputs": [
        {
          "internalType": "address",
          "name": "account",
          "type": "address"
        }
      ],
      "name": "fluidUntil",
      "outputs": [
        {
          "internalType": "uint256",
          "name": "",
          "type": "uint256"
        }
      ],
      "payable": false,
      "stateMutability": "view",
      "type": "function"
    },
    {
      "constant": true,
      "inputs": [
        {
          "internalType": "uint256",
          "name": "epoch",
          "type": "uint256"
        }
      ],
      "name": "getAvgExpiryFilled",
      "outputs": [
        {
          "internalType": "uint256",
          "name": "",
          "type": "uint256"
        }
      ],
      "payable": false,
      "stateMutability": "view",
      "type": "function"
    },
    {
      "constant": true,
      "inputs": [
        {
          "internalType": "uint256",
          "name": "epoch",
          "type": "uint256"
        }
      ],
      "name": "getAvgYieldFilled",
      "outputs": [
        {
          "internalType": "uint256",
          "name": "",
          "type": "uint256"
        }
      ],
      "payable": false,
      "stateMutability": "view",
      "type": "function"
    },
    {
      "constant": true,
      "inputs": [
        {
          "internalType": "uint256",
          "name": "epoch",
          "type": "uint256"
        }
      ],
      "name": "getBidToCover",
      "outputs": [
        {
          "internalType": "uint256",
          "name": "",
          "type": "uint256"
        }
      ],
      "payable": false,
      "stateMutability": "view",
      "type": "function"
    },
    {
      "constant": true,
      "inputs": [],
      "name": "getLatestDeadAuctionEpoch",
      "outputs": [
        {
          "internalType": "uint256",
          "name": "",
          "type": "uint256"
        }
      ],
      "payable": false,
      "stateMutability": "view",
      "type": "function"
    },
    {
      "constant": true,
      "inputs": [
        {
          "internalType": "uint256",
          "name": "epoch",
          "type": "uint256"
        }
      ],
      "name": "getMaxExpiryFilled",
      "outputs": [
        {
          "internalType": "uint256",
          "name": "",
          "type": "uint256"
        }
      ],
      "payable": false,
      "stateMutability": "view",
      "type": "function"
    },
    {
      "constant": true,
      "inputs": [
        {
          "internalType": "uint256",
          "name": "epoch",
          "type": "uint256"
        }
      ],
      "name": "getMaxYieldFilled",
      "outputs": [
        {
          "internalType": "uint256",
          "name": "",
          "type": "uint256"
        }
      ],
      "payable": false,
      "stateMutability": "view",
      "type": "function"
    },
    {
      "constant": true,
      "inputs": [
        {
          "internalType": "uint256",
          "name": "epoch",
          "type": "uint256"
        }
      ],
      "name": "getMinExpiryFilled",
      "outputs": [
        {
          "internalType": "uint256",
          "name": "",
          "type": "uint256"
        }
      ],
      "payable": false,
      "stateMutability": "view",
      "type": "function"
    },
    {
      "constant": true,
      "inputs": [
        {
          "internalType": "uint256",
          "name": "epoch",
          "type": "uint256"
        }
      ],
      "name": "getMinYieldFilled",
      "outputs": [
        {
          "internalType": "uint256",
          "name": "",
          "type": "uint256"
        }
      ],
      "payable": false,
      "stateMutability": "view",
      "type": "function"
    },
    {
      "constant": true,
      "inputs": [
        {
          "internalType": "uint256",
          "name": "epoch",
          "type": "uint256"
        }
      ],
      "name": "getTotalAuctioned",
      "outputs": [
        {
          "internalType": "uint256",
          "name": "",
          "type": "uint256"
        }
      ],
      "payable": false,
      "stateMutability": "view",
      "type": "function"
    },
    {
      "constant": true,
      "inputs": [
        {
          "internalType": "uint256",
          "name": "epoch",
          "type": "uint256"
        }
      ],
      "name": "getTotalBurned",
      "outputs": [
        {
          "internalType": "uint256",
          "name": "",
          "type": "uint256"
        }
      ],
      "payable": false,
      "stateMutability": "view",
      "type": "function"
    },
    {
      "constant": true,
      "inputs": [
        {
          "internalType": "uint256",
          "name": "epoch",
          "type": "uint256"
        }
      ],
      "name": "getTotalFilled",
      "outputs": [
        {
          "internalType": "uint256",
          "name": "",
          "type": "uint256"
        }
      ],
      "payable": false,
      "stateMutability": "view",
      "type": "function"
    },
    {
      "constant": true,
      "inputs": [],
      "name": "implementation",
      "outputs": [
        {
          "internalType": "address",
          "name": "impl",
          "type": "address"
        }
      ],
      "payable": false,
      "stateMutability": "view",
      "type": "function"
    },
    {
      "constant": true,
      "inputs": [
        {
          "internalType": "address",
          "name": "candidate",
          "type": "address"
        }
      ],
      "name": "isInitialized",
      "outputs": [
        {
          "internalType": "bool",
          "name": "",
          "type": "bool"
        }
      ],
      "payable": false,
      "stateMutability": "view",
      "type": "function"
    },
    {
      "constant": true,
      "inputs": [
        {
          "internalType": "address",
          "name": "candidate",
          "type": "address"
        }
      ],
      "name": "isNominated",
      "outputs": [
        {
          "internalType": "bool",
          "name": "",
          "type": "bool"
        }
      ],
      "payable": false,
      "stateMutability": "view",
      "type": "function"
    },
    {
      "constant": true,
      "inputs": [
        {
          "internalType": "address",
          "name": "account",
          "type": "address"
        }
      ],
      "name": "lockedUntil",
      "outputs": [
        {
          "internalType": "uint256",
          "name": "",
          "type": "uint256"
        }
      ],
      "payable": false,
      "stateMutability": "view",
      "type": "function"
    },
    {
      "constant": true,
      "inputs": [],
      "name": "name",
      "outputs": [
        {
          "internalType": "string",
          "name": "",
          "type": "string"
        }
      ],
      "payable": false,
      "stateMutability": "view",
      "type": "function"
    },
    {
      "constant": true,
      "inputs": [],
      "name": "oracle",
      "outputs": [
        {
          "internalType": "contract IOracle",
          "name": "",
          "type": "address"
        }
      ],
      "payable": false,
      "stateMutability": "view",
      "type": "function"
    },
    {
      "constant": true,
      "inputs": [
        {
          "internalType": "uint256",
          "name": "epoch",
          "type": "uint256"
        }
      ],
      "name": "outstandingCoupons",
      "outputs": [
        {
          "internalType": "uint256",
          "name": "",
          "type": "uint256"
        }
      ],
      "payable": false,
      "stateMutability": "view",
      "type": "function"
    },
    {
      "constant": true,
      "inputs": [
        {
          "internalType": "address",
          "name": "candidate",
          "type": "address"
        }
      ],
      "name": "periodFor",
      "outputs": [
        {
          "internalType": "uint256",
          "name": "",
          "type": "uint256"
        }
      ],
      "payable": false,
      "stateMutability": "view",
      "type": "function"
    },
    {
      "constant": true,
      "inputs": [],
      "name": "pool",
      "outputs": [
        {
          "internalType": "address",
          "name": "",
          "type": "address"
        }
      ],
      "payable": false,
      "stateMutability": "view",
      "type": "function"
    },
    {
      "constant": true,
      "inputs": [
        {
          "internalType": "address",
          "name": "account",
          "type": "address"
        },
        {
          "internalType": "address",
          "name": "candidate",
          "type": "address"
        }
      ],
      "name": "recordedVote",
      "outputs": [
        {
          "internalType": "enum Candidate.Vote",
          "name": "",
          "type": "uint8"
        }
      ],
      "payable": false,
      "stateMutability": "view",
      "type": "function"
    },
    {
      "constant": true,
      "inputs": [
        {
          "internalType": "address",
          "name": "candidate",
          "type": "address"
        }
      ],
      "name": "rejectFor",
      "outputs": [
        {
          "internalType": "uint256",
          "name": "",
          "type": "uint256"
        }
      ],
      "payable": false,
      "stateMutability": "view",
      "type": "function"
    },
    {
      "constant": true,
      "inputs": [
        {
          "internalType": "address",
          "name": "candidate",
          "type": "address"
        }
      ],
      "name": "startFor",
      "outputs": [
        {
          "internalType": "uint256",
          "name": "",
          "type": "uint256"
        }
      ],
      "payable": false,
      "stateMutability": "view",
      "type": "function"
    },
    {
      "constant": true,
      "inputs": [
        {
          "internalType": "address",
          "name": "account",
          "type": "address"
        }
      ],
      "name": "statusOf",
      "outputs": [
        {
          "internalType": "enum Account.Status",
          "name": "",
          "type": "uint8"
        }
      ],
      "payable": false,
      "stateMutability": "view",
      "type": "function"
    },
    {
      "constant": true,
      "inputs": [],
      "name": "symbol",
      "outputs": [
        {
          "internalType": "string",
          "name": "",
          "type": "string"
        }
      ],
      "payable": false,
      "stateMutability": "view",
      "type": "function"
    },
    {
      "constant": true,
      "inputs": [],
      "name": "totalBonded",
      "outputs": [
        {
          "internalType": "uint256",
          "name": "",
          "type": "uint256"
        }
      ],
      "payable": false,
      "stateMutability": "view",
      "type": "function"
    },
    {
      "constant": true,
      "inputs": [
        {
          "internalType": "uint256",
          "name": "epoch",
          "type": "uint256"
        }
      ],
      "name": "totalBondedAt",
      "outputs": [
        {
          "internalType": "uint256",
          "name": "",
          "type": "uint256"
        }
      ],
      "payable": false,
      "stateMutability": "view",
      "type": "function"
    },
    {
      "constant": true,
      "inputs": [],
      "name": "totalCoupons",
      "outputs": [
        {
          "internalType": "uint256",
          "name": "",
          "type": "uint256"
        }
      ],
      "payable": false,
      "stateMutability": "view",
      "type": "function"
    },
    {
      "constant": true,
      "inputs": [],
      "name": "totalDebt",
      "outputs": [
        {
          "internalType": "uint256",
          "name": "",
          "type": "uint256"
        }
      ],
      "payable": false,
      "stateMutability": "view",
      "type": "function"
    },
    {
      "constant": true,
      "inputs": [],
      "name": "totalNet",
      "outputs": [
        {
          "internalType": "uint256",
          "name": "",
          "type": "uint256"
        }
      ],
      "payable": false,
      "stateMutability": "view",
      "type": "function"
    },
    {
      "constant": true,
      "inputs": [],
      "name": "totalRedeemable",
      "outputs": [
        {
          "internalType": "uint256",
          "name": "",
          "type": "uint256"
        }
      ],
      "payable": false,
      "stateMutability": "view",
      "type": "function"
    },
    {
      "constant": true,
      "inputs": [],
      "name": "totalStaged",
      "outputs": [
        {
          "internalType": "uint256",
          "name": "",
          "type": "uint256"
        }
      ],
      "payable": false,
      "stateMutability": "view",
      "type": "function"
    },
    {
      "constant": true,
      "inputs": [],
      "name": "totalSupply",
      "outputs": [
        {
          "internalType": "uint256",
          "name": "",
          "type": "uint256"
        }
      ],
      "payable": false,
      "stateMutability": "view",
      "type": "function"
    },
    {
      "constant": true,
      "inputs": [
        {
          "internalType": "address",
          "name": "candidate",
          "type": "address"
        }
      ],
      "name": "votesFor",
      "outputs": [
        {
          "internalType": "uint256",
          "name": "",
          "type": "uint256"
        }
      ],
      "payable": false,
      "stateMutability": "view",
      "type": "function"
    },
    {
      "constant": false,
      "inputs": [
        {
          "internalType": "address",
          "name": "recipient",
          "type": "address"
        },
        {
          "internalType": "uint256",
          "name": "amount",
          "type": "uint256"
        }
      ],
      "name": "transfer",
      "outputs": [
        {
          "internalType": "bool",
          "name": "",
          "type": "bool"
        }
      ],
      "payable": false,
      "stateMutability": "nonpayable",
      "type": "function"
    },
    {
      "constant": false,
      "inputs": [
        {
          "internalType": "address",
          "name": "spender",
          "type": "address"
        },
        {
          "internalType": "uint256",
          "name": "amount",
          "type": "uint256"
        }
      ],
      "name": "approve",
      "outputs": [
        {
          "internalType": "bool",
          "name": "",
          "type": "bool"
        }
      ],
      "payable": false,
      "stateMutability": "nonpayable",
      "type": "function"
    },
    {
      "constant": false,
      "inputs": [
        {
          "internalType": "address",
          "name": "sender",
          "type": "address"
        },
        {
          "internalType": "address",
          "name": "recipient",
          "type": "address"
        },
        {
          "internalType": "uint256",
          "name": "amount",
          "type": "uint256"
        }
      ],
      "name": "transferFrom",
      "outputs": [
        {
          "internalType": "bool",
          "name": "",
          "type": "bool"
        }
      ],
      "payable": false,
      "stateMutability": "nonpayable",
      "type": "function"
    }
  ],
  "bytecode": "0x608060405234801561001057600080fd5b506111f7806100206000396000f3fe608060405234801561001057600080fd5b50600436106103275760003560e01c80637dc0d1d0116101b8578063a9059cbb11610104578063d60b347f116100a2578063eeaca09b1161007c578063eeaca09b1461066b578063f1b7cf491461067e578063fc7b9c1814610691578063ffbe3b731461069957610327565b8063d60b347f14610637578063dd62ed3e1461064a578063dde74dc31461065857610327565b8063c9aff70c116100de578063c9aff70c146105f6578063cb0fbc7114610609578063cf0237791461061c578063d53c6f5f1461062457610327565b8063a9059cbb1461034a578063bc7513e2146105d0578063c34eee65146105e357610327565b806397a5d5b5116101715780639f1a09291161014b5780639f1a09291461058f5780639f6e1b26146105a2578063a50cd8e7146105b5578063a6c409f1146105c857610327565b806397a5d5b5146105615780639a649edc146105745780639bc289f11461057c57610327565b80637dc0d1d01461051b578063825ad6071461052357806386cf9f14146105365780638e82538814610549578063900cf0cf1461055157806395d89b411461055957610327565b80633fbba9a611610277578063520acb76116102305780636a39e3281161020a5780636a39e328146104cf57806370a08231146104e257806375d5024b146104f55780637d8bb8691461050857610327565b8063520acb76146104a15780635c60da1b146104b457806364668022146104bc57610327565b80633fbba9a61461043657806344d96e95146104565780634c7360991461045e5780635053e4611461047157806351adeb571461047957806351bf21d81461048e57610327565b80631edbcf6c116102e4578063313ce567116102be578063313ce567146103e8578063353a420c146103fd5780633a3e6c81146104105780633dc905c71461042357610327565b80631edbcf6c146103ba57806323b872dd146103c25780632d7f23b3146103d557610327565b806306fdde031461032c578063095ea7b31461034a57806310e95b6c1461036a57806315e14bf61461038a57806316f0115b1461039d57806318160ddd146103b2575b600080fd5b6103346106ac565b60405161034191906110b1565b60405180910390f35b61035d610358366004610efe565b6106e3565b6040516103419190611087565b61037d610378366004610f2e565b6106ec565b60405161034191906110e2565b61037d610398366004610e51565b610704565b6103a5610722565b6040516103419190611079565b61037d610731565b61037d610737565b61035d6103d0366004610eb1565b61073d565b61037d6103e3366004610f2e565b610746565b6103f061075b565b60405161034191906110f0565b61037d61040b366004610e51565b610760565b61035d61041e366004610e51565b61077e565b61037d610431366004610f2e565b61079b565b610449610444366004610e77565b6107b1565b60405161034191906110a3565b61037d6107e4565b61037d61046c366004610f6a565b6107ea565b61037d61081a565b61048161083d565b6040516103419190611095565b61037d61049c366004610e51565b61084c565b61037d6104af366004610f2e565b61086a565b6103a561087f565b61037d6104ca366004610e51565b6108a4565b61037d6104dd366004610f2e565b6108c2565b61037d6104f0366004610e51565b6108d7565b61035d610503366004610f2e565b6108f5565b61037d610516366004610f2e565b610908565b61048161091d565b61037d610531366004610e51565b61092c565b61037d610544366004610e51565b61097f565b61037d61099a565b61037d6109a0565b6103346109a6565b61044961056f366004610e51565b6109c4565b61037d610a29565b61037d61058a366004610e51565b610a2f565b61037d61059d366004610f2e565b610a4d565b61037d6105b0366004610e77565b610a62565b61037d6105c3366004610e51565b610a91565b61037d610ab4565b61037d6105de366004610efe565b610b4a565b61037d6105f1366004610f2e565b610b8e565b61037d610604366004610f2e565b610ba3565b61037d610617366004610f2e565b610bb8565b61037d610bcd565b61037d610632366004610f2e565b610bd3565b61035d610645366004610e51565b610be8565b61037d610358366004610e77565b61037d610666366004610f2e565b610c09565b61037d610679366004610f2e565b610c1e565b61037d61068c366004610e51565b610c33565b61037d610c4e565b61037d6106a7366004610f2e565b610c54565b60408051808201909152601881527f44796e616d69632053657420446f6c6c6172205374616b650000000000000000602082015290565b60005b92915050565b6000818152600e60205260409020600201545b919050565b6001600160a01b03166000908152600f602052604090206001015490565b600c546001600160a01b031690565b60045490565b60075490565b60009392505050565b6000908152600e60205260409020600a015490565b601290565b6001600160a01b03166000908152600f602052604090206003015490565b6001600160a01b03166000908152600f6020526040902054151590565b6000908152600e60208190526040909120015490565b6001600160a01b038082166000908152600f60209081526040808320938616835260049093019052205460ff1692915050565b60055490565b6000828152600e6020526040812060030180548390811061080757fe5b9060005260206000200154905092915050565b6000610824610e0f565b61082c610c66565b905061083781610c95565b91505090565b600a546001600160a01b031690565b6001600160a01b03166000908152600d602052604090206004015490565b6000908152600e602052604090206010015490565b7f360894a13ba1a3210667c828492db98dca3e2076cc3735a920a3ca505d382bbc5490565b6001600160a01b03166000908152600f602052604090206002015490565b6000908152600e602052604090206003015490565b6001600160a01b03166000908152600d602052604090206001015490565b60006108ff610cb7565b90911115919050565b6000908152600e602052604090206012015490565b600b546001600160a01b031690565b600080610937610731565b9050806109485760009150506106ff565b6109788161096c610958866108d7565b6109606107e4565b9063ffffffff610cbc16565b9063ffffffff610cff16565b9392505050565b6001600160a01b03166000908152600d602052604090205490565b60035490565b60025490565b6040805180820190915260048152634453445360e01b602082015290565b60006109ce6109a0565b6001600160a01b0383166000908152600d602052604090206005015411156109f8575060026106ff565b6001600160a01b0382166000908152600d6020526040902060040154610a1c6109a0565b10156106e35760016106e6565b60095490565b6001600160a01b03166000908152600d602052604090206005015490565b6000908152600e60205260409020600d015490565b6001600160a01b039182166000908152600d602090815260408083209390941682526003909201909152205490565b60006106e6610a9f83610760565b610aa8846108a4565b9063ffffffff610d4116565b6000610b45610ac1610c4e565b610ac961083d565b6001600160a01b03166318160ddd6040518163ffffffff1660e01b815260040160206040518083038186803b158015610b0157600080fd5b505afa158015610b15573d6000803e3d6000fd5b505050506040513d601f19601f82011682018060405250610b399190810190610f4c565b9063ffffffff610d6616565b905090565b6000610b5582610ba3565b610b61575060006106e6565b506001600160a01b03919091166000908152600d6020908152604080832093835260029093019052205490565b6000908152600e602052604090206011015490565b6000908152600e602052604090206001015490565b6000908152600e602052604090206013015490565b60065490565b6000908152600e60205260409020600f015490565b6001600160a01b03166000908152600f602052604090206005015460ff1690565b6000908152600e60205260409020600c015490565b6000908152600e60205260409020600b015490565b6001600160a01b03166000908152600f602052604090205490565b60085490565b6000908152600e602052604090205490565b610c6e610e0f565b604051806060016040528060008152602001635fbef0008152602001611c20815250905090565b60006106e68260000151610aa8846040015161096c8660200151610b39610da8565b609690565b600082610ccb575060006106e6565b82820282848281610cd857fe5b04146109785760405162461bcd60e51b8152600401610cf6906110d2565b60405180910390fd5b600061097883836040518060400160405280601a81526020017f536166654d6174683a206469766973696f6e206279207a65726f000000000000815250610dac565b6000828201838110156109785760405162461bcd60e51b8152600401610cf6906110c2565b600061097883836040518060400160405280601e81526020017f536166654d6174683a207375627472616374696f6e206f766572666c6f770000815250610de3565b4290565b60008183610dcd5760405162461bcd60e51b8152600401610cf691906110b1565b506000838581610dd957fe5b0495945050505050565b60008184841115610e075760405162461bcd60e51b8152600401610cf691906110b1565b505050900390565b60405180606001604052806000815260200160008152602001600081525090565b80356106e681611197565b80356106e6816111ab565b80516106e6816111ab565b600060208284031215610e6357600080fd5b6000610e6f8484610e30565b949350505050565b60008060408385031215610e8a57600080fd5b6000610e968585610e30565b9250506020610ea785828601610e30565b9150509250929050565b600080600060608486031215610ec657600080fd5b6000610ed28686610e30565b9350506020610ee386828701610e30565b9250506040610ef486828701610e3b565b9150509250925092565b60008060408385031215610f1157600080fd5b6000610f1d8585610e30565b9250506020610ea785828601610e3b565b600060208284031215610f4057600080fd5b6000610e6f8484610e3b565b600060208284031215610f5e57600080fd5b6000610e6f8484610e46565b60008060408385031215610f7d57600080fd5b6000610f1d8585610e3b565b610f928161110b565b82525050565b610f9281611116565b610f928161113a565b610f9281611145565b6000610fbe826110fe565b610fc88185611102565b9350610fd8818560208601611150565b610fe181611180565b9093019392505050565b6000610ff8601b83611102565b7f536166654d6174683a206164646974696f6e206f766572666c6f770000000000815260200192915050565b6000611031602183611102565b7f536166654d6174683a206d756c7469706c69636174696f6e206f766572666c6f8152607760f81b602082015260400192915050565b610f9281611131565b610f9281611134565b602081016106e68284610f89565b602081016106e68284610f98565b602081016106e68284610fa1565b602081016106e68284610faa565b602080825281016109788184610fb3565b602080825281016106e681610feb565b602080825281016106e681611024565b602081016106e68284611067565b602081016106e68284611070565b5190565b90815260200190565b60006106e682611125565b151590565b806106ff8161118a565b6001600160a01b031690565b90565b60ff1690565b60006106e68261110b565b60006106e68261111b565b60005b8381101561116b578181015183820152602001611153565b8381111561117a576000848401525b50505050565b601f01601f191690565b6003811061119457fe5b50565b6111a08161110b565b811461119457600080fd5b6111a08161113156fea365627a7a72315820a8f9da5396efebdfaa7bda1ab415ebcdf08524a9216fb5be41b26645591dfefa6c6578706572696d656e74616cf564736f6c63430005110040",
  "source": "/*\n    Copyright 2020 Dynamic Dollar Devs, based on the works of the Empty Set Squad\n\n    Licensed under the Apache License, Version 2.0 (the \"License\");\n    you may not use this file except in compliance with the License.\n    You may obtain a copy of the License at\n\n    http://www.apache.org/licenses/LICENSE-2.0\n\n    Unless required by applicable law or agreed to in writing, software\n    distributed under the License is distributed on an \"AS IS\" BASIS,\n    WITHOUT WARRANTIES OR CONDITIONS OF ANY KIND, either express or implied.\n    See the License for the specific language governing permissions and\n    limitations under the License.\n*/\n\npragma solidity ^0.5.17;\npragma experimental ABIEncoderV2;\n\nimport \"@openzeppelin/contracts/math/SafeMath.sol\";\nimport \"./State.sol\";\nimport \"./Getters.sol\";\n\ncontract Setters is State, Getters {\n    using SafeMath for uint256;\n\n    event Transfer(address indexed from, address indexed to, uint256 value);\n\n    /**\n     * ERC20 Interface\n     */\n\n    function transfer(address recipient, uint256 amount) external returns (bool) {\n        return false;\n    }\n\n    function approve(address spender, uint256 amount) external returns (bool) {\n        return false;\n    }\n\n    function transferFrom(address sender, address recipient, uint256 amount) external returns (bool) {\n        return false;\n    }\n\n    /**\n     * Global\n     */\n\n    function incrementTotalBonded(uint256 amount) internal {\n        _state.balance.bonded = _state.balance.bonded.add(amount);\n    }\n\n    function decrementTotalBonded(uint256 amount, string memory reason) internal {\n        _state.balance.bonded = _state.balance.bonded.sub(amount, reason);\n    }\n\n    function incrementTotalDebt(uint256 amount) internal {\n        _state.balance.debt = _state.balance.debt.add(amount);\n    }\n\n    function decrementTotalDebt(uint256 amount, string memory reason) internal {\n        _state.balance.debt = _state.balance.debt.sub(amount, reason);\n    }\n\n    function setDebtToZero() internal {\n        _state.balance.debt = 0;\n    }\n\n    function incrementTotalRedeemable(uint256 amount) internal {\n        _state.balance.redeemable = _state.balance.redeemable.add(amount);\n    }\n\n    function decrementTotalRedeemable(uint256 amount, string memory reason) internal {\n        _state.balance.redeemable = _state.balance.redeemable.sub(amount, reason);\n    }\n\n    /**\n     * Account\n     */\n\n    function incrementBalanceOf(address account, uint256 amount) internal {\n        _state.accounts[account].balance = _state.accounts[account].balance.add(amount);\n        _state.balance.supply = _state.balance.supply.add(amount);\n\n        emit Transfer(address(0), account, amount);\n    }\n\n    function decrementBalanceOf(address account, uint256 amount, string memory reason) internal {\n        _state.accounts[account].balance = _state.accounts[account].balance.sub(amount, reason);\n        _state.balance.supply = _state.balance.supply.sub(amount, reason);\n\n        emit Transfer(account, address(0), amount);\n    }\n\n    function incrementBalanceOfStaged(address account, uint256 amount) internal {\n        _state.accounts[account].staged = _state.accounts[account].staged.add(amount);\n        _state.balance.staged = _state.balance.staged.add(amount);\n    }\n\n    function decrementBalanceOfStaged(address account, uint256 amount, string memory reason) internal {\n        _state.accounts[account].staged = _state.accounts[account].staged.sub(amount, reason);\n        _state.balance.staged = _state.balance.staged.sub(amount, reason);\n    }\n\n    function incrementBalanceOfCoupons(address account, uint256 epoch, uint256 amount) internal {\n        _state.accounts[account].coupons[epoch] = _state.accounts[account].coupons[epoch].add(amount);\n        _state.epochs[epoch].coupons.outstanding = _state.epochs[epoch].coupons.outstanding.add(amount);\n        _state.balance.coupons = _state.balance.coupons.add(amount);\n    }\n\n    function decrementBalanceOfCoupons(address account, uint256 epoch, uint256 amount, string memory reason) internal {\n        _state.accounts[account].coupons[epoch] = _state.accounts[account].coupons[epoch].sub(amount, reason);\n        _state.epochs[epoch].coupons.outstanding = _state.epochs[epoch].coupons.outstanding.sub(amount, reason);\n        _state.balance.coupons = _state.balance.coupons.sub(amount, reason);\n    }\n\n    function unfreeze(address account) internal {\n        _state.accounts[account].fluidUntil = epoch().add(Constants.getDAOExitLockupEpochs());\n    }\n\n    function updateAllowanceCoupons(address owner, address spender, uint256 amount) internal {\n        _state.accounts[owner].couponAllowances[spender] = amount;\n    }\n\n    function decrementAllowanceCoupons(address owner, address spender, uint256 amount, string memory reason) internal {\n        _state.accounts[owner].couponAllowances[spender] =\n            _state.accounts[owner].couponAllowances[spender].sub(amount, reason);\n    }\n\n    /**\n     * Epoch\n     */\n\n    function incrementEpoch() internal {\n        _state.epoch.current = _state.epoch.current.add(1);\n    }\n\n    function snapshotTotalBonded() internal {\n        _state.epochs[epoch()].bonded = totalSupply();\n    }\n\n    function initializeCouponsExpiration(uint256 epoch, uint256 expiration) internal {\n        _state.epochs[epoch].coupons.expiration = expiration;\n        _state.epochs[expiration].coupons.expiring.push(epoch);\n    }\n\n    function eliminateOutstandingCoupons(uint256 epoch) internal {\n        uint256 outstandingCouponsForEpoch = outstandingCoupons(epoch);\n        if(outstandingCouponsForEpoch == 0) {\n            return;\n        }\n        _state.balance.coupons = _state.balance.coupons.sub(outstandingCouponsForEpoch);\n        _state.epochs[epoch].coupons.outstanding = 0;\n    }\n\n    function initCouponAuction() internal  {\n        if (_state.epochs[epoch()].auction.isInit == false) {\n            _state.epochs[epoch()].auction._totalBids = 0;\n            _state.epochs[epoch()].auction.minExpiry = 2**256 -1;\n            _state.epochs[epoch()].auction.maxExpiry = 0;\n            _state.epochs[epoch()].auction.minYield = 2**256 -1;\n            _state.epochs[epoch()].auction.maxYield = 0;\n            _state.epochs[epoch()].auction.minDollarAmount = 2**256 -1;\n            _state.epochs[epoch()].auction.maxDollarAmount = 0;\n            _state.epochs[epoch()].auction.isInit = true;\n        }\n    }\n\n    function cancelCouponAuctionAtEpoch(uint256 epoch) internal {\n        _state.epochs[epoch].auction.canceled = true;\n    }\n\n    function finishCouponAuctionAtEpoch(uint256 epoch) internal {\n         _state.epochs[epoch].auction.finished = true;\n    }\n\n    function setCouponBidderState(uint256 epoch, address bidder, uint256 couponEpochExpiry, uint256 dollarAmount, uint256 maxCouponAmount) internal {\n        Epoch.CouponBidderState storage bidderState = _state.epochs[epoch].auction.couponBidderState[bidder];\n\n        bidderState.couponExpiryEpoch = couponEpochExpiry;\n        bidderState.dollarAmount = dollarAmount;\n        bidderState.couponAmount = maxCouponAmount;\n        bidderState.bidder = bidder;\n    }\n\n    function setCouponBidderStateDistance(uint256 epoch, address bidder, Decimal.D256 memory distance) internal {\n        _state.epochs[epoch].auction.couponBidderState[bidder].distance = distance;\n    }\n\n    function setCouponBidderStateSelected(uint256 epoch, address bidder, uint256 index) internal {\n        _state.epochs[epoch].auction.couponBidderState[bidder].selected = true;\n        _state.epochs[epoch].auction.seletedCouponBidder[index] = bidder;\n    }\n\n    function setCouponBidderStateRejected(uint256 epoch, address bidder) internal {\n        _state.epochs[epoch].auction.couponBidderState[bidder].rejected = true;\n    }\n\n    function setCouponBidderStateRedeemed(uint256 epoch, address bidder) internal {\n        _state.epochs[epoch].auction.couponBidderState[bidder].redeemed = true;\n    }\n\n    function setCouponBidderStateIndex(uint256 epoch, uint256 index, address bidder) internal {\n        _state.epochs[epoch].auction.couponBidder[index] = bidder;\n    }\n\n    function incrementCouponAuctionBids() internal {\n        _state.epochs[epoch()].auction._totalBids++;\n    }\n\n    function setCouponAuctionRelYield(uint256 yield) internal {\n        if (yield > _state.epochs[epoch()].auction.maxYield) {\n            _state.epochs[epoch()].auction.maxYield = yield;\n        }\n\n        if (_state.epochs[epoch()].auction.minYield > yield) {\n            _state.epochs[epoch()].auction.minYield = yield;\n        }\n    }\n    \n    function setCouponAuctionRelExpiry(uint256 couponEpochExpiry) internal {\n        if (couponEpochExpiry > _state.epochs[epoch()].auction.maxExpiry) {\n            _state.epochs[epoch()].auction.maxExpiry = couponEpochExpiry;\n        } \n\n        if (couponEpochExpiry < _state.epochs[epoch()].auction.minExpiry) {\n            _state.epochs[epoch()].auction.minExpiry = couponEpochExpiry;\n        }\n    }\n\n    function setCouponAuctionRelDollarAmount(uint256 couponDollarAmount) internal {\n        if (couponDollarAmount > _state.epochs[epoch()].auction.maxDollarAmount) {\n            _state.epochs[epoch()].auction.maxDollarAmount = couponDollarAmount;\n        }\n\n        if (couponDollarAmount < _state.epochs[epoch()].auction.minDollarAmount) {\n            _state.epochs[epoch()].auction.minDollarAmount = couponDollarAmount;\n        }\n    }\n\n    function setMinExpiryFilled(uint256 epoch, uint256 minExpiryFilled) internal {\n        _state.epochs[epoch].auction.minExpiryFilled = minExpiryFilled;\n    }\n    \n    function setMaxExpiryFilled(uint256 epoch, uint256 maxExpiryFilled) internal {\n        _state.epochs[epoch].auction.maxExpiryFilled = maxExpiryFilled;\n    }\n    \n    function setAvgExpiryFilled(uint256 epoch, uint256 avgExpiryFilled) internal {\n        _state.epochs[epoch].auction.avgExpiryFilled = avgExpiryFilled;\n    }\n    \n    function setMinYieldFilled(uint256 epoch, uint256 minYieldFilled) internal {\n        _state.epochs[epoch].auction.minYieldFilled = minYieldFilled;\n    }\n    \n    function setMaxYieldFilled(uint256 epoch, uint256 maxYieldFilled) internal {\n        _state.epochs[epoch].auction.maxYieldFilled = maxYieldFilled;\n    }\n    \n    function setAvgYieldFilled(uint256 epoch, uint256 avgYieldFilled) internal {\n        _state.epochs[epoch].auction.avgYieldFilled = avgYieldFilled;\n    }\n    \n    function setBidToCover(uint256 epoch, uint256 bidToCover) internal {\n        _state.epochs[epoch].auction.bidToCover = bidToCover;\n    }\n    \n    function setTotalFilled(uint256 epoch, uint256 totalFilled) internal {\n        _state.epochs[epoch].auction.totalFilled = totalFilled;\n    }\n\n    function setTotalAuctioned(uint256 epoch, uint256 totalAuctioned) internal {\n        _state.epochs[epoch].auction.totalAuctioned = totalAuctioned;\n    }\n\n    function setCouponAuctionStateDead(uint256 epoch) internal {\n        _state.epochs[epoch].auction.dead = true;\n    }\n\n    function setTotalBurned(uint256 epoch, uint256 totalBurned) internal {\n        _state.epochs[epoch].auction.totalBurned = totalBurned;\n    }\n\n    function setLatestDeadAuctionEpoch(uint256 epoch) internal {\n        _state.epoch.latestDeadAuction = epoch;\n    }\n\n    function setDeadAuction(uint256 epoch) internal {\n        _state.epochs[epoch].auction.dead = true;\n    }\n        \n\n    /**\n     * Governance\n     */\n\n    function createCandidate(address candidate, uint256 period) internal {\n        _state.candidates[candidate].start = epoch();\n        _state.candidates[candidate].period = period;\n    }\n\n    function recordVote(address account, address candidate, Candidate.Vote vote) internal {\n        _state.candidates[candidate].votes[account] = vote;\n    }\n\n    function incrementApproveFor(address candidate, uint256 amount) internal {\n        _state.candidates[candidate].approve = _state.candidates[candidate].approve.add(amount);\n    }\n\n    function decrementApproveFor(address candidate, uint256 amount, string memory reason) internal {\n        _state.candidates[candidate].approve = _state.candidates[candidate].approve.sub(amount, reason);\n    }\n\n    function incrementRejectFor(address candidate, uint256 amount) internal {\n        _state.candidates[candidate].reject = _state.candidates[candidate].reject.add(amount);\n    }\n\n    function decrementRejectFor(address candidate, uint256 amount, string memory reason) internal {\n        _state.candidates[candidate].reject = _state.candidates[candidate].reject.sub(amount, reason);\n    }\n\n    function placeLock(address account, address candidate) internal {\n        uint256 currentLock = _state.accounts[account].lockedUntil;\n        uint256 newLock = startFor(candidate).add(periodFor(candidate));\n        if (newLock > currentLock) {\n            _state.accounts[account].lockedUntil = newLock;\n        }\n    }\n\n    function initialized(address candidate) internal {\n        _state.candidates[candidate].initialized = true;\n    }\n}\n",
  "sourcePath": "/Users/cinquemb/Documents/Startups/crypto/dollar/protocol/contracts/dao/Setters.sol",
  "compiler": {
    "name": "solc",
    "version": "0.5.17+commit.d19bba13.Emscripten.clang"
  },
  "schemaVersion": "3.3.3",
  "updatedAt": "2021-01-15T13:15:55.286Z",
  "devdoc": {
    "methods": {}
  },
  "userdoc": {
    "methods": {
      "balanceOfStaged(address)": {
        "notice": "Account"
      },
      "dollar()": {
        "notice": "Global"
      },
      "epoch()": {
        "notice": "Epoch"
      },
      "name()": {
        "notice": "ERC20 Interface"
      },
      "recordedVote(address,address)": {
        "notice": "Governance"
      },
      "transfer(address,uint256)": {
        "notice": "ERC20 Interface"
      }
    }
  }
}