{
  "contractName": "Setters",
  "abi": [
    {
      "anonymous": false,
      "inputs": [
        {
          "indexed": true,
          "internalType": "address",
          "name": "from",
          "type": "address"
        },
        {
          "indexed": true,
          "internalType": "address",
          "name": "to",
          "type": "address"
        },
        {
          "indexed": false,
          "internalType": "uint256",
          "name": "value",
          "type": "uint256"
        }
      ],
      "name": "Transfer",
      "type": "event"
    },
    {
      "constant": true,
      "inputs": [
        {
          "internalType": "address",
          "name": "owner",
          "type": "address"
        },
        {
          "internalType": "address",
          "name": "spender",
          "type": "address"
        }
      ],
      "name": "allowance",
      "outputs": [
        {
          "internalType": "uint256",
          "name": "",
          "type": "uint256"
        }
      ],
      "payable": false,
      "stateMutability": "view",
      "type": "function"
    },
    {
      "constant": true,
      "inputs": [
        {
          "internalType": "address",
          "name": "owner",
          "type": "address"
        },
        {
          "internalType": "address",
          "name": "spender",
          "type": "address"
        }
      ],
      "name": "allowanceCoupons",
      "outputs": [
        {
          "internalType": "uint256",
          "name": "",
          "type": "uint256"
        }
      ],
      "payable": false,
      "stateMutability": "view",
      "type": "function"
    },
    {
      "constant": true,
      "inputs": [
        {
          "internalType": "address",
          "name": "candidate",
          "type": "address"
        }
      ],
      "name": "approveFor",
      "outputs": [
        {
          "internalType": "uint256",
          "name": "",
          "type": "uint256"
        }
      ],
      "payable": false,
      "stateMutability": "view",
      "type": "function"
    },
    {
      "constant": true,
      "inputs": [
        {
          "internalType": "address",
          "name": "account",
          "type": "address"
        }
      ],
      "name": "balanceOf",
      "outputs": [
        {
          "internalType": "uint256",
          "name": "",
          "type": "uint256"
        }
      ],
      "payable": false,
      "stateMutability": "view",
      "type": "function"
    },
    {
      "constant": true,
      "inputs": [
        {
          "internalType": "address",
          "name": "account",
          "type": "address"
        }
      ],
      "name": "balanceOfBonded",
      "outputs": [
        {
          "internalType": "uint256",
          "name": "",
          "type": "uint256"
        }
      ],
      "payable": false,
      "stateMutability": "view",
      "type": "function"
    },
    {
      "constant": true,
      "inputs": [
        {
          "internalType": "address",
          "name": "account",
          "type": "address"
        },
        {
          "internalType": "uint256",
          "name": "epoch",
          "type": "uint256"
        }
      ],
      "name": "balanceOfCoupons",
      "outputs": [
        {
          "internalType": "uint256",
          "name": "",
          "type": "uint256"
        }
      ],
      "payable": false,
      "stateMutability": "view",
      "type": "function"
    },
    {
      "constant": true,
      "inputs": [
        {
          "internalType": "address",
          "name": "account",
          "type": "address"
        }
      ],
      "name": "balanceOfStaged",
      "outputs": [
        {
          "internalType": "uint256",
          "name": "",
          "type": "uint256"
        }
      ],
      "payable": false,
      "stateMutability": "view",
      "type": "function"
    },
    {
      "constant": true,
      "inputs": [
        {
          "internalType": "uint256",
          "name": "epoch",
          "type": "uint256"
        }
      ],
      "name": "bootstrappingAt",
      "outputs": [
        {
          "internalType": "bool",
          "name": "",
          "type": "bool"
        }
      ],
      "payable": false,
      "stateMutability": "view",
      "type": "function"
    },
    {
      "constant": true,
      "inputs": [
        {
          "internalType": "uint256",
          "name": "epoch",
          "type": "uint256"
        }
      ],
      "name": "couponsExpiration",
      "outputs": [
        {
          "internalType": "uint256",
          "name": "",
          "type": "uint256"
        }
      ],
      "payable": false,
      "stateMutability": "view",
      "type": "function"
    },
    {
      "constant": true,
      "inputs": [],
      "name": "decimals",
      "outputs": [
        {
          "internalType": "uint8",
          "name": "",
          "type": "uint8"
        }
      ],
      "payable": false,
      "stateMutability": "view",
      "type": "function"
    },
    {
      "constant": true,
      "inputs": [],
      "name": "dollar",
      "outputs": [
        {
          "internalType": "contract IDollar",
          "name": "",
          "type": "address"
        }
      ],
      "payable": false,
      "stateMutability": "view",
      "type": "function"
    },
    {
      "constant": true,
      "inputs": [],
      "name": "epoch",
      "outputs": [
        {
          "internalType": "uint256",
          "name": "",
          "type": "uint256"
        }
      ],
      "payable": false,
      "stateMutability": "view",
      "type": "function"
    },
    {
      "constant": true,
      "inputs": [],
      "name": "epochTime",
      "outputs": [
        {
          "internalType": "uint256",
          "name": "",
          "type": "uint256"
        }
      ],
      "payable": false,
      "stateMutability": "view",
      "type": "function"
    },
    {
      "constant": true,
      "inputs": [
        {
          "internalType": "uint256",
          "name": "epoch",
          "type": "uint256"
        }
      ],
      "name": "expiringCoupons",
      "outputs": [
        {
          "internalType": "uint256",
          "name": "",
          "type": "uint256"
        }
      ],
      "payable": false,
      "stateMutability": "view",
      "type": "function"
    },
    {
      "constant": true,
      "inputs": [
        {
          "internalType": "uint256",
          "name": "epoch",
          "type": "uint256"
        },
        {
          "internalType": "uint256",
          "name": "i",
          "type": "uint256"
        }
      ],
      "name": "expiringCouponsAtIndex",
      "outputs": [
        {
          "internalType": "uint256",
          "name": "",
          "type": "uint256"
        }
      ],
      "payable": false,
      "stateMutability": "view",
      "type": "function"
    },
    {
      "constant": true,
      "inputs": [],
      "name": "implementation",
      "outputs": [
        {
          "internalType": "address",
          "name": "impl",
          "type": "address"
        }
      ],
      "payable": false,
      "stateMutability": "view",
      "type": "function"
    },
    {
      "constant": true,
      "inputs": [
        {
          "internalType": "address",
          "name": "candidate",
          "type": "address"
        }
      ],
      "name": "isInitialized",
      "outputs": [
        {
          "internalType": "bool",
          "name": "",
          "type": "bool"
        }
      ],
      "payable": false,
      "stateMutability": "view",
      "type": "function"
    },
    {
      "constant": true,
      "inputs": [
        {
          "internalType": "address",
          "name": "candidate",
          "type": "address"
        }
      ],
      "name": "isNominated",
      "outputs": [
        {
          "internalType": "bool",
          "name": "",
          "type": "bool"
        }
      ],
      "payable": false,
      "stateMutability": "view",
      "type": "function"
    },
    {
      "constant": true,
      "inputs": [],
      "name": "name",
      "outputs": [
        {
          "internalType": "string",
          "name": "",
          "type": "string"
        }
      ],
      "payable": false,
      "stateMutability": "view",
      "type": "function"
    },
    {
      "constant": true,
      "inputs": [],
      "name": "oracle",
      "outputs": [
        {
          "internalType": "contract IOracle",
          "name": "",
          "type": "address"
        }
      ],
      "payable": false,
      "stateMutability": "view",
      "type": "function"
    },
    {
      "constant": true,
      "inputs": [
        {
          "internalType": "uint256",
          "name": "epoch",
          "type": "uint256"
        }
      ],
      "name": "outstandingCoupons",
      "outputs": [
        {
          "internalType": "uint256",
          "name": "",
          "type": "uint256"
        }
      ],
      "payable": false,
      "stateMutability": "view",
      "type": "function"
    },
    {
      "constant": true,
      "inputs": [
        {
          "internalType": "address",
          "name": "candidate",
          "type": "address"
        }
      ],
      "name": "periodFor",
      "outputs": [
        {
          "internalType": "uint256",
          "name": "",
          "type": "uint256"
        }
      ],
      "payable": false,
      "stateMutability": "view",
      "type": "function"
    },
    {
      "constant": true,
      "inputs": [],
      "name": "pool",
      "outputs": [
        {
          "internalType": "address",
          "name": "",
          "type": "address"
        }
      ],
      "payable": false,
      "stateMutability": "view",
      "type": "function"
    },
    {
      "constant": true,
      "inputs": [
        {
          "internalType": "address",
          "name": "account",
          "type": "address"
        },
        {
          "internalType": "address",
          "name": "candidate",
          "type": "address"
        }
      ],
      "name": "recordedVote",
      "outputs": [
        {
          "internalType": "enum Candidate.Vote",
          "name": "",
          "type": "uint8"
        }
      ],
      "payable": false,
      "stateMutability": "view",
      "type": "function"
    },
    {
      "constant": true,
      "inputs": [
        {
          "internalType": "address",
          "name": "candidate",
          "type": "address"
        }
      ],
      "name": "rejectFor",
      "outputs": [
        {
          "internalType": "uint256",
          "name": "",
          "type": "uint256"
        }
      ],
      "payable": false,
      "stateMutability": "view",
      "type": "function"
    },
    {
      "constant": true,
      "inputs": [
        {
          "internalType": "address",
          "name": "candidate",
          "type": "address"
        }
      ],
      "name": "startFor",
      "outputs": [
        {
          "internalType": "uint256",
          "name": "",
          "type": "uint256"
        }
      ],
      "payable": false,
      "stateMutability": "view",
      "type": "function"
    },
    {
      "constant": true,
      "inputs": [
        {
          "internalType": "address",
          "name": "account",
          "type": "address"
        }
      ],
      "name": "statusOf",
      "outputs": [
        {
          "internalType": "enum Account.Status",
          "name": "",
          "type": "uint8"
        }
      ],
      "payable": false,
      "stateMutability": "view",
      "type": "function"
    },
    {
      "constant": true,
      "inputs": [],
      "name": "symbol",
      "outputs": [
        {
          "internalType": "string",
          "name": "",
          "type": "string"
        }
      ],
      "payable": false,
      "stateMutability": "view",
      "type": "function"
    },
    {
      "constant": true,
      "inputs": [],
      "name": "totalBonded",
      "outputs": [
        {
          "internalType": "uint256",
          "name": "",
          "type": "uint256"
        }
      ],
      "payable": false,
      "stateMutability": "view",
      "type": "function"
    },
    {
      "constant": true,
      "inputs": [
        {
          "internalType": "uint256",
          "name": "epoch",
          "type": "uint256"
        }
      ],
      "name": "totalBondedAt",
      "outputs": [
        {
          "internalType": "uint256",
          "name": "",
          "type": "uint256"
        }
      ],
      "payable": false,
      "stateMutability": "view",
      "type": "function"
    },
    {
      "constant": true,
      "inputs": [],
      "name": "totalCoupons",
      "outputs": [
        {
          "internalType": "uint256",
          "name": "",
          "type": "uint256"
        }
      ],
      "payable": false,
      "stateMutability": "view",
      "type": "function"
    },
    {
      "constant": true,
      "inputs": [],
      "name": "totalDebt",
      "outputs": [
        {
          "internalType": "uint256",
          "name": "",
          "type": "uint256"
        }
      ],
      "payable": false,
      "stateMutability": "view",
      "type": "function"
    },
    {
      "constant": true,
      "inputs": [],
      "name": "totalNet",
      "outputs": [
        {
          "internalType": "uint256",
          "name": "",
          "type": "uint256"
        }
      ],
      "payable": false,
      "stateMutability": "view",
      "type": "function"
    },
    {
      "constant": true,
      "inputs": [],
      "name": "totalRedeemable",
      "outputs": [
        {
          "internalType": "uint256",
          "name": "",
          "type": "uint256"
        }
      ],
      "payable": false,
      "stateMutability": "view",
      "type": "function"
    },
    {
      "constant": true,
      "inputs": [],
      "name": "totalStaged",
      "outputs": [
        {
          "internalType": "uint256",
          "name": "",
          "type": "uint256"
        }
      ],
      "payable": false,
      "stateMutability": "view",
      "type": "function"
    },
    {
      "constant": true,
      "inputs": [],
      "name": "totalSupply",
      "outputs": [
        {
          "internalType": "uint256",
          "name": "",
          "type": "uint256"
        }
      ],
      "payable": false,
      "stateMutability": "view",
      "type": "function"
    },
    {
      "constant": true,
      "inputs": [
        {
          "internalType": "address",
          "name": "candidate",
          "type": "address"
        }
      ],
      "name": "votesFor",
      "outputs": [
        {
          "internalType": "uint256",
          "name": "",
          "type": "uint256"
        }
      ],
      "payable": false,
      "stateMutability": "view",
      "type": "function"
    },
    {
      "constant": false,
      "inputs": [
        {
          "internalType": "address",
          "name": "recipient",
          "type": "address"
        },
        {
          "internalType": "uint256",
          "name": "amount",
          "type": "uint256"
        }
      ],
      "name": "transfer",
      "outputs": [
        {
          "internalType": "bool",
          "name": "",
          "type": "bool"
        }
      ],
      "payable": false,
      "stateMutability": "nonpayable",
      "type": "function"
    },
    {
      "constant": false,
      "inputs": [
        {
          "internalType": "address",
          "name": "spender",
          "type": "address"
        },
        {
          "internalType": "uint256",
          "name": "amount",
          "type": "uint256"
        }
      ],
      "name": "approve",
      "outputs": [
        {
          "internalType": "bool",
          "name": "",
          "type": "bool"
        }
      ],
      "payable": false,
      "stateMutability": "nonpayable",
      "type": "function"
    },
    {
      "constant": false,
      "inputs": [
        {
          "internalType": "address",
          "name": "sender",
          "type": "address"
        },
        {
          "internalType": "address",
          "name": "recipient",
          "type": "address"
        },
        {
          "internalType": "uint256",
          "name": "amount",
          "type": "uint256"
        }
      ],
      "name": "transferFrom",
      "outputs": [
        {
          "internalType": "bool",
          "name": "",
          "type": "bool"
        }
      ],
      "payable": false,
      "stateMutability": "nonpayable",
      "type": "function"
    }
  ],
  "bytecode": "0x608060405234801561001057600080fd5b50610f17806100206000396000f3fe608060405234801561001057600080fd5b50600436106102485760003560e01c806375d5024b1161013b578063a6c409f1116100b8578063d60b347f1161007c578063d60b347f14610492578063dd62ed3e146104a5578063f1b7cf49146104b3578063fc7b9c18146104c6578063ffbe3b73146104ce57610248565b8063a6c409f11461045c578063a9059cbb1461026b578063bc7513e214610464578063c9aff70c14610477578063cf0237791461048a57610248565b806395d89b41116100ff57806395d89b411461041357806397a5d5b51461041b5780639a649edc1461042e5780639f6e1b2614610436578063a50cd8e71461044957610248565b806375d5024b146103ca5780637dc0d1d0146103dd578063825ad607146103e557806386cf9f14146103f8578063900cf0cf1461040b57610248565b80633a3e6c81116101c957806351adeb571161018d57806351adeb57146103745780635c60da1b1461038957806364668022146103915780636a39e328146103a457806370a08231146103b757610248565b80633a3e6c811461031e5780633fbba9a61461033157806344d96e95146103515780634c736099146103595780635053e4611461036c57610248565b806318160ddd1161021057806318160ddd146102d35780631edbcf6c146102db57806323b872dd146102e3578063313ce567146102f6578063353a420c1461030b57610248565b806306fdde031461024d578063095ea7b31461026b57806310e95b6c1461028b57806315e14bf6146102ab57806316f0115b146102be575b600080fd5b6102556104e1565b6040516102629190610dd1565b60405180910390f35b61027e610279366004610c1e565b610518565b6040516102629190610da7565b61029e610299366004610c4e565b610521565b6040516102629190610e02565b61029e6102b9366004610b71565b610539565b6102c6610557565b6040516102629190610d99565b61029e610566565b61029e61056c565b61027e6102f1366004610bd1565b610572565b6102fe61057b565b6040516102629190610e10565b61029e610319366004610b71565b610580565b61027e61032c366004610b71565b61059e565b61034461033f366004610b97565b6105bb565b6040516102629190610dc3565b61029e6105ee565b61029e610367366004610c8a565b6105f4565b61029e610624565b61037c610647565b6040516102629190610db5565b6102c6610656565b61029e61039f366004610b71565b61067b565b61029e6103b2366004610c4e565b610699565b61029e6103c5366004610b71565b6106ae565b61027e6103d8366004610c4e565b6106cc565b61037c6106df565b61029e6103f3366004610b71565b6106ee565b61029e610406366004610b71565b610741565b61029e61075c565b610255610762565b610344610429366004610b71565b610780565b61029e6107e5565b61029e610444366004610b97565b6107eb565b61029e610457366004610b71565b61081a565b61029e61083d565b61029e610472366004610c1e565b6108d3565b61029e610485366004610c4e565b610917565b61029e61092c565b61027e6104a0366004610b71565b610932565b61029e610279366004610b97565b61029e6104c1366004610b71565b610953565b61029e61096e565b61029e6104dc366004610c4e565b610974565b60408051808201909152601881527f44796e616d69632053657420446f6c6c6172205374616b650000000000000000602082015290565b60005b92915050565b6000818152600d60205260409020600201545b919050565b6001600160a01b03166000908152600e602052604090206001015490565b600b546001600160a01b031690565b60035490565b60065490565b60009392505050565b601290565b6001600160a01b03166000908152600e602052604090206003015490565b6001600160a01b03166000908152600e6020526040902054151590565b6001600160a01b038082166000908152600e60209081526040808320938616835260049093019052205460ff1692915050565b60045490565b6000828152600d6020526040812060030180548390811061061157fe5b9060005260206000200154905092915050565b600061062e610b2f565b610636610986565b9050610641816109b5565b91505090565b6009546001600160a01b031690565b7f360894a13ba1a3210667c828492db98dca3e2076cc3735a920a3ca505d382bbc5490565b6001600160a01b03166000908152600e602052604090206002015490565b6000908152600d602052604090206003015490565b6001600160a01b03166000908152600c602052604090206001015490565b60006106d66109d7565b90911115919050565b600a546001600160a01b031690565b6000806106f9610566565b90508061070a576000915050610534565b61073a8161072e61071a866106ae565b6107226105ee565b9063ffffffff6109dc16565b9063ffffffff610a1f16565b9392505050565b6001600160a01b03166000908152600c602052604090205490565b60025490565b6040805180820190915260048152634453445360e01b602082015290565b600061078a61075c565b6001600160a01b0383166000908152600c602052604090206005015411156107b457506002610534565b6001600160a01b0382166000908152600c60205260409020600401546107d861075c565b101561051857600161051b565b60085490565b6001600160a01b039182166000908152600c602090815260408083209390941682526003909201909152205490565b600061051b61082883610580565b6108318461067b565b9063ffffffff610a6116565b60006108ce61084a61096e565b610852610647565b6001600160a01b03166318160ddd6040518163ffffffff1660e01b815260040160206040518083038186803b15801561088a57600080fd5b505afa15801561089e573d6000803e3d6000fd5b505050506040513d601f19601f820116820180604052506108c29190810190610c6c565b9063ffffffff610a8616565b905090565b60006108de82610917565b6108ea5750600061051b565b506001600160a01b03919091166000908152600c6020908152604080832093835260029093019052205490565b6000908152600d602052604090206001015490565b60055490565b6001600160a01b03166000908152600e602052604090206005015460ff1690565b6001600160a01b03166000908152600e602052604090205490565b60075490565b6000908152600d602052604090205490565b61098e610b2f565b604051806060016040528060008152602001635fbef0008152602001611c20815250905090565b600061051b8260000151610831846040015161072e86602001516108c2610ac8565b609690565b6000826109eb5750600061051b565b828202828482816109f857fe5b041461073a5760405162461bcd60e51b8152600401610a1690610df2565b60405180910390fd5b600061073a83836040518060400160405280601a81526020017f536166654d6174683a206469766973696f6e206279207a65726f000000000000815250610acc565b60008282018381101561073a5760405162461bcd60e51b8152600401610a1690610de2565b600061073a83836040518060400160405280601e81526020017f536166654d6174683a207375627472616374696f6e206f766572666c6f770000815250610b03565b4290565b60008183610aed5760405162461bcd60e51b8152600401610a169190610dd1565b506000838581610af957fe5b0495945050505050565b60008184841115610b275760405162461bcd60e51b8152600401610a169190610dd1565b505050900390565b60405180606001604052806000815260200160008152602001600081525090565b803561051b81610eb7565b803561051b81610ecb565b805161051b81610ecb565b600060208284031215610b8357600080fd5b6000610b8f8484610b50565b949350505050565b60008060408385031215610baa57600080fd5b6000610bb68585610b50565b9250506020610bc785828601610b50565b9150509250929050565b600080600060608486031215610be657600080fd5b6000610bf28686610b50565b9350506020610c0386828701610b50565b9250506040610c1486828701610b5b565b9150509250925092565b60008060408385031215610c3157600080fd5b6000610c3d8585610b50565b9250506020610bc785828601610b5b565b600060208284031215610c6057600080fd5b6000610b8f8484610b5b565b600060208284031215610c7e57600080fd5b6000610b8f8484610b66565b60008060408385031215610c9d57600080fd5b6000610c3d8585610b5b565b610cb281610e2b565b82525050565b610cb281610e36565b610cb281610e5a565b610cb281610e65565b6000610cde82610e1e565b610ce88185610e22565b9350610cf8818560208601610e70565b610d0181610ea0565b9093019392505050565b6000610d18601b83610e22565b7f536166654d6174683a206164646974696f6e206f766572666c6f770000000000815260200192915050565b6000610d51602183610e22565b7f536166654d6174683a206d756c7469706c69636174696f6e206f766572666c6f8152607760f81b602082015260400192915050565b610cb281610e51565b610cb281610e54565b6020810161051b8284610ca9565b6020810161051b8284610cb8565b6020810161051b8284610cc1565b6020810161051b8284610cca565b6020808252810161073a8184610cd3565b6020808252810161051b81610d0b565b6020808252810161051b81610d44565b6020810161051b8284610d87565b6020810161051b8284610d90565b5190565b90815260200190565b600061051b82610e45565b151590565b8061053481610eaa565b6001600160a01b031690565b90565b60ff1690565b600061051b82610e2b565b600061051b82610e3b565b60005b83811015610e8b578181015183820152602001610e73565b83811115610e9a576000848401525b50505050565b601f01601f191690565b60038110610eb457fe5b50565b610ec081610e2b565b8114610eb457600080fd5b610ec081610e5156fea365627a7a72315820a0ab5211b9f53c312b8eb559e7789c057c7dc29f129ac78affc730265d7e98a76c6578706572696d656e74616cf564736f6c63430005110040",
  "source": "/*\n    Copyright 2020 Dynamic Dollar Devs, based on the works of the Empty Set Squad\n\n    Licensed under the Apache License, Version 2.0 (the \"License\");\n    you may not use this file except in compliance with the License.\n    You may obtain a copy of the License at\n\n    http://www.apache.org/licenses/LICENSE-2.0\n\n    Unless required by applicable law or agreed to in writing, software\n    distributed under the License is distributed on an \"AS IS\" BASIS,\n    WITHOUT WARRANTIES OR CONDITIONS OF ANY KIND, either express or implied.\n    See the License for the specific language governing permissions and\n    limitations under the License.\n*/\n\npragma solidity ^0.5.17;\npragma experimental ABIEncoderV2;\n\nimport \"@openzeppelin/contracts/math/SafeMath.sol\";\nimport \"./State.sol\";\nimport \"./Getters.sol\";\n\ncontract Setters is State, Getters {\n    using SafeMath for uint256;\n\n    event Transfer(address indexed from, address indexed to, uint256 value);\n\n    /**\n     * ERC20 Interface\n     */\n\n    function transfer(address recipient, uint256 amount) external returns (bool) {\n        return false;\n    }\n\n    function approve(address spender, uint256 amount) external returns (bool) {\n        return false;\n    }\n\n    function transferFrom(address sender, address recipient, uint256 amount) external returns (bool) {\n        return false;\n    }\n\n    /**\n     * Global\n     */\n\n    function incrementTotalBonded(uint256 amount) internal {\n        _state.balance.bonded = _state.balance.bonded.add(amount);\n    }\n\n    function decrementTotalBonded(uint256 amount, string memory reason) internal {\n        _state.balance.bonded = _state.balance.bonded.sub(amount, reason);\n    }\n\n    function incrementTotalDebt(uint256 amount) internal {\n        _state.balance.debt = _state.balance.debt.add(amount);\n    }\n\n    function decrementTotalDebt(uint256 amount, string memory reason) internal {\n        _state.balance.debt = _state.balance.debt.sub(amount, reason);\n    }\n\n    function setDebtToZero() internal {\n        _state.balance.debt = 0;\n    }\n\n    function incrementTotalRedeemable(uint256 amount) internal {\n        _state.balance.redeemable = _state.balance.redeemable.add(amount);\n    }\n\n    function decrementTotalRedeemable(uint256 amount, string memory reason) internal {\n        _state.balance.redeemable = _state.balance.redeemable.sub(amount, reason);\n    }\n\n    /**\n     * Account\n     */\n\n    function incrementBalanceOf(address account, uint256 amount) internal {\n        _state.accounts[account].balance = _state.accounts[account].balance.add(amount);\n        _state.balance.supply = _state.balance.supply.add(amount);\n\n        emit Transfer(address(0), account, amount);\n    }\n\n    function decrementBalanceOf(address account, uint256 amount, string memory reason) internal {\n        _state.accounts[account].balance = _state.accounts[account].balance.sub(amount, reason);\n        _state.balance.supply = _state.balance.supply.sub(amount, reason);\n\n        emit Transfer(account, address(0), amount);\n    }\n\n    function incrementBalanceOfStaged(address account, uint256 amount) internal {\n        _state.accounts[account].staged = _state.accounts[account].staged.add(amount);\n        _state.balance.staged = _state.balance.staged.add(amount);\n    }\n\n    function decrementBalanceOfStaged(address account, uint256 amount, string memory reason) internal {\n        _state.accounts[account].staged = _state.accounts[account].staged.sub(amount, reason);\n        _state.balance.staged = _state.balance.staged.sub(amount, reason);\n    }\n\n    function incrementBalanceOfCoupons(address account, uint256 epoch, uint256 amount) internal {\n        _state.accounts[account].coupons[epoch] = _state.accounts[account].coupons[epoch].add(amount);\n        _state.epochs[epoch].coupons.outstanding = _state.epochs[epoch].coupons.outstanding.add(amount);\n        _state.balance.coupons = _state.balance.coupons.add(amount);\n    }\n\n    function decrementBalanceOfCoupons(address account, uint256 epoch, uint256 amount, string memory reason) internal {\n        _state.accounts[account].coupons[epoch] = _state.accounts[account].coupons[epoch].sub(amount, reason);\n        _state.epochs[epoch].coupons.outstanding = _state.epochs[epoch].coupons.outstanding.sub(amount, reason);\n        _state.balance.coupons = _state.balance.coupons.sub(amount, reason);\n    }\n\n    function unfreeze(address account) internal {\n        _state.accounts[account].fluidUntil = epoch().add(Constants.getDAOExitLockupEpochs());\n    }\n\n    function updateAllowanceCoupons(address owner, address spender, uint256 amount) internal {\n        _state.accounts[owner].couponAllowances[spender] = amount;\n    }\n\n    function decrementAllowanceCoupons(address owner, address spender, uint256 amount, string memory reason) internal {\n        _state.accounts[owner].couponAllowances[spender] =\n            _state.accounts[owner].couponAllowances[spender].sub(amount, reason);\n    }\n\n    /**\n     * Epoch\n     */\n\n    function incrementEpoch() internal {\n        _state.epoch.current = _state.epoch.current.add(1);\n    }\n\n    function snapshotTotalBonded() internal {\n        _state.epochs[epoch()].bonded = totalSupply();\n    }\n\n    function initializeCouponsExpiration(uint256 epoch, uint256 expiration) internal {\n        _state.epochs[epoch].coupons.expiration = expiration;\n        _state.epochs[expiration].coupons.expiring.push(epoch);\n    }\n\n    function eliminateOutstandingCoupons(uint256 epoch) internal {\n        uint256 outstandingCouponsForEpoch = outstandingCoupons(epoch);\n        if(outstandingCouponsForEpoch == 0) {\n            return;\n        }\n        _state.balance.coupons = _state.balance.coupons.sub(outstandingCouponsForEpoch);\n        _state.epochs[epoch].coupons.outstanding = 0;\n    }\n\n    /**\n     * Governance\n     */\n\n    function createCandidate(address candidate, uint256 period) internal {\n        _state.candidates[candidate].start = epoch();\n        _state.candidates[candidate].period = period;\n    }\n\n    function recordVote(address account, address candidate, Candidate.Vote vote) internal {\n        _state.candidates[candidate].votes[account] = vote;\n    }\n\n    function incrementApproveFor(address candidate, uint256 amount) internal {\n        _state.candidates[candidate].approve = _state.candidates[candidate].approve.add(amount);\n    }\n\n    function decrementApproveFor(address candidate, uint256 amount, string memory reason) internal {\n        _state.candidates[candidate].approve = _state.candidates[candidate].approve.sub(amount, reason);\n    }\n\n    function incrementRejectFor(address candidate, uint256 amount) internal {\n        _state.candidates[candidate].reject = _state.candidates[candidate].reject.add(amount);\n    }\n\n    function decrementRejectFor(address candidate, uint256 amount, string memory reason) internal {\n        _state.candidates[candidate].reject = _state.candidates[candidate].reject.sub(amount, reason);\n    }\n\n    function placeLock(address account, address candidate) internal {\n        uint256 currentLock = _state.accounts[account].lockedUntil;\n        uint256 newLock = startFor(candidate).add(periodFor(candidate));\n        if (newLock > currentLock) {\n            _state.accounts[account].lockedUntil = newLock;\n        }\n    }\n\n    function initialized(address candidate) internal {\n        _state.candidates[candidate].initialized = true;\n    }\n}\n",
  "sourcePath": "/home/name/Desktop/Files/projects/dynamic/dollar/protocol/contracts/dao/Setters.sol",
  "compiler": {
    "name": "solc",
    "version": "0.5.17+commit.d19bba13.Emscripten.clang"
  },
  "schemaVersion": "3.3.1",
  "updatedAt": "2020-11-25T22:34:45.210Z",
  "devdoc": {
    "methods": {}
  },
  "userdoc": {
    "methods": {
      "balanceOfStaged(address)": {
        "notice": "Account"
      },
      "dollar()": {
        "notice": "Global"
      },
      "epoch()": {
        "notice": "Epoch"
      },
      "name()": {
        "notice": "ERC20 Interface"
      },
      "recordedVote(address,address)": {
        "notice": "Governance"
      },
      "transfer(address,uint256)": {
        "notice": "ERC20 Interface"
      }
    }
  }
}