{
  "contractName": "Setters",
  "abi": [
    {
      "anonymous": false,
      "inputs": [
        {
          "indexed": true,
          "internalType": "address",
          "name": "from",
          "type": "address"
        },
        {
          "indexed": true,
          "internalType": "address",
          "name": "to",
          "type": "address"
        },
        {
          "indexed": false,
          "internalType": "uint256",
          "name": "value",
          "type": "uint256"
        }
      ],
      "name": "Transfer",
      "type": "event"
    },
    {
      "constant": true,
      "inputs": [
        {
          "internalType": "address",
          "name": "owner",
          "type": "address"
        },
        {
          "internalType": "address",
          "name": "spender",
          "type": "address"
        }
      ],
      "name": "allowance",
      "outputs": [
        {
          "internalType": "uint256",
          "name": "",
          "type": "uint256"
        }
      ],
      "payable": false,
      "stateMutability": "view",
      "type": "function"
    },
    {
      "constant": true,
      "inputs": [
        {
          "internalType": "address",
          "name": "owner",
          "type": "address"
        },
        {
          "internalType": "address",
          "name": "spender",
          "type": "address"
        }
      ],
      "name": "allowanceCoupons",
      "outputs": [
        {
          "internalType": "uint256",
          "name": "",
          "type": "uint256"
        }
      ],
      "payable": false,
      "stateMutability": "view",
      "type": "function"
    },
    {
      "constant": true,
      "inputs": [
        {
          "internalType": "address",
          "name": "candidate",
          "type": "address"
        }
      ],
      "name": "approveFor",
      "outputs": [
        {
          "internalType": "uint256",
          "name": "",
          "type": "uint256"
        }
      ],
      "payable": false,
      "stateMutability": "view",
      "type": "function"
    },
    {
      "constant": true,
      "inputs": [
        {
          "internalType": "address",
          "name": "account",
          "type": "address"
        }
      ],
      "name": "balanceOf",
      "outputs": [
        {
          "internalType": "uint256",
          "name": "",
          "type": "uint256"
        }
      ],
      "payable": false,
      "stateMutability": "view",
      "type": "function"
    },
    {
      "constant": true,
      "inputs": [
        {
          "internalType": "address",
          "name": "account",
          "type": "address"
        }
      ],
      "name": "balanceOfBonded",
      "outputs": [
        {
          "internalType": "uint256",
          "name": "",
          "type": "uint256"
        }
      ],
      "payable": false,
      "stateMutability": "view",
      "type": "function"
    },
    {
      "constant": true,
      "inputs": [
        {
          "internalType": "address",
          "name": "account",
          "type": "address"
        },
        {
          "internalType": "uint256",
          "name": "epoch",
          "type": "uint256"
        }
      ],
      "name": "balanceOfCoupons",
      "outputs": [
        {
          "internalType": "uint256",
          "name": "",
          "type": "uint256"
        }
      ],
      "payable": false,
      "stateMutability": "view",
      "type": "function"
    },
    {
      "constant": true,
      "inputs": [
        {
          "internalType": "address",
          "name": "account",
          "type": "address"
        }
      ],
      "name": "balanceOfStaged",
      "outputs": [
        {
          "internalType": "uint256",
          "name": "",
          "type": "uint256"
        }
      ],
      "payable": false,
      "stateMutability": "view",
      "type": "function"
    },
    {
      "constant": true,
      "inputs": [
        {
          "internalType": "uint256",
          "name": "epoch",
          "type": "uint256"
        }
      ],
      "name": "bootstrappingAt",
      "outputs": [
        {
          "internalType": "bool",
          "name": "",
          "type": "bool"
        }
      ],
      "payable": false,
      "stateMutability": "view",
      "type": "function"
    },
    {
      "constant": true,
      "inputs": [
        {
          "internalType": "uint256",
          "name": "epoch",
          "type": "uint256"
        }
      ],
      "name": "couponsExpiration",
      "outputs": [
        {
          "internalType": "uint256",
          "name": "",
          "type": "uint256"
        }
      ],
      "payable": false,
      "stateMutability": "view",
      "type": "function"
    },
    {
      "constant": true,
      "inputs": [],
      "name": "decimals",
      "outputs": [
        {
          "internalType": "uint8",
          "name": "",
          "type": "uint8"
        }
      ],
      "payable": false,
      "stateMutability": "view",
      "type": "function"
    },
    {
      "constant": true,
      "inputs": [],
      "name": "dollar",
      "outputs": [
        {
          "internalType": "contract IDollar",
          "name": "",
          "type": "address"
        }
      ],
      "payable": false,
      "stateMutability": "view",
      "type": "function"
    },
    {
      "constant": true,
      "inputs": [],
      "name": "epoch",
      "outputs": [
        {
          "internalType": "uint256",
          "name": "",
          "type": "uint256"
        }
      ],
      "payable": false,
      "stateMutability": "view",
      "type": "function"
    },
    {
      "constant": true,
      "inputs": [],
      "name": "epochTime",
      "outputs": [
        {
          "internalType": "uint256",
          "name": "",
          "type": "uint256"
        }
      ],
      "payable": false,
      "stateMutability": "view",
      "type": "function"
    },
    {
      "constant": true,
      "inputs": [
        {
          "internalType": "uint256",
          "name": "epoch",
          "type": "uint256"
        }
      ],
      "name": "expiringCoupons",
      "outputs": [
        {
          "internalType": "uint256",
          "name": "",
          "type": "uint256"
        }
      ],
      "payable": false,
      "stateMutability": "view",
      "type": "function"
    },
    {
      "constant": true,
      "inputs": [
        {
          "internalType": "uint256",
          "name": "epoch",
          "type": "uint256"
        },
        {
          "internalType": "uint256",
          "name": "i",
          "type": "uint256"
        }
      ],
      "name": "expiringCouponsAtIndex",
      "outputs": [
        {
          "internalType": "uint256",
          "name": "",
          "type": "uint256"
        }
      ],
      "payable": false,
      "stateMutability": "view",
      "type": "function"
    },
    {
      "constant": true,
      "inputs": [
        {
          "internalType": "address",
          "name": "account",
          "type": "address"
        }
      ],
      "name": "fluidUntil",
      "outputs": [
        {
          "internalType": "uint256",
          "name": "",
          "type": "uint256"
        }
      ],
      "payable": false,
      "stateMutability": "view",
      "type": "function"
    },
    {
      "constant": true,
      "inputs": [
        {
          "internalType": "uint256",
          "name": "epoch",
          "type": "uint256"
        }
      ],
      "name": "getAvgExpiryFilled",
      "outputs": [
        {
          "internalType": "uint256",
          "name": "",
          "type": "uint256"
        }
      ],
      "payable": false,
      "stateMutability": "view",
      "type": "function"
    },
    {
      "constant": true,
      "inputs": [
        {
          "internalType": "uint256",
          "name": "epoch",
          "type": "uint256"
        }
      ],
      "name": "getAvgYieldFilled",
      "outputs": [
        {
          "internalType": "uint256",
          "name": "",
          "type": "uint256"
        }
      ],
      "payable": false,
      "stateMutability": "view",
      "type": "function"
    },
    {
      "constant": true,
      "inputs": [
        {
          "internalType": "uint256",
          "name": "epoch",
          "type": "uint256"
        }
      ],
      "name": "getBidToCover",
      "outputs": [
        {
          "internalType": "uint256",
          "name": "",
          "type": "uint256"
        }
      ],
      "payable": false,
      "stateMutability": "view",
      "type": "function"
    },
    {
      "constant": true,
      "inputs": [
        {
          "internalType": "uint256",
          "name": "epoch",
          "type": "uint256"
        }
      ],
      "name": "getMaxExpiryFilled",
      "outputs": [
        {
          "internalType": "uint256",
          "name": "",
          "type": "uint256"
        }
      ],
      "payable": false,
      "stateMutability": "view",
      "type": "function"
    },
    {
      "constant": true,
      "inputs": [
        {
          "internalType": "uint256",
          "name": "epoch",
          "type": "uint256"
        }
      ],
      "name": "getMaxYieldFilled",
      "outputs": [
        {
          "internalType": "uint256",
          "name": "",
          "type": "uint256"
        }
      ],
      "payable": false,
      "stateMutability": "view",
      "type": "function"
    },
    {
      "constant": true,
      "inputs": [
        {
          "internalType": "uint256",
          "name": "epoch",
          "type": "uint256"
        }
      ],
      "name": "getMinExpiryFilled",
      "outputs": [
        {
          "internalType": "uint256",
          "name": "",
          "type": "uint256"
        }
      ],
      "payable": false,
      "stateMutability": "view",
      "type": "function"
    },
    {
      "constant": true,
      "inputs": [
        {
          "internalType": "uint256",
          "name": "epoch",
          "type": "uint256"
        }
      ],
      "name": "getMinYieldFilled",
      "outputs": [
        {
          "internalType": "uint256",
          "name": "",
          "type": "uint256"
        }
      ],
      "payable": false,
      "stateMutability": "view",
      "type": "function"
    },
    {
      "constant": true,
      "inputs": [
        {
          "internalType": "uint256",
          "name": "epoch",
          "type": "uint256"
        }
      ],
      "name": "getTotalFilled",
      "outputs": [
        {
          "internalType": "uint256",
          "name": "",
          "type": "uint256"
        }
      ],
      "payable": false,
      "stateMutability": "view",
      "type": "function"
    },
    {
      "constant": true,
      "inputs": [],
      "name": "implementation",
      "outputs": [
        {
          "internalType": "address",
          "name": "impl",
          "type": "address"
        }
      ],
      "payable": false,
      "stateMutability": "view",
      "type": "function"
    },
    {
      "constant": true,
      "inputs": [
        {
          "internalType": "address",
          "name": "candidate",
          "type": "address"
        }
      ],
      "name": "isInitialized",
      "outputs": [
        {
          "internalType": "bool",
          "name": "",
          "type": "bool"
        }
      ],
      "payable": false,
      "stateMutability": "view",
      "type": "function"
    },
    {
      "constant": true,
      "inputs": [
        {
          "internalType": "address",
          "name": "candidate",
          "type": "address"
        }
      ],
      "name": "isNominated",
      "outputs": [
        {
          "internalType": "bool",
          "name": "",
          "type": "bool"
        }
      ],
      "payable": false,
      "stateMutability": "view",
      "type": "function"
    },
    {
      "constant": true,
      "inputs": [
        {
          "internalType": "address",
          "name": "account",
          "type": "address"
        }
      ],
      "name": "lockedUntil",
      "outputs": [
        {
          "internalType": "uint256",
          "name": "",
          "type": "uint256"
        }
      ],
      "payable": false,
      "stateMutability": "view",
      "type": "function"
    },
    {
      "constant": true,
      "inputs": [],
      "name": "name",
      "outputs": [
        {
          "internalType": "string",
          "name": "",
          "type": "string"
        }
      ],
      "payable": false,
      "stateMutability": "view",
      "type": "function"
    },
    {
      "constant": true,
      "inputs": [],
      "name": "oracle",
      "outputs": [
        {
          "internalType": "contract IOracle",
          "name": "",
          "type": "address"
        }
      ],
      "payable": false,
      "stateMutability": "view",
      "type": "function"
    },
    {
      "constant": true,
      "inputs": [
        {
          "internalType": "uint256",
          "name": "epoch",
          "type": "uint256"
        }
      ],
      "name": "outstandingCoupons",
      "outputs": [
        {
          "internalType": "uint256",
          "name": "",
          "type": "uint256"
        }
      ],
      "payable": false,
      "stateMutability": "view",
      "type": "function"
    },
    {
      "constant": true,
      "inputs": [
        {
          "internalType": "address",
          "name": "candidate",
          "type": "address"
        }
      ],
      "name": "periodFor",
      "outputs": [
        {
          "internalType": "uint256",
          "name": "",
          "type": "uint256"
        }
      ],
      "payable": false,
      "stateMutability": "view",
      "type": "function"
    },
    {
      "constant": true,
      "inputs": [],
      "name": "pool",
      "outputs": [
        {
          "internalType": "address",
          "name": "",
          "type": "address"
        }
      ],
      "payable": false,
      "stateMutability": "view",
      "type": "function"
    },
    {
      "constant": true,
      "inputs": [
        {
          "internalType": "address",
          "name": "account",
          "type": "address"
        },
        {
          "internalType": "address",
          "name": "candidate",
          "type": "address"
        }
      ],
      "name": "recordedVote",
      "outputs": [
        {
          "internalType": "enum Candidate.Vote",
          "name": "",
          "type": "uint8"
        }
      ],
      "payable": false,
      "stateMutability": "view",
      "type": "function"
    },
    {
      "constant": true,
      "inputs": [
        {
          "internalType": "address",
          "name": "candidate",
          "type": "address"
        }
      ],
      "name": "rejectFor",
      "outputs": [
        {
          "internalType": "uint256",
          "name": "",
          "type": "uint256"
        }
      ],
      "payable": false,
      "stateMutability": "view",
      "type": "function"
    },
    {
      "constant": true,
      "inputs": [
        {
          "internalType": "address",
          "name": "candidate",
          "type": "address"
        }
      ],
      "name": "startFor",
      "outputs": [
        {
          "internalType": "uint256",
          "name": "",
          "type": "uint256"
        }
      ],
      "payable": false,
      "stateMutability": "view",
      "type": "function"
    },
    {
      "constant": true,
      "inputs": [
        {
          "internalType": "address",
          "name": "account",
          "type": "address"
        }
      ],
      "name": "statusOf",
      "outputs": [
        {
          "internalType": "enum Account.Status",
          "name": "",
          "type": "uint8"
        }
      ],
      "payable": false,
      "stateMutability": "view",
      "type": "function"
    },
    {
      "constant": true,
      "inputs": [],
      "name": "symbol",
      "outputs": [
        {
          "internalType": "string",
          "name": "",
          "type": "string"
        }
      ],
      "payable": false,
      "stateMutability": "view",
      "type": "function"
    },
    {
      "constant": true,
      "inputs": [],
      "name": "totalBonded",
      "outputs": [
        {
          "internalType": "uint256",
          "name": "",
          "type": "uint256"
        }
      ],
      "payable": false,
      "stateMutability": "view",
      "type": "function"
    },
    {
      "constant": true,
      "inputs": [
        {
          "internalType": "uint256",
          "name": "epoch",
          "type": "uint256"
        }
      ],
      "name": "totalBondedAt",
      "outputs": [
        {
          "internalType": "uint256",
          "name": "",
          "type": "uint256"
        }
      ],
      "payable": false,
      "stateMutability": "view",
      "type": "function"
    },
    {
      "constant": true,
      "inputs": [],
      "name": "totalCoupons",
      "outputs": [
        {
          "internalType": "uint256",
          "name": "",
          "type": "uint256"
        }
      ],
      "payable": false,
      "stateMutability": "view",
      "type": "function"
    },
    {
      "constant": true,
      "inputs": [],
      "name": "totalDebt",
      "outputs": [
        {
          "internalType": "uint256",
          "name": "",
          "type": "uint256"
        }
      ],
      "payable": false,
      "stateMutability": "view",
      "type": "function"
    },
    {
      "constant": true,
      "inputs": [],
      "name": "totalNet",
      "outputs": [
        {
          "internalType": "uint256",
          "name": "",
          "type": "uint256"
        }
      ],
      "payable": false,
      "stateMutability": "view",
      "type": "function"
    },
    {
      "constant": true,
      "inputs": [],
      "name": "totalRedeemable",
      "outputs": [
        {
          "internalType": "uint256",
          "name": "",
          "type": "uint256"
        }
      ],
      "payable": false,
      "stateMutability": "view",
      "type": "function"
    },
    {
      "constant": true,
      "inputs": [],
      "name": "totalStaged",
      "outputs": [
        {
          "internalType": "uint256",
          "name": "",
          "type": "uint256"
        }
      ],
      "payable": false,
      "stateMutability": "view",
      "type": "function"
    },
    {
      "constant": true,
      "inputs": [],
      "name": "totalSupply",
      "outputs": [
        {
          "internalType": "uint256",
          "name": "",
          "type": "uint256"
        }
      ],
      "payable": false,
      "stateMutability": "view",
      "type": "function"
    },
    {
      "constant": true,
      "inputs": [
        {
          "internalType": "address",
          "name": "candidate",
          "type": "address"
        }
      ],
      "name": "votesFor",
      "outputs": [
        {
          "internalType": "uint256",
          "name": "",
          "type": "uint256"
        }
      ],
      "payable": false,
      "stateMutability": "view",
      "type": "function"
    },
    {
      "constant": false,
      "inputs": [
        {
          "internalType": "address",
          "name": "recipient",
          "type": "address"
        },
        {
          "internalType": "uint256",
          "name": "amount",
          "type": "uint256"
        }
      ],
      "name": "transfer",
      "outputs": [
        {
          "internalType": "bool",
          "name": "",
          "type": "bool"
        }
      ],
      "payable": false,
      "stateMutability": "nonpayable",
      "type": "function"
    },
    {
      "constant": false,
      "inputs": [
        {
          "internalType": "address",
          "name": "spender",
          "type": "address"
        },
        {
          "internalType": "uint256",
          "name": "amount",
          "type": "uint256"
        }
      ],
      "name": "approve",
      "outputs": [
        {
          "internalType": "bool",
          "name": "",
          "type": "bool"
        }
      ],
      "payable": false,
      "stateMutability": "nonpayable",
      "type": "function"
    },
    {
      "constant": false,
      "inputs": [
        {
          "internalType": "address",
          "name": "sender",
          "type": "address"
        },
        {
          "internalType": "address",
          "name": "recipient",
          "type": "address"
        },
        {
          "internalType": "uint256",
          "name": "amount",
          "type": "uint256"
        }
      ],
      "name": "transferFrom",
      "outputs": [
        {
          "internalType": "bool",
          "name": "",
          "type": "bool"
        }
      ],
      "payable": false,
      "stateMutability": "nonpayable",
      "type": "function"
    }
  ],
  "bytecode": "0x608060405234801561001057600080fd5b50611148806100206000396000f3fe608060405234801561001057600080fd5b50600436106102d65760003560e01c80637d8bb86911610182578063a9059cbb116100e9578063d53c6f5f116100a2578063eeaca09b1161007c578063eeaca09b146105ec578063f1b7cf49146105ff578063fc7b9c1814610612578063ffbe3b731461061a576102d6565b8063d53c6f5f146105b8578063d60b347f146105cb578063dd62ed3e146105de576102d6565b8063a9059cbb146102f9578063bc7513e214610564578063c34eee6514610577578063c9aff70c1461058a578063cb0fbc711461059d578063cf023779146105b0576102d6565b806397a5d5b51161013b57806397a5d5b5146105085780639a649edc1461051b5780639bc289f1146105235780639f6e1b2614610536578063a50cd8e714610549578063a6c409f11461055c576102d6565b80637d8bb869146104b75780637dc0d1d0146104ca578063825ad607146104d257806386cf9f14146104e5578063900cf0cf146104f857806395d89b4114610500576102d6565b80633dc905c71161024157806351bf21d8116101fa57806364668022116101d4578063646680221461046b5780636a39e3281461047e57806370a082311461049157806375d5024b146104a4576102d6565b806351bf21d81461043d578063520acb76146104505780635c60da1b14610463576102d6565b80633dc905c7146103d25780633fbba9a6146103e557806344d96e95146104055780634c7360991461040d5780635053e4611461042057806351adeb5714610428576102d6565b80631edbcf6c116102935780631edbcf6c1461036957806323b872dd146103715780632d7f23b314610384578063313ce56714610397578063353a420c146103ac5780633a3e6c81146103bf576102d6565b806306fdde03146102db578063095ea7b3146102f957806310e95b6c1461031957806315e14bf61461033957806316f0115b1461034c57806318160ddd14610361575b600080fd5b6102e361062d565b6040516102f09190611002565b60405180910390f35b61030c610307366004610e4f565b610664565b6040516102f09190610fd8565b61032c610327366004610e7f565b61066d565b6040516102f09190611033565b61032c610347366004610da2565b610685565b6103546106a3565b6040516102f09190610fca565b61032c6106b2565b61032c6106b8565b61030c61037f366004610e02565b6106be565b61032c610392366004610e7f565b6106c7565b61039f6106dc565b6040516102f09190611041565b61032c6103ba366004610da2565b6106e1565b61030c6103cd366004610da2565b6106ff565b61032c6103e0366004610e7f565b61071c565b6103f86103f3366004610dc8565b610731565b6040516102f09190610ff4565b61032c610764565b61032c61041b366004610ebb565b61076a565b61032c61079a565b6104306107bd565b6040516102f09190610fe6565b61032c61044b366004610da2565b6107cc565b61032c61045e366004610e7f565b6107ea565b6103546107ff565b61032c610479366004610da2565b610824565b61032c61048c366004610e7f565b610842565b61032c61049f366004610da2565b610857565b61030c6104b2366004610e7f565b610875565b61032c6104c5366004610e7f565b610888565b61043061089d565b61032c6104e0366004610da2565b6108ac565b61032c6104f3366004610da2565b6108ff565b61032c61091a565b6102e3610920565b6103f8610516366004610da2565b61093e565b61032c6109a3565b61032c610531366004610da2565b6109a9565b61032c610544366004610dc8565b6109c7565b61032c610557366004610da2565b6109f6565b61032c610a19565b61032c610572366004610e4f565b610aaf565b61032c610585366004610e7f565b610af3565b61032c610598366004610e7f565b610b08565b61032c6105ab366004610e7f565b610b1d565b61032c610b32565b61032c6105c6366004610e7f565b610b38565b61030c6105d9366004610da2565b610b4e565b61032c610307366004610dc8565b61032c6105fa366004610e7f565b610b6f565b61032c61060d366004610da2565b610b84565b61032c610b9f565b61032c610628366004610e7f565b610ba5565b60408051808201909152601881527f44796e616d69632053657420446f6c6c6172205374616b650000000000000000602082015290565b60005b92915050565b6000818152600d60205260409020600201545b919050565b6001600160a01b03166000908152600e602052604090206001015490565b600b546001600160a01b031690565b60035490565b60065490565b60009392505050565b6000908152600d60205260409020600a015490565b601290565b6001600160a01b03166000908152600e602052604090206003015490565b6001600160a01b03166000908152600e6020526040902054151590565b6000908152600d60205260409020600c015490565b6001600160a01b038082166000908152600e60209081526040808320938616835260049093019052205460ff1692915050565b60045490565b6000828152600d6020526040812060030180548390811061078757fe5b9060005260206000200154905092915050565b60006107a4610d60565b6107ac610bb7565b90506107b781610be6565b91505090565b6009546001600160a01b031690565b6001600160a01b03166000908152600c602052604090206004015490565b6000908152600d60205260409020600e015490565b7f360894a13ba1a3210667c828492db98dca3e2076cc3735a920a3ca505d382bbc5490565b6001600160a01b03166000908152600e602052604090206002015490565b6000908152600d602052604090206003015490565b6001600160a01b03166000908152600c602052604090206001015490565b600061087f610c08565b90911115919050565b6000908152600d602052604090206010015490565b600a546001600160a01b031690565b6000806108b76106b2565b9050806108c8576000915050610680565b6108f8816108ec6108d886610857565b6108e0610764565b9063ffffffff610c0d16565b9063ffffffff610c5016565b9392505050565b6001600160a01b03166000908152600c602052604090205490565b60025490565b6040805180820190915260048152634453445360e01b602082015290565b600061094861091a565b6001600160a01b0383166000908152600c6020526040902060050154111561097257506002610680565b6001600160a01b0382166000908152600c602052604090206004015461099661091a565b1015610664576001610667565b60085490565b6001600160a01b03166000908152600c602052604090206005015490565b6001600160a01b039182166000908152600c602090815260408083209390941682526003909201909152205490565b6000610667610a04836106e1565b610a0d84610824565b9063ffffffff610c9216565b6000610aaa610a26610b9f565b610a2e6107bd565b6001600160a01b03166318160ddd6040518163ffffffff1660e01b815260040160206040518083038186803b158015610a6657600080fd5b505afa158015610a7a573d6000803e3d6000fd5b505050506040513d601f19601f82011682018060405250610a9e9190810190610e9d565b9063ffffffff610cb716565b905090565b6000610aba82610b08565b610ac657506000610667565b506001600160a01b03919091166000908152600c6020908152604080832093835260029093019052205490565b6000908152600d60205260409020600f015490565b6000908152600d602052604090206001015490565b6000908152600d602052604090206011015490565b60055490565b6000908152600d60208190526040909120015490565b6001600160a01b03166000908152600e602052604090206005015460ff1690565b6000908152600d60205260409020600b015490565b6001600160a01b03166000908152600e602052604090205490565b60075490565b6000908152600d602052604090205490565b610bbf610d60565b604051806060016040528060008152602001635fbef0008152602001611c20815250905090565b60006106678260000151610a0d84604001516108ec8660200151610a9e610cf9565b609690565b600082610c1c57506000610667565b82820282848281610c2957fe5b04146108f85760405162461bcd60e51b8152600401610c4790611023565b60405180910390fd5b60006108f883836040518060400160405280601a81526020017f536166654d6174683a206469766973696f6e206279207a65726f000000000000815250610cfd565b6000828201838110156108f85760405162461bcd60e51b8152600401610c4790611013565b60006108f883836040518060400160405280601e81526020017f536166654d6174683a207375627472616374696f6e206f766572666c6f770000815250610d34565b4290565b60008183610d1e5760405162461bcd60e51b8152600401610c479190611002565b506000838581610d2a57fe5b0495945050505050565b60008184841115610d585760405162461bcd60e51b8152600401610c479190611002565b505050900390565b60405180606001604052806000815260200160008152602001600081525090565b8035610667816110e8565b8035610667816110fc565b8051610667816110fc565b600060208284031215610db457600080fd5b6000610dc08484610d81565b949350505050565b60008060408385031215610ddb57600080fd5b6000610de78585610d81565b9250506020610df885828601610d81565b9150509250929050565b600080600060608486031215610e1757600080fd5b6000610e238686610d81565b9350506020610e3486828701610d81565b9250506040610e4586828701610d8c565b9150509250925092565b60008060408385031215610e6257600080fd5b6000610e6e8585610d81565b9250506020610df885828601610d8c565b600060208284031215610e9157600080fd5b6000610dc08484610d8c565b600060208284031215610eaf57600080fd5b6000610dc08484610d97565b60008060408385031215610ece57600080fd5b6000610e6e8585610d8c565b610ee38161105c565b82525050565b610ee381611067565b610ee38161108b565b610ee381611096565b6000610f0f8261104f565b610f198185611053565b9350610f298185602086016110a1565b610f32816110d1565b9093019392505050565b6000610f49601b83611053565b7f536166654d6174683a206164646974696f6e206f766572666c6f770000000000815260200192915050565b6000610f82602183611053565b7f536166654d6174683a206d756c7469706c69636174696f6e206f766572666c6f8152607760f81b602082015260400192915050565b610ee381611082565b610ee381611085565b602081016106678284610eda565b602081016106678284610ee9565b602081016106678284610ef2565b602081016106678284610efb565b602080825281016108f88184610f04565b6020808252810161066781610f3c565b6020808252810161066781610f75565b602081016106678284610fb8565b602081016106678284610fc1565b5190565b90815260200190565b600061066782611076565b151590565b80610680816110db565b6001600160a01b031690565b90565b60ff1690565b60006106678261105c565b60006106678261106c565b60005b838110156110bc5781810151838201526020016110a4565b838111156110cb576000848401525b50505050565b601f01601f191690565b600381106110e557fe5b50565b6110f18161105c565b81146110e557600080fd5b6110f18161108256fea365627a7a72315820bb3f22bad9d6cebeaa53f8c6485bf5db4b1536856cc6476fb4d0bc9af2f0e63c6c6578706572696d656e74616cf564736f6c63430005110040",
  "source": "/*\n    Copyright 2020 Dynamic Dollar Devs, based on the works of the Empty Set Squad\n\n    Licensed under the Apache License, Version 2.0 (the \"License\");\n    you may not use this file except in compliance with the License.\n    You may obtain a copy of the License at\n\n    http://www.apache.org/licenses/LICENSE-2.0\n\n    Unless required by applicable law or agreed to in writing, software\n    distributed under the License is distributed on an \"AS IS\" BASIS,\n    WITHOUT WARRANTIES OR CONDITIONS OF ANY KIND, either express or implied.\n    See the License for the specific language governing permissions and\n    limitations under the License.\n*/\n\npragma solidity ^0.5.17;\npragma experimental ABIEncoderV2;\n\nimport \"@openzeppelin/contracts/math/SafeMath.sol\";\nimport \"./State.sol\";\nimport \"./Getters.sol\";\n\ncontract Setters is State, Getters {\n    using SafeMath for uint256;\n\n    event Transfer(address indexed from, address indexed to, uint256 value);\n\n    /**\n     * ERC20 Interface\n     */\n\n    function transfer(address recipient, uint256 amount) external returns (bool) {\n        return false;\n    }\n\n    function approve(address spender, uint256 amount) external returns (bool) {\n        return false;\n    }\n\n    function transferFrom(address sender, address recipient, uint256 amount) external returns (bool) {\n        return false;\n    }\n\n    /**\n     * Global\n     */\n\n    function incrementTotalBonded(uint256 amount) internal {\n        _state.balance.bonded = _state.balance.bonded.add(amount);\n    }\n\n    function decrementTotalBonded(uint256 amount, string memory reason) internal {\n        _state.balance.bonded = _state.balance.bonded.sub(amount, reason);\n    }\n\n    function incrementTotalDebt(uint256 amount) internal {\n        _state.balance.debt = _state.balance.debt.add(amount);\n    }\n\n    function decrementTotalDebt(uint256 amount, string memory reason) internal {\n        _state.balance.debt = _state.balance.debt.sub(amount, reason);\n    }\n\n    function setDebtToZero() internal {\n        _state.balance.debt = 0;\n    }\n\n    function incrementTotalRedeemable(uint256 amount) internal {\n        _state.balance.redeemable = _state.balance.redeemable.add(amount);\n    }\n\n    function decrementTotalRedeemable(uint256 amount, string memory reason) internal {\n        _state.balance.redeemable = _state.balance.redeemable.sub(amount, reason);\n    }\n\n    /**\n     * Account\n     */\n\n    function incrementBalanceOf(address account, uint256 amount) internal {\n        _state.accounts[account].balance = _state.accounts[account].balance.add(amount);\n        _state.balance.supply = _state.balance.supply.add(amount);\n\n        emit Transfer(address(0), account, amount);\n    }\n\n    function decrementBalanceOf(address account, uint256 amount, string memory reason) internal {\n        _state.accounts[account].balance = _state.accounts[account].balance.sub(amount, reason);\n        _state.balance.supply = _state.balance.supply.sub(amount, reason);\n\n        emit Transfer(account, address(0), amount);\n    }\n\n    function incrementBalanceOfStaged(address account, uint256 amount) internal {\n        _state.accounts[account].staged = _state.accounts[account].staged.add(amount);\n        _state.balance.staged = _state.balance.staged.add(amount);\n    }\n\n    function decrementBalanceOfStaged(address account, uint256 amount, string memory reason) internal {\n        _state.accounts[account].staged = _state.accounts[account].staged.sub(amount, reason);\n        _state.balance.staged = _state.balance.staged.sub(amount, reason);\n    }\n\n    function incrementBalanceOfCoupons(address account, uint256 epoch, uint256 amount) internal {\n        _state.accounts[account].coupons[epoch] = _state.accounts[account].coupons[epoch].add(amount);\n        _state.epochs[epoch].coupons.outstanding = _state.epochs[epoch].coupons.outstanding.add(amount);\n        _state.balance.coupons = _state.balance.coupons.add(amount);\n    }\n\n    function decrementBalanceOfCoupons(address account, uint256 epoch, uint256 amount, string memory reason) internal {\n        _state.accounts[account].coupons[epoch] = _state.accounts[account].coupons[epoch].sub(amount, reason);\n        _state.epochs[epoch].coupons.outstanding = _state.epochs[epoch].coupons.outstanding.sub(amount, reason);\n        _state.balance.coupons = _state.balance.coupons.sub(amount, reason);\n    }\n\n    function unfreeze(address account) internal {\n        _state.accounts[account].fluidUntil = epoch().add(Constants.getDAOExitLockupEpochs());\n    }\n\n    function updateAllowanceCoupons(address owner, address spender, uint256 amount) internal {\n        _state.accounts[owner].couponAllowances[spender] = amount;\n    }\n\n    function decrementAllowanceCoupons(address owner, address spender, uint256 amount, string memory reason) internal {\n        _state.accounts[owner].couponAllowances[spender] =\n            _state.accounts[owner].couponAllowances[spender].sub(amount, reason);\n    }\n\n    /**\n     * Epoch\n     */\n\n    function incrementEpoch() internal {\n        _state.epoch.current = _state.epoch.current.add(1);\n    }\n\n    function snapshotTotalBonded() internal {\n        _state.epochs[epoch()].bonded = totalSupply();\n    }\n\n    function initializeCouponsExpiration(uint256 epoch, uint256 expiration) internal {\n        _state.epochs[epoch].coupons.expiration = expiration;\n        _state.epochs[expiration].coupons.expiring.push(epoch);\n    }\n\n    function eliminateOutstandingCoupons(uint256 epoch) internal {\n        uint256 outstandingCouponsForEpoch = outstandingCoupons(epoch);\n        if(outstandingCouponsForEpoch == 0) {\n            return;\n        }\n        _state.balance.coupons = _state.balance.coupons.sub(outstandingCouponsForEpoch);\n        _state.epochs[epoch].coupons.outstanding = 0;\n    }\n\n    function initCouponAuction() internal  {\n        if (_state.epochs[epoch()].auction.isInit == false) {\n            _state.epochs[epoch()].auction._totalBids = 0;\n            _state.epochs[epoch()].auction.minExpiry = 2**256 -1;\n            _state.epochs[epoch()].auction.maxExpiry = 0;\n            _state.epochs[epoch()].auction.minYield = 2**256 -1;\n            _state.epochs[epoch()].auction.maxYield = 0;\n            _state.epochs[epoch()].auction.minDollarAmount = 2**256 -1;\n            _state.epochs[epoch()].auction.maxDollarAmount = 0;\n            _state.epochs[epoch()].auction.isInit = true;\n        }\n    }\n\n    function cancelCouponAuctionAtEpoch(uint256 epoch) internal {\n        _state.epochs[epoch].auction.canceled = true;\n    }\n\n    function finishCouponAuctionAtEpoch(uint256 epoch) internal {\n         _state.epochs[epoch].auction.finished = true;\n    }\n\n    function setCouponBidderState(address bidder, uint256 couponEpochExpiry, uint256 dollarAmount, uint256 maxCouponAmount) internal {\n        Epoch.CouponBidderState storage bidderState = _state.epochs[epoch()].auction.couponBidderState[bidder];\n\n        bidderState.couponExpiryEpoch = couponEpochExpiry;\n        bidderState.dollarAmount = dollarAmount;\n        bidderState.couponAmount = maxCouponAmount;\n        bidderState.bidder = bidder;\n    }\n\n    function setCouponBidderStateDistance(address bidder, Decimal.D256 memory distance) internal {\n        _state.epochs[epoch()].auction.couponBidderState[bidder].distance = distance;\n    }\n\n    function setCouponBidderStateSelected(address bidder) internal {\n        _state.epochs[epoch()].auction.couponBidderState[bidder].selected = true;\n    }\n\n    function setCouponBidderStateRejected(address bidder) internal {\n        _state.epochs[epoch()].auction.couponBidderState[bidder].rejected = true;\n    }\n\n    function setCouponBidderStateIndex(uint256 index, address bidder) internal {\n        _state.epochs[epoch()].auction.couponBidder[index] = bidder;\n    }\n\n    function incrementCouponAuctionBids() internal {\n        _state.epochs[epoch()].auction._totalBids++;\n    }\n\n    function setCouponAuctionRelYield(uint256 yield) internal {\n        if (yield > _state.epochs[epoch()].auction.maxYield) {\n            _state.epochs[epoch()].auction.maxYield = yield;\n        }\n\n        if (_state.epochs[epoch()].auction.minYield > yield) {\n            _state.epochs[epoch()].auction.minYield = yield;\n        }\n    }\n    \n    function setCouponAuctionRelExpiry(uint256 couponEpochExpiry) internal {\n        if (couponEpochExpiry > _state.epochs[epoch()].auction.maxExpiry) {\n            _state.epochs[epoch()].auction.maxExpiry = couponEpochExpiry;\n        } \n\n        if (couponEpochExpiry < _state.epochs[epoch()].auction.minExpiry) {\n            _state.epochs[epoch()].auction.minExpiry = couponEpochExpiry;\n        }\n    }\n\n    function setCouponAuctionRelDollarAmount(uint256 couponDollarAmount) internal {\n        if (couponDollarAmount > _state.epochs[epoch()].auction.maxDollarAmount) {\n            _state.epochs[epoch()].auction.maxDollarAmount = couponDollarAmount;\n        }\n\n        if (couponDollarAmount < _state.epochs[epoch()].auction.minDollarAmount) {\n            _state.epochs[epoch()].auction.minDollarAmount = couponDollarAmount;\n        }\n    }\n\n    function setMinExpiryFilled(uint256 minExpiryFilled) internal {\n        _state.epochs[epoch()].auction.minExpiryFilled = minExpiryFilled;\n    }\n    \n    function setMaxExpiryFilled(uint256 maxExpiryFilled) internal {\n        _state.epochs[epoch()].auction.maxExpiryFilled = maxExpiryFilled;\n    }\n    \n    function setAvgExpiryFilled(uint256 avgExpiryFilled) internal {\n        _state.epochs[epoch()].auction.avgExpiryFilled = avgExpiryFilled;\n    }\n    \n    function setMinYieldFilled(uint256 minYieldFilled) internal {\n        _state.epochs[epoch()].auction.minYieldFilled = minYieldFilled;\n    }\n    \n    function setMaxYieldFilled(uint256 maxYieldFilled) internal {\n        _state.epochs[epoch()].auction.maxYieldFilled = maxYieldFilled;\n    }\n    \n    function setAvgYieldFilled(uint256 avgYieldFilled) internal {\n        _state.epochs[epoch()].auction.avgYieldFilled = avgYieldFilled;\n    }\n    \n    function setBidToCover(uint256 bidToCover) internal {\n        _state.epochs[epoch()].auction.bidToCover = bidToCover;\n    }\n    \n    function setTotalFilled(uint256 totalFilled) internal {\n        _state.epochs[epoch()].auction.totalFilled = totalFilled;\n    }\n        \n\n    /**\n     * Governance\n     */\n\n    function createCandidate(address candidate, uint256 period) internal {\n        _state.candidates[candidate].start = epoch();\n        _state.candidates[candidate].period = period;\n    }\n\n    function recordVote(address account, address candidate, Candidate.Vote vote) internal {\n        _state.candidates[candidate].votes[account] = vote;\n    }\n\n    function incrementApproveFor(address candidate, uint256 amount) internal {\n        _state.candidates[candidate].approve = _state.candidates[candidate].approve.add(amount);\n    }\n\n    function decrementApproveFor(address candidate, uint256 amount, string memory reason) internal {\n        _state.candidates[candidate].approve = _state.candidates[candidate].approve.sub(amount, reason);\n    }\n\n    function incrementRejectFor(address candidate, uint256 amount) internal {\n        _state.candidates[candidate].reject = _state.candidates[candidate].reject.add(amount);\n    }\n\n    function decrementRejectFor(address candidate, uint256 amount, string memory reason) internal {\n        _state.candidates[candidate].reject = _state.candidates[candidate].reject.sub(amount, reason);\n    }\n\n    function placeLock(address account, address candidate) internal {\n        uint256 currentLock = _state.accounts[account].lockedUntil;\n        uint256 newLock = startFor(candidate).add(periodFor(candidate));\n        if (newLock > currentLock) {\n            _state.accounts[account].lockedUntil = newLock;\n        }\n    }\n\n    function initialized(address candidate) internal {\n        _state.candidates[candidate].initialized = true;\n    }\n}\n",
  "sourcePath": "/Users/cinquemb/Documents/Startups/crypto/dollar/protocol/contracts/dao/Setters.sol",
  "compiler": {
    "name": "solc",
    "version": "0.5.17+commit.d19bba13.Emscripten.clang"
  },
  "schemaVersion": "3.3.3",
  "updatedAt": "2021-01-12T08:04:49.050Z",
  "devdoc": {
    "methods": {}
  },
  "userdoc": {
    "methods": {
      "balanceOfStaged(address)": {
        "notice": "Account"
      },
      "dollar()": {
        "notice": "Global"
      },
      "epoch()": {
        "notice": "Epoch"
      },
      "name()": {
        "notice": "ERC20 Interface"
      },
      "recordedVote(address,address)": {
        "notice": "Governance"
      },
      "transfer(address,uint256)": {
        "notice": "ERC20 Interface"
      }
    }
  }
}