{
  "contractName": "TestnetUSDC",
  "abi": [
    {
      "inputs": [],
      "payable": false,
      "stateMutability": "nonpayable",
      "type": "constructor"
    },
    {
      "anonymous": false,
      "inputs": [
        {
          "indexed": true,
          "internalType": "address",
          "name": "owner",
          "type": "address"
        },
        {
          "indexed": true,
          "internalType": "address",
          "name": "spender",
          "type": "address"
        },
        {
          "indexed": false,
          "internalType": "uint256",
          "name": "value",
          "type": "uint256"
        }
      ],
      "name": "Approval",
      "type": "event"
    },
    {
      "anonymous": false,
      "inputs": [
        {
          "indexed": true,
          "internalType": "address",
          "name": "from",
          "type": "address"
        },
        {
          "indexed": true,
          "internalType": "address",
          "name": "to",
          "type": "address"
        },
        {
          "indexed": false,
          "internalType": "uint256",
          "name": "value",
          "type": "uint256"
        }
      ],
      "name": "Transfer",
      "type": "event"
    },
    {
      "constant": true,
      "inputs": [
        {
          "internalType": "address",
          "name": "owner",
          "type": "address"
        },
        {
          "internalType": "address",
          "name": "spender",
          "type": "address"
        }
      ],
      "name": "allowance",
      "outputs": [
        {
          "internalType": "uint256",
          "name": "",
          "type": "uint256"
        }
      ],
      "payable": false,
      "stateMutability": "view",
      "type": "function"
    },
    {
      "constant": false,
      "inputs": [
        {
          "internalType": "address",
          "name": "spender",
          "type": "address"
        },
        {
          "internalType": "uint256",
          "name": "amount",
          "type": "uint256"
        }
      ],
      "name": "approve",
      "outputs": [
        {
          "internalType": "bool",
          "name": "",
          "type": "bool"
        }
      ],
      "payable": false,
      "stateMutability": "nonpayable",
      "type": "function"
    },
    {
      "constant": true,
      "inputs": [
        {
          "internalType": "address",
          "name": "account",
          "type": "address"
        }
      ],
      "name": "balanceOf",
      "outputs": [
        {
          "internalType": "uint256",
          "name": "",
          "type": "uint256"
        }
      ],
      "payable": false,
      "stateMutability": "view",
      "type": "function"
    },
    {
      "constant": false,
      "inputs": [
        {
          "internalType": "uint256",
          "name": "amount",
          "type": "uint256"
        }
      ],
      "name": "burn",
      "outputs": [],
      "payable": false,
      "stateMutability": "nonpayable",
      "type": "function"
    },
    {
      "constant": false,
      "inputs": [
        {
          "internalType": "address",
          "name": "account",
          "type": "address"
        },
        {
          "internalType": "uint256",
          "name": "amount",
          "type": "uint256"
        }
      ],
      "name": "burnFrom",
      "outputs": [],
      "payable": false,
      "stateMutability": "nonpayable",
      "type": "function"
    },
    {
      "constant": true,
      "inputs": [],
      "name": "decimals",
      "outputs": [
        {
          "internalType": "uint8",
          "name": "",
          "type": "uint8"
        }
      ],
      "payable": false,
      "stateMutability": "view",
      "type": "function"
    },
    {
      "constant": false,
      "inputs": [
        {
          "internalType": "address",
          "name": "spender",
          "type": "address"
        },
        {
          "internalType": "uint256",
          "name": "subtractedValue",
          "type": "uint256"
        }
      ],
      "name": "decreaseAllowance",
      "outputs": [
        {
          "internalType": "bool",
          "name": "",
          "type": "bool"
        }
      ],
      "payable": false,
      "stateMutability": "nonpayable",
      "type": "function"
    },
    {
      "constant": false,
      "inputs": [
        {
          "internalType": "address",
          "name": "spender",
          "type": "address"
        },
        {
          "internalType": "uint256",
          "name": "addedValue",
          "type": "uint256"
        }
      ],
      "name": "increaseAllowance",
      "outputs": [
        {
          "internalType": "bool",
          "name": "",
          "type": "bool"
        }
      ],
      "payable": false,
      "stateMutability": "nonpayable",
      "type": "function"
    },
    {
      "constant": true,
      "inputs": [],
      "name": "name",
      "outputs": [
        {
          "internalType": "string",
          "name": "",
          "type": "string"
        }
      ],
      "payable": false,
      "stateMutability": "view",
      "type": "function"
    },
    {
      "constant": true,
      "inputs": [],
      "name": "symbol",
      "outputs": [
        {
          "internalType": "string",
          "name": "",
          "type": "string"
        }
      ],
      "payable": false,
      "stateMutability": "view",
      "type": "function"
    },
    {
      "constant": true,
      "inputs": [],
      "name": "totalSupply",
      "outputs": [
        {
          "internalType": "uint256",
          "name": "",
          "type": "uint256"
        }
      ],
      "payable": false,
      "stateMutability": "view",
      "type": "function"
    },
    {
      "constant": false,
      "inputs": [
        {
          "internalType": "address",
          "name": "recipient",
          "type": "address"
        },
        {
          "internalType": "uint256",
          "name": "amount",
          "type": "uint256"
        }
      ],
      "name": "transfer",
      "outputs": [
        {
          "internalType": "bool",
          "name": "",
          "type": "bool"
        }
      ],
      "payable": false,
      "stateMutability": "nonpayable",
      "type": "function"
    },
    {
      "constant": false,
      "inputs": [
        {
          "internalType": "address",
          "name": "sender",
          "type": "address"
        },
        {
          "internalType": "address",
          "name": "recipient",
          "type": "address"
        },
        {
          "internalType": "uint256",
          "name": "amount",
          "type": "uint256"
        }
      ],
      "name": "transferFrom",
      "outputs": [
        {
          "internalType": "bool",
          "name": "",
          "type": "bool"
        }
      ],
      "payable": false,
      "stateMutability": "nonpayable",
      "type": "function"
    },
    {
      "constant": false,
      "inputs": [
        {
          "internalType": "address",
          "name": "account",
          "type": "address"
        },
        {
          "internalType": "uint256",
          "name": "amount",
          "type": "uint256"
        }
      ],
      "name": "mint",
      "outputs": [
        {
          "internalType": "bool",
          "name": "",
          "type": "bool"
        }
      ],
      "payable": false,
      "stateMutability": "nonpayable",
      "type": "function"
    },
    {
      "constant": true,
      "inputs": [
        {
          "internalType": "address",
          "name": "account",
          "type": "address"
        }
      ],
      "name": "isBlacklisted",
      "outputs": [
        {
          "internalType": "bool",
          "name": "",
          "type": "bool"
        }
      ],
      "payable": false,
      "stateMutability": "view",
      "type": "function"
    }
  ],
  "bytecode": "0x608060405234801561001057600080fd5b506040805180820182526006808252655553442f2f4360d01b6020808401918252845180860190955260048552635553444360e01b90850152825192939261005a9160009161008b565b50815161006e90600190602085019061008b565b506002805460ff191660ff92909216919091179055506101269050565b828054600181600116156101000203166002900490600052602060002090601f016020900481019282601f106100cc57805160ff19168380011785556100f9565b828001600101855582156100f9579182015b828111156100f95782518255916020019190600101906100de565b50610105929150610109565b5090565b61012391905b80821115610105576000815560010161010f565b90565b610eea806101356000396000f3fe608060405234801561001057600080fd5b50600436106100f55760003560e01c806342966c6811610097578063a457c2d711610066578063a457c2d7146101de578063a9059cbb146101f1578063dd62ed3e14610204578063fe575a8714610217576100f5565b806342966c681461019b57806370a08231146101b057806379cc6790146101c357806395d89b41146101d6576100f5565b806323b872dd116100d357806323b872dd1461014d578063313ce56714610160578063395093511461017557806340c10f1914610188576100f5565b806306fdde03146100fa578063095ea7b31461011857806318160ddd14610138575b600080fd5b61010261022a565b60405161010f9190610cc8565b60405180910390f35b61012b610126366004610a48565b6102c0565b60405161010f9190610cba565b6101406102de565b60405161010f9190610d49565b61012b61015b3660046109fb565b6102e4565b610168610371565b60405161010f9190610d57565b61012b610183366004610a48565b61037a565b61012b610196366004610a48565b6103ce565b6101ae6101a9366004610a78565b6103da565b005b6101406101be36600461099b565b6103ee565b6101ae6101d1366004610a48565b610409565b610102610417565b61012b6101ec366004610a48565b610477565b61012b6101ff366004610a48565b6104e5565b6101406102123660046109c1565b6104f9565b61012b61022536600461099b565b610524565b60008054604080516020601f60026000196101006001881615020190951694909404938401819004810282018101909252828152606093909290918301828280156102b65780601f1061028b576101008083540402835291602001916102b6565b820191906000526020600020905b81548152906001019060200180831161029957829003601f168201915b5050505050905090565b60006102d46102cd61052a565b848461052e565b5060015b92915050565b60055490565b60006102f18484846105eb565b610367846102fd61052a565b61036285604051806060016040528060288152602001610e37602891396001600160a01b038a1660009081526004602052604081209061033b61052a565b6001600160a01b03168152602081019190915260400160002054919063ffffffff61070116565b61052e565b5060019392505050565b60025460ff1690565b60006102d461038761052a565b84610362856004600061039861052a565b6001600160a01b03908116825260208083019390935260409182016000908120918c16815292529020549063ffffffff61072d16565b60006102d48383610759565b6103eb6103e561052a565b82610819565b50565b6001600160a01b031660009081526003602052604090205490565b61041382826108ef565b5050565b60018054604080516020601f600260001961010087891615020190951694909404938401819004810282018101909252828152606093909290918301828280156102b65780601f1061028b576101008083540402835291602001916102b6565b60006102d461048461052a565b8461036285604051806060016040528060258152602001610e8360259139600460006104ae61052a565b6001600160a01b03908116825260208083019390935260409182016000908120918d1681529252902054919063ffffffff61070116565b60006102d46104f261052a565b84846105eb565b6001600160a01b03918216600090815260046020908152604080832093909416825291909152205490565b50600090565b3390565b6001600160a01b03831661055d5760405162461bcd60e51b815260040161055490610d29565b60405180910390fd5b6001600160a01b0382166105835760405162461bcd60e51b815260040161055490610ce9565b6001600160a01b0380841660008181526004602090815260408083209487168084529490915290819020849055517f8c5be1e5ebec7d5bd14f71427d1e84f3dd0314c0f7b2291e5b200ac8c7c3b925906105de908590610d49565b60405180910390a3505050565b6001600160a01b0383166106115760405162461bcd60e51b815260040161055490610d19565b6001600160a01b0382166106375760405162461bcd60e51b815260040161055490610cd9565b61067a81604051806060016040528060268152602001610e11602691396001600160a01b038616600090815260036020526040902054919063ffffffff61070116565b6001600160a01b0380851660009081526003602052604080822093909355908416815220546106af908263ffffffff61072d16565b6001600160a01b0380841660008181526003602052604090819020939093559151908516907fddf252ad1be2c89b69c2b068fc378daa952ba7f163c4a11628f55a4df523b3ef906105de908590610d49565b600081848411156107255760405162461bcd60e51b81526004016105549190610cc8565b505050900390565b6000828201838110156107525760405162461bcd60e51b815260040161055490610cf9565b9392505050565b6001600160a01b03821661077f5760405162461bcd60e51b815260040161055490610d39565b600554610792908263ffffffff61072d16565b6005556001600160a01b0382166000908152600360205260409020546107be908263ffffffff61072d16565b6001600160a01b0383166000818152600360205260408082209390935591519091907fddf252ad1be2c89b69c2b068fc378daa952ba7f163c4a11628f55a4df523b3ef9061080d908590610d49565b60405180910390a35050565b6001600160a01b03821661083f5760405162461bcd60e51b815260040161055490610d09565b61088281604051806060016040528060228152602001610def602291396001600160a01b038516600090815260036020526040902054919063ffffffff61070116565b6001600160a01b0383166000908152600360205260409020556005546108ae908263ffffffff61094316565b6005556040516000906001600160a01b038416907fddf252ad1be2c89b69c2b068fc378daa952ba7f163c4a11628f55a4df523b3ef9061080d908590610d49565b6108f98282610819565b6104138261090561052a565b61036284604051806060016040528060248152602001610e5f602491396001600160a01b03881660009081526004602052604081209061033b61052a565b600061075283836040518060400160405280601e81526020017f536166654d6174683a207375627472616374696f6e206f766572666c6f770000815250610701565b80356102d881610dd1565b80356102d881610de5565b6000602082840312156109ad57600080fd5b60006109b98484610985565b949350505050565b600080604083850312156109d457600080fd5b60006109e08585610985565b92505060206109f185828601610985565b9150509250929050565b600080600060608486031215610a1057600080fd5b6000610a1c8686610985565b9350506020610a2d86828701610985565b9250506040610a3e86828701610990565b9150509250925092565b60008060408385031215610a5b57600080fd5b6000610a678585610985565b92505060206109f185828601610990565b600060208284031215610a8a57600080fd5b60006109b98484610990565b610a9f81610d7d565b82525050565b6000610ab082610d65565b610aba8185610d69565b9350610aca818560208601610d97565b610ad381610dc7565b9093019392505050565b6000610aea602383610d69565b7f45524332303a207472616e7366657220746f20746865207a65726f206164647281526265737360e81b602082015260400192915050565b6000610b2f602283610d69565b7f45524332303a20617070726f766520746f20746865207a65726f206164647265815261737360f01b602082015260400192915050565b6000610b73601b83610d69565b7f536166654d6174683a206164646974696f6e206f766572666c6f770000000000815260200192915050565b6000610bac602183610d69565b7f45524332303a206275726e2066726f6d20746865207a65726f206164647265738152607360f81b602082015260400192915050565b6000610bef602583610d69565b7f45524332303a207472616e736665722066726f6d20746865207a65726f206164815264647265737360d81b602082015260400192915050565b6000610c36602483610d69565b7f45524332303a20617070726f76652066726f6d20746865207a65726f206164648152637265737360e01b602082015260400192915050565b6000610c7c601f83610d69565b7f45524332303a206d696e7420746f20746865207a65726f206164647265737300815260200192915050565b610a9f81610d8e565b610a9f81610d91565b602081016102d88284610a96565b602080825281016107528184610aa5565b602080825281016102d881610add565b602080825281016102d881610b22565b602080825281016102d881610b66565b602080825281016102d881610b9f565b602080825281016102d881610be2565b602080825281016102d881610c29565b602080825281016102d881610c6f565b602081016102d88284610ca8565b602081016102d88284610cb1565b5190565b90815260200190565b60006102d882610d82565b151590565b6001600160a01b031690565b90565b60ff1690565b60005b83811015610db2578181015183820152602001610d9a565b83811115610dc1576000848401525b50505050565b601f01601f191690565b610dda81610d72565b81146103eb57600080fd5b610dda81610d8e56fe45524332303a206275726e20616d6f756e7420657863656564732062616c616e636545524332303a207472616e7366657220616d6f756e7420657863656564732062616c616e636545524332303a207472616e7366657220616d6f756e74206578636565647320616c6c6f77616e636545524332303a206275726e20616d6f756e74206578636565647320616c6c6f77616e636545524332303a2064656372656173656420616c6c6f77616e63652062656c6f77207a65726fa365627a7a72315820266d04cd0558dd63edabc394a7dbb0d6441c1baae0af6b4183ddfe885de9336f6c6578706572696d656e74616cf564736f6c63430005110040",
  "source": "/*\n    Copyright 2020 Dynamic Dollar Devs, based on the works of the Empty Set Squad\n\n    Licensed under the Apache License, Version 2.0 (the \"License\");\n    you may not use this file except in compliance with the License.\n    You may obtain a copy of the License at\n\n    http://www.apache.org/licenses/LICENSE-2.0\n\n    Unless required by applicable law or agreed to in writing, software\n    distributed under the License is distributed on an \"AS IS\" BASIS,\n    WITHOUT WARRANTIES OR CONDITIONS OF ANY KIND, either express or implied.\n    See the License for the specific language governing permissions and\n    limitations under the License.\n*/\n\npragma solidity ^0.5.17;\npragma experimental ABIEncoderV2;\n\nimport \"@openzeppelin/contracts/token/ERC20/ERC20Burnable.sol\";\nimport \"@openzeppelin/contracts/token/ERC20/ERC20Detailed.sol\";\nimport \"../oracle/IUSDC.sol\";\n\ncontract TestnetUSDC is ERC20Detailed, ERC20Burnable, IUSDC {\n    constructor()\n    ERC20Detailed(\"USD//C\", \"USDC\", 6)\n    public\n    { }\n\n    function mint(address account, uint256 amount) external returns (bool) {\n        _mint(account, amount);\n        return true;\n    }\n\n    function isBlacklisted(address account) external view returns (bool) {\n        return false;\n    }\n}\n",
  "sourcePath": "/home/name/Desktop/Files/projects/dynamic/dollar/protocol/contracts/mock/TestnetUSDC.sol",
  "compiler": {
    "name": "solc",
    "version": "0.5.17+commit.d19bba13.Emscripten.clang"
  },
  "schemaVersion": "3.3.1",
  "updatedAt": "2020-11-25T22:42:17.289Z",
  "networkType": "ethereum",
  "devdoc": {
    "methods": {
      "allowance(address,address)": {
        "details": "See {IERC20-allowance}."
      },
      "approve(address,uint256)": {
        "details": "See {IERC20-approve}.     * Requirements:     * - `spender` cannot be the zero address."
      },
      "balanceOf(address)": {
        "details": "See {IERC20-balanceOf}."
      },
      "burn(uint256)": {
        "details": "Destroys `amount` tokens from the caller.     * See {ERC20-_burn}."
      },
      "burnFrom(address,uint256)": {
        "details": "See {ERC20-_burnFrom}."
      },
      "decimals()": {
        "details": "Returns the number of decimals used to get its user representation. For example, if `decimals` equals `2`, a balance of `505` tokens should be displayed to a user as `5,05` (`505 / 10 ** 2`).     * Tokens usually opt for a value of 18, imitating the relationship between Ether and Wei.     * NOTE: This information is only used for _display_ purposes: it in no way affects any of the arithmetic of the contract, including {IERC20-balanceOf} and {IERC20-transfer}."
      },
      "decreaseAllowance(address,uint256)": {
        "details": "Atomically decreases the allowance granted to `spender` by the caller.     * This is an alternative to {approve} that can be used as a mitigation for problems described in {IERC20-approve}.     * Emits an {Approval} event indicating the updated allowance.     * Requirements:     * - `spender` cannot be the zero address. - `spender` must have allowance for the caller of at least `subtractedValue`."
      },
      "increaseAllowance(address,uint256)": {
        "details": "Atomically increases the allowance granted to `spender` by the caller.     * This is an alternative to {approve} that can be used as a mitigation for problems described in {IERC20-approve}.     * Emits an {Approval} event indicating the updated allowance.     * Requirements:     * - `spender` cannot be the zero address."
      },
      "name()": {
        "details": "Returns the name of the token."
      },
      "symbol()": {
        "details": "Returns the symbol of the token, usually a shorter version of the name."
      },
      "totalSupply()": {
        "details": "See {IERC20-totalSupply}."
      },
      "transfer(address,uint256)": {
        "details": "See {IERC20-transfer}.     * Requirements:     * - `recipient` cannot be the zero address. - the caller must have a balance of at least `amount`."
      },
      "transferFrom(address,address,uint256)": {
        "details": "See {IERC20-transferFrom}.     * Emits an {Approval} event indicating the updated allowance. This is not required by the EIP. See the note at the beginning of {ERC20};     * Requirements: - `sender` and `recipient` cannot be the zero address. - `sender` must have a balance of at least `amount`. - the caller must have allowance for `sender`'s tokens of at least `amount`."
      }
    }
  },
  "userdoc": {
    "methods": {}
  }
}